{
  "contractName": "Billionare",
  "abi": [
    {
      "constant": true,
      "inputs": [
        {
          "name": "n_one",
          "type": "string"
        },
        {
          "name": "one",
          "type": "uint256"
        },
        {
          "name": "n_two",
          "type": "string"
        },
        {
          "name": "two",
          "type": "uint256"
        },
        {
          "name": "n_three",
          "type": "string"
        },
        {
          "name": "three",
          "type": "uint256"
        }
      ],
      "name": "check",
      "outputs": [
        {
          "name": "",
          "type": "string"
        }
      ],
      "payable": false,
      "stateMutability": "pure",
      "type": "function"
    },
    {
      "constant": false,
      "inputs": [
        {
          "name": "name",
          "type": "string"
        }
      ],
      "name": "commit",
      "outputs": [],
      "payable": false,
      "stateMutability": "nonpayable",
      "type": "function"
    },
    {
      "constant": true,
      "inputs": [],
      "name": "get_winner",
      "outputs": [
        {
          "name": "",
          "type": "string"
        }
      ],
      "payable": false,
      "stateMutability": "view",
      "type": "function"
    },
    {
      "constant": false,
      "inputs": [],
      "name": "clear_winner",
      "outputs": [
        {
          "name": "",
          "type": "uint256"
        }
      ],
      "payable": false,
      "stateMutability": "nonpayable",
      "type": "function"
    }
  ],
  "bytecode": "0x608060405234801561001057600080fd5b506105a8806100206000396000f3fe6080604052600436106100615763ffffffff7c01000000000000000000000000000000000000000000000000000000006000350416631f59446f81146100665780637bcd540f1461008d5780639867db74146102d5578063bb4c4f1c1461038a575b600080fd5b34801561007257600080fd5b5061007b61039f565b60408051918252519081900360200190f35b34801561009957600080fd5b50610260600480360360c08110156100b057600080fd5b8101906020810181356401000000008111156100cb57600080fd5b8201836020820111156100dd57600080fd5b803590602001918460018302840111640100000000831117156100ff57600080fd5b91908080601f0160208091040260200160405190810160405280939291908181526020018383808284376000920191909152509295843595909490935060408101925060200135905064010000000081111561015a57600080fd5b82018360208201111561016c57600080fd5b8035906020019184600183028401116401000000008311171561018e57600080fd5b91908080601f016020809104026020016040519081016040528093929190818152602001838380828437600092019190915250929584359590949093506040810192506020013590506401000000008111156101e957600080fd5b8201836020820111156101fb57600080fd5b8035906020019184600183028401116401000000008311171561021d57600080fd5b91908080601f01602080910402602001604051908101604052809392919081815260200183838082843760009201919091525092955050913592506103b2915050565b6040805160208082528351818301528351919283929083019185019080838360005b8381101561029a578181015183820152602001610282565b50505050905090810190601f1680156102c75780820380516001836020036101000a031916815260200191505b509250505060405180910390f35b3480156102e157600080fd5b50610388600480360360208110156102f857600080fd5b81019060208101813564010000000081111561031357600080fd5b82018360208201111561032557600080fd5b8035906020019184600183028401116401000000008311171561034757600080fd5b91908080601f0160208091040260200160405190810160405280939291908181526020018383808284376000920191909152509295506103f0945050505050565b005b34801561039657600080fd5b50610260610407565b60006103ab818061049d565b5060005b90565b6060868685108015906103c55750828510155b156103cd5750845b8483101580156103dd5750868310155b156103e55750825b979650505050505050565b80516104039060009060208401906104e4565b5050565b60008054604080516020601f60026000196101006001881615020190951694909404938401819004810282018101909252828152606093909290918301828280156104935780601f1061046857610100808354040283529160200191610493565b820191906000526020600020905b81548152906001019060200180831161047657829003601f168201915b5050505050905090565b50805460018160011615610100020316600290046000825580601f106104c357506104e1565b601f0160209004906000526020600020908101906104e19190610562565b50565b828054600181600116156101000203166002900490600052602060002090601f016020900481019282601f1061052557805160ff1916838001178555610552565b82800160010185558215610552579182015b82811115610552578251825591602001919060010190610537565b5061055e929150610562565b5090565b6103af91905b8082111561055e576000815560010161056856fea165627a7a723058208f9567d9f4e124890070c271799911e146b433bab51926c0f1b17105e68d62620029",
  "source": "pragma solidity ^0.5.0;\n\ncontract Billionare {\n    string winner;\n    function check(\n        string memory n_one,\n        uint one,\n        string memory n_two,\n        uint two,\n        string memory n_three,\n        uint three\n    )\n        public\n        pure\n        returns (string memory)\n    {\n        string memory max = n_one;\n        if (two >= one && two >= three) {\n            max = n_two;\n        }\n        if (three >= two && three >= one) {\n            max = n_three;\n        }\n\n        return max;\n    }\n\n    function commit(string memory name) public {\n        winner = name;\n    }\n\n    function get_winner() public view returns(string memory) {\n        return winner;\n    }\n\n    function clear_winner() public returns(uint) {\n        delete winner;\n        return 0;\n    }\n}",
  "sourcePath": "/Users/adityapalepu/Startups/enigma/enigma-contract-internal/contracts/Billionare.sol",
  "compiler": {
    "name": "solc",
    "version": "0.5.0+commit.1d4f565a.Emscripten.clang"
  },
  "schemaVersion": "3.0.1",
  "updatedAt": "2019-01-16T01:38:47.574Z",
  "devdoc": {
    "methods": {}
  },
  "userdoc": {
    "methods": {}
  }
}