{
  "contractName": "CoinMixer",
  "abi": [
    {
      "constant": true,
      "inputs": [
        {
          "name": "args",
          "type": "bytes32[]"
        },
        {
          "name": "arg",
          "type": "bytes32"
        },
        {
          "name": "offset",
          "type": "uint256"
        },
        {
          "name": "value",
          "type": "uint256"
        }
      ],
      "name": "addArg",
      "outputs": [
        {
          "name": "",
          "type": "uint256"
        }
      ],
      "payable": false,
      "stateMutability": "pure",
      "type": "function"
    },
    {
      "constant": true,
      "inputs": [],
      "name": "enigma",
      "outputs": [
        {
          "name": "",
          "type": "address"
        }
      ],
      "payable": false,
      "stateMutability": "view",
      "type": "function"
    },
    {
      "constant": true,
      "inputs": [
        {
          "name": "args",
          "type": "bytes32[]"
        },
        {
          "name": "arg",
          "type": "bytes32"
        },
        {
          "name": "offset",
          "type": "uint256"
        },
        {
          "name": "value",
          "type": "bytes32[]"
        }
      ],
      "name": "addEncryptedArg",
      "outputs": [
        {
          "name": "",
          "type": "uint256"
        }
      ],
      "payable": false,
      "stateMutability": "pure",
      "type": "function"
    },
    {
      "inputs": [
        {
          "name": "_enigmaAddress",
          "type": "address"
        }
      ],
      "payable": false,
      "stateMutability": "nonpayable",
      "type": "constructor"
    },
    {
      "anonymous": false,
      "inputs": [
        {
          "indexed": true,
          "name": "user",
          "type": "address"
        },
        {
          "indexed": true,
          "name": "_dealId",
          "type": "uint32"
        },
        {
          "indexed": false,
          "name": "_startTime",
          "type": "uint256"
        },
        {
          "indexed": false,
          "name": "_title",
          "type": "bytes32"
        },
        {
          "indexed": false,
          "name": "_depositInWei",
          "type": "uint256"
        },
        {
          "indexed": false,
          "name": "_numParticipants",
          "type": "uint256"
        },
        {
          "indexed": false,
          "name": "_success",
          "type": "bool"
        },
        {
          "indexed": false,
          "name": "_err",
          "type": "string"
        }
      ],
      "name": "NewDeal",
      "type": "event"
    },
    {
      "anonymous": false,
      "inputs": [
        {
          "indexed": true,
          "name": "_depositor",
          "type": "address"
        },
        {
          "indexed": true,
          "name": "_dealId",
          "type": "uint32"
        },
        {
          "indexed": false,
          "name": "_encryptedDestAddress",
          "type": "bytes32"
        },
        {
          "indexed": false,
          "name": "_value",
          "type": "uint256"
        },
        {
          "indexed": false,
          "name": "_success",
          "type": "bool"
        },
        {
          "indexed": false,
          "name": "_err",
          "type": "string"
        }
      ],
      "name": "Deposit",
      "type": "event"
    },
    {
      "anonymous": false,
      "inputs": [
        {
          "indexed": true,
          "name": "_dealId",
          "type": "uint32"
        },
        {
          "indexed": false,
          "name": "_success",
          "type": "bool"
        },
        {
          "indexed": false,
          "name": "_err",
          "type": "string"
        }
      ],
      "name": "Distribute",
      "type": "event"
    },
    {
      "anonymous": false,
      "inputs": [
        {
          "indexed": true,
          "name": "to",
          "type": "address"
        },
        {
          "indexed": false,
          "name": "value",
          "type": "uint256"
        }
      ],
      "name": "TransferredToken",
      "type": "event"
    },
    {
      "anonymous": false,
      "inputs": [
        {
          "indexed": true,
          "name": "to",
          "type": "address"
        },
        {
          "indexed": false,
          "name": "value",
          "type": "uint256"
        }
      ],
      "name": "FailedTransfer",
      "type": "event"
    },
    {
      "anonymous": false,
      "inputs": [
        {
          "indexed": true,
          "name": "_dealId",
          "type": "uint32"
        }
      ],
      "name": "DealFullyFunded",
      "type": "event"
    },
    {
      "anonymous": false,
      "inputs": [
        {
          "indexed": true,
          "name": "_dealId",
          "type": "uint32"
        },
        {
          "indexed": false,
          "name": "_success",
          "type": "bool"
        }
      ],
      "name": "DealExecuted",
      "type": "event"
    },
    {
      "constant": false,
      "inputs": [
        {
          "name": "_title",
          "type": "bytes32"
        },
        {
          "name": "_depositInWei",
          "type": "uint256"
        },
        {
          "name": "_numParticipants",
          "type": "uint256"
        }
      ],
      "name": "newDeal",
      "outputs": [
        {
          "name": "",
          "type": "uint8"
        }
      ],
      "payable": false,
      "stateMutability": "nonpayable",
      "type": "function"
    },
    {
      "constant": false,
      "inputs": [
        {
          "name": "dealId",
          "type": "uint32"
        },
        {
          "name": "encryptedDestAddress",
          "type": "bytes32"
        }
      ],
      "name": "makeDeposit",
      "outputs": [
        {
          "name": "",
          "type": "uint8"
        }
      ],
      "payable": true,
      "stateMutability": "payable",
      "type": "function"
    },
    {
      "constant": false,
      "inputs": [
        {
          "name": "dealId",
          "type": "uint32"
        }
      ],
      "name": "executeDeal",
      "outputs": [],
      "payable": true,
      "stateMutability": "payable",
      "type": "function"
    },
    {
      "constant": true,
      "inputs": [
        {
          "name": "dealId",
          "type": "uint32"
        },
        {
          "name": "destAddresses",
          "type": "address[]"
        },
        {
          "name": "rand",
          "type": "uint256"
        }
      ],
      "name": "mixAddresses",
      "outputs": [
        {
          "name": "",
          "type": "uint256"
        },
        {
          "name": "",
          "type": "address[]"
        }
      ],
      "payable": false,
      "stateMutability": "pure",
      "type": "function"
    },
    {
      "constant": false,
      "inputs": [
        {
          "name": "dealId",
          "type": "uint32"
        },
        {
          "name": "destAddresses",
          "type": "address[]"
        }
      ],
      "name": "distribute",
      "outputs": [
        {
          "name": "",
          "type": "uint8"
        }
      ],
      "payable": false,
      "stateMutability": "nonpayable",
      "type": "function"
    },
    {
      "constant": true,
      "inputs": [],
      "name": "listDeals",
      "outputs": [
        {
          "name": "",
          "type": "uint256[]"
        },
        {
          "name": "",
          "type": "uint256[]"
        },
        {
          "name": "",
          "type": "uint256[]"
        }
      ],
      "payable": false,
      "stateMutability": "view",
      "type": "function"
    },
    {
      "constant": true,
      "inputs": [
        {
          "name": "_dealId",
          "type": "uint32"
        }
      ],
      "name": "dealStatus",
      "outputs": [
        {
          "name": "",
          "type": "bytes32"
        },
        {
          "name": "",
          "type": "uint256"
        },
        {
          "name": "",
          "type": "uint256"
        },
        {
          "name": "",
          "type": "uint256"
        },
        {
          "name": "",
          "type": "uint256"
        },
        {
          "name": "",
          "type": "uint256"
        }
      ],
      "payable": false,
      "stateMutability": "view",
      "type": "function"
    },
    {
      "constant": true,
      "inputs": [
        {
          "name": "_dealId",
          "type": "uint32"
        }
      ],
      "name": "getEncryptedAddresses",
      "outputs": [
        {
          "name": "",
          "type": "bytes32[]"
        }
      ],
      "payable": false,
      "stateMutability": "view",
      "type": "function"
    }
  ],
  "bytecode": "0x608060405234801561001057600080fd5b50604051602080611af683398101806040528101908080519060200190929190505050806000806101000a81548173ffffffffffffffffffffffffffffffffffffffff021916908373ffffffffffffffffffffffffffffffffffffffff16021790555050611a73806100836000396000f3006080604052600436106100af576000357c0100000000000000000000000000000000000000000000000000000000900463ffffffff16806310f11e84146100b4578063317c17b9146101b057806348764d66146102065780636db0c8f01461028e578063850d86191461032a578063a06a585614610350578063b24fd5c5146103b7578063d10e1e691461040e578063daefe738146104a6578063dd20866e14610518578063ed0b494c146105f4575b600080fd5b3480156100c057600080fd5b506100c96106c9565b60405180806020018060200180602001848103845287818151815260200191508051906020019060200280838360005b838110156101145780820151818401526020810190506100f9565b50505050905001848103835286818151815260200191508051906020019060200280838360005b8381101561015657808201518184015260208101905061013b565b50505050905001848103825285818151815260200191508051906020019060200280838360005b8381101561019857808201518184015260208101905061017d565b50505050905001965050505050505060405180910390f35b6101e2600480360381019080803563ffffffff16906020019092919080356000191690602001909291905050506108ff565b604051808260018111156101f257fe5b60ff16815260200191505060405180910390f35b34801561021257600080fd5b50610237600480360381019080803563ffffffff169060200190929190505050610d61565b6040518080602001828103825283818151815260200191508051906020019060200280838360005b8381101561027a57808201518184015260208101905061025f565b505050509050019250505060405180910390f35b34801561029a57600080fd5b506103146004803603810190808035906020019082018035906020019080806020026020016040519081016040528093929190818152602001838360200280828437820191505050505050919291929080356000191690602001909291908035906020019092919080359060200190929190505050610de3565b6040518082815260200191505060405180910390f35b61034e600480360381019080803563ffffffff169060200190929190505050610e56565b005b34801561035c57600080fd5b5061039360048036038101908080356000191690602001909291908035906020019092919080359060200190929190505050610f7a565b604051808260018111156103a357fe5b60ff16815260200191505060405180910390f35b3480156103c357600080fd5b506103cc6112ce565b604051808273ffffffffffffffffffffffffffffffffffffffff1673ffffffffffffffffffffffffffffffffffffffff16815260200191505060405180910390f35b34801561041a57600080fd5b50610482600480360381019080803563ffffffff169060200190929190803590602001908201803590602001908080602002602001604051908101604052809392919081815260200183836020028082843782019150505050505091929192905050506112f3565b6040518082600181111561049257fe5b60ff16815260200191505060405180910390f35b3480156104b257600080fd5b506104d7600480360381019080803563ffffffff16906020019092919050505061137b565b604051808760001916600019168152602001868152602001858152602001848152602001838152602001828152602001965050505050505060405180910390f35b34801561052457600080fd5b50610596600480360381019080803563ffffffff16906020019092919080359060200190820180359060200190808060200260200160405190810160405280939291908181526020018383602002808284378201915050505050509192919290803590602001909291905050506114a7565b6040518083815260200180602001828103825283818151815260200191508051906020019060200280838360005b838110156105df5780820151818401526020810190506105c4565b50505050905001935050505060405180910390f35b34801561060057600080fd5b506106b36004803603810190808035906020019082018035906020019080806020026020016040519081016040528093929190818152602001838360200280828437820191505050505050919291929080356000191690602001909291908035906020019092919080359060200190820180359060200190808060200260200160405190810160405280939291908181526020018383602002808284378201915050505050509192919290505050611683565b6040518082815260200191505060405180910390f35b60608060608060608060006001805490506040519080825280602002602001820160405280156107085781602001602082028038833980820191505090505b50935060018054905060405190808252806020026020018201604052801561073f5781602001602082028038833980820191505090505b5092506001805490506040519080825280602002602001820160405280156107765781602001602082028038833980820191505090505b509150600090505b6001805490508110156108ed5760018181548110151561079a57fe5b90600052602060002090600b0201600a015484828151811015156107ba57fe5b906020019060200201818152505060006001828154811015156107d957fe5b90600052602060002090600b020160020160003373ffffffffffffffffffffffffffffffffffffffff1673ffffffffffffffffffffffffffffffffffffffff16815260200190815260200160002054111561084d576001838281518110151561083e57fe5b90602001906020020181815250505b3373ffffffffffffffffffffffffffffffffffffffff1660018281548110151561087357fe5b90600052602060002090600b020160000160009054906101000a900473ffffffffffffffffffffffffffffffffffffffff1673ffffffffffffffffffffffffffffffffffffffff1614156108e057600182828151811015156108d157fe5b90602001906020020181815250505b808060010191505061077e565b83838396509650965050505050909192565b60008060003411151561097a576040517f08c379a000000000000000000000000000000000000000000000000000000000815260040180806020018281038252601f8152602001807f4465706f7369742076616c7565206d75737420626520706f7369746976652e0081525060200191505060405180910390fd5b600060018563ffffffff1681548110151561099157fe5b90600052602060002090600b0201600a0154141515610a18576040517f08c379a000000000000000000000000000000000000000000000000000000000815260040180806020018281038252601b8152602001807f496c6c6567616c20737461746520666f72206465706f736974732e000000000081525060200191505060405180910390fd5b60018463ffffffff16815481101515610a2d57fe5b90600052602060002090600b020190506000816006015434811515610a4e57fe5b06141515610aea576040517f08c379a000000000000000000000000000000000000000000000000000000000815260040180806020018281038252602f8152602001807f4465706f7369742076616c7565206d7573742062652061206d756c7469706c6581526020017f206f6620636c61696d2076616c7565000000000000000000000000000000000081525060400191505060405180910390fd5b60008160020160003373ffffffffffffffffffffffffffffffffffffffff1673ffffffffffffffffffffffffffffffffffffffff16815260200190815260200160002054141515610bc9576040517f08c379a000000000000000000000000000000000000000000000000000000000815260040180806020018281038252602a8152602001807f43616e6e6f74206465706f73697420747769636520776974682074686520736181526020017f6d6520616464726573730000000000000000000000000000000000000000000081525060400191505060405180910390fd5b348160030160008282540192505081905550348160020160003373ffffffffffffffffffffffffffffffffffffffff1673ffffffffffffffffffffffffffffffffffffffff1681526020019081526020016000208190555082816008018260040154815481101515610c3757fe5b906000526020600020018160001916905550600181600401600082825401925050819055508363ffffffff163373ffffffffffffffffffffffffffffffffffffffff167f3c8a309521e8f12939b88c8f85e24deea6bc4979b3c60bcbf480fe7090aedb9d853460016040518084600019166000191681526020018381526020018215151515815260200180602001828103825260088152602001807f616c6c20676f6f6400000000000000000000000000000000000000000000000081525060200194505050505060405180910390a380600701548160040154101515610d5657600181600a01819055508363ffffffff167fa98c11bc69afe22b520fe800f82e421f9594d4f06259a7600711b75af05a43b960405160405180910390a25b600091505092915050565b606060018263ffffffff16815481101515610d7857fe5b90600052602060002090600b0201600801805480602002602001604051908101604052809291908181526020018280548015610dd757602002820191906000526020600020905b81546000191681526020019060010190808311610dbf575b50505050509050919050565b6000838584815181101515610df457fe5b9060200190602002019060001916908160001916815250508280600101935050610e1d82611722565b8584815181101515610e2b57fe5b9060200190602002019060001916908160001916815250508280600101935050829050949350505050565b600060608060018463ffffffff16815481101515610e7057fe5b90600052602060002090600b02019250604080519080825280601f01601f191660200182016040528015610eb35781602001602082028038833980820191505090505b5091506001604051908082528060200260200182016040528015610ee65781602001602082028038833980820191505090505b5090507f72616e6428290000000000000000000000000000000000000000000000000000816000815181101515610f1957fe5b9060200190602002019060001916908160001916815250508363ffffffff167fb37f76c8ba24e6a6d20d203681329001f2cacd9ab37c09d8b2aee57b8a31b8746001604051808215151515815260200191505060405180910390a250505050565b600080600180549050905060018054809190600101610f9991906117cb565b503360018263ffffffff16815481101515610fb057fe5b90600052602060002090600b020160000160006101000a81548173ffffffffffffffffffffffffffffffffffffffff021916908373ffffffffffffffffffffffffffffffffffffffff1602179055508460018263ffffffff1681548110151561101557fe5b90600052602060002090600b02016001018160001916905550600060018263ffffffff1681548110151561104557fe5b90600052602060002090600b020160030181905550600060018263ffffffff1681548110151561107157fe5b90600052602060002090600b0201600401819055504260018263ffffffff1681548110151561109c57fe5b90600052602060002090600b0201600501819055508360018263ffffffff168154811015156110c757fe5b90600052602060002090600b0201600601819055508260018263ffffffff168154811015156110f257fe5b90600052602060002090600b020160070181905550826040519080825280602002602001820160405280156111365781602001602082028038833980820191505090505b5060018263ffffffff1681548110151561114c57fe5b90600052602060002090600b020160080190805190602001906111709291906117fd565b50826040519080825280602002602001820160405280156111a05781602001602082028038833980820191505090505b5060018263ffffffff168154811015156111b657fe5b90600052602060002090600b020160090190805190602001906111da929190611850565b50600060018263ffffffff168154811015156111f257fe5b90600052602060002090600b0201600a01819055508063ffffffff163373ffffffffffffffffffffffffffffffffffffffff167f8c2ac5e09d37c38a96fb20791b6ed6f2ccaaaf26c4115680b9257504d32bcdc34288888860016040518086815260200185600019166000191681526020018481526020018381526020018215151515815260200180602001828103825260088152602001807f616c6c20676f6f64000000000000000000000000000000000000000000000000815250602001965050505050505060405180910390a360009150509392505050565b6000809054906101000a900473ffffffffffffffffffffffffffffffffffffffff1681565b60008263ffffffff167fd845de92648bf6bce3cf24c41d79ac33bc429db112dcb48af51db9086d7cd01d6001604051808215151515815260200180602001828103825260088152602001807f616c6c20676f6f640000000000000000000000000000000000000000000000008152506020019250505060405180910390a26000905092915050565b60008060008060008060008060008060008060018d63ffffffff168154811015156113a257fe5b90600052602060002090600b020160010154955060018d63ffffffff168154811015156113cb57fe5b90600052602060002090600b020160070154945060018d63ffffffff168154811015156113f457fe5b90600052602060002090600b020160060154935060018d63ffffffff1681548110151561141d57fe5b90600052602060002090600b020160040154925060018d63ffffffff1681548110151561144657fe5b90600052602060002090600b020160030154915060018d63ffffffff1681548110151561146f57fe5b90600052602060002090600b02016009018054905090508585858585859b509b509b509b509b509b5050505050505091939550919395565b600060606000806000865192505b60008311156116695782600260018801604051808281526020019150506020604051808303816000865af11580156114f1573d6000803e3d6000fd5b5050506040513d602081101561150657600080fd5b81019080805190602001909291905050506001900481151561152457fe5b069150866001840381518110151561153857fe5b9060200190602002015173ffffffffffffffffffffffffffffffffffffffff16878381518110151561156657fe5b9060200190602002015173ffffffffffffffffffffffffffffffffffffffff1614151561165b57866001840381518110151561159e57fe5b90602001906020020151905086828151811015156115b857fe5b9060200190602002015187600185038151811015156115d357fe5b9060200190602002019073ffffffffffffffffffffffffffffffffffffffff16908173ffffffffffffffffffffffffffffffffffffffff168152505080878381518110151561161e57fe5b9060200190602002019073ffffffffffffffffffffffffffffffffffffffff16908173ffffffffffffffffffffffffffffffffffffffff16815250505b8280600190039350506114b5565b87878163ffffffff16915094509450505050935093915050565b60008084868581518110151561169557fe5b9060200190602002019060001916908160001916815250508380600101945050600090505b82518110156117165782818151811015156116d157fe5b9060200190602002015186858151811015156116e957fe5b906020019060200201906000191690816000191681525050838060010194505080806001019150506116ba565b83915050949350505050565b600080821415611754577f300000000000000000000000000000000000000000000000000000000000000090506117c3565b5b60008211156117c257610100816001900481151561176f57fe5b0460010290507f01000000000000000000000000000000000000000000000000000000000000006030600a848115156117a457fe5b06010260010281179050600a828115156117ba57fe5b049150611755565b5b809050919050565b8154818355818111156117f857600b0281600b0283600052602060002091820191016117f791906118da565b5b505050565b82805482825590600052602060002090810192821561183f579160200282015b8281111561183e57825182906000191690559160200191906001019061181d565b5b50905061184c9190611978565b5090565b8280548282559060005260206000209081019282156118c9579160200282015b828111156118c85782518260006101000a81548173ffffffffffffffffffffffffffffffffffffffff021916908373ffffffffffffffffffffffffffffffffffffffff16021790555091602001919060010190611870565b5b5090506118d6919061199d565b5090565b61197591905b8082111561197157600080820160006101000a81549073ffffffffffffffffffffffffffffffffffffffff021916905560018201600090556003820160009055600482016000905560058201600090556006820160009055600782016000905560088201600061195091906119e0565b6009820160006119609190611a01565b600a82016000905550600b016118e0565b5090565b90565b61199a91905b8082111561199657600081600090555060010161197e565b5090565b90565b6119dd91905b808211156119d957600081816101000a81549073ffffffffffffffffffffffffffffffffffffffff0219169055506001016119a3565b5090565b90565b50805460008255906000526020600020908101906119fe9190611978565b50565b5080546000825590600052602060002090810190611a1f9190611a22565b50565b611a4491905b80821115611a40576000816000905550600101611a28565b5090565b905600a165627a7a723058205dd1cdf638eb5b3c86549a16f82c54966fe3f984651f687d3f0ac2d03d9c15b70029",
  "source": "pragma solidity ^0.4.22;\n\nimport \"./Enigma.sol\";\nimport \"./EnigmaP.sol\";\n\ncontract CoinMixer is EnigmaP {\n    Enigma public enigma;\n\n    struct Deal {\n        address organizer;\n        bytes32 title;\n        mapping(address => uint) deposit;\n        uint depositSum;\n        uint numDeposits;\n\n        uint startTime;\n        uint depositInWei;\n        uint numParticipants;\n\n        bytes32[] encryptedDestAddresses;\n        address[] destAddresses;\n\n        uint status; // 0: active; 1: funded; 2: executed; 3: cancelled\n    }\n\n    Deal[] deals;\n\n    event NewDeal(address indexed user, uint32 indexed _dealId, uint _startTime, bytes32 _title, uint _depositInWei, uint _numParticipants, bool _success, string _err);\n    event Deposit(address indexed _depositor, uint32 indexed _dealId, bytes32 _encryptedDestAddress, uint _value, bool _success, string _err);\n    event Distribute(uint32 indexed _dealId, bool _success, string _err);\n\n    event TransferredToken(address indexed to, uint256 value);\n    event FailedTransfer(address indexed to, uint256 value);\n\n    event DealFullyFunded(uint32 indexed _dealId);\n    event DealExecuted(uint32 indexed _dealId, bool _success);\n\n    // TODO: switch to require() once it accepts a message parameter\n    enum ReturnValue {Ok, Error}\n\n    function CoinMixer(address _enigmaAddress) public {\n        enigma = Enigma(_enigmaAddress);\n    }\n\n    function newDeal(bytes32 _title, uint _depositInWei, uint _numParticipants)\n    public\n    returns (ReturnValue) {\n        uint32 dealId = uint32(deals.length);\n\n        deals.length++;\n        deals[dealId].organizer = msg.sender;\n        deals[dealId].title = _title;\n        deals[dealId].depositSum = 0;\n        deals[dealId].numDeposits = 0;\n        deals[dealId].startTime = now;\n        deals[dealId].depositInWei = _depositInWei;\n        deals[dealId].numParticipants = _numParticipants;\n        deals[dealId].encryptedDestAddresses = new bytes32[](_numParticipants);\n        deals[dealId].destAddresses = new address[](_numParticipants);\n        deals[dealId].status = 0;\n        emit NewDeal(msg.sender, dealId, now, _title, _depositInWei, _numParticipants, true, \"all good\");\n\n        return ReturnValue.Ok;\n    }\n\n    function makeDeposit(uint32 dealId, bytes32 encryptedDestAddress)\n    public\n    payable\n    returns (ReturnValue){\n        require(msg.value > 0, \"Deposit value must be positive.\");\n        require(deals[dealId].status == 0, \"Illegal state for deposits.\");\n\n        Deal storage deal = deals[dealId];\n        require((msg.value % deal.depositInWei) == 0, \"Deposit value must be a multiple of claim value\");\n        require(deal.deposit[msg.sender] == 0, \"Cannot deposit twice with the same address\");\n\n        // actual deposit\n        deal.depositSum += msg.value;\n        deal.deposit[msg.sender] = msg.value;\n        deal.encryptedDestAddresses[deal.numDeposits] = encryptedDestAddress;\n        deal.numDeposits += 1;\n\n        emit Deposit(msg.sender, dealId, encryptedDestAddress, msg.value, true, \"all good\");\n\n        if (deal.numDeposits >= deal.numParticipants) {\n            deal.status = 1;\n            emit DealFullyFunded(dealId);\n        }\n        return ReturnValue.Ok;\n    }\n\n    function executeDeal(uint32 dealId)\n    public\n    payable\n    {\n        // Execute the deal and pay for computation\n        // TODO: refactor for RLP\n        Deal storage deal = deals[dealId];\n\n        // After giving this some thought, this is what I came up with to serialize arguments\n        // To avoid unecessary complexity, arguments will be provided as a bytes32 array\n        // Each argument will start by it's declaration like in the target function\n        //    name type (e.g. uint dealId)\n        // Followed by bytes32 encoded values.\n        // If the value is an array, just add each value sequentially.\n        // The EnigmaP contract has helper function to populate the arguments.\n        //        bytes32[] memory args = new bytes32[](deal.numDeposits + 3);\n        //        uint offset = 0;\n        //        offset = addArg(args, \"uint dealId\", offset, dealId);\n        //        offset = addEncryptedArg(args, \"address[] destAddresses\", offset, deal.encryptedDestAddresses);\n        bytes memory args = new bytes(64);\n\n        // This is the most generic way I came up with for the preprocessors.\n        // We can accept an unlimited number of preprocessors, each of which\n        // might have arbitrary attributes.\n        // The enclave will know who to apply each preprocessor by convention.\n        bytes32[] memory preprocessors = new bytes32[](1);\n        preprocessors[0] = \"rand()\";\n\n        // enigma.compute.value(msg.value)(this, \"mixAddresses\", args, \"distribute\", preprocessors);\n        emit DealExecuted(dealId, true);\n    }\n\n    function mixAddresses(uint32 dealId, address[] destAddresses, uint rand)\n    public\n    pure\n    returns (uint, address[]) {\n        // Shuffling the specified address using a random seed.\n        // Doing a Fisher-Yates Shuffle with a single integer\n        // between 0 and 127. To get more numbers in the loop,\n        // we'll add 1 to our seed and hash it.\n        uint i = destAddresses.length;\n        while (i > 0) {\n            uint j = uint(sha256(rand + 1)) % i;\n\n            // Array swap\n            if (destAddresses[j] != destAddresses[i - 1]) {\n                address destAddress = destAddresses[i - 1];\n                destAddresses[i - 1] = destAddresses[j];\n                destAddresses[j] = destAddress;\n            }\n            i--;\n        }\n        return (dealId, destAddresses);\n    }\n\n    function distribute(uint32 dealId, address[] destAddresses)\n    public\n    returns (ReturnValue){\n        //        Deal storage deal = deals[dealId];\n        //        require(deal.status == 2, \"Deal is not executed.\");\n        //\n        //        deal.destAddresses = destAddresses;\n        //\n        //        bool enoughAddresses = deal.destAddresses.length == deal.numParticipants;\n        //        require(enoughAddresses, \"missing some destination addresses\");\n        //\n        //        for (uint i = 0; i < deal.destAddresses.length; i++) {\n        //            deal.destAddresses[i].transfer(deal.depositSum);\n        //        }\n        //\n        emit Distribute(dealId, true, \"all good\");\n        return ReturnValue.Ok;\n    }\n\n    function listDeals() public view returns (uint[], uint[], uint[]) {\n        // A list of deals with their key properties\n        uint[] memory status = new uint[](deals.length);\n        uint[] memory participates = new uint[](deals.length);\n        uint[] memory organizes = new uint[](deals.length);\n\n        for (uint i = 0; i < deals.length; i++) {\n            status[i] = deals[i].status;\n\n            if (deals[i].deposit[msg.sender] > 0) {\n                participates[i] = 1;\n            }\n\n            if (deals[i].organizer == msg.sender) {\n                organizes[i] = 1;\n            }\n        }\n        return (status, participates, organizes);\n    }\n\n    function dealStatus(uint32 _dealId)\n    public\n    view\n    returns (bytes32, uint, uint, uint, uint, uint){\n        // Key attributes of a deal\n        bytes32 title = deals[_dealId].title;\n        uint numParticipants = deals[_dealId].numParticipants;\n        uint deposit = deals[_dealId].depositInWei;\n        uint numDeposits = deals[_dealId].numDeposits;\n        uint depositSum = deals[_dealId].depositSum;\n        uint numDestAddresses = deals[_dealId].destAddresses.length;\n\n        return (title, numParticipants, deposit, numDeposits, depositSum, numDestAddresses);\n    }\n\n    function getEncryptedAddresses(uint32 _dealId) public view returns (bytes32[]) {\n        // Returns an array of encrypted addresses\n        return deals[_dealId].encryptedDestAddresses;\n    }\n}\n\n",
  "sourcePath": "/Users/fredfortier/Code/enigma/mvp0/coin-mixer-poc/dapp/contracts/CoinMixer.sol",
  "compiler": {
    "name": "solc",
    "version": "0.4.23+commit.124ca40d.Emscripten.clang"
  },
  "schemaVersion": "2.0.0",
  "updatedAt": "2018-05-04T00:19:41.059Z"
}