{
  "contractName": "CoinMixer",
  "abi": [
    {
      "constant": true,
      "inputs": [
        {
          "name": "args",
          "type": "bytes32[]"
        },
        {
          "name": "arg",
          "type": "bytes32"
        },
        {
          "name": "offset",
          "type": "uint256"
        },
        {
          "name": "value",
          "type": "uint256"
        }
      ],
      "name": "addArg",
      "outputs": [
        {
          "name": "",
          "type": "uint256"
        }
      ],
      "payable": false,
      "stateMutability": "pure",
      "type": "function"
    },
    {
      "constant": true,
      "inputs": [],
      "name": "enigma",
      "outputs": [
        {
          "name": "",
          "type": "address"
        }
      ],
      "payable": false,
      "stateMutability": "view",
      "type": "function"
    },
    {
      "constant": true,
      "inputs": [
        {
          "name": "args",
          "type": "bytes32[]"
        },
        {
          "name": "arg",
          "type": "bytes32"
        },
        {
          "name": "offset",
          "type": "uint256"
        },
        {
          "name": "value",
          "type": "bytes32[]"
        }
      ],
      "name": "addEncryptedArg",
      "outputs": [
        {
          "name": "",
          "type": "uint256"
        }
      ],
      "payable": false,
      "stateMutability": "pure",
      "type": "function"
    },
    {
      "inputs": [],
      "payable": false,
      "stateMutability": "nonpayable",
      "type": "constructor"
    },
    {
      "anonymous": false,
      "inputs": [
        {
          "indexed": true,
          "name": "user",
          "type": "address"
        },
        {
          "indexed": true,
          "name": "_dealId",
          "type": "uint256"
        },
        {
          "indexed": false,
          "name": "_startTime",
          "type": "uint256"
        },
        {
          "indexed": false,
          "name": "_title",
          "type": "bytes32"
        },
        {
          "indexed": false,
          "name": "_depositInWei",
          "type": "uint256"
        },
        {
          "indexed": false,
          "name": "_numParticipants",
          "type": "uint256"
        },
        {
          "indexed": false,
          "name": "_success",
          "type": "bool"
        },
        {
          "indexed": false,
          "name": "_err",
          "type": "string"
        }
      ],
      "name": "NewDeal",
      "type": "event"
    },
    {
      "anonymous": false,
      "inputs": [
        {
          "indexed": true,
          "name": "_depositor",
          "type": "address"
        },
        {
          "indexed": true,
          "name": "_dealId",
          "type": "uint256"
        },
        {
          "indexed": false,
          "name": "_encryptedDestAddress",
          "type": "bytes32"
        },
        {
          "indexed": false,
          "name": "_value",
          "type": "uint256"
        },
        {
          "indexed": false,
          "name": "_success",
          "type": "bool"
        },
        {
          "indexed": false,
          "name": "_err",
          "type": "string"
        }
      ],
      "name": "Deposit",
      "type": "event"
    },
    {
      "anonymous": false,
      "inputs": [
        {
          "indexed": true,
          "name": "_dealId",
          "type": "uint256"
        },
        {
          "indexed": false,
          "name": "_success",
          "type": "bool"
        },
        {
          "indexed": false,
          "name": "_err",
          "type": "string"
        }
      ],
      "name": "Distribute",
      "type": "event"
    },
    {
      "anonymous": false,
      "inputs": [
        {
          "indexed": true,
          "name": "to",
          "type": "address"
        },
        {
          "indexed": false,
          "name": "value",
          "type": "uint256"
        }
      ],
      "name": "TransferredToken",
      "type": "event"
    },
    {
      "anonymous": false,
      "inputs": [
        {
          "indexed": true,
          "name": "to",
          "type": "address"
        },
        {
          "indexed": false,
          "name": "value",
          "type": "uint256"
        }
      ],
      "name": "FailedTransfer",
      "type": "event"
    },
    {
      "anonymous": false,
      "inputs": [
        {
          "indexed": true,
          "name": "_dealId",
          "type": "uint256"
        }
      ],
      "name": "DealFullyFunded",
      "type": "event"
    },
    {
      "anonymous": false,
      "inputs": [
        {
          "indexed": true,
          "name": "_dealId",
          "type": "uint256"
        },
        {
          "indexed": false,
          "name": "_success",
          "type": "bool"
        }
      ],
      "name": "DealExecuted",
      "type": "event"
    },
    {
      "constant": false,
      "inputs": [
        {
          "name": "_title",
          "type": "bytes32"
        },
        {
          "name": "_depositInWei",
          "type": "uint256"
        },
        {
          "name": "_numParticipants",
          "type": "uint256"
        }
      ],
      "name": "newDeal",
      "outputs": [
        {
          "name": "",
          "type": "uint8"
        }
      ],
      "payable": false,
      "stateMutability": "nonpayable",
      "type": "function"
    },
    {
      "constant": false,
      "inputs": [
        {
          "name": "dealId",
          "type": "uint256"
        },
        {
          "name": "encryptedDestAddress",
          "type": "bytes32"
        }
      ],
      "name": "makeDeposit",
      "outputs": [
        {
          "name": "",
          "type": "uint8"
        }
      ],
      "payable": true,
      "stateMutability": "payable",
      "type": "function"
    },
    {
      "constant": false,
      "inputs": [
        {
          "name": "dealId",
          "type": "uint256"
        }
      ],
      "name": "executeDeal",
      "outputs": [],
      "payable": true,
      "stateMutability": "payable",
      "type": "function"
    },
    {
      "constant": true,
      "inputs": [
        {
          "name": "dealId",
          "type": "uint256"
        },
        {
          "name": "destAddresses",
          "type": "address[]"
        },
        {
          "name": "rand",
          "type": "uint256"
        }
      ],
      "name": "mixAddresses",
      "outputs": [
        {
          "name": "",
          "type": "uint256"
        },
        {
          "name": "",
          "type": "address[]"
        }
      ],
      "payable": false,
      "stateMutability": "pure",
      "type": "function"
    },
    {
      "constant": false,
      "inputs": [
        {
          "name": "dealId",
          "type": "uint256"
        },
        {
          "name": "destAddresses",
          "type": "address[]"
        }
      ],
      "name": "distribute",
      "outputs": [
        {
          "name": "",
          "type": "uint8"
        }
      ],
      "payable": false,
      "stateMutability": "nonpayable",
      "type": "function"
    },
    {
      "constant": true,
      "inputs": [],
      "name": "listDeals",
      "outputs": [
        {
          "name": "",
          "type": "uint256[]"
        },
        {
          "name": "",
          "type": "uint256[]"
        },
        {
          "name": "",
          "type": "uint256[]"
        }
      ],
      "payable": false,
      "stateMutability": "view",
      "type": "function"
    },
    {
      "constant": true,
      "inputs": [
        {
          "name": "_dealId",
          "type": "uint256"
        }
      ],
      "name": "dealStatus",
      "outputs": [
        {
          "name": "",
          "type": "bytes32"
        },
        {
          "name": "",
          "type": "uint256"
        },
        {
          "name": "",
          "type": "uint256"
        },
        {
          "name": "",
          "type": "uint256"
        },
        {
          "name": "",
          "type": "uint256"
        },
        {
          "name": "",
          "type": "uint256"
        }
      ],
      "payable": false,
      "stateMutability": "view",
      "type": "function"
    },
    {
      "constant": true,
      "inputs": [
        {
          "name": "_dealId",
          "type": "uint256"
        }
      ],
      "name": "getEncryptedAddresses",
      "outputs": [
        {
          "name": "",
          "type": "bytes32[]"
        }
      ],
      "payable": false,
      "stateMutability": "view",
      "type": "function"
    }
  ],
  "bytecode": "0x608060405234801561001057600080fd5b5073345ca3e014aaf5dca488057592ee47305d9b3e106000806101000a81548173ffffffffffffffffffffffffffffffffffffffff021916908373ffffffffffffffffffffffffffffffffffffffff160217905550611e55806100746000396000f3006080604052600436106100af576000357c0100000000000000000000000000000000000000000000000000000000900463ffffffff16806310f11e84146100b457806323cb0cee146101b05780632ea79968146101d0578063306387a4146102205780635e562a6f1461028c5780636db0c8f01461030e57806385e3c463146103aa578063a06a58561461043c578063b24fd5c5146104a3578063e61d89ef146104fa578063ed0b494c146105d0575b600080fd5b3480156100c057600080fd5b506100c96106a5565b60405180806020018060200180602001848103845287818151815260200191508051906020019060200280838360005b838110156101145780820151818401526020810190506100f9565b50505050905001848103835286818151815260200191508051906020019060200280838360005b8381101561015657808201518184015260208101905061013b565b50505050905001848103825285818151815260200191508051906020019060200280838360005b8381101561019857808201518184015260208101905061017d565b50505050905001965050505050505060405180910390f35b6101ce600480360381019080803590602001909291905050506108db565b005b6101fc600480360381019080803590602001909291908035600019169060200190929190505050610c8b565b6040518082600181111561020c57fe5b60ff16815260200191505060405180910390f35b34801561022c57600080fd5b5061024b600480360381019080803590602001909291905050506110d5565b604051808760001916600019168152602001868152602001858152602001848152602001838152602001828152602001965050505050505060405180910390f35b34801561029857600080fd5b506102b7600480360381019080803590602001909291905050506111dd565b6040518080602001828103825283818151815260200191508051906020019060200280838360005b838110156102fa5780820151818401526020810190506102df565b505050509050019250505060405180910390f35b34801561031a57600080fd5b506103946004803603810190808035906020019082018035906020019080806020026020016040519081016040528093929190818152602001838360200280828437820191505050505050919291929080356000191690602001909291908035906020019092919080359060200190929190505050611259565b6040518082815260200191505060405180910390f35b3480156103b657600080fd5b5061041860048036038101908080359060200190929190803590602001908201803590602001908080602002602001604051908101604052809392919081815260200183836020028082843782019150505050505091929192905050506112cc565b6040518082600181111561042857fe5b60ff16815260200191505060405180910390f35b34801561044857600080fd5b5061047f6004803603810190808035600019169060200190929190803590602001909291908035906020019092919050505061155b565b6040518082600181111561048f57fe5b60ff16815260200191505060405180910390f35b3480156104af57600080fd5b506104b861186d565b604051808273ffffffffffffffffffffffffffffffffffffffff1673ffffffffffffffffffffffffffffffffffffffff16815260200191505060405180910390f35b34801561050657600080fd5b50610572600480360381019080803590602001909291908035906020019082018035906020019080806020026020016040519081016040528093929190818152602001838360200280828437820191505050505050919291929080359060200190929190505050611892565b6040518083815260200180602001828103825283818151815260200191508051906020019060200280838360005b838110156105bb5780820151818401526020810190506105a0565b50505050905001935050505060405180910390f35b3480156105dc57600080fd5b5061068f6004803603810190808035906020019082018035906020019080806020026020016040519081016040528093929190818152602001838360200280828437820191505050505050919291929080356000191690602001909291908035906020019092919080359060200190820180359060200190808060200260200160405190810160405280939291908181526020018383602002808284378201915050505050509192919290505050611a65565b6040518082815260200191505060405180910390f35b60608060608060608060006001805490506040519080825280602002602001820160405280156106e45781602001602082028038833980820191505090505b50935060018054905060405190808252806020026020018201604052801561071b5781602001602082028038833980820191505090505b5092506001805490506040519080825280602002602001820160405280156107525781602001602082028038833980820191505090505b509150600090505b6001805490508110156108c95760018181548110151561077657fe5b90600052602060002090600b0201600a0154848281518110151561079657fe5b906020019060200201818152505060006001828154811015156107b557fe5b90600052602060002090600b020160020160003373ffffffffffffffffffffffffffffffffffffffff1673ffffffffffffffffffffffffffffffffffffffff168152602001908152602001600020541115610829576001838281518110151561081a57fe5b90602001906020020181815250505b3373ffffffffffffffffffffffffffffffffffffffff1660018281548110151561084f57fe5b90600052602060002090600b020160000160009054906101000a900473ffffffffffffffffffffffffffffffffffffffff1673ffffffffffffffffffffffffffffffffffffffff1614156108bc57600182828151811015156108ad57fe5b90602001906020020181815250505b808060010191505061075a565b83838396509650965050505050909192565b60006060600060606001858154811015156108f257fe5b90600052602060002090600b0201935060038460040154016040519080825280602002602001820160405280156109385781602001602082028038833980820191505090505b5092506000915061096b837f75696e74206465616c49640000000000000000000000000000000000000000008488611259565b91506109ef837f616464726573735b5d206465737441646472657373657300000000000000000084876008018054806020026020016040519081016040528092919081815260200182805480156109e557602002820191906000526020600020905b815460001916815260200190600101908083116109cd575b5050505050611a65565b91506001604051908082528060200260200182016040528015610a215781602001602082028038833980820191505090505b5090507f72616e6428290000000000000000000000000000000000000000000000000000816000815181101515610a5457fe5b9060200190602002019060001916908160001916815250506000809054906101000a900473ffffffffffffffffffffffffffffffffffffffff1673ffffffffffffffffffffffffffffffffffffffff1663fb2476fd343086856040518563ffffffff167c0100000000000000000000000000000000000000000000000000000000028152600401808473ffffffffffffffffffffffffffffffffffffffff1673ffffffffffffffffffffffffffffffffffffffff168152602001807f6d6978416464726573736573000000000000000000000000000000000000000081525060200180602001807f646973747269627574650000000000000000000000000000000000000000000081525060200180602001838103835285818151815260200191508051906020019060200280838360005b83811015610ba1578082015181840152602081019050610b86565b50505050905001838103825284818151815260200191508051906020019060200280838360005b83811015610be3578082015181840152602081019050610bc8565b50505050905001955050505050506020604051808303818588803b158015610c0a57600080fd5b505af1158015610c1e573d6000803e3d6000fd5b50505050506040513d6020811015610c3557600080fd5b810190808051906020019092919050505050847f28de9c2b09dd20fbbc169895a9937c78a59bbdb5558601145d15ad89331b4d566001604051808215151515815260200191505060405180910390a25050505050565b600080600034111515610d06576040517f08c379a000000000000000000000000000000000000000000000000000000000815260040180806020018281038252601f8152602001807f4465706f7369742076616c7565206d75737420626520706f7369746976652e0081525060200191505060405180910390fd5b6000600185815481101515610d1757fe5b90600052602060002090600b0201600a0154141515610d9e576040517f08c379a000000000000000000000000000000000000000000000000000000000815260040180806020018281038252601b8152602001807f496c6c6567616c20737461746520666f72206465706f736974732e000000000081525060200191505060405180910390fd5b600184815481101515610dad57fe5b90600052602060002090600b020190506000816006015434811515610dce57fe5b06141515610e6a576040517f08c379a000000000000000000000000000000000000000000000000000000000815260040180806020018281038252602f8152602001807f4465706f7369742076616c7565206d7573742062652061206d756c7469706c6581526020017f206f6620636c61696d2076616c7565000000000000000000000000000000000081525060400191505060405180910390fd5b60008160020160003373ffffffffffffffffffffffffffffffffffffffff1673ffffffffffffffffffffffffffffffffffffffff16815260200190815260200160002054141515610f49576040517f08c379a000000000000000000000000000000000000000000000000000000000815260040180806020018281038252602a8152602001807f43616e6e6f74206465706f73697420747769636520776974682074686520736181526020017f6d6520616464726573730000000000000000000000000000000000000000000081525060400191505060405180910390fd5b348160030160008282540192505081905550348160020160003373ffffffffffffffffffffffffffffffffffffffff1673ffffffffffffffffffffffffffffffffffffffff1681526020019081526020016000208190555082816008018260040154815481101515610fb757fe5b90600052602060002001816000191690555060018160040160008282540192505081905550833373ffffffffffffffffffffffffffffffffffffffff167f9253951f3eff982bd56920e03d1dd72425977d70fae4ac8e2e0da3c564bfabcb853460016040518084600019166000191681526020018381526020018215151515815260200180602001828103825260088152602001807f616c6c20676f6f6400000000000000000000000000000000000000000000000081525060200194505050505060405180910390a3806007015481600401541015156110ca57600181600a0181905550837f38c728834d3279b1aa694222a5c1079e38e2d78a9543064bd3b50ffbfd030b3460405160405180910390a25b600091505092915050565b60008060008060008060008060008060008060018d8154811015156110f657fe5b90600052602060002090600b020160010154955060018d81548110151561111957fe5b90600052602060002090600b020160070154945060018d81548110151561113c57fe5b90600052602060002090600b020160060154935060018d81548110151561115f57fe5b90600052602060002090600b020160040154925060018d81548110151561118257fe5b90600052602060002090600b020160030154915060018d8154811015156111a557fe5b90600052602060002090600b02016009018054905090508585858585859b509b509b509b509b509b5050505050505091939550919395565b60606001828154811015156111ee57fe5b90600052602060002090600b020160080180548060200260200160405190810160405280929190818152602001828054801561124d57602002820191906000526020600020905b81546000191681526020019060010190808311611235575b50505050509050919050565b600083858481518110151561126a57fe5b906020019060200201906000191690816000191681525050828060010193505061129382611b04565b85848151811015156112a157fe5b9060200190602002019060001916908160001916815250508280600101935050829050949350505050565b6000806000806001868154811015156112e157fe5b90600052602060002090600b02019250600283600a015414151561136d576040517f08c379a00000000000000000000000000000000000000000000000000000000081526004018080602001828103825260158152602001807f4465616c206973206e6f742065786563757465642e000000000000000000000081525060200191505060405180910390fd5b84836009019080519060200190611385929190611bad565b5082600701548360090180549050149150811515611431576040517f08c379a00000000000000000000000000000000000000000000000000000000081526004018080602001828103825260228152602001807f6d697373696e6720736f6d652064657374696e6174696f6e206164647265737381526020017f657300000000000000000000000000000000000000000000000000000000000081525060400191505060405180910390fd5b600090505b82600901805490508110156114d857826009018181548110151561145657fe5b9060005260206000200160009054906101000a900473ffffffffffffffffffffffffffffffffffffffff1673ffffffffffffffffffffffffffffffffffffffff166108fc84600301549081150290604051600060405180830381858888f193505050501580156114ca573d6000803e3d6000fd5b508080600101915050611436565b857f354e1ddaa2fab096efb3d49c4d2ce86db3174dba7ba4f2c07e08742466a2c2156001604051808215151515815260200180602001828103825260088152602001807f616c6c20676f6f640000000000000000000000000000000000000000000000008152506020019250505060405180910390a26000935050505092915050565b60008060018054905090506001805480919060010161157a9190611c37565b503360018281548110151561158b57fe5b90600052602060002090600b020160000160006101000a81548173ffffffffffffffffffffffffffffffffffffffff021916908373ffffffffffffffffffffffffffffffffffffffff160217905550846001828154811015156115ea57fe5b90600052602060002090600b02016001018160001916905550600060018281548110151561161457fe5b90600052602060002090600b020160030181905550600060018281548110151561163a57fe5b90600052602060002090600b0201600401819055504260018281548110151561165f57fe5b90600052602060002090600b0201600501819055508360018281548110151561168457fe5b90600052602060002090600b020160060181905550826001828154811015156116a957fe5b90600052602060002090600b020160070181905550826040519080825280602002602001820160405280156116ed5781602001602082028038833980820191505090505b506001828154811015156116fd57fe5b90600052602060002090600b02016008019080519060200190611721929190611c69565b50826040519080825280602002602001820160405280156117515781602001602082028038833980820191505090505b5060018281548110151561176157fe5b90600052602060002090600b02016009019080519060200190611785929190611bad565b50600060018281548110151561179757fe5b90600052602060002090600b0201600a0181905550803373ffffffffffffffffffffffffffffffffffffffff167f3f8aabc3a12e950c954455d2c33afc5d85a289ad74baae0ed96884daf85ba4104288888860016040518086815260200185600019166000191681526020018481526020018381526020018215151515815260200180602001828103825260088152602001807f616c6c20676f6f64000000000000000000000000000000000000000000000000815250602001965050505050505060405180910390a360009150509392505050565b6000809054906101000a900473ffffffffffffffffffffffffffffffffffffffff1681565b600060606000806000865192505b6000831115611a545782600260018801604051808281526020019150506020604051808303816000865af11580156118dc573d6000803e3d6000fd5b5050506040513d60208110156118f157600080fd5b81019080805190602001909291905050506001900481151561190f57fe5b069150866001840381518110151561192357fe5b9060200190602002015173ffffffffffffffffffffffffffffffffffffffff16878381518110151561195157fe5b9060200190602002015173ffffffffffffffffffffffffffffffffffffffff16141515611a4657866001840381518110151561198957fe5b90602001906020020151905086828151811015156119a357fe5b9060200190602002015187600185038151811015156119be57fe5b9060200190602002019073ffffffffffffffffffffffffffffffffffffffff16908173ffffffffffffffffffffffffffffffffffffffff1681525050808783815181101515611a0957fe5b9060200190602002019073ffffffffffffffffffffffffffffffffffffffff16908173ffffffffffffffffffffffffffffffffffffffff16815250505b8280600190039350506118a0565b878794509450505050935093915050565b600080848685815181101515611a7757fe5b9060200190602002019060001916908160001916815250508380600101945050600090505b8251811015611af8578281815181101515611ab357fe5b906020019060200201518685815181101515611acb57fe5b90602001906020020190600019169081600019168152505083806001019450508080600101915050611a9c565b83915050949350505050565b600080821415611b36577f30000000000000000000000000000000000000000000000000000000000000009050611ba5565b5b6000821115611ba4576101008160019004811515611b5157fe5b0460010290507f01000000000000000000000000000000000000000000000000000000000000006030600a84811515611b8657fe5b06010260010281179050600a82811515611b9c57fe5b049150611b37565b5b809050919050565b828054828255906000526020600020908101928215611c26579160200282015b82811115611c255782518260006101000a81548173ffffffffffffffffffffffffffffffffffffffff021916908373ffffffffffffffffffffffffffffffffffffffff16021790555091602001919060010190611bcd565b5b509050611c339190611cbc565b5090565b815481835581811115611c6457600b0281600b028360005260206000209182019101611c639190611cff565b5b505050565b828054828255906000526020600020908101928215611cab579160200282015b82811115611caa578251829060001916905591602001919060010190611c89565b5b509050611cb89190611d9d565b5090565b611cfc91905b80821115611cf857600081816101000a81549073ffffffffffffffffffffffffffffffffffffffff021916905550600101611cc2565b5090565b90565b611d9a91905b80821115611d9657600080820160006101000a81549073ffffffffffffffffffffffffffffffffffffffff0219169055600182016000905560038201600090556004820160009055600582016000905560068201600090556007820160009055600882016000611d759190611dc2565b600982016000611d859190611de3565b600a82016000905550600b01611d05565b5090565b90565b611dbf91905b80821115611dbb576000816000905550600101611da3565b5090565b90565b5080546000825590600052602060002090810190611de09190611d9d565b50565b5080546000825590600052602060002090810190611e019190611e04565b50565b611e2691905b80821115611e22576000816000905550600101611e0a565b5090565b905600a165627a7a72305820aaf4c125ea39ea99b27b49dac392fe001a72b60ded5ede552b1e531f4c477eed0029",
  "source": "pragma solidity ^0.4.22;\n\nimport \"./Enigma.sol\";\nimport \"./EnigmaP.sol\";\n\ncontract CoinMixer is EnigmaP {\n    Enigma public enigma;\n\n    struct Deal {\n        address organizer;\n        bytes32 title;\n        mapping(address => uint) deposit;\n        uint depositSum;\n        uint numDeposits;\n\n        uint startTime;\n        uint depositInWei;\n        uint numParticipants;\n\n        bytes32[] encryptedDestAddresses;\n        address[] destAddresses;\n\n        uint status; // 0: active; 1: funded; 2: executed; 3: cancelled\n    }\n\n    Deal[] deals;\n\n    event NewDeal(address indexed user, uint indexed _dealId, uint _startTime, bytes32 _title, uint _depositInWei, uint _numParticipants, bool _success, string _err);\n    event Deposit(address indexed _depositor, uint indexed _dealId, bytes32 _encryptedDestAddress, uint _value, bool _success, string _err);\n    event Distribute(uint indexed _dealId, bool _success, string _err);\n\n    event TransferredToken(address indexed to, uint256 value);\n    event FailedTransfer(address indexed to, uint256 value);\n\n    event DealFullyFunded(uint indexed _dealId);\n    event DealExecuted(uint indexed _dealId, bool _success);\n\n    // TODO: switch to require() once it accepts a message parameter\n    enum ReturnValue {Ok, Error}\n\n    function CoinMixer() public {\n        // TODO: can we make this dynamic?\n        enigma = Enigma(0x345ca3e014aaf5dca488057592ee47305d9b3e10);\n    }\n\n    function newDeal(bytes32 _title, uint _depositInWei, uint _numParticipants)\n    public\n    returns (ReturnValue) {\n        uint dealId = deals.length;\n\n        deals.length++;\n        deals[dealId].organizer = msg.sender;\n        deals[dealId].title = _title;\n        deals[dealId].depositSum = 0;\n        deals[dealId].numDeposits = 0;\n        deals[dealId].startTime = now;\n        deals[dealId].depositInWei = _depositInWei;\n        deals[dealId].numParticipants = _numParticipants;\n        deals[dealId].encryptedDestAddresses = new bytes32[](_numParticipants);\n        deals[dealId].destAddresses = new address[](_numParticipants);\n        deals[dealId].status = 0;\n        emit NewDeal(msg.sender, dealId, now, _title, _depositInWei, _numParticipants, true, \"all good\");\n\n        return ReturnValue.Ok;\n    }\n\n    function makeDeposit(uint dealId, bytes32 encryptedDestAddress)\n    public\n    payable\n    returns (ReturnValue){\n        require(msg.value > 0, \"Deposit value must be positive.\");\n        require(deals[dealId].status == 0, \"Illegal state for deposits.\");\n\n        Deal storage deal = deals[dealId];\n        require((msg.value % deal.depositInWei) == 0, \"Deposit value must be a multiple of claim value\");\n        require(deal.deposit[msg.sender] == 0, \"Cannot deposit twice with the same address\");\n\n        // actual deposit\n        deal.depositSum += msg.value;\n        deal.deposit[msg.sender] = msg.value;\n        deal.encryptedDestAddresses[deal.numDeposits] = encryptedDestAddress;\n        deal.numDeposits += 1;\n\n        emit Deposit(msg.sender, dealId, encryptedDestAddress, msg.value, true, \"all good\");\n\n        if (deal.numDeposits >= deal.numParticipants) {\n            deal.status = 1;\n            emit DealFullyFunded(dealId);\n        }\n        return ReturnValue.Ok;\n    }\n\n    function executeDeal(uint dealId)\n    public\n    payable\n    {\n        // Execute the deal and pay for computation\n        Deal storage deal = deals[dealId];\n\n        // After giving this some thought, this is what I came up with to serialize arguments\n        // To avoid unecessary complexity, arguments will be provided as a bytes32 array\n        // Each argument will start by it's declaration like in the target function\n        //    name type (e.g. uint dealId)\n        // Followed by bytes32 encoded values.\n        // If the value is an array, just add each value sequentially.\n        // The EnigmaP contract has helper function to populate the arguments.\n        bytes32[] memory args = new bytes32[](deal.numDeposits + 3);\n        uint offset = 0;\n        offset = addArg(args, \"uint dealId\", offset, dealId);\n        offset = addEncryptedArg(args, \"address[] destAddresses\", offset, deal.encryptedDestAddresses);\n\n        // This is the most generic way I came up with for the preprocessors.\n        // We can accept an unlimited number of preprocessors, each of which\n        // might have arbitrary attributes.\n        // The enclave will know who to apply each preprocessor by convention.\n        bytes32[] memory preprocessors = new bytes32[](1);\n        preprocessors[0] = \"rand()\";\n\n        enigma.compute.value(msg.value)(this, \"mixAddresses\", args, \"distribute\", preprocessors);\n        emit DealExecuted(dealId, true);\n    }\n\n    function mixAddresses(uint dealId, address[] destAddresses, uint rand)\n    public\n    pure\n    returns (uint, address[]) {\n        // Shuffling the specified address using a random seed.\n        // Doing a Fisher-Yates Shuffle with a single integer\n        // between 0 and 127. To get more numbers in the loop,\n        // we'll add 1 to our seed and hash it.\n        uint i = destAddresses.length;\n        while (i > 0) {\n            uint j = uint(sha256(rand + 1)) % i;\n\n            // Array swap\n            if (destAddresses[j] != destAddresses[i - 1]) {\n                address destAddress = destAddresses[i - 1];\n                destAddresses[i - 1] = destAddresses[j];\n                destAddresses[j] = destAddress;\n            }\n            i--;\n        }\n        return (dealId, destAddresses);\n    }\n\n    function distribute(uint dealId, address[] destAddresses)\n    public\n    returns (ReturnValue){\n        Deal storage deal = deals[dealId];\n        require(deal.status == 2, \"Deal is not executed.\");\n\n        deal.destAddresses = destAddresses;\n\n        bool enoughAddresses = deal.destAddresses.length == deal.numParticipants;\n        require(enoughAddresses, \"missing some destination addresses\");\n\n        for (uint i = 0; i < deal.destAddresses.length; i++) {\n            deal.destAddresses[i].transfer(deal.depositSum);\n        }\n\n        emit Distribute(dealId, true, \"all good\");\n        return ReturnValue.Ok;\n    }\n\n    function listDeals() public view returns (uint[], uint[], uint[]) {\n        // A list of deals with their key properties\n        uint[] memory status = new uint[](deals.length);\n        uint[] memory participates = new uint[](deals.length);\n        uint[] memory organizes = new uint[](deals.length);\n\n        for (uint i = 0; i < deals.length; i++) {\n            status[i] = deals[i].status;\n\n            if (deals[i].deposit[msg.sender] > 0) {\n                participates[i] = 1;\n            }\n\n            if (deals[i].organizer == msg.sender) {\n                organizes[i] = 1;\n            }\n        }\n        return (status, participates, organizes);\n    }\n\n    function dealStatus(uint _dealId)\n    public\n    view\n    returns (bytes32, uint, uint, uint, uint, uint){\n        // Key attributes of a deal\n        bytes32 title = deals[_dealId].title;\n        uint numParticipants = deals[_dealId].numParticipants;\n        uint deposit = deals[_dealId].depositInWei;\n        uint numDeposits = deals[_dealId].numDeposits;\n        uint depositSum = deals[_dealId].depositSum;\n        uint numDestAddresses = deals[_dealId].destAddresses.length;\n\n        return (title, numParticipants, deposit, numDeposits, depositSum, numDestAddresses);\n    }\n\n    function getEncryptedAddresses(uint _dealId) public view returns (bytes32[]) {\n        // Returns an array of encrypted addresses\n        return deals[_dealId].encryptedDestAddresses;\n    }\n}\n\n",
  "sourcePath": "/Users/fredfortier/Code/enigma/mvp0/coin-mixer-poc/dapp/contracts/CoinMixer.sol",
  "compiler": {
    "name": "solc",
    "version": "0.4.23+commit.124ca40d.Emscripten.clang"
  },
  "schemaVersion": "2.0.0",
  "updatedAt": "2018-04-26T03:32:33.005Z"
}