{
  "contractName": "CoinMixer",
  "abi": [
    {
      "inputs": [],
      "payable": false,
      "stateMutability": "nonpayable",
      "type": "constructor"
    },
    {
      "anonymous": false,
      "inputs": [
        {
          "indexed": true,
          "name": "user",
          "type": "address"
        },
        {
          "indexed": true,
          "name": "_dealId",
          "type": "uint256"
        },
        {
          "indexed": false,
          "name": "_startTime",
          "type": "uint256"
        },
        {
          "indexed": false,
          "name": "_title",
          "type": "string"
        },
        {
          "indexed": false,
          "name": "_depositInWei",
          "type": "uint256"
        },
        {
          "indexed": false,
          "name": "_numParticipants",
          "type": "uint256"
        },
        {
          "indexed": false,
          "name": "_success",
          "type": "bool"
        },
        {
          "indexed": false,
          "name": "_err",
          "type": "string"
        }
      ],
      "name": "NewDeal",
      "type": "event"
    },
    {
      "anonymous": false,
      "inputs": [
        {
          "indexed": true,
          "name": "_depositor",
          "type": "address"
        },
        {
          "indexed": true,
          "name": "_dealId",
          "type": "uint256"
        },
        {
          "indexed": false,
          "name": "_encryptedDestAddress",
          "type": "string"
        },
        {
          "indexed": false,
          "name": "_value",
          "type": "uint256"
        },
        {
          "indexed": false,
          "name": "_success",
          "type": "bool"
        },
        {
          "indexed": false,
          "name": "_err",
          "type": "string"
        }
      ],
      "name": "Deposit",
      "type": "event"
    },
    {
      "anonymous": false,
      "inputs": [
        {
          "indexed": true,
          "name": "_destAddresses",
          "type": "address[]"
        },
        {
          "indexed": true,
          "name": "_dealId",
          "type": "uint256"
        },
        {
          "indexed": false,
          "name": "_success",
          "type": "bool"
        },
        {
          "indexed": false,
          "name": "_err",
          "type": "string"
        }
      ],
      "name": "Distribute",
      "type": "event"
    },
    {
      "anonymous": false,
      "inputs": [
        {
          "indexed": true,
          "name": "to",
          "type": "address"
        },
        {
          "indexed": false,
          "name": "value",
          "type": "uint256"
        }
      ],
      "name": "TransferredToken",
      "type": "event"
    },
    {
      "anonymous": false,
      "inputs": [
        {
          "indexed": true,
          "name": "to",
          "type": "address"
        },
        {
          "indexed": false,
          "name": "value",
          "type": "uint256"
        }
      ],
      "name": "FailedTransfer",
      "type": "event"
    },
    {
      "anonymous": false,
      "inputs": [
        {
          "indexed": true,
          "name": "_dealId",
          "type": "uint256"
        }
      ],
      "name": "DealFullyFunded",
      "type": "event"
    },
    {
      "constant": false,
      "inputs": [
        {
          "name": "_title",
          "type": "string"
        },
        {
          "name": "_depositInWei",
          "type": "uint256"
        },
        {
          "name": "_numParticipants",
          "type": "uint256"
        }
      ],
      "name": "newDeal",
      "outputs": [
        {
          "name": "",
          "type": "uint8"
        }
      ],
      "payable": false,
      "stateMutability": "nonpayable",
      "type": "function"
    },
    {
      "constant": false,
      "inputs": [
        {
          "name": "dealId",
          "type": "uint256"
        },
        {
          "name": "encryptedDestAddress",
          "type": "string"
        }
      ],
      "name": "makeDeposit",
      "outputs": [
        {
          "name": "",
          "type": "uint8"
        }
      ],
      "payable": true,
      "stateMutability": "payable",
      "type": "function"
    },
    {
      "constant": false,
      "inputs": [
        {
          "name": "dealId",
          "type": "uint256"
        },
        {
          "name": "destAddresses",
          "type": "address[]"
        }
      ],
      "name": "mixAddresses",
      "outputs": [
        {
          "name": "",
          "type": "uint256"
        },
        {
          "name": "",
          "type": "address[]"
        }
      ],
      "payable": false,
      "stateMutability": "nonpayable",
      "type": "function"
    },
    {
      "constant": false,
      "inputs": [
        {
          "name": "dealId",
          "type": "uint256"
        },
        {
          "name": "destAddresses",
          "type": "address[]"
        }
      ],
      "name": "setDestAddresses",
      "outputs": [
        {
          "name": "",
          "type": "uint8"
        }
      ],
      "payable": false,
      "stateMutability": "nonpayable",
      "type": "function"
    },
    {
      "constant": false,
      "inputs": [
        {
          "name": "dealId",
          "type": "uint256"
        }
      ],
      "name": "distribute",
      "outputs": [
        {
          "name": "",
          "type": "uint8"
        }
      ],
      "payable": false,
      "stateMutability": "nonpayable",
      "type": "function"
    },
    {
      "constant": true,
      "inputs": [
        {
          "name": "_dealId",
          "type": "uint256"
        }
      ],
      "name": "dealStatus",
      "outputs": [
        {
          "name": "",
          "type": "uint256[5]"
        }
      ],
      "payable": false,
      "stateMutability": "view",
      "type": "function"
    }
  ],
  "bytecode": "0x6060604052341561000f57600080fd5b6116e38061001e6000396000f300606060405260043610610078576000357c0100000000000000000000000000000000000000000000000000000000900463ffffffff168063306387a41461007d5780633f96b99e146100dc5780638e228bc01461016d57806391c05b0b146101f2578063cf3cf65614610237578063d67d0add146102f6575b600080fd5b341561008857600080fd5b61009e6004808035906020019091905050610373565b6040518082600560200280838360005b838110156100c95780820151818401526020810190506100ae565b5050505090500191505060405180910390f35b34156100e757600080fd5b610149600480803590602001908201803590602001908080601f01602080910402602001604051908101604052809392919081815260200183838082843782019150505050505091908035906020019091908035906020019091905050610486565b6040518082600181111561015957fe5b60ff16815260200191505060405180910390f35b341561017857600080fd5b6101ce6004808035906020019091908035906020019082018035906020019080806020026020016040519081016040528093929190818152602001838360200280828437820191505050505050919050506107ba565b604051808260018111156101de57fe5b60ff16815260200191505060405180910390f35b34156101fd57600080fd5b61021360048080359060200190919050506108c9565b6040518082600181111561022357fe5b60ff16815260200191505060405180910390f35b341561024257600080fd5b610298600480803590602001909190803590602001908201803590602001908080602002602001604051908101604052809392919081815260200183836020028082843782019150505050505091905050610c48565b6040518083815260200180602001828103825283818151815260200191508051906020019060200280838360005b838110156102e15780820151818401526020810190506102c6565b50505050905001935050505060405180910390f35b61034f600480803590602001909190803590602001908201803590602001908080601f01602080910402602001604051908101604052809392919081815260200183838082843782019150505050505091905050610c5f565b6040518082600181111561035f57fe5b60ff16815260200191505060405180910390f35b61037b61125d565b6000806000806000808781548110151561039157fe5b906000526020600020906009020160080160009054906101000a900460ff166103bb5760006103be565b60015b60ff1694506000878154811015156103d257fe5b90600052602060002090600902016005015493506000878154811015156103f557fe5b906000526020600020906009020160020154925060008781548110151561041857fe5b906000526020600020906009020160010154915060008781548110151561043b57fe5b906000526020600020906009020160070180549050905060a0604051908101604052808681526020018581526020018481526020018381526020018281525095505050505050919050565b6000806000805490509050600080548091906001016104a59190611285565b50600080828154811015156104b657fe5b906000526020600020906009020160010181905550600080828154811015156104db57fe5b9060005260206000209060090201600201819055504260008281548110151561050057fe5b9060005260206000209060090201600301819055508360008281548110151561052557fe5b9060005260206000209060090201600401819055508260008281548110151561054a57fe5b9060005260206000209060090201600501819055508260405180591061056d5750595b9080825280602002602001820160405280156105a357816020015b6105906112b7565b8152602001906001900390816105885790505b506000828154811015156105b357fe5b906000526020600020906009020160060190805190602001906105d79291906112cb565b50826040518059106105e65750595b908082528060200260200182016040525060008281548110151561060657fe5b9060005260206000209060090201600701908051906020019061062a92919061132b565b506000808281548110151561063b57fe5b906000526020600020906009020160080160016101000a81548160ff021916908315150217905550600160008281548110151561067457fe5b906000526020600020906009020160080160006101000a81548160ff021916908315150217905550803373ffffffffffffffffffffffffffffffffffffffff167fcc1a28eb61cd81e2d4c45fab1aadd6e006496ae56fe018dcf8cbdb49f5f85b2442888888600160405180868152602001806020018581526020018481526020018315151515815260200180602001838103835287818151815260200191508051906020019080838360005b8381101561073b578082015181840152602081019050610720565b50505050905090810190601f1680156107685780820380516001836020036101000a031916815260200191505b50838103825260088152602001807f616c6c20676f6f6400000000000000000000000000000000000000000000000081525060200197505050505050505060405180910390a360009150509392505050565b6000806107c56113b5565b60008092506000868154811015156107d957fe5b906000526020600020906009020190508060080160009054906101000a900460ff16151561083e576040805190810160405280601281526020017f6465616c206973206e6f742061637469766500000000000000000000000000008152509150600192505b8060080160019054906101000a900460ff161515610893576040805190810160405280601a81526020017f6465616c206973206e6f742066756c6c696e672066756e6465640000000000008152509150600192505b82156108a257600193506108c0565b848160070190805190602001906108ba92919061132b565b50600093505b50505092915050565b6000806108d46113b5565b60008060008094506000878154811015156108eb57fe5b90600052602060002090600902019250826005015483600701805490501015915081151561097757606060405190810160405280602281526020017f6d697373696e6720736f6d652064657374696e6174696f6e206164647265737381526020017f65730000000000000000000000000000000000000000000000000000000000008152509350600194505b8415610aa95786836007016040518082805480156109ea57602002820191906000526020600020905b8160009054906101000a900473ffffffffffffffffffffffffffffffffffffffff1673ffffffffffffffffffffffffffffffffffffffff16815260200190600101908083116109a0575b505091505060405180910390207f498f8681ba5a2cd3330cf03b942b12ee80ef9f5cc11dc70f785399773cf19c1d600087604051808315151515815260200180602001828103825283818151815260200191508051906020019080838360005b83811015610a65578082015181840152602081019050610a4a565b50505050905090810190601f168015610a925780820380516001836020036101000a031916815260200191505b50935050505060405180910390a360019550610c3e565b600090505b8260070180549050811015610b4a578260070181815481101515610ace57fe5b906000526020600020900160009054906101000a900473ffffffffffffffffffffffffffffffffffffffff1673ffffffffffffffffffffffffffffffffffffffff166108fc84600101549081150290604051600060405180830381858888f193505050501515610b3d57600080fd5b8080600101915050610aae565b8683600701604051808280548015610bb757602002820191906000526020600020905b8160009054906101000a900473ffffffffffffffffffffffffffffffffffffffff1673ffffffffffffffffffffffffffffffffffffffff1681526020019060010190808311610b6d575b505091505060405180910390207f498f8681ba5a2cd3330cf03b942b12ee80ef9f5cc11dc70f785399773cf19c1d6001604051808215151515815260200180602001828103825260088152602001807f616c6c20676f6f640000000000000000000000000000000000000000000000008152506020019250505060405180910390a3600095505b5050505050919050565b6000610c526113c9565b8383915091509250929050565b600080610c6a6113b5565b60008092506000341415610cb5576040805190810160405280601e81526020017f6465706f7369742076616c7565206d75737420626520706f73697469766500008152509150600192505b600086815481101515610cc457fe5b906000526020600020906009020160080160009054906101000a900460ff161515610d26576040805190810160405280601281526020017f6465616c206973206e6f742061637469766500000000000000000000000000008152509150600192505b600086815481101515610d3557fe5b906000526020600020906009020190506000816004015434811515610d5657fe5b061115610dc157606060405190810160405280602f81526020017f6465706f7369742076616c7565206d7573742062652061206d756c7469706c6581526020017f206f6620636c61696d2076616c756500000000000000000000000000000000008152509150600192505b60008160000160003373ffffffffffffffffffffffffffffffffffffffff1673ffffffffffffffffffffffffffffffffffffffff168152602001908152602001600020541115610e6f57606060405190810160405280602a81526020017f63616e6e6f74206465706f73697420747769636520776974682074686520736181526020017f6d652061646472657373000000000000000000000000000000000000000000008152509150600192505b8060080160019054906101000a900460ff1615610ec3576040805190810160405280601e81526020017f6465616c20697320616c72656164792066756c6c696e672066756e64656400008152509150600192505b821561104857853373ffffffffffffffffffffffffffffffffffffffff167f02777e7c99267d0cdee1d7bc383e5c7ec415afaafc44cf8ca14536943370e5a8873460008760405180806020018581526020018415151515815260200180602001838103835287818151815260200191508051906020019080838360005b83811015610f5b578082015181840152602081019050610f40565b50505050905090810190601f168015610f885780820380516001836020036101000a031916815260200191505b50838103825284818151815260200191508051906020019080838360005b83811015610fc1578082015181840152602081019050610fa6565b50505050905090810190601f168015610fee5780820380516001836020036101000a031916815260200191505b50965050505050505060405180910390a33373ffffffffffffffffffffffffffffffffffffffff166108fc349081150290604051600060405180830381858888f19350505050151561103f57600080fd5b60019350611254565b348160010160008282540192505081905550348160000160003373ffffffffffffffffffffffffffffffffffffffff1673ffffffffffffffffffffffffffffffffffffffff16815260200190815260200160002081905550600181600201600082825401925050819055508060060180548060010182816110c991906113dd565b9160005260206000209001600087909190915090805190602001906110ef929190611409565b50508060050154816002015410151561114d5760018160080160016101000a81548160ff021916908315150217905550857f38c728834d3279b1aa694222a5c1079e38e2d78a9543064bd3b50ffbfd030b3460405160405180910390a25b853373ffffffffffffffffffffffffffffffffffffffff167f02777e7c99267d0cdee1d7bc383e5c7ec415afaafc44cf8ca14536943370e5a88734600160405180806020018481526020018315151515815260200180602001838103835286818151815260200191508051906020019080838360005b838110156111de5780820151818401526020810190506111c3565b50505050905090810190601f16801561120b5780820380516001836020036101000a031916815260200191505b50838103825260088152602001807f616c6c20676f6f640000000000000000000000000000000000000000000000008152506020019550505050505060405180910390a3600093505b50505092915050565b60a0604051908101604052806005905b600081526020019060019003908161126d5790505090565b8154818355818115116112b2576009028160090283600052602060002091820191016112b19190611489565b5b505050565b602060405190810160405280600081525090565b82805482825590600052602060002090810192821561131a579160200282015b82811115611319578251829080519060200190611309929190611519565b50916020019190600101906112eb565b5b5090506113279190611599565b5090565b8280548282559060005260206000209081019282156113a4579160200282015b828111156113a35782518260006101000a81548173ffffffffffffffffffffffffffffffffffffffff021916908373ffffffffffffffffffffffffffffffffffffffff1602179055509160200191906001019061134b565b5b5090506113b191906115c5565b5090565b602060405190810160405280600081525090565b602060405190810160405280600081525090565b815481835581811511611404578183600052602060002091820191016114039190611599565b5b505050565b828054600181600116156101000203166002900490600052602060002090601f016020900481019282601f1061144a57805160ff1916838001178555611478565b82800160010185558215611478579182015b8281111561147757825182559160200191906001019061145c565b5b5090506114859190611608565b5090565b61151691905b80821115611512576000600182016000905560028201600090556003820160009055600482016000905560058201600090556006820160006114d1919061162d565b6007820160006114e1919061164e565b6008820160006101000a81549060ff02191690556008820160016101000a81549060ff02191690555060090161148f565b5090565b90565b828054600181600116156101000203166002900490600052602060002090601f016020900481019282601f1061155a57805160ff1916838001178555611588565b82800160010185558215611588579182015b8281111561158757825182559160200191906001019061156c565b5b5090506115959190611608565b5090565b6115c291905b808211156115be57600081816115b5919061166f565b5060010161159f565b5090565b90565b61160591905b8082111561160157600081816101000a81549073ffffffffffffffffffffffffffffffffffffffff0219169055506001016115cb565b5090565b90565b61162a91905b8082111561162657600081600090555060010161160e565b5090565b90565b508054600082559060005260206000209081019061164b9190611599565b50565b508054600082559060005260206000209081019061166c9190611608565b50565b50805460018160011615610100020316600290046000825580601f1061169557506116b4565b601f0160209004906000526020600020908101906116b39190611608565b5b505600a165627a7a723058201a08e9e183415547d83509b600ef51abfe2de4bae98034ba9138f29e33eca61c0029",
  "source": "pragma solidity ^0.4.11;\n\ncontract CoinMixer {\n\n    struct Deal {\n        mapping(address => uint) deposit;\n        uint depositSum;\n        uint numDeposits;\n\n        uint startTime;\n        uint depositInWei;\n        uint numParticipants;\n\n        string[] encryptedDestAddresses;\n        address[] destAddresses;\n\n        bool active;\n        bool fullyFunded;\n    }\n\n    Deal[]  _deals;\n\n    event NewDeal(address indexed user, uint indexed _dealId, uint _startTime, string _title, uint _depositInWei, uint _numParticipants, bool _success, string _err);\n    event Deposit(address indexed _depositor, uint indexed _dealId, string _encryptedDestAddress, uint _value, bool _success, string _err);\n    event Distribute(address[] indexed _destAddresses, uint indexed _dealId, bool _success, string _err);\n\n    event TransferredToken(address indexed to, uint256 value);\n    event FailedTransfer(address indexed to, uint256 value);\n\n    event DealFullyFunded(uint indexed _dealId);\n\n    //    struct RunnerArgs {\n    //        uint dealId;\n    //        string[] encryptedDestAddresses;\n    //    }\n    //\n    //    event EngimaRun(string _runner, string _args, string _setter);\n\n    enum ReturnValue {Ok, Error}\n\n    function CoinMixer(){\n    }\n\n    function newDeal(string _title, uint _depositInWei, uint _numParticipants) returns (ReturnValue) {\n        uint dealId = _deals.length;\n\n        _deals.length++;\n        _deals[dealId].depositSum = 0;\n        _deals[dealId].numDeposits = 0;\n        _deals[dealId].startTime = now;\n        _deals[dealId].depositInWei = _depositInWei;\n        _deals[dealId].numParticipants = _numParticipants;\n        _deals[dealId].encryptedDestAddresses = new string[](_numParticipants);\n        _deals[dealId].destAddresses = new address[](_numParticipants);\n        _deals[dealId].fullyFunded = false;\n        _deals[dealId].active = true;\n        NewDeal(msg.sender,\n            dealId,\n            now,\n            _title,\n            _depositInWei,\n            _numParticipants,\n            true,\n            \"all good\");\n        return ReturnValue.Ok;\n    }\n\n\n    function makeDeposit(uint dealId, string encryptedDestAddress) payable returns (ReturnValue){\n        bool errorDetected = false;\n        string memory error;\n        // validations\n        if (msg.value == 0) {\n            error = \"deposit value must be positive\";\n            errorDetected = true;\n        }\n        if (!_deals[dealId].active) {\n            error = \"deal is not active\";\n            errorDetected = true;\n        }\n        Deal deal = _deals[dealId];\n        if ((msg.value % deal.depositInWei) > 0) {\n            error = \"deposit value must be a multiple of claim value\";\n            errorDetected = true;\n        }\n        if (deal.deposit[msg.sender] > 0) {\n            error = \"cannot deposit twice with the same address\";\n            errorDetected = true;\n        }\n        if (deal.fullyFunded) {\n            error = \"deal is already fulling funded\";\n            errorDetected = true;\n        }\n\n        if (errorDetected) {\n            Deposit(msg.sender, dealId, encryptedDestAddress, msg.value, false, error);\n            if (!msg.sender.send(msg.value)) throw;\n            // send money back\n            return ReturnValue.Error;\n        }\n\n        // actual deposit\n        deal.depositSum += msg.value;\n        deal.deposit[msg.sender] = msg.value;\n        deal.numDeposits += 1;\n        deal.encryptedDestAddresses.push(encryptedDestAddress);\n\n        if (deal.numDeposits >= deal.numParticipants) {\n            deal.fullyFunded = true;\n            DealFullyFunded(dealId);\n\n            //            RunnerArgs memory args = RunnerArgs(dealId, deal.encryptedDestAddresses);\n            //            string args = '{\"dealId\":\"\", }';\n            //            EngimaRun(\"mixAddresses\", args, \"setDestAddresses\");\n        }\n\n        Deposit(msg.sender, dealId, encryptedDestAddress, msg.value, true, \"all good\");\n        return ReturnValue.Ok;\n    }\n\n    function mixAddresses(uint dealId, address[] destAddresses) returns (uint, address[]) {\n        // TODO: put mixing logic here\n        return (dealId, destAddresses);\n    }\n\n    function setDestAddresses(uint dealId, address[] destAddresses) returns (ReturnValue){\n        bool errorDetected = false;\n        string memory error;\n\n        Deal deal = _deals[dealId];\n        if (!deal.active) {\n            error = \"deal is not active\";\n            errorDetected = true;\n        }\n        if (!deal.fullyFunded) {\n            error = \"deal is not fulling funded\";\n            errorDetected = true;\n        }\n\n        if (errorDetected) {\n            return ReturnValue.Error;\n        }\n        deal.destAddresses = destAddresses;\n        return ReturnValue.Ok;\n    }\n\n\n    function distribute(uint dealId) returns (ReturnValue){\n        // validation\n        bool errorDetected = false;\n        string memory error;\n        Deal deal = _deals[dealId];\n        bool enoughAddresses = deal.destAddresses.length >= deal.numParticipants;\n        if (!enoughAddresses) {\n            error = \"missing some destination addresses\";\n            errorDetected = true;\n        }\n\n        if (errorDetected) {\n            Distribute(deal.destAddresses, dealId, false, error);\n            return ReturnValue.Error;\n        }\n\n\n        uint256 i = 0;\n        while (i < deal.destAddresses.length) {\n            deal.destAddresses[i].transfer(deal.depositSum);\n            i++;\n        }\n\n        Distribute(deal.destAddresses, dealId, true, \"all good\");\n        return ReturnValue.Ok;\n    }\n\n    ////////////////////////////////////////////////////////////////////////////////////////\n\n    function dealStatus(uint _dealId) constant returns (uint[5]){\n        uint active = _deals[_dealId].active ? 1 : 0;\n        uint numParticipants = _deals[_dealId].numParticipants;\n        uint numDeposits = _deals[_dealId].numDeposits;\n        uint depositSum = _deals[_dealId].depositSum;\n        uint numDestAddresses = _deals[_dealId].destAddresses.length;\n\n\n        return [active, numParticipants, numDeposits, depositSum, numDestAddresses];\n    }\n\n}\n\n",
  "sourcePath": "/Users/fredfortier/Code/enigma/coin-mixer-poc/dapp/contracts/CoinMixer.sol",
  "compiler": {
    "name": "solc",
    "version": "0.4.20+commit.3155dd80.Emscripten.clang"
  },
  "schemaVersion": "1.0.1",
  "updatedAt": "2018-02-22T21:55:33.109Z"
}