{
  "contractName": "CoinMixer",
  "abi": [
    {
      "constant": false,
      "inputs": [
        {
          "name": "args",
          "type": "bytes32[]"
        },
        {
          "name": "position",
          "type": "uint256"
        },
        {
          "name": "value",
          "type": "bytes32[]"
        }
      ],
      "name": "addBytes32Arg",
      "outputs": [],
      "payable": false,
      "stateMutability": "nonpayable",
      "type": "function"
    },
    {
      "constant": false,
      "inputs": [
        {
          "name": "args",
          "type": "bytes32[]"
        },
        {
          "name": "position",
          "type": "uint256"
        },
        {
          "name": "value",
          "type": "uint256"
        }
      ],
      "name": "addUintArg",
      "outputs": [],
      "payable": false,
      "stateMutability": "nonpayable",
      "type": "function"
    },
    {
      "inputs": [],
      "payable": false,
      "stateMutability": "nonpayable",
      "type": "constructor"
    },
    {
      "anonymous": false,
      "inputs": [
        {
          "indexed": true,
          "name": "user",
          "type": "address"
        },
        {
          "indexed": true,
          "name": "_dealId",
          "type": "uint256"
        },
        {
          "indexed": false,
          "name": "_startTime",
          "type": "uint256"
        },
        {
          "indexed": false,
          "name": "_title",
          "type": "bytes32"
        },
        {
          "indexed": false,
          "name": "_depositInWei",
          "type": "uint256"
        },
        {
          "indexed": false,
          "name": "_numParticipants",
          "type": "uint256"
        },
        {
          "indexed": false,
          "name": "_success",
          "type": "bool"
        },
        {
          "indexed": false,
          "name": "_err",
          "type": "string"
        }
      ],
      "name": "NewDeal",
      "type": "event"
    },
    {
      "anonymous": false,
      "inputs": [
        {
          "indexed": true,
          "name": "_depositor",
          "type": "address"
        },
        {
          "indexed": true,
          "name": "_dealId",
          "type": "uint256"
        },
        {
          "indexed": false,
          "name": "_encryptedDestAddress",
          "type": "bytes32"
        },
        {
          "indexed": false,
          "name": "_value",
          "type": "uint256"
        },
        {
          "indexed": false,
          "name": "_success",
          "type": "bool"
        },
        {
          "indexed": false,
          "name": "_err",
          "type": "string"
        }
      ],
      "name": "Deposit",
      "type": "event"
    },
    {
      "anonymous": false,
      "inputs": [
        {
          "indexed": true,
          "name": "_dealId",
          "type": "uint256"
        },
        {
          "indexed": false,
          "name": "_success",
          "type": "bool"
        },
        {
          "indexed": false,
          "name": "_err",
          "type": "string"
        }
      ],
      "name": "Distribute",
      "type": "event"
    },
    {
      "anonymous": false,
      "inputs": [
        {
          "indexed": true,
          "name": "to",
          "type": "address"
        },
        {
          "indexed": false,
          "name": "value",
          "type": "uint256"
        }
      ],
      "name": "TransferredToken",
      "type": "event"
    },
    {
      "anonymous": false,
      "inputs": [
        {
          "indexed": true,
          "name": "to",
          "type": "address"
        },
        {
          "indexed": false,
          "name": "value",
          "type": "uint256"
        }
      ],
      "name": "FailedTransfer",
      "type": "event"
    },
    {
      "anonymous": false,
      "inputs": [
        {
          "indexed": true,
          "name": "_dealId",
          "type": "uint256"
        }
      ],
      "name": "DealFullyFunded",
      "type": "event"
    },
    {
      "anonymous": false,
      "inputs": [
        {
          "indexed": true,
          "name": "_dealId",
          "type": "uint256"
        },
        {
          "indexed": false,
          "name": "_success",
          "type": "bool"
        }
      ],
      "name": "DealExecuted",
      "type": "event"
    },
    {
      "constant": false,
      "inputs": [
        {
          "name": "_title",
          "type": "bytes32"
        },
        {
          "name": "_depositInWei",
          "type": "uint256"
        },
        {
          "name": "_numParticipants",
          "type": "uint256"
        }
      ],
      "name": "newDeal",
      "outputs": [
        {
          "name": "",
          "type": "uint8"
        }
      ],
      "payable": false,
      "stateMutability": "nonpayable",
      "type": "function"
    },
    {
      "constant": false,
      "inputs": [
        {
          "name": "dealId",
          "type": "uint256"
        },
        {
          "name": "encryptedDestAddress",
          "type": "bytes32"
        }
      ],
      "name": "makeDeposit",
      "outputs": [
        {
          "name": "",
          "type": "uint8"
        }
      ],
      "payable": true,
      "stateMutability": "payable",
      "type": "function"
    },
    {
      "constant": false,
      "inputs": [
        {
          "name": "dealId",
          "type": "uint256"
        }
      ],
      "name": "executeDeal",
      "outputs": [],
      "payable": true,
      "stateMutability": "payable",
      "type": "function"
    },
    {
      "constant": true,
      "inputs": [
        {
          "name": "dealId",
          "type": "uint256"
        },
        {
          "name": "destAddresses",
          "type": "address[]"
        },
        {
          "name": "second",
          "type": "address[]"
        }
      ],
      "name": "mixAddresses",
      "outputs": [
        {
          "name": "",
          "type": "uint256"
        },
        {
          "name": "",
          "type": "address[]"
        }
      ],
      "payable": false,
      "stateMutability": "pure",
      "type": "function"
    },
    {
      "constant": false,
      "inputs": [
        {
          "name": "dealId",
          "type": "uint256"
        },
        {
          "name": "destAddresses",
          "type": "address[]"
        }
      ],
      "name": "distribute",
      "outputs": [
        {
          "name": "",
          "type": "uint8"
        }
      ],
      "payable": false,
      "stateMutability": "nonpayable",
      "type": "function"
    },
    {
      "constant": true,
      "inputs": [],
      "name": "listDeals",
      "outputs": [
        {
          "name": "",
          "type": "uint256[]"
        },
        {
          "name": "",
          "type": "uint256[]"
        },
        {
          "name": "",
          "type": "uint256[]"
        }
      ],
      "payable": false,
      "stateMutability": "view",
      "type": "function"
    },
    {
      "constant": true,
      "inputs": [
        {
          "name": "_dealId",
          "type": "uint256"
        }
      ],
      "name": "dealStatus",
      "outputs": [
        {
          "name": "",
          "type": "bytes32"
        },
        {
          "name": "",
          "type": "uint256"
        },
        {
          "name": "",
          "type": "uint256"
        },
        {
          "name": "",
          "type": "uint256"
        },
        {
          "name": "",
          "type": "uint256"
        },
        {
          "name": "",
          "type": "uint256"
        }
      ],
      "payable": false,
      "stateMutability": "view",
      "type": "function"
    },
    {
      "constant": true,
      "inputs": [
        {
          "name": "_dealId",
          "type": "uint256"
        }
      ],
      "name": "getEncryptedAddresses",
      "outputs": [
        {
          "name": "",
          "type": "bytes32[]"
        }
      ],
      "payable": false,
      "stateMutability": "view",
      "type": "function"
    }
  ],
  "bytecode": "0x608060405234801561001057600080fd5b507374e3fc764c2474f25369b9d021b7f92e8441a2dc6000806101000a81548173ffffffffffffffffffffffffffffffffffffffff021916908373ffffffffffffffffffffffffffffffffffffffff160217905550611d49806100746000396000f3006080604052600436106100a4576000357c0100000000000000000000000000000000000000000000000000000000900463ffffffff16806310f11e84146100a957806323cb0cee146101a55780632ea79968146101c5578063306387a4146102155780634ec215b6146102815780635e562a6f1461033457806385e3c463146103b6578063a06a585614610448578063c7135268146104af578063d2653e0814610529575b600080fd5b3480156100b557600080fd5b506100be610638565b60405180806020018060200180602001848103845287818151815260200191508051906020019060200280838360005b838110156101095780820151818401526020810190506100ee565b50505050905001848103835286818151815260200191508051906020019060200280838360005b8381101561014b578082015181840152602081019050610130565b50505050905001848103825285818151815260200191508051906020019060200280838360005b8381101561018d578082015181840152602081019050610172565b50505050905001965050505050505060405180910390f35b6101c36004803603810190808035906020019092919050505061086e565b005b6101f1600480360381019080803590602001909291908035600019169060200190929190505050610c06565b6040518082600181111561020157fe5b60ff16815260200191505060405180910390f35b34801561022157600080fd5b50610240600480360381019080803590602001909291905050506110c7565b604051808760001916600019168152602001868152602001858152602001848152602001838152602001828152602001965050505050505060405180910390f35b34801561028d57600080fd5b506103326004803603810190808035906020019082018035906020019080806020026020016040519081016040528093929190818152602001838360200280828437820191505050505050919291929080359060200190929190803590602001908201803590602001908080602002602001604051908101604052809392919081815260200183836020028082843782019150505050505091929192905050506111cf565b005b34801561034057600080fd5b5061035f6004803603810190808035906020019092919050505061122f565b6040518080602001828103825283818151815260200191508051906020019060200280838360005b838110156103a2578082015181840152602081019050610387565b505050509050019250505060405180910390f35b3480156103c257600080fd5b5061042460048036038101908080359060200190929190803590602001908201803590602001908080602002602001604051908101604052809392919081815260200183836020028082843782019150505050505091929192905050506112ab565b6040518082600181111561043457fe5b60ff16815260200191505060405180910390f35b34801561045457600080fd5b5061048b600480360381019080803560001916906020019092919080359060200190929190803590602001909291905050506116a0565b6040518082600181111561049b57fe5b60ff16815260200191505060405180910390f35b3480156104bb57600080fd5b506105276004803603810190808035906020019082018035906020019080806020026020016040519081016040528093929190818152602001838360200280828437820191505050505050919291929080359060200190929190803590602001909291905050506119b2565b005b34801561053557600080fd5b506105da6004803603810190808035906020019092919080359060200190820180359060200190808060200260200160405190810160405280939291908181526020018383602002808284378201915050505050509192919290803590602001908201803590602001908080602002602001604051908101604052809392919081815260200183836020028082843782019150505050505091929192905050506119e6565b6040518083815260200180602001828103825283818151815260200191508051906020019060200280838360005b83811015610623578082015181840152602081019050610608565b50505050905001935050505060405180910390f35b60608060608060608060006001805490506040519080825280602002602001820160405280156106775781602001602082028038833980820191505090505b5093506001805490506040519080825280602002602001820160405280156106ae5781602001602082028038833980820191505090505b5092506001805490506040519080825280602002602001820160405280156106e55781602001602082028038833980820191505090505b509150600090505b60018054905081101561085c5760018181548110151561070957fe5b90600052602060002090600b0201600a0154848281518110151561072957fe5b9060200190602002018181525050600060018281548110151561074857fe5b90600052602060002090600b020160020160003373ffffffffffffffffffffffffffffffffffffffff1673ffffffffffffffffffffffffffffffffffffffff1681526020019081526020016000205411156107bc57600183828151811015156107ad57fe5b90602001906020020181815250505b3373ffffffffffffffffffffffffffffffffffffffff166001828154811015156107e257fe5b90600052602060002090600b020160000160009054906101000a900473ffffffffffffffffffffffffffffffffffffffff1673ffffffffffffffffffffffffffffffffffffffff16141561084f576001828281518110151561084057fe5b90602001906020020181815250505b80806001019150506106ed565b83838396509650965050505050909192565b600060608060018481548110151561088257fe5b90600052602060002090600b0201925060018360040154016040519080825280602002602001820160405280156108c85781602001602082028038833980820191505090505b5091506108d7826000866119b2565b6109398260018560080180548060200260200160405190810160405280929190818152602001828054801561092f57602002820191906000526020600020905b81546000191681526020019060010190808311610917575b50505050506111cf565b60026040519080825280602002602001820160405280156109695781602001602082028038833980820191505090505b5090507f73687566666c650000000000000000000000000000000000000000000000000081600181518110151561099c57fe5b9060200190602002019060001916908160001916815250506000809054906101000a900473ffffffffffffffffffffffffffffffffffffffff1673ffffffffffffffffffffffffffffffffffffffff1663f643a4b134333086866040518663ffffffff167c0100000000000000000000000000000000000000000000000000000000028152600401808573ffffffffffffffffffffffffffffffffffffffff1673ffffffffffffffffffffffffffffffffffffffff1681526020018473ffffffffffffffffffffffffffffffffffffffff1673ffffffffffffffffffffffffffffffffffffffff168152602001807f6d6978416464726573736573000000000000000000000000000000000000000081525060200180602001807f646973747269627574650000000000000000000000000000000000000000000081525060200180602001838103835285818151815260200191508051906020019060200280838360005b83811015610b1c578082015181840152602081019050610b01565b50505050905001838103825284818151815260200191508051906020019060200280838360005b83811015610b5e578082015181840152602081019050610b43565b5050505090500196505050505050506020604051808303818588803b158015610b8657600080fd5b505af1158015610b9a573d6000803e3d6000fd5b50505050506040513d6020811015610bb157600080fd5b810190808051906020019092919050505050837f28de9c2b09dd20fbbc169895a9937c78a59bbdb5558601145d15ad89331b4d566001604051808215151515815260200191505060405180910390a250505050565b600080606060008092506000341415610c56576040805190810160405280601e81526020017f6465706f7369742076616c7565206d75737420626520706f73697469766500008152509150600192505b6000600187815481101515610c6757fe5b90600052602060002090600b0201600a0154141515610cbd576040805190810160405280601281526020017f6465616c206973206e6f742061637469766500000000000000000000000000008152509150600192505b600186815481101515610ccc57fe5b90600052602060002090600b020190506000816006015434811515610ced57fe5b061115610d5857606060405190810160405280602f81526020017f6465706f7369742076616c7565206d7573742062652061206d756c7469706c6581526020017f206f6620636c61696d2076616c756500000000000000000000000000000000008152509150600192505b60008160020160003373ffffffffffffffffffffffffffffffffffffffff1673ffffffffffffffffffffffffffffffffffffffff168152602001908152602001600020541115610e0657606060405190810160405280602a81526020017f63616e6e6f74206465706f73697420747769636520776974682074686520736181526020017f6d652061646472657373000000000000000000000000000000000000000000008152509150600192505b600181600a01541415610e50576040805190810160405280601e81526020017f6465616c20697320616c72656164792066756c6c696e672066756e64656400008152509150600192505b8215610f3857853373ffffffffffffffffffffffffffffffffffffffff167f9253951f3eff982bd56920e03d1dd72425977d70fae4ac8e2e0da3c564bfabcb87346000876040518085600019166000191681526020018481526020018315151515815260200180602001828103825283818151815260200191508051906020019080838360005b83811015610ef2578082015181840152602081019050610ed7565b50505050905090810190601f168015610f1f5780820380516001836020036101000a031916815260200191505b509550505050505060405180910390a3600193506110be565b348160030160008282540192505081905550348160020160003373ffffffffffffffffffffffffffffffffffffffff1673ffffffffffffffffffffffffffffffffffffffff1681526020019081526020016000208190555084816008018260040154815481101515610fa657fe5b90600052602060002001816000191690555060018160040160008282540192505081905550853373ffffffffffffffffffffffffffffffffffffffff167f9253951f3eff982bd56920e03d1dd72425977d70fae4ac8e2e0da3c564bfabcb873460016040518084600019166000191681526020018381526020018215151515815260200180602001828103825260088152602001807f616c6c20676f6f6400000000000000000000000000000000000000000000000081525060200194505050505060405180910390a3806007015481600401541015156110b957600181600a0181905550857f38c728834d3279b1aa694222a5c1079e38e2d78a9543064bd3b50ffbfd030b3460405160405180910390a25b600093505b50505092915050565b60008060008060008060008060008060008060018d8154811015156110e857fe5b90600052602060002090600b020160010154955060018d81548110151561110b57fe5b90600052602060002090600b020160070154945060018d81548110151561112e57fe5b90600052602060002090600b020160060154935060018d81548110151561115157fe5b90600052602060002090600b020160040154925060018d81548110151561117457fe5b90600052602060002090600b020160030154915060018d81548110151561119757fe5b90600052602060002090600b02016009018054905090508585858585859b509b509b509b509b509b5050505050505091939550919395565b60008090505b81518110156112295781818151811015156111ec57fe5b90602001906020020151848481518110151561120457fe5b90602001906020020190600019169081600019168152505080806001019150506111d5565b50505050565b606060018281548110151561124057fe5b90600052602060002090600b020160080180548060200260200160405190810160405280929190818152602001828054801561129f57602002820191906000526020600020905b81546000191681526020019060010190808311611287575b50505050509050919050565b600080606060008060008094506001888154811015156112c757fe5b90600052602060002090600b02019250600083600a0154141515611322576040805190810160405280601281526020017f6465616c206973206e6f742061637469766500000000000000000000000000008152509350600194505b600183600a015414151561136d576040805190810160405280601a81526020017f6465616c206973206e6f742066756c6c696e672066756e6465640000000000008152509350600194505b841561142657877f354e1ddaa2fab096efb3d49c4d2ce86db3174dba7ba4f2c07e08742466a2c215600086604051808315151515815260200180602001828103825283818151815260200191508051906020019080838360005b838110156113e25780820151818401526020810190506113c7565b50505050905090810190601f16801561140f5780820380516001836020036101000a031916815260200191505b50935050505060405180910390a260019550611695565b8683600901908051906020019061143e929190611aa1565b50826007015483600901805490501491508115156114ba57606060405190810160405280602281526020017f6d697373696e6720736f6d652064657374696e6174696f6e206164647265737381526020017f65730000000000000000000000000000000000000000000000000000000000008152509350600194505b841561157357877f354e1ddaa2fab096efb3d49c4d2ce86db3174dba7ba4f2c07e08742466a2c215600086604051808315151515815260200180602001828103825283818151815260200191508051906020019080838360005b8381101561152f578082015181840152602081019050611514565b50505050905090810190601f16801561155c5780820380516001836020036101000a031916815260200191505b50935050505060405180910390a260019550611695565b600090505b826009018054905081101561161a57826009018181548110151561159857fe5b9060005260206000200160009054906101000a900473ffffffffffffffffffffffffffffffffffffffff1673ffffffffffffffffffffffffffffffffffffffff166108fc84600301549081150290604051600060405180830381858888f1935050505015801561160c573d6000803e3d6000fd5b508080600101915050611578565b877f354e1ddaa2fab096efb3d49c4d2ce86db3174dba7ba4f2c07e08742466a2c2156001604051808215151515815260200180602001828103825260088152602001807f616c6c20676f6f640000000000000000000000000000000000000000000000008152506020019250505060405180910390a2600095505b505050505092915050565b6000806001805490509050600180548091906001016116bf9190611b2b565b50336001828154811015156116d057fe5b90600052602060002090600b020160000160006101000a81548173ffffffffffffffffffffffffffffffffffffffff021916908373ffffffffffffffffffffffffffffffffffffffff1602179055508460018281548110151561172f57fe5b90600052602060002090600b02016001018160001916905550600060018281548110151561175957fe5b90600052602060002090600b020160030181905550600060018281548110151561177f57fe5b90600052602060002090600b020160040181905550426001828154811015156117a457fe5b90600052602060002090600b020160050181905550836001828154811015156117c957fe5b90600052602060002090600b020160060181905550826001828154811015156117ee57fe5b90600052602060002090600b020160070181905550826040519080825280602002602001820160405280156118325781602001602082028038833980820191505090505b5060018281548110151561184257fe5b90600052602060002090600b02016008019080519060200190611866929190611b5d565b50826040519080825280602002602001820160405280156118965781602001602082028038833980820191505090505b506001828154811015156118a657fe5b90600052602060002090600b020160090190805190602001906118ca929190611aa1565b5060006001828154811015156118dc57fe5b90600052602060002090600b0201600a0181905550803373ffffffffffffffffffffffffffffffffffffffff167f3f8aabc3a12e950c954455d2c33afc5d85a289ad74baae0ed96884daf85ba4104288888860016040518086815260200185600019166000191681526020018481526020018381526020018215151515815260200180602001828103825260088152602001807f616c6c20676f6f64000000000000000000000000000000000000000000000000815250602001965050505050505060405180910390a360009150509392505050565b6119bb816119f8565b83838151811015156119c957fe5b906020019060200201906000191690816000191681525050505050565b60006060848491509150935093915050565b600080821415611a2a577f30000000000000000000000000000000000000000000000000000000000000009050611a99565b5b6000821115611a98576101008160019004811515611a4557fe5b0460010290507f01000000000000000000000000000000000000000000000000000000000000006030600a84811515611a7a57fe5b06010260010281179050600a82811515611a9057fe5b049150611a2b565b5b809050919050565b828054828255906000526020600020908101928215611b1a579160200282015b82811115611b195782518260006101000a81548173ffffffffffffffffffffffffffffffffffffffff021916908373ffffffffffffffffffffffffffffffffffffffff16021790555091602001919060010190611ac1565b5b509050611b279190611bb0565b5090565b815481835581811115611b5857600b0281600b028360005260206000209182019101611b579190611bf3565b5b505050565b828054828255906000526020600020908101928215611b9f579160200282015b82811115611b9e578251829060001916905591602001919060010190611b7d565b5b509050611bac9190611c91565b5090565b611bf091905b80821115611bec57600081816101000a81549073ffffffffffffffffffffffffffffffffffffffff021916905550600101611bb6565b5090565b90565b611c8e91905b80821115611c8a57600080820160006101000a81549073ffffffffffffffffffffffffffffffffffffffff0219169055600182016000905560038201600090556004820160009055600582016000905560068201600090556007820160009055600882016000611c699190611cb6565b600982016000611c799190611cd7565b600a82016000905550600b01611bf9565b5090565b90565b611cb391905b80821115611caf576000816000905550600101611c97565b5090565b90565b5080546000825590600052602060002090810190611cd49190611c91565b50565b5080546000825590600052602060002090810190611cf59190611cf8565b50565b611d1a91905b80821115611d16576000816000905550600101611cfe565b5090565b905600a165627a7a723058206a0a47737f432fe4495be6c9d9daaea063c76ebd6affeebe530953687e5b22b70029",
  "source": "pragma solidity ^0.4.22;\n\nimport \"./Enigma.sol\";\nimport \"./EnigmaP.sol\";\n\ncontract CoinMixer is EnigmaP {\n    Enigma enigma;\n\n    struct Deal {\n        address organizer;\n        bytes32 title;\n        mapping(address => uint) deposit;\n        uint depositSum;\n        uint numDeposits;\n\n        uint startTime;\n        uint depositInWei;\n        uint numParticipants;\n\n        bytes32[] encryptedDestAddresses;\n        address[] destAddresses;\n\n        uint status; // 0: active; 1: funded; 2: executed; 3: cancelled\n    }\n\n    Deal[] deals;\n\n    event NewDeal(address indexed user, uint indexed _dealId, uint _startTime, bytes32 _title, uint _depositInWei, uint _numParticipants, bool _success, string _err);\n    event Deposit(address indexed _depositor, uint indexed _dealId, bytes32 _encryptedDestAddress, uint _value, bool _success, string _err);\n    event Distribute(uint indexed _dealId, bool _success, string _err);\n\n    event TransferredToken(address indexed to, uint256 value);\n    event FailedTransfer(address indexed to, uint256 value);\n\n    event DealFullyFunded(uint indexed _dealId);\n    event DealExecuted(uint indexed _dealId, bool _success);\n\n\n    // TODO: switch to require() once it accepts a message parameter\n    enum ReturnValue {Ok, Error}\n\n    function CoinMixer() public {\n        // TODO: consider externalizing in library\n        enigma = Enigma(0x74e3fc764c2474f25369b9d021b7f92e8441a2dc);\n    }\n\n    function newDeal(bytes32 _title, uint _depositInWei, uint _numParticipants)\n    public\n    returns (ReturnValue) {\n        uint dealId = deals.length;\n\n        deals.length++;\n        deals[dealId].organizer = msg.sender;\n        deals[dealId].title = _title;\n        deals[dealId].depositSum = 0;\n        deals[dealId].numDeposits = 0;\n        deals[dealId].startTime = now;\n        deals[dealId].depositInWei = _depositInWei;\n        deals[dealId].numParticipants = _numParticipants;\n        deals[dealId].encryptedDestAddresses = new bytes32[](_numParticipants);\n        deals[dealId].destAddresses = new address[](_numParticipants);\n        deals[dealId].status = 0;\n        NewDeal(msg.sender,\n            dealId,\n            now,\n            _title,\n            _depositInWei,\n            _numParticipants,\n            true,\n            \"all good\");\n        return ReturnValue.Ok;\n    }\n\n    function makeDeposit(uint dealId, bytes32 encryptedDestAddress)\n    public\n    payable\n    returns (ReturnValue){\n        bool errorDetected = false;\n        string memory error;\n        // validations\n        if (msg.value == 0) {\n            error = \"deposit value must be positive\";\n            errorDetected = true;\n        }\n        if (deals[dealId].status != 0) {\n            error = \"deal is not active\";\n            errorDetected = true;\n        }\n\n        Deal storage deal = deals[dealId];\n        if ((msg.value % deal.depositInWei) > 0) {\n            error = \"deposit value must be a multiple of claim value\";\n            errorDetected = true;\n        }\n        if (deal.deposit[msg.sender] > 0) {\n            error = \"cannot deposit twice with the same address\";\n            errorDetected = true;\n        }\n        if (deal.status == 1) {\n            error = \"deal is already fulling funded\";\n            errorDetected = true;\n        }\n        if (errorDetected) {\n            Deposit(msg.sender, dealId, encryptedDestAddress, msg.value, false, error);\n            // send money back\n            return ReturnValue.Error;\n        }\n\n        // actual deposit\n        deal.depositSum += msg.value;\n        deal.deposit[msg.sender] = msg.value;\n        deal.encryptedDestAddresses[deal.numDeposits] = encryptedDestAddress;\n        deal.numDeposits += 1;\n\n        Deposit(msg.sender, dealId, encryptedDestAddress, msg.value, true, \"all good\");\n\n        if (deal.numDeposits >= deal.numParticipants) {\n            deal.status = 1;\n            DealFullyFunded(dealId);\n        }\n        return ReturnValue.Ok;\n    }\n\n    function executeDeal(uint dealId)\n    public\n    payable\n    {\n        // Execute the deal and pay for computation\n        Deal storage deal = deals[dealId];\n\n        // TODO: find a more generic way to serialize arguments\n        bytes32[] memory args = new bytes32[](deal.numDeposits + 1);\n        addUintArg(args, 0, dealId);\n        addBytes32Arg(args, 1, deal.encryptedDestAddresses);\n\n        // TODO: find a more generic way to serialize preprocessors\n        bytes32[] memory preprocessors = new bytes32[](2);\n        preprocessors[1] = \"shuffle\";\n\n        enigma.compute.value(msg.value)(msg.sender, this, \"mixAddresses\", args, \"distribute\", preprocessors);\n        DealExecuted(dealId, true);\n    }\n\n    function mixAddresses(uint dealId, address[] destAddresses, address[] second)\n    public\n    pure\n    returns (uint, address[]) {\n        // TODO: put mixing logic here\n        //        random()\n        return (dealId, destAddresses);\n    }\n\n    function distribute(uint dealId, address[] destAddresses)\n    public\n    returns (ReturnValue){\n        bool errorDetected = false;\n        string memory error;\n\n        Deal storage deal = deals[dealId];\n        if (deal.status != 0) {\n            error = \"deal is not active\";\n            errorDetected = true;\n        }\n        if (deal.status != 1) {\n            error = \"deal is not fulling funded\";\n            errorDetected = true;\n        }\n        if (errorDetected) {\n            Distribute(dealId, false, error);\n            return ReturnValue.Error;\n        }\n        deal.destAddresses = destAddresses;\n\n        bool enoughAddresses = deal.destAddresses.length == deal.numParticipants;\n        if (!enoughAddresses) {\n            error = \"missing some destination addresses\";\n            errorDetected = true;\n        }\n        if (errorDetected) {\n            Distribute(dealId, false, error);\n            return ReturnValue.Error;\n        }\n\n        for (uint i = 0; i < deal.destAddresses.length; i++) {\n            deal.destAddresses[i].transfer(deal.depositSum);\n        }\n\n        Distribute(dealId, true, \"all good\");\n        return ReturnValue.Ok;\n    }\n\n    function listDeals() public view returns (uint[], uint[], uint[]) {\n        // A list of deals with their key properties\n        uint[] memory status = new uint[](deals.length);\n        uint[] memory participates = new uint[](deals.length);\n        uint[] memory organizes = new uint[](deals.length);\n\n        for (uint i = 0; i < deals.length; i++) {\n            status[i] = deals[i].status;\n\n            if (deals[i].deposit[msg.sender] > 0) {\n                participates[i] = 1;\n            }\n\n            if (deals[i].organizer == msg.sender) {\n                organizes[i] = 1;\n            }\n        }\n        return (status, participates, organizes);\n    }\n\n    function dealStatus(uint _dealId)\n    public\n    view\n    returns (bytes32, uint, uint, uint, uint, uint){\n        // Key attributes of a deal\n        bytes32 title = deals[_dealId].title;\n        uint numParticipants = deals[_dealId].numParticipants;\n        uint deposit = deals[_dealId].depositInWei;\n        uint numDeposits = deals[_dealId].numDeposits;\n        uint depositSum = deals[_dealId].depositSum;\n        uint numDestAddresses = deals[_dealId].destAddresses.length;\n\n        return (title, numParticipants, deposit, numDeposits, depositSum, numDestAddresses);\n    }\n\n    function getEncryptedAddresses(uint _dealId) public view returns (bytes32[]) {\n        // Returns an array of encrypted addresses\n        return deals[_dealId].encryptedDestAddresses;\n    }\n\n\n}\n\n",
  "sourcePath": "/Users/fredfortier/Code/enigma/coin-mixer-poc/dapp/contracts/CoinMixer.sol",
  "compiler": {
    "name": "solc",
    "version": "0.4.23+commit.124ca40d.Emscripten.clang"
  },
  "schemaVersion": "2.0.0",
  "updatedAt": "2018-04-20T20:45:51.061Z"
}