{
  "contractName": "CoinMixer",
  "abi": [
    {
      "constant": true,
      "inputs": [
        {
          "name": "",
          "type": "uint256"
        }
      ],
      "name": "deals",
      "outputs": [
        {
          "name": "organizer",
          "type": "address"
        },
        {
          "name": "title",
          "type": "bytes32"
        },
        {
          "name": "depositSum",
          "type": "uint256"
        },
        {
          "name": "numDeposits",
          "type": "uint256"
        },
        {
          "name": "startTime",
          "type": "uint256"
        },
        {
          "name": "depositInWei",
          "type": "uint256"
        },
        {
          "name": "numParticipants",
          "type": "uint256"
        },
        {
          "name": "status",
          "type": "uint256"
        }
      ],
      "payable": false,
      "stateMutability": "view",
      "type": "function"
    },
    {
      "constant": true,
      "inputs": [
        {
          "name": "args",
          "type": "bytes32[]"
        },
        {
          "name": "arg",
          "type": "bytes32"
        },
        {
          "name": "offset",
          "type": "uint256"
        },
        {
          "name": "value",
          "type": "uint256"
        }
      ],
      "name": "addArg",
      "outputs": [
        {
          "name": "",
          "type": "uint256"
        }
      ],
      "payable": false,
      "stateMutability": "pure",
      "type": "function"
    },
    {
      "constant": true,
      "inputs": [],
      "name": "enigma",
      "outputs": [
        {
          "name": "",
          "type": "address"
        }
      ],
      "payable": false,
      "stateMutability": "view",
      "type": "function"
    },
    {
      "constant": true,
      "inputs": [
        {
          "name": "args",
          "type": "bytes32[]"
        },
        {
          "name": "arg",
          "type": "bytes32"
        },
        {
          "name": "offset",
          "type": "uint256"
        },
        {
          "name": "value",
          "type": "bytes32[]"
        }
      ],
      "name": "addEncryptedArg",
      "outputs": [
        {
          "name": "",
          "type": "uint256"
        }
      ],
      "payable": false,
      "stateMutability": "pure",
      "type": "function"
    },
    {
      "inputs": [
        {
          "name": "_enigmaAddress",
          "type": "address"
        }
      ],
      "payable": false,
      "stateMutability": "nonpayable",
      "type": "constructor"
    },
    {
      "anonymous": false,
      "inputs": [
        {
          "indexed": true,
          "name": "user",
          "type": "address"
        },
        {
          "indexed": true,
          "name": "_dealId",
          "type": "uint32"
        },
        {
          "indexed": false,
          "name": "_startTime",
          "type": "uint256"
        },
        {
          "indexed": false,
          "name": "_title",
          "type": "bytes32"
        },
        {
          "indexed": false,
          "name": "_depositInWei",
          "type": "uint256"
        },
        {
          "indexed": false,
          "name": "_numParticipants",
          "type": "uint256"
        },
        {
          "indexed": false,
          "name": "_success",
          "type": "bool"
        },
        {
          "indexed": false,
          "name": "_err",
          "type": "string"
        }
      ],
      "name": "NewDeal",
      "type": "event"
    },
    {
      "anonymous": false,
      "inputs": [
        {
          "indexed": true,
          "name": "_depositor",
          "type": "address"
        },
        {
          "indexed": true,
          "name": "_dealId",
          "type": "uint32"
        },
        {
          "indexed": false,
          "name": "_encryptedDestAddress",
          "type": "bytes"
        },
        {
          "indexed": false,
          "name": "_value",
          "type": "uint256"
        },
        {
          "indexed": false,
          "name": "_success",
          "type": "bool"
        },
        {
          "indexed": false,
          "name": "_err",
          "type": "string"
        }
      ],
      "name": "Deposit",
      "type": "event"
    },
    {
      "anonymous": false,
      "inputs": [
        {
          "indexed": true,
          "name": "_dealId",
          "type": "uint32"
        },
        {
          "indexed": false,
          "name": "_success",
          "type": "bool"
        },
        {
          "indexed": false,
          "name": "_err",
          "type": "string"
        }
      ],
      "name": "Distribute",
      "type": "event"
    },
    {
      "anonymous": false,
      "inputs": [
        {
          "indexed": true,
          "name": "to",
          "type": "address"
        },
        {
          "indexed": false,
          "name": "value",
          "type": "uint256"
        }
      ],
      "name": "TransferredToken",
      "type": "event"
    },
    {
      "anonymous": false,
      "inputs": [
        {
          "indexed": true,
          "name": "to",
          "type": "address"
        },
        {
          "indexed": false,
          "name": "value",
          "type": "uint256"
        }
      ],
      "name": "FailedTransfer",
      "type": "event"
    },
    {
      "anonymous": false,
      "inputs": [
        {
          "indexed": true,
          "name": "_dealId",
          "type": "uint32"
        }
      ],
      "name": "DealFullyFunded",
      "type": "event"
    },
    {
      "anonymous": false,
      "inputs": [
        {
          "indexed": true,
          "name": "_dealId",
          "type": "uint32"
        },
        {
          "indexed": false,
          "name": "_success",
          "type": "bool"
        }
      ],
      "name": "DealExecuted",
      "type": "event"
    },
    {
      "constant": false,
      "inputs": [
        {
          "name": "_title",
          "type": "bytes32"
        },
        {
          "name": "_depositInWei",
          "type": "uint256"
        },
        {
          "name": "_numParticipants",
          "type": "uint256"
        }
      ],
      "name": "newDeal",
      "outputs": [
        {
          "name": "",
          "type": "uint8"
        }
      ],
      "payable": false,
      "stateMutability": "nonpayable",
      "type": "function"
    },
    {
      "constant": false,
      "inputs": [
        {
          "name": "dealId",
          "type": "uint32"
        },
        {
          "name": "encryptedDestAddress",
          "type": "bytes"
        }
      ],
      "name": "makeDeposit",
      "outputs": [
        {
          "name": "",
          "type": "uint8"
        }
      ],
      "payable": true,
      "stateMutability": "payable",
      "type": "function"
    },
    {
      "constant": false,
      "inputs": [
        {
          "name": "dealId",
          "type": "uint32"
        }
      ],
      "name": "executeDeal",
      "outputs": [],
      "payable": true,
      "stateMutability": "payable",
      "type": "function"
    },
    {
      "constant": true,
      "inputs": [
        {
          "name": "dealId",
          "type": "uint32"
        },
        {
          "name": "destAddresses",
          "type": "address[]"
        },
        {
          "name": "rand",
          "type": "uint256"
        }
      ],
      "name": "mixAddresses",
      "outputs": [
        {
          "name": "",
          "type": "uint256"
        },
        {
          "name": "",
          "type": "address[]"
        }
      ],
      "payable": false,
      "stateMutability": "pure",
      "type": "function"
    },
    {
      "constant": false,
      "inputs": [
        {
          "name": "dealId",
          "type": "uint32"
        },
        {
          "name": "destAddresses",
          "type": "address[]"
        }
      ],
      "name": "distribute",
      "outputs": [
        {
          "name": "",
          "type": "uint8"
        }
      ],
      "payable": false,
      "stateMutability": "nonpayable",
      "type": "function"
    },
    {
      "constant": true,
      "inputs": [],
      "name": "listDeals",
      "outputs": [
        {
          "name": "",
          "type": "uint256[]"
        },
        {
          "name": "",
          "type": "uint256[]"
        },
        {
          "name": "",
          "type": "uint256[]"
        }
      ],
      "payable": false,
      "stateMutability": "view",
      "type": "function"
    },
    {
      "constant": true,
      "inputs": [
        {
          "name": "_dealId",
          "type": "uint32"
        }
      ],
      "name": "dealStatus",
      "outputs": [
        {
          "name": "",
          "type": "bytes32"
        },
        {
          "name": "",
          "type": "uint256"
        },
        {
          "name": "",
          "type": "uint256"
        },
        {
          "name": "",
          "type": "uint256"
        },
        {
          "name": "",
          "type": "uint256"
        },
        {
          "name": "",
          "type": "uint256"
        }
      ],
      "payable": false,
      "stateMutability": "view",
      "type": "function"
    },
    {
      "constant": true,
      "inputs": [
        {
          "name": "_dealId",
          "type": "uint32"
        }
      ],
      "name": "countEncryptedAddresses",
      "outputs": [
        {
          "name": "",
          "type": "uint256"
        }
      ],
      "payable": false,
      "stateMutability": "view",
      "type": "function"
    },
    {
      "constant": true,
      "inputs": [
        {
          "name": "_dealId",
          "type": "uint32"
        },
        {
          "name": "index",
          "type": "uint256"
        }
      ],
      "name": "getEncryptedAddress",
      "outputs": [
        {
          "name": "",
          "type": "bytes"
        }
      ],
      "payable": false,
      "stateMutability": "view",
      "type": "function"
    }
  ],
  "bytecode": "0x608060405234801561001057600080fd5b50604051602080611f4d83398101806040528101908080519060200190929190505050806000806101000a81548173ffffffffffffffffffffffffffffffffffffffff021916908373ffffffffffffffffffffffffffffffffffffffff16021790555050611eca806100836000396000f3006080604052600436106100c5576000357c0100000000000000000000000000000000000000000000000000000000900463ffffffff16806303988f84146100ca57806310f11e84146101705780632aaf281b1461026c5780633b833245146102fa57806357f5fc28146103415780636db0c8f0146103f7578063850d861914610493578063a06a5856146104b9578063b24fd5c514610520578063d10e1e6914610577578063daefe7381461060f578063dd20866e14610681578063ed0b494c1461075d575b600080fd5b3480156100d657600080fd5b506100f560048036038101908080359060200190929190505050610832565b604051808973ffffffffffffffffffffffffffffffffffffffff1673ffffffffffffffffffffffffffffffffffffffff16815260200188600019166000191681526020018781526020018681526020018581526020018481526020018381526020018281526020019850505050505050505060405180910390f35b34801561017c57600080fd5b506101856108a9565b60405180806020018060200180602001848103845287818151815260200191508051906020019060200280838360005b838110156101d05780820151818401526020810190506101b5565b50505050905001848103835286818151815260200191508051906020019060200280838360005b838110156102125780820151818401526020810190506101f7565b50505050905001848103825285818151815260200191508051906020019060200280838360005b83811015610254578082015181840152602081019050610239565b50505050905001965050505050505060405180910390f35b6102d6600480360381019080803563ffffffff169060200190929190803590602001908201803590602001908080601f0160208091040260200160405190810160405280939291908181526020018383808284378201915050505050509192919290505050610adf565b604051808260018111156102e657fe5b60ff16815260200191505060405180910390f35b34801561030657600080fd5b5061032b600480360381019080803563ffffffff169060200190929190505050610faa565b6040518082815260200191505060405180910390f35b34801561034d57600080fd5b5061037c600480360381019080803563ffffffff16906020019092919080359060200190929190505050610fdd565b6040518080602001828103825283818151815260200191508051906020019080838360005b838110156103bc5780820151818401526020810190506103a1565b50505050905090810190601f1680156103e95780820380516001836020036101000a031916815260200191505b509250505060405180910390f35b34801561040357600080fd5b5061047d60048036038101908080359060200190820180359060200190808060200260200160405190810160405280939291908181526020018383602002808284378201915050505050509192919290803560001916906020019092919080359060200190929190803590602001909291905050506110bd565b6040518082815260200191505060405180910390f35b6104b7600480360381019080803563ffffffff169060200190929190505050611130565b005b3480156104c557600080fd5b506104fc60048036038101908080356000191690602001909291908035906020019092919080359060200190929190505050611254565b6040518082600181111561050c57fe5b60ff16815260200191505060405180910390f35b34801561052c57600080fd5b506105356115ad565b604051808273ffffffffffffffffffffffffffffffffffffffff1673ffffffffffffffffffffffffffffffffffffffff16815260200191505060405180910390f35b34801561058357600080fd5b506105eb600480360381019080803563ffffffff169060200190929190803590602001908201803590602001908080602002602001604051908101604052809392919081815260200183836020028082843782019150505050505091929192905050506115d2565b604051808260018111156105fb57fe5b60ff16815260200191505060405180910390f35b34801561061b57600080fd5b50610640600480360381019080803563ffffffff1690602001909291905050506116b5565b604051808760001916600019168152602001868152602001858152602001848152602001838152602001828152602001965050505050505060405180910390f35b34801561068d57600080fd5b506106ff600480360381019080803563ffffffff16906020019092919080359060200190820180359060200190808060200260200160405190810160405280939291908181526020018383602002808284378201915050505050509192919290803590602001909291905050506117e1565b6040518083815260200180602001828103825283818151815260200191508051906020019060200280838360005b8381101561074857808201518184015260208101905061072d565b50505050905001935050505060405180910390f35b34801561076957600080fd5b5061081c600480360381019080803590602001908201803590602001908080602002602001604051908101604052809392919081815260200183836020028082843782019150505050505091929192908035600019169060200190929190803590602001909291908035906020019082018035906020019080806020026020016040519081016040528093929190818152602001838360200280828437820191505050505050919291929050505061197e565b6040518082815260200191505060405180910390f35b60018181548110151561084157fe5b90600052602060002090600b02016000915090508060000160009054906101000a900473ffffffffffffffffffffffffffffffffffffffff169080600101549080600301549080600401549080600501549080600601549080600701549080600a0154905088565b60608060608060608060006001805490506040519080825280602002602001820160405280156108e85781602001602082028038833980820191505090505b50935060018054905060405190808252806020026020018201604052801561091f5781602001602082028038833980820191505090505b5092506001805490506040519080825280602002602001820160405280156109565781602001602082028038833980820191505090505b509150600090505b600180549050811015610acd5760018181548110151561097a57fe5b90600052602060002090600b0201600a0154848281518110151561099a57fe5b906020019060200201818152505060006001828154811015156109b957fe5b90600052602060002090600b020160020160003373ffffffffffffffffffffffffffffffffffffffff1673ffffffffffffffffffffffffffffffffffffffff168152602001908152602001600020541115610a2d5760018382815181101515610a1e57fe5b90602001906020020181815250505b3373ffffffffffffffffffffffffffffffffffffffff16600182815481101515610a5357fe5b90600052602060002090600b020160000160009054906101000a900473ffffffffffffffffffffffffffffffffffffffff1673ffffffffffffffffffffffffffffffffffffffff161415610ac05760018282815181101515610ab157fe5b90602001906020020181815250505b808060010191505061095e565b83838396509650965050505050909192565b600080600034111515610b5a576040517f08c379a000000000000000000000000000000000000000000000000000000000815260040180806020018281038252601f8152602001807f4465706f7369742076616c7565206d75737420626520706f7369746976652e0081525060200191505060405180910390fd5b600060018563ffffffff16815481101515610b7157fe5b90600052602060002090600b0201600a0154141515610bf8576040517f08c379a000000000000000000000000000000000000000000000000000000000815260040180806020018281038252601b8152602001807f496c6c6567616c20737461746520666f72206465706f736974732e000000000081525060200191505060405180910390fd5b60018463ffffffff16815481101515610c0d57fe5b90600052602060002090600b020190506000816006015434811515610c2e57fe5b06141515610cca576040517f08c379a000000000000000000000000000000000000000000000000000000000815260040180806020018281038252602f8152602001807f4465706f7369742076616c7565206d7573742062652061206d756c7469706c6581526020017f206f6620636c61696d2076616c7565000000000000000000000000000000000081525060400191505060405180910390fd5b60008160020160003373ffffffffffffffffffffffffffffffffffffffff1673ffffffffffffffffffffffffffffffffffffffff16815260200190815260200160002054141515610da9576040517f08c379a000000000000000000000000000000000000000000000000000000000815260040180806020018281038252602a8152602001807f43616e6e6f74206465706f73697420747769636520776974682074686520736181526020017f6d6520616464726573730000000000000000000000000000000000000000000081525060400191505060405180910390fd5b348160030160008282540192505081905550348160020160003373ffffffffffffffffffffffffffffffffffffffff1673ffffffffffffffffffffffffffffffffffffffff1681526020019081526020016000208190555082816008018260040154815481101515610e1757fe5b906000526020600020019080519060200190610e34929190611ac6565b50600181600401600082825401925050819055508363ffffffff163373ffffffffffffffffffffffffffffffffffffffff167fce7036acc3606aaa1ec3a2e7b4d13b3f4da34ee1eac298fc47524074de74a3bf8534600160405180806020018481526020018315151515815260200180602001838103835286818151815260200191508051906020019080838360005b83811015610edf578082015181840152602081019050610ec4565b50505050905090810190601f168015610f0c5780820380516001836020036101000a031916815260200191505b50838103825260088152602001807f616c6c20676f6f640000000000000000000000000000000000000000000000008152506020019550505050505060405180910390a380600701548160040154101515610f9f57600181600a01819055508363ffffffff167fa98c11bc69afe22b520fe800f82e421f9594d4f06259a7600711b75af05a43b960405160405180910390a25b600091505092915050565b600060018263ffffffff16815481101515610fc157fe5b90600052602060002090600b0201600801805490509050919050565b606060018363ffffffff16815481101515610ff457fe5b90600052602060002090600b02016008018281548110151561101257fe5b906000526020600020018054600181600116156101000203166002900480601f0160208091040260200160405190810160405280929190818152602001828054600181600116156101000203166002900480156110b05780601f10611085576101008083540402835291602001916110b0565b820191906000526020600020905b81548152906001019060200180831161109357829003601f168201915b5050505050905092915050565b60008385848151811015156110ce57fe5b90602001906020020190600019169081600019168152505082806001019350506110f782611a1d565b858481518110151561110557fe5b9060200190602002019060001916908160001916815250508280600101935050829050949350505050565b600060608060018463ffffffff1681548110151561114a57fe5b90600052602060002090600b02019250604080519080825280601f01601f19166020018201604052801561118d5781602001602082028038833980820191505090505b50915060016040519080825280602002602001820160405280156111c05781602001602082028038833980820191505090505b5090507f72616e64282900000000000000000000000000000000000000000000000000008160008151811015156111f357fe5b9060200190602002019060001916908160001916815250508363ffffffff167fb37f76c8ba24e6a6d20d203681329001f2cacd9ab37c09d8b2aee57b8a31b8746001604051808215151515815260200191505060405180910390a250505050565b6000806001805490509050600180548091906001016112739190611b46565b503360018263ffffffff1681548110151561128a57fe5b90600052602060002090600b020160000160006101000a81548173ffffffffffffffffffffffffffffffffffffffff021916908373ffffffffffffffffffffffffffffffffffffffff1602179055508460018263ffffffff168154811015156112ef57fe5b90600052602060002090600b02016001018160001916905550600060018263ffffffff1681548110151561131f57fe5b90600052602060002090600b020160030181905550600060018263ffffffff1681548110151561134b57fe5b90600052602060002090600b0201600401819055504260018263ffffffff1681548110151561137657fe5b90600052602060002090600b0201600501819055508360018263ffffffff168154811015156113a157fe5b90600052602060002090600b0201600601819055508260018263ffffffff168154811015156113cc57fe5b90600052602060002090600b0201600701819055508260405190808252806020026020018201604052801561141557816020015b60608152602001906001900390816114005790505b5060018263ffffffff1681548110151561142b57fe5b90600052602060002090600b0201600801908051906020019061144f929190611b78565b508260405190808252806020026020018201604052801561147f5781602001602082028038833980820191505090505b5060018263ffffffff1681548110151561149557fe5b90600052602060002090600b020160090190805190602001906114b9929190611bd8565b50600060018263ffffffff168154811015156114d157fe5b90600052602060002090600b0201600a01819055508063ffffffff163373ffffffffffffffffffffffffffffffffffffffff167f8c2ac5e09d37c38a96fb20791b6ed6f2ccaaaf26c4115680b9257504d32bcdc34288888860016040518086815260200185600019166000191681526020018481526020018381526020018215151515815260200180602001828103825260088152602001807f616c6c20676f6f64000000000000000000000000000000000000000000000000815250602001965050505050505060405180910390a360009150509392505050565b6000809054906101000a900473ffffffffffffffffffffffffffffffffffffffff1681565b60008060009054906101000a900473ffffffffffffffffffffffffffffffffffffffff1673ffffffffffffffffffffffffffffffffffffffff163373ffffffffffffffffffffffffffffffffffffffff1614151561162f57600080fd5b8263ffffffff167fd845de92648bf6bce3cf24c41d79ac33bc429db112dcb48af51db9086d7cd01d6001604051808215151515815260200180602001828103825260088152602001807f616c6c20676f6f640000000000000000000000000000000000000000000000008152506020019250505060405180910390a26000905092915050565b60008060008060008060008060008060008060018d63ffffffff168154811015156116dc57fe5b90600052602060002090600b020160010154955060018d63ffffffff1681548110151561170557fe5b90600052602060002090600b020160070154945060018d63ffffffff1681548110151561172e57fe5b90600052602060002090600b020160060154935060018d63ffffffff1681548110151561175757fe5b90600052602060002090600b020160040154925060018d63ffffffff1681548110151561178057fe5b90600052602060002090600b020160030154915060018d63ffffffff168154811015156117a957fe5b90600052602060002090600b02016009018054905090508585858585859b509b509b509b509b509b5050505050505091939550919395565b600060606000806000865192505b60008311156119645782600187016040518082815260200191505060405180910390206001900481151561181f57fe5b069150866001840381518110151561183357fe5b9060200190602002015173ffffffffffffffffffffffffffffffffffffffff16878381518110151561186157fe5b9060200190602002015173ffffffffffffffffffffffffffffffffffffffff1614151561195657866001840381518110151561189957fe5b90602001906020020151905086828151811015156118b357fe5b9060200190602002015187600185038151811015156118ce57fe5b9060200190602002019073ffffffffffffffffffffffffffffffffffffffff16908173ffffffffffffffffffffffffffffffffffffffff168152505080878381518110151561191957fe5b9060200190602002019073ffffffffffffffffffffffffffffffffffffffff16908173ffffffffffffffffffffffffffffffffffffffff16815250505b8280600190039350506117ef565b87878163ffffffff16915094509450505050935093915050565b60008084868581518110151561199057fe5b9060200190602002019060001916908160001916815250508380600101945050600090505b8251811015611a115782818151811015156119cc57fe5b9060200190602002015186858151811015156119e457fe5b906020019060200201906000191690816000191681525050838060010194505080806001019150506119b5565b83915050949350505050565b600080821415611a4f577f30000000000000000000000000000000000000000000000000000000000000009050611abe565b5b6000821115611abd576101008160019004811515611a6a57fe5b0460010290507f01000000000000000000000000000000000000000000000000000000000000006030600a84811515611a9f57fe5b06010260010281179050600a82811515611ab557fe5b049150611a50565b5b809050919050565b828054600181600116156101000203166002900490600052602060002090601f016020900481019282601f10611b0757805160ff1916838001178555611b35565b82800160010185558215611b35579182015b82811115611b34578251825591602001919060010190611b19565b5b509050611b429190611c62565b5090565b815481835581811115611b7357600b0281600b028360005260206000209182019101611b729190611c87565b5b505050565b828054828255906000526020600020908101928215611bc7579160200282015b82811115611bc6578251829080519060200190611bb6929190611d25565b5091602001919060010190611b98565b5b509050611bd49190611da5565b5090565b828054828255906000526020600020908101928215611c51579160200282015b82811115611c505782518260006101000a81548173ffffffffffffffffffffffffffffffffffffffff021916908373ffffffffffffffffffffffffffffffffffffffff16021790555091602001919060010190611bf8565b5b509050611c5e9190611dd1565b5090565b611c8491905b80821115611c80576000816000905550600101611c68565b5090565b90565b611d2291905b80821115611d1e57600080820160006101000a81549073ffffffffffffffffffffffffffffffffffffffff0219169055600182016000905560038201600090556004820160009055600582016000905560068201600090556007820160009055600882016000611cfd9190611e14565b600982016000611d0d9190611e35565b600a82016000905550600b01611c8d565b5090565b90565b828054600181600116156101000203166002900490600052602060002090601f016020900481019282601f10611d6657805160ff1916838001178555611d94565b82800160010185558215611d94579182015b82811115611d93578251825591602001919060010190611d78565b5b509050611da19190611c62565b5090565b611dce91905b80821115611dca5760008181611dc19190611e56565b50600101611dab565b5090565b90565b611e1191905b80821115611e0d57600081816101000a81549073ffffffffffffffffffffffffffffffffffffffff021916905550600101611dd7565b5090565b90565b5080546000825590600052602060002090810190611e329190611da5565b50565b5080546000825590600052602060002090810190611e539190611c62565b50565b50805460018160011615610100020316600290046000825580601f10611e7c5750611e9b565b601f016020900490600052602060002090810190611e9a9190611c62565b5b505600a165627a7a72305820123f80147fe8d843b3554e44f24efe0cfc81bfb3c4e8ab2823278844252129430029",
  "source": "pragma solidity ^0.4.22;\n\nimport \"./Enigma.sol\";\nimport \"./EnigmaP.sol\";\nimport \"./utils/RLP.sol\";\n\ncontract CoinMixer is EnigmaP {\n    using RLP for bytes[];\n\n    Enigma public enigma;\n\n    struct Deal {\n        address organizer;\n        bytes32 title;\n        mapping(address => uint) deposit;\n        uint depositSum;\n        uint numDeposits;\n\n        uint startTime;\n        uint depositInWei;\n        uint numParticipants;\n\n        bytes[] encryptedDestAddresses;\n        address[] destAddresses;\n\n        uint status; // 0: active; 1: funded; 2: executed; 3: cancelled\n    }\n\n    Deal[] public deals;\n\n    event NewDeal(address indexed user, uint32 indexed _dealId, uint _startTime, bytes32 _title, uint _depositInWei, uint _numParticipants, bool _success, string _err);\n    event Deposit(address indexed _depositor, uint32 indexed _dealId, bytes _encryptedDestAddress, uint _value, bool _success, string _err);\n    event Distribute(uint32 indexed _dealId, bool _success, string _err);\n\n    event TransferredToken(address indexed to, uint256 value);\n    event FailedTransfer(address indexed to, uint256 value);\n\n    event DealFullyFunded(uint32 indexed _dealId);\n    event DealExecuted(uint32 indexed _dealId, bool _success);\n\n    // TODO: switch to require() once it accepts a message parameter\n    enum ReturnValue {Ok, Error}\n\n    function CoinMixer(address _enigmaAddress) public {\n        enigma = Enigma(_enigmaAddress);\n    }\n\n    function newDeal(bytes32 _title, uint _depositInWei, uint _numParticipants)\n    public\n    returns (ReturnValue) {\n        uint32 dealId = uint32(deals.length);\n\n        deals.length++;\n        deals[dealId].organizer = msg.sender;\n        deals[dealId].title = _title;\n        deals[dealId].depositSum = 0;\n        deals[dealId].numDeposits = 0;\n        deals[dealId].startTime = now;\n        deals[dealId].depositInWei = _depositInWei;\n        deals[dealId].numParticipants = _numParticipants;\n        deals[dealId].encryptedDestAddresses = new bytes[](_numParticipants);\n        deals[dealId].destAddresses = new address[](_numParticipants);\n        deals[dealId].status = 0;\n        emit NewDeal(msg.sender, dealId, now, _title, _depositInWei, _numParticipants, true, \"all good\");\n\n        return ReturnValue.Ok;\n    }\n\n    function makeDeposit(uint32 dealId, bytes encryptedDestAddress)\n    public\n    payable\n    returns (ReturnValue){\n        require(msg.value > 0, \"Deposit value must be positive.\");\n        require(deals[dealId].status == 0, \"Illegal state for deposits.\");\n\n        Deal storage deal = deals[dealId];\n        require((msg.value % deal.depositInWei) == 0, \"Deposit value must be a multiple of claim value\");\n        require(deal.deposit[msg.sender] == 0, \"Cannot deposit twice with the same address\");\n\n        // actual deposit\n        deal.depositSum += msg.value;\n        deal.deposit[msg.sender] = msg.value;\n        deal.encryptedDestAddresses[deal.numDeposits] = encryptedDestAddress;\n        deal.numDeposits += 1;\n\n        emit Deposit(msg.sender, dealId, encryptedDestAddress, msg.value, true, \"all good\");\n\n        if (deal.numDeposits >= deal.numParticipants) {\n            deal.status = 1;\n            emit DealFullyFunded(dealId);\n        }\n        return ReturnValue.Ok;\n    }\n\n    function executeDeal(uint32 dealId)\n    public\n    payable\n    {\n        // Execute the deal and pay for computation\n        // TODO: refactor for RLP\n        Deal storage deal = deals[dealId];\n\n        // After giving this some thought, this is what I came up with to serialize arguments\n        // To avoid unecessary complexity, arguments will be provided as a bytes32 array\n        // Each argument will start by it's declaration like in the target function\n        //    name type (e.g. uint dealId)\n        // Followed by bytes32 encoded values.\n        // If the value is an array, just add each value sequentially.\n        // The EnigmaP contract has helper function to populate the arguments.\n        //        bytes32[] memory args = new bytes32[](deal.numDeposits + 3);\n        //        uint offset = 0;\n        //        offset = addArg(args, \"uint dealId\", offset, dealId);\n        //        offset = addEncryptedArg(args, \"address[] destAddresses\", offset, deal.encryptedDestAddresses);\n        bytes memory args = new bytes(64);\n\n        // This is the most generic way I came up with for the preprocessors.\n        // We can accept an unlimited number of preprocessors, each of which\n        // might have arbitrary attributes.\n        // The enclave will know who to apply each preprocessor by convention.\n        bytes32[] memory preprocessors = new bytes32[](1);\n        preprocessors[0] = \"rand()\";\n\n        // enigma.compute.value(msg.value)(this, \"mixAddresses\", args, \"distribute\", preprocessors);\n        emit DealExecuted(dealId, true);\n    }\n\n    function mixAddresses(uint32 dealId, address[] destAddresses, uint rand)\n    public\n    pure\n    returns (uint, address[]) {\n        // Shuffling the specified address using a random seed.\n        // Doing a Fisher-Yates Shuffle with a single integer\n        // between 0 and 127. To get more numbers in the loop,\n        // we'll add 1 to our seed and hash it.\n        uint i = destAddresses.length;\n        while (i > 0) {\n            uint j = uint(sha3(rand + 1)) % i;\n\n            // Array swap\n            if (destAddresses[j] != destAddresses[i - 1]) {\n                address destAddress = destAddresses[i - 1];\n                destAddresses[i - 1] = destAddresses[j];\n                destAddresses[j] = destAddress;\n            }\n            i--;\n        }\n        return (dealId, destAddresses);\n    }\n\n    modifier onlyEnigma() {\n        require(msg.sender == address(enigma));\n        _;\n    }\n\n    function distribute(uint32 dealId, address[] destAddresses)\n    public\n    onlyEnigma()\n    returns (ReturnValue){\n        //        Deal storage deal = deals[dealId];\n        //        require(deal.status == 2, \"Deal is not executed.\");\n        //\n        //        deal.destAddresses = destAddresses;\n        //\n        //        bool enoughAddresses = deal.destAddresses.length == deal.numParticipants;\n        //        require(enoughAddresses, \"missing some destination addresses\");\n        //\n        //        for (uint i = 0; i < deal.destAddresses.length; i++) {\n        //            deal.destAddresses[i].transfer(deal.depositSum);\n        //        }\n        //\n        emit Distribute(dealId, true, \"all good\");\n        return ReturnValue.Ok;\n    }\n\n    function listDeals() public view returns (uint[], uint[], uint[]) {\n        // A list of deals with their key properties\n        uint[] memory status = new uint[](deals.length);\n        uint[] memory participates = new uint[](deals.length);\n        uint[] memory organizes = new uint[](deals.length);\n\n        for (uint i = 0; i < deals.length; i++) {\n            status[i] = deals[i].status;\n\n            if (deals[i].deposit[msg.sender] > 0) {\n                participates[i] = 1;\n            }\n\n            if (deals[i].organizer == msg.sender) {\n                organizes[i] = 1;\n            }\n        }\n        return (status, participates, organizes);\n    }\n\n    function dealStatus(uint32 _dealId)\n    public\n    view\n    returns (bytes32, uint, uint, uint, uint, uint){\n        // Key attributes of a deal\n        bytes32 title = deals[_dealId].title;\n        uint numParticipants = deals[_dealId].numParticipants;\n        uint deposit = deals[_dealId].depositInWei;\n        uint numDeposits = deals[_dealId].numDeposits;\n        uint depositSum = deals[_dealId].depositSum;\n        uint numDestAddresses = deals[_dealId].destAddresses.length;\n\n        return (title, numParticipants, deposit, numDeposits, depositSum, numDestAddresses);\n    }\n\n    function countEncryptedAddresses(uint32 _dealId)\n    public view\n    returns (uint) {\n        // Count the addresses\n        return deals[_dealId].encryptedDestAddresses.length;\n    }\n\n    function getEncryptedAddress(uint32 _dealId, uint index)\n    public\n    view\n    returns (bytes) {\n        // Returns an array of encrypted addresses\n        return deals[_dealId].encryptedDestAddresses[index];\n    }\n}\n\n",
  "sourcePath": "/Users/fredfortier/Code/enigma/mvp0/coin-mixer-poc/dapp/contracts/CoinMixer.sol",
  "compiler": {
    "name": "solc",
    "version": "0.4.23+commit.124ca40d.Emscripten.clang"
  },
  "schemaVersion": "2.0.0",
  "updatedAt": "2018-05-09T22:13:22.004Z"
}