{
  "contractName": "CoinMixer",
  "abi": [
    {
      "inputs": [],
      "payable": false,
      "stateMutability": "nonpayable",
      "type": "constructor"
    },
    {
      "anonymous": false,
      "inputs": [
        {
          "indexed": true,
          "name": "user",
          "type": "address"
        },
        {
          "indexed": true,
          "name": "_dealId",
          "type": "uint256"
        },
        {
          "indexed": false,
          "name": "_startTime",
          "type": "uint256"
        },
        {
          "indexed": false,
          "name": "_title",
          "type": "bytes32"
        },
        {
          "indexed": false,
          "name": "_depositInWei",
          "type": "uint256"
        },
        {
          "indexed": false,
          "name": "_numParticipants",
          "type": "uint256"
        },
        {
          "indexed": false,
          "name": "_success",
          "type": "bool"
        },
        {
          "indexed": false,
          "name": "_err",
          "type": "string"
        }
      ],
      "name": "NewDeal",
      "type": "event"
    },
    {
      "anonymous": false,
      "inputs": [
        {
          "indexed": true,
          "name": "_depositor",
          "type": "address"
        },
        {
          "indexed": true,
          "name": "_dealId",
          "type": "uint256"
        },
        {
          "indexed": false,
          "name": "_encryptedDestAddress",
          "type": "bytes32"
        },
        {
          "indexed": false,
          "name": "_value",
          "type": "uint256"
        },
        {
          "indexed": false,
          "name": "_success",
          "type": "bool"
        },
        {
          "indexed": false,
          "name": "_err",
          "type": "string"
        }
      ],
      "name": "Deposit",
      "type": "event"
    },
    {
      "anonymous": false,
      "inputs": [
        {
          "indexed": true,
          "name": "_dealId",
          "type": "uint256"
        },
        {
          "indexed": false,
          "name": "_success",
          "type": "bool"
        },
        {
          "indexed": false,
          "name": "_err",
          "type": "string"
        }
      ],
      "name": "Distribute",
      "type": "event"
    },
    {
      "anonymous": false,
      "inputs": [
        {
          "indexed": true,
          "name": "to",
          "type": "address"
        },
        {
          "indexed": false,
          "name": "value",
          "type": "uint256"
        }
      ],
      "name": "TransferredToken",
      "type": "event"
    },
    {
      "anonymous": false,
      "inputs": [
        {
          "indexed": true,
          "name": "to",
          "type": "address"
        },
        {
          "indexed": false,
          "name": "value",
          "type": "uint256"
        }
      ],
      "name": "FailedTransfer",
      "type": "event"
    },
    {
      "anonymous": false,
      "inputs": [
        {
          "indexed": true,
          "name": "_dealId",
          "type": "uint256"
        }
      ],
      "name": "DealFullyFunded",
      "type": "event"
    },
    {
      "constant": false,
      "inputs": [
        {
          "name": "_title",
          "type": "bytes32"
        },
        {
          "name": "_depositInWei",
          "type": "uint256"
        },
        {
          "name": "_numParticipants",
          "type": "uint256"
        }
      ],
      "name": "newDeal",
      "outputs": [
        {
          "name": "",
          "type": "uint8"
        }
      ],
      "payable": false,
      "stateMutability": "nonpayable",
      "type": "function"
    },
    {
      "constant": false,
      "inputs": [
        {
          "name": "dealId",
          "type": "uint256"
        },
        {
          "name": "encryptedDestAddress",
          "type": "bytes32"
        }
      ],
      "name": "makeDeposit",
      "outputs": [
        {
          "name": "",
          "type": "uint8"
        }
      ],
      "payable": true,
      "stateMutability": "payable",
      "type": "function"
    },
    {
      "constant": true,
      "inputs": [
        {
          "name": "dealId",
          "type": "uint256"
        },
        {
          "name": "destAddresses",
          "type": "address[]"
        }
      ],
      "name": "mixAddresses",
      "outputs": [
        {
          "name": "",
          "type": "uint256"
        },
        {
          "name": "",
          "type": "address[]"
        }
      ],
      "payable": false,
      "stateMutability": "pure",
      "type": "function"
    },
    {
      "constant": false,
      "inputs": [
        {
          "name": "dealId",
          "type": "uint256"
        },
        {
          "name": "destAddresses",
          "type": "address[]"
        }
      ],
      "name": "distribute",
      "outputs": [
        {
          "name": "",
          "type": "uint8"
        }
      ],
      "payable": false,
      "stateMutability": "nonpayable",
      "type": "function"
    },
    {
      "constant": true,
      "inputs": [],
      "name": "listDealTitles",
      "outputs": [
        {
          "name": "",
          "type": "bytes32[]"
        }
      ],
      "payable": false,
      "stateMutability": "view",
      "type": "function"
    },
    {
      "constant": true,
      "inputs": [
        {
          "name": "_dealId",
          "type": "uint256"
        }
      ],
      "name": "dealStatus",
      "outputs": [
        {
          "name": "",
          "type": "uint256[6]"
        }
      ],
      "payable": false,
      "stateMutability": "view",
      "type": "function"
    },
    {
      "constant": true,
      "inputs": [
        {
          "name": "_dealId",
          "type": "uint256"
        }
      ],
      "name": "isParticipating",
      "outputs": [
        {
          "name": "",
          "type": "bool"
        }
      ],
      "payable": false,
      "stateMutability": "view",
      "type": "function"
    }
  ],
  "bytecode": "0x6060604052341561000f57600080fd5b73f12b5dd4ead5f743c6baa640b0216200e89b60da6000806101000a81548173ffffffffffffffffffffffffffffffffffffffff021916908373ffffffffffffffffffffffffffffffffffffffff160217905550611706806100726000396000f300606060405260043610610083576000357c0100000000000000000000000000000000000000000000000000000000900463ffffffff1680630b3c1a33146100885780632ea79968146100c3578063306387a41461010a5780636f70daf81461016957806385e3c463146101d3578063a06a585614610258578063cf3cf656146102b3575b600080fd5b341561009357600080fd5b6100a96004808035906020019091905050610372565b604051808215151515815260200191505060405180910390f35b6100e66004808035906020019091908035600019169060200190919050506103ed565b604051808260018111156100f657fe5b60ff16815260200191505060405180910390f35b341561011557600080fd5b61012b6004808035906020019091905050610b21565b6040518082600660200280838360005b8381101561015657808201518184015260208101905061013b565b5050505090500191505060405180910390f35b341561017457600080fd5b61017c610c60565b6040518080602001828103825283818151815260200191508051906020019060200280838360005b838110156101bf5780820151818401526020810190506101a4565b505050509050019250505060405180910390f35b34156101de57600080fd5b610234600480803590602001909190803590602001908201803590602001908080602002602001604051908101604052809392919081815260200183836020028082843782019150505050505091905050610d06565b6040518082600181111561024457fe5b60ff16815260200191505060405180910390f35b341561026357600080fd5b61028f600480803560001916906020019091908035906020019091908035906020019091905050611065565b6040518082600181111561029f57fe5b60ff16815260200191505060405180910390f35b34156102be57600080fd5b610314600480803590602001909190803590602001908201803590602001908080602002602001604051908101604052809392919081815260200183836020028082843782019150505050505091905050611341565b6040518083815260200180602001828103825283818151815260200191508051906020019060200280838360005b8381101561035d578082015181840152602081019050610342565b50505050905001935050505060405180910390f35b60008060009050600060018481548110151561038a57fe5b90600052602060002090600a020160010160003373ffffffffffffffffffffffffffffffffffffffff1673ffffffffffffffffffffffffffffffffffffffff1681526020019081526020016000205411156103e457600190505b80915050919050565b6000806103f8611401565b6000610402611415565b6000809450600034141561044d576040805190810160405280601e81526020017f6465706f7369742076616c7565206d75737420626520706f73697469766500008152509350600194505b60018881548110151561045c57fe5b90600052602060002090600a020160090160009054906101000a900460ff1615156104be576040805190810160405280601281526020017f6465616c206973206e6f742061637469766500000000000000000000000000008152509350600194505b6001888154811015156104cd57fe5b90600052602060002090600a0201925060008360050154348115156104ee57fe5b06111561055957606060405190810160405280602f81526020017f6465706f7369742076616c7565206d7573742062652061206d756c7469706c6581526020017f206f6620636c61696d2076616c756500000000000000000000000000000000008152509350600194505b60008360010160003373ffffffffffffffffffffffffffffffffffffffff1673ffffffffffffffffffffffffffffffffffffffff16815260200190815260200160002054111561060757606060405190810160405280602a81526020017f63616e6e6f74206465706f73697420747769636520776974682074686520736181526020017f6d652061646472657373000000000000000000000000000000000000000000008152509350600194505b8260090160019054906101000a900460ff161561065b576040805190810160405280601e81526020017f6465616c20697320616c72656164792066756c6c696e672066756e64656400008152509350600194505b841561074357873373ffffffffffffffffffffffffffffffffffffffff167f9253951f3eff982bd56920e03d1dd72425977d70fae4ac8e2e0da3c564bfabcb89346000896040518085600019166000191681526020018481526020018315151515815260200180602001828103825283818151815260200191508051906020019080838360005b838110156106fd5780820151818401526020810190506106e2565b50505050905090810190601f16801561072a5780820380516001836020036101000a031916815260200191505b509550505050505060405180910390a360019550610b16565b348360020160008282540192505081905550348360010160003373ffffffffffffffffffffffffffffffffffffffff1673ffffffffffffffffffffffffffffffffffffffff16815260200190815260200160002081905550868360070184600301548154811015156107b157fe5b9060005260206000209001816000191690555060018360030160008282540192505081905550873373ffffffffffffffffffffffffffffffffffffffff167f9253951f3eff982bd56920e03d1dd72425977d70fae4ac8e2e0da3c564bfabcb893460016040518084600019166000191681526020018381526020018215151515815260200180602001828103825260088152602001807f616c6c20676f6f6400000000000000000000000000000000000000000000000081525060200194505050505060405180910390a382600601548360030154101515610b115760018360090160016101000a81548160ff021916908315150217905550877f38c728834d3279b1aa694222a5c1079e38e2d78a9543064bd3b50ffbfd030b3460405160405180910390a260018360030154016040518059106108ec5750595b9080825280602002602001820160405250915061090888611358565b82600081518110151561091757fe5b906020019060200201906000191690816000191681525050600090505b826007018054905081101561099657826007018181548110151561095457fe5b906000526020600020900154826001830181518110151561097157fe5b9060200190602002019060001916908160001916815250508080600101915050610934565b6000809054906101000a900473ffffffffffffffffffffffffffffffffffffffff1673ffffffffffffffffffffffffffffffffffffffff1663806815723430856000604051602001526040518463ffffffff167c0100000000000000000000000000000000000000000000000000000000028152600401808373ffffffffffffffffffffffffffffffffffffffff1673ffffffffffffffffffffffffffffffffffffffff168152602001807f6d6978416464726573736573000000000000000000000000000000000000000081525060200180602001807f6469737472696275746500000000000000000000000000000000000000000000815250602001828103825283818151815260200191508051906020019060200280838360005b83811015610acf578082015181840152602081019050610ab4565b5050505090500193505050506020604051808303818588803b1515610af357600080fd5b6125ee5a03f11515610b0457600080fd5b5050505060405180519050505b600095505b505050505092915050565b610b29611429565b600080600080600080600188815481101515610b4157fe5b90600052602060002090600a020160090160009054906101000a900460ff16610b6b576000610b6e565b60015b60ff169550600188815481101515610b8257fe5b90600052602060002090600a0201600601549450600188815481101515610ba557fe5b90600052602060002090600a0201600501549350600188815481101515610bc857fe5b90600052602060002090600a0201600301549250600188815481101515610beb57fe5b90600052602060002090600a0201600201549150600188815481101515610c0e57fe5b90600052602060002090600a020160080180549050905060c060405190810160405280878152602001868152602001858152602001848152602001838152602001828152509650505050505050919050565b610c68611415565b610c70611415565b6000600180549050604051805910610c855750595b90808252806020026020018201604052509150600090505b600180549050811015610cfe57600181815481101515610cb957fe5b90600052602060002090600a0201600001548282815181101515610cd957fe5b9060200190602002019060001916908160001916815250508080600101915050610c9d565b819250505090565b600080610d11611401565b6000806000809450600188815481101515610d2857fe5b90600052602060002090600a020192508260090160009054906101000a900460ff161515610d8d576040805190810160405280601281526020017f6465616c206973206e6f742061637469766500000000000000000000000000008152509350600194505b8260090160019054906101000a900460ff161515610de2576040805190810160405280601a81526020017f6465616c206973206e6f742066756c6c696e672066756e6465640000000000008152509350600194505b8415610df1576001955061105a565b86836008019080519060200190610e09929190611451565b5082600601548360080180549050149150811515610e8557606060405190810160405280602281526020017f6d697373696e6720736f6d652064657374696e6174696f6e206164647265737381526020017f65730000000000000000000000000000000000000000000000000000000000008152509350600194505b8415610f3e57877f354e1ddaa2fab096efb3d49c4d2ce86db3174dba7ba4f2c07e08742466a2c215600086604051808315151515815260200180602001828103825283818151815260200191508051906020019080838360005b83811015610efa578082015181840152602081019050610edf565b50505050905090810190601f168015610f275780820380516001836020036101000a031916815260200191505b50935050505060405180910390a26001955061105a565b600090505b8260080180549050811015610fdf578260080181815481101515610f6357fe5b906000526020600020900160009054906101000a900473ffffffffffffffffffffffffffffffffffffffff1673ffffffffffffffffffffffffffffffffffffffff166108fc84600201549081150290604051600060405180830381858888f193505050501515610fd257600080fd5b8080600101915050610f43565b877f354e1ddaa2fab096efb3d49c4d2ce86db3174dba7ba4f2c07e08742466a2c2156001604051808215151515815260200180602001828103825260088152602001807f616c6c20676f6f640000000000000000000000000000000000000000000000008152506020019250505060405180910390a2600095505b505050505092915050565b60008060018054905090506001805480919060010161108491906114db565b508460018281548110151561109557fe5b90600052602060002090600a0201600001816000191690555060006001828154811015156110bf57fe5b90600052602060002090600a02016002018190555060006001828154811015156110e557fe5b90600052602060002090600a0201600301819055504260018281548110151561110a57fe5b90600052602060002090600a0201600401819055508360018281548110151561112f57fe5b90600052602060002090600a0201600501819055508260018281548110151561115457fe5b90600052602060002090600a020160060181905550826040518059106111775750595b908082528060200260200182016040525060018281548110151561119757fe5b90600052602060002090600a020160070190805190602001906111bb92919061150d565b50826040518059106111ca5750595b90808252806020026020018201604052506001828154811015156111ea57fe5b90600052602060002090600a0201600801908051906020019061120e929190611451565b50600060018281548110151561122057fe5b90600052602060002090600a020160090160016101000a81548160ff0219169083151502179055506001808281548110151561125857fe5b90600052602060002090600a020160090160006101000a81548160ff021916908315150217905550803373ffffffffffffffffffffffffffffffffffffffff167f3f8aabc3a12e950c954455d2c33afc5d85a289ad74baae0ed96884daf85ba4104288888860016040518086815260200185600019166000191681526020018481526020018381526020018215151515815260200180602001828103825260088152602001807f616c6c20676f6f64000000000000000000000000000000000000000000000000815250602001965050505050505060405180910390a360009150509392505050565b600061134b611560565b8383915091509250929050565b60008082141561138a577f300000000000000000000000000000000000000000000000000000000000000090506113f9565b5b60008211156113f85761010081600190048115156113a557fe5b0460010290507f01000000000000000000000000000000000000000000000000000000000000006030600a848115156113da57fe5b06010260010281179050600a828115156113f057fe5b04915061138b565b5b809050919050565b602060405190810160405280600081525090565b602060405190810160405280600081525090565b60c0604051908101604052806006905b60008152602001906001900390816114395790505090565b8280548282559060005260206000209081019282156114ca579160200282015b828111156114c95782518260006101000a81548173ffffffffffffffffffffffffffffffffffffffff021916908373ffffffffffffffffffffffffffffffffffffffff16021790555091602001919060010190611471565b5b5090506114d79190611574565b5090565b81548183558181151161150857600a0281600a02836000526020600020918201910161150791906115b7565b5b505050565b82805482825590600052602060002090810192821561154f579160200282015b8281111561154e57825182906000191690559160200191906001019061152d565b5b50905061155c919061164e565b5090565b602060405190810160405280600081525090565b6115b491905b808211156115b057600081816101000a81549073ffffffffffffffffffffffffffffffffffffffff02191690555060010161157a565b5090565b90565b61164b91905b8082111561164757600080820160009055600282016000905560038201600090556004820160009055600582016000905560068201600090556007820160006116069190611673565b6008820160006116169190611694565b6009820160006101000a81549060ff02191690556009820160016101000a81549060ff021916905550600a016115bd565b5090565b90565b61167091905b8082111561166c576000816000905550600101611654565b5090565b90565b5080546000825590600052602060002090810190611691919061164e565b50565b50805460008255906000526020600020908101906116b291906116b5565b50565b6116d791905b808211156116d35760008160009055506001016116bb565b5090565b905600a165627a7a723058201dacc7d5ca04fdcdfdcf878b2725b2e7c74d9c17a1fd77024038a4b98f5c9c410029",
  "source": "pragma solidity ^0.4.19;\n\nimport \"./Enigma.sol\";\n\ncontract CoinMixer {\n    Enigma enigma;\n\n    struct Deal {\n        bytes32 title;\n        mapping(address => uint) deposit;\n        uint depositSum;\n        uint numDeposits;\n\n        uint startTime;\n        uint depositInWei;\n        uint numParticipants;\n\n        bytes32[] encryptedDestAddresses;\n        address[] destAddresses;\n\n        bool active;\n        bool fullyFunded;\n    }\n\n    struct DealSummary {\n        bytes32 title;\n    }\n\n    Deal[]  _deals;\n\n    event NewDeal(address indexed user, uint indexed _dealId, uint _startTime, bytes32 _title, uint _depositInWei, uint _numParticipants, bool _success, string _err);\n    event Deposit(address indexed _depositor, uint indexed _dealId, bytes32 _encryptedDestAddress, uint _value, bool _success, string _err);\n    event Distribute(uint indexed _dealId, bool _success, string _err);\n\n    event TransferredToken(address indexed to, uint256 value);\n    event FailedTransfer(address indexed to, uint256 value);\n\n    event DealFullyFunded(uint indexed _dealId);\n\n\n    // TODO: switch to require() once it accepts a message parameter\n    enum ReturnValue {Ok, Error}\n\n    function CoinMixer() public {\n        // TODO: consider externalizing in library\n        enigma = Enigma(0xf12b5dd4ead5f743c6baa640b0216200e89b60da);\n    }\n\n    function newDeal(bytes32 _title, uint _depositInWei, uint _numParticipants) public returns (ReturnValue) {\n        uint dealId = _deals.length;\n\n        _deals.length++;\n        _deals[dealId].title = _title;\n        _deals[dealId].depositSum = 0;\n        _deals[dealId].numDeposits = 0;\n        _deals[dealId].startTime = now;\n        _deals[dealId].depositInWei = _depositInWei;\n        _deals[dealId].numParticipants = _numParticipants;\n        _deals[dealId].encryptedDestAddresses = new bytes32[](_numParticipants);\n        _deals[dealId].destAddresses = new address[](_numParticipants);\n        _deals[dealId].fullyFunded = false;\n        _deals[dealId].active = true;\n        NewDeal(msg.sender,\n            dealId,\n            now,\n            _title,\n            _depositInWei,\n            _numParticipants,\n            true,\n            \"all good\");\n        return ReturnValue.Ok;\n    }\n\n    function uintToBytes(uint v) private pure returns (bytes32 ret) {\n        if (v == 0) {\n            ret = '0';\n        }\n        else {\n            while (v > 0) {\n                ret = bytes32(uint(ret) / (2 ** 8));\n                ret |= bytes32(((v % 10) + 48) * 2 ** (8 * 31));\n                v /= 10;\n            }\n        }\n        return ret;\n    }\n\n    function makeDeposit(uint dealId, bytes32 encryptedDestAddress) public payable returns (ReturnValue){\n        bool errorDetected = false;\n        string memory error;\n        // validations\n        if (msg.value == 0) {\n            error = \"deposit value must be positive\";\n            errorDetected = true;\n        }\n        if (!_deals[dealId].active) {\n            error = \"deal is not active\";\n            errorDetected = true;\n        }\n\n        Deal storage deal = _deals[dealId];\n        if ((msg.value % deal.depositInWei) > 0) {\n            error = \"deposit value must be a multiple of claim value\";\n            errorDetected = true;\n        }\n        if (deal.deposit[msg.sender] > 0) {\n            error = \"cannot deposit twice with the same address\";\n            errorDetected = true;\n        }\n        if (deal.fullyFunded) {\n            error = \"deal is already fulling funded\";\n            errorDetected = true;\n        }\n        if (errorDetected) {\n            Deposit(msg.sender, dealId, encryptedDestAddress, msg.value, false, error);\n            // send money back\n            return ReturnValue.Error;\n        }\n\n        // actual deposit\n        deal.depositSum += msg.value;\n        deal.deposit[msg.sender] = msg.value;\n        deal.encryptedDestAddresses[deal.numDeposits] = encryptedDestAddress;\n        deal.numDeposits += 1;\n\n        Deposit(msg.sender, dealId, encryptedDestAddress, msg.value, true, \"all good\");\n\n        if (deal.numDeposits >= deal.numParticipants) {\n            deal.fullyFunded = true;\n            DealFullyFunded(dealId);\n\n            // TODO: consider encapsulating param encoding in library\n            // For now, I'm adding adding the dealId as the first argument.\n            // The logic looks like this: f(bytes32 dealId, bytes32 encryptedDestAddresses1, bytes32 encryptedDestAddresses1, ...)\n            // This works fine until we have to support more than one dynamic array.\n            bytes32[] memory args = new bytes32[](deal.numDeposits + 1);\n            args[0] = uintToBytes(dealId);\n            for (uint i = 0; i < deal.encryptedDestAddresses.length; i++) {\n                args[i + 1] = deal.encryptedDestAddresses[i];\n            }\n            // Pre-processing\n            // 1. Decrypt arguments\n            // 2. Apply service parameters\n            // TODO: pass randomization parameters\n            enigma.compute.value(msg.value)(this, \"mixAddresses\", args, \"distribute\");\n        }\n        return ReturnValue.Ok;\n    }\n\n    function mixAddresses(uint dealId, address[] destAddresses) public pure returns (uint, address[]) {\n        // TODO: put mixing logic here\n        //        random()\n        return (dealId, destAddresses);\n    }\n\n    function distribute(uint dealId, address[] destAddresses) public returns (ReturnValue){\n        bool errorDetected = false;\n        string memory error;\n\n        Deal storage deal = _deals[dealId];\n        if (!deal.active) {\n            error = \"deal is not active\";\n            errorDetected = true;\n        }\n        if (!deal.fullyFunded) {\n            error = \"deal is not fulling funded\";\n            errorDetected = true;\n        }\n        if (errorDetected) {\n            return ReturnValue.Error;\n        }\n        deal.destAddresses = destAddresses;\n\n        bool enoughAddresses = deal.destAddresses.length == deal.numParticipants;\n        if (!enoughAddresses) {\n            error = \"missing some destination addresses\";\n            errorDetected = true;\n        }\n        if (errorDetected) {\n            Distribute(dealId, false, error);\n            return ReturnValue.Error;\n        }\n\n        for (uint i = 0; i < deal.destAddresses.length; i++) {\n            deal.destAddresses[i].transfer(deal.depositSum);\n        }\n\n        Distribute(dealId, true, \"all good\");\n        return ReturnValue.Ok;\n    }\n\n    ////////////////////////////////////////////////////////////////////////////////////////\n    //VIEWS/////////////////////////////////////////////////////////////////////////////////\n    ////////////////////////////////////////////////////////////////////////////////////////\n\n    function listDealTitles() public view returns (bytes32[]) {\n        bytes32[] memory titles = new bytes32[](_deals.length);\n        uint dealId = 0;\n        while (dealId < _deals.length) {\n            titles[dealId] = _deals[dealId].title;\n            dealId++;\n        }\n        return titles;\n    }\n\n    function dealStatus(uint _dealId) public view returns (uint[6]){\n        uint active = _deals[_dealId].active ? 1 : 0;\n        uint numParticipants = _deals[_dealId].numParticipants;\n        uint deposit = _deals[_dealId].depositInWei;\n        uint numDeposits = _deals[_dealId].numDeposits;\n        uint depositSum = _deals[_dealId].depositSum;\n        uint numDestAddresses = _deals[_dealId].destAddresses.length;\n\n\n        return [active, numParticipants, deposit, numDeposits, depositSum, numDestAddresses];\n    }\n\n    function isParticipating(uint _dealId) public view returns (bool) {\n        bool participating = false;\n        if (_deals[_dealId].deposit[msg.sender] > 0) {\n            participating = true;\n        }\n        return participating;\n    }\n}\n\n",
  "sourcePath": "/Users/fredfortier/Code/enigma/coin-mixer-poc/dapp/contracts/CoinMixer.sol",
  "compiler": {
    "name": "solc",
    "version": "0.4.19+commit.c4cbbb05.Emscripten.clang"
  },
  "schemaVersion": "2.0.0",
  "updatedAt": "2018-04-06T21:26:02.571Z"
}