{
  "contractName": "CoinMixer",
  "abi": [
    {
      "constant": true,
      "inputs": [
        {
          "name": "",
          "type": "uint256"
        }
      ],
      "name": "deals",
      "outputs": [
        {
          "name": "organizer",
          "type": "address"
        },
        {
          "name": "title",
          "type": "bytes32"
        },
        {
          "name": "depositSum",
          "type": "uint256"
        },
        {
          "name": "numDeposits",
          "type": "uint256"
        },
        {
          "name": "startTime",
          "type": "uint256"
        },
        {
          "name": "depositInWei",
          "type": "uint256"
        },
        {
          "name": "numParticipants",
          "type": "uint256"
        },
        {
          "name": "status",
          "type": "uint256"
        }
      ],
      "payable": false,
      "stateMutability": "view",
      "type": "function"
    },
    {
      "constant": true,
      "inputs": [
        {
          "name": "args",
          "type": "bytes32[]"
        },
        {
          "name": "arg",
          "type": "bytes32"
        },
        {
          "name": "offset",
          "type": "uint256"
        },
        {
          "name": "value",
          "type": "uint256"
        }
      ],
      "name": "addArg",
      "outputs": [
        {
          "name": "",
          "type": "uint256"
        }
      ],
      "payable": false,
      "stateMutability": "pure",
      "type": "function"
    },
    {
      "constant": true,
      "inputs": [],
      "name": "enigma",
      "outputs": [
        {
          "name": "",
          "type": "address"
        }
      ],
      "payable": false,
      "stateMutability": "view",
      "type": "function"
    },
    {
      "constant": true,
      "inputs": [
        {
          "name": "args",
          "type": "bytes32[]"
        },
        {
          "name": "arg",
          "type": "bytes32"
        },
        {
          "name": "offset",
          "type": "uint256"
        },
        {
          "name": "value",
          "type": "bytes32[]"
        }
      ],
      "name": "addEncryptedArg",
      "outputs": [
        {
          "name": "",
          "type": "uint256"
        }
      ],
      "payable": false,
      "stateMutability": "pure",
      "type": "function"
    },
    {
      "inputs": [
        {
          "name": "_enigmaAddress",
          "type": "address"
        }
      ],
      "payable": false,
      "stateMutability": "nonpayable",
      "type": "constructor"
    },
    {
      "anonymous": false,
      "inputs": [
        {
          "indexed": true,
          "name": "user",
          "type": "address"
        },
        {
          "indexed": true,
          "name": "_dealId",
          "type": "uint32"
        },
        {
          "indexed": false,
          "name": "_startTime",
          "type": "uint256"
        },
        {
          "indexed": false,
          "name": "_title",
          "type": "bytes32"
        },
        {
          "indexed": false,
          "name": "_depositInWei",
          "type": "uint256"
        },
        {
          "indexed": false,
          "name": "_numParticipants",
          "type": "uint256"
        },
        {
          "indexed": false,
          "name": "_success",
          "type": "bool"
        },
        {
          "indexed": false,
          "name": "_err",
          "type": "string"
        }
      ],
      "name": "NewDeal",
      "type": "event"
    },
    {
      "anonymous": false,
      "inputs": [
        {
          "indexed": true,
          "name": "_depositor",
          "type": "address"
        },
        {
          "indexed": true,
          "name": "_dealId",
          "type": "uint32"
        },
        {
          "indexed": false,
          "name": "_encryptedDestAddress",
          "type": "bytes"
        },
        {
          "indexed": false,
          "name": "_value",
          "type": "uint256"
        },
        {
          "indexed": false,
          "name": "_success",
          "type": "bool"
        },
        {
          "indexed": false,
          "name": "_err",
          "type": "string"
        }
      ],
      "name": "Deposit",
      "type": "event"
    },
    {
      "anonymous": false,
      "inputs": [
        {
          "indexed": true,
          "name": "_dealId",
          "type": "uint32"
        },
        {
          "indexed": false,
          "name": "individualAmountInWei",
          "type": "uint256"
        },
        {
          "indexed": false,
          "name": "nbTransfers",
          "type": "uint32"
        },
        {
          "indexed": false,
          "name": "_success",
          "type": "bool"
        },
        {
          "indexed": false,
          "name": "_err",
          "type": "string"
        }
      ],
      "name": "Distribute",
      "type": "event"
    },
    {
      "anonymous": false,
      "inputs": [
        {
          "indexed": true,
          "name": "to",
          "type": "address"
        },
        {
          "indexed": false,
          "name": "value",
          "type": "uint256"
        }
      ],
      "name": "TransferredToken",
      "type": "event"
    },
    {
      "anonymous": false,
      "inputs": [
        {
          "indexed": true,
          "name": "to",
          "type": "address"
        },
        {
          "indexed": false,
          "name": "value",
          "type": "uint256"
        }
      ],
      "name": "FailedTransfer",
      "type": "event"
    },
    {
      "anonymous": false,
      "inputs": [
        {
          "indexed": true,
          "name": "_dealId",
          "type": "uint32"
        }
      ],
      "name": "DealFullyFunded",
      "type": "event"
    },
    {
      "anonymous": false,
      "inputs": [
        {
          "indexed": true,
          "name": "_dealId",
          "type": "uint32"
        },
        {
          "indexed": false,
          "name": "_success",
          "type": "bool"
        }
      ],
      "name": "DealExecuted",
      "type": "event"
    },
    {
      "constant": false,
      "inputs": [
        {
          "name": "_title",
          "type": "bytes32"
        },
        {
          "name": "_depositInWei",
          "type": "uint256"
        },
        {
          "name": "_numParticipants",
          "type": "uint256"
        }
      ],
      "name": "newDeal",
      "outputs": [
        {
          "name": "",
          "type": "uint8"
        }
      ],
      "payable": false,
      "stateMutability": "nonpayable",
      "type": "function"
    },
    {
      "constant": false,
      "inputs": [
        {
          "name": "dealId",
          "type": "uint32"
        },
        {
          "name": "encryptedDestAddress",
          "type": "bytes"
        }
      ],
      "name": "makeDeposit",
      "outputs": [
        {
          "name": "",
          "type": "uint8"
        }
      ],
      "payable": true,
      "stateMutability": "payable",
      "type": "function"
    },
    {
      "constant": false,
      "inputs": [
        {
          "name": "dealId",
          "type": "uint32"
        }
      ],
      "name": "executeDeal",
      "outputs": [],
      "payable": true,
      "stateMutability": "payable",
      "type": "function"
    },
    {
      "constant": true,
      "inputs": [
        {
          "name": "dealId",
          "type": "uint32"
        },
        {
          "name": "destAddresses",
          "type": "address[]"
        },
        {
          "name": "rand",
          "type": "uint256"
        }
      ],
      "name": "mixAddresses",
      "outputs": [
        {
          "name": "",
          "type": "uint256"
        },
        {
          "name": "",
          "type": "address[]"
        }
      ],
      "payable": false,
      "stateMutability": "pure",
      "type": "function"
    },
    {
      "constant": false,
      "inputs": [
        {
          "name": "dealId",
          "type": "uint32"
        },
        {
          "name": "destAddresses",
          "type": "address[]"
        }
      ],
      "name": "distribute",
      "outputs": [
        {
          "name": "",
          "type": "uint8"
        }
      ],
      "payable": false,
      "stateMutability": "nonpayable",
      "type": "function"
    },
    {
      "constant": true,
      "inputs": [],
      "name": "listDeals",
      "outputs": [
        {
          "name": "",
          "type": "uint256[]"
        },
        {
          "name": "",
          "type": "uint256[]"
        },
        {
          "name": "",
          "type": "uint256[]"
        }
      ],
      "payable": false,
      "stateMutability": "view",
      "type": "function"
    },
    {
      "constant": true,
      "inputs": [
        {
          "name": "_dealId",
          "type": "uint32"
        }
      ],
      "name": "dealStatus",
      "outputs": [
        {
          "name": "",
          "type": "bytes32"
        },
        {
          "name": "",
          "type": "uint256"
        },
        {
          "name": "",
          "type": "uint256"
        },
        {
          "name": "",
          "type": "uint256"
        },
        {
          "name": "",
          "type": "uint256"
        },
        {
          "name": "",
          "type": "uint256"
        }
      ],
      "payable": false,
      "stateMutability": "view",
      "type": "function"
    },
    {
      "constant": true,
      "inputs": [
        {
          "name": "_dealId",
          "type": "uint32"
        }
      ],
      "name": "countEncryptedAddresses",
      "outputs": [
        {
          "name": "",
          "type": "uint256"
        }
      ],
      "payable": false,
      "stateMutability": "view",
      "type": "function"
    },
    {
      "constant": true,
      "inputs": [
        {
          "name": "_dealId",
          "type": "uint32"
        },
        {
          "name": "index",
          "type": "uint256"
        }
      ],
      "name": "getEncryptedAddress",
      "outputs": [
        {
          "name": "",
          "type": "bytes"
        }
      ],
      "payable": false,
      "stateMutability": "view",
      "type": "function"
    }
  ],
  "bytecode": "0x608060405234801561001057600080fd5b50604051602080611a31833981016040525160008054600160a060020a03909216600160a060020a03199092169190911790556119df806100526000396000f3006080604052600436106100c45763ffffffff7c010000000000000000000000000000000000000000000000000000000060003504166303988f8481146100c957806310f11e841461012c5780632aaf281b1461021f5780633b8332451461029a57806357f5fc28146102ca5780636db0c8f014610360578063850d8619146103c2578063a06a5856146103d5578063b24fd5c5146103f3578063d10e1e6914610424578063daefe73814610484578063dd20866e146104d5578063ed0b494c14610592575b600080fd5b3480156100d557600080fd5b506100e160043561062f565b60408051600160a060020a0390991689526020890197909752878701959095526060870193909352608086019190915260a085015260c084015260e083015251908190036101000190f35b34801561013857600080fd5b5061014161068d565b60405180806020018060200180602001848103845287818151815260200191508051906020019060200280838360005b83811015610189578181015183820152602001610171565b50505050905001848103835286818151815260200191508051906020019060200280838360005b838110156101c85781810151838201526020016101b0565b50505050905001848103825285818151815260200191508051906020019060200280838360005b838110156102075781810151838201526020016101ef565b50505050905001965050505050505060405180910390f35b60408051602060046024803582810135601f810185900485028601850190965285855261027695833563ffffffff169536956044949193909101919081908401838280828437509497506108239650505050505050565b6040518082600181111561028657fe5b60ff16815260200191505060405180910390f35b3480156102a657600080fd5b506102b863ffffffff60043516610bd7565b60408051918252519081900360200190f35b3480156102d657600080fd5b506102eb63ffffffff60043516602435610c08565b6040805160208082528351818301528351919283929083019185019080838360005b8381101561032557818101518382015260200161030d565b50505050905090810190601f1680156103525780820380516001836020036101000a031916815260200191505b509250505060405180910390f35b34801561036c57600080fd5b50604080516020600480358082013583810280860185019096528085526102b89536959394602494938501929182918501908490808284375094975050843595505050602083013592604001359150610cd89050565b6103d363ffffffff60043516610d26565b005b3480156103e157600080fd5b50610276600435602435604435610e11565b3480156103ff57600080fd5b50610408611112565b60408051600160a060020a039092168252519081900360200190f35b34801561043057600080fd5b5060408051602060046024803582810135848102808701860190975280865261027696843563ffffffff16963696604495919490910192918291850190849080828437509497506111219650505050505050565b34801561049057600080fd5b506104a263ffffffff60043516611396565b604080519687526020870195909552858501939093526060850191909152608084015260a0830152519081900360c00190f35b3480156104e157600080fd5b5060408051602060046024803582810135848102808701860190975280865261053796843563ffffffff169636966044959194909101929182918501908490808284375094975050933594506114b49350505050565b6040518083815260200180602001828103825283818151815260200191508051906020019060200280838360005b8381101561057d578181015183820152602001610565565b50505050905001935050505060405180910390f35b34801561059e57600080fd5b50604080516020600480358082013583810280860185019096528085526102b8953695939460249493850192918291850190849080828437505060408051818801358901803560208181028481018201909552818452989b8a359b8a8c01359b919a909950606090910197509295509082019350918291850190849080828437509497506115da9650505050505050565b600180548290811061063d57fe5b60009182526020909120600b909102018054600182015460038301546004840154600585015460068601546007870154600a90970154600160a060020a0390961697509395929491939092909188565b60608060608060608060006001805490506040519080825280602002602001820160405280156106c7578160200160208202803883390190505b5060015460408051828152602080840282010190915291955080156106f6578160200160208202803883390190505b506001546040805182815260208084028201019091529194508015610725578160200160208202803883390190505b509150600090505b60015481101561081657600180548290811061074557fe5b90600052602060002090600b0201600a0154848281518110151561076557fe5b6020908102909101015260018054600091908390811061078157fe5b600091825260208083203384526002600b90930201919091019052604090205411156107c257600183828151811015156107b757fe5b602090810290910101525b60018054339190839081106107d357fe5b60009182526020909120600b9091020154600160a060020a0316141561080e576001828281518110151561080357fe5b602090810290910101525b60010161072d565b5091959094509092509050565b60008034811061087d576040805160e560020a62461bcd02815260206004820152601f60248201527f4465706f7369742076616c7565206d75737420626520706f7369746976652e00604482015290519081900360640190fd5b6001805463ffffffff861690811061089157fe5b90600052602060002090600b0201600a015460001415156108fc576040805160e560020a62461bcd02815260206004820152601b60248201527f496c6c6567616c20737461746520666f72206465706f736974732e0000000000604482015290519081900360640190fd5b6001805463ffffffff861690811061091057fe5b90600052602060002090600b0201905080600601543481151561092f57fe5b06156109ab576040805160e560020a62461bcd02815260206004820152602f60248201527f4465706f7369742076616c7565206d7573742062652061206d756c7469706c6560448201527f206f6620636c61696d2076616c75650000000000000000000000000000000000606482015290519081900360840190fd5b33600090815260028201602052604090205415610a38576040805160e560020a62461bcd02815260206004820152602a60248201527f43616e6e6f74206465706f73697420747769636520776974682074686520736160448201527f6d65206164647265737300000000000000000000000000000000000000000000606482015290519081900360840190fd5b6003810180543490810190915533600090815260028301602052604090205560048101546008820180548592908110610a6d57fe5b906000526020600020019080519060200190610a8a9291906116c9565b506004810180546001908101909155604080513460208083018290529282018490526080808352875190830152865163ffffffff89169433947fce7036acc3606aaa1ec3a2e7b4d13b3f4da34ee1eac298fc47524074de74a3bf948a949390918291606083019160a08401919088019080838360005b83811015610b18578181015183820152602001610b00565b50505050905090810190601f168015610b455780820380516001836020036101000a031916815260200191505b50928303905250600881527f616c6c20676f6f6400000000000000000000000000000000000000000000000060208201526040805191829003019350915050a36007810154600482015410610bcd576001600a82015560405163ffffffff8516907fa98c11bc69afe22b520fe800f82e421f9594d4f06259a7600711b75af05a43b990600090a25b5060009392505050565b600060018263ffffffff16815481101515610bee57fe5b600091825260209091206008600b90920201015492915050565b606060018363ffffffff16815481101515610c1f57fe5b90600052602060002090600b020160080182815481101515610c3d57fe5b600091825260209182902001805460408051601f6002600019610100600187161502019094169390930492830185900485028101850190915281815292830182828015610ccb5780601f10610ca057610100808354040283529160200191610ccb565b820191906000526020600020905b815481529060010190602001808311610cae57829003601f168201915b5050505050905092915050565b6000838584815181101515610ce957fe5b60209081029091010152600190920191610d028261164f565b8584815181101515610d1057fe5b6020908102919091010152505060010192915050565b600060608060018463ffffffff16815481101515610d4057fe5b6000918252602090912060408051818152606081018252600b909302909101945081602001602082028038833950506040805160018082528183019092529294509050602080830190803883390190505090507f72616e6428290000000000000000000000000000000000000000000000000000816000815181101515610dc357fe5b60209081029091018101919091526040805160018152905163ffffffff8716927fb37f76c8ba24e6a6d20d203681329001f2cacd9ab37c09d8b2aee57b8a31b874928290030190a250505050565b600180546000918190610e2690828101611747565b503360018263ffffffff16815481101515610e3d57fe5b90600052602060002090600b020160000160006101000a815481600160a060020a030219169083600160a060020a031602179055508460018263ffffffff16815481101515610e8857fe5b90600052602060002090600b02016001018160001916905550600060018263ffffffff16815481101515610eb857fe5b90600052602060002090600b020160030181905550600060018263ffffffff16815481101515610ee457fe5b90600052602060002090600b0201600401819055504260018263ffffffff16815481101515610f0f57fe5b90600052602060002090600b0201600501819055508360018263ffffffff16815481101515610f3a57fe5b90600052602060002090600b0201600601819055508260018263ffffffff16815481101515610f6557fe5b90600052602060002090600b02016007018190555082604051908082528060200260200182016040528015610fae57816020015b6060815260200190600190039081610f995790505b506001805463ffffffff8416908110610fc357fe5b90600052602060002090600b02016008019080519060200190610fe7929190611778565b5082604051908082528060200260200182016040528015611012578160200160208202803883390190505b506001805463ffffffff841690811061102757fe5b90600052602060002090600b0201600901908051906020019061104b9291906117d1565b50600060018263ffffffff1681548110151561106357fe5b6000918252602091829020600a600b90920201019190915560408051428152918201879052818101869052606082018590526001608083015260c060a083018190526008908301527f616c6c20676f6f6400000000000000000000000000000000000000000000000060e08301525163ffffffff83169133917f8c2ac5e09d37c38a96fb20791b6ed6f2ccaaaf26c4115680b9257504d32bcdc3918190036101000190a3506000949350505050565b600054600160a060020a031681565b60008060018463ffffffff1681548110151561113957fe5b90600052602060002090600b0201600a015460011415156111a4576040805160e560020a62461bcd02815260206004820152601560248201527f4465616c206973206e6f742065786563757465642e0000000000000000000000604482015290519081900360640190fd5b8260018563ffffffff168154811015156111ba57fe5b90600052602060002090600b020160090190805190602001906111de9291906117d1565b50600090505b6001805463ffffffff86169081106111f857fe5b90600052602060002090600b0201600901805490508110156112bd576001805463ffffffff861690811061122857fe5b90600052602060002090600b02016009018181548110151561124657fe5b60009182526020909120015460018054600160a060020a03909216916108fc919063ffffffff881690811061127757fe5b90600052602060002090600b0201600601549081150290604051600060405180830381858888f193505050501580156112b4573d6000803e3d6000fd5b506001016111e4565b6001805463ffffffff8616917f61347ea145bc2f7f5814e4a2b5e70991c5c42870bfd4df70ab8ea10c41cfa89d91839081106112f557fe5b90600052602060002090600b02016006015460018763ffffffff1681548110151561131c57fe5b60009182526020918290206009600b9092020101546040805193845263ffffffff909116918301919091526001828201526080606083018190526008908301527f616c6c20676f6f6400000000000000000000000000000000000000000000000060a0830152519081900360c00190a25060009392505050565b60008060008060008060008060008060008060018d63ffffffff168154811015156113bd57fe5b90600052602060002090600b020160010154955060018d63ffffffff168154811015156113e657fe5b90600052602060002090600b020160070154945060018d63ffffffff1681548110151561140f57fe5b90600052602060002090600b020160060154935060018d63ffffffff1681548110151561143857fe5b90600052602060002090600b020160040154925060018d63ffffffff1681548110151561146157fe5b90600052602060002090600b020160030154915060018d63ffffffff1681548110151561148a57fe5b600091825260209091206009600b909202010154959d949c50929a50909850965091945092505050565b815160009060609082805b60008311156115c65760408051600188018152905190819003602001902083908115156114e857fe5b06915086600184038151811015156114fc57fe5b90602001906020020151600160a060020a0316878381518110151561151d57fe5b60209081029091010151600160a060020a0316146115ba57866001840381518110151561154657fe5b906020019060200201519050868281518110151561156057fe5b90602001906020020151876001850381518110151561157b57fe5b600160a060020a03909216602092830290910190910152865181908890849081106115a257fe5b600160a060020a039092166020928302909101909101525b600019909201916114bf565b50505063ffffffff94909416949293505050565b6000808486858151811015156115ec57fe5b602090810290910101525060019092019160005b825181101561164557828181518110151561161757fe5b90602001906020020151868581518110151561162f57fe5b6020908102909101015260019384019301611600565b5091949350505050565b600081151561167f57507f30000000000000000000000000000000000000000000000000000000000000006116c4565b60008211156116c45761010081049050600a82066030017f01000000000000000000000000000000000000000000000000000000000000000217600a8204915061167f565b919050565b828054600181600116156101000203166002900490600052602060002090601f016020900481019282601f1061170a57805160ff1916838001178555611737565b82800160010185558215611737579182015b8281111561173757825182559160200191906001019061171c565b5061174392915061183f565b5090565b81548183558181111561177357600b0281600b028360005260206000209182019101611773919061185c565b505050565b8280548282559060005260206000209081019282156117c5579160200282015b828111156117c557825180516117b59184916020909101906116c9565b5091602001919060010190611798565b506117439291506118dc565b828054828255906000526020600020908101928215611833579160200282015b82811115611833578251825473ffffffffffffffffffffffffffffffffffffffff1916600160a060020a039091161782556020909201916001909101906117f1565b506117439291506118ff565b61185991905b808211156117435760008155600101611845565b90565b61185991905b8082111561174357805473ffffffffffffffffffffffffffffffffffffffff1916815560006001820181905560038201819055600482018190556005820181905560068201819055600782018190556118be6008830182611930565b6118cc600983016000611951565b506000600a820155600b01611862565b61185991905b808211156117435760006118f6828261196f565b506001016118e2565b61185991905b8082111561174357805473ffffffffffffffffffffffffffffffffffffffff19168155600101611905565b508054600082559060005260206000209081019061194e91906118dc565b50565b508054600082559060005260206000209081019061194e919061183f565b50805460018160011615610100020316600290046000825580601f10611995575061194e565b601f01602090049060005260206000209081019061194e919061183f5600a165627a7a723058201c7c4262d5d15bb3d4bbcc21da73d8faf2b7515d62b0c3bbed24aa3b365c1d840029",
  "source": "pragma solidity ^0.4.22;\n\nimport \"./Enigma.sol\";\nimport \"./EnigmaP.sol\";\nimport \"./utils/RLP.sol\";\n\ncontract CoinMixer is EnigmaP {\n    using RLP for bytes[];\n\n    Enigma public enigma;\n\n    struct Deal {\n        address organizer;\n        bytes32 title;\n        mapping(address => uint) deposit;\n        uint depositSum;\n        uint numDeposits;\n\n        uint startTime;\n        uint depositInWei;\n        uint numParticipants;\n\n        bytes[] encryptedDestAddresses;\n        address[] destAddresses;\n\n        uint status; // 0: active; 1: funded; 2: executed; 3: cancelled\n    }\n\n    Deal[] public deals;\n\n    event NewDeal(address indexed user, uint32 indexed _dealId, uint _startTime, bytes32 _title, uint _depositInWei, uint _numParticipants, bool _success, string _err);\n    event Deposit(address indexed _depositor, uint32 indexed _dealId, bytes _encryptedDestAddress, uint _value, bool _success, string _err);\n    event Distribute(uint32 indexed _dealId, uint individualAmountInWei, uint32 nbTransfers, bool _success, string _err);\n\n    event TransferredToken(address indexed to, uint256 value);\n    event FailedTransfer(address indexed to, uint256 value);\n\n    event DealFullyFunded(uint32 indexed _dealId);\n    event DealExecuted(uint32 indexed _dealId, bool _success);\n\n    // TODO: switch to require() once it accepts a message parameter\n    enum ReturnValue {Ok, Error}\n\n    function CoinMixer(address _enigmaAddress) public {\n        enigma = Enigma(_enigmaAddress);\n    }\n\n    function newDeal(bytes32 _title, uint _depositInWei, uint _numParticipants)\n    public\n    returns (ReturnValue) {\n        uint32 dealId = uint32(deals.length);\n\n        deals.length++;\n        deals[dealId].organizer = msg.sender;\n        deals[dealId].title = _title;\n        deals[dealId].depositSum = 0;\n        deals[dealId].numDeposits = 0;\n        deals[dealId].startTime = now;\n        deals[dealId].depositInWei = _depositInWei;\n        deals[dealId].numParticipants = _numParticipants;\n        deals[dealId].encryptedDestAddresses = new bytes[](_numParticipants);\n        deals[dealId].destAddresses = new address[](_numParticipants);\n        deals[dealId].status = 0;\n        emit NewDeal(msg.sender, dealId, now, _title, _depositInWei, _numParticipants, true, \"all good\");\n\n        return ReturnValue.Ok;\n    }\n\n    function makeDeposit(uint32 dealId, bytes encryptedDestAddress)\n    public\n    payable\n    returns (ReturnValue){\n        require(msg.value > 0, \"Deposit value must be positive.\");\n        require(deals[dealId].status == 0, \"Illegal state for deposits.\");\n\n        Deal storage deal = deals[dealId];\n        require((msg.value % deal.depositInWei) == 0, \"Deposit value must be a multiple of claim value\");\n        require(deal.deposit[msg.sender] == 0, \"Cannot deposit twice with the same address\");\n\n        // actual deposit\n        deal.depositSum += msg.value;\n        deal.deposit[msg.sender] = msg.value;\n        deal.encryptedDestAddresses[deal.numDeposits] = encryptedDestAddress;\n        deal.numDeposits += 1;\n\n        emit Deposit(msg.sender, dealId, encryptedDestAddress, msg.value, true, \"all good\");\n\n        if (deal.numDeposits >= deal.numParticipants) {\n            deal.status = 1;\n            emit DealFullyFunded(dealId);\n        }\n        return ReturnValue.Ok;\n    }\n\n    function executeDeal(uint32 dealId)\n    public\n    payable\n    {\n        // Execute the deal and pay for computation\n        // TODO: refactor for RLP\n        Deal storage deal = deals[dealId];\n\n        // After giving this some thought, this is what I came up with to serialize arguments\n        // To avoid unecessary complexity, arguments will be provided as a bytes32 array\n        // Each argument will start by it's declaration like in the target function\n        //    name type (e.g. uint dealId)\n        // Followed by bytes32 encoded values.\n        // If the value is an array, just add each value sequentially.\n        // The EnigmaP contract has helper function to populate the arguments.\n        //        bytes32[] memory args = new bytes32[](deal.numDeposits + 3);\n        //        uint offset = 0;\n        //        offset = addArg(args, \"uint dealId\", offset, dealId);\n        //        offset = addEncryptedArg(args, \"address[] destAddresses\", offset, deal.encryptedDestAddresses);\n        bytes memory args = new bytes(64);\n\n        // This is the most generic way I came up with for the preprocessors.\n        // We can accept an unlimited number of preprocessors, each of which\n        // might have arbitrary attributes.\n        // The enclave will know who to apply each preprocessor by convention.\n        bytes32[] memory preprocessors = new bytes32[](1);\n        preprocessors[0] = \"rand()\";\n\n        // enigma.compute.value(msg.value)(this, \"mixAddresses\", args, \"distribute\", preprocessors);\n        emit DealExecuted(dealId, true);\n    }\n\n    function mixAddresses(uint32 dealId, address[] destAddresses, uint256 rand)\n    public\n    pure\n    returns (uint, address[]) {\n        // Shuffling the specified address using a random seed.\n        // Doing a Fisher-Yates Shuffle with a single integer\n        // between 0 and 127. To get more numbers in the loop,\n        // we'll add 1 to our seed and hash it.\n        uint i = destAddresses.length;\n        while (i > 0) {\n            uint j = uint(sha3(rand + 1)) % i;\n\n            // Array swap\n            if (destAddresses[j] != destAddresses[i - 1]) {\n                address destAddress = destAddresses[i - 1];\n                destAddresses[i - 1] = destAddresses[j];\n                destAddresses[j] = destAddress;\n            }\n            i--;\n        }\n        return (dealId, destAddresses);\n    }\n\n    modifier onlyEnigma() {\n        require(msg.sender == address(enigma));\n        _;\n    }\n\n    function distribute(uint32 dealId, address[] destAddresses)\n    public\n        //    onlyEnigma() //TODO: enable after testing\n    returns (ReturnValue){\n        // Distribute the deposits to destination addresses\n        require(deals[dealId].status == 1, \"Deal is not executed.\");\n        deals[dealId].destAddresses = destAddresses;\n\n        for (uint i = 0; i < deals[dealId].destAddresses.length; i++) {\n            deals[dealId].destAddresses[i].transfer(deals[dealId].depositInWei);\n        }\n\n        emit Distribute(dealId, deals[dealId].depositInWei, uint32(deals[dealId].destAddresses.length), true, \"all good\");\n        return ReturnValue.Ok;\n    }\n\n    function listDeals() public view returns (uint[], uint[], uint[]) {\n        // A list of deals with their key properties\n        uint[] memory status = new uint[](deals.length);\n        uint[] memory participates = new uint[](deals.length);\n        uint[] memory organizes = new uint[](deals.length);\n\n        for (uint i = 0; i < deals.length; i++) {\n            status[i] = deals[i].status;\n\n            if (deals[i].deposit[msg.sender] > 0) {\n                participates[i] = 1;\n            }\n\n            if (deals[i].organizer == msg.sender) {\n                organizes[i] = 1;\n            }\n        }\n        return (status, participates, organizes);\n    }\n\n    function dealStatus(uint32 _dealId)\n    public\n    view\n    returns (bytes32, uint, uint, uint, uint, uint){\n        // Key attributes of a deal\n        bytes32 title = deals[_dealId].title;\n        uint numParticipants = deals[_dealId].numParticipants;\n        uint deposit = deals[_dealId].depositInWei;\n        uint numDeposits = deals[_dealId].numDeposits;\n        uint depositSum = deals[_dealId].depositSum;\n        uint numDestAddresses = deals[_dealId].destAddresses.length;\n\n        return (title, numParticipants, deposit, numDeposits, depositSum, numDestAddresses);\n    }\n\n    function countEncryptedAddresses(uint32 _dealId)\n    public view\n    returns (uint) {\n        // Count the addresses\n        return deals[_dealId].encryptedDestAddresses.length;\n    }\n\n    function getEncryptedAddress(uint32 _dealId, uint index)\n    public\n    view\n    returns (bytes) {\n        // Returns an array of encrypted addresses\n        return deals[_dealId].encryptedDestAddresses[index];\n    }\n}\n\n",
  "sourcePath": "/Users/fredfortier/Code/sandbox/enigma-js/contracts/CoinMixer.sol",
  "compiler": {
    "name": "solc",
    "version": "0.4.24+commit.e67f0147.Emscripten.clang"
  },
  "schemaVersion": "2.0.0",
  "updatedAt": "2018-06-22T20:00:48.091Z"
}