{
  "contractName": "CoinMixer",
  "abi": [
    {
      "constant": true,
      "inputs": [
        {
          "name": "",
          "type": "uint256"
        }
      ],
      "name": "deals",
      "outputs": [
        {
          "name": "organizer",
          "type": "address"
        },
        {
          "name": "title",
          "type": "bytes32"
        },
        {
          "name": "depositSum",
          "type": "uint256"
        },
        {
          "name": "numDeposits",
          "type": "uint256"
        },
        {
          "name": "startTime",
          "type": "uint256"
        },
        {
          "name": "depositInWei",
          "type": "uint256"
        },
        {
          "name": "numParticipants",
          "type": "uint256"
        },
        {
          "name": "status",
          "type": "uint256"
        }
      ],
      "payable": false,
      "stateMutability": "view",
      "type": "function"
    },
    {
      "inputs": [],
      "payable": false,
      "stateMutability": "nonpayable",
      "type": "constructor"
    },
    {
      "anonymous": false,
      "inputs": [
        {
          "indexed": true,
          "name": "user",
          "type": "address"
        },
        {
          "indexed": true,
          "name": "_dealId",
          "type": "uint256"
        },
        {
          "indexed": false,
          "name": "_startTime",
          "type": "uint256"
        },
        {
          "indexed": false,
          "name": "_title",
          "type": "bytes32"
        },
        {
          "indexed": false,
          "name": "_depositInWei",
          "type": "uint256"
        },
        {
          "indexed": false,
          "name": "_numParticipants",
          "type": "uint256"
        },
        {
          "indexed": false,
          "name": "_success",
          "type": "bool"
        },
        {
          "indexed": false,
          "name": "_err",
          "type": "string"
        }
      ],
      "name": "NewDeal",
      "type": "event"
    },
    {
      "anonymous": false,
      "inputs": [
        {
          "indexed": true,
          "name": "_depositor",
          "type": "address"
        },
        {
          "indexed": true,
          "name": "_dealId",
          "type": "uint256"
        },
        {
          "indexed": false,
          "name": "_encryptedDestAddress",
          "type": "bytes32"
        },
        {
          "indexed": false,
          "name": "_value",
          "type": "uint256"
        },
        {
          "indexed": false,
          "name": "_success",
          "type": "bool"
        },
        {
          "indexed": false,
          "name": "_err",
          "type": "string"
        }
      ],
      "name": "Deposit",
      "type": "event"
    },
    {
      "anonymous": false,
      "inputs": [
        {
          "indexed": true,
          "name": "_dealId",
          "type": "uint256"
        },
        {
          "indexed": false,
          "name": "_success",
          "type": "bool"
        },
        {
          "indexed": false,
          "name": "_err",
          "type": "string"
        }
      ],
      "name": "Distribute",
      "type": "event"
    },
    {
      "anonymous": false,
      "inputs": [
        {
          "indexed": true,
          "name": "to",
          "type": "address"
        },
        {
          "indexed": false,
          "name": "value",
          "type": "uint256"
        }
      ],
      "name": "TransferredToken",
      "type": "event"
    },
    {
      "anonymous": false,
      "inputs": [
        {
          "indexed": true,
          "name": "to",
          "type": "address"
        },
        {
          "indexed": false,
          "name": "value",
          "type": "uint256"
        }
      ],
      "name": "FailedTransfer",
      "type": "event"
    },
    {
      "anonymous": false,
      "inputs": [
        {
          "indexed": true,
          "name": "_dealId",
          "type": "uint256"
        }
      ],
      "name": "DealFullyFunded",
      "type": "event"
    },
    {
      "constant": false,
      "inputs": [
        {
          "name": "_title",
          "type": "bytes32"
        },
        {
          "name": "_depositInWei",
          "type": "uint256"
        },
        {
          "name": "_numParticipants",
          "type": "uint256"
        }
      ],
      "name": "newDeal",
      "outputs": [
        {
          "name": "",
          "type": "uint8"
        }
      ],
      "payable": false,
      "stateMutability": "nonpayable",
      "type": "function"
    },
    {
      "constant": false,
      "inputs": [
        {
          "name": "dealId",
          "type": "uint256"
        },
        {
          "name": "encryptedDestAddress",
          "type": "bytes32"
        }
      ],
      "name": "makeDeposit",
      "outputs": [
        {
          "name": "",
          "type": "uint8"
        }
      ],
      "payable": true,
      "stateMutability": "payable",
      "type": "function"
    },
    {
      "constant": true,
      "inputs": [
        {
          "name": "dealId",
          "type": "uint256"
        },
        {
          "name": "destAddresses",
          "type": "address[]"
        }
      ],
      "name": "mixAddresses",
      "outputs": [
        {
          "name": "",
          "type": "uint256"
        },
        {
          "name": "",
          "type": "address[]"
        }
      ],
      "payable": false,
      "stateMutability": "pure",
      "type": "function"
    },
    {
      "constant": false,
      "inputs": [
        {
          "name": "dealId",
          "type": "uint256"
        },
        {
          "name": "destAddresses",
          "type": "address[]"
        }
      ],
      "name": "distribute",
      "outputs": [
        {
          "name": "",
          "type": "uint8"
        }
      ],
      "payable": false,
      "stateMutability": "nonpayable",
      "type": "function"
    },
    {
      "constant": true,
      "inputs": [],
      "name": "listDeals",
      "outputs": [
        {
          "name": "",
          "type": "bytes32[]"
        },
        {
          "name": "",
          "type": "uint256[]"
        },
        {
          "name": "",
          "type": "uint256[]"
        },
        {
          "name": "",
          "type": "uint256[]"
        }
      ],
      "payable": false,
      "stateMutability": "view",
      "type": "function"
    }
  ],
  "bytecode": "0x6060604052341561000f57600080fd5b7374e3fc764c2474f25369b9d021b7f92e8441a2dc6000806101000a81548173ffffffffffffffffffffffffffffffffffffffff021916908373ffffffffffffffffffffffffffffffffffffffff160217905550611620806100726000396000f300606060405260043610610078576000357c0100000000000000000000000000000000000000000000000000000000900463ffffffff16806303988f841461007d57806310f11e84146101195780632ea799681461025b57806385e3c463146102a2578063a06a585614610327578063cf3cf65614610382575b600080fd5b341561008857600080fd5b61009e6004808035906020019091905050610441565b604051808973ffffffffffffffffffffffffffffffffffffffff1673ffffffffffffffffffffffffffffffffffffffff16815260200188600019166000191681526020018781526020018681526020018581526020018481526020018381526020018281526020019850505050505050505060405180910390f35b341561012457600080fd5b61012c6104b8565b6040518080602001806020018060200180602001858103855289818151815260200191508051906020019060200280838360005b8381101561017b578082015181840152602081019050610160565b50505050905001858103845288818151815260200191508051906020019060200280838360005b838110156101bd5780820151818401526020810190506101a2565b50505050905001858103835287818151815260200191508051906020019060200280838360005b838110156101ff5780820151818401526020810190506101e4565b50505050905001858103825286818151815260200191508051906020019060200280838360005b83811015610241578082015181840152602081019050610226565b505050509050019850505050505050505060405180910390f35b61027e600480803590602001909190803560001916906020019091905050610764565b6040518082600181111561028e57fe5b60ff16815260200191505060405180910390f35b34156102ad57600080fd5b610303600480803590602001909190803590602001908201803590602001908080602002602001604051908101604052809392919081815260200183836020028082843782019150505050505091905050610c2c565b6040518082600181111561031357fe5b60ff16815260200191505060405180910390f35b341561033257600080fd5b61035e600480803560001916906020019091908035906020019091908035906020019091905050611021565b6040518082600181111561036e57fe5b60ff16815260200191505060405180910390f35b341561038d57600080fd5b6103e3600480803590602001909190803590602001908201803590602001908080602002602001604051908101604052809392919081815260200183836020028082843782019150505050505091905050611311565b6040518083815260200180602001828103825283818151815260200191508051906020019060200280838360005b8381101561042c578082015181840152602081019050610411565b50505050905001935050505060405180910390f35b60018181548110151561045057fe5b90600052602060002090600b02016000915090508060000160009054906101000a900473ffffffffffffffffffffffffffffffffffffffff169080600101549080600301549080600401549080600501549080600601549080600701549080600a0154905088565b6104c0611328565b6104c861133c565b6104d061133c565b6104d861133c565b6104e0611328565b6104e861133c565b6104f061133c565b6104f861133c565b600060018054905060405180591061050d5750595b908082528060200260200182016040525094506001805490506040518059106105335750595b908082528060200260200182016040525093506001805490506040518059106105595750595b9080825280602002602001820160405250925060018054905060405180591061057f5750595b90808252806020026020018201604052509150600090505b60018054905081101561074d576001818154811015156105b357fe5b90600052602060002090600b02016001015485828151811015156105d357fe5b9060200190602002019060001916908160001916815250506001818154811015156105fa57fe5b90600052602060002090600b0201600a0154848281518110151561061a57fe5b9060200190602002018181525050600060018281548110151561063957fe5b90600052602060002090600b020160020160003373ffffffffffffffffffffffffffffffffffffffff1673ffffffffffffffffffffffffffffffffffffffff1681526020019081526020016000205411156106ad576001838281518110151561069e57fe5b90602001906020020181815250505b3373ffffffffffffffffffffffffffffffffffffffff166001828154811015156106d357fe5b90600052602060002090600b020160000160009054906101000a900473ffffffffffffffffffffffffffffffffffffffff1673ffffffffffffffffffffffffffffffffffffffff161415610740576001828281518110151561073157fe5b90602001906020020181815250505b8080600101915050610597565b848484849850985098509850505050505090919293565b60008061076f611350565b600080925060003414156107ba576040805190810160405280601e81526020017f6465706f7369742076616c7565206d75737420626520706f73697469766500008152509150600192505b60006001878154811015156107cb57fe5b90600052602060002090600b0201600a0154141515610821576040805190810160405280601281526020017f6465616c206973206e6f742061637469766500000000000000000000000000008152509150600192505b60018681548110151561083057fe5b90600052602060002090600b02019050600081600601543481151561085157fe5b0611156108bc57606060405190810160405280602f81526020017f6465706f7369742076616c7565206d7573742062652061206d756c7469706c6581526020017f206f6620636c61696d2076616c756500000000000000000000000000000000008152509150600192505b60008160020160003373ffffffffffffffffffffffffffffffffffffffff1673ffffffffffffffffffffffffffffffffffffffff16815260200190815260200160002054111561096a57606060405190810160405280602a81526020017f63616e6e6f74206465706f73697420747769636520776974682074686520736181526020017f6d652061646472657373000000000000000000000000000000000000000000008152509150600192505b600181600a015414156109b4576040805190810160405280601e81526020017f6465616c20697320616c72656164792066756c6c696e672066756e64656400008152509150600192505b8215610a9c57853373ffffffffffffffffffffffffffffffffffffffff167f9253951f3eff982bd56920e03d1dd72425977d70fae4ac8e2e0da3c564bfabcb87346000876040518085600019166000191681526020018481526020018315151515815260200180602001828103825283818151815260200191508051906020019080838360005b83811015610a56578082015181840152602081019050610a3b565b50505050905090810190601f168015610a835780820380516001836020036101000a031916815260200191505b509550505050505060405180910390a360019350610c23565b348160030160008282540192505081905550348160020160003373ffffffffffffffffffffffffffffffffffffffff1673ffffffffffffffffffffffffffffffffffffffff1681526020019081526020016000208190555084816008018260040154815481101515610b0a57fe5b9060005260206000209001816000191690555060018160040160008282540192505081905550853373ffffffffffffffffffffffffffffffffffffffff167f9253951f3eff982bd56920e03d1dd72425977d70fae4ac8e2e0da3c564bfabcb873460016040518084600019166000191681526020018381526020018215151515815260200180602001828103825260088152602001807f616c6c20676f6f6400000000000000000000000000000000000000000000000081525060200194505050505060405180910390a380600701548160040154101515610c1e57600181600a0181905550857f38c728834d3279b1aa694222a5c1079e38e2d78a9543064bd3b50ffbfd030b3460405160405180910390a25b600093505b50505092915050565b600080610c37611350565b6000806000809450600188815481101515610c4e57fe5b90600052602060002090600b02019250600083600a0154141515610ca9576040805190810160405280601281526020017f6465616c206973206e6f742061637469766500000000000000000000000000008152509350600194505b600183600a0154141515610cf4576040805190810160405280601a81526020017f6465616c206973206e6f742066756c6c696e672066756e6465640000000000008152509350600194505b8415610dad57877f354e1ddaa2fab096efb3d49c4d2ce86db3174dba7ba4f2c07e08742466a2c215600086604051808315151515815260200180602001828103825283818151815260200191508051906020019080838360005b83811015610d69578082015181840152602081019050610d4e565b50505050905090810190601f168015610d965780820380516001836020036101000a031916815260200191505b50935050505060405180910390a260019550611016565b86836009019080519060200190610dc5929190611364565b5082600701548360090180549050149150811515610e4157606060405190810160405280602281526020017f6d697373696e6720736f6d652064657374696e6174696f6e206164647265737381526020017f65730000000000000000000000000000000000000000000000000000000000008152509350600194505b8415610efa57877f354e1ddaa2fab096efb3d49c4d2ce86db3174dba7ba4f2c07e08742466a2c215600086604051808315151515815260200180602001828103825283818151815260200191508051906020019080838360005b83811015610eb6578082015181840152602081019050610e9b565b50505050905090810190601f168015610ee35780820380516001836020036101000a031916815260200191505b50935050505060405180910390a260019550611016565b600090505b8260090180549050811015610f9b578260090181815481101515610f1f57fe5b906000526020600020900160009054906101000a900473ffffffffffffffffffffffffffffffffffffffff1673ffffffffffffffffffffffffffffffffffffffff166108fc84600301549081150290604051600060405180830381858888f193505050501515610f8e57600080fd5b8080600101915050610eff565b877f354e1ddaa2fab096efb3d49c4d2ce86db3174dba7ba4f2c07e08742466a2c2156001604051808215151515815260200180602001828103825260088152602001807f616c6c20676f6f640000000000000000000000000000000000000000000000008152506020019250505060405180910390a2600095505b505050505092915050565b60008060018054905090506001805480919060010161104091906113ee565b503360018281548110151561105157fe5b90600052602060002090600b020160000160006101000a81548173ffffffffffffffffffffffffffffffffffffffff021916908373ffffffffffffffffffffffffffffffffffffffff160217905550846001828154811015156110b057fe5b90600052602060002090600b0201600101816000191690555060006001828154811015156110da57fe5b90600052602060002090600b020160030181905550600060018281548110151561110057fe5b90600052602060002090600b0201600401819055504260018281548110151561112557fe5b90600052602060002090600b0201600501819055508360018281548110151561114a57fe5b90600052602060002090600b0201600601819055508260018281548110151561116f57fe5b90600052602060002090600b020160070181905550826040518059106111925750595b90808252806020026020018201604052506001828154811015156111b257fe5b90600052602060002090600b020160080190805190602001906111d6929190611420565b50826040518059106111e55750595b908082528060200260200182016040525060018281548110151561120557fe5b90600052602060002090600b02016009019080519060200190611229929190611364565b50600060018281548110151561123b57fe5b90600052602060002090600b0201600a0181905550803373ffffffffffffffffffffffffffffffffffffffff167f3f8aabc3a12e950c954455d2c33afc5d85a289ad74baae0ed96884daf85ba4104288888860016040518086815260200185600019166000191681526020018481526020018381526020018215151515815260200180602001828103825260088152602001807f616c6c20676f6f64000000000000000000000000000000000000000000000000815250602001965050505050505060405180910390a360009150509392505050565b600061131b611473565b8383915091509250929050565b602060405190810160405280600081525090565b602060405190810160405280600081525090565b602060405190810160405280600081525090565b8280548282559060005260206000209081019282156113dd579160200282015b828111156113dc5782518260006101000a81548173ffffffffffffffffffffffffffffffffffffffff021916908373ffffffffffffffffffffffffffffffffffffffff16021790555091602001919060010190611384565b5b5090506113ea9190611487565b5090565b81548183558181151161141b57600b0281600b02836000526020600020918201910161141a91906114ca565b5b505050565b828054828255906000526020600020908101928215611462579160200282015b82811115611461578251829060001916905591602001919060010190611440565b5b50905061146f9190611568565b5090565b602060405190810160405280600081525090565b6114c791905b808211156114c357600081816101000a81549073ffffffffffffffffffffffffffffffffffffffff02191690555060010161148d565b5090565b90565b61156591905b8082111561156157600080820160006101000a81549073ffffffffffffffffffffffffffffffffffffffff0219169055600182016000905560038201600090556004820160009055600582016000905560068201600090556007820160009055600882016000611540919061158d565b60098201600061155091906115ae565b600a82016000905550600b016114d0565b5090565b90565b61158a91905b8082111561158657600081600090555060010161156e565b5090565b90565b50805460008255906000526020600020908101906115ab9190611568565b50565b50805460008255906000526020600020908101906115cc91906115cf565b50565b6115f191905b808211156115ed5760008160009055506001016115d5565b5090565b905600a165627a7a72305820a2d7a85ab064a07313cf3792081ef522d42c5e02b790ae092c3ed8c9cd4137590029",
  "source": "pragma solidity ^0.4.19;\n\nimport \"./Enigma.sol\";\n\ncontract CoinMixer {\n    Enigma enigma;\n\n    struct Deal {\n        address organizer;\n        bytes32 title;\n        mapping(address => uint) deposit;\n        uint depositSum;\n        uint numDeposits;\n\n        uint startTime;\n        uint depositInWei;\n        uint numParticipants;\n\n        bytes32[] encryptedDestAddresses;\n        address[] destAddresses;\n\n        uint status; // 0: active; 1: funded; 2: executed; 3: cancelled\n    }\n\n    Deal[] public deals;\n\n    event NewDeal(address indexed user, uint indexed _dealId, uint _startTime, bytes32 _title, uint _depositInWei, uint _numParticipants, bool _success, string _err);\n    event Deposit(address indexed _depositor, uint indexed _dealId, bytes32 _encryptedDestAddress, uint _value, bool _success, string _err);\n    event Distribute(uint indexed _dealId, bool _success, string _err);\n\n    event TransferredToken(address indexed to, uint256 value);\n    event FailedTransfer(address indexed to, uint256 value);\n\n    event DealFullyFunded(uint indexed _dealId);\n\n\n    // TODO: switch to require() once it accepts a message parameter\n    enum ReturnValue {Ok, Error}\n\n    function CoinMixer() public {\n        // TODO: consider externalizing in library\n        enigma = Enigma(0x74e3fc764c2474f25369b9d021b7f92e8441a2dc);\n    }\n\n    function newDeal(bytes32 _title, uint _depositInWei, uint _numParticipants)\n    public\n    returns (ReturnValue) {\n        uint dealId = deals.length;\n\n        deals.length++;\n        deals[dealId].organizer = msg.sender;\n        deals[dealId].title = _title;\n        deals[dealId].depositSum = 0;\n        deals[dealId].numDeposits = 0;\n        deals[dealId].startTime = now;\n        deals[dealId].depositInWei = _depositInWei;\n        deals[dealId].numParticipants = _numParticipants;\n        deals[dealId].encryptedDestAddresses = new bytes32[](_numParticipants);\n        deals[dealId].destAddresses = new address[](_numParticipants);\n        deals[dealId].status = 0;\n        NewDeal(msg.sender,\n            dealId,\n            now,\n            _title,\n            _depositInWei,\n            _numParticipants,\n            true,\n            \"all good\");\n        return ReturnValue.Ok;\n    }\n\n    function uintToBytes(uint v) private pure returns (bytes32 ret) {\n        if (v == 0) {\n            ret = '0';\n        }\n        else {\n            while (v > 0) {\n                ret = bytes32(uint(ret) / (2 ** 8));\n                ret |= bytes32(((v % 10) + 48) * 2 ** (8 * 31));\n                v /= 10;\n            }\n        }\n        return ret;\n    }\n\n    function makeDeposit(uint dealId, bytes32 encryptedDestAddress)\n    public\n    payable\n    returns (ReturnValue){\n        bool errorDetected = false;\n        string memory error;\n        // validations\n        if (msg.value == 0) {\n            error = \"deposit value must be positive\";\n            errorDetected = true;\n        }\n        if (deals[dealId].status != 0) {\n            error = \"deal is not active\";\n            errorDetected = true;\n        }\n\n        Deal storage deal = deals[dealId];\n        if ((msg.value % deal.depositInWei) > 0) {\n            error = \"deposit value must be a multiple of claim value\";\n            errorDetected = true;\n        }\n        if (deal.deposit[msg.sender] > 0) {\n            error = \"cannot deposit twice with the same address\";\n            errorDetected = true;\n        }\n        if (deal.status == 1) {\n            error = \"deal is already fulling funded\";\n            errorDetected = true;\n        }\n        if (errorDetected) {\n            Deposit(msg.sender, dealId, encryptedDestAddress, msg.value, false, error);\n            // send money back\n            return ReturnValue.Error;\n        }\n\n        // actual deposit\n        deal.depositSum += msg.value;\n        deal.deposit[msg.sender] = msg.value;\n        deal.encryptedDestAddresses[deal.numDeposits] = encryptedDestAddress;\n        deal.numDeposits += 1;\n\n        Deposit(msg.sender, dealId, encryptedDestAddress, msg.value, true, \"all good\");\n\n        if (deal.numDeposits >= deal.numParticipants) {\n            deal.status = 1;\n            DealFullyFunded(dealId);\n\n            // TODO: consider encapsulating param encoding in library\n            // For now, I'm adding adding the dealId as the first argument.\n            // The logic looks like this: f(bytes32 dealId, bytes32 encryptedDestAddresses1, bytes32 encryptedDestAddresses1, ...)\n            // This works fine until we have to support more than one dynamic array.\n            //            bytes32[] memory args = new bytes32[](deal.numDeposits + 1);\n            //            args[0] = uintToBytes(dealId);\n            //            for (uint i = 0; i < deal.encryptedDestAddresses.length; i++) {\n            //                args[i + 1] = deal.encryptedDestAddresses[i];\n            //            }\n            // Pre-processing\n            // 1. Decrypt arguments\n            // 2. Apply service parameters\n            // TODO: pass randomization parameters\n            //            enigma.compute.value(msg.value)(msg.sender, this, \"mixAddresses\", args, \"distribute\");\n        }\n        return ReturnValue.Ok;\n    }\n\n    function mixAddresses(uint dealId, address[] destAddresses)\n    public\n    pure\n    returns (uint, address[]) {\n        // TODO: put mixing logic here\n        //        random()\n        return (dealId, destAddresses);\n    }\n\n    function distribute(uint dealId, address[] destAddresses)\n    public\n    returns (ReturnValue){\n        bool errorDetected = false;\n        string memory error;\n\n        Deal storage deal = deals[dealId];\n        if (deal.status != 0) {\n            error = \"deal is not active\";\n            errorDetected = true;\n        }\n        if (deal.status != 1) {\n            error = \"deal is not fulling funded\";\n            errorDetected = true;\n        }\n        if (errorDetected) {\n            Distribute(dealId, false, error);\n            return ReturnValue.Error;\n        }\n        deal.destAddresses = destAddresses;\n\n        bool enoughAddresses = deal.destAddresses.length == deal.numParticipants;\n        if (!enoughAddresses) {\n            error = \"missing some destination addresses\";\n            errorDetected = true;\n        }\n        if (errorDetected) {\n            Distribute(dealId, false, error);\n            return ReturnValue.Error;\n        }\n\n        for (uint i = 0; i < deal.destAddresses.length; i++) {\n            deal.destAddresses[i].transfer(deal.depositSum);\n        }\n\n        Distribute(dealId, true, \"all good\");\n        return ReturnValue.Ok;\n    }\n\n    function listDeals() public view returns (bytes32[], uint[], uint[], uint[]) {\n        // A list of deals with their key properties\n        bytes32[] memory titles = new bytes32[](deals.length);\n        uint[] memory status = new uint[](deals.length);\n        uint[] memory participates = new uint[](deals.length);\n        uint[] memory organizes = new uint[](deals.length);\n\n        for (uint i = 0; i < deals.length; i++) {\n            titles[i] = deals[i].title;\n            status[i] = deals[i].status;\n\n            if (deals[i].deposit[msg.sender] > 0) {\n                participates[i] = 1;\n            }\n\n            if (deals[i].organizer == msg.sender) {\n                organizes[i] = 1;\n            }\n        }\n        return (titles, status, participates, organizes);\n    }\n\n}\n\n",
  "sourcePath": "/Users/fredfortier/Code/enigma/coin-mixer-poc/dapp/contracts/CoinMixer.sol",
  "compiler": {
    "name": "solc",
    "version": "0.4.19+commit.c4cbbb05.Emscripten.clang"
  },
  "schemaVersion": "2.0.0",
  "updatedAt": "2018-04-17T03:24:27.443Z"
}