{
  "contractName": "CoinMixer",
  "abi": [
    {
      "inputs": [],
      "payable": false,
      "stateMutability": "nonpayable",
      "type": "constructor"
    },
    {
      "anonymous": false,
      "inputs": [
        {
          "indexed": true,
          "name": "user",
          "type": "address"
        },
        {
          "indexed": true,
          "name": "_dealId",
          "type": "uint256"
        },
        {
          "indexed": false,
          "name": "_startTime",
          "type": "uint256"
        },
        {
          "indexed": false,
          "name": "_title",
          "type": "bytes32"
        },
        {
          "indexed": false,
          "name": "_depositInWei",
          "type": "uint256"
        },
        {
          "indexed": false,
          "name": "_numParticipants",
          "type": "uint256"
        },
        {
          "indexed": false,
          "name": "_success",
          "type": "bool"
        },
        {
          "indexed": false,
          "name": "_err",
          "type": "string"
        }
      ],
      "name": "NewDeal",
      "type": "event"
    },
    {
      "anonymous": false,
      "inputs": [
        {
          "indexed": true,
          "name": "_depositor",
          "type": "address"
        },
        {
          "indexed": true,
          "name": "_dealId",
          "type": "uint256"
        },
        {
          "indexed": false,
          "name": "_encryptedDestAddress",
          "type": "bytes32"
        },
        {
          "indexed": false,
          "name": "_value",
          "type": "uint256"
        },
        {
          "indexed": false,
          "name": "_success",
          "type": "bool"
        },
        {
          "indexed": false,
          "name": "_err",
          "type": "string"
        }
      ],
      "name": "Deposit",
      "type": "event"
    },
    {
      "anonymous": false,
      "inputs": [
        {
          "indexed": true,
          "name": "_destAddresses",
          "type": "address[]"
        },
        {
          "indexed": true,
          "name": "_dealId",
          "type": "uint256"
        },
        {
          "indexed": false,
          "name": "_success",
          "type": "bool"
        },
        {
          "indexed": false,
          "name": "_err",
          "type": "string"
        }
      ],
      "name": "Distribute",
      "type": "event"
    },
    {
      "anonymous": false,
      "inputs": [
        {
          "indexed": true,
          "name": "to",
          "type": "address"
        },
        {
          "indexed": false,
          "name": "value",
          "type": "uint256"
        }
      ],
      "name": "TransferredToken",
      "type": "event"
    },
    {
      "anonymous": false,
      "inputs": [
        {
          "indexed": true,
          "name": "to",
          "type": "address"
        },
        {
          "indexed": false,
          "name": "value",
          "type": "uint256"
        }
      ],
      "name": "FailedTransfer",
      "type": "event"
    },
    {
      "anonymous": false,
      "inputs": [
        {
          "indexed": true,
          "name": "_dealId",
          "type": "uint256"
        }
      ],
      "name": "DealFullyFunded",
      "type": "event"
    },
    {
      "constant": false,
      "inputs": [
        {
          "name": "_title",
          "type": "bytes32"
        },
        {
          "name": "_depositInWei",
          "type": "uint256"
        },
        {
          "name": "_numParticipants",
          "type": "uint256"
        }
      ],
      "name": "newDeal",
      "outputs": [
        {
          "name": "",
          "type": "uint8"
        }
      ],
      "payable": false,
      "stateMutability": "nonpayable",
      "type": "function"
    },
    {
      "constant": false,
      "inputs": [
        {
          "name": "dealId",
          "type": "uint256"
        },
        {
          "name": "encryptedDestAddress",
          "type": "bytes32"
        }
      ],
      "name": "makeDeposit",
      "outputs": [
        {
          "name": "",
          "type": "uint8"
        }
      ],
      "payable": true,
      "stateMutability": "payable",
      "type": "function"
    },
    {
      "constant": false,
      "inputs": [
        {
          "name": "dealId",
          "type": "uint256"
        },
        {
          "name": "destAddresses",
          "type": "address[]"
        }
      ],
      "name": "mixAddresses",
      "outputs": [
        {
          "name": "",
          "type": "uint256"
        },
        {
          "name": "",
          "type": "address[]"
        }
      ],
      "payable": false,
      "stateMutability": "nonpayable",
      "type": "function"
    },
    {
      "constant": false,
      "inputs": [
        {
          "name": "dealId",
          "type": "uint256"
        },
        {
          "name": "destAddresses",
          "type": "address[]"
        }
      ],
      "name": "setDestAddresses",
      "outputs": [
        {
          "name": "",
          "type": "uint8"
        }
      ],
      "payable": false,
      "stateMutability": "nonpayable",
      "type": "function"
    },
    {
      "constant": true,
      "inputs": [],
      "name": "listDealTitles",
      "outputs": [
        {
          "name": "",
          "type": "bytes32[]"
        }
      ],
      "payable": false,
      "stateMutability": "view",
      "type": "function"
    },
    {
      "constant": true,
      "inputs": [
        {
          "name": "_dealId",
          "type": "uint256"
        }
      ],
      "name": "dealStatus",
      "outputs": [
        {
          "name": "",
          "type": "uint256[5]"
        }
      ],
      "payable": false,
      "stateMutability": "view",
      "type": "function"
    }
  ],
  "bytecode": "0x6060604052341561000f57600080fd5b6111268061001e6000396000f300606060405260043610610078576000357c0100000000000000000000000000000000000000000000000000000000900463ffffffff1680632ea799681461007d578063306387a4146100c45780636f70daf8146101235780638e228bc01461018d578063a06a585614610212578063cf3cf6561461026d575b600080fd5b6100a060048080359060200190919080356000191690602001909190505061032c565b604051808260018111156100b057fe5b60ff16815260200191505060405180910390f35b34156100cf57600080fd5b6100e56004808035906020019091905050610863565b6040518082600560200280838360005b838110156101105780820151818401526020810190506100f5565b5050505090500191505060405180910390f35b341561012e57600080fd5b610136610976565b6040518080602001828103825283818151815260200191508051906020019060200280838360005b8381101561017957808201518184015260208101905061015e565b505050509050019250505060405180910390f35b341561019857600080fd5b6101ee6004808035906020019091908035906020019082018035906020019080806020026020016040519081016040528093929190818152602001838360200280828437820191505050505050919050506109f5565b604051808260018111156101fe57fe5b60ff16815260200191505060405180910390f35b341561021d57600080fd5b610249600480803560001916906020019091908035906020019091908035906020019091905050610b04565b6040518082600181111561025957fe5b60ff16815260200191505060405180910390f35b341561027857600080fd5b6102ce600480803590602001909190803590602001908201803590602001908080602002602001604051908101604052809392919081815260200183836020028082843782019150505050505091905050610dde565b6040518083815260200180602001828103825283818151815260200191508051906020019060200280838360005b838110156103175780820151818401526020810190506102fc565b50505050905001935050505060405180910390f35b600080610337610df5565b60008092506000341415610382576040805190810160405280601e81526020017f6465706f7369742076616c7565206d75737420626520706f73697469766500008152509150600192505b60008681548110151561039157fe5b90600052602060002090600a020160090160009054906101000a900460ff1615156103f3576040805190810160405280601281526020017f6465616c206973206e6f742061637469766500000000000000000000000000008152509150600192505b60008681548110151561040257fe5b90600052602060002090600a02019050600081600501543481151561042357fe5b06111561048e57606060405190810160405280602f81526020017f6465706f7369742076616c7565206d7573742062652061206d756c7469706c6581526020017f206f6620636c61696d2076616c756500000000000000000000000000000000008152509150600192505b60008160010160003373ffffffffffffffffffffffffffffffffffffffff1673ffffffffffffffffffffffffffffffffffffffff16815260200190815260200160002054111561053c57606060405190810160405280602a81526020017f63616e6e6f74206465706f73697420747769636520776974682074686520736181526020017f6d652061646472657373000000000000000000000000000000000000000000008152509150600192505b8060090160019054906101000a900460ff1615610590576040805190810160405280601e81526020017f6465616c20697320616c72656164792066756c6c696e672066756e64656400008152509150600192505b82156106b857853373ffffffffffffffffffffffffffffffffffffffff167f9253951f3eff982bd56920e03d1dd72425977d70fae4ac8e2e0da3c564bfabcb87346000876040518085600019166000191681526020018481526020018315151515815260200180602001828103825283818151815260200191508051906020019080838360005b83811015610632578082015181840152602081019050610617565b50505050905090810190601f16801561065f5780820380516001836020036101000a031916815260200191505b509550505050505060405180910390a33373ffffffffffffffffffffffffffffffffffffffff166108fc349081150290604051600060405180830381858888f1935050505015156106af57600080fd5b6001935061085a565b348160020160008282540192505081905550348160010160003373ffffffffffffffffffffffffffffffffffffffff1673ffffffffffffffffffffffffffffffffffffffff16815260200190815260200160002081905550600181600301600082825401925050819055508060070180548060010182816107399190610e09565b916000526020600020900160008790919091509060001916905550806006015481600301541015156107b05760018160090160016101000a81548160ff021916908315150217905550857f38c728834d3279b1aa694222a5c1079e38e2d78a9543064bd3b50ffbfd030b3460405160405180910390a25b853373ffffffffffffffffffffffffffffffffffffffff167f9253951f3eff982bd56920e03d1dd72425977d70fae4ac8e2e0da3c564bfabcb873460016040518084600019166000191681526020018381526020018215151515815260200180602001828103825260088152602001807f616c6c20676f6f6400000000000000000000000000000000000000000000000081525060200194505050505060405180910390a3600093505b50505092915050565b61086b610e35565b6000806000806000808781548110151561088157fe5b90600052602060002090600a020160090160009054906101000a900460ff166108ab5760006108ae565b60015b60ff1694506000878154811015156108c257fe5b90600052602060002090600a02016006015493506000878154811015156108e557fe5b90600052602060002090600a020160030154925060008781548110151561090857fe5b90600052602060002090600a020160020154915060008781548110151561092b57fe5b90600052602060002090600a020160080180549050905060a0604051908101604052808681526020018581526020018481526020018381526020018281525095505050505050919050565b61097e610e5d565b610986610e5d565b60008090505b6000805490508110156109ed576000818154811015156109a857fe5b90600052602060002090600a02016000015482828151811015156109c857fe5b906020019060200201906000191690816000191681525050808060010191505061098c565b819250505090565b600080610a00610df5565b6000809250600086815481101515610a1457fe5b90600052602060002090600a020190508060090160009054906101000a900460ff161515610a79576040805190810160405280601281526020017f6465616c206973206e6f742061637469766500000000000000000000000000008152509150600192505b8060090160019054906101000a900460ff161515610ace576040805190810160405280601a81526020017f6465616c206973206e6f742066756c6c696e672066756e6465640000000000008152509150600192505b8215610add5760019350610afb565b84816008019080519060200190610af5929190610e71565b50600093505b50505092915050565b600080600080549050905060008054809190600101610b239190610efb565b5084600082815481101515610b3457fe5b90600052602060002090600a0201600001816000191690555060008082815481101515610b5d57fe5b90600052602060002090600a02016002018190555060008082815481101515610b8257fe5b90600052602060002090600a02016003018190555042600082815481101515610ba757fe5b90600052602060002090600a02016004018190555083600082815481101515610bcc57fe5b90600052602060002090600a02016005018190555082600082815481101515610bf157fe5b90600052602060002090600a02016006018190555082604051805910610c145750595b9080825280602002602001820160405250600082815481101515610c3457fe5b90600052602060002090600a02016007019080519060200190610c58929190610f2d565b5082604051805910610c675750595b9080825280602002602001820160405250600082815481101515610c8757fe5b90600052602060002090600a02016008019080519060200190610cab929190610e71565b5060008082815481101515610cbc57fe5b90600052602060002090600a020160090160016101000a81548160ff0219169083151502179055506001600082815481101515610cf557fe5b90600052602060002090600a020160090160006101000a81548160ff021916908315150217905550803373ffffffffffffffffffffffffffffffffffffffff167f3f8aabc3a12e950c954455d2c33afc5d85a289ad74baae0ed96884daf85ba4104288888860016040518086815260200185600019166000191681526020018481526020018381526020018215151515815260200180602001828103825260088152602001807f616c6c20676f6f64000000000000000000000000000000000000000000000000815250602001965050505050505060405180910390a360009150509392505050565b6000610de8610f80565b8383915091509250929050565b602060405190810160405280600081525090565b815481835581811511610e3057818360005260206000209182019101610e2f9190610f94565b5b505050565b60a0604051908101604052806005905b6000815260200190600190039081610e455790505090565b602060405190810160405280600081525090565b828054828255906000526020600020908101928215610eea579160200282015b82811115610ee95782518260006101000a81548173ffffffffffffffffffffffffffffffffffffffff021916908373ffffffffffffffffffffffffffffffffffffffff16021790555091602001919060010190610e91565b5b509050610ef79190610fb9565b5090565b815481835581811511610f2857600a0281600a028360005260206000209182019101610f279190610ffc565b5b505050565b828054828255906000526020600020908101928215610f6f579160200282015b82811115610f6e578251829060001916905591602001919060010190610f4d565b5b509050610f7c9190610f94565b5090565b602060405190810160405280600081525090565b610fb691905b80821115610fb2576000816000905550600101610f9a565b5090565b90565b610ff991905b80821115610ff557600081816101000a81549073ffffffffffffffffffffffffffffffffffffffff021916905550600101610fbf565b5090565b90565b61109091905b8082111561108c576000808201600090556002820160009055600382016000905560048201600090556005820160009055600682016000905560078201600061104b9190611093565b60088201600061105b91906110b4565b6009820160006101000a81549060ff02191690556009820160016101000a81549060ff021916905550600a01611002565b5090565b90565b50805460008255906000526020600020908101906110b19190610f94565b50565b50805460008255906000526020600020908101906110d291906110d5565b50565b6110f791905b808211156110f35760008160009055506001016110db565b5090565b905600a165627a7a72305820c84de0f50df0971e40de69150ecdb52b5962191dfaacb6a0f314ee4e30f652ac0029",
  "source": "pragma solidity ^0.4.19;\n\n\ncontract CoinMixer {\n    struct Deal {\n        bytes32 title;\n        mapping(address => uint) deposit;\n        uint depositSum;\n        uint numDeposits;\n\n        uint startTime;\n        uint depositInWei;\n        uint numParticipants;\n\n        bytes32[] encryptedDestAddresses;\n        address[] destAddresses;\n\n        bool active;\n        bool fullyFunded;\n    }\n\n    struct DealSummary {\n        bytes32 title;\n    }\n\n    Deal[]  _deals;\n\n    event NewDeal(address indexed user, uint indexed _dealId, uint _startTime, bytes32 _title, uint _depositInWei, uint _numParticipants, bool _success, string _err);\n    event Deposit(address indexed _depositor, uint indexed _dealId, bytes32 _encryptedDestAddress, uint _value, bool _success, string _err);\n    event Distribute(address[] indexed _destAddresses, uint indexed _dealId, bool _success, string _err);\n\n    event TransferredToken(address indexed to, uint256 value);\n    event FailedTransfer(address indexed to, uint256 value);\n\n    event DealFullyFunded(uint indexed _dealId);\n\n    //    struct RunnerArgs {\n    //        uint dealId;\n    //        string[] encryptedDestAddresses;\n    //    }\n    //\n    //    event EngimaRun(string _runner, string _args, string _setter);\n\n    enum ReturnValue {Ok, Error}\n\n    function CoinMixer(){\n    }\n\n    function newDeal(bytes32 _title, uint _depositInWei, uint _numParticipants) public returns (ReturnValue) {\n        uint dealId = _deals.length;\n\n        _deals.length++;\n        _deals[dealId].title = _title;\n        _deals[dealId].depositSum = 0;\n        _deals[dealId].numDeposits = 0;\n        _deals[dealId].startTime = now;\n        _deals[dealId].depositInWei = _depositInWei;\n        _deals[dealId].numParticipants = _numParticipants;\n        _deals[dealId].encryptedDestAddresses = new bytes32[](_numParticipants);\n        _deals[dealId].destAddresses = new address[](_numParticipants);\n        _deals[dealId].fullyFunded = false;\n        _deals[dealId].active = true;\n        NewDeal(msg.sender,\n            dealId,\n            now,\n            _title,\n            _depositInWei,\n            _numParticipants,\n            true,\n            \"all good\");\n        return ReturnValue.Ok;\n    }\n\n\n    function makeDeposit(uint dealId, bytes32 encryptedDestAddress) payable returns (ReturnValue){\n        bool errorDetected = false;\n        string memory error;\n        // validations\n        if (msg.value == 0) {\n            error = \"deposit value must be positive\";\n            errorDetected = true;\n        }\n        if (!_deals[dealId].active) {\n            error = \"deal is not active\";\n            errorDetected = true;\n        }\n        Deal deal = _deals[dealId];\n        if ((msg.value % deal.depositInWei) > 0) {\n            error = \"deposit value must be a multiple of claim value\";\n            errorDetected = true;\n        }\n        if (deal.deposit[msg.sender] > 0) {\n            error = \"cannot deposit twice with the same address\";\n            errorDetected = true;\n        }\n        if (deal.fullyFunded) {\n            error = \"deal is already fulling funded\";\n            errorDetected = true;\n        }\n\n        if (errorDetected) {\n            Deposit(msg.sender, dealId, encryptedDestAddress, msg.value, false, error);\n            if (!msg.sender.send(msg.value)) throw;\n            // send money back\n            return ReturnValue.Error;\n        }\n\n        // actual deposit\n        deal.depositSum += msg.value;\n        deal.deposit[msg.sender] = msg.value;\n        deal.numDeposits += 1;\n        deal.encryptedDestAddresses.push(encryptedDestAddress);\n\n        if (deal.numDeposits >= deal.numParticipants) {\n            deal.fullyFunded = true;\n            DealFullyFunded(dealId);\n\n            //            RunnerArgs memory args = RunnerArgs(dealId, deal.encryptedDestAddresses);\n            //            string args = '{\"dealId\":\"\", }';\n            //            EngimaRun(\"mixAddresses\", args, \"setDestAddresses\");\n        }\n\n        Deposit(msg.sender, dealId, encryptedDestAddress, msg.value, true, \"all good\");\n        return ReturnValue.Ok;\n    }\n\n    function mixAddresses(uint dealId, address[] destAddresses) public returns (uint, address[]) {\n        // TODO: put mixing logic here\n        return (dealId, destAddresses);\n    }\n\n    function setDestAddresses(uint dealId, address[] destAddresses) public returns (ReturnValue){\n        bool errorDetected = false;\n        string memory error;\n\n        Deal deal = _deals[dealId];\n        if (!deal.active) {\n            error = \"deal is not active\";\n            errorDetected = true;\n        }\n        if (!deal.fullyFunded) {\n            error = \"deal is not fulling funded\";\n            errorDetected = true;\n        }\n\n        if (errorDetected) {\n            return ReturnValue.Error;\n        }\n        deal.destAddresses = destAddresses;\n        return ReturnValue.Ok;\n    }\n\n\n    function distribute(uint dealId) private returns (ReturnValue){\n        // validation\n        bool errorDetected = false;\n        string memory error;\n        Deal deal = _deals[dealId];\n        bool enoughAddresses = deal.destAddresses.length >= deal.numParticipants;\n        if (!enoughAddresses) {\n            error = \"missing some destination addresses\";\n            errorDetected = true;\n        }\n\n        if (errorDetected) {\n            Distribute(deal.destAddresses, dealId, false, error);\n            return ReturnValue.Error;\n        }\n\n\n        uint256 i = 0;\n        while (i < deal.destAddresses.length) {\n            deal.destAddresses[i].transfer(deal.depositSum);\n            i++;\n        }\n\n        Distribute(deal.destAddresses, dealId, true, \"all good\");\n        return ReturnValue.Ok;\n    }\n\n    function listDealTitles() public view returns (bytes32[]) {\n        bytes32[] memory titles;\n        uint256 dealId = 0;\n        while (dealId < _deals.length) {\n            titles[dealId] = _deals[dealId].title;\n            dealId++;\n        }\n        return titles;\n    }\n\n    ////////////////////////////////////////////////////////////////////////////////////////\n\n    function dealStatus(uint _dealId) view returns (uint[5]){\n        uint active = _deals[_dealId].active ? 1 : 0;\n        uint numParticipants = _deals[_dealId].numParticipants;\n        uint numDeposits = _deals[_dealId].numDeposits;\n        uint depositSum = _deals[_dealId].depositSum;\n        uint numDestAddresses = _deals[_dealId].destAddresses.length;\n\n\n        return [active, numParticipants, numDeposits, depositSum, numDestAddresses];\n    }\n\n}\n\n",
  "sourcePath": "/Users/fredfortier/Code/enigma/coin-mixer-poc/dapp/contracts/CoinMixer.sol",
  "compiler": {
    "name": "solc",
    "version": "0.4.20+commit.3155dd80.Emscripten.clang"
  },
  "schemaVersion": "1.0.1",
  "updatedAt": "2018-02-24T04:50:30.763Z"
}