{
  "contractName": "CoinMixer",
  "abi": [
    {
      "constant": true,
      "inputs": [
        {
          "name": "",
          "type": "uint256"
        }
      ],
      "name": "deals",
      "outputs": [
        {
          "name": "organizer",
          "type": "address"
        },
        {
          "name": "startTime",
          "type": "uint48"
        },
        {
          "name": "status",
          "type": "uint8"
        },
        {
          "name": "depositSum",
          "type": "uint256"
        },
        {
          "name": "numDeposits",
          "type": "uint256"
        },
        {
          "name": "depositInWei",
          "type": "uint256"
        },
        {
          "name": "numParticipants",
          "type": "uint256"
        },
        {
          "name": "title",
          "type": "bytes32"
        }
      ],
      "payable": false,
      "stateMutability": "view",
      "type": "function"
    },
    {
      "constant": true,
      "inputs": [],
      "name": "enigma",
      "outputs": [
        {
          "name": "",
          "type": "address"
        }
      ],
      "payable": false,
      "stateMutability": "view",
      "type": "function"
    },
    {
      "inputs": [
        {
          "name": "_enigmaAddress",
          "type": "address"
        }
      ],
      "payable": false,
      "stateMutability": "nonpayable",
      "type": "constructor"
    },
    {
      "anonymous": false,
      "inputs": [
        {
          "indexed": true,
          "name": "user",
          "type": "address"
        },
        {
          "indexed": true,
          "name": "_dealId",
          "type": "uint32"
        },
        {
          "indexed": false,
          "name": "_startTime",
          "type": "uint48"
        },
        {
          "indexed": false,
          "name": "_title",
          "type": "bytes32"
        },
        {
          "indexed": false,
          "name": "_depositInWei",
          "type": "uint256"
        },
        {
          "indexed": false,
          "name": "_numParticipants",
          "type": "uint256"
        },
        {
          "indexed": false,
          "name": "_success",
          "type": "bool"
        },
        {
          "indexed": false,
          "name": "_err",
          "type": "string"
        }
      ],
      "name": "NewDeal",
      "type": "event"
    },
    {
      "anonymous": false,
      "inputs": [
        {
          "indexed": true,
          "name": "_depositor",
          "type": "address"
        },
        {
          "indexed": true,
          "name": "_dealId",
          "type": "uint32"
        },
        {
          "indexed": false,
          "name": "_encryptedDestAddress",
          "type": "bytes"
        },
        {
          "indexed": false,
          "name": "_value",
          "type": "uint256"
        },
        {
          "indexed": false,
          "name": "_success",
          "type": "bool"
        },
        {
          "indexed": false,
          "name": "_err",
          "type": "string"
        }
      ],
      "name": "Deposit",
      "type": "event"
    },
    {
      "anonymous": false,
      "inputs": [
        {
          "indexed": true,
          "name": "_dealId",
          "type": "uint32"
        },
        {
          "indexed": false,
          "name": "individualAmountInWei",
          "type": "uint256"
        },
        {
          "indexed": false,
          "name": "destAddresses",
          "type": "address[]"
        },
        {
          "indexed": false,
          "name": "nbTransfers",
          "type": "uint32"
        },
        {
          "indexed": false,
          "name": "_success",
          "type": "bool"
        },
        {
          "indexed": false,
          "name": "_err",
          "type": "string"
        }
      ],
      "name": "Distribute",
      "type": "event"
    },
    {
      "anonymous": false,
      "inputs": [
        {
          "indexed": true,
          "name": "to",
          "type": "address"
        },
        {
          "indexed": false,
          "name": "value",
          "type": "uint256"
        }
      ],
      "name": "TransferredToken",
      "type": "event"
    },
    {
      "anonymous": false,
      "inputs": [
        {
          "indexed": true,
          "name": "to",
          "type": "address"
        },
        {
          "indexed": false,
          "name": "value",
          "type": "uint256"
        }
      ],
      "name": "FailedTransfer",
      "type": "event"
    },
    {
      "anonymous": false,
      "inputs": [
        {
          "indexed": true,
          "name": "_dealId",
          "type": "uint32"
        }
      ],
      "name": "DealFullyFunded",
      "type": "event"
    },
    {
      "anonymous": false,
      "inputs": [
        {
          "indexed": true,
          "name": "_dealId",
          "type": "uint32"
        },
        {
          "indexed": false,
          "name": "_success",
          "type": "bool"
        }
      ],
      "name": "DealExecuted",
      "type": "event"
    },
    {
      "constant": false,
      "inputs": [
        {
          "name": "_title",
          "type": "bytes32"
        },
        {
          "name": "_depositInWei",
          "type": "uint256"
        },
        {
          "name": "_numParticipants",
          "type": "uint256"
        }
      ],
      "name": "newDeal",
      "outputs": [
        {
          "name": "",
          "type": "uint8"
        }
      ],
      "payable": false,
      "stateMutability": "nonpayable",
      "type": "function"
    },
    {
      "constant": false,
      "inputs": [
        {
          "name": "dealId",
          "type": "uint32"
        },
        {
          "name": "encryptedDestAddress",
          "type": "bytes"
        }
      ],
      "name": "makeDeposit",
      "outputs": [
        {
          "name": "",
          "type": "uint8"
        }
      ],
      "payable": true,
      "stateMutability": "payable",
      "type": "function"
    },
    {
      "constant": true,
      "inputs": [
        {
          "name": "dealId",
          "type": "uint32"
        },
        {
          "name": "destAddresses",
          "type": "address[]"
        },
        {
          "name": "rand",
          "type": "uint256"
        }
      ],
      "name": "mixAddresses",
      "outputs": [
        {
          "name": "",
          "type": "uint32"
        },
        {
          "name": "",
          "type": "address[]"
        }
      ],
      "payable": false,
      "stateMutability": "pure",
      "type": "function"
    },
    {
      "constant": false,
      "inputs": [
        {
          "name": "dealId",
          "type": "uint32"
        },
        {
          "name": "destAddresses",
          "type": "address[]"
        }
      ],
      "name": "distribute",
      "outputs": [
        {
          "name": "",
          "type": "uint8"
        }
      ],
      "payable": false,
      "stateMutability": "nonpayable",
      "type": "function"
    },
    {
      "constant": true,
      "inputs": [],
      "name": "listDeals",
      "outputs": [
        {
          "name": "",
          "type": "uint256[]"
        },
        {
          "name": "",
          "type": "uint256[]"
        },
        {
          "name": "",
          "type": "uint256[]"
        }
      ],
      "payable": false,
      "stateMutability": "view",
      "type": "function"
    },
    {
      "constant": true,
      "inputs": [
        {
          "name": "_dealId",
          "type": "uint32"
        }
      ],
      "name": "dealStatus",
      "outputs": [
        {
          "name": "",
          "type": "bytes32"
        },
        {
          "name": "",
          "type": "uint256"
        },
        {
          "name": "",
          "type": "uint256"
        },
        {
          "name": "",
          "type": "uint256"
        },
        {
          "name": "",
          "type": "uint256"
        },
        {
          "name": "",
          "type": "uint256"
        }
      ],
      "payable": false,
      "stateMutability": "view",
      "type": "function"
    },
    {
      "constant": true,
      "inputs": [
        {
          "name": "_dealId",
          "type": "uint32"
        }
      ],
      "name": "countEncryptedAddresses",
      "outputs": [
        {
          "name": "",
          "type": "uint256"
        }
      ],
      "payable": false,
      "stateMutability": "view",
      "type": "function"
    },
    {
      "constant": true,
      "inputs": [
        {
          "name": "_dealId",
          "type": "uint32"
        },
        {
          "name": "index",
          "type": "uint256"
        }
      ],
      "name": "getEncryptedAddress",
      "outputs": [
        {
          "name": "",
          "type": "bytes"
        }
      ],
      "payable": false,
      "stateMutability": "view",
      "type": "function"
    }
  ],
  "bytecode": "0x608060405234801561001057600080fd5b50604051602080611a2a8339810180604052602081101561003057600080fd5b505160008054600160a060020a03909216600160a060020a03199092169190911790556119c8806100626000396000f3fe6080604052600436106100a35763ffffffff7c010000000000000000000000000000000000000000000000000000000060003504166303988f8481146100a857806310f11e84146101265780632aaf281b146102195780633b833245146102f057806357f5fc2814610332578063a06a5856146103dd578063b24fd5c514610413578063d10e1e6914610444578063daefe73814610501578063dd20866e14610564575b600080fd5b3480156100b457600080fd5b506100d2600480360360208110156100cb57600080fd5b503561068a565b60408051600160a060020a03909916895265ffffffffffff909716602089015260ff909516878701526060870193909352608086019190915260a085015260c084015260e083015251908190036101000190f35b34801561013257600080fd5b5061013b610701565b60405180806020018060200180602001848103845287818151815260200191508051906020019060200280838360005b8381101561018357818101518382015260200161016b565b50505050905001848103835286818151815260200191508051906020019060200280838360005b838110156101c25781810151838201526020016101aa565b50505050905001848103825285818151815260200191508051906020019060200280838360005b838110156102015781810151838201526020016101e9565b50505050905001965050505050505060405180910390f35b6102cc6004803603604081101561022f57600080fd5b63ffffffff823516919081019060408101602082013564010000000081111561025757600080fd5b82018360208201111561026957600080fd5b8035906020019184600183028401116401000000008311171561028b57600080fd5b91908080601f0160208091040260200160405190810160405280939291908181526020018383808284376000920191909152509295506108aa945050505050565b604051808260018111156102dc57fe5b60ff16815260200191505060405180910390f35b3480156102fc57600080fd5b506103206004803603602081101561031357600080fd5b503563ffffffff16610c86565b60408051918252519081900360200190f35b34801561033e57600080fd5b506103686004803603604081101561035557600080fd5b5063ffffffff8135169060200135610cb7565b6040805160208082528351818301528351919283929083019185019080838360005b838110156103a257818101518382015260200161038a565b50505050905090810190601f1680156103cf5780820380516001836020036101000a031916815260200191505b509250505060405180910390f35b3480156103e957600080fd5b506102cc6004803603606081101561040057600080fd5b5080359060208101359060400135610d87565b34801561041f57600080fd5b506104286110d8565b60408051600160a060020a039092168252519081900360200190f35b34801561045057600080fd5b506102cc6004803603604081101561046757600080fd5b63ffffffff823516919081019060408101602082013564010000000081111561048f57600080fd5b8201836020820111156104a157600080fd5b803590602001918460208302840111640100000000831117156104c357600080fd5b9190808060200260200160405190810160405280939291908181526020018383602002808284376000920191909152509295506110e7945050505050565b34801561050d57600080fd5b506105316004803603602081101561052457600080fd5b503563ffffffff1661146a565b604080519687526020870195909552858501939093526060850191909152608084015260a0830152519081900360c00190f35b34801561057057600080fd5b506106236004803603606081101561058757600080fd5b63ffffffff82351691908101906040810160208201356401000000008111156105af57600080fd5b8201836020820111156105c157600080fd5b803590602001918460208302840111640100000000831117156105e357600080fd5b919080806020026020016040519081016040528093929190818152602001838360200280828437600092019190915250929550509135925061158b915050565b604051808363ffffffff1663ffffffff16815260200180602001828103825283818151815260200191508051906020019060200280838360005b8381101561067557818101518382015260200161065d565b50505050905001935050505060405180910390f35b600180548290811061069857fe5b6000918252602090912060099091020180546001820154600283015460038401546004850154600590950154600160a060020a038516965074010000000000000000000000000000000000000000850465ffffffffffff169560d060020a90950460ff16949088565b606080606080600180549050604051908082528060200260200182016040528015610736578160200160208202803883390190505b509050606060018054905060405190808252806020026020018201604052801561076a578160200160208202803883390190505b509050606060018054905060405190808252806020026020018201604052801561079e578160200160208202803883390190505b50905060005b60015481101561089d5760018054829081106107bc57fe5b9060005260206000209060090201600001601a9054906101000a900460ff1660ff1684828151811015156107ec57fe5b6020908102909101015260018054600091908390811061080857fe5b60009182526020808320338452600860099093020191909101905260409020541115610849576001838281518110151561083e57fe5b602090810290910101525b600180543391908390811061085a57fe5b6000918252602090912060099091020154600160a060020a03161415610895576001828281518110151561088a57fe5b602090810290910101525b6001016107a4565b5091945092509050909192565b6000348110610903576040805160e560020a62461bcd02815260206004820152601f60248201527f4465706f7369742076616c7565206d75737420626520706f7369746976652e00604482015290519081900360640190fd5b6001805463ffffffff851690811061091757fe5b600091825260209091206009909102015460d060020a900460ff1615610987576040805160e560020a62461bcd02815260206004820152601b60248201527f496c6c6567616c20737461746520666f72206465706f736974732e0000000000604482015290519081900360640190fd5b600060018463ffffffff1681548110151561099e57fe5b906000526020600020906009020190508060030154348115156109bd57fe5b0615610a39576040805160e560020a62461bcd02815260206004820152603060248201527f4465706f7369742076616c7565206d7573742062652061206d756c7469706c6560448201527f206f6620636c61696d2076616c75652e00000000000000000000000000000000606482015290519081900360840190fd5b33600090815260088201602052604090205415610ac6576040805160e560020a62461bcd02815260206004820152602b60248201527f43616e6e6f74206465706f73697420747769636520776974682074686520736160448201527f6d6520616464726573732e000000000000000000000000000000000000000000606482015290519081900360840190fd5b6001810180543490810190915533600090815260088301602052604090205560028101546006820180548592908110610afb57fe5b906000526020600020019080519060200190610b189291906116b9565b506002810180546001908101909155604080513460208083018290529282018490526080808352875190830152865163ffffffff89169433947fce7036acc3606aaa1ec3a2e7b4d13b3f4da34ee1eac298fc47524074de74a3bf948a949390918291606083019160a08401919088019080838360005b83811015610ba6578181015183820152602001610b8e565b50505050905090810190601f168015610bd35780820380516001836020036101000a031916815260200191505b50928303905250600881527f616c6c20676f6f6400000000000000000000000000000000000000000000000060208201526040805191829003019350915050a36004810154600282015410610c7c5780547aff0000000000000000000000000000000000000000000000000000191660d060020a17815560405163ffffffff8516907fa98c11bc69afe22b520fe800f82e421f9594d4f06259a7600711b75af05a43b990600090a25b5060009392505050565b600060018263ffffffff16815481101515610c9d57fe5b600091825260209091206006600990920201015492915050565b606060018363ffffffff16815481101515610cce57fe5b906000526020600020906009020160060182815481101515610cec57fe5b600091825260209182902001805460408051601f6002600019610100600187161502019094169390930492830185900485028101850190915281815292830182828015610d7a5780601f10610d4f57610100808354040283529160200191610d7a565b820191906000526020600020905b815481529060010190602001808311610d5d57829003601f168201915b5050505050905092915050565b600180546000918190610d9c90828101611737565b503360018263ffffffff16815481101515610db357fe5b906000526020600020906009020160000160006101000a815481600160a060020a030219169083600160a060020a031602179055508460018263ffffffff16815481101515610dfe57fe5b906000526020600020906009020160050181905550600060018263ffffffff16815481101515610e2a57fe5b906000526020600020906009020160010181905550600060018263ffffffff16815481101515610e5657fe5b9060005260206000209060090201600201819055504260018263ffffffff16815481101515610e8157fe5b906000526020600020906009020160000160146101000a81548165ffffffffffff021916908365ffffffffffff1602179055508360018263ffffffff16815481101515610eca57fe5b9060005260206000209060090201600301819055508260018263ffffffff16815481101515610ef557fe5b90600052602060002090600902016004018190555082604051908082528060200260200182016040528015610f3e57816020015b6060815260200190600190039081610f295790505b506001805463ffffffff8416908110610f5357fe5b90600052602060002090600902016006019080519060200190610f77929190611768565b5082604051908082528060200260200182016040528015610fa2578160200160208202803883390190505b506001805463ffffffff8416908110610fb757fe5b90600052602060002090600902016007019080519060200190610fdb9291906117c1565b50600060018263ffffffff16815481101515610ff357fe5b6000918252602091829020600990910201805460ff9390931660d060020a027aff000000000000000000000000000000000000000000000000000019909316929092179091556040805165ffffffffffff42168152918201879052818101869052606082018590526001608083015260c060a083018190526008908301527f616c6c20676f6f6400000000000000000000000000000000000000000000000060e08301525163ffffffff83169133917f876b9043d809880bec360c3c9d8e8819a90016c1d6a6958015ece6039873f790918190036101000190a3506000949350505050565b600054600160a060020a031681565b60008054600160a060020a03163314611170576040805160e560020a62461bcd02815260206004820152602260248201527f53656e646572206973206e6f742074686520456e69676d6120636f6e7472616360448201527f742e000000000000000000000000000000000000000000000000000000000000606482015290519081900360840190fd5b6001805463ffffffff851690811061118457fe5b600091825260209091206009909102015460d060020a900460ff166001146111f6576040805160e560020a62461bcd02815260206004820152601560248201527f4465616c206973206e6f742065786563757465642e0000000000000000000000604482015290519081900360640190fd5b8160018463ffffffff1681548110151561120c57fe5b906000526020600020906009020160070190805190602001906112309291906117c1565b5060005b6001805463ffffffff861690811061124857fe5b90600052602060002090600902016007018054905081101561130d576001805463ffffffff861690811061127857fe5b90600052602060002090600902016007018181548110151561129657fe5b60009182526020909120015460018054600160a060020a03909216916108fc919063ffffffff88169081106112c757fe5b9060005260206000209060090201600301549081150290604051600060405180830381858888f19350505050158015611304573d6000803e3d6000fd5b50600101611234565b506001805463ffffffff8516917f1187ca8b8cb5197d0ccbe2a81015221695030dd9d87d9d5fc1f6678d65d58134918390811061134657fe5b90600052602060002090600902016003015460018663ffffffff1681548110151561136d57fe5b906000526020600020906009020160070160018763ffffffff1681548110151561139357fe5b906000526020600020906009020160070180549050600160405180858152602001806020018463ffffffff1663ffffffff1681526020018315151515815260200180602001838103835286818154815260200191508054801561141f57602002820191906000526020600020905b8154600160a060020a03168152600190910190602001808311611401575b5050928303905250600881527f616c6c20676f6f640000000000000000000000000000000000000000000000006020820152604080519182900301945092505050a250600092915050565b600080600080600080600060018863ffffffff1681548110151561148a57fe5b9060005260206000209060090201600501549050600060018963ffffffff168154811015156114b557fe5b9060005260206000209060090201600401549050600060018a63ffffffff168154811015156114e057fe5b9060005260206000209060090201600301549050600060018b63ffffffff1681548110151561150b57fe5b9060005260206000209060090201600201549050600060018c63ffffffff1681548110151561153657fe5b9060005260206000209060090201600101549050600060018d63ffffffff1681548110151561156157fe5b6000918252602090912060099091020160070154959d949c50929a50909850965091945092505050565b81516000906060905b60008111156116af576040805160018601602080830191909152825180830382018152918301909252805191012060009082908115156115d057fe5b06905085600183038151811015156115e457fe5b90602001906020020151600160a060020a0316868281518110151561160557fe5b60209081029091010151600160a060020a0316146116a5576000866001840381518110151561163057fe5b906020019060200201519050868281518110151561164a57fe5b90602001906020020151876001850381518110151561166557fe5b600160a060020a039092166020928302909101909101528651819088908490811061168c57fe5b600160a060020a03909216602092830290910190910152505b5060001901611594565b5093949293505050565b828054600181600116156101000203166002900490600052602060002090601f016020900481019282601f106116fa57805160ff1916838001178555611727565b82800160010185558215611727579182015b8281111561172757825182559160200191906001019061170c565b5061173392915061182f565b5090565b81548183558181111561176357600902816009028360005260206000209182019101611763919061184c565b505050565b8280548282559060005260206000209081019282156117b5579160200282015b828111156117b557825180516117a59184916020909101906116b9565b5091602001919060010190611788565b506117339291506118c5565b828054828255906000526020600020908101928215611823579160200282015b82811115611823578251825473ffffffffffffffffffffffffffffffffffffffff1916600160a060020a039091161782556020909201916001909101906117e1565b506117339291506118e8565b61184991905b808211156117335760008155600101611835565b90565b61184991905b808211156117335780547affffffffffffffffffffffffffffffffffffffffffffffffffffff19168155600060018201819055600282018190556003820181905560048201819055600582018190556118ae6006830182611919565b6118bc60078301600061193a565b50600901611852565b61184991905b808211156117335760006118df8282611958565b506001016118cb565b61184991905b8082111561173357805473ffffffffffffffffffffffffffffffffffffffff191681556001016118ee565b508054600082559060005260206000209081019061193791906118c5565b50565b5080546000825590600052602060002090810190611937919061182f565b50805460018160011615610100020316600290046000825580601f1061197e5750611937565b601f016020900490600052602060002090810190611937919061182f56fea165627a7a72305820dd6ef61c177fe71e9279a78dbdeeeeb7e4e140bf8139f6f062370f6ba292eff90029",
  "source": "pragma solidity ^0.5.0;\n\nimport \"./Enigma.sol\";\n\ncontract CoinMixer {\n\n    Enigma public enigma;\n\n    struct Deal {\n        address organizer;\n        uint48 startTime;\n        uint8 status; // 0: active; 1: funded; 2: executed; 3: cancelled\n        uint depositSum;\n        uint numDeposits;\n        uint depositInWei;\n        uint numParticipants;\n        bytes32 title;\n        bytes[] encryptedDestAddresses;\n        address payable[] destAddresses;\n        mapping(address => uint) deposit;\n    }\n\n    Deal[] public deals;\n\n    event NewDeal(\n        address indexed user,\n        uint32 indexed _dealId,\n        uint48 _startTime,\n        bytes32 _title,\n        uint _depositInWei,\n        uint _numParticipants,\n        bool _success,\n        string _err\n    );\n    event Deposit(\n        address indexed _depositor,\n        uint32 indexed _dealId,\n        bytes _encryptedDestAddress,\n        uint _value,\n        bool _success,\n        string _err\n    );\n    event Distribute(\n        uint32 indexed _dealId,\n        uint individualAmountInWei,\n        address payable[] destAddresses,\n        uint32 nbTransfers,\n        bool _success,\n        string _err\n    );\n\n    event TransferredToken(address indexed to, uint256 value);\n    event FailedTransfer(address indexed to, uint256 value);\n\n    event DealFullyFunded(uint32 indexed _dealId);\n    event DealExecuted(uint32 indexed _dealId, bool _success);\n\n    // TODO: switch to require() once it accepts a message parameter\n    enum ReturnValue {Ok, Error}\n\n    constructor(address _enigmaAddress) public {\n        enigma = Enigma(_enigmaAddress);\n    }\n\n    function newDeal(bytes32 _title, uint _depositInWei, uint _numParticipants)\n    public\n    returns (ReturnValue)\n    {\n        uint32 dealId = uint32(deals.length);\n\n        deals.length++;\n        deals[dealId].organizer = msg.sender;\n        deals[dealId].title = _title;\n        deals[dealId].depositSum = 0;\n        deals[dealId].numDeposits = 0;\n        deals[dealId].startTime = uint48(now);\n        deals[dealId].depositInWei = _depositInWei;\n        deals[dealId].numParticipants = _numParticipants;\n        deals[dealId].encryptedDestAddresses = new bytes[](_numParticipants);\n        deals[dealId].destAddresses = new address payable[](_numParticipants);\n        deals[dealId].status = 0;\n        emit NewDeal(\n            msg.sender,\n            dealId,\n            uint48(now),\n            _title,\n            _depositInWei,\n            _numParticipants,\n            true,\n            \"all good\"\n        );\n\n        return ReturnValue.Ok;\n    }\n\n    function makeDeposit(uint32 dealId, bytes memory encryptedDestAddress)\n    public\n    payable\n    returns (ReturnValue)\n    {\n        require(msg.value > 0, \"Deposit value must be positive.\");\n        require(deals[dealId].status == 0, \"Illegal state for deposits.\");\n\n        Deal storage deal = deals[dealId];\n        require((msg.value % deal.depositInWei) == 0, \"Deposit value must be a multiple of claim value.\");\n        require(deal.deposit[msg.sender] == 0, \"Cannot deposit twice with the same address.\");\n\n        // actual deposit\n        deal.depositSum += msg.value;\n        deal.deposit[msg.sender] = msg.value;\n        deal.encryptedDestAddresses[deal.numDeposits] = encryptedDestAddress;\n        deal.numDeposits += 1;\n\n        emit Deposit(msg.sender, dealId, encryptedDestAddress, msg.value, true, \"all good\");\n\n        if (deal.numDeposits >= deal.numParticipants) {\n            deal.status = 1;\n            emit DealFullyFunded(dealId);\n        }\n        return ReturnValue.Ok;\n    }\n\n    function mixAddresses(uint32 dealId, address[] memory destAddresses, uint256 rand)\n    public\n    pure\n    returns (uint32, address[] memory)\n    {\n        // Shuffling the specified address using a random seed.\n        // Doing a Fisher-Yates Shuffle with a single integer\n        // between 0 and 127. To get more numbers in the loop,\n        // we'll add 1 to our seed and hash it.\n        uint i = destAddresses.length;\n        while (i > 0) {\n            uint j = uint(keccak256(abi.encodePacked(rand + 1))) % i;\n\n            // Array swap\n            if (destAddresses[j] != destAddresses[i - 1]) {\n                address destAddress = destAddresses[i - 1];\n                destAddresses[i - 1] = destAddresses[j];\n                destAddresses[j] = destAddress;\n            }\n            i--;\n        }\n        return (dealId, destAddresses);\n    }\n\n    modifier onlyEnigma() {\n        require(msg.sender == address(enigma), \"Sender is not the Enigma contract.\");\n        _;\n    }\n\n    function distribute(uint32 dealId, address payable[] memory destAddresses)\n    public\n    onlyEnigma()\n    returns (ReturnValue)\n    {\n        // Distribute the deposits to destination addresses\n        require(deals[dealId].status == 1, \"Deal is not executed.\");\n        deals[dealId].destAddresses = destAddresses;\n\n        for (uint i = 0; i < deals[dealId].destAddresses.length; i++) {\n            deals[dealId].destAddresses[i].transfer(deals[dealId].depositInWei);\n        }\n\n        emit Distribute(\n            dealId,\n            deals[dealId].depositInWei,\n            deals[dealId].destAddresses,\n            uint32(deals[dealId].destAddresses.length),\n            true,\n            \"all good\"\n        );\n        return ReturnValue.Ok;\n    }\n\n    function listDeals() public view returns (uint[] memory, uint[] memory, uint[] memory) {\n        // A list of deals with their key properties\n        uint[] memory status = new uint[](deals.length);\n        uint[] memory participates = new uint[](deals.length);\n        uint[] memory organizes = new uint[](deals.length);\n\n        for (uint i = 0; i < deals.length; i++) {\n            status[i] = deals[i].status;\n\n            if (deals[i].deposit[msg.sender] > 0) {\n                participates[i] = 1;\n            }\n\n            if (deals[i].organizer == msg.sender) {\n                organizes[i] = 1;\n            }\n        }\n        return (status, participates, organizes);\n    }\n\n    function dealStatus(uint32 _dealId)\n    public\n    view\n    returns (bytes32, uint, uint, uint, uint, uint)\n    {\n        // Key attributes of a deal\n        bytes32 title = deals[_dealId].title;\n        uint numParticipants = deals[_dealId].numParticipants;\n        uint deposit = deals[_dealId].depositInWei;\n        uint numDeposits = deals[_dealId].numDeposits;\n        uint depositSum = deals[_dealId].depositSum;\n        uint numDestAddresses = deals[_dealId].destAddresses.length;\n\n        return (title, numParticipants, deposit, numDeposits, depositSum, numDestAddresses);\n    }\n\n    function countEncryptedAddresses(uint32 _dealId)\n    public\n    view\n    returns (uint)\n    {\n        // Count the addresses\n        return deals[_dealId].encryptedDestAddresses.length;\n    }\n\n    function getEncryptedAddress(uint32 _dealId, uint index)\n    public\n    view\n    returns (bytes memory)\n    {\n        // Returns an array of encrypted addresses\n        return deals[_dealId].encryptedDestAddresses[index];\n    }\n}\n\n",
  "sourcePath": "/Users/adityapalepu/Startups/enigma/enigma-contract-internal/contracts/CoinMixer.sol",
  "compiler": {
    "name": "solc",
    "version": "0.5.0+commit.1d4f565a.Emscripten.clang"
  },
  "schemaVersion": "3.0.0",
  "updatedAt": "2019-01-10T03:44:08.737Z",
  "devdoc": {
    "methods": {}
  },
  "userdoc": {
    "methods": {}
  }
}