{
  "contractName": "CoinMixer",
  "abi": [
    {
      "inputs": [],
      "payable": false,
      "stateMutability": "nonpayable",
      "type": "constructor"
    },
    {
      "anonymous": false,
      "inputs": [
        {
          "indexed": true,
          "name": "user",
          "type": "address"
        },
        {
          "indexed": true,
          "name": "_dealId",
          "type": "uint256"
        },
        {
          "indexed": false,
          "name": "_startTime",
          "type": "uint256"
        },
        {
          "indexed": false,
          "name": "_title",
          "type": "bytes32"
        },
        {
          "indexed": false,
          "name": "_depositInWei",
          "type": "uint256"
        },
        {
          "indexed": false,
          "name": "_numParticipants",
          "type": "uint256"
        },
        {
          "indexed": false,
          "name": "_success",
          "type": "bool"
        },
        {
          "indexed": false,
          "name": "_err",
          "type": "string"
        }
      ],
      "name": "NewDeal",
      "type": "event"
    },
    {
      "anonymous": false,
      "inputs": [
        {
          "indexed": true,
          "name": "_depositor",
          "type": "address"
        },
        {
          "indexed": true,
          "name": "_dealId",
          "type": "uint256"
        },
        {
          "indexed": false,
          "name": "_encryptedDestAddress",
          "type": "bytes32"
        },
        {
          "indexed": false,
          "name": "_value",
          "type": "uint256"
        },
        {
          "indexed": false,
          "name": "_success",
          "type": "bool"
        },
        {
          "indexed": false,
          "name": "_err",
          "type": "string"
        }
      ],
      "name": "Deposit",
      "type": "event"
    },
    {
      "anonymous": false,
      "inputs": [
        {
          "indexed": true,
          "name": "_destAddresses",
          "type": "address[]"
        },
        {
          "indexed": true,
          "name": "_dealId",
          "type": "uint256"
        },
        {
          "indexed": false,
          "name": "_success",
          "type": "bool"
        },
        {
          "indexed": false,
          "name": "_err",
          "type": "string"
        }
      ],
      "name": "Distribute",
      "type": "event"
    },
    {
      "anonymous": false,
      "inputs": [
        {
          "indexed": true,
          "name": "to",
          "type": "address"
        },
        {
          "indexed": false,
          "name": "value",
          "type": "uint256"
        }
      ],
      "name": "TransferredToken",
      "type": "event"
    },
    {
      "anonymous": false,
      "inputs": [
        {
          "indexed": true,
          "name": "to",
          "type": "address"
        },
        {
          "indexed": false,
          "name": "value",
          "type": "uint256"
        }
      ],
      "name": "FailedTransfer",
      "type": "event"
    },
    {
      "anonymous": false,
      "inputs": [
        {
          "indexed": true,
          "name": "_dealId",
          "type": "uint256"
        }
      ],
      "name": "DealFullyFunded",
      "type": "event"
    },
    {
      "anonymous": false,
      "inputs": [
        {
          "indexed": false,
          "name": "callable",
          "type": "bytes32"
        },
        {
          "indexed": false,
          "name": "callableArgs",
          "type": "bytes32[]"
        },
        {
          "indexed": false,
          "name": "callback",
          "type": "bytes32"
        },
        {
          "indexed": false,
          "name": "max_cost",
          "type": "uint256"
        }
      ],
      "name": "SecretCall",
      "type": "event"
    },
    {
      "constant": false,
      "inputs": [
        {
          "name": "_title",
          "type": "bytes32"
        },
        {
          "name": "_depositInWei",
          "type": "uint256"
        },
        {
          "name": "_numParticipants",
          "type": "uint256"
        }
      ],
      "name": "newDeal",
      "outputs": [
        {
          "name": "",
          "type": "uint8"
        }
      ],
      "payable": false,
      "stateMutability": "nonpayable",
      "type": "function"
    },
    {
      "constant": false,
      "inputs": [
        {
          "name": "dealId",
          "type": "uint256"
        },
        {
          "name": "encryptedDestAddress",
          "type": "bytes32"
        }
      ],
      "name": "makeDeposit",
      "outputs": [
        {
          "name": "",
          "type": "uint8"
        }
      ],
      "payable": true,
      "stateMutability": "payable",
      "type": "function"
    },
    {
      "constant": true,
      "inputs": [
        {
          "name": "dealId",
          "type": "uint256"
        },
        {
          "name": "destAddresses",
          "type": "address[]"
        }
      ],
      "name": "mixAddresses",
      "outputs": [
        {
          "name": "",
          "type": "uint256"
        },
        {
          "name": "",
          "type": "address[]"
        }
      ],
      "payable": false,
      "stateMutability": "pure",
      "type": "function"
    },
    {
      "constant": true,
      "inputs": [],
      "name": "listDealTitles",
      "outputs": [
        {
          "name": "",
          "type": "bytes32[]"
        }
      ],
      "payable": false,
      "stateMutability": "view",
      "type": "function"
    },
    {
      "constant": true,
      "inputs": [
        {
          "name": "_dealId",
          "type": "uint256"
        }
      ],
      "name": "dealStatus",
      "outputs": [
        {
          "name": "",
          "type": "uint256[6]"
        }
      ],
      "payable": false,
      "stateMutability": "view",
      "type": "function"
    },
    {
      "constant": true,
      "inputs": [
        {
          "name": "_dealId",
          "type": "uint256"
        }
      ],
      "name": "isParticipating",
      "outputs": [
        {
          "name": "",
          "type": "bool"
        }
      ],
      "payable": false,
      "stateMutability": "view",
      "type": "function"
    }
  ],
  "bytecode": "0x6060604052341561000f57600080fd5b61112e8061001e6000396000f300606060405260043610610078576000357c0100000000000000000000000000000000000000000000000000000000900463ffffffff1680630b3c1a331461007d5780632ea79968146100b8578063306387a4146100ff5780636f70daf81461015e578063a06a5856146101c8578063cf3cf65614610223575b600080fd5b341561008857600080fd5b61009e60048080359060200190919050506102e2565b604051808215151515815260200191505060405180910390f35b6100db60048080359060200190919080356000191690602001909190505061035c565b604051808260018111156100eb57fe5b60ff16815260200191505060405180910390f35b341561010a57600080fd5b6101206004808035906020019091905050610928565b6040518082600660200280838360005b8381101561014b578082015181840152602081019050610130565b5050505090500191505060405180910390f35b341561016957600080fd5b610171610a67565b6040518080602001828103825283818151815260200191508051906020019060200280838360005b838110156101b4578082015181840152602081019050610199565b505050509050019250505060405180910390f35b34156101d357600080fd5b6101ff600480803560001916906020019091908035906020019091908035906020019091905050610b0c565b6040518082600181111561020f57fe5b60ff16815260200191505060405180910390f35b341561022e57600080fd5b610284600480803590602001909190803590602001908201803590602001908080602002602001604051908101604052809392919081815260200183836020028082843782019150505050505091905050610de6565b6040518083815260200180602001828103825283818151815260200191508051906020019060200280838360005b838110156102cd5780820151818401526020810190506102b2565b50505050905001935050505060405180910390f35b60008060009050600080848154811015156102f957fe5b90600052602060002090600a020160010160003373ffffffffffffffffffffffffffffffffffffffff1673ffffffffffffffffffffffffffffffffffffffff16815260200190815260200160002054111561035357600190505b80915050919050565b600080610367610dfd565b600080925060003414156103b2576040805190810160405280601e81526020017f6465706f7369742076616c7565206d75737420626520706f73697469766500008152509150600192505b6000868154811015156103c157fe5b90600052602060002090600a020160090160009054906101000a900460ff161515610423576040805190810160405280601281526020017f6465616c206973206e6f742061637469766500000000000000000000000000008152509150600192505b60008681548110151561043257fe5b90600052602060002090600a02019050600081600501543481151561045357fe5b0611156104be57606060405190810160405280602f81526020017f6465706f7369742076616c7565206d7573742062652061206d756c7469706c6581526020017f206f6620636c61696d2076616c756500000000000000000000000000000000008152509150600192505b60008160010160003373ffffffffffffffffffffffffffffffffffffffff1673ffffffffffffffffffffffffffffffffffffffff16815260200190815260200160002054111561056c57606060405190810160405280602a81526020017f63616e6e6f74206465706f73697420747769636520776974682074686520736181526020017f6d652061646472657373000000000000000000000000000000000000000000008152509150600192505b8060090160019054906101000a900460ff16156105c0576040805190810160405280601e81526020017f6465616c20697320616c72656164792066756c6c696e672066756e64656400008152509150600192505b82156106a857853373ffffffffffffffffffffffffffffffffffffffff167f9253951f3eff982bd56920e03d1dd72425977d70fae4ac8e2e0da3c564bfabcb87346000876040518085600019166000191681526020018481526020018315151515815260200180602001828103825283818151815260200191508051906020019080838360005b83811015610662578082015181840152602081019050610647565b50505050905090810190601f16801561068f5780820380516001836020036101000a031916815260200191505b509550505050505060405180910390a36001935061091f565b348160020160008282540192505081905550348160010160003373ffffffffffffffffffffffffffffffffffffffff1673ffffffffffffffffffffffffffffffffffffffff16815260200190815260200160002081905550600181600301600082825401925050819055508060070180548060010182816107299190610e11565b916000526020600020900160008790919091509060001916905550853373ffffffffffffffffffffffffffffffffffffffff167f9253951f3eff982bd56920e03d1dd72425977d70fae4ac8e2e0da3c564bfabcb873460016040518084600019166000191681526020018381526020018215151515815260200180602001828103825260088152602001807f616c6c20676f6f6400000000000000000000000000000000000000000000000081525060200194505050505060405180910390a38060060154816003015410151561091a5760018160090160016101000a81548160ff021916908315150217905550857f38c728834d3279b1aa694222a5c1079e38e2d78a9543064bd3b50ffbfd030b3460405160405180910390a27ff5106d5c2d59c2320c4976c43cac12bbd7377c71a67e5cb6a4167bdd7ecd47dc81600701600060405180807f6d6978416464726573736573000000000000000000000000000000000000000081525060200180602001807f6469737472696275746500000000000000000000000000000000000000000000815250602001838152602001828103825284818154815260200191508054801561090a57602002820191906000526020600020905b815460001916815260200190600101908083116108f2575b5050935050505060405180910390a15b600093505b50505092915050565b610930610e3d565b60008060008060008060008881548110151561094857fe5b90600052602060002090600a020160090160009054906101000a900460ff16610972576000610975565b60015b60ff16955060008881548110151561098957fe5b90600052602060002090600a02016006015494506000888154811015156109ac57fe5b90600052602060002090600a02016005015493506000888154811015156109cf57fe5b90600052602060002090600a02016003015492506000888154811015156109f257fe5b90600052602060002090600a0201600201549150600088815481101515610a1557fe5b90600052602060002090600a020160080180549050905060c060405190810160405280878152602001868152602001858152602001848152602001838152602001828152509650505050505050919050565b610a6f610e65565b610a77610e65565b60008080549050604051805910610a8b5750595b90808252806020026020018201604052509150600090505b600080549050811015610b0457600081815481101515610abf57fe5b90600052602060002090600a0201600001548282815181101515610adf57fe5b9060200190602002019060001916908160001916815250508080600101915050610aa3565b819250505090565b600080600080549050905060008054809190600101610b2b9190610e79565b5084600082815481101515610b3c57fe5b90600052602060002090600a0201600001816000191690555060008082815481101515610b6557fe5b90600052602060002090600a02016002018190555060008082815481101515610b8a57fe5b90600052602060002090600a02016003018190555042600082815481101515610baf57fe5b90600052602060002090600a02016004018190555083600082815481101515610bd457fe5b90600052602060002090600a02016005018190555082600082815481101515610bf957fe5b90600052602060002090600a02016006018190555082604051805910610c1c5750595b9080825280602002602001820160405250600082815481101515610c3c57fe5b90600052602060002090600a02016007019080519060200190610c60929190610eab565b5082604051805910610c6f5750595b9080825280602002602001820160405250600082815481101515610c8f57fe5b90600052602060002090600a02016008019080519060200190610cb3929190610efe565b5060008082815481101515610cc457fe5b90600052602060002090600a020160090160016101000a81548160ff0219169083151502179055506001600082815481101515610cfd57fe5b90600052602060002090600a020160090160006101000a81548160ff021916908315150217905550803373ffffffffffffffffffffffffffffffffffffffff167f3f8aabc3a12e950c954455d2c33afc5d85a289ad74baae0ed96884daf85ba4104288888860016040518086815260200185600019166000191681526020018481526020018381526020018215151515815260200180602001828103825260088152602001807f616c6c20676f6f64000000000000000000000000000000000000000000000000815250602001965050505050505060405180910390a360009150509392505050565b6000610df0610f88565b8383915091509250929050565b602060405190810160405280600081525090565b815481835581811511610e3857818360005260206000209182019101610e379190610f9c565b5b505050565b60c0604051908101604052806006905b6000815260200190600190039081610e4d5790505090565b602060405190810160405280600081525090565b815481835581811511610ea657600a0281600a028360005260206000209182019101610ea59190610fc1565b5b505050565b828054828255906000526020600020908101928215610eed579160200282015b82811115610eec578251829060001916905591602001919060010190610ecb565b5b509050610efa9190610f9c565b5090565b828054828255906000526020600020908101928215610f77579160200282015b82811115610f765782518260006101000a81548173ffffffffffffffffffffffffffffffffffffffff021916908373ffffffffffffffffffffffffffffffffffffffff16021790555091602001919060010190610f1e565b5b509050610f849190611058565b5090565b602060405190810160405280600081525090565b610fbe91905b80821115610fba576000816000905550600101610fa2565b5090565b90565b61105591905b808211156110515760008082016000905560028201600090556003820160009055600482016000905560058201600090556006820160009055600782016000611010919061109b565b60088201600061102091906110bc565b6009820160006101000a81549060ff02191690556009820160016101000a81549060ff021916905550600a01610fc7565b5090565b90565b61109891905b8082111561109457600081816101000a81549073ffffffffffffffffffffffffffffffffffffffff02191690555060010161105e565b5090565b90565b50805460008255906000526020600020908101906110b99190610f9c565b50565b50805460008255906000526020600020908101906110da91906110dd565b50565b6110ff91905b808211156110fb5760008160009055506001016110e3565b5090565b905600a165627a7a72305820c6626dd264775c557712f6e207fbaf7044031269ac973b1c92159933d6c1f90f0029",
  "source": "pragma solidity ^0.4.19;\n\n\ncontract CoinMixer {\n    struct Deal {\n        bytes32 title;\n        mapping(address => uint) deposit;\n        uint depositSum;\n        uint numDeposits;\n\n        uint startTime;\n        uint depositInWei;\n        uint numParticipants;\n\n        bytes32[] encryptedDestAddresses;\n        address[] destAddresses;\n\n        bool active;\n        bool fullyFunded;\n    }\n\n    struct DealSummary {\n        bytes32 title;\n    }\n\n    Deal[]  _deals;\n\n    event NewDeal(address indexed user, uint indexed _dealId, uint _startTime, bytes32 _title, uint _depositInWei, uint _numParticipants, bool _success, string _err);\n    event Deposit(address indexed _depositor, uint indexed _dealId, bytes32 _encryptedDestAddress, uint _value, bool _success, string _err);\n    event Distribute(address[] indexed _destAddresses, uint indexed _dealId, bool _success, string _err);\n\n    event TransferredToken(address indexed to, uint256 value);\n    event FailedTransfer(address indexed to, uint256 value);\n\n    event DealFullyFunded(uint indexed _dealId);\n\n    // The generic Enigma computation event\n    event SecretCall(bytes32 callable, bytes32[] callableArgs, bytes32 callback, uint max_cost);\n\n    // TODO: switch to require() once it accepts a message parameter\n    enum ReturnValue {Ok, Error}\n\n    function CoinMixer() public {\n    }\n\n    function newDeal(bytes32 _title, uint _depositInWei, uint _numParticipants) public returns (ReturnValue) {\n        uint dealId = _deals.length;\n\n        _deals.length++;\n        _deals[dealId].title = _title;\n        _deals[dealId].depositSum = 0;\n        _deals[dealId].numDeposits = 0;\n        _deals[dealId].startTime = now;\n        _deals[dealId].depositInWei = _depositInWei;\n        _deals[dealId].numParticipants = _numParticipants;\n        _deals[dealId].encryptedDestAddresses = new bytes32[](_numParticipants);\n        _deals[dealId].destAddresses = new address[](_numParticipants);\n        _deals[dealId].fullyFunded = false;\n        _deals[dealId].active = true;\n        NewDeal(msg.sender,\n            dealId,\n            now,\n            _title,\n            _depositInWei,\n            _numParticipants,\n            true,\n            \"all good\");\n        return ReturnValue.Ok;\n    }\n\n    function makeDeposit(uint dealId, bytes32 encryptedDestAddress) public payable returns (ReturnValue){\n        bool errorDetected = false;\n        string memory error;\n        // validations\n        if (msg.value == 0) {\n            error = \"deposit value must be positive\";\n            errorDetected = true;\n        }\n        if (!_deals[dealId].active) {\n            error = \"deal is not active\";\n            errorDetected = true;\n        }\n\n        Deal storage deal = _deals[dealId];\n        if ((msg.value % deal.depositInWei) > 0) {\n            error = \"deposit value must be a multiple of claim value\";\n            errorDetected = true;\n        }\n        if (deal.deposit[msg.sender] > 0) {\n            error = \"cannot deposit twice with the same address\";\n            errorDetected = true;\n        }\n        if (deal.fullyFunded) {\n            error = \"deal is already fulling funded\";\n            errorDetected = true;\n        }\n        if (errorDetected) {\n            Deposit(msg.sender, dealId, encryptedDestAddress, msg.value, false, error);\n            // send money back\n            return ReturnValue.Error;\n        }\n\n        // actual deposit\n        deal.depositSum += msg.value;\n        deal.deposit[msg.sender] = msg.value;\n        deal.numDeposits += 1;\n        deal.encryptedDestAddresses.push(encryptedDestAddress);\n\n        Deposit(msg.sender, dealId, encryptedDestAddress, msg.value, true, \"all good\");\n\n        if (deal.numDeposits >= deal.numParticipants) {\n            deal.fullyFunded = true;\n            DealFullyFunded(dealId);\n\n            // Calls the Enigma computation\n            SecretCall(\"mixAddresses\", deal.encryptedDestAddresses, \"distribute\", 0);\n        }\n        return ReturnValue.Ok;\n    }\n\n    function mixAddresses(uint dealId, address[] destAddresses) public pure returns (uint, address[]) {\n        // TODO: put mixing logic here\n        return (dealId, destAddresses);\n    }\n\n    function distribute(uint dealId, address[] destAddresses) private returns (ReturnValue){\n        bool errorDetected = false;\n        string memory error;\n\n        Deal storage deal = _deals[dealId];\n        if (!deal.active) {\n            error = \"deal is not active\";\n            errorDetected = true;\n        }\n        if (!deal.fullyFunded) {\n            error = \"deal is not fulling funded\";\n            errorDetected = true;\n        }\n        if (errorDetected) {\n            return ReturnValue.Error;\n        }\n        deal.destAddresses = destAddresses;\n\n        bool enoughAddresses = deal.destAddresses.length == deal.numParticipants;\n        if (!enoughAddresses) {\n            error = \"missing some destination addresses\";\n            errorDetected = true;\n        }\n        if (errorDetected) {\n            Distribute(deal.destAddresses, dealId, false, error);\n            return ReturnValue.Error;\n        }\n\n        uint256 i = 0;\n        while (i < deal.destAddresses.length) {\n            deal.destAddresses[i].transfer(deal.depositSum);\n            i++;\n        }\n\n        Distribute(deal.destAddresses, dealId, true, \"all good\");\n        return ReturnValue.Ok;\n    }\n\n    ////////////////////////////////////////////////////////////////////////////////////////\n    //VIEWS/////////////////////////////////////////////////////////////////////////////////\n    ////////////////////////////////////////////////////////////////////////////////////////\n\n    function listDealTitles() public view returns (bytes32[]) {\n        bytes32[] memory titles = new bytes32[](_deals.length);\n        uint dealId = 0;\n        while (dealId < _deals.length) {\n            titles[dealId] = _deals[dealId].title;\n            dealId++;\n        }\n        return titles;\n    }\n\n    function dealStatus(uint _dealId) public view returns (uint[6]){\n        uint active = _deals[_dealId].active ? 1 : 0;\n        uint numParticipants = _deals[_dealId].numParticipants;\n        uint deposit = _deals[_dealId].depositInWei;\n        uint numDeposits = _deals[_dealId].numDeposits;\n        uint depositSum = _deals[_dealId].depositSum;\n        uint numDestAddresses = _deals[_dealId].destAddresses.length;\n\n\n        return [active, numParticipants, deposit, numDeposits, depositSum, numDestAddresses];\n    }\n\n    function isParticipating(uint _dealId) public view returns (bool) {\n        bool participating = false;\n        if (_deals[_dealId].deposit[msg.sender] > 0) {\n            participating = true;\n        }\n        return participating;\n    }\n}\n\n",
  "sourcePath": "/Users/fredfortier/Code/enigma/coin-mixer-poc/dapp/contracts/CoinMixer.sol",
  "compiler": {
    "name": "solc",
    "version": "0.4.19+commit.c4cbbb05.Emscripten.clang"
  },
  "schemaVersion": "2.0.0",
  "updatedAt": "2018-03-17T22:17:53.156Z"
}