{
  "contractName": "CoinMixer",
  "abi": [
    {
      "inputs": [],
      "payable": false,
      "stateMutability": "nonpayable",
      "type": "constructor"
    },
    {
      "anonymous": false,
      "inputs": [
        {
          "indexed": true,
          "name": "user",
          "type": "address"
        },
        {
          "indexed": true,
          "name": "_dealId",
          "type": "uint256"
        },
        {
          "indexed": false,
          "name": "_startTime",
          "type": "uint256"
        },
        {
          "indexed": false,
          "name": "_title",
          "type": "bytes32"
        },
        {
          "indexed": false,
          "name": "_depositInWei",
          "type": "uint256"
        },
        {
          "indexed": false,
          "name": "_numParticipants",
          "type": "uint256"
        },
        {
          "indexed": false,
          "name": "_success",
          "type": "bool"
        },
        {
          "indexed": false,
          "name": "_err",
          "type": "string"
        }
      ],
      "name": "NewDeal",
      "type": "event"
    },
    {
      "anonymous": false,
      "inputs": [
        {
          "indexed": true,
          "name": "_depositor",
          "type": "address"
        },
        {
          "indexed": true,
          "name": "_dealId",
          "type": "uint256"
        },
        {
          "indexed": false,
          "name": "_encryptedDestAddress",
          "type": "bytes32"
        },
        {
          "indexed": false,
          "name": "_value",
          "type": "uint256"
        },
        {
          "indexed": false,
          "name": "_success",
          "type": "bool"
        },
        {
          "indexed": false,
          "name": "_err",
          "type": "string"
        }
      ],
      "name": "Deposit",
      "type": "event"
    },
    {
      "anonymous": false,
      "inputs": [
        {
          "indexed": true,
          "name": "_destAddresses",
          "type": "address[]"
        },
        {
          "indexed": true,
          "name": "_dealId",
          "type": "uint256"
        },
        {
          "indexed": false,
          "name": "_success",
          "type": "bool"
        },
        {
          "indexed": false,
          "name": "_err",
          "type": "string"
        }
      ],
      "name": "Distribute",
      "type": "event"
    },
    {
      "anonymous": false,
      "inputs": [
        {
          "indexed": true,
          "name": "to",
          "type": "address"
        },
        {
          "indexed": false,
          "name": "value",
          "type": "uint256"
        }
      ],
      "name": "TransferredToken",
      "type": "event"
    },
    {
      "anonymous": false,
      "inputs": [
        {
          "indexed": true,
          "name": "to",
          "type": "address"
        },
        {
          "indexed": false,
          "name": "value",
          "type": "uint256"
        }
      ],
      "name": "FailedTransfer",
      "type": "event"
    },
    {
      "anonymous": false,
      "inputs": [
        {
          "indexed": true,
          "name": "_dealId",
          "type": "uint256"
        }
      ],
      "name": "DealFullyFunded",
      "type": "event"
    },
    {
      "constant": false,
      "inputs": [
        {
          "name": "_title",
          "type": "bytes32"
        },
        {
          "name": "_depositInWei",
          "type": "uint256"
        },
        {
          "name": "_numParticipants",
          "type": "uint256"
        }
      ],
      "name": "newDeal",
      "outputs": [
        {
          "name": "",
          "type": "uint8"
        }
      ],
      "payable": false,
      "stateMutability": "nonpayable",
      "type": "function"
    },
    {
      "constant": false,
      "inputs": [
        {
          "name": "dealId",
          "type": "uint256"
        },
        {
          "name": "encryptedDestAddress",
          "type": "bytes32"
        }
      ],
      "name": "makeDeposit",
      "outputs": [
        {
          "name": "",
          "type": "uint8"
        }
      ],
      "payable": true,
      "stateMutability": "payable",
      "type": "function"
    },
    {
      "constant": false,
      "inputs": [
        {
          "name": "dealId",
          "type": "uint256"
        },
        {
          "name": "destAddresses",
          "type": "address[]"
        }
      ],
      "name": "mixAddresses",
      "outputs": [
        {
          "name": "",
          "type": "uint256"
        },
        {
          "name": "",
          "type": "address[]"
        }
      ],
      "payable": false,
      "stateMutability": "nonpayable",
      "type": "function"
    },
    {
      "constant": false,
      "inputs": [
        {
          "name": "dealId",
          "type": "uint256"
        },
        {
          "name": "destAddresses",
          "type": "address[]"
        }
      ],
      "name": "setDestAddresses",
      "outputs": [
        {
          "name": "",
          "type": "uint8"
        }
      ],
      "payable": false,
      "stateMutability": "nonpayable",
      "type": "function"
    },
    {
      "constant": false,
      "inputs": [
        {
          "name": "dealId",
          "type": "uint256"
        }
      ],
      "name": "distribute",
      "outputs": [
        {
          "name": "",
          "type": "uint8"
        }
      ],
      "payable": false,
      "stateMutability": "nonpayable",
      "type": "function"
    },
    {
      "constant": true,
      "inputs": [],
      "name": "listDealTitles",
      "outputs": [
        {
          "name": "",
          "type": "bytes32[]"
        }
      ],
      "payable": false,
      "stateMutability": "view",
      "type": "function"
    },
    {
      "constant": true,
      "inputs": [
        {
          "name": "_dealId",
          "type": "uint256"
        }
      ],
      "name": "dealStatus",
      "outputs": [
        {
          "name": "",
          "type": "uint256[5]"
        }
      ],
      "payable": false,
      "stateMutability": "view",
      "type": "function"
    }
  ],
  "bytecode": "0x6060604052341561000f57600080fd5b6114f58061001e6000396000f300606060405260043610610083576000357c0100000000000000000000000000000000000000000000000000000000900463ffffffff1680632ea7996814610088578063306387a4146100cf5780636f70daf81461012e5780638e228bc01461019857806391c05b0b1461021d578063a06a585614610262578063cf3cf656146102bd575b600080fd5b6100ab60048080359060200190919080356000191690602001909190505061037c565b604051808260018111156100bb57fe5b60ff16815260200191505060405180910390f35b34156100da57600080fd5b6100f060048080359060200190919050506108b3565b6040518082600560200280838360005b8381101561011b578082015181840152602081019050610100565b5050505090500191505060405180910390f35b341561013957600080fd5b6101416109c6565b6040518080602001828103825283818151815260200191508051906020019060200280838360005b83811015610184578082015181840152602081019050610169565b505050509050019250505060405180910390f35b34156101a357600080fd5b6101f9600480803590602001909190803590602001908201803590602001908080602002602001604051908101604052809392919081815260200183836020028082843782019150505050505091905050610a45565b6040518082600181111561020957fe5b60ff16815260200191505060405180910390f35b341561022857600080fd5b61023e6004808035906020019091905050610b54565b6040518082600181111561024e57fe5b60ff16815260200191505060405180910390f35b341561026d57600080fd5b610299600480803560001916906020019091908035906020019091908035906020019091905050610ed3565b604051808260018111156102a957fe5b60ff16815260200191505060405180910390f35b34156102c857600080fd5b61031e6004808035906020019091908035906020019082018035906020019080806020026020016040519081016040528093929190818152602001838360200280828437820191505050505050919050506111ad565b6040518083815260200180602001828103825283818151815260200191508051906020019060200280838360005b8381101561036757808201518184015260208101905061034c565b50505050905001935050505060405180910390f35b6000806103876111c4565b600080925060003414156103d2576040805190810160405280601e81526020017f6465706f7369742076616c7565206d75737420626520706f73697469766500008152509150600192505b6000868154811015156103e157fe5b90600052602060002090600a020160090160009054906101000a900460ff161515610443576040805190810160405280601281526020017f6465616c206973206e6f742061637469766500000000000000000000000000008152509150600192505b60008681548110151561045257fe5b90600052602060002090600a02019050600081600501543481151561047357fe5b0611156104de57606060405190810160405280602f81526020017f6465706f7369742076616c7565206d7573742062652061206d756c7469706c6581526020017f206f6620636c61696d2076616c756500000000000000000000000000000000008152509150600192505b60008160010160003373ffffffffffffffffffffffffffffffffffffffff1673ffffffffffffffffffffffffffffffffffffffff16815260200190815260200160002054111561058c57606060405190810160405280602a81526020017f63616e6e6f74206465706f73697420747769636520776974682074686520736181526020017f6d652061646472657373000000000000000000000000000000000000000000008152509150600192505b8060090160019054906101000a900460ff16156105e0576040805190810160405280601e81526020017f6465616c20697320616c72656164792066756c6c696e672066756e64656400008152509150600192505b821561070857853373ffffffffffffffffffffffffffffffffffffffff167f9253951f3eff982bd56920e03d1dd72425977d70fae4ac8e2e0da3c564bfabcb87346000876040518085600019166000191681526020018481526020018315151515815260200180602001828103825283818151815260200191508051906020019080838360005b83811015610682578082015181840152602081019050610667565b50505050905090810190601f1680156106af5780820380516001836020036101000a031916815260200191505b509550505050505060405180910390a33373ffffffffffffffffffffffffffffffffffffffff166108fc349081150290604051600060405180830381858888f1935050505015156106ff57600080fd5b600193506108aa565b348160020160008282540192505081905550348160010160003373ffffffffffffffffffffffffffffffffffffffff1673ffffffffffffffffffffffffffffffffffffffff168152602001908152602001600020819055506001816003016000828254019250508190555080600701805480600101828161078991906111d8565b916000526020600020900160008790919091509060001916905550806006015481600301541015156108005760018160090160016101000a81548160ff021916908315150217905550857f38c728834d3279b1aa694222a5c1079e38e2d78a9543064bd3b50ffbfd030b3460405160405180910390a25b853373ffffffffffffffffffffffffffffffffffffffff167f9253951f3eff982bd56920e03d1dd72425977d70fae4ac8e2e0da3c564bfabcb873460016040518084600019166000191681526020018381526020018215151515815260200180602001828103825260088152602001807f616c6c20676f6f6400000000000000000000000000000000000000000000000081525060200194505050505060405180910390a3600093505b50505092915050565b6108bb611204565b600080600080600080878154811015156108d157fe5b90600052602060002090600a020160090160009054906101000a900460ff166108fb5760006108fe565b60015b60ff16945060008781548110151561091257fe5b90600052602060002090600a020160060154935060008781548110151561093557fe5b90600052602060002090600a020160030154925060008781548110151561095857fe5b90600052602060002090600a020160020154915060008781548110151561097b57fe5b90600052602060002090600a020160080180549050905060a0604051908101604052808681526020018581526020018481526020018381526020018281525095505050505050919050565b6109ce61122c565b6109d661122c565b60008090505b600080549050811015610a3d576000818154811015156109f857fe5b90600052602060002090600a0201600001548282815181101515610a1857fe5b90602001906020020190600019169081600019168152505080806001019150506109dc565b819250505090565b600080610a506111c4565b6000809250600086815481101515610a6457fe5b90600052602060002090600a020190508060090160009054906101000a900460ff161515610ac9576040805190810160405280601281526020017f6465616c206973206e6f742061637469766500000000000000000000000000008152509150600192505b8060090160019054906101000a900460ff161515610b1e576040805190810160405280601a81526020017f6465616c206973206e6f742066756c6c696e672066756e6465640000000000008152509150600192505b8215610b2d5760019350610b4b565b84816008019080519060200190610b45929190611240565b50600093505b50505092915050565b600080610b5f6111c4565b6000806000809450600087815481101515610b7657fe5b90600052602060002090600a020192508260060154836008018054905010159150811515610c0257606060405190810160405280602281526020017f6d697373696e6720736f6d652064657374696e6174696f6e206164647265737381526020017f65730000000000000000000000000000000000000000000000000000000000008152509350600194505b8415610d34578683600801604051808280548015610c7557602002820191906000526020600020905b8160009054906101000a900473ffffffffffffffffffffffffffffffffffffffff1673ffffffffffffffffffffffffffffffffffffffff1681526020019060010190808311610c2b575b505091505060405180910390207f498f8681ba5a2cd3330cf03b942b12ee80ef9f5cc11dc70f785399773cf19c1d600087604051808315151515815260200180602001828103825283818151815260200191508051906020019080838360005b83811015610cf0578082015181840152602081019050610cd5565b50505050905090810190601f168015610d1d5780820380516001836020036101000a031916815260200191505b50935050505060405180910390a360019550610ec9565b600090505b8260080180549050811015610dd5578260080181815481101515610d5957fe5b906000526020600020900160009054906101000a900473ffffffffffffffffffffffffffffffffffffffff1673ffffffffffffffffffffffffffffffffffffffff166108fc84600201549081150290604051600060405180830381858888f193505050501515610dc857600080fd5b8080600101915050610d39565b8683600801604051808280548015610e4257602002820191906000526020600020905b8160009054906101000a900473ffffffffffffffffffffffffffffffffffffffff1673ffffffffffffffffffffffffffffffffffffffff1681526020019060010190808311610df8575b505091505060405180910390207f498f8681ba5a2cd3330cf03b942b12ee80ef9f5cc11dc70f785399773cf19c1d6001604051808215151515815260200180602001828103825260088152602001807f616c6c20676f6f640000000000000000000000000000000000000000000000008152506020019250505060405180910390a3600095505b5050505050919050565b600080600080549050905060008054809190600101610ef291906112ca565b5084600082815481101515610f0357fe5b90600052602060002090600a0201600001816000191690555060008082815481101515610f2c57fe5b90600052602060002090600a02016002018190555060008082815481101515610f5157fe5b90600052602060002090600a02016003018190555042600082815481101515610f7657fe5b90600052602060002090600a02016004018190555083600082815481101515610f9b57fe5b90600052602060002090600a02016005018190555082600082815481101515610fc057fe5b90600052602060002090600a02016006018190555082604051805910610fe35750595b908082528060200260200182016040525060008281548110151561100357fe5b90600052602060002090600a020160070190805190602001906110279291906112fc565b50826040518059106110365750595b908082528060200260200182016040525060008281548110151561105657fe5b90600052602060002090600a0201600801908051906020019061107a929190611240565b506000808281548110151561108b57fe5b90600052602060002090600a020160090160016101000a81548160ff02191690831515021790555060016000828154811015156110c457fe5b90600052602060002090600a020160090160006101000a81548160ff021916908315150217905550803373ffffffffffffffffffffffffffffffffffffffff167f3f8aabc3a12e950c954455d2c33afc5d85a289ad74baae0ed96884daf85ba4104288888860016040518086815260200185600019166000191681526020018481526020018381526020018215151515815260200180602001828103825260088152602001807f616c6c20676f6f64000000000000000000000000000000000000000000000000815250602001965050505050505060405180910390a360009150509392505050565b60006111b761134f565b8383915091509250929050565b602060405190810160405280600081525090565b8154818355818115116111ff578183600052602060002091820191016111fe9190611363565b5b505050565b60a0604051908101604052806005905b60008152602001906001900390816112145790505090565b602060405190810160405280600081525090565b8280548282559060005260206000209081019282156112b9579160200282015b828111156112b85782518260006101000a81548173ffffffffffffffffffffffffffffffffffffffff021916908373ffffffffffffffffffffffffffffffffffffffff16021790555091602001919060010190611260565b5b5090506112c69190611388565b5090565b8154818355818115116112f757600a0281600a0283600052602060002091820191016112f691906113cb565b5b505050565b82805482825590600052602060002090810192821561133e579160200282015b8281111561133d57825182906000191690559160200191906001019061131c565b5b50905061134b9190611363565b5090565b602060405190810160405280600081525090565b61138591905b80821115611381576000816000905550600101611369565b5090565b90565b6113c891905b808211156113c457600081816101000a81549073ffffffffffffffffffffffffffffffffffffffff02191690555060010161138e565b5090565b90565b61145f91905b8082111561145b576000808201600090556002820160009055600382016000905560048201600090556005820160009055600682016000905560078201600061141a9190611462565b60088201600061142a9190611483565b6009820160006101000a81549060ff02191690556009820160016101000a81549060ff021916905550600a016113d1565b5090565b90565b50805460008255906000526020600020908101906114809190611363565b50565b50805460008255906000526020600020908101906114a191906114a4565b50565b6114c691905b808211156114c25760008160009055506001016114aa565b5090565b905600a165627a7a72305820cf3856b4bf11c2b2db69b4f40c5a4e32885eb803f5ff4e961ff368c50d92a0e90029",
  "source": "pragma solidity ^0.4.19;\n\n\ncontract CoinMixer {\n    struct Deal {\n        bytes32 title;\n        mapping(address => uint) deposit;\n        uint depositSum;\n        uint numDeposits;\n\n        uint startTime;\n        uint depositInWei;\n        uint numParticipants;\n\n        bytes32[] encryptedDestAddresses;\n        address[] destAddresses;\n\n        bool active;\n        bool fullyFunded;\n    }\n\n    struct DealSummary {\n        bytes32 title;\n    }\n\n    Deal[]  _deals;\n\n    event NewDeal(address indexed user, uint indexed _dealId, uint _startTime, bytes32 _title, uint _depositInWei, uint _numParticipants, bool _success, string _err);\n    event Deposit(address indexed _depositor, uint indexed _dealId, bytes32 _encryptedDestAddress, uint _value, bool _success, string _err);\n    event Distribute(address[] indexed _destAddresses, uint indexed _dealId, bool _success, string _err);\n\n    event TransferredToken(address indexed to, uint256 value);\n    event FailedTransfer(address indexed to, uint256 value);\n\n    event DealFullyFunded(uint indexed _dealId);\n\n    //    struct RunnerArgs {\n    //        uint dealId;\n    //        string[] encryptedDestAddresses;\n    //    }\n    //\n    //    event EngimaRun(string _runner, string _args, string _setter);\n\n    enum ReturnValue {Ok, Error}\n\n    function CoinMixer(){\n    }\n\n    function newDeal(bytes32 _title, uint _depositInWei, uint _numParticipants) returns (ReturnValue) {\n        uint dealId = _deals.length;\n\n        _deals.length++;\n        _deals[dealId].title = _title;\n        _deals[dealId].depositSum = 0;\n        _deals[dealId].numDeposits = 0;\n        _deals[dealId].startTime = now;\n        _deals[dealId].depositInWei = _depositInWei;\n        _deals[dealId].numParticipants = _numParticipants;\n        _deals[dealId].encryptedDestAddresses = new bytes32[](_numParticipants);\n        _deals[dealId].destAddresses = new address[](_numParticipants);\n        _deals[dealId].fullyFunded = false;\n        _deals[dealId].active = true;\n        NewDeal(msg.sender,\n            dealId,\n            now,\n            _title,\n            _depositInWei,\n            _numParticipants,\n            true,\n            \"all good\");\n        return ReturnValue.Ok;\n    }\n\n\n    function makeDeposit(uint dealId, bytes32 encryptedDestAddress) payable returns (ReturnValue){\n        bool errorDetected = false;\n        string memory error;\n        // validations\n        if (msg.value == 0) {\n            error = \"deposit value must be positive\";\n            errorDetected = true;\n        }\n        if (!_deals[dealId].active) {\n            error = \"deal is not active\";\n            errorDetected = true;\n        }\n        Deal deal = _deals[dealId];\n        if ((msg.value % deal.depositInWei) > 0) {\n            error = \"deposit value must be a multiple of claim value\";\n            errorDetected = true;\n        }\n        if (deal.deposit[msg.sender] > 0) {\n            error = \"cannot deposit twice with the same address\";\n            errorDetected = true;\n        }\n        if (deal.fullyFunded) {\n            error = \"deal is already fulling funded\";\n            errorDetected = true;\n        }\n\n        if (errorDetected) {\n            Deposit(msg.sender, dealId, encryptedDestAddress, msg.value, false, error);\n            if (!msg.sender.send(msg.value)) throw;\n            // send money back\n            return ReturnValue.Error;\n        }\n\n        // actual deposit\n        deal.depositSum += msg.value;\n        deal.deposit[msg.sender] = msg.value;\n        deal.numDeposits += 1;\n        deal.encryptedDestAddresses.push(encryptedDestAddress);\n\n        if (deal.numDeposits >= deal.numParticipants) {\n            deal.fullyFunded = true;\n            DealFullyFunded(dealId);\n\n            //            RunnerArgs memory args = RunnerArgs(dealId, deal.encryptedDestAddresses);\n            //            string args = '{\"dealId\":\"\", }';\n            //            EngimaRun(\"mixAddresses\", args, \"setDestAddresses\");\n        }\n\n        Deposit(msg.sender, dealId, encryptedDestAddress, msg.value, true, \"all good\");\n        return ReturnValue.Ok;\n    }\n\n    function mixAddresses(uint dealId, address[] destAddresses) returns (uint, address[]) {\n        // TODO: put mixing logic here\n        return (dealId, destAddresses);\n    }\n\n    function setDestAddresses(uint dealId, address[] destAddresses) returns (ReturnValue){\n        bool errorDetected = false;\n        string memory error;\n\n        Deal deal = _deals[dealId];\n        if (!deal.active) {\n            error = \"deal is not active\";\n            errorDetected = true;\n        }\n        if (!deal.fullyFunded) {\n            error = \"deal is not fulling funded\";\n            errorDetected = true;\n        }\n\n        if (errorDetected) {\n            return ReturnValue.Error;\n        }\n        deal.destAddresses = destAddresses;\n        return ReturnValue.Ok;\n    }\n\n\n    function distribute(uint dealId) returns (ReturnValue){\n        // validation\n        bool errorDetected = false;\n        string memory error;\n        Deal deal = _deals[dealId];\n        bool enoughAddresses = deal.destAddresses.length >= deal.numParticipants;\n        if (!enoughAddresses) {\n            error = \"missing some destination addresses\";\n            errorDetected = true;\n        }\n\n        if (errorDetected) {\n            Distribute(deal.destAddresses, dealId, false, error);\n            return ReturnValue.Error;\n        }\n\n\n        uint256 i = 0;\n        while (i < deal.destAddresses.length) {\n            deal.destAddresses[i].transfer(deal.depositSum);\n            i++;\n        }\n\n        Distribute(deal.destAddresses, dealId, true, \"all good\");\n        return ReturnValue.Ok;\n    }\n\n    function listDealTitles() public view returns (bytes32[]) {\n        bytes32[] memory titles;\n        uint256 dealId = 0;\n        while (dealId < _deals.length) {\n            titles[dealId] = _deals[dealId].title;\n            dealId++;\n        }\n        return titles;\n    }\n\n    ////////////////////////////////////////////////////////////////////////////////////////\n\n    function dealStatus(uint _dealId) constant returns (uint[5]){\n        uint active = _deals[_dealId].active ? 1 : 0;\n        uint numParticipants = _deals[_dealId].numParticipants;\n        uint numDeposits = _deals[_dealId].numDeposits;\n        uint depositSum = _deals[_dealId].depositSum;\n        uint numDestAddresses = _deals[_dealId].destAddresses.length;\n\n\n        return [active, numParticipants, numDeposits, depositSum, numDestAddresses];\n    }\n\n}\n\n",
  "sourcePath": "/Users/fredfortier/Code/enigma/coin-mixer-poc/dapp/contracts/CoinMixer.sol",
  "compiler": {
    "name": "solc",
    "version": "0.4.19+commit.c4cbbb05.Emscripten.clang"
  },
  "schemaVersion": "1.0.1",
  "updatedAt": "2018-02-23T03:10:09.910Z"
}