{
  "contractName": "CoinMixer",
  "abi": [
    {
      "inputs": [],
      "payable": false,
      "stateMutability": "nonpayable",
      "type": "constructor"
    },
    {
      "anonymous": false,
      "inputs": [
        {
          "indexed": true,
          "name": "user",
          "type": "address"
        },
        {
          "indexed": true,
          "name": "_dealId",
          "type": "uint256"
        },
        {
          "indexed": false,
          "name": "_startTime",
          "type": "uint256"
        },
        {
          "indexed": false,
          "name": "_title",
          "type": "bytes32"
        },
        {
          "indexed": false,
          "name": "_depositInWei",
          "type": "uint256"
        },
        {
          "indexed": false,
          "name": "_numParticipants",
          "type": "uint256"
        },
        {
          "indexed": false,
          "name": "_success",
          "type": "bool"
        },
        {
          "indexed": false,
          "name": "_err",
          "type": "string"
        }
      ],
      "name": "NewDeal",
      "type": "event"
    },
    {
      "anonymous": false,
      "inputs": [
        {
          "indexed": true,
          "name": "_depositor",
          "type": "address"
        },
        {
          "indexed": true,
          "name": "_dealId",
          "type": "uint256"
        },
        {
          "indexed": false,
          "name": "_encryptedDestAddress",
          "type": "bytes32"
        },
        {
          "indexed": false,
          "name": "_value",
          "type": "uint256"
        },
        {
          "indexed": false,
          "name": "_success",
          "type": "bool"
        },
        {
          "indexed": false,
          "name": "_err",
          "type": "string"
        }
      ],
      "name": "Deposit",
      "type": "event"
    },
    {
      "anonymous": false,
      "inputs": [
        {
          "indexed": true,
          "name": "_dealId",
          "type": "uint256"
        },
        {
          "indexed": false,
          "name": "_success",
          "type": "bool"
        },
        {
          "indexed": false,
          "name": "_err",
          "type": "string"
        }
      ],
      "name": "Distribute",
      "type": "event"
    },
    {
      "anonymous": false,
      "inputs": [
        {
          "indexed": true,
          "name": "to",
          "type": "address"
        },
        {
          "indexed": false,
          "name": "value",
          "type": "uint256"
        }
      ],
      "name": "TransferredToken",
      "type": "event"
    },
    {
      "anonymous": false,
      "inputs": [
        {
          "indexed": true,
          "name": "to",
          "type": "address"
        },
        {
          "indexed": false,
          "name": "value",
          "type": "uint256"
        }
      ],
      "name": "FailedTransfer",
      "type": "event"
    },
    {
      "anonymous": false,
      "inputs": [
        {
          "indexed": true,
          "name": "_dealId",
          "type": "uint256"
        }
      ],
      "name": "DealFullyFunded",
      "type": "event"
    },
    {
      "anonymous": false,
      "inputs": [
        {
          "indexed": true,
          "name": "_dealId",
          "type": "uint256"
        },
        {
          "indexed": false,
          "name": "n1",
          "type": "int8"
        },
        {
          "indexed": false,
          "name": "n2",
          "type": "int24"
        },
        {
          "indexed": false,
          "name": "_success",
          "type": "bool"
        }
      ],
      "name": "DealExecuted",
      "type": "event"
    },
    {
      "constant": false,
      "inputs": [
        {
          "name": "_title",
          "type": "bytes32"
        },
        {
          "name": "_depositInWei",
          "type": "uint256"
        },
        {
          "name": "_numParticipants",
          "type": "uint256"
        }
      ],
      "name": "newDeal",
      "outputs": [
        {
          "name": "",
          "type": "uint8"
        }
      ],
      "payable": false,
      "stateMutability": "nonpayable",
      "type": "function"
    },
    {
      "constant": false,
      "inputs": [
        {
          "name": "dealId",
          "type": "uint256"
        },
        {
          "name": "encryptedDestAddress",
          "type": "bytes32"
        }
      ],
      "name": "makeDeposit",
      "outputs": [
        {
          "name": "",
          "type": "uint8"
        }
      ],
      "payable": true,
      "stateMutability": "payable",
      "type": "function"
    },
    {
      "constant": false,
      "inputs": [
        {
          "name": "dealId",
          "type": "uint256"
        }
      ],
      "name": "executeDeal",
      "outputs": [],
      "payable": true,
      "stateMutability": "payable",
      "type": "function"
    },
    {
      "constant": true,
      "inputs": [
        {
          "name": "dealId",
          "type": "uint256"
        },
        {
          "name": "destAddresses",
          "type": "address[]"
        },
        {
          "name": "second",
          "type": "address[]"
        }
      ],
      "name": "mixAddresses",
      "outputs": [
        {
          "name": "",
          "type": "uint256"
        },
        {
          "name": "",
          "type": "address[]"
        }
      ],
      "payable": false,
      "stateMutability": "pure",
      "type": "function"
    },
    {
      "constant": false,
      "inputs": [
        {
          "name": "dealId",
          "type": "uint256"
        },
        {
          "name": "destAddresses",
          "type": "address[]"
        }
      ],
      "name": "distribute",
      "outputs": [
        {
          "name": "",
          "type": "uint8"
        }
      ],
      "payable": false,
      "stateMutability": "nonpayable",
      "type": "function"
    },
    {
      "constant": true,
      "inputs": [],
      "name": "listDeals",
      "outputs": [
        {
          "name": "",
          "type": "uint256[]"
        },
        {
          "name": "",
          "type": "uint256[]"
        },
        {
          "name": "",
          "type": "uint256[]"
        }
      ],
      "payable": false,
      "stateMutability": "view",
      "type": "function"
    },
    {
      "constant": true,
      "inputs": [
        {
          "name": "_dealId",
          "type": "uint256"
        }
      ],
      "name": "dealStatus",
      "outputs": [
        {
          "name": "",
          "type": "bytes32"
        },
        {
          "name": "",
          "type": "uint256"
        },
        {
          "name": "",
          "type": "uint256"
        },
        {
          "name": "",
          "type": "uint256"
        },
        {
          "name": "",
          "type": "uint256"
        },
        {
          "name": "",
          "type": "uint256"
        }
      ],
      "payable": false,
      "stateMutability": "view",
      "type": "function"
    },
    {
      "constant": true,
      "inputs": [
        {
          "name": "_dealId",
          "type": "uint256"
        }
      ],
      "name": "getEncryptedAddresses",
      "outputs": [
        {
          "name": "",
          "type": "bytes32[]"
        }
      ],
      "payable": false,
      "stateMutability": "view",
      "type": "function"
    }
  ],
  "bytecode": "0x608060405234801561001057600080fd5b507374e3fc764c2474f25369b9d021b7f92e8441a2dc6000806101000a81548173ffffffffffffffffffffffffffffffffffffffff021916908373ffffffffffffffffffffffffffffffffffffffff160217905550611bd8806100746000396000f30060806040526004361061008e576000357c0100000000000000000000000000000000000000000000000000000000900463ffffffff16806310f11e841461009357806323cb0cee1461018f5780632ea79968146101af578063306387a4146101ff5780635e562a6f1461026b57806385e3c463146102ed578063a06a58561461037f578063d2653e08146103e6575b600080fd5b34801561009f57600080fd5b506100a86104f5565b60405180806020018060200180602001848103845287818151815260200191508051906020019060200280838360005b838110156100f35780820151818401526020810190506100d8565b50505050905001848103835286818151815260200191508051906020019060200280838360005b8381101561013557808201518184015260208101905061011a565b50505050905001848103825285818151815260200191508051906020019060200280838360005b8381101561017757808201518184015260208101905061015c565b50505050905001965050505050505060405180910390f35b6101ad6004803603810190808035906020019092919050505061072b565b005b6101db60048036038101908080359060200190929190803560001916906020019092919050505061094e565b604051808260018111156101eb57fe5b60ff16815260200191505060405180910390f35b34801561020b57600080fd5b5061022a60048036038101908080359060200190929190505050610e0f565b604051808760001916600019168152602001868152602001858152602001848152602001838152602001828152602001965050505050505060405180910390f35b34801561027757600080fd5b5061029660048036038101908080359060200190929190505050610f17565b6040518080602001828103825283818151815260200191508051906020019060200280838360005b838110156102d95780820151818401526020810190506102be565b505050509050019250505060405180910390f35b3480156102f957600080fd5b5061035b6004803603810190808035906020019092919080359060200190820180359060200190808060200260200160405190810160405280939291908181526020018383602002808284378201915050505050509192919290505050610f93565b6040518082600181111561036b57fe5b60ff16815260200191505060405180910390f35b34801561038b57600080fd5b506103c260048036038101908080356000191690602001909291908035906020019092919080359060200190929190505050611388565b604051808260018111156103d257fe5b60ff16815260200191505060405180910390f35b3480156103f257600080fd5b5061049760048036038101908080359060200190929190803590602001908201803590602001908080602002602001604051908101604052809392919081815260200183836020028082843782019150505050505091929192908035906020019082018035906020019080806020026020016040519081016040528093929190818152602001838360200280828437820191505050505050919291929050505061169a565b6040518083815260200180602001828103825283818151815260200191508051906020019060200280838360005b838110156104e05780820151818401526020810190506104c5565b50505050905001935050505060405180910390f35b60608060608060608060006001805490506040519080825280602002602001820160405280156105345781602001602082028038833980820191505090505b50935060018054905060405190808252806020026020018201604052801561056b5781602001602082028038833980820191505090505b5092506001805490506040519080825280602002602001820160405280156105a25781602001602082028038833980820191505090505b509150600090505b600180549050811015610719576001818154811015156105c657fe5b90600052602060002090600b0201600a015484828151811015156105e657fe5b9060200190602002018181525050600060018281548110151561060557fe5b90600052602060002090600b020160020160003373ffffffffffffffffffffffffffffffffffffffff1673ffffffffffffffffffffffffffffffffffffffff168152602001908152602001600020541115610679576001838281518110151561066a57fe5b90602001906020020181815250505b3373ffffffffffffffffffffffffffffffffffffffff1660018281548110151561069f57fe5b90600052602060002090600b020160000160009054906101000a900473ffffffffffffffffffffffffffffffffffffffff1673ffffffffffffffffffffffffffffffffffffffff16141561070c57600182828151811015156106fd57fe5b90602001906020020181815250505b80806001019150506105aa565b83838396509650965050505050909192565b60006060600080600080600080600080600060018c81548110151561074c57fe5b90600052602060002090600b02019a50604080519080825280601f01601f19166020018201604052801561078f5781602001602082028038833980820191505090505b5099507ffffffffffffffffffffffffffffffffffffffffffffffffffffffffffffffff49850620ccccc97506313de435596507ffffffffffffffffffffffffffffffffffffffffffffffffffffffff5a6e798e495507315b7926835a7c2fd6d297e3adecc5b45f7309f599450731cb5cf010e407afc6249627bfd769d82d8dbbf71935060409250610825838a60000b8c6116ac565b61082f60086116b6565b83039250610841838960020b8c6116ac565b61084b60186118e5565b83039250610860838863ffffffff168c6118f7565b61086a60206116b6565b8303925061087c8387600f0b8c6116ac565b61088660806118e5565b8303925061089583868c611901565b61089d61190b565b60ff16830392506108af83858c611901565b604092506108bd838b611914565b91506108c960086116b6565b830392506108d7838b611922565b90506108e360186118e5565b830392508b7fc57ef5d2f96e846c193b00212f40b31b689ee12f27cc0502464fca1fea66236b83836001604051808460000b60000b81526020018360020b60020b815260200182151515158152602001935050505060405180910390a2505050505050505050505050565b60008060606000809250600034141561099e576040805190810160405280601e81526020017f6465706f7369742076616c7565206d75737420626520706f73697469766500008152509150600192505b60006001878154811015156109af57fe5b90600052602060002090600b0201600a0154141515610a05576040805190810160405280601281526020017f6465616c206973206e6f742061637469766500000000000000000000000000008152509150600192505b600186815481101515610a1457fe5b90600052602060002090600b020190506000816006015434811515610a3557fe5b061115610aa057606060405190810160405280602f81526020017f6465706f7369742076616c7565206d7573742062652061206d756c7469706c6581526020017f206f6620636c61696d2076616c756500000000000000000000000000000000008152509150600192505b60008160020160003373ffffffffffffffffffffffffffffffffffffffff1673ffffffffffffffffffffffffffffffffffffffff168152602001908152602001600020541115610b4e57606060405190810160405280602a81526020017f63616e6e6f74206465706f73697420747769636520776974682074686520736181526020017f6d652061646472657373000000000000000000000000000000000000000000008152509150600192505b600181600a01541415610b98576040805190810160405280601e81526020017f6465616c20697320616c72656164792066756c6c696e672066756e64656400008152509150600192505b8215610c8057853373ffffffffffffffffffffffffffffffffffffffff167f9253951f3eff982bd56920e03d1dd72425977d70fae4ac8e2e0da3c564bfabcb87346000876040518085600019166000191681526020018481526020018315151515815260200180602001828103825283818151815260200191508051906020019080838360005b83811015610c3a578082015181840152602081019050610c1f565b50505050905090810190601f168015610c675780820380516001836020036101000a031916815260200191505b509550505050505060405180910390a360019350610e06565b348160030160008282540192505081905550348160020160003373ffffffffffffffffffffffffffffffffffffffff1673ffffffffffffffffffffffffffffffffffffffff1681526020019081526020016000208190555084816008018260040154815481101515610cee57fe5b90600052602060002001816000191690555060018160040160008282540192505081905550853373ffffffffffffffffffffffffffffffffffffffff167f9253951f3eff982bd56920e03d1dd72425977d70fae4ac8e2e0da3c564bfabcb873460016040518084600019166000191681526020018381526020018215151515815260200180602001828103825260088152602001807f616c6c20676f6f6400000000000000000000000000000000000000000000000081525060200194505050505060405180910390a380600701548160040154101515610e0157600181600a0181905550857f38c728834d3279b1aa694222a5c1079e38e2d78a9543064bd3b50ffbfd030b3460405160405180910390a25b600093505b50505092915050565b60008060008060008060008060008060008060018d815481101515610e3057fe5b90600052602060002090600b020160010154955060018d815481101515610e5357fe5b90600052602060002090600b020160070154945060018d815481101515610e7657fe5b90600052602060002090600b020160060154935060018d815481101515610e9957fe5b90600052602060002090600b020160040154925060018d815481101515610ebc57fe5b90600052602060002090600b020160030154915060018d815481101515610edf57fe5b90600052602060002090600b02016009018054905090508585858585859b509b509b509b509b509b5050505050505091939550919395565b6060600182815481101515610f2857fe5b90600052602060002090600b0201600801805480602002602001604051908101604052809291908181526020018280548015610f8757602002820191906000526020600020905b81546000191681526020019060010190808311610f6f575b50505050509050919050565b60008060606000806000809450600188815481101515610faf57fe5b90600052602060002090600b02019250600083600a015414151561100a576040805190810160405280601281526020017f6465616c206973206e6f742061637469766500000000000000000000000000008152509350600194505b600183600a0154141515611055576040805190810160405280601a81526020017f6465616c206973206e6f742066756c6c696e672066756e6465640000000000008152509350600194505b841561110e57877f354e1ddaa2fab096efb3d49c4d2ce86db3174dba7ba4f2c07e08742466a2c215600086604051808315151515815260200180602001828103825283818151815260200191508051906020019080838360005b838110156110ca5780820151818401526020810190506110af565b50505050905090810190601f1680156110f75780820380516001836020036101000a031916815260200191505b50935050505060405180910390a26001955061137d565b86836009019080519060200190611126929190611930565b50826007015483600901805490501491508115156111a257606060405190810160405280602281526020017f6d697373696e6720736f6d652064657374696e6174696f6e206164647265737381526020017f65730000000000000000000000000000000000000000000000000000000000008152509350600194505b841561125b57877f354e1ddaa2fab096efb3d49c4d2ce86db3174dba7ba4f2c07e08742466a2c215600086604051808315151515815260200180602001828103825283818151815260200191508051906020019080838360005b838110156112175780820151818401526020810190506111fc565b50505050905090810190601f1680156112445780820380516001836020036101000a031916815260200191505b50935050505060405180910390a26001955061137d565b600090505b826009018054905081101561130257826009018181548110151561128057fe5b9060005260206000200160009054906101000a900473ffffffffffffffffffffffffffffffffffffffff1673ffffffffffffffffffffffffffffffffffffffff166108fc84600301549081150290604051600060405180830381858888f193505050501580156112f4573d6000803e3d6000fd5b508080600101915050611260565b877f354e1ddaa2fab096efb3d49c4d2ce86db3174dba7ba4f2c07e08742466a2c2156001604051808215151515815260200180602001828103825260088152602001807f616c6c20676f6f640000000000000000000000000000000000000000000000008152506020019250505060405180910390a2600095505b505050505092915050565b6000806001805490509050600180548091906001016113a791906119ba565b50336001828154811015156113b857fe5b90600052602060002090600b020160000160006101000a81548173ffffffffffffffffffffffffffffffffffffffff021916908373ffffffffffffffffffffffffffffffffffffffff1602179055508460018281548110151561141757fe5b90600052602060002090600b02016001018160001916905550600060018281548110151561144157fe5b90600052602060002090600b020160030181905550600060018281548110151561146757fe5b90600052602060002090600b0201600401819055504260018281548110151561148c57fe5b90600052602060002090600b020160050181905550836001828154811015156114b157fe5b90600052602060002090600b020160060181905550826001828154811015156114d657fe5b90600052602060002090600b0201600701819055508260405190808252806020026020018201604052801561151a5781602001602082028038833980820191505090505b5060018281548110151561152a57fe5b90600052602060002090600b0201600801908051906020019061154e9291906119ec565b508260405190808252806020026020018201604052801561157e5781602001602082028038833980820191505090505b5060018281548110151561158e57fe5b90600052602060002090600b020160090190805190602001906115b2929190611930565b5060006001828154811015156115c457fe5b90600052602060002090600b0201600a0181905550803373ffffffffffffffffffffffffffffffffffffffff167f3f8aabc3a12e950c954455d2c33afc5d85a289ad74baae0ed96884daf85ba4104288888860016040518086815260200185600019166000191681526020018481526020018381526020018215151515815260200180602001828103825260088152602001807f616c6c20676f6f64000000000000000000000000000000000000000000000000815250602001965050505050505060405180910390a360009150509392505050565b60006060848491509150935093915050565b8183820152505050565b600081600881146117c357601081146117cc57601881146117d557602081146117de57602881146117e757603081146117f057603881146117f95760408114611802576048811461180b5760508114611814576058811461181d5760608114611826576068811461182f57607081146118385760788114611841576080811461184a5760888114611853576090811461185c57609881146118655760a0811461186e5760a881146118775760b081146118805760b881146118895760c081146118925760c8811461189b5760d081146118a45760d881146118ad5760e081146118b65760e881146118bf5760f081146118c85760f881146118d15761010081146118da57602091506118df565b600191506118df565b600291506118df565b600391506118df565b600491506118df565b600591506118df565b600691506118df565b600791506118df565b600891506118df565b600991506118df565b600a91506118df565b600b91506118df565b600c91506118df565b600d91506118df565b600e91506118df565b600f91506118df565b601091506118df565b601191506118df565b601291506118df565b601391506118df565b601491506118df565b601591506118df565b601691506118df565b601791506118df565b601891506118df565b601991506118df565b601a91506118df565b601b91506118df565b601c91506118df565b601d91506118df565b601e91506118df565b601f91506118df565b602091505b50919050565b60006118f0826116b6565b9050919050565b8183820152505050565b8183820152505050565b60006014905090565b600082820151905092915050565b600082820151905092915050565b8280548282559060005260206000209081019282156119a9579160200282015b828111156119a85782518260006101000a81548173ffffffffffffffffffffffffffffffffffffffff021916908373ffffffffffffffffffffffffffffffffffffffff16021790555091602001919060010190611950565b5b5090506119b69190611a3f565b5090565b8154818355818111156119e757600b0281600b0283600052602060002091820191016119e69190611a82565b5b505050565b828054828255906000526020600020908101928215611a2e579160200282015b82811115611a2d578251829060001916905591602001919060010190611a0c565b5b509050611a3b9190611b20565b5090565b611a7f91905b80821115611a7b57600081816101000a81549073ffffffffffffffffffffffffffffffffffffffff021916905550600101611a45565b5090565b90565b611b1d91905b80821115611b1957600080820160006101000a81549073ffffffffffffffffffffffffffffffffffffffff0219169055600182016000905560038201600090556004820160009055600582016000905560068201600090556007820160009055600882016000611af89190611b45565b600982016000611b089190611b66565b600a82016000905550600b01611a88565b5090565b90565b611b4291905b80821115611b3e576000816000905550600101611b26565b5090565b90565b5080546000825590600052602060002090810190611b639190611b20565b50565b5080546000825590600052602060002090810190611b849190611b87565b50565b611ba991905b80821115611ba5576000816000905550600101611b8d565b5090565b905600a165627a7a72305820bbf28369034d829baf1806976d94afab1724822ebe4a0e7d57c9afde2b5c58310029",
  "source": "pragma solidity ^0.4.22;\n\nimport \"./Enigma.sol\";\nimport \"./EnigmaP.sol\";\n\ncontract CoinMixer is EnigmaP {\n    Enigma enigma;\n\n    struct Deal {\n        address organizer;\n        bytes32 title;\n        mapping(address => uint) deposit;\n        uint depositSum;\n        uint numDeposits;\n\n        uint startTime;\n        uint depositInWei;\n        uint numParticipants;\n\n        bytes32[] encryptedDestAddresses;\n        address[] destAddresses;\n\n        uint status; // 0: active; 1: funded; 2: executed; 3: cancelled\n    }\n\n    Deal[] deals;\n\n    event NewDeal(address indexed user, uint indexed _dealId, uint _startTime, bytes32 _title, uint _depositInWei, uint _numParticipants, bool _success, string _err);\n    event Deposit(address indexed _depositor, uint indexed _dealId, bytes32 _encryptedDestAddress, uint _value, bool _success, string _err);\n    event Distribute(uint indexed _dealId, bool _success, string _err);\n\n    event TransferredToken(address indexed to, uint256 value);\n    event FailedTransfer(address indexed to, uint256 value);\n\n    event DealFullyFunded(uint indexed _dealId);\n    event DealExecuted(uint indexed _dealId, int8 n1, int24 n2, bool _success);\n\n\n    // TODO: switch to require() once it accepts a message parameter\n    enum ReturnValue {Ok, Error}\n\n    function CoinMixer() public {\n        // TODO: consider externalizing in library\n        enigma = Enigma(0x74e3fc764c2474f25369b9d021b7f92e8441a2dc);\n    }\n\n    function newDeal(bytes32 _title, uint _depositInWei, uint _numParticipants)\n    public\n    returns (ReturnValue) {\n        uint dealId = deals.length;\n\n        deals.length++;\n        deals[dealId].organizer = msg.sender;\n        deals[dealId].title = _title;\n        deals[dealId].depositSum = 0;\n        deals[dealId].numDeposits = 0;\n        deals[dealId].startTime = now;\n        deals[dealId].depositInWei = _depositInWei;\n        deals[dealId].numParticipants = _numParticipants;\n        deals[dealId].encryptedDestAddresses = new bytes32[](_numParticipants);\n        deals[dealId].destAddresses = new address[](_numParticipants);\n        deals[dealId].status = 0;\n        NewDeal(msg.sender,\n            dealId,\n            now,\n            _title,\n            _depositInWei,\n            _numParticipants,\n            true,\n            \"all good\");\n        return ReturnValue.Ok;\n    }\n\n    function makeDeposit(uint dealId, bytes32 encryptedDestAddress)\n    public\n    payable\n    returns (ReturnValue){\n        bool errorDetected = false;\n        string memory error;\n        // validations\n        if (msg.value == 0) {\n            error = \"deposit value must be positive\";\n            errorDetected = true;\n        }\n        if (deals[dealId].status != 0) {\n            error = \"deal is not active\";\n            errorDetected = true;\n        }\n\n        Deal storage deal = deals[dealId];\n        if ((msg.value % deal.depositInWei) > 0) {\n            error = \"deposit value must be a multiple of claim value\";\n            errorDetected = true;\n        }\n        if (deal.deposit[msg.sender] > 0) {\n            error = \"cannot deposit twice with the same address\";\n            errorDetected = true;\n        }\n        if (deal.status == 1) {\n            error = \"deal is already fulling funded\";\n            errorDetected = true;\n        }\n        if (errorDetected) {\n            Deposit(msg.sender, dealId, encryptedDestAddress, msg.value, false, error);\n            // send money back\n            return ReturnValue.Error;\n        }\n\n        // actual deposit\n        deal.depositSum += msg.value;\n        deal.deposit[msg.sender] = msg.value;\n        deal.encryptedDestAddresses[deal.numDeposits] = encryptedDestAddress;\n        deal.numDeposits += 1;\n\n        Deposit(msg.sender, dealId, encryptedDestAddress, msg.value, true, \"all good\");\n\n        if (deal.numDeposits >= deal.numParticipants) {\n            deal.status = 1;\n            DealFullyFunded(dealId);\n        }\n        return ReturnValue.Ok;\n    }\n\n    function executeDeal(uint dealId)\n    public\n    payable\n    {\n        // Execute the deal and pay for computation\n        Deal storage deal = deals[dealId];\n\n        bytes memory buffer = new bytes(64);\n        int8 out1 = - 12;\n        int24 out2 = 838860;\n        uint32 out3 = 333333333;\n        int128 out4 = - 44444444444;\n        address out5 = 0x15B7926835A7C2FD6D297E3ADECC5B45F7309F59;\n        address out6 = 0x1CB5CF010E407AFC6249627BFD769D82D8DBBF71;\n\n        // Serializing\n        uint offset = 64;\n\n        intToBytes(offset, out1, buffer);\n        offset -= sizeOfInt(8);\n\n        intToBytes(offset, out2, buffer);\n        offset -= sizeOfUint(24);\n\n        uintToBytes(offset, out3, buffer);\n        offset -= sizeOfInt(32);\n\n        intToBytes(offset, out4, buffer);\n        offset -= sizeOfUint(128);\n\n        addressToBytes(offset, out5, buffer);\n        offset -= sizeOfAddress();\n\n        addressToBytes(offset, out6, buffer);\n\n        // Deserializing\n        offset = 64;\n\n        int8 n1 = bytesToInt8(offset, buffer);\n        offset -= sizeOfInt(8);\n\n        int24 n2 = bytesToInt24(offset, buffer);\n        offset -= sizeOfUint(24);\n        //\n        //        int32 n3 = bytesToUint8(offset, buffer);\n        //        offset -= sizeOfInt(32);\n\n        DealExecuted(dealId, n1, n2, true);\n        // TODO: consider encapsulating param encoding in library\n        // For now, I'm adding adding the dealId as the first argument.\n        // The logic looks like this: f(bytes32 dealId, bytes32 encryptedDestAddresses1, bytes32 encryptedDestAddresses1, ...)\n        // This works fine until we have to support more than one dynamic array.\n        //        bytes32[] memory args = new bytes32[](deal.numDeposits + 1);\n        //        args[0] = uintToBytes(dealId);\n        //        for (uint i = 0; i < deal.encryptedDestAddresses.length; i++) {\n        //            args[i + 1] = deal.encryptedDestAddresses[i];\n        //        }\n        // Pre-processing\n        // 1. Decrypt arguments\n        // 2. Apply service parameters\n        // TODO: pass randomization parameters\n        //            enigma.compute.value(msg.value)(msg.sender, this, \"mixAddresses\", args, \"distribute\");\n    }\n\n    function mixAddresses(uint dealId, address[] destAddresses, address[] second)\n    public\n    pure\n    returns (uint, address[]) {\n        // TODO: put mixing logic here\n        //        random()\n        return (dealId, destAddresses);\n    }\n\n    function distribute(uint dealId, address[] destAddresses)\n    public\n    returns (ReturnValue){\n        bool errorDetected = false;\n        string memory error;\n\n        Deal storage deal = deals[dealId];\n        if (deal.status != 0) {\n            error = \"deal is not active\";\n            errorDetected = true;\n        }\n        if (deal.status != 1) {\n            error = \"deal is not fulling funded\";\n            errorDetected = true;\n        }\n        if (errorDetected) {\n            Distribute(dealId, false, error);\n            return ReturnValue.Error;\n        }\n        deal.destAddresses = destAddresses;\n\n        bool enoughAddresses = deal.destAddresses.length == deal.numParticipants;\n        if (!enoughAddresses) {\n            error = \"missing some destination addresses\";\n            errorDetected = true;\n        }\n        if (errorDetected) {\n            Distribute(dealId, false, error);\n            return ReturnValue.Error;\n        }\n\n        for (uint i = 0; i < deal.destAddresses.length; i++) {\n            deal.destAddresses[i].transfer(deal.depositSum);\n        }\n\n        Distribute(dealId, true, \"all good\");\n        return ReturnValue.Ok;\n    }\n\n    function listDeals() public view returns (uint[], uint[], uint[]) {\n        // A list of deals with their key properties\n        uint[] memory status = new uint[](deals.length);\n        uint[] memory participates = new uint[](deals.length);\n        uint[] memory organizes = new uint[](deals.length);\n\n        for (uint i = 0; i < deals.length; i++) {\n            status[i] = deals[i].status;\n\n            if (deals[i].deposit[msg.sender] > 0) {\n                participates[i] = 1;\n            }\n\n            if (deals[i].organizer == msg.sender) {\n                organizes[i] = 1;\n            }\n        }\n        return (status, participates, organizes);\n    }\n\n    function dealStatus(uint _dealId)\n    public\n    view\n    returns (bytes32, uint, uint, uint, uint, uint){\n        // Key attributes of a deal\n        bytes32 title = deals[_dealId].title;\n        uint numParticipants = deals[_dealId].numParticipants;\n        uint deposit = deals[_dealId].depositInWei;\n        uint numDeposits = deals[_dealId].numDeposits;\n        uint depositSum = deals[_dealId].depositSum;\n        uint numDestAddresses = deals[_dealId].destAddresses.length;\n\n        return (title, numParticipants, deposit, numDeposits, depositSum, numDestAddresses);\n    }\n\n    function getEncryptedAddresses(uint _dealId) public view returns (bytes32[]) {\n        // Returns an array of encrypted addresses\n        return deals[_dealId].encryptedDestAddresses;\n    }\n\n    function uintToBytes(uint v) private pure returns (bytes32 ret) {\n        // Serialize bytes to int\n        // TODO: cleanup and externalize\n        if (v == 0) {\n            ret = '0';\n        }\n        else {\n            while (v > 0) {\n                ret = bytes32(uint(ret) / (2 ** 8));\n                ret |= bytes32(((v % 10) + 48) * 2 ** (8 * 31));\n                v /= 10;\n            }\n        }\n        return ret;\n    }\n\n}\n\n",
  "sourcePath": "/Users/fredfortier/Code/enigma/coin-mixer-poc/dapp/contracts/CoinMixer.sol",
  "compiler": {
    "name": "solc",
    "version": "0.4.23+commit.124ca40d.Emscripten.clang"
  },
  "schemaVersion": "2.0.0",
  "updatedAt": "2018-04-19T23:39:36.025Z"
}