{
  "contractName": "CoinMixer",
  "abi": [
    {
      "inputs": [],
      "payable": false,
      "stateMutability": "nonpayable",
      "type": "constructor"
    },
    {
      "anonymous": false,
      "inputs": [
        {
          "indexed": true,
          "name": "user",
          "type": "address"
        },
        {
          "indexed": true,
          "name": "_dealId",
          "type": "uint256"
        },
        {
          "indexed": false,
          "name": "_startTime",
          "type": "uint256"
        },
        {
          "indexed": false,
          "name": "_title",
          "type": "bytes32"
        },
        {
          "indexed": false,
          "name": "_depositInWei",
          "type": "uint256"
        },
        {
          "indexed": false,
          "name": "_numParticipants",
          "type": "uint256"
        },
        {
          "indexed": false,
          "name": "_success",
          "type": "bool"
        },
        {
          "indexed": false,
          "name": "_err",
          "type": "string"
        }
      ],
      "name": "NewDeal",
      "type": "event"
    },
    {
      "anonymous": false,
      "inputs": [
        {
          "indexed": true,
          "name": "_depositor",
          "type": "address"
        },
        {
          "indexed": true,
          "name": "_dealId",
          "type": "uint256"
        },
        {
          "indexed": false,
          "name": "_encryptedDestAddress",
          "type": "bytes32"
        },
        {
          "indexed": false,
          "name": "_value",
          "type": "uint256"
        },
        {
          "indexed": false,
          "name": "_success",
          "type": "bool"
        },
        {
          "indexed": false,
          "name": "_err",
          "type": "string"
        }
      ],
      "name": "Deposit",
      "type": "event"
    },
    {
      "anonymous": false,
      "inputs": [
        {
          "indexed": true,
          "name": "_dealId",
          "type": "uint256"
        },
        {
          "indexed": false,
          "name": "_success",
          "type": "bool"
        },
        {
          "indexed": false,
          "name": "_err",
          "type": "string"
        }
      ],
      "name": "Distribute",
      "type": "event"
    },
    {
      "anonymous": false,
      "inputs": [
        {
          "indexed": true,
          "name": "to",
          "type": "address"
        },
        {
          "indexed": false,
          "name": "value",
          "type": "uint256"
        }
      ],
      "name": "TransferredToken",
      "type": "event"
    },
    {
      "anonymous": false,
      "inputs": [
        {
          "indexed": true,
          "name": "to",
          "type": "address"
        },
        {
          "indexed": false,
          "name": "value",
          "type": "uint256"
        }
      ],
      "name": "FailedTransfer",
      "type": "event"
    },
    {
      "anonymous": false,
      "inputs": [
        {
          "indexed": true,
          "name": "_dealId",
          "type": "uint256"
        }
      ],
      "name": "DealFullyFunded",
      "type": "event"
    },
    {
      "constant": false,
      "inputs": [
        {
          "name": "_title",
          "type": "bytes32"
        },
        {
          "name": "_depositInWei",
          "type": "uint256"
        },
        {
          "name": "_numParticipants",
          "type": "uint256"
        }
      ],
      "name": "newDeal",
      "outputs": [
        {
          "name": "",
          "type": "uint8"
        }
      ],
      "payable": false,
      "stateMutability": "nonpayable",
      "type": "function"
    },
    {
      "constant": false,
      "inputs": [
        {
          "name": "dealId",
          "type": "uint256"
        },
        {
          "name": "encryptedDestAddress",
          "type": "bytes32"
        }
      ],
      "name": "makeDeposit",
      "outputs": [
        {
          "name": "",
          "type": "uint8"
        }
      ],
      "payable": true,
      "stateMutability": "payable",
      "type": "function"
    },
    {
      "constant": true,
      "inputs": [
        {
          "name": "dealId",
          "type": "uint256"
        },
        {
          "name": "destAddresses",
          "type": "address[]"
        }
      ],
      "name": "mixAddresses",
      "outputs": [
        {
          "name": "",
          "type": "uint256"
        },
        {
          "name": "",
          "type": "address[]"
        }
      ],
      "payable": false,
      "stateMutability": "pure",
      "type": "function"
    },
    {
      "constant": false,
      "inputs": [
        {
          "name": "dealId",
          "type": "uint256"
        },
        {
          "name": "destAddresses",
          "type": "address[]"
        }
      ],
      "name": "distribute",
      "outputs": [
        {
          "name": "",
          "type": "uint8"
        }
      ],
      "payable": false,
      "stateMutability": "nonpayable",
      "type": "function"
    },
    {
      "constant": true,
      "inputs": [],
      "name": "listDeals",
      "outputs": [
        {
          "name": "",
          "type": "uint256[]"
        },
        {
          "name": "",
          "type": "uint256[]"
        },
        {
          "name": "",
          "type": "uint256[]"
        }
      ],
      "payable": false,
      "stateMutability": "view",
      "type": "function"
    },
    {
      "constant": true,
      "inputs": [
        {
          "name": "_dealId",
          "type": "uint256"
        }
      ],
      "name": "dealStatus",
      "outputs": [
        {
          "name": "",
          "type": "bytes32"
        },
        {
          "name": "",
          "type": "uint256"
        },
        {
          "name": "",
          "type": "uint256"
        },
        {
          "name": "",
          "type": "uint256"
        },
        {
          "name": "",
          "type": "uint256"
        },
        {
          "name": "",
          "type": "uint256"
        }
      ],
      "payable": false,
      "stateMutability": "view",
      "type": "function"
    },
    {
      "constant": true,
      "inputs": [
        {
          "name": "_dealId",
          "type": "uint256"
        }
      ],
      "name": "getEncryptedAddresses",
      "outputs": [
        {
          "name": "",
          "type": "bytes32[]"
        }
      ],
      "payable": false,
      "stateMutability": "view",
      "type": "function"
    }
  ],
  "bytecode": "0x6060604052341561000f57600080fd5b7374e3fc764c2474f25369b9d021b7f92e8441a2dc6000806101000a81548173ffffffffffffffffffffffffffffffffffffffff021916908373ffffffffffffffffffffffffffffffffffffffff1602179055506116b2806100726000396000f300606060405260043610610083576000357c0100000000000000000000000000000000000000000000000000000000900463ffffffff16806310f11e84146100885780632ea7996814610182578063306387a4146101c95780635e562a6f1461022b57806385e3c463146102a3578063a06a585614610328578063cf3cf65614610383575b600080fd5b341561009357600080fd5b61009b610442565b60405180806020018060200180602001848103845287818151815260200191508051906020019060200280838360005b838110156100e65780820151818401526020810190506100cb565b50505050905001848103835286818151815260200191508051906020019060200280838360005b8381101561012857808201518184015260208101905061010d565b50505050905001848103825285818151815260200191508051906020019060200280838360005b8381101561016a57808201518184015260208101905061014f565b50505050905001965050505050505060405180910390f35b6101a560048080359060200190919080356000191690602001909190505061066c565b604051808260018111156101b557fe5b60ff16815260200191505060405180910390f35b34156101d457600080fd5b6101ea6004808035906020019091905050610b34565b604051808760001916600019168152602001868152602001858152602001848152602001838152602001828152602001965050505050505060405180910390f35b341561023657600080fd5b61024c6004808035906020019091905050610c3c565b6040518080602001828103825283818151815260200191508051906020019060200280838360005b8381101561028f578082015181840152602081019050610274565b505050509050019250505060405180910390f35b34156102ae57600080fd5b610304600480803590602001909190803590602001908201803590602001908080602002602001604051908101604052809392919081815260200183836020028082843782019150505050505091905050610cbe565b6040518082600181111561031457fe5b60ff16815260200191505060405180910390f35b341561033357600080fd5b61035f6004808035600019169060200190919080359060200190919080359060200190919050506110b3565b6040518082600181111561036f57fe5b60ff16815260200191505060405180910390f35b341561038e57600080fd5b6103e46004808035906020019091908035906020019082018035906020019080806020026020016040519081016040528093929190818152602001838360200280828437820191505050505050919050506113a3565b6040518083815260200180602001828103825283818151815260200191508051906020019060200280838360005b8381101561042d578082015181840152602081019050610412565b50505050905001935050505060405180910390f35b61044a6113ba565b6104526113ba565b61045a6113ba565b6104626113ba565b61046a6113ba565b6104726113ba565b60006001805490506040518059106104875750595b908082528060200260200182016040525093506001805490506040518059106104ad5750595b908082528060200260200182016040525092506001805490506040518059106104d35750595b90808252806020026020018201604052509150600090505b60018054905081101561065a5760018181548110151561050757fe5b90600052602060002090600b0201600a0154848281518110151561052757fe5b9060200190602002018181525050600060018281548110151561054657fe5b90600052602060002090600b020160020160003373ffffffffffffffffffffffffffffffffffffffff1673ffffffffffffffffffffffffffffffffffffffff1681526020019081526020016000205411156105ba57600183828151811015156105ab57fe5b90602001906020020181815250505b3373ffffffffffffffffffffffffffffffffffffffff166001828154811015156105e057fe5b90600052602060002090600b020160000160009054906101000a900473ffffffffffffffffffffffffffffffffffffffff1673ffffffffffffffffffffffffffffffffffffffff16141561064d576001828281518110151561063e57fe5b90602001906020020181815250505b80806001019150506104eb565b83838396509650965050505050909192565b6000806106776113ce565b600080925060003414156106c2576040805190810160405280601e81526020017f6465706f7369742076616c7565206d75737420626520706f73697469766500008152509150600192505b60006001878154811015156106d357fe5b90600052602060002090600b0201600a0154141515610729576040805190810160405280601281526020017f6465616c206973206e6f742061637469766500000000000000000000000000008152509150600192505b60018681548110151561073857fe5b90600052602060002090600b02019050600081600601543481151561075957fe5b0611156107c457606060405190810160405280602f81526020017f6465706f7369742076616c7565206d7573742062652061206d756c7469706c6581526020017f206f6620636c61696d2076616c756500000000000000000000000000000000008152509150600192505b60008160020160003373ffffffffffffffffffffffffffffffffffffffff1673ffffffffffffffffffffffffffffffffffffffff16815260200190815260200160002054111561087257606060405190810160405280602a81526020017f63616e6e6f74206465706f73697420747769636520776974682074686520736181526020017f6d652061646472657373000000000000000000000000000000000000000000008152509150600192505b600181600a015414156108bc576040805190810160405280601e81526020017f6465616c20697320616c72656164792066756c6c696e672066756e64656400008152509150600192505b82156109a457853373ffffffffffffffffffffffffffffffffffffffff167f9253951f3eff982bd56920e03d1dd72425977d70fae4ac8e2e0da3c564bfabcb87346000876040518085600019166000191681526020018481526020018315151515815260200180602001828103825283818151815260200191508051906020019080838360005b8381101561095e578082015181840152602081019050610943565b50505050905090810190601f16801561098b5780820380516001836020036101000a031916815260200191505b509550505050505060405180910390a360019350610b2b565b348160030160008282540192505081905550348160020160003373ffffffffffffffffffffffffffffffffffffffff1673ffffffffffffffffffffffffffffffffffffffff1681526020019081526020016000208190555084816008018260040154815481101515610a1257fe5b9060005260206000209001816000191690555060018160040160008282540192505081905550853373ffffffffffffffffffffffffffffffffffffffff167f9253951f3eff982bd56920e03d1dd72425977d70fae4ac8e2e0da3c564bfabcb873460016040518084600019166000191681526020018381526020018215151515815260200180602001828103825260088152602001807f616c6c20676f6f6400000000000000000000000000000000000000000000000081525060200194505050505060405180910390a380600701548160040154101515610b2657600181600a0181905550857f38c728834d3279b1aa694222a5c1079e38e2d78a9543064bd3b50ffbfd030b3460405160405180910390a25b600093505b50505092915050565b60008060008060008060008060008060008060018d815481101515610b5557fe5b90600052602060002090600b020160010154955060018d815481101515610b7857fe5b90600052602060002090600b020160070154945060018d815481101515610b9b57fe5b90600052602060002090600b020160060154935060018d815481101515610bbe57fe5b90600052602060002090600b020160040154925060018d815481101515610be157fe5b90600052602060002090600b020160030154915060018d815481101515610c0457fe5b90600052602060002090600b02016009018054905090508585858585859b509b509b509b509b509b5050505050505091939550919395565b610c446113e2565b600182815481101515610c5357fe5b90600052602060002090600b0201600801805480602002602001604051908101604052809291908181526020018280548015610cb257602002820191906000526020600020905b81546000191681526020019060010190808311610c9a575b50505050509050919050565b600080610cc96113ce565b6000806000809450600188815481101515610ce057fe5b90600052602060002090600b02019250600083600a0154141515610d3b576040805190810160405280601281526020017f6465616c206973206e6f742061637469766500000000000000000000000000008152509350600194505b600183600a0154141515610d86576040805190810160405280601a81526020017f6465616c206973206e6f742066756c6c696e672066756e6465640000000000008152509350600194505b8415610e3f57877f354e1ddaa2fab096efb3d49c4d2ce86db3174dba7ba4f2c07e08742466a2c215600086604051808315151515815260200180602001828103825283818151815260200191508051906020019080838360005b83811015610dfb578082015181840152602081019050610de0565b50505050905090810190601f168015610e285780820380516001836020036101000a031916815260200191505b50935050505060405180910390a2600195506110a8565b86836009019080519060200190610e579291906113f6565b5082600701548360090180549050149150811515610ed357606060405190810160405280602281526020017f6d697373696e6720736f6d652064657374696e6174696f6e206164647265737381526020017f65730000000000000000000000000000000000000000000000000000000000008152509350600194505b8415610f8c57877f354e1ddaa2fab096efb3d49c4d2ce86db3174dba7ba4f2c07e08742466a2c215600086604051808315151515815260200180602001828103825283818151815260200191508051906020019080838360005b83811015610f48578082015181840152602081019050610f2d565b50505050905090810190601f168015610f755780820380516001836020036101000a031916815260200191505b50935050505060405180910390a2600195506110a8565b600090505b826009018054905081101561102d578260090181815481101515610fb157fe5b906000526020600020900160009054906101000a900473ffffffffffffffffffffffffffffffffffffffff1673ffffffffffffffffffffffffffffffffffffffff166108fc84600301549081150290604051600060405180830381858888f19350505050151561102057600080fd5b8080600101915050610f91565b877f354e1ddaa2fab096efb3d49c4d2ce86db3174dba7ba4f2c07e08742466a2c2156001604051808215151515815260200180602001828103825260088152602001807f616c6c20676f6f640000000000000000000000000000000000000000000000008152506020019250505060405180910390a2600095505b505050505092915050565b6000806001805490509050600180548091906001016110d29190611480565b50336001828154811015156110e357fe5b90600052602060002090600b020160000160006101000a81548173ffffffffffffffffffffffffffffffffffffffff021916908373ffffffffffffffffffffffffffffffffffffffff1602179055508460018281548110151561114257fe5b90600052602060002090600b02016001018160001916905550600060018281548110151561116c57fe5b90600052602060002090600b020160030181905550600060018281548110151561119257fe5b90600052602060002090600b020160040181905550426001828154811015156111b757fe5b90600052602060002090600b020160050181905550836001828154811015156111dc57fe5b90600052602060002090600b0201600601819055508260018281548110151561120157fe5b90600052602060002090600b020160070181905550826040518059106112245750595b908082528060200260200182016040525060018281548110151561124457fe5b90600052602060002090600b020160080190805190602001906112689291906114b2565b50826040518059106112775750595b908082528060200260200182016040525060018281548110151561129757fe5b90600052602060002090600b020160090190805190602001906112bb9291906113f6565b5060006001828154811015156112cd57fe5b90600052602060002090600b0201600a0181905550803373ffffffffffffffffffffffffffffffffffffffff167f3f8aabc3a12e950c954455d2c33afc5d85a289ad74baae0ed96884daf85ba4104288888860016040518086815260200185600019166000191681526020018481526020018381526020018215151515815260200180602001828103825260088152602001807f616c6c20676f6f64000000000000000000000000000000000000000000000000815250602001965050505050505060405180910390a360009150509392505050565b60006113ad611505565b8383915091509250929050565b602060405190810160405280600081525090565b602060405190810160405280600081525090565b602060405190810160405280600081525090565b82805482825590600052602060002090810192821561146f579160200282015b8281111561146e5782518260006101000a81548173ffffffffffffffffffffffffffffffffffffffff021916908373ffffffffffffffffffffffffffffffffffffffff16021790555091602001919060010190611416565b5b50905061147c9190611519565b5090565b8154818355818115116114ad57600b0281600b0283600052602060002091820191016114ac919061155c565b5b505050565b8280548282559060005260206000209081019282156114f4579160200282015b828111156114f35782518290600019169055916020019190600101906114d2565b5b50905061150191906115fa565b5090565b602060405190810160405280600081525090565b61155991905b8082111561155557600081816101000a81549073ffffffffffffffffffffffffffffffffffffffff02191690555060010161151f565b5090565b90565b6115f791905b808211156115f357600080820160006101000a81549073ffffffffffffffffffffffffffffffffffffffff02191690556001820160009055600382016000905560048201600090556005820160009055600682016000905560078201600090556008820160006115d2919061161f565b6009820160006115e29190611640565b600a82016000905550600b01611562565b5090565b90565b61161c91905b80821115611618576000816000905550600101611600565b5090565b90565b508054600082559060005260206000209081019061163d91906115fa565b50565b508054600082559060005260206000209081019061165e9190611661565b50565b61168391905b8082111561167f576000816000905550600101611667565b5090565b905600a165627a7a72305820669e4c0d51b5ff66d409447027fec7c51354a60558a10d129f2429a0e3935c4c0029",
  "source": "pragma solidity ^0.4.19;\n\nimport \"./Enigma.sol\";\n\ncontract CoinMixer {\n    Enigma enigma;\n\n    struct Deal {\n        address organizer;\n        bytes32 title;\n        mapping(address => uint) deposit;\n        uint depositSum;\n        uint numDeposits;\n\n        uint startTime;\n        uint depositInWei;\n        uint numParticipants;\n\n        bytes32[] encryptedDestAddresses;\n        address[] destAddresses;\n\n        uint status; // 0: active; 1: funded; 2: executed; 3: cancelled\n    }\n\n    Deal[] deals;\n\n    event NewDeal(address indexed user, uint indexed _dealId, uint _startTime, bytes32 _title, uint _depositInWei, uint _numParticipants, bool _success, string _err);\n    event Deposit(address indexed _depositor, uint indexed _dealId, bytes32 _encryptedDestAddress, uint _value, bool _success, string _err);\n    event Distribute(uint indexed _dealId, bool _success, string _err);\n\n    event TransferredToken(address indexed to, uint256 value);\n    event FailedTransfer(address indexed to, uint256 value);\n\n    event DealFullyFunded(uint indexed _dealId);\n\n\n    // TODO: switch to require() once it accepts a message parameter\n    enum ReturnValue {Ok, Error}\n\n    function CoinMixer() public {\n        // TODO: consider externalizing in library\n        enigma = Enigma(0x74e3fc764c2474f25369b9d021b7f92e8441a2dc);\n    }\n\n    function newDeal(bytes32 _title, uint _depositInWei, uint _numParticipants)\n    public\n    returns (ReturnValue) {\n        uint dealId = deals.length;\n\n        deals.length++;\n        deals[dealId].organizer = msg.sender;\n        deals[dealId].title = _title;\n        deals[dealId].depositSum = 0;\n        deals[dealId].numDeposits = 0;\n        deals[dealId].startTime = now;\n        deals[dealId].depositInWei = _depositInWei;\n        deals[dealId].numParticipants = _numParticipants;\n        deals[dealId].encryptedDestAddresses = new bytes32[](_numParticipants);\n        deals[dealId].destAddresses = new address[](_numParticipants);\n        deals[dealId].status = 0;\n        NewDeal(msg.sender,\n            dealId,\n            now,\n            _title,\n            _depositInWei,\n            _numParticipants,\n            true,\n            \"all good\");\n        return ReturnValue.Ok;\n    }\n\n    function makeDeposit(uint dealId, bytes32 encryptedDestAddress)\n    public\n    payable\n    returns (ReturnValue){\n        bool errorDetected = false;\n        string memory error;\n        // validations\n        if (msg.value == 0) {\n            error = \"deposit value must be positive\";\n            errorDetected = true;\n        }\n        if (deals[dealId].status != 0) {\n            error = \"deal is not active\";\n            errorDetected = true;\n        }\n\n        Deal storage deal = deals[dealId];\n        if ((msg.value % deal.depositInWei) > 0) {\n            error = \"deposit value must be a multiple of claim value\";\n            errorDetected = true;\n        }\n        if (deal.deposit[msg.sender] > 0) {\n            error = \"cannot deposit twice with the same address\";\n            errorDetected = true;\n        }\n        if (deal.status == 1) {\n            error = \"deal is already fulling funded\";\n            errorDetected = true;\n        }\n        if (errorDetected) {\n            Deposit(msg.sender, dealId, encryptedDestAddress, msg.value, false, error);\n            // send money back\n            return ReturnValue.Error;\n        }\n\n        // actual deposit\n        deal.depositSum += msg.value;\n        deal.deposit[msg.sender] = msg.value;\n        deal.encryptedDestAddresses[deal.numDeposits] = encryptedDestAddress;\n        deal.numDeposits += 1;\n\n        Deposit(msg.sender, dealId, encryptedDestAddress, msg.value, true, \"all good\");\n\n        if (deal.numDeposits >= deal.numParticipants) {\n            deal.status = 1;\n            DealFullyFunded(dealId);\n\n            // TODO: consider encapsulating param encoding in library\n            // For now, I'm adding adding the dealId as the first argument.\n            // The logic looks like this: f(bytes32 dealId, bytes32 encryptedDestAddresses1, bytes32 encryptedDestAddresses1, ...)\n            // This works fine until we have to support more than one dynamic array.\n            //            bytes32[] memory args = new bytes32[](deal.numDeposits + 1);\n            //            args[0] = uintToBytes(dealId);\n            //            for (uint i = 0; i < deal.encryptedDestAddresses.length; i++) {\n            //                args[i + 1] = deal.encryptedDestAddresses[i];\n            //            }\n            // Pre-processing\n            // 1. Decrypt arguments\n            // 2. Apply service parameters\n            // TODO: pass randomization parameters\n            //            enigma.compute.value(msg.value)(msg.sender, this, \"mixAddresses\", args, \"distribute\");\n        }\n        return ReturnValue.Ok;\n    }\n\n    function mixAddresses(uint dealId, address[] destAddresses)\n    public\n    pure\n    returns (uint, address[]) {\n        // TODO: put mixing logic here\n        //        random()\n        return (dealId, destAddresses);\n    }\n\n    function distribute(uint dealId, address[] destAddresses)\n    public\n    returns (ReturnValue){\n        bool errorDetected = false;\n        string memory error;\n\n        Deal storage deal = deals[dealId];\n        if (deal.status != 0) {\n            error = \"deal is not active\";\n            errorDetected = true;\n        }\n        if (deal.status != 1) {\n            error = \"deal is not fulling funded\";\n            errorDetected = true;\n        }\n        if (errorDetected) {\n            Distribute(dealId, false, error);\n            return ReturnValue.Error;\n        }\n        deal.destAddresses = destAddresses;\n\n        bool enoughAddresses = deal.destAddresses.length == deal.numParticipants;\n        if (!enoughAddresses) {\n            error = \"missing some destination addresses\";\n            errorDetected = true;\n        }\n        if (errorDetected) {\n            Distribute(dealId, false, error);\n            return ReturnValue.Error;\n        }\n\n        for (uint i = 0; i < deal.destAddresses.length; i++) {\n            deal.destAddresses[i].transfer(deal.depositSum);\n        }\n\n        Distribute(dealId, true, \"all good\");\n        return ReturnValue.Ok;\n    }\n\n    function listDeals() public view returns (uint[], uint[], uint[]) {\n        // A list of deals with their key properties\n        uint[] memory status = new uint[](deals.length);\n        uint[] memory participates = new uint[](deals.length);\n        uint[] memory organizes = new uint[](deals.length);\n\n        for (uint i = 0; i < deals.length; i++) {\n            status[i] = deals[i].status;\n\n            if (deals[i].deposit[msg.sender] > 0) {\n                participates[i] = 1;\n            }\n\n            if (deals[i].organizer == msg.sender) {\n                organizes[i] = 1;\n            }\n        }\n        return (status, participates, organizes);\n    }\n\n    function dealStatus(uint _dealId)\n    public\n    view\n    returns (bytes32, uint, uint, uint, uint, uint){\n        // Key attributes of a deal\n        bytes32 title = deals[_dealId].title;\n        uint numParticipants = deals[_dealId].numParticipants;\n        uint deposit = deals[_dealId].depositInWei;\n        uint numDeposits = deals[_dealId].numDeposits;\n        uint depositSum = deals[_dealId].depositSum;\n        uint numDestAddresses = deals[_dealId].destAddresses.length;\n\n        return (title, numParticipants, deposit, numDeposits, depositSum, numDestAddresses);\n    }\n\n    function getEncryptedAddresses(uint _dealId) public view returns (bytes32[]) {\n        // Returns an array of encrypted addresses\n        return deals[_dealId].encryptedDestAddresses;\n    }\n\n    function uintToBytes(uint v) private pure returns (bytes32 ret) {\n        // Serialize bytes to int\n        // TODO: cleanup and externalize\n        if (v == 0) {\n            ret = '0';\n        }\n        else {\n            while (v > 0) {\n                ret = bytes32(uint(ret) / (2 ** 8));\n                ret |= bytes32(((v % 10) + 48) * 2 ** (8 * 31));\n                v /= 10;\n            }\n        }\n        return ret;\n    }\n\n}\n\n",
  "sourcePath": "/Users/fredfortier/Code/enigma/coin-mixer-poc/dapp/contracts/CoinMixer.sol",
  "compiler": {
    "name": "solc",
    "version": "0.4.19+commit.c4cbbb05.Emscripten.clang"
  },
  "schemaVersion": "2.0.0",
  "updatedAt": "2018-04-17T06:36:22.628Z"
}