{
  "contractName": "Enigma",
  "abi": [
    {
      "constant": true,
      "inputs": [
        {
          "name": "",
          "type": "uint256"
        }
      ],
      "name": "workerIndex",
      "outputs": [
        {
          "name": "",
          "type": "address"
        }
      ],
      "payable": false,
      "stateMutability": "view",
      "type": "function"
    },
    {
      "constant": true,
      "inputs": [
        {
          "name": "",
          "type": "address"
        }
      ],
      "name": "workers",
      "outputs": [
        {
          "name": "url",
          "type": "bytes32"
        },
        {
          "name": "pkey",
          "type": "string"
        },
        {
          "name": "quote",
          "type": "string"
        },
        {
          "name": "balance",
          "type": "uint256"
        },
        {
          "name": "rate",
          "type": "uint256"
        },
        {
          "name": "status",
          "type": "uint256"
        }
      ],
      "payable": false,
      "stateMutability": "view",
      "type": "function"
    },
    {
      "constant": true,
      "inputs": [
        {
          "name": "",
          "type": "address"
        },
        {
          "name": "",
          "type": "uint256"
        }
      ],
      "name": "tasks",
      "outputs": [
        {
          "name": "callable",
          "type": "bytes32"
        },
        {
          "name": "callback",
          "type": "bytes32"
        },
        {
          "name": "worker",
          "type": "address"
        },
        {
          "name": "sig",
          "type": "bytes"
        },
        {
          "name": "reward",
          "type": "uint256"
        }
      ],
      "payable": false,
      "stateMutability": "view",
      "type": "function"
    },
    {
      "constant": true,
      "inputs": [],
      "name": "engToken",
      "outputs": [
        {
          "name": "",
          "type": "address"
        }
      ],
      "payable": false,
      "stateMutability": "view",
      "type": "function"
    },
    {
      "inputs": [
        {
          "name": "_tokenAddress",
          "type": "address"
        }
      ],
      "payable": false,
      "stateMutability": "nonpayable",
      "type": "constructor"
    },
    {
      "anonymous": false,
      "inputs": [
        {
          "indexed": false,
          "name": "url",
          "type": "bytes32"
        },
        {
          "indexed": false,
          "name": "user",
          "type": "address"
        },
        {
          "indexed": false,
          "name": "pkey",
          "type": "string"
        },
        {
          "indexed": false,
          "name": "rate",
          "type": "uint256"
        },
        {
          "indexed": false,
          "name": "_success",
          "type": "bool"
        }
      ],
      "name": "Register",
      "type": "event"
    },
    {
      "anonymous": false,
      "inputs": [
        {
          "indexed": false,
          "name": "user",
          "type": "address"
        },
        {
          "indexed": false,
          "name": "_success",
          "type": "bool"
        }
      ],
      "name": "Login",
      "type": "event"
    },
    {
      "anonymous": false,
      "inputs": [
        {
          "indexed": false,
          "name": "user",
          "type": "address"
        },
        {
          "indexed": false,
          "name": "_success",
          "type": "bool"
        }
      ],
      "name": "Logout",
      "type": "event"
    },
    {
      "anonymous": false,
      "inputs": [
        {
          "indexed": false,
          "name": "user",
          "type": "address"
        },
        {
          "indexed": false,
          "name": "rate",
          "type": "uint256"
        },
        {
          "indexed": false,
          "name": "_success",
          "type": "bool"
        }
      ],
      "name": "UpdateRate",
      "type": "event"
    },
    {
      "anonymous": false,
      "inputs": [
        {
          "indexed": false,
          "name": "secretContract",
          "type": "address"
        },
        {
          "indexed": false,
          "name": "user",
          "type": "address"
        },
        {
          "indexed": false,
          "name": "amount",
          "type": "uint256"
        },
        {
          "indexed": false,
          "name": "balance",
          "type": "uint256"
        },
        {
          "indexed": false,
          "name": "_success",
          "type": "bool"
        }
      ],
      "name": "Deposit",
      "type": "event"
    },
    {
      "anonymous": false,
      "inputs": [
        {
          "indexed": false,
          "name": "user",
          "type": "address"
        },
        {
          "indexed": false,
          "name": "amount",
          "type": "uint256"
        },
        {
          "indexed": false,
          "name": "balance",
          "type": "uint256"
        },
        {
          "indexed": false,
          "name": "_success",
          "type": "bool"
        }
      ],
      "name": "Withdraw",
      "type": "event"
    },
    {
      "anonymous": false,
      "inputs": [
        {
          "indexed": false,
          "name": "sig",
          "type": "bytes"
        },
        {
          "indexed": false,
          "name": "hash",
          "type": "bytes32"
        },
        {
          "indexed": false,
          "name": "workerAddr",
          "type": "address"
        },
        {
          "indexed": false,
          "name": "_success",
          "type": "bool"
        }
      ],
      "name": "ValidateSig",
      "type": "event"
    },
    {
      "anonymous": false,
      "inputs": [
        {
          "indexed": false,
          "name": "secretContract",
          "type": "address"
        },
        {
          "indexed": false,
          "name": "worker",
          "type": "address"
        },
        {
          "indexed": false,
          "name": "sig",
          "type": "bytes"
        },
        {
          "indexed": false,
          "name": "reward",
          "type": "uint256"
        },
        {
          "indexed": false,
          "name": "_success",
          "type": "bool"
        }
      ],
      "name": "SolveTask",
      "type": "event"
    },
    {
      "anonymous": false,
      "inputs": [
        {
          "indexed": false,
          "name": "callingContract",
          "type": "address"
        },
        {
          "indexed": false,
          "name": "taskId",
          "type": "uint256"
        },
        {
          "indexed": false,
          "name": "callable",
          "type": "bytes32"
        },
        {
          "indexed": false,
          "name": "callableArgs",
          "type": "bytes32[]"
        },
        {
          "indexed": false,
          "name": "callback",
          "type": "bytes32"
        },
        {
          "indexed": false,
          "name": "fee",
          "type": "uint256"
        },
        {
          "indexed": false,
          "name": "preprocessors",
          "type": "bytes32[]"
        },
        {
          "indexed": false,
          "name": "_success",
          "type": "bool"
        }
      ],
      "name": "ComputeTask",
      "type": "event"
    },
    {
      "constant": false,
      "inputs": [
        {
          "name": "url",
          "type": "bytes32"
        },
        {
          "name": "pkey",
          "type": "string"
        },
        {
          "name": "rate",
          "type": "uint256"
        }
      ],
      "name": "register",
      "outputs": [
        {
          "name": "",
          "type": "uint8"
        }
      ],
      "payable": true,
      "stateMutability": "payable",
      "type": "function"
    },
    {
      "constant": false,
      "inputs": [
        {
          "name": "quote",
          "type": "string"
        }
      ],
      "name": "login",
      "outputs": [
        {
          "name": "",
          "type": "uint8"
        }
      ],
      "payable": false,
      "stateMutability": "nonpayable",
      "type": "function"
    },
    {
      "constant": false,
      "inputs": [],
      "name": "logout",
      "outputs": [
        {
          "name": "",
          "type": "uint8"
        }
      ],
      "payable": false,
      "stateMutability": "nonpayable",
      "type": "function"
    },
    {
      "constant": false,
      "inputs": [
        {
          "name": "rate",
          "type": "uint256"
        }
      ],
      "name": "updateRate",
      "outputs": [
        {
          "name": "",
          "type": "uint8"
        }
      ],
      "payable": false,
      "stateMutability": "nonpayable",
      "type": "function"
    },
    {
      "constant": false,
      "inputs": [
        {
          "name": "amount",
          "type": "uint256"
        }
      ],
      "name": "withdraw",
      "outputs": [
        {
          "name": "",
          "type": "uint8"
        }
      ],
      "payable": false,
      "stateMutability": "nonpayable",
      "type": "function"
    },
    {
      "constant": false,
      "inputs": [
        {
          "name": "secretContract",
          "type": "address"
        },
        {
          "name": "callable",
          "type": "bytes32"
        },
        {
          "name": "callableArgs",
          "type": "bytes32[]"
        },
        {
          "name": "callback",
          "type": "bytes32"
        },
        {
          "name": "preprocessors",
          "type": "bytes32[]"
        }
      ],
      "name": "compute",
      "outputs": [
        {
          "name": "",
          "type": "uint8"
        }
      ],
      "payable": true,
      "stateMutability": "payable",
      "type": "function"
    },
    {
      "constant": false,
      "inputs": [
        {
          "name": "data",
          "type": "bytes32[]"
        }
      ],
      "name": "bytes32ArrayToBytes",
      "outputs": [
        {
          "name": "",
          "type": "bytes"
        }
      ],
      "payable": false,
      "stateMutability": "nonpayable",
      "type": "function"
    },
    {
      "constant": false,
      "inputs": [
        {
          "name": "secretContract",
          "type": "address"
        },
        {
          "name": "taskId",
          "type": "uint256"
        },
        {
          "name": "results",
          "type": "bytes32[]"
        },
        {
          "name": "sig",
          "type": "bytes"
        }
      ],
      "name": "solveTask",
      "outputs": [
        {
          "name": "",
          "type": "uint8"
        }
      ],
      "payable": false,
      "stateMutability": "nonpayable",
      "type": "function"
    }
  ],
  "bytecode": "0x608060405234801561001057600080fd5b506040516020806133f783398101806040528101908080519060200190929190505050806000806101000a81548173ffffffffffffffffffffffffffffffffffffffff021916908373ffffffffffffffffffffffffffffffffffffffff16021790555050613374806100836000396000f3006080604052600436106100ba576000357c0100000000000000000000000000000000000000000000000000000000900463ffffffff1680630a2bbf6c146100bf5780631f3c99c31461012c5780632e1a7d4d146101655780633a7d280c146101b45780634048a2571461023f57806369ea17711461038b5780637149d2e4146103da5780639489ad40146104f857806395e24b0f1461054f578063a475b3c01461062e578063b9b5bec914610726578063fb2476fd146107bc575b600080fd5b3480156100cb57600080fd5b506100ea600480360381019080803590602001909291905050506108b6565b604051808273ffffffffffffffffffffffffffffffffffffffff1673ffffffffffffffffffffffffffffffffffffffff16815260200191505060405180910390f35b34801561013857600080fd5b506101416108f4565b6040518082600181111561015157fe5b60ff16815260200191505060405180910390f35b34801561017157600080fd5b5061019060048036038101908080359060200190929190505050610bfd565b604051808260018111156101a057fe5b60ff16815260200191505060405180910390f35b3480156101c057600080fd5b5061021b600480360381019080803590602001908201803590602001908080601f0160208091040260200160405190810160405280939291908181526020018383808284378201915050505050509192919290505050610ff8565b6040518082600181111561022b57fe5b60ff16815260200191505060405180910390f35b34801561024b57600080fd5b50610280600480360381019080803573ffffffffffffffffffffffffffffffffffffffff169060200190929190505050611359565b6040518087600019166000191681526020018060200180602001868152602001858152602001848152602001838103835288818151815260200191508051906020019080838360005b838110156102e45780820151818401526020810190506102c9565b50505050905090810190601f1680156103115780820380516001836020036101000a031916815260200191505b50838103825287818151815260200191508051906020019080838360005b8381101561034a57808201518184015260208101905061032f565b50505050905090810190601f1680156103775780820380516001836020036101000a031916815260200191505b509850505050505050505060405180910390f35b34801561039757600080fd5b506103b6600480360381019080803590602001909291905050506114c5565b604051808260018111156103c657fe5b60ff16815260200191505060405180910390f35b3480156103e657600080fd5b50610425600480360381019080803573ffffffffffffffffffffffffffffffffffffffff169060200190929190803590602001909291905050506117d7565b60405180866000191660001916815260200185600019166000191681526020018473ffffffffffffffffffffffffffffffffffffffff1673ffffffffffffffffffffffffffffffffffffffff16815260200180602001838152602001828103825284818151815260200191508051906020019080838360005b838110156104b957808201518184015260208101905061049e565b50505050905090810190601f1680156104e65780820380516001836020036101000a031916815260200191505b50965050505050505060405180910390f35b34801561050457600080fd5b5061050d6118e1565b604051808273ffffffffffffffffffffffffffffffffffffffff1673ffffffffffffffffffffffffffffffffffffffff16815260200191505060405180910390f35b34801561055b57600080fd5b506105b360048036038101908080359060200190820180359060200190808060200260200160405190810160405280939291908181526020018383602002808284378201915050505050509192919290505050611906565b6040518080602001828103825283818151815260200191508051906020019080838360005b838110156105f35780820151818401526020810190506105d8565b50505050905090810190601f1680156106205780820380516001836020036101000a031916815260200191505b509250505060405180910390f35b34801561063a57600080fd5b50610702600480360381019080803573ffffffffffffffffffffffffffffffffffffffff1690602001909291908035906020019092919080359060200190820180359060200190808060200260200160405190810160405280939291908181526020018383602002808284378201915050505050509192919290803590602001908201803590602001908080601f0160208091040260200160405190810160405280939291908181526020018383808284378201915050505050509192919290505050611b33565b6040518082600181111561071257fe5b60ff16815260200191505060405180910390f35b6107986004803603810190808035600019169060200190929190803590602001908201803590602001908080601f0160208091040260200160405190810160405280939291908181526020018383808284378201915050505050509192919290803590602001909291905050506124db565b604051808260018111156107a857fe5b60ff16815260200191505060405180910390f35b610892600480360381019080803573ffffffffffffffffffffffffffffffffffffffff1690602001909291908035600019169060200190929190803590602001908201803590602001908080602002602001604051908101604052809392919081815260200183836020028082843782019150505050505091929192908035600019169060200190929190803590602001908201803590602001908080602002602001604051908101604052809392919081815260200183836020028082843782019150505050505091929192905050506127bb565b604051808260018111156108a257fe5b60ff16815260200191505060405180910390f35b6001818154811015156108c557fe5b906000526020600020016000915054906101000a900473ffffffffffffffffffffffffffffffffffffffff1681565b6000336108ff6130d8565b600260008373ffffffffffffffffffffffffffffffffffffffff1673ffffffffffffffffffffffffffffffffffffffff16815260200190815260200160002060c06040519081016040529081600082015460001916600019168152602001600182018054600181600116156101000203166002900480601f0160208091040260200160405190810160405280929190818152602001828054600181600116156101000203166002900480156109f55780601f106109ca576101008083540402835291602001916109f5565b820191906000526020600020905b8154815290600101906020018083116109d857829003601f168201915b50505050508152602001600282018054600181600116156101000203166002900480601f016020809104026020016040519081016040528092919081815260200182805460018160011615610100020316600290048015610a975780601f10610a6c57610100808354040283529160200191610a97565b820191906000526020600020905b815481529060010190602001808311610a7a57829003601f168201915b505050505081526020016003820154815260200160048201548152602001600582015481525050905060008160a00151111515610b3c576040517f08c379a00000000000000000000000000000000000000000000000000000000081526004018080602001828103825260148152602001807f556e7265676973746572656420776f726b65722e00000000000000000000000081525060200191505060405180910390fd5b6001600260003373ffffffffffffffffffffffffffffffffffffffff1673ffffffffffffffffffffffffffffffffffffffff168152602001908152602001600020600501819055507f142855c2ec5b59c44b6edd425942f19ba27545104b30ca9ee3e92c5d5135bf60336001604051808373ffffffffffffffffffffffffffffffffffffffff1673ffffffffffffffffffffffffffffffffffffffff168152602001821515151581526020019250505060405180910390a160009250505090565b60008033610c096130d8565b600260008373ffffffffffffffffffffffffffffffffffffffff1673ffffffffffffffffffffffffffffffffffffffff16815260200190815260200160002060c06040519081016040529081600082015460001916600019168152602001600182018054600181600116156101000203166002900480601f016020809104026020016040519081016040528092919081815260200182805460018160011615610100020316600290048015610cff5780601f10610cd457610100808354040283529160200191610cff565b820191906000526020600020905b815481529060010190602001808311610ce257829003601f168201915b50505050508152602001600282018054600181600116156101000203166002900480601f016020809104026020016040519081016040528092919081815260200182805460018160011615610100020316600290048015610da15780601f10610d7657610100808354040283529160200191610da1565b820191906000526020600020905b815481529060010190602001808311610d8457829003601f168201915b505050505081526020016003820154815260200160048201548152602001600582015481525050905060008160a00151111515610e46576040517f08c379a00000000000000000000000000000000000000000000000000000000081526004018080602001828103825260148152602001807f556e7265676973746572656420776f726b65722e00000000000000000000000081525060200191505060405180910390fd5b600260003373ffffffffffffffffffffffffffffffffffffffff1673ffffffffffffffffffffffffffffffffffffffff1681526020019081526020016000209250848360030154111515610f02576040517f08c379a000000000000000000000000000000000000000000000000000000000815260040180806020018281038252601d8152602001807f4e6f7420656e6f7567682066756e647320746f2077697468647261772e00000081525060200191505060405180910390fd5b610f19858460030154612b3590919063ffffffff16565b83600301819055503373ffffffffffffffffffffffffffffffffffffffff166108fc869081150290604051600060405180830381858888f19350505050158015610f67573d6000803e3d6000fd5b507fb97e775637eca8401af330efee0810af7079bafae27761741e09caa14db8d272338685600301546001604051808573ffffffffffffffffffffffffffffffffffffffff1673ffffffffffffffffffffffffffffffffffffffff1681526020018481526020018381526020018215151515815260200194505050505060405180910390a160009350505050919050565b6000336110036130d8565b600260008373ffffffffffffffffffffffffffffffffffffffff1673ffffffffffffffffffffffffffffffffffffffff16815260200190815260200160002060c06040519081016040529081600082015460001916600019168152602001600182018054600181600116156101000203166002900480601f0160208091040260200160405190810160405280929190818152602001828054600181600116156101000203166002900480156110f95780601f106110ce576101008083540402835291602001916110f9565b820191906000526020600020905b8154815290600101906020018083116110dc57829003601f168201915b50505050508152602001600282018054600181600116156101000203166002900480601f01602080910402602001604051908101604052809291908181526020018280546001816001161561010002031660029004801561119b5780601f106111705761010080835404028352916020019161119b565b820191906000526020600020905b81548152906001019060200180831161117e57829003601f168201915b505050505081526020016003820154815260200160048201548152602001600582015481525050905060008160a00151111515611240576040517f08c379a00000000000000000000000000000000000000000000000000000000081526004018080602001828103825260148152602001807f556e7265676973746572656420776f726b65722e00000000000000000000000081525060200191505060405180910390fd5b83600260003373ffffffffffffffffffffffffffffffffffffffff1673ffffffffffffffffffffffffffffffffffffffff1681526020019081526020016000206002019080519060200190611296929190613112565b5060028060003373ffffffffffffffffffffffffffffffffffffffff1673ffffffffffffffffffffffffffffffffffffffff168152602001908152602001600020600501819055507f03e1d4e63d34d520cfb840a5e43f426c5ca64a50a8569bc40ee9d8a688567b49336001604051808373ffffffffffffffffffffffffffffffffffffffff1673ffffffffffffffffffffffffffffffffffffffff168152602001821515151581526020019250505060405180910390a1600092505050919050565b6002602052806000526040600020600091509050806000015490806001018054600181600116156101000203166002900480601f01602080910402602001604051908101604052809291908181526020018280546001816001161561010002031660029004801561140b5780601f106113e05761010080835404028352916020019161140b565b820191906000526020600020905b8154815290600101906020018083116113ee57829003601f168201915b505050505090806002018054600181600116156101000203166002900480601f0160208091040260200160405190810160405280929190818152602001828054600181600116156101000203166002900480156114a95780601f1061147e576101008083540402835291602001916114a9565b820191906000526020600020905b81548152906001019060200180831161148c57829003601f168201915b5050505050908060030154908060040154908060050154905086565b6000336114d06130d8565b600260008373ffffffffffffffffffffffffffffffffffffffff1673ffffffffffffffffffffffffffffffffffffffff16815260200190815260200160002060c06040519081016040529081600082015460001916600019168152602001600182018054600181600116156101000203166002900480601f0160208091040260200160405190810160405280929190818152602001828054600181600116156101000203166002900480156115c65780601f1061159b576101008083540402835291602001916115c6565b820191906000526020600020905b8154815290600101906020018083116115a957829003601f168201915b50505050508152602001600282018054600181600116156101000203166002900480601f0160208091040260200160405190810160405280929190818152602001828054600181600116156101000203166002900480156116685780601f1061163d57610100808354040283529160200191611668565b820191906000526020600020905b81548152906001019060200180831161164b57829003601f168201915b505050505081526020016003820154815260200160048201548152602001600582015481525050905060008160a0015111151561170d576040517f08c379a00000000000000000000000000000000000000000000000000000000081526004018080602001828103825260148152602001807f556e7265676973746572656420776f726b65722e00000000000000000000000081525060200191505060405180910390fd5b83600260003373ffffffffffffffffffffffffffffffffffffffff1673ffffffffffffffffffffffffffffffffffffffff168152602001908152602001600020600401819055507f19359d2f6b502eb32089e4e6ea2cb9e909793f252bcc6cdc1b5b54aeff348dde33856001604051808473ffffffffffffffffffffffffffffffffffffffff1673ffffffffffffffffffffffffffffffffffffffff16815260200183815260200182151515158152602001935050505060405180910390a1600092505050919050565b6003602052816000526040600020818154811015156117f257fe5b9060005260206000209060060201600091509150508060000154908060020154908060030160009054906101000a900473ffffffffffffffffffffffffffffffffffffffff1690806004018054600181600116156101000203166002900480601f0160208091040260200160405190810160405280929190818152602001828054600181600116156101000203166002900480156118d15780601f106118a6576101008083540402835291602001916118d1565b820191906000526020600020905b8154815290600101906020018083116118b457829003601f168201915b5050505050908060050154905085565b6000809054906101000a900473ffffffffffffffffffffffffffffffffffffffff1681565b606080600080600080606060208851026040519080825280601f01601f1916602001820160405280156119485781602001602082028038833980820191505090505b509550600093505b8751841015611a3e57600092505b6020831015611a31578260080260020a888581518110151561197c57fe5b906020019060200201516001900402600102915060007f010000000000000000000000000000000000000000000000000000000000000002827effffffffffffffffffffffffffffffffffffffffffffffffffffffffffffff1916141515611a24578186868151811015156119ed57fe5b9060200101907effffffffffffffffffffffffffffffffffffffffffffffffffffffffffffff1916908160001a9053506001850194505b828060010193505061195e565b8380600101945050611950565b846040519080825280601f01601f191660200182016040528015611a715781602001602082028038833980820191505090505b509050600093505b84841015611b25578584815181101515611a8f57fe5b9060200101517f010000000000000000000000000000000000000000000000000000000000000090047f0100000000000000000000000000000000000000000000000000000000000000028185815181101515611ae857fe5b9060200101907effffffffffffffffffffffffffffffffffffffffffffffffffffffffffffff1916908160001a9053508380600101945050611a79565b809650505050505050919050565b60008060008033611b426130d8565b600260008373ffffffffffffffffffffffffffffffffffffffff1673ffffffffffffffffffffffffffffffffffffffff16815260200190815260200160002060c06040519081016040529081600082015460001916600019168152602001600182018054600181600116156101000203166002900480601f016020809104026020016040519081016040528092919081815260200182805460018160011615610100020316600290048015611c385780601f10611c0d57610100808354040283529160200191611c38565b820191906000526020600020905b815481529060010190602001808311611c1b57829003601f168201915b50505050508152602001600282018054600181600116156101000203166002900480601f016020809104026020016040519081016040528092919081815260200182805460018160011615610100020316600290048015611cda5780601f10611caf57610100808354040283529160200191611cda565b820191906000526020600020905b815481529060010190602001808311611cbd57829003601f168201915b505050505081526020016003820154815260200160048201548152602001600582015481525050905060008160a00151111515611d7f576040517f08c379a00000000000000000000000000000000000000000000000000000000081526004018080602001828103825260148152602001807f556e7265676973746572656420776f726b65722e00000000000000000000000081525060200191505060405180910390fd5b600073ffffffffffffffffffffffffffffffffffffffff16600360008c73ffffffffffffffffffffffffffffffffffffffff1673ffffffffffffffffffffffffffffffffffffffff1681526020019081526020016000208a815481101515611de357fe5b906000526020600020906006020160030160009054906101000a900473ffffffffffffffffffffffffffffffffffffffff1673ffffffffffffffffffffffffffffffffffffffff16141515611ea0576040517f08c379a00000000000000000000000000000000000000000000000000000000081526004018080602001828103825260148152602001807f5461736b20616c726561647920736f6c7665642e00000000000000000000000081525060200191505060405180910390fd5b6120938a600360008d73ffffffffffffffffffffffffffffffffffffffff1673ffffffffffffffffffffffffffffffffffffffff1681526020019081526020016000208b815481101515611ef057fe5b906000526020600020906006020160c0604051908101604052908160008201546000191660001916815260200160018201805480602002602001604051908101604052809291908181526020018280548015611f6f57602002820191906000526020600020905b81546000191681526020019060010190808311611f57575b505050505081526020016002820154600019166000191681526020016003820160009054906101000a900473ffffffffffffffffffffffffffffffffffffffff1673ffffffffffffffffffffffffffffffffffffffff1673ffffffffffffffffffffffffffffffffffffffff168152602001600482018054600181600116156101000203166002900480601f0160208091040260200160405190810160405280929190818152602001828054600181600116156101000203166002900480156120795780601f1061204e57610100808354040283529160200191612079565b820191906000526020600020905b81548152906001019060200180831161205c57829003601f168201915b505050505081526020016005820154815250508a8a612b4e565b9450600073ffffffffffffffffffffffffffffffffffffffff168573ffffffffffffffffffffffffffffffffffffffff161415151561213a576040517f08c379a000000000000000000000000000000000000000000000000000000000815260040180806020018281038252601d8152602001807f43616e6e6f74207665726966792074686973207369676e61747572652e00000081525060200191505060405180910390fd5b3373ffffffffffffffffffffffffffffffffffffffff168573ffffffffffffffffffffffffffffffffffffffff161415156121dd576040517f08c379a00000000000000000000000000000000000000000000000000000000081526004018080602001828103825260128152602001807f496e76616c6964207369676e61747572652e000000000000000000000000000081525060200191505060405180910390fd5b600360008b73ffffffffffffffffffffffffffffffffffffffff1673ffffffffffffffffffffffffffffffffffffffff1681526020019081526020016000208981548110151561222957fe5b90600052602060002090600602016005015493506000841115156122b5576040517f08c379a00000000000000000000000000000000000000000000000000000000081526004018080602001828103825260168152602001807f5265776172642063616e6e6f74206265207a65726f2e0000000000000000000081525060200191505060405180910390fd5b33600360008c73ffffffffffffffffffffffffffffffffffffffff1673ffffffffffffffffffffffffffffffffffffffff1681526020019081526020016000208a81548110151561230257fe5b906000526020600020906006020160030160006101000a81548173ffffffffffffffffffffffffffffffffffffffff021916908373ffffffffffffffffffffffffffffffffffffffff160217905550600260003373ffffffffffffffffffffffffffffffffffffffff1673ffffffffffffffffffffffffffffffffffffffff16815260200190815260200160002092506123a9848460030154612fc490919063ffffffff16565b83600301819055507fb97c4ac64d6734ba4c9764b185f6d373ef9ee658bd188564c262e4e1a583fb7a8a3389876001604051808673ffffffffffffffffffffffffffffffffffffffff1673ffffffffffffffffffffffffffffffffffffffff1681526020018573ffffffffffffffffffffffffffffffffffffffff1673ffffffffffffffffffffffffffffffffffffffff1681526020018060200184815260200183151515158152602001828103825285818151815260200191508051906020019080838360005b8381101561248c578082015181840152602081019050612471565b50505050905090810190601f1680156124b95780820380516001836020036101000a031916815260200191505b50965050505050505060405180910390a1600095505050505050949350505050565b600060013390806001815401808255809150509060018203906000526020600020016000909192909190916101000a81548173ffffffffffffffffffffffffffffffffffffffff021916908373ffffffffffffffffffffffffffffffffffffffff1602179055505083600260003373ffffffffffffffffffffffffffffffffffffffff1673ffffffffffffffffffffffffffffffffffffffff168152602001908152602001600020600001816000191690555082600260003373ffffffffffffffffffffffffffffffffffffffff1673ffffffffffffffffffffffffffffffffffffffff16815260200190815260200160002060010190805190602001906125e4929190613112565b5034600260003373ffffffffffffffffffffffffffffffffffffffff1673ffffffffffffffffffffffffffffffffffffffff1681526020019081526020016000206003018190555081600260003373ffffffffffffffffffffffffffffffffffffffff1673ffffffffffffffffffffffffffffffffffffffff168152602001908152602001600020600401819055506001600260003373ffffffffffffffffffffffffffffffffffffffff1673ffffffffffffffffffffffffffffffffffffffff168152602001908152602001600020600501819055507f4527be0497bf10d120751a0c87145af830f14ba9925a0746c5eb2edabb4dc8448433858560016040518086600019166000191681526020018573ffffffffffffffffffffffffffffffffffffffff1673ffffffffffffffffffffffffffffffffffffffff1681526020018060200184815260200183151515158152602001828103825285818151815260200191508051906020019080838360005b83811015612772578082015181840152602081019050612757565b50505050905090810190601f16801561279f5780820380516001836020036101000a031916815260200191505b50965050505050505060405180910390a1600090509392505050565b600080600360008873ffffffffffffffffffffffffffffffffffffffff1673ffffffffffffffffffffffffffffffffffffffff168152602001908152602001600020805490509050600360008873ffffffffffffffffffffffffffffffffffffffff1673ffffffffffffffffffffffffffffffffffffffff16815260200190815260200160002080548091906001016128549190613192565b5034600360008973ffffffffffffffffffffffffffffffffffffffff1673ffffffffffffffffffffffffffffffffffffffff168152602001908152602001600020828154811015156128a257fe5b90600052602060002090600602016005018190555085600360008973ffffffffffffffffffffffffffffffffffffffff1673ffffffffffffffffffffffffffffffffffffffff1681526020019081526020016000208281548110151561290457fe5b9060005260206000209060060201600001816000191690555084600360008973ffffffffffffffffffffffffffffffffffffffff1673ffffffffffffffffffffffffffffffffffffffff1681526020019081526020016000208281548110151561296a57fe5b9060005260206000209060060201600101908051906020019061298e9291906131c4565b5083600360008973ffffffffffffffffffffffffffffffffffffffff1673ffffffffffffffffffffffffffffffffffffffff168152602001908152602001600020828154811015156129dc57fe5b906000526020600020906006020160020181600019169055507fad2dd4e05af46b5cc4ebfe6c5efa0c24db15a2adb66a7a9507525613f572baca878288888834896001604051808973ffffffffffffffffffffffffffffffffffffffff1673ffffffffffffffffffffffffffffffffffffffff16815260200188815260200187600019166000191681526020018060200186600019166000191681526020018581526020018060200184151515158152602001838103835288818151815260200191508051906020019060200280838360005b83811015612aca578082015181840152602081019050612aaf565b50505050905001838103825285818151815260200191508051906020019060200280838360005b83811015612b0c578082015181840152602081019050612af1565b505050509050019a505050505050505050505060405180910390a1600091505095945050505050565b6000828211151515612b4357fe5b818303905092915050565b60008060606000606060008088518a60200151516001010195506007604051908082528060200260200182016040528015612b985781602001602082028038833980820191505090505b5094507f6d69784164647265737365730000000000000000000000000000000000000000856000815181101515612bcb57fe5b9060200190602002019060001916908160001916815250507f616464726573735b5d2064657374416464726573736573000000000000000000856001815181101515612c1357fe5b9060200190602002019060001916908160001916815250507f7465737400000000000000000000000000000000000000000000000000000000856002815181101515612c5b57fe5b9060200190602002019060001916908160001916815250507f7465737432000000000000000000000000000000000000000000000000000000856003815181101515612ca357fe5b9060200190602002019060001916908160001916815250507f616464726573735b5d2064657374416464726573736573000000000000000000856004815181101515612ceb57fe5b9060200190602002019060001916908160001916815250507f7465737400000000000000000000000000000000000000000000000000000000856005815181101515612d3357fe5b9060200190602002019060001916908160001916815250507f7465737432000000000000000000000000000000000000000000000000000000856006815181101515612d7b57fe5b906020019060200201906000191690816000191681525050612d9c85611906565b6040518082805190602001908083835b602083101515612dd15780518252602082019150602081019050602083039250612dac565b6001836020036101000a038019825116818451168082178552505050505050905001915050604051809103902093506040805190810160405280601c81526020017f19457468657265756d205369676e6564204d6573736167653a0a333200000000815250925082846040518083805190602001908083835b602083101515612e6f5780518252602082019150602081019050602083039250612e4a565b6001836020036101000a03801982511681845116808217855250505050505090500182600019166000191681526020019250505060405180910390209150612ec4888360001916612fe090919063ffffffff16565b90507f82063f582a14b0e9c33225c41ae5031b299c0618b69179682ebf5bb716032bd48883836001604051808060200185600019166000191681526020018473ffffffffffffffffffffffffffffffffffffffff1673ffffffffffffffffffffffffffffffffffffffff16815260200183151515158152602001828103825286818151815260200191508051906020019080838360005b83811015612f76578082015181840152602081019050612f5b565b50505050905090810190601f168015612fa35780820380516001836020036101000a031916815260200191505b509550505050505060405180910390a1809650505050505050949350505050565b60008183019050828110151515612fd757fe5b80905092915050565b60008060008060418551141515612ffa57600093506130cf565b6020850151925060408501519150606085015160001a9050601b8160ff16101561302557601b810190505b601b8160ff161415801561303d5750601c8160ff1614155b1561304b57600093506130cf565b600186828585604051600081526020016040526040518085600019166000191681526020018460ff1660ff1681526020018360001916600019168152602001826000191660001916815260200194505050505060206040516020810390808403906000865af11580156130c2573d6000803e3d6000fd5b5050506020604051035193505b50505092915050565b60c0604051908101604052806000801916815260200160608152602001606081526020016000815260200160008152602001600081525090565b828054600181600116156101000203166002900490600052602060002090601f016020900481019282601f1061315357805160ff1916838001178555613181565b82800160010185558215613181579182015b82811115613180578251825591602001919060010190613165565b5b50905061318e9190613217565b5090565b8154818355818111156131bf576006028160060283600052602060002091820191016131be919061323c565b5b505050565b828054828255906000526020600020908101928215613206579160200282015b828111156132055782518290600019169055916020019190600101906131e4565b5b50905061321391906132ba565b5090565b61323991905b8082111561323557600081600090555060010161321d565b5090565b90565b6132b791905b808211156132b35760008082016000905560018201600061326391906132df565b60028201600090556003820160006101000a81549073ffffffffffffffffffffffffffffffffffffffff02191690556004820160006132a29190613300565b600582016000905550600601613242565b5090565b90565b6132dc91905b808211156132d85760008160009055506001016132c0565b5090565b90565b50805460008255906000526020600020908101906132fd91906132ba565b50565b50805460018160011615610100020316600290046000825580601f106133265750613345565b601f0160209004906000526020600020908101906133449190613217565b5b505600a165627a7a72305820a75e631761c538253af741c2712b5b69561725a50f112969777377f4089e128d0029",
  "source": "pragma solidity ^0.4.22;\n\nimport \"./zeppelin/SafeMath.sol\";\nimport \"./zeppelin/ECRecovery.sol\";\ncontract IERC20 {\n  function balanceOf(address who) public constant returns (uint256);\n  function transfer(address to, uint256 value) public returns (bool);\n  function allowance(address owner, address spender) public constant returns (uint256);\n  function transferFrom(address from, address to, uint256 value) public returns (bool);\n  function approve(address spender, uint256 value) public returns (bool);\n  event Transfer(address indexed from, address indexed to, uint256 value);\n  event Approval(address indexed owner, address indexed spender, uint256 value);\n}\n\nlibrary GetCode {\n    function at(address _addr) public view returns (bytes o_code) {\n        assembly {\n            // retrieve the size of the code, this needs assembly\n            let size := extcodesize(_addr)\n            // allocate output byte array - this could also be done without assembly\n            // by using o_code = new bytes(size)\n            o_code := mload(0x40)\n            // new \"memory end\" including padding\n            mstore(0x40, add(o_code, and(add(add(size, 0x20), 0x1f), not(0x1f))))\n            // store length in memory\n            mstore(o_code, size)\n            // actually retrieve the code, this needs assembly\n            extcodecopy(_addr, add(o_code, 0x20), 0, size)\n        }\n    }\n}\n\ncontract Enigma {\n    using SafeMath for uint256;\n    using ECRecovery for bytes32;\n\n    IERC20 public engToken;\n    struct Task {\n        bytes32 callable;\n        bytes32[] callableArgs;\n        bytes32 callback;\n        address worker;\n        bytes sig;\n        uint reward;\n    }\n\n    struct Worker {\n        bytes32 url;\n        string pkey;\n        string quote;\n        uint256 balance;\n        uint rate; // TODO: we don't want this\n        uint status; // Uninitialized: 0; Inactive:1; Active: 2\n    }\n\n    address[] public workerIndex;\n    mapping(address => Worker) public workers;\n    mapping(address => Task[]) public tasks;\n\n    event Register(bytes32 url, address user, string pkey, uint rate, bool _success);\n    event Login(address user, bool _success);\n    event Logout(address user, bool _success);\n    event UpdateRate(address user, uint rate, bool _success);\n    event Deposit(address secretContract, address user, uint amount, uint balance, bool _success);\n    event Withdraw(address user, uint amount, uint balance, bool _success);\n    event ValidateSig(bytes sig, bytes32 hash, address workerAddr, bool _success);\n    event SolveTask(address secretContract, address worker, bytes sig, uint reward, bool _success);\n\n    // Enigma computation task\n    event ComputeTask(address callingContract, uint taskId, bytes32 callable, bytes32[] callableArgs, bytes32 callback, uint fee, bytes32[] preprocessors, bool _success);\n\n    enum ReturnValue {Ok, Error}\n\n    function Enigma(address _tokenAddress) public {\n        engToken = IERC20(_tokenAddress);\n    }\n\n    modifier workerRegistered(address user) {\n        Worker memory worker = workers[user];\n        require(worker.status > 0, \"Unregistered worker.\");\n        _;\n    }\n\n    function register(bytes32 url, string pkey, uint rate)\n    public\n    payable\n    returns (ReturnValue) {\n        // Register a new worker and deposit stake\n        // require(workers[msg.sender].status == 0, \"Worker already register.\");\n\n        workerIndex.push(msg.sender);\n\n        workers[msg.sender].url = url;\n        workers[msg.sender].pkey = pkey;\n        workers[msg.sender].balance = msg.value;\n        workers[msg.sender].rate = rate;\n        workers[msg.sender].status = 1;\n\n        emit Register(url, msg.sender, pkey, rate, true);\n\n        return ReturnValue.Ok;\n    }\n\n    //TODO: we don't want this\n    function login(string quote)\n    public\n    workerRegistered(msg.sender)\n    returns (ReturnValue) {\n        // The worker is ready to receive tasks\n\n        // TODO: validate quote signature here\n        workers[msg.sender].quote = quote;\n        workers[msg.sender].status = 2;\n\n        emit Login(msg.sender, true);\n\n        return ReturnValue.Ok;\n    }\n\n    //TODO: we don't want this\n    function logout()\n    public\n    workerRegistered(msg.sender)\n    returns (ReturnValue) {\n        // A worker stops accepting tasks\n        workers[msg.sender].status = 1;\n\n        emit Logout(msg.sender, true);\n\n        return ReturnValue.Ok;\n    }\n\n    //TODO: we don't want this\n    function updateRate(uint rate)\n    public\n    workerRegistered(msg.sender)\n    returns (ReturnValue) {\n        // Update the ENG/GAS rate\n        workers[msg.sender].rate = rate;\n\n        emit UpdateRate(msg.sender, rate, true);\n\n        return ReturnValue.Ok;\n    }\n\n    //TODO: we don't want this\n    function withdraw(uint amount)\n    public\n    workerRegistered(msg.sender)\n    returns (ReturnValue) {\n        // Withdraw from stake and rewards balance\n        Worker storage worker = workers[msg.sender];\n        require(worker.balance > amount, \"Not enough funds to withdraw.\");\n\n        worker.balance = worker.balance.sub(amount);\n        msg.sender.transfer(amount);\n\n        emit Withdraw(msg.sender, amount, worker.balance, true);\n\n        return ReturnValue.Ok;\n    }\n\n    function compute(address secretContract, bytes32 callable, bytes32[] callableArgs, bytes32 callback, bytes32[] preprocessors)\n    public\n    payable\n    returns (ReturnValue) {\n        // Each task invoked by a contract has a sequential id\n        uint taskId = tasks[secretContract].length;\n        tasks[secretContract].length++;\n        tasks[secretContract][taskId].reward = msg.value;\n        tasks[secretContract][taskId].callable = callable;\n        tasks[secretContract][taskId].callableArgs = callableArgs;\n        tasks[secretContract][taskId].callback = callback;\n\n        // Emit the ComputeTask event which each node is watching for\n        emit ComputeTask(secretContract, taskId, callable, callableArgs, callback, msg.value, preprocessors, true);\n\n        return ReturnValue.Ok;\n    }\n\n    function bytes32ArrayToBytes (bytes32[] data) returns (bytes) {\n        // Merges parts of a bytes32[] into bytes\n        // TODO: may be unsafe and suboptimal\n        bytes memory bytesString = new bytes(data.length * 32);\n        uint urlLength;\n        for (uint i=0; i<data.length; i++) {\n            for (uint j=0; j<32; j++) {\n                byte char = byte(bytes32(uint(data[i]) * 2 ** (8 * j)));\n                if (char != 0) {\n                    bytesString[urlLength] = char;\n                    urlLength += 1;\n                }\n            }\n        }\n        bytes memory bytesStringTrimmed = new bytes(urlLength);\n        for (i=0; i<urlLength; i++) {\n            bytesStringTrimmed[i] = bytesString[i];\n        }\n        return bytesStringTrimmed;\n    }\n\n    function verifySignature(address secretContract, Task task, bytes32[] results, bytes sig) internal constant\n    returns (address) {\n        // Recreating a data hash to validate the signature\n\n        uint size = 1 + task.callableArgs.length + results.length;\n        bytes32[] memory parts = new bytes32[](7);\n        parts[0] = 'mixAddresses';\n        parts[1] = 'address[] destAddresses';\n        parts[2] = 'test';\n        parts[3] = 'test2';\n        parts[4] = 'address[] destAddresses';\n        parts[5] = 'test';\n        parts[6] = 'test2';\n\n        //uint offset = 1;\n        //for(uint i1=0; i1 < task.callableArgs.length; i1++) {\n        //    if (i1 > 1) {\n        //        parts[offset] = task.callableArgs[i1];\n        //        offset++;\n        //    }\n        //}\n        //for(uint i2=0; i2 < results.length; i2++) {\n        //    if (i2 > 1) {\n        //        parts[offset] = results[i2];\n        //        offset++;\n        //    }\n        //}\n\n        // Build a hash to validate that the I/Os are matching\n        bytes32 hash = keccak256(bytes32ArrayToBytes(parts));\n        bytes memory prefix = \"\\x19Ethereum Signed Message:\\n32\";\n        bytes32 prefixedHash = sha3(prefix, hash);\n\n        // TODO: this returns an address where we want to verify a public key\n        // I don't believe that Solidity has a general purpose signature\n        // validator. However, we know that an Ethereum address is the hash\n        // of a public key, so we can use our public key to generate a\n        // virtual address for validation.\n        address workerAddr = prefixedHash.recover(sig);\n\n        emit ValidateSig(sig, prefixedHash, workerAddr, true);\n        return workerAddr;\n    }\n\n    // TODO: remove the hash parameter and recreate it in the function\n    function solveTask(address secretContract, uint taskId, bytes32[] results, bytes sig)\n    public\n    workerRegistered(msg.sender)\n    returns (ReturnValue) {\n        // Task must be solved only once\n        require(tasks[secretContract][taskId].worker == address(0), \"Task already solved.\");\n\n        address sigAddr = verifySignature(secretContract, tasks[secretContract][taskId], results, sig);\n        require(sigAddr != address(0), \"Cannot verify this signature.\");\n        require(sigAddr == msg.sender, \"Invalid signature.\");\n\n        // The contract must hold enough fund to distribute reward\n        // TODO: validate that the reward matches the opcodes computed\n        uint reward = tasks[secretContract][taskId].reward;\n        require(reward > 0, \"Reward cannot be zero.\");\n\n        // Keep a trace of the task worker and proof\n        tasks[secretContract][taskId].worker = msg.sender;\n        // tasks[secretContract][taskId].sig = sig;\n\n        // Put the reward in the worker's bank\n        // He can withdraw later\n        Worker storage worker = workers[msg.sender];\n        worker.balance = worker.balance.add(reward);\n\n        emit SolveTask(secretContract, msg.sender, sig, reward, true);\n\n        return ReturnValue.Ok;\n    }\n}\n",
  "sourcePath": "/Users/fredfortier/Code/enigma/mvp0/coin-mixer-poc/dapp/contracts/Enigma.sol",
  "compiler": {
    "name": "solc",
    "version": "0.4.23+commit.124ca40d.Emscripten.clang"
  },
  "schemaVersion": "2.0.0",
  "updatedAt": "2018-04-28T19:51:53.875Z"
}