{
  "contractName": "Enigma",
  "abi": [
    {
      "constant": true,
      "inputs": [
        {
          "name": "",
          "type": "uint256"
        }
      ],
      "name": "workerIndex",
      "outputs": [
        {
          "name": "",
          "type": "address"
        }
      ],
      "payable": false,
      "stateMutability": "view",
      "type": "function"
    },
    {
      "constant": true,
      "inputs": [
        {
          "name": "",
          "type": "address"
        }
      ],
      "name": "workers",
      "outputs": [
        {
          "name": "url",
          "type": "bytes32"
        },
        {
          "name": "pkey",
          "type": "string"
        },
        {
          "name": "quote",
          "type": "string"
        },
        {
          "name": "balance",
          "type": "uint256"
        },
        {
          "name": "status",
          "type": "uint256"
        }
      ],
      "payable": false,
      "stateMutability": "view",
      "type": "function"
    },
    {
      "constant": true,
      "inputs": [
        {
          "name": "",
          "type": "address"
        },
        {
          "name": "",
          "type": "uint256"
        }
      ],
      "name": "tasks",
      "outputs": [
        {
          "name": "callable",
          "type": "string"
        },
        {
          "name": "callableArgs",
          "type": "bytes"
        },
        {
          "name": "callback",
          "type": "string"
        },
        {
          "name": "worker",
          "type": "address"
        },
        {
          "name": "sig",
          "type": "bytes"
        },
        {
          "name": "reward",
          "type": "uint256"
        },
        {
          "name": "status",
          "type": "uint8"
        }
      ],
      "payable": false,
      "stateMutability": "view",
      "type": "function"
    },
    {
      "constant": true,
      "inputs": [],
      "name": "engToken",
      "outputs": [
        {
          "name": "",
          "type": "address"
        }
      ],
      "payable": false,
      "stateMutability": "view",
      "type": "function"
    },
    {
      "inputs": [
        {
          "name": "_tokenAddress",
          "type": "address"
        }
      ],
      "payable": false,
      "stateMutability": "nonpayable",
      "type": "constructor"
    },
    {
      "anonymous": false,
      "inputs": [
        {
          "indexed": false,
          "name": "url",
          "type": "bytes32"
        },
        {
          "indexed": false,
          "name": "user",
          "type": "address"
        },
        {
          "indexed": false,
          "name": "pkey",
          "type": "string"
        },
        {
          "indexed": false,
          "name": "_success",
          "type": "bool"
        }
      ],
      "name": "Register",
      "type": "event"
    },
    {
      "anonymous": false,
      "inputs": [
        {
          "indexed": false,
          "name": "user",
          "type": "address"
        },
        {
          "indexed": false,
          "name": "_success",
          "type": "bool"
        }
      ],
      "name": "Logout",
      "type": "event"
    },
    {
      "anonymous": false,
      "inputs": [
        {
          "indexed": false,
          "name": "sig",
          "type": "bytes"
        },
        {
          "indexed": false,
          "name": "hash",
          "type": "bytes32"
        },
        {
          "indexed": false,
          "name": "workerAddr",
          "type": "address"
        },
        {
          "indexed": false,
          "name": "bytecode",
          "type": "bytes"
        },
        {
          "indexed": false,
          "name": "_success",
          "type": "bool"
        }
      ],
      "name": "ValidateSig",
      "type": "event"
    },
    {
      "anonymous": false,
      "inputs": [
        {
          "indexed": false,
          "name": "secretContract",
          "type": "address"
        },
        {
          "indexed": false,
          "name": "worker",
          "type": "address"
        },
        {
          "indexed": false,
          "name": "sig",
          "type": "bytes"
        },
        {
          "indexed": false,
          "name": "reward",
          "type": "uint256"
        },
        {
          "indexed": false,
          "name": "_success",
          "type": "bool"
        }
      ],
      "name": "CommitResults",
      "type": "event"
    },
    {
      "anonymous": false,
      "inputs": [
        {
          "indexed": false,
          "name": "callingContract",
          "type": "address"
        },
        {
          "indexed": false,
          "name": "taskId",
          "type": "uint256"
        },
        {
          "indexed": false,
          "name": "callable",
          "type": "string"
        },
        {
          "indexed": false,
          "name": "callableArgs",
          "type": "bytes"
        },
        {
          "indexed": false,
          "name": "callback",
          "type": "string"
        },
        {
          "indexed": false,
          "name": "fee",
          "type": "uint256"
        },
        {
          "indexed": false,
          "name": "preprocessors",
          "type": "bytes32[]"
        },
        {
          "indexed": false,
          "name": "_success",
          "type": "bool"
        }
      ],
      "name": "ComputeTask",
      "type": "event"
    },
    {
      "constant": false,
      "inputs": [
        {
          "name": "url",
          "type": "bytes32"
        },
        {
          "name": "pkey",
          "type": "string"
        },
        {
          "name": "quote",
          "type": "string"
        }
      ],
      "name": "register",
      "outputs": [
        {
          "name": "",
          "type": "uint8"
        }
      ],
      "payable": true,
      "stateMutability": "payable",
      "type": "function"
    },
    {
      "constant": false,
      "inputs": [],
      "name": "logout",
      "outputs": [
        {
          "name": "",
          "type": "uint8"
        }
      ],
      "payable": false,
      "stateMutability": "nonpayable",
      "type": "function"
    },
    {
      "constant": false,
      "inputs": [
        {
          "name": "secretContract",
          "type": "address"
        },
        {
          "name": "callable",
          "type": "string"
        },
        {
          "name": "callableArgs",
          "type": "bytes"
        },
        {
          "name": "callback",
          "type": "string"
        },
        {
          "name": "preprocessors",
          "type": "bytes32[]"
        }
      ],
      "name": "compute",
      "outputs": [
        {
          "name": "",
          "type": "uint8"
        }
      ],
      "payable": true,
      "stateMutability": "payable",
      "type": "function"
    },
    {
      "constant": false,
      "inputs": [
        {
          "name": "secretContract",
          "type": "address"
        },
        {
          "name": "taskId",
          "type": "uint256"
        },
        {
          "name": "data",
          "type": "bytes"
        },
        {
          "name": "sig",
          "type": "bytes"
        }
      ],
      "name": "commitResults",
      "outputs": [
        {
          "name": "",
          "type": "uint8"
        }
      ],
      "payable": false,
      "stateMutability": "nonpayable",
      "type": "function"
    }
  ],
  "bytecode": "0x608060405234801561001057600080fd5b50604051602080612caa83398101806040528101908080519060200190929190505050806000806101000a81548173ffffffffffffffffffffffffffffffffffffffff021916908373ffffffffffffffffffffffffffffffffffffffff16021790555050612c27806100836000396000f30060806040526004361061008e576000357c0100000000000000000000000000000000000000000000000000000000900463ffffffff1680630a2bbf6c146100935780631f3c99c3146101005780633335f932146101395780634048a257146102a657806358fd6aec146103eb5780637149d2e4146104bd5780639489ad40146107165780639d6048671461076d575b600080fd5b34801561009f57600080fd5b506100be60048036038101908080359060200190929190505050610868565b604051808273ffffffffffffffffffffffffffffffffffffffff1673ffffffffffffffffffffffffffffffffffffffff16815260200191505060405180910390f35b34801561010c57600080fd5b506101156108a6565b6040518082600181111561012557fe5b60ff16815260200191505060405180910390f35b610282600480360381019080803573ffffffffffffffffffffffffffffffffffffffff169060200190929190803590602001908201803590602001908080601f0160208091040260200160405190810160405280939291908181526020018383808284378201915050505050509192919290803590602001908201803590602001908080601f0160208091040260200160405190810160405280939291908181526020018383808284378201915050505050509192919290803590602001908201803590602001908080601f016020809104026020016040519081016040528093929190818152602001838380828437820191505050505050919291929080359060200190820180359060200190808060200260200160405190810160405280939291908181526020018383602002808284378201915050505050509192919290505050610ba4565b6040518082600181111561029257fe5b60ff16815260200191505060405180910390f35b3480156102b257600080fd5b506102e7600480360381019080803573ffffffffffffffffffffffffffffffffffffffff169060200190929190505050611093565b6040518086600019166000191681526020018060200180602001858152602001848152602001838103835287818151815260200191508051906020019080838360005b8381101561034557808201518184015260208101905061032a565b50505050905090810190601f1680156103725780820380516001836020036101000a031916815260200191505b50838103825286818151815260200191508051906020019080838360005b838110156103ab578082015181840152602081019050610390565b50505050905090810190601f1680156103d85780820380516001836020036101000a031916815260200191505b5097505050505050505060405180910390f35b6104996004803603810190808035600019169060200190929190803590602001908201803590602001908080601f0160208091040260200160405190810160405280939291908181526020018383808284378201915050505050509192919290803590602001908201803590602001908080601f01602080910402602001604051908101604052809392919081815260200183838082843782019150505050505091929192905050506111f9565b604051808260018111156104a957fe5b60ff16815260200191505060405180910390f35b3480156104c957600080fd5b50610508600480360381019080803573ffffffffffffffffffffffffffffffffffffffff169060200190929190803590602001909291905050506114e1565b604051808060200180602001806020018873ffffffffffffffffffffffffffffffffffffffff1673ffffffffffffffffffffffffffffffffffffffff1681526020018060200187815260200186600181111561056057fe5b60ff16815260200185810385528c818151815260200191508051906020019080838360005b838110156105a0578082015181840152602081019050610585565b50505050905090810190601f1680156105cd5780820380516001836020036101000a031916815260200191505b5085810384528b818151815260200191508051906020019080838360005b838110156106065780820151818401526020810190506105eb565b50505050905090810190601f1680156106335780820380516001836020036101000a031916815260200191505b5085810383528a818151815260200191508051906020019080838360005b8381101561066c578082015181840152602081019050610651565b50505050905090810190601f1680156106995780820380516001836020036101000a031916815260200191505b50858103825288818151815260200191508051906020019080838360005b838110156106d25780820151818401526020810190506106b7565b50505050905090810190601f1680156106ff5780820380516001836020036101000a031916815260200191505b509b50505050505050505050505060405180910390f35b34801561072257600080fd5b5061072b6117cc565b604051808273ffffffffffffffffffffffffffffffffffffffff1673ffffffffffffffffffffffffffffffffffffffff16815260200191505060405180910390f35b34801561077957600080fd5b50610844600480360381019080803573ffffffffffffffffffffffffffffffffffffffff16906020019092919080359060200190929190803590602001908201803590602001908080601f0160208091040260200160405190810160405280939291908181526020018383808284378201915050505050509192919290803590602001908201803590602001908080601f01602080910402602001604051908101604052809392919081815260200183838082843782019150505050505091929192905050506117f1565b6040518082600181111561085457fe5b60ff16815260200191505060405180910390f35b60018181548110151561087757fe5b906000526020600020016000915054906101000a900473ffffffffffffffffffffffffffffffffffffffff1681565b6000336108b161293f565b600260008373ffffffffffffffffffffffffffffffffffffffff1673ffffffffffffffffffffffffffffffffffffffff16815260200190815260200160002060a06040519081016040529081600082015460001916600019168152602001600182018054600181600116156101000203166002900480601f0160208091040260200160405190810160405280929190818152602001828054600181600116156101000203166002900480156109a75780601f1061097c576101008083540402835291602001916109a7565b820191906000526020600020905b81548152906001019060200180831161098a57829003601f168201915b50505050508152602001600282018054600181600116156101000203166002900480601f016020809104026020016040519081016040528092919081815260200182805460018160011615610100020316600290048015610a495780601f10610a1e57610100808354040283529160200191610a49565b820191906000526020600020905b815481529060010190602001808311610a2c57829003601f168201915b5050505050815260200160038201548152602001600482015481525050905060008160800151111515610ae4576040517f08c379a00000000000000000000000000000000000000000000000000000000081526004018080602001828103825260148152602001807f556e7265676973746572656420776f726b65722e00000000000000000000000081525060200191505060405180910390fd5b60028060003373ffffffffffffffffffffffffffffffffffffffff1673ffffffffffffffffffffffffffffffffffffffff168152602001908152602001600020600401819055507f142855c2ec5b59c44b6edd425942f19ba27545104b30ca9ee3e92c5d5135bf60336001604051808373ffffffffffffffffffffffffffffffffffffffff1673ffffffffffffffffffffffffffffffffffffffff168152602001821515151581526020019250505060405180910390a160009250505090565b600080600360008873ffffffffffffffffffffffffffffffffffffffff1673ffffffffffffffffffffffffffffffffffffffff168152602001908152602001600020805490509050600360008873ffffffffffffffffffffffffffffffffffffffff1673ffffffffffffffffffffffffffffffffffffffff1681526020019081526020016000208054809190600101610c3d9190612972565b5034600360008973ffffffffffffffffffffffffffffffffffffffff1673ffffffffffffffffffffffffffffffffffffffff16815260200190815260200160002082815481101515610c8b57fe5b90600052602060002090600702016005018190555085600360008973ffffffffffffffffffffffffffffffffffffffff1673ffffffffffffffffffffffffffffffffffffffff16815260200190815260200160002082815481101515610ced57fe5b90600052602060002090600702016000019080519060200190610d119291906129a4565b5084600360008973ffffffffffffffffffffffffffffffffffffffff1673ffffffffffffffffffffffffffffffffffffffff16815260200190815260200160002082815481101515610d5f57fe5b90600052602060002090600702016001019080519060200190610d83929190612a24565b5083600360008973ffffffffffffffffffffffffffffffffffffffff1673ffffffffffffffffffffffffffffffffffffffff16815260200190815260200160002082815481101515610dd157fe5b90600052602060002090600702016002019080519060200190610df59291906129a4565b506000600360008973ffffffffffffffffffffffffffffffffffffffff1673ffffffffffffffffffffffffffffffffffffffff16815260200190815260200160002082815481101515610e4457fe5b906000526020600020906007020160060160006101000a81548160ff02191690836001811115610e7057fe5b02179055507f0d3653c1248dc20f9f4db3082c0260dc8e464192af15917e14b3c19f0086ac38878288888834896001604051808973ffffffffffffffffffffffffffffffffffffffff1673ffffffffffffffffffffffffffffffffffffffff168152602001888152602001806020018060200180602001878152602001806020018615151515815260200185810385528b818151815260200191508051906020019080838360005b83811015610f33578082015181840152602081019050610f18565b50505050905090810190601f168015610f605780820380516001836020036101000a031916815260200191505b5085810384528a818151815260200191508051906020019080838360005b83811015610f99578082015181840152602081019050610f7e565b50505050905090810190601f168015610fc65780820380516001836020036101000a031916815260200191505b50858103835289818151815260200191508051906020019080838360005b83811015610fff578082015181840152602081019050610fe4565b50505050905090810190601f16801561102c5780820380516001836020036101000a031916815260200191505b50858103825287818151815260200191508051906020019060200280838360005b8381101561106857808201518184015260208101905061104d565b505050509050019c5050505050505050505050505060405180910390a1600091505095945050505050565b6002602052806000526040600020600091509050806000015490806001018054600181600116156101000203166002900480601f0160208091040260200160405190810160405280929190818152602001828054600181600116156101000203166002900480156111455780601f1061111a57610100808354040283529160200191611145565b820191906000526020600020905b81548152906001019060200180831161112857829003601f168201915b505050505090806002018054600181600116156101000203166002900480601f0160208091040260200160405190810160405280929190818152602001828054600181600116156101000203166002900480156111e35780601f106111b8576101008083540402835291602001916111e3565b820191906000526020600020905b8154815290600101906020018083116111c657829003601f168201915b5050505050908060030154908060040154905085565b600060013390806001815401808255809150509060018203906000526020600020016000909192909190916101000a81548173ffffffffffffffffffffffffffffffffffffffff021916908373ffffffffffffffffffffffffffffffffffffffff1602179055505083600260003373ffffffffffffffffffffffffffffffffffffffff1673ffffffffffffffffffffffffffffffffffffffff168152602001908152602001600020600001816000191690555082600260003373ffffffffffffffffffffffffffffffffffffffff1673ffffffffffffffffffffffffffffffffffffffff16815260200190815260200160002060010190805190602001906113029291906129a4565b5034600260003373ffffffffffffffffffffffffffffffffffffffff1673ffffffffffffffffffffffffffffffffffffffff1681526020019081526020016000206003018190555081600260003373ffffffffffffffffffffffffffffffffffffffff1673ffffffffffffffffffffffffffffffffffffffff16815260200190815260200160002060020190805190602001906113a09291906129a4565b506001600260003373ffffffffffffffffffffffffffffffffffffffff1673ffffffffffffffffffffffffffffffffffffffff168152602001908152602001600020600401819055507fbb570a6aa44b19a60a37e95c6a1d83c308163559d39eb5a9dec14c081623887684338560016040518085600019166000191681526020018473ffffffffffffffffffffffffffffffffffffffff1673ffffffffffffffffffffffffffffffffffffffff1681526020018060200183151515158152602001828103825284818151815260200191508051906020019080838360005b8381101561149957808201518184015260208101905061147e565b50505050905090810190601f1680156114c65780820380516001836020036101000a031916815260200191505b509550505050505060405180910390a1600090509392505050565b6003602052816000526040600020818154811015156114fc57fe5b906000526020600020906007020160009150915050806000018054600181600116156101000203166002900480601f0160208091040260200160405190810160405280929190818152602001828054600181600116156101000203166002900480156115a95780601f1061157e576101008083540402835291602001916115a9565b820191906000526020600020905b81548152906001019060200180831161158c57829003601f168201915b505050505090806001018054600181600116156101000203166002900480601f0160208091040260200160405190810160405280929190818152602001828054600181600116156101000203166002900480156116475780601f1061161c57610100808354040283529160200191611647565b820191906000526020600020905b81548152906001019060200180831161162a57829003601f168201915b505050505090806002018054600181600116156101000203166002900480601f0160208091040260200160405190810160405280929190818152602001828054600181600116156101000203166002900480156116e55780601f106116ba576101008083540402835291602001916116e5565b820191906000526020600020905b8154815290600101906020018083116116c857829003601f168201915b5050505050908060030160009054906101000a900473ffffffffffffffffffffffffffffffffffffffff1690806004018054600181600116156101000203166002900480601f0160208091040260200160405190810160405280929190818152602001828054600181600116156101000203166002900480156117a95780601f1061177e576101008083540402835291602001916117a9565b820191906000526020600020905b81548152906001019060200180831161178c57829003601f168201915b5050505050908060050154908060060160009054906101000a900460ff16905087565b6000809054906101000a900473ffffffffffffffffffffffffffffffffffffffff1681565b6000806000803361180061293f565b600260008373ffffffffffffffffffffffffffffffffffffffff1673ffffffffffffffffffffffffffffffffffffffff16815260200190815260200160002060a06040519081016040529081600082015460001916600019168152602001600182018054600181600116156101000203166002900480601f0160208091040260200160405190810160405280929190818152602001828054600181600116156101000203166002900480156118f65780601f106118cb576101008083540402835291602001916118f6565b820191906000526020600020905b8154815290600101906020018083116118d957829003601f168201915b50505050508152602001600282018054600181600116156101000203166002900480601f0160208091040260200160405190810160405280929190818152602001828054600181600116156101000203166002900480156119985780601f1061196d57610100808354040283529160200191611998565b820191906000526020600020905b81548152906001019060200180831161197b57829003601f168201915b5050505050815260200160038201548152602001600482015481525050905060008160800151111515611a33576040517f08c379a00000000000000000000000000000000000000000000000000000000081526004018080602001828103825260148152602001807f556e7265676973746572656420776f726b65722e00000000000000000000000081525060200191505060405180910390fd5b60006001811115611a4057fe5b600360008c73ffffffffffffffffffffffffffffffffffffffff1673ffffffffffffffffffffffffffffffffffffffff1681526020019081526020016000208a815481101515611a8c57fe5b906000526020600020906007020160060160009054906101000a900460ff166001811115611ab657fe5b141515611b51576040517f08c379a00000000000000000000000000000000000000000000000000000000081526004018080602001828103825260298152602001807f496c6c6567616c207374617475732c207461736b206d75737420626520696e2081526020017f70726f67726573732e000000000000000000000000000000000000000000000081525060400191505060405180910390fd5b611ed78a600360008d73ffffffffffffffffffffffffffffffffffffffff1673ffffffffffffffffffffffffffffffffffffffff1681526020019081526020016000208b815481101515611ba157fe5b906000526020600020906007020160e06040519081016040529081600082018054600181600116156101000203166002900480601f016020809104026020016040519081016040528092919081815260200182805460018160011615610100020316600290048015611c545780601f10611c2957610100808354040283529160200191611c54565b820191906000526020600020905b815481529060010190602001808311611c3757829003601f168201915b50505050508152602001600182018054600181600116156101000203166002900480601f016020809104026020016040519081016040528092919081815260200182805460018160011615610100020316600290048015611cf65780601f10611ccb57610100808354040283529160200191611cf6565b820191906000526020600020905b815481529060010190602001808311611cd957829003601f168201915b50505050508152602001600282018054600181600116156101000203166002900480601f016020809104026020016040519081016040528092919081815260200182805460018160011615610100020316600290048015611d985780601f10611d6d57610100808354040283529160200191611d98565b820191906000526020600020905b815481529060010190602001808311611d7b57829003601f168201915b505050505081526020016003820160009054906101000a900473ffffffffffffffffffffffffffffffffffffffff1673ffffffffffffffffffffffffffffffffffffffff1673ffffffffffffffffffffffffffffffffffffffff168152602001600482018054600181600116156101000203166002900480601f016020809104026020016040519081016040528092919081815260200182805460018160011615610100020316600290048015611e905780601f10611e6557610100808354040283529160200191611e90565b820191906000526020600020905b815481529060010190602001808311611e7357829003601f168201915b50505050508152602001600582015481526020016006820160009054906101000a900460ff166001811115611ec157fe5b6001811115611ecc57fe5b815250508a8a61248f565b9450600073ffffffffffffffffffffffffffffffffffffffff168573ffffffffffffffffffffffffffffffffffffffff1614151515611f7e576040517f08c379a000000000000000000000000000000000000000000000000000000000815260040180806020018281038252601d8152602001807f43616e6e6f74207665726966792074686973207369676e61747572652e00000081525060200191505060405180910390fd5b3373ffffffffffffffffffffffffffffffffffffffff168573ffffffffffffffffffffffffffffffffffffffff16141515612021576040517f08c379a00000000000000000000000000000000000000000000000000000000081526004018080602001828103825260128152602001807f496e76616c6964207369676e61747572652e000000000000000000000000000081525060200191505060405180910390fd5b600360008b73ffffffffffffffffffffffffffffffffffffffff1673ffffffffffffffffffffffffffffffffffffffff1681526020019081526020016000208981548110151561206d57fe5b90600052602060002090600702016005015493506000841115156120f9576040517f08c379a00000000000000000000000000000000000000000000000000000000081526004018080602001828103825260168152602001807f5265776172642063616e6e6f74206265207a65726f2e0000000000000000000081525060200191505060405180910390fd5b6121048a348a6127e8565b1515612178576040517f08c379a000000000000000000000000000000000000000000000000000000000815260040180806020018281038252601d8152602001807f556e61626c6520746f20696e766f6b65207468652063616c6c6261636b00000081525060200191505060405180910390fd5b33600360008c73ffffffffffffffffffffffffffffffffffffffff1673ffffffffffffffffffffffffffffffffffffffff1681526020019081526020016000208a8154811015156121c557fe5b906000526020600020906007020160030160006101000a81548173ffffffffffffffffffffffffffffffffffffffff021916908373ffffffffffffffffffffffffffffffffffffffff16021790555086600360008c73ffffffffffffffffffffffffffffffffffffffff1673ffffffffffffffffffffffffffffffffffffffff1681526020019081526020016000208a81548110151561226157fe5b90600052602060002090600702016004019080519060200190612285929190612a24565b506001600360008c73ffffffffffffffffffffffffffffffffffffffff1673ffffffffffffffffffffffffffffffffffffffff1681526020019081526020016000208a8154811015156122d457fe5b906000526020600020906007020160060160006101000a81548160ff0219169083600181111561230057fe5b0217905550600260003373ffffffffffffffffffffffffffffffffffffffff1673ffffffffffffffffffffffffffffffffffffffff168152602001908152602001600020925061235d84846003015461280090919063ffffffff16565b83600301819055507f860ef3e30d5efeaa79f3d448bd5219e9b92ca92eefb7bcc4e8c6b3420fe9dd3d8a3389876001604051808673ffffffffffffffffffffffffffffffffffffffff1673ffffffffffffffffffffffffffffffffffffffff1681526020018573ffffffffffffffffffffffffffffffffffffffff1673ffffffffffffffffffffffffffffffffffffffff1681526020018060200184815260200183151515158152602001828103825285818151815260200191508051906020019080838360005b83811015612440578082015181840152602081019050612425565b50505050905090810190601f16801561246d5780820380516001836020036101000a031916815260200191505b50965050505050505060405180910390a1600095505050505050949350505050565b60006060600060606000806124a38a61281c565b9450886020015188866040518084805190602001908083835b6020831015156124e157805182526020820191506020810190506020830392506124bc565b6001836020036101000a03801982511681845116808217855250505050505090500183805190602001908083835b602083101515612534578051825260208201915060208101905060208303925061250f565b6001836020036101000a03801982511681845116808217855250505050505090500182805190602001908083835b6020831015156125875780518252602082019150602081019050602083039250612562565b6001836020036101000a0380198251168184511680821785525050505050509050019350505050604051809103902093506040805190810160405280601c81526020017f19457468657265756d205369676e6564204d6573736167653a0a333200000000815250925082846040518083805190602001908083835b6020831015156126275780518252602082019150602081019050602083039250612602565b6001836020036101000a0380198251168184511680821785525050505050509050018260001916600019168152602001925050506040518091039020915061267c87836000191661284790919063ffffffff16565b90507fff6705f1a974965043a4b4d997ef0e9f773759a078b3a30b02507c11ec5a6c4b878383886001604051808060200186600019166000191681526020018573ffffffffffffffffffffffffffffffffffffffff1673ffffffffffffffffffffffffffffffffffffffff1681526020018060200184151515158152602001838103835288818151815260200191508051906020019080838360005b83811015612733578082015181840152602081019050612718565b50505050905090810190601f1680156127605780820380516001836020036101000a031916815260200191505b50838103825285818151815260200191508051906020019080838360005b8381101561279957808201518184015260208101905061277e565b50505050905090810190601f1680156127c65780820380516001836020036101000a031916815260200191505b5097505050505050505060405180910390a18095505050505050949350505050565b600080600083516020850186885af190509392505050565b6000818301905082811015151561281357fe5b80905092915050565b6060813b6040519150601f19601f602083010116820160405280825280600060208401853c50919050565b600080600080604185511415156128615760009350612936565b6020850151925060408501519150606085015160001a9050601b8160ff16101561288c57601b810190505b601b8160ff16141580156128a45750601c8160ff1614155b156128b25760009350612936565b600186828585604051600081526020016040526040518085600019166000191681526020018460ff1660ff1681526020018360001916600019168152602001826000191660001916815260200194505050505060206040516020810390808403906000865af1158015612929573d6000803e3d6000fd5b5050506020604051035193505b50505092915050565b60a06040519081016040528060008019168152602001606081526020016060815260200160008152602001600081525090565b81548183558181111561299f5760070281600702836000526020600020918201910161299e9190612aa4565b5b505050565b828054600181600116156101000203166002900490600052602060002090601f016020900481019282601f106129e557805160ff1916838001178555612a13565b82800160010185558215612a13579182015b82811115612a125782518255916020019190600101906129f7565b5b509050612a209190612b46565b5090565b828054600181600116156101000203166002900490600052602060002090601f016020900481019282601f10612a6557805160ff1916838001178555612a93565b82800160010185558215612a93579182015b82811115612a92578251825591602001919060010190612a77565b5b509050612aa09190612b46565b5090565b612b4391905b80821115612b3f5760008082016000612ac39190612b6b565b600182016000612ad39190612bb3565b600282016000612ae39190612b6b565b6003820160006101000a81549073ffffffffffffffffffffffffffffffffffffffff0219169055600482016000612b1a9190612bb3565b60058201600090556006820160006101000a81549060ff021916905550600701612aaa565b5090565b90565b612b6891905b80821115612b64576000816000905550600101612b4c565b5090565b90565b50805460018160011615610100020316600290046000825580601f10612b915750612bb0565b601f016020900490600052602060002090810190612baf9190612b46565b5b50565b50805460018160011615610100020316600290046000825580601f10612bd95750612bf8565b601f016020900490600052602060002090810190612bf79190612b46565b5b505600a165627a7a7230582093390506ec457fdb8c0897eef6cdee578baee5bafa36fedb1594c8502f794bdd0029",
  "source": "pragma solidity ^0.4.22;\n\nimport \"./zeppelin/SafeMath.sol\";\nimport \"./zeppelin/ECRecovery.sol\";\nimport \"./utils/GetCode2.sol\";\nimport \"./utils/RLP.sol\";\n\ncontract IERC20 {\n    function balanceOf(address who) public constant returns (uint256);\n\n    function transfer(address to, uint256 value) public returns (bool);\n\n    function allowance(address owner, address spender) public constant returns (uint256);\n\n    function transferFrom(address from, address to, uint256 value) public returns (bool);\n\n    function approve(address spender, uint256 value) public returns (bool);\n\n    event Transfer(address indexed from, address indexed to, uint256 value);\n    event Approval(address indexed owner, address indexed spender, uint256 value);\n}\n\n\ncontract Enigma {\n    using SafeMath for uint256;\n    using ECRecovery for bytes32;\n    using RLP for RLP.RLPItem;\n    using RLP for RLP.Iterator;\n    using RLP for bytes;\n\n    IERC20 public engToken;\n\n    struct Task {\n        string callable;\n        bytes callableArgs;\n        string callback;\n        address worker;\n        bytes sig;\n        uint reward;\n        TaskStatus status;\n    }\n    enum TaskStatus {InProgress, Executed}\n\n    struct Worker {\n        bytes32 url;\n        string pkey;\n        string quote;\n        uint256 balance;\n        uint status; // Uninitialized: 0; Active: 1; Inactive: 2\n    }\n\n    address[] public workerIndex;\n    mapping(address => Worker) public workers;\n    mapping(address => Task[]) public tasks;\n\n    event Register(bytes32 url, address user, string pkey, bool _success);\n    event Logout(address user, bool _success);\n    event ValidateSig(bytes sig, bytes32 hash, address workerAddr, bytes bytecode, bool _success);\n    event CommitResults(address secretContract, address worker, bytes sig, uint reward, bool _success);\n\n    // Enigma computation task\n    event ComputeTask(address callingContract, uint taskId, string callable, bytes callableArgs, string callback, uint fee, bytes32[] preprocessors, bool _success);\n\n    enum ReturnValue {Ok, Error}\n\n    function Enigma(address _tokenAddress) public {\n        engToken = IERC20(_tokenAddress);\n    }\n\n    modifier workerRegistered(address user) {\n        Worker memory worker = workers[user];\n        require(worker.status > 0, \"Unregistered worker.\");\n        _;\n    }\n\n    function register(bytes32 url, string pkey, string quote)\n    public\n    payable\n    returns (ReturnValue) {\n        // Register a new worker and deposit stake\n        // require(workers[msg.sender].status == 0, \"Worker already register.\");\n\n        workerIndex.push(msg.sender);\n\n        workers[msg.sender].url = url;\n        workers[msg.sender].pkey = pkey;\n        workers[msg.sender].balance = msg.value;\n        workers[msg.sender].quote = quote;\n        workers[msg.sender].status = 1;\n\n        emit Register(url, msg.sender, pkey, true);\n\n        return ReturnValue.Ok;\n    }\n\n    //TODO: we don't want this\n    function logout()\n    public\n    workerRegistered(msg.sender)\n    returns (ReturnValue) {\n        // A worker stops accepting tasks\n        workers[msg.sender].status = 2;\n\n        emit Logout(msg.sender, true);\n\n        return ReturnValue.Ok;\n    }\n\n    function compute(address secretContract, string callable, bytes callableArgs, string callback, bytes32[] preprocessors)\n    public\n    payable\n    returns (ReturnValue) {\n        // Create a computation task and save the fee in escrow\n        uint taskId = tasks[secretContract].length;\n        tasks[secretContract].length++;\n\n        tasks[secretContract][taskId].reward = msg.value;\n        tasks[secretContract][taskId].callable = callable;\n        tasks[secretContract][taskId].callableArgs = callableArgs;\n        tasks[secretContract][taskId].callback = callback;\n        tasks[secretContract][taskId].status = TaskStatus.InProgress;\n\n        // Emit the ComputeTask event which each node is watching for\n        emit ComputeTask(secretContract, taskId, callable, callableArgs, callback, msg.value, preprocessors, true);\n\n        return ReturnValue.Ok;\n    }\n\n    function verifySignature(address secretContract, Task task, bytes data, bytes sig)\n    internal\n    constant\n    returns (address) {\n        // Recreating a data hash to validate the signature\n        bytes memory code = GetCode2.at(secretContract);\n\n        // Build a hash to validate that the I/Os are matching\n        bytes32 hash = keccak256(task.callableArgs, data, code);\n        bytes memory prefix = \"\\x19Ethereum Signed Message:\\n32\";\n        bytes32 prefixedHash = sha3(prefix, hash);\n\n        // TODO: this returns an address where we want to verify a public key\n        // I don't believe that Solidity has a general purpose signature\n        // validator. However, we know that an Ethereum address is the hash\n        // of a public key, so we can use our public key to generate a\n        // virtual address for validation.\n        address workerAddr = prefixedHash.recover(sig);\n\n        emit ValidateSig(sig, prefixedHash, workerAddr, code, true);\n        return workerAddr;\n    }\n\n    // copied from GnosisSafe\n    // https://github.com/gnosis/gnosis-safe-contracts/blob/master/contracts/GnosisSafe.sol\n    function executeCall(address to, uint256 value, bytes data) internal returns (bool success) {\n        assembly {\n            success := call(gas, to, value, add(data, 0x20), mload(data), 0, 0)\n        }\n    }\n\n    function commitResults(address secretContract, uint taskId, bytes data, bytes sig)\n    public\n    workerRegistered(msg.sender)\n    returns (ReturnValue) {\n        // Task must be solved only once\n        require(tasks[secretContract][taskId].status == TaskStatus.InProgress, \"Illegal status, task must be in progress.\");\n\n        address sigAddr = verifySignature(secretContract, tasks[secretContract][taskId], data, sig);\n        require(sigAddr != address(0), \"Cannot verify this signature.\");\n        require(sigAddr == msg.sender, \"Invalid signature.\");\n\n        // The contract must hold enough fund to distribute reward\n        // TODO: validate that the reward matches the opcodes computed\n        uint reward = tasks[secretContract][taskId].reward;\n        require(reward > 0, \"Reward cannot be zero.\");\n\n        // Invoking the callback method of the original contract\n        require(executeCall(secretContract, msg.value, data), \"Unable to invoke the callback\");\n\n        // Keep a trace of the task worker and proof\n        tasks[secretContract][taskId].worker = msg.sender;\n        tasks[secretContract][taskId].sig = sig;\n        tasks[secretContract][taskId].status = TaskStatus.Executed;\n\n        // TODO: send directly to the worker's custodian instead\n        // Put the reward in the worker's bank\n        // He can withdraw later\n        Worker storage worker = workers[msg.sender];\n        worker.balance = worker.balance.add(reward);\n\n        emit CommitResults(secretContract, msg.sender, sig, reward, true);\n\n        return ReturnValue.Ok;\n    }\n}\n",
  "sourcePath": "/Users/fredfortier/Code/enigma/mvp0/coin-mixer-poc/dapp/contracts/Enigma.sol",
  "compiler": {
    "name": "solc",
    "version": "0.4.23+commit.124ca40d.Emscripten.clang"
  },
  "schemaVersion": "2.0.0",
  "updatedAt": "2018-05-05T21:12:09.546Z"
}