{
  "contractName": "Enigma",
  "abi": [
    {
      "constant": true,
      "inputs": [
        {
          "name": "",
          "type": "uint256"
        }
      ],
      "name": "workerAddresses",
      "outputs": [
        {
          "name": "",
          "type": "address"
        }
      ],
      "payable": false,
      "stateMutability": "view",
      "type": "function",
      "signature": "0x0a318da0"
    },
    {
      "constant": true,
      "inputs": [
        {
          "name": "",
          "type": "address"
        }
      ],
      "name": "userSCDeployments",
      "outputs": [
        {
          "name": "",
          "type": "uint256"
        }
      ],
      "payable": false,
      "stateMutability": "view",
      "type": "function",
      "signature": "0x0f8c466c"
    },
    {
      "constant": true,
      "inputs": [
        {
          "name": "",
          "type": "address"
        }
      ],
      "name": "workers",
      "outputs": [
        {
          "name": "signer",
          "type": "address"
        },
        {
          "name": "status",
          "type": "uint8"
        },
        {
          "name": "report",
          "type": "bytes"
        },
        {
          "name": "balance",
          "type": "uint256"
        }
      ],
      "payable": false,
      "stateMutability": "view",
      "type": "function",
      "signature": "0x4048a257"
    },
    {
      "constant": true,
      "inputs": [
        {
          "name": "",
          "type": "uint256"
        }
      ],
      "name": "scAddresses",
      "outputs": [
        {
          "name": "",
          "type": "address"
        }
      ],
      "payable": false,
      "stateMutability": "view",
      "type": "function",
      "signature": "0x5f0dd5bb"
    },
    {
      "constant": true,
      "inputs": [
        {
          "name": "",
          "type": "address"
        }
      ],
      "name": "contracts",
      "outputs": [
        {
          "name": "owner",
          "type": "address"
        },
        {
          "name": "codeHash",
          "type": "bytes32"
        },
        {
          "name": "status",
          "type": "uint8"
        }
      ],
      "payable": false,
      "stateMutability": "view",
      "type": "function",
      "signature": "0x69dc9ff3"
    },
    {
      "constant": true,
      "inputs": [],
      "name": "engToken",
      "outputs": [
        {
          "name": "",
          "type": "address"
        }
      ],
      "payable": false,
      "stateMutability": "view",
      "type": "function",
      "signature": "0x9489ad40"
    },
    {
      "constant": true,
      "inputs": [],
      "name": "workerGroupSize",
      "outputs": [
        {
          "name": "",
          "type": "uint256"
        }
      ],
      "payable": false,
      "stateMutability": "view",
      "type": "function",
      "signature": "0xa3edd784"
    },
    {
      "constant": true,
      "inputs": [
        {
          "name": "",
          "type": "bytes32"
        }
      ],
      "name": "tasks",
      "outputs": [
        {
          "name": "fee",
          "type": "uint256"
        },
        {
          "name": "token",
          "type": "address"
        },
        {
          "name": "tokenValue",
          "type": "uint256"
        },
        {
          "name": "proof",
          "type": "bytes"
        },
        {
          "name": "sender",
          "type": "address"
        },
        {
          "name": "status",
          "type": "uint8"
        }
      ],
      "payable": false,
      "stateMutability": "view",
      "type": "function",
      "signature": "0xe579f500"
    },
    {
      "inputs": [
        {
          "name": "_tokenAddress",
          "type": "address"
        },
        {
          "name": "_principal",
          "type": "address"
        }
      ],
      "payable": false,
      "stateMutability": "nonpayable",
      "type": "constructor",
      "signature": "constructor"
    },
    {
      "anonymous": false,
      "inputs": [
        {
          "indexed": false,
          "name": "custodian",
          "type": "address"
        },
        {
          "indexed": false,
          "name": "signer",
          "type": "address"
        }
      ],
      "name": "Registered",
      "type": "event",
      "signature": "0x0a31ee9d46a828884b81003c8498156ea6aa15b9b54bdd0ef0b533d9eba57e55"
    },
    {
      "anonymous": false,
      "inputs": [
        {
          "indexed": false,
          "name": "sig",
          "type": "bytes"
        },
        {
          "indexed": false,
          "name": "hash",
          "type": "bytes32"
        },
        {
          "indexed": false,
          "name": "workerAddr",
          "type": "address"
        }
      ],
      "name": "ValidatedSig",
      "type": "event",
      "signature": "0xe36691ca52ee024e298e5c0ff07191b87f0ac571c01a7631db2d70d573d955cb"
    },
    {
      "anonymous": false,
      "inputs": [
        {
          "indexed": false,
          "name": "seed",
          "type": "uint256"
        },
        {
          "indexed": false,
          "name": "blockNumber",
          "type": "uint256"
        },
        {
          "indexed": false,
          "name": "workers",
          "type": "address[]"
        },
        {
          "indexed": false,
          "name": "balances",
          "type": "uint256[]"
        }
      ],
      "name": "WorkersParameterized",
      "type": "event",
      "signature": "0x7047379c64ccafb62f6625e6b2d8eb6e1b0e091fac56a11ab5e2fd896e4db1d0"
    },
    {
      "anonymous": false,
      "inputs": [
        {
          "indexed": false,
          "name": "taskId",
          "type": "bytes32"
        },
        {
          "indexed": false,
          "name": "fee",
          "type": "uint256"
        },
        {
          "indexed": false,
          "name": "token",
          "type": "address"
        },
        {
          "indexed": false,
          "name": "tokenValue",
          "type": "uint256"
        },
        {
          "indexed": false,
          "name": "sender",
          "type": "address"
        }
      ],
      "name": "TaskRecordCreated",
      "type": "event",
      "signature": "0x51364a5a527e38841b15c974f7924dad755bc9ce0d29701d7501a7bd297b787b"
    },
    {
      "anonymous": false,
      "inputs": [
        {
          "indexed": false,
          "name": "taskIds",
          "type": "bytes32[]"
        },
        {
          "indexed": false,
          "name": "fees",
          "type": "uint256[]"
        },
        {
          "indexed": false,
          "name": "tokens",
          "type": "address[]"
        },
        {
          "indexed": false,
          "name": "tokenValues",
          "type": "uint256[]"
        },
        {
          "indexed": false,
          "name": "sender",
          "type": "address"
        }
      ],
      "name": "TaskRecordsCreated",
      "type": "event",
      "signature": "0xcb8afab3437be2f96ef2a2932eb02d02fd765bfe8be7c1f5a58edd6452317dde"
    },
    {
      "anonymous": false,
      "inputs": [
        {
          "indexed": false,
          "name": "taskId",
          "type": "bytes32"
        },
        {
          "indexed": false,
          "name": "inStateDeltaHash",
          "type": "bytes32"
        },
        {
          "indexed": false,
          "name": "outStateDeltaHash",
          "type": "bytes32"
        },
        {
          "indexed": false,
          "name": "ethCall",
          "type": "bytes"
        },
        {
          "indexed": false,
          "name": "sig",
          "type": "bytes"
        }
      ],
      "name": "ReceiptVerified",
      "type": "event",
      "signature": "0x665329bb9a4e1062edc215d9c5ab57fa54c4c88e3dfbcc68e0cd92fdd010fa6e"
    },
    {
      "anonymous": false,
      "inputs": [
        {
          "indexed": false,
          "name": "taskIds",
          "type": "bytes32[]"
        },
        {
          "indexed": false,
          "name": "inStateDeltaHashes",
          "type": "bytes32[]"
        },
        {
          "indexed": false,
          "name": "outStateDeltaHashes",
          "type": "bytes32[]"
        },
        {
          "indexed": false,
          "name": "ethCall",
          "type": "bytes"
        },
        {
          "indexed": false,
          "name": "sig",
          "type": "bytes"
        }
      ],
      "name": "ReceiptsVerified",
      "type": "event",
      "signature": "0x49f3b610d2b607252a8901e3c134022c7a6330e5f6525f0ed84dd4a127478958"
    },
    {
      "anonymous": false,
      "inputs": [
        {
          "indexed": false,
          "name": "from",
          "type": "address"
        },
        {
          "indexed": false,
          "name": "value",
          "type": "uint256"
        }
      ],
      "name": "DepositSuccessful",
      "type": "event",
      "signature": "0xb3ef81558ed1a50072a492984535a009da8b129c749500b387f1e5f4886bdde5"
    },
    {
      "anonymous": false,
      "inputs": [
        {
          "indexed": false,
          "name": "scAddr",
          "type": "address"
        },
        {
          "indexed": false,
          "name": "codeHash",
          "type": "bytes32"
        }
      ],
      "name": "SecretContractDeployed",
      "type": "event",
      "signature": "0xff27b3bb5dfb682b066cdace68b5dda84d03c3d2eadac54284aaec44cbcff516"
    },
    {
      "constant": false,
      "inputs": [
        {
          "name": "_signer",
          "type": "address"
        },
        {
          "name": "_report",
          "type": "bytes"
        }
      ],
      "name": "register",
      "outputs": [],
      "payable": false,
      "stateMutability": "nonpayable",
      "type": "function",
      "signature": "0x24b8fbf6"
    },
    {
      "constant": false,
      "inputs": [
        {
          "name": "_custodian",
          "type": "address"
        },
        {
          "name": "_amount",
          "type": "uint256"
        }
      ],
      "name": "deposit",
      "outputs": [],
      "payable": false,
      "stateMutability": "nonpayable",
      "type": "function",
      "signature": "0x47e7ef24"
    },
    {
      "constant": false,
      "inputs": [],
      "name": "login",
      "outputs": [],
      "payable": false,
      "stateMutability": "nonpayable",
      "type": "function",
      "signature": "0xb34e97e8"
    },
    {
      "constant": false,
      "inputs": [
        {
          "name": "_scAddr",
          "type": "address"
        },
        {
          "name": "_codeHash",
          "type": "bytes32"
        },
        {
          "name": "_owner",
          "type": "address"
        },
        {
          "name": "_sig",
          "type": "bytes"
        }
      ],
      "name": "deploySecretContract",
      "outputs": [],
      "payable": false,
      "stateMutability": "nonpayable",
      "type": "function",
      "signature": "0xd3b524c4"
    },
    {
      "constant": true,
      "inputs": [
        {
          "name": "_scAddr",
          "type": "address"
        }
      ],
      "name": "isDeployed",
      "outputs": [
        {
          "name": "",
          "type": "bool"
        }
      ],
      "payable": false,
      "stateMutability": "view",
      "type": "function",
      "signature": "0x90184b02"
    },
    {
      "constant": true,
      "inputs": [
        {
          "name": "_scAddr",
          "type": "address"
        }
      ],
      "name": "getCodeHash",
      "outputs": [
        {
          "name": "",
          "type": "bytes32"
        }
      ],
      "payable": false,
      "stateMutability": "view",
      "type": "function",
      "signature": "0x81ea4408"
    },
    {
      "constant": true,
      "inputs": [],
      "name": "countSecretContracts",
      "outputs": [
        {
          "name": "",
          "type": "uint256"
        }
      ],
      "payable": false,
      "stateMutability": "view",
      "type": "function",
      "signature": "0x75bbf75b"
    },
    {
      "constant": true,
      "inputs": [
        {
          "name": "_start",
          "type": "uint256"
        },
        {
          "name": "_stop",
          "type": "uint256"
        }
      ],
      "name": "getSecretContractAddresses",
      "outputs": [
        {
          "name": "",
          "type": "address[]"
        }
      ],
      "payable": false,
      "stateMutability": "view",
      "type": "function",
      "signature": "0x8e055b8b"
    },
    {
      "constant": true,
      "inputs": [
        {
          "name": "_scAddr",
          "type": "address"
        }
      ],
      "name": "countStateDeltas",
      "outputs": [
        {
          "name": "",
          "type": "uint256"
        }
      ],
      "payable": false,
      "stateMutability": "view",
      "type": "function",
      "signature": "0x84062df7"
    },
    {
      "constant": true,
      "inputs": [
        {
          "name": "_scAddr",
          "type": "address"
        },
        {
          "name": "_index",
          "type": "uint256"
        }
      ],
      "name": "getStateDeltaHash",
      "outputs": [
        {
          "name": "",
          "type": "bytes32"
        }
      ],
      "payable": false,
      "stateMutability": "view",
      "type": "function",
      "signature": "0x44409496"
    },
    {
      "constant": true,
      "inputs": [
        {
          "name": "_scAddr",
          "type": "address"
        },
        {
          "name": "_start",
          "type": "uint256"
        },
        {
          "name": "_stop",
          "type": "uint256"
        }
      ],
      "name": "getStateDeltaHashes",
      "outputs": [
        {
          "name": "",
          "type": "bytes32[]"
        }
      ],
      "payable": false,
      "stateMutability": "view",
      "type": "function",
      "signature": "0x05e62db6"
    },
    {
      "constant": true,
      "inputs": [
        {
          "name": "_scAddr",
          "type": "address"
        },
        {
          "name": "_stateDeltaHash",
          "type": "bytes32"
        }
      ],
      "name": "isValidDeltaHash",
      "outputs": [
        {
          "name": "",
          "type": "bool"
        }
      ],
      "payable": false,
      "stateMutability": "view",
      "type": "function",
      "signature": "0x7b5b2ce3"
    },
    {
      "constant": false,
      "inputs": [
        {
          "name": "_taskId",
          "type": "bytes32"
        },
        {
          "name": "_fee",
          "type": "uint256"
        },
        {
          "name": "_token",
          "type": "address"
        },
        {
          "name": "_tokenValue",
          "type": "uint256"
        }
      ],
      "name": "createTaskRecord",
      "outputs": [],
      "payable": false,
      "stateMutability": "nonpayable",
      "type": "function",
      "signature": "0xd28cf5c1"
    },
    {
      "constant": false,
      "inputs": [
        {
          "name": "_taskIds",
          "type": "bytes32[]"
        },
        {
          "name": "_fees",
          "type": "uint256[]"
        },
        {
          "name": "_tokens",
          "type": "address[]"
        },
        {
          "name": "_tokenValues",
          "type": "uint256[]"
        }
      ],
      "name": "createTaskRecords",
      "outputs": [],
      "payable": false,
      "stateMutability": "nonpayable",
      "type": "function",
      "signature": "0xa85d84ef"
    },
    {
      "constant": false,
      "inputs": [
        {
          "name": "_scAddr",
          "type": "address"
        },
        {
          "name": "_taskId",
          "type": "bytes32"
        },
        {
          "name": "_inStateDeltaHash",
          "type": "bytes32"
        },
        {
          "name": "_outStateDeltaHash",
          "type": "bytes32"
        },
        {
          "name": "_ethCall",
          "type": "bytes"
        },
        {
          "name": "_sig",
          "type": "bytes"
        }
      ],
      "name": "commitReceipt",
      "outputs": [],
      "payable": false,
      "stateMutability": "nonpayable",
      "type": "function",
      "signature": "0x5956efef"
    },
    {
      "constant": false,
      "inputs": [
        {
          "name": "_scAddr",
          "type": "address"
        },
        {
          "name": "_taskIds",
          "type": "bytes32[]"
        },
        {
          "name": "_inStateDeltaHashes",
          "type": "bytes32[]"
        },
        {
          "name": "_outStateDeltaHashes",
          "type": "bytes32[]"
        },
        {
          "name": "_ethCall",
          "type": "bytes"
        },
        {
          "name": "_sig",
          "type": "bytes"
        }
      ],
      "name": "commitReceipts",
      "outputs": [],
      "payable": false,
      "stateMutability": "nonpayable",
      "type": "function",
      "signature": "0x4d0edeaa"
    },
    {
      "constant": false,
      "inputs": [
        {
          "name": "_seed",
          "type": "uint256"
        },
        {
          "name": "_sig",
          "type": "bytes"
        }
      ],
      "name": "setWorkersParams",
      "outputs": [],
      "payable": false,
      "stateMutability": "nonpayable",
      "type": "function",
      "signature": "0x2873e73c"
    },
    {
      "constant": true,
      "inputs": [
        {
          "name": "_blockNumber",
          "type": "uint256"
        }
      ],
      "name": "getWorkerParams",
      "outputs": [
        {
          "name": "",
          "type": "uint256"
        },
        {
          "name": "",
          "type": "uint256"
        },
        {
          "name": "",
          "type": "address[]"
        },
        {
          "name": "",
          "type": "uint256[]"
        }
      ],
      "payable": false,
      "stateMutability": "view",
      "type": "function",
      "signature": "0x9836ca31"
    },
    {
      "constant": true,
      "inputs": [
        {
          "name": "_blockNumber",
          "type": "uint256"
        },
        {
          "name": "_scAddr",
          "type": "address"
        }
      ],
      "name": "getWorkerGroup",
      "outputs": [
        {
          "name": "",
          "type": "address[]"
        }
      ],
      "payable": false,
      "stateMutability": "view",
      "type": "function",
      "signature": "0xd9611203"
    },
    {
      "constant": true,
      "inputs": [
        {
          "name": "_blockNumber",
          "type": "uint256"
        }
      ],
      "name": "getWorkersParams",
      "outputs": [
        {
          "name": "",
          "type": "uint256"
        },
        {
          "name": "",
          "type": "uint256"
        },
        {
          "name": "",
          "type": "address[]"
        },
        {
          "name": "",
          "type": "address[]"
        }
      ],
      "payable": false,
      "stateMutability": "view",
      "type": "function",
      "signature": "0x59c91a12"
    },
    {
      "constant": true,
      "inputs": [
        {
          "name": "_custodian",
          "type": "address"
        }
      ],
      "name": "getReport",
      "outputs": [
        {
          "name": "",
          "type": "address"
        },
        {
          "name": "",
          "type": "bytes"
        }
      ],
      "payable": false,
      "stateMutability": "view",
      "type": "function",
      "signature": "0xa3bdae3e"
    }
  ],
  "bytecode": "0x60806040523480156200001157600080fd5b506040516040806200440f833981018060405262000033919081019062000082565b60008054600160a060020a03938416600160a060020a03199182161790915560018054929093169116178155601c556005601d55620000cd565b60006200007b8251620000c1565b9392505050565b600080604083850312156200009657600080fd5b6000620000a485856200006d565b9250506020620000b7858286016200006d565b9150509250929050565b600160a060020a031690565b61433280620000dd6000396000f3006080604052600436106101745763ffffffff7c010000000000000000000000000000000000000000000000000000000060003504166305e62db681146101795780630a318da0146101af5780630f8c466c146101dc57806324b8fbf6146102095780632873e73c1461022b5780634048a2571461024b578063444094961461027b57806347e7ef241461029b5780634d0edeaa146102bb5780635956efef146102db57806359c91a12146102fb5780635f0dd5bb1461032b57806369dc9ff31461034b57806375bbf75b1461037a5780637b5b2ce31461038f57806381ea4408146103bc57806384062df7146103dc5780638e055b8b146103fc57806390184b02146104295780639489ad40146104495780639836ca311461046b578063a3bdae3e1461049b578063a3edd784146104c9578063a85d84ef146104de578063b34e97e8146104fe578063d28cf5c114610513578063d3b524c414610533578063d961120314610553578063e579f50014610573575b600080fd5b34801561018557600080fd5b5061019961019436600461354f565b6105a5565b6040516101a69190613e1b565b60405180910390f35b3480156101bb57600080fd5b506101cf6101ca36600461366e565b6106d9565b6040516101a69190613cf6565b3480156101e857600080fd5b506101fc6101f73660046132d7565b610701565b6040516101a69190613f0c565b34801561021557600080fd5b50610229610224366004613507565b610713565b005b34801561023757600080fd5b5061022961024636600461372f565b610819565b34801561025757600080fd5b5061026b6102663660046132d7565b610d39565b6040516101a69493929190613dc5565b34801561028757600080fd5b506101fc6102963660046133fc565b610dfd565b3480156102a757600080fd5b506102296102b63660046133fc565b610e87565b3480156102c757600080fd5b506102296102d63660046132fd565b6111bd565b3480156102e757600080fd5b506102296102f63660046134af565b61138f565b34801561030757600080fd5b5061031b61031636600461366e565b6115f5565b6040516101a6949392919061410f565b34801561033757600080fd5b506101cf61034636600461366e565b611602565b34801561035757600080fd5b5061036b6103663660046132d7565b611610565b6040516101a693929190613d3a565b34801561038657600080fd5b506101fc61163e565b34801561039b57600080fd5b506103af6103aa3660046133fc565b611645565b6040516101a69190613efe565b3480156103c857600080fd5b506101fc6103d73660046132d7565b61171f565b3480156103e857600080fd5b506101fc6103f73660046132d7565b61178e565b34801561040857600080fd5b5061041c61041736600461374e565b6117fd565b6040516101a69190613e0a565b34801561043557600080fd5b506103af6104443660046132d7565b6118af565b34801561045557600080fd5b5061045e6118f4565b6040516101a69190613fcb565b34801561047757600080fd5b5061048b61048636600461366e565b611903565b6040516101a69493929190614150565b3480156104a757600080fd5b506104bb6104b63660046132d7565b611a2e565b6040516101a6929190613d62565b3480156104d557600080fd5b506101fc611c70565b3480156104ea57600080fd5b506102296104f936600461359c565b611c76565b34801561050a57600080fd5b50610229611ec4565b34801561051f57600080fd5b5061022961052e36600461368c565b61203f565b34801561053f57600080fd5b5061022961054e366004613436565b612104565b34801561055f57600080fd5b5061041c61056e3660046136ff565b612362565b34801561057f57600080fd5b5061059361058e36600461366e565b612591565b6040516101a6969594939291906140b9565b606080600080866001600160a060020a0382166000908152601a602052604090206003015460ff1660018111156105d857fe5b146106015760405160e560020a62461bcd0281526004016105f890614089565b60405180910390fd5b85151561062757600160a060020a0388166000908152601a602052604090206002015495505b610637868863ffffffff61266b16565b604051908082528060200260200182016040528015610660578160200160208202803883390190505b509350600092508691505b858210156106cd57600160a060020a0388166000908152601a6020526040902060020180548390811061069a57fe5b906000526020600020015484848151811015156106b357fe5b60209081029091010152600192830192919091019061066b565b50919695505050505050565b60168054829081106106e757fe5b600091825260209091200154600160a060020a0316905081565b601b6020526000908152604090205481565b33600090815260186020526040902054600160a060020a0316151561077557601680546001810182556000919091527fd833147d7dc355ba459fc788f669e58cfaf9dc25ddcd0702e87d69c7b5124289018054600160a060020a031916331790555b33600090815260186020908152604082208054600160a060020a031916600160a060020a038616178155600281019290925582516107b99260010191840190612fe8565b503360008181526018602052604090819020805460a060020a60ff02191660a060020a179055517f0a31ee9d46a828884b81003c8498156ea6aa15b9b54bdd0ef0b533d9eba57e559161080d918590613d04565b60405180910390a15050565b600080600080610827613066565b33610830613066565b600160a060020a038281166000908152601860209081526040918290208251608081019093528054938416835291929083019060a060020a900460ff16600381111561087857fe5b600381111561088357fe5b8152602001600182018054600181600116156101000203166002900480601f0160208091040260200160405190810160405280929190818152602001828054600181600116156101000203166002900480156109205780601f106108f557610100808354040283529160200191610920565b820191906000526020600020905b81548152906001019060200180831161090357829003601f168201915b50505091835250506002918201546020909101529091508160200151600381111561094757fe5b146109675760405160e560020a62461bcd0281526004016105f890614029565b60015433600090815260186020526040902054600160a060020a039081169116146109a75760405160e560020a62461bcd0281526004016105f890614069565b60009650600095505b6005861015610a1257600286600581106109c657fe5b600402015415156109d957859650610a12565b600287600581106109e657fe5b6004020154600287600581106109f857fe5b60040201541015610a07578596505b6001909501946109b0565b4360028860058110610a2057fe5b60040201558860028860058110610a3357fe5b600402016003018190555060009450600093505b601654841015610cc95760186000601686815481101515610a6457fe5b6000918252602080832090910154600160a060020a0390811684528382019490945260409283019091208251608081019093528054938416835291929083019060ff60a060020a909104166003811115610aba57fe5b6003811115610ac557fe5b8152602001600182018054600181600116156101000203166002900480601f016020809104026020016040519081016040528092919081815260200182805460018160011615610100020316600290048015610b625780601f10610b3757610100808354040283529160200191610b62565b820191906000526020600020905b815481529060010190602001808311610b4557829003601f168201915b505050505081526020016002820154815250509250601c54836060015110158015610b9d57506001548351600160a060020a03908116911614155b8015610bb85750600283602001516003811115610bb657fe5b145b15610cbe5760028760058110610bca57fe5b600402016001018054809190600101610be3919061308f565b506016805485908110610bf257fe5b600091825260209091200154600160a060020a031660028860058110610c1457fe5b6004020160010186815481101515610c2857fe5b60009182526020909120018054600160a060020a031916600160a060020a039290921691909117905560028760058110610c5e57fe5b600402016002018054809190600101610c77919061308f565b50606083015160028860058110610c8a57fe5b6004020160020186815481101515610c9e57fe5b600091825260209091200155610cbb85600163ffffffff61268216565b94505b600190930192610a47565b7f7047379c64ccafb62f6625e6b2d8eb6e1b0e091fac56a11ab5e2fd896e4db1d0894360028a60058110610cf957fe5b6004020160010160028b600581101515610d0f57fe5b60040201600201604051610d269493929190614191565b60405180910390a1505050505050505050565b6018602090815260009182526040918290208054600180830180548651600261010094831615949094026000190190911692909204601f8101869004860283018601909652858252600160a060020a0383169560a060020a90930460ff169491929091830182828015610ded5780601f10610dc257610100808354040283529160200191610ded565b820191906000526020600020905b815481529060010190602001808311610dd057829003601f168201915b5050505050908060020154905084565b6000826001600160a060020a0382166000908152601a602052604090206003015460ff166001811115610e2c57fe5b14610e4c5760405160e560020a62461bcd0281526004016105f890614089565b600160a060020a0384166000908152601a60205260409020600201805484908110610e7357fe5b906000526020600020015491505092915050565b81610e90613066565b600160a060020a038281166000908152601860209081526040918290208251608081019093528054938416835291929083019060a060020a900460ff166003811115610ed857fe5b6003811115610ee357fe5b8152602001600182018054600181600116156101000203166002900480601f016020809104026020016040519081016040528092919081815260200182805460018160011615610100020316600290048015610f805780601f10610f5557610100808354040283529160200191610f80565b820191906000526020600020905b815481529060010190602001808311610f6357829003601f168201915b5050509183525050600291909101546020909101529050600081602001516003811115610fa957fe5b1415610fca5760405160e560020a62461bcd0281526004016105f890613fd9565b6000546040517fdd62ed3e0000000000000000000000000000000000000000000000000000000081528491600160a060020a03169063dd62ed3e906110159088903090600401613d82565b602060405180830381600087803b15801561102f57600080fd5b505af1158015611043573d6000803e3d6000fd5b505050506040513d601f19601f8201168201806040525061106791908101906136e1565b10156110885760405160e560020a62461bcd0281526004016105f890613fe9565b6000546040517f23b872dd000000000000000000000000000000000000000000000000000000008152600160a060020a03909116906323b872dd906110d590879030908890600401613d9d565b602060405180830381600087803b1580156110ef57600080fd5b505af1158015611103573d6000803e3d6000fd5b505050506040513d601f19601f820116820180604052506111279190810190613650565b151561113257600080fd5b600160a060020a03841660009081526018602052604090206002015461115e908463ffffffff61268216565b600160a060020a0385166000908152601860205260409081902060020191909155517fb3ef81558ed1a50072a492984535a009da8b129c749500b387f1e5f4886bdde5906111af9086908690613d1f565b60405180910390a150505050565b336111c6613066565b600160a060020a038281166000908152601860209081526040918290208251608081019093528054938416835291929083019060a060020a900460ff16600381111561120e57fe5b600381111561121957fe5b8152602001600182018054600181600116156101000203166002900480601f0160208091040260200160405190810160405280929190818152602001828054600181600116156101000203166002900480156112b65780601f1061128b576101008083540402835291602001916112b6565b820191906000526020600020905b81548152906001019060200180831161129957829003601f168201915b5050509183525050600291820154602090910152909150816020015160038111156112dd57fe5b146112fd5760405160e560020a62461bcd0281526004016105f890614029565b876001600160a060020a0382166000908152601a602052604090206003015460ff16600181111561132a57fe5b1461134a5760405160e560020a62461bcd0281526004016105f890614089565b61135889898989898961268f565b7f49f3b610d2b607252a8901e3c134022c7a6330e5f6525f0ed84dd4a1274789588888888888604051610d26959493929190613e2c565b33611398613066565b600160a060020a038281166000908152601860209081526040918290208251608081019093528054938416835291929083019060a060020a900460ff1660038111156113e057fe5b60038111156113eb57fe5b8152602001600182018054600181600116156101000203166002900480601f0160208091040260200160405190810160405280929190818152602001828054600181600116156101000203166002900480156114885780601f1061145d57610100808354040283529160200191611488565b820191906000526020600020905b81548152906001019060200180831161146b57829003601f168201915b5050509183525050600291820154602090910152909150816020015160038111156114af57fe5b146114cf5760405160e560020a62461bcd0281526004016105f890614029565b876001600160a060020a0382166000908152601a602052604090206003015460ff1660018111156114fc57fe5b1461151c5760405160e560020a62461bcd0281526004016105f890614089565b6000808981526019602052604090206004015460a060020a900460ff16600181111561154457fe5b146115645760405160e560020a62461bcd0281526004016105f890614009565b611572898989898989612966565b6000888152601960209081526040909120855161159792600390920191870190612fe8565b5060008881526019602052604090819020600401805460a060020a60ff02191660a060020a179055517f665329bb9a4e1062edc215d9c5ab57fa54c4c88e3dfbcc68e0cd92fdd010fa6e90610d26908a908a908a908a908a90613f1a565b6000806060809193509193565b60178054829081106106e757fe5b601a60205260009081526040902080546001820154600390920154600160a060020a03909116919060ff1683565b6017545b90565b60008080846001600160a060020a0382166000908152601a602052604090206003015460ff16600181111561167657fe5b146116965760405160e560020a62461bcd0281526004016105f890614089565b60009250600091505b600160a060020a0386166000908152601a602052604090206002015482101561171257600160a060020a0386166000908152601a602052604090206002018054869190849081106116ec57fe5b60009182526020909120015414156117075760019250611712565b60019091019061169f565b8293505b50505092915050565b6000816001600160a060020a0382166000908152601a602052604090206003015460ff16600181111561174e57fe5b1461176e5760405160e560020a62461bcd0281526004016105f890614089565b5050600160a060020a03166000908152601a602052604090206001015490565b6000816001600160a060020a0382166000908152601a602052604090206003015460ff1660018111156117bd57fe5b146117dd5760405160e560020a62461bcd0281526004016105f890614089565b5050600160a060020a03166000908152601a602052604090206002015490565b6060806000808415156118105760175494505b611820858763ffffffff61266b16565b604051908082528060200260200182016040528015611849578160200160208202803883390190505b509250600091508590505b8481101561171257601780548290811061186a57fe5b6000918252602090912001548351600160a060020a039091169084908490811061189057fe5b600160a060020a03909216602092830290910190910152600101611854565b60006001600160a060020a0383166000908152601a602052604090206003015460ff1660018111156118dd57fe5b14156118eb575060016118ef565b5060005b919050565b600054600160a060020a031681565b60008060608060006119136130b8565b61191c87612b73565b91506002826005811061192b57fe5b6004020160806040519081016040529081600082015481526020016001820180548060200260200160405190810160405280929190818152602001828054801561199e57602002820191906000526020600020905b8154600160a060020a03168152600190910190602001808311611980575b50505050508152602001600282018054806020026020016040519081016040528092919081815260200182805480156119f657602002820191906000526020600020905b8154815260200190600101908083116119e2575b5050509183525050600391909101546020918201528151606083015191830151604090930151909a9199509197509095509350505050565b6000606082611a3b613066565b600160a060020a038281166000908152601860209081526040918290208251608081019093528054938416835291929083019060a060020a900460ff166003811115611a8357fe5b6003811115611a8e57fe5b8152602001600182018054600181600116156101000203166002900480601f016020809104026020016040519081016040528092919081815260200182805460018160011615610100020316600290048015611b2b5780601f10611b0057610100808354040283529160200191611b2b565b820191906000526020600020905b815481529060010190602001808311611b0e57829003601f168201915b5050509183525050600291909101546020909101529050600081602001516003811115611b5457fe5b1415611b755760405160e560020a62461bcd0281526004016105f890613fd9565b600160a060020a03808616600090815260186020526040902054161515611bb15760405160e560020a62461bcd0281526004016105f890614049565b600160a060020a038581166000908152601860209081526040918290208054600191820180548551600261010095831615959095026000190190911693909304601f8101859004850284018501909552848352941693929091839190830182828015611c5e5780601f10611c3357610100808354040283529160200191611c5e565b820191906000526020600020905b815481529060010190602001808311611c4157829003601f168201915b50505050509050935093505050915091565b601d5481565b60005b8451811015611e7e57601960008683815181101515611c9457fe5b6020908102909101810151825281019190915260400160002060040154600160a060020a031615611cda5760405160e560020a62461bcd0281526004016105f890614079565b8381815181101515611ce857fe5b90602001906020020151601960008784815181101515611d0457fe5b60209081029091018101518252810191909152604001600020558251839082908110611d2c57fe5b90602001906020020151601960008784815181101515611d4857fe5b60209081029190910181015182528101919091526040016000206001018054600160a060020a031916600160a060020a03929092169190911790558151829082908110611d9157fe5b90602001906020020151601960008784815181101515611dad57fe5b90602001906020020151600019166000191681526020019081526020016000206002018190555033601960008784815181101515611de757fe5b602090810291909101810151825281019190915260400160009081206004018054600160a060020a031916600160a060020a03939093169290921790915585516019908290889085908110611e3857fe5b60209081029091018101518252810191909152604001600020600401805460a060020a60ff02191660a060020a836001811115611e7157fe5b0217905550600101611c79565b7fcb8afab3437be2f96ef2a2932eb02d02fd765bfe8be7c1f5a58edd6452317dde8585858533604051611eb5959493929190613e98565b60405180910390a15050505050565b33611ecd613066565b600160a060020a038281166000908152601860209081526040918290208251608081019093528054938416835291929083019060a060020a900460ff166003811115611f1557fe5b6003811115611f2057fe5b8152602001600182018054600181600116156101000203166002900480601f016020809104026020016040519081016040528092919081815260200182805460018160011615610100020316600290048015611fbd5780601f10611f9257610100808354040283529160200191611fbd565b820191906000526020600020905b815481529060010190602001808311611fa057829003601f168201915b5050509183525050600291909101546020909101529050600081602001516003811115611fe657fe5b14156120075760405160e560020a62461bcd0281526004016105f890613fd9565b5050336000908152601860205260409020805460a060020a60ff02191674020000000000000000000000000000000000000000179055565b600084815260196020526040902060040154600160a060020a03161561207a5760405160e560020a62461bcd0281526004016105f890614079565b60008481526019602052604090819020848155600181018054600160a060020a038616600160a060020a03199182161790915560028201849055600490910180549091163390811760a060020a60ff02191690915590517f51364a5a527e38841b15c974f7924dad755bc9ce0d29701d7501a7bd297b787b916111af918791879187918791613f54565b3361210d613066565b600160a060020a038281166000908152601860209081526040918290208251608081019093528054938416835291929083019060a060020a900460ff16600381111561215557fe5b600381111561216057fe5b8152602001600182018054600181600116156101000203166002900480601f0160208091040260200160405190810160405280929190818152602001828054600181600116156101000203166002900480156121fd5780601f106121d2576101008083540402835291602001916121fd565b820191906000526020600020905b8154815290600101906020018083116121e057829003601f168201915b505050918352505060029190910154602090910152905060008160200151600381111561222657fe5b14156122475760405160e560020a62461bcd0281526004016105f890613fd9565b600160a060020a0386166000908152601a602052604081206003015460ff16600181111561227157fe5b146122915760405160e560020a62461bcd0281526004016105f890613ff9565b600160a060020a038681166000818152601a602090815260408083208054958a16600160a060020a03199687168117825560018083018d90556003909201805460ff191683179055601780548084019091557fc624b66cc0138b8fabc209247f72d758e1cf3343756d543badbf24212bed8c15018054909716909517909555928252601b90528190208054909201909155517fff27b3bb5dfb682b066cdace68b5dda84d03c3d2eadac54284aaec44cbcff516906123529088908890613d1f565b60405180910390a1505050505050565b6060600061236e6130b8565b606060008060008060006123818b612b73565b97506002886005811061239057fe5b6004020160806040519081016040529081600082015481526020016001820180548060200260200160405190810160405280929190818152602001828054801561240357602002820191906000526020600020905b8154600160a060020a031681526001909101906020018083116123e5575b505050505081526020016002820180548060200260200160405190810160405280929190818152602001828054801561245b57602002820191906000526020600020905b815481526020019060010190808311612447575b505050505081526020016003820154815250509650601d5460405190808252806020026020018201604052801561249c578160200160208202803883390190505b50955060009450600093505b601d54841015612582575b6124bf8b898c88612c1b565b925060009150600090505b85518110156125155785818151811015156124e157fe5b90602001906020020151600160a060020a031683600160a060020a0316141561250d5760019150612515565b6001016124ca565b8115156125435782868581518110151561252b57fe5b600160a060020a039092166020928302909101909101525b855160019095019486908590811061255757fe5b90602001906020020151600160a060020a031660001415612577576124b3565b6001909301926124a8565b50939998505050505050505050565b601960209081526000918252604091829020805460018083015460028085015460038601805489516101009682161596909602600019011692909204601f81018890048802850188019098528784529396600160a060020a03909216959394939091908301828280156126455780601f1061261a57610100808354040283529160200191612645565b820191906000526020600020905b81548152906001019060200180831161262857829003601f168201915b50505060049093015491925050600160a060020a0381169060ff60a060020a9091041686565b60008282111561267757fe5b508082035b92915050565b8181018281101561267c57fe5b600160a060020a0386166000908152601a602052604081206002015490808215156126f2578660008151811015156126c357fe5b60209081029091010151156126ed5760405160e560020a62461bcd0281526004016105f890614039565b61276b565b600160a060020a0389166000908152601a6020526040902060020161271e84600163ffffffff61266b16565b8154811061272857fe5b6000918252602082200154885190918991811061274157fe5b602090810290910101511461276b5760405160e560020a62461bcd0281526004016105f890614019565b600091505b8751821015612847576000601960008a8581518110151561278d57fe5b602090810290910181015182528101919091526040016000206004015460ff60a060020a9091041660018111156127c057fe5b146127e05760405160e560020a62461bcd0281526004016105f890614009565b600082111561283c5785600183038151811015156127fa57fe5b60209081029091010151875188908490811061281257fe5b602090810290910101511461283c5760405160e560020a62461bcd0281526004016105f890614059565b600190910190612770565b5060005b875181101561295b57600160a060020a0389166000908152601a60205260409020865160029091019087908390811061288057fe5b60209081029091018101518254600181810185556000948552929093209092019190915588516128b59163ffffffff61266b16565b8114156129015783601960008a848151811015156128cf57fe5b602090810290910181015182528181019290925260400160002082516128ff936003909201929190910190612fe8565b505b6001601960008a8481518110151561291557fe5b60209081029091018101518252810191909152604001600020600401805460a060020a60ff02191660a060020a83600181111561294e57fe5b021790555060010161284b565b505050505050505050565b600160a060020a0386166000908152601a602052604081206002015490808215156129b15786156129ac5760405160e560020a62461bcd0281526004016105f890614039565b612a14565b600160a060020a0389166000908152601a602052604090206002016129dd84600163ffffffff61266b16565b815481106129e757fe5b6000918252602090912001548714612a145760405160e560020a62461bcd0281526004016105f890614019565b600160a060020a0389166000908152601a6020908152604080832060020180546001810182559084529282902090920188905581518082018b81529281018a90526060810189905287518b938b938b938b936080909101918401908083835b60208310612a925780518252601f199092019160209182019101612a73565b6001836020036101000a0380198251168184511680821785525050505050509050019450505050506040516020818303038152906040526040518082805190602001908083835b60208310612af85780518252601f199092019160209182019101612ad9565b5181516020939093036101000a600019018019909116921691909117905260405192018290039091209450612b339250849150869050612f2b565b33600090815260186020526040902054909150600160a060020a0380831691161461295b5760405160e560020a62461bcd0281526004016105f890614099565b6000600019815b6005811015612be8578360028260058110612b9157fe5b600402015411801590612bd757508160000b6000191480612bd757506002600083900b60058110612bbe57fe5b600402015460028260058110612bd057fe5b6004020154115b15612be0578091505b600101612b7a565b600019600083900b1415612c115760405160e560020a62461bcd0281526004016105f8906140a9565b5060000b92915050565b6000612c256130b8565b60008080808060028a60058110612c3857fe5b60040201608060405190810160405290816000820154815260200160018201805480602002602001604051908101604052809291908181526020018280548015612cab57602002820191906000526020600020905b8154600160a060020a03168152600190910190602001808311612c8d575b5050505050815260200160028201805480602002602001604051908101604052809291908181526020018280548015612d0357602002820191906000526020600020905b815481526020019060010190808311612cef575b50505050508152602001600382015481525050955060009450600093505b856020015151841015612d91576020860151805185908110612d3f57fe5b60209081029091010151600160a060020a031615612d8657612d83866040015185815181101515612d6c57fe5b60209081029091010151869063ffffffff61268216565b94505b600190930192612d21565b8a866060015187600001518b888c6040516020018087815260200186815260200185815260200184600160a060020a0316600160a060020a03166c0100000000000000000000000002815260140183815260200182815260200196505050505050506040516020818303038152906040526040518082805190602001908083835b60208310612e315780518252601f199092019160209182019101612e12565b5181516020939093036101000a60001901801990911692169190911790526040519201829003909120955087925085915050811515612e6c57fe5b069150600090505b856020015151811015612efb576020860151805182908110612e9257fe5b60209081029091010151600160a060020a031615612ef3576040860151805182908110612ebb57fe5b602090810290910101519091039060008213612ef3576020860151805182908110612ee257fe5b906020019060200201519650612f1d565b600101612e74565b602086015180516000198101908110612f1057fe5b9060200190602002015196505b505050505050949350505050565b60008060008084516041141515612f455760009350611716565b50505060208201516040830151606084015160001a601b60ff82161015612f6a57601b015b8060ff16601b14158015612f8257508060ff16601c14155b15612f905760009350611716565b60018682858560405160008152602001604052604051612fb39493929190613f96565b60206040516020810390808403906000865af1158015612fd7573d6000803e3d6000fd5b505050602060405103519350611716565b828054600181600116156101000203166002900490600052602060002090601f016020900481019282601f1061302957805160ff1916838001178555613056565b82800160010185558215613056579182015b8281111561305657825182559160200191906001019061303b565b506130629291506130e1565b5090565b604080516080810190915260008082526020820190815260200160608152602001600081525090565b8154818355818111156130b3576000838152602090206130b39181019083016130e1565b505050565b608060405190810160405280600081526020016060815260200160608152602001600081525090565b61164291905b8082111561306257600081556001016130e7565b60006131078235614262565b9392505050565b6000601f8201831361311f57600080fd5b813561313261312d826141f9565b6141d2565b9150818183526020840193506020810190508385602084028201111561315757600080fd5b60005b83811015613183578161316d88826130fb565b845250602092830192919091019060010161315a565b5050505092915050565b6000601f8201831361319e57600080fd5b81356131ac61312d826141f9565b915081818352602084019350602081019050838560208402820111156131d157600080fd5b60005b8381101561318357816131e78882613279565b84525060209283019291909101906001016131d4565b6000601f8201831361320e57600080fd5b813561321c61312d826141f9565b9150818183526020840193506020810190508385602084028201111561324157600080fd5b60005b8381101561318357816132578882613279565b8452506020928301929190910190600101613244565b6000613107825161426e565b60006131078235611642565b6000601f8201831361329657600080fd5b81356132a461312d8261421a565b915080825260208301602083018583830111156132c057600080fd5b6117168382846142b2565b60006131078251611642565b6000602082840312156132e957600080fd5b60006132f584846130fb565b949350505050565b60008060008060008060c0878903121561331657600080fd5b600061332289896130fb565b965050602087013567ffffffffffffffff81111561333f57600080fd5b61334b89828a0161318d565b955050604087013567ffffffffffffffff81111561336857600080fd5b61337489828a0161318d565b945050606087013567ffffffffffffffff81111561339157600080fd5b61339d89828a0161318d565b935050608087013567ffffffffffffffff8111156133ba57600080fd5b6133c689828a01613285565b92505060a087013567ffffffffffffffff8111156133e357600080fd5b6133ef89828a01613285565b9150509295509295509295565b6000806040838503121561340f57600080fd5b600061341b85856130fb565b925050602061342c85828601613279565b9150509250929050565b6000806000806080858703121561344c57600080fd5b600061345887876130fb565b945050602061346987828801613279565b935050604061347a878288016130fb565b925050606085013567ffffffffffffffff81111561349757600080fd5b6134a387828801613285565b91505092959194509250565b60008060008060008060c087890312156134c857600080fd5b60006134d489896130fb565b96505060206134e589828a01613279565b95505060406134f689828a01613279565b945050606061339d89828a01613279565b6000806040838503121561351a57600080fd5b600061352685856130fb565b925050602083013567ffffffffffffffff81111561354357600080fd5b61342c85828601613285565b60008060006060848603121561356457600080fd5b600061357086866130fb565b935050602061358186828701613279565b925050604061359286828701613279565b9150509250925092565b600080600080608085870312156135b257600080fd5b843567ffffffffffffffff8111156135c957600080fd5b6135d58782880161318d565b945050602085013567ffffffffffffffff8111156135f257600080fd5b6135fe878288016131fd565b935050604085013567ffffffffffffffff81111561361b57600080fd5b6136278782880161310e565b925050606085013567ffffffffffffffff81111561364457600080fd5b6134a3878288016131fd565b60006020828403121561366257600080fd5b60006132f5848461326d565b60006020828403121561368057600080fd5b60006132f58484613279565b600080600080608085870312156136a257600080fd5b60006136ae8787613279565b94505060206136bf87828801613279565b93505060406136d0878288016130fb565b92505060606134a387828801613279565b6000602082840312156136f357600080fd5b60006132f584846132cb565b6000806040838503121561371257600080fd5b600061371e8585613279565b925050602061342c858286016130fb565b6000806040838503121561374257600080fd5b60006135268585613279565b6000806040838503121561376157600080fd5b600061341b8585613279565b61377681614262565b82525050565b600061378782614254565b80845260208401935061379983614242565b60005b828110156137c9576137af86835161376d565b6137b882614242565b60209690960195915060010161379c565b5093949350505050565b60006137de82614258565b8084526020840193506137f083614248565b60005b828110156137c95761380686835461376d565b61380f8261425c565b6020969096019591506001016137f3565b600061382b82614254565b80845260208401935061383d83614242565b60005b828110156137c957613853868351613910565b61385c82614242565b602096909601959150600101613840565b600061387882614254565b80845260208401935061388a83614242565b60005b828110156137c9576138a0868351613910565b6138a982614242565b60209690960195915060010161388d565b60006138c582614258565b8084526020840193506138d783614248565b60005b828110156137c9576138ed868354613910565b6138f68261425c565b6020969096019591506001016138da565b6137768161426e565b61377681611642565b600061392482614254565b8084526139388160208601602086016142be565b613941816142ee565b9093016020019392505050565b61377681614291565b6137768161429c565b613776816142a7565b601481527f556e7265676973746572656420776f726b65722e000000000000000000000000602082015260400190565b602681527f4e6f7420656e6f75676820746f6b656e7320616c6c6f77656420666f7220747260208201527f616e736665720000000000000000000000000000000000000000000000000000604082015260600190565b602181527f53656372657420636f6e747261637420616c7265616479206465706c6f79656460208201527f2e00000000000000000000000000000000000000000000000000000000000000604082015260600190565b601381527f496e76616c6964207461736b2073746174757300000000000000000000000000602082015260400190565b601e81527f496e76616c696420696e7075742073746174652064656c746120686173680000602082015260400190565b601581527f576f726b6572206e6f74206c6f6767656420696e2e0000000000000000000000602082015260400190565b602e81527f496e76616c696420696e7075742073746174652064656c74612068617368206660208201527f6f7220656d707479207374617465000000000000000000000000000000000000604082015260600190565b601581527f576f726b6572206e6f7420726567697374657265640000000000000000000000602082015260400190565b602381527f496e76616c69642073746174652064656c746120686173686573206f7264657260208201527f696e670000000000000000000000000000000000000000000000000000000000604082015260600190565b602681527f4f6e6c7920746865205072696e636970616c2063616e2075706461746520746860208201527f6520736565640000000000000000000000000000000000000000000000000000604082015260600190565b601381527f5461736b20616c72656164792065786973742e00000000000000000000000000602082015260400190565b601d81527f53656372657420636f6e7472616374206e6f74206465706c6f7965642e000000602082015260400190565b601281527f496e76616c6964207369676e61747572652e0000000000000000000000000000602082015260400190565b603681527f4e6f20776f726b65727320706172616d657465727320656e74727920666f722060208201527f73706563696669656420626c6f636b206e756d62657200000000000000000000604082015260600190565b6137768161428b565b6020810161267c828461376d565b60408101613d12828561376d565b613107602083018461376d565b60408101613d2d828561376d565b6131076020830184613910565b60608101613d48828661376d565b613d556020830185613910565b6132f56040830184613957565b60408101613d70828561376d565b81810360208301526132f58184613919565b60408101613d90828561376d565b613107602083018461394e565b60608101613dab828661376d565b613db8602083018561394e565b6132f56040830184613910565b60808101613dd3828761376d565b613de06020830186613960565b8181036040830152613df28185613919565b9050613e016060830184613910565b95945050505050565b60208082528101613107818461377c565b602080825281016131078184613820565b60a08082528101613e3d8188613820565b90508181036020830152613e518187613820565b90508181036040830152613e658186613820565b90508181036060830152613e798185613919565b90508181036080830152613e8d8184613919565b979650505050505050565b60a08082528101613ea98188613820565b90508181036020830152613ebd818761386d565b90508181036040830152613ed1818661377c565b90508181036060830152613ee5818561386d565b9050613ef4608083018461376d565b9695505050505050565b6020810161267c8284613907565b6020810161267c8284613910565b60a08101613f288288613910565b613f356020830187613910565b613f426040830186613910565b8181036060830152613e798185613919565b60a08101613f628288613910565b613f6f6020830187613910565b613f7c604083018661376d565b613f896060830185613910565b613ef4608083018461376d565b60808101613fa48287613910565b613fb16020830186613ced565b613fbe6040830185613910565b613e016060830184613910565b6020810161267c828461394e565b6020808252810161267c81613969565b6020808252810161267c81613999565b6020808252810161267c816139ef565b6020808252810161267c81613a45565b6020808252810161267c81613a75565b6020808252810161267c81613aa5565b6020808252810161267c81613ad5565b6020808252810161267c81613b2b565b6020808252810161267c81613b5b565b6020808252810161267c81613bb1565b6020808252810161267c81613c07565b6020808252810161267c81613c37565b6020808252810161267c81613c67565b6020808252810161267c81613c97565b60c081016140c78289613910565b6140d4602083018861376d565b6140e16040830187613910565b81810360608301526140f38186613919565b9050614102608083018561376d565b613e8d60a0830184613957565b6080810161411d8287613910565b61412a6020830186613910565b818103604083015261413c818561377c565b90508181036060830152613ef4818461377c565b6080810161415e8287613910565b61416b6020830186613910565b818103604083015261417d818561377c565b90508181036060830152613ef4818461386d565b6080810161419f8287613910565b6141ac6020830186613910565b81810360408301526141be81856137d3565b90508181036060830152613ef481846138ba565b60405181810167ffffffffffffffff811182821017156141f157600080fd5b604052919050565b600067ffffffffffffffff82111561421057600080fd5b5060209081020190565b600067ffffffffffffffff82111561423157600080fd5b506020601f91909101601f19160190565b60200190565b60009081526020902090565b5190565b5490565b60010190565b600160a060020a031690565b151590565b60006002821061306257fe5b60006004821061306257fe5b60ff1690565b600061267c82614262565b600061267c82614273565b600061267c8261427f565b82818337506000910152565b60005b838110156142d95781810151838201526020016142c1565b838111156142e8576000848401525b50505050565b601f01601f1916905600a265627a7a72305820b9f9a1f6d22922d70be48e5e831d0d59baa9512e868282269e6ed77e57f6c9b96c6578706572696d656e74616cf50037",
  "source": "pragma solidity ^0.4.24;\npragma experimental ABIEncoderV2;\n\nimport \"openzeppelin-solidity/contracts/math/SafeMath.sol\";\nimport \"openzeppelin-solidity/contracts/ECRecovery.sol\";\n\ncontract ERC20 {\n    function allowance(address owner, address spender) public view returns (uint256);\n\n    function transferFrom(address from, address to, uint256 value) public returns (bool);\n\n    function approve(address spender, uint256 value) public returns (bool);\n\n    function totalSupply() public view returns (uint256);\n\n    function balanceOf(address who) public view returns (uint256);\n\n    function transfer(address to, uint256 value) public returns (bool);\n\n    event Transfer(address indexed from, address indexed to, uint256 value);\n    event Approval(address indexed owner, address indexed spender, uint256 value);\n}\n\ncontract Enigma {\n    using SafeMath for uint256;\n    using ECRecovery for bytes32;\n\n    // The interface of the deployed ENG ERC20 token contract\n    ERC20 public engToken;\n\n    struct Task {\n        uint fee;\n        address token;\n        uint tokenValue;\n        bytes proof; // Signature of (taskId, inStateDeltaHash, outStateDeltaHash, ethCall)\n        address sender;\n        TaskStatus status;\n    }\n    enum TaskStatus {RecordCreated, ReceiptVerified}\n\n    /**\n    * The signer address of the principal node\n    * This must be set when deploying the contract and remains immutable\n    * Since the signer address is derived from the public key of an\n    * SGX enclave, this ensures that the principal node cannot be tempered\n    * with or replaced.\n    */\n    address principal;\n\n    // The data representation of a worker (or node)\n    struct Worker {\n        address signer;\n        WorkerStatus status; // Uninitialized: 0; Active: 1; Inactive: 2\n        bytes report; // Decided to store this as one  RLP encoded attribute for easier external storage in the future\n        uint256 balance;\n    }\n\n    enum WorkerStatus {Unregistered, Registered, LoggedIn, LoggedOut}\n\n    /**\n    * The data representation of the worker parameters used as input for\n    * the worker selection algorithm\n    */\n    struct WorkersParams {\n        uint firstBlockNumber;\n        address[] workers;\n        uint[] balances;\n        uint seed;\n    }\n\n    struct SecretContract {\n        address owner;\n        bytes32 codeHash;\n        bytes32[] stateDeltaHashes;\n        SecretContractStatus status;\n        // TODO: consider keeping an index of taskIds\n    }\n    // TODO: do we want to have a contract lifecycle?\n    enum SecretContractStatus {Undefined, Deployed}\n\n    /**\n    * The last 5 worker parameters\n    * We keep a collection of worker parameters to account for latency issues.\n    * A computation task might be conceivably given out at a certain block number\n    * but executed at a later block in a different epoch. It follows that\n    * the contract must have access to the worker parameters effective when giving\n    * out the task, otherwise the selected worker would not match. We calculated\n    * that keeping the last 5 items should be more than enough to account for\n    * all latent tasks. Tasks results will be rejected past this limit.\n    */\n    WorkersParams[5] workersParams;\n\n    // An address-based index of all registered worker\n    address[] public workerAddresses;\n    // An address-based index of all secret contracts\n    address[] public scAddresses;\n\n    // A registry of all registered workers with their attributes\n    mapping(address => Worker) public workers;\n    mapping(bytes32 => Task) public tasks;\n    mapping(address => SecretContract) public contracts;\n\n    // A mapping of number of secret contract deployments for each address\n    mapping(address => uint) public userSCDeployments;\n\n    // TODO: do we keep tasks forever? if not, when do we delete them?\n    uint stakingThreshold;\n    uint public workerGroupSize;\n\n    // The events emitted by the contract\n    event Registered(address custodian, address signer);\n    event ValidatedSig(bytes sig, bytes32 hash, address workerAddr);\n    event WorkersParameterized(uint seed, uint256 blockNumber, address[] workers, uint[] balances);\n    event TaskRecordCreated(bytes32 taskId, uint fee, address token, uint tokenValue, address sender);\n    event TaskRecordsCreated(bytes32[] taskIds, uint[] fees, address[] tokens, uint[] tokenValues, address sender);\n    event ReceiptVerified(bytes32 taskId, bytes32 inStateDeltaHash, bytes32 outStateDeltaHash, bytes ethCall, bytes sig);\n    event ReceiptsVerified(bytes32[] taskIds, bytes32[] inStateDeltaHashes, bytes32[] outStateDeltaHashes, bytes ethCall, bytes sig);\n    event DepositSuccessful(address from, uint value);\n    event SecretContractDeployed(address scAddr, bytes32 codeHash);\n\n    constructor(address _tokenAddress, address _principal) public {\n        engToken = ERC20(_tokenAddress);\n        principal = _principal;\n        stakingThreshold = 1;\n        workerGroupSize = 5;\n    }\n\n    //TODO: break down these methods into services for upgradability\n\n    /**\n    * Checks if the custodian wallet is registered as a worker\n    *\n    * @param _user The custodian address of the worker\n    */\n    modifier workerRegistered(address _user) {\n        Worker memory worker = workers[_user];\n        require(worker.status != WorkerStatus.Unregistered, \"Unregistered worker.\");\n        _;\n    }\n\n    /**\n    * Checks if the custodian wallet is logged in as a worker\n    *\n    * @param _user The custodian address of the worker\n    */\n    modifier workerLoggedIn(address _user) {\n        Worker memory worker = workers[_user];\n        require(worker.status == WorkerStatus.LoggedIn, \"Worker not logged in.\");\n        _;\n    }\n\n    modifier contractDeployed(address _scAddr) {\n        require(contracts[_scAddr].status == SecretContractStatus.Deployed, \"Secret contract not deployed.\");\n        _;\n    }\n\n    /**\n    * Registers a new worker of change the signer parameters of an existing\n    * worker. This should be called by every worker (and the principal)\n    * node in order to receive tasks.\n    *\n    * @param _signer The signer address, derived from the enclave public key\n    * @param _report The RLP encoded report returned by the IAS\n    */\n    function register(address _signer, bytes _report)\n    public\n    {\n        // TODO: consider exit if both signer and custodian as matching\n        // If the custodian is not already register, we add an index entry\n        if (workers[msg.sender].signer == 0x0) {\n            workerAddresses.push(msg.sender);\n        }\n\n        // Set the custodian attributes\n        workers[msg.sender].signer = _signer;\n        workers[msg.sender].balance = 0;\n        workers[msg.sender].report = _report;\n        workers[msg.sender].status = WorkerStatus.Registered;\n\n        emit Registered(msg.sender, _signer);\n    }\n\n    function deposit(address _custodian, uint _amount)\n    public\n    workerRegistered(_custodian)\n    {\n        require(engToken.allowance(_custodian, this) >= _amount, \"Not enough tokens allowed for transfer\");\n        require(engToken.transferFrom(_custodian, this, _amount));\n\n        workers[_custodian].balance = workers[_custodian].balance.add(_amount);\n\n        emit DepositSuccessful(_custodian, _amount);\n    }\n\n    function login() public workerRegistered(msg.sender) {\n        workers[msg.sender].status = WorkerStatus.LoggedIn;\n    }\n\n    // TODO: should the scAddr be computed on-chain from the codeHash + some randomness\n    // TODO: should any user deploy a secret contract or only a trusted enclave?\n    function deploySecretContract(address _scAddr, bytes32 _codeHash, address _owner, bytes _sig)\n    public\n    workerRegistered(msg.sender)\n    {\n        require(contracts[_scAddr].status == SecretContractStatus.Undefined, \"Secret contract already deployed.\");\n        //TODO: verify sig\n\n        //TODO: is this too naive?\n        contracts[_scAddr].owner = _owner;\n        contracts[_scAddr].codeHash = _codeHash;\n        contracts[_scAddr].status = SecretContractStatus.Deployed;\n        scAddresses.push(_scAddr);\n        userSCDeployments[_owner]++;\n        emit SecretContractDeployed(_scAddr, _codeHash);\n    }\n\n    function isDeployed(address _scAddr)\n    public\n    view\n    returns (bool)\n    {\n        if (contracts[_scAddr].status == SecretContractStatus.Deployed) {\n            return true;\n        } else {\n            return false;\n        }\n    }\n\n    function getCodeHash(address _scAddr)\n    public\n    view\n    contractDeployed(_scAddr)\n    returns (bytes32)\n    {\n        return contracts[_scAddr].codeHash;\n    }\n\n    function countSecretContracts()\n    public\n    view\n    returns (uint)\n    {\n        return scAddresses.length;\n    }\n\n    /**\n    * Selects address from _start up to, but not including, the _stop number\n    **/\n    function getSecretContractAddresses(uint _start, uint _stop)\n    public\n    view\n    returns (address[])\n    {\n        if (_stop == 0) {\n            _stop = scAddresses.length;\n        }\n        address[] memory addresses = new address[](_stop.sub(_start));\n        uint pos = 0;\n        for (uint i = _start; i < _stop; i++) {\n            addresses[pos] = scAddresses[i];\n        }\n        return addresses;\n    }\n\n    function countStateDeltas(address _scAddr)\n    public\n    view\n    contractDeployed(_scAddr)\n    returns (uint)\n    {\n        return contracts[_scAddr].stateDeltaHashes.length;\n    }\n\n    function getStateDeltaHash(address _scAddr, uint _index)\n    public\n    view\n    contractDeployed(_scAddr)\n    returns (bytes32)\n    {\n        return contracts[_scAddr].stateDeltaHashes[_index];\n    }\n\n    /**\n    * Selects state deltas from _start up to, but not including, the _stop number\n    **/\n    function getStateDeltaHashes(address _scAddr, uint _start, uint _stop)\n    public\n    view\n    contractDeployed(_scAddr)\n    returns (bytes32[])\n    {\n        if (_stop == 0) {\n            _stop = contracts[_scAddr].stateDeltaHashes.length;\n        }\n        bytes32[] memory deltas = new bytes32[](_stop.sub(_start));\n        uint pos = 0;\n        for (uint i = _start; i < _stop; i++) {\n            deltas[pos] = contracts[_scAddr].stateDeltaHashes[i];\n            pos++;\n        }\n        return deltas;\n    }\n\n    function isValidDeltaHash(address _scAddr, bytes32 _stateDeltaHash)\n    public\n    view\n    contractDeployed(_scAddr)\n    returns (bool)\n    {\n        bool valid = false;\n        for (uint i = 0; i < contracts[_scAddr].stateDeltaHashes.length; i++) {\n            if (contracts[_scAddr].stateDeltaHashes[i] == _stateDeltaHash) {\n                valid = true;\n                break;\n            }\n        }\n        return valid;\n    }\n\n    /**\n    * Store task record\n    *\n    */\n    function createTaskRecord(\n        bytes32 _taskId,\n        uint _fee,\n        address _token,\n        uint _tokenValue\n    )\n    public\n    {\n        require(tasks[_taskId].sender == 0x0, \"Task already exist.\");\n\n        tasks[_taskId].fee = _fee;\n        tasks[_taskId].token = _token;\n        tasks[_taskId].tokenValue = _tokenValue;\n        tasks[_taskId].sender = msg.sender;\n        tasks[_taskId].status = TaskStatus.RecordCreated;\n\n        emit TaskRecordCreated(_taskId, _fee, _token, _tokenValue, msg.sender);\n    }\n\n    function createTaskRecords(\n        bytes32[] _taskIds,\n        uint[] _fees,\n        address[] _tokens,\n        uint[] _tokenValues\n    )\n    public\n    {\n        for (uint i = 0; i < _taskIds.length; i++) {\n            require(tasks[_taskIds[i]].sender == 0x0, \"Task already exist.\");\n\n            tasks[_taskIds[i]].fee = _fees[i];\n            tasks[_taskIds[i]].token = _tokens[i];\n            tasks[_taskIds[i]].tokenValue = _tokenValues[i];\n            tasks[_taskIds[i]].sender = msg.sender;\n            tasks[_taskIds[i]].status = TaskStatus.RecordCreated;\n        }\n        emit TaskRecordsCreated(_taskIds, _fees, _tokens, _tokenValues, msg.sender);\n    }\n\n    // Execute the encoded function in the specified contract\n    function executeCall(address _to, uint256 _value, bytes _data)\n    internal\n    returns (bool success)\n    {\n        assembly {\n            success := call(gas, _to, _value, add(_data, 0x20), mload(_data), 0, 0)\n        }\n    }\n\n    function verifyReceipt(\n        address _scAddr,\n        bytes32 _taskId,\n        bytes32 _inStateDeltaHash,\n        bytes32 _outStateDeltaHash,\n        bytes _ethCall,\n        bytes _sig\n    )\n    internal\n    {\n        uint index = contracts[_scAddr].stateDeltaHashes.length;\n        if (index == 0) {\n            require(_inStateDeltaHash == 0x0, 'Invalid input state delta hash for empty state');\n        } else {\n            require(_inStateDeltaHash == contracts[_scAddr].stateDeltaHashes[index.sub(1)], 'Invalid input state delta hash');\n        }\n        contracts[_scAddr].stateDeltaHashes.push(_outStateDeltaHash);\n\n        // TODO: execute the Ethereum calls\n\n        // Build a hash to validate that the I/Os are matching\n        bytes32 hash = keccak256(abi.encodePacked(_taskId, _inStateDeltaHash, _outStateDeltaHash, _ethCall));\n\n        // The worker address is not a real Ethereum wallet address but\n        // one generated from its signing key\n        address workerAddr = hash.recover(_sig);\n        require(workerAddr == workers[msg.sender].signer, \"Invalid signature.\");\n    }\n\n    /**\n    * Commit the computation task results on chain\n    */\n    function commitReceipt(\n        address _scAddr,\n        bytes32 _taskId,\n        bytes32 _inStateDeltaHash,\n        bytes32 _outStateDeltaHash,\n        bytes _ethCall,\n        bytes _sig\n    )\n    public\n    workerLoggedIn(msg.sender)\n    contractDeployed(_scAddr)\n    {\n        require(tasks[_taskId].status == TaskStatus.RecordCreated, 'Invalid task status');\n        verifyReceipt(_scAddr, _taskId, _inStateDeltaHash, _outStateDeltaHash, _ethCall, _sig);\n\n        tasks[_taskId].proof = _sig;\n        tasks[_taskId].status = TaskStatus.ReceiptVerified;\n        emit ReceiptVerified(_taskId, _inStateDeltaHash, _outStateDeltaHash, _ethCall, _sig);\n    }\n\n    function verifyReceipts(\n        address _scAddr,\n        bytes32[] _taskIds,\n        bytes32[] _inStateDeltaHashes,\n        bytes32[] _outStateDeltaHashes,\n        bytes _ethCall,\n        bytes _sig\n    )\n    internal\n    {\n        // First, we verify the state delta hashes ordering\n        uint index = contracts[_scAddr].stateDeltaHashes.length;\n        if (index == 0) {\n            require(_inStateDeltaHashes[0] == 0x0, 'Invalid input state delta hash for empty state');\n        } else {\n            require(_inStateDeltaHashes[0] == contracts[_scAddr].stateDeltaHashes[index.sub(1)], 'Invalid input state delta hash');\n        }\n        for (uint i = 0; i < _taskIds.length; i++) {\n            require(tasks[_taskIds[i]].status == TaskStatus.RecordCreated, 'Invalid task status');\n            if (i > 0) {\n                require(_inStateDeltaHashes[i] == _outStateDeltaHashes[i - 1], 'Invalid state delta hashes ordering');\n            }\n        }\n        // TODO: verify signature\n        // Then, we store the outStateDeltaHashes\n        for (uint ic = 0; ic < _taskIds.length; ic++) {\n            contracts[_scAddr].stateDeltaHashes.push(_outStateDeltaHashes[ic]);\n            if (ic == _taskIds.length.sub(1)) {\n                tasks[_taskIds[ic]].proof = _sig;\n            }\n            tasks[_taskIds[ic]].status = TaskStatus.ReceiptVerified;\n        }\n        // TODO: execute the Ethereum calls\n    }\n\n    function commitReceipts(\n        address _scAddr,\n        bytes32[] _taskIds,\n        bytes32[] _inStateDeltaHashes,\n        bytes32[] _outStateDeltaHashes,\n        bytes _ethCall,\n        bytes _sig\n    )\n    public\n    workerLoggedIn(msg.sender)\n    contractDeployed(_scAddr)\n    {\n        verifyReceipts(_scAddr, _taskIds, _inStateDeltaHashes, _outStateDeltaHashes, _ethCall, _sig);\n        emit ReceiptsVerified(_taskIds, _inStateDeltaHashes, _outStateDeltaHashes, _ethCall, _sig);\n    }\n\n    // Verify the signature submitted while reparameterizing workers\n    function verifyParamsSig(uint256 _seed, bytes _sig)\n    internal\n    pure\n    returns (address)\n    {\n        bytes32 hash = keccak256(abi.encodePacked(_seed));\n        address signer = hash.recover(_sig);\n        return signer;\n    }\n\n    /**\n    * Reparameterizing workers with a new seed\n    * This should be called for each epoch by the Principal node\n    *\n    * @param _seed The random integer generated by the enclave\n    * @param _sig The random integer signed by the the principal node's enclave\n    */\n    function setWorkersParams(uint _seed, bytes _sig)\n    public\n    workerLoggedIn(msg.sender)\n    {\n        // Reparameterizing workers with a new seed\n        // This should be called for each epoch by the Principal node\n\n        // We assume that the Principal is always the first registered node\n        require(workers[msg.sender].signer == principal, \"Only the Principal can update the seed\");\n        // TODO: verify the principal sig\n\n        // Create a new workers parameters item for the specified seed.\n        // The workers parameters list is a sort of cache, it never grows beyond its limit.\n        // If the list is full, the new item will replace the item assigned to the lowest block number.\n        uint paramIndex = 0;\n        for (uint pi = 0; pi < workersParams.length; pi++) {\n            // Find an empty slot in the array, if full use the lowest block number\n            if (workersParams[pi].firstBlockNumber == 0) {\n                paramIndex = pi;\n                break;\n            } else if (workersParams[pi].firstBlockNumber < workersParams[paramIndex].firstBlockNumber) {\n                paramIndex = pi;\n            }\n        }\n        workersParams[paramIndex].firstBlockNumber = block.number;\n        workersParams[paramIndex].seed = _seed;\n\n        // Copy the current worker list\n        uint workerIndex = 0;\n        for (uint wi = 0; wi < workerAddresses.length; wi++) {\n            Worker memory worker = workers[workerAddresses[wi]];\n            if ((worker.balance >= stakingThreshold) && (worker.signer != principal) &&\n                (worker.status == WorkerStatus.LoggedIn)) {\n                workersParams[paramIndex].workers.length++;\n                workersParams[paramIndex].workers[workerIndex] = workerAddresses[wi];\n\n                workersParams[paramIndex].balances.length++;\n                workersParams[paramIndex].balances[workerIndex] = worker.balance;\n\n                workerIndex = workerIndex.add(1);\n            }\n        }\n        emit WorkersParameterized(_seed, block.number, workersParams[paramIndex].workers, workersParams[paramIndex].balances);\n    }\n\n    function getWorkerParamsIndex(uint _blockNumber)\n    internal\n    view\n    returns (uint)\n    {\n        // The workers parameters for a given block number\n        int8 index = - 1;\n        for (uint i = 0; i < workersParams.length; i++) {\n            if (workersParams[i].firstBlockNumber <= _blockNumber && (index == - 1 || workersParams[i].firstBlockNumber > workersParams[uint(index)].firstBlockNumber)) {\n                index = int8(i);\n            }\n        }\n        require(index != - 1, \"No workers parameters entry for specified block number\");\n        return uint(index);\n    }\n\n    function getWorkerParams(uint _blockNumber)\n    public\n    view\n    returns (uint, uint, address[], uint[]) {\n        uint index = getWorkerParamsIndex(_blockNumber);\n        WorkersParams memory params = workersParams[index];\n        return (params.firstBlockNumber, params.seed, params.workers, params.balances);\n    }\n\n    function compileTokens(uint _blockNumber, uint _paramIndex, address _scAddr, uint _nonce)\n    internal\n    view\n    returns (address)\n    {\n        WorkersParams memory params = workersParams[_paramIndex];\n        uint tokenCpt = 0;\n        for (uint i = 0; i < params.workers.length; i++) {\n            if (params.workers[i] != 0x0) {\n                tokenCpt = tokenCpt.add(params.balances[i]);\n            }\n        }\n        bytes32 randHash = keccak256(abi.encodePacked(_blockNumber, params.seed, params.firstBlockNumber, _scAddr,\n            tokenCpt, _nonce));\n        int randVal = int256(uint256(randHash) % tokenCpt);\n        for (uint k = 0; k < params.workers.length; k++) {\n            if (params.workers[k] != 0x0) {\n                randVal -= int256(params.balances[k]);\n                if (randVal <= 0) {\n                    return params.workers[k];\n                }\n            }\n        }\n        return params.workers[params.workers.length - 1];\n    }\n\n    function getWorkerGroup(uint _blockNumber, address _scAddr)\n    public\n    view\n    returns (address[])\n    {\n        // Compile a list of selected workers for the block number and\n        // secret contract.\n        uint paramIndex = getWorkerParamsIndex(_blockNumber);\n        WorkersParams memory params = workersParams[paramIndex];\n\n        address[] memory selectedWorkers = new address[](workerGroupSize);\n        uint nonce = 0;\n        for (uint it = 0; it < workerGroupSize; it++) {\n            do {\n                address worker = compileTokens(_blockNumber, paramIndex, _scAddr, nonce);\n                bool dup = false;\n                for (uint id = 0; id < selectedWorkers.length; id++) {\n                    if (worker == selectedWorkers[id]) {\n                        dup = true;\n                        break;\n                    }\n                }\n                if (dup == false) {\n                    selectedWorkers[it] = worker;\n                }\n                nonce++;\n            }\n            while (selectedWorkers[it] == 0x0);\n        }\n        return selectedWorkers;\n    }\n\n    /**\n    * The worker parameters corresponding to the specified block number\n    *\n    * @param _blockNumber The reference block number\n    */\n    function getWorkersParams(uint _blockNumber)\n    public\n    view\n    returns (uint, uint, address[], address[])\n    {\n        // TODO: finalize implementation\n        uint firstBlockNumber = 0;\n        uint seed = 0;\n        address[] memory activeWorkers;\n        address[] memory activeContracts;\n        return (firstBlockNumber, seed, activeWorkers, activeContracts);\n    }\n\n    /**\n    * The RLP encoded report returned by the IAS server\n    *\n    * @param _custodian The worker's custodian address\n    */\n    function getReport(address _custodian)\n    public\n    view\n    workerRegistered(_custodian)\n    returns (address, bytes)\n    {\n        // The RLP encoded report and signer's address for the specified worker\n        require(workers[_custodian].signer != 0x0, \"Worker not registered\");\n        return (workers[_custodian].signer, workers[_custodian].report);\n    }\n}\n",
  "sourcePath": "/Users/adityapalepu/Startups/enigma/enigma-contract-internal/contracts/Enigma.sol",
  "compiler": {
    "name": "solc",
    "version": "0.4.24+commit.e67f0147.Emscripten.clang"
  },
  "schemaVersion": "2.0.0",
  "updatedAt": "2018-11-26T16:32:20.409Z"
}