{
  "contractName": "Enigma",
  "abi": [
    {
      "constant": true,
      "inputs": [
        {
          "name": "",
          "type": "uint256"
        }
      ],
      "name": "workerAddresses",
      "outputs": [
        {
          "name": "",
          "type": "address"
        }
      ],
      "payable": false,
      "stateMutability": "view",
      "type": "function"
    },
    {
      "constant": true,
      "inputs": [
        {
          "name": "",
          "type": "address"
        }
      ],
      "name": "workers",
      "outputs": [
        {
          "name": "signer",
          "type": "address"
        },
        {
          "name": "status",
          "type": "uint8"
        },
        {
          "name": "report",
          "type": "bytes"
        },
        {
          "name": "balance",
          "type": "uint256"
        }
      ],
      "payable": false,
      "stateMutability": "view",
      "type": "function"
    },
    {
      "constant": true,
      "inputs": [],
      "name": "engToken",
      "outputs": [
        {
          "name": "",
          "type": "address"
        }
      ],
      "payable": false,
      "stateMutability": "view",
      "type": "function"
    },
    {
      "constant": true,
      "inputs": [
        {
          "name": "",
          "type": "bytes32"
        }
      ],
      "name": "tasks",
      "outputs": [
        {
          "name": "taskId",
          "type": "bytes32"
        },
        {
          "name": "fee",
          "type": "uint256"
        },
        {
          "name": "token",
          "type": "address"
        },
        {
          "name": "tokenValue",
          "type": "uint256"
        },
        {
          "name": "inStateDeltaHash",
          "type": "bytes32"
        },
        {
          "name": "outStateDeltaHash",
          "type": "bytes32"
        },
        {
          "name": "ethCall",
          "type": "bytes"
        },
        {
          "name": "sig",
          "type": "bytes"
        },
        {
          "name": "status",
          "type": "uint8"
        }
      ],
      "payable": false,
      "stateMutability": "view",
      "type": "function"
    },
    {
      "inputs": [
        {
          "name": "_tokenAddress",
          "type": "address"
        },
        {
          "name": "_principal",
          "type": "address"
        }
      ],
      "payable": false,
      "stateMutability": "nonpayable",
      "type": "constructor"
    },
    {
      "anonymous": false,
      "inputs": [
        {
          "indexed": false,
          "name": "custodian",
          "type": "address"
        },
        {
          "indexed": false,
          "name": "signer",
          "type": "address"
        }
      ],
      "name": "Registered",
      "type": "event"
    },
    {
      "anonymous": false,
      "inputs": [
        {
          "indexed": false,
          "name": "sig",
          "type": "bytes"
        },
        {
          "indexed": false,
          "name": "hash",
          "type": "bytes32"
        },
        {
          "indexed": false,
          "name": "workerAddr",
          "type": "address"
        }
      ],
      "name": "ValidatedSig",
      "type": "event"
    },
    {
      "anonymous": false,
      "inputs": [
        {
          "indexed": false,
          "name": "seed",
          "type": "uint256"
        },
        {
          "indexed": false,
          "name": "workers",
          "type": "address[]"
        },
        {
          "indexed": false,
          "name": "secretContracts",
          "type": "address[]"
        }
      ],
      "name": "WorkersParameterized",
      "type": "event"
    },
    {
      "anonymous": false,
      "inputs": [
        {
          "indexed": false,
          "name": "taskId",
          "type": "bytes32"
        },
        {
          "indexed": false,
          "name": "fee",
          "type": "uint256"
        },
        {
          "indexed": false,
          "name": "token",
          "type": "address"
        },
        {
          "indexed": false,
          "name": "tokenValue",
          "type": "uint256"
        },
        {
          "indexed": false,
          "name": "sender",
          "type": "address"
        }
      ],
      "name": "TaskRecordCreated",
      "type": "event"
    },
    {
      "anonymous": false,
      "inputs": [
        {
          "indexed": false,
          "name": "taskId",
          "type": "bytes32"
        },
        {
          "indexed": false,
          "name": "inStateDeltaHash",
          "type": "bytes32"
        },
        {
          "indexed": false,
          "name": "outStateDeltaHash",
          "type": "bytes32"
        },
        {
          "indexed": false,
          "name": "ethCall",
          "type": "bytes"
        },
        {
          "indexed": false,
          "name": "sig",
          "type": "bytes"
        }
      ],
      "name": "ReceiptVerified",
      "type": "event"
    },
    {
      "constant": false,
      "inputs": [
        {
          "name": "signer",
          "type": "address"
        },
        {
          "name": "report",
          "type": "bytes"
        }
      ],
      "name": "register",
      "outputs": [],
      "payable": true,
      "stateMutability": "payable",
      "type": "function"
    },
    {
      "constant": false,
      "inputs": [
        {
          "name": "taskId",
          "type": "bytes32"
        },
        {
          "name": "fee",
          "type": "uint256"
        },
        {
          "name": "token",
          "type": "address"
        },
        {
          "name": "tokenValue",
          "type": "uint256"
        }
      ],
      "name": "createTaskRecord",
      "outputs": [],
      "payable": false,
      "stateMutability": "nonpayable",
      "type": "function"
    },
    {
      "constant": false,
      "inputs": [
        {
          "name": "taskId",
          "type": "bytes32"
        },
        {
          "name": "inStateDeltaHash",
          "type": "bytes32"
        },
        {
          "name": "outStateDeltaHash",
          "type": "bytes32"
        },
        {
          "name": "ethCall",
          "type": "bytes"
        },
        {
          "name": "sig",
          "type": "bytes"
        }
      ],
      "name": "commitReceipt",
      "outputs": [],
      "payable": false,
      "stateMutability": "nonpayable",
      "type": "function"
    },
    {
      "constant": false,
      "inputs": [
        {
          "name": "seed",
          "type": "uint256"
        },
        {
          "name": "sig",
          "type": "bytes"
        }
      ],
      "name": "setWorkersParams",
      "outputs": [],
      "payable": false,
      "stateMutability": "nonpayable",
      "type": "function"
    },
    {
      "constant": true,
      "inputs": [
        {
          "name": "blockNumber",
          "type": "uint256"
        }
      ],
      "name": "getWorkersParams",
      "outputs": [
        {
          "name": "",
          "type": "uint256"
        },
        {
          "name": "",
          "type": "uint256"
        },
        {
          "name": "",
          "type": "address[]"
        },
        {
          "name": "",
          "type": "address[]"
        }
      ],
      "payable": false,
      "stateMutability": "view",
      "type": "function"
    },
    {
      "constant": true,
      "inputs": [
        {
          "name": "custodian",
          "type": "address"
        }
      ],
      "name": "getReport",
      "outputs": [
        {
          "name": "",
          "type": "address"
        },
        {
          "name": "",
          "type": "bytes"
        }
      ],
      "payable": false,
      "stateMutability": "view",
      "type": "function"
    }
  ],
  "bytecode": "0x608060405234801561001057600080fd5b5060405160408061129283398101604052805160209091015160008054600160a060020a03938416600160a060020a0319918216179091556001805493909216921691909117905561122b806100676000396000f3006080604052600436106100a35763ffffffff7c01000000000000000000000000000000000000000000000000000000006000350416630a318da081146100a857806324b8fbf6146100dc5780632873e73c146101385780632e692989146101965780634048a2571461023757806359c91a12146102fd5780639489ad40146103bc578063a3bdae3e146103d1578063d28cf5c114610483578063e579f500146104ad575b600080fd5b3480156100b457600080fd5b506100c06004356105f3565b60408051600160a060020a039092168252519081900360200190f35b60408051602060046024803582810135601f8101859004850286018501909652858552610136958335600160a060020a031695369560449491939091019190819084018382808284375094975061061b9650505050505050565b005b34801561014457600080fd5b5060408051602060046024803582810135601f810185900485028601850190965285855261013695833595369560449491939091019190819084018382808284375094975061075b9650505050505050565b3480156101a257600080fd5b50604080516020601f606435600481810135928301849004840285018401909552818452610136948035946024803595604435953695608494930191819084018382808284375050604080516020601f89358b018035918201839004830284018301909452808352979a9998810197919650918201945092508291508401838280828437509497506109709650505050505050565b34801561024357600080fd5b50610258600160a060020a0360043516610be2565b6040518085600160a060020a0316600160a060020a031681526020018460ff1660ff16815260200180602001838152602001828103825284818151815260200191508051906020019080838360005b838110156102bf5781810151838201526020016102a7565b50505050905090810190601f1680156102ec5780820380516001836020036101000a031916815260200191505b509550505050505060405180910390f35b34801561030957600080fd5b50610315600435610ca6565b604051808581526020018481526020018060200180602001838103835285818151815260200191508051906020019060200280838360005b8381101561036557818101518382015260200161034d565b50505050905001838103825284818151815260200191508051906020019060200280838360005b838110156103a457818101518382015260200161038c565b50505050905001965050505050505060405180910390f35b3480156103c857600080fd5b506100c0610cb3565b3480156103dd57600080fd5b506103f2600160a060020a0360043516610cc2565b6040518083600160a060020a0316600160a060020a0316815260200180602001828103825283818151815260200191508051906020019080838360005b8381101561044757818101518382015260200161042f565b50505050905090810190601f1680156104745780820380516001836020036101000a031916815260200191505b50935050505060405180910390f35b34801561048f57600080fd5b50610136600435602435600160a060020a0360443516606435610f3d565b3480156104b957600080fd5b506104c5600435610f98565b604080518a8152602081018a9052600160a060020a03891691810191909152606081018790526080810186905260a0810185905260c0810160e08201610100830184600181111561051257fe5b60ff168152602001838103835286818151815260200191508051906020019080838360005b8381101561054f578181015183820152602001610537565b50505050905090810190601f16801561057c5780820380516001836020036101000a031916815260200191505b50838103825285518152855160209182019187019080838360005b838110156105af578181015183820152602001610597565b50505050905090810190601f1680156105dc5780820380516001836020036101000a031916815260200191505b509b50505050505050505050505060405180910390f35b601180548290811061060157fe5b600091825260209091200154600160a060020a0316905081565b33600090815260126020526040812054600160a060020a0316151561068f57506011805490819061064f9060018301611106565b503360118281548110151561066057fe5b9060005260206000200160006101000a815481600160a060020a030219169083600160a060020a031602179055505b336000908152601260209081526040909120805473ffffffffffffffffffffffffffffffffffffffff1916600160a060020a03861617815534600282015583516106e19260019092019185019061112f565b5033600081815260126020908152604091829020805474ff0000000000000000000000000000000000000000191660a060020a1790558151928352600160a060020a0386169083015280517f0a31ee9d46a828884b81003c8498156ea6aa15b9b54bdd0ef0b533d9eba57e559281900390910190a1505050565b606080336107676111ad565b600160a060020a0382811660009081526012602090815260409182902082516080810184528154948516815260a060020a90940460ff1684830152600180820180548551600261010094831615949094026000190190911692909204601f8101859004850283018501865280835292948601939192909183018282801561082f5780601f106108045761010080835404028352916020019161082f565b820191906000526020600020905b81548152906001019060200180831161081257829003601f168201915b5050505050815260200160028201548152505090506000816020015160ff161115156108a5576040805160e560020a62461bcd02815260206004820152601460248201527f556e7265676973746572656420776f726b65722e000000000000000000000000604482015290519081900360640190fd5b7fddd784bed66dfeca9e93ec7a89b48ae548c779ac5a179b0362ac680d4677acf0868585604051808481526020018060200180602001838103835285818151815260200191508051906020019060200280838360005b838110156109135781810151838201526020016108fb565b50505050905001838103825284818151815260200191508051906020019060200280838360005b8381101561095257818101518382015260200161093a565b505050509050019550505050505060405180910390a1505050505050565b336109796111ad565b600160a060020a0382811660009081526012602090815260409182902082516080810184528154948516815260a060020a90940460ff1684830152600180820180548551600261010094831615949094026000190190911692909204601f81018590048502830185018652808352929486019391929091830182828015610a415780601f10610a1657610100808354040283529160200191610a41565b820191906000526020600020905b815481529060010190602001808311610a2457829003601f168201915b5050505050815260200160028201548152505090506000816020015160ff16111515610ab7576040805160e560020a62461bcd02815260206004820152601460248201527f556e7265676973746572656420776f726b65722e000000000000000000000000604482015290519081900360640190fd5b60408051888152602080820189905291810187905260a06060820181815287519183019190915286517f665329bb9a4e1062edc215d9c5ab57fa54c4c88e3dfbcc68e0cd92fdd010fa6e938b938b938b938b938b939291608084019160c08501919087019080838360005b83811015610b3a578181015183820152602001610b22565b50505050905090810190601f168015610b675780820380516001836020036101000a031916815260200191505b50838103825284518152845160209182019186019080838360005b83811015610b9a578181015183820152602001610b82565b50505050905090810190601f168015610bc75780820380516001836020036101000a031916815260200191505b5097505050505050505060405180910390a150505050505050565b6012602090815260009182526040918290208054600180830180548651600261010094831615949094026000190190911692909204601f8101869004860283018601909652858252600160a060020a0383169560a060020a90930460ff169491929091830182828015610c965780601f10610c6b57610100808354040283529160200191610c96565b820191906000526020600020905b815481529060010190602001808311610c7957829003601f168201915b5050505050908060020154905084565b6000806060809193509193565b600054600160a060020a031681565b6000606082610ccf6111ad565b600160a060020a0382811660009081526012602090815260409182902082516080810184528154948516815260a060020a90940460ff1684830152600180820180548551600261010094831615949094026000190190911692909204601f81018590048502830185018652808352929486019391929091830182828015610d975780601f10610d6c57610100808354040283529160200191610d97565b820191906000526020600020905b815481529060010190602001808311610d7a57829003601f168201915b5050505050815260200160028201548152505090506000816020015160ff16111515610e0d576040805160e560020a62461bcd02815260206004820152601460248201527f556e7265676973746572656420776f726b65722e000000000000000000000000604482015290519081900360640190fd5b600160a060020a03808616600090815260126020526040902054161515610e7e576040805160e560020a62461bcd02815260206004820152601560248201527f576f726b6572206e6f7420726567697374657265640000000000000000000000604482015290519081900360640190fd5b600160a060020a038581166000908152601260209081526040918290208054600191820180548551600261010095831615959095026000190190911693909304601f8101859004850284018501909552848352941693929091839190830182828015610f2b5780601f10610f0057610100808354040283529160200191610f2b565b820191906000526020600020905b815481529060010190602001808311610f0e57829003601f168201915b50505050509050935093505050915091565b6040805185815260208101859052600160a060020a038416818301526060810183905233608082015290517f51364a5a527e38841b15c974f7924dad755bc9ce0d29701d7501a7bd297b787b9181900360a00190a150505050565b60136020908152600091825260409182902080546001808301546002808501546003860154600487015460058801546006890180548c51601f6000199a831615610100029a909a01909116969096049788018b90048b0286018b01909b5286855296999498600160a060020a03909316979196909590949193928301828280156110635780601f1061103857610100808354040283529160200191611063565b820191906000526020600020905b81548152906001019060200180831161104657829003601f168201915b5050505060078301805460408051602060026001851615610100026000190190941693909304601f81018490048402820184019092528181529495949350908301828280156110f35780601f106110c8576101008083540402835291602001916110f3565b820191906000526020600020905b8154815290600101906020018083116110d657829003601f168201915b5050506008909301549192505060ff1689565b81548183558181111561112a5760008381526020902061112a9181019083016111e2565b505050565b828054600181600116156101000203166002900490600052602060002090601f016020900481019282601f1061117057805160ff191683800117855561119d565b8280016001018555821561119d579182015b8281111561119d578251825591602001919060010190611182565b506111a99291506111e2565b5090565b6080604051908101604052806000600160a060020a03168152602001600060ff16815260200160608152602001600081525090565b6111fc91905b808211156111a957600081556001016111e8565b905600a165627a7a7230582048c2c6eb2b9ccee6fc3ee08bfb982e7efd5aa2fb844ec0e4b323ae190b2ee2870029",
  "source": "pragma solidity ^0.4.24;\n\nimport \"openzeppelin-solidity/contracts/math/SafeMath.sol\";\nimport \"openzeppelin-solidity/contracts/ECRecovery.sol\";\nimport \"./utils/GetCode2.sol\";\nimport \"openzeppelin-solidity/contracts/token/ERC20/StandardToken.sol\";\n\ncontract IERC20 {\n    function balanceOf(address who) public view returns (uint256);\n    function transfer(address to, uint256 value) public returns (bool);\n    function allowance(address owner, address spender) public view returns (uint256);\n    function transferFrom(address from, address to, uint256 value) public returns (bool);\n    function approve(address spender, uint256 value) public returns (bool);\n\n    event Transfer(address indexed from, address indexed to, uint256 value);\n    event Approval(address indexed owner, address indexed spender, uint256 value);\n}\n\n\ncontract Enigma {\n    using SafeMath for uint256;\n    using ECRecovery for bytes32;\n\n    // The interface of the deployed ENG ERC20 token contract\n    IERC20 public engToken;\n\n    struct TaskRecord {\n        bytes32 taskId;\n        uint fee;\n        address token;\n        uint tokenValue;\n    }\n\n    struct TaskReceipt {\n        bytes32 taskId;\n        bytes32 inStateDeltaHash;\n        bytes32 outStateDeltaHash;\n        bytes ethCall;\n        bytes sig;\n    }\n\n    struct Task {\n        bytes32 taskId;\n        uint fee;\n        address token;\n        uint tokenValue;\n        bytes32 inStateDeltaHash;\n        bytes32 outStateDeltaHash;\n        bytes ethCall;\n        bytes sig;\n        TaskStatus status;\n    }\n    enum TaskStatus {RecordCreated, ReceiptVerified}\n\n    /**\n    * The signer address of the principal node\n    * This must be set when deploying the contract and remains immutable\n    * Since the signer address is derived from the public key of an\n    * SGX enclave, this ensures that the principal node cannot be tempered\n    * with or replaced.\n    */\n    address principal;\n\n    // The data representation of a worker (or node)\n    struct Worker {\n        address signer;\n        uint8 status; // Uninitialized: 0; Active: 1; Inactive: 2\n        bytes report; // Decided to store this as one  RLP encoded attribute for easier external storage in the future\n        uint256 balance;\n    }\n\n    /**\n    * The data representation of the worker parameters used as input for\n    * the worker selection algorithm\n    */\n    struct WorkersParams {\n        uint256 firstBlockNumber;\n        address[] workerAddresses;\n        uint256 seed;\n    }\n\n    /**\n    * The last 5 worker parameters\n    * We keep a collection of worker parameters to account for latency issues.\n    * A computation task might be conceivably given out at a certain block number\n    * but executed at a later block in a different epoch. It follows that\n    * the contract must have access to the worker parameters effective when giving\n    * out the task, otherwise the selected worker would not match. We calculated\n    * that keeping the last 5 items should be more than enough to account for\n    * all latent tasks. Tasks results will be rejected past this limit.\n    */\n    WorkersParams[5] workersParams;\n\n    // An address-based index of all registered worker\n    address[] public workerAddresses;\n\n    // A registry of all registered workers with their attributes\n    mapping(address => Worker) public workers;\n    // A registry of all active and historical tasks with their attributes\n    // TODO: do we keep tasks forever? if not, when do we delete them?\n    mapping(bytes32 => Task) public tasks;\n\n    // The events emitted by the contract\n    event Registered(address custodian, address signer);\n    event ValidatedSig(bytes sig, bytes32 hash, address workerAddr);\n    event WorkersParameterized(uint256 seed, address[] workers, address[] secretContracts);\n    event TaskRecordCreated(bytes32 taskId, uint fee, address token, uint tokenValue, address sender);\n    event ReceiptVerified(bytes32 taskId, bytes32 inStateDeltaHash, bytes32 outStateDeltaHash, bytes ethCall, bytes sig);\n\n    constructor(address _tokenAddress, address _principal) public {\n        engToken = IERC20(_tokenAddress);\n        principal = _principal;\n    }\n\n    /**\n    * Checks if the custodian wallet is registered as a worker\n    *\n    * @param user The custodian address of the worker\n    */\n    modifier workerRegistered(address user) {\n        Worker memory worker = workers[user];\n        require(worker.status > 0, \"Unregistered worker.\");\n        _;\n    }\n\n    /**\n    * Registers a new worker of change the signer parameters of an existing\n    * worker. This should be called by every worker (and the principal)\n    * node in order to receive tasks.\n    *\n    * @param signer The signer address, derived from the enclave public key\n    * @param report The RLP encoded report returned by the IAS\n    */\n    function register(address signer, bytes report)\n        public\n        payable\n    {\n        // TODO: consider exit if both signer and custodian as matching\n        // If the custodian is not already register, we add an index entry\n        if (workers[msg.sender].signer == 0x0) {\n            uint index = workerAddresses.length;\n            workerAddresses.length++;\n            workerAddresses[index] = msg.sender;\n        }\n\n        // Set the custodian attributes\n        workers[msg.sender].signer = signer;\n        workers[msg.sender].balance = msg.value;\n        workers[msg.sender].report = report;\n        workers[msg.sender].status = 1;\n\n        emit Registered(msg.sender, signer);\n    }\n\n    /**\n    * Store task record\n    *\n    */\n    function createTaskRecord(\n        bytes32 taskId,\n        uint fee,\n        address token,\n        uint tokenValue\n    )\n        public\n    {\n        emit TaskRecordCreated(taskId, fee, token, tokenValue, msg.sender);\n    }\n\n    // Verify the task results signature\n    function verifyCommitSig(Task task, bytes sig)\n        internal\n        returns (address)\n    {\n        //TODO: implement\n\n        bytes32 hash = 0x0;\n        address workerAddr = 0x0;\n        emit ValidatedSig(sig, hash, workerAddr);\n        return 0x0;\n    }\n\n    // Execute the encoded function in the specified contract\n    function executeCall(address to, uint256 value, bytes data)\n        internal\n        returns (bool success)\n    {\n        assembly {\n            success := call(gas, to, value, add(data, 0x20), mload(data), 0, 0)\n        }\n    }\n\n    /**\n    * Commit the computation task results on chain\n    */\n    function commitReceipt(bytes32 taskId, bytes32 inStateDeltaHash, bytes32 outStateDeltaHash, bytes ethCall, bytes sig)\n        public\n        workerRegistered(msg.sender)\n    {\n        //TODO: implement\n        emit ReceiptVerified(taskId, inStateDeltaHash, outStateDeltaHash, ethCall, sig);\n    }\n\n    // Verify the signature submitted while reparameterizing workers\n    function verifyParamsSig(uint256 seed, bytes sig)\n        internal\n        pure\n        returns (address)\n    {\n        bytes32 hash = keccak256(abi.encodePacked(seed));\n        address signer = hash.recover(sig);\n        return signer;\n    }\n\n    /**\n    * Reparameterizing workers with a new seed\n    * This should be called for each epoch by the Principal node\n    *\n    * @param seed The random integer generated by the enclave\n    * @param sig The random integer signed by the the principal node's enclave\n    */\n    function setWorkersParams(uint seed, bytes sig)\n        public\n        workerRegistered(msg.sender)\n    {\n        address[] memory workers;\n        address[] memory secretContracts;\n        emit WorkersParameterized(seed, workers, secretContracts);\n    }\n\n    /**\n    * The worker parameters corresponding to the specified block number\n    *\n    * @param blockNumber The reference block number\n    */\n    function getWorkersParams(uint blockNumber)\n        public\n        view\n        returns (uint, uint, address[], address[])\n    {\n        uint firstBlockNumber = 0;\n        uint seed = 0;\n        address[] memory workers;\n        address[] memory secretContracts;\n        return (firstBlockNumber, seed, workers, secretContracts);\n    }\n\n    /**\n    * The RLP encoded report returned by the IAS server\n    *\n    * @param custodian The worker's custodian address\n    */\n    function getReport(address custodian)\n        public\n        view\n        workerRegistered(custodian)\n        returns (address, bytes)\n    {\n        // The RLP encoded report and signer's address for the specified worker\n        require(workers[custodian].signer != 0x0, \"Worker not registered\");\n        return (workers[custodian].signer, workers[custodian].report);\n    }\n}\n",
  "sourcePath": "/home/fredfortier/Code/Enigma/discovery/enigma-contract/contracts/Enigma.sol",
  "compiler": {
    "name": "solc",
    "version": "0.4.24+commit.e67f0147.Emscripten.clang"
  },
  "schemaVersion": "2.0.1",
  "updatedAt": "2018-09-19T21:08:39.953Z"
}