{
  "contractName": "Enigma",
  "abi": [
    {
      "constant": true,
      "inputs": [
        {
          "name": "",
          "type": "uint256"
        }
      ],
      "name": "workerAddresses",
      "outputs": [
        {
          "name": "",
          "type": "address"
        }
      ],
      "payable": false,
      "stateMutability": "view",
      "type": "function",
      "signature": "0x0a318da0"
    },
    {
      "constant": true,
      "inputs": [
        {
          "name": "",
          "type": "address"
        }
      ],
      "name": "userSCDeployments",
      "outputs": [
        {
          "name": "",
          "type": "uint256"
        }
      ],
      "payable": false,
      "stateMutability": "view",
      "type": "function",
      "signature": "0x0f8c466c"
    },
    {
      "constant": true,
      "inputs": [
        {
          "name": "",
          "type": "address"
        }
      ],
      "name": "workers",
      "outputs": [
        {
          "name": "signer",
          "type": "address"
        },
        {
          "name": "status",
          "type": "uint8"
        },
        {
          "name": "report",
          "type": "bytes"
        },
        {
          "name": "balance",
          "type": "uint256"
        }
      ],
      "payable": false,
      "stateMutability": "view",
      "type": "function",
      "signature": "0x4048a257"
    },
    {
      "constant": true,
      "inputs": [],
      "name": "epochSize",
      "outputs": [
        {
          "name": "",
          "type": "uint256"
        }
      ],
      "payable": false,
      "stateMutability": "view",
      "type": "function",
      "signature": "0x572d356e"
    },
    {
      "constant": true,
      "inputs": [
        {
          "name": "",
          "type": "uint256"
        }
      ],
      "name": "scAddresses",
      "outputs": [
        {
          "name": "",
          "type": "address"
        }
      ],
      "payable": false,
      "stateMutability": "view",
      "type": "function",
      "signature": "0x5f0dd5bb"
    },
    {
      "constant": true,
      "inputs": [
        {
          "name": "",
          "type": "address"
        }
      ],
      "name": "contracts",
      "outputs": [
        {
          "name": "owner",
          "type": "address"
        },
        {
          "name": "codeHash",
          "type": "bytes32"
        },
        {
          "name": "status",
          "type": "uint8"
        }
      ],
      "payable": false,
      "stateMutability": "view",
      "type": "function",
      "signature": "0x69dc9ff3"
    },
    {
      "constant": true,
      "inputs": [],
      "name": "engToken",
      "outputs": [
        {
          "name": "",
          "type": "address"
        }
      ],
      "payable": false,
      "stateMutability": "view",
      "type": "function",
      "signature": "0x9489ad40"
    },
    {
      "constant": true,
      "inputs": [],
      "name": "workerGroupSize",
      "outputs": [
        {
          "name": "",
          "type": "uint256"
        }
      ],
      "payable": false,
      "stateMutability": "view",
      "type": "function",
      "signature": "0xa3edd784"
    },
    {
      "constant": true,
      "inputs": [
        {
          "name": "",
          "type": "bytes32"
        }
      ],
      "name": "tasks",
      "outputs": [
        {
          "name": "fee",
          "type": "uint256"
        },
        {
          "name": "proof",
          "type": "bytes"
        },
        {
          "name": "sender",
          "type": "address"
        },
        {
          "name": "status",
          "type": "uint8"
        }
      ],
      "payable": false,
      "stateMutability": "view",
      "type": "function",
      "signature": "0xe579f500"
    },
    {
      "inputs": [
        {
          "name": "_tokenAddress",
          "type": "address"
        },
        {
          "name": "_principal",
          "type": "address"
        }
      ],
      "payable": false,
      "stateMutability": "nonpayable",
      "type": "constructor",
      "signature": "constructor"
    },
    {
      "anonymous": false,
      "inputs": [
        {
          "indexed": false,
          "name": "custodian",
          "type": "address"
        },
        {
          "indexed": false,
          "name": "signer",
          "type": "address"
        }
      ],
      "name": "Registered",
      "type": "event",
      "signature": "0x0a31ee9d46a828884b81003c8498156ea6aa15b9b54bdd0ef0b533d9eba57e55"
    },
    {
      "anonymous": false,
      "inputs": [
        {
          "indexed": false,
          "name": "sig",
          "type": "bytes"
        },
        {
          "indexed": false,
          "name": "hash",
          "type": "bytes32"
        },
        {
          "indexed": false,
          "name": "workerAddr",
          "type": "address"
        }
      ],
      "name": "ValidatedSig",
      "type": "event",
      "signature": "0xe36691ca52ee024e298e5c0ff07191b87f0ac571c01a7631db2d70d573d955cb"
    },
    {
      "anonymous": false,
      "inputs": [
        {
          "indexed": false,
          "name": "seed",
          "type": "uint256"
        },
        {
          "indexed": false,
          "name": "blockNumber",
          "type": "uint256"
        },
        {
          "indexed": false,
          "name": "workers",
          "type": "address[]"
        },
        {
          "indexed": false,
          "name": "balances",
          "type": "uint256[]"
        }
      ],
      "name": "WorkersParameterized",
      "type": "event",
      "signature": "0x7047379c64ccafb62f6625e6b2d8eb6e1b0e091fac56a11ab5e2fd896e4db1d0"
    },
    {
      "anonymous": false,
      "inputs": [
        {
          "indexed": false,
          "name": "taskId",
          "type": "bytes32"
        },
        {
          "indexed": false,
          "name": "fee",
          "type": "uint256"
        },
        {
          "indexed": false,
          "name": "sender",
          "type": "address"
        }
      ],
      "name": "TaskRecordCreated",
      "type": "event",
      "signature": "0xf1c0c18d5573c419035509d5b8bf3f97ce7b92cca68bccbde847516f66d6fe05"
    },
    {
      "anonymous": false,
      "inputs": [
        {
          "indexed": false,
          "name": "taskIds",
          "type": "bytes32[]"
        },
        {
          "indexed": false,
          "name": "fees",
          "type": "uint256[]"
        },
        {
          "indexed": false,
          "name": "sender",
          "type": "address"
        }
      ],
      "name": "TaskRecordsCreated",
      "type": "event",
      "signature": "0xacd4eaf0bf2790219699c0a2d47f13405b81c59f5ff0bb951a71a29c94a6d774"
    },
    {
      "anonymous": false,
      "inputs": [
        {
          "indexed": false,
          "name": "taskId",
          "type": "bytes32"
        },
        {
          "indexed": false,
          "name": "inStateDeltaHash",
          "type": "bytes32"
        },
        {
          "indexed": false,
          "name": "outStateDeltaHash",
          "type": "bytes32"
        },
        {
          "indexed": false,
          "name": "ethCall",
          "type": "bytes"
        },
        {
          "indexed": false,
          "name": "sig",
          "type": "bytes"
        }
      ],
      "name": "ReceiptVerified",
      "type": "event",
      "signature": "0x665329bb9a4e1062edc215d9c5ab57fa54c4c88e3dfbcc68e0cd92fdd010fa6e"
    },
    {
      "anonymous": false,
      "inputs": [
        {
          "indexed": false,
          "name": "taskIds",
          "type": "bytes32[]"
        },
        {
          "indexed": false,
          "name": "inStateDeltaHashes",
          "type": "bytes32[]"
        },
        {
          "indexed": false,
          "name": "outStateDeltaHashes",
          "type": "bytes32[]"
        },
        {
          "indexed": false,
          "name": "ethCall",
          "type": "bytes"
        },
        {
          "indexed": false,
          "name": "sig",
          "type": "bytes"
        }
      ],
      "name": "ReceiptsVerified",
      "type": "event",
      "signature": "0x49f3b610d2b607252a8901e3c134022c7a6330e5f6525f0ed84dd4a127478958"
    },
    {
      "anonymous": false,
      "inputs": [
        {
          "indexed": false,
          "name": "from",
          "type": "address"
        },
        {
          "indexed": false,
          "name": "value",
          "type": "uint256"
        }
      ],
      "name": "DepositSuccessful",
      "type": "event",
      "signature": "0xb3ef81558ed1a50072a492984535a009da8b129c749500b387f1e5f4886bdde5"
    },
    {
      "anonymous": false,
      "inputs": [
        {
          "indexed": false,
          "name": "scAddr",
          "type": "address"
        },
        {
          "indexed": false,
          "name": "codeHash",
          "type": "bytes32"
        }
      ],
      "name": "SecretContractDeployed",
      "type": "event",
      "signature": "0xff27b3bb5dfb682b066cdace68b5dda84d03c3d2eadac54284aaec44cbcff516"
    },
    {
      "constant": false,
      "inputs": [
        {
          "name": "_signer",
          "type": "address"
        },
        {
          "name": "_report",
          "type": "bytes"
        }
      ],
      "name": "register",
      "outputs": [],
      "payable": false,
      "stateMutability": "nonpayable",
      "type": "function",
      "signature": "0x24b8fbf6"
    },
    {
      "constant": false,
      "inputs": [
        {
          "name": "_custodian",
          "type": "address"
        },
        {
          "name": "_amount",
          "type": "uint256"
        }
      ],
      "name": "deposit",
      "outputs": [],
      "payable": false,
      "stateMutability": "nonpayable",
      "type": "function",
      "signature": "0x47e7ef24"
    },
    {
      "constant": false,
      "inputs": [],
      "name": "login",
      "outputs": [],
      "payable": false,
      "stateMutability": "nonpayable",
      "type": "function",
      "signature": "0xb34e97e8"
    },
    {
      "constant": false,
      "inputs": [],
      "name": "logout",
      "outputs": [],
      "payable": false,
      "stateMutability": "nonpayable",
      "type": "function",
      "signature": "0x1f3c99c3"
    },
    {
      "constant": false,
      "inputs": [
        {
          "name": "_scAddr",
          "type": "address"
        },
        {
          "name": "_codeHash",
          "type": "bytes32"
        },
        {
          "name": "_owner",
          "type": "address"
        },
        {
          "name": "_sig",
          "type": "bytes"
        }
      ],
      "name": "deploySecretContract",
      "outputs": [],
      "payable": false,
      "stateMutability": "nonpayable",
      "type": "function",
      "signature": "0xd3b524c4"
    },
    {
      "constant": true,
      "inputs": [
        {
          "name": "_scAddr",
          "type": "address"
        }
      ],
      "name": "isDeployed",
      "outputs": [
        {
          "name": "",
          "type": "bool"
        }
      ],
      "payable": false,
      "stateMutability": "view",
      "type": "function",
      "signature": "0x90184b02"
    },
    {
      "constant": true,
      "inputs": [
        {
          "name": "_scAddr",
          "type": "address"
        }
      ],
      "name": "getCodeHash",
      "outputs": [
        {
          "name": "",
          "type": "bytes32"
        }
      ],
      "payable": false,
      "stateMutability": "view",
      "type": "function",
      "signature": "0x81ea4408"
    },
    {
      "constant": true,
      "inputs": [],
      "name": "countSecretContracts",
      "outputs": [
        {
          "name": "",
          "type": "uint256"
        }
      ],
      "payable": false,
      "stateMutability": "view",
      "type": "function",
      "signature": "0x75bbf75b"
    },
    {
      "constant": true,
      "inputs": [
        {
          "name": "_start",
          "type": "uint256"
        },
        {
          "name": "_stop",
          "type": "uint256"
        }
      ],
      "name": "getSecretContractAddresses",
      "outputs": [
        {
          "name": "",
          "type": "address[]"
        }
      ],
      "payable": false,
      "stateMutability": "view",
      "type": "function",
      "signature": "0x8e055b8b"
    },
    {
      "constant": true,
      "inputs": [
        {
          "name": "_scAddr",
          "type": "address"
        }
      ],
      "name": "countStateDeltas",
      "outputs": [
        {
          "name": "",
          "type": "uint256"
        }
      ],
      "payable": false,
      "stateMutability": "view",
      "type": "function",
      "signature": "0x84062df7"
    },
    {
      "constant": true,
      "inputs": [
        {
          "name": "_scAddr",
          "type": "address"
        },
        {
          "name": "_index",
          "type": "uint256"
        }
      ],
      "name": "getStateDeltaHash",
      "outputs": [
        {
          "name": "",
          "type": "bytes32"
        }
      ],
      "payable": false,
      "stateMutability": "view",
      "type": "function",
      "signature": "0x44409496"
    },
    {
      "constant": true,
      "inputs": [
        {
          "name": "_scAddr",
          "type": "address"
        },
        {
          "name": "_start",
          "type": "uint256"
        },
        {
          "name": "_stop",
          "type": "uint256"
        }
      ],
      "name": "getStateDeltaHashes",
      "outputs": [
        {
          "name": "",
          "type": "bytes32[]"
        }
      ],
      "payable": false,
      "stateMutability": "view",
      "type": "function",
      "signature": "0x05e62db6"
    },
    {
      "constant": true,
      "inputs": [
        {
          "name": "_scAddr",
          "type": "address"
        },
        {
          "name": "_stateDeltaHash",
          "type": "bytes32"
        }
      ],
      "name": "isValidDeltaHash",
      "outputs": [
        {
          "name": "",
          "type": "bool"
        }
      ],
      "payable": false,
      "stateMutability": "view",
      "type": "function",
      "signature": "0x7b5b2ce3"
    },
    {
      "constant": false,
      "inputs": [
        {
          "name": "_taskId",
          "type": "bytes32"
        },
        {
          "name": "_fee",
          "type": "uint256"
        }
      ],
      "name": "createTaskRecord",
      "outputs": [],
      "payable": false,
      "stateMutability": "nonpayable",
      "type": "function",
      "signature": "0x03316d16"
    },
    {
      "constant": false,
      "inputs": [
        {
          "name": "_taskIds",
          "type": "bytes32[]"
        },
        {
          "name": "_fees",
          "type": "uint256[]"
        }
      ],
      "name": "createTaskRecords",
      "outputs": [],
      "payable": false,
      "stateMutability": "nonpayable",
      "type": "function",
      "signature": "0x120db8ab"
    },
    {
      "constant": false,
      "inputs": [
        {
          "name": "_scAddr",
          "type": "address"
        },
        {
          "name": "_taskId",
          "type": "bytes32"
        },
        {
          "name": "_inStateDeltaHash",
          "type": "bytes32"
        },
        {
          "name": "_outStateDeltaHash",
          "type": "bytes32"
        },
        {
          "name": "_ethCall",
          "type": "bytes"
        },
        {
          "name": "_sig",
          "type": "bytes"
        }
      ],
      "name": "commitReceipt",
      "outputs": [],
      "payable": false,
      "stateMutability": "nonpayable",
      "type": "function",
      "signature": "0x5956efef"
    },
    {
      "constant": false,
      "inputs": [
        {
          "name": "_scAddr",
          "type": "address"
        },
        {
          "name": "_taskIds",
          "type": "bytes32[]"
        },
        {
          "name": "_inStateDeltaHashes",
          "type": "bytes32[]"
        },
        {
          "name": "_outStateDeltaHashes",
          "type": "bytes32[]"
        },
        {
          "name": "_ethCall",
          "type": "bytes"
        },
        {
          "name": "_sig",
          "type": "bytes"
        }
      ],
      "name": "commitReceipts",
      "outputs": [],
      "payable": false,
      "stateMutability": "nonpayable",
      "type": "function",
      "signature": "0x4d0edeaa"
    },
    {
      "constant": false,
      "inputs": [
        {
          "name": "_seed",
          "type": "uint256"
        },
        {
          "name": "_sig",
          "type": "bytes"
        }
      ],
      "name": "setWorkersParams",
      "outputs": [],
      "payable": false,
      "stateMutability": "nonpayable",
      "type": "function",
      "signature": "0x2873e73c"
    },
    {
      "constant": true,
      "inputs": [
        {
          "name": "_blockNumber",
          "type": "uint256"
        }
      ],
      "name": "getWorkerParams",
      "outputs": [
        {
          "name": "",
          "type": "uint256"
        },
        {
          "name": "",
          "type": "uint256"
        },
        {
          "name": "",
          "type": "address[]"
        },
        {
          "name": "",
          "type": "uint256[]"
        }
      ],
      "payable": false,
      "stateMutability": "view",
      "type": "function",
      "signature": "0x9836ca31"
    },
    {
      "constant": true,
      "inputs": [
        {
          "name": "_blockNumber",
          "type": "uint256"
        },
        {
          "name": "_scAddr",
          "type": "address"
        }
      ],
      "name": "getWorkerGroup",
      "outputs": [
        {
          "name": "",
          "type": "address[]"
        }
      ],
      "payable": false,
      "stateMutability": "view",
      "type": "function",
      "signature": "0xd9611203"
    },
    {
      "constant": true,
      "inputs": [
        {
          "name": "_blockNumber",
          "type": "uint256"
        }
      ],
      "name": "getWorkersParams",
      "outputs": [
        {
          "name": "",
          "type": "uint256"
        },
        {
          "name": "",
          "type": "uint256"
        },
        {
          "name": "",
          "type": "address[]"
        },
        {
          "name": "",
          "type": "address[]"
        }
      ],
      "payable": false,
      "stateMutability": "view",
      "type": "function",
      "signature": "0x59c91a12"
    },
    {
      "constant": true,
      "inputs": [
        {
          "name": "_custodian",
          "type": "address"
        }
      ],
      "name": "getReport",
      "outputs": [
        {
          "name": "",
          "type": "address"
        },
        {
          "name": "",
          "type": "bytes"
        }
      ],
      "payable": false,
      "stateMutability": "view",
      "type": "function",
      "signature": "0xa3bdae3e"
    }
  ],
  "bytecode": "0x608060405260646001553480156200001657600080fd5b50604051604080620045d2833981018060405262000038919081019062000089565b60008054600160a060020a03938416600160a060020a031991821617909155600280549290931691161790556001601d556005601e55620000d4565b6000620000828251620000c8565b9392505050565b600080604083850312156200009d57600080fd5b6000620000ab858562000074565b9250506020620000be8582860162000074565b9150509250929050565b600160a060020a031690565b6144ee80620000e46000396000f30060806040526004361061018a5763ffffffff7c010000000000000000000000000000000000000000000000000000000060003504166303316d16811461018f57806305e62db6146101b15780630a318da0146101e75780630f8c466c14610214578063120db8ab146102415780631f3c99c31461026157806324b8fbf6146102765780632873e73c146102965780634048a257146102b657806344409496146102e657806347e7ef24146103065780634d0edeaa14610326578063572d356e146103465780635956efef1461035b57806359c91a121461037b5780635f0dd5bb146103ab57806369dc9ff3146103cb57806375bbf75b146103fa5780637b5b2ce31461040f57806381ea44081461043c57806384062df71461045c5780638e055b8b1461047c57806390184b02146104a95780639489ad40146104c95780639836ca31146104eb578063a3bdae3e1461051b578063a3edd78414610549578063b34e97e81461055e578063d3b524c414610573578063d961120314610593578063e579f500146105b3575b600080fd5b34801561019b57600080fd5b506101af6101aa3660046138d9565b6105e3565b005b3480156101bd57600080fd5b506101d16101cc3660046137f1565b61069d565b6040516101de919061401c565b60405180910390f35b3480156101f357600080fd5b506102076102023660046138bb565b6107c8565b6040516101de9190613ef7565b34801561022057600080fd5b5061023461022f366004613579565b6107f0565b6040516101de91906140db565b34801561024d57600080fd5b506101af61025c36600461383e565b610802565b34801561026d57600080fd5b506101af6109a1565b34801561028257600080fd5b506101af6102913660046137a9565b610b10565b3480156102a257600080fd5b506101af6102b1366004613946565b610c0a565b3480156102c257600080fd5b506102d66102d1366004613579565b61112d565b6040516101de9493929190613fc6565b3480156102f257600080fd5b5061023461030136600461369e565b6111f1565b34801561031257600080fd5b506101af61032136600461369e565b61127b565b34801561033257600080fd5b506101af61034136600461359f565b6115b1565b34801561035257600080fd5b50610234611783565b34801561036757600080fd5b506101af610376366004613751565b611789565b34801561038757600080fd5b5061039b6103963660046138bb565b611a02565b6040516101de94939291906142aa565b3480156103b757600080fd5b506102076103c63660046138bb565b611a0f565b3480156103d757600080fd5b506103eb6103e6366004613579565b611a1d565b6040516101de93929190613f3b565b34801561040657600080fd5b50610234611a4b565b34801561041b57600080fd5b5061042f61042a36600461369e565b611a52565b6040516101de91906140cd565b34801561044857600080fd5b50610234610457366004613579565b611b2c565b34801561046857600080fd5b50610234610477366004613579565b611b9b565b34801561048857600080fd5b5061049c6104973660046138d9565b611c0a565b6040516101de919061400b565b3480156104b557600080fd5b5061042f6104c4366004613579565b611cc0565b3480156104d557600080fd5b506104de611d05565b6040516101de9190614180565b3480156104f757600080fd5b5061050b6105063660046138bb565b611d14565b6040516101de94939291906142f5565b34801561052757600080fd5b5061053b610536366004613579565b611e3f565b6040516101de929190613f63565b34801561055557600080fd5b50610234612081565b34801561056a57600080fd5b506101af612087565b34801561057f57600080fd5b506101af61058e3660046136d8565b6121f4565b34801561059f57600080fd5b5061049c6105ae366004613916565b6125d9565b3480156105bf57600080fd5b506105d36105ce3660046138bb565b612808565b6040516101de949392919061426e565b6000828152601a6020526040902060020154600160a060020a0316156106275760405160e560020a62461bcd02815260040161061e9061422e565b60405180910390fd5b6000828152601a6020526040908190208281556002018054600160a060020a0319163390811760a060020a60ff02191660a060020a1790915590517ff1c0c18d5573c419035509d5b8bf3f97ce7b92cca68bccbde847516f66d6fe05916106919185918591614123565b60405180910390a15050565b606080600080866001600160a060020a0382166000908152601b602052604090206003015460ff1660018111156106d057fe5b146106f05760405160e560020a62461bcd02815260040161061e9061423e565b85151561071657600160a060020a0388166000908152601b602052604090206002015495505b610726868863ffffffff6128cb16565b60405190808252806020026020018201604052801561074f578160200160208202803883390190505b509350600092508691505b858210156107bc57600160a060020a0388166000908152601b6020526040902060020180548390811061078957fe5b906000526020600020015484848151811015156107a257fe5b60209081029091010152600192830192919091019061075a565b50919695505050505050565b60178054829081106107d657fe5b600091825260209091200154600160a060020a0316905081565b601c6020526000908152604090205481565b60005b825181101561096157601a6000848381518110151561082057fe5b6020908102909101810151825281019190915260400160002060020154600160a060020a0316156108665760405160e560020a62461bcd02815260040161061e9061422e565b818181518110151561087457fe5b90602001906020020151601a6000858481518110151561089057fe5b6020908102909101810151825281019190915260400160009081209190915583513391601a918690859081106108c257fe5b602090810291909101810151825281019190915260400160009081206002018054600160a060020a031916600160a060020a0393909316929092179091558351600191601a9186908590811061091457fe5b6020908102909101810151825281019190915260400160002060029081018054909160a060020a60ff02199091169060a060020a90849081111561095457fe5b0217905550600101610805565b7facd4eaf0bf2790219699c0a2d47f13405b81c59f5ff0bb951a71a29c94a6d77483833360405161099493929190614099565b60405180910390a1505050565b336109aa6132fa565b600160a060020a038281166000908152601960209081526040918290208251608081019093528054938416835291929083019060a060020a900460ff1660038111156109f257fe5b60038111156109fd57fe5b8152602001600182018054600181600116156101000203166002900480601f016020809104026020016040519081016040528092919081815260200182805460018160011615610100020316600290048015610a9a5780601f10610a6f57610100808354040283529160200191610a9a565b820191906000526020600020905b815481529060010190602001808311610a7d57829003601f168201915b505050918352505060029182015460209091015290915081602001516003811115610ac157fe5b14610ae15760405160e560020a62461bcd02815260040161061e906141de565b33600090815260196020526040902080546003919060a060020a60ff02191660a060020a835b02179055505050565b33600090815260196020526040902054600160a060020a03161515610b7257601780546001810182556000919091527fc624b66cc0138b8fabc209247f72d758e1cf3343756d543badbf24212bed8c15018054600160a060020a031916331790555b33600090815260196020908152604082208054600160a060020a031916600160a060020a03861617815560028101929092558251610bb69260010191840190613323565b503360008181526019602052604090819020805460a060020a60ff02191660a060020a179055517f0a31ee9d46a828884b81003c8498156ea6aa15b9b54bdd0ef0b533d9eba57e5591610691918590613f05565b600080600080610c186132fa565b33610c216132fa565b600160a060020a038281166000908152601960209081526040918290208251608081019093528054938416835291929083019060a060020a900460ff166003811115610c6957fe5b6003811115610c7457fe5b8152602001600182018054600181600116156101000203166002900480601f016020809104026020016040519081016040528092919081815260200182805460018160011615610100020316600290048015610d115780601f10610ce657610100808354040283529160200191610d11565b820191906000526020600020905b815481529060010190602001808311610cf457829003601f168201915b5050509183525050600291909101546020909101529050600081602001516003811115610d3a57fe5b1415610d5b5760405160e560020a62461bcd02815260040161061e9061418e565b60025433600090815260196020526040902054600160a060020a03908116911614610d9b5760405160e560020a62461bcd02815260040161061e9061421e565b60009650600095505b6005861015610e065760038660058110610dba57fe5b60040201541515610dcd57859650610e06565b60038760058110610dda57fe5b600402015460038760058110610dec57fe5b60040201541015610dfb578596505b600190950194610da4565b4360038860058110610e1457fe5b60040201558860038860058110610e2757fe5b600402016003018190555060009450600093505b6017548410156110bd5760196000601786815481101515610e5857fe5b6000918252602080832090910154600160a060020a0390811684528382019490945260409283019091208251608081019093528054938416835291929083019060ff60a060020a909104166003811115610eae57fe5b6003811115610eb957fe5b8152602001600182018054600181600116156101000203166002900480601f016020809104026020016040519081016040528092919081815260200182805460018160011615610100020316600290048015610f565780601f10610f2b57610100808354040283529160200191610f56565b820191906000526020600020905b815481529060010190602001808311610f3957829003601f168201915b505050505081526020016002820154815250509250601d54836060015110158015610f9157506002548351600160a060020a03908116911614155b8015610fac5750600283602001516003811115610faa57fe5b145b156110b25760038760058110610fbe57fe5b600402016001018054809190600101610fd791906133a1565b506017805485908110610fe657fe5b600091825260209091200154600160a060020a03166003886005811061100857fe5b600402016001018681548110151561101c57fe5b60009182526020909120018054600160a060020a031916600160a060020a03929092169190911790556003876005811061105257fe5b60040201600201805480919060010161106b91906133a1565b5060608301516003886005811061107e57fe5b600402016002018681548110151561109257fe5b6000918252602090912001556110af85600163ffffffff6128e216565b94505b600190930192610e3b565b7f7047379c64ccafb62f6625e6b2d8eb6e1b0e091fac56a11ab5e2fd896e4db1d0894360038a600581106110ed57fe5b6004020160010160038b60058110151561110357fe5b6004020160020160405161111a9493929190614336565b60405180910390a1505050505050505050565b6019602090815260009182526040918290208054600180830180548651600261010094831615949094026000190190911692909204601f8101869004860283018601909652858252600160a060020a0383169560a060020a90930460ff1694919290918301828280156111e15780601f106111b6576101008083540402835291602001916111e1565b820191906000526020600020905b8154815290600101906020018083116111c457829003601f168201915b5050505050908060020154905084565b6000826001600160a060020a0382166000908152601b602052604090206003015460ff16600181111561122057fe5b146112405760405160e560020a62461bcd02815260040161061e9061423e565b600160a060020a0384166000908152601b6020526040902060020180548490811061126757fe5b906000526020600020015491505092915050565b816112846132fa565b600160a060020a038281166000908152601960209081526040918290208251608081019093528054938416835291929083019060a060020a900460ff1660038111156112cc57fe5b60038111156112d757fe5b8152602001600182018054600181600116156101000203166002900480601f0160208091040260200160405190810160405280929190818152602001828054600181600116156101000203166002900480156113745780601f1061134957610100808354040283529160200191611374565b820191906000526020600020905b81548152906001019060200180831161135757829003601f168201915b505050918352505060029190910154602090910152905060008160200151600381111561139d57fe5b14156113be5760405160e560020a62461bcd02815260040161061e9061418e565b6000546040517fdd62ed3e0000000000000000000000000000000000000000000000000000000081528491600160a060020a03169063dd62ed3e906114099088903090600401613f83565b602060405180830381600087803b15801561142357600080fd5b505af1158015611437573d6000803e3d6000fd5b505050506040513d601f19601f8201168201806040525061145b91908101906138f8565b101561147c5760405160e560020a62461bcd02815260040161061e9061419e565b6000546040517f23b872dd000000000000000000000000000000000000000000000000000000008152600160a060020a03909116906323b872dd906114c990879030908890600401613f9e565b602060405180830381600087803b1580156114e357600080fd5b505af11580156114f7573d6000803e3d6000fd5b505050506040513d601f19601f8201168201806040525061151b919081019061389d565b151561152657600080fd5b600160a060020a038416600090815260196020526040902060020154611552908463ffffffff6128e216565b600160a060020a0385166000908152601960205260409081902060020191909155517fb3ef81558ed1a50072a492984535a009da8b129c749500b387f1e5f4886bdde5906115a39086908690613f20565b60405180910390a150505050565b336115ba6132fa565b600160a060020a038281166000908152601960209081526040918290208251608081019093528054938416835291929083019060a060020a900460ff16600381111561160257fe5b600381111561160d57fe5b8152602001600182018054600181600116156101000203166002900480601f0160208091040260200160405190810160405280929190818152602001828054600181600116156101000203166002900480156116aa5780601f1061167f576101008083540402835291602001916116aa565b820191906000526020600020905b81548152906001019060200180831161168d57829003601f168201915b5050509183525050600291820154602090910152909150816020015160038111156116d157fe5b146116f15760405160e560020a62461bcd02815260040161061e906141de565b876001600160a060020a0382166000908152601b602052604090206003015460ff16600181111561171e57fe5b1461173e5760405160e560020a62461bcd02815260040161061e9061423e565b61174c8989898989896128ef565b7f49f3b610d2b607252a8901e3c134022c7a6330e5f6525f0ed84dd4a127478958888888888860405161111a95949392919061402d565b60015481565b336117926132fa565b600160a060020a038281166000908152601960209081526040918290208251608081019093528054938416835291929083019060a060020a900460ff1660038111156117da57fe5b60038111156117e557fe5b8152602001600182018054600181600116156101000203166002900480601f0160208091040260200160405190810160405280929190818152602001828054600181600116156101000203166002900480156118825780601f1061185757610100808354040283529160200191611882565b820191906000526020600020905b81548152906001019060200180831161186557829003601f168201915b5050509183525050600291820154602090910152909150816020015160038111156118a957fe5b146118c95760405160e560020a62461bcd02815260040161061e906141de565b876001600160a060020a0382166000908152601b602052604090206003015460ff1660018111156118f657fe5b146119165760405160e560020a62461bcd02815260040161061e9061423e565b60016000898152601a6020526040902060029081015460a060020a900460ff169081111561194057fe5b146119605760405160e560020a62461bcd02815260040161061e906141be565b61196e898989898989612bce565b6000888152601a60209081526040909120855161199392600190920191870190613323565b506000888152601a602052604090819020600201805460a060020a60ff02191674020000000000000000000000000000000000000000179055517f665329bb9a4e1062edc215d9c5ab57fa54c4c88e3dfbcc68e0cd92fdd010fa6e9061111a908a908a908a908a908a906140e9565b6000806060809193509193565b60188054829081106107d657fe5b601b60205260009081526040902080546001820154600390920154600160a060020a03909116919060ff1683565b6018545b90565b60008080846001600160a060020a0382166000908152601b602052604090206003015460ff166001811115611a8357fe5b14611aa35760405160e560020a62461bcd02815260040161061e9061423e565b60009250600091505b600160a060020a0386166000908152601b6020526040902060020154821015611b1f57600160a060020a0386166000908152601b60205260409020600201805486919084908110611af957fe5b6000918252602090912001541415611b145760019250611b1f565b600190910190611aac565b8293505b50505092915050565b6000816001600160a060020a0382166000908152601b602052604090206003015460ff166001811115611b5b57fe5b14611b7b5760405160e560020a62461bcd02815260040161061e9061423e565b5050600160a060020a03166000908152601b602052604090206001015490565b6000816001600160a060020a0382166000908152601b602052604090206003015460ff166001811115611bca57fe5b14611bea5760405160e560020a62461bcd02815260040161061e9061423e565b5050600160a060020a03166000908152601b602052604090206002015490565b606080600080841515611c1d5760185494505b611c2d858763ffffffff6128cb16565b604051908082528060200260200182016040528015611c56578160200160208202803883390190505b509250600091508590505b84811015611b1f576018805482908110611c7757fe5b6000918252602090912001548351600160a060020a0390911690849084908110611c9d57fe5b600160a060020a0390921660209283029091019091015260019182019101611c61565b60006001600160a060020a0383166000908152601b602052604090206003015460ff166001811115611cee57fe5b1415611cfc57506001611d00565b5060005b919050565b600054600160a060020a031681565b6000806060806000611d246133ca565b611d2d87612ddb565b915060038260058110611d3c57fe5b60040201608060405190810160405290816000820154815260200160018201805480602002602001604051908101604052809291908181526020018280548015611daf57602002820191906000526020600020905b8154600160a060020a03168152600190910190602001808311611d91575b5050505050815260200160028201805480602002602001604051908101604052809291908181526020018280548015611e0757602002820191906000526020600020905b815481526020019060010190808311611df3575b5050509183525050600391909101546020918201528151606083015191830151604090930151909a9199509197509095509350505050565b6000606082611e4c6132fa565b600160a060020a038281166000908152601960209081526040918290208251608081019093528054938416835291929083019060a060020a900460ff166003811115611e9457fe5b6003811115611e9f57fe5b8152602001600182018054600181600116156101000203166002900480601f016020809104026020016040519081016040528092919081815260200182805460018160011615610100020316600290048015611f3c5780601f10611f1157610100808354040283529160200191611f3c565b820191906000526020600020905b815481529060010190602001808311611f1f57829003601f168201915b5050509183525050600291909101546020909101529050600081602001516003811115611f6557fe5b1415611f865760405160e560020a62461bcd02815260040161061e9061418e565b600160a060020a03808616600090815260196020526040902054161515611fc25760405160e560020a62461bcd02815260040161061e906141fe565b600160a060020a038581166000908152601960209081526040918290208054600191820180548551600261010095831615959095026000190190911693909304601f810185900485028401850190955284835294169392909183919083018282801561206f5780601f106120445761010080835404028352916020019161206f565b820191906000526020600020905b81548152906001019060200180831161205257829003601f168201915b50505050509050935093505050915091565b601e5481565b336120906132fa565b600160a060020a038281166000908152601960209081526040918290208251608081019093528054938416835291929083019060a060020a900460ff1660038111156120d857fe5b60038111156120e357fe5b8152602001600182018054600181600116156101000203166002900480601f0160208091040260200160405190810160405280929190818152602001828054600181600116156101000203166002900480156121805780601f1061215557610100808354040283529160200191612180565b820191906000526020600020905b81548152906001019060200180831161216357829003601f168201915b50505091835250506002919091015460209091015290506000816020015160038111156121a957fe5b14156121ca5760405160e560020a62461bcd02815260040161061e9061418e565b33600090815260196020526040902080546002919060a060020a60ff02191660a060020a83610b07565b6000806000336122026132fa565b600160a060020a038281166000908152601960209081526040918290208251608081019093528054938416835291929083019060a060020a900460ff16600381111561224a57fe5b600381111561225557fe5b8152602001600182018054600181600116156101000203166002900480601f0160208091040260200160405190810160405280929190818152602001828054600181600116156101000203166002900480156122f25780601f106122c7576101008083540402835291602001916122f2565b820191906000526020600020905b8154815290600101906020018083116122d557829003601f168201915b505050918352505060029190910154602090910152905060008160200151600381111561231b57fe5b141561233c5760405160e560020a62461bcd02815260040161061e9061418e565b600160a060020a0387166000818152601c60209081526040918290205482518083018d90526c010000000000000000000000009094028484015260548085019190915282518085039091018152607490930191829052825182918401908083835b602083106123bc5780518252601f19909201916020918201910161239d565b5181516020939093036101000a600019018019909116921691909117905260405192018290039091209750505050600160a060020a038981169086161461240257600080fd5b600160a060020a0389166000908152601b602052604081206003015460ff16600181111561242c57fe5b1461244c5760405160e560020a62461bcd02815260040161061e906141ae565b6040805160208082018b905282518083038201815291830192839052815191929182918401908083835b602083106124955780518252601f199092019160209182019101612476565b6001836020036101000a038019825116818451168082178552505050505050905001915050604051809103902093506124e1866124d58660001916612e83565b9063ffffffff612f2d16565b9250600160a060020a03808416908816146124fb57600080fd5b600160a060020a038981166000908152601b602052604090208054600160a060020a03191691891691909117815560018082018a90556003909101805460ff1916828002179055506018805460018082019092557fb13d2d76d1f4b7be834882e410b3e3a8afaf69f83600ae24db354391d2378d2e018054600160a060020a031916600160a060020a038c81169190911790915588166000908152601c6020526040908190208054909201909155517fff27b3bb5dfb682b066cdace68b5dda84d03c3d2eadac54284aaec44cbcff5169061111a9087908b90613f20565b606060006125e56133ca565b606060008060008060006125f88b612ddb565b97506003886005811061260757fe5b6004020160806040519081016040529081600082015481526020016001820180548060200260200160405190810160405280929190818152602001828054801561267a57602002820191906000526020600020905b8154600160a060020a0316815260019091019060200180831161265c575b50505050508152602001600282018054806020026020016040519081016040528092919081815260200182805480156126d257602002820191906000526020600020905b8154815260200190600101908083116126be575b505050505081526020016003820154815250509650601e54604051908082528060200260200182016040528015612713578160200160208202803883390190505b50955060009450600093505b601e548410156127f9575b6127368b898c88612fea565b925060009150600090505b855181101561278c57858181518110151561275857fe5b90602001906020020151600160a060020a031683600160a060020a03161415612784576001915061278c565b600101612741565b8115156127ba578286858151811015156127a257fe5b600160a060020a039092166020928302909101909101525b85516001909501948690859081106127ce57fe5b90602001906020020151600160a060020a0316600014156127ee5761272a565b60019093019261271f565b50939998505050505050505050565b601a602090815260009182526040918290208054600180830180548651600293821615610100026000190190911692909204601f8101869004860283018601909652858252919492939092908301828280156128a55780601f1061287a576101008083540402835291602001916128a5565b820191906000526020600020905b81548152906001019060200180831161288857829003601f168201915b50505060029093015491925050600160a060020a0381169060ff60a060020a9091041684565b6000828211156128d757fe5b508082035b92915050565b818101828110156128dc57fe5b600160a060020a0386166000908152601b602052604081206002015490808215156129525786600081518110151561292357fe5b602090810290910101511561294d5760405160e560020a62461bcd02815260040161061e906141ee565b6129cb565b600160a060020a0389166000908152601b6020526040902060020161297e84600163ffffffff6128cb16565b8154811061298857fe5b600091825260208220015488519091899181106129a157fe5b60209081029091010151146129cb5760405160e560020a62461bcd02815260040161061e906141ce565b600091505b8751821015612aa8576001601a60008a858151811015156129ed57fe5b6020908102909101810151825281019190915260400160002060029081015460ff60a060020a9091041690811115612a2157fe5b14612a415760405160e560020a62461bcd02815260040161061e906141be565b6000821115612a9d578560018303815181101515612a5b57fe5b602090810290910101518751889084908110612a7357fe5b6020908102909101015114612a9d5760405160e560020a62461bcd02815260040161061e9061420e565b6001909101906129d0565b5060005b8751811015612bc357600160a060020a0389166000908152601b602052604090208651600290910190879083908110612ae157fe5b6020908102909101810151825460018181018555600094855292909320909201919091558851612b169163ffffffff6128cb16565b811415612b625783601a60008a84815181101515612b3057fe5b60209081029091018101518252818101929092526040016000208251612b60936001909201929190910190613323565b505b6002601a60008a84815181101515612b7657fe5b6020908102909101810151825281019190915260400160002060029081018054909160a060020a60ff02199091169060a060020a908490811115612bb657fe5b0217905550600101612aac565b505050505050505050565b600160a060020a0386166000908152601b60205260408120600201549080821515612c19578615612c145760405160e560020a62461bcd02815260040161061e906141ee565b612c7c565b600160a060020a0389166000908152601b60205260409020600201612c4584600163ffffffff6128cb16565b81548110612c4f57fe5b6000918252602090912001548714612c7c5760405160e560020a62461bcd02815260040161061e906141ce565b600160a060020a0389166000908152601b6020908152604080832060020180546001810182559084529282902090920188905581518082018b81529281018a90526060810189905287518b938b938b938b936080909101918401908083835b60208310612cfa5780518252601f199092019160209182019101612cdb565b6001836020036101000a0380198251168184511680821785525050505050509050019450505050506040516020818303038152906040526040518082805190602001908083835b60208310612d605780518252601f199092019160209182019101612d41565b5181516020939093036101000a600019018019909116921691909117905260405192018290039091209450612d9b9250849150869050612f2d565b33600090815260196020526040902054909150600160a060020a03808316911614612bc35760405160e560020a62461bcd02815260040161061e9061424e565b6000600019815b6005811015612e50578360038260058110612df957fe5b600402015411801590612e3f57508160000b6000191480612e3f57506003600083900b60058110612e2657fe5b600402015460038260058110612e3857fe5b6004020154115b15612e48578091505b600101612de2565b600019600083900b1415612e795760405160e560020a62461bcd02815260040161061e9061425e565b5060000b92915050565b604080517f19457468657265756d205369676e6564204d6573736167653a0a333200000000602080830191909152603c80830185905283518084039091018152605c909201928390528151600093918291908401908083835b60208310612efb5780518252601f199092019160209182019101612edc565b5181516020939093036101000a6000190180199091169216919091179052604051920182900390912095945050505050565b60008060008084516041141515612f475760009350611b23565b50505060208201516040830151606084015160001a601b60ff82161015612f6c57601b015b8060ff16601b14158015612f8457508060ff16601c14155b15612f925760009350611b23565b60018682858560405160008152602001604052604051612fb5949392919061414b565b60206040516020810390808403906000865af1158015612fd9573d6000803e3d6000fd5b505050602060405103519350611b23565b6000612ff46133ca565b60008080808060038a6005811061300757fe5b6004020160806040519081016040529081600082015481526020016001820180548060200260200160405190810160405280929190818152602001828054801561307a57602002820191906000526020600020905b8154600160a060020a0316815260019091019060200180831161305c575b50505050508152602001600282018054806020026020016040519081016040528092919081815260200182805480156130d257602002820191906000526020600020905b8154815260200190600101908083116130be575b50505050508152602001600382015481525050955060009450600093505b85602001515184101561316057602086015180518590811061310e57fe5b60209081029091010151600160a060020a0316156131555761315286604001518581518110151561313b57fe5b60209081029091010151869063ffffffff6128e216565b94505b6001909301926130f0565b8a866060015187600001518b888c6040516020018087815260200186815260200185815260200184600160a060020a0316600160a060020a03166c0100000000000000000000000002815260140183815260200182815260200196505050505050506040516020818303038152906040526040518082805190602001908083835b602083106132005780518252601f1990920191602091820191016131e1565b5181516020939093036101000a6000190180199091169216919091179052604051920182900390912095508792508591505081151561323b57fe5b069150600090505b8560200151518110156132ca57602086015180518290811061326157fe5b60209081029091010151600160a060020a0316156132c257604086015180518290811061328a57fe5b6020908102909101015190910390600082136132c25760208601518051829081106132b157fe5b9060200190602002015196506132ec565b600101613243565b6020860151805160001981019081106132df57fe5b9060200190602002015196505b505050505050949350505050565b604080516080810190915260008082526020820190815260200160608152602001600081525090565b828054600181600116156101000203166002900490600052602060002090601f016020900481019282601f1061336457805160ff1916838001178555613391565b82800160010185558215613391579182015b82811115613391578251825591602001919060010190613376565b5061339d9291506133f3565b5090565b8154818355818111156133c5576000838152602090206133c59181019083016133f3565b505050565b608060405190810160405280600081526020016060815260200160608152602001600081525090565b611a4f91905b8082111561339d57600081556001016133f9565b60006134198235614407565b9392505050565b6000601f8201831361343157600080fd5b813561344461343f8261439e565b614377565b9150818183526020840193506020810190508385602084028201111561346957600080fd5b60005b83811015613495578161347f888261351b565b845250602092830192919091019060010161346c565b5050505092915050565b6000601f820183136134b057600080fd5b81356134be61343f8261439e565b915081818352602084019350602081019050838560208402820111156134e357600080fd5b60005b8381101561349557816134f9888261351b565b84525060209283019291909101906001016134e6565b60006134198251614413565b60006134198235611a4f565b6000601f8201831361353857600080fd5b813561354661343f826143bf565b9150808252602083016020830185838301111561356257600080fd5b611b2383828461446e565b60006134198251611a4f565b60006020828403121561358b57600080fd5b6000613597848461340d565b949350505050565b60008060008060008060c087890312156135b857600080fd5b60006135c4898961340d565b965050602087013567ffffffffffffffff8111156135e157600080fd5b6135ed89828a01613420565b955050604087013567ffffffffffffffff81111561360a57600080fd5b61361689828a01613420565b945050606087013567ffffffffffffffff81111561363357600080fd5b61363f89828a01613420565b935050608087013567ffffffffffffffff81111561365c57600080fd5b61366889828a01613527565b92505060a087013567ffffffffffffffff81111561368557600080fd5b61369189828a01613527565b9150509295509295509295565b600080604083850312156136b157600080fd5b60006136bd858561340d565b92505060206136ce8582860161351b565b9150509250929050565b600080600080608085870312156136ee57600080fd5b60006136fa878761340d565b945050602061370b8782880161351b565b935050604061371c8782880161340d565b925050606085013567ffffffffffffffff81111561373957600080fd5b61374587828801613527565b91505092959194509250565b60008060008060008060c0878903121561376a57600080fd5b6000613776898961340d565b965050602061378789828a0161351b565b955050604061379889828a0161351b565b945050606061363f89828a0161351b565b600080604083850312156137bc57600080fd5b60006137c8858561340d565b925050602083013567ffffffffffffffff8111156137e557600080fd5b6136ce85828601613527565b60008060006060848603121561380657600080fd5b6000613812868661340d565b93505060206138238682870161351b565b92505060406138348682870161351b565b9150509250925092565b6000806040838503121561385157600080fd5b823567ffffffffffffffff81111561386857600080fd5b61387485828601613420565b925050602083013567ffffffffffffffff81111561389157600080fd5b6136ce8582860161349f565b6000602082840312156138af57600080fd5b6000613597848461350f565b6000602082840312156138cd57600080fd5b6000613597848461351b565b600080604083850312156138ec57600080fd5b60006136bd858561351b565b60006020828403121561390a57600080fd5b6000613597848461356d565b6000806040838503121561392957600080fd5b6000613935858561351b565b92505060206136ce8582860161340d565b6000806040838503121561395957600080fd5b60006137c8858561351b565b61396e81614407565b82525050565b600061397f826143f9565b808452602084019350613991836143e7565b60005b828110156139c1576139a7868351613965565b6139b0826143e7565b602096909601959150600101613994565b5093949350505050565b60006139d6826143fd565b8084526020840193506139e8836143ed565b60005b828110156139c1576139fe868354613965565b613a0782614401565b6020969096019591506001016139eb565b6000613a23826143f9565b808452602084019350613a35836143e7565b60005b828110156139c157613a4b868351613b08565b613a54826143e7565b602096909601959150600101613a38565b6000613a70826143f9565b808452602084019350613a82836143e7565b60005b828110156139c157613a98868351613b08565b613aa1826143e7565b602096909601959150600101613a85565b6000613abd826143fd565b808452602084019350613acf836143ed565b60005b828110156139c157613ae5868354613b08565b613aee82614401565b602096909601959150600101613ad2565b61396e81614413565b61396e81611a4f565b6000613b1c826143f9565b808452613b3081602086016020860161447a565b613b39816144aa565b9093016020019392505050565b61396e81614442565b61396e8161444d565b61396e81614458565b61396e81614463565b601481527f556e7265676973746572656420776f726b65722e000000000000000000000000602082015260400190565b602681527f4e6f7420656e6f75676820746f6b656e7320616c6c6f77656420666f7220747260208201527f616e736665720000000000000000000000000000000000000000000000000000604082015260600190565b602181527f53656372657420636f6e747261637420616c7265616479206465706c6f79656460208201527f2e00000000000000000000000000000000000000000000000000000000000000604082015260600190565b601381527f496e76616c6964207461736b2073746174757300000000000000000000000000602082015260400190565b601e81527f496e76616c696420696e7075742073746174652064656c746120686173680000602082015260400190565b601581527f576f726b6572206e6f74206c6f6767656420696e2e0000000000000000000000602082015260400190565b602e81527f496e76616c696420696e7075742073746174652064656c74612068617368206660208201527f6f7220656d707479207374617465000000000000000000000000000000000000604082015260600190565b601581527f576f726b6572206e6f7420726567697374657265640000000000000000000000602082015260400190565b602381527f496e76616c69642073746174652064656c746120686173686573206f7264657260208201527f696e670000000000000000000000000000000000000000000000000000000000604082015260600190565b602681527f4f6e6c7920746865205072696e636970616c2063616e2075706461746520746860208201527f6520736565640000000000000000000000000000000000000000000000000000604082015260600190565b601381527f5461736b20616c72656164792065786973742e00000000000000000000000000602082015260400190565b601d81527f53656372657420636f6e7472616374206e6f74206465706c6f7965642e000000602082015260400190565b601281527f496e76616c6964207369676e61747572652e0000000000000000000000000000602082015260400190565b603681527f4e6f20776f726b65727320706172616d657465727320656e74727920666f722060208201527f73706563696669656420626c6f636b206e756d62657200000000000000000000604082015260600190565b61396e8161443c565b602081016128dc8284613965565b60408101613f138285613965565b6134196020830184613965565b60408101613f2e8285613965565b6134196020830184613b08565b60608101613f498286613965565b613f566020830185613b08565b6135976040830184613b4f565b60408101613f718285613965565b81810360208301526135978184613b11565b60408101613f918285613965565b6134196020830184613b46565b60608101613fac8286613965565b613fb96020830185613b46565b6135976040830184613b08565b60808101613fd48287613965565b613fe16020830186613b61565b8181036040830152613ff38185613b11565b90506140026060830184613b08565b95945050505050565b602080825281016134198184613974565b602080825281016134198184613a18565b60a0808252810161403e8188613a18565b905081810360208301526140528187613a18565b905081810360408301526140668186613a18565b9050818103606083015261407a8185613b11565b9050818103608083015261408e8184613b11565b979650505050505050565b606080825281016140aa8186613a18565b905081810360208301526140be8185613a65565b90506135976040830184613965565b602081016128dc8284613aff565b602081016128dc8284613b08565b60a081016140f78288613b08565b6141046020830187613b08565b6141116040830186613b08565b818103606083015261407a8185613b11565b606081016141318286613b08565b61413e6020830185613b08565b6135976040830184613965565b608081016141598287613b08565b6141666020830186613eee565b6141736040830185613b08565b6140026060830184613b08565b602081016128dc8284613b46565b602080825281016128dc81613b6a565b602080825281016128dc81613b9a565b602080825281016128dc81613bf0565b602080825281016128dc81613c46565b602080825281016128dc81613c76565b602080825281016128dc81613ca6565b602080825281016128dc81613cd6565b602080825281016128dc81613d2c565b602080825281016128dc81613d5c565b602080825281016128dc81613db2565b602080825281016128dc81613e08565b602080825281016128dc81613e38565b602080825281016128dc81613e68565b602080825281016128dc81613e98565b6080810161427c8287613b08565b818103602083015261428e8186613b11565b905061429d6040830185613965565b6140026060830184613b58565b608081016142b88287613b08565b6142c56020830186613b08565b81810360408301526142d78185613974565b905081810360608301526142eb8184613974565b9695505050505050565b608081016143038287613b08565b6143106020830186613b08565b81810360408301526143228185613974565b905081810360608301526142eb8184613a65565b608081016143448287613b08565b6143516020830186613b08565b818103604083015261436381856139cb565b905081810360608301526142eb8184613ab2565b60405181810167ffffffffffffffff8111828210171561439657600080fd5b604052919050565b600067ffffffffffffffff8211156143b557600080fd5b5060209081020190565b600067ffffffffffffffff8211156143d657600080fd5b506020601f91909101601f19160190565b60200190565b60009081526020902090565b5190565b5490565b60010190565b600160a060020a031690565b151590565b60006002821061339d57fe5b60006003821061339d57fe5b60006004821061339d57fe5b60ff1690565b60006128dc82614407565b60006128dc82614418565b60006128dc82614424565b60006128dc82614430565b82818337506000910152565b60005b8381101561449557818101518382015260200161447d565b838111156144a4576000848401525b50505050565b601f01601f1916905600a265627a7a72305820a2b0f411ac21138499fbd4d3b9ed933d29359cd943ca9cccd8d50b0da25f3d6b6c6578706572696d656e74616cf50037",
  "source": "pragma solidity ^0.4.24;\npragma experimental ABIEncoderV2;\n\nimport \"openzeppelin-solidity/contracts/math/SafeMath.sol\";\nimport \"openzeppelin-solidity/contracts/ECRecovery.sol\";\n\ncontract ERC20 {\n    function allowance(address owner, address spender) public view returns (uint256);\n\n    function transferFrom(address from, address to, uint256 value) public returns (bool);\n\n    function approve(address spender, uint256 value) public returns (bool);\n\n    function totalSupply() public view returns (uint256);\n\n    function balanceOf(address who) public view returns (uint256);\n\n    function transfer(address to, uint256 value) public returns (bool);\n\n    event Transfer(address indexed from, address indexed to, uint256 value);\n    event Approval(address indexed owner, address indexed spender, uint256 value);\n}\n\ncontract Enigma {\n    using SafeMath for uint256;\n    using ECRecovery for bytes32;\n\n    // The interface of the deployed ENG ERC20 token contract\n    ERC20 public engToken;\n\n    uint public epochSize = 100;\n\n    struct TaskRecord {\n        uint fee;\n        bytes proof; // Signature of (taskId, inStateDeltaHash, outStateDeltaHash, ethCall)\n        address sender;\n        TaskStatus status;\n    }\n    enum TaskStatus {RecordUndefined, RecordCreated, ReceiptVerified}\n\n    /**\n    * The signer address of the principal node\n    * This must be set when deploying the contract and remains immutable\n    * Since the signer address is derived from the public key of an\n    * SGX enclave, this ensures that the principal node cannot be tempered\n    * with or replaced.\n    */\n    address principal;\n\n    // The data representation of a worker (or node)\n    struct Worker {\n        address signer;\n        WorkerStatus status; // Uninitialized: 0; Active: 1; Inactive: 2\n        bytes report; // Decided to store this as one  RLP encoded attribute for easier external storage in the future\n        uint256 balance;\n    }\n\n    enum WorkerStatus {Unregistered, Registered, LoggedIn, LoggedOut}\n\n    /**\n    * The data representation of the worker parameters used as input for\n    * the worker selection algorithm\n    */\n    struct WorkersParams {\n        uint firstBlockNumber;\n        address[] workers;\n        uint[] balances;\n        uint seed;\n    }\n\n    struct SecretContract {\n        address owner;\n        bytes32 codeHash;\n        bytes32[] stateDeltaHashes;\n        SecretContractStatus status;\n        // TODO: consider keeping an index of taskIds\n    }\n    // TODO: do we want to have a contract lifecycle?\n    enum SecretContractStatus {Undefined, Deployed}\n\n    /**\n    * The last 5 worker parameters\n    * We keep a collection of worker parameters to account for latency issues.\n    * A computation task might be conceivably given out at a certain block number\n    * but executed at a later block in a different epoch. It follows that\n    * the contract must have access to the worker parameters effective when giving\n    * out the task, otherwise the selected worker would not match. We calculated\n    * that keeping the last 5 items should be more than enough to account for\n    * all latent tasks. Tasks results will be rejected past this limit.\n    */\n    WorkersParams[5] workersParams;\n\n    // An address-based index of all registered worker\n    address[] public workerAddresses;\n    // An address-based index of all secret contracts\n    address[] public scAddresses;\n\n    // A registry of all registered workers with their attributes\n    mapping(address => Worker) public workers;\n    mapping(bytes32 => TaskRecord) public tasks;\n    mapping(address => SecretContract) public contracts;\n\n    // A mapping of number of secret contract deployments for each address\n    mapping(address => uint) public userSCDeployments;\n\n    // TODO: do we keep tasks forever? if not, when do we delete them?\n    uint stakingThreshold;\n    uint public workerGroupSize;\n\n    // The events emitted by the contract\n    event Registered(address custodian, address signer);\n    event ValidatedSig(bytes sig, bytes32 hash, address workerAddr);\n    event WorkersParameterized(uint seed, uint256 blockNumber, address[] workers, uint[] balances);\n    event TaskRecordCreated(bytes32 taskId, uint fee, address sender);\n    event TaskRecordsCreated(bytes32[] taskIds, uint[] fees, address sender);\n    event ReceiptVerified(bytes32 taskId, bytes32 inStateDeltaHash, bytes32 outStateDeltaHash, bytes ethCall, bytes sig);\n    event ReceiptsVerified(bytes32[] taskIds, bytes32[] inStateDeltaHashes, bytes32[] outStateDeltaHashes, bytes ethCall, bytes sig);\n    event DepositSuccessful(address from, uint value);\n    event SecretContractDeployed(address scAddr, bytes32 codeHash);\n\n    constructor(address _tokenAddress, address _principal) public {\n        engToken = ERC20(_tokenAddress);\n        principal = _principal;\n        stakingThreshold = 1;\n        workerGroupSize = 5;\n    }\n\n    //TODO: break down these methods into services for upgradability\n\n    /**\n    * Checks if the custodian wallet is registered as a worker\n    *\n    * @param _user The custodian address of the worker\n    */\n    modifier workerRegistered(address _user) {\n        Worker memory worker = workers[_user];\n        require(worker.status != WorkerStatus.Unregistered, \"Unregistered worker.\");\n        _;\n    }\n\n    /**\n    * Checks if the custodian wallet is logged in as a worker\n    *\n    * @param _user The custodian address of the worker\n    */\n    modifier workerLoggedIn(address _user) {\n        Worker memory worker = workers[_user];\n        require(worker.status == WorkerStatus.LoggedIn, \"Worker not logged in.\");\n        _;\n    }\n\n    modifier contractDeployed(address _scAddr) {\n        require(contracts[_scAddr].status == SecretContractStatus.Deployed, \"Secret contract not deployed.\");\n        _;\n    }\n\n    /**\n    * Registers a new worker of change the signer parameters of an existing\n    * worker. This should be called by every worker (and the principal)\n    * node in order to receive tasks.\n    *\n    * @param _signer The signer address, derived from the enclave public key\n    * @param _report The RLP encoded report returned by the IAS\n    */\n    function register(address _signer, bytes _report)\n    public\n    {\n        // TODO: consider exit if both signer and custodian as matching\n        // If the custodian is not already register, we add an index entry\n        if (workers[msg.sender].signer == 0x0) {\n            workerAddresses.push(msg.sender);\n        }\n\n        // Set the custodian attributes\n        workers[msg.sender].signer = _signer;\n        workers[msg.sender].balance = 0;\n        workers[msg.sender].report = _report;\n        workers[msg.sender].status = WorkerStatus.Registered;\n\n        emit Registered(msg.sender, _signer);\n    }\n\n    function deposit(address _custodian, uint _amount)\n    public\n    workerRegistered(_custodian)\n    {\n        require(engToken.allowance(_custodian, this) >= _amount, \"Not enough tokens allowed for transfer\");\n        require(engToken.transferFrom(_custodian, this, _amount));\n\n        workers[_custodian].balance = workers[_custodian].balance.add(_amount);\n\n        emit DepositSuccessful(_custodian, _amount);\n    }\n\n    function login() public workerRegistered(msg.sender) {\n        workers[msg.sender].status = WorkerStatus.LoggedIn;\n    }\n\n    function logout() public workerLoggedIn(msg.sender) {\n        workers[msg.sender].status = WorkerStatus.LoggedOut;\n    }\n\n    // TODO: should the scAddr be computed on-chain from the codeHash + some randomness\n    // TODO: should any user deploy a secret contract or only a trusted enclave?\n    function deploySecretContract(address _scAddr, bytes32 _codeHash, address _owner, bytes _sig)\n    public\n    workerRegistered(msg.sender)\n    {\n        address scAddr = address(keccak256(abi.encodePacked(_codeHash, _owner, userSCDeployments[_owner])));\n        require(scAddr == _scAddr);\n        require(contracts[_scAddr].status == SecretContractStatus.Undefined, \"Secret contract already deployed.\");\n        bytes32 msgHash = keccak256(abi.encodePacked(_codeHash));\n        address verifyAddr = msgHash.toEthSignedMessageHash().recover(_sig);\n        require(verifyAddr == _owner);\n\n        //TODO: is this too naive?\n        contracts[_scAddr].owner = _owner;\n        contracts[_scAddr].codeHash = _codeHash;\n        contracts[_scAddr].status = SecretContractStatus.Deployed;\n        scAddresses.push(_scAddr);\n        userSCDeployments[_owner]++;\n        emit SecretContractDeployed(scAddr, _codeHash);\n    }\n\n    function isDeployed(address _scAddr)\n    public\n    view\n    returns (bool)\n    {\n        if (contracts[_scAddr].status == SecretContractStatus.Deployed) {\n            return true;\n        } else {\n            return false;\n        }\n    }\n\n    function getCodeHash(address _scAddr)\n    public\n    view\n    contractDeployed(_scAddr)\n    returns (bytes32)\n    {\n        return contracts[_scAddr].codeHash;\n    }\n\n    function countSecretContracts()\n    public\n    view\n    returns (uint)\n    {\n        return scAddresses.length;\n    }\n\n    /**\n    * Selects address from _start up to, but not including, the _stop number\n    **/\n    function getSecretContractAddresses(uint _start, uint _stop)\n    public\n    view\n    returns (address[])\n    {\n        if (_stop == 0) {\n            _stop = scAddresses.length;\n        }\n        address[] memory addresses = new address[](_stop.sub(_start));\n        uint pos = 0;\n        for (uint i = _start; i < _stop; i++) {\n            addresses[pos] = scAddresses[i];\n            pos++;\n        }\n        return addresses;\n    }\n\n    function countStateDeltas(address _scAddr)\n    public\n    view\n    contractDeployed(_scAddr)\n    returns (uint)\n    {\n        return contracts[_scAddr].stateDeltaHashes.length;\n    }\n\n    function getStateDeltaHash(address _scAddr, uint _index)\n    public\n    view\n    contractDeployed(_scAddr)\n    returns (bytes32)\n    {\n        return contracts[_scAddr].stateDeltaHashes[_index];\n    }\n\n    /**\n    * Selects state deltas from _start up to, but not including, the _stop number\n    **/\n    function getStateDeltaHashes(address _scAddr, uint _start, uint _stop)\n    public\n    view\n    contractDeployed(_scAddr)\n    returns (bytes32[])\n    {\n        if (_stop == 0) {\n            _stop = contracts[_scAddr].stateDeltaHashes.length;\n        }\n        bytes32[] memory deltas = new bytes32[](_stop.sub(_start));\n        uint pos = 0;\n        for (uint i = _start; i < _stop; i++) {\n            deltas[pos] = contracts[_scAddr].stateDeltaHashes[i];\n            pos++;\n        }\n        return deltas;\n    }\n\n    function isValidDeltaHash(address _scAddr, bytes32 _stateDeltaHash)\n    public\n    view\n    contractDeployed(_scAddr)\n    returns (bool)\n    {\n        bool valid = false;\n        for (uint i = 0; i < contracts[_scAddr].stateDeltaHashes.length; i++) {\n            if (contracts[_scAddr].stateDeltaHashes[i] == _stateDeltaHash) {\n                valid = true;\n                break;\n            }\n        }\n        return valid;\n    }\n\n    /**\n    * Store task record\n    *\n    */\n    function createTaskRecord(\n        bytes32 _taskId,\n        uint _fee\n    )\n    public\n    {\n        require(tasks[_taskId].sender == 0x0, \"Task already exist.\");\n\n        tasks[_taskId].fee = _fee;\n        tasks[_taskId].sender = msg.sender;\n        tasks[_taskId].status = TaskStatus.RecordCreated;\n\n        emit TaskRecordCreated(_taskId, _fee, msg.sender);\n    }\n\n    function createTaskRecords(\n        bytes32[] _taskIds,\n        uint[] _fees\n    )\n    public\n    {\n        for (uint i = 0; i < _taskIds.length; i++) {\n            require(tasks[_taskIds[i]].sender == 0x0, \"Task already exist.\");\n\n            tasks[_taskIds[i]].fee = _fees[i];\n            tasks[_taskIds[i]].sender = msg.sender;\n            tasks[_taskIds[i]].status = TaskStatus.RecordCreated;\n        }\n        emit TaskRecordsCreated(_taskIds, _fees, msg.sender);\n    }\n\n    // Execute the encoded function in the specified contract\n    function executeCall(address _to, uint256 _value, bytes _data)\n    internal\n    returns (bool success)\n    {\n        assembly {\n            success := call(gas, _to, _value, add(_data, 0x20), mload(_data), 0, 0)\n        }\n    }\n\n    function verifyReceipt(\n        address _scAddr,\n        bytes32 _taskId,\n        bytes32 _inStateDeltaHash,\n        bytes32 _outStateDeltaHash,\n        bytes _ethCall,\n        bytes _sig\n    )\n    internal\n    {\n        uint index = contracts[_scAddr].stateDeltaHashes.length;\n        if (index == 0) {\n            require(_inStateDeltaHash == 0x0, 'Invalid input state delta hash for empty state');\n        } else {\n            require(_inStateDeltaHash == contracts[_scAddr].stateDeltaHashes[index.sub(1)], 'Invalid input state delta hash');\n        }\n        contracts[_scAddr].stateDeltaHashes.push(_outStateDeltaHash);\n\n        // TODO: execute the Ethereum calls\n\n        // Build a hash to validate that the I/Os are matching\n        bytes32 hash = keccak256(abi.encodePacked(_taskId, _inStateDeltaHash, _outStateDeltaHash, _ethCall));\n\n        // The worker address is not a real Ethereum wallet address but\n        // one generated from its signing key\n        address workerAddr = hash.recover(_sig);\n        require(workerAddr == workers[msg.sender].signer, \"Invalid signature.\");\n    }\n\n    /**\n    * Commit the computation task results on chain\n    */\n    function commitReceipt(\n        address _scAddr,\n        bytes32 _taskId,\n        bytes32 _inStateDeltaHash,\n        bytes32 _outStateDeltaHash,\n        bytes _ethCall,\n        bytes _sig\n    )\n    public\n    workerLoggedIn(msg.sender)\n    contractDeployed(_scAddr)\n    {\n        require(tasks[_taskId].status == TaskStatus.RecordCreated, 'Invalid task status');\n        verifyReceipt(_scAddr, _taskId, _inStateDeltaHash, _outStateDeltaHash, _ethCall, _sig);\n\n        tasks[_taskId].proof = _sig;\n        tasks[_taskId].status = TaskStatus.ReceiptVerified;\n        emit ReceiptVerified(_taskId, _inStateDeltaHash, _outStateDeltaHash, _ethCall, _sig);\n    }\n\n    function verifyReceipts(\n        address _scAddr,\n        bytes32[] _taskIds,\n        bytes32[] _inStateDeltaHashes,\n        bytes32[] _outStateDeltaHashes,\n        bytes _ethCall,\n        bytes _sig\n    )\n    internal\n    {\n        // First, we verify the state delta hashes ordering\n        uint index = contracts[_scAddr].stateDeltaHashes.length;\n        if (index == 0) {\n            require(_inStateDeltaHashes[0] == 0x0, 'Invalid input state delta hash for empty state');\n        } else {\n            require(_inStateDeltaHashes[0] == contracts[_scAddr].stateDeltaHashes[index.sub(1)], 'Invalid input state delta hash');\n        }\n        for (uint i = 0; i < _taskIds.length; i++) {\n            require(tasks[_taskIds[i]].status == TaskStatus.RecordCreated, 'Invalid task status');\n            if (i > 0) {\n                require(_inStateDeltaHashes[i] == _outStateDeltaHashes[i - 1], 'Invalid state delta hashes ordering');\n            }\n        }\n        // TODO: verify signature\n        // Then, we store the outStateDeltaHashes\n        for (uint ic = 0; ic < _taskIds.length; ic++) {\n            contracts[_scAddr].stateDeltaHashes.push(_outStateDeltaHashes[ic]);\n            if (ic == _taskIds.length.sub(1)) {\n                tasks[_taskIds[ic]].proof = _sig;\n            }\n            tasks[_taskIds[ic]].status = TaskStatus.ReceiptVerified;\n        }\n        // TODO: execute the Ethereum calls\n    }\n\n    function commitReceipts(\n        address _scAddr,\n        bytes32[] _taskIds,\n        bytes32[] _inStateDeltaHashes,\n        bytes32[] _outStateDeltaHashes,\n        bytes _ethCall,\n        bytes _sig\n    )\n    public\n    workerLoggedIn(msg.sender)\n    contractDeployed(_scAddr)\n    {\n        verifyReceipts(_scAddr, _taskIds, _inStateDeltaHashes, _outStateDeltaHashes, _ethCall, _sig);\n        emit ReceiptsVerified(_taskIds, _inStateDeltaHashes, _outStateDeltaHashes, _ethCall, _sig);\n    }\n\n    // Verify the signature submitted while reparameterizing workers\n    function verifyParamsSig(uint256 _seed, bytes _sig)\n    internal\n    pure\n    returns (address)\n    {\n        bytes32 hash = keccak256(abi.encodePacked(_seed));\n        address signer = hash.recover(_sig);\n        return signer;\n    }\n\n    /**\n    * Reparameterizing workers with a new seed\n    * This should be called for each epoch by the Principal node\n    *\n    * @param _seed The random integer generated by the enclave\n    * @param _sig The random integer signed by the the principal node's enclave\n    */\n    function setWorkersParams(uint _seed, bytes _sig)\n    public\n    workerRegistered(msg.sender)\n    {\n        // Reparameterizing workers with a new seed\n        // This should be called for each epoch by the Principal node\n\n        // We assume that the Principal is always the first registered node\n        require(workers[msg.sender].signer == principal, \"Only the Principal can update the seed\");\n        // TODO: verify the principal sig\n\n        // Create a new workers parameters item for the specified seed.\n        // The workers parameters list is a sort of cache, it never grows beyond its limit.\n        // If the list is full, the new item will replace the item assigned to the lowest block number.\n        uint paramIndex = 0;\n        for (uint pi = 0; pi < workersParams.length; pi++) {\n            // Find an empty slot in the array, if full use the lowest block number\n            if (workersParams[pi].firstBlockNumber == 0) {\n                paramIndex = pi;\n                break;\n            } else if (workersParams[pi].firstBlockNumber < workersParams[paramIndex].firstBlockNumber) {\n                paramIndex = pi;\n            }\n        }\n        workersParams[paramIndex].firstBlockNumber = block.number;\n        workersParams[paramIndex].seed = _seed;\n\n        // Copy the current worker list\n        uint workerIndex = 0;\n        for (uint wi = 0; wi < workerAddresses.length; wi++) {\n            Worker memory worker = workers[workerAddresses[wi]];\n            if ((worker.balance >= stakingThreshold) && (worker.signer != principal) &&\n                (worker.status == WorkerStatus.LoggedIn)) {\n                workersParams[paramIndex].workers.length++;\n                workersParams[paramIndex].workers[workerIndex] = workerAddresses[wi];\n\n                workersParams[paramIndex].balances.length++;\n                workersParams[paramIndex].balances[workerIndex] = worker.balance;\n\n                workerIndex = workerIndex.add(1);\n            }\n        }\n        emit WorkersParameterized(_seed, block.number, workersParams[paramIndex].workers, workersParams[paramIndex].balances);\n    }\n\n    function getWorkerParamsIndex(uint _blockNumber)\n    internal\n    view\n    returns (uint)\n    {\n        // The workers parameters for a given block number\n        int8 index = - 1;\n        for (uint i = 0; i < workersParams.length; i++) {\n            if (workersParams[i].firstBlockNumber <= _blockNumber && (index == - 1 || workersParams[i].firstBlockNumber > workersParams[uint(index)].firstBlockNumber)) {\n                index = int8(i);\n            }\n        }\n        require(index != - 1, \"No workers parameters entry for specified block number\");\n        return uint(index);\n    }\n\n    function getWorkerParams(uint _blockNumber)\n    public\n    view\n    returns (uint, uint, address[], uint[]) {\n        uint index = getWorkerParamsIndex(_blockNumber);\n        WorkersParams memory params = workersParams[index];\n        return (params.firstBlockNumber, params.seed, params.workers, params.balances);\n    }\n\n    function compileTokens(uint _blockNumber, uint _paramIndex, address _scAddr, uint _nonce)\n    internal\n    view\n    returns (address)\n    {\n        WorkersParams memory params = workersParams[_paramIndex];\n        uint tokenCpt = 0;\n        for (uint i = 0; i < params.workers.length; i++) {\n            if (params.workers[i] != 0x0) {\n                tokenCpt = tokenCpt.add(params.balances[i]);\n            }\n        }\n        bytes32 randHash = keccak256(abi.encodePacked(_blockNumber, params.seed, params.firstBlockNumber, _scAddr,\n            tokenCpt, _nonce));\n        int randVal = int256(uint256(randHash) % tokenCpt);\n        for (uint k = 0; k < params.workers.length; k++) {\n            if (params.workers[k] != 0x0) {\n                randVal -= int256(params.balances[k]);\n                if (randVal <= 0) {\n                    return params.workers[k];\n                }\n            }\n        }\n        return params.workers[params.workers.length - 1];\n    }\n\n    function getWorkerGroup(uint _blockNumber, address _scAddr)\n    public\n    view\n    returns (address[])\n    {\n        // Compile a list of selected workers for the block number and\n        // secret contract.\n        uint paramIndex = getWorkerParamsIndex(_blockNumber);\n        WorkersParams memory params = workersParams[paramIndex];\n\n        address[] memory selectedWorkers = new address[](workerGroupSize);\n        uint nonce = 0;\n        for (uint it = 0; it < workerGroupSize; it++) {\n            do {\n                address worker = compileTokens(_blockNumber, paramIndex, _scAddr, nonce);\n                bool dup = false;\n                for (uint id = 0; id < selectedWorkers.length; id++) {\n                    if (worker == selectedWorkers[id]) {\n                        dup = true;\n                        break;\n                    }\n                }\n                if (dup == false) {\n                    selectedWorkers[it] = worker;\n                }\n                nonce++;\n            }\n            while (selectedWorkers[it] == 0x0);\n        }\n        return selectedWorkers;\n    }\n\n    /**\n    * The worker parameters corresponding to the specified block number\n    *\n    * @param _blockNumber The reference block number\n    */\n    function getWorkersParams(uint _blockNumber)\n    public\n    view\n    returns (uint, uint, address[], address[])\n    {\n        // TODO: finalize implementation\n        uint firstBlockNumber = 0;\n        uint seed = 0;\n        address[] memory activeWorkers;\n        address[] memory activeContracts;\n        return (firstBlockNumber, seed, activeWorkers, activeContracts);\n    }\n\n    /**\n    * The RLP encoded report returned by the IAS server\n    *\n    * @param _custodian The worker's custodian address\n    */\n    function getReport(address _custodian)\n    public\n    view\n    workerRegistered(_custodian)\n    returns (address, bytes)\n    {\n        // The RLP encoded report and signer's address for the specified worker\n        require(workers[_custodian].signer != 0x0, \"Worker not registered\");\n        return (workers[_custodian].signer, workers[_custodian].report);\n    }\n}\n",
  "sourcePath": "/Users/adityapalepu/Startups/enigma/enigma-contract-internal/contracts/Enigma.sol",
  "compiler": {
    "name": "solc",
    "version": "0.4.24+commit.e67f0147.Emscripten.clang"
  },
  "schemaVersion": "2.0.0",
  "updatedAt": "2018-12-14T20:52:25.416Z"
}