{
  "contractName": "Enigma",
  "abi": [
    {
      "constant": false,
      "inputs": [
        {
          "name": "contractAddress",
          "type": "address"
        }
      ],
      "name": "makeDeposit",
      "outputs": [
        {
          "name": "",
          "type": "uint8"
        }
      ],
      "payable": true,
      "stateMutability": "payable",
      "type": "function"
    },
    {
      "constant": false,
      "inputs": [
        {
          "name": "contractAddress",
          "type": "address"
        },
        {
          "name": "serializedValue",
          "type": "bytes"
        },
        {
          "name": "computationCost",
          "type": "uint256"
        }
      ],
      "name": "updateState",
      "outputs": [],
      "payable": false,
      "stateMutability": "nonpayable",
      "type": "function"
    }
  ],
  "bytecode": "0x6060604052341561000f57600080fd5b61015e8061001e6000396000f30060606040526004361061004c576000357c0100000000000000000000000000000000000000000000000000000000900463ffffffff168063c3a34ad814610051578063ea727df4146100d6575b600080fd5b341561005c57600080fd5b6100d4600480803573ffffffffffffffffffffffffffffffffffffffff1690602001909190803590602001908201803590602001908080601f01602080910402602001604051908101604052809392919081815260200183838082843782019150505050505091908035906020019091905050610126565b005b610102600480803573ffffffffffffffffffffffffffffffffffffffff1690602001909190505061012b565b6040518082600181111561011257fe5b60ff16815260200191505060405180910390f35b505050565b60009190505600a165627a7a72305820b6892faa428c3a2238279b7e801ae729ff52e996a47ed6ea1050cc27c06154630029",
  "source": "pragma solidity ^0.4.19;\n\n\ncontract Enigma {\n    enum ReturnValue {Ok, Error}\n\n    struct Account {\n        address contractAddress;\n        mapping(address => uint) depositEng;\n    }\n\n    function makeDeposit(address contractAddress) payable returns (ReturnValue){\n    }\n\n    function updateState(address contractAddress, bytes serializedValue, uint computationCost) {\n\n    }\n}\n",
  "sourcePath": "/Users/fredfortier/Code/enigma/coin-mixer-poc/dapp/contracts/Enigma.sol",
  "compiler": {
    "name": "solc",
    "version": "0.4.19+commit.c4cbbb05.Emscripten.clang"
  },
  "schemaVersion": "2.0.0",
  "updatedAt": "2018-03-15T04:52:40.471Z"
}