{
  "contractName": "Enigma",
  "abi": [
    {
      "constant": true,
      "inputs": [
        {
          "name": "",
          "type": "uint256"
        }
      ],
      "name": "workerAddresses",
      "outputs": [
        {
          "name": "",
          "type": "address"
        }
      ],
      "payable": false,
      "stateMutability": "view",
      "type": "function",
      "signature": "0x0a318da0"
    },
    {
      "constant": true,
      "inputs": [
        {
          "name": "",
          "type": "address"
        }
      ],
      "name": "userSCDeployments",
      "outputs": [
        {
          "name": "",
          "type": "uint256"
        }
      ],
      "payable": false,
      "stateMutability": "view",
      "type": "function",
      "signature": "0x0f8c466c"
    },
    {
      "constant": true,
      "inputs": [
        {
          "name": "",
          "type": "address"
        }
      ],
      "name": "workers",
      "outputs": [
        {
          "name": "signer",
          "type": "address"
        },
        {
          "name": "status",
          "type": "uint8"
        },
        {
          "name": "report",
          "type": "bytes"
        },
        {
          "name": "balance",
          "type": "uint256"
        }
      ],
      "payable": false,
      "stateMutability": "view",
      "type": "function",
      "signature": "0x4048a257"
    },
    {
      "constant": true,
      "inputs": [],
      "name": "epochSize",
      "outputs": [
        {
          "name": "",
          "type": "uint256"
        }
      ],
      "payable": false,
      "stateMutability": "view",
      "type": "function",
      "signature": "0x572d356e"
    },
    {
      "constant": true,
      "inputs": [
        {
          "name": "",
          "type": "uint256"
        }
      ],
      "name": "scAddresses",
      "outputs": [
        {
          "name": "",
          "type": "bytes32"
        }
      ],
      "payable": false,
      "stateMutability": "view",
      "type": "function",
      "signature": "0x5f0dd5bb"
    },
    {
      "constant": true,
      "inputs": [],
      "name": "engToken",
      "outputs": [
        {
          "name": "",
          "type": "address"
        }
      ],
      "payable": false,
      "stateMutability": "view",
      "type": "function",
      "signature": "0x9489ad40"
    },
    {
      "constant": true,
      "inputs": [],
      "name": "workerGroupSize",
      "outputs": [
        {
          "name": "",
          "type": "uint256"
        }
      ],
      "payable": false,
      "stateMutability": "view",
      "type": "function",
      "signature": "0xa3edd784"
    },
    {
      "constant": true,
      "inputs": [
        {
          "name": "",
          "type": "bytes32"
        }
      ],
      "name": "tasks",
      "outputs": [
        {
          "name": "fee",
          "type": "uint256"
        },
        {
          "name": "proof",
          "type": "bytes"
        },
        {
          "name": "sender",
          "type": "address"
        },
        {
          "name": "status",
          "type": "uint8"
        }
      ],
      "payable": false,
      "stateMutability": "view",
      "type": "function",
      "signature": "0xe579f500"
    },
    {
      "constant": true,
      "inputs": [
        {
          "name": "",
          "type": "bytes32"
        }
      ],
      "name": "contracts",
      "outputs": [
        {
          "name": "owner",
          "type": "address"
        },
        {
          "name": "codeHash",
          "type": "bytes32"
        },
        {
          "name": "status",
          "type": "uint8"
        }
      ],
      "payable": false,
      "stateMutability": "view",
      "type": "function",
      "signature": "0xec56a373"
    },
    {
      "inputs": [
        {
          "name": "_tokenAddress",
          "type": "address"
        },
        {
          "name": "_principal",
          "type": "address"
        }
      ],
      "payable": false,
      "stateMutability": "nonpayable",
      "type": "constructor",
      "signature": "constructor"
    },
    {
      "anonymous": false,
      "inputs": [
        {
          "indexed": false,
          "name": "custodian",
          "type": "address"
        },
        {
          "indexed": false,
          "name": "signer",
          "type": "address"
        }
      ],
      "name": "Registered",
      "type": "event",
      "signature": "0x0a31ee9d46a828884b81003c8498156ea6aa15b9b54bdd0ef0b533d9eba57e55"
    },
    {
      "anonymous": false,
      "inputs": [
        {
          "indexed": false,
          "name": "sig",
          "type": "bytes"
        },
        {
          "indexed": false,
          "name": "hash",
          "type": "bytes32"
        },
        {
          "indexed": false,
          "name": "workerAddr",
          "type": "address"
        }
      ],
      "name": "ValidatedSig",
      "type": "event",
      "signature": "0xe36691ca52ee024e298e5c0ff07191b87f0ac571c01a7631db2d70d573d955cb"
    },
    {
      "anonymous": false,
      "inputs": [
        {
          "indexed": false,
          "name": "seed",
          "type": "uint256"
        },
        {
          "indexed": false,
          "name": "blockNumber",
          "type": "uint256"
        },
        {
          "indexed": false,
          "name": "workers",
          "type": "address[]"
        },
        {
          "indexed": false,
          "name": "balances",
          "type": "uint256[]"
        }
      ],
      "name": "WorkersParameterized",
      "type": "event",
      "signature": "0x7047379c64ccafb62f6625e6b2d8eb6e1b0e091fac56a11ab5e2fd896e4db1d0"
    },
    {
      "anonymous": false,
      "inputs": [
        {
          "indexed": false,
          "name": "taskId",
          "type": "bytes32"
        },
        {
          "indexed": false,
          "name": "fee",
          "type": "uint256"
        },
        {
          "indexed": false,
          "name": "sender",
          "type": "address"
        }
      ],
      "name": "TaskRecordCreated",
      "type": "event",
      "signature": "0xf1c0c18d5573c419035509d5b8bf3f97ce7b92cca68bccbde847516f66d6fe05"
    },
    {
      "anonymous": false,
      "inputs": [
        {
          "indexed": false,
          "name": "taskIds",
          "type": "bytes32[]"
        },
        {
          "indexed": false,
          "name": "fees",
          "type": "uint256[]"
        },
        {
          "indexed": false,
          "name": "sender",
          "type": "address"
        }
      ],
      "name": "TaskRecordsCreated",
      "type": "event",
      "signature": "0xacd4eaf0bf2790219699c0a2d47f13405b81c59f5ff0bb951a71a29c94a6d774"
    },
    {
      "anonymous": false,
      "inputs": [
        {
          "indexed": false,
          "name": "taskId",
          "type": "bytes32"
        },
        {
          "indexed": false,
          "name": "inStateDeltaHash",
          "type": "bytes32"
        },
        {
          "indexed": false,
          "name": "outStateDeltaHash",
          "type": "bytes32"
        },
        {
          "indexed": false,
          "name": "ethCall",
          "type": "bytes"
        },
        {
          "indexed": false,
          "name": "sig",
          "type": "bytes"
        }
      ],
      "name": "ReceiptVerified",
      "type": "event",
      "signature": "0x665329bb9a4e1062edc215d9c5ab57fa54c4c88e3dfbcc68e0cd92fdd010fa6e"
    },
    {
      "anonymous": false,
      "inputs": [
        {
          "indexed": false,
          "name": "taskIds",
          "type": "bytes32[]"
        },
        {
          "indexed": false,
          "name": "inStateDeltaHashes",
          "type": "bytes32[]"
        },
        {
          "indexed": false,
          "name": "outStateDeltaHashes",
          "type": "bytes32[]"
        },
        {
          "indexed": false,
          "name": "ethCall",
          "type": "bytes"
        },
        {
          "indexed": false,
          "name": "sig",
          "type": "bytes"
        }
      ],
      "name": "ReceiptsVerified",
      "type": "event",
      "signature": "0x49f3b610d2b607252a8901e3c134022c7a6330e5f6525f0ed84dd4a127478958"
    },
    {
      "anonymous": false,
      "inputs": [
        {
          "indexed": false,
          "name": "from",
          "type": "address"
        },
        {
          "indexed": false,
          "name": "value",
          "type": "uint256"
        }
      ],
      "name": "DepositSuccessful",
      "type": "event",
      "signature": "0xb3ef81558ed1a50072a492984535a009da8b129c749500b387f1e5f4886bdde5"
    },
    {
      "anonymous": false,
      "inputs": [
        {
          "indexed": false,
          "name": "scAddr",
          "type": "bytes32"
        },
        {
          "indexed": false,
          "name": "codeHash",
          "type": "bytes32"
        }
      ],
      "name": "SecretContractDeployed",
      "type": "event",
      "signature": "0x9d707d3c048dd1c209a28ea6367edf3d939a45cb46f86be5a728577e3e52273e"
    },
    {
      "constant": false,
      "inputs": [
        {
          "name": "_signer",
          "type": "address"
        },
        {
          "name": "_report",
          "type": "bytes"
        }
      ],
      "name": "register",
      "outputs": [],
      "payable": false,
      "stateMutability": "nonpayable",
      "type": "function",
      "signature": "0x24b8fbf6"
    },
    {
      "constant": false,
      "inputs": [
        {
          "name": "_custodian",
          "type": "address"
        },
        {
          "name": "_amount",
          "type": "uint256"
        }
      ],
      "name": "deposit",
      "outputs": [],
      "payable": false,
      "stateMutability": "nonpayable",
      "type": "function",
      "signature": "0x47e7ef24"
    },
    {
      "constant": false,
      "inputs": [],
      "name": "login",
      "outputs": [],
      "payable": false,
      "stateMutability": "nonpayable",
      "type": "function",
      "signature": "0xb34e97e8"
    },
    {
      "constant": false,
      "inputs": [],
      "name": "logout",
      "outputs": [],
      "payable": false,
      "stateMutability": "nonpayable",
      "type": "function",
      "signature": "0x1f3c99c3"
    },
    {
      "constant": false,
      "inputs": [
        {
          "name": "_scAddr",
          "type": "bytes32"
        },
        {
          "name": "_codeHash",
          "type": "bytes32"
        },
        {
          "name": "_owner",
          "type": "address"
        },
        {
          "name": "_sig",
          "type": "bytes"
        }
      ],
      "name": "deploySecretContract",
      "outputs": [],
      "payable": false,
      "stateMutability": "nonpayable",
      "type": "function",
      "signature": "0xe5ba75c0"
    },
    {
      "constant": true,
      "inputs": [
        {
          "name": "_scAddr",
          "type": "bytes32"
        }
      ],
      "name": "isDeployed",
      "outputs": [
        {
          "name": "",
          "type": "bool"
        }
      ],
      "payable": false,
      "stateMutability": "view",
      "type": "function",
      "signature": "0x74c0ff4f"
    },
    {
      "constant": true,
      "inputs": [
        {
          "name": "_scAddr",
          "type": "bytes32"
        }
      ],
      "name": "getCodeHash",
      "outputs": [
        {
          "name": "",
          "type": "bytes32"
        }
      ],
      "payable": false,
      "stateMutability": "view",
      "type": "function",
      "signature": "0x27e86c84"
    },
    {
      "constant": true,
      "inputs": [],
      "name": "countSecretContracts",
      "outputs": [
        {
          "name": "",
          "type": "uint256"
        }
      ],
      "payable": false,
      "stateMutability": "view",
      "type": "function",
      "signature": "0x75bbf75b"
    },
    {
      "constant": true,
      "inputs": [
        {
          "name": "_start",
          "type": "uint256"
        },
        {
          "name": "_stop",
          "type": "uint256"
        }
      ],
      "name": "getSecretContractAddresses",
      "outputs": [
        {
          "name": "",
          "type": "bytes32[]"
        }
      ],
      "payable": false,
      "stateMutability": "view",
      "type": "function",
      "signature": "0x8e055b8b"
    },
    {
      "constant": true,
      "inputs": [
        {
          "name": "_scAddr",
          "type": "bytes32"
        }
      ],
      "name": "countStateDeltas",
      "outputs": [
        {
          "name": "",
          "type": "uint256"
        }
      ],
      "payable": false,
      "stateMutability": "view",
      "type": "function",
      "signature": "0xc41bfb03"
    },
    {
      "constant": true,
      "inputs": [
        {
          "name": "_scAddr",
          "type": "bytes32"
        },
        {
          "name": "_index",
          "type": "uint256"
        }
      ],
      "name": "getStateDeltaHash",
      "outputs": [
        {
          "name": "",
          "type": "bytes32"
        }
      ],
      "payable": false,
      "stateMutability": "view",
      "type": "function",
      "signature": "0x28aa1aaa"
    },
    {
      "constant": true,
      "inputs": [
        {
          "name": "_scAddr",
          "type": "bytes32"
        },
        {
          "name": "_start",
          "type": "uint256"
        },
        {
          "name": "_stop",
          "type": "uint256"
        }
      ],
      "name": "getStateDeltaHashes",
      "outputs": [
        {
          "name": "",
          "type": "bytes32[]"
        }
      ],
      "payable": false,
      "stateMutability": "view",
      "type": "function",
      "signature": "0xd1dfd95e"
    },
    {
      "constant": true,
      "inputs": [
        {
          "name": "_scAddr",
          "type": "bytes32"
        },
        {
          "name": "_stateDeltaHash",
          "type": "bytes32"
        }
      ],
      "name": "isValidDeltaHash",
      "outputs": [
        {
          "name": "",
          "type": "bool"
        }
      ],
      "payable": false,
      "stateMutability": "view",
      "type": "function",
      "signature": "0xccfae218"
    },
    {
      "constant": false,
      "inputs": [
        {
          "name": "_taskId",
          "type": "bytes32"
        },
        {
          "name": "_fee",
          "type": "uint256"
        }
      ],
      "name": "createTaskRecord",
      "outputs": [],
      "payable": false,
      "stateMutability": "nonpayable",
      "type": "function",
      "signature": "0x03316d16"
    },
    {
      "constant": false,
      "inputs": [
        {
          "name": "_taskIds",
          "type": "bytes32[]"
        },
        {
          "name": "_fees",
          "type": "uint256[]"
        }
      ],
      "name": "createTaskRecords",
      "outputs": [],
      "payable": false,
      "stateMutability": "nonpayable",
      "type": "function",
      "signature": "0x120db8ab"
    },
    {
      "constant": false,
      "inputs": [
        {
          "name": "_scAddr",
          "type": "bytes32"
        },
        {
          "name": "_taskId",
          "type": "bytes32"
        },
        {
          "name": "_inStateDeltaHash",
          "type": "bytes32"
        },
        {
          "name": "_outStateDeltaHash",
          "type": "bytes32"
        },
        {
          "name": "_ethCall",
          "type": "bytes"
        },
        {
          "name": "_sig",
          "type": "bytes"
        }
      ],
      "name": "commitReceipt",
      "outputs": [],
      "payable": false,
      "stateMutability": "nonpayable",
      "type": "function",
      "signature": "0x978fa217"
    },
    {
      "constant": false,
      "inputs": [
        {
          "name": "_scAddr",
          "type": "bytes32"
        },
        {
          "name": "_taskIds",
          "type": "bytes32[]"
        },
        {
          "name": "_inStateDeltaHashes",
          "type": "bytes32[]"
        },
        {
          "name": "_outStateDeltaHashes",
          "type": "bytes32[]"
        },
        {
          "name": "_ethCall",
          "type": "bytes"
        },
        {
          "name": "_sig",
          "type": "bytes"
        }
      ],
      "name": "commitReceipts",
      "outputs": [],
      "payable": false,
      "stateMutability": "nonpayable",
      "type": "function",
      "signature": "0x5f0d6ac0"
    },
    {
      "constant": false,
      "inputs": [
        {
          "name": "_seed",
          "type": "uint256"
        },
        {
          "name": "_sig",
          "type": "bytes"
        }
      ],
      "name": "setWorkersParams",
      "outputs": [],
      "payable": false,
      "stateMutability": "nonpayable",
      "type": "function",
      "signature": "0x2873e73c"
    },
    {
      "constant": true,
      "inputs": [
        {
          "name": "_blockNumber",
          "type": "uint256"
        }
      ],
      "name": "getWorkerParams",
      "outputs": [
        {
          "name": "",
          "type": "uint256"
        },
        {
          "name": "",
          "type": "uint256"
        },
        {
          "name": "",
          "type": "address[]"
        },
        {
          "name": "",
          "type": "uint256[]"
        }
      ],
      "payable": false,
      "stateMutability": "view",
      "type": "function",
      "signature": "0x9836ca31"
    },
    {
      "constant": true,
      "inputs": [
        {
          "name": "_blockNumber",
          "type": "uint256"
        },
        {
          "name": "_scAddr",
          "type": "bytes32"
        }
      ],
      "name": "getWorkerGroup",
      "outputs": [
        {
          "name": "",
          "type": "address[]"
        }
      ],
      "payable": false,
      "stateMutability": "view",
      "type": "function",
      "signature": "0x1d40ff0b"
    },
    {
      "constant": true,
      "inputs": [
        {
          "name": "_blockNumber",
          "type": "uint256"
        }
      ],
      "name": "getWorkersParams",
      "outputs": [
        {
          "name": "",
          "type": "uint256"
        },
        {
          "name": "",
          "type": "uint256"
        },
        {
          "name": "",
          "type": "address[]"
        },
        {
          "name": "",
          "type": "address[]"
        }
      ],
      "payable": false,
      "stateMutability": "view",
      "type": "function",
      "signature": "0x59c91a12"
    },
    {
      "constant": true,
      "inputs": [
        {
          "name": "_custodian",
          "type": "address"
        }
      ],
      "name": "getReport",
      "outputs": [
        {
          "name": "",
          "type": "address"
        },
        {
          "name": "",
          "type": "bytes"
        }
      ],
      "payable": false,
      "stateMutability": "view",
      "type": "function",
      "signature": "0xa3bdae3e"
    }
  ],
  "bytecode": "0x608060405260646001553480156200001657600080fd5b5060405160408062004749833981018060405262000038919081019062000089565b60008054600160a060020a03938416600160a060020a031991821617909155600280549290931691161790556001601d556005601e55620000e7565b6000620000828251620000d4565b9392505050565b600080604083850312156200009d57600080fd5b6000620000ab858562000074565b9250506020620000be8582860162000074565b9150509250929050565b600160a060020a031690565b6000620000e182620000c8565b92915050565b61465280620000f76000396000f3fe60806040526004361061018a5763ffffffff7c010000000000000000000000000000000000000000000000000000000060003504166303316d16811461018f5780630a318da0146101b15780630f8c466c146101e7578063120db8ab146102145780631d40ff0b146102345780631f3c99c31461026157806324b8fbf61461027657806327e86c84146102965780632873e73c146102b657806328aa1aaa146102d65780634048a257146102f657806347e7ef2414610326578063572d356e1461034657806359c91a121461035b5780635f0d6ac01461038b5780635f0dd5bb146103ab57806374c0ff4f146103cb57806375bbf75b146103f85780638e055b8b1461040d5780639489ad401461043a578063978fa2171461045c5780639836ca311461047c578063a3bdae3e146104ac578063a3edd784146104da578063b34e97e8146104ef578063c41bfb0314610504578063ccfae21814610524578063d1dfd95e14610544578063e579f50014610564578063e5ba75c014610594578063ec56a373146105b4575b600080fd5b34801561019b57600080fd5b506101af6101aa3660046138e9565b6105e3565b005b3480156101bd57600080fd5b506101d16101cc3660046137cc565b610834565b6040516101de9190614055565b60405180910390f35b3480156101f357600080fd5b506102076102023660046136af565b61085c565b6040516101de919061423a565b34801561022057600080fd5b506101af61022f36600461374f565b61086e565b34801561024057600080fd5b5061025461024f3660046138e9565b610bb5565b6040516101de919061416a565b34801561026d57600080fd5b506101af610dce565b34801561028257600080fd5b506101af6102913660046136cd565b610f4b565b3480156102a257600080fd5b506102076102b13660046137cc565b61106d565b3480156102c257600080fd5b506101af6102d1366004613a44565b6110c9565b3480156102e257600080fd5b506102076102f13660046138e9565b6115e0565b34801561030257600080fd5b506103166103113660046136af565b611656565b6040516101de949392919061410a565b34801561033257600080fd5b506101af61034136600461371f565b61171a565b34801561035257600080fd5b50610207611a4e565b34801561036757600080fd5b5061037b6103763660046137cc565b611a54565b6040516101de9493929190614402565b34801561039757600080fd5b506101af6103a63660046137ea565b611a61565b3480156103b757600080fd5b506102076103c63660046137cc565b611c3c565b3480156103d757600080fd5b506103eb6103e63660046137cc565b611c5b565b6040516101de919061422c565b34801561040457600080fd5b50610207611c96565b34801561041957600080fd5b5061042d6104283660046138e9565b611c9d565b6040516101de919061417b565b34801561044657600080fd5b5061044f611d3d565b6040516101de91906142b8565b34801561046857600080fd5b506101af610477366004613981565b611d4c565b34801561048857600080fd5b5061049c6104973660046137cc565b611ffd565b6040516101de949392919061444d565b3480156104b857600080fd5b506104cc6104c73660046136af565b612128565b6040516101de9291906140ea565b3480156104e657600080fd5b5061020761236a565b3480156104fb57600080fd5b506101af612370565b34801561051057600080fd5b5061020761051f3660046137cc565b6124eb565b34801561053057600080fd5b506103eb61053f3660046138e9565b612547565b34801561055057600080fd5b5061042d61055f3660046139d9565b6125f4565b34801561057057600080fd5b5061058461057f3660046137cc565b6126f7565b6040516101de94939291906143c6565b3480156105a057600080fd5b506101af6105af366004613908565b6127ba565b3480156105c057600080fd5b506105d46105cf3660046137cc565b612ab9565b6040516101de939291906140c2565b6000828152601a6020526040902060020154600160a060020a0316156106275760405160e560020a62461bcd02815260040161061e90614386565b60405180910390fd5b6000546040517fdd62ed3e0000000000000000000000000000000000000000000000000000000081528291600160a060020a03169063dd62ed3e906106729033903090600401614063565b60206040518083038186803b15801561068a57600080fd5b505afa15801561069e573d6000803e3d6000fd5b505050506040513d601f19601f820116820180604052506106c29190810190613a26565b10156106e35760405160e560020a62461bcd02815260040161061e90614346565b6000546040517f23b872dd000000000000000000000000000000000000000000000000000000008152600160a060020a03909116906323b872dd906107309033903090869060040161407e565b602060405180830381600087803b15801561074a57600080fd5b505af115801561075e573d6000803e3d6000fd5b505050506040513d601f19601f8201168201806040525061078291908101906137ae565b15156107a35760405160e560020a62461bcd02815260040161061e90614316565b6000828152601a602052604090819020828155600201805473ffffffffffffffffffffffffffffffffffffffff19163390811774ff0000000000000000000000000000000000000000191660a060020a1790915590517ff1c0c18d5573c419035509d5b8bf3f97ce7b92cca68bccbde847516f66d6fe05916108289185918591614290565b60405180910390a15050565b601780548290811061084257fe5b600091825260209091200154600160a060020a0316905081565b601c6020526000908152604090205481565b60005b8251811015610b81576000600160a060020a0316601a6000858481518110151561089757fe5b6020908102909101810151825281019190915260400160002060020154600160a060020a0316146108dd5760405160e560020a62461bcd02815260040161061e90614386565b81818151811015156108eb57fe5b602090810290910101516000546040517fdd62ed3e000000000000000000000000000000000000000000000000000000008152600160a060020a039091169063dd62ed3e906109409033903090600401614063565b60206040518083038186803b15801561095857600080fd5b505afa15801561096c573d6000803e3d6000fd5b505050506040513d601f19601f820116820180604052506109909190810190613a26565b10156109b15760405160e560020a62461bcd02815260040161061e90614346565b6000548251600160a060020a03909116906323b872dd90339030908690869081106109d857fe5b906020019060200201516040518463ffffffff167c0100000000000000000000000000000000000000000000000000000000028152600401610a1c9392919061407e565b602060405180830381600087803b158015610a3657600080fd5b505af1158015610a4a573d6000803e3d6000fd5b505050506040513d601f19601f82011682018060405250610a6e91908101906137ae565b1515610a8f5760405160e560020a62461bcd02815260040161061e90614316565b8181815181101515610a9d57fe5b90602001906020020151601a60008584815181101515610ab957fe5b9060200190602002015181526020019081526020016000206000018190555033601a60008584815181101515610aeb57fe5b90602001906020020151815260200190815260200160002060020160006101000a815481600160a060020a030219169083600160a060020a031602179055506001601a60008584815181101515610b3e57fe5b90602001906020020151815260200190815260200160002060020160146101000a81548160ff02191690836002811115610b7457fe5b0217905550600101610871565b507facd4eaf0bf2790219699c0a2d47f13405b81c59f5ff0bb951a71a29c94a6d774828233604051610828939291906141f8565b60606000610bc284612ae7565b9050610bcc613437565b60038260058110610bd957fe5b60040201608060405190810160405290816000820154815260200160018201805480602002602001604051908101604052809291908181526020018280548015610c4c57602002820191906000526020600020905b8154600160a060020a03168152600190910190602001808311610c2e575b5050505050815260200160028201805480602002602001604051908101604052809291908181526020018280548015610ca457602002820191906000526020600020905b815481526020019060010190808311610c90575b5050505050815260200160038201548152505090506060601e54604051908082528060200260200182016040528015610ce7578160200160208202803883390190505b5090506000805b601e54811015610dc0575b6000610d0789878a86612b8f565b90506000805b8551811015610d58578581815181101515610d2457fe5b90602001906020020151600160a060020a031683600160a060020a03161415610d505760019150610d58565b600101610d0d565b50801515610d8757818584815181101515610d6f57fe5b600160a060020a039092166020928302909101909101525b50508251600190920191600090849083908110610da057fe5b60209081029091010151600160a060020a031614610cf957600101610cee565b509093505050505b92915050565b33610dd7613460565b600160a060020a038281166000908152601960209081526040918290208251608081019093528054938416835291929083019060a060020a900460ff166003811115610e1f57fe5b6003811115610e2a57fe5b8152602001600182018054600181600116156101000203166002900480601f016020809104026020016040519081016040528092919081815260200182805460018160011615610100020316600290048015610ec75780601f10610e9c57610100808354040283529160200191610ec7565b820191906000526020600020905b815481529060010190602001808311610eaa57829003601f168201915b505050918352505060029182015460209091015290915081602001516003811115610eee57fe5b14610f0e5760405160e560020a62461bcd02815260040161061e90614326565b33600090815260196020526040902080546003919074ff0000000000000000000000000000000000000000191660a060020a835b02179055505050565b33600090815260196020526040902054600160a060020a03161515610fba57601780546001810182556000919091527fc624b66cc0138b8fabc209247f72d758e1cf3343756d543badbf24212bed8c1501805473ffffffffffffffffffffffffffffffffffffffff1916331790555b3360009081526019602090815260408220805473ffffffffffffffffffffffffffffffffffffffff1916600160a060020a0386161781556002810192909255825161100b9260010191840190613489565b503360008181526019602052604090819020805474ff0000000000000000000000000000000000000000191660a060020a179055517f0a31ee9d46a828884b81003c8498156ea6aa15b9b54bdd0ef0b533d9eba57e5591610828918590614063565b60008160016000828152601b602052604090206003015460ff16600181111561109257fe5b146110b25760405160e560020a62461bcd02815260040161061e90614396565b50506000908152601b602052604090206001015490565b336110d2613460565b600160a060020a038281166000908152601960209081526040918290208251608081019093528054938416835291929083019060a060020a900460ff16600381111561111a57fe5b600381111561112557fe5b8152602001600182018054600181600116156101000203166002900480601f0160208091040260200160405190810160405280929190818152602001828054600181600116156101000203166002900480156111c25780601f10611197576101008083540402835291602001916111c2565b820191906000526020600020905b8154815290600101906020018083116111a557829003601f168201915b50505091835250506002919091015460209091015290506000816020015160038111156111eb57fe5b141561120c5760405160e560020a62461bcd02815260040161061e906142c6565b60025433600090815260196020526040902054600160a060020a0390811691161461124c5760405160e560020a62461bcd02815260040161061e90614376565b6000805b60058110156112af576003816005811061126657fe5b60040201541515611279578091506112af565b6003826005811061128657fe5b60040201546003826005811061129857fe5b600402015410156112a7578091505b600101611250565b5043600382600581106112be57fe5b600402015584600382600581106112d157fe5b60040201600301556000805b601754811015611572576112ef613460565b6019600060178481548110151561130257fe5b6000918252602080832090910154600160a060020a0390811684528382019490945260409283019091208251608081019093528054938416835291929083019060ff60a060020a90910416600381111561135857fe5b600381111561136357fe5b8152602001600182018054600181600116156101000203166002900480601f0160208091040260200160405190810160405280929190818152602001828054600181600116156101000203166002900480156114005780601f106113d557610100808354040283529160200191611400565b820191906000526020600020905b8154815290600101906020018083116113e357829003601f168201915b505050505081526020016002820154815250509050601d5481606001511015801561143b57506002548151600160a060020a03908116911614155b8015611456575060028160200151600381111561145457fe5b145b15611569576003846005811061146857fe5b6004020160010180548091906001016114819190613507565b50601780548390811061149057fe5b600091825260209091200154600160a060020a0316600385600581106114b257fe5b60040201600101848154811015156114c657fe5b6000918252602090912001805473ffffffffffffffffffffffffffffffffffffffff1916600160a060020a03929092169190911790556003846005811061150957fe5b6004020160020180548091906001016115229190613507565b5060608101516003856005811061153557fe5b600402016002018481548110151561154957fe5b60009182526020909120015561156683600163ffffffff612e1e16565b92505b506001016112dd565b507f7047379c64ccafb62f6625e6b2d8eb6e1b0e091fac56a11ab5e2fd896e4db1d08643600385600581106115a357fe5b600402016001016003866005811015156115b957fe5b600402016002016040516115d0949392919061448e565b60405180910390a1505050505050565b60008260016000828152601b602052604090206003015460ff16600181111561160557fe5b146116255760405160e560020a62461bcd02815260040161061e90614396565b6000848152601b6020526040902060020180548490811061164257fe5b906000526020600020015491505092915050565b6019602090815260009182526040918290208054600180830180548651600261010094831615949094026000190190911692909204601f8101869004860283018601909652858252600160a060020a0383169560a060020a90930460ff16949192909183018282801561170a5780601f106116df5761010080835404028352916020019161170a565b820191906000526020600020905b8154815290600101906020018083116116ed57829003601f168201915b5050505050908060020154905084565b81611723613460565b600160a060020a038281166000908152601960209081526040918290208251608081019093528054938416835291929083019060a060020a900460ff16600381111561176b57fe5b600381111561177657fe5b8152602001600182018054600181600116156101000203166002900480601f0160208091040260200160405190810160405280929190818152602001828054600181600116156101000203166002900480156118135780601f106117e857610100808354040283529160200191611813565b820191906000526020600020905b8154815290600101906020018083116117f657829003601f168201915b505050918352505060029190910154602090910152905060008160200151600381111561183c57fe5b141561185d5760405160e560020a62461bcd02815260040161061e906142c6565b6000546040517fdd62ed3e0000000000000000000000000000000000000000000000000000000081528491600160a060020a03169063dd62ed3e906118a890889030906004016140a6565b60206040518083038186803b1580156118c057600080fd5b505afa1580156118d4573d6000803e3d6000fd5b505050506040513d601f19601f820116820180604052506118f89190810190613a26565b10156119195760405160e560020a62461bcd02815260040161061e906142d6565b6000546040517f23b872dd000000000000000000000000000000000000000000000000000000008152600160a060020a03909116906323b872dd90611966908790309088906004016140b4565b602060405180830381600087803b15801561198057600080fd5b505af1158015611994573d6000803e3d6000fd5b505050506040513d601f19601f820116820180604052506119b891908101906137ae565b15156119c357600080fd5b600160a060020a0384166000908152601960205260409020600201546119ef908463ffffffff612e1e16565b600160a060020a0385166000908152601960205260409081902060020191909155517fb3ef81558ed1a50072a492984535a009da8b129c749500b387f1e5f4886bdde590611a40908690869061414f565b60405180910390a150505050565b60015481565b6000806060809193509193565b33611a6a613460565b600160a060020a038281166000908152601960209081526040918290208251608081019093528054938416835291929083019060a060020a900460ff166003811115611ab257fe5b6003811115611abd57fe5b8152602001600182018054600181600116156101000203166002900480601f016020809104026020016040519081016040528092919081815260200182805460018160011615610100020316600290048015611b5a5780601f10611b2f57610100808354040283529160200191611b5a565b820191906000526020600020905b815481529060010190602001808311611b3d57829003601f168201915b505050918352505060029182015460209091015290915081602001516003811115611b8157fe5b14611ba15760405160e560020a62461bcd02815260040161061e90614326565b8760016000828152601b602052604090206003015460ff166001811115611bc457fe5b14611be45760405160e560020a62461bcd02815260040161061e90614396565b611bf2898989898989612e37565b7f49f3b610d2b607252a8901e3c134022c7a6330e5f6525f0ed84dd4a1274789588888888888604051611c2995949392919061418c565b60405180910390a1505050505050505050565b6018805482908110611c4a57fe5b600091825260209091200154905081565b600060016000838152601b602052604090206003015460ff166001811115611c7f57fe5b1415611c8d57506001611c91565b5060005b919050565b6018545b90565b6060811515611cac5760185491505b6060611cbe838563ffffffff61314516565b604051908082528060200260200182016040528015611ce7578160200160208202803883390190505b5090506000845b84811015611d33576018805482908110611d0457fe5b90600052602060002001548383815181101515611d1d57fe5b6020908102909101015260019182019101611cee565b5090949350505050565b600054600160a060020a031681565b33611d55613460565b600160a060020a038281166000908152601960209081526040918290208251608081019093528054938416835291929083019060a060020a900460ff166003811115611d9d57fe5b6003811115611da857fe5b8152602001600182018054600181600116156101000203166002900480601f016020809104026020016040519081016040528092919081815260200182805460018160011615610100020316600290048015611e455780601f10611e1a57610100808354040283529160200191611e45565b820191906000526020600020905b815481529060010190602001808311611e2857829003601f168201915b505050918352505060029182015460209091015290915081602001516003811115611e6c57fe5b14611e8c5760405160e560020a62461bcd02815260040161061e90614326565b8760016000828152601b602052604090206003015460ff166001811115611eaf57fe5b14611ecf5760405160e560020a62461bcd02815260040161061e90614396565b60016000898152601a6020526040902060029081015460a060020a900460ff1690811115611ef957fe5b14611f195760405160e560020a62461bcd02815260040161061e906142f6565b611f2789898989898961315a565b6000888152601a602090815260409091208551611f4c92600190920191870190613489565b506000888152601a602090815260408083206002808201805474ff000000000000000000000000000000000000000019167402000000000000000000000000000000000000000017905590543385526019909352922090910154611faf91612e1e565b336000908152601960205260409081902060020191909155517f665329bb9a4e1062edc215d9c5ab57fa54c4c88e3dfbcc68e0cd92fdd010fa6e90611c29908a908a908a908a908a90614256565b600080606080600061200e86612ae7565b9050612018613437565b6003826005811061202557fe5b6004020160806040519081016040529081600082015481526020016001820180548060200260200160405190810160405280929190818152602001828054801561209857602002820191906000526020600020905b8154600160a060020a0316815260019091019060200180831161207a575b50505050508152602001600282018054806020026020016040519081016040528092919081815260200182805480156120f057602002820191906000526020600020905b8154815260200190600101908083116120dc575b5050509183525050600391909101546020918201528151606083015191830151604090930151909a9199509197509095509350505050565b6000606082612135613460565b600160a060020a038281166000908152601960209081526040918290208251608081019093528054938416835291929083019060a060020a900460ff16600381111561217d57fe5b600381111561218857fe5b8152602001600182018054600181600116156101000203166002900480601f0160208091040260200160405190810160405280929190818152602001828054600181600116156101000203166002900480156122255780601f106121fa57610100808354040283529160200191612225565b820191906000526020600020905b81548152906001019060200180831161220857829003601f168201915b505050918352505060029190910154602090910152905060008160200151600381111561224e57fe5b141561226f5760405160e560020a62461bcd02815260040161061e906142c6565b600160a060020a038581166000908152601960205260409020541615156122ab5760405160e560020a62461bcd02815260040161061e90614356565b600160a060020a038581166000908152601960209081526040918290208054600191820180548551600261010095831615959095026000190190911693909304601f81018590048502840185019095528483529416939290918391908301828280156123585780601f1061232d57610100808354040283529160200191612358565b820191906000526020600020905b81548152906001019060200180831161233b57829003601f168201915b50505050509050935093505050915091565b601e5481565b33612379613460565b600160a060020a038281166000908152601960209081526040918290208251608081019093528054938416835291929083019060a060020a900460ff1660038111156123c157fe5b60038111156123cc57fe5b8152602001600182018054600181600116156101000203166002900480601f0160208091040260200160405190810160405280929190818152602001828054600181600116156101000203166002900480156124695780601f1061243e57610100808354040283529160200191612469565b820191906000526020600020905b81548152906001019060200180831161244c57829003601f168201915b505050918352505060029190910154602090910152905060008160200151600381111561249257fe5b14156124b35760405160e560020a62461bcd02815260040161061e906142c6565b33600090815260196020526040902080546002919074ff0000000000000000000000000000000000000000191660a060020a83610f42565b60008160016000828152601b602052604090206003015460ff16600181111561251057fe5b146125305760405160e560020a62461bcd02815260040161061e90614396565b50506000908152601b602052604090206002015490565b60008260016000828152601b602052604090206003015460ff16600181111561256c57fe5b1461258c5760405160e560020a62461bcd02815260040161061e90614396565b6000805b6000868152601b60205260409020600201548110156125eb576000868152601b602052604090206002018054869190839081106125c957fe5b906000526020600020015414156125e357600191506125eb565b600101612590565b50949350505050565b60608360016000828152601b602052604090206003015460ff16600181111561261957fe5b146126395760405160e560020a62461bcd02815260040161061e90614396565b821515612655576000858152601b602052604090206002015492505b6060612667848663ffffffff61314516565b604051908082528060200260200182016040528015612690578160200160208202803883390190505b5090506000855b858110156126eb576000888152601b602052604090206002018054829081106126bc57fe5b906000526020600020015483838151811015156126d557fe5b6020908102909101015260019182019101612697565b50909695505050505050565b601a602090815260009182526040918290208054600180830180548651600293821615610100026000190190911692909204601f8101869004860283018601909652858252919492939092908301828280156127945780601f1061276957610100808354040283529160200191612794565b820191906000526020600020905b81548152906001019060200180831161277757829003601f168201915b50505060029093015491925050600160a060020a0381169060ff60a060020a9091041684565b336127c3613460565b600160a060020a038281166000908152601960209081526040918290208251608081019093528054938416835291929083019060a060020a900460ff16600381111561280b57fe5b600381111561281657fe5b8152602001600182018054600181600116156101000203166002900480601f0160208091040260200160405190810160405280929190818152602001828054600181600116156101000203166002900480156128b35780601f10612888576101008083540402835291602001916128b3565b820191906000526020600020905b81548152906001019060200180831161289657829003601f168201915b50505091835250506002919091015460209091015290506000816020015160038111156128dc57fe5b14156128fd5760405160e560020a62461bcd02815260040161061e906142c6565b600160a060020a0384166000818152601c60209081526040918290205482518083018a90526c0100000000000000000000000090940284840152605480850191909152825180850390910181526074909301909152815191012086811461296357600080fd5b6000878152601b602052604081206003015460ff16600181111561298357fe5b146129a35760405160e560020a62461bcd02815260040161061e906142e6565b604080516020808201899052825180830382018152918301909252805191012060006129de866129d284613307565b9063ffffffff61335816565b9050600160a060020a03808216908816146129f857600080fd5b6000898152601b60209081526040808320805473ffffffffffffffffffffffffffffffffffffffff1916600160a060020a038c16908117825560018083018e90556003909201805460ff191683179055601880548084019091557fb13d2d76d1f4b7be834882e410b3e3a8afaf69f83600ae24db354391d2378d2e018e90558452601c9092529182902080549091019055517f9d707d3c048dd1c209a28ea6367edf3d939a45cb46f86be5a728577e3e52273e90611c299085908b90614248565b601b60205260009081526040902080546001820154600390920154600160a060020a03909116919060ff1683565b6000600019815b6005811015612b5c578360038260058110612b0557fe5b600402015411801590612b4b57508160000b6000191480612b4b57506003600083900b60058110612b3257fe5b600402015460038260058110612b4457fe5b6004020154115b15612b54578091505b600101612aee565b50600019600082900b1415612b865760405160e560020a62461bcd02815260040161061e906143b6565b60000b92915050565b6000612b99613437565b60038560058110612ba657fe5b60040201608060405190810160405290816000820154815260200160018201805480602002602001604051908101604052809291908181526020018280548015612c1957602002820191906000526020600020905b8154600160a060020a03168152600190910190602001808311612bfb575b5050505050815260200160028201805480602002602001604051908101604052809291908181526020018280548015612c7157602002820191906000526020600020905b815481526020019060010190808311612c5d575b50505091835250506003919091015460209091015290506000805b826020015151811015612cfd57602083015180516000919083908110612cae57fe5b60209081029091010151600160a060020a031614612cf557612cf2836040015182815181101515612cdb57fe5b60209081029091010151839063ffffffff612e1e16565b91505b600101612c8c565b5060608083015183516040805160208082018d905281830194909452938401919091526080830188905260a0830184905260c08084018890528151808503909101815260e09093019052815191012060008282811515612d5957fe5b06905060005b846020015151811015612def57602085015180516000919083908110612d8157fe5b60209081029091010151600160a060020a031614612de7576040850151805182908110612daa57fe5b602090810290910101519091039060008213612de7576020850151805182908110612dd157fe5b9060200190602002015195505050505050612e16565b600101612d5f565b50602084015180516000198101908110612e0557fe5b906020019060200201519450505050505b949350505050565b600082820183811015612e3057600080fd5b9392505050565b6000868152601b6020526040902060020154801515612e8e57846000815181101515612e5f57fe5b6020908102909101015115612e895760405160e560020a62461bcd02815260040161061e90614336565b612efe565b6000878152601b60205260409020600201612eb082600163ffffffff61314516565b81548110612eba57fe5b9060005260206000200154856000815181101515612ed457fe5b6020908102909101015114612efe5760405160e560020a62461bcd02815260040161061e90614306565b60005b8651811015612fd6576001601a60008984815181101515612f1e57fe5b90602001906020020151815260200190815260200160002060020160149054906101000a900460ff166002811115612f5257fe5b14612f725760405160e560020a62461bcd02815260040161061e906142f6565b6000811115612fce578460018203815181101515612f8c57fe5b906020019060200201518682815181101515612fa457fe5b6020908102909101015114612fce5760405160e560020a62461bcd02815260040161061e90614366565b600101612f01565b5060005b865181101561313b576000888152601b60205260409020855160029091019086908390811061300557fe5b602090810290910181015182546001818101855560009485529290932090920191909155875161303a9163ffffffff61314516565b8114156130845782601a6000898481518110151561305457fe5b9060200190602002015181526020019081526020016000206001019080519060200190613082929190613489565b505b6002601a6000898481518110151561309857fe5b90602001906020020151815260200190815260200160002060020160146101000a81548160ff021916908360028111156130ce57fe5b0217905550613120601a600089848151811015156130e857fe5b60209081029091018101518252818101929092526040908101600090812054338252601990935220600201549063ffffffff612e1e16565b33600090815260196020526040902060020155600101612fda565b5050505050505050565b60008282111561315457600080fd5b50900390565b6000868152601b60205260409020600201548015156131995784156131945760405160e560020a62461bcd02815260040161061e90614336565b6131f3565b6000878152601b602052604090206002016131bb82600163ffffffff61314516565b815481106131c557fe5b9060005260206000200154851415156131f35760405160e560020a62461bcd02815260040161061e90614306565b6000878152601b6020908152604080832060020180546001810182559084528284200187905580518083018a81529181018990526060810188905286518a938a938a938a939192608090910191908401908083835b602083106132675780518252601f199092019160209182019101613248565b6001836020036101000a03801982511681845116808217855250505050505090500194505050505060405160208183030381529060405280519060200120905060006132bc848361335890919063ffffffff16565b33600090815260196020526040902054909150600160a060020a038083169116146132fc5760405160e560020a62461bcd02815260040161061e906143a6565b505050505050505050565b604080517f19457468657265756d205369676e6564204d6573736167653a0a333200000000602080830191909152603c8083019490945282518083039094018452605c909101909152815191012090565b600080600080845160411415156133755760009350505050610dc8565b50505060208201516040830151606084015160001a601b60ff8216101561339a57601b015b8060ff16601b141580156133b257508060ff16601c14155b156133c35760009350505050610dc8565b6040805160008152602080820180845289905260ff8416828401526060820186905260808201859052915160019260a0808401939192601f1981019281900390910190855afa15801561341a573d6000803e3d6000fd5b505050602060405103519350505050610dc8565b50505092915050565b608060405190810160405280600081526020016060815260200160608152602001600081525090565b604080516080810190915260008082526020820190815260200160608152602001600081525090565b828054600181600116156101000203166002900490600052602060002090601f016020900481019282601f106134ca57805160ff19168380011785556134f7565b828001600101855582156134f7579182015b828111156134f75782518255916020019190600101906134dc565b50613503929150613530565b5090565b81548183558181111561352b5760008381526020902061352b918101908301613530565b505050565b611c9a91905b808211156135035760008155600101613536565b6000612e30823561455f565b6000601f8201831361356757600080fd5b813561357a613575826144f6565b6144cf565b9150818183526020840193506020810190508385602084028201111561359f57600080fd5b60005b838110156135cb57816135b58882613651565b84525060209283019291909101906001016135a2565b5050505092915050565b6000601f820183136135e657600080fd5b81356135f4613575826144f6565b9150818183526020840193506020810190508385602084028201111561361957600080fd5b60005b838110156135cb578161362f8882613651565b845250602092830192919091019060010161361c565b6000612e30825161456a565b6000612e308235611c9a565b6000601f8201831361366e57600080fd5b813561367c61357582614517565b9150808252602083016020830185838301111561369857600080fd5b61342e8382846145d2565b6000612e308251611c9a565b6000602082840312156136c157600080fd5b6000612e16848461354a565b600080604083850312156136e057600080fd5b60006136ec858561354a565b925050602083013567ffffffffffffffff81111561370957600080fd5b6137158582860161365d565b9150509250929050565b6000806040838503121561373257600080fd5b600061373e858561354a565b925050602061371585828601613651565b6000806040838503121561376257600080fd5b823567ffffffffffffffff81111561377957600080fd5b61378585828601613556565b925050602083013567ffffffffffffffff8111156137a257600080fd5b613715858286016135d5565b6000602082840312156137c057600080fd5b6000612e168484613645565b6000602082840312156137de57600080fd5b6000612e168484613651565b60008060008060008060c0878903121561380357600080fd5b600061380f8989613651565b965050602087013567ffffffffffffffff81111561382c57600080fd5b61383889828a01613556565b955050604087013567ffffffffffffffff81111561385557600080fd5b61386189828a01613556565b945050606087013567ffffffffffffffff81111561387e57600080fd5b61388a89828a01613556565b935050608087013567ffffffffffffffff8111156138a757600080fd5b6138b389828a0161365d565b92505060a087013567ffffffffffffffff8111156138d057600080fd5b6138dc89828a0161365d565b9150509295509295509295565b600080604083850312156138fc57600080fd5b600061373e8585613651565b6000806000806080858703121561391e57600080fd5b600061392a8787613651565b945050602061393b87828801613651565b935050604061394c8782880161354a565b925050606085013567ffffffffffffffff81111561396957600080fd5b6139758782880161365d565b91505092959194509250565b60008060008060008060c0878903121561399a57600080fd5b60006139a68989613651565b96505060206139b789828a01613651565b95505060406139c889828a01613651565b945050606061388a89828a01613651565b6000806000606084860312156139ee57600080fd5b60006139fa8686613651565b9350506020613a0b86828701613651565b9250506040613a1c86828701613651565b9150509250925092565b600060208284031215613a3857600080fd5b6000612e1684846136a3565b60008060408385031215613a5757600080fd5b60006136ec8585613651565b613a6c8161459f565b82525050565b613a6c8161455f565b6000613a8682614551565b808452602084019350613a988361453f565b60005b82811015613ac857613aae868351613a72565b613ab78261453f565b602096909601959150600101613a9b565b5093949350505050565b6000613add82614555565b808452602084019350613aef83614545565b60005b82811015613ac857613b05868354613a72565b613b0e82614559565b602096909601959150600101613af2565b6000613b2a82614551565b808452602084019350613b3c8361453f565b60005b82811015613ac857613b52868351613c0f565b613b5b8261453f565b602096909601959150600101613b3f565b6000613b7782614551565b808452602084019350613b898361453f565b60005b82811015613ac857613b9f868351613c0f565b613ba88261453f565b602096909601959150600101613b8c565b6000613bc482614555565b808452602084019350613bd683614545565b60005b82811015613ac857613bec868354613c0f565b613bf582614559565b602096909601959150600101613bd9565b613a6c8161456a565b613a6c81611c9a565b6000613c2382614551565b808452613c378160208601602086016145de565b613c408161460e565b9093016020019392505050565b613a6c816145a6565b613a6c816145b1565b613a6c816145bc565b613a6c816145c7565b601481527f556e7265676973746572656420776f726b65722e000000000000000000000000602082015260400190565b602681527f4e6f7420656e6f75676820746f6b656e7320616c6c6f77656420666f7220747260208201527f616e736665720000000000000000000000000000000000000000000000000000604082015260600190565b602181527f53656372657420636f6e747261637420616c7265616479206465706c6f79656460208201527f2e00000000000000000000000000000000000000000000000000000000000000604082015260600190565b601381527f496e76616c6964207461736b2073746174757300000000000000000000000000602082015260400190565b601e81527f496e76616c696420696e7075742073746174652064656c746120686173680000602082015260400190565b601281527f5472616e73666572206e6f742076616c69640000000000000000000000000000602082015260400190565b601581527f576f726b6572206e6f74206c6f6767656420696e2e0000000000000000000000602082015260400190565b602e81527f496e76616c696420696e7075742073746174652064656c74612068617368206660208201527f6f7220656d707479207374617465000000000000000000000000000000000000604082015260600190565b601481527f416c6c6f77616e6365206e6f7420656e6f756768000000000000000000000000602082015260400190565b601581527f576f726b6572206e6f7420726567697374657265640000000000000000000000602082015260400190565b602381527f496e76616c69642073746174652064656c746120686173686573206f7264657260208201527f696e670000000000000000000000000000000000000000000000000000000000604082015260600190565b602681527f4f6e6c7920746865205072696e636970616c2063616e2075706461746520746860208201527f6520736565640000000000000000000000000000000000000000000000000000604082015260600190565b601381527f5461736b20616c72656164792065786973742e00000000000000000000000000602082015260400190565b601d81527f53656372657420636f6e7472616374206e6f74206465706c6f7965642e000000602082015260400190565b601281527f496e76616c6964207369676e61747572652e0000000000000000000000000000602082015260400190565b603681527f4e6f20776f726b65727320706172616d657465727320656e74727920666f722060208201527f73706563696669656420626c6f636b206e756d62657200000000000000000000604082015260600190565b60208101610dc88284613a72565b604081016140718285613a63565b612e306020830184613a72565b6060810161408c8286613a63565b6140996020830185613a72565b612e166040830184613c0f565b604081016140718285613a72565b6060810161408c8286613a72565b606081016140d08286613a72565b6140dd6020830185613c0f565b612e166040830184613c56565b604081016140f88285613a72565b8181036020830152612e168184613c18565b608081016141188287613a72565b6141256020830186613c68565b81810360408301526141378185613c18565b90506141466060830184613c0f565b95945050505050565b6040810161415d8285613a72565b612e306020830184613c0f565b60208082528101612e308184613a7b565b60208082528101612e308184613b1f565b60a0808252810161419d8188613b1f565b905081810360208301526141b18187613b1f565b905081810360408301526141c58186613b1f565b905081810360608301526141d98185613c18565b905081810360808301526141ed8184613c18565b979650505050505050565b606080825281016142098186613b1f565b9050818103602083015261421d8185613b6c565b9050612e166040830184613a63565b60208101610dc88284613c06565b60208101610dc88284613c0f565b6040810161415d8285613c0f565b60a081016142648288613c0f565b6142716020830187613c0f565b61427e6040830186613c0f565b81810360608301526141d98185613c18565b6060810161429e8286613c0f565b6142ab6020830185613c0f565b612e166040830184613a63565b60208101610dc88284613c4d565b60208082528101610dc881613c71565b60208082528101610dc881613ca1565b60208082528101610dc881613cf7565b60208082528101610dc881613d4d565b60208082528101610dc881613d7d565b60208082528101610dc881613dad565b60208082528101610dc881613ddd565b60208082528101610dc881613e0d565b60208082528101610dc881613e63565b60208082528101610dc881613e93565b60208082528101610dc881613ec3565b60208082528101610dc881613f19565b60208082528101610dc881613f6f565b60208082528101610dc881613f9f565b60208082528101610dc881613fcf565b60208082528101610dc881613fff565b608081016143d48287613c0f565b81810360208301526143e68186613c18565b90506143f56040830185613a72565b6141466060830184613c5f565b608081016144108287613c0f565b61441d6020830186613c0f565b818103604083015261442f8185613a7b565b905081810360608301526144438184613a7b565b9695505050505050565b6080810161445b8287613c0f565b6144686020830186613c0f565b818103604083015261447a8185613a7b565b905081810360608301526144438184613b6c565b6080810161449c8287613c0f565b6144a96020830186613c0f565b81810360408301526144bb8185613ad2565b905081810360608301526144438184613bb9565b60405181810167ffffffffffffffff811182821017156144ee57600080fd5b604052919050565b600067ffffffffffffffff82111561450d57600080fd5b5060209081020190565b600067ffffffffffffffff82111561452e57600080fd5b506020601f91909101601f19160190565b60200190565b60009081526020902090565b5190565b5490565b60010190565b6000610dc882614593565b151590565b60006002821061350357fe5b60006003821061350357fe5b60006004821061350357fe5b600160a060020a031690565b6000610dc8825b6000610dc88261455f565b6000610dc88261456f565b6000610dc88261457b565b6000610dc882614587565b82818337506000910152565b60005b838110156145f95781810151838201526020016145e1565b83811115614608576000848401525b50505050565b601f01601f19169056fea265627a7a72305820ef748c8dc4a83c24487b8cdf0e3cf231b4564f1cf967e0fc926a0e9b3b8e04386c6578706572696d656e74616cf50037",
  "source": "pragma solidity ^0.5.0;\npragma experimental ABIEncoderV2;\n\nimport \"openzeppelin-solidity/contracts/math/SafeMath.sol\";\nimport \"openzeppelin-solidity/contracts/cryptography/ECDSA.sol\";\n\ncontract ERC20 {\n    function allowance(address owner, address spender) public view returns (uint256);\n\n    function transferFrom(address from, address to, uint256 value) public returns (bool);\n\n    function approve(address spender, uint256 value) public returns (bool);\n\n    function totalSupply() public view returns (uint256);\n\n    function balanceOf(address who) public view returns (uint256);\n\n    function transfer(address to, uint256 value) public returns (bool);\n\n    event Transfer(address indexed from, address indexed to, uint256 value);\n    event Approval(address indexed owner, address indexed spender, uint256 value);\n}\n\ncontract Enigma {\n    using SafeMath for uint256;\n    using ECDSA for bytes32;\n\n    // The interface of the deployed ENG ERC20 token contract\n    ERC20 public engToken;\n\n    uint public epochSize = 100;\n\n    struct TaskRecord {\n        uint fee;\n        bytes proof; // Signature of (taskId, inStateDeltaHash, outStateDeltaHash, ethCall)\n        address sender;\n        TaskStatus status;\n    }\n    enum TaskStatus {RecordUndefined, RecordCreated, ReceiptVerified}\n\n    /**\n    * The signer address of the principal node\n    * This must be set when deploying the contract and remains immutable\n    * Since the signer address is derived from the public key of an\n    * SGX enclave, this ensures that the principal node cannot be tempered\n    * with or replaced.\n    */\n    address principal;\n\n    // The data representation of a worker (or node)\n    struct Worker {\n        address signer;\n        WorkerStatus status; // Uninitialized: 0; Active: 1; Inactive: 2\n        bytes report; // Decided to store this as one  RLP encoded attribute for easier external storage in the future\n        uint256 balance;\n    }\n\n    enum WorkerStatus {Unregistered, Registered, LoggedIn, LoggedOut}\n\n    /**\n    * The data representation of the worker parameters used as input for\n    * the worker selection algorithm\n    */\n    struct WorkersParams {\n        uint firstBlockNumber;\n        address[] workers;\n        uint[] balances;\n        uint seed;\n    }\n\n    struct SecretContract {\n        address owner;\n        bytes32 codeHash;\n        bytes32[] stateDeltaHashes;\n        SecretContractStatus status;\n        // TODO: consider keeping an index of taskIds\n    }\n    // TODO: do we want to have a contract lifecycle?\n    enum SecretContractStatus {Undefined, Deployed}\n\n    /**\n    * The last 5 worker parameters\n    * We keep a collection of worker parameters to account for latency issues.\n    * A computation task might be conceivably given out at a certain block number\n    * but executed at a later block in a different epoch. It follows that\n    * the contract must have access to the worker parameters effective when giving\n    * out the task, otherwise the selected worker would not match. We calculated\n    * that keeping the last 5 items should be more than enough to account for\n    * all latent tasks. Tasks results will be rejected past this limit.\n    */\n    WorkersParams[5] workersParams;\n\n    // An address-based index of all registered worker\n    address[] public workerAddresses;\n    // An address-based index of all secret contracts\n    bytes32[] public scAddresses;\n\n    // A registry of all registered workers with their attributes\n    mapping(address => Worker) public workers;\n    mapping(bytes32 => TaskRecord) public tasks;\n    mapping(bytes32 => SecretContract) public contracts;\n\n    // A mapping of number of secret contract deployments for each address\n    mapping(address => uint) public userSCDeployments;\n\n    // TODO: do we keep tasks forever? if not, when do we delete them?\n    uint stakingThreshold;\n    uint public workerGroupSize;\n\n    // The events emitted by the contract\n    event Registered(address custodian, address signer);\n    event ValidatedSig(bytes sig, bytes32 hash, address workerAddr);\n    event WorkersParameterized(uint seed, uint256 blockNumber, address[] workers, uint[] balances);\n    event TaskRecordCreated(bytes32 taskId, uint fee, address sender);\n    event TaskRecordsCreated(bytes32[] taskIds, uint[] fees, address sender);\n    event ReceiptVerified(bytes32 taskId, bytes32 inStateDeltaHash, bytes32 outStateDeltaHash, bytes ethCall, bytes sig);\n    event ReceiptsVerified(bytes32[] taskIds, bytes32[] inStateDeltaHashes, bytes32[] outStateDeltaHashes, bytes ethCall, bytes sig);\n    event DepositSuccessful(address from, uint value);\n    event SecretContractDeployed(bytes32 scAddr, bytes32 codeHash);\n\n    constructor(address _tokenAddress, address _principal) public {\n        engToken = ERC20(_tokenAddress);\n        principal = _principal;\n        stakingThreshold = 1;\n        workerGroupSize = 5;\n    }\n\n    //TODO: break down these methods into services for upgradability\n\n    /**\n    * Checks if the custodian wallet is registered as a worker\n    *\n    * @param _user The custodian address of the worker\n    */\n    modifier workerRegistered(address _user) {\n        Worker memory worker = workers[_user];\n        require(worker.status != WorkerStatus.Unregistered, \"Unregistered worker.\");\n        _;\n    }\n\n    /**\n    * Checks if the custodian wallet is logged in as a worker\n    *\n    * @param _user The custodian address of the worker\n    */\n    modifier workerLoggedIn(address _user) {\n        Worker memory worker = workers[_user];\n        require(worker.status == WorkerStatus.LoggedIn, \"Worker not logged in.\");\n        _;\n    }\n\n    modifier contractDeployed(bytes32 _scAddr) {\n        require(contracts[_scAddr].status == SecretContractStatus.Deployed, \"Secret contract not deployed.\");\n        _;\n    }\n\n    /**\n    * Registers a new worker of change the signer parameters of an existing\n    * worker. This should be called by every worker (and the principal)\n    * node in order to receive tasks.\n    *\n    * @param _signer The signer address, derived from the enclave public key\n    * @param _report The RLP encoded report returned by the IAS\n    */\n    function register(address _signer, bytes memory _report)\n    public\n    {\n        // TODO: consider exit if both signer and custodian as matching\n        // If the custodian is not already register, we add an index entry\n        if (workers[msg.sender].signer == address(0)) {\n            workerAddresses.push(msg.sender);\n        }\n\n        // Set the custodian attributes\n        workers[msg.sender].signer = _signer;\n        workers[msg.sender].balance = 0;\n        workers[msg.sender].report = _report;\n        workers[msg.sender].status = WorkerStatus.Registered;\n\n        emit Registered(msg.sender, _signer);\n    }\n\n    function deposit(address _custodian, uint _amount)\n    public\n    workerRegistered(_custodian)\n    {\n        require(engToken.allowance(_custodian, address(this)) >= _amount, \"Not enough tokens allowed for transfer\");\n        require(engToken.transferFrom(_custodian, address(this), _amount));\n\n        workers[_custodian].balance = workers[_custodian].balance.add(_amount);\n\n        emit DepositSuccessful(_custodian, _amount);\n    }\n\n    function login() public workerRegistered(msg.sender) {\n        workers[msg.sender].status = WorkerStatus.LoggedIn;\n    }\n\n    function logout() public workerLoggedIn(msg.sender) {\n        workers[msg.sender].status = WorkerStatus.LoggedOut;\n    }\n\n    // TODO: should the scAddr be computed on-chain from the codeHash + some randomness\n    // TODO: should any user deploy a secret contract or only a trusted enclave?\n    function deploySecretContract(bytes32 _scAddr, bytes32 _codeHash, address _owner, bytes memory _sig)\n    public\n    workerRegistered(msg.sender)\n    {\n        bytes32 scAddr = keccak256(abi.encodePacked(_codeHash, _owner, userSCDeployments[_owner]));\n        require(scAddr == _scAddr);\n        require(contracts[_scAddr].status == SecretContractStatus.Undefined, \"Secret contract already deployed.\");\n        bytes32 msgHash = keccak256(abi.encodePacked(_codeHash));\n        address verifyAddr = msgHash.toEthSignedMessageHash().recover(_sig);\n        require(verifyAddr == _owner);\n\n        //TODO: is this too naive?\n        contracts[_scAddr].owner = _owner;\n        contracts[_scAddr].codeHash = _codeHash;\n        contracts[_scAddr].status = SecretContractStatus.Deployed;\n        scAddresses.push(_scAddr);\n        userSCDeployments[_owner]++;\n        emit SecretContractDeployed(scAddr, _codeHash);\n    }\n\n    function isDeployed(bytes32 _scAddr)\n    public\n    view\n    returns (bool)\n    {\n        if (contracts[_scAddr].status == SecretContractStatus.Deployed) {\n            return true;\n        } else {\n            return false;\n        }\n    }\n\n    function getCodeHash(bytes32 _scAddr)\n    public\n    view\n    contractDeployed(_scAddr)\n    returns (bytes32)\n    {\n        return contracts[_scAddr].codeHash;\n    }\n\n    function countSecretContracts()\n    public\n    view\n    returns (uint)\n    {\n        return scAddresses.length;\n    }\n\n    /**\n    * Selects address from _start up to, but not including, the _stop number\n    **/\n    function getSecretContractAddresses(uint _start, uint _stop)\n    public\n    view\n    returns (bytes32[] memory)\n    {\n        if (_stop == 0) {\n            _stop = scAddresses.length;\n        }\n        bytes32[] memory addresses = new bytes32[](_stop.sub(_start));\n        uint pos = 0;\n        for (uint i = _start; i < _stop; i++) {\n            addresses[pos] = scAddresses[i];\n            pos++;\n        }\n        return addresses;\n    }\n\n    function countStateDeltas(bytes32 _scAddr)\n    public\n    view\n    contractDeployed(_scAddr)\n    returns (uint)\n    {\n        return contracts[_scAddr].stateDeltaHashes.length;\n    }\n\n    function getStateDeltaHash(bytes32 _scAddr, uint _index)\n    public\n    view\n    contractDeployed(_scAddr)\n    returns (bytes32)\n    {\n        return contracts[_scAddr].stateDeltaHashes[_index];\n    }\n\n    /**\n    * Selects state deltas from _start up to, but not including, the _stop number\n    **/\n    function getStateDeltaHashes(bytes32 _scAddr, uint _start, uint _stop)\n    public\n    view\n    contractDeployed(_scAddr)\n    returns (bytes32[] memory)\n    {\n        if (_stop == 0) {\n            _stop = contracts[_scAddr].stateDeltaHashes.length;\n        }\n        bytes32[] memory deltas = new bytes32[](_stop.sub(_start));\n        uint pos = 0;\n        for (uint i = _start; i < _stop; i++) {\n            deltas[pos] = contracts[_scAddr].stateDeltaHashes[i];\n            pos++;\n        }\n        return deltas;\n    }\n\n    function isValidDeltaHash(bytes32 _scAddr, bytes32 _stateDeltaHash)\n    public\n    view\n    contractDeployed(_scAddr)\n    returns (bool)\n    {\n        bool valid = false;\n        for (uint i = 0; i < contracts[_scAddr].stateDeltaHashes.length; i++) {\n            if (contracts[_scAddr].stateDeltaHashes[i] == _stateDeltaHash) {\n                valid = true;\n                break;\n            }\n        }\n        return valid;\n    }\n\n    /**\n    * Store task record\n    *\n    */\n    function createTaskRecord(\n        bytes32 _taskId,\n        uint _fee\n    )\n    public\n    {\n        require(tasks[_taskId].sender == address(0), \"Task already exist.\");\n        require(engToken.allowance(msg.sender, address(this)) >= _fee, \"Allowance not enough\");\n        require(engToken.transferFrom(msg.sender, address(this), _fee), \"Transfer not valid\");\n\n        tasks[_taskId].fee = _fee;\n        tasks[_taskId].sender = msg.sender;\n        tasks[_taskId].status = TaskStatus.RecordCreated;\n\n        emit TaskRecordCreated(_taskId, _fee, msg.sender);\n    }\n\n    function createTaskRecords(\n        bytes32[] memory _taskIds,\n        uint[] memory _fees\n    )\n    public\n    {\n        for (uint i = 0; i < _taskIds.length; i++) {\n            require(tasks[_taskIds[i]].sender == address(0), \"Task already exist.\");\n            require(engToken.allowance(msg.sender, address(this)) >= _fees[i], \"Allowance not enough\");\n            require(engToken.transferFrom(msg.sender, address(this), _fees[i]), \"Transfer not valid\");\n\n            tasks[_taskIds[i]].fee = _fees[i];\n            tasks[_taskIds[i]].sender = msg.sender;\n            tasks[_taskIds[i]].status = TaskStatus.RecordCreated;\n        }\n        emit TaskRecordsCreated(_taskIds, _fees, msg.sender);\n    }\n\n    // Execute the encoded function in the specified contract\n    function executeCall(address _to, uint256 _value, bytes memory _data)\n    internal\n    returns (bool success)\n    {\n        assembly {\n            success := call(gas, _to, _value, add(_data, 0x20), mload(_data), 0, 0)\n        }\n    }\n\n    function verifyReceipt(\n        bytes32 _scAddr,\n        bytes32 _taskId,\n        bytes32 _inStateDeltaHash,\n        bytes32 _outStateDeltaHash,\n        bytes memory _ethCall,\n        bytes memory _sig\n    )\n    internal\n    {\n        uint index = contracts[_scAddr].stateDeltaHashes.length;\n        if (index == 0) {\n            require(_inStateDeltaHash == 0x0, 'Invalid input state delta hash for empty state');\n        } else {\n            require(_inStateDeltaHash == contracts[_scAddr].stateDeltaHashes[index.sub(1)], 'Invalid input state delta hash');\n        }\n        contracts[_scAddr].stateDeltaHashes.push(_outStateDeltaHash);\n\n        // TODO: execute the Ethereum calls\n\n        // Build a hash to validate that the I/Os are matching\n        bytes32 hash = keccak256(abi.encodePacked(_taskId, _inStateDeltaHash, _outStateDeltaHash, _ethCall));\n\n        // The worker address is not a real Ethereum wallet address but\n        // one generated from its signing key\n        address workerAddr = hash.recover(_sig);\n        require(workerAddr == workers[msg.sender].signer, \"Invalid signature.\");\n    }\n\n    /**\n    * Commit the computation task results on chain\n    */\n    function commitReceipt(\n        bytes32 _scAddr,\n        bytes32 _taskId,\n        bytes32 _inStateDeltaHash,\n        bytes32 _outStateDeltaHash,\n        bytes memory _ethCall,\n        bytes memory _sig\n    )\n    public\n    workerLoggedIn(msg.sender)\n    contractDeployed(_scAddr)\n    {\n        require(tasks[_taskId].status == TaskStatus.RecordCreated, 'Invalid task status');\n        verifyReceipt(_scAddr, _taskId, _inStateDeltaHash, _outStateDeltaHash, _ethCall, _sig);\n\n        tasks[_taskId].proof = _sig;\n        tasks[_taskId].status = TaskStatus.ReceiptVerified;\n        workers[msg.sender].balance = workers[msg.sender].balance.add(tasks[_taskId].fee);\n        emit ReceiptVerified(_taskId, _inStateDeltaHash, _outStateDeltaHash, _ethCall, _sig);\n    }\n\n    function verifyReceipts(\n        bytes32 _scAddr,\n        bytes32[] memory _taskIds,\n        bytes32[] memory _inStateDeltaHashes,\n        bytes32[] memory _outStateDeltaHashes,\n        bytes memory _ethCall,\n        bytes memory _sig\n    )\n    internal\n    {\n        // First, we verify the state delta hashes ordering\n        uint index = contracts[_scAddr].stateDeltaHashes.length;\n        if (index == 0) {\n            require(_inStateDeltaHashes[0] == 0x0, 'Invalid input state delta hash for empty state');\n        } else {\n            require(_inStateDeltaHashes[0] == contracts[_scAddr].stateDeltaHashes[index.sub(1)], 'Invalid input state delta hash');\n        }\n        for (uint i = 0; i < _taskIds.length; i++) {\n            require(tasks[_taskIds[i]].status == TaskStatus.RecordCreated, 'Invalid task status');\n            if (i > 0) {\n                require(_inStateDeltaHashes[i] == _outStateDeltaHashes[i - 1], 'Invalid state delta hashes ordering');\n            }\n        }\n        // TODO: verify signature\n        // Then, we store the outStateDeltaHashes\n        for (uint ic = 0; ic < _taskIds.length; ic++) {\n            contracts[_scAddr].stateDeltaHashes.push(_outStateDeltaHashes[ic]);\n            if (ic == _taskIds.length.sub(1)) {\n                tasks[_taskIds[ic]].proof = _sig;\n            }\n            tasks[_taskIds[ic]].status = TaskStatus.ReceiptVerified;\n            workers[msg.sender].balance = workers[msg.sender].balance.add(tasks[_taskIds[ic]].fee);\n        }\n        // TODO: execute the Ethereum calls\n    }\n\n    function commitReceipts(\n        bytes32 _scAddr,\n        bytes32[] memory _taskIds,\n        bytes32[] memory _inStateDeltaHashes,\n        bytes32[] memory _outStateDeltaHashes,\n        bytes memory _ethCall,\n        bytes memory _sig\n    )\n    public\n    workerLoggedIn(msg.sender)\n    contractDeployed(_scAddr)\n    {\n        verifyReceipts(_scAddr, _taskIds, _inStateDeltaHashes, _outStateDeltaHashes, _ethCall, _sig);\n        emit ReceiptsVerified(_taskIds, _inStateDeltaHashes, _outStateDeltaHashes, _ethCall, _sig);\n    }\n\n    // Verify the signature submitted while reparameterizing workers\n    function verifyParamsSig(uint256 _seed, bytes memory _sig)\n    internal\n    pure\n    returns (address)\n    {\n        bytes32 hash = keccak256(abi.encodePacked(_seed));\n        address signer = hash.recover(_sig);\n        return signer;\n    }\n\n    /**\n    * Reparameterizing workers with a new seed\n    * This should be called for each epoch by the Principal node\n    *\n    * @param _seed The random integer generated by the enclave\n    * @param _sig The random integer signed by the the principal node's enclave\n    */\n    function setWorkersParams(uint _seed, bytes memory _sig)\n    public\n    workerRegistered(msg.sender)\n    {\n        // Reparameterizing workers with a new seed\n        // This should be called for each epoch by the Principal node\n\n        // We assume that the Principal is always the first registered node\n        require(workers[msg.sender].signer == principal, \"Only the Principal can update the seed\");\n        // TODO: verify the principal sig\n\n        // Create a new workers parameters item for the specified seed.\n        // The workers parameters list is a sort of cache, it never grows beyond its limit.\n        // If the list is full, the new item will replace the item assigned to the lowest block number.\n        uint paramIndex = 0;\n        for (uint pi = 0; pi < workersParams.length; pi++) {\n            // Find an empty slot in the array, if full use the lowest block number\n            if (workersParams[pi].firstBlockNumber == 0) {\n                paramIndex = pi;\n                break;\n            } else if (workersParams[pi].firstBlockNumber < workersParams[paramIndex].firstBlockNumber) {\n                paramIndex = pi;\n            }\n        }\n        workersParams[paramIndex].firstBlockNumber = block.number;\n        workersParams[paramIndex].seed = _seed;\n\n        // Copy the current worker list\n        uint workerIndex = 0;\n        for (uint wi = 0; wi < workerAddresses.length; wi++) {\n            Worker memory worker = workers[workerAddresses[wi]];\n            if ((worker.balance >= stakingThreshold) && (worker.signer != principal) &&\n                (worker.status == WorkerStatus.LoggedIn)) {\n                workersParams[paramIndex].workers.length++;\n                workersParams[paramIndex].workers[workerIndex] = workerAddresses[wi];\n\n                workersParams[paramIndex].balances.length++;\n                workersParams[paramIndex].balances[workerIndex] = worker.balance;\n\n                workerIndex = workerIndex.add(1);\n            }\n        }\n        emit WorkersParameterized(_seed, block.number, workersParams[paramIndex].workers, workersParams[paramIndex].balances);\n    }\n\n    function getWorkerParamsIndex(uint _blockNumber)\n    internal\n    view\n    returns (uint)\n    {\n        // The workers parameters for a given block number\n        int8 index = - 1;\n        for (uint i = 0; i < workersParams.length; i++) {\n            if (workersParams[i].firstBlockNumber <= _blockNumber && (index == - 1 || workersParams[i].firstBlockNumber > workersParams[uint(index)].firstBlockNumber)) {\n                index = int8(i);\n            }\n        }\n        require(index != - 1, \"No workers parameters entry for specified block number\");\n        return uint(index);\n    }\n\n    function getWorkerParams(uint _blockNumber)\n    public\n    view\n    returns (uint, uint, address[] memory, uint[] memory) {\n        uint index = getWorkerParamsIndex(_blockNumber);\n        WorkersParams memory params = workersParams[index];\n        return (params.firstBlockNumber, params.seed, params.workers, params.balances);\n    }\n\n    function compileTokens(uint _blockNumber, uint _paramIndex, bytes32 _scAddr, uint _nonce)\n    internal\n    view\n    returns (address)\n    {\n        WorkersParams memory params = workersParams[_paramIndex];\n        uint tokenCpt = 0;\n        for (uint i = 0; i < params.workers.length; i++) {\n            if (params.workers[i] != address(0)) {\n                tokenCpt = tokenCpt.add(params.balances[i]);\n            }\n        }\n        bytes32 randHash = keccak256(abi.encodePacked(_blockNumber, params.seed, params.firstBlockNumber, _scAddr,\n            tokenCpt, _nonce));\n        int randVal = int256(uint256(randHash) % tokenCpt);\n        for (uint k = 0; k < params.workers.length; k++) {\n            if (params.workers[k] != address(0)) {\n                randVal -= int256(params.balances[k]);\n                if (randVal <= 0) {\n                    return params.workers[k];\n                }\n            }\n        }\n        return params.workers[params.workers.length - 1];\n    }\n\n    function getWorkerGroup(uint _blockNumber, bytes32 _scAddr)\n    public\n    view\n    returns (address[] memory)\n    {\n        // Compile a list of selected workers for the block number and\n        // secret contract.\n        uint paramIndex = getWorkerParamsIndex(_blockNumber);\n        WorkersParams memory params = workersParams[paramIndex];\n\n        address[] memory selectedWorkers = new address[](workerGroupSize);\n        uint nonce = 0;\n        for (uint it = 0; it < workerGroupSize; it++) {\n            do {\n                address worker = compileTokens(_blockNumber, paramIndex, _scAddr, nonce);\n                bool dup = false;\n                for (uint id = 0; id < selectedWorkers.length; id++) {\n                    if (worker == selectedWorkers[id]) {\n                        dup = true;\n                        break;\n                    }\n                }\n                if (dup == false) {\n                    selectedWorkers[it] = worker;\n                }\n                nonce++;\n            }\n            while (selectedWorkers[it] == address(0));\n        }\n        return selectedWorkers;\n    }\n\n    /**\n    * The worker parameters corresponding to the specified block number\n    *\n    * @param _blockNumber The reference block number\n    */\n    function getWorkersParams(uint _blockNumber)\n    public\n    view\n    returns (uint, uint, address[] memory, address[] memory)\n    {\n        // TODO: finalize implementation\n        uint firstBlockNumber = 0;\n        uint seed = 0;\n        address[] memory activeWorkers;\n        address[] memory activeContracts;\n        return (firstBlockNumber, seed, activeWorkers, activeContracts);\n    }\n\n    /**\n    * The RLP encoded report returned by the IAS server\n    *\n    * @param _custodian The worker's custodian address\n    */\n    function getReport(address _custodian)\n    public\n    view\n    workerRegistered(_custodian)\n    returns (address, bytes memory)\n    {\n        // The RLP encoded report and signer's address for the specified worker\n        require(workers[_custodian].signer != address(0), \"Worker not registered\");\n        return (workers[_custodian].signer, workers[_custodian].report);\n    }\n}\n",
  "sourcePath": "/Users/adityapalepu/Startups/enigma/enigma-contract-internal/contracts/Enigma.sol",
  "compiler": {
    "name": "solc",
    "version": "0.5.0+commit.1d4f565a.Emscripten.clang"
  },
  "schemaVersion": "3.0.0",
  "updatedAt": "2018-12-28T19:21:40.889Z",
  "devdoc": {
    "methods": {
      "getReport(address)": {
        "params": {
          "_custodian": "The worker's custodian address"
        }
      },
      "getWorkersParams(uint256)": {
        "params": {
          "_blockNumber": "The reference block number"
        }
      },
      "register(address,bytes)": {
        "params": {
          "_report": "The RLP encoded report returned by the IAS",
          "_signer": "The signer address, derived from the enclave public key"
        }
      },
      "setWorkersParams(uint256,bytes)": {
        "params": {
          "_seed": "The random integer generated by the enclave",
          "_sig": "The random integer signed by the the principal node's enclave"
        }
      }
    }
  },
  "userdoc": {
    "methods": {
      "commitReceipt(bytes32,bytes32,bytes32,bytes32,bytes,bytes)": {
        "notice": "Commit the computation task results on chain"
      },
      "createTaskRecord(bytes32,uint256)": {
        "notice": "Store task record    "
      },
      "getReport(address)": {
        "notice": "The RLP encoded report returned by the IAS server"
      },
      "getSecretContractAddresses(uint256,uint256)": {
        "notice": "Selects address from _start up to, but not including, the _stop number*"
      },
      "getStateDeltaHashes(bytes32,uint256,uint256)": {
        "notice": "Selects state deltas from _start up to, but not including, the _stop number*"
      },
      "getWorkersParams(uint256)": {
        "notice": "The worker parameters corresponding to the specified block number"
      },
      "register(address,bytes)": {
        "notice": "Registers a new worker of change the signer parameters of an existing worker. This should be called by every worker (and the principal) node in order to receive tasks."
      },
      "setWorkersParams(uint256,bytes)": {
        "notice": "Reparameterizing workers with a new seed This should be called for each epoch by the Principal node"
      }
    }
  }
}