{
  "contractName": "Enigma",
  "abi": [
    {
      "constant": true,
      "inputs": [
        {
          "name": "",
          "type": "uint256"
        }
      ],
      "name": "workerAddresses",
      "outputs": [
        {
          "name": "",
          "type": "address"
        }
      ],
      "payable": false,
      "stateMutability": "view",
      "type": "function",
      "signature": "0x0a318da0"
    },
    {
      "constant": true,
      "inputs": [
        {
          "name": "",
          "type": "address"
        }
      ],
      "name": "userSCDeployments",
      "outputs": [
        {
          "name": "",
          "type": "uint256"
        }
      ],
      "payable": false,
      "stateMutability": "view",
      "type": "function",
      "signature": "0x0f8c466c"
    },
    {
      "constant": true,
      "inputs": [
        {
          "name": "",
          "type": "address"
        }
      ],
      "name": "workers",
      "outputs": [
        {
          "name": "signer",
          "type": "address"
        },
        {
          "name": "status",
          "type": "uint8"
        },
        {
          "name": "report",
          "type": "bytes"
        },
        {
          "name": "balance",
          "type": "uint256"
        }
      ],
      "payable": false,
      "stateMutability": "view",
      "type": "function",
      "signature": "0x4048a257"
    },
    {
      "constant": true,
      "inputs": [],
      "name": "epochSize",
      "outputs": [
        {
          "name": "",
          "type": "uint256"
        }
      ],
      "payable": false,
      "stateMutability": "view",
      "type": "function",
      "signature": "0x572d356e"
    },
    {
      "constant": true,
      "inputs": [
        {
          "name": "",
          "type": "uint256"
        }
      ],
      "name": "scAddresses",
      "outputs": [
        {
          "name": "",
          "type": "bytes32"
        }
      ],
      "payable": false,
      "stateMutability": "view",
      "type": "function",
      "signature": "0x5f0dd5bb"
    },
    {
      "constant": true,
      "inputs": [],
      "name": "engToken",
      "outputs": [
        {
          "name": "",
          "type": "address"
        }
      ],
      "payable": false,
      "stateMutability": "view",
      "type": "function",
      "signature": "0x9489ad40"
    },
    {
      "constant": true,
      "inputs": [],
      "name": "workerGroupSize",
      "outputs": [
        {
          "name": "",
          "type": "uint256"
        }
      ],
      "payable": false,
      "stateMutability": "view",
      "type": "function",
      "signature": "0xa3edd784"
    },
    {
      "constant": true,
      "inputs": [
        {
          "name": "",
          "type": "bytes32"
        }
      ],
      "name": "tasks",
      "outputs": [
        {
          "name": "fee",
          "type": "uint256"
        },
        {
          "name": "proof",
          "type": "bytes"
        },
        {
          "name": "sender",
          "type": "address"
        },
        {
          "name": "status",
          "type": "uint8"
        }
      ],
      "payable": false,
      "stateMutability": "view",
      "type": "function",
      "signature": "0xe579f500"
    },
    {
      "constant": true,
      "inputs": [
        {
          "name": "",
          "type": "bytes32"
        }
      ],
      "name": "contracts",
      "outputs": [
        {
          "name": "owner",
          "type": "address"
        },
        {
          "name": "codeHash",
          "type": "bytes32"
        },
        {
          "name": "status",
          "type": "uint8"
        }
      ],
      "payable": false,
      "stateMutability": "view",
      "type": "function",
      "signature": "0xec56a373"
    },
    {
      "inputs": [
        {
          "name": "_tokenAddress",
          "type": "address"
        },
        {
          "name": "_principal",
          "type": "address"
        }
      ],
      "payable": false,
      "stateMutability": "nonpayable",
      "type": "constructor",
      "signature": "constructor"
    },
    {
      "anonymous": false,
      "inputs": [
        {
          "indexed": false,
          "name": "custodian",
          "type": "address"
        },
        {
          "indexed": false,
          "name": "signer",
          "type": "address"
        }
      ],
      "name": "Registered",
      "type": "event",
      "signature": "0x0a31ee9d46a828884b81003c8498156ea6aa15b9b54bdd0ef0b533d9eba57e55"
    },
    {
      "anonymous": false,
      "inputs": [
        {
          "indexed": false,
          "name": "sig",
          "type": "bytes"
        },
        {
          "indexed": false,
          "name": "hash",
          "type": "bytes32"
        },
        {
          "indexed": false,
          "name": "workerAddr",
          "type": "address"
        }
      ],
      "name": "ValidatedSig",
      "type": "event",
      "signature": "0xe36691ca52ee024e298e5c0ff07191b87f0ac571c01a7631db2d70d573d955cb"
    },
    {
      "anonymous": false,
      "inputs": [
        {
          "indexed": false,
          "name": "seed",
          "type": "uint256"
        },
        {
          "indexed": false,
          "name": "blockNumber",
          "type": "uint256"
        },
        {
          "indexed": false,
          "name": "workers",
          "type": "address[]"
        },
        {
          "indexed": false,
          "name": "balances",
          "type": "uint256[]"
        }
      ],
      "name": "WorkersParameterized",
      "type": "event",
      "signature": "0x7047379c64ccafb62f6625e6b2d8eb6e1b0e091fac56a11ab5e2fd896e4db1d0"
    },
    {
      "anonymous": false,
      "inputs": [
        {
          "indexed": false,
          "name": "taskId",
          "type": "bytes32"
        },
        {
          "indexed": false,
          "name": "fee",
          "type": "uint256"
        },
        {
          "indexed": false,
          "name": "sender",
          "type": "address"
        }
      ],
      "name": "TaskRecordCreated",
      "type": "event",
      "signature": "0xf1c0c18d5573c419035509d5b8bf3f97ce7b92cca68bccbde847516f66d6fe05"
    },
    {
      "anonymous": false,
      "inputs": [
        {
          "indexed": false,
          "name": "taskIds",
          "type": "bytes32[]"
        },
        {
          "indexed": false,
          "name": "fees",
          "type": "uint256[]"
        },
        {
          "indexed": false,
          "name": "sender",
          "type": "address"
        }
      ],
      "name": "TaskRecordsCreated",
      "type": "event",
      "signature": "0xacd4eaf0bf2790219699c0a2d47f13405b81c59f5ff0bb951a71a29c94a6d774"
    },
    {
      "anonymous": false,
      "inputs": [
        {
          "indexed": false,
          "name": "taskId",
          "type": "bytes32"
        },
        {
          "indexed": false,
          "name": "inStateDeltaHash",
          "type": "bytes32"
        },
        {
          "indexed": false,
          "name": "outStateDeltaHash",
          "type": "bytes32"
        },
        {
          "indexed": false,
          "name": "ethCall",
          "type": "bytes"
        },
        {
          "indexed": false,
          "name": "sig",
          "type": "bytes"
        }
      ],
      "name": "ReceiptVerified",
      "type": "event",
      "signature": "0x665329bb9a4e1062edc215d9c5ab57fa54c4c88e3dfbcc68e0cd92fdd010fa6e"
    },
    {
      "anonymous": false,
      "inputs": [
        {
          "indexed": false,
          "name": "taskIds",
          "type": "bytes32[]"
        },
        {
          "indexed": false,
          "name": "inStateDeltaHashes",
          "type": "bytes32[]"
        },
        {
          "indexed": false,
          "name": "outStateDeltaHashes",
          "type": "bytes32[]"
        },
        {
          "indexed": false,
          "name": "ethCall",
          "type": "bytes"
        },
        {
          "indexed": false,
          "name": "sig",
          "type": "bytes"
        }
      ],
      "name": "ReceiptsVerified",
      "type": "event",
      "signature": "0x49f3b610d2b607252a8901e3c134022c7a6330e5f6525f0ed84dd4a127478958"
    },
    {
      "anonymous": false,
      "inputs": [
        {
          "indexed": false,
          "name": "from",
          "type": "address"
        },
        {
          "indexed": false,
          "name": "value",
          "type": "uint256"
        }
      ],
      "name": "DepositSuccessful",
      "type": "event",
      "signature": "0xb3ef81558ed1a50072a492984535a009da8b129c749500b387f1e5f4886bdde5"
    },
    {
      "anonymous": false,
      "inputs": [
        {
          "indexed": false,
          "name": "scAddr",
          "type": "bytes32"
        },
        {
          "indexed": false,
          "name": "codeHash",
          "type": "bytes32"
        }
      ],
      "name": "SecretContractDeployed",
      "type": "event",
      "signature": "0x9d707d3c048dd1c209a28ea6367edf3d939a45cb46f86be5a728577e3e52273e"
    },
    {
      "constant": false,
      "inputs": [
        {
          "name": "_signer",
          "type": "address"
        },
        {
          "name": "_report",
          "type": "bytes"
        }
      ],
      "name": "register",
      "outputs": [],
      "payable": false,
      "stateMutability": "nonpayable",
      "type": "function",
      "signature": "0x24b8fbf6"
    },
    {
      "constant": false,
      "inputs": [
        {
          "name": "_custodian",
          "type": "address"
        },
        {
          "name": "_amount",
          "type": "uint256"
        }
      ],
      "name": "deposit",
      "outputs": [],
      "payable": false,
      "stateMutability": "nonpayable",
      "type": "function",
      "signature": "0x47e7ef24"
    },
    {
      "constant": false,
      "inputs": [],
      "name": "login",
      "outputs": [],
      "payable": false,
      "stateMutability": "nonpayable",
      "type": "function",
      "signature": "0xb34e97e8"
    },
    {
      "constant": false,
      "inputs": [],
      "name": "logout",
      "outputs": [],
      "payable": false,
      "stateMutability": "nonpayable",
      "type": "function",
      "signature": "0x1f3c99c3"
    },
    {
      "constant": false,
      "inputs": [
        {
          "name": "_scAddr",
          "type": "bytes32"
        },
        {
          "name": "_codeHash",
          "type": "bytes32"
        },
        {
          "name": "_owner",
          "type": "address"
        },
        {
          "name": "_sig",
          "type": "bytes"
        }
      ],
      "name": "deploySecretContract",
      "outputs": [],
      "payable": false,
      "stateMutability": "nonpayable",
      "type": "function",
      "signature": "0xe5ba75c0"
    },
    {
      "constant": true,
      "inputs": [
        {
          "name": "_scAddr",
          "type": "bytes32"
        }
      ],
      "name": "isDeployed",
      "outputs": [
        {
          "name": "",
          "type": "bool"
        }
      ],
      "payable": false,
      "stateMutability": "view",
      "type": "function",
      "signature": "0x74c0ff4f"
    },
    {
      "constant": true,
      "inputs": [
        {
          "name": "_scAddr",
          "type": "bytes32"
        }
      ],
      "name": "getCodeHash",
      "outputs": [
        {
          "name": "",
          "type": "bytes32"
        }
      ],
      "payable": false,
      "stateMutability": "view",
      "type": "function",
      "signature": "0x27e86c84"
    },
    {
      "constant": true,
      "inputs": [],
      "name": "countSecretContracts",
      "outputs": [
        {
          "name": "",
          "type": "uint256"
        }
      ],
      "payable": false,
      "stateMutability": "view",
      "type": "function",
      "signature": "0x75bbf75b"
    },
    {
      "constant": true,
      "inputs": [
        {
          "name": "_start",
          "type": "uint256"
        },
        {
          "name": "_stop",
          "type": "uint256"
        }
      ],
      "name": "getSecretContractAddresses",
      "outputs": [
        {
          "name": "",
          "type": "bytes32[]"
        }
      ],
      "payable": false,
      "stateMutability": "view",
      "type": "function",
      "signature": "0x8e055b8b"
    },
    {
      "constant": true,
      "inputs": [
        {
          "name": "_scAddr",
          "type": "bytes32"
        }
      ],
      "name": "countStateDeltas",
      "outputs": [
        {
          "name": "",
          "type": "uint256"
        }
      ],
      "payable": false,
      "stateMutability": "view",
      "type": "function",
      "signature": "0xc41bfb03"
    },
    {
      "constant": true,
      "inputs": [
        {
          "name": "_scAddr",
          "type": "bytes32"
        },
        {
          "name": "_index",
          "type": "uint256"
        }
      ],
      "name": "getStateDeltaHash",
      "outputs": [
        {
          "name": "",
          "type": "bytes32"
        }
      ],
      "payable": false,
      "stateMutability": "view",
      "type": "function",
      "signature": "0x28aa1aaa"
    },
    {
      "constant": true,
      "inputs": [
        {
          "name": "_scAddr",
          "type": "bytes32"
        },
        {
          "name": "_start",
          "type": "uint256"
        },
        {
          "name": "_stop",
          "type": "uint256"
        }
      ],
      "name": "getStateDeltaHashes",
      "outputs": [
        {
          "name": "",
          "type": "bytes32[]"
        }
      ],
      "payable": false,
      "stateMutability": "view",
      "type": "function",
      "signature": "0xd1dfd95e"
    },
    {
      "constant": true,
      "inputs": [
        {
          "name": "_scAddr",
          "type": "bytes32"
        },
        {
          "name": "_stateDeltaHash",
          "type": "bytes32"
        }
      ],
      "name": "isValidDeltaHash",
      "outputs": [
        {
          "name": "",
          "type": "bool"
        }
      ],
      "payable": false,
      "stateMutability": "view",
      "type": "function",
      "signature": "0xccfae218"
    },
    {
      "constant": false,
      "inputs": [
        {
          "name": "_taskId",
          "type": "bytes32"
        },
        {
          "name": "_fee",
          "type": "uint256"
        }
      ],
      "name": "createTaskRecord",
      "outputs": [],
      "payable": false,
      "stateMutability": "nonpayable",
      "type": "function",
      "signature": "0x03316d16"
    },
    {
      "constant": false,
      "inputs": [
        {
          "name": "_taskIds",
          "type": "bytes32[]"
        },
        {
          "name": "_fees",
          "type": "uint256[]"
        }
      ],
      "name": "createTaskRecords",
      "outputs": [],
      "payable": false,
      "stateMutability": "nonpayable",
      "type": "function",
      "signature": "0x120db8ab"
    },
    {
      "constant": false,
      "inputs": [
        {
          "name": "_scAddr",
          "type": "bytes32"
        },
        {
          "name": "_taskId",
          "type": "bytes32"
        },
        {
          "name": "_inStateDeltaHash",
          "type": "bytes32"
        },
        {
          "name": "_outStateDeltaHash",
          "type": "bytes32"
        },
        {
          "name": "_ethCall",
          "type": "bytes"
        },
        {
          "name": "_sig",
          "type": "bytes"
        }
      ],
      "name": "commitReceipt",
      "outputs": [],
      "payable": false,
      "stateMutability": "nonpayable",
      "type": "function",
      "signature": "0x978fa217"
    },
    {
      "constant": false,
      "inputs": [
        {
          "name": "_scAddr",
          "type": "bytes32"
        },
        {
          "name": "_taskIds",
          "type": "bytes32[]"
        },
        {
          "name": "_inStateDeltaHashes",
          "type": "bytes32[]"
        },
        {
          "name": "_outStateDeltaHashes",
          "type": "bytes32[]"
        },
        {
          "name": "_ethCall",
          "type": "bytes"
        },
        {
          "name": "_sig",
          "type": "bytes"
        }
      ],
      "name": "commitReceipts",
      "outputs": [],
      "payable": false,
      "stateMutability": "nonpayable",
      "type": "function",
      "signature": "0x5f0d6ac0"
    },
    {
      "constant": false,
      "inputs": [
        {
          "name": "_seed",
          "type": "uint256"
        },
        {
          "name": "_sig",
          "type": "bytes"
        }
      ],
      "name": "setWorkersParams",
      "outputs": [],
      "payable": false,
      "stateMutability": "nonpayable",
      "type": "function",
      "signature": "0x2873e73c"
    },
    {
      "constant": true,
      "inputs": [
        {
          "name": "_blockNumber",
          "type": "uint256"
        }
      ],
      "name": "getWorkerParams",
      "outputs": [
        {
          "name": "",
          "type": "uint256"
        },
        {
          "name": "",
          "type": "uint256"
        },
        {
          "name": "",
          "type": "address[]"
        },
        {
          "name": "",
          "type": "uint256[]"
        }
      ],
      "payable": false,
      "stateMutability": "view",
      "type": "function",
      "signature": "0x9836ca31"
    },
    {
      "constant": true,
      "inputs": [
        {
          "name": "_blockNumber",
          "type": "uint256"
        },
        {
          "name": "_scAddr",
          "type": "bytes32"
        }
      ],
      "name": "getWorkerGroup",
      "outputs": [
        {
          "name": "",
          "type": "address[]"
        }
      ],
      "payable": false,
      "stateMutability": "view",
      "type": "function",
      "signature": "0x1d40ff0b"
    },
    {
      "constant": true,
      "inputs": [
        {
          "name": "_blockNumber",
          "type": "uint256"
        }
      ],
      "name": "getWorkersParams",
      "outputs": [
        {
          "name": "",
          "type": "uint256"
        },
        {
          "name": "",
          "type": "uint256"
        },
        {
          "name": "",
          "type": "address[]"
        },
        {
          "name": "",
          "type": "address[]"
        }
      ],
      "payable": false,
      "stateMutability": "view",
      "type": "function",
      "signature": "0x59c91a12"
    },
    {
      "constant": true,
      "inputs": [
        {
          "name": "_custodian",
          "type": "address"
        }
      ],
      "name": "getReport",
      "outputs": [
        {
          "name": "",
          "type": "address"
        },
        {
          "name": "",
          "type": "bytes"
        }
      ],
      "payable": false,
      "stateMutability": "view",
      "type": "function",
      "signature": "0xa3bdae3e"
    }
  ],
  "bytecode": "0x608060405260646001553480156200001657600080fd5b5060405160408062004914833981018060405262000038919081019062000089565b60008054600160a060020a03938416600160a060020a031991821617909155600280549290931691161790556001601d556005601e55620000d4565b6000620000828251620000c8565b9392505050565b600080604083850312156200009d57600080fd5b6000620000ab858562000074565b9250506020620000be8582860162000074565b9150509250929050565b600160a060020a031690565b61483080620000e46000396000f30060806040526004361061018a5763ffffffff7c010000000000000000000000000000000000000000000000000000000060003504166303316d16811461018f5780630a318da0146101b15780630f8c466c146101e7578063120db8ab146102145780631d40ff0b146102345780631f3c99c31461026157806324b8fbf61461027657806327e86c84146102965780632873e73c146102b657806328aa1aaa146102d65780634048a257146102f657806347e7ef2414610326578063572d356e1461034657806359c91a121461035b5780635f0d6ac01461038b5780635f0dd5bb146103ab57806374c0ff4f146103cb57806375bbf75b146103f85780638e055b8b1461040d5780639489ad401461043a578063978fa2171461045c5780639836ca311461047c578063a3bdae3e146104ac578063a3edd784146104da578063b34e97e8146104ef578063c41bfb0314610504578063ccfae21814610524578063d1dfd95e14610544578063e579f50014610564578063e5ba75c014610594578063ec56a373146105b4575b600080fd5b34801561019b57600080fd5b506101af6101aa366004613a9f565b6105e3565b005b3480156101bd57600080fd5b506101d16101cc366004613982565b610828565b6040516101de919061420b565b60405180910390f35b3480156101f357600080fd5b5061020761020236600461385d565b610850565b6040516101de91906143ef565b34801561022057600080fd5b506101af61022f366004613905565b610862565b34801561024057600080fd5b5061025461024f366004613a9f565b610bc2565b6040516101de919061431f565b34801561026d57600080fd5b506101af610df1565b34801561028257600080fd5b506101af610291366004613883565b610f60565b3480156102a257600080fd5b506102076102b1366004613982565b611074565b3480156102c257600080fd5b506101af6102d1366004613bfa565b6110d0565b3480156102e257600080fd5b506102076102f1366004613a9f565b611600565b34801561030257600080fd5b5061031661031136600461385d565b611676565b6040516101de94939291906142bf565b34801561033257600080fd5b506101af6103413660046138d5565b61173a565b34801561035257600080fd5b50610207611a70565b34801561036757600080fd5b5061037b610376366004613982565b611a76565b6040516101de94939291906145ec565b34801561039757600080fd5b506101af6103a63660046139a0565b611a83565b3480156103b757600080fd5b506102076103c6366004613982565b611c4b565b3480156103d757600080fd5b506103eb6103e6366004613982565b611c6a565b6040516101de91906143e1565b34801561040457600080fd5b50610207611ca5565b34801561041957600080fd5b5061042d610428366004613a9f565b611cac565b6040516101de9190614330565b34801561044657600080fd5b5061044f611d55565b6040516101de91906144a2565b34801561046857600080fd5b506101af610477366004613b37565b611d64565b34801561048857600080fd5b5061049c610497366004613982565b612007565b6040516101de9493929190614637565b3480156104b857600080fd5b506104cc6104c736600461385d565b612132565b6040516101de92919061425c565b3480156104e657600080fd5b50610207612374565b3480156104fb57600080fd5b506101af61237a565b34801561051057600080fd5b5061020761051f366004613982565b6124e7565b34801561053057600080fd5b506103eb61053f366004613a9f565b612543565b34801561055057600080fd5b5061042d61055f366004613b8f565b6125f2565b34801561057057600080fd5b5061058461057f366004613982565b6126ff565b6040516101de94939291906145b0565b3480156105a057600080fd5b506101af6105af366004613abe565b6127c2565b3480156105c057600080fd5b506105d46105cf366004613982565b612b75565b6040516101de93929190614234565b6000828152601a6020526040902060020154600160a060020a0316156106275760405160e560020a62461bcd02815260040161061e90614570565b60405180910390fd5b6000546040517fdd62ed3e0000000000000000000000000000000000000000000000000000000081528291600160a060020a03169063dd62ed3e90610672903390309060040161427c565b602060405180830381600087803b15801561068c57600080fd5b505af11580156106a0573d6000803e3d6000fd5b505050506040513d601f19601f820116820180604052506106c49190810190613bdc565b10156106e55760405160e560020a62461bcd02815260040161061e90614530565b6000546040517f23b872dd000000000000000000000000000000000000000000000000000000008152600160a060020a03909116906323b872dd9061073290339030908690600401614297565b602060405180830381600087803b15801561074c57600080fd5b505af1158015610760573d6000803e3d6000fd5b505050506040513d601f19601f820116820180604052506107849190810190613964565b15156107a55760405160e560020a62461bcd02815260040161061e90614500565b6000828152601a602052604090819020828155600201805473ffffffffffffffffffffffffffffffffffffffff19163390811760a060020a60ff02191660a060020a1790915590517ff1c0c18d5573c419035509d5b8bf3f97ce7b92cca68bccbde847516f66d6fe059161081c9185918591614445565b60405180910390a15050565b601780548290811061083657fe5b600091825260209091200154600160a060020a0316905081565b601c6020526000908152604090205481565b60005b8251811015610b8257601a6000848381518110151561088057fe5b6020908102909101810151825281019190915260400160002060020154600160a060020a0316156108c65760405160e560020a62461bcd02815260040161061e90614570565b81818151811015156108d457fe5b602090810290910101516000546040517fdd62ed3e000000000000000000000000000000000000000000000000000000008152600160a060020a039091169063dd62ed3e90610929903390309060040161427c565b602060405180830381600087803b15801561094357600080fd5b505af1158015610957573d6000803e3d6000fd5b505050506040513d601f19601f8201168201806040525061097b9190810190613bdc565b101561099c5760405160e560020a62461bcd02815260040161061e90614530565b6000548251600160a060020a03909116906323b872dd90339030908690869081106109c357fe5b906020019060200201516040518463ffffffff167c0100000000000000000000000000000000000000000000000000000000028152600401610a0793929190614297565b602060405180830381600087803b158015610a2157600080fd5b505af1158015610a35573d6000803e3d6000fd5b505050506040513d601f19601f82011682018060405250610a599190810190613964565b1515610a7a5760405160e560020a62461bcd02815260040161061e90614500565b8181815181101515610a8857fe5b90602001906020020151601a60008584815181101515610aa457fe5b6020908102909101810151825281019190915260400160009081209190915583513391601a91869085908110610ad657fe5b60209081029190910181015182528101919091526040016000908120600201805473ffffffffffffffffffffffffffffffffffffffff1916600160a060020a0393909316929092179091558351600191601a91869085908110610b3557fe5b6020908102909101810151825281019190915260400160002060029081018054909160a060020a60ff02199091169060a060020a908490811115610b7557fe5b0217905550600101610865565b7facd4eaf0bf2790219699c0a2d47f13405b81c59f5ff0bb951a71a29c94a6d774838333604051610bb5939291906143ad565b60405180910390a1505050565b60606000610bce6135de565b60606000806000806000610be18b612ba3565b975060038860058110610bf057fe5b60040201608060405190810160405290816000820154815260200160018201805480602002602001604051908101604052809291908181526020018280548015610c6357602002820191906000526020600020905b8154600160a060020a03168152600190910190602001808311610c45575b5050505050815260200160028201805480602002602001604051908101604052809291908181526020018280548015610cbb57602002820191906000526020600020905b815481526020019060010190808311610ca7575b505050505081526020016003820154815250509650601e54604051908082528060200260200182016040528015610cfc578160200160208202803883390190505b50955060009450600093505b601e54841015610de2575b610d1f8b898c88612c4b565b925060009150600090505b8551811015610d75578581815181101515610d4157fe5b90602001906020020151600160a060020a031683600160a060020a03161415610d6d5760019150610d75565b600101610d2a565b811515610da357828685815181101515610d8b57fe5b600160a060020a039092166020928302909101909101525b8551600190950194869085908110610db757fe5b90602001906020020151600160a060020a031660001415610dd757610d13565b600190930192610d08565b50939998505050505050505050565b33610dfa613607565b600160a060020a038281166000908152601960209081526040918290208251608081019093528054938416835291929083019060a060020a900460ff166003811115610e4257fe5b6003811115610e4d57fe5b8152602001600182018054600181600116156101000203166002900480601f016020809104026020016040519081016040528092919081815260200182805460018160011615610100020316600290048015610eea5780601f10610ebf57610100808354040283529160200191610eea565b820191906000526020600020905b815481529060010190602001808311610ecd57829003601f168201915b505050918352505060029182015460209091015290915081602001516003811115610f1157fe5b14610f315760405160e560020a62461bcd02815260040161061e90614510565b33600090815260196020526040902080546003919060a060020a60ff02191660a060020a835b02179055505050565b33600090815260196020526040902054600160a060020a03161515610fcf57601780546001810182556000919091527fc624b66cc0138b8fabc209247f72d758e1cf3343756d543badbf24212bed8c1501805473ffffffffffffffffffffffffffffffffffffffff1916331790555b3360009081526019602090815260408220805473ffffffffffffffffffffffffffffffffffffffff1916600160a060020a038616178155600281019290925582516110209260010191840190613630565b503360008181526019602052604090819020805460a060020a60ff02191660a060020a179055517f0a31ee9d46a828884b81003c8498156ea6aa15b9b54bdd0ef0b533d9eba57e559161081c918590614219565b60008160016000828152601b602052604090206003015460ff16600181111561109957fe5b146110b95760405160e560020a62461bcd02815260040161061e90614580565b50506000908152601b602052604090206001015490565b6000806000806110de613607565b336110e7613607565b600160a060020a038281166000908152601960209081526040918290208251608081019093528054938416835291929083019060a060020a900460ff16600381111561112f57fe5b600381111561113a57fe5b8152602001600182018054600181600116156101000203166002900480601f0160208091040260200160405190810160405280929190818152602001828054600181600116156101000203166002900480156111d75780601f106111ac576101008083540402835291602001916111d7565b820191906000526020600020905b8154815290600101906020018083116111ba57829003601f168201915b505050918352505060029190910154602090910152905060008160200151600381111561120057fe5b14156112215760405160e560020a62461bcd02815260040161061e906144b0565b60025433600090815260196020526040902054600160a060020a039081169116146112615760405160e560020a62461bcd02815260040161061e90614560565b60009650600095505b60058610156112cc576003866005811061128057fe5b60040201541515611293578596506112cc565b600387600581106112a057fe5b6004020154600387600581106112b257fe5b600402015410156112c1578596505b60019095019461126a565b43600388600581106112da57fe5b600402015588600388600581106112ed57fe5b600402016003018190555060009450600093505b601754841015611590576019600060178681548110151561131e57fe5b6000918252602080832090910154600160a060020a0390811684528382019490945260409283019091208251608081019093528054938416835291929083019060ff60a060020a90910416600381111561137457fe5b600381111561137f57fe5b8152602001600182018054600181600116156101000203166002900480601f01602080910402602001604051908101604052809291908181526020018280546001816001161561010002031660029004801561141c5780601f106113f15761010080835404028352916020019161141c565b820191906000526020600020905b8154815290600101906020018083116113ff57829003601f168201915b505050505081526020016002820154815250509250601d5483606001511015801561145757506002548351600160a060020a03908116911614155b8015611472575060028360200151600381111561147057fe5b145b15611585576003876005811061148457fe5b60040201600101805480919060010161149d91906136ae565b5060178054859081106114ac57fe5b600091825260209091200154600160a060020a0316600388600581106114ce57fe5b60040201600101868154811015156114e257fe5b6000918252602090912001805473ffffffffffffffffffffffffffffffffffffffff1916600160a060020a03929092169190911790556003876005811061152557fe5b60040201600201805480919060010161153e91906136ae565b5060608301516003886005811061155157fe5b600402016002018681548110151561156557fe5b60009182526020909120015561158285600163ffffffff612f4216565b94505b600190930192611301565b7f7047379c64ccafb62f6625e6b2d8eb6e1b0e091fac56a11ab5e2fd896e4db1d0894360038a600581106115c057fe5b6004020160010160038b6005811015156115d657fe5b600402016002016040516115ed9493929190614678565b60405180910390a1505050505050505050565b60008260016000828152601b602052604090206003015460ff16600181111561162557fe5b146116455760405160e560020a62461bcd02815260040161061e90614580565b6000848152601b6020526040902060020180548490811061166257fe5b906000526020600020015491505092915050565b6019602090815260009182526040918290208054600180830180548651600261010094831615949094026000190190911692909204601f8101869004860283018601909652858252600160a060020a0383169560a060020a90930460ff16949192909183018282801561172a5780601f106116ff5761010080835404028352916020019161172a565b820191906000526020600020905b81548152906001019060200180831161170d57829003601f168201915b5050505050908060020154905084565b81611743613607565b600160a060020a038281166000908152601960209081526040918290208251608081019093528054938416835291929083019060a060020a900460ff16600381111561178b57fe5b600381111561179657fe5b8152602001600182018054600181600116156101000203166002900480601f0160208091040260200160405190810160405280929190818152602001828054600181600116156101000203166002900480156118335780601f1061180857610100808354040283529160200191611833565b820191906000526020600020905b81548152906001019060200180831161181657829003601f168201915b505050918352505060029190910154602090910152905060008160200151600381111561185c57fe5b141561187d5760405160e560020a62461bcd02815260040161061e906144b0565b6000546040517fdd62ed3e0000000000000000000000000000000000000000000000000000000081528491600160a060020a03169063dd62ed3e906118c8908890309060040161427c565b602060405180830381600087803b1580156118e257600080fd5b505af11580156118f6573d6000803e3d6000fd5b505050506040513d601f19601f8201168201806040525061191a9190810190613bdc565b101561193b5760405160e560020a62461bcd02815260040161061e906144c0565b6000546040517f23b872dd000000000000000000000000000000000000000000000000000000008152600160a060020a03909116906323b872dd9061198890879030908890600401614297565b602060405180830381600087803b1580156119a257600080fd5b505af11580156119b6573d6000803e3d6000fd5b505050506040513d601f19601f820116820180604052506119da9190810190613964565b15156119e557600080fd5b600160a060020a038416600090815260196020526040902060020154611a11908463ffffffff612f4216565b600160a060020a0385166000908152601960205260409081902060020191909155517fb3ef81558ed1a50072a492984535a009da8b129c749500b387f1e5f4886bdde590611a629086908690614304565b60405180910390a150505050565b60015481565b6000806060809193509193565b33611a8c613607565b600160a060020a038281166000908152601960209081526040918290208251608081019093528054938416835291929083019060a060020a900460ff166003811115611ad457fe5b6003811115611adf57fe5b8152602001600182018054600181600116156101000203166002900480601f016020809104026020016040519081016040528092919081815260200182805460018160011615610100020316600290048015611b7c5780601f10611b5157610100808354040283529160200191611b7c565b820191906000526020600020905b815481529060010190602001808311611b5f57829003601f168201915b505050918352505060029182015460209091015290915081602001516003811115611ba357fe5b14611bc35760405160e560020a62461bcd02815260040161061e90614510565b8760016000828152601b602052604090206003015460ff166001811115611be657fe5b14611c065760405160e560020a62461bcd02815260040161061e90614580565b611c14898989898989612f55565b7f49f3b610d2b607252a8901e3c134022c7a6330e5f6525f0ed84dd4a12747895888888888886040516115ed959493929190614341565b6018805482908110611c5957fe5b600091825260209091200154905081565b600060016000838152601b602052604090206003015460ff166001811115611c8e57fe5b1415611c9c57506001611ca0565b5060005b919050565b6018545b90565b606080600080841515611cbf5760185494505b611ccf858763ffffffff61327616565b604051908082528060200260200182016040528015611cf8578160200160208202803883390190505b509250600091508590505b84811015611d48576018805482908110611d1957fe5b90600052602060002001548383815181101515611d3257fe5b6020908102909101015260019182019101611d03565b8293505b50505092915050565b600054600160a060020a031681565b33611d6d613607565b600160a060020a038281166000908152601960209081526040918290208251608081019093528054938416835291929083019060a060020a900460ff166003811115611db557fe5b6003811115611dc057fe5b8152602001600182018054600181600116156101000203166002900480601f016020809104026020016040519081016040528092919081815260200182805460018160011615610100020316600290048015611e5d5780601f10611e3257610100808354040283529160200191611e5d565b820191906000526020600020905b815481529060010190602001808311611e4057829003601f168201915b505050918352505060029182015460209091015290915081602001516003811115611e8457fe5b14611ea45760405160e560020a62461bcd02815260040161061e90614510565b8760016000828152601b602052604090206003015460ff166001811115611ec757fe5b14611ee75760405160e560020a62461bcd02815260040161061e90614580565b60016000898152601a6020526040902060029081015460a060020a900460ff1690811115611f1157fe5b14611f315760405160e560020a62461bcd02815260040161061e906144e0565b611f3f898989898989613288565b6000888152601a602090815260409091208551611f6492600190920191870190613630565b506000888152601a602090815260408083206002808201805460a060020a60ff0219167402000000000000000000000000000000000000000017905590543385526019909352922090910154611fb991612f42565b336000908152601960205260409081902060020191909155517f665329bb9a4e1062edc215d9c5ab57fa54c4c88e3dfbcc68e0cd92fdd010fa6e906115ed908a908a908a908a908a9061440b565b60008060608060006120176135de565b61202087612ba3565b91506003826005811061202f57fe5b600402016080604051908101604052908160008201548152602001600182018054806020026020016040519081016040528092919081815260200182805480156120a257602002820191906000526020600020905b8154600160a060020a03168152600190910190602001808311612084575b50505050508152602001600282018054806020026020016040519081016040528092919081815260200182805480156120fa57602002820191906000526020600020905b8154815260200190600101908083116120e6575b5050509183525050600391909101546020918201528151606083015191830151604090930151909a9199509197509095509350505050565b600060608261213f613607565b600160a060020a038281166000908152601960209081526040918290208251608081019093528054938416835291929083019060a060020a900460ff16600381111561218757fe5b600381111561219257fe5b8152602001600182018054600181600116156101000203166002900480601f01602080910402602001604051908101604052809291908181526020018280546001816001161561010002031660029004801561222f5780601f106122045761010080835404028352916020019161222f565b820191906000526020600020905b81548152906001019060200180831161221257829003601f168201915b505050918352505060029190910154602090910152905060008160200151600381111561225857fe5b14156122795760405160e560020a62461bcd02815260040161061e906144b0565b600160a060020a038086166000908152601960205260409020541615156122b55760405160e560020a62461bcd02815260040161061e90614540565b600160a060020a038581166000908152601960209081526040918290208054600191820180548551600261010095831615959095026000190190911693909304601f81018590048502840185019095528483529416939290918391908301828280156123625780601f1061233757610100808354040283529160200191612362565b820191906000526020600020905b81548152906001019060200180831161234557829003601f168201915b50505050509050935093505050915091565b601e5481565b33612383613607565b600160a060020a038281166000908152601960209081526040918290208251608081019093528054938416835291929083019060a060020a900460ff1660038111156123cb57fe5b60038111156123d657fe5b8152602001600182018054600181600116156101000203166002900480601f0160208091040260200160405190810160405280929190818152602001828054600181600116156101000203166002900480156124735780601f1061244857610100808354040283529160200191612473565b820191906000526020600020905b81548152906001019060200180831161245657829003601f168201915b505050918352505060029190910154602090910152905060008160200151600381111561249c57fe5b14156124bd5760405160e560020a62461bcd02815260040161061e906144b0565b33600090815260196020526040902080546002919060a060020a60ff02191660a060020a83610f57565b60008160016000828152601b602052604090206003015460ff16600181111561250c57fe5b1461252c5760405160e560020a62461bcd02815260040161061e90614580565b50506000908152601b602052604090206002015490565b600080808460016000828152601b602052604090206003015460ff16600181111561256a57fe5b1461258a5760405160e560020a62461bcd02815260040161061e90614580565b60009250600091505b6000868152601b6020526040902060020154821015611d48576000868152601b602052604090206002018054869190849081106125cc57fe5b60009182526020909120015414156125e75760019250611d48565b600190910190612593565b6060806000808660016000828152601b602052604090206003015460ff16600181111561261b57fe5b1461263b5760405160e560020a62461bcd02815260040161061e90614580565b851515612657576000888152601b602052604090206002015495505b612667868863ffffffff61327616565b604051908082528060200260200182016040528015612690578160200160208202803883390190505b509350600092508691505b858210156126f3576000888152601b602052604090206002018054839081106126c057fe5b906000526020600020015484848151811015156126d957fe5b60209081029091010152600192830192919091019061269b565b50919695505050505050565b601a602090815260009182526040918290208054600180830180548651600293821615610100026000190190911692909204601f81018690048602830186019096528582529194929390929083018282801561279c5780601f106127715761010080835404028352916020019161279c565b820191906000526020600020905b81548152906001019060200180831161277f57829003601f168201915b50505060029093015491925050600160a060020a0381169060ff60a060020a9091041684565b6000806000336127d0613607565b600160a060020a038281166000908152601960209081526040918290208251608081019093528054938416835291929083019060a060020a900460ff16600381111561281857fe5b600381111561282357fe5b8152602001600182018054600181600116156101000203166002900480601f0160208091040260200160405190810160405280929190818152602001828054600181600116156101000203166002900480156128c05780601f10612895576101008083540402835291602001916128c0565b820191906000526020600020905b8154815290600101906020018083116128a357829003601f168201915b50505091835250506002919091015460209091015290506000816020015160038111156128e957fe5b141561290a5760405160e560020a62461bcd02815260040161061e906144b0565b600160a060020a0387166000818152601c60209081526040918290205482518083018d90526c010000000000000000000000009094028484015260548085019190915282518085039091018152607490930191829052825182918401908083835b6020831061298a5780518252601f19909201916020918201910161296b565b5181516020939093036101000a600019018019909116921691909117905260405192018290039091209750505089861490506129c557600080fd5b6000898152601b602052604081206003015460ff1660018111156129e557fe5b14612a055760405160e560020a62461bcd02815260040161061e906144d0565b6040805160208082018b905282518083038201815291830192839052815191929182918401908083835b60208310612a4e5780518252601f199092019160209182019101612a2f565b6001836020036101000a03801982511681845116808217855250505050505090500191505060405180910390209350612a9a86612a8e8660001916613477565b9063ffffffff61352116565b9250600160a060020a0380841690881614612ab457600080fd5b6000898152601b60209081526040808320805473ffffffffffffffffffffffffffffffffffffffff1916600160a060020a038c16908117825560018083018e90556003909201805460ff191683179055601880548084019091557fb13d2d76d1f4b7be834882e410b3e3a8afaf69f83600ae24db354391d2378d2e018e90558452601c9092529182902080549091019055517f9d707d3c048dd1c209a28ea6367edf3d939a45cb46f86be5a728577e3e52273e906115ed9087908b906143fd565b601b60205260009081526040902080546001820154600390920154600160a060020a03909116919060ff1683565b6000600019815b6005811015612c18578360038260058110612bc157fe5b600402015411801590612c0757508160000b6000191480612c0757506003600083900b60058110612bee57fe5b600402015460038260058110612c0057fe5b6004020154115b15612c10578091505b600101612baa565b600019600083900b1415612c415760405160e560020a62461bcd02815260040161061e906145a0565b5060000b92915050565b6000612c556135de565b60008080808060038a60058110612c6857fe5b60040201608060405190810160405290816000820154815260200160018201805480602002602001604051908101604052809291908181526020018280548015612cdb57602002820191906000526020600020905b8154600160a060020a03168152600190910190602001808311612cbd575b5050505050815260200160028201805480602002602001604051908101604052809291908181526020018280548015612d3357602002820191906000526020600020905b815481526020019060010190808311612d1f575b50505050508152602001600382015481525050955060009450600093505b856020015151841015612dc1576020860151805185908110612d6f57fe5b60209081029091010151600160a060020a031615612db657612db3866040015185815181101515612d9c57fe5b60209081029091010151869063ffffffff612f4216565b94505b600190930192612d51565b8a866060015187600001518b888c60405160200180878152602001868152602001858152602001846000191660001916815260200183815260200182815260200196505050505050506040516020818303038152906040526040518082805190602001908083835b60208310612e485780518252601f199092019160209182019101612e29565b5181516020939093036101000a60001901801990911692169190911790526040519201829003909120955087925085915050811515612e8357fe5b069150600090505b856020015151811015612f12576020860151805182908110612ea957fe5b60209081029091010151600160a060020a031615612f0a576040860151805182908110612ed257fe5b602090810290910101519091039060008213612f0a576020860151805182908110612ef957fe5b906020019060200201519650612f34565b600101612e8b565b602086015180516000198101908110612f2757fe5b9060200190602002015196505b505050505050949350505050565b81810182811015612f4f57fe5b92915050565b6000868152601b60205260408120600201549080821515612fae57866000815181101515612f7f57fe5b6020908102909101015115612fa95760405160e560020a62461bcd02815260040161061e90614520565b61301d565b6000898152601b60205260409020600201612fd084600163ffffffff61327616565b81548110612fda57fe5b60009182526020822001548851909189918110612ff357fe5b602090810290910101511461301d5760405160e560020a62461bcd02815260040161061e906144f0565b600091505b87518210156130fa576001601a60008a8581518110151561303f57fe5b6020908102909101810151825281019190915260400160002060029081015460ff60a060020a909104169081111561307357fe5b146130935760405160e560020a62461bcd02815260040161061e906144e0565b60008211156130ef5785600183038151811015156130ad57fe5b6020908102909101015187518890849081106130c557fe5b60209081029091010151146130ef5760405160e560020a62461bcd02815260040161061e90614550565b600190910190613022565b5060005b875181101561326b576000898152601b60205260409020865160029091019087908390811061312957fe5b602090810290910181015182546001818101855560009485529290932090920191909155885161315e9163ffffffff61327616565b8114156131aa5783601a60008a8481518110151561317857fe5b602090810290910181015182528181019290925260400160002082516131a8936001909201929190910190613630565b505b6002601a60008a848151811015156131be57fe5b6020908102909101810151825281019190915260400160002060029081018054909160a060020a60ff02199091169060a060020a9084908111156131fe57fe5b0217905550613250601a60008a8481518110151561321857fe5b60209081029091018101518252818101929092526040908101600090812054338252601990935220600201549063ffffffff612f4216565b336000908152601960205260409020600201556001016130fe565b505050505050505050565b60008282111561328257fe5b50900390565b6000868152601b602052604081206002015490808215156132c95786156132c45760405160e560020a62461bcd02815260040161061e90614520565b613322565b6000898152601b602052604090206002016132eb84600163ffffffff61327616565b815481106132f557fe5b60009182526020909120015487146133225760405160e560020a62461bcd02815260040161061e906144f0565b6000898152601b6020908152604080832060020180546001810182559084529282902090920188905581518082018b81529281018a90526060810189905287518b938b938b938b936080909101918401908083835b602083106133965780518252601f199092019160209182019101613377565b6001836020036101000a0380198251168184511680821785525050505050509050019450505050506040516020818303038152906040526040518082805190602001908083835b602083106133fc5780518252601f1990920191602091820191016133dd565b5181516020939093036101000a6000190180199091169216919091179052604051920182900390912094506134379250849150869050613521565b33600090815260196020526040902054909150600160a060020a0380831691161461326b5760405160e560020a62461bcd02815260040161061e90614590565b604080517f19457468657265756d205369676e6564204d6573736167653a0a333200000000602080830191909152603c80830185905283518084039091018152605c909201928390528151600093918291908401908083835b602083106134ef5780518252601f1990920191602091820191016134d0565b5181516020939093036101000a6000190180199091169216919091179052604051920182900390912095945050505050565b6000806000808451604114151561353b5760009350611d4c565b50505060208201516040830151606084015160001a601b60ff8216101561356057601b015b8060ff16601b1415801561357857508060ff16601c14155b156135865760009350611d4c565b600186828585604051600081526020016040526040516135a9949392919061446d565b60206040516020810390808403906000865af11580156135cd573d6000803e3d6000fd5b505050602060405103519350611d4c565b608060405190810160405280600081526020016060815260200160608152602001600081525090565b604080516080810190915260008082526020820190815260200160608152602001600081525090565b828054600181600116156101000203166002900490600052602060002090601f016020900481019282601f1061367157805160ff191683800117855561369e565b8280016001018555821561369e579182015b8281111561369e578251825591602001919060010190613683565b506136aa9291506136d7565b5090565b8154818355818111156136d2576000838152602090206136d29181019083016136d7565b505050565b611ca991905b808211156136aa57600081556001016136dd565b60006136fd8235614749565b9392505050565b6000601f8201831361371557600080fd5b8135613728613723826146e0565b6146b9565b9150818183526020840193506020810190508385602084028201111561374d57600080fd5b60005b83811015613779578161376388826137ff565b8452506020928301929190910190600101613750565b5050505092915050565b6000601f8201831361379457600080fd5b81356137a2613723826146e0565b915081818352602084019350602081019050838560208402820111156137c757600080fd5b60005b8381101561377957816137dd88826137ff565b84525060209283019291909101906001016137ca565b60006136fd8251614755565b60006136fd8235611ca9565b6000601f8201831361381c57600080fd5b813561382a61372382614701565b9150808252602083016020830185838301111561384657600080fd5b611d4c8382846147b0565b60006136fd8251611ca9565b60006020828403121561386f57600080fd5b600061387b84846136f1565b949350505050565b6000806040838503121561389657600080fd5b60006138a285856136f1565b925050602083013567ffffffffffffffff8111156138bf57600080fd5b6138cb8582860161380b565b9150509250929050565b600080604083850312156138e857600080fd5b60006138f485856136f1565b92505060206138cb858286016137ff565b6000806040838503121561391857600080fd5b823567ffffffffffffffff81111561392f57600080fd5b61393b85828601613704565b925050602083013567ffffffffffffffff81111561395857600080fd5b6138cb85828601613783565b60006020828403121561397657600080fd5b600061387b84846137f3565b60006020828403121561399457600080fd5b600061387b84846137ff565b60008060008060008060c087890312156139b957600080fd5b60006139c589896137ff565b965050602087013567ffffffffffffffff8111156139e257600080fd5b6139ee89828a01613704565b955050604087013567ffffffffffffffff811115613a0b57600080fd5b613a1789828a01613704565b945050606087013567ffffffffffffffff811115613a3457600080fd5b613a4089828a01613704565b935050608087013567ffffffffffffffff811115613a5d57600080fd5b613a6989828a0161380b565b92505060a087013567ffffffffffffffff811115613a8657600080fd5b613a9289828a0161380b565b9150509295509295509295565b60008060408385031215613ab257600080fd5b60006138f485856137ff565b60008060008060808587031215613ad457600080fd5b6000613ae087876137ff565b9450506020613af1878288016137ff565b9350506040613b02878288016136f1565b925050606085013567ffffffffffffffff811115613b1f57600080fd5b613b2b8782880161380b565b91505092959194509250565b60008060008060008060c08789031215613b5057600080fd5b6000613b5c89896137ff565b9650506020613b6d89828a016137ff565b9550506040613b7e89828a016137ff565b9450506060613a4089828a016137ff565b600080600060608486031215613ba457600080fd5b6000613bb086866137ff565b9350506020613bc1868287016137ff565b9250506040613bd2868287016137ff565b9150509250925092565b600060208284031215613bee57600080fd5b600061387b8484613851565b60008060408385031215613c0d57600080fd5b60006138a285856137ff565b613c2281614749565b82525050565b6000613c338261473b565b808452602084019350613c4583614729565b60005b82811015613c7557613c5b868351613c19565b613c6482614729565b602096909601959150600101613c48565b5093949350505050565b6000613c8a8261473f565b808452602084019350613c9c8361472f565b60005b82811015613c7557613cb2868354613c19565b613cbb82614743565b602096909601959150600101613c9f565b6000613cd78261473b565b808452602084019350613ce983614729565b60005b82811015613c7557613cff868351613dbc565b613d0882614729565b602096909601959150600101613cec565b6000613d248261473b565b808452602084019350613d3683614729565b60005b82811015613c7557613d4c868351613dbc565b613d5582614729565b602096909601959150600101613d39565b6000613d718261473f565b808452602084019350613d838361472f565b60005b82811015613c7557613d99868354613dbc565b613da282614743565b602096909601959150600101613d86565b613c2281614755565b613c2281611ca9565b6000613dd08261473b565b808452613de48160208601602086016147bc565b613ded816147ec565b9093016020019392505050565b613c2281614784565b613c228161478f565b613c228161479a565b613c22816147a5565b601481527f556e7265676973746572656420776f726b65722e000000000000000000000000602082015260400190565b602681527f4e6f7420656e6f75676820746f6b656e7320616c6c6f77656420666f7220747260208201527f616e736665720000000000000000000000000000000000000000000000000000604082015260600190565b602181527f53656372657420636f6e747261637420616c7265616479206465706c6f79656460208201527f2e00000000000000000000000000000000000000000000000000000000000000604082015260600190565b601381527f496e76616c6964207461736b2073746174757300000000000000000000000000602082015260400190565b601e81527f496e76616c696420696e7075742073746174652064656c746120686173680000602082015260400190565b601281527f5472616e73666572206e6f742076616c69640000000000000000000000000000602082015260400190565b601581527f576f726b6572206e6f74206c6f6767656420696e2e0000000000000000000000602082015260400190565b602e81527f496e76616c696420696e7075742073746174652064656c74612068617368206660208201527f6f7220656d707479207374617465000000000000000000000000000000000000604082015260600190565b601481527f416c6c6f77616e6365206e6f7420656e6f756768000000000000000000000000602082015260400190565b601581527f576f726b6572206e6f7420726567697374657265640000000000000000000000602082015260400190565b602381527f496e76616c69642073746174652064656c746120686173686573206f7264657260208201527f696e670000000000000000000000000000000000000000000000000000000000604082015260600190565b602681527f4f6e6c7920746865205072696e636970616c2063616e2075706461746520746860208201527f6520736565640000000000000000000000000000000000000000000000000000604082015260600190565b601381527f5461736b20616c72656164792065786973742e00000000000000000000000000602082015260400190565b601d81527f53656372657420636f6e7472616374206e6f74206465706c6f7965642e000000602082015260400190565b601281527f496e76616c6964207369676e61747572652e0000000000000000000000000000602082015260400190565b603681527f4e6f20776f726b65727320706172616d657465727320656e74727920666f722060208201527f73706563696669656420626c6f636b206e756d62657200000000000000000000604082015260600190565b613c228161477e565b60208101612f4f8284613c19565b604081016142278285613c19565b6136fd6020830184613c19565b606081016142428286613c19565b61424f6020830185613dbc565b61387b6040830184613e03565b6040810161426a8285613c19565b818103602083015261387b8184613dc5565b6040810161428a8285613c19565b6136fd6020830184613dfa565b606081016142a58286613c19565b6142b26020830185613dfa565b61387b6040830184613dbc565b608081016142cd8287613c19565b6142da6020830186613e15565b81810360408301526142ec8185613dc5565b90506142fb6060830184613dbc565b95945050505050565b604081016143128285613c19565b6136fd6020830184613dbc565b602080825281016136fd8184613c28565b602080825281016136fd8184613ccc565b60a080825281016143528188613ccc565b905081810360208301526143668187613ccc565b9050818103604083015261437a8186613ccc565b9050818103606083015261438e8185613dc5565b905081810360808301526143a28184613dc5565b979650505050505050565b606080825281016143be8186613ccc565b905081810360208301526143d28185613d19565b905061387b6040830184613c19565b60208101612f4f8284613db3565b60208101612f4f8284613dbc565b604081016143128285613dbc565b60a081016144198288613dbc565b6144266020830187613dbc565b6144336040830186613dbc565b818103606083015261438e8185613dc5565b606081016144538286613dbc565b6144606020830185613dbc565b61387b6040830184613c19565b6080810161447b8287613dbc565b6144886020830186614202565b6144956040830185613dbc565b6142fb6060830184613dbc565b60208101612f4f8284613dfa565b60208082528101612f4f81613e1e565b60208082528101612f4f81613e4e565b60208082528101612f4f81613ea4565b60208082528101612f4f81613efa565b60208082528101612f4f81613f2a565b60208082528101612f4f81613f5a565b60208082528101612f4f81613f8a565b60208082528101612f4f81613fba565b60208082528101612f4f81614010565b60208082528101612f4f81614040565b60208082528101612f4f81614070565b60208082528101612f4f816140c6565b60208082528101612f4f8161411c565b60208082528101612f4f8161414c565b60208082528101612f4f8161417c565b60208082528101612f4f816141ac565b608081016145be8287613dbc565b81810360208301526145d08186613dc5565b90506145df6040830185613c19565b6142fb6060830184613e0c565b608081016145fa8287613dbc565b6146076020830186613dbc565b81810360408301526146198185613c28565b9050818103606083015261462d8184613c28565b9695505050505050565b608081016146458287613dbc565b6146526020830186613dbc565b81810360408301526146648185613c28565b9050818103606083015261462d8184613d19565b608081016146868287613dbc565b6146936020830186613dbc565b81810360408301526146a58185613c7f565b9050818103606083015261462d8184613d66565b60405181810167ffffffffffffffff811182821017156146d857600080fd5b604052919050565b600067ffffffffffffffff8211156146f757600080fd5b5060209081020190565b600067ffffffffffffffff82111561471857600080fd5b506020601f91909101601f19160190565b60200190565b60009081526020902090565b5190565b5490565b60010190565b600160a060020a031690565b151590565b6000600282106136aa57fe5b6000600382106136aa57fe5b6000600482106136aa57fe5b60ff1690565b6000612f4f82614749565b6000612f4f8261475a565b6000612f4f82614766565b6000612f4f82614772565b82818337506000910152565b60005b838110156147d75781810151838201526020016147bf565b838111156147e6576000848401525b50505050565b601f01601f1916905600a265627a7a723058204f546857a0bb767704c3d26363d1315c3e1aca5a8e4e31900e5ebdd6f6125f136c6578706572696d656e74616cf50037",
  "source": "pragma solidity ^0.4.24;\npragma experimental ABIEncoderV2;\n\nimport \"openzeppelin-solidity/contracts/math/SafeMath.sol\";\nimport \"openzeppelin-solidity/contracts/ECRecovery.sol\";\n\ncontract ERC20 {\n    function allowance(address owner, address spender) public view returns (uint256);\n\n    function transferFrom(address from, address to, uint256 value) public returns (bool);\n\n    function approve(address spender, uint256 value) public returns (bool);\n\n    function totalSupply() public view returns (uint256);\n\n    function balanceOf(address who) public view returns (uint256);\n\n    function transfer(address to, uint256 value) public returns (bool);\n\n    event Transfer(address indexed from, address indexed to, uint256 value);\n    event Approval(address indexed owner, address indexed spender, uint256 value);\n}\n\ncontract Enigma {\n    using SafeMath for uint256;\n    using ECRecovery for bytes32;\n\n    // The interface of the deployed ENG ERC20 token contract\n    ERC20 public engToken;\n\n    uint public epochSize = 100;\n\n    struct TaskRecord {\n        uint fee;\n        bytes proof; // Signature of (taskId, inStateDeltaHash, outStateDeltaHash, ethCall)\n        address sender;\n        TaskStatus status;\n    }\n    enum TaskStatus {RecordUndefined, RecordCreated, ReceiptVerified}\n\n    /**\n    * The signer address of the principal node\n    * This must be set when deploying the contract and remains immutable\n    * Since the signer address is derived from the public key of an\n    * SGX enclave, this ensures that the principal node cannot be tempered\n    * with or replaced.\n    */\n    address principal;\n\n    // The data representation of a worker (or node)\n    struct Worker {\n        address signer;\n        WorkerStatus status; // Uninitialized: 0; Active: 1; Inactive: 2\n        bytes report; // Decided to store this as one  RLP encoded attribute for easier external storage in the future\n        uint256 balance;\n    }\n\n    enum WorkerStatus {Unregistered, Registered, LoggedIn, LoggedOut}\n\n    /**\n    * The data representation of the worker parameters used as input for\n    * the worker selection algorithm\n    */\n    struct WorkersParams {\n        uint firstBlockNumber;\n        address[] workers;\n        uint[] balances;\n        uint seed;\n    }\n\n    struct SecretContract {\n        address owner;\n        bytes32 codeHash;\n        bytes32[] stateDeltaHashes;\n        SecretContractStatus status;\n        // TODO: consider keeping an index of taskIds\n    }\n    // TODO: do we want to have a contract lifecycle?\n    enum SecretContractStatus {Undefined, Deployed}\n\n    /**\n    * The last 5 worker parameters\n    * We keep a collection of worker parameters to account for latency issues.\n    * A computation task might be conceivably given out at a certain block number\n    * but executed at a later block in a different epoch. It follows that\n    * the contract must have access to the worker parameters effective when giving\n    * out the task, otherwise the selected worker would not match. We calculated\n    * that keeping the last 5 items should be more than enough to account for\n    * all latent tasks. Tasks results will be rejected past this limit.\n    */\n    WorkersParams[5] workersParams;\n\n    // An address-based index of all registered worker\n    address[] public workerAddresses;\n    // An address-based index of all secret contracts\n    bytes32[] public scAddresses;\n\n    // A registry of all registered workers with their attributes\n    mapping(address => Worker) public workers;\n    mapping(bytes32 => TaskRecord) public tasks;\n    mapping(bytes32 => SecretContract) public contracts;\n\n    // A mapping of number of secret contract deployments for each address\n    mapping(address => uint) public userSCDeployments;\n\n    // TODO: do we keep tasks forever? if not, when do we delete them?\n    uint stakingThreshold;\n    uint public workerGroupSize;\n\n    // The events emitted by the contract\n    event Registered(address custodian, address signer);\n    event ValidatedSig(bytes sig, bytes32 hash, address workerAddr);\n    event WorkersParameterized(uint seed, uint256 blockNumber, address[] workers, uint[] balances);\n    event TaskRecordCreated(bytes32 taskId, uint fee, address sender);\n    event TaskRecordsCreated(bytes32[] taskIds, uint[] fees, address sender);\n    event ReceiptVerified(bytes32 taskId, bytes32 inStateDeltaHash, bytes32 outStateDeltaHash, bytes ethCall, bytes sig);\n    event ReceiptsVerified(bytes32[] taskIds, bytes32[] inStateDeltaHashes, bytes32[] outStateDeltaHashes, bytes ethCall, bytes sig);\n    event DepositSuccessful(address from, uint value);\n    event SecretContractDeployed(bytes32 scAddr, bytes32 codeHash);\n\n    constructor(address _tokenAddress, address _principal) public {\n        engToken = ERC20(_tokenAddress);\n        principal = _principal;\n        stakingThreshold = 1;\n        workerGroupSize = 5;\n    }\n\n    //TODO: break down these methods into services for upgradability\n\n    /**\n    * Checks if the custodian wallet is registered as a worker\n    *\n    * @param _user The custodian address of the worker\n    */\n    modifier workerRegistered(address _user) {\n        Worker memory worker = workers[_user];\n        require(worker.status != WorkerStatus.Unregistered, \"Unregistered worker.\");\n        _;\n    }\n\n    /**\n    * Checks if the custodian wallet is logged in as a worker\n    *\n    * @param _user The custodian address of the worker\n    */\n    modifier workerLoggedIn(address _user) {\n        Worker memory worker = workers[_user];\n        require(worker.status == WorkerStatus.LoggedIn, \"Worker not logged in.\");\n        _;\n    }\n\n    modifier contractDeployed(bytes32 _scAddr) {\n        require(contracts[_scAddr].status == SecretContractStatus.Deployed, \"Secret contract not deployed.\");\n        _;\n    }\n\n    /**\n    * Registers a new worker of change the signer parameters of an existing\n    * worker. This should be called by every worker (and the principal)\n    * node in order to receive tasks.\n    *\n    * @param _signer The signer address, derived from the enclave public key\n    * @param _report The RLP encoded report returned by the IAS\n    */\n    function register(address _signer, bytes _report)\n    public\n    {\n        // TODO: consider exit if both signer and custodian as matching\n        // If the custodian is not already register, we add an index entry\n        if (workers[msg.sender].signer == 0x0) {\n            workerAddresses.push(msg.sender);\n        }\n\n        // Set the custodian attributes\n        workers[msg.sender].signer = _signer;\n        workers[msg.sender].balance = 0;\n        workers[msg.sender].report = _report;\n        workers[msg.sender].status = WorkerStatus.Registered;\n\n        emit Registered(msg.sender, _signer);\n    }\n\n    function deposit(address _custodian, uint _amount)\n    public\n    workerRegistered(_custodian)\n    {\n        require(engToken.allowance(_custodian, this) >= _amount, \"Not enough tokens allowed for transfer\");\n        require(engToken.transferFrom(_custodian, this, _amount));\n\n        workers[_custodian].balance = workers[_custodian].balance.add(_amount);\n\n        emit DepositSuccessful(_custodian, _amount);\n    }\n\n    function login() public workerRegistered(msg.sender) {\n        workers[msg.sender].status = WorkerStatus.LoggedIn;\n    }\n\n    function logout() public workerLoggedIn(msg.sender) {\n        workers[msg.sender].status = WorkerStatus.LoggedOut;\n    }\n\n    // TODO: should the scAddr be computed on-chain from the codeHash + some randomness\n    // TODO: should any user deploy a secret contract or only a trusted enclave?\n    function deploySecretContract(bytes32 _scAddr, bytes32 _codeHash, address _owner, bytes _sig)\n    public\n    workerRegistered(msg.sender)\n    {\n        bytes32 scAddr = keccak256(abi.encodePacked(_codeHash, _owner, userSCDeployments[_owner]));\n        require(scAddr == _scAddr);\n        require(contracts[_scAddr].status == SecretContractStatus.Undefined, \"Secret contract already deployed.\");\n        bytes32 msgHash = keccak256(abi.encodePacked(_codeHash));\n        address verifyAddr = msgHash.toEthSignedMessageHash().recover(_sig);\n        require(verifyAddr == _owner);\n\n        //TODO: is this too naive?\n        contracts[_scAddr].owner = _owner;\n        contracts[_scAddr].codeHash = _codeHash;\n        contracts[_scAddr].status = SecretContractStatus.Deployed;\n        scAddresses.push(_scAddr);\n        userSCDeployments[_owner]++;\n        emit SecretContractDeployed(scAddr, _codeHash);\n    }\n\n    function isDeployed(bytes32 _scAddr)\n    public\n    view\n    returns (bool)\n    {\n        if (contracts[_scAddr].status == SecretContractStatus.Deployed) {\n            return true;\n        } else {\n            return false;\n        }\n    }\n\n    function getCodeHash(bytes32 _scAddr)\n    public\n    view\n    contractDeployed(_scAddr)\n    returns (bytes32)\n    {\n        return contracts[_scAddr].codeHash;\n    }\n\n    function countSecretContracts()\n    public\n    view\n    returns (uint)\n    {\n        return scAddresses.length;\n    }\n\n    /**\n    * Selects address from _start up to, but not including, the _stop number\n    **/\n    function getSecretContractAddresses(uint _start, uint _stop)\n    public\n    view\n    returns (bytes32[])\n    {\n        if (_stop == 0) {\n            _stop = scAddresses.length;\n        }\n        bytes32[] memory addresses = new bytes32[](_stop.sub(_start));\n        uint pos = 0;\n        for (uint i = _start; i < _stop; i++) {\n            addresses[pos] = scAddresses[i];\n            pos++;\n        }\n        return addresses;\n    }\n\n    function countStateDeltas(bytes32 _scAddr)\n    public\n    view\n    contractDeployed(_scAddr)\n    returns (uint)\n    {\n        return contracts[_scAddr].stateDeltaHashes.length;\n    }\n\n    function getStateDeltaHash(bytes32 _scAddr, uint _index)\n    public\n    view\n    contractDeployed(_scAddr)\n    returns (bytes32)\n    {\n        return contracts[_scAddr].stateDeltaHashes[_index];\n    }\n\n    /**\n    * Selects state deltas from _start up to, but not including, the _stop number\n    **/\n    function getStateDeltaHashes(bytes32 _scAddr, uint _start, uint _stop)\n    public\n    view\n    contractDeployed(_scAddr)\n    returns (bytes32[])\n    {\n        if (_stop == 0) {\n            _stop = contracts[_scAddr].stateDeltaHashes.length;\n        }\n        bytes32[] memory deltas = new bytes32[](_stop.sub(_start));\n        uint pos = 0;\n        for (uint i = _start; i < _stop; i++) {\n            deltas[pos] = contracts[_scAddr].stateDeltaHashes[i];\n            pos++;\n        }\n        return deltas;\n    }\n\n    function isValidDeltaHash(bytes32 _scAddr, bytes32 _stateDeltaHash)\n    public\n    view\n    contractDeployed(_scAddr)\n    returns (bool)\n    {\n        bool valid = false;\n        for (uint i = 0; i < contracts[_scAddr].stateDeltaHashes.length; i++) {\n            if (contracts[_scAddr].stateDeltaHashes[i] == _stateDeltaHash) {\n                valid = true;\n                break;\n            }\n        }\n        return valid;\n    }\n\n    /**\n    * Store task record\n    *\n    */\n    function createTaskRecord(\n        bytes32 _taskId,\n        uint _fee\n    )\n    public\n    {\n        require(tasks[_taskId].sender == 0x0, \"Task already exist.\");\n        require(engToken.allowance(msg.sender, this) >= _fee, \"Allowance not enough\");\n        require(engToken.transferFrom(msg.sender, this, _fee), \"Transfer not valid\");\n\n        tasks[_taskId].fee = _fee;\n        tasks[_taskId].sender = msg.sender;\n        tasks[_taskId].status = TaskStatus.RecordCreated;\n\n        emit TaskRecordCreated(_taskId, _fee, msg.sender);\n    }\n\n    function createTaskRecords(\n        bytes32[] _taskIds,\n        uint[] _fees\n    )\n    public\n    {\n        for (uint i = 0; i < _taskIds.length; i++) {\n            require(tasks[_taskIds[i]].sender == 0x0, \"Task already exist.\");\n            require(engToken.allowance(msg.sender, this) >= _fees[i], \"Allowance not enough\");\n            require(engToken.transferFrom(msg.sender, this, _fees[i]), \"Transfer not valid\");\n\n            tasks[_taskIds[i]].fee = _fees[i];\n            tasks[_taskIds[i]].sender = msg.sender;\n            tasks[_taskIds[i]].status = TaskStatus.RecordCreated;\n        }\n        emit TaskRecordsCreated(_taskIds, _fees, msg.sender);\n    }\n\n    // Execute the encoded function in the specified contract\n    function executeCall(address _to, uint256 _value, bytes _data)\n    internal\n    returns (bool success)\n    {\n        assembly {\n            success := call(gas, _to, _value, add(_data, 0x20), mload(_data), 0, 0)\n        }\n    }\n\n    function verifyReceipt(\n        bytes32 _scAddr,\n        bytes32 _taskId,\n        bytes32 _inStateDeltaHash,\n        bytes32 _outStateDeltaHash,\n        bytes _ethCall,\n        bytes _sig\n    )\n    internal\n    {\n        uint index = contracts[_scAddr].stateDeltaHashes.length;\n        if (index == 0) {\n            require(_inStateDeltaHash == 0x0, 'Invalid input state delta hash for empty state');\n        } else {\n            require(_inStateDeltaHash == contracts[_scAddr].stateDeltaHashes[index.sub(1)], 'Invalid input state delta hash');\n        }\n        contracts[_scAddr].stateDeltaHashes.push(_outStateDeltaHash);\n\n        // TODO: execute the Ethereum calls\n\n        // Build a hash to validate that the I/Os are matching\n        bytes32 hash = keccak256(abi.encodePacked(_taskId, _inStateDeltaHash, _outStateDeltaHash, _ethCall));\n\n        // The worker address is not a real Ethereum wallet address but\n        // one generated from its signing key\n        address workerAddr = hash.recover(_sig);\n        require(workerAddr == workers[msg.sender].signer, \"Invalid signature.\");\n    }\n\n    /**\n    * Commit the computation task results on chain\n    */\n    function commitReceipt(\n        bytes32 _scAddr,\n        bytes32 _taskId,\n        bytes32 _inStateDeltaHash,\n        bytes32 _outStateDeltaHash,\n        bytes _ethCall,\n        bytes _sig\n    )\n    public\n    workerLoggedIn(msg.sender)\n    contractDeployed(_scAddr)\n    {\n        require(tasks[_taskId].status == TaskStatus.RecordCreated, 'Invalid task status');\n        verifyReceipt(_scAddr, _taskId, _inStateDeltaHash, _outStateDeltaHash, _ethCall, _sig);\n\n        tasks[_taskId].proof = _sig;\n        tasks[_taskId].status = TaskStatus.ReceiptVerified;\n        workers[msg.sender].balance = workers[msg.sender].balance.add(tasks[_taskId].fee);\n        emit ReceiptVerified(_taskId, _inStateDeltaHash, _outStateDeltaHash, _ethCall, _sig);\n    }\n\n    function verifyReceipts(\n        bytes32 _scAddr,\n        bytes32[] _taskIds,\n        bytes32[] _inStateDeltaHashes,\n        bytes32[] _outStateDeltaHashes,\n        bytes _ethCall,\n        bytes _sig\n    )\n    internal\n    {\n        // First, we verify the state delta hashes ordering\n        uint index = contracts[_scAddr].stateDeltaHashes.length;\n        if (index == 0) {\n            require(_inStateDeltaHashes[0] == 0x0, 'Invalid input state delta hash for empty state');\n        } else {\n            require(_inStateDeltaHashes[0] == contracts[_scAddr].stateDeltaHashes[index.sub(1)], 'Invalid input state delta hash');\n        }\n        for (uint i = 0; i < _taskIds.length; i++) {\n            require(tasks[_taskIds[i]].status == TaskStatus.RecordCreated, 'Invalid task status');\n            if (i > 0) {\n                require(_inStateDeltaHashes[i] == _outStateDeltaHashes[i - 1], 'Invalid state delta hashes ordering');\n            }\n        }\n        // TODO: verify signature\n        // Then, we store the outStateDeltaHashes\n        for (uint ic = 0; ic < _taskIds.length; ic++) {\n            contracts[_scAddr].stateDeltaHashes.push(_outStateDeltaHashes[ic]);\n            if (ic == _taskIds.length.sub(1)) {\n                tasks[_taskIds[ic]].proof = _sig;\n            }\n            tasks[_taskIds[ic]].status = TaskStatus.ReceiptVerified;\n            workers[msg.sender].balance = workers[msg.sender].balance.add(tasks[_taskIds[ic]].fee);\n        }\n        // TODO: execute the Ethereum calls\n    }\n\n    function commitReceipts(\n        bytes32 _scAddr,\n        bytes32[] _taskIds,\n        bytes32[] _inStateDeltaHashes,\n        bytes32[] _outStateDeltaHashes,\n        bytes _ethCall,\n        bytes _sig\n    )\n    public\n    workerLoggedIn(msg.sender)\n    contractDeployed(_scAddr)\n    {\n        verifyReceipts(_scAddr, _taskIds, _inStateDeltaHashes, _outStateDeltaHashes, _ethCall, _sig);\n        emit ReceiptsVerified(_taskIds, _inStateDeltaHashes, _outStateDeltaHashes, _ethCall, _sig);\n    }\n\n    // Verify the signature submitted while reparameterizing workers\n    function verifyParamsSig(uint256 _seed, bytes _sig)\n    internal\n    pure\n    returns (address)\n    {\n        bytes32 hash = keccak256(abi.encodePacked(_seed));\n        address signer = hash.recover(_sig);\n        return signer;\n    }\n\n    /**\n    * Reparameterizing workers with a new seed\n    * This should be called for each epoch by the Principal node\n    *\n    * @param _seed The random integer generated by the enclave\n    * @param _sig The random integer signed by the the principal node's enclave\n    */\n    function setWorkersParams(uint _seed, bytes _sig)\n    public\n    workerRegistered(msg.sender)\n    {\n        // Reparameterizing workers with a new seed\n        // This should be called for each epoch by the Principal node\n\n        // We assume that the Principal is always the first registered node\n        require(workers[msg.sender].signer == principal, \"Only the Principal can update the seed\");\n        // TODO: verify the principal sig\n\n        // Create a new workers parameters item for the specified seed.\n        // The workers parameters list is a sort of cache, it never grows beyond its limit.\n        // If the list is full, the new item will replace the item assigned to the lowest block number.\n        uint paramIndex = 0;\n        for (uint pi = 0; pi < workersParams.length; pi++) {\n            // Find an empty slot in the array, if full use the lowest block number\n            if (workersParams[pi].firstBlockNumber == 0) {\n                paramIndex = pi;\n                break;\n            } else if (workersParams[pi].firstBlockNumber < workersParams[paramIndex].firstBlockNumber) {\n                paramIndex = pi;\n            }\n        }\n        workersParams[paramIndex].firstBlockNumber = block.number;\n        workersParams[paramIndex].seed = _seed;\n\n        // Copy the current worker list\n        uint workerIndex = 0;\n        for (uint wi = 0; wi < workerAddresses.length; wi++) {\n            Worker memory worker = workers[workerAddresses[wi]];\n            if ((worker.balance >= stakingThreshold) && (worker.signer != principal) &&\n                (worker.status == WorkerStatus.LoggedIn)) {\n                workersParams[paramIndex].workers.length++;\n                workersParams[paramIndex].workers[workerIndex] = workerAddresses[wi];\n\n                workersParams[paramIndex].balances.length++;\n                workersParams[paramIndex].balances[workerIndex] = worker.balance;\n\n                workerIndex = workerIndex.add(1);\n            }\n        }\n        emit WorkersParameterized(_seed, block.number, workersParams[paramIndex].workers, workersParams[paramIndex].balances);\n    }\n\n    function getWorkerParamsIndex(uint _blockNumber)\n    internal\n    view\n    returns (uint)\n    {\n        // The workers parameters for a given block number\n        int8 index = - 1;\n        for (uint i = 0; i < workersParams.length; i++) {\n            if (workersParams[i].firstBlockNumber <= _blockNumber && (index == - 1 || workersParams[i].firstBlockNumber > workersParams[uint(index)].firstBlockNumber)) {\n                index = int8(i);\n            }\n        }\n        require(index != - 1, \"No workers parameters entry for specified block number\");\n        return uint(index);\n    }\n\n    function getWorkerParams(uint _blockNumber)\n    public\n    view\n    returns (uint, uint, address[], uint[]) {\n        uint index = getWorkerParamsIndex(_blockNumber);\n        WorkersParams memory params = workersParams[index];\n        return (params.firstBlockNumber, params.seed, params.workers, params.balances);\n    }\n\n    function compileTokens(uint _blockNumber, uint _paramIndex, bytes32 _scAddr, uint _nonce)\n    internal\n    view\n    returns (address)\n    {\n        WorkersParams memory params = workersParams[_paramIndex];\n        uint tokenCpt = 0;\n        for (uint i = 0; i < params.workers.length; i++) {\n            if (params.workers[i] != 0x0) {\n                tokenCpt = tokenCpt.add(params.balances[i]);\n            }\n        }\n        bytes32 randHash = keccak256(abi.encodePacked(_blockNumber, params.seed, params.firstBlockNumber, _scAddr,\n            tokenCpt, _nonce));\n        int randVal = int256(uint256(randHash) % tokenCpt);\n        for (uint k = 0; k < params.workers.length; k++) {\n            if (params.workers[k] != 0x0) {\n                randVal -= int256(params.balances[k]);\n                if (randVal <= 0) {\n                    return params.workers[k];\n                }\n            }\n        }\n        return params.workers[params.workers.length - 1];\n    }\n\n    function getWorkerGroup(uint _blockNumber, bytes32 _scAddr)\n    public\n    view\n    returns (address[])\n    {\n        // Compile a list of selected workers for the block number and\n        // secret contract.\n        uint paramIndex = getWorkerParamsIndex(_blockNumber);\n        WorkersParams memory params = workersParams[paramIndex];\n\n        address[] memory selectedWorkers = new address[](workerGroupSize);\n        uint nonce = 0;\n        for (uint it = 0; it < workerGroupSize; it++) {\n            do {\n                address worker = compileTokens(_blockNumber, paramIndex, _scAddr, nonce);\n                bool dup = false;\n                for (uint id = 0; id < selectedWorkers.length; id++) {\n                    if (worker == selectedWorkers[id]) {\n                        dup = true;\n                        break;\n                    }\n                }\n                if (dup == false) {\n                    selectedWorkers[it] = worker;\n                }\n                nonce++;\n            }\n            while (selectedWorkers[it] == 0x0);\n        }\n        return selectedWorkers;\n    }\n\n    /**\n    * The worker parameters corresponding to the specified block number\n    *\n    * @param _blockNumber The reference block number\n    */\n    function getWorkersParams(uint _blockNumber)\n    public\n    view\n    returns (uint, uint, address[], address[])\n    {\n        // TODO: finalize implementation\n        uint firstBlockNumber = 0;\n        uint seed = 0;\n        address[] memory activeWorkers;\n        address[] memory activeContracts;\n        return (firstBlockNumber, seed, activeWorkers, activeContracts);\n    }\n\n    /**\n    * The RLP encoded report returned by the IAS server\n    *\n    * @param _custodian The worker's custodian address\n    */\n    function getReport(address _custodian)\n    public\n    view\n    workerRegistered(_custodian)\n    returns (address, bytes)\n    {\n        // The RLP encoded report and signer's address for the specified worker\n        require(workers[_custodian].signer != 0x0, \"Worker not registered\");\n        return (workers[_custodian].signer, workers[_custodian].report);\n    }\n}\n",
  "sourcePath": "/Users/adityapalepu/Startups/enigma/enigma-contract-internal/contracts/Enigma.sol",
  "compiler": {
    "name": "solc",
    "version": "0.4.24+commit.e67f0147.Emscripten.clang"
  },
  "schemaVersion": "2.0.0",
  "updatedAt": "2018-12-26T17:10:22.754Z"
}