{
  "contractName": "Enigma",
  "abi": [
    {
      "constant": true,
      "inputs": [
        {
          "name": "",
          "type": "address"
        }
      ],
      "name": "_validators",
      "outputs": [
        {
          "name": "",
          "type": "uint256"
        }
      ],
      "payable": false,
      "stateMutability": "view",
      "type": "function"
    },
    {
      "inputs": [],
      "payable": false,
      "stateMutability": "nonpayable",
      "type": "constructor"
    },
    {
      "anonymous": false,
      "inputs": [
        {
          "indexed": false,
          "name": "secretContract",
          "type": "address"
        },
        {
          "indexed": false,
          "name": "name",
          "type": "bytes32"
        },
        {
          "indexed": false,
          "name": "_success",
          "type": "bool"
        }
      ],
      "name": "Register",
      "type": "event"
    },
    {
      "anonymous": false,
      "inputs": [
        {
          "indexed": false,
          "name": "secretContract",
          "type": "address"
        },
        {
          "indexed": false,
          "name": "user",
          "type": "address"
        },
        {
          "indexed": false,
          "name": "token",
          "type": "address"
        },
        {
          "indexed": false,
          "name": "amount",
          "type": "uint256"
        },
        {
          "indexed": false,
          "name": "balance",
          "type": "uint256"
        },
        {
          "indexed": false,
          "name": "_success",
          "type": "bool"
        }
      ],
      "name": "Deposit",
      "type": "event"
    },
    {
      "anonymous": false,
      "inputs": [
        {
          "indexed": false,
          "name": "secretContract",
          "type": "address"
        },
        {
          "indexed": false,
          "name": "user",
          "type": "address"
        },
        {
          "indexed": false,
          "name": "token",
          "type": "address"
        },
        {
          "indexed": false,
          "name": "amount",
          "type": "uint256"
        },
        {
          "indexed": false,
          "name": "balance",
          "type": "uint256"
        },
        {
          "indexed": false,
          "name": "_success",
          "type": "bool"
        }
      ],
      "name": "Withdraw",
      "type": "event"
    },
    {
      "anonymous": false,
      "inputs": [
        {
          "indexed": false,
          "name": "secretContract",
          "type": "address"
        },
        {
          "indexed": false,
          "name": "hashes",
          "type": "bytes32"
        },
        {
          "indexed": false,
          "name": "_success",
          "type": "bool"
        }
      ],
      "name": "ApplyComputations",
      "type": "event"
    },
    {
      "constant": false,
      "inputs": [
        {
          "name": "secretContract",
          "type": "address"
        },
        {
          "name": "name",
          "type": "bytes32"
        }
      ],
      "name": "register",
      "outputs": [],
      "payable": false,
      "stateMutability": "nonpayable",
      "type": "function"
    },
    {
      "constant": false,
      "inputs": [
        {
          "name": "secretContract",
          "type": "address"
        },
        {
          "name": "user",
          "type": "address"
        }
      ],
      "name": "handleDeposit",
      "outputs": [
        {
          "name": "",
          "type": "uint8"
        }
      ],
      "payable": true,
      "stateMutability": "payable",
      "type": "function"
    },
    {
      "constant": false,
      "inputs": [
        {
          "name": "secretContract",
          "type": "address"
        },
        {
          "name": "token",
          "type": "address"
        },
        {
          "name": "amount",
          "type": "uint256"
        }
      ],
      "name": "depositToken",
      "outputs": [],
      "payable": false,
      "stateMutability": "nonpayable",
      "type": "function"
    },
    {
      "constant": false,
      "inputs": [
        {
          "name": "secretContract",
          "type": "address"
        },
        {
          "name": "token",
          "type": "address"
        },
        {
          "name": "amount",
          "type": "uint256"
        }
      ],
      "name": "withdrawToken",
      "outputs": [],
      "payable": false,
      "stateMutability": "nonpayable",
      "type": "function"
    }
  ],
  "bytecode": "0x6060604052341561000f57600080fd5b610b158061001e6000396000f30060606040526004361061006d576000357c0100000000000000000000000000000000000000000000000000000000900463ffffffff16806301e33667146100725780631e7a505f146100d3578063d7cb54a214610119578063f64752d314610166578063fb0f97a8146101d5575b600080fd5b341561007d57600080fd5b6100d1600480803573ffffffffffffffffffffffffffffffffffffffff1690602001909190803573ffffffffffffffffffffffffffffffffffffffff16906020019091908035906020019091905050610236565b005b34156100de57600080fd5b610117600480803573ffffffffffffffffffffffffffffffffffffffff1690602001909190803560001916906020019091905050610523565b005b341561012457600080fd5b610150600480803573ffffffffffffffffffffffffffffffffffffffff1690602001909190505061074b565b6040518082815260200191505060405180910390f35b6101b1600480803573ffffffffffffffffffffffffffffffffffffffff1690602001909190803573ffffffffffffffffffffffffffffffffffffffff16906020019091905050610763565b604051808260018111156101c157fe5b60ff16815260200191505060405180910390f35b34156101e057600080fd5b610234600480803573ffffffffffffffffffffffffffffffffffffffff1690602001909190803573ffffffffffffffffffffffffffffffffffffffff1690602001909190803590602001909190505061085d565b005b60008073ffffffffffffffffffffffffffffffffffffffff168473ffffffffffffffffffffffffffffffffffffffff1614151561027257600080fd5b600082141561028057600080fd5b6000808573ffffffffffffffffffffffffffffffffffffffff1673ffffffffffffffffffffffffffffffffffffffff1681526020019081526020016000209050600081600001546000191614156102d657600080fd5b818160010160008573ffffffffffffffffffffffffffffffffffffffff1673ffffffffffffffffffffffffffffffffffffffff16815260200190815260200160002054101561032457600080fd5b61036f8160010160008573ffffffffffffffffffffffffffffffffffffffff1673ffffffffffffffffffffffffffffffffffffffff1681526020019081526020016000205483610a97565b8160010160008573ffffffffffffffffffffffffffffffffffffffff1673ffffffffffffffffffffffffffffffffffffffff168152602001908152602001600020819055503373ffffffffffffffffffffffffffffffffffffffff166108fc839081150290604051600060405180830381858888f1935050505015156103f457600080fd5b7f29b9ee25b8699c4afc8ec39dc60907c66831c45623cdef2010c8bb5635e76418843385858560010160008973ffffffffffffffffffffffffffffffffffffffff1673ffffffffffffffffffffffffffffffffffffffff168152602001908152602001600020546001604051808773ffffffffffffffffffffffffffffffffffffffff1673ffffffffffffffffffffffffffffffffffffffff1681526020018673ffffffffffffffffffffffffffffffffffffffff1673ffffffffffffffffffffffffffffffffffffffff1681526020018573ffffffffffffffffffffffffffffffffffffffff1673ffffffffffffffffffffffffffffffffffffffff16815260200184815260200183815260200182151515158152602001965050505050505060405180910390a150505050565b60008060008473ffffffffffffffffffffffffffffffffffffffff1673ffffffffffffffffffffffffffffffffffffffff168152602001908152602001600020600001546000191614151561057757600080fd5b806000808473ffffffffffffffffffffffffffffffffffffffff1673ffffffffffffffffffffffffffffffffffffffff168152602001908152602001600020600001816000191690555060008060008473ffffffffffffffffffffffffffffffffffffffff1673ffffffffffffffffffffffffffffffffffffffff16815260200190815260200160002060010160008073ffffffffffffffffffffffffffffffffffffffff1673ffffffffffffffffffffffffffffffffffffffff1681526020019081526020016000208190555060008060008473ffffffffffffffffffffffffffffffffffffffff1673ffffffffffffffffffffffffffffffffffffffff168152602001908152602001600020600101600073f0ee6b27b759c9893ce4f094b49ad28fd15a23e473ffffffffffffffffffffffffffffffffffffffff168152602001908152602001600020819055507fd9b9ff481aaf04891d47bfe5a7a8a81783225806222fbd9d12cbda2f29128aa982826001604051808473ffffffffffffffffffffffffffffffffffffffff1673ffffffffffffffffffffffffffffffffffffffff168152602001836000191660001916815260200182151515158152602001935050505060405180910390a15050565b60026020528060005260406000206000915090505481565b600080600090507f971ee547d75474a5cde4443be743892dd2f75b78790a8ce73af7dccda9fe4c3a84848334346001604051808773ffffffffffffffffffffffffffffffffffffffff1673ffffffffffffffffffffffffffffffffffffffff1681526020018673ffffffffffffffffffffffffffffffffffffffff1673ffffffffffffffffffffffffffffffffffffffff1681526020018573ffffffffffffffffffffffffffffffffffffffff1673ffffffffffffffffffffffffffffffffffffffff16815260200184815260200183815260200182151515158152602001965050505050505060405180910390a1600091505092915050565b6000808373ffffffffffffffffffffffffffffffffffffffff16141561088257600080fd5b6000808573ffffffffffffffffffffffffffffffffffffffff1673ffffffffffffffffffffffffffffffffffffffff1681526020019081526020016000209050600081600001546000191614156108d857600080fd5b6109238160010160008573ffffffffffffffffffffffffffffffffffffffff1673ffffffffffffffffffffffffffffffffffffffff1681526020019081526020016000205483610ab0565b8160010160008573ffffffffffffffffffffffffffffffffffffffff1673ffffffffffffffffffffffffffffffffffffffff168152602001908152602001600020819055507f971ee547d75474a5cde4443be743892dd2f75b78790a8ce73af7dccda9fe4c3a843385858560010160008973ffffffffffffffffffffffffffffffffffffffff1673ffffffffffffffffffffffffffffffffffffffff168152602001908152602001600020546001604051808773ffffffffffffffffffffffffffffffffffffffff1673ffffffffffffffffffffffffffffffffffffffff1681526020018673ffffffffffffffffffffffffffffffffffffffff1673ffffffffffffffffffffffffffffffffffffffff1681526020018573ffffffffffffffffffffffffffffffffffffffff1673ffffffffffffffffffffffffffffffffffffffff16815260200184815260200183815260200182151515158152602001965050505050505060405180910390a150505050565b6000610aa583831115610ada565b818303905092915050565b6000808284019050610ad0848210158015610acb5750838210155b610ada565b8091505092915050565b801515610ae657600080fd5b505600a165627a7a72305820a8d9c52ed952588836f90baa868469a642c9c275e7d88370008ad61a773152d90029",
  "source": "pragma solidity ^0.4.19;\n\ncontract SafeMath {\n    function safeMul(uint a, uint b) internal returns (uint) {\n        uint c = a * b;\n        assert(a == 0 || c / a == b);\n        return c;\n    }\n\n    function safeSub(uint a, uint b) internal returns (uint) {\n        assert(b <= a);\n        return a - b;\n    }\n\n    function safeAdd(uint a, uint b) internal returns (uint) {\n        uint c = a + b;\n        assert(c >= a && c >= b);\n        return c;\n    }\n\n    function assert(bool assertion) internal {\n        if (!assertion) throw;\n    }\n}\n\ncontract Enigma is SafeMath {\n    struct SecretContract {\n        bytes32 name;\n        mapping(address => uint) balance;\n        mapping(bytes32 => mapping(address => uint)) computations; // Computation hash mapped to fees\n    }\n\n    mapping(address => SecretContract) _secretContracts;\n    mapping(address => uint) _bank;\n    mapping(address => uint) public _validators; // funds assigned to validators\n\n    event Register(address secretContract, bytes32 name, bool _success);\n    event Deposit(address secretContract, address user, address token, uint amount, uint balance, bool _success);\n    event Withdraw(address secretContract, address user, address token, uint amount, uint balance, bool _success);\n    event ApplyComputations(address secretContract, bytes32 hashes, bool _success);\n\n    enum ReturnValue {Ok, Error}\n\n    function Enigma() public {\n\n    }\n\n    function register(address secretContract, bytes32 name) {\n        if (_secretContracts[secretContract].name != \"\") revert();\n\n        _secretContracts[secretContract].name = name;\n        _secretContracts[secretContract].balance[0x0000000000000000000000000000000000000000] = 0;\n        _secretContracts[secretContract].balance[0xf0ee6b27b759c9893ce4f094b49ad28fd15a23e4] = 0;\n\n        Register(secretContract, name, true);\n    }\n\n    //    function applyComputations(address secretContract, bytes32[] hashes, mapping(address => uint)[] fees, address[][] validators) {\n    //        SecretContract sc = _secretContracts[secretContract];\n    //        if (sc.name == \"\") revert();\n    //\n    ////        for (uint i = 0; i < hashes.length; i++) {\n    ////            sc.computations[hashes[i]] = fees[i];\n    ////\n    ////            // Divide the ENG computation fees between validators\n    ////            // TODO: reward the worker\n    ////            uint reward = fees[i][0xf0ee6b27b759c9893ce4f094b49ad28fd15a23e4] / validators[i].length;\n    ////            for (uint iv = 0; iv < validators[i].length; iv++) {\n    ////                if (_validators[validators[i][iv]] > 0) {\n    ////                    _validators[validators[i][iv]] = safeAdd(_validators[validators[i][iv]], reward);\n    ////                } else {\n    ////                    _validators[validators[i][iv]] = reward;\n    ////                }\n    ////            }\n    ////        }\n    ////        ApplyComputations(secretContract, hashes, true);\n    //    }\n\n    function handleDeposit(address secretContract, address user) public payable returns (ReturnValue){\n//        SecretContract sc = _secretContracts[secretContract];\n//        if (sc.name == \"\") revert();\n\n        address token = 0x0000000000000000000000000000000000000000;\n        Deposit(secretContract, user, token, msg.value, msg.value, true);\n        return ReturnValue.Ok;\n    }\n\n    function depositToken(address secretContract, address token, uint amount) {\n        if (token == 0) revert();\n\n        SecretContract sc = _secretContracts[secretContract];\n        if (sc.name == \"\") revert();\n\n        sc.balance[token] = safeAdd(sc.balance[token], amount);\n        Deposit(secretContract, msg.sender, token, amount, sc.balance[token], true);\n    }\n\n    function withdrawToken(address secretContract, address token, uint amount) {\n        // TODO: implement support for the ENG token\n        if (secretContract != 0x0000000000000000000000000000000000000000) revert();\n        if (amount == 0) revert();\n\n        SecretContract sc = _secretContracts[secretContract];\n        if (sc.name == \"\") revert();\n        if (sc.balance[token] < amount) revert();\n\n        sc.balance[token] = safeSub(sc.balance[token], amount);\n        msg.sender.transfer(amount);\n        Withdraw(secretContract, msg.sender, token, amount, sc.balance[token], true);\n    }\n}\n",
  "sourcePath": "/Users/fredfortier/Code/enigma/coin-mixer-poc/dapp/contracts/Enigma.sol",
  "compiler": {
    "name": "solc",
    "version": "0.4.19+commit.c4cbbb05.Emscripten.clang"
  },
  "schemaVersion": "2.0.0",
  "updatedAt": "2018-03-23T01:00:55.627Z"
}