{
  "contractName": "Enigma",
  "abi": [
    {
      "constant": true,
      "inputs": [
        {
          "name": "",
          "type": "uint256"
        }
      ],
      "name": "workerAddresses",
      "outputs": [
        {
          "name": "",
          "type": "address"
        }
      ],
      "payable": false,
      "stateMutability": "view",
      "type": "function",
      "signature": "0x0a318da0"
    },
    {
      "constant": true,
      "inputs": [
        {
          "name": "",
          "type": "address"
        }
      ],
      "name": "workers",
      "outputs": [
        {
          "name": "signer",
          "type": "address"
        },
        {
          "name": "status",
          "type": "uint8"
        },
        {
          "name": "report",
          "type": "bytes"
        },
        {
          "name": "balance",
          "type": "uint256"
        }
      ],
      "payable": false,
      "stateMutability": "view",
      "type": "function",
      "signature": "0x4048a257"
    },
    {
      "constant": true,
      "inputs": [],
      "name": "epochSize",
      "outputs": [
        {
          "name": "",
          "type": "uint256"
        }
      ],
      "payable": false,
      "stateMutability": "view",
      "type": "function",
      "signature": "0x572d356e"
    },
    {
      "constant": true,
      "inputs": [
        {
          "name": "",
          "type": "uint256"
        }
      ],
      "name": "scAddresses",
      "outputs": [
        {
          "name": "",
          "type": "bytes32"
        }
      ],
      "payable": false,
      "stateMutability": "view",
      "type": "function",
      "signature": "0x5f0dd5bb"
    },
    {
      "constant": true,
      "inputs": [
        {
          "name": "",
          "type": "address"
        }
      ],
      "name": "userTaskDeployments",
      "outputs": [
        {
          "name": "",
          "type": "uint256"
        }
      ],
      "payable": false,
      "stateMutability": "view",
      "type": "function",
      "signature": "0x5f7a6ff3"
    },
    {
      "constant": true,
      "inputs": [],
      "name": "engToken",
      "outputs": [
        {
          "name": "",
          "type": "address"
        }
      ],
      "payable": false,
      "stateMutability": "view",
      "type": "function",
      "signature": "0x9489ad40"
    },
    {
      "constant": true,
      "inputs": [],
      "name": "workerGroupSize",
      "outputs": [
        {
          "name": "",
          "type": "uint256"
        }
      ],
      "payable": false,
      "stateMutability": "view",
      "type": "function",
      "signature": "0xa3edd784"
    },
    {
      "constant": true,
      "inputs": [
        {
          "name": "",
          "type": "bytes32"
        }
      ],
      "name": "tasks",
      "outputs": [
        {
          "name": "fee",
          "type": "uint256"
        },
        {
          "name": "proof",
          "type": "bytes"
        },
        {
          "name": "sender",
          "type": "address"
        },
        {
          "name": "status",
          "type": "uint8"
        }
      ],
      "payable": false,
      "stateMutability": "view",
      "type": "function",
      "signature": "0xe579f500"
    },
    {
      "constant": true,
      "inputs": [
        {
          "name": "",
          "type": "bytes32"
        }
      ],
      "name": "contracts",
      "outputs": [
        {
          "name": "owner",
          "type": "address"
        },
        {
          "name": "codeHash",
          "type": "bytes32"
        },
        {
          "name": "status",
          "type": "uint8"
        }
      ],
      "payable": false,
      "stateMutability": "view",
      "type": "function",
      "signature": "0xec56a373"
    },
    {
      "inputs": [
        {
          "name": "_tokenAddress",
          "type": "address"
        },
        {
          "name": "_principal",
          "type": "address"
        }
      ],
      "payable": false,
      "stateMutability": "nonpayable",
      "type": "constructor",
      "signature": "constructor"
    },
    {
      "anonymous": false,
      "inputs": [
        {
          "indexed": false,
          "name": "custodian",
          "type": "address"
        },
        {
          "indexed": false,
          "name": "signer",
          "type": "address"
        }
      ],
      "name": "Registered",
      "type": "event",
      "signature": "0x0a31ee9d46a828884b81003c8498156ea6aa15b9b54bdd0ef0b533d9eba57e55"
    },
    {
      "anonymous": false,
      "inputs": [
        {
          "indexed": false,
          "name": "sig",
          "type": "bytes"
        },
        {
          "indexed": false,
          "name": "hash",
          "type": "bytes32"
        },
        {
          "indexed": false,
          "name": "workerAddr",
          "type": "address"
        }
      ],
      "name": "ValidatedSig",
      "type": "event",
      "signature": "0xe36691ca52ee024e298e5c0ff07191b87f0ac571c01a7631db2d70d573d955cb"
    },
    {
      "anonymous": false,
      "inputs": [
        {
          "indexed": false,
          "name": "seed",
          "type": "uint256"
        },
        {
          "indexed": false,
          "name": "blockNumber",
          "type": "uint256"
        },
        {
          "indexed": false,
          "name": "workers",
          "type": "address[]"
        },
        {
          "indexed": false,
          "name": "balances",
          "type": "uint256[]"
        },
        {
          "indexed": false,
          "name": "nonce",
          "type": "uint256"
        }
      ],
      "name": "WorkersParameterized",
      "type": "event",
      "signature": "0xcdfdbdd264b9f454c9c98dc0d0b5c0a0f683c704db2233ff53b4d4f826c790cb"
    },
    {
      "anonymous": false,
      "inputs": [
        {
          "indexed": false,
          "name": "taskId",
          "type": "bytes32"
        },
        {
          "indexed": false,
          "name": "fee",
          "type": "uint256"
        },
        {
          "indexed": false,
          "name": "sender",
          "type": "address"
        }
      ],
      "name": "TaskRecordCreated",
      "type": "event",
      "signature": "0xf1c0c18d5573c419035509d5b8bf3f97ce7b92cca68bccbde847516f66d6fe05"
    },
    {
      "anonymous": false,
      "inputs": [
        {
          "indexed": false,
          "name": "taskIds",
          "type": "bytes32[]"
        },
        {
          "indexed": false,
          "name": "fees",
          "type": "uint256[]"
        },
        {
          "indexed": false,
          "name": "sender",
          "type": "address"
        }
      ],
      "name": "TaskRecordsCreated",
      "type": "event",
      "signature": "0xacd4eaf0bf2790219699c0a2d47f13405b81c59f5ff0bb951a71a29c94a6d774"
    },
    {
      "anonymous": false,
      "inputs": [
        {
          "indexed": false,
          "name": "taskId",
          "type": "bytes32"
        },
        {
          "indexed": false,
          "name": "inStateDeltaHash",
          "type": "bytes32"
        },
        {
          "indexed": false,
          "name": "outStateDeltaHash",
          "type": "bytes32"
        },
        {
          "indexed": false,
          "name": "ethCall",
          "type": "bytes"
        },
        {
          "indexed": false,
          "name": "sig",
          "type": "bytes"
        }
      ],
      "name": "ReceiptVerified",
      "type": "event",
      "signature": "0x665329bb9a4e1062edc215d9c5ab57fa54c4c88e3dfbcc68e0cd92fdd010fa6e"
    },
    {
      "anonymous": false,
      "inputs": [
        {
          "indexed": false,
          "name": "taskIds",
          "type": "bytes32[]"
        },
        {
          "indexed": false,
          "name": "inStateDeltaHashes",
          "type": "bytes32[]"
        },
        {
          "indexed": false,
          "name": "outStateDeltaHashes",
          "type": "bytes32[]"
        },
        {
          "indexed": false,
          "name": "ethCall",
          "type": "bytes"
        },
        {
          "indexed": false,
          "name": "sig",
          "type": "bytes"
        }
      ],
      "name": "ReceiptsVerified",
      "type": "event",
      "signature": "0x49f3b610d2b607252a8901e3c134022c7a6330e5f6525f0ed84dd4a127478958"
    },
    {
      "anonymous": false,
      "inputs": [
        {
          "indexed": false,
          "name": "from",
          "type": "address"
        },
        {
          "indexed": false,
          "name": "value",
          "type": "uint256"
        }
      ],
      "name": "DepositSuccessful",
      "type": "event",
      "signature": "0xb3ef81558ed1a50072a492984535a009da8b129c749500b387f1e5f4886bdde5"
    },
    {
      "anonymous": false,
      "inputs": [
        {
          "indexed": false,
          "name": "scAddr",
          "type": "bytes32"
        },
        {
          "indexed": false,
          "name": "codeHash",
          "type": "bytes32"
        }
      ],
      "name": "SecretContractDeployed",
      "type": "event",
      "signature": "0x9d707d3c048dd1c209a28ea6367edf3d939a45cb46f86be5a728577e3e52273e"
    },
    {
      "constant": false,
      "inputs": [
        {
          "name": "_signer",
          "type": "address"
        },
        {
          "name": "_report",
          "type": "bytes"
        }
      ],
      "name": "register",
      "outputs": [],
      "payable": false,
      "stateMutability": "nonpayable",
      "type": "function",
      "signature": "0x24b8fbf6"
    },
    {
      "constant": false,
      "inputs": [
        {
          "name": "_custodian",
          "type": "address"
        },
        {
          "name": "_amount",
          "type": "uint256"
        }
      ],
      "name": "deposit",
      "outputs": [],
      "payable": false,
      "stateMutability": "nonpayable",
      "type": "function",
      "signature": "0x47e7ef24"
    },
    {
      "constant": false,
      "inputs": [],
      "name": "login",
      "outputs": [],
      "payable": false,
      "stateMutability": "nonpayable",
      "type": "function",
      "signature": "0xb34e97e8"
    },
    {
      "constant": false,
      "inputs": [],
      "name": "logout",
      "outputs": [],
      "payable": false,
      "stateMutability": "nonpayable",
      "type": "function",
      "signature": "0x1f3c99c3"
    },
    {
      "constant": false,
      "inputs": [
        {
          "name": "_scAddr",
          "type": "bytes32"
        },
        {
          "name": "_codeHash",
          "type": "bytes32"
        },
        {
          "name": "_owner",
          "type": "address"
        },
        {
          "name": "_sig",
          "type": "bytes"
        }
      ],
      "name": "deploySecretContract",
      "outputs": [],
      "payable": false,
      "stateMutability": "nonpayable",
      "type": "function",
      "signature": "0xe5ba75c0"
    },
    {
      "constant": true,
      "inputs": [
        {
          "name": "_scAddr",
          "type": "bytes32"
        }
      ],
      "name": "isDeployed",
      "outputs": [
        {
          "name": "",
          "type": "bool"
        }
      ],
      "payable": false,
      "stateMutability": "view",
      "type": "function",
      "signature": "0x74c0ff4f"
    },
    {
      "constant": true,
      "inputs": [
        {
          "name": "_scAddr",
          "type": "bytes32"
        }
      ],
      "name": "getCodeHash",
      "outputs": [
        {
          "name": "",
          "type": "bytes32"
        }
      ],
      "payable": false,
      "stateMutability": "view",
      "type": "function",
      "signature": "0x27e86c84"
    },
    {
      "constant": true,
      "inputs": [],
      "name": "countSecretContracts",
      "outputs": [
        {
          "name": "",
          "type": "uint256"
        }
      ],
      "payable": false,
      "stateMutability": "view",
      "type": "function",
      "signature": "0x75bbf75b"
    },
    {
      "constant": true,
      "inputs": [
        {
          "name": "_start",
          "type": "uint256"
        },
        {
          "name": "_stop",
          "type": "uint256"
        }
      ],
      "name": "getSecretContractAddresses",
      "outputs": [
        {
          "name": "",
          "type": "bytes32[]"
        }
      ],
      "payable": false,
      "stateMutability": "view",
      "type": "function",
      "signature": "0x8e055b8b"
    },
    {
      "constant": true,
      "inputs": [
        {
          "name": "_scAddr",
          "type": "bytes32"
        }
      ],
      "name": "countStateDeltas",
      "outputs": [
        {
          "name": "",
          "type": "uint256"
        }
      ],
      "payable": false,
      "stateMutability": "view",
      "type": "function",
      "signature": "0xc41bfb03"
    },
    {
      "constant": true,
      "inputs": [
        {
          "name": "_scAddr",
          "type": "bytes32"
        },
        {
          "name": "_index",
          "type": "uint256"
        }
      ],
      "name": "getStateDeltaHash",
      "outputs": [
        {
          "name": "",
          "type": "bytes32"
        }
      ],
      "payable": false,
      "stateMutability": "view",
      "type": "function",
      "signature": "0x28aa1aaa"
    },
    {
      "constant": true,
      "inputs": [
        {
          "name": "_scAddr",
          "type": "bytes32"
        },
        {
          "name": "_start",
          "type": "uint256"
        },
        {
          "name": "_stop",
          "type": "uint256"
        }
      ],
      "name": "getStateDeltaHashes",
      "outputs": [
        {
          "name": "",
          "type": "bytes32[]"
        }
      ],
      "payable": false,
      "stateMutability": "view",
      "type": "function",
      "signature": "0xd1dfd95e"
    },
    {
      "constant": true,
      "inputs": [
        {
          "name": "_scAddr",
          "type": "bytes32"
        },
        {
          "name": "_stateDeltaHash",
          "type": "bytes32"
        }
      ],
      "name": "isValidDeltaHash",
      "outputs": [
        {
          "name": "",
          "type": "bool"
        }
      ],
      "payable": false,
      "stateMutability": "view",
      "type": "function",
      "signature": "0xccfae218"
    },
    {
      "constant": false,
      "inputs": [
        {
          "name": "_taskId",
          "type": "bytes32"
        },
        {
          "name": "_fee",
          "type": "uint256"
        }
      ],
      "name": "createTaskRecord",
      "outputs": [],
      "payable": false,
      "stateMutability": "nonpayable",
      "type": "function",
      "signature": "0x03316d16"
    },
    {
      "constant": false,
      "inputs": [
        {
          "name": "_taskIds",
          "type": "bytes32[]"
        },
        {
          "name": "_fees",
          "type": "uint256[]"
        }
      ],
      "name": "createTaskRecords",
      "outputs": [],
      "payable": false,
      "stateMutability": "nonpayable",
      "type": "function",
      "signature": "0x120db8ab"
    },
    {
      "constant": false,
      "inputs": [
        {
          "name": "_scAddr",
          "type": "bytes32"
        },
        {
          "name": "_taskId",
          "type": "bytes32"
        },
        {
          "name": "_inStateDeltaHash",
          "type": "bytes32"
        },
        {
          "name": "_outStateDeltaHash",
          "type": "bytes32"
        },
        {
          "name": "_ethCall",
          "type": "bytes"
        },
        {
          "name": "_sig",
          "type": "bytes"
        }
      ],
      "name": "commitReceipt",
      "outputs": [],
      "payable": false,
      "stateMutability": "nonpayable",
      "type": "function",
      "signature": "0x978fa217"
    },
    {
      "constant": false,
      "inputs": [
        {
          "name": "_scAddr",
          "type": "bytes32"
        },
        {
          "name": "_taskIds",
          "type": "bytes32[]"
        },
        {
          "name": "_inStateDeltaHashes",
          "type": "bytes32[]"
        },
        {
          "name": "_outStateDeltaHashes",
          "type": "bytes32[]"
        },
        {
          "name": "_ethCall",
          "type": "bytes"
        },
        {
          "name": "_sig",
          "type": "bytes"
        }
      ],
      "name": "commitReceipts",
      "outputs": [],
      "payable": false,
      "stateMutability": "nonpayable",
      "type": "function",
      "signature": "0x5f0d6ac0"
    },
    {
      "constant": false,
      "inputs": [
        {
          "name": "_seed",
          "type": "uint256"
        },
        {
          "name": "_sig",
          "type": "bytes"
        }
      ],
      "name": "setWorkersParams",
      "outputs": [],
      "payable": false,
      "stateMutability": "nonpayable",
      "type": "function",
      "signature": "0x2873e73c"
    },
    {
      "constant": true,
      "inputs": [
        {
          "name": "_blockNumber",
          "type": "uint256"
        }
      ],
      "name": "getWorkerParams",
      "outputs": [
        {
          "name": "",
          "type": "uint256"
        },
        {
          "name": "",
          "type": "uint256"
        },
        {
          "name": "",
          "type": "address[]"
        },
        {
          "name": "",
          "type": "uint256[]"
        }
      ],
      "payable": false,
      "stateMutability": "view",
      "type": "function",
      "signature": "0x9836ca31"
    },
    {
      "constant": true,
      "inputs": [
        {
          "name": "_blockNumber",
          "type": "uint256"
        },
        {
          "name": "_scAddr",
          "type": "bytes32"
        }
      ],
      "name": "getWorkerGroup",
      "outputs": [
        {
          "name": "",
          "type": "address[]"
        }
      ],
      "payable": false,
      "stateMutability": "view",
      "type": "function",
      "signature": "0x1d40ff0b"
    },
    {
      "constant": true,
      "inputs": [
        {
          "name": "_blockNumber",
          "type": "uint256"
        }
      ],
      "name": "getWorkersParams",
      "outputs": [
        {
          "name": "",
          "type": "uint256"
        },
        {
          "name": "",
          "type": "uint256"
        },
        {
          "name": "",
          "type": "address[]"
        },
        {
          "name": "",
          "type": "address[]"
        }
      ],
      "payable": false,
      "stateMutability": "view",
      "type": "function",
      "signature": "0x59c91a12"
    },
    {
      "constant": true,
      "inputs": [
        {
          "name": "_custodian",
          "type": "address"
        }
      ],
      "name": "getReport",
      "outputs": [
        {
          "name": "",
          "type": "address"
        },
        {
          "name": "",
          "type": "bytes"
        }
      ],
      "payable": false,
      "stateMutability": "view",
      "type": "function",
      "signature": "0xa3bdae3e"
    },
    {
      "constant": true,
      "inputs": [
        {
          "name": "data",
          "type": "bytes"
        },
        {
          "name": "signature",
          "type": "bytes"
        }
      ],
      "name": "verifyReport",
      "outputs": [
        {
          "name": "",
          "type": "uint256"
        }
      ],
      "payable": false,
      "stateMutability": "view",
      "type": "function",
      "signature": "0xb5c14992"
    }
  ],
  "bytecode": "0x608060405260646001553480156200001657600080fd5b5060405160408062004c7a833981018060405262000038919081019062000089565b60008054600160a060020a03938416600160a060020a0319918216179091556002805492909316911617905560016022556005602355620000e7565b6000620000828251620000d4565b9392505050565b600080604083850312156200009d57600080fd5b6000620000ab858562000074565b9250506020620000be8582860162000074565b9150509250929050565b600160a060020a031690565b6000620000e182620000c8565b92915050565b614b8380620000f76000396000f3fe6080604052600436106101955763ffffffff7c010000000000000000000000000000000000000000000000000000000060003504166303316d16811461019a5780630a318da0146101bc578063120db8ab146101f25780631d40ff0b146102125780631f3c99c31461023f57806324b8fbf61461025457806327e86c84146102745780632873e73c146102a157806328aa1aaa146102c15780634048a257146102e157806347e7ef2414610311578063572d356e1461033157806359c91a12146103465780635f0d6ac0146103765780635f0dd5bb146103965780635f7a6ff3146103b657806374c0ff4f146103d657806375bbf75b146104035780638e055b8b146104185780639489ad4014610445578063978fa217146104675780639836ca3114610487578063a3bdae3e146104b7578063a3edd784146104e5578063b34e97e8146104fa578063b5c149921461050f578063c41bfb031461052f578063ccfae2181461054f578063d1dfd95e1461056f578063e579f5001461058f578063e5ba75c0146105bf578063ec56a373146105df575b600080fd5b3480156101a657600080fd5b506101ba6101b5366004613a8d565b61060e565b005b3480156101c857600080fd5b506101dc6101d7366004613970565b61085f565b6040516101e9919061422f565b60405180910390f35b3480156101fe57600080fd5b506101ba61020d3660046138f3565b610887565b34801561021e57600080fd5b5061023261022d366004613a8d565b610bce565b6040516101e9919061433b565b34801561024b57600080fd5b506101ba610df1565b34801561026057600080fd5b506101ba61026f366004613871565b610f6e565b34801561028057600080fd5b5061029461028f366004613970565b611090565b6040516101e9919061440b565b3480156102ad57600080fd5b506101ba6102bc366004613c1e565b6110ea565b3480156102cd57600080fd5b506102946102dc366004613a8d565b611677565b3480156102ed57600080fd5b506103016102fc366004613853565b6116eb565b6040516101e994939291906142e4565b34801561031d57600080fd5b506101ba61032c3660046138c3565b6117af565b34801561033d57600080fd5b50610294611ae3565b34801561035257600080fd5b50610366610361366004613970565b611ae9565b6040516101e9949392919061462a565b34801561038257600080fd5b506101ba61039136600461398e565b611af6565b3480156103a257600080fd5b506102946103b1366004613970565b611cd0565b3480156103c257600080fd5b506102946103d1366004613853565b611cef565b3480156103e257600080fd5b506103f66103f1366004613970565b611d01565b6040516101e991906143fd565b34801561040f57600080fd5b50610294611d3b565b34801561042457600080fd5b50610438610433366004613a8d565b611d42565b6040516101e9919061434c565b34801561045157600080fd5b5061045a611de2565b6040516101e991906144e0565b34801561047357600080fd5b506101ba610482366004613b25565b611df1565b34801561049357600080fd5b506104a76104a2366004613970565b6120a1565b6040516101e9949392919061466b565b3480156104c357600080fd5b506104d76104d2366004613853565b6121d8565b6040516101e99291906142c4565b3480156104f157600080fd5b5061029461241a565b34801561050657600080fd5b506101ba612420565b34801561051b57600080fd5b5061029461052a366004613bca565b61259b565b34801561053b57600080fd5b5061029461054a366004613970565b61268f565b34801561055b57600080fd5b506103f661056a366004613a8d565b6126e9565b34801561057b57600080fd5b5061043861058a366004613b7d565b612793565b34801561059b57600080fd5b506105af6105aa366004613970565b612893565b6040516101e994939291906145ee565b3480156105cb57600080fd5b506101ba6105da366004613aac565b612954565b3480156105eb57600080fd5b506105ff6105fa366004613970565b612c50565b6040516101e99392919061429c565b6000828152601f6020526040902060020154600160a060020a0316156106525760405160e560020a62461bcd028152600401610649906145ae565b60405180910390fd5b6000546040517fdd62ed3e0000000000000000000000000000000000000000000000000000000081528291600160a060020a03169063dd62ed3e9061069d903390309060040161423d565b60206040518083038186803b1580156106b557600080fd5b505afa1580156106c9573d6000803e3d6000fd5b505050506040513d601f19601f820116820180604052506106ed9190810190613c00565b101561070e5760405160e560020a62461bcd0281526004016106499061456e565b6000546040517f23b872dd000000000000000000000000000000000000000000000000000000008152600160a060020a03909116906323b872dd9061075b90339030908690600401614258565b602060405180830381600087803b15801561077557600080fd5b505af1158015610789573d6000803e3d6000fd5b505050506040513d601f19601f820116820180604052506107ad9190810190613952565b15156107ce5760405160e560020a62461bcd0281526004016106499061453e565b6000828152601f602052604090819020828155600201805473ffffffffffffffffffffffffffffffffffffffff19163390811774ff0000000000000000000000000000000000000000191660a060020a1790915590517ff1c0c18d5573c419035509d5b8bf3f97ce7b92cca68bccbde847516f66d6fe05916108539185918591614461565b60405180910390a15050565b601c80548290811061086d57fe5b600091825260209091200154600160a060020a0316905081565b60005b8251811015610b9a576000600160a060020a0316601f600085848151811015156108b057fe5b6020908102909101810151825281019190915260400160002060020154600160a060020a0316146108f65760405160e560020a62461bcd028152600401610649906145ae565b818181518110151561090457fe5b602090810290910101516000546040517fdd62ed3e000000000000000000000000000000000000000000000000000000008152600160a060020a039091169063dd62ed3e90610959903390309060040161423d565b60206040518083038186803b15801561097157600080fd5b505afa158015610985573d6000803e3d6000fd5b505050506040513d601f19601f820116820180604052506109a99190810190613c00565b10156109ca5760405160e560020a62461bcd0281526004016106499061456e565b6000548251600160a060020a03909116906323b872dd90339030908690869081106109f157fe5b906020019060200201516040518463ffffffff167c0100000000000000000000000000000000000000000000000000000000028152600401610a3593929190614258565b602060405180830381600087803b158015610a4f57600080fd5b505af1158015610a63573d6000803e3d6000fd5b505050506040513d601f19601f82011682018060405250610a879190810190613952565b1515610aa85760405160e560020a62461bcd0281526004016106499061453e565b8181815181101515610ab657fe5b90602001906020020151601f60008584815181101515610ad257fe5b9060200190602002015181526020019081526020016000206000018190555033601f60008584815181101515610b0457fe5b90602001906020020151815260200190815260200160002060020160006101000a815481600160a060020a030219169083600160a060020a031602179055506001601f60008584815181101515610b5757fe5b90602001906020020151815260200190815260200160002060020160146101000a81548160ff02191690836002811115610b8d57fe5b021790555060010161088a565b507facd4eaf0bf2790219699c0a2d47f13405b81c59f5ff0bb951a71a29c94a6d774828233604051610853939291906143c9565b60606000610bdb84612c7d565b9050610be56135d4565b60038260058110610bf257fe5b6005020160a060405190810160405290816000820154815260200160018201805480602002602001604051908101604052809291908181526020018280548015610c6557602002820191906000526020600020905b8154600160a060020a03168152600190910190602001808311610c47575b5050505050815260200160028201805480602002602001604051908101604052809291908181526020018280548015610cbd57602002820191906000526020600020905b815481526020019060010190808311610ca9575b505050505081526020016003820154815260200160048201548152505090506060602354604051908082528060200260200182016040528015610d0a578160200160208202803883390190505b5090506000805b602354811015610de3575b6000610d2a89878a86612d2a565b90506000805b8551811015610d7b578581815181101515610d4757fe5b90602001906020020151600160a060020a031683600160a060020a03161415610d735760019150610d7b565b600101610d30565b50801515610daa57818584815181101515610d9257fe5b600160a060020a039092166020928302909101909101525b50508251600190920191600090849083908110610dc357fe5b60209081029091010151600160a060020a031614610d1c57600101610d11565b509093505050505b92915050565b33610dfa613604565b600160a060020a038281166000908152601e60209081526040918290208251608081019093528054938416835291929083019060a060020a900460ff166003811115610e4257fe5b6003811115610e4d57fe5b8152602001600182018054600181600116156101000203166002900480601f016020809104026020016040519081016040528092919081815260200182805460018160011615610100020316600290048015610eea5780601f10610ebf57610100808354040283529160200191610eea565b820191906000526020600020905b815481529060010190602001808311610ecd57829003601f168201915b505050918352505060029182015460209091015290915081602001516003811115610f1157fe5b14610f315760405160e560020a62461bcd0281526004016106499061454e565b336000908152601e6020526040902080546003919074ff0000000000000000000000000000000000000000191660a060020a835b02179055505050565b336000908152601e6020526040902054600160a060020a03161515610fdd57601c80546001810182556000919091527f0e4562a10381dec21b205ed72637e6b1b523bdd0e4d4d50af5cd23dd4500a21101805473ffffffffffffffffffffffffffffffffffffffff1916331790555b336000908152601e602090815260408220805473ffffffffffffffffffffffffffffffffffffffff1916600160a060020a0386161781556002810192909255825161102e926001019184019061362d565b50336000818152601e602052604090819020805474ff0000000000000000000000000000000000000000191660a060020a179055517f0a31ee9d46a828884b81003c8498156ea6aa15b9b54bdd0ef0b533d9eba57e559161085391859061423d565b6000816001600082815260208052604090206003015460ff1660018111156110b457fe5b146110d45760405160e560020a62461bcd028152600401610649906145be565b5050600090815260208052604090206001015490565b336110f3613604565b600160a060020a038281166000908152601e60209081526040918290208251608081019093528054938416835291929083019060a060020a900460ff16600381111561113b57fe5b600381111561114657fe5b8152602001600182018054600181600116156101000203166002900480601f0160208091040260200160405190810160405280929190818152602001828054600181600116156101000203166002900480156111e35780601f106111b8576101008083540402835291602001916111e3565b820191906000526020600020905b8154815290600101906020018083116111c657829003601f168201915b505050918352505060029190910154602090910152905060008160200151600381111561120c57fe5b141561122d5760405160e560020a62461bcd028152600401610649906144ee565b600254336000908152601e6020526040902054600160a060020a0390811691161461126d5760405160e560020a62461bcd0281526004016106499061459e565b6000805b60058110156112d5576003816005811061128757fe5b6005020154151561129a578091506112d5565b600382600581106112a757fe5b60050201600001546003826005811015156112be57fe5b600502015410156112cd578091505b600101611271565b5043600382600581106112e457fe5b6005020160000181905550846003826005811015156112ff57fe5b600360059182029290920182019290925533600090815260216020526040902054918390811061132b57fe5b60050201600401556000805b601c548110156115cc57611349613604565b601e6000601c8481548110151561135c57fe5b6000918252602080832090910154600160a060020a0390811684528382019490945260409283019091208251608081019093528054938416835291929083019060ff60a060020a9091041660038111156113b257fe5b60038111156113bd57fe5b8152602001600182018054600181600116156101000203166002900480601f01602080910402602001604051908101604052809291908181526020018280546001816001161561010002031660029004801561145a5780601f1061142f5761010080835404028352916020019161145a565b820191906000526020600020905b81548152906001019060200180831161143d57829003601f168201915b50505050508152602001600282015481525050905060225481606001511015801561149557506002548151600160a060020a03908116911614155b80156114b057506002816020015160038111156114ae57fe5b145b156115c357600384600581106114c257fe5b6005020160010180548091906001016114db91906136ab565b50601c8054839081106114ea57fe5b600091825260209091200154600160a060020a03166003856005811061150c57fe5b600502016001018481548110151561152057fe5b6000918252602090912001805473ffffffffffffffffffffffffffffffffffffffff1916600160a060020a03929092169190911790556003846005811061156357fe5b60050201600201805480919060010161157c91906136ab565b5060608101516003856005811061158f57fe5b60050201600201848154811015156115a357fe5b6000918252602090912001556115c083600163ffffffff612fc216565b92505b50600101611337565b507fcdfdbdd264b9f454c9c98dc0d0b5c0a0f683c704db2233ff53b4d4f826c790cb8643600385600581106115fd57fe5b6005020160010160038660058110151561161357fe5b600502016002016021600033600160a060020a0316600160a060020a03168152602001908152602001600020546040516116519594939291906146ac565b60405180910390a150503360009081526021602052604090208054600101905550505050565b6000826001600082815260208052604090206003015460ff16600181111561169b57fe5b146116bb5760405160e560020a62461bcd028152600401610649906145be565b600084815260208052604090206002018054849081106116d757fe5b906000526020600020015491505092915050565b601e602090815260009182526040918290208054600180830180548651600261010094831615949094026000190190911692909204601f8101869004860283018601909652858252600160a060020a0383169560a060020a90930460ff16949192909183018282801561179f5780601f106117745761010080835404028352916020019161179f565b820191906000526020600020905b81548152906001019060200180831161178257829003601f168201915b5050505050908060020154905084565b816117b8613604565b600160a060020a038281166000908152601e60209081526040918290208251608081019093528054938416835291929083019060a060020a900460ff16600381111561180057fe5b600381111561180b57fe5b8152602001600182018054600181600116156101000203166002900480601f0160208091040260200160405190810160405280929190818152602001828054600181600116156101000203166002900480156118a85780601f1061187d576101008083540402835291602001916118a8565b820191906000526020600020905b81548152906001019060200180831161188b57829003601f168201915b50505091835250506002919091015460209091015290506000816020015160038111156118d157fe5b14156118f25760405160e560020a62461bcd028152600401610649906144ee565b6000546040517fdd62ed3e0000000000000000000000000000000000000000000000000000000081528491600160a060020a03169063dd62ed3e9061193d9088903090600401614280565b60206040518083038186803b15801561195557600080fd5b505afa158015611969573d6000803e3d6000fd5b505050506040513d601f19601f8201168201806040525061198d9190810190613c00565b10156119ae5760405160e560020a62461bcd028152600401610649906144fe565b6000546040517f23b872dd000000000000000000000000000000000000000000000000000000008152600160a060020a03909116906323b872dd906119fb9087903090889060040161428e565b602060405180830381600087803b158015611a1557600080fd5b505af1158015611a29573d6000803e3d6000fd5b505050506040513d601f19601f82011682018060405250611a4d9190810190613952565b1515611a5857600080fd5b600160a060020a0384166000908152601e6020526040902060020154611a84908463ffffffff612fc216565b600160a060020a0385166000908152601e60205260409081902060020191909155517fb3ef81558ed1a50072a492984535a009da8b129c749500b387f1e5f4886bdde590611ad59086908690614320565b60405180910390a150505050565b60015481565b6000806060809193509193565b33611aff613604565b600160a060020a038281166000908152601e60209081526040918290208251608081019093528054938416835291929083019060a060020a900460ff166003811115611b4757fe5b6003811115611b5257fe5b8152602001600182018054600181600116156101000203166002900480601f016020809104026020016040519081016040528092919081815260200182805460018160011615610100020316600290048015611bef5780601f10611bc457610100808354040283529160200191611bef565b820191906000526020600020905b815481529060010190602001808311611bd257829003601f168201915b505050918352505060029182015460209091015290915081602001516003811115611c1657fe5b14611c365760405160e560020a62461bcd0281526004016106499061454e565b876001600082815260208052604090206003015460ff166001811115611c5857fe5b14611c785760405160e560020a62461bcd028152600401610649906145be565b611c86898989898989612fdb565b7f49f3b610d2b607252a8901e3c134022c7a6330e5f6525f0ed84dd4a1274789588888888888604051611cbd95949392919061435d565b60405180910390a1505050505050505050565b601d805482908110611cde57fe5b600091825260209091200154905081565b60216020526000908152604090205481565b60006001600083815260208052604090206003015460ff166001811115611d2457fe5b1415611d3257506001611d36565b5060005b919050565b601d545b90565b6060811515611d5157601d5491505b6060611d63838563ffffffff6132e616565b604051908082528060200260200182016040528015611d8c578160200160208202803883390190505b5090506000845b84811015611dd857601d805482908110611da957fe5b90600052602060002001548383815181101515611dc257fe5b6020908102909101015260019182019101611d93565b5090949350505050565b600054600160a060020a031681565b33611dfa613604565b600160a060020a038281166000908152601e60209081526040918290208251608081019093528054938416835291929083019060a060020a900460ff166003811115611e4257fe5b6003811115611e4d57fe5b8152602001600182018054600181600116156101000203166002900480601f016020809104026020016040519081016040528092919081815260200182805460018160011615610100020316600290048015611eea5780601f10611ebf57610100808354040283529160200191611eea565b820191906000526020600020905b815481529060010190602001808311611ecd57829003601f168201915b505050918352505060029182015460209091015290915081602001516003811115611f1157fe5b14611f315760405160e560020a62461bcd0281526004016106499061454e565b876001600082815260208052604090206003015460ff166001811115611f5357fe5b14611f735760405160e560020a62461bcd028152600401610649906145be565b60016000898152601f6020526040902060029081015460a060020a900460ff1690811115611f9d57fe5b14611fbd5760405160e560020a62461bcd0281526004016106499061451e565b611fcb8989898989896132fb565b6000888152601f602090815260409091208551611ff09260019092019187019061362d565b506000888152601f602090815260408083206002808201805474ff00000000000000000000000000000000000000001916740200000000000000000000000000000000000000001790559054338552601e90935292209091015461205391612fc2565b336000908152601e60205260409081902060020191909155517f665329bb9a4e1062edc215d9c5ab57fa54c4c88e3dfbcc68e0cd92fdd010fa6e90611cbd908a908a908a908a908a90614427565b60008060608060006120b286612c7d565b90506120bc6135d4565b600382600581106120c957fe5b6005020160a06040519081016040529081600082015481526020016001820180548060200260200160405190810160405280929190818152602001828054801561213c57602002820191906000526020600020905b8154600160a060020a0316815260019091019060200180831161211e575b505050505081526020016002820180548060200260200160405190810160405280929190818152602001828054801561219457602002820191906000526020600020905b815481526020019060010190808311612180575b5050509183525050600382015460208083019190915260049092015460409182015282516060840151928401519390910151909a9199509197509095509350505050565b60006060826121e5613604565b600160a060020a038281166000908152601e60209081526040918290208251608081019093528054938416835291929083019060a060020a900460ff16600381111561222d57fe5b600381111561223857fe5b8152602001600182018054600181600116156101000203166002900480601f0160208091040260200160405190810160405280929190818152602001828054600181600116156101000203166002900480156122d55780601f106122aa576101008083540402835291602001916122d5565b820191906000526020600020905b8154815290600101906020018083116122b857829003601f168201915b50505091835250506002919091015460209091015290506000816020015160038111156122fe57fe5b141561231f5760405160e560020a62461bcd028152600401610649906144ee565b600160a060020a038581166000908152601e602052604090205416151561235b5760405160e560020a62461bcd0281526004016106499061457e565b600160a060020a038581166000908152601e60209081526040918290208054600191820180548551600261010095831615959095026000190190911693909304601f81018590048502840185019095528483529416939290918391908301828280156124085780601f106123dd57610100808354040283529160200191612408565b820191906000526020600020905b8154815290600101906020018083116123eb57829003601f168201915b50505050509050935093505050915091565b60235481565b33612429613604565b600160a060020a038281166000908152601e60209081526040918290208251608081019093528054938416835291929083019060a060020a900460ff16600381111561247157fe5b600381111561247c57fe5b8152602001600182018054600181600116156101000203166002900480601f0160208091040260200160405190810160405280929190818152602001828054600181600116156101000203166002900480156125195780601f106124ee57610100808354040283529160200191612519565b820191906000526020600020905b8154815290600101906020018083116124fc57829003601f168201915b505050918352505060029190910154602090910152905060008160200151600381111561254257fe5b14156125635760405160e560020a62461bcd028152600401610649906144ee565b336000908152601e6020526040902080546002919074ff0000000000000000000000000000000000000000191660a060020a83610f65565b60006060610140604051908101604052806101028152602001614a4861010291399050606061024060405190810160405280610202815260200161484661020291396040517f2ae0783d00000000000000000000000000000000000000000000000000000000815290915073__SolRsaVerify__________________________90632ae0783d90612636908890889087908790600401614489565b60206040518083038186803b15801561264e57600080fd5b505af4158015612662573d6000803e3d6000fd5b505050506040513d601f19601f820116820180604052506126869190810190613c00565b95945050505050565b6000816001600082815260208052604090206003015460ff1660018111156126b357fe5b146126d35760405160e560020a62461bcd028152600401610649906145be565b5050600090815260208052604090206002015490565b6000826001600082815260208052604090206003015460ff16600181111561270d57fe5b1461272d5760405160e560020a62461bcd028152600401610649906145be565b6000805b600086815260208052604090206002015481101561278a576000868152602080526040902060020180548691908390811061276857fe5b90600052602060002001541415612782576001915061278a565b600101612731565b50949350505050565b6060836001600082815260208052604090206003015460ff1660018111156127b757fe5b146127d75760405160e560020a62461bcd028152600401610649906145be565b8215156127f257600085815260208052604090206002015492505b6060612804848663ffffffff6132e616565b60405190808252806020026020018201604052801561282d578160200160208202803883390190505b5090506000855b85811015612887576000888152602080526040902060020180548290811061285857fe5b9060005260206000200154838381518110151561287157fe5b6020908102909101015260019182019101612834565b50909695505050505050565b601f60208181526000928352604092839020805460018083018054875160029382161561010002600019019091169290920495860185900485028201850190965284815290949193909283018282801561292e5780601f106129035761010080835404028352916020019161292e565b820191906000526020600020905b81548152906001019060200180831161291157829003601f168201915b50505060029093015491925050600160a060020a0381169060ff60a060020a9091041684565b3361295d613604565b600160a060020a038281166000908152601e60209081526040918290208251608081019093528054938416835291929083019060a060020a900460ff1660038111156129a557fe5b60038111156129b057fe5b8152602001600182018054600181600116156101000203166002900480601f016020809104026020016040519081016040528092919081815260200182805460018160011615610100020316600290048015612a4d5780601f10612a2257610100808354040283529160200191612a4d565b820191906000526020600020905b815481529060010190602001808311612a3057829003601f168201915b5050509183525050600291909101546020909101529050600081602001516003811115612a7657fe5b1415612a975760405160e560020a62461bcd028152600401610649906144ee565b600160a060020a0384166000818152602160209081526040918290205482518083018a90526c01000000000000000000000000909402848401526054808501919091528251808503909101815260749093019091528151910120868114612afd57600080fd5b600087815260208052604081206003015460ff166001811115612b1c57fe5b14612b3c5760405160e560020a62461bcd0281526004016106499061450e565b60408051602080820189905282518083038201815291830190925280519101206000612b7786612b6b846134a4565b9063ffffffff6134f516565b9050600160a060020a0380821690881614612b9157600080fd5b600089815260208080526040808320805473ffffffffffffffffffffffffffffffffffffffff1916600160a060020a038c16908117825560018083018e90556003909201805460ff191683179055601d80548084019091557f6d4407e7be21f808e6509aa9fa9143369579dd7d760fe20a2c09680fc146134f018e9055845260219092529182902080549091019055517f9d707d3c048dd1c209a28ea6367edf3d939a45cb46f86be5a728577e3e52273e90611cbd9085908b90614419565b6020805260009081526040902080546001820154600390920154600160a060020a03909116919060ff1683565b6000600019815b6005811015612cf7578360038260058110612c9b57fe5b600502015411801590612ce657508160000b6000191480612ce657506003600083900b60058110612cc857fe5b6005020160000154600382600581101515612cdf57fe5b6005020154115b15612cef578091505b600101612c84565b50600019600082900b1415612d215760405160e560020a62461bcd028152600401610649906145de565b60000b92915050565b6000612d346135d4565b60038560058110612d4157fe5b6005020160a060405190810160405290816000820154815260200160018201805480602002602001604051908101604052809291908181526020018280548015612db457602002820191906000526020600020905b8154600160a060020a03168152600190910190602001808311612d96575b5050505050815260200160028201805480602002602001604051908101604052809291908181526020018280548015612e0c57602002820191906000526020600020905b815481526020019060010190808311612df8575b50505091835250506003820154602082015260049091015460409091015290506000805b826020015151811015612ea157602083015180516000919083908110612e5257fe5b60209081029091010151600160a060020a031614612e9957612e96836040015182815181101515612e7f57fe5b60209081029091010151839063ffffffff612fc216565b91505b600101612e30565b5060608083015183516040805160208082018d905281830194909452938401919091526080830188905260a0830184905260c08084018890528151808503909101815260e09093019052815191012060008282811515612efd57fe5b06905060005b846020015151811015612f9357602085015180516000919083908110612f2557fe5b60209081029091010151600160a060020a031614612f8b576040850151805182908110612f4e57fe5b602090810290910101519091039060008213612f8b576020850151805182908110612f7557fe5b9060200190602002015195505050505050612fba565b600101612f03565b50602084015180516000198101908110612fa957fe5b906020019060200201519450505050505b949350505050565b600082820183811015612fd457600080fd5b9392505050565b60008681526020805260409020600201548015156130315784600081518110151561300257fe5b602090810290910101511561302c5760405160e560020a62461bcd0281526004016106499061455e565b6130a0565b6000878152602080526040902060020161305282600163ffffffff6132e616565b8154811061305c57fe5b906000526020600020015485600081518110151561307657fe5b60209081029091010151146130a05760405160e560020a62461bcd0281526004016106499061452e565b60005b8651811015613178576001601f600089848151811015156130c057fe5b90602001906020020151815260200190815260200160002060020160149054906101000a900460ff1660028111156130f457fe5b146131145760405160e560020a62461bcd0281526004016106499061451e565b600081111561317057846001820381518110151561312e57fe5b90602001906020020151868281518110151561314657fe5b60209081029091010151146131705760405160e560020a62461bcd0281526004016106499061458e565b6001016130a3565b5060005b86518110156132dc576000888152602080526040902085516002909101908690839081106131a657fe5b60209081029091018101518254600181810185556000948552929093209092019190915587516131db9163ffffffff6132e616565b8114156132255782601f600089848151811015156131f557fe5b906020019060200201518152602001908152602001600020600101908051906020019061322392919061362d565b505b6002601f6000898481518110151561323957fe5b90602001906020020151815260200190815260200160002060020160146101000a81548160ff0219169083600281111561326f57fe5b02179055506132c1601f6000898481518110151561328957fe5b60209081029091018101518252818101929092526040908101600090812054338252601e90935220600201549063ffffffff612fc216565b336000908152601e602052604090206002015560010161317c565b5050505050505050565b6000828211156132f557600080fd5b50900390565b60008681526020805260409020600201548015156133395784156133345760405160e560020a62461bcd0281526004016106499061455e565b613392565b6000878152602080526040902060020161335a82600163ffffffff6132e616565b8154811061336457fe5b9060005260206000200154851415156133925760405160e560020a62461bcd0281526004016106499061452e565b60008781526020808052604080832060020180546001810182559084528284200187905580518083018a81529181018990526060810188905286518a938a938a938a939192608090910191908401908083835b602083106134045780518252601f1990920191602091820191016133e5565b6001836020036101000a038019825116818451168082178552505050505050905001945050505050604051602081830303815290604052805190602001209050600061345984836134f590919063ffffffff16565b336000908152601e6020526040902054909150600160a060020a038083169116146134995760405160e560020a62461bcd028152600401610649906145ce565b505050505050505050565b604080517f19457468657265756d205369676e6564204d6573736167653a0a333200000000602080830191909152603c8083019490945282518083039094018452605c909101909152815191012090565b600080600080845160411415156135125760009350505050610deb565b50505060208201516040830151606084015160001a601b60ff8216101561353757601b015b8060ff16601b1415801561354f57508060ff16601c14155b156135605760009350505050610deb565b6040805160008152602080820180845289905260ff8416828401526060820186905260808201859052915160019260a0808401939192601f1981019281900390910190855afa1580156135b7573d6000803e3d6000fd5b505050602060405103519350505050610deb565b50505092915050565b60a06040519081016040528060008152602001606081526020016060815260200160008152602001600081525090565b604080516080810190915260008082526020820190815260200160608152602001600081525090565b828054600181600116156101000203166002900490600052602060002090601f016020900481019282601f1061366e57805160ff191683800117855561369b565b8280016001018555821561369b579182015b8281111561369b578251825591602001919060010190613680565b506136a79291506136d4565b5090565b8154818355818111156136cf576000838152602090206136cf9181019083016136d4565b505050565b611d3f91905b808211156136a757600081556001016136da565b6000612fd4823561478c565b6000601f8201831361370b57600080fd5b813561371e61371982614723565b6146fc565b9150818183526020840193506020810190508385602084028201111561374357600080fd5b60005b8381101561376f578161375988826137f5565b8452506020928301929190910190600101613746565b5050505092915050565b6000601f8201831361378a57600080fd5b813561379861371982614723565b915081818352602084019350602081019050838560208402820111156137bd57600080fd5b60005b8381101561376f57816137d388826137f5565b84525060209283019291909101906001016137c0565b6000612fd48251614797565b6000612fd48235611d3f565b6000601f8201831361381257600080fd5b813561382061371982614744565b9150808252602083016020830185838301111561383c57600080fd5b6135cb8382846147ff565b6000612fd48251611d3f565b60006020828403121561386557600080fd5b6000612fba84846136ee565b6000806040838503121561388457600080fd5b600061389085856136ee565b925050602083013567ffffffffffffffff8111156138ad57600080fd5b6138b985828601613801565b9150509250929050565b600080604083850312156138d657600080fd5b60006138e285856136ee565b92505060206138b9858286016137f5565b6000806040838503121561390657600080fd5b823567ffffffffffffffff81111561391d57600080fd5b613929858286016136fa565b925050602083013567ffffffffffffffff81111561394657600080fd5b6138b985828601613779565b60006020828403121561396457600080fd5b6000612fba84846137e9565b60006020828403121561398257600080fd5b6000612fba84846137f5565b60008060008060008060c087890312156139a757600080fd5b60006139b389896137f5565b965050602087013567ffffffffffffffff8111156139d057600080fd5b6139dc89828a016136fa565b955050604087013567ffffffffffffffff8111156139f957600080fd5b613a0589828a016136fa565b945050606087013567ffffffffffffffff811115613a2257600080fd5b613a2e89828a016136fa565b935050608087013567ffffffffffffffff811115613a4b57600080fd5b613a5789828a01613801565b92505060a087013567ffffffffffffffff811115613a7457600080fd5b613a8089828a01613801565b9150509295509295509295565b60008060408385031215613aa057600080fd5b60006138e285856137f5565b60008060008060808587031215613ac257600080fd5b6000613ace87876137f5565b9450506020613adf878288016137f5565b9350506040613af0878288016136ee565b925050606085013567ffffffffffffffff811115613b0d57600080fd5b613b1987828801613801565b91505092959194509250565b60008060008060008060c08789031215613b3e57600080fd5b6000613b4a89896137f5565b9650506020613b5b89828a016137f5565b9550506040613b6c89828a016137f5565b9450506060613a2e89828a016137f5565b600080600060608486031215613b9257600080fd5b6000613b9e86866137f5565b9350506020613baf868287016137f5565b9250506040613bc0868287016137f5565b9150509250925092565b60008060408385031215613bdd57600080fd5b823567ffffffffffffffff811115613bf457600080fd5b61389085828601613801565b600060208284031215613c1257600080fd5b6000612fba8484613847565b60008060408385031215613c3157600080fd5b600061389085856137f5565b613c46816147cc565b82525050565b613c468161478c565b6000613c608261477e565b808452602084019350613c728361476c565b60005b82811015613ca257613c88868351613c4c565b613c918261476c565b602096909601959150600101613c75565b5093949350505050565b6000613cb782614782565b808452602084019350613cc983614772565b60005b82811015613ca257613cdf868354613c4c565b613ce882614786565b602096909601959150600101613ccc565b6000613d048261477e565b808452602084019350613d168361476c565b60005b82811015613ca257613d2c868351613de9565b613d358261476c565b602096909601959150600101613d19565b6000613d518261477e565b808452602084019350613d638361476c565b60005b82811015613ca257613d79868351613de9565b613d828261476c565b602096909601959150600101613d66565b6000613d9e82614782565b808452602084019350613db083614772565b60005b82811015613ca257613dc6868354613de9565b613dcf82614786565b602096909601959150600101613db3565b613c4681614797565b613c4681611d3f565b6000613dfd8261477e565b808452613e1181602086016020860161480b565b613e1a8161483b565b9093016020019392505050565b613c46816147d3565b613c46816147de565b613c46816147e9565b613c46816147f4565b601481527f556e7265676973746572656420776f726b65722e000000000000000000000000602082015260400190565b602681527f4e6f7420656e6f75676820746f6b656e7320616c6c6f77656420666f7220747260208201527f616e736665720000000000000000000000000000000000000000000000000000604082015260600190565b602181527f53656372657420636f6e747261637420616c7265616479206465706c6f79656460208201527f2e00000000000000000000000000000000000000000000000000000000000000604082015260600190565b601381527f496e76616c6964207461736b2073746174757300000000000000000000000000602082015260400190565b601e81527f496e76616c696420696e7075742073746174652064656c746120686173680000602082015260400190565b601281527f5472616e73666572206e6f742076616c69640000000000000000000000000000602082015260400190565b601581527f576f726b6572206e6f74206c6f6767656420696e2e0000000000000000000000602082015260400190565b602e81527f496e76616c696420696e7075742073746174652064656c74612068617368206660208201527f6f7220656d707479207374617465000000000000000000000000000000000000604082015260600190565b601481527f416c6c6f77616e6365206e6f7420656e6f756768000000000000000000000000602082015260400190565b601581527f576f726b6572206e6f7420726567697374657265640000000000000000000000602082015260400190565b602381527f496e76616c69642073746174652064656c746120686173686573206f7264657260208201527f696e670000000000000000000000000000000000000000000000000000000000604082015260600190565b602681527f4f6e6c7920746865205072696e636970616c2063616e2075706461746520746860208201527f6520736565640000000000000000000000000000000000000000000000000000604082015260600190565b601381527f5461736b20616c72656164792065786973742e00000000000000000000000000602082015260400190565b601d81527f53656372657420636f6e7472616374206e6f74206465706c6f7965642e000000602082015260400190565b601281527f496e76616c6964207369676e61747572652e0000000000000000000000000000602082015260400190565b603681527f4e6f20776f726b65727320706172616d657465727320656e74727920666f722060208201527f73706563696669656420626c6f636b206e756d62657200000000000000000000604082015260600190565b60208101610deb8284613c4c565b6040810161424b8285613c3d565b612fd46020830184613c4c565b606081016142668286613c3d565b6142736020830185613c4c565b612fba6040830184613de9565b6040810161424b8285613c4c565b606081016142668286613c4c565b606081016142aa8286613c4c565b6142b76020830185613de9565b612fba6040830184613e30565b604081016142d28285613c4c565b8181036020830152612fba8184613df2565b608081016142f28287613c4c565b6142ff6020830186613e42565b81810360408301526143118185613df2565b90506126866060830184613de9565b6040810161432e8285613c4c565b612fd46020830184613de9565b60208082528101612fd48184613c55565b60208082528101612fd48184613cf9565b60a0808252810161436e8188613cf9565b905081810360208301526143828187613cf9565b905081810360408301526143968186613cf9565b905081810360608301526143aa8185613df2565b905081810360808301526143be8184613df2565b979650505050505050565b606080825281016143da8186613cf9565b905081810360208301526143ee8185613d46565b9050612fba6040830184613c3d565b60208101610deb8284613de0565b60208101610deb8284613de9565b6040810161432e8285613de9565b60a081016144358288613de9565b6144426020830187613de9565b61444f6040830186613de9565b81810360608301526143aa8185613df2565b6060810161446f8286613de9565b61447c6020830185613de9565b612fba6040830184613c3d565b6080808252810161449a8187613df2565b905081810360208301526144ae8186613df2565b905081810360408301526144c28185613df2565b905081810360608301526144d68184613df2565b9695505050505050565b60208101610deb8284613e27565b60208082528101610deb81613e4b565b60208082528101610deb81613e7b565b60208082528101610deb81613ed1565b60208082528101610deb81613f27565b60208082528101610deb81613f57565b60208082528101610deb81613f87565b60208082528101610deb81613fb7565b60208082528101610deb81613fe7565b60208082528101610deb8161403d565b60208082528101610deb8161406d565b60208082528101610deb8161409d565b60208082528101610deb816140f3565b60208082528101610deb81614149565b60208082528101610deb81614179565b60208082528101610deb816141a9565b60208082528101610deb816141d9565b608081016145fc8287613de9565b818103602083015261460e8186613df2565b905061461d6040830185613c4c565b6126866060830184613e39565b608081016146388287613de9565b6146456020830186613de9565b81810360408301526146578185613c55565b905081810360608301526144d68184613c55565b608081016146798287613de9565b6146866020830186613de9565b81810360408301526146988185613c55565b905081810360608301526144d68184613d46565b60a081016146ba8288613de9565b6146c76020830187613de9565b81810360408301526146d98186613cac565b905081810360608301526146ed8185613d93565b90506144d66080830184613de9565b60405181810167ffffffffffffffff8111828210171561471b57600080fd5b604052919050565b600067ffffffffffffffff82111561473a57600080fd5b5060209081020190565b600067ffffffffffffffff82111561475b57600080fd5b506020601f91909101601f19160190565b60200190565b60009081526020902090565b5190565b5490565b60010190565b6000610deb826147c0565b151590565b6000600282106136a757fe5b6000600382106136a757fe5b6000600482106136a757fe5b600160a060020a031690565b6000610deb825b6000610deb8261478c565b6000610deb8261479c565b6000610deb826147a8565b6000610deb826147b4565b82818337506000910152565b60005b8381101561482657818101518382015260200161480e565b83811115614835576000848401525b50505050565b601f01601f19169056fe30784139374132444530453636454136313437433945453734354143303136323638364337313932303939414643344233463034304641443644453039333531314437344538303246353130443731363033383135374443414638344634313034424433464544374536423846393943383831374644314646354239423836343239364333443831464138463142373239453032443231443732464645453443454437323545464537344245413638464243344434323434323836464344443442463634343036413433394131354243423443463637373534343839433432333937324234413830444635433245374335424332444241463244343242423742323434463743393542463932433735443342333346433534313036373841383935383944313038334441334143433435394632373034434439393539384332373545374331383738453030373537453542444234453834303232364331314330413137464637394338304231354331444442354146323143433234313730363146424432413244413831394544334237324237454641413342464542453238303543394238414331394141333436353132443438344346433831393431453135463535383831434331323745384637414131323330304344354146423537343246413144323043423436374135424542314336363643463736413336383937384235307830303030303030303030303030303030303030303030303030303030303030303030303030303030303030303030303030303030303030303030303030303030303030303030303030303030303030303030303030303030303030303030303030303030303030303030303030303030303030303030303030303030303030303030303030303030303030303030303030303030303030303030303030303030303030303030303030303030303030303030303030303030303030303030303030303030303030303030303030303030303030303030303030303030303030303030303030303030303030303030303030303030303030303030303130303031a265627a7a72305820ae0864b625d08c2075855eef3390f04d40cfbed65c31c594105fcbe0912580e56c6578706572696d656e74616cf50037",
  "source": "pragma solidity ^0.5.0;\npragma experimental ABIEncoderV2;\n\nimport \"openzeppelin-solidity/contracts/math/SafeMath.sol\";\nimport \"openzeppelin-solidity/contracts/cryptography/ECDSA.sol\";\nimport \"./utils/SolRsaVerify.sol\";\n\ncontract ERC20 {\n    function allowance(address owner, address spender) public view returns (uint256);\n\n    function transferFrom(address from, address to, uint256 value) public returns (bool);\n\n    function approve(address spender, uint256 value) public returns (bool);\n\n    function totalSupply() public view returns (uint256);\n\n    function balanceOf(address who) public view returns (uint256);\n\n    function transfer(address to, uint256 value) public returns (bool);\n\n    event Transfer(address indexed from, address indexed to, uint256 value);\n    event Approval(address indexed owner, address indexed spender, uint256 value);\n}\n\ncontract Enigma {\n    using SafeMath for uint256;\n    using ECDSA for bytes32;\n\n    // The interface of the deployed ENG ERC20 token contract\n    ERC20 public engToken;\n\n    uint public epochSize = 100;\n\n    struct TaskRecord {\n        uint fee;\n        bytes proof; // Signature of (taskId, inStateDeltaHash, outStateDeltaHash, ethCall)\n        address sender;\n        TaskStatus status;\n    }\n    enum TaskStatus {RecordUndefined, RecordCreated, ReceiptVerified}\n\n    /**\n    * The signer address of the principal node\n    * This must be set when deploying the contract and remains immutable\n    * Since the signer address is derived from the public key of an\n    * SGX enclave, this ensures that the principal node cannot be tempered\n    * with or replaced.\n    */\n    address principal;\n\n    // The data representation of a worker (or node)\n    struct Worker {\n        address signer;\n        WorkerStatus status; // Uninitialized: 0; Active: 1; Inactive: 2\n        bytes report; // Decided to store this as one  RLP encoded attribute for easier external storage in the future\n        uint256 balance;\n    }\n\n    enum WorkerStatus {Unregistered, Registered, LoggedIn, LoggedOut}\n\n    /**\n    * The data representation of the worker parameters used as input for\n    * the worker selection algorithm\n    */\n    struct WorkersParams {\n        uint firstBlockNumber;\n        address[] workers;\n        uint[] balances;\n        uint seed;\n        uint nonce;\n    }\n\n    struct SecretContract {\n        address owner;\n        bytes32 codeHash;\n        bytes32[] stateDeltaHashes;\n        SecretContractStatus status;\n        // TODO: consider keeping an index of taskIds\n    }\n    // TODO: do we want to have a contract lifecycle?\n    enum SecretContractStatus {Undefined, Deployed}\n\n    /**\n    * The last 5 worker parameters\n    * We keep a collection of worker parameters to account for latency issues.\n    * A computation task might be conceivably given out at a certain block number\n    * but executed at a later block in a different epoch. It follows that\n    * the contract must have access to the worker parameters effective when giving\n    * out the task, otherwise the selected worker would not match. We calculated\n    * that keeping the last 5 items should be more than enough to account for\n    * all latent tasks. Tasks results will be rejected past this limit.\n    */\n    WorkersParams[5] workersParams;\n\n    // An address-based index of all registered worker\n    address[] public workerAddresses;\n    // An address-based index of all secret contracts\n    bytes32[] public scAddresses;\n\n    // A registry of all registered workers with their attributes\n    mapping(address => Worker) public workers;\n    mapping(bytes32 => TaskRecord) public tasks;\n    mapping(bytes32 => SecretContract) public contracts;\n\n    // A mapping of number of secret contract deployments for each address\n    mapping(address => uint) public userTaskDeployments;\n\n    // TODO: do we keep tasks forever? if not, when do we delete them?\n    uint stakingThreshold;\n    uint public workerGroupSize;\n\n    // The events emitted by the contract\n    event Registered(address custodian, address signer);\n    event ValidatedSig(bytes sig, bytes32 hash, address workerAddr);\n    event WorkersParameterized(uint seed, uint256 blockNumber, address[] workers, uint[] balances, uint nonce);\n    event TaskRecordCreated(bytes32 taskId, uint fee, address sender);\n    event TaskRecordsCreated(bytes32[] taskIds, uint[] fees, address sender);\n    event ReceiptVerified(bytes32 taskId, bytes32 inStateDeltaHash, bytes32 outStateDeltaHash, bytes ethCall, bytes sig);\n    event ReceiptsVerified(bytes32[] taskIds, bytes32[] inStateDeltaHashes, bytes32[] outStateDeltaHashes, bytes ethCall, bytes sig);\n    event DepositSuccessful(address from, uint value);\n    event SecretContractDeployed(bytes32 scAddr, bytes32 codeHash);\n\n    constructor(address _tokenAddress, address _principal) public {\n        engToken = ERC20(_tokenAddress);\n        principal = _principal;\n        stakingThreshold = 1;\n        workerGroupSize = 5;\n    }\n\n    //TODO: break down these methods into services for upgradability\n\n    /**\n    * Checks if the custodian wallet is registered as a worker\n    *\n    * @param _user The custodian address of the worker\n    */\n    modifier workerRegistered(address _user) {\n        Worker memory worker = workers[_user];\n        require(worker.status != WorkerStatus.Unregistered, \"Unregistered worker.\");\n        _;\n    }\n\n    /**\n    * Checks if the custodian wallet is logged in as a worker\n    *\n    * @param _user The custodian address of the worker\n    */\n    modifier workerLoggedIn(address _user) {\n        Worker memory worker = workers[_user];\n        require(worker.status == WorkerStatus.LoggedIn, \"Worker not logged in.\");\n        _;\n    }\n\n    modifier contractDeployed(bytes32 _scAddr) {\n        require(contracts[_scAddr].status == SecretContractStatus.Deployed, \"Secret contract not deployed.\");\n        _;\n    }\n\n    /**\n    * Registers a new worker of change the signer parameters of an existing\n    * worker. This should be called by every worker (and the principal)\n    * node in order to receive tasks.\n    *\n    * @param _signer The signer address, derived from the enclave public key\n    * @param _report The RLP encoded report returned by the IAS\n    */\n    function register(address _signer, bytes memory _report)\n    public\n    {\n        // TODO: consider exit if both signer and custodian as matching\n        // If the custodian is not already register, we add an index entry\n        if (workers[msg.sender].signer == address(0)) {\n            workerAddresses.push(msg.sender);\n        }\n\n        // Set the custodian attributes\n        workers[msg.sender].signer = _signer;\n        workers[msg.sender].balance = 0;\n        workers[msg.sender].report = _report;\n        workers[msg.sender].status = WorkerStatus.Registered;\n\n        emit Registered(msg.sender, _signer);\n    }\n\n    function deposit(address _custodian, uint _amount)\n    public\n    workerRegistered(_custodian)\n    {\n        require(engToken.allowance(_custodian, address(this)) >= _amount, \"Not enough tokens allowed for transfer\");\n        require(engToken.transferFrom(_custodian, address(this), _amount));\n\n        workers[_custodian].balance = workers[_custodian].balance.add(_amount);\n\n        emit DepositSuccessful(_custodian, _amount);\n    }\n\n    function login() public workerRegistered(msg.sender) {\n        workers[msg.sender].status = WorkerStatus.LoggedIn;\n    }\n\n    function logout() public workerLoggedIn(msg.sender) {\n        workers[msg.sender].status = WorkerStatus.LoggedOut;\n    }\n\n    // TODO: should the scAddr be computed on-chain from the codeHash + some randomness\n    // TODO: should any user deploy a secret contract or only a trusted enclave?\n    function deploySecretContract(bytes32 _scAddr, bytes32 _codeHash, address _owner, bytes memory _sig)\n    public\n    workerRegistered(msg.sender)\n    {\n        bytes32 scAddr = keccak256(abi.encodePacked(_codeHash, _owner, userTaskDeployments[_owner]));\n        require(scAddr == _scAddr);\n        require(contracts[_scAddr].status == SecretContractStatus.Undefined, \"Secret contract already deployed.\");\n        bytes32 msgHash = keccak256(abi.encodePacked(_codeHash));\n        address verifyAddr = msgHash.toEthSignedMessageHash().recover(_sig);\n        require(verifyAddr == _owner);\n\n        //TODO: is this too naive?\n        contracts[_scAddr].owner = _owner;\n        contracts[_scAddr].codeHash = _codeHash;\n        contracts[_scAddr].status = SecretContractStatus.Deployed;\n        scAddresses.push(_scAddr);\n        userTaskDeployments[_owner]++;\n        emit SecretContractDeployed(scAddr, _codeHash);\n    }\n\n    function isDeployed(bytes32 _scAddr)\n    public\n    view\n    returns (bool)\n    {\n        if (contracts[_scAddr].status == SecretContractStatus.Deployed) {\n            return true;\n        } else {\n            return false;\n        }\n    }\n\n    function getCodeHash(bytes32 _scAddr)\n    public\n    view\n    contractDeployed(_scAddr)\n    returns (bytes32)\n    {\n        return contracts[_scAddr].codeHash;\n    }\n\n    function countSecretContracts()\n    public\n    view\n    returns (uint)\n    {\n        return scAddresses.length;\n    }\n\n    /**\n    * Selects address from _start up to, but not including, the _stop number\n    **/\n    function getSecretContractAddresses(uint _start, uint _stop)\n    public\n    view\n    returns (bytes32[] memory)\n    {\n        if (_stop == 0) {\n            _stop = scAddresses.length;\n        }\n        bytes32[] memory addresses = new bytes32[](_stop.sub(_start));\n        uint pos = 0;\n        for (uint i = _start; i < _stop; i++) {\n            addresses[pos] = scAddresses[i];\n            pos++;\n        }\n        return addresses;\n    }\n\n    function countStateDeltas(bytes32 _scAddr)\n    public\n    view\n    contractDeployed(_scAddr)\n    returns (uint)\n    {\n        return contracts[_scAddr].stateDeltaHashes.length;\n    }\n\n    function getStateDeltaHash(bytes32 _scAddr, uint _index)\n    public\n    view\n    contractDeployed(_scAddr)\n    returns (bytes32)\n    {\n        return contracts[_scAddr].stateDeltaHashes[_index];\n    }\n\n    /**\n    * Selects state deltas from _start up to, but not including, the _stop number\n    **/\n    function getStateDeltaHashes(bytes32 _scAddr, uint _start, uint _stop)\n    public\n    view\n    contractDeployed(_scAddr)\n    returns (bytes32[] memory)\n    {\n        if (_stop == 0) {\n            _stop = contracts[_scAddr].stateDeltaHashes.length;\n        }\n        bytes32[] memory deltas = new bytes32[](_stop.sub(_start));\n        uint pos = 0;\n        for (uint i = _start; i < _stop; i++) {\n            deltas[pos] = contracts[_scAddr].stateDeltaHashes[i];\n            pos++;\n        }\n        return deltas;\n    }\n\n    function isValidDeltaHash(bytes32 _scAddr, bytes32 _stateDeltaHash)\n    public\n    view\n    contractDeployed(_scAddr)\n    returns (bool)\n    {\n        bool valid = false;\n        for (uint i = 0; i < contracts[_scAddr].stateDeltaHashes.length; i++) {\n            if (contracts[_scAddr].stateDeltaHashes[i] == _stateDeltaHash) {\n                valid = true;\n                break;\n            }\n        }\n        return valid;\n    }\n\n    /**\n    * Store task record\n    *\n    */\n    function createTaskRecord(\n        bytes32 _taskId,\n        uint _fee\n    )\n    public\n    {\n        require(tasks[_taskId].sender == address(0), \"Task already exist.\");\n        require(engToken.allowance(msg.sender, address(this)) >= _fee, \"Allowance not enough\");\n        require(engToken.transferFrom(msg.sender, address(this), _fee), \"Transfer not valid\");\n\n        tasks[_taskId].fee = _fee;\n        tasks[_taskId].sender = msg.sender;\n        tasks[_taskId].status = TaskStatus.RecordCreated;\n\n        emit TaskRecordCreated(_taskId, _fee, msg.sender);\n    }\n\n    function createTaskRecords(\n        bytes32[] memory _taskIds,\n        uint[] memory _fees\n    )\n    public\n    {\n        for (uint i = 0; i < _taskIds.length; i++) {\n            require(tasks[_taskIds[i]].sender == address(0), \"Task already exist.\");\n            require(engToken.allowance(msg.sender, address(this)) >= _fees[i], \"Allowance not enough\");\n            require(engToken.transferFrom(msg.sender, address(this), _fees[i]), \"Transfer not valid\");\n\n            tasks[_taskIds[i]].fee = _fees[i];\n            tasks[_taskIds[i]].sender = msg.sender;\n            tasks[_taskIds[i]].status = TaskStatus.RecordCreated;\n        }\n        emit TaskRecordsCreated(_taskIds, _fees, msg.sender);\n    }\n\n    // Execute the encoded function in the specified contract\n    function executeCall(address _to, uint256 _value, bytes memory _data)\n    internal\n    returns (bool success)\n    {\n        assembly {\n            success := call(gas, _to, _value, add(_data, 0x20), mload(_data), 0, 0)\n        }\n    }\n\n    function verifyReceipt(\n        bytes32 _scAddr,\n        bytes32 _taskId,\n        bytes32 _inStateDeltaHash,\n        bytes32 _outStateDeltaHash,\n        bytes memory _ethCall,\n        bytes memory _sig\n    )\n    internal\n    {\n        uint index = contracts[_scAddr].stateDeltaHashes.length;\n        if (index == 0) {\n            require(_inStateDeltaHash == 0x0, 'Invalid input state delta hash for empty state');\n        } else {\n            require(_inStateDeltaHash == contracts[_scAddr].stateDeltaHashes[index.sub(1)], 'Invalid input state delta hash');\n        }\n        contracts[_scAddr].stateDeltaHashes.push(_outStateDeltaHash);\n\n        // TODO: execute the Ethereum calls\n\n        // Build a hash to validate that the I/Os are matching\n        bytes32 hash = keccak256(abi.encodePacked(_taskId, _inStateDeltaHash, _outStateDeltaHash, _ethCall));\n\n        // The worker address is not a real Ethereum wallet address but\n        // one generated from its signing key\n        address workerAddr = hash.recover(_sig);\n        require(workerAddr == workers[msg.sender].signer, \"Invalid signature.\");\n    }\n\n    /**\n    * Commit the computation task results on chain\n    */\n    function commitReceipt(\n        bytes32 _scAddr,\n        bytes32 _taskId,\n        bytes32 _inStateDeltaHash,\n        bytes32 _outStateDeltaHash,\n        bytes memory _ethCall,\n        bytes memory _sig\n    )\n    public\n    workerLoggedIn(msg.sender)\n    contractDeployed(_scAddr)\n    {\n        require(tasks[_taskId].status == TaskStatus.RecordCreated, 'Invalid task status');\n        verifyReceipt(_scAddr, _taskId, _inStateDeltaHash, _outStateDeltaHash, _ethCall, _sig);\n\n        tasks[_taskId].proof = _sig;\n        tasks[_taskId].status = TaskStatus.ReceiptVerified;\n        workers[msg.sender].balance = workers[msg.sender].balance.add(tasks[_taskId].fee);\n        emit ReceiptVerified(_taskId, _inStateDeltaHash, _outStateDeltaHash, _ethCall, _sig);\n    }\n\n    function verifyReceipts(\n        bytes32 _scAddr,\n        bytes32[] memory _taskIds,\n        bytes32[] memory _inStateDeltaHashes,\n        bytes32[] memory _outStateDeltaHashes,\n        bytes memory _ethCall,\n        bytes memory _sig\n    )\n    internal\n    {\n        // First, we verify the state delta hashes ordering\n        uint index = contracts[_scAddr].stateDeltaHashes.length;\n        if (index == 0) {\n            require(_inStateDeltaHashes[0] == 0x0, 'Invalid input state delta hash for empty state');\n        } else {\n            require(_inStateDeltaHashes[0] == contracts[_scAddr].stateDeltaHashes[index.sub(1)], 'Invalid input state delta hash');\n        }\n        for (uint i = 0; i < _taskIds.length; i++) {\n            require(tasks[_taskIds[i]].status == TaskStatus.RecordCreated, 'Invalid task status');\n            if (i > 0) {\n                require(_inStateDeltaHashes[i] == _outStateDeltaHashes[i - 1], 'Invalid state delta hashes ordering');\n            }\n        }\n        // TODO: verify signature\n        // Then, we store the outStateDeltaHashes\n        for (uint ic = 0; ic < _taskIds.length; ic++) {\n            contracts[_scAddr].stateDeltaHashes.push(_outStateDeltaHashes[ic]);\n            if (ic == _taskIds.length.sub(1)) {\n                tasks[_taskIds[ic]].proof = _sig;\n            }\n            tasks[_taskIds[ic]].status = TaskStatus.ReceiptVerified;\n            workers[msg.sender].balance = workers[msg.sender].balance.add(tasks[_taskIds[ic]].fee);\n        }\n        // TODO: execute the Ethereum calls\n    }\n\n    function commitReceipts(\n        bytes32 _scAddr,\n        bytes32[] memory _taskIds,\n        bytes32[] memory _inStateDeltaHashes,\n        bytes32[] memory _outStateDeltaHashes,\n        bytes memory _ethCall,\n        bytes memory _sig\n    )\n    public\n    workerLoggedIn(msg.sender)\n    contractDeployed(_scAddr)\n    {\n        verifyReceipts(_scAddr, _taskIds, _inStateDeltaHashes, _outStateDeltaHashes, _ethCall, _sig);\n        emit ReceiptsVerified(_taskIds, _inStateDeltaHashes, _outStateDeltaHashes, _ethCall, _sig);\n    }\n\n    // Verify the signature submitted while reparameterizing workers\n    function verifyParamsSig(uint256 _seed, bytes memory _sig)\n    internal\n    pure\n    returns (address)\n    {\n        bytes32 hash = keccak256(abi.encodePacked(_seed));\n        address signer = hash.recover(_sig);\n        return signer;\n    }\n\n    /**\n    * Reparameterizing workers with a new seed\n    * This should be called for each epoch by the Principal node\n    *\n    * @param _seed The random integer generated by the enclave\n    * @param _sig The random integer signed by the the principal node's enclave\n    */\n    function setWorkersParams(uint _seed, bytes memory _sig)\n    public\n    workerRegistered(msg.sender)\n    {\n        // Reparameterizing workers with a new seed\n        // This should be called for each epoch by the Principal node\n\n        // We assume that the Principal is always the first registered node\n        require(workers[msg.sender].signer == principal, \"Only the Principal can update the seed\");\n        // TODO: verify the principal sig\n\n        // Create a new workers parameters item for the specified seed.\n        // The workers parameters list is a sort of cache, it never grows beyond its limit.\n        // If the list is full, the new item will replace the item assigned to the lowest block number.\n        uint paramIndex = 0;\n        for (uint pi = 0; pi < workersParams.length; pi++) {\n            // Find an empty slot in the array, if full use the lowest block number\n            if (workersParams[pi].firstBlockNumber == 0) {\n                paramIndex = pi;\n                break;\n            } else if (workersParams[pi].firstBlockNumber < workersParams[paramIndex].firstBlockNumber) {\n                paramIndex = pi;\n            }\n        }\n        workersParams[paramIndex].firstBlockNumber = block.number;\n        workersParams[paramIndex].seed = _seed;\n        workersParams[paramIndex].nonce = userTaskDeployments[msg.sender];\n\n        // Copy the current worker list\n        uint workerIndex = 0;\n        for (uint wi = 0; wi < workerAddresses.length; wi++) {\n            Worker memory worker = workers[workerAddresses[wi]];\n            if ((worker.balance >= stakingThreshold) && (worker.signer != principal) &&\n                (worker.status == WorkerStatus.LoggedIn)) {\n                workersParams[paramIndex].workers.length++;\n                workersParams[paramIndex].workers[workerIndex] = workerAddresses[wi];\n\n                workersParams[paramIndex].balances.length++;\n                workersParams[paramIndex].balances[workerIndex] = worker.balance;\n\n                workerIndex = workerIndex.add(1);\n            }\n        }\n        emit WorkersParameterized(_seed, block.number, workersParams[paramIndex].workers,\n            workersParams[paramIndex].balances, userTaskDeployments[msg.sender]);\n        userTaskDeployments[msg.sender]++;\n    }\n\n    function getWorkerParamsIndex(uint _blockNumber)\n    internal\n    view\n    returns (uint)\n    {\n        // The workers parameters for a given block number\n        int8 index = - 1;\n        for (uint i = 0; i < workersParams.length; i++) {\n            if (workersParams[i].firstBlockNumber <= _blockNumber && (index == - 1 || workersParams[i].firstBlockNumber > workersParams[uint(index)].firstBlockNumber)) {\n                index = int8(i);\n            }\n        }\n        require(index != - 1, \"No workers parameters entry for specified block number\");\n        return uint(index);\n    }\n\n    function getWorkerParams(uint _blockNumber)\n    public\n    view\n    returns (uint, uint, address[] memory, uint[] memory) {\n        uint index = getWorkerParamsIndex(_blockNumber);\n        WorkersParams memory params = workersParams[index];\n        return (params.firstBlockNumber, params.seed, params.workers, params.balances);\n    }\n\n    function compileTokens(uint _blockNumber, uint _paramIndex, bytes32 _scAddr, uint _nonce)\n    internal\n    view\n    returns (address)\n    {\n        WorkersParams memory params = workersParams[_paramIndex];\n        uint tokenCpt = 0;\n        for (uint i = 0; i < params.workers.length; i++) {\n            if (params.workers[i] != address(0)) {\n                tokenCpt = tokenCpt.add(params.balances[i]);\n            }\n        }\n        bytes32 randHash = keccak256(abi.encodePacked(_blockNumber, params.seed, params.firstBlockNumber, _scAddr,\n            tokenCpt, _nonce));\n        int randVal = int256(uint256(randHash) % tokenCpt);\n        for (uint k = 0; k < params.workers.length; k++) {\n            if (params.workers[k] != address(0)) {\n                randVal -= int256(params.balances[k]);\n                if (randVal <= 0) {\n                    return params.workers[k];\n                }\n            }\n        }\n        return params.workers[params.workers.length - 1];\n    }\n\n    function getWorkerGroup(uint _blockNumber, bytes32 _scAddr)\n    public\n    view\n    returns (address[] memory)\n    {\n        // Compile a list of selected workers for the block number and\n        // secret contract.\n        uint paramIndex = getWorkerParamsIndex(_blockNumber);\n        WorkersParams memory params = workersParams[paramIndex];\n\n        address[] memory selectedWorkers = new address[](workerGroupSize);\n        uint nonce = 0;\n        for (uint it = 0; it < workerGroupSize; it++) {\n            do {\n                address worker = compileTokens(_blockNumber, paramIndex, _scAddr, nonce);\n                bool dup = false;\n                for (uint id = 0; id < selectedWorkers.length; id++) {\n                    if (worker == selectedWorkers[id]) {\n                        dup = true;\n                        break;\n                    }\n                }\n                if (dup == false) {\n                    selectedWorkers[it] = worker;\n                }\n                nonce++;\n            }\n            while (selectedWorkers[it] == address(0));\n        }\n        return selectedWorkers;\n    }\n\n    /**\n    * The worker parameters corresponding to the specified block number\n    *\n    * @param _blockNumber The reference block number\n    */\n    function getWorkersParams(uint _blockNumber)\n    public\n    view\n    returns (uint, uint, address[] memory, address[] memory)\n    {\n        // TODO: finalize implementation\n        uint firstBlockNumber = 0;\n        uint seed = 0;\n        address[] memory activeWorkers;\n        address[] memory activeContracts;\n        return (firstBlockNumber, seed, activeWorkers, activeContracts);\n    }\n\n    /**\n    * The RLP encoded report returned by the IAS server\n    *\n    * @param _custodian The worker's custodian address\n    */\n    function getReport(address _custodian)\n    public\n    view\n    workerRegistered(_custodian)\n    returns (address, bytes memory)\n    {\n        // The RLP encoded report and signer's address for the specified worker\n        require(workers[_custodian].signer != address(0), \"Worker not registered\");\n        return (workers[_custodian].signer, workers[_custodian].report);\n    }\n\n\n    /**\n    * This verifies an IAS report with hard coded modulus and exponent of Intel's certificate.\n    * @param data The report itself\n    * @param signature The signature of the report\n    */\n    function verifyReport(bytes memory data, bytes memory signature) \n    public \n    view\n    returns (uint) {\n        /*\n        this is the modulus and the exponent of intel's certificate, you can extract it using:\n        `openssl x509 -noout -modulus -in intel.cert`\n        and `openssl x509 -in intel.cert  -text`\n        */\n        bytes memory exponent = \"0x0000000000000000000000000000000000000000000000000000000000000000000000000000000000000000000000000000000000000000000000000000000000000000000000000000000000000000000000000000000000000000000000000000000000000000000000000000000000000000000000000000000000010001\";\n        bytes memory modulus = \"0xA97A2DE0E66EA6147C9EE745AC0162686C7192099AFC4B3F040FAD6DE093511D74E802F510D716038157DCAF84F4104BD3FED7E6B8F99C8817FD1FF5B9B864296C3D81FA8F1B729E02D21D72FFEE4CED725EFE74BEA68FBC4D4244286FCDD4BF64406A439A15BCB4CF67754489C423972B4A80DF5C2E7C5BC2DBAF2D42BB7B244F7C95BF92C75D3B33FC5410678A89589D1083DA3ACC459F2704CD99598C275E7C1878E00757E5BDB4E840226C11C0A17FF79C80B15C1DDB5AF21CC2417061FBD2A2DA819ED3B72B7EFAA3BFEBE2805C9B8AC19AA346512D484CFC81941E15F55881CC127E8F7AA12300CD5AFB5742FA1D20CB467A5BEB1C666CF76A368978B5\";        \n        \n        return SolRsaVerify.pkcs1Sha256VerifyRaw(data, signature, exponent, modulus);\n    }\n}\n",
  "sourcePath": "/home/elichai2/gits/enigma/enigma-contract-internal/contracts/Enigma.sol",
  "compiler": {
    "name": "solc",
    "version": "0.5.0+commit.1d4f565a.Emscripten.clang"
  },
  "schemaVersion": "3.0.1",
  "updatedAt": "2019-01-14T17:59:46.823Z",
  "devdoc": {
    "methods": {
      "getReport(address)": {
        "params": {
          "_custodian": "The worker's custodian address"
        }
      },
      "getWorkersParams(uint256)": {
        "params": {
          "_blockNumber": "The reference block number"
        }
      },
      "register(address,bytes)": {
        "params": {
          "_report": "The RLP encoded report returned by the IAS",
          "_signer": "The signer address, derived from the enclave public key"
        }
      },
      "setWorkersParams(uint256,bytes)": {
        "params": {
          "_seed": "The random integer generated by the enclave",
          "_sig": "The random integer signed by the the principal node's enclave"
        }
      },
      "verifyReport(bytes,bytes)": {
        "params": {
          "data": "The report itself",
          "signature": "The signature of the report"
        }
      }
    }
  },
  "userdoc": {
    "methods": {
      "commitReceipt(bytes32,bytes32,bytes32,bytes32,bytes,bytes)": {
        "notice": "Commit the computation task results on chain"
      },
      "createTaskRecord(bytes32,uint256)": {
        "notice": "Store task record    "
      },
      "getReport(address)": {
        "notice": "The RLP encoded report returned by the IAS server"
      },
      "getSecretContractAddresses(uint256,uint256)": {
        "notice": "Selects address from _start up to, but not including, the _stop number*"
      },
      "getStateDeltaHashes(bytes32,uint256,uint256)": {
        "notice": "Selects state deltas from _start up to, but not including, the _stop number*"
      },
      "getWorkersParams(uint256)": {
        "notice": "The worker parameters corresponding to the specified block number"
      },
      "register(address,bytes)": {
        "notice": "Registers a new worker of change the signer parameters of an existing worker. This should be called by every worker (and the principal) node in order to receive tasks."
      },
      "setWorkersParams(uint256,bytes)": {
        "notice": "Reparameterizing workers with a new seed This should be called for each epoch by the Principal node"
      },
      "verifyReport(bytes,bytes)": {
        "notice": "This verifies an IAS report with hard coded modulus and exponent of Intel's certificate."
      }
    }
  }
}