{
  "contractName": "Enigma",
  "abi": [
    {
      "constant": true,
      "inputs": [
        {
          "name": "",
          "type": "uint256"
        }
      ],
      "name": "workerAddresses",
      "outputs": [
        {
          "name": "",
          "type": "address"
        }
      ],
      "payable": false,
      "stateMutability": "view",
      "type": "function",
      "signature": "0x0a318da0"
    },
    {
      "constant": true,
      "inputs": [
        {
          "name": "",
          "type": "address"
        }
      ],
      "name": "workers",
      "outputs": [
        {
          "name": "signer",
          "type": "address"
        },
        {
          "name": "status",
          "type": "uint8"
        },
        {
          "name": "report",
          "type": "bytes"
        },
        {
          "name": "balance",
          "type": "uint256"
        }
      ],
      "payable": false,
      "stateMutability": "view",
      "type": "function",
      "signature": "0x4048a257"
    },
    {
      "constant": true,
      "inputs": [
        {
          "name": "",
          "type": "address"
        }
      ],
      "name": "contracts",
      "outputs": [
        {
          "name": "owner",
          "type": "address"
        },
        {
          "name": "codeHash",
          "type": "bytes32"
        },
        {
          "name": "status",
          "type": "uint8"
        }
      ],
      "payable": false,
      "stateMutability": "view",
      "type": "function",
      "signature": "0x69dc9ff3"
    },
    {
      "constant": true,
      "inputs": [],
      "name": "engToken",
      "outputs": [
        {
          "name": "",
          "type": "address"
        }
      ],
      "payable": false,
      "stateMutability": "view",
      "type": "function",
      "signature": "0x9489ad40"
    },
    {
      "constant": true,
      "inputs": [
        {
          "name": "",
          "type": "bytes32"
        }
      ],
      "name": "tasks",
      "outputs": [
        {
          "name": "fee",
          "type": "uint256"
        },
        {
          "name": "token",
          "type": "address"
        },
        {
          "name": "tokenValue",
          "type": "uint256"
        },
        {
          "name": "proof",
          "type": "bytes"
        },
        {
          "name": "sender",
          "type": "address"
        },
        {
          "name": "status",
          "type": "uint8"
        }
      ],
      "payable": false,
      "stateMutability": "view",
      "type": "function",
      "signature": "0xe579f500"
    },
    {
      "inputs": [
        {
          "name": "_tokenAddress",
          "type": "address"
        },
        {
          "name": "_principal",
          "type": "address"
        }
      ],
      "payable": false,
      "stateMutability": "nonpayable",
      "type": "constructor",
      "signature": "constructor"
    },
    {
      "anonymous": false,
      "inputs": [
        {
          "indexed": false,
          "name": "custodian",
          "type": "address"
        },
        {
          "indexed": false,
          "name": "signer",
          "type": "address"
        }
      ],
      "name": "Registered",
      "type": "event",
      "signature": "0x0a31ee9d46a828884b81003c8498156ea6aa15b9b54bdd0ef0b533d9eba57e55"
    },
    {
      "anonymous": false,
      "inputs": [
        {
          "indexed": false,
          "name": "sig",
          "type": "bytes"
        },
        {
          "indexed": false,
          "name": "hash",
          "type": "bytes32"
        },
        {
          "indexed": false,
          "name": "workerAddr",
          "type": "address"
        }
      ],
      "name": "ValidatedSig",
      "type": "event",
      "signature": "0xe36691ca52ee024e298e5c0ff07191b87f0ac571c01a7631db2d70d573d955cb"
    },
    {
      "anonymous": false,
      "inputs": [
        {
          "indexed": false,
          "name": "seed",
          "type": "uint256"
        },
        {
          "indexed": false,
          "name": "blockNumber",
          "type": "uint256"
        },
        {
          "indexed": false,
          "name": "workers",
          "type": "address[]"
        },
        {
          "indexed": false,
          "name": "balances",
          "type": "uint256[]"
        }
      ],
      "name": "WorkersParameterized",
      "type": "event",
      "signature": "0x7047379c64ccafb62f6625e6b2d8eb6e1b0e091fac56a11ab5e2fd896e4db1d0"
    },
    {
      "anonymous": false,
      "inputs": [
        {
          "indexed": false,
          "name": "taskId",
          "type": "bytes32"
        },
        {
          "indexed": false,
          "name": "fee",
          "type": "uint256"
        },
        {
          "indexed": false,
          "name": "token",
          "type": "address"
        },
        {
          "indexed": false,
          "name": "tokenValue",
          "type": "uint256"
        },
        {
          "indexed": false,
          "name": "sender",
          "type": "address"
        }
      ],
      "name": "TaskRecordCreated",
      "type": "event",
      "signature": "0x51364a5a527e38841b15c974f7924dad755bc9ce0d29701d7501a7bd297b787b"
    },
    {
      "anonymous": false,
      "inputs": [
        {
          "indexed": false,
          "name": "taskIds",
          "type": "bytes32[]"
        },
        {
          "indexed": false,
          "name": "fees",
          "type": "uint256[]"
        },
        {
          "indexed": false,
          "name": "tokens",
          "type": "address[]"
        },
        {
          "indexed": false,
          "name": "tokenValues",
          "type": "uint256[]"
        },
        {
          "indexed": false,
          "name": "sender",
          "type": "address"
        }
      ],
      "name": "TaskRecordsCreated",
      "type": "event",
      "signature": "0xcb8afab3437be2f96ef2a2932eb02d02fd765bfe8be7c1f5a58edd6452317dde"
    },
    {
      "anonymous": false,
      "inputs": [
        {
          "indexed": false,
          "name": "taskId",
          "type": "bytes32"
        },
        {
          "indexed": false,
          "name": "inStateDeltaHash",
          "type": "bytes32"
        },
        {
          "indexed": false,
          "name": "outStateDeltaHash",
          "type": "bytes32"
        },
        {
          "indexed": false,
          "name": "ethCall",
          "type": "bytes"
        },
        {
          "indexed": false,
          "name": "sig",
          "type": "bytes"
        }
      ],
      "name": "ReceiptVerified",
      "type": "event",
      "signature": "0x665329bb9a4e1062edc215d9c5ab57fa54c4c88e3dfbcc68e0cd92fdd010fa6e"
    },
    {
      "anonymous": false,
      "inputs": [
        {
          "indexed": false,
          "name": "taskIds",
          "type": "bytes32[]"
        },
        {
          "indexed": false,
          "name": "inStateDeltaHashes",
          "type": "bytes32[]"
        },
        {
          "indexed": false,
          "name": "outStateDeltaHashes",
          "type": "bytes32[]"
        },
        {
          "indexed": false,
          "name": "ethCalls",
          "type": "bytes[]"
        },
        {
          "indexed": false,
          "name": "sigs",
          "type": "bytes[]"
        }
      ],
      "name": "ReceiptsVerified",
      "type": "event",
      "signature": "0x7243cbab94fa1d25e0cb54fdd36b41f803ff5e5a29aaae09979a888b156b5872"
    },
    {
      "anonymous": false,
      "inputs": [
        {
          "indexed": false,
          "name": "from",
          "type": "address"
        },
        {
          "indexed": false,
          "name": "value",
          "type": "uint256"
        }
      ],
      "name": "DepositSuccessful",
      "type": "event",
      "signature": "0xb3ef81558ed1a50072a492984535a009da8b129c749500b387f1e5f4886bdde5"
    },
    {
      "anonymous": false,
      "inputs": [
        {
          "indexed": false,
          "name": "scAddr",
          "type": "address"
        }
      ],
      "name": "SecretContractDeployed",
      "type": "event",
      "signature": "0x51121fb3e49166661c9764a675653008b9754806bacf586c14a1fa4e63a3db9c"
    },
    {
      "constant": false,
      "inputs": [
        {
          "name": "signer",
          "type": "address"
        },
        {
          "name": "report",
          "type": "bytes"
        }
      ],
      "name": "register",
      "outputs": [],
      "payable": false,
      "stateMutability": "nonpayable",
      "type": "function",
      "signature": "0x24b8fbf6"
    },
    {
      "constant": false,
      "inputs": [
        {
          "name": "custodian",
          "type": "address"
        },
        {
          "name": "amount",
          "type": "uint256"
        }
      ],
      "name": "deposit",
      "outputs": [],
      "payable": false,
      "stateMutability": "nonpayable",
      "type": "function",
      "signature": "0x47e7ef24"
    },
    {
      "constant": false,
      "inputs": [
        {
          "name": "scAddr",
          "type": "address"
        },
        {
          "name": "codeHash",
          "type": "bytes32"
        },
        {
          "name": "owner",
          "type": "address"
        },
        {
          "name": "sig",
          "type": "bytes"
        }
      ],
      "name": "deploySecretContract",
      "outputs": [],
      "payable": false,
      "stateMutability": "nonpayable",
      "type": "function",
      "signature": "0xd3b524c4"
    },
    {
      "constant": false,
      "inputs": [
        {
          "name": "scAddr",
          "type": "address"
        }
      ],
      "name": "isDeployed",
      "outputs": [
        {
          "name": "",
          "type": "bool"
        }
      ],
      "payable": false,
      "stateMutability": "nonpayable",
      "type": "function",
      "signature": "0x90184b02"
    },
    {
      "constant": false,
      "inputs": [
        {
          "name": "scAddr",
          "type": "address"
        }
      ],
      "name": "getCodeHash",
      "outputs": [
        {
          "name": "",
          "type": "bytes32"
        }
      ],
      "payable": false,
      "stateMutability": "nonpayable",
      "type": "function",
      "signature": "0x81ea4408"
    },
    {
      "constant": false,
      "inputs": [
        {
          "name": "scAddr",
          "type": "address"
        }
      ],
      "name": "countStateDeltas",
      "outputs": [
        {
          "name": "",
          "type": "uint256"
        }
      ],
      "payable": false,
      "stateMutability": "nonpayable",
      "type": "function",
      "signature": "0x84062df7"
    },
    {
      "constant": false,
      "inputs": [
        {
          "name": "scAddr",
          "type": "address"
        },
        {
          "name": "index",
          "type": "uint256"
        }
      ],
      "name": "getStateDeltaHash",
      "outputs": [
        {
          "name": "",
          "type": "bytes32"
        }
      ],
      "payable": false,
      "stateMutability": "nonpayable",
      "type": "function",
      "signature": "0x44409496"
    },
    {
      "constant": false,
      "inputs": [
        {
          "name": "scAddr",
          "type": "address"
        },
        {
          "name": "stateDeltaHash",
          "type": "bytes32"
        }
      ],
      "name": "isValidDeltaHash",
      "outputs": [
        {
          "name": "",
          "type": "bool"
        }
      ],
      "payable": false,
      "stateMutability": "nonpayable",
      "type": "function",
      "signature": "0x7b5b2ce3"
    },
    {
      "constant": false,
      "inputs": [
        {
          "name": "taskId",
          "type": "bytes32"
        },
        {
          "name": "fee",
          "type": "uint256"
        },
        {
          "name": "token",
          "type": "address"
        },
        {
          "name": "tokenValue",
          "type": "uint256"
        }
      ],
      "name": "createTaskRecord",
      "outputs": [],
      "payable": false,
      "stateMutability": "nonpayable",
      "type": "function",
      "signature": "0xd28cf5c1"
    },
    {
      "constant": false,
      "inputs": [
        {
          "name": "taskIds",
          "type": "bytes32[]"
        },
        {
          "name": "fees",
          "type": "uint256[]"
        },
        {
          "name": "tokens",
          "type": "address[]"
        },
        {
          "name": "tokenValues",
          "type": "uint256[]"
        }
      ],
      "name": "createTaskRecords",
      "outputs": [],
      "payable": false,
      "stateMutability": "nonpayable",
      "type": "function",
      "signature": "0xa85d84ef"
    },
    {
      "constant": false,
      "inputs": [
        {
          "name": "scAddr",
          "type": "address"
        },
        {
          "name": "taskId",
          "type": "bytes32"
        },
        {
          "name": "inStateDeltaHash",
          "type": "bytes32"
        },
        {
          "name": "outStateDeltaHash",
          "type": "bytes32"
        },
        {
          "name": "ethCall",
          "type": "bytes"
        },
        {
          "name": "sig",
          "type": "bytes"
        }
      ],
      "name": "commitReceipt",
      "outputs": [],
      "payable": false,
      "stateMutability": "nonpayable",
      "type": "function",
      "signature": "0x5956efef"
    },
    {
      "constant": false,
      "inputs": [
        {
          "name": "scAddr",
          "type": "address"
        },
        {
          "name": "taskIds",
          "type": "bytes32[]"
        },
        {
          "name": "inStateDeltaHashes",
          "type": "bytes32[]"
        },
        {
          "name": "outStateDeltaHashes",
          "type": "bytes32[]"
        },
        {
          "name": "ethCalls",
          "type": "bytes[]"
        },
        {
          "name": "sigs",
          "type": "bytes[]"
        }
      ],
      "name": "commitReceipts",
      "outputs": [],
      "payable": false,
      "stateMutability": "nonpayable",
      "type": "function",
      "signature": "0xd245f478"
    },
    {
      "constant": false,
      "inputs": [
        {
          "name": "seed",
          "type": "uint256"
        },
        {
          "name": "sig",
          "type": "bytes"
        }
      ],
      "name": "setWorkersParams",
      "outputs": [],
      "payable": false,
      "stateMutability": "nonpayable",
      "type": "function",
      "signature": "0x2873e73c"
    },
    {
      "constant": true,
      "inputs": [
        {
          "name": "blockNumber",
          "type": "uint256"
        }
      ],
      "name": "getWorkerParams",
      "outputs": [
        {
          "name": "",
          "type": "uint256"
        },
        {
          "name": "",
          "type": "uint256"
        },
        {
          "name": "",
          "type": "address[]"
        },
        {
          "name": "",
          "type": "uint256[]"
        }
      ],
      "payable": false,
      "stateMutability": "view",
      "type": "function",
      "signature": "0x9836ca31"
    },
    {
      "constant": false,
      "inputs": [
        {
          "name": "blockNumber",
          "type": "uint256"
        },
        {
          "name": "scAddr",
          "type": "address"
        }
      ],
      "name": "getWorkerGroup",
      "outputs": [],
      "payable": false,
      "stateMutability": "nonpayable",
      "type": "function",
      "signature": "0xd9611203"
    },
    {
      "constant": true,
      "inputs": [
        {
          "name": "blockNumber",
          "type": "uint256"
        }
      ],
      "name": "getWorkersParams",
      "outputs": [
        {
          "name": "",
          "type": "uint256"
        },
        {
          "name": "",
          "type": "uint256"
        },
        {
          "name": "",
          "type": "address[]"
        },
        {
          "name": "",
          "type": "address[]"
        }
      ],
      "payable": false,
      "stateMutability": "view",
      "type": "function",
      "signature": "0x59c91a12"
    },
    {
      "constant": true,
      "inputs": [
        {
          "name": "custodian",
          "type": "address"
        }
      ],
      "name": "getReport",
      "outputs": [
        {
          "name": "",
          "type": "address"
        },
        {
          "name": "",
          "type": "bytes"
        }
      ],
      "payable": false,
      "stateMutability": "view",
      "type": "function",
      "signature": "0xa3bdae3e"
    }
  ],
  "bytecode": "0x60806040523480156200001157600080fd5b5060405160408062003abe833981018060405262000033919081019062000082565b60008054600160a060020a03938416600160a060020a03199182161790915560018054929093169116178155601a55600a601b55620000cd565b60006200007b8251620000c1565b9392505050565b600080604083850312156200009657600080fd5b6000620000a485856200006d565b9250506020620000b7858286016200006d565b9150509250929050565b600160a060020a031690565b6139e180620000dd6000396000f3006080604052600436106101275763ffffffff7c01000000000000000000000000000000000000000000000000000000006000350416630a318da0811461012c57806324b8fbf6146101625780632873e73c146101845780634048a257146101a457806344409496146101d457806347e7ef24146102015780635956efef1461022157806359c91a121461024157806369dc9ff3146102715780637b5b2ce3146102a057806381ea4408146102cd57806384062df7146102ed57806390184b021461030d5780639489ad401461032d5780639836ca311461034f578063a3bdae3e1461037f578063a85d84ef146103ad578063d245f478146103cd578063d28cf5c1146103ed578063d3b524c41461040d578063d96112031461042d578063e579f5001461044d575b600080fd5b34801561013857600080fd5b5061014c610147366004612e70565b61047f565b604051610159919061343d565b60405180910390f35b34801561016e57600080fd5b5061018261017d366004612d74565b6104a7565b005b34801561019057600080fd5b5061018261019f366004612f13565b6105db565b3480156101b057600080fd5b506101c46101bf366004612af2565b6109e9565b60405161015994939291906134c9565b3480156101e057600080fd5b506101f46101ef366004612c17565b610aad565b60405161015991906135ee565b34801561020d57600080fd5b5061018261021c366004612c17565b610b37565b34801561022d57600080fd5b5061018261023c366004612cca565b610cd4565b34801561024d57600080fd5b5061026161025c366004612e70565b610f2d565b60405161015994939291906137d5565b34801561027d57600080fd5b5061029161028c366004612af2565b610f3a565b60405161015993929190613466565b3480156102ac57600080fd5b506102c06102bb366004612c17565b610f68565b60405161015991906135e0565b3480156102d957600080fd5b506101f46102e8366004612af2565b611042565b3480156102f957600080fd5b506101f4610308366004612af2565b6110b1565b34801561031957600080fd5b506102c0610328366004612af2565b611120565b34801561033957600080fd5b50610342611165565b60405161015991906136c1565b34801561035b57600080fd5b5061036f61036a366004612e70565b611174565b6040516101599493929190613816565b34801561038b57600080fd5b5061039f61039a366004612af2565b61129f565b60405161015992919061348e565b3480156103b957600080fd5b506101826103c8366004612dbc565b6114b0565b3480156103d957600080fd5b506101826103e8366004612b18565b611726565b3480156103f957600080fd5b50610182610408366004612e8e565b611a8e565b34801561041957600080fd5b50610182610428366004612c51565b611b6e565b34801561043957600080fd5b50610182610448366004612ee3565b611d5e565b34801561045957600080fd5b5061046d610468366004612e70565b61207e565b6040516101599695949392919061377f565b601680548290811061048d57fe5b600091825260209091200154600160a060020a0316905081565b33600090815260176020526040812054600160a060020a0316151561051b5750601680549081906104db90600183016127af565b50336016828154811015156104ec57fe5b9060005260206000200160006101000a815481600160a060020a030219169083600160a060020a031602179055505b3360009081526017602090815260408220805473ffffffffffffffffffffffffffffffffffffffff1916600160a060020a0387161781556002810192909255835161056c92600101918501906127d8565b503360008181526017602052604090819020805474ff0000000000000000000000000000000000000000191660a060020a179055517f0a31ee9d46a828884b81003c8498156ea6aa15b9b54bdd0ef0b533d9eba57e55916105ce91869061344b565b60405180910390a1505050565b600080600080336105ea612856565b600160a060020a0382811660009081526017602090815260409182902082516080810184528154948516815260a060020a90940460ff1684830152600180820180548551600261010094831615949094026000190190911692909204601f810185900485028301850186528083529294860193919290918301828280156106b25780601f10610687576101008083540402835291602001916106b2565b820191906000526020600020905b81548152906001019060200180831161069557829003601f168201915b5050505050815260200160028201548152505090506000816020015160ff161115156106fc5760405160e560020a62461bcd0281526004016106f3906136cf565b60405180910390fd5b60015433600090815260176020526040902054600160a060020a0390811691161461073c5760405160e560020a62461bcd0281526004016106f39061372f565b60009550600094505b60058510156107a7576002856005811061075b57fe5b6004020154151561076e578495506107a7565b6002866005811061077b57fe5b60040201546002866005811061078d57fe5b6004020154101561079c578495505b600190940193610745565b43600287600581106107b557fe5b600402015587600287600581106107c857fe5b600402016003018190555060009350600092505b60165483101561097a57601a54601760006016868154811015156107fc57fe5b6000918252602080832090910154600160a060020a03168352820192909252604001902060020154111561096f576002866005811061083757fe5b60040201600101805480919060010161085091906127af565b50601680548490811061085f57fe5b600091825260209091200154600160a060020a03166002876005811061088157fe5b600402016001018581548110151561089557fe5b6000918252602090912001805473ffffffffffffffffffffffffffffffffffffffff1916600160a060020a0392909216919091179055600286600581106108d857fe5b6004020160020180548091906001016108f191906127af565b506017600060168581548110151561090557fe5b6000918252602080832090910154600160a060020a03168352820192909252604001902060029081015490876005811061093b57fe5b600402016002018581548110151561094f57fe5b60009182526020909120015561096c84600163ffffffff61215816565b93505b6001909201916107dc565b7f7047379c64ccafb62f6625e6b2d8eb6e1b0e091fac56a11ab5e2fd896e4db1d08843600289600581106109aa57fe5b6004020160010160028a6005811015156109c057fe5b600402016002016040516109d79493929190613857565b60405180910390a15050505050505050565b6017602090815260009182526040918290208054600180830180548651600261010094831615949094026000190190911692909204601f8101869004860283018601909652858252600160a060020a0383169560a060020a90930460ff169491929091830182828015610a9d5780601f10610a7257610100808354040283529160200191610a9d565b820191906000526020600020905b815481529060010190602001808311610a8057829003601f168201915b5050505050908060020154905084565b6000826001600160a060020a03821660009081526019602052604090206003015460ff166001811115610adc57fe5b14610afc5760405160e560020a62461bcd0281526004016106f39061374f565b600160a060020a0384166000908152601960205260409020600201805484908110610b2357fe5b906000526020600020015491505092915050565b81610b40612856565b600160a060020a0382811660009081526017602090815260409182902082516080810184528154948516815260a060020a90940460ff1684830152600180820180548551600261010094831615949094026000190190911692909204601f81018590048502830185018652808352929486019391929091830182828015610c085780601f10610bdd57610100808354040283529160200191610c08565b820191906000526020600020905b815481529060010190602001808311610beb57829003601f168201915b5050505050815260200160028201548152505090506000816020015160ff16111515610c495760405160e560020a62461bcd0281526004016106f3906136cf565b600160a060020a038416600090815260176020526040902060020154610c75908463ffffffff61215816565b600160a060020a0385166000908152601760205260409081902060020191909155517fb3ef81558ed1a50072a492984535a009da8b129c749500b387f1e5f4886bdde590610cc690869086906134ae565b60405180910390a150505050565b33610cdd612856565b600160a060020a0382811660009081526017602090815260409182902082516080810184528154948516815260a060020a90940460ff1684830152600180820180548551600261010094831615949094026000190190911692909204601f81018590048502830185018652808352929486019391929091830182828015610da55780601f10610d7a57610100808354040283529160200191610da5565b820191906000526020600020905b815481529060010190602001808311610d8857829003601f168201915b5050505050815260200160028201548152505090506000816020015160ff16111515610de65760405160e560020a62461bcd0281526004016106f3906136cf565b876001600160a060020a03821660009081526019602052604090206003015460ff166001811115610e1357fe5b14610e335760405160e560020a62461bcd0281526004016106f39061374f565b6000808981526018602052604090206004015460a060020a900460ff166001811115610e5b57fe5b14610e7b5760405160e560020a62461bcd0281526004016106f3906136ef565b610e8989898989898961216b565b60008881526018602090815260409091208551610eae926003909201918701906127d8565b5060008881526018602052604090819020600401805474ff0000000000000000000000000000000000000000191660a060020a179055517f665329bb9a4e1062edc215d9c5ab57fa54c4c88e3dfbcc68e0cd92fdd010fa6e90610f1a908a908a908a908a908a906135fc565b60405180910390a1505050505050505050565b6000806060809193509193565b601960205260009081526040902080546001820154600390920154600160a060020a03909116919060ff1683565b60008080846001600160a060020a03821660009081526019602052604090206003015460ff166001811115610f9957fe5b14610fb95760405160e560020a62461bcd0281526004016106f39061374f565b60009250600091505b600160a060020a03861660009081526019602052604090206002015482101561103557600160a060020a038616600090815260196020526040902060020180548691908490811061100f57fe5b600091825260209091200154141561102a5760019250611035565b600190910190610fc2565b8293505b50505092915050565b6000816001600160a060020a03821660009081526019602052604090206003015460ff16600181111561107157fe5b146110915760405160e560020a62461bcd0281526004016106f39061374f565b5050600160a060020a031660009081526019602052604090206001015490565b6000816001600160a060020a03821660009081526019602052604090206003015460ff1660018111156110e057fe5b146111005760405160e560020a62461bcd0281526004016106f39061374f565b5050600160a060020a031660009081526019602052604090206002015490565b60006001600160a060020a03831660009081526019602052604090206003015460ff16600181111561114e57fe5b141561115c57506001611160565b5060005b919050565b600054600160a060020a031681565b600080606080600061118461288b565b61118d876123bb565b91506002826005811061119c57fe5b6004020160806040519081016040529081600082015481526020016001820180548060200260200160405190810160405280929190818152602001828054801561120f57602002820191906000526020600020905b8154600160a060020a031681526001909101906020018083116111f1575b505050505081526020016002820180548060200260200160405190810160405280929190818152602001828054801561126757602002820191906000526020600020905b815481526020019060010190808311611253575b5050509183525050600391909101546020918201528151606083015191830151604090930151909a9199509197509095509350505050565b60006060826112ac612856565b600160a060020a0382811660009081526017602090815260409182902082516080810184528154948516815260a060020a90940460ff1684830152600180820180548551600261010094831615949094026000190190911692909204601f810185900485028301850186528083529294860193919290918301828280156113745780601f1061134957610100808354040283529160200191611374565b820191906000526020600020905b81548152906001019060200180831161135757829003601f168201915b5050505050815260200160028201548152505090506000816020015160ff161115156113b55760405160e560020a62461bcd0281526004016106f3906136cf565b600160a060020a038086166000908152601760205260409020541615156113f15760405160e560020a62461bcd0281526004016106f39061371f565b600160a060020a038581166000908152601760209081526040918290208054600191820180548551600261010095831615959095026000190190911693909304601f810185900485028401850190955284835294169392909183919083018282801561149e5780601f106114735761010080835404028352916020019161149e565b820191906000526020600020905b81548152906001019060200180831161148157829003601f168201915b50505050509050935093505050915091565b60005b84518110156116e0576018600086838151811015156114ce57fe5b6020908102909101810151825281019190915260400160002060040154600160a060020a0316156115145760405160e560020a62461bcd0281526004016106f39061373f565b838181518110151561152257fe5b9060200190602002015160186000878481518110151561153e57fe5b6020908102909101810151825281019190915260400160002055825183908290811061156657fe5b9060200190602002015160186000878481518110151561158257fe5b6020908102919091018101518252810191909152604001600020600101805473ffffffffffffffffffffffffffffffffffffffff1916600160a060020a039290921691909117905581518290829081106115d857fe5b906020019060200201516018600087848151811015156115f457fe5b9060200190602002015160001916600019168152602001908152602001600020600201819055503360186000878481518110151561162e57fe5b60209081029190910181015182528101919091526040016000908120600401805473ffffffffffffffffffffffffffffffffffffffff1916600160a060020a0393909316929092179091558551601890829088908590811061168c57fe5b60209081029091018101518252810191909152604001600020600401805474ff0000000000000000000000000000000000000000191660a060020a8360018111156116d357fe5b02179055506001016114b3565b7fcb8afab3437be2f96ef2a2932eb02d02fd765bfe8be7c1f5a58edd6452317dde858585853360405161171795949392919061357a565b60405180910390a15050505050565b600033611731612856565b600160a060020a0382811660009081526017602090815260409182902082516080810184528154948516815260a060020a90940460ff1684830152600180820180548551600261010094831615949094026000190190911692909204601f810185900485028301850186528083529294860193919290918301828280156117f95780601f106117ce576101008083540402835291602001916117f9565b820191906000526020600020905b8154815290600101906020018083116117dc57829003601f168201915b5050505050815260200160028201548152505090506000816020015160ff1611151561183a5760405160e560020a62461bcd0281526004016106f3906136cf565b886001600160a060020a03821660009081526019602052604090206003015460ff16600181111561186757fe5b146118875760405160e560020a62461bcd0281526004016106f39061374f565b600093505b8851841015611a43576000601860008b878151811015156118a957fe5b602090810290910181015182528101919091526040016000206004015460ff60a060020a9091041660018111156118dc57fe5b146118fc5760405160e560020a62461bcd0281526004016106f3906136ef565b61197d8a8a8681518110151561190e57fe5b906020019060200201518a8781518110151561192657fe5b906020019060200201518a8881518110151561193e57fe5b906020019060200201518a8981518110151561195657fe5b906020019060200201518a8a81518110151561196e57fe5b9060200190602002015161216b565b848481518110151561198b57fe5b90602001906020020151601860008b878151811015156119a757fe5b602090810290910181015182528181019290925260400160002082516119d79360039092019291909101906127d8565b506001601860008b878151811015156119ec57fe5b60209081029091018101518252810191909152604001600020600401805474ff0000000000000000000000000000000000000000191660a060020a836001811115611a3357fe5b021790555060019093019261188c565b7f7243cbab94fa1d25e0cb54fdd36b41f803ff5e5a29aaae09979a888b156b58728989898989604051611a7a95949392919061350e565b60405180910390a150505050505050505050565b600084815260186020526040902060040154600160a060020a031615611ac95760405160e560020a62461bcd0281526004016106f39061373f565b60008481526018602052604090819020848155600181018054600160a060020a03861673ffffffffffffffffffffffffffffffffffffffff199182161790915560028201849055600490910180549091163390811774ff0000000000000000000000000000000000000000191690915590517f51364a5a527e38841b15c974f7924dad755bc9ce0d29701d7501a7bd297b787b91610cc691879187918791879161364a565b33611b77612856565b600160a060020a0382811660009081526017602090815260409182902082516080810184528154948516815260a060020a90940460ff1684830152600180820180548551600261010094831615949094026000190190911692909204601f81018590048502830185018652808352929486019391929091830182828015611c3f5780601f10611c1457610100808354040283529160200191611c3f565b820191906000526020600020905b815481529060010190602001808311611c2257829003601f168201915b5050505050815260200160028201548152505090506000816020015160ff16111515611c805760405160e560020a62461bcd0281526004016106f3906136cf565b600160a060020a03861660009081526019602052604081206003015460ff166001811115611caa57fe5b14611cca5760405160e560020a62461bcd0281526004016106f3906136df565b600160a060020a038681166000908152601960205260409020805473ffffffffffffffffffffffffffffffffffffffff191691861691909117815560018082018790556003909101805460ff1916828002179055507f51121fb3e49166661c9764a675653008b9754806bacf586c14a1fa4e63a3db9c86604051611d4e919061343d565b60405180910390a1505050505050565b60006060611d6a61288b565b60606000806000806000806000611d808d6123bb565b9a50611d8b8b612463565b995060028b60058110611d9a57fe5b60040201608060405190810160405290816000820154815260200160018201805480602002602001604051908101604052809291908181526020018280548015611e0d57602002820191906000526020600020905b8154600160a060020a03168152600190910190602001808311611def575b5050505050815260200160028201805480602002602001604051908101604052809291908181526020018280548015611e6557602002820191906000526020600020905b815481526020019060010190808311611e51575b505050505081526020016003820154815250509850601b54604051908082528060200260200182016040528015611ea6578160200160208202803883390190505b5097505b875187101561206f575b600095508589606001518e8e6040516020018085815260200184815260200183815260200182600160a060020a0316600160a060020a03166c010000000000000000000000000281526014019450505050506040516020818303038152906040526040518082805190602001908083835b60208310611f445780518252601f199092019160209182019101611f25565b6001836020036101000a0380198251168184511680821785525050505050509050019150506040518091039020945089518560019004811515611f8357fe5b0693508984815181101515611f9457fe5b906020019060200201519250600091505b8751811015611ff0578781815181101515611fbc57fe5b90602001906020020151600160a060020a031683600160a060020a03161415611fe85760019150611ff0565b600101611fa5565b8115156120225782888881518110151561200657fe5b600160a060020a03909216602092830290910190910152612036565b61203386600163ffffffff61215816565b95505b878781518110151561204457fe5b90602001906020020151600160a060020a03166000141561206457611eb4565b600190960195611eaa565b50505050505050505050505050565b601860209081526000918252604091829020805460018083015460028085015460038601805489516101009682161596909602600019011692909204601f81018890048802850188019098528784529396600160a060020a03909216959394939091908301828280156121325780601f1061210757610100808354040283529160200191612132565b820191906000526020600020905b81548152906001019060200180831161211557829003601f168201915b50505060049093015491925050600160a060020a0381169060ff60a060020a9091041686565b8181018281101561216557fe5b92915050565b600160a060020a03861660009081526019602052604081206002015490808215156121b65786156121b15760405160e560020a62461bcd0281526004016106f39061370f565b612219565b600160a060020a03891660009081526019602052604090206002016121e284600163ffffffff6126e016565b815481106121ec57fe5b60009182526020909120015487146122195760405160e560020a62461bcd0281526004016106f3906136ff565b600160a060020a038916600090815260196020526040902060020180549061224490600183016127af565b50600160a060020a038916600090815260196020526040902060020180548791908590811061226f57fe5b60009182526020918290200191909155604080518083018b81529181018a90526060810189905287518b938b938b938b939192608090910191908401908083835b602083106122cf5780518252601f1990920191602091820191016122b0565b6001836020036101000a0380198251168184511680821785525050505050509050019450505050506040516020818303038152906040526040518082805190602001908083835b602083106123355780518252601f199092019160209182019101612316565b5181516020939093036101000a60001901801990911692169190911790526040519201829003909120945061237092508491508690506126f2565b33600090815260176020526040902054909150600160a060020a038083169116146123b05760405160e560020a62461bcd0281526004016106f39061375f565b505050505050505050565b6000600019815b60058110156124305783600282600581106123d957fe5b60040201541180159061241f57508160000b600019148061241f57506002600083900b6005811061240657fe5b60040201546002826005811061241857fe5b6004020154115b15612428578091505b6001016123c2565b600019600083900b14156124595760405160e560020a62461bcd0281526004016106f39061376f565b5060000b92915050565b606061246d61288b565b60008060608180806002896005811061248257fe5b600402016080604051908101604052908160008201548152602001600182018054806020026020016040519081016040528092919081815260200182805480156124f557602002820191906000526020600020905b8154600160a060020a031681526001909101906020018083116124d7575b505050505081526020016002820180548060200260200160405190810160405280929190818152602001828054801561254d57602002820191906000526020600020905b815481526020019060010190808311612539575b50505050508152602001600382015481525050965060009550600094505b8660200151518510156125db57602087015180518690811061258957fe5b60209081029091010151600160a060020a0316156125d0576125cd8760400151868151811015156125b657fe5b60209081029091010151879063ffffffff61215816565b95505b60019094019361256b565b85604051908082528060200260200182016040528015612605578160200160208202803883390190505b50935060009250600091505b8660200151518210156126d357602087015180518390811061262f57fe5b60209081029091010151600160a060020a0316156126c8575060005b604087015180518390811061265c57fe5b906020019060200201518110156126c857602087015180518390811061267e57fe5b90602001906020020151848481518110151561269657fe5b600160a060020a039092166020928302909101909101526126be83600163ffffffff61215816565b925060010161264b565b600190910190612611565b5091979650505050505050565b6000828211156126ec57fe5b50900390565b6000806000808451604114151561270c5760009350611039565b50505060208201516040830151606084015160001a601b60ff8216101561273157601b015b8060ff16601b1415801561274957508060ff16601c14155b156127575760009350611039565b6001868285856040516000815260200160405260405161277a949392919061368c565b60206040516020810390808403906000865af115801561279e573d6000803e3d6000fd5b505050602060405103519350611039565b8154818355818111156127d3576000838152602090206127d39181019083016128b4565b505050565b828054600181600116156101000203166002900490600052602060002090601f016020900481019282601f1061281957805160ff1916838001178555612846565b82800160010185558215612846579182015b8281111561284657825182559160200191906001019061282b565b506128529291506128b4565b5090565b6080604051908101604052806000600160a060020a03168152602001600060ff16815260200160608152602001600081525090565b608060405190810160405280600081526020016060815260200160608152602001600081525090565b6128ce91905b8082111561285257600081556001016128ba565b90565b60006128dd8235613928565b9392505050565b6000601f820183136128f557600080fd5b8135612908612903826138bf565b613898565b9150818183526020840193506020810190508385602084028201111561292d57600080fd5b60005b83811015612959578161294388826128d1565b8452506020928301929190910190600101612930565b5050505092915050565b6000601f8201831361297457600080fd5b8135612982612903826138bf565b915081818352602084019350602081019050838560208402820111156129a757600080fd5b60005b8381101561295957816129bd8882612aa0565b84525060209283019291909101906001016129aa565b6000601f820183136129e457600080fd5b81356129f2612903826138bf565b81815260209384019390925082018360005b838110156129595781358601612a1a8882612aac565b8452506020928301929190910190600101612a04565b6000601f82018313612a4157600080fd5b8135612a4f612903826138bf565b91508181835260208401935060208101905083856020840282011115612a7457600080fd5b60005b838110156129595781612a8a8882612aa0565b8452506020928301929190910190600101612a77565b60006128dd82356128ce565b6000601f82018313612abd57600080fd5b8135612acb612903826138e0565b91508082526020830160208301858383011115612ae757600080fd5b611039838284613961565b600060208284031215612b0457600080fd5b6000612b1084846128d1565b949350505050565b60008060008060008060c08789031215612b3157600080fd5b6000612b3d89896128d1565b965050602087013567ffffffffffffffff811115612b5a57600080fd5b612b6689828a01612963565b955050604087013567ffffffffffffffff811115612b8357600080fd5b612b8f89828a01612963565b945050606087013567ffffffffffffffff811115612bac57600080fd5b612bb889828a01612963565b935050608087013567ffffffffffffffff811115612bd557600080fd5b612be189828a016129d3565b92505060a087013567ffffffffffffffff811115612bfe57600080fd5b612c0a89828a016129d3565b9150509295509295509295565b60008060408385031215612c2a57600080fd5b6000612c3685856128d1565b9250506020612c4785828601612aa0565b9150509250929050565b60008060008060808587031215612c6757600080fd5b6000612c7387876128d1565b9450506020612c8487828801612aa0565b9350506040612c95878288016128d1565b925050606085013567ffffffffffffffff811115612cb257600080fd5b612cbe87828801612aac565b91505092959194509250565b60008060008060008060c08789031215612ce357600080fd5b6000612cef89896128d1565b9650506020612d0089828a01612aa0565b9550506040612d1189828a01612aa0565b9450506060612d2289828a01612aa0565b935050608087013567ffffffffffffffff811115612d3f57600080fd5b612d4b89828a01612aac565b92505060a087013567ffffffffffffffff811115612d6857600080fd5b612c0a89828a01612aac565b60008060408385031215612d8757600080fd5b6000612d9385856128d1565b925050602083013567ffffffffffffffff811115612db057600080fd5b612c4785828601612aac565b60008060008060808587031215612dd257600080fd5b843567ffffffffffffffff811115612de957600080fd5b612df587828801612963565b945050602085013567ffffffffffffffff811115612e1257600080fd5b612e1e87828801612a30565b935050604085013567ffffffffffffffff811115612e3b57600080fd5b612e47878288016128e4565b925050606085013567ffffffffffffffff811115612e6457600080fd5b612cbe87828801612a30565b600060208284031215612e8257600080fd5b6000612b108484612aa0565b60008060008060808587031215612ea457600080fd5b6000612eb08787612aa0565b9450506020612ec187828801612aa0565b9350506040612ed2878288016128d1565b9250506060612cbe87828801612aa0565b60008060408385031215612ef657600080fd5b6000612f028585612aa0565b9250506020612c47858286016128d1565b60008060408385031215612f2657600080fd5b6000612d938585612aa0565b612f3b81613928565b82525050565b6000612f4c8261391a565b808452602084019350612f5e83613908565b60005b82811015612f8e57612f74868351612f32565b612f7d82613908565b602096909601959150600101612f61565b5093949350505050565b6000612fa38261391e565b808452602084019350612fb58361390e565b60005b82811015612f8e57612fcb868354612f32565b612fd482613922565b602096909601959150600101612fb8565b6000612ff08261391a565b80845260208401935061300283613908565b60005b82811015612f8e5761301886835161313c565b61302182613908565b602096909601959150600101613005565b600061303d8261391a565b8084526020840193508360208202850161305685613908565b60005b8481101561308d578383038852613071838351613145565b925061307c82613908565b602098909801979150600101613059565b50909695505050505050565b60006130a48261391a565b8084526020840193506130b683613908565b60005b82811015612f8e576130cc86835161313c565b6130d582613908565b6020969096019591506001016130b9565b60006130f18261391e565b8084526020840193506131038361390e565b60005b82811015612f8e5761311986835461313c565b61312282613922565b602096909601959150600101613106565b612f3b81613934565b612f3b816128ce565b60006131508261391a565b80845261316481602086016020860161396d565b61316d8161399d565b9093016020019392505050565b612f3b8161394b565b612f3b81613956565b601481527f556e7265676973746572656420776f726b65722e000000000000000000000000602082015260400190565b602181527f53656372657420636f6e747261637420616c7265616479206465706c6f79656460208201527f2e00000000000000000000000000000000000000000000000000000000000000604082015260600190565b601381527f496e76616c6964207461736b2073746174757300000000000000000000000000602082015260400190565b601e81527f496e76616c696420696e7075742073746174652064656c746120686173680000602082015260400190565b602e81527f496e76616c696420696e7075742073746174652064656c74612068617368206660208201527f6f7220656d707479207374617465000000000000000000000000000000000000604082015260600190565b601581527f576f726b6572206e6f7420726567697374657265640000000000000000000000602082015260400190565b602681527f4f6e6c7920746865205072696e636970616c2063616e2075706461746520746860208201527f6520736565640000000000000000000000000000000000000000000000000000604082015260600190565b601381527f5461736b20616c72656164792065786973742e00000000000000000000000000602082015260400190565b601d81527f53656372657420636f6e7472616374206e6f74206465706c6f7965642e000000602082015260400190565b601281527f496e76616c6964207369676e61747572652e0000000000000000000000000000602082015260400190565b603681527f4e6f20776f726b65727320706172616d657465727320656e74727920666f722060208201527f73706563696669656420626c6f636b206e756d62657200000000000000000000604082015260600190565b612f3b81613945565b602081016121658284612f32565b604081016134598285612f32565b6128dd6020830184612f32565b606081016134748286612f32565b613481602083018561313c565b612b106040830184613183565b6040810161349c8285612f32565b8181036020830152612b108184613145565b604081016134bc8285612f32565b6128dd602083018461313c565b608081016134d78287612f32565b6134e46020830186613434565b81810360408301526134f68185613145565b9050613505606083018461313c565b95945050505050565b60a0808252810161351f8188612fe5565b905081810360208301526135338187612fe5565b905081810360408301526135478186612fe5565b9050818103606083015261355b8185613032565b9050818103608083015261356f8184613032565b979650505050505050565b60a0808252810161358b8188612fe5565b9050818103602083015261359f8187613099565b905081810360408301526135b38186612f41565b905081810360608301526135c78185613099565b90506135d66080830184612f32565b9695505050505050565b602081016121658284613133565b60208101612165828461313c565b60a0810161360a828861313c565b613617602083018761313c565b613624604083018661313c565b81810360608301526136368185613145565b9050818103608083015261356f8184613145565b60a08101613658828861313c565b613665602083018761313c565b6136726040830186612f32565b61367f606083018561313c565b6135d66080830184612f32565b6080810161369a828761313c565b6136a76020830186613434565b6136b4604083018561313c565b613505606083018461313c565b60208101612165828461317a565b602080825281016121658161318c565b60208082528101612165816131bc565b6020808252810161216581613212565b6020808252810161216581613242565b6020808252810161216581613272565b60208082528101612165816132c8565b60208082528101612165816132f8565b602080825281016121658161334e565b602080825281016121658161337e565b60208082528101612165816133ae565b60208082528101612165816133de565b60c0810161378d828961313c565b61379a6020830188612f32565b6137a7604083018761313c565b81810360608301526137b98186613145565b90506137c86080830185612f32565b61356f60a0830184613183565b608081016137e3828761313c565b6137f0602083018661313c565b81810360408301526138028185612f41565b905081810360608301526135d68184612f41565b60808101613824828761313c565b613831602083018661313c565b81810360408301526138438185612f41565b905081810360608301526135d68184613099565b60808101613865828761313c565b613872602083018661313c565b81810360408301526138848185612f98565b905081810360608301526135d681846130e6565b60405181810167ffffffffffffffff811182821017156138b757600080fd5b604052919050565b600067ffffffffffffffff8211156138d657600080fd5b5060209081020190565b600067ffffffffffffffff8211156138f757600080fd5b506020601f91909101601f19160190565b60200190565b60009081526020902090565b5190565b5490565b60010190565b600160a060020a031690565b151590565b60006002821061285257fe5b60ff1690565b600061216582613928565b600061216582613939565b82818337506000910152565b60005b83811015613988578181015183820152602001613970565b83811115613997576000848401525b50505050565b601f01601f1916905600a265627a7a72305820595d8222a4fa764dc7ebef60b7c26856cfbdf098e1f85bf8bb6cb4ae7f9740446c6578706572696d656e74616cf50037",
  "source": "pragma solidity ^0.4.24;\npragma experimental ABIEncoderV2;\n\nimport \"openzeppelin-solidity/contracts/math/SafeMath.sol\";\nimport \"openzeppelin-solidity/contracts/ECRecovery.sol\";\n\ncontract ERC20 {\n    function allowance(address owner, address spender) public view returns (uint256);\n    function transferFrom(address from, address to, uint256 value) public returns (bool);\n    function approve(address spender, uint256 value) public returns (bool);\n    function totalSupply() public view returns (uint256);\n    function balanceOf(address who) public view returns (uint256);\n    function transfer(address to, uint256 value) public returns (bool);\n\n    event Transfer(address indexed from, address indexed to, uint256 value);\n    event Approval(address indexed owner, address indexed spender, uint256 value);\n}\n\ncontract Enigma {\n    using SafeMath for uint256;\n    using ECRecovery for bytes32;\n\n    // The interface of the deployed ENG ERC20 token contract\n    ERC20 public engToken;\n\n    struct Task {\n        uint fee;\n        address token;\n        uint tokenValue;\n        bytes proof; // Signature of (taskId, inStateDeltaHash, outStateDeltaHash, ethCall)\n        address sender;\n        TaskStatus status;\n    }\n    enum TaskStatus {RecordCreated, ReceiptVerified}\n\n    /**\n    * The signer address of the principal node\n    * This must be set when deploying the contract and remains immutable\n    * Since the signer address is derived from the public key of an\n    * SGX enclave, this ensures that the principal node cannot be tempered\n    * with or replaced.\n    */\n    address principal;\n\n    // The data representation of a worker (or node)\n    struct Worker {\n        address signer;\n        uint8 status; // Uninitialized: 0; Active: 1; Inactive: 2\n        bytes report; // Decided to store this as one  RLP encoded attribute for easier external storage in the future\n        uint256 balance;\n    }\n\n    /**\n    * The data representation of the worker parameters used as input for\n    * the worker selection algorithm\n    */\n    struct WorkersParams {\n        uint firstBlockNumber;\n        address[] workers;\n        uint[] balances;\n        uint seed;\n    }\n\n    struct SecretContract {\n        address owner;\n        bytes32 codeHash;\n        bytes32[] stateDeltaHashes;\n        SecretContractStatus status;\n        // TODO: consider keeping an index of taskIds\n    }\n    // TODO: do we want to have a contract lifecycle?\n    enum SecretContractStatus {Undefined, Deployed}\n\n    /**\n    * The last 5 worker parameters\n    * We keep a collection of worker parameters to account for latency issues.\n    * A computation task might be conceivably given out at a certain block number\n    * but executed at a later block in a different epoch. It follows that\n    * the contract must have access to the worker parameters effective when giving\n    * out the task, otherwise the selected worker would not match. We calculated\n    * that keeping the last 5 items should be more than enough to account for\n    * all latent tasks. Tasks results will be rejected past this limit.\n    */\n    WorkersParams[5] workersParams;\n\n    // An address-based index of all registered worker\n    address[] public workerAddresses;\n\n    // A registry of all registered workers with their attributes\n    mapping(address => Worker) public workers;\n    mapping(bytes32 => Task) public tasks;\n    mapping(address => SecretContract) public contracts;\n\n    // TODO: do we keep tasks forever? if not, when do we delete them?\n    uint stakingThreshold;\n    uint workerGroupSize;\n\n    // The events emitted by the contract\n    event Registered(address custodian, address signer);\n    event ValidatedSig(bytes sig, bytes32 hash, address workerAddr);\n    event WorkersParameterized(uint seed, uint256 blockNumber, address[] workers, uint[] balances);\n    event TaskRecordCreated(bytes32 taskId, uint fee, address token, uint tokenValue, address sender);\n    event TaskRecordsCreated(bytes32[] taskIds, uint[] fees, address[] tokens, uint[] tokenValues, address sender);\n    event ReceiptVerified(bytes32 taskId, bytes32 inStateDeltaHash, bytes32 outStateDeltaHash, bytes ethCall, bytes sig);\n    event ReceiptsVerified(bytes32[] taskIds, bytes32[] inStateDeltaHashes, bytes32[] outStateDeltaHashes, bytes[] ethCalls, bytes[] sigs);\n    event DepositSuccessful(address from, uint value);\n    event SecretContractDeployed(address scAddr);\n\n    constructor(address _tokenAddress, address _principal) public {\n        engToken = ERC20(_tokenAddress);\n        principal = _principal;\n        stakingThreshold = 1;\n        workerGroupSize = 10;\n    }\n\n    //TODO: break down these methods into services for upgradability\n\n    /**\n    * Checks if the custodian wallet is registered as a worker\n    *\n    * @param user The custodian address of the worker\n    */\n    modifier workerRegistered(address user) {\n        Worker memory worker = workers[user];\n        require(worker.status > 0, \"Unregistered worker.\");\n        _;\n    }\n\n    modifier contractDeployed(address scAddr) {\n        require(contracts[scAddr].status == SecretContractStatus.Deployed, \"Secret contract not deployed.\");\n        _;\n    }\n\n    /**\n    * Registers a new worker of change the signer parameters of an existing\n    * worker. This should be called by every worker (and the principal)\n    * node in order to receive tasks.\n    *\n    * @param signer The signer address, derived from the enclave public key\n    * @param report The RLP encoded report returned by the IAS\n    */\n    function register(address signer, bytes report)\n    public\n    {\n        // TODO: consider exit if both signer and custodian as matching\n        // If the custodian is not already register, we add an index entry\n        if (workers[msg.sender].signer == 0x0) {\n            uint index = workerAddresses.length;\n            workerAddresses.length++;\n            workerAddresses[index] = msg.sender;\n        }\n\n        // Set the custodian attributes\n        workers[msg.sender].signer = signer;\n        workers[msg.sender].balance = 0;\n        workers[msg.sender].report = report;\n        workers[msg.sender].status = 1;\n\n        emit Registered(msg.sender, signer);\n    }\n\n    function deposit(address custodian, uint amount)\n    public\n    workerRegistered(custodian)\n    {\n//        require(engToken.allowance(custodian, to) >= amount, \"Not enough tokens allowed for transfer\");\n//        engToken.transferFrom(custodian, this, amount);\n\n        workers[custodian].balance = workers[custodian].balance.add(amount);\n\n        emit DepositSuccessful(custodian, amount);\n    }\n\n    function deploySecretContract(address scAddr, bytes32 codeHash, address owner, bytes sig)\n    public\n    workerRegistered(msg.sender)\n    {\n        require(contracts[scAddr].status == SecretContractStatus.Undefined, \"Secret contract already deployed.\");\n        //TODO: verify sig\n\n        contracts[scAddr].owner = owner;\n        contracts[scAddr].codeHash = codeHash;\n        contracts[scAddr].status = SecretContractStatus.Deployed;\n\n        emit SecretContractDeployed(scAddr);\n    }\n\n    function isDeployed(address scAddr)\n    public\n    returns (bool)\n    {\n       if (contracts[scAddr].status == SecretContractStatus.Deployed) {\n           return true;\n       } else {\n           return false;\n       }\n    }\n\n    function getCodeHash(address scAddr)\n    public\n    contractDeployed(scAddr)\n    returns (bytes32)\n    {\n       return contracts[scAddr].codeHash;\n    }\n\n    function countStateDeltas(address scAddr)\n    public\n    contractDeployed(scAddr)\n    returns (uint)\n    {\n        return contracts[scAddr].stateDeltaHashes.length;\n    }\n\n    function getStateDeltaHash(address scAddr, uint index)\n    public\n    contractDeployed(scAddr)\n    returns (bytes32)\n    {\n        return contracts[scAddr].stateDeltaHashes[index];\n    }\n\n    function isValidDeltaHash(address scAddr, bytes32 stateDeltaHash)\n    public\n    contractDeployed(scAddr)\n    returns (bool)\n    {\n        bool valid = false;\n        for (uint i = 0; i < contracts[scAddr].stateDeltaHashes.length; i++) {\n           if (contracts[scAddr].stateDeltaHashes[i] == stateDeltaHash) {\n               valid = true;\n               break;\n           }\n        }\n        return valid;\n    }\n\n    /**\n    * Store task record\n    *\n    */\n    function createTaskRecord(\n        bytes32 taskId,\n        uint fee,\n        address token,\n        uint tokenValue\n    )\n    public\n    {\n        require(tasks[taskId].sender == 0x0, \"Task already exist.\");\n\n        tasks[taskId].fee = fee;\n        tasks[taskId].token = token;\n        tasks[taskId].tokenValue = tokenValue;\n        tasks[taskId].sender = msg.sender;\n        tasks[taskId].status = TaskStatus.RecordCreated;\n\n        emit TaskRecordCreated(taskId, fee, token, tokenValue, msg.sender);\n    }\n\n    function createTaskRecords(\n        bytes32[] taskIds,\n        uint[] fees,\n        address[] tokens,\n        uint[] tokenValues\n    )\n    public\n    {\n        for (uint i = 0; i < taskIds.length; i++) {\n            require(tasks[taskIds[i]].sender == 0x0, \"Task already exist.\");\n\n            tasks[taskIds[i]].fee = fees[i];\n            tasks[taskIds[i]].token = tokens[i];\n            tasks[taskIds[i]].tokenValue = tokenValues[i];\n            tasks[taskIds[i]].sender = msg.sender;\n            tasks[taskIds[i]].status = TaskStatus.RecordCreated;\n        }\n        emit TaskRecordsCreated(taskIds, fees, tokens, tokenValues, msg.sender);\n    }\n\n    // Execute the encoded function in the specified contract\n    function executeCall(address to, uint256 value, bytes data)\n    internal\n    returns (bool success)\n    {\n        assembly {\n            success := call(gas, to, value, add(data, 0x20), mload(data), 0, 0)\n        }\n    }\n\n    function verifyReceipt(\n        address scAddr,\n        bytes32 taskId,\n        bytes32 inStateDeltaHash,\n        bytes32 outStateDeltaHash,\n        bytes ethCall,\n        bytes sig\n    )\n    internal\n    {\n        uint index = contracts[scAddr].stateDeltaHashes.length;\n        if (index == 0) {\n            require(inStateDeltaHash == 0x0, 'Invalid input state delta hash for empty state');\n        } else {\n            require(inStateDeltaHash == contracts[scAddr].stateDeltaHashes[index.sub(1)], 'Invalid input state delta hash');\n        }\n        contracts[scAddr].stateDeltaHashes.length++;\n        contracts[scAddr].stateDeltaHashes[index] = outStateDeltaHash;\n\n        // TODO: execute the Ethereum calls\n\n        // Build a hash to validate that the I/Os are matching\n        bytes32 hash = keccak256(abi.encodePacked(taskId, inStateDeltaHash, outStateDeltaHash, ethCall));\n\n        // The worker address is not a real Ethereum wallet address but\n        // one generated from its signing key\n        address workerAddr = hash.recover(sig);\n        require(workerAddr == workers[msg.sender].signer, \"Invalid signature.\");\n    }\n\n    /**\n    * Commit the computation task results on chain\n    */\n    function commitReceipt(\n        address scAddr,\n        bytes32 taskId,\n        bytes32 inStateDeltaHash,\n        bytes32 outStateDeltaHash,\n        bytes ethCall,\n        bytes sig\n    )\n    public\n    workerRegistered(msg.sender)\n    contractDeployed(scAddr)\n    {\n        require(tasks[taskId].status == TaskStatus.RecordCreated, 'Invalid task status');\n        verifyReceipt(scAddr, taskId, inStateDeltaHash, outStateDeltaHash, ethCall, sig);\n\n        tasks[taskId].proof = sig;\n        tasks[taskId].status = TaskStatus.ReceiptVerified;\n        emit ReceiptVerified(taskId, inStateDeltaHash, outStateDeltaHash, ethCall, sig);\n    }\n\n    function commitReceipts(\n        address scAddr,\n        bytes32[] taskIds,\n        bytes32[] inStateDeltaHashes,\n        bytes32[] outStateDeltaHashes,\n        bytes[] ethCalls,\n        bytes[] sigs\n    )\n    public\n    workerRegistered(msg.sender)\n    contractDeployed(scAddr)\n    {\n        for (uint i = 0; i < taskIds.length; i++) {\n            // TODO: consider aggregate signature\n            require(tasks[taskIds[i]].status == TaskStatus.RecordCreated, 'Invalid task status');\n            verifyReceipt(scAddr, taskIds[i], inStateDeltaHashes[i], outStateDeltaHashes[i], ethCalls[i], sigs[i]);\n\n            tasks[taskIds[i]].proof = sigs[i];\n            tasks[taskIds[i]].status = TaskStatus.ReceiptVerified;\n        }\n        emit ReceiptsVerified(taskIds, inStateDeltaHashes, outStateDeltaHashes, ethCalls, sigs);\n    }\n\n    // Verify the signature submitted while reparameterizing workers\n    function verifyParamsSig(uint256 seed, bytes sig)\n    internal\n    pure\n    returns (address)\n    {\n        bytes32 hash = keccak256(abi.encodePacked(seed));\n        address signer = hash.recover(sig);\n        return signer;\n    }\n\n    /**\n    * Reparameterizing workers with a new seed\n    * This should be called for each epoch by the Principal node\n    *\n    * @param seed The random integer generated by the enclave\n    * @param sig The random integer signed by the the principal node's enclave\n    */\n    function setWorkersParams(uint seed, bytes sig)\n    public\n    workerRegistered(msg.sender)\n    {\n        // Reparameterizing workers with a new seed\n        // This should be called for each epoch by the Principal node\n\n        // We assume that the Principal is always the first registered node\n        require(workers[msg.sender].signer == principal, \"Only the Principal can update the seed\");\n        // TODO: verify the principal sig\n\n        // Create a new workers parameters item for the specified seed.\n        // The workers parameters list is a sort of cache, it never grows beyond its limit.\n        // If the list is full, the new item will replace the item assigned to the lowest block number.\n        uint paramIndex = 0;\n        for (uint pi = 0; pi < workersParams.length; pi++) {\n            // Find an empty slot in the array, if full use the lowest block number\n            if (workersParams[pi].firstBlockNumber == 0) {\n                paramIndex = pi;\n                break;\n            } else if (workersParams[pi].firstBlockNumber < workersParams[paramIndex].firstBlockNumber) {\n                paramIndex = pi;\n            }\n        }\n        workersParams[paramIndex].firstBlockNumber = block.number;\n        workersParams[paramIndex].seed = seed;\n\n        // Copy the current worker list\n        uint workerIndex = 0;\n        for (uint wi = 0; wi < workerAddresses.length; wi++) {\n            if (workers[workerAddresses[wi]].balance > stakingThreshold) {\n                workersParams[paramIndex].workers.length++;\n                workersParams[paramIndex].workers[workerIndex] = workerAddresses[wi];\n\n                workersParams[paramIndex].balances.length++;\n                workersParams[paramIndex].balances[workerIndex] = workers[workerAddresses[wi]].balance;\n\n                workerIndex = workerIndex.add(1);\n            }\n        }\n        emit WorkersParameterized(seed, block.number, workersParams[paramIndex].workers, workersParams[paramIndex].balances);\n    }\n\n    function getWorkerParamsIndex(uint blockNumber)\n    internal\n    view\n    returns (uint)\n    {\n        // The workers parameters for a given block number\n        int8 index = - 1;\n        for (uint i = 0; i < workersParams.length; i++) {\n            if (workersParams[i].firstBlockNumber <= blockNumber && (index == - 1 || workersParams[i].firstBlockNumber > workersParams[uint(index)].firstBlockNumber)) {\n                index = int8(i);\n            }\n        }\n        require(index != - 1, \"No workers parameters entry for specified block number\");\n        return uint(index);\n    }\n\n    function getWorkerParams(uint blockNumber)\n    public\n    view\n    returns (uint, uint, address[], uint[]) {\n        uint index = getWorkerParamsIndex(blockNumber);\n        WorkersParams memory params = workersParams[index];\n        return (params.firstBlockNumber, params.seed, params.workers, params.balances);\n    }\n\n    function compileTokens(uint paramIndex)\n    internal\n    view\n    returns (address[])\n    {\n        WorkersParams memory params = workersParams[paramIndex];\n        uint tokenCpt = 0;\n        for (uint i = 0; i < params.workers.length; i++) {\n            if (params.workers[i] != 0x0) {\n                tokenCpt = tokenCpt.add(params.balances[i]);\n            }\n        }\n        address[] memory tokens = new address[](tokenCpt);\n        uint tokenIndex = 0;\n        for (uint ia = 0; ia < params.workers.length; ia++) {\n            if (params.workers[ia] != 0x0) {\n                for (uint ib = 0; ib < params.balances[ia]; ib++) {\n                    tokens[tokenIndex] = params.workers[ia];\n                    tokenIndex = tokenIndex.add(1);\n                }\n            }\n        }\n        return tokens;\n    }\n\n    function getWorkerGroup(uint blockNumber, address scAddr)\n    public\n    {\n        // Compile a list of selected workers for the block number and\n        // secret contract.\n        uint paramIndex = getWorkerParamsIndex(blockNumber);\n        address[] memory tokens = compileTokens(paramIndex);\n        WorkersParams memory params = workersParams[paramIndex];\n\n        address[] memory selectedWorkers = new address[](workerGroupSize);\n        for (uint it; it < selectedWorkers.length; it++) {\n            do {\n                uint nonce = 0;\n                bytes32 hash = keccak256(abi.encodePacked(nonce, params.seed, blockNumber, scAddr));\n                uint index = uint256(hash) % tokens.length;\n                address worker = tokens[index];\n                bool dup = false;\n                for (uint id; id < selectedWorkers.length; id++) {\n                    if (worker == selectedWorkers[id]) {\n                        dup = true;\n                        break;\n                    }\n                }\n                if (dup == false) {\n                    selectedWorkers[it] = worker;\n                } else {\n                    nonce = nonce.add(1);\n                }\n            }\n            while (selectedWorkers[it] == 0x0);\n        }\n    }\n\n    /**\n    * The worker parameters corresponding to the specified block number\n    *\n    * @param blockNumber The reference block number\n    */\n    function getWorkersParams(uint blockNumber)\n    public\n    view\n    returns (uint, uint, address[], address[])\n    {\n        uint firstBlockNumber = 0;\n        uint seed = 0;\n        address[] memory activeWorkers;\n        address[] memory activeContracts;\n        return (firstBlockNumber, seed, activeWorkers, activeContracts);\n    }\n\n    /**\n    * The RLP encoded report returned by the IAS server\n    *\n    * @param custodian The worker's custodian address\n    */\n    function getReport(address custodian)\n    public\n    view\n    workerRegistered(custodian)\n    returns (address, bytes)\n    {\n        // The RLP encoded report and signer's address for the specified worker\n        require(workers[custodian].signer != 0x0, \"Worker not registered\");\n        return (workers[custodian].signer, workers[custodian].report);\n    }\n}\n",
  "sourcePath": "/home/fredfortier/Code/Enigma/discovery/enigma-contract/contracts/Enigma.sol",
  "compiler": {
    "name": "solc",
    "version": "0.4.24+commit.e67f0147.Emscripten.clang"
  },
  "schemaVersion": "2.0.0",
  "updatedAt": "2018-10-07T01:22:27.260Z"
}