{
  "contractName": "Enigma",
  "abi": [
    {
      "constant": true,
      "inputs": [
        {
          "name": "",
          "type": "uint256"
        }
      ],
      "name": "workerAddresses",
      "outputs": [
        {
          "name": "",
          "type": "address"
        }
      ],
      "payable": false,
      "stateMutability": "view",
      "type": "function",
      "signature": "0x0a318da0"
    },
    {
      "constant": true,
      "inputs": [
        {
          "name": "",
          "type": "address"
        }
      ],
      "name": "userSCDeployments",
      "outputs": [
        {
          "name": "",
          "type": "uint256"
        }
      ],
      "payable": false,
      "stateMutability": "view",
      "type": "function",
      "signature": "0x0f8c466c"
    },
    {
      "constant": true,
      "inputs": [
        {
          "name": "",
          "type": "address"
        }
      ],
      "name": "workers",
      "outputs": [
        {
          "name": "signer",
          "type": "address"
        },
        {
          "name": "status",
          "type": "uint8"
        },
        {
          "name": "report",
          "type": "bytes"
        },
        {
          "name": "balance",
          "type": "uint256"
        }
      ],
      "payable": false,
      "stateMutability": "view",
      "type": "function",
      "signature": "0x4048a257"
    },
    {
      "constant": true,
      "inputs": [
        {
          "name": "",
          "type": "uint256"
        }
      ],
      "name": "scAddresses",
      "outputs": [
        {
          "name": "",
          "type": "address"
        }
      ],
      "payable": false,
      "stateMutability": "view",
      "type": "function",
      "signature": "0x5f0dd5bb"
    },
    {
      "constant": true,
      "inputs": [
        {
          "name": "",
          "type": "address"
        }
      ],
      "name": "contracts",
      "outputs": [
        {
          "name": "owner",
          "type": "address"
        },
        {
          "name": "codeHash",
          "type": "bytes32"
        },
        {
          "name": "status",
          "type": "uint8"
        }
      ],
      "payable": false,
      "stateMutability": "view",
      "type": "function",
      "signature": "0x69dc9ff3"
    },
    {
      "constant": true,
      "inputs": [],
      "name": "engToken",
      "outputs": [
        {
          "name": "",
          "type": "address"
        }
      ],
      "payable": false,
      "stateMutability": "view",
      "type": "function",
      "signature": "0x9489ad40"
    },
    {
      "constant": true,
      "inputs": [],
      "name": "workerGroupSize",
      "outputs": [
        {
          "name": "",
          "type": "uint256"
        }
      ],
      "payable": false,
      "stateMutability": "view",
      "type": "function",
      "signature": "0xa3edd784"
    },
    {
      "constant": true,
      "inputs": [
        {
          "name": "",
          "type": "bytes32"
        }
      ],
      "name": "tasks",
      "outputs": [
        {
          "name": "fee",
          "type": "uint256"
        },
        {
          "name": "proof",
          "type": "bytes"
        },
        {
          "name": "sender",
          "type": "address"
        },
        {
          "name": "status",
          "type": "uint8"
        }
      ],
      "payable": false,
      "stateMutability": "view",
      "type": "function",
      "signature": "0xe579f500"
    },
    {
      "inputs": [
        {
          "name": "_tokenAddress",
          "type": "address"
        },
        {
          "name": "_principal",
          "type": "address"
        }
      ],
      "payable": false,
      "stateMutability": "nonpayable",
      "type": "constructor",
      "signature": "constructor"
    },
    {
      "anonymous": false,
      "inputs": [
        {
          "indexed": false,
          "name": "custodian",
          "type": "address"
        },
        {
          "indexed": false,
          "name": "signer",
          "type": "address"
        }
      ],
      "name": "Registered",
      "type": "event",
      "signature": "0x0a31ee9d46a828884b81003c8498156ea6aa15b9b54bdd0ef0b533d9eba57e55"
    },
    {
      "anonymous": false,
      "inputs": [
        {
          "indexed": false,
          "name": "sig",
          "type": "bytes"
        },
        {
          "indexed": false,
          "name": "hash",
          "type": "bytes32"
        },
        {
          "indexed": false,
          "name": "workerAddr",
          "type": "address"
        }
      ],
      "name": "ValidatedSig",
      "type": "event",
      "signature": "0xe36691ca52ee024e298e5c0ff07191b87f0ac571c01a7631db2d70d573d955cb"
    },
    {
      "anonymous": false,
      "inputs": [
        {
          "indexed": false,
          "name": "seed",
          "type": "uint256"
        },
        {
          "indexed": false,
          "name": "blockNumber",
          "type": "uint256"
        },
        {
          "indexed": false,
          "name": "workers",
          "type": "address[]"
        },
        {
          "indexed": false,
          "name": "balances",
          "type": "uint256[]"
        }
      ],
      "name": "WorkersParameterized",
      "type": "event",
      "signature": "0x7047379c64ccafb62f6625e6b2d8eb6e1b0e091fac56a11ab5e2fd896e4db1d0"
    },
    {
      "anonymous": false,
      "inputs": [
        {
          "indexed": false,
          "name": "taskId",
          "type": "bytes32"
        },
        {
          "indexed": false,
          "name": "fee",
          "type": "uint256"
        },
        {
          "indexed": false,
          "name": "sender",
          "type": "address"
        }
      ],
      "name": "TaskRecordCreated",
      "type": "event",
      "signature": "0xf1c0c18d5573c419035509d5b8bf3f97ce7b92cca68bccbde847516f66d6fe05"
    },
    {
      "anonymous": false,
      "inputs": [
        {
          "indexed": false,
          "name": "taskIds",
          "type": "bytes32[]"
        },
        {
          "indexed": false,
          "name": "fees",
          "type": "uint256[]"
        },
        {
          "indexed": false,
          "name": "sender",
          "type": "address"
        }
      ],
      "name": "TaskRecordsCreated",
      "type": "event",
      "signature": "0xacd4eaf0bf2790219699c0a2d47f13405b81c59f5ff0bb951a71a29c94a6d774"
    },
    {
      "anonymous": false,
      "inputs": [
        {
          "indexed": false,
          "name": "taskId",
          "type": "bytes32"
        },
        {
          "indexed": false,
          "name": "inStateDeltaHash",
          "type": "bytes32"
        },
        {
          "indexed": false,
          "name": "outStateDeltaHash",
          "type": "bytes32"
        },
        {
          "indexed": false,
          "name": "ethCall",
          "type": "bytes"
        },
        {
          "indexed": false,
          "name": "sig",
          "type": "bytes"
        }
      ],
      "name": "ReceiptVerified",
      "type": "event",
      "signature": "0x665329bb9a4e1062edc215d9c5ab57fa54c4c88e3dfbcc68e0cd92fdd010fa6e"
    },
    {
      "anonymous": false,
      "inputs": [
        {
          "indexed": false,
          "name": "taskIds",
          "type": "bytes32[]"
        },
        {
          "indexed": false,
          "name": "inStateDeltaHashes",
          "type": "bytes32[]"
        },
        {
          "indexed": false,
          "name": "outStateDeltaHashes",
          "type": "bytes32[]"
        },
        {
          "indexed": false,
          "name": "ethCall",
          "type": "bytes"
        },
        {
          "indexed": false,
          "name": "sig",
          "type": "bytes"
        }
      ],
      "name": "ReceiptsVerified",
      "type": "event",
      "signature": "0x49f3b610d2b607252a8901e3c134022c7a6330e5f6525f0ed84dd4a127478958"
    },
    {
      "anonymous": false,
      "inputs": [
        {
          "indexed": false,
          "name": "from",
          "type": "address"
        },
        {
          "indexed": false,
          "name": "value",
          "type": "uint256"
        }
      ],
      "name": "DepositSuccessful",
      "type": "event",
      "signature": "0xb3ef81558ed1a50072a492984535a009da8b129c749500b387f1e5f4886bdde5"
    },
    {
      "anonymous": false,
      "inputs": [
        {
          "indexed": false,
          "name": "scAddr",
          "type": "address"
        },
        {
          "indexed": false,
          "name": "codeHash",
          "type": "bytes32"
        }
      ],
      "name": "SecretContractDeployed",
      "type": "event",
      "signature": "0xff27b3bb5dfb682b066cdace68b5dda84d03c3d2eadac54284aaec44cbcff516"
    },
    {
      "constant": false,
      "inputs": [
        {
          "name": "_signer",
          "type": "address"
        },
        {
          "name": "_report",
          "type": "bytes"
        }
      ],
      "name": "register",
      "outputs": [],
      "payable": false,
      "stateMutability": "nonpayable",
      "type": "function",
      "signature": "0x24b8fbf6"
    },
    {
      "constant": false,
      "inputs": [
        {
          "name": "_custodian",
          "type": "address"
        },
        {
          "name": "_amount",
          "type": "uint256"
        }
      ],
      "name": "deposit",
      "outputs": [],
      "payable": false,
      "stateMutability": "nonpayable",
      "type": "function",
      "signature": "0x47e7ef24"
    },
    {
      "constant": false,
      "inputs": [],
      "name": "login",
      "outputs": [],
      "payable": false,
      "stateMutability": "nonpayable",
      "type": "function",
      "signature": "0xb34e97e8"
    },
    {
      "constant": false,
      "inputs": [
        {
          "name": "_scAddr",
          "type": "address"
        },
        {
          "name": "_codeHash",
          "type": "bytes32"
        },
        {
          "name": "_owner",
          "type": "address"
        },
        {
          "name": "_sig",
          "type": "bytes"
        }
      ],
      "name": "deploySecretContract",
      "outputs": [],
      "payable": false,
      "stateMutability": "nonpayable",
      "type": "function",
      "signature": "0xd3b524c4"
    },
    {
      "constant": true,
      "inputs": [
        {
          "name": "_scAddr",
          "type": "address"
        }
      ],
      "name": "isDeployed",
      "outputs": [
        {
          "name": "",
          "type": "bool"
        }
      ],
      "payable": false,
      "stateMutability": "view",
      "type": "function",
      "signature": "0x90184b02"
    },
    {
      "constant": true,
      "inputs": [
        {
          "name": "_scAddr",
          "type": "address"
        }
      ],
      "name": "getCodeHash",
      "outputs": [
        {
          "name": "",
          "type": "bytes32"
        }
      ],
      "payable": false,
      "stateMutability": "view",
      "type": "function",
      "signature": "0x81ea4408"
    },
    {
      "constant": true,
      "inputs": [],
      "name": "countSecretContracts",
      "outputs": [
        {
          "name": "",
          "type": "uint256"
        }
      ],
      "payable": false,
      "stateMutability": "view",
      "type": "function",
      "signature": "0x75bbf75b"
    },
    {
      "constant": true,
      "inputs": [
        {
          "name": "_start",
          "type": "uint256"
        },
        {
          "name": "_stop",
          "type": "uint256"
        }
      ],
      "name": "getSecretContractAddresses",
      "outputs": [
        {
          "name": "",
          "type": "address[]"
        }
      ],
      "payable": false,
      "stateMutability": "view",
      "type": "function",
      "signature": "0x8e055b8b"
    },
    {
      "constant": true,
      "inputs": [
        {
          "name": "_scAddr",
          "type": "address"
        }
      ],
      "name": "countStateDeltas",
      "outputs": [
        {
          "name": "",
          "type": "uint256"
        }
      ],
      "payable": false,
      "stateMutability": "view",
      "type": "function",
      "signature": "0x84062df7"
    },
    {
      "constant": true,
      "inputs": [
        {
          "name": "_scAddr",
          "type": "address"
        },
        {
          "name": "_index",
          "type": "uint256"
        }
      ],
      "name": "getStateDeltaHash",
      "outputs": [
        {
          "name": "",
          "type": "bytes32"
        }
      ],
      "payable": false,
      "stateMutability": "view",
      "type": "function",
      "signature": "0x44409496"
    },
    {
      "constant": true,
      "inputs": [
        {
          "name": "_scAddr",
          "type": "address"
        },
        {
          "name": "_start",
          "type": "uint256"
        },
        {
          "name": "_stop",
          "type": "uint256"
        }
      ],
      "name": "getStateDeltaHashes",
      "outputs": [
        {
          "name": "",
          "type": "bytes32[]"
        }
      ],
      "payable": false,
      "stateMutability": "view",
      "type": "function",
      "signature": "0x05e62db6"
    },
    {
      "constant": true,
      "inputs": [
        {
          "name": "_scAddr",
          "type": "address"
        },
        {
          "name": "_stateDeltaHash",
          "type": "bytes32"
        }
      ],
      "name": "isValidDeltaHash",
      "outputs": [
        {
          "name": "",
          "type": "bool"
        }
      ],
      "payable": false,
      "stateMutability": "view",
      "type": "function",
      "signature": "0x7b5b2ce3"
    },
    {
      "constant": false,
      "inputs": [
        {
          "name": "_taskId",
          "type": "bytes32"
        },
        {
          "name": "_fee",
          "type": "uint256"
        }
      ],
      "name": "createTaskRecord",
      "outputs": [],
      "payable": false,
      "stateMutability": "nonpayable",
      "type": "function",
      "signature": "0x03316d16"
    },
    {
      "constant": false,
      "inputs": [
        {
          "name": "_taskIds",
          "type": "bytes32[]"
        },
        {
          "name": "_fees",
          "type": "uint256[]"
        }
      ],
      "name": "createTaskRecords",
      "outputs": [],
      "payable": false,
      "stateMutability": "nonpayable",
      "type": "function",
      "signature": "0x120db8ab"
    },
    {
      "constant": false,
      "inputs": [
        {
          "name": "_scAddr",
          "type": "address"
        },
        {
          "name": "_taskId",
          "type": "bytes32"
        },
        {
          "name": "_inStateDeltaHash",
          "type": "bytes32"
        },
        {
          "name": "_outStateDeltaHash",
          "type": "bytes32"
        },
        {
          "name": "_ethCall",
          "type": "bytes"
        },
        {
          "name": "_sig",
          "type": "bytes"
        }
      ],
      "name": "commitReceipt",
      "outputs": [],
      "payable": false,
      "stateMutability": "nonpayable",
      "type": "function",
      "signature": "0x5956efef"
    },
    {
      "constant": false,
      "inputs": [
        {
          "name": "_scAddr",
          "type": "address"
        },
        {
          "name": "_taskIds",
          "type": "bytes32[]"
        },
        {
          "name": "_inStateDeltaHashes",
          "type": "bytes32[]"
        },
        {
          "name": "_outStateDeltaHashes",
          "type": "bytes32[]"
        },
        {
          "name": "_ethCall",
          "type": "bytes"
        },
        {
          "name": "_sig",
          "type": "bytes"
        }
      ],
      "name": "commitReceipts",
      "outputs": [],
      "payable": false,
      "stateMutability": "nonpayable",
      "type": "function",
      "signature": "0x4d0edeaa"
    },
    {
      "constant": false,
      "inputs": [
        {
          "name": "_seed",
          "type": "uint256"
        },
        {
          "name": "_sig",
          "type": "bytes"
        }
      ],
      "name": "setWorkersParams",
      "outputs": [],
      "payable": false,
      "stateMutability": "nonpayable",
      "type": "function",
      "signature": "0x2873e73c"
    },
    {
      "constant": true,
      "inputs": [
        {
          "name": "_blockNumber",
          "type": "uint256"
        }
      ],
      "name": "getWorkerParams",
      "outputs": [
        {
          "name": "",
          "type": "uint256"
        },
        {
          "name": "",
          "type": "uint256"
        },
        {
          "name": "",
          "type": "address[]"
        },
        {
          "name": "",
          "type": "uint256[]"
        }
      ],
      "payable": false,
      "stateMutability": "view",
      "type": "function",
      "signature": "0x9836ca31"
    },
    {
      "constant": true,
      "inputs": [
        {
          "name": "_blockNumber",
          "type": "uint256"
        },
        {
          "name": "_scAddr",
          "type": "address"
        }
      ],
      "name": "getWorkerGroup",
      "outputs": [
        {
          "name": "",
          "type": "address[]"
        }
      ],
      "payable": false,
      "stateMutability": "view",
      "type": "function",
      "signature": "0xd9611203"
    },
    {
      "constant": true,
      "inputs": [
        {
          "name": "_blockNumber",
          "type": "uint256"
        }
      ],
      "name": "getWorkersParams",
      "outputs": [
        {
          "name": "",
          "type": "uint256"
        },
        {
          "name": "",
          "type": "uint256"
        },
        {
          "name": "",
          "type": "address[]"
        },
        {
          "name": "",
          "type": "address[]"
        }
      ],
      "payable": false,
      "stateMutability": "view",
      "type": "function",
      "signature": "0x59c91a12"
    },
    {
      "constant": true,
      "inputs": [
        {
          "name": "_custodian",
          "type": "address"
        }
      ],
      "name": "getReport",
      "outputs": [
        {
          "name": "",
          "type": "address"
        },
        {
          "name": "",
          "type": "bytes"
        }
      ],
      "payable": false,
      "stateMutability": "view",
      "type": "function",
      "signature": "0xa3bdae3e"
    }
  ],
  "bytecode": "0x60806040523480156200001157600080fd5b50604051604080620042f4833981018060405262000033919081019062000082565b60008054600160a060020a03938416600160a060020a03199182161790915560018054929093169116178155601c556005601d55620000cd565b60006200007b8251620000c1565b9392505050565b600080604083850312156200009657600080fd5b6000620000a485856200006d565b9250506020620000b7858286016200006d565b9150509250929050565b600160a060020a031690565b61421780620000dd6000396000f3006080604052600436106101745763ffffffff7c010000000000000000000000000000000000000000000000000000000060003504166303316d16811461017957806305e62db61461019b5780630a318da0146101d15780630f8c466c146101fe578063120db8ab1461022b57806324b8fbf61461024b5780632873e73c1461026b5780634048a2571461028b57806344409496146102bb57806347e7ef24146102db5780634d0edeaa146102fb5780635956efef1461031b57806359c91a121461033b5780635f0dd5bb1461036b57806369dc9ff31461038b57806375bbf75b146103ba5780637b5b2ce3146103cf57806381ea4408146103fc57806384062df71461041c5780638e055b8b1461043c57806390184b02146104695780639489ad40146104895780639836ca31146104ab578063a3bdae3e146104db578063a3edd78414610509578063b34e97e81461051e578063d3b524c414610533578063d961120314610553578063e579f50014610573575b600080fd5b34801561018557600080fd5b50610199610194366004613602565b6105a3565b005b3480156101a757600080fd5b506101bb6101b636600461351a565b61066a565b6040516101c89190613d45565b60405180910390f35b3480156101dd57600080fd5b506101f16101ec3660046135e4565b610795565b6040516101c89190613c20565b34801561020a57600080fd5b5061021e6102193660046132a2565b6107bd565b6040516101c89190613e04565b34801561023757600080fd5b50610199610246366004613567565b6107cf565b34801561025757600080fd5b506101996102663660046134d2565b61097b565b34801561027757600080fd5b5061019961028636600461366f565b610a8f565b34801561029757600080fd5b506102ab6102a63660046132a2565b610fbc565b6040516101c89493929190613cef565b3480156102c757600080fd5b5061021e6102d63660046133c7565b611080565b3480156102e757600080fd5b506101996102f63660046133c7565b61110a565b34801561030757600080fd5b506101996103163660046132c8565b611440565b34801561032757600080fd5b5061019961033636600461347a565b611612565b34801561034757600080fd5b5061035b6103563660046135e4565b61188b565b6040516101c89493929190613fd3565b34801561037757600080fd5b506101f16103863660046135e4565b611898565b34801561039757600080fd5b506103ab6103a63660046132a2565b6118a6565b6040516101c893929190613c64565b3480156103c657600080fd5b5061021e6118d4565b3480156103db57600080fd5b506103ef6103ea3660046133c7565b6118db565b6040516101c89190613df6565b34801561040857600080fd5b5061021e6104173660046132a2565b6119b5565b34801561042857600080fd5b5061021e6104373660046132a2565b611a24565b34801561044857600080fd5b5061045c610457366004613602565b611a93565b6040516101c89190613d34565b34801561047557600080fd5b506103ef6104843660046132a2565b611b45565b34801561049557600080fd5b5061049e611b8a565b6040516101c89190613ea9565b3480156104b757600080fd5b506104cb6104c63660046135e4565b611b99565b6040516101c8949392919061401e565b3480156104e757600080fd5b506104fb6104f63660046132a2565b611cc4565b6040516101c8929190613c8c565b34801561051557600080fd5b5061021e611f06565b34801561052a57600080fd5b50610199611f0c565b34801561053f57600080fd5b5061019961054e366004613401565b612087565b34801561055f57600080fd5b5061045c61056e36600461363f565b6123ac565b34801561057f57600080fd5b5061059361058e3660046135e4565b6125db565b6040516101c89493929190613f97565b600082815260196020526040902060020154600160a060020a0316156105e75760405160e560020a62461bcd0281526004016105de90613f57565b60405180910390fd5b60008281526019602052604090819020828155600201805473ffffffffffffffffffffffffffffffffffffffff19163390811760a060020a60ff02191660a060020a1790915590517ff1c0c18d5573c419035509d5b8bf3f97ce7b92cca68bccbde847516f66d6fe059161065e9185918591613e4c565b60405180910390a15050565b606080600080866001600160a060020a0382166000908152601a602052604090206003015460ff16600181111561069d57fe5b146106bd5760405160e560020a62461bcd0281526004016105de90613f67565b8515156106e357600160a060020a0388166000908152601a602052604090206002015495505b6106f3868863ffffffff61269e16565b60405190808252806020026020018201604052801561071c578160200160208202803883390190505b509350600092508691505b8582101561078957600160a060020a0388166000908152601a6020526040902060020180548390811061075657fe5b9060005260206000200154848481518110151561076f57fe5b602090810290910101526001928301929190910190610727565b50919695505050505050565b60168054829081106107a357fe5b600091825260209091200154600160a060020a0316905081565b601b6020526000908152604090205481565b60005b825181101561093b576019600084838151811015156107ed57fe5b6020908102909101810151825281019190915260400160002060020154600160a060020a0316156108335760405160e560020a62461bcd0281526004016105de90613f57565b818181518110151561084157fe5b9060200190602002015160196000858481518110151561085d57fe5b602090810290910181015182528101919091526040016000908120919091558351339160199186908590811061088f57fe5b60209081029190910181015182528101919091526040016000908120600201805473ffffffffffffffffffffffffffffffffffffffff1916600160a060020a03939093169290921790915583516001916019918690859081106108ee57fe5b6020908102909101810151825281019190915260400160002060029081018054909160a060020a60ff02199091169060a060020a90849081111561092e57fe5b02179055506001016107d2565b7facd4eaf0bf2790219699c0a2d47f13405b81c59f5ff0bb951a71a29c94a6d77483833360405161096e93929190613dc2565b60405180910390a1505050565b33600090815260186020526040902054600160a060020a031615156109ea57601680546001810182556000919091527fd833147d7dc355ba459fc788f669e58cfaf9dc25ddcd0702e87d69c7b512428901805473ffffffffffffffffffffffffffffffffffffffff1916331790555b3360009081526018602090815260408220805473ffffffffffffffffffffffffffffffffffffffff1916600160a060020a03861617815560028101929092558251610a3b9260010191840190613023565b503360008181526018602052604090819020805460a060020a60ff02191660a060020a179055517f0a31ee9d46a828884b81003c8498156ea6aa15b9b54bdd0ef0b533d9eba57e559161065e918590613c2e565b600080600080610a9d6130a1565b33610aa66130a1565b600160a060020a038281166000908152601860209081526040918290208251608081019093528054938416835291929083019060a060020a900460ff166003811115610aee57fe5b6003811115610af957fe5b8152602001600182018054600181600116156101000203166002900480601f016020809104026020016040519081016040528092919081815260200182805460018160011615610100020316600290048015610b965780601f10610b6b57610100808354040283529160200191610b96565b820191906000526020600020905b815481529060010190602001808311610b7957829003601f168201915b505050918352505060029182015460209091015290915081602001516003811115610bbd57fe5b14610bdd5760405160e560020a62461bcd0281526004016105de90613f07565b60015433600090815260186020526040902054600160a060020a03908116911614610c1d5760405160e560020a62461bcd0281526004016105de90613f47565b60009650600095505b6005861015610c885760028660058110610c3c57fe5b60040201541515610c4f57859650610c88565b60028760058110610c5c57fe5b600402015460028760058110610c6e57fe5b60040201541015610c7d578596505b600190950194610c26565b4360028860058110610c9657fe5b60040201558860028860058110610ca957fe5b600402016003018190555060009450600093505b601654841015610f4c5760186000601686815481101515610cda57fe5b6000918252602080832090910154600160a060020a0390811684528382019490945260409283019091208251608081019093528054938416835291929083019060ff60a060020a909104166003811115610d3057fe5b6003811115610d3b57fe5b8152602001600182018054600181600116156101000203166002900480601f016020809104026020016040519081016040528092919081815260200182805460018160011615610100020316600290048015610dd85780601f10610dad57610100808354040283529160200191610dd8565b820191906000526020600020905b815481529060010190602001808311610dbb57829003601f168201915b505050505081526020016002820154815250509250601c54836060015110158015610e1357506001548351600160a060020a03908116911614155b8015610e2e5750600283602001516003811115610e2c57fe5b145b15610f415760028760058110610e4057fe5b600402016001018054809190600101610e5991906130ca565b506016805485908110610e6857fe5b600091825260209091200154600160a060020a031660028860058110610e8a57fe5b6004020160010186815481101515610e9e57fe5b6000918252602090912001805473ffffffffffffffffffffffffffffffffffffffff1916600160a060020a039290921691909117905560028760058110610ee157fe5b600402016002018054809190600101610efa91906130ca565b50606083015160028860058110610f0d57fe5b6004020160020186815481101515610f2157fe5b600091825260209091200155610f3e85600163ffffffff6126b516565b94505b600190930192610cbd565b7f7047379c64ccafb62f6625e6b2d8eb6e1b0e091fac56a11ab5e2fd896e4db1d0894360028a60058110610f7c57fe5b6004020160010160028b600581101515610f9257fe5b60040201600201604051610fa9949392919061405f565b60405180910390a1505050505050505050565b6018602090815260009182526040918290208054600180830180548651600261010094831615949094026000190190911692909204601f8101869004860283018601909652858252600160a060020a0383169560a060020a90930460ff1694919290918301828280156110705780601f1061104557610100808354040283529160200191611070565b820191906000526020600020905b81548152906001019060200180831161105357829003601f168201915b5050505050908060020154905084565b6000826001600160a060020a0382166000908152601a602052604090206003015460ff1660018111156110af57fe5b146110cf5760405160e560020a62461bcd0281526004016105de90613f67565b600160a060020a0384166000908152601a602052604090206002018054849081106110f657fe5b906000526020600020015491505092915050565b816111136130a1565b600160a060020a038281166000908152601860209081526040918290208251608081019093528054938416835291929083019060a060020a900460ff16600381111561115b57fe5b600381111561116657fe5b8152602001600182018054600181600116156101000203166002900480601f0160208091040260200160405190810160405280929190818152602001828054600181600116156101000203166002900480156112035780601f106111d857610100808354040283529160200191611203565b820191906000526020600020905b8154815290600101906020018083116111e657829003601f168201915b505050918352505060029190910154602090910152905060008160200151600381111561122c57fe5b141561124d5760405160e560020a62461bcd0281526004016105de90613eb7565b6000546040517fdd62ed3e0000000000000000000000000000000000000000000000000000000081528491600160a060020a03169063dd62ed3e906112989088903090600401613cac565b602060405180830381600087803b1580156112b257600080fd5b505af11580156112c6573d6000803e3d6000fd5b505050506040513d601f19601f820116820180604052506112ea9190810190613621565b101561130b5760405160e560020a62461bcd0281526004016105de90613ec7565b6000546040517f23b872dd000000000000000000000000000000000000000000000000000000008152600160a060020a03909116906323b872dd9061135890879030908890600401613cc7565b602060405180830381600087803b15801561137257600080fd5b505af1158015611386573d6000803e3d6000fd5b505050506040513d601f19601f820116820180604052506113aa91908101906135c6565b15156113b557600080fd5b600160a060020a0384166000908152601860205260409020600201546113e1908463ffffffff6126b516565b600160a060020a0385166000908152601860205260409081902060020191909155517fb3ef81558ed1a50072a492984535a009da8b129c749500b387f1e5f4886bdde5906114329086908690613c49565b60405180910390a150505050565b336114496130a1565b600160a060020a038281166000908152601860209081526040918290208251608081019093528054938416835291929083019060a060020a900460ff16600381111561149157fe5b600381111561149c57fe5b8152602001600182018054600181600116156101000203166002900480601f0160208091040260200160405190810160405280929190818152602001828054600181600116156101000203166002900480156115395780601f1061150e57610100808354040283529160200191611539565b820191906000526020600020905b81548152906001019060200180831161151c57829003601f168201915b50505091835250506002918201546020909101529091508160200151600381111561156057fe5b146115805760405160e560020a62461bcd0281526004016105de90613f07565b876001600160a060020a0382166000908152601a602052604090206003015460ff1660018111156115ad57fe5b146115cd5760405160e560020a62461bcd0281526004016105de90613f67565b6115db8989898989896126c2565b7f49f3b610d2b607252a8901e3c134022c7a6330e5f6525f0ed84dd4a1274789588888888888604051610fa9959493929190613d56565b3361161b6130a1565b600160a060020a038281166000908152601860209081526040918290208251608081019093528054938416835291929083019060a060020a900460ff16600381111561166357fe5b600381111561166e57fe5b8152602001600182018054600181600116156101000203166002900480601f01602080910402602001604051908101604052809291908181526020018280546001816001161561010002031660029004801561170b5780601f106116e05761010080835404028352916020019161170b565b820191906000526020600020905b8154815290600101906020018083116116ee57829003601f168201915b50505091835250506002918201546020909101529091508160200151600381111561173257fe5b146117525760405160e560020a62461bcd0281526004016105de90613f07565b876001600160a060020a0382166000908152601a602052604090206003015460ff16600181111561177f57fe5b1461179f5760405160e560020a62461bcd0281526004016105de90613f67565b6001600089815260196020526040902060029081015460a060020a900460ff16908111156117c957fe5b146117e95760405160e560020a62461bcd0281526004016105de90613ee7565b6117f78989898989896129a1565b6000888152601960209081526040909120855161181c92600190920191870190613023565b5060008881526019602052604090819020600201805460a060020a60ff02191674020000000000000000000000000000000000000000179055517f665329bb9a4e1062edc215d9c5ab57fa54c4c88e3dfbcc68e0cd92fdd010fa6e90610fa9908a908a908a908a908a90613e12565b6000806060809193509193565b60178054829081106107a357fe5b601a60205260009081526040902080546001820154600390920154600160a060020a03909116919060ff1683565b6017545b90565b60008080846001600160a060020a0382166000908152601a602052604090206003015460ff16600181111561190c57fe5b1461192c5760405160e560020a62461bcd0281526004016105de90613f67565b60009250600091505b600160a060020a0386166000908152601a60205260409020600201548210156119a857600160a060020a0386166000908152601a6020526040902060020180548691908490811061198257fe5b600091825260209091200154141561199d57600192506119a8565b600190910190611935565b8293505b50505092915050565b6000816001600160a060020a0382166000908152601a602052604090206003015460ff1660018111156119e457fe5b14611a045760405160e560020a62461bcd0281526004016105de90613f67565b5050600160a060020a03166000908152601a602052604090206001015490565b6000816001600160a060020a0382166000908152601a602052604090206003015460ff166001811115611a5357fe5b14611a735760405160e560020a62461bcd0281526004016105de90613f67565b5050600160a060020a03166000908152601a602052604090206002015490565b606080600080841515611aa65760175494505b611ab6858763ffffffff61269e16565b604051908082528060200260200182016040528015611adf578160200160208202803883390190505b509250600091508590505b848110156119a8576017805482908110611b0057fe5b6000918252602090912001548351600160a060020a0390911690849084908110611b2657fe5b600160a060020a03909216602092830290910190910152600101611aea565b60006001600160a060020a0383166000908152601a602052604090206003015460ff166001811115611b7357fe5b1415611b8157506001611b85565b5060005b919050565b600054600160a060020a031681565b6000806060806000611ba96130f3565b611bb287612bae565b915060028260058110611bc157fe5b60040201608060405190810160405290816000820154815260200160018201805480602002602001604051908101604052809291908181526020018280548015611c3457602002820191906000526020600020905b8154600160a060020a03168152600190910190602001808311611c16575b5050505050815260200160028201805480602002602001604051908101604052809291908181526020018280548015611c8c57602002820191906000526020600020905b815481526020019060010190808311611c78575b5050509183525050600391909101546020918201528151606083015191830151604090930151909a9199509197509095509350505050565b6000606082611cd16130a1565b600160a060020a038281166000908152601860209081526040918290208251608081019093528054938416835291929083019060a060020a900460ff166003811115611d1957fe5b6003811115611d2457fe5b8152602001600182018054600181600116156101000203166002900480601f016020809104026020016040519081016040528092919081815260200182805460018160011615610100020316600290048015611dc15780601f10611d9657610100808354040283529160200191611dc1565b820191906000526020600020905b815481529060010190602001808311611da457829003601f168201915b5050509183525050600291909101546020909101529050600081602001516003811115611dea57fe5b1415611e0b5760405160e560020a62461bcd0281526004016105de90613eb7565b600160a060020a03808616600090815260186020526040902054161515611e475760405160e560020a62461bcd0281526004016105de90613f27565b600160a060020a038581166000908152601860209081526040918290208054600191820180548551600261010095831615959095026000190190911693909304601f8101859004850284018501909552848352941693929091839190830182828015611ef45780601f10611ec957610100808354040283529160200191611ef4565b820191906000526020600020905b815481529060010190602001808311611ed757829003601f168201915b50505050509050935093505050915091565b601d5481565b33611f156130a1565b600160a060020a038281166000908152601860209081526040918290208251608081019093528054938416835291929083019060a060020a900460ff166003811115611f5d57fe5b6003811115611f6857fe5b8152602001600182018054600181600116156101000203166002900480601f0160208091040260200160405190810160405280929190818152602001828054600181600116156101000203166002900480156120055780601f10611fda57610100808354040283529160200191612005565b820191906000526020600020905b815481529060010190602001808311611fe857829003601f168201915b505050918352505060029190910154602090910152905060008160200151600381111561202e57fe5b141561204f5760405160e560020a62461bcd0281526004016105de90613eb7565b5050336000908152601860205260409020805460a060020a60ff02191674020000000000000000000000000000000000000000179055565b6000336120926130a1565b600160a060020a038281166000908152601860209081526040918290208251608081019093528054938416835291929083019060a060020a900460ff1660038111156120da57fe5b60038111156120e557fe5b8152602001600182018054600181600116156101000203166002900480601f0160208091040260200160405190810160405280929190818152602001828054600181600116156101000203166002900480156121825780601f1061215757610100808354040283529160200191612182565b820191906000526020600020905b81548152906001019060200180831161216557829003601f168201915b50505091835250506002919091015460209091015290506000816020015160038111156121ab57fe5b14156121cc5760405160e560020a62461bcd0281526004016105de90613eb7565b600160a060020a0385166000818152601b60209081526040918290205482518083018b90526c010000000000000000000000009094028484015260548085019190915282518085039091018152607490930191829052825182918401908083835b6020831061224c5780518252601f19909201916020918201910161222d565b5181516020939093036101000a60001901801990911692169190911790526040519201829003909120955060009250612283915050565b600160a060020a0388166000908152601a602052604090206003015460ff1660018111156122ad57fe5b146122cd5760405160e560020a62461bcd0281526004016105de90613ed7565b600160a060020a038781166000818152601a602090815260408083208054958b1673ffffffffffffffffffffffffffffffffffffffff199687168117825560018083018e90556003909201805460ff191683179055601780548084019091557fc624b66cc0138b8fabc209247f72d758e1cf3343756d543badbf24212bed8c15018054909716909517909555928252601b90528190208054909201909155517fff27b3bb5dfb682b066cdace68b5dda84d03c3d2eadac54284aaec44cbcff5169061239b9089908990613c49565b60405180910390a150505050505050565b606060006123b86130f3565b606060008060008060006123cb8b612bae565b9750600288600581106123da57fe5b6004020160806040519081016040529081600082015481526020016001820180548060200260200160405190810160405280929190818152602001828054801561244d57602002820191906000526020600020905b8154600160a060020a0316815260019091019060200180831161242f575b50505050508152602001600282018054806020026020016040519081016040528092919081815260200182805480156124a557602002820191906000526020600020905b815481526020019060010190808311612491575b505050505081526020016003820154815250509650601d546040519080825280602002602001820160405280156124e6578160200160208202803883390190505b50955060009450600093505b601d548410156125cc575b6125098b898c88612c56565b925060009150600090505b855181101561255f57858181518110151561252b57fe5b90602001906020020151600160a060020a031683600160a060020a03161415612557576001915061255f565b600101612514565b81151561258d5782868581518110151561257557fe5b600160a060020a039092166020928302909101909101525b85516001909501948690859081106125a157fe5b90602001906020020151600160a060020a0316600014156125c1576124fd565b6001909301926124f2565b50939998505050505050505050565b6019602090815260009182526040918290208054600180830180548651600293821615610100026000190190911692909204601f8101869004860283018601909652858252919492939092908301828280156126785780601f1061264d57610100808354040283529160200191612678565b820191906000526020600020905b81548152906001019060200180831161265b57829003601f168201915b50505060029093015491925050600160a060020a0381169060ff60a060020a9091041684565b6000828211156126aa57fe5b508082035b92915050565b818101828110156126af57fe5b600160a060020a0386166000908152601a60205260408120600201549080821515612725578660008151811015156126f657fe5b60209081029091010151156127205760405160e560020a62461bcd0281526004016105de90613f17565b61279e565b600160a060020a0389166000908152601a6020526040902060020161275184600163ffffffff61269e16565b8154811061275b57fe5b6000918252602082200154885190918991811061277457fe5b602090810290910101511461279e5760405160e560020a62461bcd0281526004016105de90613ef7565b600091505b875182101561287b576001601960008a858151811015156127c057fe5b6020908102909101810151825281019190915260400160002060029081015460ff60a060020a90910416908111156127f457fe5b146128145760405160e560020a62461bcd0281526004016105de90613ee7565b600082111561287057856001830381518110151561282e57fe5b60209081029091010151875188908490811061284657fe5b60209081029091010151146128705760405160e560020a62461bcd0281526004016105de90613f37565b6001909101906127a3565b5060005b875181101561299657600160a060020a0389166000908152601a6020526040902086516002909101908790839081106128b457fe5b60209081029091018101518254600181810185556000948552929093209092019190915588516128e99163ffffffff61269e16565b8114156129355783601960008a8481518110151561290357fe5b60209081029091018101518252818101929092526040016000208251612933936001909201929190910190613023565b505b6002601960008a8481518110151561294957fe5b6020908102909101810151825281019190915260400160002060029081018054909160a060020a60ff02199091169060a060020a90849081111561298957fe5b021790555060010161287f565b505050505050505050565b600160a060020a0386166000908152601a602052604081206002015490808215156129ec5786156129e75760405160e560020a62461bcd0281526004016105de90613f17565b612a4f565b600160a060020a0389166000908152601a60205260409020600201612a1884600163ffffffff61269e16565b81548110612a2257fe5b6000918252602090912001548714612a4f5760405160e560020a62461bcd0281526004016105de90613ef7565b600160a060020a0389166000908152601a6020908152604080832060020180546001810182559084529282902090920188905581518082018b81529281018a90526060810189905287518b938b938b938b936080909101918401908083835b60208310612acd5780518252601f199092019160209182019101612aae565b6001836020036101000a0380198251168184511680821785525050505050509050019450505050506040516020818303038152906040526040518082805190602001908083835b60208310612b335780518252601f199092019160209182019101612b14565b5181516020939093036101000a600019018019909116921691909117905260405192018290039091209450612b6e9250849150869050612f66565b33600090815260186020526040902054909150600160a060020a038083169116146129965760405160e560020a62461bcd0281526004016105de90613f77565b6000600019815b6005811015612c23578360028260058110612bcc57fe5b600402015411801590612c1257508160000b6000191480612c1257506002600083900b60058110612bf957fe5b600402015460028260058110612c0b57fe5b6004020154115b15612c1b578091505b600101612bb5565b600019600083900b1415612c4c5760405160e560020a62461bcd0281526004016105de90613f87565b5060000b92915050565b6000612c606130f3565b60008080808060028a60058110612c7357fe5b60040201608060405190810160405290816000820154815260200160018201805480602002602001604051908101604052809291908181526020018280548015612ce657602002820191906000526020600020905b8154600160a060020a03168152600190910190602001808311612cc8575b5050505050815260200160028201805480602002602001604051908101604052809291908181526020018280548015612d3e57602002820191906000526020600020905b815481526020019060010190808311612d2a575b50505050508152602001600382015481525050955060009450600093505b856020015151841015612dcc576020860151805185908110612d7a57fe5b60209081029091010151600160a060020a031615612dc157612dbe866040015185815181101515612da757fe5b60209081029091010151869063ffffffff6126b516565b94505b600190930192612d5c565b8a866060015187600001518b888c6040516020018087815260200186815260200185815260200184600160a060020a0316600160a060020a03166c0100000000000000000000000002815260140183815260200182815260200196505050505050506040516020818303038152906040526040518082805190602001908083835b60208310612e6c5780518252601f199092019160209182019101612e4d565b5181516020939093036101000a60001901801990911692169190911790526040519201829003909120955087925085915050811515612ea757fe5b069150600090505b856020015151811015612f36576020860151805182908110612ecd57fe5b60209081029091010151600160a060020a031615612f2e576040860151805182908110612ef657fe5b602090810290910101519091039060008213612f2e576020860151805182908110612f1d57fe5b906020019060200201519650612f58565b600101612eaf565b602086015180516000198101908110612f4b57fe5b9060200190602002015196505b505050505050949350505050565b60008060008084516041141515612f8057600093506119ac565b50505060208201516040830151606084015160001a601b60ff82161015612fa557601b015b8060ff16601b14158015612fbd57508060ff16601c14155b15612fcb57600093506119ac565b60018682858560405160008152602001604052604051612fee9493929190613e74565b60206040516020810390808403906000865af1158015613012573d6000803e3d6000fd5b5050506020604051035193506119ac565b828054600181600116156101000203166002900490600052602060002090601f016020900481019282601f1061306457805160ff1916838001178555613091565b82800160010185558215613091579182015b82811115613091578251825591602001919060010190613076565b5061309d92915061311c565b5090565b604080516080810190915260008082526020820190815260200160608152602001600081525090565b8154818355818111156130ee576000838152602090206130ee91810190830161311c565b505050565b608060405190810160405280600081526020016060815260200160608152602001600081525090565b6118d891905b8082111561309d5760008155600101613122565b60006131428235614130565b9392505050565b6000601f8201831361315a57600080fd5b813561316d613168826140c7565b6140a0565b9150818183526020840193506020810190508385602084028201111561319257600080fd5b60005b838110156131be57816131a88882613244565b8452506020928301929190910190600101613195565b5050505092915050565b6000601f820183136131d957600080fd5b81356131e7613168826140c7565b9150818183526020840193506020810190508385602084028201111561320c57600080fd5b60005b838110156131be57816132228882613244565b845250602092830192919091019060010161320f565b6000613142825161413c565b600061314282356118d8565b6000601f8201831361326157600080fd5b813561326f613168826140e8565b9150808252602083016020830185838301111561328b57600080fd5b6119ac838284614197565b600061314282516118d8565b6000602082840312156132b457600080fd5b60006132c08484613136565b949350505050565b60008060008060008060c087890312156132e157600080fd5b60006132ed8989613136565b965050602087013567ffffffffffffffff81111561330a57600080fd5b61331689828a01613149565b955050604087013567ffffffffffffffff81111561333357600080fd5b61333f89828a01613149565b945050606087013567ffffffffffffffff81111561335c57600080fd5b61336889828a01613149565b935050608087013567ffffffffffffffff81111561338557600080fd5b61339189828a01613250565b92505060a087013567ffffffffffffffff8111156133ae57600080fd5b6133ba89828a01613250565b9150509295509295509295565b600080604083850312156133da57600080fd5b60006133e68585613136565b92505060206133f785828601613244565b9150509250929050565b6000806000806080858703121561341757600080fd5b60006134238787613136565b945050602061343487828801613244565b935050604061344587828801613136565b925050606085013567ffffffffffffffff81111561346257600080fd5b61346e87828801613250565b91505092959194509250565b60008060008060008060c0878903121561349357600080fd5b600061349f8989613136565b96505060206134b089828a01613244565b95505060406134c189828a01613244565b945050606061336889828a01613244565b600080604083850312156134e557600080fd5b60006134f18585613136565b925050602083013567ffffffffffffffff81111561350e57600080fd5b6133f785828601613250565b60008060006060848603121561352f57600080fd5b600061353b8686613136565b935050602061354c86828701613244565b925050604061355d86828701613244565b9150509250925092565b6000806040838503121561357a57600080fd5b823567ffffffffffffffff81111561359157600080fd5b61359d85828601613149565b925050602083013567ffffffffffffffff8111156135ba57600080fd5b6133f7858286016131c8565b6000602082840312156135d857600080fd5b60006132c08484613238565b6000602082840312156135f657600080fd5b60006132c08484613244565b6000806040838503121561361557600080fd5b60006133e68585613244565b60006020828403121561363357600080fd5b60006132c08484613296565b6000806040838503121561365257600080fd5b600061365e8585613244565b92505060206133f785828601613136565b6000806040838503121561368257600080fd5b60006134f18585613244565b61369781614130565b82525050565b60006136a882614122565b8084526020840193506136ba83614110565b60005b828110156136ea576136d086835161368e565b6136d982614110565b6020969096019591506001016136bd565b5093949350505050565b60006136ff82614126565b80845260208401935061371183614116565b60005b828110156136ea5761372786835461368e565b6137308261412a565b602096909601959150600101613714565b600061374c82614122565b80845260208401935061375e83614110565b60005b828110156136ea57613774868351613831565b61377d82614110565b602096909601959150600101613761565b600061379982614122565b8084526020840193506137ab83614110565b60005b828110156136ea576137c1868351613831565b6137ca82614110565b6020969096019591506001016137ae565b60006137e682614126565b8084526020840193506137f883614116565b60005b828110156136ea5761380e868354613831565b6138178261412a565b6020969096019591506001016137fb565b6136978161413c565b613697816118d8565b600061384582614122565b8084526138598160208601602086016141a3565b613862816141d3565b9093016020019392505050565b6136978161416b565b61369781614176565b61369781614181565b6136978161418c565b601481527f556e7265676973746572656420776f726b65722e000000000000000000000000602082015260400190565b602681527f4e6f7420656e6f75676820746f6b656e7320616c6c6f77656420666f7220747260208201527f616e736665720000000000000000000000000000000000000000000000000000604082015260600190565b602181527f53656372657420636f6e747261637420616c7265616479206465706c6f79656460208201527f2e00000000000000000000000000000000000000000000000000000000000000604082015260600190565b601381527f496e76616c6964207461736b2073746174757300000000000000000000000000602082015260400190565b601e81527f496e76616c696420696e7075742073746174652064656c746120686173680000602082015260400190565b601581527f576f726b6572206e6f74206c6f6767656420696e2e0000000000000000000000602082015260400190565b602e81527f496e76616c696420696e7075742073746174652064656c74612068617368206660208201527f6f7220656d707479207374617465000000000000000000000000000000000000604082015260600190565b601581527f576f726b6572206e6f7420726567697374657265640000000000000000000000602082015260400190565b602381527f496e76616c69642073746174652064656c746120686173686573206f7264657260208201527f696e670000000000000000000000000000000000000000000000000000000000604082015260600190565b602681527f4f6e6c7920746865205072696e636970616c2063616e2075706461746520746860208201527f6520736565640000000000000000000000000000000000000000000000000000604082015260600190565b601381527f5461736b20616c72656164792065786973742e00000000000000000000000000602082015260400190565b601d81527f53656372657420636f6e7472616374206e6f74206465706c6f7965642e000000602082015260400190565b601281527f496e76616c6964207369676e61747572652e0000000000000000000000000000602082015260400190565b603681527f4e6f20776f726b65727320706172616d657465727320656e74727920666f722060208201527f73706563696669656420626c6f636b206e756d62657200000000000000000000604082015260600190565b61369781614165565b602081016126af828461368e565b60408101613c3c828561368e565b613142602083018461368e565b60408101613c57828561368e565b6131426020830184613831565b60608101613c72828661368e565b613c7f6020830185613831565b6132c06040830184613878565b60408101613c9a828561368e565b81810360208301526132c0818461383a565b60408101613cba828561368e565b613142602083018461386f565b60608101613cd5828661368e565b613ce2602083018561386f565b6132c06040830184613831565b60808101613cfd828761368e565b613d0a602083018661388a565b8181036040830152613d1c818561383a565b9050613d2b6060830184613831565b95945050505050565b60208082528101613142818461369d565b602080825281016131428184613741565b60a08082528101613d678188613741565b90508181036020830152613d7b8187613741565b90508181036040830152613d8f8186613741565b90508181036060830152613da3818561383a565b90508181036080830152613db7818461383a565b979650505050505050565b60608082528101613dd38186613741565b90508181036020830152613de7818561378e565b90506132c0604083018461368e565b602081016126af8284613828565b602081016126af8284613831565b60a08101613e208288613831565b613e2d6020830187613831565b613e3a6040830186613831565b8181036060830152613da3818561383a565b60608101613e5a8286613831565b613e676020830185613831565b6132c0604083018461368e565b60808101613e828287613831565b613e8f6020830186613c17565b613e9c6040830185613831565b613d2b6060830184613831565b602081016126af828461386f565b602080825281016126af81613893565b602080825281016126af816138c3565b602080825281016126af81613919565b602080825281016126af8161396f565b602080825281016126af8161399f565b602080825281016126af816139cf565b602080825281016126af816139ff565b602080825281016126af81613a55565b602080825281016126af81613a85565b602080825281016126af81613adb565b602080825281016126af81613b31565b602080825281016126af81613b61565b602080825281016126af81613b91565b602080825281016126af81613bc1565b60808101613fa58287613831565b8181036020830152613fb7818661383a565b9050613fc6604083018561368e565b613d2b6060830184613881565b60808101613fe18287613831565b613fee6020830186613831565b8181036040830152614000818561369d565b90508181036060830152614014818461369d565b9695505050505050565b6080810161402c8287613831565b6140396020830186613831565b818103604083015261404b818561369d565b90508181036060830152614014818461378e565b6080810161406d8287613831565b61407a6020830186613831565b818103604083015261408c81856136f4565b9050818103606083015261401481846137db565b60405181810167ffffffffffffffff811182821017156140bf57600080fd5b604052919050565b600067ffffffffffffffff8211156140de57600080fd5b5060209081020190565b600067ffffffffffffffff8211156140ff57600080fd5b506020601f91909101601f19160190565b60200190565b60009081526020902090565b5190565b5490565b60010190565b600160a060020a031690565b151590565b60006002821061309d57fe5b60006003821061309d57fe5b60006004821061309d57fe5b60ff1690565b60006126af82614130565b60006126af82614141565b60006126af8261414d565b60006126af82614159565b82818337506000910152565b60005b838110156141be5781810151838201526020016141a6565b838111156141cd576000848401525b50505050565b601f01601f1916905600a265627a7a7230582075546ae468951f515d7add184014fb39af52b626b223faf3dc7be684238a970b6c6578706572696d656e74616cf50037",
  "source": "pragma solidity ^0.4.24;\npragma experimental ABIEncoderV2;\n\nimport \"openzeppelin-solidity/contracts/math/SafeMath.sol\";\nimport \"openzeppelin-solidity/contracts/ECRecovery.sol\";\n\ncontract ERC20 {\n    function allowance(address owner, address spender) public view returns (uint256);\n\n    function transferFrom(address from, address to, uint256 value) public returns (bool);\n\n    function approve(address spender, uint256 value) public returns (bool);\n\n    function totalSupply() public view returns (uint256);\n\n    function balanceOf(address who) public view returns (uint256);\n\n    function transfer(address to, uint256 value) public returns (bool);\n\n    event Transfer(address indexed from, address indexed to, uint256 value);\n    event Approval(address indexed owner, address indexed spender, uint256 value);\n}\n\ncontract Enigma {\n    using SafeMath for uint256;\n    using ECRecovery for bytes32;\n\n    // The interface of the deployed ENG ERC20 token contract\n    ERC20 public engToken;\n\n    struct TaskRecord {\n        uint fee;\n        bytes proof; // Signature of (taskId, inStateDeltaHash, outStateDeltaHash, ethCall)\n        address sender;\n        TaskStatus status;\n    }\n    enum TaskStatus {RecordUndefined, RecordCreated, ReceiptVerified}\n\n    /**\n    * The signer address of the principal node\n    * This must be set when deploying the contract and remains immutable\n    * Since the signer address is derived from the public key of an\n    * SGX enclave, this ensures that the principal node cannot be tempered\n    * with or replaced.\n    */\n    address principal;\n\n    // The data representation of a worker (or node)\n    struct Worker {\n        address signer;\n        WorkerStatus status; // Uninitialized: 0; Active: 1; Inactive: 2\n        bytes report; // Decided to store this as one  RLP encoded attribute for easier external storage in the future\n        uint256 balance;\n    }\n\n    enum WorkerStatus {Unregistered, Registered, LoggedIn, LoggedOut}\n\n    /**\n    * The data representation of the worker parameters used as input for\n    * the worker selection algorithm\n    */\n    struct WorkersParams {\n        uint firstBlockNumber;\n        address[] workers;\n        uint[] balances;\n        uint seed;\n    }\n\n    struct SecretContract {\n        address owner;\n        bytes32 codeHash;\n        bytes32[] stateDeltaHashes;\n        SecretContractStatus status;\n        // TODO: consider keeping an index of taskIds\n    }\n    // TODO: do we want to have a contract lifecycle?\n    enum SecretContractStatus {Undefined, Deployed}\n\n    /**\n    * The last 5 worker parameters\n    * We keep a collection of worker parameters to account for latency issues.\n    * A computation task might be conceivably given out at a certain block number\n    * but executed at a later block in a different epoch. It follows that\n    * the contract must have access to the worker parameters effective when giving\n    * out the task, otherwise the selected worker would not match. We calculated\n    * that keeping the last 5 items should be more than enough to account for\n    * all latent tasks. Tasks results will be rejected past this limit.\n    */\n    WorkersParams[5] workersParams;\n\n    // An address-based index of all registered worker\n    address[] public workerAddresses;\n    // An address-based index of all secret contracts\n    address[] public scAddresses;\n\n    // A registry of all registered workers with their attributes\n    mapping(address => Worker) public workers;\n    mapping(bytes32 => TaskRecord) public tasks;\n    mapping(address => SecretContract) public contracts;\n\n    // A mapping of number of secret contract deployments for each address\n    mapping(address => uint) public userSCDeployments;\n\n    // TODO: do we keep tasks forever? if not, when do we delete them?\n    uint stakingThreshold;\n    uint public workerGroupSize;\n\n    // The events emitted by the contract\n    event Registered(address custodian, address signer);\n    event ValidatedSig(bytes sig, bytes32 hash, address workerAddr);\n    event WorkersParameterized(uint seed, uint256 blockNumber, address[] workers, uint[] balances);\n    event TaskRecordCreated(bytes32 taskId, uint fee, address sender);\n    event TaskRecordsCreated(bytes32[] taskIds, uint[] fees, address sender);\n    event ReceiptVerified(bytes32 taskId, bytes32 inStateDeltaHash, bytes32 outStateDeltaHash, bytes ethCall, bytes sig);\n    event ReceiptsVerified(bytes32[] taskIds, bytes32[] inStateDeltaHashes, bytes32[] outStateDeltaHashes, bytes ethCall, bytes sig);\n    event DepositSuccessful(address from, uint value);\n    event SecretContractDeployed(address scAddr, bytes32 codeHash);\n\n    constructor(address _tokenAddress, address _principal) public {\n        engToken = ERC20(_tokenAddress);\n        principal = _principal;\n        stakingThreshold = 1;\n        workerGroupSize = 5;\n    }\n\n    //TODO: break down these methods into services for upgradability\n\n    /**\n    * Checks if the custodian wallet is registered as a worker\n    *\n    * @param _user The custodian address of the worker\n    */\n    modifier workerRegistered(address _user) {\n        Worker memory worker = workers[_user];\n        require(worker.status != WorkerStatus.Unregistered, \"Unregistered worker.\");\n        _;\n    }\n\n    /**\n    * Checks if the custodian wallet is logged in as a worker\n    *\n    * @param _user The custodian address of the worker\n    */\n    modifier workerLoggedIn(address _user) {\n        Worker memory worker = workers[_user];\n        require(worker.status == WorkerStatus.LoggedIn, \"Worker not logged in.\");\n        _;\n    }\n\n    modifier contractDeployed(address _scAddr) {\n        require(contracts[_scAddr].status == SecretContractStatus.Deployed, \"Secret contract not deployed.\");\n        _;\n    }\n\n    /**\n    * Registers a new worker of change the signer parameters of an existing\n    * worker. This should be called by every worker (and the principal)\n    * node in order to receive tasks.\n    *\n    * @param _signer The signer address, derived from the enclave public key\n    * @param _report The RLP encoded report returned by the IAS\n    */\n    function register(address _signer, bytes _report)\n    public\n    {\n        // TODO: consider exit if both signer and custodian as matching\n        // If the custodian is not already register, we add an index entry\n        if (workers[msg.sender].signer == 0x0) {\n            workerAddresses.push(msg.sender);\n        }\n\n        // Set the custodian attributes\n        workers[msg.sender].signer = _signer;\n        workers[msg.sender].balance = 0;\n        workers[msg.sender].report = _report;\n        workers[msg.sender].status = WorkerStatus.Registered;\n\n        emit Registered(msg.sender, _signer);\n    }\n\n    function deposit(address _custodian, uint _amount)\n    public\n    workerRegistered(_custodian)\n    {\n        require(engToken.allowance(_custodian, this) >= _amount, \"Not enough tokens allowed for transfer\");\n        require(engToken.transferFrom(_custodian, this, _amount));\n\n        workers[_custodian].balance = workers[_custodian].balance.add(_amount);\n\n        emit DepositSuccessful(_custodian, _amount);\n    }\n\n    function login() public workerRegistered(msg.sender) {\n        workers[msg.sender].status = WorkerStatus.LoggedIn;\n    }\n\n    // TODO: should the scAddr be computed on-chain from the codeHash + some randomness\n    // TODO: should any user deploy a secret contract or only a trusted enclave?\n    function deploySecretContract(address _scAddr, bytes32 _codeHash, address _owner, bytes _sig)\n    public\n    workerRegistered(msg.sender)\n    {\n        address scAddr = address(keccak256(abi.encodePacked(_codeHash, _owner, userSCDeployments[_owner])));\n        // require(scAddr == _scAddr);\n        require(contracts[_scAddr].status == SecretContractStatus.Undefined, \"Secret contract already deployed.\");\n        //TODO: verify sig\n\n        //TODO: is this too naive?\n        contracts[_scAddr].owner = _owner;\n        contracts[_scAddr].codeHash = _codeHash;\n        contracts[_scAddr].status = SecretContractStatus.Deployed;\n        scAddresses.push(_scAddr);\n        userSCDeployments[_owner]++;\n        emit SecretContractDeployed(_scAddr, _codeHash);\n    }\n\n    function isDeployed(address _scAddr)\n    public\n    view\n    returns (bool)\n    {\n        if (contracts[_scAddr].status == SecretContractStatus.Deployed) {\n            return true;\n        } else {\n            return false;\n        }\n    }\n\n    function getCodeHash(address _scAddr)\n    public\n    view\n    contractDeployed(_scAddr)\n    returns (bytes32)\n    {\n        return contracts[_scAddr].codeHash;\n    }\n\n    function countSecretContracts()\n    public\n    view\n    returns (uint)\n    {\n        return scAddresses.length;\n    }\n\n    /**\n    * Selects address from _start up to, but not including, the _stop number\n    **/\n    function getSecretContractAddresses(uint _start, uint _stop)\n    public\n    view\n    returns (address[])\n    {\n        if (_stop == 0) {\n            _stop = scAddresses.length;\n        }\n        address[] memory addresses = new address[](_stop.sub(_start));\n        uint pos = 0;\n        for (uint i = _start; i < _stop; i++) {\n            addresses[pos] = scAddresses[i];\n        }\n        return addresses;\n    }\n\n    function countStateDeltas(address _scAddr)\n    public\n    view\n    contractDeployed(_scAddr)\n    returns (uint)\n    {\n        return contracts[_scAddr].stateDeltaHashes.length;\n    }\n\n    function getStateDeltaHash(address _scAddr, uint _index)\n    public\n    view\n    contractDeployed(_scAddr)\n    returns (bytes32)\n    {\n        return contracts[_scAddr].stateDeltaHashes[_index];\n    }\n\n    /**\n    * Selects state deltas from _start up to, but not including, the _stop number\n    **/\n    function getStateDeltaHashes(address _scAddr, uint _start, uint _stop)\n    public\n    view\n    contractDeployed(_scAddr)\n    returns (bytes32[])\n    {\n        if (_stop == 0) {\n            _stop = contracts[_scAddr].stateDeltaHashes.length;\n        }\n        bytes32[] memory deltas = new bytes32[](_stop.sub(_start));\n        uint pos = 0;\n        for (uint i = _start; i < _stop; i++) {\n            deltas[pos] = contracts[_scAddr].stateDeltaHashes[i];\n            pos++;\n        }\n        return deltas;\n    }\n\n    function isValidDeltaHash(address _scAddr, bytes32 _stateDeltaHash)\n    public\n    view\n    contractDeployed(_scAddr)\n    returns (bool)\n    {\n        bool valid = false;\n        for (uint i = 0; i < contracts[_scAddr].stateDeltaHashes.length; i++) {\n            if (contracts[_scAddr].stateDeltaHashes[i] == _stateDeltaHash) {\n                valid = true;\n                break;\n            }\n        }\n        return valid;\n    }\n\n    /**\n    * Store task record\n    *\n    */\n    function createTaskRecord(\n        bytes32 _taskId,\n        uint _fee\n    )\n    public\n    {\n        require(tasks[_taskId].sender == 0x0, \"Task already exist.\");\n\n        tasks[_taskId].fee = _fee;\n        tasks[_taskId].sender = msg.sender;\n        tasks[_taskId].status = TaskStatus.RecordCreated;\n\n        emit TaskRecordCreated(_taskId, _fee, msg.sender);\n    }\n\n    function createTaskRecords(\n        bytes32[] _taskIds,\n        uint[] _fees\n    )\n    public\n    {\n        for (uint i = 0; i < _taskIds.length; i++) {\n            require(tasks[_taskIds[i]].sender == 0x0, \"Task already exist.\");\n\n            tasks[_taskIds[i]].fee = _fees[i];\n            tasks[_taskIds[i]].sender = msg.sender;\n            tasks[_taskIds[i]].status = TaskStatus.RecordCreated;\n        }\n        emit TaskRecordsCreated(_taskIds, _fees, msg.sender);\n    }\n\n    // Execute the encoded function in the specified contract\n    function executeCall(address _to, uint256 _value, bytes _data)\n    internal\n    returns (bool success)\n    {\n        assembly {\n            success := call(gas, _to, _value, add(_data, 0x20), mload(_data), 0, 0)\n        }\n    }\n\n    function verifyReceipt(\n        address _scAddr,\n        bytes32 _taskId,\n        bytes32 _inStateDeltaHash,\n        bytes32 _outStateDeltaHash,\n        bytes _ethCall,\n        bytes _sig\n    )\n    internal\n    {\n        uint index = contracts[_scAddr].stateDeltaHashes.length;\n        if (index == 0) {\n            require(_inStateDeltaHash == 0x0, 'Invalid input state delta hash for empty state');\n        } else {\n            require(_inStateDeltaHash == contracts[_scAddr].stateDeltaHashes[index.sub(1)], 'Invalid input state delta hash');\n        }\n        contracts[_scAddr].stateDeltaHashes.push(_outStateDeltaHash);\n\n        // TODO: execute the Ethereum calls\n\n        // Build a hash to validate that the I/Os are matching\n        bytes32 hash = keccak256(abi.encodePacked(_taskId, _inStateDeltaHash, _outStateDeltaHash, _ethCall));\n\n        // The worker address is not a real Ethereum wallet address but\n        // one generated from its signing key\n        address workerAddr = hash.recover(_sig);\n        require(workerAddr == workers[msg.sender].signer, \"Invalid signature.\");\n    }\n\n    /**\n    * Commit the computation task results on chain\n    */\n    function commitReceipt(\n        address _scAddr,\n        bytes32 _taskId,\n        bytes32 _inStateDeltaHash,\n        bytes32 _outStateDeltaHash,\n        bytes _ethCall,\n        bytes _sig\n    )\n    public\n    workerLoggedIn(msg.sender)\n    contractDeployed(_scAddr)\n    {\n        require(tasks[_taskId].status == TaskStatus.RecordCreated, 'Invalid task status');\n        verifyReceipt(_scAddr, _taskId, _inStateDeltaHash, _outStateDeltaHash, _ethCall, _sig);\n\n        tasks[_taskId].proof = _sig;\n        tasks[_taskId].status = TaskStatus.ReceiptVerified;\n        emit ReceiptVerified(_taskId, _inStateDeltaHash, _outStateDeltaHash, _ethCall, _sig);\n    }\n\n    function verifyReceipts(\n        address _scAddr,\n        bytes32[] _taskIds,\n        bytes32[] _inStateDeltaHashes,\n        bytes32[] _outStateDeltaHashes,\n        bytes _ethCall,\n        bytes _sig\n    )\n    internal\n    {\n        // First, we verify the state delta hashes ordering\n        uint index = contracts[_scAddr].stateDeltaHashes.length;\n        if (index == 0) {\n            require(_inStateDeltaHashes[0] == 0x0, 'Invalid input state delta hash for empty state');\n        } else {\n            require(_inStateDeltaHashes[0] == contracts[_scAddr].stateDeltaHashes[index.sub(1)], 'Invalid input state delta hash');\n        }\n        for (uint i = 0; i < _taskIds.length; i++) {\n            require(tasks[_taskIds[i]].status == TaskStatus.RecordCreated, 'Invalid task status');\n            if (i > 0) {\n                require(_inStateDeltaHashes[i] == _outStateDeltaHashes[i - 1], 'Invalid state delta hashes ordering');\n            }\n        }\n        // TODO: verify signature\n        // Then, we store the outStateDeltaHashes\n        for (uint ic = 0; ic < _taskIds.length; ic++) {\n            contracts[_scAddr].stateDeltaHashes.push(_outStateDeltaHashes[ic]);\n            if (ic == _taskIds.length.sub(1)) {\n                tasks[_taskIds[ic]].proof = _sig;\n            }\n            tasks[_taskIds[ic]].status = TaskStatus.ReceiptVerified;\n        }\n        // TODO: execute the Ethereum calls\n    }\n\n    function commitReceipts(\n        address _scAddr,\n        bytes32[] _taskIds,\n        bytes32[] _inStateDeltaHashes,\n        bytes32[] _outStateDeltaHashes,\n        bytes _ethCall,\n        bytes _sig\n    )\n    public\n    workerLoggedIn(msg.sender)\n    contractDeployed(_scAddr)\n    {\n        verifyReceipts(_scAddr, _taskIds, _inStateDeltaHashes, _outStateDeltaHashes, _ethCall, _sig);\n        emit ReceiptsVerified(_taskIds, _inStateDeltaHashes, _outStateDeltaHashes, _ethCall, _sig);\n    }\n\n    // Verify the signature submitted while reparameterizing workers\n    function verifyParamsSig(uint256 _seed, bytes _sig)\n    internal\n    pure\n    returns (address)\n    {\n        bytes32 hash = keccak256(abi.encodePacked(_seed));\n        address signer = hash.recover(_sig);\n        return signer;\n    }\n\n    /**\n    * Reparameterizing workers with a new seed\n    * This should be called for each epoch by the Principal node\n    *\n    * @param _seed The random integer generated by the enclave\n    * @param _sig The random integer signed by the the principal node's enclave\n    */\n    function setWorkersParams(uint _seed, bytes _sig)\n    public\n    workerLoggedIn(msg.sender)\n    {\n        // Reparameterizing workers with a new seed\n        // This should be called for each epoch by the Principal node\n\n        // We assume that the Principal is always the first registered node\n        require(workers[msg.sender].signer == principal, \"Only the Principal can update the seed\");\n        // TODO: verify the principal sig\n\n        // Create a new workers parameters item for the specified seed.\n        // The workers parameters list is a sort of cache, it never grows beyond its limit.\n        // If the list is full, the new item will replace the item assigned to the lowest block number.\n        uint paramIndex = 0;\n        for (uint pi = 0; pi < workersParams.length; pi++) {\n            // Find an empty slot in the array, if full use the lowest block number\n            if (workersParams[pi].firstBlockNumber == 0) {\n                paramIndex = pi;\n                break;\n            } else if (workersParams[pi].firstBlockNumber < workersParams[paramIndex].firstBlockNumber) {\n                paramIndex = pi;\n            }\n        }\n        workersParams[paramIndex].firstBlockNumber = block.number;\n        workersParams[paramIndex].seed = _seed;\n\n        // Copy the current worker list\n        uint workerIndex = 0;\n        for (uint wi = 0; wi < workerAddresses.length; wi++) {\n            Worker memory worker = workers[workerAddresses[wi]];\n            if ((worker.balance >= stakingThreshold) && (worker.signer != principal) &&\n                (worker.status == WorkerStatus.LoggedIn)) {\n                workersParams[paramIndex].workers.length++;\n                workersParams[paramIndex].workers[workerIndex] = workerAddresses[wi];\n\n                workersParams[paramIndex].balances.length++;\n                workersParams[paramIndex].balances[workerIndex] = worker.balance;\n\n                workerIndex = workerIndex.add(1);\n            }\n        }\n        emit WorkersParameterized(_seed, block.number, workersParams[paramIndex].workers, workersParams[paramIndex].balances);\n    }\n\n    function getWorkerParamsIndex(uint _blockNumber)\n    internal\n    view\n    returns (uint)\n    {\n        // The workers parameters for a given block number\n        int8 index = - 1;\n        for (uint i = 0; i < workersParams.length; i++) {\n            if (workersParams[i].firstBlockNumber <= _blockNumber && (index == - 1 || workersParams[i].firstBlockNumber > workersParams[uint(index)].firstBlockNumber)) {\n                index = int8(i);\n            }\n        }\n        require(index != - 1, \"No workers parameters entry for specified block number\");\n        return uint(index);\n    }\n\n    function getWorkerParams(uint _blockNumber)\n    public\n    view\n    returns (uint, uint, address[], uint[]) {\n        uint index = getWorkerParamsIndex(_blockNumber);\n        WorkersParams memory params = workersParams[index];\n        return (params.firstBlockNumber, params.seed, params.workers, params.balances);\n    }\n\n    function compileTokens(uint _blockNumber, uint _paramIndex, address _scAddr, uint _nonce)\n    internal\n    view\n    returns (address)\n    {\n        WorkersParams memory params = workersParams[_paramIndex];\n        uint tokenCpt = 0;\n        for (uint i = 0; i < params.workers.length; i++) {\n            if (params.workers[i] != 0x0) {\n                tokenCpt = tokenCpt.add(params.balances[i]);\n            }\n        }\n        bytes32 randHash = keccak256(abi.encodePacked(_blockNumber, params.seed, params.firstBlockNumber, _scAddr,\n            tokenCpt, _nonce));\n        int randVal = int256(uint256(randHash) % tokenCpt);\n        for (uint k = 0; k < params.workers.length; k++) {\n            if (params.workers[k] != 0x0) {\n                randVal -= int256(params.balances[k]);\n                if (randVal <= 0) {\n                    return params.workers[k];\n                }\n            }\n        }\n        return params.workers[params.workers.length - 1];\n    }\n\n    function getWorkerGroup(uint _blockNumber, address _scAddr)\n    public\n    view\n    returns (address[])\n    {\n        // Compile a list of selected workers for the block number and\n        // secret contract.\n        uint paramIndex = getWorkerParamsIndex(_blockNumber);\n        WorkersParams memory params = workersParams[paramIndex];\n\n        address[] memory selectedWorkers = new address[](workerGroupSize);\n        uint nonce = 0;\n        for (uint it = 0; it < workerGroupSize; it++) {\n            do {\n                address worker = compileTokens(_blockNumber, paramIndex, _scAddr, nonce);\n                bool dup = false;\n                for (uint id = 0; id < selectedWorkers.length; id++) {\n                    if (worker == selectedWorkers[id]) {\n                        dup = true;\n                        break;\n                    }\n                }\n                if (dup == false) {\n                    selectedWorkers[it] = worker;\n                }\n                nonce++;\n            }\n            while (selectedWorkers[it] == 0x0);\n        }\n        return selectedWorkers;\n    }\n\n    /**\n    * The worker parameters corresponding to the specified block number\n    *\n    * @param _blockNumber The reference block number\n    */\n    function getWorkersParams(uint _blockNumber)\n    public\n    view\n    returns (uint, uint, address[], address[])\n    {\n        // TODO: finalize implementation\n        uint firstBlockNumber = 0;\n        uint seed = 0;\n        address[] memory activeWorkers;\n        address[] memory activeContracts;\n        return (firstBlockNumber, seed, activeWorkers, activeContracts);\n    }\n\n    /**\n    * The RLP encoded report returned by the IAS server\n    *\n    * @param _custodian The worker's custodian address\n    */\n    function getReport(address _custodian)\n    public\n    view\n    workerRegistered(_custodian)\n    returns (address, bytes)\n    {\n        // The RLP encoded report and signer's address for the specified worker\n        require(workers[_custodian].signer != 0x0, \"Worker not registered\");\n        return (workers[_custodian].signer, workers[_custodian].report);\n    }\n}\n",
  "sourcePath": "/Users/adityapalepu/Startups/enigma/enigma-contract-internal/contracts/Enigma.sol",
  "compiler": {
    "name": "solc",
    "version": "0.4.24+commit.e67f0147.Emscripten.clang"
  },
  "schemaVersion": "2.0.0",
  "updatedAt": "2018-11-28T07:31:32.453Z"
}