{
  "contractName": "Enigma",
  "abi": [
    {
      "constant": true,
      "inputs": [
        {
          "name": "",
          "type": "uint256"
        }
      ],
      "name": "workerIndex",
      "outputs": [
        {
          "name": "",
          "type": "address"
        }
      ],
      "payable": false,
      "stateMutability": "view",
      "type": "function"
    },
    {
      "constant": true,
      "inputs": [
        {
          "name": "",
          "type": "address"
        }
      ],
      "name": "workers",
      "outputs": [
        {
          "name": "url",
          "type": "bytes32"
        },
        {
          "name": "pkey",
          "type": "string"
        },
        {
          "name": "quote",
          "type": "string"
        },
        {
          "name": "balance",
          "type": "uint256"
        },
        {
          "name": "rate",
          "type": "uint256"
        },
        {
          "name": "status",
          "type": "uint256"
        }
      ],
      "payable": false,
      "stateMutability": "view",
      "type": "function"
    },
    {
      "constant": true,
      "inputs": [
        {
          "name": "",
          "type": "address"
        },
        {
          "name": "",
          "type": "uint256"
        }
      ],
      "name": "tasks",
      "outputs": [
        {
          "name": "taskId",
          "type": "uint256"
        },
        {
          "name": "worker",
          "type": "address"
        },
        {
          "name": "proof",
          "type": "bytes32"
        },
        {
          "name": "reward",
          "type": "uint256"
        }
      ],
      "payable": false,
      "stateMutability": "view",
      "type": "function"
    },
    {
      "anonymous": false,
      "inputs": [
        {
          "indexed": false,
          "name": "url",
          "type": "bytes32"
        },
        {
          "indexed": false,
          "name": "user",
          "type": "address"
        },
        {
          "indexed": false,
          "name": "pkey",
          "type": "string"
        },
        {
          "indexed": false,
          "name": "rate",
          "type": "uint256"
        },
        {
          "indexed": false,
          "name": "_success",
          "type": "bool"
        }
      ],
      "name": "Register",
      "type": "event"
    },
    {
      "anonymous": false,
      "inputs": [
        {
          "indexed": false,
          "name": "user",
          "type": "address"
        },
        {
          "indexed": false,
          "name": "_success",
          "type": "bool"
        }
      ],
      "name": "Login",
      "type": "event"
    },
    {
      "anonymous": false,
      "inputs": [
        {
          "indexed": false,
          "name": "user",
          "type": "address"
        },
        {
          "indexed": false,
          "name": "_success",
          "type": "bool"
        }
      ],
      "name": "Logout",
      "type": "event"
    },
    {
      "anonymous": false,
      "inputs": [
        {
          "indexed": false,
          "name": "user",
          "type": "address"
        },
        {
          "indexed": false,
          "name": "rate",
          "type": "uint256"
        },
        {
          "indexed": false,
          "name": "_success",
          "type": "bool"
        }
      ],
      "name": "UpdateRate",
      "type": "event"
    },
    {
      "anonymous": false,
      "inputs": [
        {
          "indexed": false,
          "name": "secretContract",
          "type": "address"
        },
        {
          "indexed": false,
          "name": "user",
          "type": "address"
        },
        {
          "indexed": false,
          "name": "amount",
          "type": "uint256"
        },
        {
          "indexed": false,
          "name": "balance",
          "type": "uint256"
        },
        {
          "indexed": false,
          "name": "_success",
          "type": "bool"
        }
      ],
      "name": "Deposit",
      "type": "event"
    },
    {
      "anonymous": false,
      "inputs": [
        {
          "indexed": false,
          "name": "user",
          "type": "address"
        },
        {
          "indexed": false,
          "name": "amount",
          "type": "uint256"
        },
        {
          "indexed": false,
          "name": "balance",
          "type": "uint256"
        },
        {
          "indexed": false,
          "name": "_success",
          "type": "bool"
        }
      ],
      "name": "Withdraw",
      "type": "event"
    },
    {
      "anonymous": false,
      "inputs": [
        {
          "indexed": false,
          "name": "secretContract",
          "type": "address"
        },
        {
          "indexed": false,
          "name": "worker",
          "type": "address"
        },
        {
          "indexed": false,
          "name": "proof",
          "type": "bytes32"
        },
        {
          "indexed": false,
          "name": "reward",
          "type": "uint256"
        },
        {
          "indexed": false,
          "name": "_success",
          "type": "bool"
        }
      ],
      "name": "SolveTask",
      "type": "event"
    },
    {
      "anonymous": false,
      "inputs": [
        {
          "indexed": false,
          "name": "callingContract",
          "type": "address"
        },
        {
          "indexed": false,
          "name": "taskId",
          "type": "uint256"
        },
        {
          "indexed": false,
          "name": "callable",
          "type": "bytes32"
        },
        {
          "indexed": false,
          "name": "callableArgs",
          "type": "bytes32[]"
        },
        {
          "indexed": false,
          "name": "callback",
          "type": "bytes32"
        },
        {
          "indexed": false,
          "name": "fee",
          "type": "uint256"
        },
        {
          "indexed": false,
          "name": "preprocessors",
          "type": "bytes32[]"
        },
        {
          "indexed": false,
          "name": "_success",
          "type": "bool"
        }
      ],
      "name": "ComputeTask",
      "type": "event"
    },
    {
      "constant": false,
      "inputs": [
        {
          "name": "url",
          "type": "bytes32"
        },
        {
          "name": "pkey",
          "type": "string"
        },
        {
          "name": "rate",
          "type": "uint256"
        }
      ],
      "name": "register",
      "outputs": [
        {
          "name": "",
          "type": "uint8"
        }
      ],
      "payable": false,
      "stateMutability": "nonpayable",
      "type": "function"
    },
    {
      "constant": false,
      "inputs": [
        {
          "name": "quote",
          "type": "string"
        }
      ],
      "name": "login",
      "outputs": [
        {
          "name": "",
          "type": "uint8"
        }
      ],
      "payable": false,
      "stateMutability": "nonpayable",
      "type": "function"
    },
    {
      "constant": false,
      "inputs": [],
      "name": "logout",
      "outputs": [
        {
          "name": "",
          "type": "uint8"
        }
      ],
      "payable": false,
      "stateMutability": "nonpayable",
      "type": "function"
    },
    {
      "constant": false,
      "inputs": [
        {
          "name": "rate",
          "type": "uint256"
        }
      ],
      "name": "updateRate",
      "outputs": [
        {
          "name": "",
          "type": "uint8"
        }
      ],
      "payable": false,
      "stateMutability": "nonpayable",
      "type": "function"
    },
    {
      "constant": false,
      "inputs": [
        {
          "name": "amount",
          "type": "uint256"
        }
      ],
      "name": "withdraw",
      "outputs": [
        {
          "name": "",
          "type": "uint8"
        }
      ],
      "payable": false,
      "stateMutability": "nonpayable",
      "type": "function"
    },
    {
      "constant": false,
      "inputs": [
        {
          "name": "secretContract",
          "type": "address"
        },
        {
          "name": "callable",
          "type": "bytes32"
        },
        {
          "name": "callableArgs",
          "type": "bytes32[]"
        },
        {
          "name": "callback",
          "type": "bytes32"
        },
        {
          "name": "preprocessors",
          "type": "bytes32[]"
        }
      ],
      "name": "compute",
      "outputs": [
        {
          "name": "",
          "type": "uint8"
        }
      ],
      "payable": true,
      "stateMutability": "payable",
      "type": "function"
    },
    {
      "constant": false,
      "inputs": [
        {
          "name": "secretContract",
          "type": "address"
        },
        {
          "name": "taskId",
          "type": "uint256"
        },
        {
          "name": "proof",
          "type": "bytes32"
        }
      ],
      "name": "solveTask",
      "outputs": [
        {
          "name": "",
          "type": "uint8"
        }
      ],
      "payable": false,
      "stateMutability": "nonpayable",
      "type": "function"
    }
  ],
  "bytecode": "0x608060405234801561001057600080fd5b5061209c806100206000396000f3006080604052600436106100a4576000357c0100000000000000000000000000000000000000000000000000000000900463ffffffff1680630a2bbf6c146100a95780631f3c99c3146101165780632e1a7d4d1461014f5780633a7d280c1461019e5780634048a2571461022957806369ea1771146103755780637149d2e4146103c45780638a56e5541461046e578063b9b5bec9146104eb578063fb2476fd1461058e575b600080fd5b3480156100b557600080fd5b506100d460048036038101908080359060200190929190505050610688565b604051808273ffffffffffffffffffffffffffffffffffffffff1673ffffffffffffffffffffffffffffffffffffffff16815260200191505060405180910390f35b34801561012257600080fd5b5061012b6106c6565b6040518082600181111561013b57fe5b60ff16815260200191505060405180910390f35b34801561015b57600080fd5b5061017a60048036038101908080359060200190929190505050610965565b6040518082600181111561018a57fe5b60ff16815260200191505060405180910390f35b3480156101aa57600080fd5b50610205600480360381019080803590602001908201803590602001908080601f0160208091040260200160405190810160405280939291908181526020018383808284378201915050505050509192919290505050610c85565b6040518082600181111561021557fe5b60ff16815260200191505060405180910390f35b34801561023557600080fd5b5061026a600480360381019080803573ffffffffffffffffffffffffffffffffffffffff169060200190929190505050610f7e565b6040518087600019166000191681526020018060200180602001868152602001858152602001848152602001838103835288818151815260200191508051906020019080838360005b838110156102ce5780820151818401526020810190506102b3565b50505050905090810190601f1680156102fb5780820380516001836020036101000a031916815260200191505b50838103825287818151815260200191508051906020019080838360005b83811015610334578082015181840152602081019050610319565b50505050905090810190601f1680156103615780820380516001836020036101000a031916815260200191505b509850505050505050505060405180910390f35b34801561038157600080fd5b506103a0600480360381019080803590602001909291905050506110ea565b604051808260018111156103b057fe5b60ff16815260200191505060405180910390f35b3480156103d057600080fd5b5061040f600480360381019080803573ffffffffffffffffffffffffffffffffffffffff16906020019092919080359060200190929190505050611393565b604051808581526020018473ffffffffffffffffffffffffffffffffffffffff1673ffffffffffffffffffffffffffffffffffffffff168152602001836000191660001916815260200182815260200194505050505060405180910390f35b34801561047a57600080fd5b506104c7600480360381019080803573ffffffffffffffffffffffffffffffffffffffff1690602001909291908035906020019092919080356000191690602001909291905050506113ff565b604051808260018111156104d757fe5b60ff16815260200191505060405180910390f35b3480156104f757600080fd5b5061056a6004803603810190808035600019169060200190929190803590602001908201803590602001908080601f01602080910402602001604051908101604052809392919081815260200183838082843782019150505050505091929192908035906020019092919050505061192c565b6040518082600181111561057a57fe5b60ff16815260200191505060405180910390f35b610664600480360381019080803573ffffffffffffffffffffffffffffffffffffffff169060200190929190803560001916906020019092919080359060200190820180359060200190808060200260200160405190810160405280939291908181526020018383602002808284378201915050505050509192919290803560001916906020019092919080359060200190820180359060200190808060200260200160405190810160405280939291908181526020018383602002808284378201915050505050509192919290505050611c0a565b6040518082600181111561067457fe5b60ff16815260200191505060405180910390f35b60008181548110151561069757fe5b906000526020600020016000915054906101000a900473ffffffffffffffffffffffffffffffffffffffff1681565b6000336106d1611f01565b600160008373ffffffffffffffffffffffffffffffffffffffff1673ffffffffffffffffffffffffffffffffffffffff16815260200190815260200160002060c06040519081016040529081600082015460001916600019168152602001600182018054600181600116156101000203166002900480601f0160208091040260200160405190810160405280929190818152602001828054600181600116156101000203166002900480156107c75780601f1061079c576101008083540402835291602001916107c7565b820191906000526020600020905b8154815290600101906020018083116107aa57829003601f168201915b50505050508152602001600282018054600181600116156101000203166002900480601f0160208091040260200160405190810160405280929190818152602001828054600181600116156101000203166002900480156108695780601f1061083e57610100808354040283529160200191610869565b820191906000526020600020905b81548152906001019060200180831161084c57829003601f168201915b505050505081526020016003820154815260200160048201548152602001600582015481525050905060008160a001511115156108a557600080fd5b60018060003373ffffffffffffffffffffffffffffffffffffffff1673ffffffffffffffffffffffffffffffffffffffff168152602001908152602001600020600501819055507f142855c2ec5b59c44b6edd425942f19ba27545104b30ca9ee3e92c5d5135bf60336001604051808373ffffffffffffffffffffffffffffffffffffffff1673ffffffffffffffffffffffffffffffffffffffff168152602001821515151581526020019250505060405180910390a160009250505090565b60008033610971611f01565b600160008373ffffffffffffffffffffffffffffffffffffffff1673ffffffffffffffffffffffffffffffffffffffff16815260200190815260200160002060c06040519081016040529081600082015460001916600019168152602001600182018054600181600116156101000203166002900480601f016020809104026020016040519081016040528092919081815260200182805460018160011615610100020316600290048015610a675780601f10610a3c57610100808354040283529160200191610a67565b820191906000526020600020905b815481529060010190602001808311610a4a57829003601f168201915b50505050508152602001600282018054600181600116156101000203166002900480601f016020809104026020016040519081016040528092919081815260200182805460018160011615610100020316600290048015610b095780601f10610ade57610100808354040283529160200191610b09565b820191906000526020600020905b815481529060010190602001808311610aec57829003601f168201915b505050505081526020016003820154815260200160048201548152602001600582015481525050905060008160a00151111515610b4557600080fd5b600160003373ffffffffffffffffffffffffffffffffffffffff1673ffffffffffffffffffffffffffffffffffffffff1681526020019081526020016000209250848360030154111515610b9857600080fd5b610ba6836003015486611e46565b83600301819055503373ffffffffffffffffffffffffffffffffffffffff166108fc869081150290604051600060405180830381858888f19350505050158015610bf4573d6000803e3d6000fd5b507fb97e775637eca8401af330efee0810af7079bafae27761741e09caa14db8d272338685600301546001604051808573ffffffffffffffffffffffffffffffffffffffff1673ffffffffffffffffffffffffffffffffffffffff1681526020018481526020018381526020018215151515815260200194505050505060405180910390a160009350505050919050565b600033610c90611f01565b600160008373ffffffffffffffffffffffffffffffffffffffff1673ffffffffffffffffffffffffffffffffffffffff16815260200190815260200160002060c06040519081016040529081600082015460001916600019168152602001600182018054600181600116156101000203166002900480601f016020809104026020016040519081016040528092919081815260200182805460018160011615610100020316600290048015610d865780601f10610d5b57610100808354040283529160200191610d86565b820191906000526020600020905b815481529060010190602001808311610d6957829003601f168201915b50505050508152602001600282018054600181600116156101000203166002900480601f016020809104026020016040519081016040528092919081815260200182805460018160011615610100020316600290048015610e285780601f10610dfd57610100808354040283529160200191610e28565b820191906000526020600020905b815481529060010190602001808311610e0b57829003601f168201915b505050505081526020016003820154815260200160048201548152602001600582015481525050905060008160a00151111515610e6457600080fd5b83600160003373ffffffffffffffffffffffffffffffffffffffff1673ffffffffffffffffffffffffffffffffffffffff1681526020019081526020016000206002019080519060200190610eba929190611f3b565b506002600160003373ffffffffffffffffffffffffffffffffffffffff1673ffffffffffffffffffffffffffffffffffffffff168152602001908152602001600020600501819055507f03e1d4e63d34d520cfb840a5e43f426c5ca64a50a8569bc40ee9d8a688567b49336001604051808373ffffffffffffffffffffffffffffffffffffffff1673ffffffffffffffffffffffffffffffffffffffff168152602001821515151581526020019250505060405180910390a1600092505050919050565b6001602052806000526040600020600091509050806000015490806001018054600181600116156101000203166002900480601f0160208091040260200160405190810160405280929190818152602001828054600181600116156101000203166002900480156110305780601f1061100557610100808354040283529160200191611030565b820191906000526020600020905b81548152906001019060200180831161101357829003601f168201915b505050505090806002018054600181600116156101000203166002900480601f0160208091040260200160405190810160405280929190818152602001828054600181600116156101000203166002900480156110ce5780601f106110a3576101008083540402835291602001916110ce565b820191906000526020600020905b8154815290600101906020018083116110b157829003601f168201915b5050505050908060030154908060040154908060050154905086565b6000336110f5611f01565b600160008373ffffffffffffffffffffffffffffffffffffffff1673ffffffffffffffffffffffffffffffffffffffff16815260200190815260200160002060c06040519081016040529081600082015460001916600019168152602001600182018054600181600116156101000203166002900480601f0160208091040260200160405190810160405280929190818152602001828054600181600116156101000203166002900480156111eb5780601f106111c0576101008083540402835291602001916111eb565b820191906000526020600020905b8154815290600101906020018083116111ce57829003601f168201915b50505050508152602001600282018054600181600116156101000203166002900480601f01602080910402602001604051908101604052809291908181526020018280546001816001161561010002031660029004801561128d5780601f106112625761010080835404028352916020019161128d565b820191906000526020600020905b81548152906001019060200180831161127057829003601f168201915b505050505081526020016003820154815260200160048201548152602001600582015481525050905060008160a001511115156112c957600080fd5b83600160003373ffffffffffffffffffffffffffffffffffffffff1673ffffffffffffffffffffffffffffffffffffffff168152602001908152602001600020600401819055507f19359d2f6b502eb32089e4e6ea2cb9e909793f252bcc6cdc1b5b54aeff348dde33856001604051808473ffffffffffffffffffffffffffffffffffffffff1673ffffffffffffffffffffffffffffffffffffffff16815260200183815260200182151515158152602001935050505060405180910390a1600092505050919050565b6002602052816000526040600020818154811015156113ae57fe5b9060005260206000209060040201600091509150508060000154908060010160009054906101000a900473ffffffffffffffffffffffffffffffffffffffff16908060020154908060030154905084565b60008060003361140d611f01565b600160008373ffffffffffffffffffffffffffffffffffffffff1673ffffffffffffffffffffffffffffffffffffffff16815260200190815260200160002060c06040519081016040529081600082015460001916600019168152602001600182018054600181600116156101000203166002900480601f0160208091040260200160405190810160405280929190818152602001828054600181600116156101000203166002900480156115035780601f106114d857610100808354040283529160200191611503565b820191906000526020600020905b8154815290600101906020018083116114e657829003601f168201915b50505050508152602001600282018054600181600116156101000203166002900480601f0160208091040260200160405190810160405280929190818152602001828054600181600116156101000203166002900480156115a55780601f1061157a576101008083540402835291602001916115a5565b820191906000526020600020905b81548152906001019060200180831161158857829003601f168201915b505050505081526020016003820154815260200160048201548152602001600582015481525050905060008160a001511115156115e157600080fd5b600073ffffffffffffffffffffffffffffffffffffffff16600260008a73ffffffffffffffffffffffffffffffffffffffff1673ffffffffffffffffffffffffffffffffffffffff1681526020019081526020016000208881548110151561164557fe5b906000526020600020906004020160010160009054906101000a900473ffffffffffffffffffffffffffffffffffffffff1673ffffffffffffffffffffffffffffffffffffffff1614151561169957600080fd5b600260008973ffffffffffffffffffffffffffffffffffffffff1673ffffffffffffffffffffffffffffffffffffffff168152602001908152602001600020878154811015156116e557fe5b906000526020600020906004020160030154935060008411151561170857600080fd5b33600260008a73ffffffffffffffffffffffffffffffffffffffff1673ffffffffffffffffffffffffffffffffffffffff1681526020019081526020016000208881548110151561175557fe5b906000526020600020906004020160010160006101000a81548173ffffffffffffffffffffffffffffffffffffffff021916908373ffffffffffffffffffffffffffffffffffffffff16021790555085600260008a73ffffffffffffffffffffffffffffffffffffffff1673ffffffffffffffffffffffffffffffffffffffff168152602001908152602001600020888154811015156117f157fe5b90600052602060002090600402016002018160001916905550600160003373ffffffffffffffffffffffffffffffffffffffff1673ffffffffffffffffffffffffffffffffffffffff1681526020019081526020016000209250611859836003015485611e5f565b83600301819055507fa62aa8778d262744a8ae146c7ab51ab46a86e7febad7f1a9c716cb48ccabc0ae883388876001604051808673ffffffffffffffffffffffffffffffffffffffff1673ffffffffffffffffffffffffffffffffffffffff1681526020018573ffffffffffffffffffffffffffffffffffffffff1673ffffffffffffffffffffffffffffffffffffffff1681526020018460001916600019168152602001838152602001821515151581526020019550505050505060405180910390a160009450505050509392505050565b6000803390806001815401808255809150509060018203906000526020600020016000909192909190916101000a81548173ffffffffffffffffffffffffffffffffffffffff021916908373ffffffffffffffffffffffffffffffffffffffff1602179055505083600160003373ffffffffffffffffffffffffffffffffffffffff1673ffffffffffffffffffffffffffffffffffffffff168152602001908152602001600020600001816000191690555082600160003373ffffffffffffffffffffffffffffffffffffffff1673ffffffffffffffffffffffffffffffffffffffff1681526020019081526020016000206001019080519060200190611a34929190611f3b565b5034600160003373ffffffffffffffffffffffffffffffffffffffff1673ffffffffffffffffffffffffffffffffffffffff1681526020019081526020016000206003018190555081600160003373ffffffffffffffffffffffffffffffffffffffff1673ffffffffffffffffffffffffffffffffffffffff1681526020019081526020016000206004018190555060018060003373ffffffffffffffffffffffffffffffffffffffff1673ffffffffffffffffffffffffffffffffffffffff168152602001908152602001600020600501819055507f4527be0497bf10d120751a0c87145af830f14ba9925a0746c5eb2edabb4dc8448433858560016040518086600019166000191681526020018573ffffffffffffffffffffffffffffffffffffffff1673ffffffffffffffffffffffffffffffffffffffff1681526020018060200184815260200183151515158152602001828103825285818151815260200191508051906020019080838360005b83811015611bc1578082015181840152602081019050611ba6565b50505050905090810190601f168015611bee5780820380516001836020036101000a031916815260200191505b50965050505050505060405180910390a1600090509392505050565b600080600260008873ffffffffffffffffffffffffffffffffffffffff1673ffffffffffffffffffffffffffffffffffffffff168152602001908152602001600020805490509050600260008873ffffffffffffffffffffffffffffffffffffffff1673ffffffffffffffffffffffffffffffffffffffff1681526020019081526020016000208054809190600101611ca39190611fbb565b5034600260008973ffffffffffffffffffffffffffffffffffffffff1673ffffffffffffffffffffffffffffffffffffffff16815260200190815260200160002082815481101515611cf157fe5b9060005260206000209060040201600301819055507fad2dd4e05af46b5cc4ebfe6c5efa0c24db15a2adb66a7a9507525613f572baca878288888834896001604051808973ffffffffffffffffffffffffffffffffffffffff1673ffffffffffffffffffffffffffffffffffffffff16815260200188815260200187600019166000191681526020018060200186600019166000191681526020018581526020018060200184151515158152602001838103835288818151815260200191508051906020019060200280838360005b83811015611ddb578082015181840152602081019050611dc0565b50505050905001838103825285818151815260200191508051906020019060200280838360005b83811015611e1d578082015181840152602081019050611e02565b505050509050019a505050505050505050505060405180910390a1600091505095945050505050565b6000611e5483831115611e89565b818303905092915050565b6000808284019050611e7f848210158015611e7a5750838210155b611e89565b8091505092915050565b801515611efe576040517f08c379a00000000000000000000000000000000000000000000000000000000081526004018080602001828103825260128152602001807f496e76616c696420617373657274696f6e2e000000000000000000000000000081525060200191505060405180910390fd5b50565b60c0604051908101604052806000801916815260200160608152602001606081526020016000815260200160008152602001600081525090565b828054600181600116156101000203166002900490600052602060002090601f016020900481019282601f10611f7c57805160ff1916838001178555611faa565b82800160010185558215611faa579182015b82811115611fa9578251825591602001919060010190611f8e565b5b509050611fb79190611fed565b5090565b815481835581811115611fe857600402816004028360005260206000209182019101611fe79190612012565b5b505050565b61200f91905b8082111561200b576000816000905550600101611ff3565b5090565b90565b61206d91905b80821115612069576000808201600090556001820160006101000a81549073ffffffffffffffffffffffffffffffffffffffff02191690556002820160009055600382016000905550600401612018565b5090565b905600a165627a7a72305820bdfc0224c3e33176305bb5f7e2c3e93540cea8800b7a18ddc9bc922322d84db80029",
  "source": "pragma solidity ^0.4.22;\n\ncontract SafeMath {\n    function safeMul(uint a, uint b) internal pure returns (uint) {\n        uint c = a * b;\n        assert(a == 0 || c / a == b);\n        return c;\n    }\n\n    function safeSub(uint a, uint b) internal pure returns (uint) {\n        assert(b <= a);\n        return a - b;\n    }\n\n    function safeAdd(uint a, uint b) internal pure returns (uint) {\n        uint c = a + b;\n        assert(c >= a && c >= b);\n        return c;\n    }\n\n    function assert(bool assertion) internal pure {\n        require(assertion, \"Invalid assertion.\");\n    }\n}\n\ncontract Enigma is SafeMath {\n    struct Task {\n        uint taskId;\n        address worker;\n        bytes32 proof;\n        uint reward;\n    }\n\n    struct Worker {\n        bytes32 url;\n        string pkey;\n        string quote;\n        uint balance;\n        uint rate; // TODO: we don't want this\n        uint status; // Uninitialized: 0; Inactive:1; Active: 2\n    }\n\n    address[] public workerIndex;\n    mapping(address => Worker) public workers;\n    mapping(address => Task[]) public tasks;\n\n    event Register(bytes32 url, address user, string pkey, uint rate, bool _success);\n    event Login(address user, bool _success);\n    event Logout(address user, bool _success);\n    event UpdateRate(address user, uint rate, bool _success);\n    event Deposit(address secretContract, address user, uint amount, uint balance, bool _success);\n    event Withdraw(address user, uint amount, uint balance, bool _success);\n    event SolveTask(address secretContract, address worker, bytes32 proof, uint reward, bool _success);\n\n    // Enigma computation task\n    event ComputeTask(address callingContract, uint taskId, bytes32 callable, bytes32[] callableArgs, bytes32 callback, uint fee, bytes32[] preprocessors, bool _success);\n\n    enum ReturnValue {Ok, Error}\n\n//    function Enigma() public {\n//\n//    }\n\n    modifier workerRegistered(address user) {\n        Worker memory worker = workers[user];\n        require(worker.status > 0);\n        _;\n    }\n\n    function register(bytes32 url, string pkey, uint rate)\n    public\n    returns (ReturnValue) {\n        // Register a new worker and deposit stake\n        // require(workers[msg.sender].status == 0, \"Worker already register.\");\n\n        workerIndex.push(msg.sender);\n\n        workers[msg.sender].url = url;\n        workers[msg.sender].pkey = pkey;\n        workers[msg.sender].balance = msg.value;\n        workers[msg.sender].rate = rate;\n        workers[msg.sender].status = 1;\n\n        emit Register(url, msg.sender, pkey, rate, true);\n\n        return ReturnValue.Ok;\n    }\n\n    //TODO: we don't want this\n    function login(string quote)\n    public\n    workerRegistered(msg.sender)\n    returns (ReturnValue) {\n        // The worker is ready to receive tasks\n\n        // TODO: validate quote signature here\n        workers[msg.sender].quote = quote;\n        workers[msg.sender].status = 2;\n\n        emit Login(msg.sender, true);\n\n        return ReturnValue.Ok;\n    }\n\n    //TODO: we don't want this\n    function logout()\n    public\n    workerRegistered(msg.sender)\n    returns (ReturnValue) {\n        // A worker stops accepting tasks\n        workers[msg.sender].status = 1;\n\n        emit Logout(msg.sender, true);\n\n        return ReturnValue.Ok;\n    }\n\n    //TODO: we don't want this\n    function updateRate(uint rate)\n    public\n    workerRegistered(msg.sender)\n    returns (ReturnValue) {\n        // Update the ENG/GAS rate\n        workers[msg.sender].rate = rate;\n\n        emit UpdateRate(msg.sender, rate, true);\n\n        return ReturnValue.Ok;\n    }\n\n    //TODO: we don't want this\n    function withdraw(uint amount)\n    public\n    workerRegistered(msg.sender)\n    returns (ReturnValue) {\n        // Withdraw from stake and rewards balance\n        Worker storage worker = workers[msg.sender];\n        require(worker.balance > amount);\n\n        worker.balance = safeSub(worker.balance, amount);\n        msg.sender.transfer(amount);\n\n        emit Withdraw(msg.sender, amount, worker.balance, true);\n\n        return ReturnValue.Ok;\n    }\n\n    function compute(address secretContract, bytes32 callable, bytes32[] callableArgs, bytes32 callback, bytes32[] preprocessors)\n    public\n    payable\n    returns (ReturnValue) {\n        // Each task invoked by a contract has a sequential id\n        uint taskId = tasks[secretContract].length;\n        tasks[secretContract].length++;\n        tasks[secretContract][taskId].reward = msg.value;\n\n        // Emit the ComputeTask event which each node is watching for\n        emit ComputeTask(secretContract, taskId, callable, callableArgs, callback, msg.value, preprocessors, true);\n\n        return ReturnValue.Ok;\n    }\n\n    // TODO: how big is a proof?\n    function solveTask(address secretContract, uint taskId, bytes32 proof)\n    public\n    workerRegistered(msg.sender)\n    returns (ReturnValue) {\n        // Task must be solved only once\n        require(tasks[secretContract][taskId].worker == address(0));\n\n        // The contract must hold enough fund to distribute reward\n        // TODO: validate that the reward matches the opcodes computed\n        uint reward = tasks[secretContract][taskId].reward;\n        require(reward > 0);\n\n        // Keep a trace of the task worker and proof\n        tasks[secretContract][taskId].worker = msg.sender;\n        tasks[secretContract][taskId].proof = proof;\n\n        // Put the reward in the worker's bank\n        // He can withdraw later\n        Worker storage worker = workers[msg.sender];\n        worker.balance = safeAdd(worker.balance, reward);\n\n        emit SolveTask(secretContract, msg.sender, proof, reward, true);\n\n        return ReturnValue.Ok;\n    }\n}\n",
  "sourcePath": "/Users/fredfortier/Code/enigma/coin-mixer-poc/dapp/contracts/Enigma.sol",
  "compiler": {
    "name": "solc",
    "version": "0.4.23+commit.124ca40d.Emscripten.clang"
  },
  "schemaVersion": "2.0.0",
  "updatedAt": "2018-04-22T04:58:21.466Z"
}