{
  "contractName": "Enigma",
  "abi": [
    {
      "constant": true,
      "inputs": [
        {
          "name": "",
          "type": "uint256"
        }
      ],
      "name": "workerAddresses",
      "outputs": [
        {
          "name": "",
          "type": "address"
        }
      ],
      "payable": false,
      "stateMutability": "view",
      "type": "function",
      "signature": "0x0a318da0"
    },
    {
      "constant": true,
      "inputs": [
        {
          "name": "",
          "type": "address"
        }
      ],
      "name": "workers",
      "outputs": [
        {
          "name": "signer",
          "type": "address"
        },
        {
          "name": "status",
          "type": "uint8"
        },
        {
          "name": "report",
          "type": "bytes"
        },
        {
          "name": "balance",
          "type": "uint256"
        }
      ],
      "payable": false,
      "stateMutability": "view",
      "type": "function",
      "signature": "0x4048a257"
    },
    {
      "constant": true,
      "inputs": [
        {
          "name": "",
          "type": "address"
        },
        {
          "name": "",
          "type": "uint256"
        }
      ],
      "name": "stateDeltaHashes",
      "outputs": [
        {
          "name": "",
          "type": "bytes32"
        }
      ],
      "payable": false,
      "stateMutability": "view",
      "type": "function",
      "signature": "0x64a4c0c6"
    },
    {
      "constant": true,
      "inputs": [],
      "name": "engToken",
      "outputs": [
        {
          "name": "",
          "type": "address"
        }
      ],
      "payable": false,
      "stateMutability": "view",
      "type": "function",
      "signature": "0x9489ad40"
    },
    {
      "constant": true,
      "inputs": [
        {
          "name": "",
          "type": "bytes32"
        }
      ],
      "name": "tasks",
      "outputs": [
        {
          "name": "fee",
          "type": "uint256"
        },
        {
          "name": "token",
          "type": "address"
        },
        {
          "name": "tokenValue",
          "type": "uint256"
        },
        {
          "name": "proof",
          "type": "bytes"
        },
        {
          "name": "sender",
          "type": "address"
        },
        {
          "name": "status",
          "type": "uint8"
        }
      ],
      "payable": false,
      "stateMutability": "view",
      "type": "function",
      "signature": "0xe579f500"
    },
    {
      "inputs": [
        {
          "name": "_tokenAddress",
          "type": "address"
        },
        {
          "name": "_principal",
          "type": "address"
        }
      ],
      "payable": false,
      "stateMutability": "nonpayable",
      "type": "constructor",
      "signature": "constructor"
    },
    {
      "anonymous": false,
      "inputs": [
        {
          "indexed": false,
          "name": "custodian",
          "type": "address"
        },
        {
          "indexed": false,
          "name": "signer",
          "type": "address"
        }
      ],
      "name": "Registered",
      "type": "event",
      "signature": "0x0a31ee9d46a828884b81003c8498156ea6aa15b9b54bdd0ef0b533d9eba57e55"
    },
    {
      "anonymous": false,
      "inputs": [
        {
          "indexed": false,
          "name": "sig",
          "type": "bytes"
        },
        {
          "indexed": false,
          "name": "hash",
          "type": "bytes32"
        },
        {
          "indexed": false,
          "name": "workerAddr",
          "type": "address"
        }
      ],
      "name": "ValidatedSig",
      "type": "event",
      "signature": "0xe36691ca52ee024e298e5c0ff07191b87f0ac571c01a7631db2d70d573d955cb"
    },
    {
      "anonymous": false,
      "inputs": [
        {
          "indexed": false,
          "name": "seed",
          "type": "uint256"
        },
        {
          "indexed": false,
          "name": "blockNumber",
          "type": "uint256"
        },
        {
          "indexed": false,
          "name": "workers",
          "type": "address[]"
        },
        {
          "indexed": false,
          "name": "balances",
          "type": "uint256[]"
        }
      ],
      "name": "WorkersParameterized",
      "type": "event",
      "signature": "0x7047379c64ccafb62f6625e6b2d8eb6e1b0e091fac56a11ab5e2fd896e4db1d0"
    },
    {
      "anonymous": false,
      "inputs": [
        {
          "indexed": false,
          "name": "taskId",
          "type": "bytes32"
        },
        {
          "indexed": false,
          "name": "fee",
          "type": "uint256"
        },
        {
          "indexed": false,
          "name": "token",
          "type": "address"
        },
        {
          "indexed": false,
          "name": "tokenValue",
          "type": "uint256"
        },
        {
          "indexed": false,
          "name": "sender",
          "type": "address"
        }
      ],
      "name": "TaskRecordCreated",
      "type": "event",
      "signature": "0x51364a5a527e38841b15c974f7924dad755bc9ce0d29701d7501a7bd297b787b"
    },
    {
      "anonymous": false,
      "inputs": [
        {
          "indexed": false,
          "name": "taskIds",
          "type": "bytes32[]"
        },
        {
          "indexed": false,
          "name": "fees",
          "type": "uint256[]"
        },
        {
          "indexed": false,
          "name": "tokens",
          "type": "address[]"
        },
        {
          "indexed": false,
          "name": "tokenValues",
          "type": "uint256[]"
        },
        {
          "indexed": false,
          "name": "sender",
          "type": "address"
        }
      ],
      "name": "TaskRecordsCreated",
      "type": "event",
      "signature": "0xcb8afab3437be2f96ef2a2932eb02d02fd765bfe8be7c1f5a58edd6452317dde"
    },
    {
      "anonymous": false,
      "inputs": [
        {
          "indexed": false,
          "name": "taskId",
          "type": "bytes32"
        },
        {
          "indexed": false,
          "name": "inStateDeltaHash",
          "type": "bytes32"
        },
        {
          "indexed": false,
          "name": "outStateDeltaHash",
          "type": "bytes32"
        },
        {
          "indexed": false,
          "name": "ethCall",
          "type": "bytes"
        },
        {
          "indexed": false,
          "name": "sig",
          "type": "bytes"
        }
      ],
      "name": "ReceiptVerified",
      "type": "event",
      "signature": "0x665329bb9a4e1062edc215d9c5ab57fa54c4c88e3dfbcc68e0cd92fdd010fa6e"
    },
    {
      "anonymous": false,
      "inputs": [
        {
          "indexed": false,
          "name": "taskIds",
          "type": "bytes32[]"
        },
        {
          "indexed": false,
          "name": "inStateDeltaHashes",
          "type": "bytes32[]"
        },
        {
          "indexed": false,
          "name": "outStateDeltaHashes",
          "type": "bytes32[]"
        },
        {
          "indexed": false,
          "name": "ethCalls",
          "type": "bytes[]"
        },
        {
          "indexed": false,
          "name": "sigs",
          "type": "bytes[]"
        }
      ],
      "name": "ReceiptsVerified",
      "type": "event",
      "signature": "0x7243cbab94fa1d25e0cb54fdd36b41f803ff5e5a29aaae09979a888b156b5872"
    },
    {
      "constant": false,
      "inputs": [
        {
          "name": "signer",
          "type": "address"
        },
        {
          "name": "report",
          "type": "bytes"
        }
      ],
      "name": "register",
      "outputs": [],
      "payable": true,
      "stateMutability": "payable",
      "type": "function",
      "signature": "0x24b8fbf6"
    },
    {
      "constant": false,
      "inputs": [
        {
          "name": "taskId",
          "type": "bytes32"
        },
        {
          "name": "fee",
          "type": "uint256"
        },
        {
          "name": "token",
          "type": "address"
        },
        {
          "name": "tokenValue",
          "type": "uint256"
        }
      ],
      "name": "createTaskRecord",
      "outputs": [],
      "payable": false,
      "stateMutability": "nonpayable",
      "type": "function",
      "signature": "0xd28cf5c1"
    },
    {
      "constant": false,
      "inputs": [
        {
          "name": "taskIds",
          "type": "bytes32[]"
        },
        {
          "name": "fees",
          "type": "uint256[]"
        },
        {
          "name": "tokens",
          "type": "address[]"
        },
        {
          "name": "tokenValues",
          "type": "uint256[]"
        }
      ],
      "name": "createTaskRecords",
      "outputs": [],
      "payable": false,
      "stateMutability": "nonpayable",
      "type": "function",
      "signature": "0xa85d84ef"
    },
    {
      "constant": false,
      "inputs": [
        {
          "name": "scAddr",
          "type": "address"
        },
        {
          "name": "taskId",
          "type": "bytes32"
        },
        {
          "name": "inStateDeltaHash",
          "type": "bytes32"
        },
        {
          "name": "outStateDeltaHash",
          "type": "bytes32"
        },
        {
          "name": "ethCall",
          "type": "bytes"
        },
        {
          "name": "sig",
          "type": "bytes"
        }
      ],
      "name": "commitReceipt",
      "outputs": [],
      "payable": false,
      "stateMutability": "nonpayable",
      "type": "function",
      "signature": "0x5956efef"
    },
    {
      "constant": false,
      "inputs": [
        {
          "name": "scAddr",
          "type": "address"
        },
        {
          "name": "taskIds",
          "type": "bytes32[]"
        },
        {
          "name": "inStateDeltaHashes",
          "type": "bytes32[]"
        },
        {
          "name": "outStateDeltaHashes",
          "type": "bytes32[]"
        },
        {
          "name": "ethCalls",
          "type": "bytes[]"
        },
        {
          "name": "sigs",
          "type": "bytes[]"
        }
      ],
      "name": "commitReceipts",
      "outputs": [],
      "payable": false,
      "stateMutability": "nonpayable",
      "type": "function",
      "signature": "0xd245f478"
    },
    {
      "constant": false,
      "inputs": [
        {
          "name": "seed",
          "type": "uint256"
        },
        {
          "name": "sig",
          "type": "bytes"
        }
      ],
      "name": "setWorkersParams",
      "outputs": [],
      "payable": false,
      "stateMutability": "nonpayable",
      "type": "function",
      "signature": "0x2873e73c"
    },
    {
      "constant": true,
      "inputs": [
        {
          "name": "blockNumber",
          "type": "uint256"
        }
      ],
      "name": "getWorkerParams",
      "outputs": [
        {
          "name": "",
          "type": "uint256"
        },
        {
          "name": "",
          "type": "uint256"
        },
        {
          "name": "",
          "type": "address[]"
        },
        {
          "name": "",
          "type": "uint256[]"
        }
      ],
      "payable": false,
      "stateMutability": "view",
      "type": "function",
      "signature": "0x9836ca31"
    },
    {
      "constant": false,
      "inputs": [
        {
          "name": "blockNumber",
          "type": "uint256"
        },
        {
          "name": "scAddr",
          "type": "address"
        }
      ],
      "name": "getSelectedWorkers",
      "outputs": [],
      "payable": false,
      "stateMutability": "nonpayable",
      "type": "function",
      "signature": "0x00fa774e"
    },
    {
      "constant": true,
      "inputs": [
        {
          "name": "blockNumber",
          "type": "uint256"
        }
      ],
      "name": "getWorkersParams",
      "outputs": [
        {
          "name": "",
          "type": "uint256"
        },
        {
          "name": "",
          "type": "uint256"
        },
        {
          "name": "",
          "type": "address[]"
        },
        {
          "name": "",
          "type": "address[]"
        }
      ],
      "payable": false,
      "stateMutability": "view",
      "type": "function",
      "signature": "0x59c91a12"
    },
    {
      "constant": true,
      "inputs": [
        {
          "name": "custodian",
          "type": "address"
        }
      ],
      "name": "getReport",
      "outputs": [
        {
          "name": "",
          "type": "address"
        },
        {
          "name": "",
          "type": "bytes"
        }
      ],
      "payable": false,
      "stateMutability": "view",
      "type": "function",
      "signature": "0xa3bdae3e"
    }
  ],
  "bytecode": "0x60806040526000601a553480156200001657600080fd5b506040516040806200313183398101806040526200003891908101906200007f565b60008054600160a060020a03938416600160a060020a03199182161790915560018054929093169116179055620000ca565b6000620000788251620000be565b9392505050565b600080604083850312156200009357600080fd5b6000620000a185856200006a565b9250506020620000b4858286016200006a565b9150509250929050565b600160a060020a031690565b61305780620000da6000396000f3006080604052600436106100d95763ffffffff7c0100000000000000000000000000000000000000000000000000000000600035041662fa774e81146100de5780630a318da01461010057806324b8fbf6146101365780632873e73c146101495780634048a257146101695780635956efef1461019957806359c91a12146101b957806364a4c0c6146101e95780639489ad40146102165780639836ca3114610238578063a3bdae3e14610268578063a85d84ef14610296578063d245f478146102b6578063d28cf5c1146102d6578063e579f500146102f6575b600080fd5b3480156100ea57600080fd5b506100fe6100f936600461265e565b610328565b005b34801561010c57600080fd5b5061012061011b3660046125eb565b61063d565b60405161012d9190612b29565b60405180910390f35b6100fe6101443660046124a9565b610665565b34801561015557600080fd5b506100fe61016436600461268e565b61079a565b34801561017557600080fd5b506101896101843660046122da565b610bab565b60405161012d9493929190612b72565b3480156101a557600080fd5b506100fe6101b43660046123ff565b610c6f565b3480156101c557600080fd5b506101d96101d43660046125eb565b610e7a565b60405161012d9493929190612e50565b3480156101f557600080fd5b506102096102043660046124fb565b610e87565b60405161012d9190612c89565b34801561022257600080fd5b5061022b610eb7565b60405161012d9190612d5c565b34801561024457600080fd5b506102586102533660046125eb565b610ec6565b60405161012d9493929190612e91565b34801561027457600080fd5b506102886102833660046122da565b610ff1565b60405161012d929190612b52565b3480156102a257600080fd5b506100fe6102b136600461252b565b611202565b3480156102c257600080fd5b506100fe6102d1366004612300565b611478565b3480156102e257600080fd5b506100fe6102f1366004612609565b61177f565b34801561030257600080fd5b506103166103113660046125eb565b61186d565b60405161012d96959493929190612dfa565b60006060610334611f97565b6060600080600080600080600061034a8d611947565b9a506103558b6119ef565b995060028b6005811061036457fe5b600402016080604051908101604052908160008201548152602001600182018054806020026020016040519081016040528092919081815260200182805480156103d757602002820191906000526020600020905b8154600160a060020a031681526001909101906020018083116103b9575b505050505081526020016002820180548060200260200160405190810160405280929190818152602001828054801561042f57602002820191906000526020600020905b81548152602001906001019080831161041b575b50505091835250506003919091015460209182015260408051600a8082526101608201909252929b50908201610140803883390190505097505b875187101561062e575b600095508589606001518e8e6040516020018085815260200184815260200183815260200182600160a060020a0316600160a060020a03166c010000000000000000000000000281526014019450505050506040516020818303038152906040526040518082805190602001908083835b602083106105035780518252601f1990920191602091820191016104e4565b6001836020036101000a038019825116818451168082178552505050505050905001915050604051809103902094508951856001900481151561054257fe5b069350898481518110151561055357fe5b906020019060200201519250600091505b87518110156105af57878181518110151561057b57fe5b90602001906020020151600160a060020a031683600160a060020a031614156105a757600191506105af565b600101610564565b8115156105e1578288888151811015156105c557fe5b600160a060020a039092166020928302909101909101526105f5565b6105f286600163ffffffff611c6c16565b95505b878781518110151561060357fe5b90602001906020020151600160a060020a03166000141561062357610473565b600190960195610469565b50505050505050505050505050565b601680548290811061064b57fe5b600091825260209091200154600160a060020a0316905081565b33600090815260176020526040812054600160a060020a031615156106d95750601680549081906106999060018301611fc0565b50336016828154811015156106aa57fe5b9060005260206000200160006101000a815481600160a060020a030219169083600160a060020a031602179055505b336000908152601760209081526040909120805473ffffffffffffffffffffffffffffffffffffffff1916600160a060020a038616178155346002820155835161072b92600190920191850190611fe9565b503360008181526017602052604090819020805474ff0000000000000000000000000000000000000000191660a060020a179055517f0a31ee9d46a828884b81003c8498156ea6aa15b9b54bdd0ef0b533d9eba57e559161078d918690612b37565b60405180910390a1505050565b6060600080600080336107ab612067565b600160a060020a0382811660009081526017602090815260409182902082516080810184528154948516815260a060020a90940460ff1684830152600180820180548551600261010094831615949094026000190190911692909204601f810185900485028301850186528083529294860193919290918301828280156108735780601f1061084857610100808354040283529160200191610873565b820191906000526020600020905b81548152906001019060200180831161085657829003601f168201915b5050505050815260200160028201548152505090506000816020015160ff161115156108bd5760405160e560020a62461bcd0281526004016108b490612d6a565b60405180910390fd5b60015433600090815260176020526040902054600160a060020a039081169116146108fd5760405160e560020a62461bcd0281526004016108b490612dba565b60009550600094505b6005851015610968576002856005811061091c57fe5b6004020154151561092f57849550610968565b6002866005811061093c57fe5b60040201546002866005811061094e57fe5b6004020154101561095d578495505b600190940193610906565b436002876005811061097657fe5b6004020155886002876005811061098957fe5b600402016003018190555060009350600092505b601654831015610b3b57601a54601760006016868154811015156109bd57fe5b6000918252602080832090910154600160a060020a031683528201929092526040019020600201541115610b3057600286600581106109f857fe5b600402016001018054809190600101610a119190611fc0565b506016805484908110610a2057fe5b600091825260209091200154600160a060020a031660028760058110610a4257fe5b6004020160010185815481101515610a5657fe5b6000918252602090912001805473ffffffffffffffffffffffffffffffffffffffff1916600160a060020a039290921691909117905560028660058110610a9957fe5b600402016002018054809190600101610ab29190611fc0565b5060176000601685815481101515610ac657fe5b6000918252602080832090910154600160a060020a031683528201929092526040019020600290810154908760058110610afc57fe5b6004020160020185815481101515610b1057fe5b600091825260209091200155610b2d84600163ffffffff611c6c16565b93505b60019092019161099d565b7f7047379c64ccafb62f6625e6b2d8eb6e1b0e091fac56a11ab5e2fd896e4db1d0894360028960058110610b6b57fe5b6004020160010160028a600581101515610b8157fe5b60040201600201604051610b989493929190612ed2565b60405180910390a1505050505050505050565b6017602090815260009182526040918290208054600180830180548651600261010094831615949094026000190190911692909204601f8101869004860283018601909652858252600160a060020a0383169560a060020a90930460ff169491929091830182828015610c5f5780601f10610c3457610100808354040283529160200191610c5f565b820191906000526020600020905b815481529060010190602001808311610c4257829003601f168201915b5050505050908060020154905084565b33610c78612067565b600160a060020a0382811660009081526017602090815260409182902082516080810184528154948516815260a060020a90940460ff1684830152600180820180548551600261010094831615949094026000190190911692909204601f81018590048502830185018652808352929486019391929091830182828015610d405780601f10610d1557610100808354040283529160200191610d40565b820191906000526020600020905b815481529060010190602001808311610d2357829003601f168201915b5050505050815260200160028201548152505090506000816020015160ff16111515610d815760405160e560020a62461bcd0281526004016108b490612d6a565b6000808881526018602052604090206004015460a060020a900460ff166001811115610da957fe5b14610dc95760405160e560020a62461bcd0281526004016108b490612d7a565b610dd7888888888888611c7f565b60008781526018602090815260409091208451610dfc92600390920191860190611fe9565b5060008781526018602052604090819020600401805474ff0000000000000000000000000000000000000000191660a060020a179055517f665329bb9a4e1062edc215d9c5ab57fa54c4c88e3dfbcc68e0cd92fdd010fa6e90610e689089908990899089908990612c97565b60405180910390a15050505050505050565b6000806060809193509193565b601960205281600052604060002081815481101515610ea257fe5b90600052602060002001600091509150505481565b600054600160a060020a031681565b6000806060806000610ed6611f97565b610edf87611947565b915060028260058110610eee57fe5b60040201608060405190810160405290816000820154815260200160018201805480602002602001604051908101604052809291908181526020018280548015610f6157602002820191906000526020600020905b8154600160a060020a03168152600190910190602001808311610f43575b5050505050815260200160028201805480602002602001604051908101604052809291908181526020018280548015610fb957602002820191906000526020600020905b815481526020019060010190808311610fa5575b5050509183525050600391909101546020918201528151606083015191830151604090930151909a9199509197509095509350505050565b6000606082610ffe612067565b600160a060020a0382811660009081526017602090815260409182902082516080810184528154948516815260a060020a90940460ff1684830152600180820180548551600261010094831615949094026000190190911692909204601f810185900485028301850186528083529294860193919290918301828280156110c65780601f1061109b576101008083540402835291602001916110c6565b820191906000526020600020905b8154815290600101906020018083116110a957829003601f168201915b5050505050815260200160028201548152505090506000816020015160ff161115156111075760405160e560020a62461bcd0281526004016108b490612d6a565b600160a060020a038086166000908152601760205260409020541615156111435760405160e560020a62461bcd0281526004016108b490612daa565b600160a060020a038581166000908152601760209081526040918290208054600191820180548551600261010095831615959095026000190190911693909304601f81018590048502840185019095528483529416939290918391908301828280156111f05780601f106111c5576101008083540402835291602001916111f0565b820191906000526020600020905b8154815290600101906020018083116111d357829003601f168201915b50505050509050935093505050915091565b60005b84518110156114325760186000868381518110151561122057fe5b6020908102909101810151825281019190915260400160002060040154600160a060020a0316156112665760405160e560020a62461bcd0281526004016108b490612dca565b838181518110151561127457fe5b9060200190602002015160186000878481518110151561129057fe5b602090810290910181015182528101919091526040016000205582518390829081106112b857fe5b906020019060200201516018600087848151811015156112d457fe5b6020908102919091018101518252810191909152604001600020600101805473ffffffffffffffffffffffffffffffffffffffff1916600160a060020a0392909216919091179055815182908290811061132a57fe5b9060200190602002015160186000878481518110151561134657fe5b9060200190602002015160001916600019168152602001908152602001600020600201819055503360186000878481518110151561138057fe5b60209081029190910181015182528101919091526040016000908120600401805473ffffffffffffffffffffffffffffffffffffffff1916600160a060020a039390931692909217909155855160189082908890859081106113de57fe5b60209081029091018101518252810191909152604001600020600401805474ff0000000000000000000000000000000000000000191660a060020a83600181111561142557fe5b0217905550600101611205565b7fcb8afab3437be2f96ef2a2932eb02d02fd765bfe8be7c1f5a58edd6452317dde8585858533604051611469959493929190612c23565b60405180910390a15050505050565b600033611483612067565b600160a060020a0382811660009081526017602090815260409182902082516080810184528154948516815260a060020a90940460ff1684830152600180820180548551600261010094831615949094026000190190911692909204601f8101859004850283018501865280835292948601939192909183018282801561154b5780601f106115205761010080835404028352916020019161154b565b820191906000526020600020905b81548152906001019060200180831161152e57829003601f168201915b5050505050815260200160028201548152505090506000816020015160ff1611151561158c5760405160e560020a62461bcd0281526004016108b490612d6a565b600092505b8751831015611748576000601860008a868151811015156115ae57fe5b602090810290910181015182528101919091526040016000206004015460ff60a060020a9091041660018111156115e157fe5b146116015760405160e560020a62461bcd0281526004016108b490612d7a565b61168289898581518110151561161357fe5b90602001906020020151898681518110151561162b57fe5b90602001906020020151898781518110151561164357fe5b90602001906020020151898881518110151561165b57fe5b90602001906020020151898981518110151561167357fe5b90602001906020020151611c7f565b838381518110151561169057fe5b90602001906020020151601860008a868151811015156116ac57fe5b602090810290910181015182528181019290925260400160002082516116dc936003909201929190910190611fe9565b506001601860008a868151811015156116f157fe5b60209081029091018101518252810191909152604001600020600401805474ff0000000000000000000000000000000000000000191660a060020a83600181111561173857fe5b0217905550600190920191611591565b7f7243cbab94fa1d25e0cb54fdd36b41f803ff5e5a29aaae09979a888b156b58728888888888604051610b98959493929190612bb7565b600084815260186020526040902060040154600160a060020a0316156117ba5760405160e560020a62461bcd0281526004016108b490612dca565b60008481526018602052604090819020848155600181018054600160a060020a03861673ffffffffffffffffffffffffffffffffffffffff199182161790915560028201849055600490910180549091163390811774ff0000000000000000000000000000000000000000191690915590517f51364a5a527e38841b15c974f7924dad755bc9ce0d29701d7501a7bd297b787b9161185f918791879187918791612ce5565b60405180910390a150505050565b601860209081526000918252604091829020805460018083015460028085015460038601805489516101009682161596909602600019011692909204601f81018890048802850188019098528784529396600160a060020a03909216959394939091908301828280156119215780601f106118f657610100808354040283529160200191611921565b820191906000526020600020905b81548152906001019060200180831161190457829003601f168201915b50505060049093015491925050600160a060020a0381169060ff60a060020a9091041686565b6000600019815b60058110156119bc57836002826005811061196557fe5b6004020154118015906119ab57508160000b60001914806119ab57506002600083900b6005811061199257fe5b6004020154600282600581106119a457fe5b6004020154115b156119b4578091505b60010161194e565b600019600083900b14156119e55760405160e560020a62461bcd0281526004016108b490612dea565b5060000b92915050565b60606119f9611f97565b600080606081808060028960058110611a0e57fe5b60040201608060405190810160405290816000820154815260200160018201805480602002602001604051908101604052809291908181526020018280548015611a8157602002820191906000526020600020905b8154600160a060020a03168152600190910190602001808311611a63575b5050505050815260200160028201805480602002602001604051908101604052809291908181526020018280548015611ad957602002820191906000526020600020905b815481526020019060010190808311611ac5575b50505050508152602001600382015481525050965060009550600094505b866020015151851015611b67576020870151805186908110611b1557fe5b60209081029091010151600160a060020a031615611b5c57611b59876040015186815181101515611b4257fe5b60209081029091010151879063ffffffff611c6c16565b95505b600190940193611af7565b85604051908082528060200260200182016040528015611b91578160200160208202803883390190505b50935060009250600091505b866020015151821015611c5f576020870151805183908110611bbb57fe5b60209081029091010151600160a060020a031615611c54575060005b6040870151805183908110611be857fe5b90602001906020020151811015611c54576020870151805183908110611c0a57fe5b906020019060200201518484815181101515611c2257fe5b600160a060020a03909216602092830290910190910152611c4a83600163ffffffff611c6c16565b9250600101611bd7565b600190910190611b9d565b5091979650505050505050565b81810182811015611c7957fe5b92915050565b600160a060020a0386166000908152601960205260408120549080821515611cc7578615611cc25760405160e560020a62461bcd0281526004016108b490612d9a565b611d27565b600160a060020a0389166000908152601960205260409020611cf084600163ffffffff611ec316565b81548110611cfa57fe5b6000918252602090912001548714611d275760405160e560020a62461bcd0281526004016108b490612d8a565b600160a060020a0389166000908152601960205260409020805490611d4f9060018301611fc0565b50600160a060020a0389166000908152601960205260409020805487919085908110611d7757fe5b60009182526020918290200191909155604080518083018b81529181018a90526060810189905287518b938b938b938b939192608090910191908401908083835b60208310611dd75780518252601f199092019160209182019101611db8565b6001836020036101000a0380198251168184511680821785525050505050509050019450505050506040516020818303038152906040526040518082805190602001908083835b60208310611e3d5780518252601f199092019160209182019101611e1e565b5181516020939093036101000a600019018019909116921691909117905260405192018290039091209450611e789250849150869050611ed5565b33600090815260176020526040902054909150600160a060020a03808316911614611eb85760405160e560020a62461bcd0281526004016108b490612dda565b505050505050505050565b600082821115611ecf57fe5b50900390565b60008060008084516041141515611eef5760009350611f8e565b50505060208201516040830151606084015160001a601b60ff82161015611f1457601b015b8060ff16601b14158015611f2c57508060ff16601c14155b15611f3a5760009350611f8e565b60018682858560405160008152602001604052604051611f5d9493929190612d27565b60206040516020810390808403906000865af1158015611f81573d6000803e3d6000fd5b5050506020604051035193505b50505092915050565b608060405190810160405280600081526020016060815260200160608152602001600081525090565b815481835581811115611fe457600083815260209020611fe491810190830161209c565b505050565b828054600181600116156101000203166002900490600052602060002090601f016020900481019282601f1061202a57805160ff1916838001178555612057565b82800160010185558215612057579182015b8281111561205757825182559160200191906001019061203c565b5061206392915061209c565b5090565b6080604051908101604052806000600160a060020a03168152602001600060ff16815260200160608152602001600081525090565b6120b691905b8082111561206357600081556001016120a2565b90565b60006120c58235612fa3565b9392505050565b6000601f820183136120dd57600080fd5b81356120f06120eb82612f3a565b612f13565b9150818183526020840193506020810190508385602084028201111561211557600080fd5b60005b83811015612141578161212b88826120b9565b8452506020928301929190910190600101612118565b5050505092915050565b6000601f8201831361215c57600080fd5b813561216a6120eb82612f3a565b9150818183526020840193506020810190508385602084028201111561218f57600080fd5b60005b8381101561214157816121a58882612288565b8452506020928301929190910190600101612192565b6000601f820183136121cc57600080fd5b81356121da6120eb82612f3a565b81815260209384019390925082018360005b8381101561214157813586016122028882612294565b84525060209283019291909101906001016121ec565b6000601f8201831361222957600080fd5b81356122376120eb82612f3a565b9150818183526020840193506020810190508385602084028201111561225c57600080fd5b60005b8381101561214157816122728882612288565b845250602092830192919091019060010161225f565b60006120c582356120b6565b6000601f820183136122a557600080fd5b81356122b36120eb82612f5b565b915080825260208301602083018583830111156122cf57600080fd5b611f8e838284612fd7565b6000602082840312156122ec57600080fd5b60006122f884846120b9565b949350505050565b60008060008060008060c0878903121561231957600080fd5b600061232589896120b9565b965050602087013567ffffffffffffffff81111561234257600080fd5b61234e89828a0161214b565b955050604087013567ffffffffffffffff81111561236b57600080fd5b61237789828a0161214b565b945050606087013567ffffffffffffffff81111561239457600080fd5b6123a089828a0161214b565b935050608087013567ffffffffffffffff8111156123bd57600080fd5b6123c989828a016121bb565b92505060a087013567ffffffffffffffff8111156123e657600080fd5b6123f289828a016121bb565b9150509295509295509295565b60008060008060008060c0878903121561241857600080fd5b600061242489896120b9565b965050602061243589828a01612288565b955050604061244689828a01612288565b945050606061245789828a01612288565b935050608087013567ffffffffffffffff81111561247457600080fd5b61248089828a01612294565b92505060a087013567ffffffffffffffff81111561249d57600080fd5b6123f289828a01612294565b600080604083850312156124bc57600080fd5b60006124c885856120b9565b925050602083013567ffffffffffffffff8111156124e557600080fd5b6124f185828601612294565b9150509250929050565b6000806040838503121561250e57600080fd5b600061251a85856120b9565b92505060206124f185828601612288565b6000806000806080858703121561254157600080fd5b843567ffffffffffffffff81111561255857600080fd5b6125648782880161214b565b945050602085013567ffffffffffffffff81111561258157600080fd5b61258d87828801612218565b935050604085013567ffffffffffffffff8111156125aa57600080fd5b6125b6878288016120cc565b925050606085013567ffffffffffffffff8111156125d357600080fd5b6125df87828801612218565b91505092959194509250565b6000602082840312156125fd57600080fd5b60006122f88484612288565b6000806000806080858703121561261f57600080fd5b600061262b8787612288565b945050602061263c87828801612288565b935050604061264d878288016120b9565b92505060606125df87828801612288565b6000806040838503121561267157600080fd5b600061267d8585612288565b92505060206124f1858286016120b9565b600080604083850312156126a157600080fd5b60006124c88585612288565b6126b681612fa3565b82525050565b60006126c782612f95565b8084526020840193506126d983612f83565b60005b82811015612709576126ef8683516126ad565b6126f882612f83565b6020969096019591506001016126dc565b5093949350505050565b600061271e82612f99565b80845260208401935061273083612f89565b60005b82811015612709576127468683546126ad565b61274f82612f9d565b602096909601959150600101612733565b600061276b82612f95565b80845260208401935061277d83612f83565b60005b82811015612709576127938683516128ae565b61279c82612f83565b602096909601959150600101612780565b60006127b882612f95565b808452602084019350836020820285016127d185612f83565b60005b848110156128085783830388526127ec8383516128b7565b92506127f782612f83565b6020989098019791506001016127d4565b50909695505050505050565b600061281f82612f95565b80845260208401935061283183612f83565b60005b82811015612709576128478683516128ae565b61285082612f83565b602096909601959150600101612834565b600061286c82612f99565b80845260208401935061287e83612f89565b60005b82811015612709576128948683546128ae565b61289d82612f9d565b602096909601959150600101612881565b6126b6816120b6565b60006128c282612f95565b8084526128d6816020860160208601612fe3565b6128df81613013565b9093016020019392505050565b6126b681612fc1565b6126b681612fcc565b601481527f556e7265676973746572656420776f726b65722e000000000000000000000000602082015260400190565b601381527f496e76616c6964207461736b2073746174757300000000000000000000000000602082015260400190565b601e81527f496e76616c696420696e7075742073746174652064656c746120686173680000602082015260400190565b602e81527f496e76616c696420696e7075742073746174652064656c74612068617368206660208201527f6f7220656d707479207374617465000000000000000000000000000000000000604082015260600190565b601581527f576f726b6572206e6f7420726567697374657265640000000000000000000000602082015260400190565b602681527f4f6e6c7920746865205072696e636970616c2063616e2075706461746520746860208201527f6520736565640000000000000000000000000000000000000000000000000000604082015260600190565b601381527f5461736b20616c72656164792065786973742e00000000000000000000000000602082015260400190565b601281527f496e76616c6964207369676e61747572652e0000000000000000000000000000602082015260400190565b603681527f4e6f20776f726b65727320706172616d657465727320656e74727920666f722060208201527f73706563696669656420626c6f636b206e756d62657200000000000000000000604082015260600190565b6126b681612fbb565b60208101611c7982846126ad565b60408101612b4582856126ad565b6120c560208301846126ad565b60408101612b6082856126ad565b81810360208301526122f881846128b7565b60808101612b8082876126ad565b612b8d6020830186612b20565b8181036040830152612b9f81856128b7565b9050612bae60608301846128ae565b95945050505050565b60a08082528101612bc88188612760565b90508181036020830152612bdc8187612760565b90508181036040830152612bf08186612760565b90508181036060830152612c0481856127ad565b90508181036080830152612c1881846127ad565b979650505050505050565b60a08082528101612c348188612760565b90508181036020830152612c488187612814565b90508181036040830152612c5c81866126bc565b90508181036060830152612c708185612814565b9050612c7f60808301846126ad565b9695505050505050565b60208101611c7982846128ae565b60a08101612ca582886128ae565b612cb260208301876128ae565b612cbf60408301866128ae565b8181036060830152612cd181856128b7565b90508181036080830152612c1881846128b7565b60a08101612cf382886128ae565b612d0060208301876128ae565b612d0d60408301866126ad565b612d1a60608301856128ae565b612c7f60808301846126ad565b60808101612d3582876128ae565b612d426020830186612b20565b612d4f60408301856128ae565b612bae60608301846128ae565b60208101611c7982846128ec565b60208082528101611c79816128fe565b60208082528101611c798161292e565b60208082528101611c798161295e565b60208082528101611c798161298e565b60208082528101611c79816129e4565b60208082528101611c7981612a14565b60208082528101611c7981612a6a565b60208082528101611c7981612a9a565b60208082528101611c7981612aca565b60c08101612e0882896128ae565b612e1560208301886126ad565b612e2260408301876128ae565b8181036060830152612e3481866128b7565b9050612e4360808301856126ad565b612c1860a08301846128f5565b60808101612e5e82876128ae565b612e6b60208301866128ae565b8181036040830152612e7d81856126bc565b90508181036060830152612c7f81846126bc565b60808101612e9f82876128ae565b612eac60208301866128ae565b8181036040830152612ebe81856126bc565b90508181036060830152612c7f8184612814565b60808101612ee082876128ae565b612eed60208301866128ae565b8181036040830152612eff8185612713565b90508181036060830152612c7f8184612861565b60405181810167ffffffffffffffff81118282101715612f3257600080fd5b604052919050565b600067ffffffffffffffff821115612f5157600080fd5b5060209081020190565b600067ffffffffffffffff821115612f7257600080fd5b506020601f91909101601f19160190565b60200190565b60009081526020902090565b5190565b5490565b60010190565b600160a060020a031690565b60006002821061206357fe5b60ff1690565b6000611c7982612fa3565b6000611c7982612faf565b82818337506000910152565b60005b83811015612ffe578181015183820152602001612fe6565b8381111561300d576000848401525b50505050565b601f01601f1916905600a265627a7a7230582014b0584c5d93a78e2e8f53e7bdf707b4d9752c1776a43f78e5f5b7001ae00eb36c6578706572696d656e74616cf50037",
  "source": "pragma solidity ^0.4.24;\npragma experimental ABIEncoderV2;\n\nimport \"openzeppelin-solidity/contracts/math/SafeMath.sol\";\nimport \"openzeppelin-solidity/contracts/ECRecovery.sol\";\nimport \"openzeppelin-solidity/contracts/token/ERC20/StandardToken.sol\";\nimport \"./EnigmaToken.sol\";\n\n\ncontract Enigma {\n    using SafeMath for uint256;\n    using ECRecovery for bytes32;\n\n    // The interface of the deployed ENG ERC20 token contract\n    EnigmaToken public engToken;\n\n    struct TaskRecord {\n        bytes32 taskId;\n        uint fee;\n        address token;\n        uint tokenValue;\n        address sender;\n    }\n\n    struct TaskReceipt {\n        bytes32 taskId;\n        bytes32 inStateDeltaHash;\n        bytes32 outStateDeltaHash;\n        bytes ethCall;\n        bytes sig;\n    }\n\n    struct Task {\n        uint fee;\n        address token;\n        uint tokenValue;\n        bytes proof; // Signature of (taskId, inStateDeltaHash, outStateDeltaHash, ethCall)\n        address sender;\n        TaskStatus status;\n    }\n    enum TaskStatus {RecordCreated, ReceiptVerified}\n\n    /**\n    * The signer address of the principal node\n    * This must be set when deploying the contract and remains immutable\n    * Since the signer address is derived from the public key of an\n    * SGX enclave, this ensures that the principal node cannot be tempered\n    * with or replaced.\n    */\n    address principal;\n\n    // The data representation of a worker (or node)\n    struct Worker {\n        address signer;\n        uint8 status; // Uninitialized: 0; Active: 1; Inactive: 2\n        bytes report; // Decided to store this as one  RLP encoded attribute for easier external storage in the future\n        uint256 balance;\n    }\n\n    /**\n    * The data representation of the worker parameters used as input for\n    * the worker selection algorithm\n    */\n    struct WorkersParams {\n        uint firstBlockNumber;\n        address[] workers;\n        uint[] balances;\n        uint seed;\n    }\n\n    /**\n    * The last 5 worker parameters\n    * We keep a collection of worker parameters to account for latency issues.\n    * A computation task might be conceivably given out at a certain block number\n    * but executed at a later block in a different epoch. It follows that\n    * the contract must have access to the worker parameters effective when giving\n    * out the task, otherwise the selected worker would not match. We calculated\n    * that keeping the last 5 items should be more than enough to account for\n    * all latent tasks. Tasks results will be rejected past this limit.\n    */\n    WorkersParams[5] workersParams;\n\n    // An address-based index of all registered worker\n    address[] public workerAddresses;\n\n    // A registry of all registered workers with their attributes\n    mapping(address => Worker) public workers;\n    // A registry of all active and historical tasks with their attributes\n    // TODO: do we keep tasks forever? if not, when do we delete them?\n    mapping(bytes32 => Task) public tasks;\n    mapping(address => bytes32[]) public stateDeltaHashes;\n    uint stakingThreshold = 0;\n\n    // The events emitted by the contract\n    event Registered(address custodian, address signer);\n    event ValidatedSig(bytes sig, bytes32 hash, address workerAddr);\n    event WorkersParameterized(uint seed, uint256 blockNumber, address[] workers, uint[] balances);\n    event TaskRecordCreated(bytes32 taskId, uint fee, address token, uint tokenValue, address sender);\n    event TaskRecordsCreated(bytes32[] taskIds, uint[] fees, address[] tokens, uint[] tokenValues, address sender);\n    event ReceiptVerified(bytes32 taskId, bytes32 inStateDeltaHash, bytes32 outStateDeltaHash, bytes ethCall, bytes sig);\n    event ReceiptsVerified(bytes32[] taskIds, bytes32[] inStateDeltaHashes, bytes32[] outStateDeltaHashes, bytes[] ethCalls, bytes[] sigs);\n\n    constructor(address _tokenAddress, address _principal) public {\n        engToken = EnigmaToken(_tokenAddress);\n        principal = _principal;\n    }\n\n    /**\n    * Checks if the custodian wallet is registered as a worker\n    *\n    * @param user The custodian address of the worker\n    */\n    modifier workerRegistered(address user) {\n        Worker memory worker = workers[user];\n        require(worker.status > 0, \"Unregistered worker.\");\n        _;\n    }\n\n    /**\n    * Registers a new worker of change the signer parameters of an existing\n    * worker. This should be called by every worker (and the principal)\n    * node in order to receive tasks.\n    *\n    * @param signer The signer address, derived from the enclave public key\n    * @param report The RLP encoded report returned by the IAS\n    */\n    function register(address signer, bytes report)\n    public\n    payable\n    {\n        // TODO: consider exit if both signer and custodian as matching\n        // If the custodian is not already register, we add an index entry\n        if (workers[msg.sender].signer == 0x0) {\n            uint index = workerAddresses.length;\n            workerAddresses.length++;\n            workerAddresses[index] = msg.sender;\n        }\n\n        // Set the custodian attributes\n        workers[msg.sender].signer = signer;\n        workers[msg.sender].balance = msg.value;\n        workers[msg.sender].report = report;\n        workers[msg.sender].status = 1;\n\n        emit Registered(msg.sender, signer);\n    }\n\n    /**\n    * Store task record\n    *\n    */\n    function createTaskRecord(\n        bytes32 taskId,\n        uint fee,\n        address token,\n        uint tokenValue\n    )\n    public\n    {\n        require(tasks[taskId].sender == 0x0, \"Task already exist.\");\n\n        tasks[taskId].fee = fee;\n        tasks[taskId].token = token;\n        tasks[taskId].tokenValue = tokenValue;\n        tasks[taskId].sender = msg.sender;\n        tasks[taskId].status = TaskStatus.RecordCreated;\n\n        emit TaskRecordCreated(taskId, fee, token, tokenValue, msg.sender);\n    }\n\n    function createTaskRecords(\n        bytes32[] taskIds,\n        uint[] fees,\n        address[] tokens,\n        uint[] tokenValues\n    )\n    public\n    {\n        for (uint i = 0; i < taskIds.length; i++) {\n            require(tasks[taskIds[i]].sender == 0x0, \"Task already exist.\");\n\n            tasks[taskIds[i]].fee = fees[i];\n            tasks[taskIds[i]].token = tokens[i];\n            tasks[taskIds[i]].tokenValue = tokenValues[i];\n            tasks[taskIds[i]].sender = msg.sender;\n            tasks[taskIds[i]].status = TaskStatus.RecordCreated;\n        }\n        emit TaskRecordsCreated(taskIds, fees, tokens, tokenValues, msg.sender);\n    }\n\n    // Execute the encoded function in the specified contract\n    function executeCall(address to, uint256 value, bytes data)\n    internal\n    returns (bool success)\n    {\n        assembly {\n            success := call(gas, to, value, add(data, 0x20), mload(data), 0, 0)\n        }\n    }\n\n    function verifyReceipt(\n        address scAddr,\n        bytes32 taskId,\n        bytes32 inStateDeltaHash,\n        bytes32 outStateDeltaHash,\n        bytes ethCall,\n        bytes sig\n    )\n    internal\n    {\n        uint index = stateDeltaHashes[scAddr].length;\n        if (index == 0) {\n            require(inStateDeltaHash == 0x0, 'Invalid input state delta hash for empty state');\n        } else {\n            require(inStateDeltaHash == stateDeltaHashes[scAddr][index.sub(1)], 'Invalid input state delta hash');\n        }\n        stateDeltaHashes[scAddr].length++;\n        stateDeltaHashes[scAddr][index] = outStateDeltaHash;\n\n        // TODO: execute the Ethereum calls\n\n        // Build a hash to validate that the I/Os are matching\n        bytes32 hash = keccak256(abi.encodePacked(taskId, inStateDeltaHash, outStateDeltaHash, ethCall));\n\n        // The worker address is not a real Ethereum wallet address but\n        // one generated from its signing key\n        address workerAddr = hash.recover(sig);\n        require(workerAddr == workers[msg.sender].signer, \"Invalid signature.\");\n    }\n\n    /**\n    * Commit the computation task results on chain\n    */\n    function commitReceipt(\n        address scAddr,\n        bytes32 taskId,\n        bytes32 inStateDeltaHash,\n        bytes32 outStateDeltaHash,\n        bytes ethCall,\n        bytes sig\n    )\n    public\n    workerRegistered(msg.sender)\n    {\n        require(tasks[taskId].status == TaskStatus.RecordCreated, 'Invalid task status');\n        verifyReceipt(scAddr, taskId, inStateDeltaHash, outStateDeltaHash, ethCall, sig);\n\n        tasks[taskId].proof = sig;\n        tasks[taskId].status = TaskStatus.ReceiptVerified;\n        emit ReceiptVerified(taskId, inStateDeltaHash, outStateDeltaHash, ethCall, sig);\n    }\n\n    function commitReceipts(\n        address scAddr,\n        bytes32[] taskIds,\n        bytes32[] inStateDeltaHashes,\n        bytes32[] outStateDeltaHashes,\n        bytes[] ethCalls,\n        bytes[] sigs\n    )\n    public\n    workerRegistered(msg.sender)\n    {\n        for (uint i = 0; i < taskIds.length; i++) {\n            // TODO: consider aggregate signature\n            require(tasks[taskIds[i]].status == TaskStatus.RecordCreated, 'Invalid task status');\n            verifyReceipt(scAddr, taskIds[i], inStateDeltaHashes[i], outStateDeltaHashes[i], ethCalls[i], sigs[i]);\n\n            tasks[taskIds[i]].proof = sigs[i];\n            tasks[taskIds[i]].status = TaskStatus.ReceiptVerified;\n        }\n        emit ReceiptsVerified(taskIds, inStateDeltaHashes, outStateDeltaHashes, ethCalls, sigs);\n    }\n\n    // Verify the signature submitted while reparameterizing workers\n    function verifyParamsSig(uint256 seed, bytes sig)\n    internal\n    pure\n    returns (address)\n    {\n        bytes32 hash = keccak256(abi.encodePacked(seed));\n        address signer = hash.recover(sig);\n        return signer;\n    }\n\n    /**\n    * Reparameterizing workers with a new seed\n    * This should be called for each epoch by the Principal node\n    *\n    * @param seed The random integer generated by the enclave\n    * @param sig The random integer signed by the the principal node's enclave\n    */\n    function setWorkersParams(uint seed, bytes sig)\n    public\n    workerRegistered(msg.sender)\n    {\n        // Reparameterizing workers with a new seed\n        // This should be called for each epoch by the Principal node\n\n        // We assume that the Principal is always the first registered node\n        require(workers[msg.sender].signer == principal, \"Only the Principal can update the seed\");\n        // TODO: verify the principal sig\n\n        address[] memory activeWorkers;\n\n        // Create a new workers parameters item for the specified seed.\n        // The workers parameters list is a sort of cache, it never grows beyond its limit.\n        // If the list is full, the new item will replace the item assigned to the lowest block number.\n        uint paramIndex = 0;\n        for (uint pi = 0; pi < workersParams.length; pi++) {\n            // Find an empty slot in the array, if full use the lowest block number\n            if (workersParams[pi].firstBlockNumber == 0) {\n                paramIndex = pi;\n                break;\n            } else if (workersParams[pi].firstBlockNumber < workersParams[paramIndex].firstBlockNumber) {\n                paramIndex = pi;\n            }\n        }\n        workersParams[paramIndex].firstBlockNumber = block.number;\n        workersParams[paramIndex].seed = seed;\n\n        // Copy the current worker list\n        uint workerIndex = 0;\n        for (uint wi = 0; wi < workerAddresses.length; wi++) {\n            if (workers[workerAddresses[wi]].balance > stakingThreshold) {\n                workersParams[paramIndex].workers.length++;\n                workersParams[paramIndex].workers[workerIndex] = workerAddresses[wi];\n\n                workersParams[paramIndex].balances.length++;\n                workersParams[paramIndex].balances[workerIndex] = workers[workerAddresses[wi]].balance;\n\n                workerIndex = workerIndex.add(1);\n            }\n        }\n        emit WorkersParameterized(seed, block.number, workersParams[paramIndex].workers, workersParams[paramIndex].balances);\n    }\n\n    function getWorkerParamsIndex(uint blockNumber)\n    internal\n    returns (uint)\n    {\n        // The workers parameters for a given block number\n        int8 index = - 1;\n        for (uint i = 0; i < workersParams.length; i++) {\n            if (workersParams[i].firstBlockNumber <= blockNumber && (index == - 1 || workersParams[i].firstBlockNumber > workersParams[uint(index)].firstBlockNumber)) {\n                index = int8(i);\n            }\n        }\n        require(index != - 1, \"No workers parameters entry for specified block number\");\n        return uint(index);\n    }\n\n    function getWorkerParams(uint blockNumber)\n    public\n    view\n    returns (uint, uint, address[], uint[]) {\n        uint index = getWorkerParamsIndex(blockNumber);\n        WorkersParams memory params = workersParams[index];\n        return (params.firstBlockNumber, params.seed, params.workers, params.balances);\n    }\n\n    function compileTokens(uint paramIndex)\n    internal\n    returns (address[])\n    {\n        WorkersParams memory params = workersParams[paramIndex];\n        uint tokenCpt = 0;\n        for (uint i = 0; i < params.workers.length; i++) {\n            if (params.workers[i] != 0x0) {\n                tokenCpt = tokenCpt.add(params.balances[i]);\n            }\n        }\n        address[] memory tokens = new address[](tokenCpt);\n        uint tokenIndex = 0;\n        for (uint ia = 0; ia < params.workers.length; ia++) {\n            if (params.workers[ia] != 0x0) {\n                for (uint ib = 0; ib < params.balances[ia]; ib++) {\n                    tokens[tokenIndex] = params.workers[ia];\n                    tokenIndex = tokenIndex.add(1);\n                }\n            }\n        }\n        return tokens;\n    }\n\n    function getSelectedWorkers(uint blockNumber, address scAddr)\n    public\n    {\n        // Compile a list of selected workers for the block number and\n        // secret contract.\n        uint paramIndex = getWorkerParamsIndex(blockNumber);\n        address[] memory tokens = compileTokens(paramIndex);\n        WorkersParams memory params = workersParams[paramIndex];\n\n        address[] memory selectedWorkers = new address[](10);\n        for (uint it; it < selectedWorkers.length; it++) {\n            do {\n                uint nonce = 0;\n                bytes32 hash = keccak256(abi.encodePacked(nonce, params.seed, blockNumber, scAddr));\n                uint index = uint256(hash) % tokens.length;\n                address worker = tokens[index];\n                bool dup = false;\n                for (uint id; id < selectedWorkers.length; id++) {\n                    if (worker == selectedWorkers[id]) {\n                        dup = true;\n                        break;\n                    }\n                }\n                if (dup == false) {\n                    selectedWorkers[it] = worker;\n                } else {\n                    nonce = nonce.add(1);\n                }\n            }\n            while (selectedWorkers[it] == 0x0);\n        }\n    }\n\n    /**\n    * The worker parameters corresponding to the specified block number\n    *\n    * @param blockNumber The reference block number\n    */\n    function getWorkersParams(uint blockNumber)\n    public\n    view\n    returns (uint, uint, address[], address[])\n    {\n        uint firstBlockNumber = 0;\n        uint seed = 0;\n        address[] memory activeWorkers;\n        address[] memory activeContracts;\n        return (firstBlockNumber, seed, activeWorkers, activeContracts);\n    }\n\n    /**\n    * The RLP encoded report returned by the IAS server\n    *\n    * @param custodian The worker's custodian address\n    */\n    function getReport(address custodian)\n    public\n    view\n    workerRegistered(custodian)\n    returns (address, bytes)\n    {\n        // The RLP encoded report and signer's address for the specified worker\n        require(workers[custodian].signer != 0x0, \"Worker not registered\");\n        return (workers[custodian].signer, workers[custodian].report);\n    }\n}\n",
  "sourcePath": "/home/fredfortier/Code/Enigma/discovery/enigma-contract/contracts/Enigma.sol",
  "compiler": {
    "name": "solc",
    "version": "0.4.24+commit.e67f0147.Emscripten.clang"
  },
  "schemaVersion": "2.0.0",
  "updatedAt": "2018-10-04T22:39:59.618Z"
}