{
  "contractName": "Enigma",
  "abi": [
    {
      "constant": true,
      "inputs": [
        {
          "name": "",
          "type": "uint256"
        }
      ],
      "name": "workerAddresses",
      "outputs": [
        {
          "name": "",
          "type": "address"
        }
      ],
      "payable": false,
      "stateMutability": "view",
      "type": "function",
      "signature": "0x0a318da0"
    },
    {
      "constant": true,
      "inputs": [
        {
          "name": "",
          "type": "address"
        }
      ],
      "name": "workers",
      "outputs": [
        {
          "name": "signer",
          "type": "address"
        },
        {
          "name": "status",
          "type": "uint8"
        },
        {
          "name": "report",
          "type": "bytes"
        },
        {
          "name": "balance",
          "type": "uint256"
        }
      ],
      "payable": false,
      "stateMutability": "view",
      "type": "function",
      "signature": "0x4048a257"
    },
    {
      "constant": true,
      "inputs": [
        {
          "name": "",
          "type": "uint256"
        }
      ],
      "name": "scAddresses",
      "outputs": [
        {
          "name": "",
          "type": "address"
        }
      ],
      "payable": false,
      "stateMutability": "view",
      "type": "function",
      "signature": "0x5f0dd5bb"
    },
    {
      "constant": true,
      "inputs": [
        {
          "name": "",
          "type": "address"
        }
      ],
      "name": "contracts",
      "outputs": [
        {
          "name": "owner",
          "type": "address"
        },
        {
          "name": "codeHash",
          "type": "bytes32"
        },
        {
          "name": "status",
          "type": "uint8"
        }
      ],
      "payable": false,
      "stateMutability": "view",
      "type": "function",
      "signature": "0x69dc9ff3"
    },
    {
      "constant": true,
      "inputs": [],
      "name": "engToken",
      "outputs": [
        {
          "name": "",
          "type": "address"
        }
      ],
      "payable": false,
      "stateMutability": "view",
      "type": "function",
      "signature": "0x9489ad40"
    },
    {
      "constant": true,
      "inputs": [
        {
          "name": "",
          "type": "bytes32"
        }
      ],
      "name": "tasks",
      "outputs": [
        {
          "name": "fee",
          "type": "uint256"
        },
        {
          "name": "token",
          "type": "address"
        },
        {
          "name": "tokenValue",
          "type": "uint256"
        },
        {
          "name": "proof",
          "type": "bytes"
        },
        {
          "name": "sender",
          "type": "address"
        },
        {
          "name": "status",
          "type": "uint8"
        }
      ],
      "payable": false,
      "stateMutability": "view",
      "type": "function",
      "signature": "0xe579f500"
    },
    {
      "inputs": [
        {
          "name": "_tokenAddress",
          "type": "address"
        },
        {
          "name": "_principal",
          "type": "address"
        }
      ],
      "payable": false,
      "stateMutability": "nonpayable",
      "type": "constructor",
      "signature": "constructor"
    },
    {
      "anonymous": false,
      "inputs": [
        {
          "indexed": false,
          "name": "custodian",
          "type": "address"
        },
        {
          "indexed": false,
          "name": "signer",
          "type": "address"
        }
      ],
      "name": "Registered",
      "type": "event",
      "signature": "0x0a31ee9d46a828884b81003c8498156ea6aa15b9b54bdd0ef0b533d9eba57e55"
    },
    {
      "anonymous": false,
      "inputs": [
        {
          "indexed": false,
          "name": "sig",
          "type": "bytes"
        },
        {
          "indexed": false,
          "name": "hash",
          "type": "bytes32"
        },
        {
          "indexed": false,
          "name": "workerAddr",
          "type": "address"
        }
      ],
      "name": "ValidatedSig",
      "type": "event",
      "signature": "0xe36691ca52ee024e298e5c0ff07191b87f0ac571c01a7631db2d70d573d955cb"
    },
    {
      "anonymous": false,
      "inputs": [
        {
          "indexed": false,
          "name": "seed",
          "type": "uint256"
        },
        {
          "indexed": false,
          "name": "blockNumber",
          "type": "uint256"
        },
        {
          "indexed": false,
          "name": "workers",
          "type": "address[]"
        },
        {
          "indexed": false,
          "name": "balances",
          "type": "uint256[]"
        }
      ],
      "name": "WorkersParameterized",
      "type": "event",
      "signature": "0x7047379c64ccafb62f6625e6b2d8eb6e1b0e091fac56a11ab5e2fd896e4db1d0"
    },
    {
      "anonymous": false,
      "inputs": [
        {
          "indexed": false,
          "name": "taskId",
          "type": "bytes32"
        },
        {
          "indexed": false,
          "name": "fee",
          "type": "uint256"
        },
        {
          "indexed": false,
          "name": "token",
          "type": "address"
        },
        {
          "indexed": false,
          "name": "tokenValue",
          "type": "uint256"
        },
        {
          "indexed": false,
          "name": "sender",
          "type": "address"
        }
      ],
      "name": "TaskRecordCreated",
      "type": "event",
      "signature": "0x51364a5a527e38841b15c974f7924dad755bc9ce0d29701d7501a7bd297b787b"
    },
    {
      "anonymous": false,
      "inputs": [
        {
          "indexed": false,
          "name": "taskIds",
          "type": "bytes32[]"
        },
        {
          "indexed": false,
          "name": "fees",
          "type": "uint256[]"
        },
        {
          "indexed": false,
          "name": "tokens",
          "type": "address[]"
        },
        {
          "indexed": false,
          "name": "tokenValues",
          "type": "uint256[]"
        },
        {
          "indexed": false,
          "name": "sender",
          "type": "address"
        }
      ],
      "name": "TaskRecordsCreated",
      "type": "event",
      "signature": "0xcb8afab3437be2f96ef2a2932eb02d02fd765bfe8be7c1f5a58edd6452317dde"
    },
    {
      "anonymous": false,
      "inputs": [
        {
          "indexed": false,
          "name": "taskId",
          "type": "bytes32"
        },
        {
          "indexed": false,
          "name": "inStateDeltaHash",
          "type": "bytes32"
        },
        {
          "indexed": false,
          "name": "outStateDeltaHash",
          "type": "bytes32"
        },
        {
          "indexed": false,
          "name": "ethCall",
          "type": "bytes"
        },
        {
          "indexed": false,
          "name": "sig",
          "type": "bytes"
        }
      ],
      "name": "ReceiptVerified",
      "type": "event",
      "signature": "0x665329bb9a4e1062edc215d9c5ab57fa54c4c88e3dfbcc68e0cd92fdd010fa6e"
    },
    {
      "anonymous": false,
      "inputs": [
        {
          "indexed": false,
          "name": "taskIds",
          "type": "bytes32[]"
        },
        {
          "indexed": false,
          "name": "inStateDeltaHashes",
          "type": "bytes32[]"
        },
        {
          "indexed": false,
          "name": "outStateDeltaHashes",
          "type": "bytes32[]"
        },
        {
          "indexed": false,
          "name": "ethCalls",
          "type": "bytes[]"
        },
        {
          "indexed": false,
          "name": "sigs",
          "type": "bytes[]"
        }
      ],
      "name": "ReceiptsVerified",
      "type": "event",
      "signature": "0x7243cbab94fa1d25e0cb54fdd36b41f803ff5e5a29aaae09979a888b156b5872"
    },
    {
      "anonymous": false,
      "inputs": [
        {
          "indexed": false,
          "name": "from",
          "type": "address"
        },
        {
          "indexed": false,
          "name": "value",
          "type": "uint256"
        }
      ],
      "name": "DepositSuccessful",
      "type": "event",
      "signature": "0xb3ef81558ed1a50072a492984535a009da8b129c749500b387f1e5f4886bdde5"
    },
    {
      "anonymous": false,
      "inputs": [
        {
          "indexed": false,
          "name": "scAddr",
          "type": "address"
        },
        {
          "indexed": false,
          "name": "codeHash",
          "type": "bytes32"
        }
      ],
      "name": "SecretContractDeployed",
      "type": "event",
      "signature": "0xff27b3bb5dfb682b066cdace68b5dda84d03c3d2eadac54284aaec44cbcff516"
    },
    {
      "constant": false,
      "inputs": [
        {
          "name": "signer",
          "type": "address"
        },
        {
          "name": "report",
          "type": "bytes"
        }
      ],
      "name": "register",
      "outputs": [],
      "payable": false,
      "stateMutability": "nonpayable",
      "type": "function",
      "signature": "0x24b8fbf6"
    },
    {
      "constant": false,
      "inputs": [
        {
          "name": "custodian",
          "type": "address"
        },
        {
          "name": "amount",
          "type": "uint256"
        }
      ],
      "name": "deposit",
      "outputs": [],
      "payable": false,
      "stateMutability": "nonpayable",
      "type": "function",
      "signature": "0x47e7ef24"
    },
    {
      "constant": false,
      "inputs": [
        {
          "name": "scAddr",
          "type": "address"
        },
        {
          "name": "codeHash",
          "type": "bytes32"
        },
        {
          "name": "owner",
          "type": "address"
        },
        {
          "name": "sig",
          "type": "bytes"
        }
      ],
      "name": "deploySecretContract",
      "outputs": [],
      "payable": false,
      "stateMutability": "nonpayable",
      "type": "function",
      "signature": "0xd3b524c4"
    },
    {
      "constant": true,
      "inputs": [
        {
          "name": "scAddr",
          "type": "address"
        }
      ],
      "name": "isDeployed",
      "outputs": [
        {
          "name": "",
          "type": "bool"
        }
      ],
      "payable": false,
      "stateMutability": "view",
      "type": "function",
      "signature": "0x90184b02"
    },
    {
      "constant": true,
      "inputs": [
        {
          "name": "scAddr",
          "type": "address"
        }
      ],
      "name": "getCodeHash",
      "outputs": [
        {
          "name": "",
          "type": "bytes32"
        }
      ],
      "payable": false,
      "stateMutability": "view",
      "type": "function",
      "signature": "0x81ea4408"
    },
    {
      "constant": true,
      "inputs": [],
      "name": "countSecretContracts",
      "outputs": [
        {
          "name": "",
          "type": "uint256"
        }
      ],
      "payable": false,
      "stateMutability": "view",
      "type": "function",
      "signature": "0x75bbf75b"
    },
    {
      "constant": true,
      "inputs": [
        {
          "name": "start",
          "type": "uint256"
        },
        {
          "name": "stop",
          "type": "uint256"
        }
      ],
      "name": "getSecretContractAddresses",
      "outputs": [
        {
          "name": "",
          "type": "address[]"
        }
      ],
      "payable": false,
      "stateMutability": "view",
      "type": "function",
      "signature": "0x8e055b8b"
    },
    {
      "constant": true,
      "inputs": [
        {
          "name": "scAddr",
          "type": "address"
        }
      ],
      "name": "countStateDeltas",
      "outputs": [
        {
          "name": "",
          "type": "uint256"
        }
      ],
      "payable": false,
      "stateMutability": "view",
      "type": "function",
      "signature": "0x84062df7"
    },
    {
      "constant": true,
      "inputs": [
        {
          "name": "scAddr",
          "type": "address"
        },
        {
          "name": "index",
          "type": "uint256"
        }
      ],
      "name": "getStateDeltaHash",
      "outputs": [
        {
          "name": "",
          "type": "bytes32"
        }
      ],
      "payable": false,
      "stateMutability": "view",
      "type": "function",
      "signature": "0x44409496"
    },
    {
      "constant": true,
      "inputs": [
        {
          "name": "scAddr",
          "type": "address"
        },
        {
          "name": "start",
          "type": "uint256"
        },
        {
          "name": "stop",
          "type": "uint256"
        }
      ],
      "name": "getStateDeltaHashes",
      "outputs": [
        {
          "name": "",
          "type": "bytes32[]"
        }
      ],
      "payable": false,
      "stateMutability": "view",
      "type": "function",
      "signature": "0x05e62db6"
    },
    {
      "constant": true,
      "inputs": [
        {
          "name": "scAddr",
          "type": "address"
        },
        {
          "name": "stateDeltaHash",
          "type": "bytes32"
        }
      ],
      "name": "isValidDeltaHash",
      "outputs": [
        {
          "name": "",
          "type": "bool"
        }
      ],
      "payable": false,
      "stateMutability": "view",
      "type": "function",
      "signature": "0x7b5b2ce3"
    },
    {
      "constant": false,
      "inputs": [
        {
          "name": "taskId",
          "type": "bytes32"
        },
        {
          "name": "fee",
          "type": "uint256"
        },
        {
          "name": "token",
          "type": "address"
        },
        {
          "name": "tokenValue",
          "type": "uint256"
        }
      ],
      "name": "createTaskRecord",
      "outputs": [],
      "payable": false,
      "stateMutability": "nonpayable",
      "type": "function",
      "signature": "0xd28cf5c1"
    },
    {
      "constant": false,
      "inputs": [
        {
          "name": "taskIds",
          "type": "bytes32[]"
        },
        {
          "name": "fees",
          "type": "uint256[]"
        },
        {
          "name": "tokens",
          "type": "address[]"
        },
        {
          "name": "tokenValues",
          "type": "uint256[]"
        }
      ],
      "name": "createTaskRecords",
      "outputs": [],
      "payable": false,
      "stateMutability": "nonpayable",
      "type": "function",
      "signature": "0xa85d84ef"
    },
    {
      "constant": false,
      "inputs": [
        {
          "name": "scAddr",
          "type": "address"
        },
        {
          "name": "taskId",
          "type": "bytes32"
        },
        {
          "name": "inStateDeltaHash",
          "type": "bytes32"
        },
        {
          "name": "outStateDeltaHash",
          "type": "bytes32"
        },
        {
          "name": "ethCall",
          "type": "bytes"
        },
        {
          "name": "sig",
          "type": "bytes"
        }
      ],
      "name": "commitReceipt",
      "outputs": [],
      "payable": false,
      "stateMutability": "nonpayable",
      "type": "function",
      "signature": "0x5956efef"
    },
    {
      "constant": false,
      "inputs": [
        {
          "name": "scAddr",
          "type": "address"
        },
        {
          "name": "taskIds",
          "type": "bytes32[]"
        },
        {
          "name": "inStateDeltaHashes",
          "type": "bytes32[]"
        },
        {
          "name": "outStateDeltaHashes",
          "type": "bytes32[]"
        },
        {
          "name": "ethCalls",
          "type": "bytes[]"
        },
        {
          "name": "sigs",
          "type": "bytes[]"
        }
      ],
      "name": "commitReceipts",
      "outputs": [],
      "payable": false,
      "stateMutability": "nonpayable",
      "type": "function",
      "signature": "0xd245f478"
    },
    {
      "constant": false,
      "inputs": [
        {
          "name": "seed",
          "type": "uint256"
        },
        {
          "name": "sig",
          "type": "bytes"
        }
      ],
      "name": "setWorkersParams",
      "outputs": [],
      "payable": false,
      "stateMutability": "nonpayable",
      "type": "function",
      "signature": "0x2873e73c"
    },
    {
      "constant": true,
      "inputs": [
        {
          "name": "blockNumber",
          "type": "uint256"
        }
      ],
      "name": "getWorkerParams",
      "outputs": [
        {
          "name": "",
          "type": "uint256"
        },
        {
          "name": "",
          "type": "uint256"
        },
        {
          "name": "",
          "type": "address[]"
        },
        {
          "name": "",
          "type": "uint256[]"
        }
      ],
      "payable": false,
      "stateMutability": "view",
      "type": "function",
      "signature": "0x9836ca31"
    },
    {
      "constant": true,
      "inputs": [
        {
          "name": "blockNumber",
          "type": "uint256"
        },
        {
          "name": "scAddr",
          "type": "address"
        }
      ],
      "name": "getWorkerGroup",
      "outputs": [
        {
          "name": "",
          "type": "address[]"
        }
      ],
      "payable": false,
      "stateMutability": "view",
      "type": "function",
      "signature": "0xd9611203"
    },
    {
      "constant": true,
      "inputs": [
        {
          "name": "blockNumber",
          "type": "uint256"
        }
      ],
      "name": "getWorkersParams",
      "outputs": [
        {
          "name": "",
          "type": "uint256"
        },
        {
          "name": "",
          "type": "uint256"
        },
        {
          "name": "",
          "type": "address[]"
        },
        {
          "name": "",
          "type": "address[]"
        }
      ],
      "payable": false,
      "stateMutability": "view",
      "type": "function",
      "signature": "0x59c91a12"
    },
    {
      "constant": true,
      "inputs": [
        {
          "name": "custodian",
          "type": "address"
        }
      ],
      "name": "getReport",
      "outputs": [
        {
          "name": "",
          "type": "address"
        },
        {
          "name": "",
          "type": "bytes"
        }
      ],
      "payable": false,
      "stateMutability": "view",
      "type": "function",
      "signature": "0xa3bdae3e"
    }
  ],
  "bytecode": "0x60806040523480156200001157600080fd5b5060405160408062003e24833981018060405262000033919081019062000082565b60008054600160a060020a03938416600160a060020a03199182161790915560018054929093169116178155601b556005601c55620000cd565b60006200007b8251620000c1565b9392505050565b600080604083850312156200009657600080fd5b6000620000a485856200006d565b9250506020620000b7858286016200006d565b9150509250929050565b600160a060020a031690565b613d4780620000dd6000396000f3006080604052600436106101535763ffffffff7c010000000000000000000000000000000000000000000000000000000060003504166305e62db681146101585780630a318da01461018e57806324b8fbf6146101bb5780632873e73c146101dd5780634048a257146101fd578063444094961461022d57806347e7ef241461025a5780635956efef1461027a57806359c91a121461029a5780635f0dd5bb146102ca57806369dc9ff3146102ea57806375bbf75b146103195780637b5b2ce31461032e57806381ea44081461035b57806384062df71461037b5780638e055b8b1461039b57806390184b02146103c85780639489ad40146103e85780639836ca311461040a578063a3bdae3e1461043a578063a85d84ef14610468578063d245f47814610488578063d28cf5c1146104a8578063d3b524c4146104c8578063d9611203146104e8578063e579f50014610508575b600080fd5b34801561016457600080fd5b50610178610173366004613094565b61053a565b6040516101859190613863565b60405180910390f35b34801561019a57600080fd5b506101ae6101a9366004613195565b610669565b6040516101859190613781565b3480156101c757600080fd5b506101db6101d636600461304c565b610691565b005b3480156101e957600080fd5b506101db6101f8366004613238565b6107c5565b34801561020957600080fd5b5061021d610218366004612dca565b610bc9565b604051610185949392919061380d565b34801561023957600080fd5b5061024d610248366004612eef565b610c8d565b6040516101859190613954565b34801561026657600080fd5b506101db610275366004612eef565b610d17565b34801561028657600080fd5b506101db610295366004612fa2565b610eb4565b3480156102a657600080fd5b506102ba6102b5366004613195565b61110d565b6040516101859493929190613b3b565b3480156102d657600080fd5b506101ae6102e5366004613195565b61111a565b3480156102f657600080fd5b5061030a610305366004612dca565b611128565b604051610185939291906137c5565b34801561032557600080fd5b5061024d611156565b34801561033a57600080fd5b5061034e610349366004612eef565b61115d565b6040516101859190613946565b34801561036757600080fd5b5061024d610376366004612dca565b611237565b34801561038757600080fd5b5061024d610396366004612dca565b6112a6565b3480156103a757600080fd5b506103bb6103b6366004613257565b611315565b6040516101859190613852565b3480156103d457600080fd5b5061034e6103e3366004612dca565b6113c7565b3480156103f457600080fd5b506103fd61140c565b6040516101859190613a27565b34801561041657600080fd5b5061042a610425366004613195565b61141b565b6040516101859493929190613b7c565b34801561044657600080fd5b5061045a610455366004612dca565b611546565b6040516101859291906137ed565b34801561047457600080fd5b506101db6104833660046130e1565b611757565b34801561049457600080fd5b506101db6104a3366004612df0565b6119cd565b3480156104b457600080fd5b506101db6104c33660046131b3565b611d35565b3480156104d457600080fd5b506101db6104e3366004612f29565b611e15565b3480156104f457600080fd5b506103bb610503366004613208565b61203e565b34801561051457600080fd5b50610528610523366004613195565b61235a565b60405161018596959493929190613ae5565b606080600080866001600160a060020a0382166000908152601a602052604090206003015460ff16600181111561056d57fe5b146105965760405160e560020a62461bcd02815260040161058d90613ab5565b60405180910390fd5b8515156105bc57600160a060020a0388166000908152601a602052604090206002015495505b6105cc868863ffffffff61243416565b6040519080825280602002602001820160405280156105f5578160200160208202803883390190505b509350600092508691505b8582101561065d57600160a060020a0388166000908152601a6020526040902060020180548390811061062f57fe5b9060005260206000200154848481518110151561064857fe5b60209081029091010152600190910190610600565b50919695505050505050565b601680548290811061067757fe5b600091825260209091200154600160a060020a0316905081565b33600090815260186020526040812054600160a060020a031615156107055750601680549081906106c59060018301612a8a565b50336016828154811015156106d657fe5b9060005260206000200160006101000a815481600160a060020a030219169083600160a060020a031602179055505b3360009081526018602090815260408220805473ffffffffffffffffffffffffffffffffffffffff1916600160a060020a038716178155600281019290925583516107569260010191850190612ab3565b503360008181526018602052604090819020805474ff0000000000000000000000000000000000000000191660a060020a179055517f0a31ee9d46a828884b81003c8498156ea6aa15b9b54bdd0ef0b533d9eba57e55916107b891869061378f565b60405180910390a1505050565b600080600080336107d4612b31565b600160a060020a0382811660009081526018602090815260409182902082516080810184528154948516815260a060020a90940460ff1684830152600180820180548551600261010094831615949094026000190190911692909204601f8101859004850283018501865280835292948601939192909183018282801561089c5780601f106108715761010080835404028352916020019161089c565b820191906000526020600020905b81548152906001019060200180831161087f57829003601f168201915b5050505050815260200160028201548152505090506000816020015160ff161115156108dd5760405160e560020a62461bcd02815260040161058d90613a35565b60015433600090815260186020526040902054600160a060020a0390811691161461091d5760405160e560020a62461bcd02815260040161058d90613a95565b60009550600094505b6005851015610988576002856005811061093c57fe5b6004020154151561094f57849550610988565b6002866005811061095c57fe5b60040201546002866005811061096e57fe5b6004020154101561097d578495505b600190940193610926565b436002876005811061099657fe5b600402015587600287600581106109a957fe5b600402016003018190555060009350600092505b601654831015610b5a57601b54601860006016868154811015156109dd57fe5b6000918252602080832090910154600160a060020a0316835282019290925260400190206002015410610b4f5760028660058110610a1757fe5b600402016001018054809190600101610a309190612a8a565b506016805484908110610a3f57fe5b600091825260209091200154600160a060020a031660028760058110610a6157fe5b6004020160010185815481101515610a7557fe5b6000918252602090912001805473ffffffffffffffffffffffffffffffffffffffff1916600160a060020a039290921691909117905560028660058110610ab857fe5b600402016002018054809190600101610ad19190612a8a565b5060186000601685815481101515610ae557fe5b6000918252602080832090910154600160a060020a031683528201929092526040019020600290810154908760058110610b1b57fe5b6004020160020185815481101515610b2f57fe5b600091825260209091200155610b4c84600163ffffffff61244b16565b93505b6001909201916109bd565b7f7047379c64ccafb62f6625e6b2d8eb6e1b0e091fac56a11ab5e2fd896e4db1d0884360028960058110610b8a57fe5b6004020160010160028a600581101515610ba057fe5b60040201600201604051610bb79493929190613bbd565b60405180910390a15050505050505050565b6018602090815260009182526040918290208054600180830180548651600261010094831615949094026000190190911692909204601f8101869004860283018601909652858252600160a060020a0383169560a060020a90930460ff169491929091830182828015610c7d5780601f10610c5257610100808354040283529160200191610c7d565b820191906000526020600020905b815481529060010190602001808311610c6057829003601f168201915b5050505050908060020154905084565b6000826001600160a060020a0382166000908152601a602052604090206003015460ff166001811115610cbc57fe5b14610cdc5760405160e560020a62461bcd02815260040161058d90613ab5565b600160a060020a0384166000908152601a60205260409020600201805484908110610d0357fe5b906000526020600020015491505092915050565b81610d20612b31565b600160a060020a0382811660009081526018602090815260409182902082516080810184528154948516815260a060020a90940460ff1684830152600180820180548551600261010094831615949094026000190190911692909204601f81018590048502830185018652808352929486019391929091830182828015610de85780601f10610dbd57610100808354040283529160200191610de8565b820191906000526020600020905b815481529060010190602001808311610dcb57829003601f168201915b5050505050815260200160028201548152505090506000816020015160ff16111515610e295760405160e560020a62461bcd02815260040161058d90613a35565b600160a060020a038416600090815260186020526040902060020154610e55908463ffffffff61244b16565b600160a060020a0385166000908152601860205260409081902060020191909155517fb3ef81558ed1a50072a492984535a009da8b129c749500b387f1e5f4886bdde590610ea690869086906137aa565b60405180910390a150505050565b33610ebd612b31565b600160a060020a0382811660009081526018602090815260409182902082516080810184528154948516815260a060020a90940460ff1684830152600180820180548551600261010094831615949094026000190190911692909204601f81018590048502830185018652808352929486019391929091830182828015610f855780601f10610f5a57610100808354040283529160200191610f85565b820191906000526020600020905b815481529060010190602001808311610f6857829003601f168201915b5050505050815260200160028201548152505090506000816020015160ff16111515610fc65760405160e560020a62461bcd02815260040161058d90613a35565b876001600160a060020a0382166000908152601a602052604090206003015460ff166001811115610ff357fe5b146110135760405160e560020a62461bcd02815260040161058d90613ab5565b6000808981526019602052604090206004015460a060020a900460ff16600181111561103b57fe5b1461105b5760405160e560020a62461bcd02815260040161058d90613a55565b611069898989898989612458565b6000888152601960209081526040909120855161108e92600390920191870190612ab3565b5060008881526019602052604090819020600401805474ff0000000000000000000000000000000000000000191660a060020a179055517f665329bb9a4e1062edc215d9c5ab57fa54c4c88e3dfbcc68e0cd92fdd010fa6e906110fa908a908a908a908a908a90613962565b60405180910390a1505050505050505050565b6000806060809193509193565b601780548290811061067757fe5b601a60205260009081526040902080546001820154600390920154600160a060020a03909116919060ff1683565b6017545b90565b60008080846001600160a060020a0382166000908152601a602052604090206003015460ff16600181111561118e57fe5b146111ae5760405160e560020a62461bcd02815260040161058d90613ab5565b60009250600091505b600160a060020a0386166000908152601a602052604090206002015482101561122a57600160a060020a0386166000908152601a6020526040902060020180548691908490811061120457fe5b600091825260209091200154141561121f576001925061122a565b6001909101906111b7565b8293505b50505092915050565b6000816001600160a060020a0382166000908152601a602052604090206003015460ff16600181111561126657fe5b146112865760405160e560020a62461bcd02815260040161058d90613ab5565b5050600160a060020a03166000908152601a602052604090206001015490565b6000816001600160a060020a0382166000908152601a602052604090206003015460ff1660018111156112d557fe5b146112f55760405160e560020a62461bcd02815260040161058d90613ab5565b5050600160a060020a03166000908152601a602052604090206002015490565b6060806000808415156113285760175494505b611338858763ffffffff61243416565b604051908082528060200260200182016040528015611361578160200160208202803883390190505b509250600091508590505b8481101561122a57601780548290811061138257fe5b6000918252602090912001548351600160a060020a03909116908490849081106113a857fe5b600160a060020a0390921660209283029091019091015260010161136c565b60006001600160a060020a0383166000908152601a602052604090206003015460ff1660018111156113f557fe5b141561140357506001611407565b5060005b919050565b600054600160a060020a031681565b600080606080600061142b612b66565b611434876126a8565b91506002826005811061144357fe5b600402016080604051908101604052908160008201548152602001600182018054806020026020016040519081016040528092919081815260200182805480156114b657602002820191906000526020600020905b8154600160a060020a03168152600190910190602001808311611498575b505050505081526020016002820180548060200260200160405190810160405280929190818152602001828054801561150e57602002820191906000526020600020905b8154815260200190600101908083116114fa575b5050509183525050600391909101546020918201528151606083015191830151604090930151909a9199509197509095509350505050565b6000606082611553612b31565b600160a060020a0382811660009081526018602090815260409182902082516080810184528154948516815260a060020a90940460ff1684830152600180820180548551600261010094831615949094026000190190911692909204601f8101859004850283018501865280835292948601939192909183018282801561161b5780601f106115f05761010080835404028352916020019161161b565b820191906000526020600020905b8154815290600101906020018083116115fe57829003601f168201915b5050505050815260200160028201548152505090506000816020015160ff1611151561165c5760405160e560020a62461bcd02815260040161058d90613a35565b600160a060020a038086166000908152601860205260409020541615156116985760405160e560020a62461bcd02815260040161058d90613a85565b600160a060020a038581166000908152601860209081526040918290208054600191820180548551600261010095831615959095026000190190911693909304601f81018590048502840185019095528483529416939290918391908301828280156117455780601f1061171a57610100808354040283529160200191611745565b820191906000526020600020905b81548152906001019060200180831161172857829003601f168201915b50505050509050935093505050915091565b60005b84518110156119875760196000868381518110151561177557fe5b6020908102909101810151825281019190915260400160002060040154600160a060020a0316156117bb5760405160e560020a62461bcd02815260040161058d90613aa5565b83818151811015156117c957fe5b906020019060200201516019600087848151811015156117e557fe5b6020908102909101810151825281019190915260400160002055825183908290811061180d57fe5b9060200190602002015160196000878481518110151561182957fe5b6020908102919091018101518252810191909152604001600020600101805473ffffffffffffffffffffffffffffffffffffffff1916600160a060020a0392909216919091179055815182908290811061187f57fe5b9060200190602002015160196000878481518110151561189b57fe5b906020019060200201516000191660001916815260200190815260200160002060020181905550336019600087848151811015156118d557fe5b60209081029190910181015182528101919091526040016000908120600401805473ffffffffffffffffffffffffffffffffffffffff1916600160a060020a0393909316929092179091558551601990829088908590811061193357fe5b60209081029091018101518252810191909152604001600020600401805474ff0000000000000000000000000000000000000000191660a060020a83600181111561197a57fe5b021790555060010161175a565b7fcb8afab3437be2f96ef2a2932eb02d02fd765bfe8be7c1f5a58edd6452317dde85858585336040516119be9594939291906138e0565b60405180910390a15050505050565b6000336119d8612b31565b600160a060020a0382811660009081526018602090815260409182902082516080810184528154948516815260a060020a90940460ff1684830152600180820180548551600261010094831615949094026000190190911692909204601f81018590048502830185018652808352929486019391929091830182828015611aa05780601f10611a7557610100808354040283529160200191611aa0565b820191906000526020600020905b815481529060010190602001808311611a8357829003601f168201915b5050505050815260200160028201548152505090506000816020015160ff16111515611ae15760405160e560020a62461bcd02815260040161058d90613a35565b886001600160a060020a0382166000908152601a602052604090206003015460ff166001811115611b0e57fe5b14611b2e5760405160e560020a62461bcd02815260040161058d90613ab5565b600093505b8851841015611cea576000601960008b87815181101515611b5057fe5b602090810290910181015182528101919091526040016000206004015460ff60a060020a909104166001811115611b8357fe5b14611ba35760405160e560020a62461bcd02815260040161058d90613a55565b611c248a8a86815181101515611bb557fe5b906020019060200201518a87815181101515611bcd57fe5b906020019060200201518a88815181101515611be557fe5b906020019060200201518a89815181101515611bfd57fe5b906020019060200201518a8a815181101515611c1557fe5b90602001906020020151612458565b8484815181101515611c3257fe5b90602001906020020151601960008b87815181101515611c4e57fe5b60209081029091018101518252818101929092526040016000208251611c7e936003909201929190910190612ab3565b506001601960008b87815181101515611c9357fe5b60209081029091018101518252810191909152604001600020600401805474ff0000000000000000000000000000000000000000191660a060020a836001811115611cda57fe5b0217905550600190930192611b33565b7f7243cbab94fa1d25e0cb54fdd36b41f803ff5e5a29aaae09979a888b156b58728989898989604051611d21959493929190613874565b60405180910390a150505050505050505050565b600084815260196020526040902060040154600160a060020a031615611d705760405160e560020a62461bcd02815260040161058d90613aa5565b60008481526019602052604090819020848155600181018054600160a060020a03861673ffffffffffffffffffffffffffffffffffffffff199182161790915560028201849055600490910180549091163390811774ff0000000000000000000000000000000000000000191690915590517f51364a5a527e38841b15c974f7924dad755bc9ce0d29701d7501a7bd297b787b91610ea69187918791879187916139b0565b33611e1e612b31565b600160a060020a0382811660009081526018602090815260409182902082516080810184528154948516815260a060020a90940460ff1684830152600180820180548551600261010094831615949094026000190190911692909204601f81018590048502830185018652808352929486019391929091830182828015611ee65780601f10611ebb57610100808354040283529160200191611ee6565b820191906000526020600020905b815481529060010190602001808311611ec957829003601f168201915b5050505050815260200160028201548152505090506000816020015160ff16111515611f275760405160e560020a62461bcd02815260040161058d90613a35565b600160a060020a0386166000908152601a602052604081206003015460ff166001811115611f5157fe5b14611f715760405160e560020a62461bcd02815260040161058d90613a45565b600160a060020a038681166000818152601a6020526040808220805494891673ffffffffffffffffffffffffffffffffffffffff1995861617815560018082018b90556003909101805460ff1916821790556017805491820181559092527fc624b66cc0138b8fabc209247f72d758e1cf3343756d543badbf24212bed8c159091018054909316909117909155517fff27b3bb5dfb682b066cdace68b5dda84d03c3d2eadac54284aaec44cbcff5169061202e90889088906137aa565b60405180910390a1505050505050565b60606000606061204c612b66565b606060008060008060008060006120628e6126a8565b9a5061206d8b612750565b995060028b6005811061207c57fe5b600402016080604051908101604052908160008201548152602001600182018054806020026020016040519081016040528092919081815260200182805480156120ef57602002820191906000526020600020905b8154600160a060020a031681526001909101906020018083116120d1575b505050505081526020016002820180548060200260200160405190810160405280929190818152602001828054801561214757602002820191906000526020600020905b815481526020019060010190808311612133575b505050505081526020016003820154815250509850601c54604051908082528060200260200182016040528015612188578160200160208202803883390190505b50975060009650600095505b601c54861015612348575b8689606001518f8f6040516020018085815260200184815260200183815260200182600160a060020a0316600160a060020a03166c010000000000000000000000000281526014019450505050506040516020818303038152906040526040518082805190602001908083835b6020831061222b5780518252601f19909201916020918201910161220c565b6001836020036101000a038019825116818451168082178552505050505050905001915050604051809103902094508951856001900481151561226a57fe5b069350898481518110151561227b57fe5b90602001906020020151925060009150600090505b87518110156122db5787818151811015156122a757fe5b90602001906020020151600160a060020a031683600160a060020a031614156122d357600191506122db565b600101612290565b811515612309578288878151811015156122f157fe5b600160a060020a039092166020928302909101909101525b875160019097019688908790811061231d57fe5b90602001906020020151600160a060020a03166000141561233d5761219f565b600190950194612194565b50959c9b505050505050505050505050565b601960209081526000918252604091829020805460018083015460028085015460038601805489516101009682161596909602600019011692909204601f81018890048802850188019098528784529396600160a060020a039092169593949390919083018282801561240e5780601f106123e35761010080835404028352916020019161240e565b820191906000526020600020905b8154815290600101906020018083116123f157829003601f168201915b50505060049093015491925050600160a060020a0381169060ff60a060020a9091041686565b60008282111561244057fe5b508082035b92915050565b8181018281101561244557fe5b600160a060020a0386166000908152601a602052604081206002015490808215156124a357861561249e5760405160e560020a62461bcd02815260040161058d90613a75565b612506565b600160a060020a0389166000908152601a602052604090206002016124cf84600163ffffffff61243416565b815481106124d957fe5b60009182526020909120015487146125065760405160e560020a62461bcd02815260040161058d90613a65565b600160a060020a0389166000908152601a602052604090206002018054906125319060018301612a8a565b50600160a060020a0389166000908152601a6020526040902060020180548791908590811061255c57fe5b60009182526020918290200191909155604080518083018b81529181018a90526060810189905287518b938b938b938b939192608090910191908401908083835b602083106125bc5780518252601f19909201916020918201910161259d565b6001836020036101000a0380198251168184511680821785525050505050509050019450505050506040516020818303038152906040526040518082805190602001908083835b602083106126225780518252601f199092019160209182019101612603565b5181516020939093036101000a60001901801990911692169190911790526040519201829003909120945061265d92508491508690506129cd565b33600090815260186020526040902054909150600160a060020a0380831691161461269d5760405160e560020a62461bcd02815260040161058d90613ac5565b505050505050505050565b6000600019815b600581101561271d5783600282600581106126c657fe5b60040201541180159061270c57508160000b600019148061270c57506002600083900b600581106126f357fe5b60040201546002826005811061270557fe5b6004020154115b15612715578091505b6001016126af565b600019600083900b14156127465760405160e560020a62461bcd02815260040161058d90613ad5565b5060000b92915050565b606061275a612b66565b60008060608180806002896005811061276f57fe5b600402016080604051908101604052908160008201548152602001600182018054806020026020016040519081016040528092919081815260200182805480156127e257602002820191906000526020600020905b8154600160a060020a031681526001909101906020018083116127c4575b505050505081526020016002820180548060200260200160405190810160405280929190818152602001828054801561283a57602002820191906000526020600020905b815481526020019060010190808311612826575b50505050508152602001600382015481525050965060009550600094505b8660200151518510156128c857602087015180518690811061287657fe5b60209081029091010151600160a060020a0316156128bd576128ba8760400151868151811015156128a357fe5b60209081029091010151879063ffffffff61244b16565b95505b600190940193612858565b856040519080825280602002602001820160405280156128f2578160200160208202803883390190505b50935060009250600091505b8660200151518210156129c057602087015180518390811061291c57fe5b60209081029091010151600160a060020a0316156129b5575060005b604087015180518390811061294957fe5b906020019060200201518110156129b557602087015180518390811061296b57fe5b90602001906020020151848481518110151561298357fe5b600160a060020a039092166020928302909101909101526129ab83600163ffffffff61244b16565b9250600101612938565b6001909101906128fe565b5091979650505050505050565b600080600080845160411415156129e7576000935061122e565b50505060208201516040830151606084015160001a601b60ff82161015612a0c57601b015b8060ff16601b14158015612a2457508060ff16601c14155b15612a32576000935061122e565b60018682858560405160008152602001604052604051612a5594939291906139f2565b60206040516020810390808403906000865af1158015612a79573d6000803e3d6000fd5b50505060206040510351935061122e565b815481835581811115612aae57600083815260209020612aae918101908301612b8f565b505050565b828054600181600116156101000203166002900490600052602060002090601f016020900481019282601f10612af457805160ff1916838001178555612b21565b82800160010185558215612b21579182015b82811115612b21578251825591602001919060010190612b06565b50612b2d929150612b8f565b5090565b6080604051908101604052806000600160a060020a03168152602001600060ff16815260200160608152602001600081525090565b608060405190810160405280600081526020016060815260200160608152602001600081525090565b61115a91905b80821115612b2d5760008155600101612b95565b6000612bb58235613c8e565b9392505050565b6000601f82018313612bcd57600080fd5b8135612be0612bdb82613c25565b613bfe565b91508181835260208401935060208101905083856020840282011115612c0557600080fd5b60005b83811015612c315781612c1b8882612ba9565b8452506020928301929190910190600101612c08565b5050505092915050565b6000601f82018313612c4c57600080fd5b8135612c5a612bdb82613c25565b91508181835260208401935060208101905083856020840282011115612c7f57600080fd5b60005b83811015612c315781612c958882612d78565b8452506020928301929190910190600101612c82565b6000601f82018313612cbc57600080fd5b8135612cca612bdb82613c25565b81815260209384019390925082018360005b83811015612c315781358601612cf28882612d84565b8452506020928301929190910190600101612cdc565b6000601f82018313612d1957600080fd5b8135612d27612bdb82613c25565b91508181835260208401935060208101905083856020840282011115612d4c57600080fd5b60005b83811015612c315781612d628882612d78565b8452506020928301929190910190600101612d4f565b6000612bb5823561115a565b6000601f82018313612d9557600080fd5b8135612da3612bdb82613c46565b91508082526020830160208301858383011115612dbf57600080fd5b61122e838284613cc7565b600060208284031215612ddc57600080fd5b6000612de88484612ba9565b949350505050565b60008060008060008060c08789031215612e0957600080fd5b6000612e158989612ba9565b965050602087013567ffffffffffffffff811115612e3257600080fd5b612e3e89828a01612c3b565b955050604087013567ffffffffffffffff811115612e5b57600080fd5b612e6789828a01612c3b565b945050606087013567ffffffffffffffff811115612e8457600080fd5b612e9089828a01612c3b565b935050608087013567ffffffffffffffff811115612ead57600080fd5b612eb989828a01612cab565b92505060a087013567ffffffffffffffff811115612ed657600080fd5b612ee289828a01612cab565b9150509295509295509295565b60008060408385031215612f0257600080fd5b6000612f0e8585612ba9565b9250506020612f1f85828601612d78565b9150509250929050565b60008060008060808587031215612f3f57600080fd5b6000612f4b8787612ba9565b9450506020612f5c87828801612d78565b9350506040612f6d87828801612ba9565b925050606085013567ffffffffffffffff811115612f8a57600080fd5b612f9687828801612d84565b91505092959194509250565b60008060008060008060c08789031215612fbb57600080fd5b6000612fc78989612ba9565b9650506020612fd889828a01612d78565b9550506040612fe989828a01612d78565b9450506060612ffa89828a01612d78565b935050608087013567ffffffffffffffff81111561301757600080fd5b61302389828a01612d84565b92505060a087013567ffffffffffffffff81111561304057600080fd5b612ee289828a01612d84565b6000806040838503121561305f57600080fd5b600061306b8585612ba9565b925050602083013567ffffffffffffffff81111561308857600080fd5b612f1f85828601612d84565b6000806000606084860312156130a957600080fd5b60006130b58686612ba9565b93505060206130c686828701612d78565b92505060406130d786828701612d78565b9150509250925092565b600080600080608085870312156130f757600080fd5b843567ffffffffffffffff81111561310e57600080fd5b61311a87828801612c3b565b945050602085013567ffffffffffffffff81111561313757600080fd5b61314387828801612d08565b935050604085013567ffffffffffffffff81111561316057600080fd5b61316c87828801612bbc565b925050606085013567ffffffffffffffff81111561318957600080fd5b612f9687828801612d08565b6000602082840312156131a757600080fd5b6000612de88484612d78565b600080600080608085870312156131c957600080fd5b60006131d58787612d78565b94505060206131e687828801612d78565b93505060406131f787828801612ba9565b9250506060612f9687828801612d78565b6000806040838503121561321b57600080fd5b60006132278585612d78565b9250506020612f1f85828601612ba9565b6000806040838503121561324b57600080fd5b600061306b8585612d78565b6000806040838503121561326a57600080fd5b6000612f0e8585612d78565b61327f81613c8e565b82525050565b600061329082613c80565b8084526020840193506132a283613c6e565b60005b828110156132d2576132b8868351613276565b6132c182613c6e565b6020969096019591506001016132a5565b5093949350505050565b60006132e782613c84565b8084526020840193506132f983613c74565b60005b828110156132d25761330f868354613276565b61331882613c88565b6020969096019591506001016132fc565b600061333482613c80565b80845260208401935061334683613c6e565b60005b828110156132d25761335c868351613480565b61336582613c6e565b602096909601959150600101613349565b600061338182613c80565b8084526020840193508360208202850161339a85613c6e565b60005b848110156133d15783830388526133b5838351613489565b92506133c082613c6e565b60209890980197915060010161339d565b50909695505050505050565b60006133e882613c80565b8084526020840193506133fa83613c6e565b60005b828110156132d257613410868351613480565b61341982613c6e565b6020969096019591506001016133fd565b600061343582613c84565b80845260208401935061344783613c74565b60005b828110156132d25761345d868354613480565b61346682613c88565b60209690960195915060010161344a565b61327f81613c9a565b61327f8161115a565b600061349482613c80565b8084526134a8816020860160208601613cd3565b6134b181613d03565b9093016020019392505050565b61327f81613cb1565b61327f81613cbc565b601481527f556e7265676973746572656420776f726b65722e000000000000000000000000602082015260400190565b602181527f53656372657420636f6e747261637420616c7265616479206465706c6f79656460208201527f2e00000000000000000000000000000000000000000000000000000000000000604082015260600190565b601381527f496e76616c6964207461736b2073746174757300000000000000000000000000602082015260400190565b601e81527f496e76616c696420696e7075742073746174652064656c746120686173680000602082015260400190565b602e81527f496e76616c696420696e7075742073746174652064656c74612068617368206660208201527f6f7220656d707479207374617465000000000000000000000000000000000000604082015260600190565b601581527f576f726b6572206e6f7420726567697374657265640000000000000000000000602082015260400190565b602681527f4f6e6c7920746865205072696e636970616c2063616e2075706461746520746860208201527f6520736565640000000000000000000000000000000000000000000000000000604082015260600190565b601381527f5461736b20616c72656164792065786973742e00000000000000000000000000602082015260400190565b601d81527f53656372657420636f6e7472616374206e6f74206465706c6f7965642e000000602082015260400190565b601281527f496e76616c6964207369676e61747572652e0000000000000000000000000000602082015260400190565b603681527f4e6f20776f726b65727320706172616d657465727320656e74727920666f722060208201527f73706563696669656420626c6f636b206e756d62657200000000000000000000604082015260600190565b61327f81613cab565b602081016124458284613276565b6040810161379d8285613276565b612bb56020830184613276565b604081016137b88285613276565b612bb56020830184613480565b606081016137d38286613276565b6137e06020830185613480565b612de860408301846134c7565b604081016137fb8285613276565b8181036020830152612de88184613489565b6080810161381b8287613276565b6138286020830186613778565b818103604083015261383a8185613489565b90506138496060830184613480565b95945050505050565b60208082528101612bb58184613285565b60208082528101612bb58184613329565b60a080825281016138858188613329565b905081810360208301526138998187613329565b905081810360408301526138ad8186613329565b905081810360608301526138c18185613376565b905081810360808301526138d58184613376565b979650505050505050565b60a080825281016138f18188613329565b9050818103602083015261390581876133dd565b905081810360408301526139198186613285565b9050818103606083015261392d81856133dd565b905061393c6080830184613276565b9695505050505050565b602081016124458284613477565b602081016124458284613480565b60a081016139708288613480565b61397d6020830187613480565b61398a6040830186613480565b818103606083015261399c8185613489565b905081810360808301526138d58184613489565b60a081016139be8288613480565b6139cb6020830187613480565b6139d86040830186613276565b6139e56060830185613480565b61393c6080830184613276565b60808101613a008287613480565b613a0d6020830186613778565b613a1a6040830185613480565b6138496060830184613480565b6020810161244582846134be565b60208082528101612445816134d0565b6020808252810161244581613500565b6020808252810161244581613556565b6020808252810161244581613586565b60208082528101612445816135b6565b602080825281016124458161360c565b602080825281016124458161363c565b6020808252810161244581613692565b60208082528101612445816136c2565b60208082528101612445816136f2565b6020808252810161244581613722565b60c08101613af38289613480565b613b006020830188613276565b613b0d6040830187613480565b8181036060830152613b1f8186613489565b9050613b2e6080830185613276565b6138d560a08301846134c7565b60808101613b498287613480565b613b566020830186613480565b8181036040830152613b688185613285565b9050818103606083015261393c8184613285565b60808101613b8a8287613480565b613b976020830186613480565b8181036040830152613ba98185613285565b9050818103606083015261393c81846133dd565b60808101613bcb8287613480565b613bd86020830186613480565b8181036040830152613bea81856132dc565b9050818103606083015261393c818461342a565b60405181810167ffffffffffffffff81118282101715613c1d57600080fd5b604052919050565b600067ffffffffffffffff821115613c3c57600080fd5b5060209081020190565b600067ffffffffffffffff821115613c5d57600080fd5b506020601f91909101601f19160190565b60200190565b60009081526020902090565b5190565b5490565b60010190565b600160a060020a031690565b151590565b600060028210612b2d57fe5b60ff1690565b600061244582613c8e565b600061244582613c9f565b82818337506000910152565b60005b83811015613cee578181015183820152602001613cd6565b83811115613cfd576000848401525b50505050565b601f01601f1916905600a265627a7a72305820c908475ab5da93771d7ca66185ccd54806ea3092599a9a50ee73fccb5487c9146c6578706572696d656e74616cf50037",
  "source": "pragma solidity ^0.4.24;\npragma experimental ABIEncoderV2;\n\nimport \"openzeppelin-solidity/contracts/math/SafeMath.sol\";\nimport \"openzeppelin-solidity/contracts/ECRecovery.sol\";\n\ncontract ERC20 {\n    function allowance(address owner, address spender) public view returns (uint256);\n\n    function transferFrom(address from, address to, uint256 value) public returns (bool);\n\n    function approve(address spender, uint256 value) public returns (bool);\n\n    function totalSupply() public view returns (uint256);\n\n    function balanceOf(address who) public view returns (uint256);\n\n    function transfer(address to, uint256 value) public returns (bool);\n\n    event Transfer(address indexed from, address indexed to, uint256 value);\n    event Approval(address indexed owner, address indexed spender, uint256 value);\n}\n\ncontract Enigma {\n    using SafeMath for uint256;\n    using ECRecovery for bytes32;\n\n    // The interface of the deployed ENG ERC20 token contract\n    ERC20 public engToken;\n\n    struct Task {\n        uint fee;\n        address token;\n        uint tokenValue;\n        bytes proof; // Signature of (taskId, inStateDeltaHash, outStateDeltaHash, ethCall)\n        address sender;\n        TaskStatus status;\n    }\n    enum TaskStatus {RecordCreated, ReceiptVerified}\n\n    /**\n    * The signer address of the principal node\n    * This must be set when deploying the contract and remains immutable\n    * Since the signer address is derived from the public key of an\n    * SGX enclave, this ensures that the principal node cannot be tempered\n    * with or replaced.\n    */\n    address principal;\n\n    // The data representation of a worker (or node)\n    struct Worker {\n        address signer;\n        uint8 status; // Uninitialized: 0; Active: 1; Inactive: 2\n        bytes report; // Decided to store this as one  RLP encoded attribute for easier external storage in the future\n        uint256 balance;\n    }\n\n    /**\n    * The data representation of the worker parameters used as input for\n    * the worker selection algorithm\n    */\n    struct WorkersParams {\n        uint firstBlockNumber;\n        address[] workers;\n        uint[] balances;\n        uint seed;\n    }\n\n    struct SecretContract {\n        address owner;\n        bytes32 codeHash;\n        bytes32[] stateDeltaHashes;\n        SecretContractStatus status;\n        // TODO: consider keeping an index of taskIds\n    }\n    // TODO: do we want to have a contract lifecycle?\n    enum SecretContractStatus {Undefined, Deployed}\n\n    /**\n    * The last 5 worker parameters\n    * We keep a collection of worker parameters to account for latency issues.\n    * A computation task might be conceivably given out at a certain block number\n    * but executed at a later block in a different epoch. It follows that\n    * the contract must have access to the worker parameters effective when giving\n    * out the task, otherwise the selected worker would not match. We calculated\n    * that keeping the last 5 items should be more than enough to account for\n    * all latent tasks. Tasks results will be rejected past this limit.\n    */\n    WorkersParams[5] workersParams;\n\n    // An address-based index of all registered worker\n    address[] public workerAddresses;\n    // An address-based index of all secret contracts\n    address[] public scAddresses;\n\n    // A registry of all registered workers with their attributes\n    mapping(address => Worker) public workers;\n    mapping(bytes32 => Task) public tasks;\n    mapping(address => SecretContract) public contracts;\n\n    // TODO: do we keep tasks forever? if not, when do we delete them?\n    uint stakingThreshold;\n    uint workerGroupSize;\n\n    // The events emitted by the contract\n    event Registered(address custodian, address signer);\n    event ValidatedSig(bytes sig, bytes32 hash, address workerAddr);\n    event WorkersParameterized(uint seed, uint256 blockNumber, address[] workers, uint[] balances);\n    event TaskRecordCreated(bytes32 taskId, uint fee, address token, uint tokenValue, address sender);\n    event TaskRecordsCreated(bytes32[] taskIds, uint[] fees, address[] tokens, uint[] tokenValues, address sender);\n    event ReceiptVerified(bytes32 taskId, bytes32 inStateDeltaHash, bytes32 outStateDeltaHash, bytes ethCall, bytes sig);\n    event ReceiptsVerified(bytes32[] taskIds, bytes32[] inStateDeltaHashes, bytes32[] outStateDeltaHashes, bytes[] ethCalls, bytes[] sigs);\n    event DepositSuccessful(address from, uint value);\n    event SecretContractDeployed(address scAddr, bytes32 codeHash);\n\n    constructor(address _tokenAddress, address _principal) public {\n        engToken = ERC20(_tokenAddress);\n        principal = _principal;\n        stakingThreshold = 1;\n        workerGroupSize = 5;\n    }\n\n    //TODO: break down these methods into services for upgradability\n\n    /**\n    * Checks if the custodian wallet is registered as a worker\n    *\n    * @param user The custodian address of the worker\n    */\n    modifier workerRegistered(address user) {\n        Worker memory worker = workers[user];\n        require(worker.status > 0, \"Unregistered worker.\");\n        _;\n    }\n\n    modifier contractDeployed(address scAddr) {\n        require(contracts[scAddr].status == SecretContractStatus.Deployed, \"Secret contract not deployed.\");\n        _;\n    }\n\n    /**\n    * Registers a new worker of change the signer parameters of an existing\n    * worker. This should be called by every worker (and the principal)\n    * node in order to receive tasks.\n    *\n    * @param signer The signer address, derived from the enclave public key\n    * @param report The RLP encoded report returned by the IAS\n    */\n    function register(address signer, bytes report)\n    public\n    {\n        // TODO: consider exit if both signer and custodian as matching\n        // If the custodian is not already register, we add an index entry\n        if (workers[msg.sender].signer == 0x0) {\n            // TODO: does workerAddresses.push just work here?\n            uint index = workerAddresses.length;\n            workerAddresses.length++;\n            workerAddresses[index] = msg.sender;\n        }\n\n        // Set the custodian attributes\n        workers[msg.sender].signer = signer;\n        workers[msg.sender].balance = 0;\n        workers[msg.sender].report = report;\n        workers[msg.sender].status = 1;\n\n        emit Registered(msg.sender, signer);\n    }\n\n    function deposit(address custodian, uint amount)\n    public\n    workerRegistered(custodian)\n    {\n        //        require(engToken.allowance(custodian, to) >= amount, \"Not enough tokens allowed for transfer\");\n        //        engToken.transferFrom(custodian, this, amount);\n\n        workers[custodian].balance = workers[custodian].balance.add(amount);\n\n        emit DepositSuccessful(custodian, amount);\n    }\n\n    // TODO: should the scAddr be computed on-chain from the codeHash + some randomness\n    // TODO: should any user deploy a secret contract or only a trusted enclave?\n    function deploySecretContract(address scAddr, bytes32 codeHash, address owner, bytes sig)\n    public\n    workerRegistered(msg.sender)\n    {\n        require(contracts[scAddr].status == SecretContractStatus.Undefined, \"Secret contract already deployed.\");\n        //TODO: verify sig\n\n        //TODO: is this too naive?\n        contracts[scAddr].owner = owner;\n        contracts[scAddr].codeHash = codeHash;\n        contracts[scAddr].status = SecretContractStatus.Deployed;\n        scAddresses.push(scAddr);\n\n        emit SecretContractDeployed(scAddr, codeHash);\n    }\n\n    function isDeployed(address scAddr)\n    public\n    view\n    returns (bool)\n    {\n        if (contracts[scAddr].status == SecretContractStatus.Deployed) {\n            return true;\n        } else {\n            return false;\n        }\n    }\n\n    function getCodeHash(address scAddr)\n    public\n    view\n    contractDeployed(scAddr)\n    returns (bytes32)\n    {\n        return contracts[scAddr].codeHash;\n    }\n\n    function countSecretContracts()\n    public\n    view\n    returns (uint)\n    {\n        return scAddresses.length;\n    }\n\n    /**\n    * Selects address from start up to, but not including, the stop number\n    **/\n    function getSecretContractAddresses(uint start, uint stop)\n    public\n    view\n    returns (address[])\n    {\n        if (stop == 0) {\n            stop = scAddresses.length;\n        }\n        address[] memory addresses = new address[](stop.sub(start));\n        uint pos = 0;\n        for (uint i = start; i < stop; i++) {\n            addresses[pos] = scAddresses[i];\n        }\n        return addresses;\n    }\n\n    function countStateDeltas(address scAddr)\n    public\n    view\n    contractDeployed(scAddr)\n    returns (uint)\n    {\n        return contracts[scAddr].stateDeltaHashes.length;\n    }\n\n    function getStateDeltaHash(address scAddr, uint index)\n    public\n    view\n    contractDeployed(scAddr)\n    returns (bytes32)\n    {\n        return contracts[scAddr].stateDeltaHashes[index];\n    }\n\n    /**\n    * Selects state deltas from start up to, but not including, the stop number\n    **/\n    function getStateDeltaHashes(address scAddr, uint start, uint stop)\n    public\n    view\n    contractDeployed(scAddr)\n    returns (bytes32[])\n    {\n        if (stop == 0) {\n            stop = contracts[scAddr].stateDeltaHashes.length;\n        }\n        bytes32[] memory deltas = new bytes32[](stop.sub(start));\n        uint pos = 0;\n        for (uint i = start; i < stop; i++) {\n            deltas[pos] = contracts[scAddr].stateDeltaHashes[i];\n        }\n        return deltas;\n    }\n\n    function isValidDeltaHash(address scAddr, bytes32 stateDeltaHash)\n    public\n    view\n    contractDeployed(scAddr)\n    returns (bool)\n    {\n        bool valid = false;\n        for (uint i = 0; i < contracts[scAddr].stateDeltaHashes.length; i++) {\n            if (contracts[scAddr].stateDeltaHashes[i] == stateDeltaHash) {\n                valid = true;\n                break;\n            }\n        }\n        return valid;\n    }\n\n    /**\n    * Store task record\n    *\n    */\n    function createTaskRecord(\n        bytes32 taskId,\n        uint fee,\n        address token,\n        uint tokenValue\n    )\n    public\n    {\n        require(tasks[taskId].sender == 0x0, \"Task already exist.\");\n\n        tasks[taskId].fee = fee;\n        tasks[taskId].token = token;\n        tasks[taskId].tokenValue = tokenValue;\n        tasks[taskId].sender = msg.sender;\n        tasks[taskId].status = TaskStatus.RecordCreated;\n\n        emit TaskRecordCreated(taskId, fee, token, tokenValue, msg.sender);\n    }\n\n    function createTaskRecords(\n        bytes32[] taskIds,\n        uint[] fees,\n        address[] tokens,\n        uint[] tokenValues\n    )\n    public\n    {\n        for (uint i = 0; i < taskIds.length; i++) {\n            require(tasks[taskIds[i]].sender == 0x0, \"Task already exist.\");\n\n            tasks[taskIds[i]].fee = fees[i];\n            tasks[taskIds[i]].token = tokens[i];\n            tasks[taskIds[i]].tokenValue = tokenValues[i];\n            tasks[taskIds[i]].sender = msg.sender;\n            tasks[taskIds[i]].status = TaskStatus.RecordCreated;\n        }\n        emit TaskRecordsCreated(taskIds, fees, tokens, tokenValues, msg.sender);\n    }\n\n    // Execute the encoded function in the specified contract\n    function executeCall(address to, uint256 value, bytes data)\n    internal\n    returns (bool success)\n    {\n        assembly {\n            success := call(gas, to, value, add(data, 0x20), mload(data), 0, 0)\n        }\n    }\n\n    function verifyReceipt(\n        address scAddr,\n        bytes32 taskId,\n        bytes32 inStateDeltaHash,\n        bytes32 outStateDeltaHash,\n        bytes ethCall,\n        bytes sig\n    )\n    internal\n    {\n        uint index = contracts[scAddr].stateDeltaHashes.length;\n        if (index == 0) {\n            require(inStateDeltaHash == 0x0, 'Invalid input state delta hash for empty state');\n        } else {\n            require(inStateDeltaHash == contracts[scAddr].stateDeltaHashes[index.sub(1)], 'Invalid input state delta hash');\n        }\n        contracts[scAddr].stateDeltaHashes.length++;\n        contracts[scAddr].stateDeltaHashes[index] = outStateDeltaHash;\n\n        // TODO: execute the Ethereum calls\n\n        // Build a hash to validate that the I/Os are matching\n        bytes32 hash = keccak256(abi.encodePacked(taskId, inStateDeltaHash, outStateDeltaHash, ethCall));\n\n        // The worker address is not a real Ethereum wallet address but\n        // one generated from its signing key\n        address workerAddr = hash.recover(sig);\n        require(workerAddr == workers[msg.sender].signer, \"Invalid signature.\");\n    }\n\n    /**\n    * Commit the computation task results on chain\n    */\n    function commitReceipt(\n        address scAddr,\n        bytes32 taskId,\n        bytes32 inStateDeltaHash,\n        bytes32 outStateDeltaHash,\n        bytes ethCall,\n        bytes sig\n    )\n    public\n    workerRegistered(msg.sender)\n    contractDeployed(scAddr)\n    {\n        require(tasks[taskId].status == TaskStatus.RecordCreated, 'Invalid task status');\n        verifyReceipt(scAddr, taskId, inStateDeltaHash, outStateDeltaHash, ethCall, sig);\n\n        tasks[taskId].proof = sig;\n        tasks[taskId].status = TaskStatus.ReceiptVerified;\n        emit ReceiptVerified(taskId, inStateDeltaHash, outStateDeltaHash, ethCall, sig);\n    }\n\n    function commitReceipts(\n        address scAddr,\n        bytes32[] taskIds,\n        bytes32[] inStateDeltaHashes,\n        bytes32[] outStateDeltaHashes,\n        bytes[] ethCalls,\n        bytes[] sigs\n    )\n    public\n    workerRegistered(msg.sender)\n    contractDeployed(scAddr)\n    {\n        for (uint i = 0; i < taskIds.length; i++) {\n            // TODO: consider aggregate signature\n            require(tasks[taskIds[i]].status == TaskStatus.RecordCreated, 'Invalid task status');\n            verifyReceipt(scAddr, taskIds[i], inStateDeltaHashes[i], outStateDeltaHashes[i], ethCalls[i], sigs[i]);\n\n            tasks[taskIds[i]].proof = sigs[i];\n            tasks[taskIds[i]].status = TaskStatus.ReceiptVerified;\n        }\n        emit ReceiptsVerified(taskIds, inStateDeltaHashes, outStateDeltaHashes, ethCalls, sigs);\n    }\n\n    // Verify the signature submitted while reparameterizing workers\n    function verifyParamsSig(uint256 seed, bytes sig)\n    internal\n    pure\n    returns (address)\n    {\n        bytes32 hash = keccak256(abi.encodePacked(seed));\n        address signer = hash.recover(sig);\n        return signer;\n    }\n\n    /**\n    * Reparameterizing workers with a new seed\n    * This should be called for each epoch by the Principal node\n    *\n    * @param seed The random integer generated by the enclave\n    * @param sig The random integer signed by the the principal node's enclave\n    */\n    function setWorkersParams(uint seed, bytes sig)\n    public\n    workerRegistered(msg.sender)\n    {\n        // Reparameterizing workers with a new seed\n        // This should be called for each epoch by the Principal node\n\n        // We assume that the Principal is always the first registered node\n        require(workers[msg.sender].signer == principal, \"Only the Principal can update the seed\");\n        // TODO: verify the principal sig\n\n        // Create a new workers parameters item for the specified seed.\n        // The workers parameters list is a sort of cache, it never grows beyond its limit.\n        // If the list is full, the new item will replace the item assigned to the lowest block number.\n        uint paramIndex = 0;\n        for (uint pi = 0; pi < workersParams.length; pi++) {\n            // Find an empty slot in the array, if full use the lowest block number\n            if (workersParams[pi].firstBlockNumber == 0) {\n                paramIndex = pi;\n                break;\n            } else if (workersParams[pi].firstBlockNumber < workersParams[paramIndex].firstBlockNumber) {\n                paramIndex = pi;\n            }\n        }\n        workersParams[paramIndex].firstBlockNumber = block.number;\n        workersParams[paramIndex].seed = seed;\n\n        // Copy the current worker list\n        uint workerIndex = 0;\n        for (uint wi = 0; wi < workerAddresses.length; wi++) {\n            if (workers[workerAddresses[wi]].balance >= stakingThreshold) {\n                workersParams[paramIndex].workers.length++;\n                workersParams[paramIndex].workers[workerIndex] = workerAddresses[wi];\n\n                workersParams[paramIndex].balances.length++;\n                workersParams[paramIndex].balances[workerIndex] = workers[workerAddresses[wi]].balance;\n\n                workerIndex = workerIndex.add(1);\n            }\n        }\n        emit WorkersParameterized(seed, block.number, workersParams[paramIndex].workers, workersParams[paramIndex].balances);\n    }\n\n    function getWorkerParamsIndex(uint blockNumber)\n    internal\n    view\n    returns (uint)\n    {\n        // The workers parameters for a given block number\n        int8 index = - 1;\n        for (uint i = 0; i < workersParams.length; i++) {\n            if (workersParams[i].firstBlockNumber <= blockNumber && (index == - 1 || workersParams[i].firstBlockNumber > workersParams[uint(index)].firstBlockNumber)) {\n                index = int8(i);\n            }\n        }\n        require(index != - 1, \"No workers parameters entry for specified block number\");\n        return uint(index);\n    }\n\n    function getWorkerParams(uint blockNumber)\n    public\n    view\n    returns (uint, uint, address[], uint[]) {\n        uint index = getWorkerParamsIndex(blockNumber);\n        WorkersParams memory params = workersParams[index];\n        return (params.firstBlockNumber, params.seed, params.workers, params.balances);\n    }\n\n    function compileTokens(uint paramIndex)\n    internal\n    view\n    returns (address[])\n    {\n        WorkersParams memory params = workersParams[paramIndex];\n        uint tokenCpt = 0;\n        for (uint i = 0; i < params.workers.length; i++) {\n            if (params.workers[i] != 0x0) {\n                tokenCpt = tokenCpt.add(params.balances[i]);\n            }\n        }\n        address[] memory tokens = new address[](tokenCpt);\n        uint tokenIndex = 0;\n        for (uint ia = 0; ia < params.workers.length; ia++) {\n            if (params.workers[ia] != 0x0) {\n                for (uint ib = 0; ib < params.balances[ia]; ib++) {\n                    tokens[tokenIndex] = params.workers[ia];\n                    tokenIndex = tokenIndex.add(1);\n                }\n            }\n        }\n        return tokens;\n    }\n\n    function getWorkerGroup(uint blockNumber, address scAddr)\n    public\n    view\n    returns (address[])\n    {\n        // Compile a list of selected workers for the block number and\n        // secret contract.\n        uint paramIndex = getWorkerParamsIndex(blockNumber);\n        address[] memory tokens = compileTokens(paramIndex);\n        WorkersParams memory params = workersParams[paramIndex];\n\n        address[] memory selectedWorkers = new address[](workerGroupSize);\n        uint nonce = 0;\n        for (uint it = 0; it < workerGroupSize; it++) {\n            do {\n                bytes32 hash = keccak256(abi.encodePacked(nonce, params.seed, blockNumber, scAddr));\n                uint index = uint256(hash) % tokens.length;\n                address worker = tokens[index];\n                bool dup = false;\n                for (uint id = 0; id < selectedWorkers.length; id++) {\n                    if (worker == selectedWorkers[id]) {\n                        dup = true;\n                        break;\n                    }\n                }\n                if (dup == false) {\n                    selectedWorkers[it] = worker;\n                }\n                nonce++;\n            }\n            while (selectedWorkers[it] == 0x0);\n        }\n        return selectedWorkers;\n    }\n\n    /**\n    * The worker parameters corresponding to the specified block number\n    *\n    * @param blockNumber The reference block number\n    */\n    function getWorkersParams(uint blockNumber)\n    public\n    view\n    returns (uint, uint, address[], address[])\n    {\n        // TODO: finalize implementation\n        uint firstBlockNumber = 0;\n        uint seed = 0;\n        address[] memory activeWorkers;\n        address[] memory activeContracts;\n        return (firstBlockNumber, seed, activeWorkers, activeContracts);\n    }\n\n    /**\n    * The RLP encoded report returned by the IAS server\n    *\n    * @param custodian The worker's custodian address\n    */\n    function getReport(address custodian)\n    public\n    view\n    workerRegistered(custodian)\n    returns (address, bytes)\n    {\n        // The RLP encoded report and signer's address for the specified worker\n        require(workers[custodian].signer != 0x0, \"Worker not registered\");\n        return (workers[custodian].signer, workers[custodian].report);\n    }\n}\n",
  "sourcePath": "/home/fredfortier/Code/Enigma/discovery/enigma-contract/contracts/Enigma.sol",
  "compiler": {
    "name": "solc",
    "version": "0.4.24+commit.e67f0147.Emscripten.clang"
  },
  "schemaVersion": "2.0.0",
  "updatedAt": "2018-10-16T03:22:22.704Z"
}