{
  "contractName": "Enigma",
  "abi": [
    {
      "constant": true,
      "inputs": [
        {
          "name": "",
          "type": "uint256"
        }
      ],
      "name": "workerAddresses",
      "outputs": [
        {
          "name": "",
          "type": "address"
        }
      ],
      "payable": false,
      "stateMutability": "view",
      "type": "function",
      "signature": "0x0a318da0"
    },
    {
      "constant": true,
      "inputs": [
        {
          "name": "",
          "type": "address"
        }
      ],
      "name": "workers",
      "outputs": [
        {
          "name": "signer",
          "type": "address"
        },
        {
          "name": "status",
          "type": "uint8"
        },
        {
          "name": "report",
          "type": "bytes"
        },
        {
          "name": "balance",
          "type": "uint256"
        }
      ],
      "payable": false,
      "stateMutability": "view",
      "type": "function",
      "signature": "0x4048a257"
    },
    {
      "constant": true,
      "inputs": [
        {
          "name": "",
          "type": "uint256"
        }
      ],
      "name": "scAddresses",
      "outputs": [
        {
          "name": "",
          "type": "address"
        }
      ],
      "payable": false,
      "stateMutability": "view",
      "type": "function",
      "signature": "0x5f0dd5bb"
    },
    {
      "constant": true,
      "inputs": [
        {
          "name": "",
          "type": "address"
        }
      ],
      "name": "contracts",
      "outputs": [
        {
          "name": "owner",
          "type": "address"
        },
        {
          "name": "codeHash",
          "type": "bytes32"
        },
        {
          "name": "status",
          "type": "uint8"
        }
      ],
      "payable": false,
      "stateMutability": "view",
      "type": "function",
      "signature": "0x69dc9ff3"
    },
    {
      "constant": true,
      "inputs": [],
      "name": "engToken",
      "outputs": [
        {
          "name": "",
          "type": "address"
        }
      ],
      "payable": false,
      "stateMutability": "view",
      "type": "function",
      "signature": "0x9489ad40"
    },
    {
      "constant": true,
      "inputs": [
        {
          "name": "",
          "type": "bytes32"
        }
      ],
      "name": "tasks",
      "outputs": [
        {
          "name": "fee",
          "type": "uint256"
        },
        {
          "name": "token",
          "type": "address"
        },
        {
          "name": "tokenValue",
          "type": "uint256"
        },
        {
          "name": "proof",
          "type": "bytes"
        },
        {
          "name": "sender",
          "type": "address"
        },
        {
          "name": "status",
          "type": "uint8"
        }
      ],
      "payable": false,
      "stateMutability": "view",
      "type": "function",
      "signature": "0xe579f500"
    },
    {
      "inputs": [
        {
          "name": "_tokenAddress",
          "type": "address"
        },
        {
          "name": "_principal",
          "type": "address"
        }
      ],
      "payable": false,
      "stateMutability": "nonpayable",
      "type": "constructor",
      "signature": "constructor"
    },
    {
      "anonymous": false,
      "inputs": [
        {
          "indexed": false,
          "name": "custodian",
          "type": "address"
        },
        {
          "indexed": false,
          "name": "signer",
          "type": "address"
        }
      ],
      "name": "Registered",
      "type": "event",
      "signature": "0x0a31ee9d46a828884b81003c8498156ea6aa15b9b54bdd0ef0b533d9eba57e55"
    },
    {
      "anonymous": false,
      "inputs": [
        {
          "indexed": false,
          "name": "sig",
          "type": "bytes"
        },
        {
          "indexed": false,
          "name": "hash",
          "type": "bytes32"
        },
        {
          "indexed": false,
          "name": "workerAddr",
          "type": "address"
        }
      ],
      "name": "ValidatedSig",
      "type": "event",
      "signature": "0xe36691ca52ee024e298e5c0ff07191b87f0ac571c01a7631db2d70d573d955cb"
    },
    {
      "anonymous": false,
      "inputs": [
        {
          "indexed": false,
          "name": "seed",
          "type": "uint256"
        },
        {
          "indexed": false,
          "name": "blockNumber",
          "type": "uint256"
        },
        {
          "indexed": false,
          "name": "workers",
          "type": "address[]"
        },
        {
          "indexed": false,
          "name": "balances",
          "type": "uint256[]"
        }
      ],
      "name": "WorkersParameterized",
      "type": "event",
      "signature": "0x7047379c64ccafb62f6625e6b2d8eb6e1b0e091fac56a11ab5e2fd896e4db1d0"
    },
    {
      "anonymous": false,
      "inputs": [
        {
          "indexed": false,
          "name": "taskId",
          "type": "bytes32"
        },
        {
          "indexed": false,
          "name": "fee",
          "type": "uint256"
        },
        {
          "indexed": false,
          "name": "token",
          "type": "address"
        },
        {
          "indexed": false,
          "name": "tokenValue",
          "type": "uint256"
        },
        {
          "indexed": false,
          "name": "sender",
          "type": "address"
        }
      ],
      "name": "TaskRecordCreated",
      "type": "event",
      "signature": "0x51364a5a527e38841b15c974f7924dad755bc9ce0d29701d7501a7bd297b787b"
    },
    {
      "anonymous": false,
      "inputs": [
        {
          "indexed": false,
          "name": "taskIds",
          "type": "bytes32[]"
        },
        {
          "indexed": false,
          "name": "fees",
          "type": "uint256[]"
        },
        {
          "indexed": false,
          "name": "tokens",
          "type": "address[]"
        },
        {
          "indexed": false,
          "name": "tokenValues",
          "type": "uint256[]"
        },
        {
          "indexed": false,
          "name": "sender",
          "type": "address"
        }
      ],
      "name": "TaskRecordsCreated",
      "type": "event",
      "signature": "0xcb8afab3437be2f96ef2a2932eb02d02fd765bfe8be7c1f5a58edd6452317dde"
    },
    {
      "anonymous": false,
      "inputs": [
        {
          "indexed": false,
          "name": "taskId",
          "type": "bytes32"
        },
        {
          "indexed": false,
          "name": "inStateDeltaHash",
          "type": "bytes32"
        },
        {
          "indexed": false,
          "name": "outStateDeltaHash",
          "type": "bytes32"
        },
        {
          "indexed": false,
          "name": "ethCall",
          "type": "bytes"
        },
        {
          "indexed": false,
          "name": "sig",
          "type": "bytes"
        }
      ],
      "name": "ReceiptVerified",
      "type": "event",
      "signature": "0x665329bb9a4e1062edc215d9c5ab57fa54c4c88e3dfbcc68e0cd92fdd010fa6e"
    },
    {
      "anonymous": false,
      "inputs": [
        {
          "indexed": false,
          "name": "taskIds",
          "type": "bytes32[]"
        },
        {
          "indexed": false,
          "name": "inStateDeltaHashes",
          "type": "bytes32[]"
        },
        {
          "indexed": false,
          "name": "outStateDeltaHashes",
          "type": "bytes32[]"
        },
        {
          "indexed": false,
          "name": "ethCall",
          "type": "bytes"
        },
        {
          "indexed": false,
          "name": "sig",
          "type": "bytes"
        }
      ],
      "name": "ReceiptsVerified",
      "type": "event",
      "signature": "0x49f3b610d2b607252a8901e3c134022c7a6330e5f6525f0ed84dd4a127478958"
    },
    {
      "anonymous": false,
      "inputs": [
        {
          "indexed": false,
          "name": "from",
          "type": "address"
        },
        {
          "indexed": false,
          "name": "value",
          "type": "uint256"
        }
      ],
      "name": "DepositSuccessful",
      "type": "event",
      "signature": "0xb3ef81558ed1a50072a492984535a009da8b129c749500b387f1e5f4886bdde5"
    },
    {
      "anonymous": false,
      "inputs": [
        {
          "indexed": false,
          "name": "scAddr",
          "type": "address"
        },
        {
          "indexed": false,
          "name": "codeHash",
          "type": "bytes32"
        }
      ],
      "name": "SecretContractDeployed",
      "type": "event",
      "signature": "0xff27b3bb5dfb682b066cdace68b5dda84d03c3d2eadac54284aaec44cbcff516"
    },
    {
      "constant": false,
      "inputs": [
        {
          "name": "_signer",
          "type": "address"
        },
        {
          "name": "_report",
          "type": "bytes"
        }
      ],
      "name": "register",
      "outputs": [],
      "payable": false,
      "stateMutability": "nonpayable",
      "type": "function",
      "signature": "0x24b8fbf6"
    },
    {
      "constant": false,
      "inputs": [
        {
          "name": "_custodian",
          "type": "address"
        },
        {
          "name": "_amount",
          "type": "uint256"
        }
      ],
      "name": "deposit",
      "outputs": [],
      "payable": false,
      "stateMutability": "nonpayable",
      "type": "function",
      "signature": "0x47e7ef24"
    },
    {
      "constant": false,
      "inputs": [
        {
          "name": "_scAddr",
          "type": "address"
        },
        {
          "name": "_codeHash",
          "type": "bytes32"
        },
        {
          "name": "_owner",
          "type": "address"
        },
        {
          "name": "_sig",
          "type": "bytes"
        }
      ],
      "name": "deploySecretContract",
      "outputs": [],
      "payable": false,
      "stateMutability": "nonpayable",
      "type": "function",
      "signature": "0xd3b524c4"
    },
    {
      "constant": true,
      "inputs": [
        {
          "name": "_scAddr",
          "type": "address"
        }
      ],
      "name": "isDeployed",
      "outputs": [
        {
          "name": "",
          "type": "bool"
        }
      ],
      "payable": false,
      "stateMutability": "view",
      "type": "function",
      "signature": "0x90184b02"
    },
    {
      "constant": true,
      "inputs": [
        {
          "name": "_scAddr",
          "type": "address"
        }
      ],
      "name": "getCodeHash",
      "outputs": [
        {
          "name": "",
          "type": "bytes32"
        }
      ],
      "payable": false,
      "stateMutability": "view",
      "type": "function",
      "signature": "0x81ea4408"
    },
    {
      "constant": true,
      "inputs": [],
      "name": "countSecretContracts",
      "outputs": [
        {
          "name": "",
          "type": "uint256"
        }
      ],
      "payable": false,
      "stateMutability": "view",
      "type": "function",
      "signature": "0x75bbf75b"
    },
    {
      "constant": true,
      "inputs": [
        {
          "name": "_start",
          "type": "uint256"
        },
        {
          "name": "_stop",
          "type": "uint256"
        }
      ],
      "name": "getSecretContractAddresses",
      "outputs": [
        {
          "name": "",
          "type": "address[]"
        }
      ],
      "payable": false,
      "stateMutability": "view",
      "type": "function",
      "signature": "0x8e055b8b"
    },
    {
      "constant": true,
      "inputs": [
        {
          "name": "_scAddr",
          "type": "address"
        }
      ],
      "name": "countStateDeltas",
      "outputs": [
        {
          "name": "",
          "type": "uint256"
        }
      ],
      "payable": false,
      "stateMutability": "view",
      "type": "function",
      "signature": "0x84062df7"
    },
    {
      "constant": true,
      "inputs": [
        {
          "name": "_scAddr",
          "type": "address"
        },
        {
          "name": "_index",
          "type": "uint256"
        }
      ],
      "name": "getStateDeltaHash",
      "outputs": [
        {
          "name": "",
          "type": "bytes32"
        }
      ],
      "payable": false,
      "stateMutability": "view",
      "type": "function",
      "signature": "0x44409496"
    },
    {
      "constant": true,
      "inputs": [
        {
          "name": "_scAddr",
          "type": "address"
        },
        {
          "name": "_start",
          "type": "uint256"
        },
        {
          "name": "_stop",
          "type": "uint256"
        }
      ],
      "name": "getStateDeltaHashes",
      "outputs": [
        {
          "name": "",
          "type": "bytes32[]"
        }
      ],
      "payable": false,
      "stateMutability": "view",
      "type": "function",
      "signature": "0x05e62db6"
    },
    {
      "constant": true,
      "inputs": [
        {
          "name": "_scAddr",
          "type": "address"
        },
        {
          "name": "_stateDeltaHash",
          "type": "bytes32"
        }
      ],
      "name": "isValidDeltaHash",
      "outputs": [
        {
          "name": "",
          "type": "bool"
        }
      ],
      "payable": false,
      "stateMutability": "view",
      "type": "function",
      "signature": "0x7b5b2ce3"
    },
    {
      "constant": false,
      "inputs": [
        {
          "name": "_taskId",
          "type": "bytes32"
        },
        {
          "name": "_fee",
          "type": "uint256"
        },
        {
          "name": "_token",
          "type": "address"
        },
        {
          "name": "_tokenValue",
          "type": "uint256"
        }
      ],
      "name": "createTaskRecord",
      "outputs": [],
      "payable": false,
      "stateMutability": "nonpayable",
      "type": "function",
      "signature": "0xd28cf5c1"
    },
    {
      "constant": false,
      "inputs": [
        {
          "name": "_taskIds",
          "type": "bytes32[]"
        },
        {
          "name": "_fees",
          "type": "uint256[]"
        },
        {
          "name": "_tokens",
          "type": "address[]"
        },
        {
          "name": "_tokenValues",
          "type": "uint256[]"
        }
      ],
      "name": "createTaskRecords",
      "outputs": [],
      "payable": false,
      "stateMutability": "nonpayable",
      "type": "function",
      "signature": "0xa85d84ef"
    },
    {
      "constant": false,
      "inputs": [
        {
          "name": "_scAddr",
          "type": "address"
        },
        {
          "name": "_taskId",
          "type": "bytes32"
        },
        {
          "name": "_inStateDeltaHash",
          "type": "bytes32"
        },
        {
          "name": "_outStateDeltaHash",
          "type": "bytes32"
        },
        {
          "name": "_ethCall",
          "type": "bytes"
        },
        {
          "name": "_sig",
          "type": "bytes"
        }
      ],
      "name": "commitReceipt",
      "outputs": [],
      "payable": false,
      "stateMutability": "nonpayable",
      "type": "function",
      "signature": "0x5956efef"
    },
    {
      "constant": false,
      "inputs": [
        {
          "name": "_scAddr",
          "type": "address"
        },
        {
          "name": "_taskIds",
          "type": "bytes32[]"
        },
        {
          "name": "_inStateDeltaHashes",
          "type": "bytes32[]"
        },
        {
          "name": "_outStateDeltaHashes",
          "type": "bytes32[]"
        },
        {
          "name": "_ethCall",
          "type": "bytes"
        },
        {
          "name": "_sig",
          "type": "bytes"
        }
      ],
      "name": "commitReceipts",
      "outputs": [],
      "payable": false,
      "stateMutability": "nonpayable",
      "type": "function",
      "signature": "0x4d0edeaa"
    },
    {
      "constant": false,
      "inputs": [
        {
          "name": "_seed",
          "type": "uint256"
        },
        {
          "name": "_sig",
          "type": "bytes"
        }
      ],
      "name": "setWorkersParams",
      "outputs": [],
      "payable": false,
      "stateMutability": "nonpayable",
      "type": "function",
      "signature": "0x2873e73c"
    },
    {
      "constant": true,
      "inputs": [
        {
          "name": "_blockNumber",
          "type": "uint256"
        }
      ],
      "name": "getWorkerParams",
      "outputs": [
        {
          "name": "",
          "type": "uint256"
        },
        {
          "name": "",
          "type": "uint256"
        },
        {
          "name": "",
          "type": "address[]"
        },
        {
          "name": "",
          "type": "uint256[]"
        }
      ],
      "payable": false,
      "stateMutability": "view",
      "type": "function",
      "signature": "0x9836ca31"
    },
    {
      "constant": true,
      "inputs": [
        {
          "name": "_blockNumber",
          "type": "uint256"
        },
        {
          "name": "_scAddr",
          "type": "address"
        }
      ],
      "name": "getWorkerGroup",
      "outputs": [
        {
          "name": "",
          "type": "address[]"
        }
      ],
      "payable": false,
      "stateMutability": "view",
      "type": "function",
      "signature": "0xd9611203"
    },
    {
      "constant": true,
      "inputs": [
        {
          "name": "_blockNumber",
          "type": "uint256"
        }
      ],
      "name": "getWorkersParams",
      "outputs": [
        {
          "name": "",
          "type": "uint256"
        },
        {
          "name": "",
          "type": "uint256"
        },
        {
          "name": "",
          "type": "address[]"
        },
        {
          "name": "",
          "type": "address[]"
        }
      ],
      "payable": false,
      "stateMutability": "view",
      "type": "function",
      "signature": "0x59c91a12"
    },
    {
      "constant": true,
      "inputs": [
        {
          "name": "_custodian",
          "type": "address"
        }
      ],
      "name": "getReport",
      "outputs": [
        {
          "name": "",
          "type": "address"
        },
        {
          "name": "",
          "type": "bytes"
        }
      ],
      "payable": false,
      "stateMutability": "view",
      "type": "function",
      "signature": "0xa3bdae3e"
    }
  ],
  "bytecode": "0x60806040523480156200001157600080fd5b50604051604080620040ac833981018060405262000033919081019062000082565b60008054600160a060020a03938416600160a060020a03199182161790915560018054929093169116178155601b556005601c55620000cd565b60006200007b8251620000c1565b9392505050565b600080604083850312156200009657600080fd5b6000620000a485856200006d565b9250506020620000b7858286016200006d565b9150509250929050565b600160a060020a031690565b613fcf80620000dd6000396000f3006080604052600436106101535763ffffffff7c010000000000000000000000000000000000000000000000000000000060003504166305e62db681146101585780630a318da01461018e57806324b8fbf6146101bb5780632873e73c146101dd5780634048a257146101fd578063444094961461022d57806347e7ef241461025a5780634d0edeaa1461027a5780635956efef1461029a57806359c91a12146102ba5780635f0dd5bb146102ea57806369dc9ff31461030a57806375bbf75b146103395780637b5b2ce31461034e57806381ea44081461037b57806384062df71461039b5780638e055b8b146103bb57806390184b02146103e85780639489ad40146104085780639836ca311461042a578063a3bdae3e1461045a578063a85d84ef14610488578063d28cf5c1146104a8578063d3b524c4146104c8578063d9611203146104e8578063e579f50014610508575b600080fd5b34801561016457600080fd5b5061017861017336600461324c565b61053a565b6040516101859190613adf565b60405180910390f35b34801561019a57600080fd5b506101ae6101a936600461336b565b61066e565b60405161018591906139ba565b3480156101c757600080fd5b506101db6101d6366004613204565b610696565b005b3480156101e957600080fd5b506101db6101f836600461342c565b6107ca565b34801561020957600080fd5b5061021d610218366004612fd4565b610bce565b6040516101859493929190613a89565b34801561023957600080fd5b5061024d6102483660046130f9565b610c92565b6040516101859190613bd0565b34801561026657600080fd5b506101db6102753660046130f9565b610d1c565b34801561028657600080fd5b506101db610295366004612ffa565b611021565b3480156102a657600080fd5b506101db6102b53660046131ac565b6111d8565b3480156102c657600080fd5b506102da6102d536600461336b565b61141e565b6040516101859493929190613dc3565b3480156102f657600080fd5b506101ae61030536600461336b565b61142b565b34801561031657600080fd5b5061032a610325366004612fd4565b611439565b604051610185939291906139fe565b34801561034557600080fd5b5061024d611467565b34801561035a57600080fd5b5061036e6103693660046130f9565b61146e565b6040516101859190613bc2565b34801561038757600080fd5b5061024d610396366004612fd4565b611548565b3480156103a757600080fd5b5061024d6103b6366004612fd4565b6115b7565b3480156103c757600080fd5b506103db6103d636600461344b565b611626565b6040516101859190613ace565b3480156103f457600080fd5b5061036e610403366004612fd4565b6116d8565b34801561041457600080fd5b5061041d61171d565b6040516101859190613c8f565b34801561043657600080fd5b5061044a61044536600461336b565b61172c565b6040516101859493929190613e04565b34801561046657600080fd5b5061047a610475366004612fd4565b611857565b604051610185929190613a26565b34801561049457600080fd5b506101db6104a3366004613299565b611a68565b3480156104b457600080fd5b506101db6104c3366004613389565b611cde565b3480156104d457600080fd5b506101db6104e3366004613133565b611dbe565b3480156104f457600080fd5b506103db6105033660046133fc565b611fe7565b34801561051457600080fd5b5061052861052336600461336b565b612307565b60405161018596959493929190613d6d565b606080600080866001600160a060020a0382166000908152601a602052604090206003015460ff16600181111561056d57fe5b146105965760405160e560020a62461bcd02815260040161058d90613d3d565b60405180910390fd5b8515156105bc57600160a060020a0388166000908152601a602052604090206002015495505b6105cc868863ffffffff6123e116565b6040519080825280602002602001820160405280156105f5578160200160208202803883390190505b509350600092508691505b8582101561066257600160a060020a0388166000908152601a6020526040902060020180548390811061062f57fe5b9060005260206000200154848481518110151561064857fe5b602090810290910101526001928301929190910190610600565b50919695505050505050565b601680548290811061067c57fe5b600091825260209091200154600160a060020a0316905081565b33600090815260186020526040812054600160a060020a0316151561070a5750601680549081906106ca9060018301612cd9565b50336016828154811015156106db57fe5b9060005260206000200160006101000a815481600160a060020a030219169083600160a060020a031602179055505b3360009081526018602090815260408220805473ffffffffffffffffffffffffffffffffffffffff1916600160a060020a0387161781556002810192909255835161075b9260010191850190612d02565b503360008181526018602052604090819020805474ff0000000000000000000000000000000000000000191660a060020a179055517f0a31ee9d46a828884b81003c8498156ea6aa15b9b54bdd0ef0b533d9eba57e55916107bd9186906139c8565b60405180910390a1505050565b600080600080336107d9612d80565b600160a060020a0382811660009081526018602090815260409182902082516080810184528154948516815260a060020a90940460ff1684830152600180820180548551600261010094831615949094026000190190911692909204601f810185900485028301850186528083529294860193919290918301828280156108a15780601f10610876576101008083540402835291602001916108a1565b820191906000526020600020905b81548152906001019060200180831161088457829003601f168201915b5050505050815260200160028201548152505090506000816020015160ff161115156108e25760405160e560020a62461bcd02815260040161058d90613c9d565b60015433600090815260186020526040902054600160a060020a039081169116146109225760405160e560020a62461bcd02815260040161058d90613d1d565b60009550600094505b600585101561098d576002856005811061094157fe5b600402015415156109545784955061098d565b6002866005811061096157fe5b60040201546002866005811061097357fe5b60040201541015610982578495505b60019094019361092b565b436002876005811061099b57fe5b600402015587600287600581106109ae57fe5b600402016003018190555060009350600092505b601654831015610b5f57601b54601860006016868154811015156109e257fe5b6000918252602080832090910154600160a060020a0316835282019290925260400190206002015410610b545760028660058110610a1c57fe5b600402016001018054809190600101610a359190612cd9565b506016805484908110610a4457fe5b600091825260209091200154600160a060020a031660028760058110610a6657fe5b6004020160010185815481101515610a7a57fe5b6000918252602090912001805473ffffffffffffffffffffffffffffffffffffffff1916600160a060020a039290921691909117905560028660058110610abd57fe5b600402016002018054809190600101610ad69190612cd9565b5060186000601685815481101515610aea57fe5b6000918252602080832090910154600160a060020a031683528201929092526040019020600290810154908760058110610b2057fe5b6004020160020185815481101515610b3457fe5b600091825260209091200155610b5184600163ffffffff6123f816565b93505b6001909201916109c2565b7f7047379c64ccafb62f6625e6b2d8eb6e1b0e091fac56a11ab5e2fd896e4db1d0884360028960058110610b8f57fe5b6004020160010160028a600581101515610ba557fe5b60040201600201604051610bbc9493929190613e45565b60405180910390a15050505050505050565b6018602090815260009182526040918290208054600180830180548651600261010094831615949094026000190190911692909204601f8101869004860283018601909652858252600160a060020a0383169560a060020a90930460ff169491929091830182828015610c825780601f10610c5757610100808354040283529160200191610c82565b820191906000526020600020905b815481529060010190602001808311610c6557829003601f168201915b5050505050908060020154905084565b6000826001600160a060020a0382166000908152601a602052604090206003015460ff166001811115610cc157fe5b14610ce15760405160e560020a62461bcd02815260040161058d90613d3d565b600160a060020a0384166000908152601a60205260409020600201805484908110610d0857fe5b906000526020600020015491505092915050565b81610d25612d80565b600160a060020a0382811660009081526018602090815260409182902082516080810184528154948516815260a060020a90940460ff1684830152600180820180548551600261010094831615949094026000190190911692909204601f81018590048502830185018652808352929486019391929091830182828015610ded5780601f10610dc257610100808354040283529160200191610ded565b820191906000526020600020905b815481529060010190602001808311610dd057829003601f168201915b5050505050815260200160028201548152505090506000816020015160ff16111515610e2e5760405160e560020a62461bcd02815260040161058d90613c9d565b6000546040517fdd62ed3e0000000000000000000000000000000000000000000000000000000081528491600160a060020a03169063dd62ed3e90610e799088903090600401613a46565b602060405180830381600087803b158015610e9357600080fd5b505af1158015610ea7573d6000803e3d6000fd5b505050506040513d601f19601f82011682018060405250610ecb91908101906133de565b1015610eec5760405160e560020a62461bcd02815260040161058d90613cad565b6000546040517f23b872dd000000000000000000000000000000000000000000000000000000008152600160a060020a03909116906323b872dd90610f3990879030908890600401613a61565b602060405180830381600087803b158015610f5357600080fd5b505af1158015610f67573d6000803e3d6000fd5b505050506040513d601f19601f82011682018060405250610f8b919081019061334d565b1515610f9657600080fd5b600160a060020a038416600090815260186020526040902060020154610fc2908463ffffffff6123f816565b600160a060020a0385166000908152601860205260409081902060020191909155517fb3ef81558ed1a50072a492984535a009da8b129c749500b387f1e5f4886bdde59061101390869086906139e3565b60405180910390a150505050565b3361102a612d80565b600160a060020a0382811660009081526018602090815260409182902082516080810184528154948516815260a060020a90940460ff1684830152600180820180548551600261010094831615949094026000190190911692909204601f810185900485028301850186528083529294860193919290918301828280156110f25780601f106110c7576101008083540402835291602001916110f2565b820191906000526020600020905b8154815290600101906020018083116110d557829003601f168201915b5050505050815260200160028201548152505090506000816020015160ff161115156111335760405160e560020a62461bcd02815260040161058d90613c9d565b876001600160a060020a0382166000908152601a602052604090206003015460ff16600181111561116057fe5b146111805760405160e560020a62461bcd02815260040161058d90613d3d565b61118e898989898989612405565b7f49f3b610d2b607252a8901e3c134022c7a6330e5f6525f0ed84dd4a12747895888888888886040516111c5959493929190613af0565b60405180910390a1505050505050505050565b336111e1612d80565b600160a060020a0382811660009081526018602090815260409182902082516080810184528154948516815260a060020a90940460ff1684830152600180820180548551600261010094831615949094026000190190911692909204601f810185900485028301850186528083529294860193919290918301828280156112a95780601f1061127e576101008083540402835291602001916112a9565b820191906000526020600020905b81548152906001019060200180831161128c57829003601f168201915b5050505050815260200160028201548152505090506000816020015160ff161115156112ea5760405160e560020a62461bcd02815260040161058d90613c9d565b876001600160a060020a0382166000908152601a602052604090206003015460ff16600181111561131757fe5b146113375760405160e560020a62461bcd02815260040161058d90613d3d565b6000808981526019602052604090206004015460a060020a900460ff16600181111561135f57fe5b1461137f5760405160e560020a62461bcd02815260040161058d90613ccd565b61138d8989898989896126ea565b600088815260196020908152604090912085516113b292600390920191870190612d02565b5060008881526019602052604090819020600401805474ff0000000000000000000000000000000000000000191660a060020a179055517f665329bb9a4e1062edc215d9c5ab57fa54c4c88e3dfbcc68e0cd92fdd010fa6e906111c5908a908a908a908a908a90613bde565b6000806060809193509193565b601780548290811061067c57fe5b601a60205260009081526040902080546001820154600390920154600160a060020a03909116919060ff1683565b6017545b90565b60008080846001600160a060020a0382166000908152601a602052604090206003015460ff16600181111561149f57fe5b146114bf5760405160e560020a62461bcd02815260040161058d90613d3d565b60009250600091505b600160a060020a0386166000908152601a602052604090206002015482101561153b57600160a060020a0386166000908152601a6020526040902060020180548691908490811061151557fe5b6000918252602090912001541415611530576001925061153b565b6001909101906114c8565b8293505b50505092915050565b6000816001600160a060020a0382166000908152601a602052604090206003015460ff16600181111561157757fe5b146115975760405160e560020a62461bcd02815260040161058d90613d3d565b5050600160a060020a03166000908152601a602052604090206001015490565b6000816001600160a060020a0382166000908152601a602052604090206003015460ff1660018111156115e657fe5b146116065760405160e560020a62461bcd02815260040161058d90613d3d565b5050600160a060020a03166000908152601a602052604090206002015490565b6060806000808415156116395760175494505b611649858763ffffffff6123e116565b604051908082528060200260200182016040528015611672578160200160208202803883390190505b509250600091508590505b8481101561153b57601780548290811061169357fe5b6000918252602090912001548351600160a060020a03909116908490849081106116b957fe5b600160a060020a0390921660209283029091019091015260010161167d565b60006001600160a060020a0383166000908152601a602052604090206003015460ff16600181111561170657fe5b141561171457506001611718565b5060005b919050565b600054600160a060020a031681565b600080606080600061173c612db5565b611745876128f7565b91506002826005811061175457fe5b600402016080604051908101604052908160008201548152602001600182018054806020026020016040519081016040528092919081815260200182805480156117c757602002820191906000526020600020905b8154600160a060020a031681526001909101906020018083116117a9575b505050505081526020016002820180548060200260200160405190810160405280929190818152602001828054801561181f57602002820191906000526020600020905b81548152602001906001019080831161180b575b5050509183525050600391909101546020918201528151606083015191830151604090930151909a9199509197509095509350505050565b6000606082611864612d80565b600160a060020a0382811660009081526018602090815260409182902082516080810184528154948516815260a060020a90940460ff1684830152600180820180548551600261010094831615949094026000190190911692909204601f8101859004850283018501865280835292948601939192909183018282801561192c5780601f106119015761010080835404028352916020019161192c565b820191906000526020600020905b81548152906001019060200180831161190f57829003601f168201915b5050505050815260200160028201548152505090506000816020015160ff1611151561196d5760405160e560020a62461bcd02815260040161058d90613c9d565b600160a060020a038086166000908152601860205260409020541615156119a95760405160e560020a62461bcd02815260040161058d90613cfd565b600160a060020a038581166000908152601860209081526040918290208054600191820180548551600261010095831615959095026000190190911693909304601f8101859004850284018501909552848352941693929091839190830182828015611a565780601f10611a2b57610100808354040283529160200191611a56565b820191906000526020600020905b815481529060010190602001808311611a3957829003601f168201915b50505050509050935093505050915091565b60005b8451811015611c9857601960008683815181101515611a8657fe5b6020908102909101810151825281019190915260400160002060040154600160a060020a031615611acc5760405160e560020a62461bcd02815260040161058d90613d2d565b8381815181101515611ada57fe5b90602001906020020151601960008784815181101515611af657fe5b60209081029091018101518252810191909152604001600020558251839082908110611b1e57fe5b90602001906020020151601960008784815181101515611b3a57fe5b6020908102919091018101518252810191909152604001600020600101805473ffffffffffffffffffffffffffffffffffffffff1916600160a060020a03929092169190911790558151829082908110611b9057fe5b90602001906020020151601960008784815181101515611bac57fe5b90602001906020020151600019166000191681526020019081526020016000206002018190555033601960008784815181101515611be657fe5b60209081029190910181015182528101919091526040016000908120600401805473ffffffffffffffffffffffffffffffffffffffff1916600160a060020a03939093169290921790915585516019908290889085908110611c4457fe5b60209081029091018101518252810191909152604001600020600401805474ff0000000000000000000000000000000000000000191660a060020a836001811115611c8b57fe5b0217905550600101611a6b565b7fcb8afab3437be2f96ef2a2932eb02d02fd765bfe8be7c1f5a58edd6452317dde8585858533604051611ccf959493929190613b5c565b60405180910390a15050505050565b600084815260196020526040902060040154600160a060020a031615611d195760405160e560020a62461bcd02815260040161058d90613d2d565b60008481526019602052604090819020848155600181018054600160a060020a03861673ffffffffffffffffffffffffffffffffffffffff199182161790915560028201849055600490910180549091163390811774ff0000000000000000000000000000000000000000191690915590517f51364a5a527e38841b15c974f7924dad755bc9ce0d29701d7501a7bd297b787b91611013918791879187918791613c18565b33611dc7612d80565b600160a060020a0382811660009081526018602090815260409182902082516080810184528154948516815260a060020a90940460ff1684830152600180820180548551600261010094831615949094026000190190911692909204601f81018590048502830185018652808352929486019391929091830182828015611e8f5780601f10611e6457610100808354040283529160200191611e8f565b820191906000526020600020905b815481529060010190602001808311611e7257829003601f168201915b5050505050815260200160028201548152505090506000816020015160ff16111515611ed05760405160e560020a62461bcd02815260040161058d90613c9d565b600160a060020a0386166000908152601a602052604081206003015460ff166001811115611efa57fe5b14611f1a5760405160e560020a62461bcd02815260040161058d90613cbd565b600160a060020a038681166000818152601a6020526040808220805494891673ffffffffffffffffffffffffffffffffffffffff1995861617815560018082018b90556003909101805460ff1916821790556017805491820181559092527fc624b66cc0138b8fabc209247f72d758e1cf3343756d543badbf24212bed8c159091018054909316909117909155517fff27b3bb5dfb682b066cdace68b5dda84d03c3d2eadac54284aaec44cbcff51690611fd790889088906139e3565b60405180910390a1505050505050565b606060006060611ff5612db5565b6060600080600080600080600061200b8e6128f7565b9a506120168b61299f565b995060028b6005811061202557fe5b6004020160806040519081016040529081600082015481526020016001820180548060200260200160405190810160405280929190818152602001828054801561209857602002820191906000526020600020905b8154600160a060020a0316815260019091019060200180831161207a575b50505050508152602001600282018054806020026020016040519081016040528092919081815260200182805480156120f057602002820191906000526020600020905b8154815260200190600101908083116120dc575b505050505081526020016003820154815250509850601c54604051908082528060200260200182016040528015612131578160200160208202803883390190505b50975060009650600095505b601c548610156122f5575b8689606001518a600001518f6040516020018085815260200184815260200183815260200182600160a060020a0316600160a060020a03166c010000000000000000000000000281526014019450505050506040516020818303038152906040526040518082805190602001908083835b602083106121d85780518252601f1990920191602091820191016121b9565b6001836020036101000a038019825116818451168082178552505050505050905001915050604051809103902094508951856001900481151561221757fe5b069350898481518110151561222857fe5b90602001906020020151925060009150600090505b875181101561228857878181518110151561225457fe5b90602001906020020151600160a060020a031683600160a060020a031614156122805760019150612288565b60010161223d565b8115156122b65782888781518110151561229e57fe5b600160a060020a039092166020928302909101909101525b87516001909701968890879081106122ca57fe5b90602001906020020151600160a060020a0316600014156122ea57612148565b60019095019461213d565b50959c9b505050505050505050505050565b601960209081526000918252604091829020805460018083015460028085015460038601805489516101009682161596909602600019011692909204601f81018890048802850188019098528784529396600160a060020a03909216959394939091908301828280156123bb5780601f10612390576101008083540402835291602001916123bb565b820191906000526020600020905b81548152906001019060200180831161239e57829003601f168201915b50505060049093015491925050600160a060020a0381169060ff60a060020a9091041686565b6000828211156123ed57fe5b508082035b92915050565b818101828110156123f257fe5b600160a060020a0386166000908152601a602052604081206002015490808215156124685786600081518110151561243957fe5b60209081029091010151156124635760405160e560020a62461bcd02815260040161058d90613ced565b6124e1565b600160a060020a0389166000908152601a6020526040902060020161249484600163ffffffff6123e116565b8154811061249e57fe5b600091825260208220015488519091899181106124b757fe5b60209081029091010151146124e15760405160e560020a62461bcd02815260040161058d90613cdd565b600091505b87518210156125bd576000601960008a8581518110151561250357fe5b602090810290910181015182528101919091526040016000206004015460ff60a060020a90910416600181111561253657fe5b146125565760405160e560020a62461bcd02815260040161058d90613ccd565b60008211156125b257856001830381518110151561257057fe5b60209081029091010151875188908490811061258857fe5b60209081029091010151146125b25760405160e560020a62461bcd02815260040161058d90613d0d565b6001909101906124e6565b5060005b87518110156126df57600160a060020a0389166000908152601a6020526040902086516002909101908790839081106125f657fe5b602090810290910181015182546001818101855560009485529290932090920191909155885161262b9163ffffffff6123e116565b8114156126775783601960008a8481518110151561264557fe5b60209081029091018101518252818101929092526040016000208251612675936003909201929190910190612d02565b505b6001601960008a8481518110151561268b57fe5b60209081029091018101518252810191909152604001600020600401805474ff0000000000000000000000000000000000000000191660a060020a8360018111156126d257fe5b02179055506001016125c1565b505050505050505050565b600160a060020a0386166000908152601a602052604081206002015490808215156127355786156127305760405160e560020a62461bcd02815260040161058d90613ced565b612798565b600160a060020a0389166000908152601a6020526040902060020161276184600163ffffffff6123e116565b8154811061276b57fe5b60009182526020909120015487146127985760405160e560020a62461bcd02815260040161058d90613cdd565b600160a060020a0389166000908152601a6020908152604080832060020180546001810182559084529282902090920188905581518082018b81529281018a90526060810189905287518b938b938b938b936080909101918401908083835b602083106128165780518252601f1990920191602091820191016127f7565b6001836020036101000a0380198251168184511680821785525050505050509050019450505050506040516020818303038152906040526040518082805190602001908083835b6020831061287c5780518252601f19909201916020918201910161285d565b5181516020939093036101000a6000190180199091169216919091179052604051920182900390912094506128b79250849150869050612c1c565b33600090815260186020526040902054909150600160a060020a038083169116146126df5760405160e560020a62461bcd02815260040161058d90613d4d565b6000600019815b600581101561296c57836002826005811061291557fe5b60040201541180159061295b57508160000b600019148061295b57506002600083900b6005811061294257fe5b60040201546002826005811061295457fe5b6004020154115b15612964578091505b6001016128fe565b600019600083900b14156129955760405160e560020a62461bcd02815260040161058d90613d5d565b5060000b92915050565b60606129a9612db5565b6000806060818080600289600581106129be57fe5b60040201608060405190810160405290816000820154815260200160018201805480602002602001604051908101604052809291908181526020018280548015612a3157602002820191906000526020600020905b8154600160a060020a03168152600190910190602001808311612a13575b5050505050815260200160028201805480602002602001604051908101604052809291908181526020018280548015612a8957602002820191906000526020600020905b815481526020019060010190808311612a75575b50505050508152602001600382015481525050965060009550600094505b866020015151851015612b17576020870151805186908110612ac557fe5b60209081029091010151600160a060020a031615612b0c57612b09876040015186815181101515612af257fe5b60209081029091010151879063ffffffff6123f816565b95505b600190940193612aa7565b85604051908082528060200260200182016040528015612b41578160200160208202803883390190505b50935060009250600091505b866020015151821015612c0f576020870151805183908110612b6b57fe5b60209081029091010151600160a060020a031615612c04575060005b6040870151805183908110612b9857fe5b90602001906020020151811015612c04576020870151805183908110612bba57fe5b906020019060200201518484815181101515612bd257fe5b600160a060020a03909216602092830290910190910152612bfa83600163ffffffff6123f816565b9250600101612b87565b600190910190612b4d565b5091979650505050505050565b60008060008084516041141515612c36576000935061153f565b50505060208201516040830151606084015160001a601b60ff82161015612c5b57601b015b8060ff16601b14158015612c7357508060ff16601c14155b15612c81576000935061153f565b60018682858560405160008152602001604052604051612ca49493929190613c5a565b60206040516020810390808403906000865af1158015612cc8573d6000803e3d6000fd5b50505060206040510351935061153f565b815481835581811115612cfd57600083815260209020612cfd918101908301612dde565b505050565b828054600181600116156101000203166002900490600052602060002090601f016020900481019282601f10612d4357805160ff1916838001178555612d70565b82800160010185558215612d70579182015b82811115612d70578251825591602001919060010190612d55565b50612d7c929150612dde565b5090565b6080604051908101604052806000600160a060020a03168152602001600060ff16815260200160608152602001600081525090565b608060405190810160405280600081526020016060815260200160608152602001600081525090565b61146b91905b80821115612d7c5760008155600101612de4565b6000612e048235613f16565b9392505050565b6000601f82018313612e1c57600080fd5b8135612e2f612e2a82613ead565b613e86565b91508181835260208401935060208101905083856020840282011115612e5457600080fd5b60005b83811015612e805781612e6a8882612df8565b8452506020928301929190910190600101612e57565b5050505092915050565b6000601f82018313612e9b57600080fd5b8135612ea9612e2a82613ead565b91508181835260208401935060208101905083856020840282011115612ece57600080fd5b60005b83811015612e805781612ee48882612f76565b8452506020928301929190910190600101612ed1565b6000601f82018313612f0b57600080fd5b8135612f19612e2a82613ead565b91508181835260208401935060208101905083856020840282011115612f3e57600080fd5b60005b83811015612e805781612f548882612f76565b8452506020928301929190910190600101612f41565b6000612e048251613f22565b6000612e04823561146b565b6000601f82018313612f9357600080fd5b8135612fa1612e2a82613ece565b91508082526020830160208301858383011115612fbd57600080fd5b61153f838284613f4f565b6000612e04825161146b565b600060208284031215612fe657600080fd5b6000612ff28484612df8565b949350505050565b60008060008060008060c0878903121561301357600080fd5b600061301f8989612df8565b965050602087013567ffffffffffffffff81111561303c57600080fd5b61304889828a01612e8a565b955050604087013567ffffffffffffffff81111561306557600080fd5b61307189828a01612e8a565b945050606087013567ffffffffffffffff81111561308e57600080fd5b61309a89828a01612e8a565b935050608087013567ffffffffffffffff8111156130b757600080fd5b6130c389828a01612f82565b92505060a087013567ffffffffffffffff8111156130e057600080fd5b6130ec89828a01612f82565b9150509295509295509295565b6000806040838503121561310c57600080fd5b60006131188585612df8565b925050602061312985828601612f76565b9150509250929050565b6000806000806080858703121561314957600080fd5b60006131558787612df8565b945050602061316687828801612f76565b935050604061317787828801612df8565b925050606085013567ffffffffffffffff81111561319457600080fd5b6131a087828801612f82565b91505092959194509250565b60008060008060008060c087890312156131c557600080fd5b60006131d18989612df8565b96505060206131e289828a01612f76565b95505060406131f389828a01612f76565b945050606061309a89828a01612f76565b6000806040838503121561321757600080fd5b60006132238585612df8565b925050602083013567ffffffffffffffff81111561324057600080fd5b61312985828601612f82565b60008060006060848603121561326157600080fd5b600061326d8686612df8565b935050602061327e86828701612f76565b925050604061328f86828701612f76565b9150509250925092565b600080600080608085870312156132af57600080fd5b843567ffffffffffffffff8111156132c657600080fd5b6132d287828801612e8a565b945050602085013567ffffffffffffffff8111156132ef57600080fd5b6132fb87828801612efa565b935050604085013567ffffffffffffffff81111561331857600080fd5b61332487828801612e0b565b925050606085013567ffffffffffffffff81111561334157600080fd5b6131a087828801612efa565b60006020828403121561335f57600080fd5b6000612ff28484612f6a565b60006020828403121561337d57600080fd5b6000612ff28484612f76565b6000806000806080858703121561339f57600080fd5b60006133ab8787612f76565b94505060206133bc87828801612f76565b93505060406133cd87828801612df8565b92505060606131a087828801612f76565b6000602082840312156133f057600080fd5b6000612ff28484612fc8565b6000806040838503121561340f57600080fd5b600061341b8585612f76565b925050602061312985828601612df8565b6000806040838503121561343f57600080fd5b60006132238585612f76565b6000806040838503121561345e57600080fd5b60006131188585612f76565b61347381613f16565b82525050565b600061348482613f08565b80845260208401935061349683613ef6565b60005b828110156134c6576134ac86835161346a565b6134b582613ef6565b602096909601959150600101613499565b5093949350505050565b60006134db82613f0c565b8084526020840193506134ed83613efc565b60005b828110156134c65761350386835461346a565b61350c82613f10565b6020969096019591506001016134f0565b600061352882613f08565b80845260208401935061353a83613ef6565b60005b828110156134c65761355086835161360d565b61355982613ef6565b60209690960195915060010161353d565b600061357582613f08565b80845260208401935061358783613ef6565b60005b828110156134c65761359d86835161360d565b6135a682613ef6565b60209690960195915060010161358a565b60006135c282613f0c565b8084526020840193506135d483613efc565b60005b828110156134c6576135ea86835461360d565b6135f382613f10565b6020969096019591506001016135d7565b61347381613f22565b6134738161146b565b600061362182613f08565b808452613635816020860160208601613f5b565b61363e81613f8b565b9093016020019392505050565b61347381613f39565b61347381613f44565b601481527f556e7265676973746572656420776f726b65722e000000000000000000000000602082015260400190565b602681527f4e6f7420656e6f75676820746f6b656e7320616c6c6f77656420666f7220747260208201527f616e736665720000000000000000000000000000000000000000000000000000604082015260600190565b602181527f53656372657420636f6e747261637420616c7265616479206465706c6f79656460208201527f2e00000000000000000000000000000000000000000000000000000000000000604082015260600190565b601381527f496e76616c6964207461736b2073746174757300000000000000000000000000602082015260400190565b601e81527f496e76616c696420696e7075742073746174652064656c746120686173680000602082015260400190565b602e81527f496e76616c696420696e7075742073746174652064656c74612068617368206660208201527f6f7220656d707479207374617465000000000000000000000000000000000000604082015260600190565b601581527f576f726b6572206e6f7420726567697374657265640000000000000000000000602082015260400190565b602381527f496e76616c69642073746174652064656c746120686173686573206f7264657260208201527f696e670000000000000000000000000000000000000000000000000000000000604082015260600190565b602681527f4f6e6c7920746865205072696e636970616c2063616e2075706461746520746860208201527f6520736565640000000000000000000000000000000000000000000000000000604082015260600190565b601381527f5461736b20616c72656164792065786973742e00000000000000000000000000602082015260400190565b601d81527f53656372657420636f6e7472616374206e6f74206465706c6f7965642e000000602082015260400190565b601281527f496e76616c6964207369676e61747572652e0000000000000000000000000000602082015260400190565b603681527f4e6f20776f726b65727320706172616d657465727320656e74727920666f722060208201527f73706563696669656420626c6f636b206e756d62657200000000000000000000604082015260600190565b61347381613f33565b602081016123f2828461346a565b604081016139d6828561346a565b612e04602083018461346a565b604081016139f1828561346a565b612e04602083018461360d565b60608101613a0c828661346a565b613a19602083018561360d565b612ff26040830184613654565b60408101613a34828561346a565b8181036020830152612ff28184613616565b60408101613a54828561346a565b612e04602083018461364b565b60608101613a6f828661346a565b613a7c602083018561364b565b612ff2604083018461360d565b60808101613a97828761346a565b613aa460208301866139b1565b8181036040830152613ab68185613616565b9050613ac5606083018461360d565b95945050505050565b60208082528101612e048184613479565b60208082528101612e04818461351d565b60a08082528101613b01818861351d565b90508181036020830152613b15818761351d565b90508181036040830152613b29818661351d565b90508181036060830152613b3d8185613616565b90508181036080830152613b518184613616565b979650505050505050565b60a08082528101613b6d818861351d565b90508181036020830152613b81818761356a565b90508181036040830152613b958186613479565b90508181036060830152613ba9818561356a565b9050613bb8608083018461346a565b9695505050505050565b602081016123f28284613604565b602081016123f2828461360d565b60a08101613bec828861360d565b613bf9602083018761360d565b613c06604083018661360d565b8181036060830152613b3d8185613616565b60a08101613c26828861360d565b613c33602083018761360d565b613c40604083018661346a565b613c4d606083018561360d565b613bb8608083018461346a565b60808101613c68828761360d565b613c7560208301866139b1565b613c82604083018561360d565b613ac5606083018461360d565b602081016123f2828461364b565b602080825281016123f28161365d565b602080825281016123f28161368d565b602080825281016123f2816136e3565b602080825281016123f281613739565b602080825281016123f281613769565b602080825281016123f281613799565b602080825281016123f2816137ef565b602080825281016123f28161381f565b602080825281016123f281613875565b602080825281016123f2816138cb565b602080825281016123f2816138fb565b602080825281016123f28161392b565b602080825281016123f28161395b565b60c08101613d7b828961360d565b613d88602083018861346a565b613d95604083018761360d565b8181036060830152613da78186613616565b9050613db6608083018561346a565b613b5160a0830184613654565b60808101613dd1828761360d565b613dde602083018661360d565b8181036040830152613df08185613479565b90508181036060830152613bb88184613479565b60808101613e12828761360d565b613e1f602083018661360d565b8181036040830152613e318185613479565b90508181036060830152613bb8818461356a565b60808101613e53828761360d565b613e60602083018661360d565b8181036040830152613e7281856134d0565b90508181036060830152613bb881846135b7565b60405181810167ffffffffffffffff81118282101715613ea557600080fd5b604052919050565b600067ffffffffffffffff821115613ec457600080fd5b5060209081020190565b600067ffffffffffffffff821115613ee557600080fd5b506020601f91909101601f19160190565b60200190565b60009081526020902090565b5190565b5490565b60010190565b600160a060020a031690565b151590565b600060028210612d7c57fe5b60ff1690565b60006123f282613f16565b60006123f282613f27565b82818337506000910152565b60005b83811015613f76578181015183820152602001613f5e565b83811115613f85576000848401525b50505050565b601f01601f1916905600a265627a7a7230582093bebc6ec54eb2934b4e01a4d38f9fcaddc6c919395e90ff45fca97fd3ceee326c6578706572696d656e74616cf50037",
  "source": "pragma solidity ^0.4.24;\npragma experimental ABIEncoderV2;\n\nimport \"openzeppelin-solidity/contracts/math/SafeMath.sol\";\nimport \"openzeppelin-solidity/contracts/ECRecovery.sol\";\n\ncontract ERC20 {\n    function allowance(address owner, address spender) public view returns (uint256);\n\n    function transferFrom(address from, address to, uint256 value) public returns (bool);\n\n    function approve(address spender, uint256 value) public returns (bool);\n\n    function totalSupply() public view returns (uint256);\n\n    function balanceOf(address who) public view returns (uint256);\n\n    function transfer(address to, uint256 value) public returns (bool);\n\n    event Transfer(address indexed from, address indexed to, uint256 value);\n    event Approval(address indexed owner, address indexed spender, uint256 value);\n}\n\ncontract Enigma {\n    using SafeMath for uint256;\n    using ECRecovery for bytes32;\n\n    // The interface of the deployed ENG ERC20 token contract\n    ERC20 public engToken;\n\n    struct Task {\n        uint fee;\n        address token;\n        uint tokenValue;\n        bytes proof; // Signature of (taskId, inStateDeltaHash, outStateDeltaHash, ethCall)\n        address sender;\n        TaskStatus status;\n    }\n    enum TaskStatus {RecordCreated, ReceiptVerified}\n\n    /**\n    * The signer address of the principal node\n    * This must be set when deploying the contract and remains immutable\n    * Since the signer address is derived from the public key of an\n    * SGX enclave, this ensures that the principal node cannot be tempered\n    * with or replaced.\n    */\n    address principal;\n\n    // The data representation of a worker (or node)\n    struct Worker {\n        address signer;\n        uint8 status; // Uninitialized: 0; Active: 1; Inactive: 2\n        bytes report; // Decided to store this as one  RLP encoded attribute for easier external storage in the future\n        uint256 balance;\n    }\n\n    /**\n    * The data representation of the worker parameters used as input for\n    * the worker selection algorithm\n    */\n    struct WorkersParams {\n        uint firstBlockNumber;\n        address[] workers;\n        uint[] balances;\n        uint seed;\n    }\n\n    struct SecretContract {\n        address owner;\n        bytes32 codeHash;\n        bytes32[] stateDeltaHashes;\n        SecretContractStatus status;\n        // TODO: consider keeping an index of taskIds\n    }\n    // TODO: do we want to have a contract lifecycle?\n    enum SecretContractStatus {Undefined, Deployed}\n\n    /**\n    * The last 5 worker parameters\n    * We keep a collection of worker parameters to account for latency issues.\n    * A computation task might be conceivably given out at a certain block number\n    * but executed at a later block in a different epoch. It follows that\n    * the contract must have access to the worker parameters effective when giving\n    * out the task, otherwise the selected worker would not match. We calculated\n    * that keeping the last 5 items should be more than enough to account for\n    * all latent tasks. Tasks results will be rejected past this limit.\n    */\n    WorkersParams[5] workersParams;\n\n    // An address-based index of all registered worker\n    address[] public workerAddresses;\n    // An address-based index of all secret contracts\n    address[] public scAddresses;\n\n    // A registry of all registered workers with their attributes\n    mapping(address => Worker) public workers;\n    mapping(bytes32 => Task) public tasks;\n    mapping(address => SecretContract) public contracts;\n\n    // TODO: do we keep tasks forever? if not, when do we delete them?\n    uint stakingThreshold;\n    uint workerGroupSize;\n\n    // The events emitted by the contract\n    event Registered(address custodian, address signer);\n    event ValidatedSig(bytes sig, bytes32 hash, address workerAddr);\n    event WorkersParameterized(uint seed, uint256 blockNumber, address[] workers, uint[] balances);\n    event TaskRecordCreated(bytes32 taskId, uint fee, address token, uint tokenValue, address sender);\n    event TaskRecordsCreated(bytes32[] taskIds, uint[] fees, address[] tokens, uint[] tokenValues, address sender);\n    event ReceiptVerified(bytes32 taskId, bytes32 inStateDeltaHash, bytes32 outStateDeltaHash, bytes ethCall, bytes sig);\n    event ReceiptsVerified(bytes32[] taskIds, bytes32[] inStateDeltaHashes, bytes32[] outStateDeltaHashes, bytes ethCall, bytes sig);\n    event DepositSuccessful(address from, uint value);\n    event SecretContractDeployed(address scAddr, bytes32 codeHash);\n\n    constructor(address _tokenAddress, address _principal) public {\n        engToken = ERC20(_tokenAddress);\n        principal = _principal;\n        stakingThreshold = 1;\n        workerGroupSize = 5;\n    }\n\n    //TODO: break down these methods into services for upgradability\n\n    /**\n    * Checks if the custodian wallet is registered as a worker\n    *\n    * @param _user The custodian address of the worker\n    */\n    modifier workerRegistered(address _user) {\n        Worker memory worker = workers[_user];\n        require(worker.status > 0, \"Unregistered worker.\");\n        _;\n    }\n\n    modifier contractDeployed(address _scAddr) {\n        require(contracts[_scAddr].status == SecretContractStatus.Deployed, \"Secret contract not deployed.\");\n        _;\n    }\n\n    /**\n    * Registers a new worker of change the signer parameters of an existing\n    * worker. This should be called by every worker (and the principal)\n    * node in order to receive tasks.\n    *\n    * @param _signer The signer address, derived from the enclave public key\n    * @param _report The RLP encoded report returned by the IAS\n    */\n    function register(address _signer, bytes _report)\n    public\n    {\n        // TODO: consider exit if both signer and custodian as matching\n        // If the custodian is not already register, we add an index entry\n        if (workers[msg.sender].signer == 0x0) {\n            // TODO: does workerAddresses.push just work here?\n            uint index = workerAddresses.length;\n            workerAddresses.length++;\n            workerAddresses[index] = msg.sender;\n        }\n\n        // Set the custodian attributes\n        workers[msg.sender].signer = _signer;\n        workers[msg.sender].balance = 0;\n        workers[msg.sender].report = _report;\n        workers[msg.sender].status = 1;\n\n        emit Registered(msg.sender, _signer);\n    }\n\n    function deposit(address _custodian, uint _amount)\n    public\n    workerRegistered(_custodian)\n    {\n        require(engToken.allowance(_custodian, this) >= _amount, \"Not enough tokens allowed for transfer\");\n        require(engToken.transferFrom(_custodian, this, _amount));\n\n        workers[_custodian].balance = workers[_custodian].balance.add(_amount);\n\n        emit DepositSuccessful(_custodian, _amount);\n    }\n\n    // TODO: should the scAddr be computed on-chain from the codeHash + some randomness\n    // TODO: should any user deploy a secret contract or only a trusted enclave?\n    function deploySecretContract(address _scAddr, bytes32 _codeHash, address _owner, bytes _sig)\n    public\n    workerRegistered(msg.sender)\n    {\n        require(contracts[_scAddr].status == SecretContractStatus.Undefined, \"Secret contract already deployed.\");\n        //TODO: verify sig\n\n        //TODO: is this too naive?\n        contracts[_scAddr].owner = _owner;\n        contracts[_scAddr].codeHash = _codeHash;\n        contracts[_scAddr].status = SecretContractStatus.Deployed;\n        scAddresses.push(_scAddr);\n\n        emit SecretContractDeployed(_scAddr, _codeHash);\n    }\n\n    function isDeployed(address _scAddr)\n    public\n    view\n    returns (bool)\n    {\n        if (contracts[_scAddr].status == SecretContractStatus.Deployed) {\n            return true;\n        } else {\n            return false;\n        }\n    }\n\n    function getCodeHash(address _scAddr)\n    public\n    view\n    contractDeployed(_scAddr)\n    returns (bytes32)\n    {\n        return contracts[_scAddr].codeHash;\n    }\n\n    function countSecretContracts()\n    public\n    view\n    returns (uint)\n    {\n        return scAddresses.length;\n    }\n\n    /**\n    * Selects address from _start up to, but not including, the _stop number\n    **/\n    function getSecretContractAddresses(uint _start, uint _stop)\n    public\n    view\n    returns (address[])\n    {\n        if (_stop == 0) {\n            _stop = scAddresses.length;\n        }\n        address[] memory addresses = new address[](_stop.sub(_start));\n        uint pos = 0;\n        for (uint i = _start; i < _stop; i++) {\n            addresses[pos] = scAddresses[i];\n        }\n        return addresses;\n    }\n\n    function countStateDeltas(address _scAddr)\n    public\n    view\n    contractDeployed(_scAddr)\n    returns (uint)\n    {\n        return contracts[_scAddr].stateDeltaHashes.length;\n    }\n\n    function getStateDeltaHash(address _scAddr, uint _index)\n    public\n    view\n    contractDeployed(_scAddr)\n    returns (bytes32)\n    {\n        return contracts[_scAddr].stateDeltaHashes[_index];\n    }\n\n    /**\n    * Selects state deltas from _start up to, but not including, the _stop number\n    **/\n    function getStateDeltaHashes(address _scAddr, uint _start, uint _stop)\n    public\n    view\n    contractDeployed(_scAddr)\n    returns (bytes32[])\n    {\n        if (_stop == 0) {\n            _stop = contracts[_scAddr].stateDeltaHashes.length;\n        }\n        bytes32[] memory deltas = new bytes32[](_stop.sub(_start));\n        uint pos = 0;\n        for (uint i = _start; i < _stop; i++) {\n            deltas[pos] = contracts[_scAddr].stateDeltaHashes[i];\n            pos++;\n        }\n        return deltas;\n    }\n\n    function isValidDeltaHash(address _scAddr, bytes32 _stateDeltaHash)\n    public\n    view\n    contractDeployed(_scAddr)\n    returns (bool)\n    {\n        bool valid = false;\n        for (uint i = 0; i < contracts[_scAddr].stateDeltaHashes.length; i++) {\n            if (contracts[_scAddr].stateDeltaHashes[i] == _stateDeltaHash) {\n                valid = true;\n                break;\n            }\n        }\n        return valid;\n    }\n\n    /**\n    * Store task record\n    *\n    */\n    function createTaskRecord(\n        bytes32 _taskId,\n        uint _fee,\n        address _token,\n        uint _tokenValue\n    )\n    public\n    {\n        require(tasks[_taskId].sender == 0x0, \"Task already exist.\");\n\n        tasks[_taskId].fee = _fee;\n        tasks[_taskId].token = _token;\n        tasks[_taskId].tokenValue = _tokenValue;\n        tasks[_taskId].sender = msg.sender;\n        tasks[_taskId].status = TaskStatus.RecordCreated;\n\n        emit TaskRecordCreated(_taskId, _fee, _token, _tokenValue, msg.sender);\n    }\n\n    function createTaskRecords(\n        bytes32[] _taskIds,\n        uint[] _fees,\n        address[] _tokens,\n        uint[] _tokenValues\n    )\n    public\n    {\n        for (uint i = 0; i < _taskIds.length; i++) {\n            require(tasks[_taskIds[i]].sender == 0x0, \"Task already exist.\");\n\n            tasks[_taskIds[i]].fee = _fees[i];\n            tasks[_taskIds[i]].token = _tokens[i];\n            tasks[_taskIds[i]].tokenValue = _tokenValues[i];\n            tasks[_taskIds[i]].sender = msg.sender;\n            tasks[_taskIds[i]].status = TaskStatus.RecordCreated;\n        }\n        emit TaskRecordsCreated(_taskIds, _fees, _tokens, _tokenValues, msg.sender);\n    }\n\n    // Execute the encoded function in the specified contract\n    function executeCall(address _to, uint256 _value, bytes _data)\n    internal\n    returns (bool success)\n    {\n        assembly {\n            success := call(gas, _to, _value, add(_data, 0x20), mload(_data), 0, 0)\n        }\n    }\n\n    function verifyReceipt(\n        address _scAddr,\n        bytes32 _taskId,\n        bytes32 _inStateDeltaHash,\n        bytes32 _outStateDeltaHash,\n        bytes _ethCall,\n        bytes _sig\n    )\n    internal\n    {\n        uint index = contracts[_scAddr].stateDeltaHashes.length;\n        if (index == 0) {\n            require(_inStateDeltaHash == 0x0, 'Invalid input state delta hash for empty state');\n        } else {\n            require(_inStateDeltaHash == contracts[_scAddr].stateDeltaHashes[index.sub(1)], 'Invalid input state delta hash');\n        }\n        contracts[_scAddr].stateDeltaHashes.push(_outStateDeltaHash);\n\n        // TODO: execute the Ethereum calls\n\n        // Build a hash to validate that the I/Os are matching\n        bytes32 hash = keccak256(abi.encodePacked(_taskId, _inStateDeltaHash, _outStateDeltaHash, _ethCall));\n\n        // The worker address is not a real Ethereum wallet address but\n        // one generated from its signing key\n        address workerAddr = hash.recover(_sig);\n        require(workerAddr == workers[msg.sender].signer, \"Invalid signature.\");\n    }\n\n    /**\n    * Commit the computation task results on chain\n    */\n    function commitReceipt(\n        address _scAddr,\n        bytes32 _taskId,\n        bytes32 _inStateDeltaHash,\n        bytes32 _outStateDeltaHash,\n        bytes _ethCall,\n        bytes _sig\n    )\n    public\n    workerRegistered(msg.sender)\n    contractDeployed(_scAddr)\n    {\n        require(tasks[_taskId].status == TaskStatus.RecordCreated, 'Invalid task status');\n        verifyReceipt(_scAddr, _taskId, _inStateDeltaHash, _outStateDeltaHash, _ethCall, _sig);\n\n        tasks[_taskId].proof = _sig;\n        tasks[_taskId].status = TaskStatus.ReceiptVerified;\n        emit ReceiptVerified(_taskId, _inStateDeltaHash, _outStateDeltaHash, _ethCall, _sig);\n    }\n\n    function verifyReceipts(\n        address _scAddr,\n        bytes32[] _taskIds,\n        bytes32[] _inStateDeltaHashes,\n        bytes32[] _outStateDeltaHashes,\n        bytes _ethCall,\n        bytes _sig\n    )\n    internal\n    {\n        // First, we verify the state delta hashes ordering\n        uint index = contracts[_scAddr].stateDeltaHashes.length;\n        if (index == 0) {\n            require(_inStateDeltaHashes[0] == 0x0, 'Invalid input state delta hash for empty state');\n        } else {\n            require(_inStateDeltaHashes[0] == contracts[_scAddr].stateDeltaHashes[index.sub(1)], 'Invalid input state delta hash');\n        }\n        for (uint i = 0; i < _taskIds.length; i++) {\n            require(tasks[_taskIds[i]].status == TaskStatus.RecordCreated, 'Invalid task status');\n            if (i > 0) {\n                require(_inStateDeltaHashes[i] == _outStateDeltaHashes[i - 1], 'Invalid state delta hashes ordering');\n            }\n        }\n        // TODO: verify signature\n        // Then, we store the outStateDeltaHashes\n        for (uint ic = 0; ic < _taskIds.length; ic++) {\n            contracts[_scAddr].stateDeltaHashes.push(_outStateDeltaHashes[ic]);\n            if (ic == _taskIds.length.sub(1)) {\n                tasks[_taskIds[ic]].proof = _sig;\n            }\n            tasks[_taskIds[ic]].status = TaskStatus.ReceiptVerified;\n        }\n        // TODO: execute the Ethereum calls\n    }\n\n    function commitReceipts(\n        address _scAddr,\n        bytes32[] _taskIds,\n        bytes32[] _inStateDeltaHashes,\n        bytes32[] _outStateDeltaHashes,\n        bytes _ethCall,\n        bytes _sig\n    )\n    public\n    workerRegistered(msg.sender)\n    contractDeployed(_scAddr)\n    {\n        verifyReceipts(_scAddr, _taskIds, _inStateDeltaHashes, _outStateDeltaHashes, _ethCall, _sig);\n        emit ReceiptsVerified(_taskIds, _inStateDeltaHashes, _outStateDeltaHashes, _ethCall, _sig);\n    }\n\n    // Verify the signature submitted while reparameterizing workers\n    function verifyParamsSig(uint256 _seed, bytes _sig)\n    internal\n    pure\n    returns (address)\n    {\n        bytes32 hash = keccak256(abi.encodePacked(_seed));\n        address signer = hash.recover(_sig);\n        return signer;\n    }\n\n    /**\n    * Reparameterizing workers with a new seed\n    * This should be called for each epoch by the Principal node\n    *\n    * @param _seed The random integer generated by the enclave\n    * @param _sig The random integer signed by the the principal node's enclave\n    */\n    function setWorkersParams(uint _seed, bytes _sig)\n    public\n    workerRegistered(msg.sender)\n    {\n        // Reparameterizing workers with a new seed\n        // This should be called for each epoch by the Principal node\n\n        // We assume that the Principal is always the first registered node\n        require(workers[msg.sender].signer == principal, \"Only the Principal can update the seed\");\n        // TODO: verify the principal sig\n\n        // Create a new workers parameters item for the specified seed.\n        // The workers parameters list is a sort of cache, it never grows beyond its limit.\n        // If the list is full, the new item will replace the item assigned to the lowest block number.\n        uint paramIndex = 0;\n        for (uint pi = 0; pi < workersParams.length; pi++) {\n            // Find an empty slot in the array, if full use the lowest block number\n            if (workersParams[pi].firstBlockNumber == 0) {\n                paramIndex = pi;\n                break;\n            } else if (workersParams[pi].firstBlockNumber < workersParams[paramIndex].firstBlockNumber) {\n                paramIndex = pi;\n            }\n        }\n        workersParams[paramIndex].firstBlockNumber = block.number;\n        workersParams[paramIndex].seed = _seed;\n\n        // Copy the current worker list\n        uint workerIndex = 0;\n        for (uint wi = 0; wi < workerAddresses.length; wi++) {\n            if (workers[workerAddresses[wi]].balance >= stakingThreshold) {\n                workersParams[paramIndex].workers.length++;\n                workersParams[paramIndex].workers[workerIndex] = workerAddresses[wi];\n\n                workersParams[paramIndex].balances.length++;\n                workersParams[paramIndex].balances[workerIndex] = workers[workerAddresses[wi]].balance;\n\n                workerIndex = workerIndex.add(1);\n            }\n        }\n        emit WorkersParameterized(_seed, block.number, workersParams[paramIndex].workers, workersParams[paramIndex].balances);\n    }\n\n    function getWorkerParamsIndex(uint _blockNumber)\n    internal\n    view\n    returns (uint)\n    {\n        // The workers parameters for a given block number\n        int8 index = - 1;\n        for (uint i = 0; i < workersParams.length; i++) {\n            if (workersParams[i].firstBlockNumber <= _blockNumber && (index == - 1 || workersParams[i].firstBlockNumber > workersParams[uint(index)].firstBlockNumber)) {\n                index = int8(i);\n            }\n        }\n        require(index != - 1, \"No workers parameters entry for specified block number\");\n        return uint(index);\n    }\n\n    function getWorkerParams(uint _blockNumber)\n    public\n    view\n    returns (uint, uint, address[], uint[]) {\n        uint index = getWorkerParamsIndex(_blockNumber);\n        WorkersParams memory params = workersParams[index];\n        return (params.firstBlockNumber, params.seed, params.workers, params.balances);\n    }\n\n    function compileTokens(uint _paramIndex)\n    internal\n    view\n    returns (address[])\n    {\n        WorkersParams memory params = workersParams[_paramIndex];\n        uint tokenCpt = 0;\n        for (uint i = 0; i < params.workers.length; i++) {\n            if (params.workers[i] != 0x0) {\n                tokenCpt = tokenCpt.add(params.balances[i]);\n            }\n        }\n        address[] memory tokens = new address[](tokenCpt);\n        uint tokenIndex = 0;\n        for (uint ia = 0; ia < params.workers.length; ia++) {\n            if (params.workers[ia] != 0x0) {\n                for (uint ib = 0; ib < params.balances[ia]; ib++) {\n                    tokens[tokenIndex] = params.workers[ia];\n                    tokenIndex = tokenIndex.add(1);\n                }\n            }\n        }\n        return tokens;\n    }\n\n    function getWorkerGroup(uint _blockNumber, address _scAddr)\n    public\n    view\n    returns (address[])\n    {\n        // Compile a list of selected workers for the block number and\n        // secret contract.\n        uint paramIndex = getWorkerParamsIndex(_blockNumber);\n        address[] memory tokens = compileTokens(paramIndex);\n        WorkersParams memory params = workersParams[paramIndex];\n\n        address[] memory selectedWorkers = new address[](workerGroupSize);\n        uint nonce = 0;\n        for (uint it = 0; it < workerGroupSize; it++) {\n            do {\n                bytes32 hash = keccak256(abi.encodePacked(nonce, params.seed, params.firstBlockNumber, _scAddr));\n                uint index = uint256(hash) % tokens.length;\n                address worker = tokens[index];\n                bool dup = false;\n                for (uint id = 0; id < selectedWorkers.length; id++) {\n                    if (worker == selectedWorkers[id]) {\n                        dup = true;\n                        break;\n                    }\n                }\n                if (dup == false) {\n                    selectedWorkers[it] = worker;\n                }\n                nonce++;\n            }\n            while (selectedWorkers[it] == 0x0);\n        }\n        return selectedWorkers;\n    }\n\n    /**\n    * The worker parameters corresponding to the specified block number\n    *\n    * @param _blockNumber The reference block number\n    */\n    function getWorkersParams(uint _blockNumber)\n    public\n    view\n    returns (uint, uint, address[], address[])\n    {\n        // TODO: finalize implementation\n        uint firstBlockNumber = 0;\n        uint seed = 0;\n        address[] memory activeWorkers;\n        address[] memory activeContracts;\n        return (firstBlockNumber, seed, activeWorkers, activeContracts);\n    }\n\n    /**\n    * The RLP encoded report returned by the IAS server\n    *\n    * @param _custodian The worker's custodian address\n    */\n    function getReport(address _custodian)\n    public\n    view\n    workerRegistered(_custodian)\n    returns (address, bytes)\n    {\n        // The RLP encoded report and signer's address for the specified worker\n        require(workers[_custodian].signer != 0x0, \"Worker not registered\");\n        return (workers[_custodian].signer, workers[_custodian].report);\n    }\n}\n",
  "sourcePath": "/Users/adityapalepu/Startups/enigma/enigma-contract-internal/contracts/Enigma.sol",
  "compiler": {
    "name": "solc",
    "version": "0.4.24+commit.e67f0147.Emscripten.clang"
  },
  "schemaVersion": "2.0.0",
  "updatedAt": "2018-10-31T01:13:38.995Z"
}