{
  "contractName": "Enigma",
  "abi": [
    {
      "constant": true,
      "inputs": [
        {
          "name": "",
          "type": "uint256"
        }
      ],
      "name": "workerAddresses",
      "outputs": [
        {
          "name": "",
          "type": "address"
        }
      ],
      "payable": false,
      "stateMutability": "view",
      "type": "function",
      "signature": "0x0a318da0"
    },
    {
      "constant": true,
      "inputs": [
        {
          "name": "",
          "type": "address"
        }
      ],
      "name": "workers",
      "outputs": [
        {
          "name": "signer",
          "type": "address"
        },
        {
          "name": "status",
          "type": "uint8"
        },
        {
          "name": "report",
          "type": "bytes"
        },
        {
          "name": "balance",
          "type": "uint256"
        }
      ],
      "payable": false,
      "stateMutability": "view",
      "type": "function",
      "signature": "0x4048a257"
    },
    {
      "constant": true,
      "inputs": [
        {
          "name": "",
          "type": "uint256"
        }
      ],
      "name": "scAddresses",
      "outputs": [
        {
          "name": "",
          "type": "address"
        }
      ],
      "payable": false,
      "stateMutability": "view",
      "type": "function",
      "signature": "0x5f0dd5bb"
    },
    {
      "constant": true,
      "inputs": [
        {
          "name": "",
          "type": "address"
        }
      ],
      "name": "contracts",
      "outputs": [
        {
          "name": "owner",
          "type": "address"
        },
        {
          "name": "codeHash",
          "type": "bytes32"
        },
        {
          "name": "status",
          "type": "uint8"
        }
      ],
      "payable": false,
      "stateMutability": "view",
      "type": "function",
      "signature": "0x69dc9ff3"
    },
    {
      "constant": true,
      "inputs": [],
      "name": "engToken",
      "outputs": [
        {
          "name": "",
          "type": "address"
        }
      ],
      "payable": false,
      "stateMutability": "view",
      "type": "function",
      "signature": "0x9489ad40"
    },
    {
      "constant": true,
      "inputs": [
        {
          "name": "",
          "type": "bytes32"
        }
      ],
      "name": "tasks",
      "outputs": [
        {
          "name": "fee",
          "type": "uint256"
        },
        {
          "name": "token",
          "type": "address"
        },
        {
          "name": "tokenValue",
          "type": "uint256"
        },
        {
          "name": "proof",
          "type": "bytes"
        },
        {
          "name": "sender",
          "type": "address"
        },
        {
          "name": "status",
          "type": "uint8"
        }
      ],
      "payable": false,
      "stateMutability": "view",
      "type": "function",
      "signature": "0xe579f500"
    },
    {
      "inputs": [
        {
          "name": "_tokenAddress",
          "type": "address"
        },
        {
          "name": "_principal",
          "type": "address"
        }
      ],
      "payable": false,
      "stateMutability": "nonpayable",
      "type": "constructor",
      "signature": "constructor"
    },
    {
      "anonymous": false,
      "inputs": [
        {
          "indexed": false,
          "name": "custodian",
          "type": "address"
        },
        {
          "indexed": false,
          "name": "signer",
          "type": "address"
        }
      ],
      "name": "Registered",
      "type": "event",
      "signature": "0x0a31ee9d46a828884b81003c8498156ea6aa15b9b54bdd0ef0b533d9eba57e55"
    },
    {
      "anonymous": false,
      "inputs": [
        {
          "indexed": false,
          "name": "sig",
          "type": "bytes"
        },
        {
          "indexed": false,
          "name": "hash",
          "type": "bytes32"
        },
        {
          "indexed": false,
          "name": "workerAddr",
          "type": "address"
        }
      ],
      "name": "ValidatedSig",
      "type": "event",
      "signature": "0xe36691ca52ee024e298e5c0ff07191b87f0ac571c01a7631db2d70d573d955cb"
    },
    {
      "anonymous": false,
      "inputs": [
        {
          "indexed": false,
          "name": "seed",
          "type": "uint256"
        },
        {
          "indexed": false,
          "name": "blockNumber",
          "type": "uint256"
        },
        {
          "indexed": false,
          "name": "workers",
          "type": "address[]"
        },
        {
          "indexed": false,
          "name": "balances",
          "type": "uint256[]"
        }
      ],
      "name": "WorkersParameterized",
      "type": "event",
      "signature": "0x7047379c64ccafb62f6625e6b2d8eb6e1b0e091fac56a11ab5e2fd896e4db1d0"
    },
    {
      "anonymous": false,
      "inputs": [
        {
          "indexed": false,
          "name": "taskId",
          "type": "bytes32"
        },
        {
          "indexed": false,
          "name": "fee",
          "type": "uint256"
        },
        {
          "indexed": false,
          "name": "token",
          "type": "address"
        },
        {
          "indexed": false,
          "name": "tokenValue",
          "type": "uint256"
        },
        {
          "indexed": false,
          "name": "sender",
          "type": "address"
        }
      ],
      "name": "TaskRecordCreated",
      "type": "event",
      "signature": "0x51364a5a527e38841b15c974f7924dad755bc9ce0d29701d7501a7bd297b787b"
    },
    {
      "anonymous": false,
      "inputs": [
        {
          "indexed": false,
          "name": "taskIds",
          "type": "bytes32[]"
        },
        {
          "indexed": false,
          "name": "fees",
          "type": "uint256[]"
        },
        {
          "indexed": false,
          "name": "tokens",
          "type": "address[]"
        },
        {
          "indexed": false,
          "name": "tokenValues",
          "type": "uint256[]"
        },
        {
          "indexed": false,
          "name": "sender",
          "type": "address"
        }
      ],
      "name": "TaskRecordsCreated",
      "type": "event",
      "signature": "0xcb8afab3437be2f96ef2a2932eb02d02fd765bfe8be7c1f5a58edd6452317dde"
    },
    {
      "anonymous": false,
      "inputs": [
        {
          "indexed": false,
          "name": "taskId",
          "type": "bytes32"
        },
        {
          "indexed": false,
          "name": "inStateDeltaHash",
          "type": "bytes32"
        },
        {
          "indexed": false,
          "name": "outStateDeltaHash",
          "type": "bytes32"
        },
        {
          "indexed": false,
          "name": "ethCall",
          "type": "bytes"
        },
        {
          "indexed": false,
          "name": "sig",
          "type": "bytes"
        }
      ],
      "name": "ReceiptVerified",
      "type": "event",
      "signature": "0x665329bb9a4e1062edc215d9c5ab57fa54c4c88e3dfbcc68e0cd92fdd010fa6e"
    },
    {
      "anonymous": false,
      "inputs": [
        {
          "indexed": false,
          "name": "taskIds",
          "type": "bytes32[]"
        },
        {
          "indexed": false,
          "name": "inStateDeltaHashes",
          "type": "bytes32[]"
        },
        {
          "indexed": false,
          "name": "outStateDeltaHashes",
          "type": "bytes32[]"
        },
        {
          "indexed": false,
          "name": "ethCall",
          "type": "bytes"
        },
        {
          "indexed": false,
          "name": "sig",
          "type": "bytes"
        }
      ],
      "name": "ReceiptsVerified",
      "type": "event",
      "signature": "0x49f3b610d2b607252a8901e3c134022c7a6330e5f6525f0ed84dd4a127478958"
    },
    {
      "anonymous": false,
      "inputs": [
        {
          "indexed": false,
          "name": "from",
          "type": "address"
        },
        {
          "indexed": false,
          "name": "value",
          "type": "uint256"
        }
      ],
      "name": "DepositSuccessful",
      "type": "event",
      "signature": "0xb3ef81558ed1a50072a492984535a009da8b129c749500b387f1e5f4886bdde5"
    },
    {
      "anonymous": false,
      "inputs": [
        {
          "indexed": false,
          "name": "scAddr",
          "type": "address"
        },
        {
          "indexed": false,
          "name": "codeHash",
          "type": "bytes32"
        }
      ],
      "name": "SecretContractDeployed",
      "type": "event",
      "signature": "0xff27b3bb5dfb682b066cdace68b5dda84d03c3d2eadac54284aaec44cbcff516"
    },
    {
      "constant": false,
      "inputs": [
        {
          "name": "signer",
          "type": "address"
        },
        {
          "name": "report",
          "type": "bytes"
        }
      ],
      "name": "register",
      "outputs": [],
      "payable": false,
      "stateMutability": "nonpayable",
      "type": "function",
      "signature": "0x24b8fbf6"
    },
    {
      "constant": false,
      "inputs": [
        {
          "name": "custodian",
          "type": "address"
        },
        {
          "name": "amount",
          "type": "uint256"
        }
      ],
      "name": "deposit",
      "outputs": [],
      "payable": false,
      "stateMutability": "nonpayable",
      "type": "function",
      "signature": "0x47e7ef24"
    },
    {
      "constant": false,
      "inputs": [
        {
          "name": "scAddr",
          "type": "address"
        },
        {
          "name": "codeHash",
          "type": "bytes32"
        },
        {
          "name": "owner",
          "type": "address"
        },
        {
          "name": "sig",
          "type": "bytes"
        }
      ],
      "name": "deploySecretContract",
      "outputs": [],
      "payable": false,
      "stateMutability": "nonpayable",
      "type": "function",
      "signature": "0xd3b524c4"
    },
    {
      "constant": true,
      "inputs": [
        {
          "name": "scAddr",
          "type": "address"
        }
      ],
      "name": "isDeployed",
      "outputs": [
        {
          "name": "",
          "type": "bool"
        }
      ],
      "payable": false,
      "stateMutability": "view",
      "type": "function",
      "signature": "0x90184b02"
    },
    {
      "constant": true,
      "inputs": [
        {
          "name": "scAddr",
          "type": "address"
        }
      ],
      "name": "getCodeHash",
      "outputs": [
        {
          "name": "",
          "type": "bytes32"
        }
      ],
      "payable": false,
      "stateMutability": "view",
      "type": "function",
      "signature": "0x81ea4408"
    },
    {
      "constant": true,
      "inputs": [],
      "name": "countSecretContracts",
      "outputs": [
        {
          "name": "",
          "type": "uint256"
        }
      ],
      "payable": false,
      "stateMutability": "view",
      "type": "function",
      "signature": "0x75bbf75b"
    },
    {
      "constant": true,
      "inputs": [
        {
          "name": "start",
          "type": "uint256"
        },
        {
          "name": "stop",
          "type": "uint256"
        }
      ],
      "name": "getSecretContractAddresses",
      "outputs": [
        {
          "name": "",
          "type": "address[]"
        }
      ],
      "payable": false,
      "stateMutability": "view",
      "type": "function",
      "signature": "0x8e055b8b"
    },
    {
      "constant": true,
      "inputs": [
        {
          "name": "scAddr",
          "type": "address"
        }
      ],
      "name": "countStateDeltas",
      "outputs": [
        {
          "name": "",
          "type": "uint256"
        }
      ],
      "payable": false,
      "stateMutability": "view",
      "type": "function",
      "signature": "0x84062df7"
    },
    {
      "constant": true,
      "inputs": [
        {
          "name": "scAddr",
          "type": "address"
        },
        {
          "name": "index",
          "type": "uint256"
        }
      ],
      "name": "getStateDeltaHash",
      "outputs": [
        {
          "name": "",
          "type": "bytes32"
        }
      ],
      "payable": false,
      "stateMutability": "view",
      "type": "function",
      "signature": "0x44409496"
    },
    {
      "constant": true,
      "inputs": [
        {
          "name": "scAddr",
          "type": "address"
        },
        {
          "name": "start",
          "type": "uint256"
        },
        {
          "name": "stop",
          "type": "uint256"
        }
      ],
      "name": "getStateDeltaHashes",
      "outputs": [
        {
          "name": "",
          "type": "bytes32[]"
        }
      ],
      "payable": false,
      "stateMutability": "view",
      "type": "function",
      "signature": "0x05e62db6"
    },
    {
      "constant": true,
      "inputs": [
        {
          "name": "scAddr",
          "type": "address"
        },
        {
          "name": "stateDeltaHash",
          "type": "bytes32"
        }
      ],
      "name": "isValidDeltaHash",
      "outputs": [
        {
          "name": "",
          "type": "bool"
        }
      ],
      "payable": false,
      "stateMutability": "view",
      "type": "function",
      "signature": "0x7b5b2ce3"
    },
    {
      "constant": false,
      "inputs": [
        {
          "name": "taskId",
          "type": "bytes32"
        },
        {
          "name": "fee",
          "type": "uint256"
        },
        {
          "name": "token",
          "type": "address"
        },
        {
          "name": "tokenValue",
          "type": "uint256"
        }
      ],
      "name": "createTaskRecord",
      "outputs": [],
      "payable": false,
      "stateMutability": "nonpayable",
      "type": "function",
      "signature": "0xd28cf5c1"
    },
    {
      "constant": false,
      "inputs": [
        {
          "name": "taskIds",
          "type": "bytes32[]"
        },
        {
          "name": "fees",
          "type": "uint256[]"
        },
        {
          "name": "tokens",
          "type": "address[]"
        },
        {
          "name": "tokenValues",
          "type": "uint256[]"
        }
      ],
      "name": "createTaskRecords",
      "outputs": [],
      "payable": false,
      "stateMutability": "nonpayable",
      "type": "function",
      "signature": "0xa85d84ef"
    },
    {
      "constant": false,
      "inputs": [
        {
          "name": "scAddr",
          "type": "address"
        },
        {
          "name": "taskId",
          "type": "bytes32"
        },
        {
          "name": "inStateDeltaHash",
          "type": "bytes32"
        },
        {
          "name": "outStateDeltaHash",
          "type": "bytes32"
        },
        {
          "name": "ethCall",
          "type": "bytes"
        },
        {
          "name": "sig",
          "type": "bytes"
        }
      ],
      "name": "commitReceipt",
      "outputs": [],
      "payable": false,
      "stateMutability": "nonpayable",
      "type": "function",
      "signature": "0x5956efef"
    },
    {
      "constant": false,
      "inputs": [
        {
          "name": "scAddr",
          "type": "address"
        },
        {
          "name": "taskIds",
          "type": "bytes32[]"
        },
        {
          "name": "inStateDeltaHashes",
          "type": "bytes32[]"
        },
        {
          "name": "outStateDeltaHashes",
          "type": "bytes32[]"
        },
        {
          "name": "ethCall",
          "type": "bytes"
        },
        {
          "name": "sig",
          "type": "bytes"
        }
      ],
      "name": "commitReceipts",
      "outputs": [],
      "payable": false,
      "stateMutability": "nonpayable",
      "type": "function",
      "signature": "0x4d0edeaa"
    },
    {
      "constant": false,
      "inputs": [
        {
          "name": "seed",
          "type": "uint256"
        },
        {
          "name": "sig",
          "type": "bytes"
        }
      ],
      "name": "setWorkersParams",
      "outputs": [],
      "payable": false,
      "stateMutability": "nonpayable",
      "type": "function",
      "signature": "0x2873e73c"
    },
    {
      "constant": true,
      "inputs": [
        {
          "name": "blockNumber",
          "type": "uint256"
        }
      ],
      "name": "getWorkerParams",
      "outputs": [
        {
          "name": "",
          "type": "uint256"
        },
        {
          "name": "",
          "type": "uint256"
        },
        {
          "name": "",
          "type": "address[]"
        },
        {
          "name": "",
          "type": "uint256[]"
        }
      ],
      "payable": false,
      "stateMutability": "view",
      "type": "function",
      "signature": "0x9836ca31"
    },
    {
      "constant": true,
      "inputs": [
        {
          "name": "blockNumber",
          "type": "uint256"
        },
        {
          "name": "scAddr",
          "type": "address"
        }
      ],
      "name": "getWorkerGroup",
      "outputs": [
        {
          "name": "",
          "type": "address[]"
        }
      ],
      "payable": false,
      "stateMutability": "view",
      "type": "function",
      "signature": "0xd9611203"
    },
    {
      "constant": true,
      "inputs": [
        {
          "name": "blockNumber",
          "type": "uint256"
        }
      ],
      "name": "getWorkersParams",
      "outputs": [
        {
          "name": "",
          "type": "uint256"
        },
        {
          "name": "",
          "type": "uint256"
        },
        {
          "name": "",
          "type": "address[]"
        },
        {
          "name": "",
          "type": "address[]"
        }
      ],
      "payable": false,
      "stateMutability": "view",
      "type": "function",
      "signature": "0x59c91a12"
    },
    {
      "constant": true,
      "inputs": [
        {
          "name": "custodian",
          "type": "address"
        }
      ],
      "name": "getReport",
      "outputs": [
        {
          "name": "",
          "type": "address"
        },
        {
          "name": "",
          "type": "bytes"
        }
      ],
      "payable": false,
      "stateMutability": "view",
      "type": "function",
      "signature": "0xa3bdae3e"
    }
  ],
  "bytecode": "0x60806040523480156200001157600080fd5b5060405160408062003e47833981018060405262000033919081019062000082565b60008054600160a060020a03938416600160a060020a03199182161790915560018054929093169116178155601b556005601c55620000cd565b60006200007b8251620000c1565b9392505050565b600080604083850312156200009657600080fd5b6000620000a485856200006d565b9250506020620000b7858286016200006d565b9150509250929050565b600160a060020a031690565b613d6a80620000dd6000396000f3006080604052600436106101535763ffffffff7c010000000000000000000000000000000000000000000000000000000060003504166305e62db681146101585780630a318da01461018e57806324b8fbf6146101bb5780632873e73c146101dd5780634048a257146101fd578063444094961461022d57806347e7ef241461025a5780634d0edeaa1461027a5780635956efef1461029a57806359c91a12146102ba5780635f0dd5bb146102ea57806369dc9ff31461030a57806375bbf75b146103395780637b5b2ce31461034e57806381ea44081461037b57806384062df71461039b5780638e055b8b146103bb57806390184b02146103e85780639489ad40146104085780639836ca311461042a578063a3bdae3e1461045a578063a85d84ef14610488578063d28cf5c1146104a8578063d3b524c4146104c8578063d9611203146104e8578063e579f50014610508575b600080fd5b34801561016457600080fd5b506101786101733660046130cc565b61053a565b604051610185919061388a565b60405180910390f35b34801561019a57600080fd5b506101ae6101a93660046131cd565b61066e565b60405161018591906137a8565b3480156101c757600080fd5b506101db6101d6366004613084565b610696565b005b3480156101e957600080fd5b506101db6101f8366004613270565b6107ca565b34801561020957600080fd5b5061021d610218366004612e54565b610bce565b6040516101859493929190613834565b34801561023957600080fd5b5061024d610248366004612f79565b610c92565b604051610185919061397b565b34801561026657600080fd5b506101db610275366004612f79565b610d1c565b34801561028657600080fd5b506101db610295366004612e7a565b610eb9565b3480156102a657600080fd5b506101db6102b536600461302c565b611070565b3480156102c657600080fd5b506102da6102d53660046131cd565b6112b6565b6040516101859493929190613b5e565b3480156102f657600080fd5b506101ae6103053660046131cd565b6112c3565b34801561031657600080fd5b5061032a610325366004612e54565b6112d1565b604051610185939291906137ec565b34801561034557600080fd5b5061024d6112ff565b34801561035a57600080fd5b5061036e610369366004612f79565b611306565b604051610185919061396d565b34801561038757600080fd5b5061024d610396366004612e54565b6113e0565b3480156103a757600080fd5b5061024d6103b6366004612e54565b61144f565b3480156103c757600080fd5b506103db6103d636600461328f565b6114be565b6040516101859190613879565b3480156103f457600080fd5b5061036e610403366004612e54565b611570565b34801561041457600080fd5b5061041d6115b5565b6040516101859190613a3a565b34801561043657600080fd5b5061044a6104453660046131cd565b6115c4565b6040516101859493929190613b9f565b34801561046657600080fd5b5061047a610475366004612e54565b6116ef565b604051610185929190613814565b34801561049457600080fd5b506101db6104a3366004613119565b611900565b3480156104b457600080fd5b506101db6104c33660046131eb565b611b76565b3480156104d457600080fd5b506101db6104e3366004612fb3565b611c56565b3480156104f457600080fd5b506103db610503366004613240565b611e7f565b34801561051457600080fd5b506105286105233660046131cd565b61219f565b60405161018596959493929190613b08565b606080600080866001600160a060020a0382166000908152601a602052604090206003015460ff16600181111561056d57fe5b146105965760405160e560020a62461bcd02815260040161058d90613ad8565b60405180910390fd5b8515156105bc57600160a060020a0388166000908152601a602052604090206002015495505b6105cc868863ffffffff61227916565b6040519080825280602002602001820160405280156105f5578160200160208202803883390190505b509350600092508691505b8582101561066257600160a060020a0388166000908152601a6020526040902060020180548390811061062f57fe5b9060005260206000200154848481518110151561064857fe5b602090810290910101526001928301929190910190610600565b50919695505050505050565b601680548290811061067c57fe5b600091825260209091200154600160a060020a0316905081565b33600090815260186020526040812054600160a060020a0316151561070a5750601680549081906106ca9060018301612b71565b50336016828154811015156106db57fe5b9060005260206000200160006101000a815481600160a060020a030219169083600160a060020a031602179055505b3360009081526018602090815260408220805473ffffffffffffffffffffffffffffffffffffffff1916600160a060020a0387161781556002810192909255835161075b9260010191850190612b9a565b503360008181526018602052604090819020805474ff0000000000000000000000000000000000000000191660a060020a179055517f0a31ee9d46a828884b81003c8498156ea6aa15b9b54bdd0ef0b533d9eba57e55916107bd9186906137b6565b60405180910390a1505050565b600080600080336107d9612c18565b600160a060020a0382811660009081526018602090815260409182902082516080810184528154948516815260a060020a90940460ff1684830152600180820180548551600261010094831615949094026000190190911692909204601f810185900485028301850186528083529294860193919290918301828280156108a15780601f10610876576101008083540402835291602001916108a1565b820191906000526020600020905b81548152906001019060200180831161088457829003601f168201915b5050505050815260200160028201548152505090506000816020015160ff161115156108e25760405160e560020a62461bcd02815260040161058d90613a48565b60015433600090815260186020526040902054600160a060020a039081169116146109225760405160e560020a62461bcd02815260040161058d90613ab8565b60009550600094505b600585101561098d576002856005811061094157fe5b600402015415156109545784955061098d565b6002866005811061096157fe5b60040201546002866005811061097357fe5b60040201541015610982578495505b60019094019361092b565b436002876005811061099b57fe5b600402015587600287600581106109ae57fe5b600402016003018190555060009350600092505b601654831015610b5f57601b54601860006016868154811015156109e257fe5b6000918252602080832090910154600160a060020a0316835282019290925260400190206002015410610b545760028660058110610a1c57fe5b600402016001018054809190600101610a359190612b71565b506016805484908110610a4457fe5b600091825260209091200154600160a060020a031660028760058110610a6657fe5b6004020160010185815481101515610a7a57fe5b6000918252602090912001805473ffffffffffffffffffffffffffffffffffffffff1916600160a060020a039290921691909117905560028660058110610abd57fe5b600402016002018054809190600101610ad69190612b71565b5060186000601685815481101515610aea57fe5b6000918252602080832090910154600160a060020a031683528201929092526040019020600290810154908760058110610b2057fe5b6004020160020185815481101515610b3457fe5b600091825260209091200155610b5184600163ffffffff61229016565b93505b6001909201916109c2565b7f7047379c64ccafb62f6625e6b2d8eb6e1b0e091fac56a11ab5e2fd896e4db1d0884360028960058110610b8f57fe5b6004020160010160028a600581101515610ba557fe5b60040201600201604051610bbc9493929190613be0565b60405180910390a15050505050505050565b6018602090815260009182526040918290208054600180830180548651600261010094831615949094026000190190911692909204601f8101869004860283018601909652858252600160a060020a0383169560a060020a90930460ff169491929091830182828015610c825780601f10610c5757610100808354040283529160200191610c82565b820191906000526020600020905b815481529060010190602001808311610c6557829003601f168201915b5050505050908060020154905084565b6000826001600160a060020a0382166000908152601a602052604090206003015460ff166001811115610cc157fe5b14610ce15760405160e560020a62461bcd02815260040161058d90613ad8565b600160a060020a0384166000908152601a60205260409020600201805484908110610d0857fe5b906000526020600020015491505092915050565b81610d25612c18565b600160a060020a0382811660009081526018602090815260409182902082516080810184528154948516815260a060020a90940460ff1684830152600180820180548551600261010094831615949094026000190190911692909204601f81018590048502830185018652808352929486019391929091830182828015610ded5780601f10610dc257610100808354040283529160200191610ded565b820191906000526020600020905b815481529060010190602001808311610dd057829003601f168201915b5050505050815260200160028201548152505090506000816020015160ff16111515610e2e5760405160e560020a62461bcd02815260040161058d90613a48565b600160a060020a038416600090815260186020526040902060020154610e5a908463ffffffff61229016565b600160a060020a0385166000908152601860205260409081902060020191909155517fb3ef81558ed1a50072a492984535a009da8b129c749500b387f1e5f4886bdde590610eab90869086906137d1565b60405180910390a150505050565b33610ec2612c18565b600160a060020a0382811660009081526018602090815260409182902082516080810184528154948516815260a060020a90940460ff1684830152600180820180548551600261010094831615949094026000190190911692909204601f81018590048502830185018652808352929486019391929091830182828015610f8a5780601f10610f5f57610100808354040283529160200191610f8a565b820191906000526020600020905b815481529060010190602001808311610f6d57829003601f168201915b5050505050815260200160028201548152505090506000816020015160ff16111515610fcb5760405160e560020a62461bcd02815260040161058d90613a48565b876001600160a060020a0382166000908152601a602052604090206003015460ff166001811115610ff857fe5b146110185760405160e560020a62461bcd02815260040161058d90613ad8565b61102689898989898961229d565b7f49f3b610d2b607252a8901e3c134022c7a6330e5f6525f0ed84dd4a127478958888888888860405161105d95949392919061389b565b60405180910390a1505050505050505050565b33611079612c18565b600160a060020a0382811660009081526018602090815260409182902082516080810184528154948516815260a060020a90940460ff1684830152600180820180548551600261010094831615949094026000190190911692909204601f810185900485028301850186528083529294860193919290918301828280156111415780601f1061111657610100808354040283529160200191611141565b820191906000526020600020905b81548152906001019060200180831161112457829003601f168201915b5050505050815260200160028201548152505090506000816020015160ff161115156111825760405160e560020a62461bcd02815260040161058d90613a48565b876001600160a060020a0382166000908152601a602052604090206003015460ff1660018111156111af57fe5b146111cf5760405160e560020a62461bcd02815260040161058d90613ad8565b6000808981526019602052604090206004015460a060020a900460ff1660018111156111f757fe5b146112175760405160e560020a62461bcd02815260040161058d90613a68565b611225898989898989612582565b6000888152601960209081526040909120855161124a92600390920191870190612b9a565b5060008881526019602052604090819020600401805474ff0000000000000000000000000000000000000000191660a060020a179055517f665329bb9a4e1062edc215d9c5ab57fa54c4c88e3dfbcc68e0cd92fdd010fa6e9061105d908a908a908a908a908a90613989565b6000806060809193509193565b601780548290811061067c57fe5b601a60205260009081526040902080546001820154600390920154600160a060020a03909116919060ff1683565b6017545b90565b60008080846001600160a060020a0382166000908152601a602052604090206003015460ff16600181111561133757fe5b146113575760405160e560020a62461bcd02815260040161058d90613ad8565b60009250600091505b600160a060020a0386166000908152601a60205260409020600201548210156113d357600160a060020a0386166000908152601a602052604090206002018054869190849081106113ad57fe5b60009182526020909120015414156113c857600192506113d3565b600190910190611360565b8293505b50505092915050565b6000816001600160a060020a0382166000908152601a602052604090206003015460ff16600181111561140f57fe5b1461142f5760405160e560020a62461bcd02815260040161058d90613ad8565b5050600160a060020a03166000908152601a602052604090206001015490565b6000816001600160a060020a0382166000908152601a602052604090206003015460ff16600181111561147e57fe5b1461149e5760405160e560020a62461bcd02815260040161058d90613ad8565b5050600160a060020a03166000908152601a602052604090206002015490565b6060806000808415156114d15760175494505b6114e1858763ffffffff61227916565b60405190808252806020026020018201604052801561150a578160200160208202803883390190505b509250600091508590505b848110156113d357601780548290811061152b57fe5b6000918252602090912001548351600160a060020a039091169084908490811061155157fe5b600160a060020a03909216602092830290910190910152600101611515565b60006001600160a060020a0383166000908152601a602052604090206003015460ff16600181111561159e57fe5b14156115ac575060016115b0565b5060005b919050565b600054600160a060020a031681565b60008060608060006115d4612c4d565b6115dd8761278f565b9150600282600581106115ec57fe5b6004020160806040519081016040529081600082015481526020016001820180548060200260200160405190810160405280929190818152602001828054801561165f57602002820191906000526020600020905b8154600160a060020a03168152600190910190602001808311611641575b50505050508152602001600282018054806020026020016040519081016040528092919081815260200182805480156116b757602002820191906000526020600020905b8154815260200190600101908083116116a3575b5050509183525050600391909101546020918201528151606083015191830151604090930151909a9199509197509095509350505050565b60006060826116fc612c18565b600160a060020a0382811660009081526018602090815260409182902082516080810184528154948516815260a060020a90940460ff1684830152600180820180548551600261010094831615949094026000190190911692909204601f810185900485028301850186528083529294860193919290918301828280156117c45780601f10611799576101008083540402835291602001916117c4565b820191906000526020600020905b8154815290600101906020018083116117a757829003601f168201915b5050505050815260200160028201548152505090506000816020015160ff161115156118055760405160e560020a62461bcd02815260040161058d90613a48565b600160a060020a038086166000908152601860205260409020541615156118415760405160e560020a62461bcd02815260040161058d90613a98565b600160a060020a038581166000908152601860209081526040918290208054600191820180548551600261010095831615959095026000190190911693909304601f81018590048502840185019095528483529416939290918391908301828280156118ee5780601f106118c3576101008083540402835291602001916118ee565b820191906000526020600020905b8154815290600101906020018083116118d157829003601f168201915b50505050509050935093505050915091565b60005b8451811015611b305760196000868381518110151561191e57fe5b6020908102909101810151825281019190915260400160002060040154600160a060020a0316156119645760405160e560020a62461bcd02815260040161058d90613ac8565b838181518110151561197257fe5b9060200190602002015160196000878481518110151561198e57fe5b602090810290910181015182528101919091526040016000205582518390829081106119b657fe5b906020019060200201516019600087848151811015156119d257fe5b6020908102919091018101518252810191909152604001600020600101805473ffffffffffffffffffffffffffffffffffffffff1916600160a060020a03929092169190911790558151829082908110611a2857fe5b90602001906020020151601960008784815181101515611a4457fe5b90602001906020020151600019166000191681526020019081526020016000206002018190555033601960008784815181101515611a7e57fe5b60209081029190910181015182528101919091526040016000908120600401805473ffffffffffffffffffffffffffffffffffffffff1916600160a060020a03939093169290921790915585516019908290889085908110611adc57fe5b60209081029091018101518252810191909152604001600020600401805474ff0000000000000000000000000000000000000000191660a060020a836001811115611b2357fe5b0217905550600101611903565b7fcb8afab3437be2f96ef2a2932eb02d02fd765bfe8be7c1f5a58edd6452317dde8585858533604051611b67959493929190613907565b60405180910390a15050505050565b600084815260196020526040902060040154600160a060020a031615611bb15760405160e560020a62461bcd02815260040161058d90613ac8565b60008481526019602052604090819020848155600181018054600160a060020a03861673ffffffffffffffffffffffffffffffffffffffff199182161790915560028201849055600490910180549091163390811774ff0000000000000000000000000000000000000000191690915590517f51364a5a527e38841b15c974f7924dad755bc9ce0d29701d7501a7bd297b787b91610eab9187918791879187916139c3565b33611c5f612c18565b600160a060020a0382811660009081526018602090815260409182902082516080810184528154948516815260a060020a90940460ff1684830152600180820180548551600261010094831615949094026000190190911692909204601f81018590048502830185018652808352929486019391929091830182828015611d275780601f10611cfc57610100808354040283529160200191611d27565b820191906000526020600020905b815481529060010190602001808311611d0a57829003601f168201915b5050505050815260200160028201548152505090506000816020015160ff16111515611d685760405160e560020a62461bcd02815260040161058d90613a48565b600160a060020a0386166000908152601a602052604081206003015460ff166001811115611d9257fe5b14611db25760405160e560020a62461bcd02815260040161058d90613a58565b600160a060020a038681166000818152601a6020526040808220805494891673ffffffffffffffffffffffffffffffffffffffff1995861617815560018082018b90556003909101805460ff1916821790556017805491820181559092527fc624b66cc0138b8fabc209247f72d758e1cf3343756d543badbf24212bed8c159091018054909316909117909155517fff27b3bb5dfb682b066cdace68b5dda84d03c3d2eadac54284aaec44cbcff51690611e6f90889088906137d1565b60405180910390a1505050505050565b606060006060611e8d612c4d565b60606000806000806000806000611ea38e61278f565b9a50611eae8b612837565b995060028b60058110611ebd57fe5b60040201608060405190810160405290816000820154815260200160018201805480602002602001604051908101604052809291908181526020018280548015611f3057602002820191906000526020600020905b8154600160a060020a03168152600190910190602001808311611f12575b5050505050815260200160028201805480602002602001604051908101604052809291908181526020018280548015611f8857602002820191906000526020600020905b815481526020019060010190808311611f74575b505050505081526020016003820154815250509850601c54604051908082528060200260200182016040528015611fc9578160200160208202803883390190505b50975060009650600095505b601c5486101561218d575b8689606001518a600001518f6040516020018085815260200184815260200183815260200182600160a060020a0316600160a060020a03166c010000000000000000000000000281526014019450505050506040516020818303038152906040526040518082805190602001908083835b602083106120705780518252601f199092019160209182019101612051565b6001836020036101000a03801982511681845116808217855250505050505090500191505060405180910390209450895185600190048115156120af57fe5b06935089848151811015156120c057fe5b90602001906020020151925060009150600090505b87518110156121205787818151811015156120ec57fe5b90602001906020020151600160a060020a031683600160a060020a031614156121185760019150612120565b6001016120d5565b81151561214e5782888781518110151561213657fe5b600160a060020a039092166020928302909101909101525b875160019097019688908790811061216257fe5b90602001906020020151600160a060020a03166000141561218257611fe0565b600190950194611fd5565b50959c9b505050505050505050505050565b601960209081526000918252604091829020805460018083015460028085015460038601805489516101009682161596909602600019011692909204601f81018890048802850188019098528784529396600160a060020a03909216959394939091908301828280156122535780601f1061222857610100808354040283529160200191612253565b820191906000526020600020905b81548152906001019060200180831161223657829003601f168201915b50505060049093015491925050600160a060020a0381169060ff60a060020a9091041686565b60008282111561228557fe5b508082035b92915050565b8181018281101561228a57fe5b600160a060020a0386166000908152601a60205260408120600201549080821515612300578660008151811015156122d157fe5b60209081029091010151156122fb5760405160e560020a62461bcd02815260040161058d90613a88565b612379565b600160a060020a0389166000908152601a6020526040902060020161232c84600163ffffffff61227916565b8154811061233657fe5b6000918252602082200154885190918991811061234f57fe5b60209081029091010151146123795760405160e560020a62461bcd02815260040161058d90613a78565b600091505b8751821015612455576000601960008a8581518110151561239b57fe5b602090810290910181015182528101919091526040016000206004015460ff60a060020a9091041660018111156123ce57fe5b146123ee5760405160e560020a62461bcd02815260040161058d90613a68565b600082111561244a57856001830381518110151561240857fe5b60209081029091010151875188908490811061242057fe5b602090810290910101511461244a5760405160e560020a62461bcd02815260040161058d90613aa8565b60019091019061237e565b5060005b875181101561257757600160a060020a0389166000908152601a60205260409020865160029091019087908390811061248e57fe5b60209081029091018101518254600181810185556000948552929093209092019190915588516124c39163ffffffff61227916565b81141561250f5783601960008a848151811015156124dd57fe5b6020908102909101810151825281810192909252604001600020825161250d936003909201929190910190612b9a565b505b6001601960008a8481518110151561252357fe5b60209081029091018101518252810191909152604001600020600401805474ff0000000000000000000000000000000000000000191660a060020a83600181111561256a57fe5b0217905550600101612459565b505050505050505050565b600160a060020a0386166000908152601a602052604081206002015490808215156125cd5786156125c85760405160e560020a62461bcd02815260040161058d90613a88565b612630565b600160a060020a0389166000908152601a602052604090206002016125f984600163ffffffff61227916565b8154811061260357fe5b60009182526020909120015487146126305760405160e560020a62461bcd02815260040161058d90613a78565b600160a060020a0389166000908152601a6020908152604080832060020180546001810182559084529282902090920188905581518082018b81529281018a90526060810189905287518b938b938b938b936080909101918401908083835b602083106126ae5780518252601f19909201916020918201910161268f565b6001836020036101000a0380198251168184511680821785525050505050509050019450505050506040516020818303038152906040526040518082805190602001908083835b602083106127145780518252601f1990920191602091820191016126f5565b5181516020939093036101000a60001901801990911692169190911790526040519201829003909120945061274f9250849150869050612ab4565b33600090815260186020526040902054909150600160a060020a038083169116146125775760405160e560020a62461bcd02815260040161058d90613ae8565b6000600019815b60058110156128045783600282600581106127ad57fe5b6004020154118015906127f357508160000b60001914806127f357506002600083900b600581106127da57fe5b6004020154600282600581106127ec57fe5b6004020154115b156127fc578091505b600101612796565b600019600083900b141561282d5760405160e560020a62461bcd02815260040161058d90613af8565b5060000b92915050565b6060612841612c4d565b60008060608180806002896005811061285657fe5b600402016080604051908101604052908160008201548152602001600182018054806020026020016040519081016040528092919081815260200182805480156128c957602002820191906000526020600020905b8154600160a060020a031681526001909101906020018083116128ab575b505050505081526020016002820180548060200260200160405190810160405280929190818152602001828054801561292157602002820191906000526020600020905b81548152602001906001019080831161290d575b50505050508152602001600382015481525050965060009550600094505b8660200151518510156129af57602087015180518690811061295d57fe5b60209081029091010151600160a060020a0316156129a4576129a187604001518681518110151561298a57fe5b60209081029091010151879063ffffffff61229016565b95505b60019094019361293f565b856040519080825280602002602001820160405280156129d9578160200160208202803883390190505b50935060009250600091505b866020015151821015612aa7576020870151805183908110612a0357fe5b60209081029091010151600160a060020a031615612a9c575060005b6040870151805183908110612a3057fe5b90602001906020020151811015612a9c576020870151805183908110612a5257fe5b906020019060200201518484815181101515612a6a57fe5b600160a060020a03909216602092830290910190910152612a9283600163ffffffff61229016565b9250600101612a1f565b6001909101906129e5565b5091979650505050505050565b60008060008084516041141515612ace57600093506113d7565b50505060208201516040830151606084015160001a601b60ff82161015612af357601b015b8060ff16601b14158015612b0b57508060ff16601c14155b15612b1957600093506113d7565b60018682858560405160008152602001604052604051612b3c9493929190613a05565b60206040516020810390808403906000865af1158015612b60573d6000803e3d6000fd5b5050506020604051035193506113d7565b815481835581811115612b9557600083815260209020612b95918101908301612c76565b505050565b828054600181600116156101000203166002900490600052602060002090601f016020900481019282601f10612bdb57805160ff1916838001178555612c08565b82800160010185558215612c08579182015b82811115612c08578251825591602001919060010190612bed565b50612c14929150612c76565b5090565b6080604051908101604052806000600160a060020a03168152602001600060ff16815260200160608152602001600081525090565b608060405190810160405280600081526020016060815260200160608152602001600081525090565b61130391905b80821115612c145760008155600101612c7c565b6000612c9c8235613cb1565b9392505050565b6000601f82018313612cb457600080fd5b8135612cc7612cc282613c48565b613c21565b91508181835260208401935060208101905083856020840282011115612cec57600080fd5b60005b83811015612d185781612d028882612c90565b8452506020928301929190910190600101612cef565b5050505092915050565b6000601f82018313612d3357600080fd5b8135612d41612cc282613c48565b91508181835260208401935060208101905083856020840282011115612d6657600080fd5b60005b83811015612d185781612d7c8882612e02565b8452506020928301929190910190600101612d69565b6000601f82018313612da357600080fd5b8135612db1612cc282613c48565b91508181835260208401935060208101905083856020840282011115612dd657600080fd5b60005b83811015612d185781612dec8882612e02565b8452506020928301929190910190600101612dd9565b6000612c9c8235611303565b6000601f82018313612e1f57600080fd5b8135612e2d612cc282613c69565b91508082526020830160208301858383011115612e4957600080fd5b6113d7838284613cea565b600060208284031215612e6657600080fd5b6000612e728484612c90565b949350505050565b60008060008060008060c08789031215612e9357600080fd5b6000612e9f8989612c90565b965050602087013567ffffffffffffffff811115612ebc57600080fd5b612ec889828a01612d22565b955050604087013567ffffffffffffffff811115612ee557600080fd5b612ef189828a01612d22565b945050606087013567ffffffffffffffff811115612f0e57600080fd5b612f1a89828a01612d22565b935050608087013567ffffffffffffffff811115612f3757600080fd5b612f4389828a01612e0e565b92505060a087013567ffffffffffffffff811115612f6057600080fd5b612f6c89828a01612e0e565b9150509295509295509295565b60008060408385031215612f8c57600080fd5b6000612f988585612c90565b9250506020612fa985828601612e02565b9150509250929050565b60008060008060808587031215612fc957600080fd5b6000612fd58787612c90565b9450506020612fe687828801612e02565b9350506040612ff787828801612c90565b925050606085013567ffffffffffffffff81111561301457600080fd5b61302087828801612e0e565b91505092959194509250565b60008060008060008060c0878903121561304557600080fd5b60006130518989612c90565b965050602061306289828a01612e02565b955050604061307389828a01612e02565b9450506060612f1a89828a01612e02565b6000806040838503121561309757600080fd5b60006130a38585612c90565b925050602083013567ffffffffffffffff8111156130c057600080fd5b612fa985828601612e0e565b6000806000606084860312156130e157600080fd5b60006130ed8686612c90565b93505060206130fe86828701612e02565b925050604061310f86828701612e02565b9150509250925092565b6000806000806080858703121561312f57600080fd5b843567ffffffffffffffff81111561314657600080fd5b61315287828801612d22565b945050602085013567ffffffffffffffff81111561316f57600080fd5b61317b87828801612d92565b935050604085013567ffffffffffffffff81111561319857600080fd5b6131a487828801612ca3565b925050606085013567ffffffffffffffff8111156131c157600080fd5b61302087828801612d92565b6000602082840312156131df57600080fd5b6000612e728484612e02565b6000806000806080858703121561320157600080fd5b600061320d8787612e02565b945050602061321e87828801612e02565b935050604061322f87828801612c90565b925050606061302087828801612e02565b6000806040838503121561325357600080fd5b600061325f8585612e02565b9250506020612fa985828601612c90565b6000806040838503121561328357600080fd5b60006130a38585612e02565b600080604083850312156132a257600080fd5b6000612f988585612e02565b6132b781613cb1565b82525050565b60006132c882613ca3565b8084526020840193506132da83613c91565b60005b8281101561330a576132f08683516132ae565b6132f982613c91565b6020969096019591506001016132dd565b5093949350505050565b600061331f82613ca7565b80845260208401935061333183613c97565b60005b8281101561330a576133478683546132ae565b61335082613cab565b602096909601959150600101613334565b600061336c82613ca3565b80845260208401935061337e83613c91565b60005b8281101561330a57613394868351613451565b61339d82613c91565b602096909601959150600101613381565b60006133b982613ca3565b8084526020840193506133cb83613c91565b60005b8281101561330a576133e1868351613451565b6133ea82613c91565b6020969096019591506001016133ce565b600061340682613ca7565b80845260208401935061341883613c97565b60005b8281101561330a5761342e868354613451565b61343782613cab565b60209690960195915060010161341b565b6132b781613cbd565b6132b781611303565b600061346582613ca3565b808452613479816020860160208601613cf6565b61348281613d26565b9093016020019392505050565b6132b781613cd4565b6132b781613cdf565b601481527f556e7265676973746572656420776f726b65722e000000000000000000000000602082015260400190565b602181527f53656372657420636f6e747261637420616c7265616479206465706c6f79656460208201527f2e00000000000000000000000000000000000000000000000000000000000000604082015260600190565b601381527f496e76616c6964207461736b2073746174757300000000000000000000000000602082015260400190565b601e81527f496e76616c696420696e7075742073746174652064656c746120686173680000602082015260400190565b602e81527f496e76616c696420696e7075742073746174652064656c74612068617368206660208201527f6f7220656d707479207374617465000000000000000000000000000000000000604082015260600190565b601581527f576f726b6572206e6f7420726567697374657265640000000000000000000000602082015260400190565b602381527f496e76616c69642073746174652064656c746120686173686573206f7264657260208201527f696e670000000000000000000000000000000000000000000000000000000000604082015260600190565b602681527f4f6e6c7920746865205072696e636970616c2063616e2075706461746520746860208201527f6520736565640000000000000000000000000000000000000000000000000000604082015260600190565b601381527f5461736b20616c72656164792065786973742e00000000000000000000000000602082015260400190565b601d81527f53656372657420636f6e7472616374206e6f74206465706c6f7965642e000000602082015260400190565b601281527f496e76616c6964207369676e61747572652e0000000000000000000000000000602082015260400190565b603681527f4e6f20776f726b65727320706172616d657465727320656e74727920666f722060208201527f73706563696669656420626c6f636b206e756d62657200000000000000000000604082015260600190565b6132b781613cce565b6020810161228a82846132ae565b604081016137c482856132ae565b612c9c60208301846132ae565b604081016137df82856132ae565b612c9c6020830184613451565b606081016137fa82866132ae565b6138076020830185613451565b612e726040830184613498565b6040810161382282856132ae565b8181036020830152612e72818461345a565b6080810161384282876132ae565b61384f602083018661379f565b8181036040830152613861818561345a565b90506138706060830184613451565b95945050505050565b60208082528101612c9c81846132bd565b60208082528101612c9c8184613361565b60a080825281016138ac8188613361565b905081810360208301526138c08187613361565b905081810360408301526138d48186613361565b905081810360608301526138e8818561345a565b905081810360808301526138fc818461345a565b979650505050505050565b60a080825281016139188188613361565b9050818103602083015261392c81876133ae565b9050818103604083015261394081866132bd565b9050818103606083015261395481856133ae565b905061396360808301846132ae565b9695505050505050565b6020810161228a8284613448565b6020810161228a8284613451565b60a081016139978288613451565b6139a46020830187613451565b6139b16040830186613451565b81810360608301526138e8818561345a565b60a081016139d18288613451565b6139de6020830187613451565b6139eb60408301866132ae565b6139f86060830185613451565b61396360808301846132ae565b60808101613a138287613451565b613a20602083018661379f565b613a2d6040830185613451565b6138706060830184613451565b6020810161228a828461348f565b6020808252810161228a816134a1565b6020808252810161228a816134d1565b6020808252810161228a81613527565b6020808252810161228a81613557565b6020808252810161228a81613587565b6020808252810161228a816135dd565b6020808252810161228a8161360d565b6020808252810161228a81613663565b6020808252810161228a816136b9565b6020808252810161228a816136e9565b6020808252810161228a81613719565b6020808252810161228a81613749565b60c08101613b168289613451565b613b2360208301886132ae565b613b306040830187613451565b8181036060830152613b42818661345a565b9050613b5160808301856132ae565b6138fc60a0830184613498565b60808101613b6c8287613451565b613b796020830186613451565b8181036040830152613b8b81856132bd565b9050818103606083015261396381846132bd565b60808101613bad8287613451565b613bba6020830186613451565b8181036040830152613bcc81856132bd565b9050818103606083015261396381846133ae565b60808101613bee8287613451565b613bfb6020830186613451565b8181036040830152613c0d8185613314565b9050818103606083015261396381846133fb565b60405181810167ffffffffffffffff81118282101715613c4057600080fd5b604052919050565b600067ffffffffffffffff821115613c5f57600080fd5b5060209081020190565b600067ffffffffffffffff821115613c8057600080fd5b506020601f91909101601f19160190565b60200190565b60009081526020902090565b5190565b5490565b60010190565b600160a060020a031690565b151590565b600060028210612c1457fe5b60ff1690565b600061228a82613cb1565b600061228a82613cc2565b82818337506000910152565b60005b83811015613d11578181015183820152602001613cf9565b83811115613d20576000848401525b50505050565b601f01601f1916905600a265627a7a723058202d354802493e7ea43cb9c1f0ed4fc3ff48d92e556d0b5881082f3e53e1348f046c6578706572696d656e74616cf50037",
  "source": "pragma solidity ^0.4.24;\npragma experimental ABIEncoderV2;\n\nimport \"openzeppelin-solidity/contracts/math/SafeMath.sol\";\nimport \"openzeppelin-solidity/contracts/ECRecovery.sol\";\n\ncontract ERC20 {\n    function allowance(address owner, address spender) public view returns (uint256);\n\n    function transferFrom(address from, address to, uint256 value) public returns (bool);\n\n    function approve(address spender, uint256 value) public returns (bool);\n\n    function totalSupply() public view returns (uint256);\n\n    function balanceOf(address who) public view returns (uint256);\n\n    function transfer(address to, uint256 value) public returns (bool);\n\n    event Transfer(address indexed from, address indexed to, uint256 value);\n    event Approval(address indexed owner, address indexed spender, uint256 value);\n}\n\ncontract Enigma {\n    using SafeMath for uint256;\n    using ECRecovery for bytes32;\n\n    // The interface of the deployed ENG ERC20 token contract\n    ERC20 public engToken;\n\n    struct Task {\n        uint fee;\n        address token;\n        uint tokenValue;\n        bytes proof; // Signature of (taskId, inStateDeltaHash, outStateDeltaHash, ethCall)\n        address sender;\n        TaskStatus status;\n    }\n    enum TaskStatus {RecordCreated, ReceiptVerified}\n\n    /**\n    * The signer address of the principal node\n    * This must be set when deploying the contract and remains immutable\n    * Since the signer address is derived from the public key of an\n    * SGX enclave, this ensures that the principal node cannot be tempered\n    * with or replaced.\n    */\n    address principal;\n\n    // The data representation of a worker (or node)\n    struct Worker {\n        address signer;\n        uint8 status; // Uninitialized: 0; Active: 1; Inactive: 2\n        bytes report; // Decided to store this as one  RLP encoded attribute for easier external storage in the future\n        uint256 balance;\n    }\n\n    /**\n    * The data representation of the worker parameters used as input for\n    * the worker selection algorithm\n    */\n    struct WorkersParams {\n        uint firstBlockNumber;\n        address[] workers;\n        uint[] balances;\n        uint seed;\n    }\n\n    struct SecretContract {\n        address owner;\n        bytes32 codeHash;\n        bytes32[] stateDeltaHashes;\n        SecretContractStatus status;\n        // TODO: consider keeping an index of taskIds\n    }\n    // TODO: do we want to have a contract lifecycle?\n    enum SecretContractStatus {Undefined, Deployed}\n\n    /**\n    * The last 5 worker parameters\n    * We keep a collection of worker parameters to account for latency issues.\n    * A computation task might be conceivably given out at a certain block number\n    * but executed at a later block in a different epoch. It follows that\n    * the contract must have access to the worker parameters effective when giving\n    * out the task, otherwise the selected worker would not match. We calculated\n    * that keeping the last 5 items should be more than enough to account for\n    * all latent tasks. Tasks results will be rejected past this limit.\n    */\n    WorkersParams[5] workersParams;\n\n    // An address-based index of all registered worker\n    address[] public workerAddresses;\n    // An address-based index of all secret contracts\n    address[] public scAddresses;\n\n    // A registry of all registered workers with their attributes\n    mapping(address => Worker) public workers;\n    mapping(bytes32 => Task) public tasks;\n    mapping(address => SecretContract) public contracts;\n\n    // TODO: do we keep tasks forever? if not, when do we delete them?\n    uint stakingThreshold;\n    uint workerGroupSize;\n\n    // The events emitted by the contract\n    event Registered(address custodian, address signer);\n    event ValidatedSig(bytes sig, bytes32 hash, address workerAddr);\n    event WorkersParameterized(uint seed, uint256 blockNumber, address[] workers, uint[] balances);\n    event TaskRecordCreated(bytes32 taskId, uint fee, address token, uint tokenValue, address sender);\n    event TaskRecordsCreated(bytes32[] taskIds, uint[] fees, address[] tokens, uint[] tokenValues, address sender);\n    event ReceiptVerified(bytes32 taskId, bytes32 inStateDeltaHash, bytes32 outStateDeltaHash, bytes ethCall, bytes sig);\n    event ReceiptsVerified(bytes32[] taskIds, bytes32[] inStateDeltaHashes, bytes32[] outStateDeltaHashes, bytes ethCall, bytes sig);\n    event DepositSuccessful(address from, uint value);\n    event SecretContractDeployed(address scAddr, bytes32 codeHash);\n\n    constructor(address _tokenAddress, address _principal) public {\n        engToken = ERC20(_tokenAddress);\n        principal = _principal;\n        stakingThreshold = 1;\n        workerGroupSize = 5;\n    }\n\n    //TODO: break down these methods into services for upgradability\n\n    /**\n    * Checks if the custodian wallet is registered as a worker\n    *\n    * @param user The custodian address of the worker\n    */\n    modifier workerRegistered(address user) {\n        Worker memory worker = workers[user];\n        require(worker.status > 0, \"Unregistered worker.\");\n        _;\n    }\n\n    modifier contractDeployed(address scAddr) {\n        require(contracts[scAddr].status == SecretContractStatus.Deployed, \"Secret contract not deployed.\");\n        _;\n    }\n\n    /**\n    * Registers a new worker of change the signer parameters of an existing\n    * worker. This should be called by every worker (and the principal)\n    * node in order to receive tasks.\n    *\n    * @param signer The signer address, derived from the enclave public key\n    * @param report The RLP encoded report returned by the IAS\n    */\n    function register(address signer, bytes report)\n    public\n    {\n        // TODO: consider exit if both signer and custodian as matching\n        // If the custodian is not already register, we add an index entry\n        if (workers[msg.sender].signer == 0x0) {\n            // TODO: does workerAddresses.push just work here?\n            uint index = workerAddresses.length;\n            workerAddresses.length++;\n            workerAddresses[index] = msg.sender;\n        }\n\n        // Set the custodian attributes\n        workers[msg.sender].signer = signer;\n        workers[msg.sender].balance = 0;\n        workers[msg.sender].report = report;\n        workers[msg.sender].status = 1;\n\n        emit Registered(msg.sender, signer);\n    }\n\n    function deposit(address custodian, uint amount)\n    public\n    workerRegistered(custodian)\n    {\n        //        require(engToken.allowance(custodian, to) >= amount, \"Not enough tokens allowed for transfer\");\n        //        engToken.transferFrom(custodian, this, amount);\n\n        workers[custodian].balance = workers[custodian].balance.add(amount);\n\n        emit DepositSuccessful(custodian, amount);\n    }\n\n    // TODO: should the scAddr be computed on-chain from the codeHash + some randomness\n    // TODO: should any user deploy a secret contract or only a trusted enclave?\n    function deploySecretContract(address scAddr, bytes32 codeHash, address owner, bytes sig)\n    public\n    workerRegistered(msg.sender)\n    {\n        require(contracts[scAddr].status == SecretContractStatus.Undefined, \"Secret contract already deployed.\");\n        //TODO: verify sig\n\n        //TODO: is this too naive?\n        contracts[scAddr].owner = owner;\n        contracts[scAddr].codeHash = codeHash;\n        contracts[scAddr].status = SecretContractStatus.Deployed;\n        scAddresses.push(scAddr);\n\n        emit SecretContractDeployed(scAddr, codeHash);\n    }\n\n    function isDeployed(address scAddr)\n    public\n    view\n    returns (bool)\n    {\n        if (contracts[scAddr].status == SecretContractStatus.Deployed) {\n            return true;\n        } else {\n            return false;\n        }\n    }\n\n    function getCodeHash(address scAddr)\n    public\n    view\n    contractDeployed(scAddr)\n    returns (bytes32)\n    {\n        return contracts[scAddr].codeHash;\n    }\n\n    function countSecretContracts()\n    public\n    view\n    returns (uint)\n    {\n        return scAddresses.length;\n    }\n\n    /**\n    * Selects address from start up to, but not including, the stop number\n    **/\n    function getSecretContractAddresses(uint start, uint stop)\n    public\n    view\n    returns (address[])\n    {\n        if (stop == 0) {\n            stop = scAddresses.length;\n        }\n        address[] memory addresses = new address[](stop.sub(start));\n        uint pos = 0;\n        for (uint i = start; i < stop; i++) {\n            addresses[pos] = scAddresses[i];\n        }\n        return addresses;\n    }\n\n    function countStateDeltas(address scAddr)\n    public\n    view\n    contractDeployed(scAddr)\n    returns (uint)\n    {\n        return contracts[scAddr].stateDeltaHashes.length;\n    }\n\n    function getStateDeltaHash(address scAddr, uint index)\n    public\n    view\n    contractDeployed(scAddr)\n    returns (bytes32)\n    {\n        return contracts[scAddr].stateDeltaHashes[index];\n    }\n\n    /**\n    * Selects state deltas from start up to, but not including, the stop number\n    **/\n    function getStateDeltaHashes(address scAddr, uint start, uint stop)\n    public\n    view\n    contractDeployed(scAddr)\n    returns (bytes32[])\n    {\n        if (stop == 0) {\n            stop = contracts[scAddr].stateDeltaHashes.length;\n        }\n        bytes32[] memory deltas = new bytes32[](stop.sub(start));\n        uint pos = 0;\n        for (uint i = start; i < stop; i++) {\n            deltas[pos] = contracts[scAddr].stateDeltaHashes[i];\n            pos++;\n        }\n        return deltas;\n    }\n\n    function isValidDeltaHash(address scAddr, bytes32 stateDeltaHash)\n    public\n    view\n    contractDeployed(scAddr)\n    returns (bool)\n    {\n        bool valid = false;\n        for (uint i = 0; i < contracts[scAddr].stateDeltaHashes.length; i++) {\n            if (contracts[scAddr].stateDeltaHashes[i] == stateDeltaHash) {\n                valid = true;\n                break;\n            }\n        }\n        return valid;\n    }\n\n    /**\n    * Store task record\n    *\n    */\n    function createTaskRecord(\n        bytes32 taskId,\n        uint fee,\n        address token,\n        uint tokenValue\n    )\n    public\n    {\n        require(tasks[taskId].sender == 0x0, \"Task already exist.\");\n\n        tasks[taskId].fee = fee;\n        tasks[taskId].token = token;\n        tasks[taskId].tokenValue = tokenValue;\n        tasks[taskId].sender = msg.sender;\n        tasks[taskId].status = TaskStatus.RecordCreated;\n\n        emit TaskRecordCreated(taskId, fee, token, tokenValue, msg.sender);\n    }\n\n    function createTaskRecords(\n        bytes32[] taskIds,\n        uint[] fees,\n        address[] tokens,\n        uint[] tokenValues\n    )\n    public\n    {\n        for (uint i = 0; i < taskIds.length; i++) {\n            require(tasks[taskIds[i]].sender == 0x0, \"Task already exist.\");\n\n            tasks[taskIds[i]].fee = fees[i];\n            tasks[taskIds[i]].token = tokens[i];\n            tasks[taskIds[i]].tokenValue = tokenValues[i];\n            tasks[taskIds[i]].sender = msg.sender;\n            tasks[taskIds[i]].status = TaskStatus.RecordCreated;\n        }\n        emit TaskRecordsCreated(taskIds, fees, tokens, tokenValues, msg.sender);\n    }\n\n    // Execute the encoded function in the specified contract\n    function executeCall(address to, uint256 value, bytes data)\n    internal\n    returns (bool success)\n    {\n        assembly {\n            success := call(gas, to, value, add(data, 0x20), mload(data), 0, 0)\n        }\n    }\n\n    function verifyReceipt(\n        address scAddr,\n        bytes32 taskId,\n        bytes32 inStateDeltaHash,\n        bytes32 outStateDeltaHash,\n        bytes ethCall,\n        bytes sig\n    )\n    internal\n    {\n        uint index = contracts[scAddr].stateDeltaHashes.length;\n        if (index == 0) {\n            require(inStateDeltaHash == 0x0, 'Invalid input state delta hash for empty state');\n        } else {\n            require(inStateDeltaHash == contracts[scAddr].stateDeltaHashes[index.sub(1)], 'Invalid input state delta hash');\n        }\n        contracts[scAddr].stateDeltaHashes.push(outStateDeltaHash);\n\n        // TODO: execute the Ethereum calls\n\n        // Build a hash to validate that the I/Os are matching\n        bytes32 hash = keccak256(abi.encodePacked(taskId, inStateDeltaHash, outStateDeltaHash, ethCall));\n\n        // The worker address is not a real Ethereum wallet address but\n        // one generated from its signing key\n        address workerAddr = hash.recover(sig);\n        require(workerAddr == workers[msg.sender].signer, \"Invalid signature.\");\n    }\n\n    /**\n    * Commit the computation task results on chain\n    */\n    function commitReceipt(\n        address scAddr,\n        bytes32 taskId,\n        bytes32 inStateDeltaHash,\n        bytes32 outStateDeltaHash,\n        bytes ethCall,\n        bytes sig\n    )\n    public\n    workerRegistered(msg.sender)\n    contractDeployed(scAddr)\n    {\n        require(tasks[taskId].status == TaskStatus.RecordCreated, 'Invalid task status');\n        verifyReceipt(scAddr, taskId, inStateDeltaHash, outStateDeltaHash, ethCall, sig);\n\n        tasks[taskId].proof = sig;\n        tasks[taskId].status = TaskStatus.ReceiptVerified;\n        emit ReceiptVerified(taskId, inStateDeltaHash, outStateDeltaHash, ethCall, sig);\n    }\n\n    function verifyReceipts(\n        address scAddr,\n        bytes32[] taskIds,\n        bytes32[] inStateDeltaHashes,\n        bytes32[] outStateDeltaHashes,\n        bytes ethCall,\n        bytes sig\n    )\n    internal\n    {\n        // First, we verify the state delta hashes ordering\n        uint index = contracts[scAddr].stateDeltaHashes.length;\n        if (index == 0) {\n            require(inStateDeltaHashes[0] == 0x0, 'Invalid input state delta hash for empty state');\n        } else {\n            require(inStateDeltaHashes[0] == contracts[scAddr].stateDeltaHashes[index.sub(1)], 'Invalid input state delta hash');\n        }\n        for (uint i = 0; i < taskIds.length; i++) {\n            require(tasks[taskIds[i]].status == TaskStatus.RecordCreated, 'Invalid task status');\n            if (i > 0) {\n                require(inStateDeltaHashes[i] == outStateDeltaHashes[i - 1], 'Invalid state delta hashes ordering');\n            }\n        }\n        // TODO: verify signature\n        // Then, we store the outStateDeltaHashes\n        for (uint ic = 0; ic < taskIds.length; ic++) {\n            contracts[scAddr].stateDeltaHashes.push(outStateDeltaHashes[ic]);\n            if (ic == taskIds.length.sub(1)) {\n                tasks[taskIds[ic]].proof = sig;\n            }\n            tasks[taskIds[ic]].status = TaskStatus.ReceiptVerified;\n        }\n        // TODO: execute the Ethereum calls\n    }\n\n    function commitReceipts(\n        address scAddr,\n        bytes32[] taskIds,\n        bytes32[] inStateDeltaHashes,\n        bytes32[] outStateDeltaHashes,\n        bytes ethCall,\n        bytes sig\n    )\n    public\n    workerRegistered(msg.sender)\n    contractDeployed(scAddr)\n    {\n        verifyReceipts(scAddr, taskIds, inStateDeltaHashes, outStateDeltaHashes, ethCall, sig);\n        emit ReceiptsVerified(taskIds, inStateDeltaHashes, outStateDeltaHashes, ethCall, sig);\n    }\n\n    // Verify the signature submitted while reparameterizing workers\n    function verifyParamsSig(uint256 seed, bytes sig)\n    internal\n    pure\n    returns (address)\n    {\n        bytes32 hash = keccak256(abi.encodePacked(seed));\n        address signer = hash.recover(sig);\n        return signer;\n    }\n\n    /**\n    * Reparameterizing workers with a new seed\n    * This should be called for each epoch by the Principal node\n    *\n    * @param seed The random integer generated by the enclave\n    * @param sig The random integer signed by the the principal node's enclave\n    */\n    function setWorkersParams(uint seed, bytes sig)\n    public\n    workerRegistered(msg.sender)\n    {\n        // Reparameterizing workers with a new seed\n        // This should be called for each epoch by the Principal node\n\n        // We assume that the Principal is always the first registered node\n        require(workers[msg.sender].signer == principal, \"Only the Principal can update the seed\");\n        // TODO: verify the principal sig\n\n        // Create a new workers parameters item for the specified seed.\n        // The workers parameters list is a sort of cache, it never grows beyond its limit.\n        // If the list is full, the new item will replace the item assigned to the lowest block number.\n        uint paramIndex = 0;\n        for (uint pi = 0; pi < workersParams.length; pi++) {\n            // Find an empty slot in the array, if full use the lowest block number\n            if (workersParams[pi].firstBlockNumber == 0) {\n                paramIndex = pi;\n                break;\n            } else if (workersParams[pi].firstBlockNumber < workersParams[paramIndex].firstBlockNumber) {\n                paramIndex = pi;\n            }\n        }\n        workersParams[paramIndex].firstBlockNumber = block.number;\n        workersParams[paramIndex].seed = seed;\n\n        // Copy the current worker list\n        uint workerIndex = 0;\n        for (uint wi = 0; wi < workerAddresses.length; wi++) {\n            if (workers[workerAddresses[wi]].balance >= stakingThreshold) {\n                workersParams[paramIndex].workers.length++;\n                workersParams[paramIndex].workers[workerIndex] = workerAddresses[wi];\n\n                workersParams[paramIndex].balances.length++;\n                workersParams[paramIndex].balances[workerIndex] = workers[workerAddresses[wi]].balance;\n\n                workerIndex = workerIndex.add(1);\n            }\n        }\n        emit WorkersParameterized(seed, block.number, workersParams[paramIndex].workers, workersParams[paramIndex].balances);\n    }\n\n    function getWorkerParamsIndex(uint blockNumber)\n    internal\n    view\n    returns (uint)\n    {\n        // The workers parameters for a given block number\n        int8 index = - 1;\n        for (uint i = 0; i < workersParams.length; i++) {\n            if (workersParams[i].firstBlockNumber <= blockNumber && (index == - 1 || workersParams[i].firstBlockNumber > workersParams[uint(index)].firstBlockNumber)) {\n                index = int8(i);\n            }\n        }\n        require(index != - 1, \"No workers parameters entry for specified block number\");\n        return uint(index);\n    }\n\n    function getWorkerParams(uint blockNumber)\n    public\n    view\n    returns (uint, uint, address[], uint[]) {\n        uint index = getWorkerParamsIndex(blockNumber);\n        WorkersParams memory params = workersParams[index];\n        return (params.firstBlockNumber, params.seed, params.workers, params.balances);\n    }\n\n    function compileTokens(uint paramIndex)\n    internal\n    view\n    returns (address[])\n    {\n        WorkersParams memory params = workersParams[paramIndex];\n        uint tokenCpt = 0;\n        for (uint i = 0; i < params.workers.length; i++) {\n            if (params.workers[i] != 0x0) {\n                tokenCpt = tokenCpt.add(params.balances[i]);\n            }\n        }\n        address[] memory tokens = new address[](tokenCpt);\n        uint tokenIndex = 0;\n        for (uint ia = 0; ia < params.workers.length; ia++) {\n            if (params.workers[ia] != 0x0) {\n                for (uint ib = 0; ib < params.balances[ia]; ib++) {\n                    tokens[tokenIndex] = params.workers[ia];\n                    tokenIndex = tokenIndex.add(1);\n                }\n            }\n        }\n        return tokens;\n    }\n\n    function getWorkerGroup(uint blockNumber, address scAddr)\n    public\n    view\n    returns (address[])\n    {\n        // Compile a list of selected workers for the block number and\n        // secret contract.\n        uint paramIndex = getWorkerParamsIndex(blockNumber);\n        address[] memory tokens = compileTokens(paramIndex);\n        WorkersParams memory params = workersParams[paramIndex];\n\n        address[] memory selectedWorkers = new address[](workerGroupSize);\n        uint nonce = 0;\n        for (uint it = 0; it < workerGroupSize; it++) {\n            do {\n                bytes32 hash = keccak256(abi.encodePacked(nonce, params.seed, params.firstBlockNumber, scAddr));\n                uint index = uint256(hash) % tokens.length;\n                address worker = tokens[index];\n                bool dup = false;\n                for (uint id = 0; id < selectedWorkers.length; id++) {\n                    if (worker == selectedWorkers[id]) {\n                        dup = true;\n                        break;\n                    }\n                }\n                if (dup == false) {\n                    selectedWorkers[it] = worker;\n                }\n                nonce++;\n            }\n            while (selectedWorkers[it] == 0x0);\n        }\n        return selectedWorkers;\n    }\n\n    /**\n    * The worker parameters corresponding to the specified block number\n    *\n    * @param blockNumber The reference block number\n    */\n    function getWorkersParams(uint blockNumber)\n    public\n    view\n    returns (uint, uint, address[], address[])\n    {\n        // TODO: finalize implementation\n        uint firstBlockNumber = 0;\n        uint seed = 0;\n        address[] memory activeWorkers;\n        address[] memory activeContracts;\n        return (firstBlockNumber, seed, activeWorkers, activeContracts);\n    }\n\n    /**\n    * The RLP encoded report returned by the IAS server\n    *\n    * @param custodian The worker's custodian address\n    */\n    function getReport(address custodian)\n    public\n    view\n    workerRegistered(custodian)\n    returns (address, bytes)\n    {\n        // The RLP encoded report and signer's address for the specified worker\n        require(workers[custodian].signer != 0x0, \"Worker not registered\");\n        return (workers[custodian].signer, workers[custodian].report);\n    }\n}\n",
  "sourcePath": "/home/fredfortier/Code/Enigma/discovery/enigma-contract/contracts/Enigma.sol",
  "compiler": {
    "name": "solc",
    "version": "0.4.24+commit.e67f0147.Emscripten.clang"
  },
  "schemaVersion": "2.0.0",
  "updatedAt": "2018-10-17T23:11:51.809Z"
}