{
  "contractName": "Enigma",
  "abi": [
    {
      "constant": true,
      "inputs": [
        {
          "name": "",
          "type": "uint256"
        }
      ],
      "name": "workerIndex",
      "outputs": [
        {
          "name": "",
          "type": "address"
        }
      ],
      "payable": false,
      "stateMutability": "view",
      "type": "function"
    },
    {
      "constant": true,
      "inputs": [
        {
          "name": "",
          "type": "address"
        }
      ],
      "name": "workers",
      "outputs": [
        {
          "name": "pkey",
          "type": "string"
        },
        {
          "name": "quote",
          "type": "string"
        },
        {
          "name": "balance",
          "type": "uint256"
        },
        {
          "name": "rate",
          "type": "uint256"
        },
        {
          "name": "status",
          "type": "uint256"
        }
      ],
      "payable": false,
      "stateMutability": "view",
      "type": "function"
    },
    {
      "constant": true,
      "inputs": [
        {
          "name": "",
          "type": "address"
        },
        {
          "name": "",
          "type": "uint256"
        }
      ],
      "name": "tasks",
      "outputs": [
        {
          "name": "taskId",
          "type": "uint256"
        },
        {
          "name": "worker",
          "type": "address"
        },
        {
          "name": "proof",
          "type": "bytes32"
        },
        {
          "name": "reward",
          "type": "uint256"
        }
      ],
      "payable": false,
      "stateMutability": "view",
      "type": "function"
    },
    {
      "inputs": [],
      "payable": false,
      "stateMutability": "nonpayable",
      "type": "constructor"
    },
    {
      "anonymous": false,
      "inputs": [
        {
          "indexed": false,
          "name": "user",
          "type": "address"
        },
        {
          "indexed": false,
          "name": "pkey",
          "type": "string"
        },
        {
          "indexed": false,
          "name": "rate",
          "type": "uint256"
        },
        {
          "indexed": false,
          "name": "_success",
          "type": "bool"
        }
      ],
      "name": "Register",
      "type": "event"
    },
    {
      "anonymous": false,
      "inputs": [
        {
          "indexed": false,
          "name": "user",
          "type": "address"
        },
        {
          "indexed": false,
          "name": "_success",
          "type": "bool"
        }
      ],
      "name": "Login",
      "type": "event"
    },
    {
      "anonymous": false,
      "inputs": [
        {
          "indexed": false,
          "name": "user",
          "type": "address"
        },
        {
          "indexed": false,
          "name": "_success",
          "type": "bool"
        }
      ],
      "name": "Logout",
      "type": "event"
    },
    {
      "anonymous": false,
      "inputs": [
        {
          "indexed": false,
          "name": "user",
          "type": "address"
        },
        {
          "indexed": false,
          "name": "rate",
          "type": "uint256"
        },
        {
          "indexed": false,
          "name": "_success",
          "type": "bool"
        }
      ],
      "name": "UpdateRate",
      "type": "event"
    },
    {
      "anonymous": false,
      "inputs": [
        {
          "indexed": false,
          "name": "secretContract",
          "type": "address"
        },
        {
          "indexed": false,
          "name": "user",
          "type": "address"
        },
        {
          "indexed": false,
          "name": "amount",
          "type": "uint256"
        },
        {
          "indexed": false,
          "name": "balance",
          "type": "uint256"
        },
        {
          "indexed": false,
          "name": "_success",
          "type": "bool"
        }
      ],
      "name": "Deposit",
      "type": "event"
    },
    {
      "anonymous": false,
      "inputs": [
        {
          "indexed": false,
          "name": "user",
          "type": "address"
        },
        {
          "indexed": false,
          "name": "amount",
          "type": "uint256"
        },
        {
          "indexed": false,
          "name": "balance",
          "type": "uint256"
        },
        {
          "indexed": false,
          "name": "_success",
          "type": "bool"
        }
      ],
      "name": "Withdraw",
      "type": "event"
    },
    {
      "anonymous": false,
      "inputs": [
        {
          "indexed": false,
          "name": "secretContract",
          "type": "address"
        },
        {
          "indexed": false,
          "name": "worker",
          "type": "address"
        },
        {
          "indexed": false,
          "name": "proof",
          "type": "bytes32"
        },
        {
          "indexed": false,
          "name": "reward",
          "type": "uint256"
        },
        {
          "indexed": false,
          "name": "_success",
          "type": "bool"
        }
      ],
      "name": "SolveTask",
      "type": "event"
    },
    {
      "anonymous": false,
      "inputs": [
        {
          "indexed": false,
          "name": "callingContract",
          "type": "address"
        },
        {
          "indexed": false,
          "name": "taskId",
          "type": "uint256"
        },
        {
          "indexed": false,
          "name": "callable",
          "type": "bytes32"
        },
        {
          "indexed": false,
          "name": "callableArgs",
          "type": "bytes32[]"
        },
        {
          "indexed": false,
          "name": "callback",
          "type": "bytes32"
        },
        {
          "indexed": false,
          "name": "fee",
          "type": "uint256"
        },
        {
          "indexed": false,
          "name": "_success",
          "type": "bool"
        }
      ],
      "name": "ComputeTask",
      "type": "event"
    },
    {
      "constant": false,
      "inputs": [
        {
          "name": "pkey",
          "type": "string"
        },
        {
          "name": "rate",
          "type": "uint256"
        }
      ],
      "name": "register",
      "outputs": [
        {
          "name": "",
          "type": "uint8"
        }
      ],
      "payable": false,
      "stateMutability": "nonpayable",
      "type": "function"
    },
    {
      "constant": false,
      "inputs": [
        {
          "name": "quote",
          "type": "string"
        }
      ],
      "name": "login",
      "outputs": [
        {
          "name": "",
          "type": "uint8"
        }
      ],
      "payable": false,
      "stateMutability": "nonpayable",
      "type": "function"
    },
    {
      "constant": false,
      "inputs": [],
      "name": "logout",
      "outputs": [
        {
          "name": "",
          "type": "uint8"
        }
      ],
      "payable": false,
      "stateMutability": "nonpayable",
      "type": "function"
    },
    {
      "constant": false,
      "inputs": [
        {
          "name": "rate",
          "type": "uint256"
        }
      ],
      "name": "updateRate",
      "outputs": [
        {
          "name": "",
          "type": "uint8"
        }
      ],
      "payable": false,
      "stateMutability": "nonpayable",
      "type": "function"
    },
    {
      "constant": false,
      "inputs": [
        {
          "name": "amount",
          "type": "uint256"
        }
      ],
      "name": "withdraw",
      "outputs": [
        {
          "name": "",
          "type": "uint8"
        }
      ],
      "payable": false,
      "stateMutability": "nonpayable",
      "type": "function"
    },
    {
      "constant": false,
      "inputs": [
        {
          "name": "user",
          "type": "address"
        },
        {
          "name": "secretContract",
          "type": "address"
        },
        {
          "name": "callable",
          "type": "bytes32"
        },
        {
          "name": "callableArgs",
          "type": "bytes32[]"
        },
        {
          "name": "callback",
          "type": "bytes32"
        }
      ],
      "name": "compute",
      "outputs": [
        {
          "name": "",
          "type": "uint8"
        }
      ],
      "payable": true,
      "stateMutability": "payable",
      "type": "function"
    },
    {
      "constant": false,
      "inputs": [
        {
          "name": "secretContract",
          "type": "address"
        },
        {
          "name": "taskId",
          "type": "uint256"
        },
        {
          "name": "proof",
          "type": "bytes32"
        }
      ],
      "name": "solveTask",
      "outputs": [
        {
          "name": "",
          "type": "uint8"
        }
      ],
      "payable": false,
      "stateMutability": "nonpayable",
      "type": "function"
    }
  ],
  "bytecode": "0x6060604052341561000f57600080fd5b611e278061001e6000396000f3006060604052600436106100a4576000357c0100000000000000000000000000000000000000000000000000000000900463ffffffff1680630a2bbf6c146100a95780631f3c99c31461010c57806323115ebc146101435780632e1a7d4d1461020c5780633a7d280c146102515780634048a257146102d057806369ea17711461043d5780637149d2e4146104825780638a56e55414610521578063ea87152b14610592575b600080fd5b34156100b457600080fd5b6100ca600480803590602001909190505061061a565b604051808273ffffffffffffffffffffffffffffffffffffffff1673ffffffffffffffffffffffffffffffffffffffff16815260200191505060405180910390f35b341561011757600080fd5b61011f610659565b6040518082600181111561012f57fe5b60ff16815260200191505060405180910390f35b6101e8600480803573ffffffffffffffffffffffffffffffffffffffff1690602001909190803573ffffffffffffffffffffffffffffffffffffffff169060200190919080356000191690602001909190803590602001908201803590602001908080602002602001604051908101604052809392919081815260200183836020028082843782019150505050505091908035600019169060200190919050506108e6565b604051808260018111156101f857fe5b60ff16815260200191505060405180910390f35b341561021757600080fd5b61022d6004808035906020019091905050610ae8565b6040518082600181111561023d57fe5b60ff16815260200191505060405180910390f35b341561025c57600080fd5b6102ac600480803590602001908201803590602001908080601f01602080910402602001604051908101604052809392919081815260200183838082843782019150505050505091905050610def565b604051808260018111156102bc57fe5b60ff16815260200191505060405180910390f35b34156102db57600080fd5b610307600480803573ffffffffffffffffffffffffffffffffffffffff169060200190919050506110d6565b6040518080602001806020018681526020018581526020018481526020018381038352888181546001816001161561010002031660029004815260200191508054600181600116156101000203166002900480156103a65780601f1061037b576101008083540402835291602001916103a6565b820191906000526020600020905b81548152906001019060200180831161038957829003601f168201915b50508381038252878181546001816001161561010002031660029004815260200191508054600181600116156101000203166002900480156104295780601f106103fe57610100808354040283529160200191610429565b820191906000526020600020905b81548152906001019060200180831161040c57829003601f168201915b505097505050505050505060405180910390f35b341561044857600080fd5b61045e600480803590602001909190505061110a565b6040518082600181111561046e57fe5b60ff16815260200191505060405180910390f35b341561048d57600080fd5b6104c2600480803573ffffffffffffffffffffffffffffffffffffffff169060200190919080359060200190919050506113a1565b604051808581526020018473ffffffffffffffffffffffffffffffffffffffff1673ffffffffffffffffffffffffffffffffffffffff168152602001836000191660001916815260200182815260200194505050505060405180910390f35b341561052c57600080fd5b61056e600480803573ffffffffffffffffffffffffffffffffffffffff169060200190919080359060200190919080356000191690602001909190505061140d565b6040518082600181111561057e57fe5b60ff16815260200191505060405180910390f35b341561059d57600080fd5b6105f6600480803590602001908201803590602001908080601f01602080910402602001604051908101604052809392919081815260200183838082843782019150505050505091908035906020019091905050611928565b6040518082600181111561060657fe5b60ff16815260200191505060405180910390f35b60008181548110151561062957fe5b90600052602060002090016000915054906101000a900473ffffffffffffffffffffffffffffffffffffffff1681565b600033610664611c4a565b600160008373ffffffffffffffffffffffffffffffffffffffff1673ffffffffffffffffffffffffffffffffffffffff16815260200190815260200160002060a06040519081016040529081600082018054600181600116156101000203166002900480601f0160208091040260200160405190810160405280929190818152602001828054600181600116156101000203166002900480156107485780601f1061071d57610100808354040283529160200191610748565b820191906000526020600020905b81548152906001019060200180831161072b57829003601f168201915b50505050508152602001600182018054600181600116156101000203166002900480601f0160208091040260200160405190810160405280929190818152602001828054600181600116156101000203166002900480156107ea5780601f106107bf576101008083540402835291602001916107ea565b820191906000526020600020905b8154815290600101906020018083116107cd57829003601f168201915b50505050508152602001600282015481526020016003820154815260200160048201548152505090506000816080015111151561082657600080fd5b60018060003373ffffffffffffffffffffffffffffffffffffffff1673ffffffffffffffffffffffffffffffffffffffff168152602001908152602001600020600401819055507f142855c2ec5b59c44b6edd425942f19ba27545104b30ca9ee3e92c5d5135bf60336001604051808373ffffffffffffffffffffffffffffffffffffffff1673ffffffffffffffffffffffffffffffffffffffff168152602001821515151581526020019250505060405180910390a160009250505090565b6000806000341115156108f857600080fd5b600260008773ffffffffffffffffffffffffffffffffffffffff1673ffffffffffffffffffffffffffffffffffffffff168152602001908152602001600020805490509050600260008773ffffffffffffffffffffffffffffffffffffffff1673ffffffffffffffffffffffffffffffffffffffff168152602001908152602001600020805480919060010161098e9190611c86565b5034600260008873ffffffffffffffffffffffffffffffffffffffff1673ffffffffffffffffffffffffffffffffffffffff168152602001908152602001600020828154811015156109dc57fe5b9060005260206000209060040201600301819055507f25206c146d529ac7942b0aa4d9f2062a7c0369a3734a94f7bdaac6adfadc77d68682878787346001604051808873ffffffffffffffffffffffffffffffffffffffff1673ffffffffffffffffffffffffffffffffffffffff168152602001878152602001866000191660001916815260200180602001856000191660001916815260200184815260200183151515158152602001828103825286818151815260200191508051906020019060200280838360005b83811015610ac1578082015181840152602081019050610aa6565b505050509050019850505050505050505060405180910390a1600091505095945050505050565b60008033610af4611c4a565b600160008373ffffffffffffffffffffffffffffffffffffffff1673ffffffffffffffffffffffffffffffffffffffff16815260200190815260200160002060a06040519081016040529081600082018054600181600116156101000203166002900480601f016020809104026020016040519081016040528092919081815260200182805460018160011615610100020316600290048015610bd85780601f10610bad57610100808354040283529160200191610bd8565b820191906000526020600020905b815481529060010190602001808311610bbb57829003601f168201915b50505050508152602001600182018054600181600116156101000203166002900480601f016020809104026020016040519081016040528092919081815260200182805460018160011615610100020316600290048015610c7a5780601f10610c4f57610100808354040283529160200191610c7a565b820191906000526020600020905b815481529060010190602001808311610c5d57829003601f168201915b505050505081526020016002820154815260200160038201548152602001600482015481525050905060008160800151111515610cb657600080fd5b600160003373ffffffffffffffffffffffffffffffffffffffff1673ffffffffffffffffffffffffffffffffffffffff1681526020019081526020016000209250848360020154111515610d0957600080fd5b610d17836002015486611bf8565b83600201819055503373ffffffffffffffffffffffffffffffffffffffff166108fc869081150290604051600060405180830381858888f193505050501515610d5f57600080fd5b7fb97e775637eca8401af330efee0810af7079bafae27761741e09caa14db8d272338685600201546001604051808573ffffffffffffffffffffffffffffffffffffffff1673ffffffffffffffffffffffffffffffffffffffff1681526020018481526020018381526020018215151515815260200194505050505060405180910390a160009350505050919050565b600033610dfa611c4a565b600160008373ffffffffffffffffffffffffffffffffffffffff1673ffffffffffffffffffffffffffffffffffffffff16815260200190815260200160002060a06040519081016040529081600082018054600181600116156101000203166002900480601f016020809104026020016040519081016040528092919081815260200182805460018160011615610100020316600290048015610ede5780601f10610eb357610100808354040283529160200191610ede565b820191906000526020600020905b815481529060010190602001808311610ec157829003601f168201915b50505050508152602001600182018054600181600116156101000203166002900480601f016020809104026020016040519081016040528092919081815260200182805460018160011615610100020316600290048015610f805780601f10610f5557610100808354040283529160200191610f80565b820191906000526020600020905b815481529060010190602001808311610f6357829003601f168201915b505050505081526020016002820154815260200160038201548152602001600482015481525050905060008160800151111515610fbc57600080fd5b83600160003373ffffffffffffffffffffffffffffffffffffffff1673ffffffffffffffffffffffffffffffffffffffff1681526020019081526020016000206001019080519060200190611012929190611cb8565b506002600160003373ffffffffffffffffffffffffffffffffffffffff1673ffffffffffffffffffffffffffffffffffffffff168152602001908152602001600020600401819055507f03e1d4e63d34d520cfb840a5e43f426c5ca64a50a8569bc40ee9d8a688567b49336001604051808373ffffffffffffffffffffffffffffffffffffffff1673ffffffffffffffffffffffffffffffffffffffff168152602001821515151581526020019250505060405180910390a1600092505050919050565b6001602052806000526040600020600091509050806000019080600101908060020154908060030154908060040154905085565b600033611115611c4a565b600160008373ffffffffffffffffffffffffffffffffffffffff1673ffffffffffffffffffffffffffffffffffffffff16815260200190815260200160002060a06040519081016040529081600082018054600181600116156101000203166002900480601f0160208091040260200160405190810160405280929190818152602001828054600181600116156101000203166002900480156111f95780601f106111ce576101008083540402835291602001916111f9565b820191906000526020600020905b8154815290600101906020018083116111dc57829003601f168201915b50505050508152602001600182018054600181600116156101000203166002900480601f01602080910402602001604051908101604052809291908181526020018280546001816001161561010002031660029004801561129b5780601f106112705761010080835404028352916020019161129b565b820191906000526020600020905b81548152906001019060200180831161127e57829003601f168201915b5050505050815260200160028201548152602001600382015481526020016004820154815250509050600081608001511115156112d757600080fd5b83600160003373ffffffffffffffffffffffffffffffffffffffff1673ffffffffffffffffffffffffffffffffffffffff168152602001908152602001600020600301819055507f19359d2f6b502eb32089e4e6ea2cb9e909793f252bcc6cdc1b5b54aeff348dde33856001604051808473ffffffffffffffffffffffffffffffffffffffff1673ffffffffffffffffffffffffffffffffffffffff16815260200183815260200182151515158152602001935050505060405180910390a1600092505050919050565b6002602052816000526040600020818154811015156113bc57fe5b9060005260206000209060040201600091509150508060000154908060010160009054906101000a900473ffffffffffffffffffffffffffffffffffffffff16908060020154908060030154905084565b60008060003361141b611c4a565b600160008373ffffffffffffffffffffffffffffffffffffffff1673ffffffffffffffffffffffffffffffffffffffff16815260200190815260200160002060a06040519081016040529081600082018054600181600116156101000203166002900480601f0160208091040260200160405190810160405280929190818152602001828054600181600116156101000203166002900480156114ff5780601f106114d4576101008083540402835291602001916114ff565b820191906000526020600020905b8154815290600101906020018083116114e257829003601f168201915b50505050508152602001600182018054600181600116156101000203166002900480601f0160208091040260200160405190810160405280929190818152602001828054600181600116156101000203166002900480156115a15780601f10611576576101008083540402835291602001916115a1565b820191906000526020600020905b81548152906001019060200180831161158457829003601f168201915b5050505050815260200160028201548152602001600382015481526020016004820154815250509050600081608001511115156115dd57600080fd5b600073ffffffffffffffffffffffffffffffffffffffff16600260008a73ffffffffffffffffffffffffffffffffffffffff1673ffffffffffffffffffffffffffffffffffffffff1681526020019081526020016000208881548110151561164157fe5b906000526020600020906004020160010160009054906101000a900473ffffffffffffffffffffffffffffffffffffffff1673ffffffffffffffffffffffffffffffffffffffff1614151561169557600080fd5b600260008973ffffffffffffffffffffffffffffffffffffffff1673ffffffffffffffffffffffffffffffffffffffff168152602001908152602001600020878154811015156116e157fe5b906000526020600020906004020160030154935060008411151561170457600080fd5b33600260008a73ffffffffffffffffffffffffffffffffffffffff1673ffffffffffffffffffffffffffffffffffffffff1681526020019081526020016000208881548110151561175157fe5b906000526020600020906004020160010160006101000a81548173ffffffffffffffffffffffffffffffffffffffff021916908373ffffffffffffffffffffffffffffffffffffffff16021790555085600260008a73ffffffffffffffffffffffffffffffffffffffff1673ffffffffffffffffffffffffffffffffffffffff168152602001908152602001600020888154811015156117ed57fe5b90600052602060002090600402016002018160001916905550600160003373ffffffffffffffffffffffffffffffffffffffff1673ffffffffffffffffffffffffffffffffffffffff1681526020019081526020016000209250611855836002015485611c11565b83600201819055507fa62aa8778d262744a8ae146c7ab51ab46a86e7febad7f1a9c716cb48ccabc0ae883388876001604051808673ffffffffffffffffffffffffffffffffffffffff1673ffffffffffffffffffffffffffffffffffffffff1681526020018573ffffffffffffffffffffffffffffffffffffffff1673ffffffffffffffffffffffffffffffffffffffff1681526020018460001916600019168152602001838152602001821515151581526020019550505050505060405180910390a160009450505050509392505050565b600080600160003373ffffffffffffffffffffffffffffffffffffffff1673ffffffffffffffffffffffffffffffffffffffff1681526020019081526020016000206004015414151561197a57600080fd5b6000805480600101828161198e9190611d38565b9160005260206000209001600033909190916101000a81548173ffffffffffffffffffffffffffffffffffffffff021916908373ffffffffffffffffffffffffffffffffffffffff1602179055505082600160003373ffffffffffffffffffffffffffffffffffffffff1673ffffffffffffffffffffffffffffffffffffffff1681526020019081526020016000206000019080519060200190611a33929190611cb8565b5034600160003373ffffffffffffffffffffffffffffffffffffffff1673ffffffffffffffffffffffffffffffffffffffff1681526020019081526020016000206002018190555081600160003373ffffffffffffffffffffffffffffffffffffffff1673ffffffffffffffffffffffffffffffffffffffff1681526020019081526020016000206003018190555060018060003373ffffffffffffffffffffffffffffffffffffffff1673ffffffffffffffffffffffffffffffffffffffff168152602001908152602001600020600401819055507f9f5e7192b297913b0137c32f1142df80158aaf63e5b5da22be198b7be1a5b14c3384846001604051808573ffffffffffffffffffffffffffffffffffffffff1673ffffffffffffffffffffffffffffffffffffffff1681526020018060200184815260200183151515158152602001828103825285818151815260200191508051906020019080838360005b83811015611bb1578082015181840152602081019050611b96565b50505050905090810190601f168015611bde5780820380516001836020036101000a031916815260200191505b509550505050505060405180910390a16000905092915050565b6000611c0683831115611c3b565b818303905092915050565b6000808284019050611c31848210158015611c2c5750838210155b611c3b565b8091505092915050565b801515611c4757600080fd5b50565b60a060405190810160405280611c5e611d64565b8152602001611c6b611d64565b81526020016000815260200160008152602001600081525090565b815481835581811511611cb357600402816004028360005260206000209182019101611cb29190611d78565b5b505050565b828054600181600116156101000203166002900490600052602060002090601f016020900481019282601f10611cf957805160ff1916838001178555611d27565b82800160010185558215611d27579182015b82811115611d26578251825591602001919060010190611d0b565b5b509050611d349190611dd6565b5090565b815481835581811511611d5f57818360005260206000209182019101611d5e9190611dd6565b5b505050565b602060405190810160405280600081525090565b611dd391905b80821115611dcf576000808201600090556001820160006101000a81549073ffffffffffffffffffffffffffffffffffffffff02191690556002820160009055600382016000905550600401611d7e565b5090565b90565b611df891905b80821115611df4576000816000905550600101611ddc565b5090565b905600a165627a7a72305820cc86d4825eda47e7c96a854949f150830f7c27fb4cd34e7fe41cb0ce4fcc0c600029",
  "source": "pragma solidity ^0.4.19;\n\ncontract SafeMath {\n    function safeMul(uint a, uint b) internal returns (uint) {\n        uint c = a * b;\n        assert(a == 0 || c / a == b);\n        return c;\n    }\n\n    function safeSub(uint a, uint b) internal returns (uint) {\n        assert(b <= a);\n        return a - b;\n    }\n\n    function safeAdd(uint a, uint b) internal returns (uint) {\n        uint c = a + b;\n        assert(c >= a && c >= b);\n        return c;\n    }\n\n    function assert(bool assertion) internal {\n        if (!assertion) throw;\n    }\n}\n\ncontract Enigma is SafeMath {\n    struct Task {\n        uint taskId;\n        address worker;\n        bytes32 proof;\n        uint reward;\n    }\n\n    struct Worker {\n        string pkey;\n        string quote;\n        uint balance;\n        uint rate; // TODO: we don't want this\n        uint status; // Uninitialized: 0; Inactive:1; Active: 2\n    }\n\n    address[] public workerIndex;\n    mapping(address => Worker) public workers;\n    mapping(address => Task[]) public tasks;\n\n    event Register(address user, string pkey, uint rate, bool _success);\n    event Login(address user, bool _success);\n    event Logout(address user, bool _success);\n    event UpdateRate(address user, uint rate, bool _success);\n    event Deposit(address secretContract, address user, uint amount, uint balance, bool _success);\n    event Withdraw(address user, uint amount, uint balance, bool _success);\n    event SolveTask(address secretContract, address worker, bytes32 proof, uint reward, bool _success);\n\n    // Enigma computation task\n    event ComputeTask(address callingContract, uint taskId, bytes32 callable, bytes32[] callableArgs, bytes32 callback, uint fee, bool _success);\n\n    enum ReturnValue {Ok, Error}\n\n    function Enigma() public {\n\n    }\n\n    modifier workerRegistered(address user) {\n        Worker memory worker = workers[user];\n        require(worker.status > 0);\n        _;\n    }\n\n    //TODO: we don't want this\n    function register(string pkey, uint rate)\n    public\n    returns (ReturnValue) {\n        // Register a new worker and collect stake\n        require(workers[msg.sender].status == 0);\n\n        workerIndex.push(msg.sender);\n\n        workers[msg.sender].pkey = pkey;\n        workers[msg.sender].balance = msg.value;\n        workers[msg.sender].rate = rate;\n        workers[msg.sender].status = 1;\n\n        Register(msg.sender, pkey, rate, true);\n\n        return ReturnValue.Ok;\n    }\n\n    //TODO: we don't want this\n    function login(string quote)\n    public\n    workerRegistered(msg.sender)\n    returns (ReturnValue) {\n        // The worker is ready to receive tasks\n\n        // TODO: validate quote signature here\n        workers[msg.sender].quote = quote;\n        workers[msg.sender].status = 2;\n\n        Login(msg.sender, true);\n\n        return ReturnValue.Ok;\n    }\n\n    //TODO: we don't want this\n    function logout()\n    public\n    workerRegistered(msg.sender)\n    returns (ReturnValue) {\n        // A worker stops accepting tasks\n        workers[msg.sender].status = 1;\n\n        Logout(msg.sender, true);\n\n        return ReturnValue.Ok;\n    }\n\n    //TODO: we don't want this\n    function updateRate(uint rate)\n    public\n    workerRegistered(msg.sender)\n    returns (ReturnValue) {\n        // Update the ENG/GAS rate\n        workers[msg.sender].rate = rate;\n\n        UpdateRate(msg.sender, rate, true);\n\n        return ReturnValue.Ok;\n    }\n\n    //TODO: we don't want this\n    function withdraw(uint amount)\n    public\n    workerRegistered(msg.sender)\n    returns (ReturnValue) {\n        // Withdraw from stake and rewards balance\n        Worker storage worker = workers[msg.sender];\n        require(worker.balance > amount);\n\n        worker.balance = safeSub(worker.balance, amount);\n        msg.sender.transfer(amount);\n\n        Withdraw(msg.sender, amount, worker.balance, true);\n\n        return ReturnValue.Ok;\n    }\n\n    function compute(address user, address secretContract, bytes32 callable, bytes32[] callableArgs, bytes32 callback)\n    public\n    payable\n    returns (ReturnValue) {\n        require(msg.value > 0);\n\n        // Each task invoked by a contract has a sequential id\n        uint taskId = tasks[secretContract].length;\n        tasks[secretContract].length++;\n        tasks[secretContract][taskId].reward = msg.value;\n\n        // Emit the ComputeTask event which each node is watching for\n        ComputeTask(secretContract, taskId, callable, callableArgs, callback, msg.value, true);\n\n        return ReturnValue.Ok;\n    }\n\n    function solveTask(address secretContract, uint taskId, bytes32 proof)\n    public\n    workerRegistered(msg.sender)\n    returns (ReturnValue) {\n        // Task must be solved only once\n        require(tasks[secretContract][taskId].worker == address(0));\n\n        // The contract must hold enough fund to distribute reward\n        // TODO: validate that the reward matches the opcodes computed\n        uint reward = tasks[secretContract][taskId].reward;\n        require(reward > 0);\n\n        // Keep a trace of the task worker and proof\n        tasks[secretContract][taskId].worker = msg.sender;\n        tasks[secretContract][taskId].proof = proof;\n\n        // Put the reward in the worker's bank\n        // He can withdraw later\n        Worker storage worker = workers[msg.sender];\n        worker.balance = safeAdd(worker.balance, reward);\n\n        SolveTask(secretContract, msg.sender, proof, reward, true);\n\n        return ReturnValue.Ok;\n    }\n}\n",
  "sourcePath": "/Users/fredfortier/Code/enigma/coin-mixer-poc/dapp/contracts/Enigma.sol",
  "compiler": {
    "name": "solc",
    "version": "0.4.19+commit.c4cbbb05.Emscripten.clang"
  },
  "schemaVersion": "2.0.0",
  "updatedAt": "2018-04-13T18:01:31.594Z"
}