{
  "contractName": "Enigma",
  "abi": [
    {
      "constant": true,
      "inputs": [
        {
          "name": "",
          "type": "uint256"
        }
      ],
      "name": "workerIndex",
      "outputs": [
        {
          "name": "",
          "type": "address"
        }
      ],
      "payable": false,
      "stateMutability": "view",
      "type": "function"
    },
    {
      "constant": true,
      "inputs": [
        {
          "name": "",
          "type": "address"
        }
      ],
      "name": "workers",
      "outputs": [
        {
          "name": "url",
          "type": "bytes32"
        },
        {
          "name": "pkey",
          "type": "string"
        },
        {
          "name": "quote",
          "type": "string"
        },
        {
          "name": "balance",
          "type": "uint256"
        },
        {
          "name": "status",
          "type": "uint256"
        }
      ],
      "payable": false,
      "stateMutability": "view",
      "type": "function"
    },
    {
      "constant": true,
      "inputs": [
        {
          "name": "",
          "type": "address"
        },
        {
          "name": "",
          "type": "uint256"
        }
      ],
      "name": "tasks",
      "outputs": [
        {
          "name": "callable",
          "type": "bytes32"
        },
        {
          "name": "callableArgs",
          "type": "bytes"
        },
        {
          "name": "callback",
          "type": "bytes32"
        },
        {
          "name": "worker",
          "type": "address"
        },
        {
          "name": "sig",
          "type": "bytes"
        },
        {
          "name": "reward",
          "type": "uint256"
        }
      ],
      "payable": false,
      "stateMutability": "view",
      "type": "function"
    },
    {
      "constant": true,
      "inputs": [],
      "name": "engToken",
      "outputs": [
        {
          "name": "",
          "type": "address"
        }
      ],
      "payable": false,
      "stateMutability": "view",
      "type": "function"
    },
    {
      "inputs": [
        {
          "name": "_tokenAddress",
          "type": "address"
        }
      ],
      "payable": false,
      "stateMutability": "nonpayable",
      "type": "constructor"
    },
    {
      "anonymous": false,
      "inputs": [
        {
          "indexed": false,
          "name": "url",
          "type": "bytes32"
        },
        {
          "indexed": false,
          "name": "user",
          "type": "address"
        },
        {
          "indexed": false,
          "name": "pkey",
          "type": "string"
        },
        {
          "indexed": false,
          "name": "_success",
          "type": "bool"
        }
      ],
      "name": "Register",
      "type": "event"
    },
    {
      "anonymous": false,
      "inputs": [
        {
          "indexed": false,
          "name": "user",
          "type": "address"
        },
        {
          "indexed": false,
          "name": "_success",
          "type": "bool"
        }
      ],
      "name": "Logout",
      "type": "event"
    },
    {
      "anonymous": false,
      "inputs": [
        {
          "indexed": false,
          "name": "sig",
          "type": "bytes"
        },
        {
          "indexed": false,
          "name": "hash",
          "type": "bytes32"
        },
        {
          "indexed": false,
          "name": "workerAddr",
          "type": "address"
        },
        {
          "indexed": false,
          "name": "bytecode",
          "type": "bytes"
        },
        {
          "indexed": false,
          "name": "_success",
          "type": "bool"
        }
      ],
      "name": "ValidateSig",
      "type": "event"
    },
    {
      "anonymous": false,
      "inputs": [
        {
          "indexed": false,
          "name": "secretContract",
          "type": "address"
        },
        {
          "indexed": false,
          "name": "worker",
          "type": "address"
        },
        {
          "indexed": false,
          "name": "sig",
          "type": "bytes"
        },
        {
          "indexed": false,
          "name": "reward",
          "type": "uint256"
        },
        {
          "indexed": false,
          "name": "_success",
          "type": "bool"
        }
      ],
      "name": "SolveTask",
      "type": "event"
    },
    {
      "anonymous": false,
      "inputs": [
        {
          "indexed": false,
          "name": "callingContract",
          "type": "address"
        },
        {
          "indexed": false,
          "name": "taskId",
          "type": "uint256"
        },
        {
          "indexed": false,
          "name": "callable",
          "type": "bytes32"
        },
        {
          "indexed": false,
          "name": "callableArgs",
          "type": "bytes"
        },
        {
          "indexed": false,
          "name": "callback",
          "type": "bytes32"
        },
        {
          "indexed": false,
          "name": "fee",
          "type": "uint256"
        },
        {
          "indexed": false,
          "name": "preprocessors",
          "type": "bytes32[]"
        },
        {
          "indexed": false,
          "name": "_success",
          "type": "bool"
        }
      ],
      "name": "ComputeTask",
      "type": "event"
    },
    {
      "constant": false,
      "inputs": [
        {
          "name": "url",
          "type": "bytes32"
        },
        {
          "name": "pkey",
          "type": "string"
        },
        {
          "name": "quote",
          "type": "string"
        }
      ],
      "name": "register",
      "outputs": [
        {
          "name": "",
          "type": "uint8"
        }
      ],
      "payable": true,
      "stateMutability": "payable",
      "type": "function"
    },
    {
      "constant": false,
      "inputs": [],
      "name": "logout",
      "outputs": [
        {
          "name": "",
          "type": "uint8"
        }
      ],
      "payable": false,
      "stateMutability": "nonpayable",
      "type": "function"
    },
    {
      "constant": false,
      "inputs": [
        {
          "name": "secretContract",
          "type": "address"
        },
        {
          "name": "callable",
          "type": "bytes32"
        },
        {
          "name": "callableArgs",
          "type": "bytes"
        },
        {
          "name": "callback",
          "type": "bytes32"
        },
        {
          "name": "preprocessors",
          "type": "bytes32[]"
        }
      ],
      "name": "compute",
      "outputs": [
        {
          "name": "",
          "type": "uint8"
        }
      ],
      "payable": true,
      "stateMutability": "payable",
      "type": "function"
    },
    {
      "constant": false,
      "inputs": [
        {
          "name": "secretContract",
          "type": "address"
        },
        {
          "name": "taskId",
          "type": "uint256"
        },
        {
          "name": "results",
          "type": "bytes"
        },
        {
          "name": "sig",
          "type": "bytes"
        }
      ],
      "name": "commitResults",
      "outputs": [
        {
          "name": "",
          "type": "uint8"
        }
      ],
      "payable": false,
      "stateMutability": "nonpayable",
      "type": "function"
    }
  ],
  "bytecode": "0x608060405234801561001057600080fd5b50604051602080612bb183398101806040528101908080519060200190929190505050806000806101000a81548173ffffffffffffffffffffffffffffffffffffffff021916908373ffffffffffffffffffffffffffffffffffffffff16021790555050612b2e806100836000396000f30060806040526004361061008e576000357c0100000000000000000000000000000000000000000000000000000000900463ffffffff1680630a2bbf6c146100935780631f3c99c3146101005780633544d519146101395780634048a2571461023657806358fd6aec1461037b5780637149d2e41461044d5780639489ad40146105d75780639d6048671461062e575b600080fd5b34801561009f57600080fd5b506100be60048036038101908080359060200190929190505050610729565b604051808273ffffffffffffffffffffffffffffffffffffffff1673ffffffffffffffffffffffffffffffffffffffff16815260200191505060405180910390f35b34801561010c57600080fd5b50610115610767565b6040518082600181111561012557fe5b60ff16815260200191505060405180910390f35b610212600480360381019080803573ffffffffffffffffffffffffffffffffffffffff1690602001909291908035600019169060200190929190803590602001908201803590602001908080601f0160208091040260200160405190810160405280939291908181526020018383808284378201915050505050509192919290803560001916906020019092919080359060200190820180359060200190808060200260200160405190810160405280939291908181526020018383602002808284378201915050505050509192919290505050610a65565b6040518082600181111561022257fe5b60ff16815260200191505060405180910390f35b34801561024257600080fd5b50610277600480360381019080803573ffffffffffffffffffffffffffffffffffffffff169060200190929190505050610e0f565b6040518086600019166000191681526020018060200180602001858152602001848152602001838103835287818151815260200191508051906020019080838360005b838110156102d55780820151818401526020810190506102ba565b50505050905090810190601f1680156103025780820380516001836020036101000a031916815260200191505b50838103825286818151815260200191508051906020019080838360005b8381101561033b578082015181840152602081019050610320565b50505050905090810190601f1680156103685780820380516001836020036101000a031916815260200191505b5097505050505050505060405180910390f35b6104296004803603810190808035600019169060200190929190803590602001908201803590602001908080601f0160208091040260200160405190810160405280939291908181526020018383808284378201915050505050509192919290803590602001908201803590602001908080601f0160208091040260200160405190810160405280939291908181526020018383808284378201915050505050509192919290505050610f75565b6040518082600181111561043957fe5b60ff16815260200191505060405180910390f35b34801561045957600080fd5b50610498600480360381019080803573ffffffffffffffffffffffffffffffffffffffff1690602001909291908035906020019092919050505061125d565b6040518087600019166000191681526020018060200186600019166000191681526020018573ffffffffffffffffffffffffffffffffffffffff1673ffffffffffffffffffffffffffffffffffffffff16815260200180602001848152602001838103835288818151815260200191508051906020019080838360005b83811015610530578082015181840152602081019050610515565b50505050905090810190601f16801561055d5780820380516001836020036101000a031916815260200191505b50838103825285818151815260200191508051906020019080838360005b8381101561059657808201518184015260208101905061057b565b50505050905090810190601f1680156105c35780820380516001836020036101000a031916815260200191505b509850505050505050505060405180910390f35b3480156105e357600080fd5b506105ec611405565b604051808273ffffffffffffffffffffffffffffffffffffffff1673ffffffffffffffffffffffffffffffffffffffff16815260200191505060405180910390f35b34801561063a57600080fd5b50610705600480360381019080803573ffffffffffffffffffffffffffffffffffffffff16906020019092919080359060200190929190803590602001908201803590602001908080601f0160208091040260200160405190810160405280939291908181526020018383808284378201915050505050509192919290803590602001908201803590602001908080601f016020809104026020016040519081016040528093929190818152602001838380828437820191505050505050919291929050505061142a565b6040518082600181111561071557fe5b60ff16815260200191505060405180910390f35b60018181548110151561073857fe5b906000526020600020016000915054906101000a900473ffffffffffffffffffffffffffffffffffffffff1681565b60003361077261285d565b600260008373ffffffffffffffffffffffffffffffffffffffff1673ffffffffffffffffffffffffffffffffffffffff16815260200190815260200160002060a06040519081016040529081600082015460001916600019168152602001600182018054600181600116156101000203166002900480601f0160208091040260200160405190810160405280929190818152602001828054600181600116156101000203166002900480156108685780601f1061083d57610100808354040283529160200191610868565b820191906000526020600020905b81548152906001019060200180831161084b57829003601f168201915b50505050508152602001600282018054600181600116156101000203166002900480601f01602080910402602001604051908101604052809291908181526020018280546001816001161561010002031660029004801561090a5780601f106108df5761010080835404028352916020019161090a565b820191906000526020600020905b8154815290600101906020018083116108ed57829003601f168201915b50505050508152602001600382015481526020016004820154815250509050600081608001511115156109a5576040517f08c379a00000000000000000000000000000000000000000000000000000000081526004018080602001828103825260148152602001807f556e7265676973746572656420776f726b65722e00000000000000000000000081525060200191505060405180910390fd5b60028060003373ffffffffffffffffffffffffffffffffffffffff1673ffffffffffffffffffffffffffffffffffffffff168152602001908152602001600020600401819055507f142855c2ec5b59c44b6edd425942f19ba27545104b30ca9ee3e92c5d5135bf60336001604051808373ffffffffffffffffffffffffffffffffffffffff1673ffffffffffffffffffffffffffffffffffffffff168152602001821515151581526020019250505060405180910390a160009250505090565b600080600360008873ffffffffffffffffffffffffffffffffffffffff1673ffffffffffffffffffffffffffffffffffffffff168152602001908152602001600020805490509050600360008873ffffffffffffffffffffffffffffffffffffffff1673ffffffffffffffffffffffffffffffffffffffff1681526020019081526020016000208054809190600101610afe9190612890565b50610b0a878787611e80565b5034600360008973ffffffffffffffffffffffffffffffffffffffff1673ffffffffffffffffffffffffffffffffffffffff16815260200190815260200160002082815481101515610b5857fe5b90600052602060002090600602016005018190555085600360008973ffffffffffffffffffffffffffffffffffffffff1673ffffffffffffffffffffffffffffffffffffffff16815260200190815260200160002082815481101515610bba57fe5b9060005260206000209060060201600001816000191690555084600360008973ffffffffffffffffffffffffffffffffffffffff1673ffffffffffffffffffffffffffffffffffffffff16815260200190815260200160002082815481101515610c2057fe5b90600052602060002090600602016001019080519060200190610c449291906128c2565b5083600360008973ffffffffffffffffffffffffffffffffffffffff1673ffffffffffffffffffffffffffffffffffffffff16815260200190815260200160002082815481101515610c9257fe5b906000526020600020906006020160020181600019169055507faa54257103c050c63b029ff178f3ee7d5ead4ec2573c64f75dc0f12b43d1e12a878288888834896001604051808973ffffffffffffffffffffffffffffffffffffffff1673ffffffffffffffffffffffffffffffffffffffff16815260200188815260200187600019166000191681526020018060200186600019166000191681526020018581526020018060200184151515158152602001838103835288818151815260200191508051906020019080838360005b83811015610d7d578082015181840152602081019050610d62565b50505050905090810190601f168015610daa5780820380516001836020036101000a031916815260200191505b50838103825285818151815260200191508051906020019060200280838360005b83811015610de6578082015181840152602081019050610dcb565b505050509050019a505050505050505050505060405180910390a1600091505095945050505050565b6002602052806000526040600020600091509050806000015490806001018054600181600116156101000203166002900480601f016020809104026020016040519081016040528092919081815260200182805460018160011615610100020316600290048015610ec15780601f10610e9657610100808354040283529160200191610ec1565b820191906000526020600020905b815481529060010190602001808311610ea457829003601f168201915b505050505090806002018054600181600116156101000203166002900480601f016020809104026020016040519081016040528092919081815260200182805460018160011615610100020316600290048015610f5f5780601f10610f3457610100808354040283529160200191610f5f565b820191906000526020600020905b815481529060010190602001808311610f4257829003601f168201915b5050505050908060030154908060040154905085565b600060013390806001815401808255809150509060018203906000526020600020016000909192909190916101000a81548173ffffffffffffffffffffffffffffffffffffffff021916908373ffffffffffffffffffffffffffffffffffffffff1602179055505083600260003373ffffffffffffffffffffffffffffffffffffffff1673ffffffffffffffffffffffffffffffffffffffff168152602001908152602001600020600001816000191690555082600260003373ffffffffffffffffffffffffffffffffffffffff1673ffffffffffffffffffffffffffffffffffffffff168152602001908152602001600020600101908051906020019061107e929190612942565b5034600260003373ffffffffffffffffffffffffffffffffffffffff1673ffffffffffffffffffffffffffffffffffffffff1681526020019081526020016000206003018190555081600260003373ffffffffffffffffffffffffffffffffffffffff1673ffffffffffffffffffffffffffffffffffffffff168152602001908152602001600020600201908051906020019061111c929190612942565b506001600260003373ffffffffffffffffffffffffffffffffffffffff1673ffffffffffffffffffffffffffffffffffffffff168152602001908152602001600020600401819055507fbb570a6aa44b19a60a37e95c6a1d83c308163559d39eb5a9dec14c081623887684338560016040518085600019166000191681526020018473ffffffffffffffffffffffffffffffffffffffff1673ffffffffffffffffffffffffffffffffffffffff1681526020018060200183151515158152602001828103825284818151815260200191508051906020019080838360005b838110156112155780820151818401526020810190506111fa565b50505050905090810190601f1680156112425780820380516001836020036101000a031916815260200191505b509550505050505060405180910390a1600090509392505050565b60036020528160005260406000208181548110151561127857fe5b906000526020600020906006020160009150915050806000015490806001018054600181600116156101000203166002900480601f01602080910402602001604051908101604052809291908181526020018280546001816001161561010002031660029004801561132b5780601f106113005761010080835404028352916020019161132b565b820191906000526020600020905b81548152906001019060200180831161130e57829003601f168201915b5050505050908060020154908060030160009054906101000a900473ffffffffffffffffffffffffffffffffffffffff1690806004018054600181600116156101000203166002900480601f0160208091040260200160405190810160405280929190818152602001828054600181600116156101000203166002900480156113f55780601f106113ca576101008083540402835291602001916113f5565b820191906000526020600020905b8154815290600101906020018083116113d857829003601f168201915b5050505050908060050154905086565b6000809054906101000a900473ffffffffffffffffffffffffffffffffffffffff1681565b6000806000803361143961285d565b600260008373ffffffffffffffffffffffffffffffffffffffff1673ffffffffffffffffffffffffffffffffffffffff16815260200190815260200160002060a06040519081016040529081600082015460001916600019168152602001600182018054600181600116156101000203166002900480601f01602080910402602001604051908101604052809291908181526020018280546001816001161561010002031660029004801561152f5780601f106115045761010080835404028352916020019161152f565b820191906000526020600020905b81548152906001019060200180831161151257829003601f168201915b50505050508152602001600282018054600181600116156101000203166002900480601f0160208091040260200160405190810160405280929190818152602001828054600181600116156101000203166002900480156115d15780601f106115a6576101008083540402835291602001916115d1565b820191906000526020600020905b8154815290600101906020018083116115b457829003601f168201915b505050505081526020016003820154815260200160048201548152505090506000816080015111151561166c576040517f08c379a00000000000000000000000000000000000000000000000000000000081526004018080602001828103825260148152602001807f556e7265676973746572656420776f726b65722e00000000000000000000000081525060200191505060405180910390fd5b600073ffffffffffffffffffffffffffffffffffffffff16600360008c73ffffffffffffffffffffffffffffffffffffffff1673ffffffffffffffffffffffffffffffffffffffff1681526020019081526020016000208a8154811015156116d057fe5b906000526020600020906006020160030160009054906101000a900473ffffffffffffffffffffffffffffffffffffffff1673ffffffffffffffffffffffffffffffffffffffff1614151561178d576040517f08c379a00000000000000000000000000000000000000000000000000000000081526004018080602001828103825260148152602001807f5461736b20616c726561647920736f6c7665642e00000000000000000000000081525060200191505060405180910390fd5b6119c68a600360008d73ffffffffffffffffffffffffffffffffffffffff1673ffffffffffffffffffffffffffffffffffffffff1681526020019081526020016000208b8154811015156117dd57fe5b906000526020600020906006020160c06040519081016040529081600082015460001916600019168152602001600182018054600181600116156101000203166002900480601f0160208091040260200160405190810160405280929190818152602001828054600181600116156101000203166002900480156118a25780601f10611877576101008083540402835291602001916118a2565b820191906000526020600020905b81548152906001019060200180831161188557829003601f168201915b505050505081526020016002820154600019166000191681526020016003820160009054906101000a900473ffffffffffffffffffffffffffffffffffffffff1673ffffffffffffffffffffffffffffffffffffffff1673ffffffffffffffffffffffffffffffffffffffff168152602001600482018054600181600116156101000203166002900480601f0160208091040260200160405190810160405280929190818152602001828054600181600116156101000203166002900480156119ac5780601f10611981576101008083540402835291602001916119ac565b820191906000526020600020905b81548152906001019060200180831161198f57829003601f168201915b505050505081526020016005820154815250508a8a611f0a565b9450600073ffffffffffffffffffffffffffffffffffffffff168573ffffffffffffffffffffffffffffffffffffffff1614151515611a6d576040517f08c379a000000000000000000000000000000000000000000000000000000000815260040180806020018281038252601d8152602001807f43616e6e6f74207665726966792074686973207369676e61747572652e00000081525060200191505060405180910390fd5b3373ffffffffffffffffffffffffffffffffffffffff168573ffffffffffffffffffffffffffffffffffffffff16141515611b10576040517f08c379a00000000000000000000000000000000000000000000000000000000081526004018080602001828103825260128152602001807f496e76616c6964207369676e61747572652e000000000000000000000000000081525060200191505060405180910390fd5b600360008b73ffffffffffffffffffffffffffffffffffffffff1673ffffffffffffffffffffffffffffffffffffffff16815260200190815260200160002089815481101515611b5c57fe5b9060005260206000209060060201600501549350600084111515611be8576040517f08c379a00000000000000000000000000000000000000000000000000000000081526004018080602001828103825260168152602001807f5265776172642063616e6e6f74206265207a65726f2e0000000000000000000081525060200191505060405180910390fd5b33600360008c73ffffffffffffffffffffffffffffffffffffffff1673ffffffffffffffffffffffffffffffffffffffff1681526020019081526020016000208a815481101515611c3557fe5b906000526020600020906006020160030160006101000a81548173ffffffffffffffffffffffffffffffffffffffff021916908373ffffffffffffffffffffffffffffffffffffffff16021790555086600360008c73ffffffffffffffffffffffffffffffffffffffff1673ffffffffffffffffffffffffffffffffffffffff1681526020019081526020016000208a815481101515611cd157fe5b90600052602060002090600602016004019080519060200190611cf59291906128c2565b50600260003373ffffffffffffffffffffffffffffffffffffffff1673ffffffffffffffffffffffffffffffffffffffff1681526020019081526020016000209250611d4e84846003015461227790919063ffffffff16565b83600301819055507fb97c4ac64d6734ba4c9764b185f6d373ef9ee658bd188564c262e4e1a583fb7a8a3389876001604051808673ffffffffffffffffffffffffffffffffffffffff1673ffffffffffffffffffffffffffffffffffffffff1681526020018573ffffffffffffffffffffffffffffffffffffffff1673ffffffffffffffffffffffffffffffffffffffff1681526020018060200184815260200183151515158152602001828103825285818151815260200191508051906020019080838360005b83811015611e31578082015181840152602081019050611e16565b50505050905090810190601f168015611e5e5780820380516001836020036101000a031916815260200191505b50965050505050505060405180910390a1600095505050505050949350505050565b6000611e8a6129c2565b611e926129dc565b6060611e9c6129c2565b611eb060018761229390919063ffffffff16565b9350611ebb84612309565b92505b611ec783612351565b15611efb57611ed58361237b565b9050611ee0816123d7565b15611eea57611ef6565b611ef381612409565b91505b611ebe565b60009450505050509392505050565b6000606060006060600080611f1e8a61247d565b945088600001518960200151898760405180856000191660001916815260200184805190602001908083835b602083101515611f6f5780518252602082019150602081019050602083039250611f4a565b6001836020036101000a03801982511681845116808217855250505050505090500183805190602001908083835b602083101515611fc25780518252602082019150602081019050602083039250611f9d565b6001836020036101000a03801982511681845116808217855250505050505090500182805190602001908083835b6020831015156120155780518252602082019150602081019050602083039250611ff0565b6001836020036101000a038019825116818451168082178552505050505050905001945050505050604051809103902093506040805190810160405280601c81526020017f19457468657265756d205369676e6564204d6573736167653a0a333200000000815250925082846040518083805190602001908083835b6020831015156120b65780518252602082019150602081019050602083039250612091565b6001836020036101000a0380198251168184511680821785525050505050509050018260001916600019168152602001925050506040518091039020915061210b8783600019166124a890919063ffffffff16565b90507fff6705f1a974965043a4b4d997ef0e9f773759a078b3a30b02507c11ec5a6c4b878383886001604051808060200186600019166000191681526020018573ffffffffffffffffffffffffffffffffffffffff1673ffffffffffffffffffffffffffffffffffffffff1681526020018060200184151515158152602001838103835288818151815260200191508051906020019080838360005b838110156121c25780820151818401526020810190506121a7565b50505050905090810190601f1680156121ef5780820380516001836020036101000a031916815260200191505b50838103825285818151815260200191508051906020019080838360005b8381101561222857808201518184015260208101905061220d565b50505050905090810190601f1680156122555780820380516001836020036101000a031916815260200191505b5097505050505050505060405180910390a18095505050505050949350505050565b6000818301905082811015151561228a57fe5b80905092915050565b61229b6129c2565b6122a36129c2565b60006122ae856125a0565b915083156122fe5784519050806122c4836125fb565b11156122cf57600080fd5b806122dd8360000151612687565b1415156122e957600080fd5b6122f282612721565b15156122fd57600080fd5b5b819250505092915050565b6123116129dc565b600061231c836123d7565b151561232757600080fd5b612330836125fb565b83600001510190508282600001819052508082602001818152505050919050565b600061235b6129c2565b826000015190508060200151816000015101836020015110915050919050565b6123836129c2565b60008061238f84612351565b156123cb57836020015191506123a482612687565b905081836000018181525050808360200181815250508082018460200181815250506123d0565b600080fd5b5050919050565b6000806000836020015114156123f05760009150612403565b8260000151905060c0815160001a101591505b50919050565b606060008060606124198561276a565b151561242457600080fd5b61242d8561279b565b92509250816040519080825280601f01601f1916602001820160405280156124645781602001602082028038833980820191505090505b50905061247283828461281c565b809350505050919050565b6060813b6040519150601f19601f602083010116820160405280825280600060208401853c50919050565b600080600080604185511415156124c25760009350612597565b6020850151925060408501519150606085015160001a9050601b8160ff1610156124ed57601b810190505b601b8160ff16141580156125055750601c8160ff1614155b156125135760009350612597565b600186828585604051600081526020016040526040518085600019166000191681526020018460ff1660ff1681526020018360001916600019168152602001826000191660001916815260200194505050505060206040516020810390808403906000865af115801561258a573d6000803e3d6000fd5b5050506020604051035193505b50505092915050565b6125a86129c2565b6000808351915060008214156125d657604080519081016040528060008152602001600081525092506125f4565b60208401905060408051908101604052808281526020018381525092505b5050919050565b600080600080846020015114156126155760009250612680565b83600001519050805160001a915060808210156126355760009250612680565b60b8821080612651575060c08210158015612650575060f882105b5b1561265f5760019250612680565b60c082101561267657600160b78303019250612680565b600160f783030192505b5050919050565b600080825160001a905060808110156126a3576001915061271b565b60b88110156126ba5760016080820301915061271a565b60c08110156126e45760b78103806020036101000a60018501510480820160010193505050612719565b60f88110156126fb57600160c08203019150612718565b60f78103806020036101000a600185015104808201600101935050505b5b5b5b50919050565b60008060008084600001519050805160001a9250805160011a915060016080018314801561274f5750608082105b1561275d5760009350612762565b600193505b505050919050565b6000806000836020015114156127835760009150612795565b8260000151905060c0815160001a1091505b50919050565b60008060008060006127ac8661276a565b15156127b757600080fd5b85600001519150815160001a925060808310156127da5781945060019350612814565b60b88310156127f85760018660200151039350600182019450612813565b60b78303905080600187602001510303935060018183010194505b5b505050915091565b60006020601f83010484602085015b82841461284a576020840280830151818301526001850194505061282b565b6000865160200187015250505050505050565b60a06040519081016040528060008019168152602001606081526020016060815260200160008152602001600081525090565b8154818355818111156128bd576006028160060283600052602060002091820191016128bc91906129fd565b5b505050565b828054600181600116156101000203166002900490600052602060002090601f016020900481019282601f1061290357805160ff1916838001178555612931565b82800160010185558215612931579182015b82811115612930578251825591602001919060010190612915565b5b50905061293e9190612a7b565b5090565b828054600181600116156101000203166002900490600052602060002090601f016020900481019282601f1061298357805160ff19168380011785556129b1565b828001600101855582156129b1579182015b828111156129b0578251825591602001919060010190612995565b5b5090506129be9190612a7b565b5090565b604080519081016040528060008152602001600081525090565b6060604051908101604052806129f0612aa0565b8152602001600081525090565b612a7891905b80821115612a7457600080820160009055600182016000612a249190612aba565b60028201600090556003820160006101000a81549073ffffffffffffffffffffffffffffffffffffffff0219169055600482016000612a639190612aba565b600582016000905550600601612a03565b5090565b90565b612a9d91905b80821115612a99576000816000905550600101612a81565b5090565b90565b604080519081016040528060008152602001600081525090565b50805460018160011615610100020316600290046000825580601f10612ae05750612aff565b601f016020900490600052602060002090810190612afe9190612a7b565b5b505600a165627a7a72305820bd8da5b211749fad8c81336ae3005417094e4b882f4597cd3ccd6bed6a5aba870029",
  "source": "pragma solidity ^0.4.22;\n\nimport \"./zeppelin/SafeMath.sol\";\nimport \"./zeppelin/ECRecovery.sol\";\nimport \"./utils/GetCode2.sol\";\nimport \"./utils/RLP.sol\";\n\ncontract IERC20 {\n    function balanceOf(address who) public constant returns (uint256);\n\n    function transfer(address to, uint256 value) public returns (bool);\n\n    function allowance(address owner, address spender) public constant returns (uint256);\n\n    function transferFrom(address from, address to, uint256 value) public returns (bool);\n\n    function approve(address spender, uint256 value) public returns (bool);\n\n    event Transfer(address indexed from, address indexed to, uint256 value);\n    event Approval(address indexed owner, address indexed spender, uint256 value);\n}\n\n\ncontract Enigma {\n    using SafeMath for uint256;\n    using ECRecovery for bytes32;\n    using RLP for RLP.RLPItem;\n    using RLP for RLP.Iterator;\n    using RLP for bytes;\n\n    IERC20 public engToken;\n\n    struct Task {\n        bytes32 callable;\n        bytes callableArgs;\n        bytes32 callback;\n        address worker;\n        bytes sig;\n        uint reward;\n    }\n\n    struct Worker {\n        bytes32 url;\n        string pkey;\n        string quote;\n        uint256 balance;\n        uint status; // Uninitialized: 0; Active: 1; Inactive: 2\n    }\n\n    address[] public workerIndex;\n    mapping(address => Worker) public workers;\n    mapping(address => Task[]) public tasks;\n\n    event Register(bytes32 url, address user, string pkey, bool _success);\n    event Logout(address user, bool _success);\n    event ValidateSig(bytes sig, bytes32 hash, address workerAddr, bytes bytecode, bool _success);\n    event SolveTask(address secretContract, address worker, bytes sig, uint reward, bool _success);\n\n    // Enigma computation task\n    event ComputeTask(address callingContract, uint taskId, bytes32 callable, bytes callableArgs, bytes32 callback, uint fee, bytes32[] preprocessors, bool _success);\n\n    enum ReturnValue {Ok, Error}\n\n    function Enigma(address _tokenAddress) public {\n        engToken = IERC20(_tokenAddress);\n    }\n\n    modifier workerRegistered(address user) {\n        Worker memory worker = workers[user];\n        require(worker.status > 0, \"Unregistered worker.\");\n        _;\n    }\n\n    function register(bytes32 url, string pkey, string quote)\n    public\n    payable\n    returns (ReturnValue) {\n        // Register a new worker and deposit stake\n        // require(workers[msg.sender].status == 0, \"Worker already register.\");\n\n        workerIndex.push(msg.sender);\n\n        workers[msg.sender].url = url;\n        workers[msg.sender].pkey = pkey;\n        workers[msg.sender].balance = msg.value;\n        workers[msg.sender].quote = quote;\n        workers[msg.sender].status = 1;\n\n        emit Register(url, msg.sender, pkey, true);\n\n        return ReturnValue.Ok;\n    }\n\n    //TODO: we don't want this\n    function logout()\n    public\n    workerRegistered(msg.sender)\n    returns (ReturnValue) {\n        // A worker stops accepting tasks\n        workers[msg.sender].status = 2;\n\n        emit Logout(msg.sender, true);\n\n        return ReturnValue.Ok;\n    }\n\n    function invokeCallback(address secretContact, bytes32 callable, bytes callableArgs)\n    internal\n    constant\n    returns (ReturnValue) {\n        // Invoke the callback function\n        // TODO: incomplete\n        var args = callableArgs.toRLPItem(true);\n        var iter = args.iterator();\n\n        string memory arg;\n        while (iter.hasNext()) {\n            var item = iter.next();\n            if (item.isList()) {\n\n            } else {\n                arg = item.toAscii();\n            }\n        }\n        return ReturnValue.Ok;\n    }\n\n    function compute(address secretContract, bytes32 callable, bytes callableArgs, bytes32 callback, bytes32[] preprocessors)\n    public\n    payable\n    returns (ReturnValue) {\n        // Create a computation task and save the fee in escrow\n        uint taskId = tasks[secretContract].length;\n        tasks[secretContract].length++;\n\n        invokeCallback(secretContract, callable, callableArgs);\n\n        tasks[secretContract][taskId].reward = msg.value;\n        tasks[secretContract][taskId].callable = callable;\n        tasks[secretContract][taskId].callableArgs = callableArgs;\n        tasks[secretContract][taskId].callback = callback;\n\n        // Emit the ComputeTask event which each node is watching for\n        emit ComputeTask(secretContract, taskId, callable, callableArgs, callback, msg.value, preprocessors, true);\n\n        return ReturnValue.Ok;\n    }\n\n    function verifySignature(address secretContract, Task task, bytes results, bytes sig)\n    internal\n    constant\n    returns (address) {\n        // Recreating a data hash to validate the signature\n        bytes memory code = GetCode2.at(secretContract);\n\n        // Build a hash to validate that the I/Os are matching\n        bytes32 hash = keccak256(task.callable, task.callableArgs, results, code);\n        bytes memory prefix = \"\\x19Ethereum Signed Message:\\n32\";\n        bytes32 prefixedHash = sha3(prefix, hash);\n\n        // TODO: this returns an address where we want to verify a public key\n        // I don't believe that Solidity has a general purpose signature\n        // validator. However, we know that an Ethereum address is the hash\n        // of a public key, so we can use our public key to generate a\n        // virtual address for validation.\n        address workerAddr = prefixedHash.recover(sig);\n\n        emit ValidateSig(sig, prefixedHash, workerAddr, code, true);\n        return workerAddr;\n    }\n\n    function commitResults(address secretContract, uint taskId, bytes results, bytes sig)\n    public\n    workerRegistered(msg.sender)\n    returns (ReturnValue) {\n        // Task must be solved only once\n        require(tasks[secretContract][taskId].worker == address(0), \"Task already solved.\");\n\n        address sigAddr = verifySignature(secretContract, tasks[secretContract][taskId], results, sig);\n        require(sigAddr != address(0), \"Cannot verify this signature.\");\n        require(sigAddr == msg.sender, \"Invalid signature.\");\n\n        // The contract must hold enough fund to distribute reward\n        // TODO: validate that the reward matches the opcodes computed\n        uint reward = tasks[secretContract][taskId].reward;\n        require(reward > 0, \"Reward cannot be zero.\");\n\n        // Keep a trace of the task worker and proof\n        tasks[secretContract][taskId].worker = msg.sender;\n        tasks[secretContract][taskId].sig = sig;\n\n        // TODO: send directly to the worker's custodian instead\n        // Put the reward in the worker's bank\n        // He can withdraw later\n        Worker storage worker = workers[msg.sender];\n        worker.balance = worker.balance.add(reward);\n\n        emit SolveTask(secretContract, msg.sender, sig, reward, true);\n\n        return ReturnValue.Ok;\n    }\n}\n",
  "sourcePath": "/Users/fredfortier/Code/enigma/mvp0/coin-mixer-poc/dapp/contracts/Enigma.sol",
  "compiler": {
    "name": "solc",
    "version": "0.4.23+commit.124ca40d.Emscripten.clang"
  },
  "schemaVersion": "2.0.0",
  "updatedAt": "2018-05-02T23:17:14.949Z"
}