{
  "contractName": "EnigmaP",
  "abi": [
    {
      "constant": true,
      "inputs": [
        {
          "name": "args",
          "type": "bytes32[]"
        },
        {
          "name": "arg",
          "type": "bytes32"
        },
        {
          "name": "offset",
          "type": "uint256"
        },
        {
          "name": "value",
          "type": "uint256"
        }
      ],
      "name": "addArg",
      "outputs": [
        {
          "name": "",
          "type": "uint256"
        }
      ],
      "payable": false,
      "stateMutability": "pure",
      "type": "function"
    },
    {
      "constant": true,
      "inputs": [
        {
          "name": "args",
          "type": "bytes32[]"
        },
        {
          "name": "arg",
          "type": "bytes32"
        },
        {
          "name": "offset",
          "type": "uint256"
        },
        {
          "name": "value",
          "type": "bytes32[]"
        }
      ],
      "name": "addEncryptedArg",
      "outputs": [
        {
          "name": "",
          "type": "uint256"
        }
      ],
      "payable": false,
      "stateMutability": "pure",
      "type": "function"
    }
  ],
  "bytecode": "0x608060405234801561001057600080fd5b506103a9806100206000396000f30060806040526004361061004c576000357c0100000000000000000000000000000000000000000000000000000000900463ffffffff1680636db0c8f014610051578063ed0b494c146100ed575b600080fd5b34801561005d57600080fd5b506100d760048036038101908080359060200190820180359060200190808060200260200160405190810160405280939291908181526020018383602002808284378201915050505050509192919290803560001916906020019092919080359060200190929190803590602001909291905050506101c2565b6040518082815260200191505060405180910390f35b3480156100f957600080fd5b506101ac6004803603810190808035906020019082018035906020019080806020026020016040519081016040528093929190818152602001838360200280828437820191505050505050919291929080356000191690602001909291908035906020019092919080359060200190820180359060200190808060200260200160405190810160405280939291908181526020018383602002808284378201915050505050509192919290505050610235565b6040518082815260200191505060405180910390f35b60008385848151811015156101d357fe5b90602001906020020190600019169081600019168152505082806001019350506101fc826102d4565b858481518110151561020a57fe5b9060200190602002019060001916908160001916815250508280600101935050829050949350505050565b60008084868581518110151561024757fe5b9060200190602002019060001916908160001916815250508380600101945050600090505b82518110156102c857828181518110151561028357fe5b90602001906020020151868581518110151561029b57fe5b9060200190602002019060001916908160001916815250508380600101945050808060010191505061026c565b83915050949350505050565b600080821415610306577f30000000000000000000000000000000000000000000000000000000000000009050610375565b5b600082111561037457610100816001900481151561032157fe5b0460010290507f01000000000000000000000000000000000000000000000000000000000000006030600a8481151561035657fe5b06010260010281179050600a8281151561036c57fe5b049150610307565b5b8090509190505600a165627a7a7230582013d63397db26a618b829fcfbbf9bb7294ad5fa4cd8e16a0a9a71bec6b5eb7d810029",
  "source": "pragma solidity ^0.4.22;\n\ncontract EnigmaP {\n\n    // TODO: implement for other arg types\n    function addArg(bytes32[] args, bytes32 arg, uint offset, uint value) public pure returns (uint){\n        // Add a uint value to the computation argument\n        args[offset] = arg;\n        offset++;\n\n        args[offset] = uintToBytes(value);\n        offset++;\n        return offset;\n    }\n\n    function addEncryptedArg(bytes32[] args, bytes32 arg, uint offset, bytes32[] value) public pure returns (uint){\n        // Add addresses values to the computation argument\n        args[offset] = arg;\n        offset++;\n\n        for (uint i = 0; i < value.length; i++) {\n            args[offset] = value[i];\n            offset++;\n        }\n        return offset;\n    }\n\n    //TODO: this has unsafe math\n    function uintToBytes(uint v) private pure returns (bytes32 ret) {\n        // Serialize bytes to int\n        // TODO: optimize with assembly if possible\n        if (v == 0) {\n            ret = '0';\n        }\n        else {\n            while (v > 0) {\n                ret = bytes32(uint(ret) / (2 ** 8));\n                ret |= bytes32(((v % 10) + 48) * 2 ** (8 * 31));\n                v /= 10;\n            }\n        }\n        return ret;\n    }\n}",
  "sourcePath": "/Users/fredfortier/Code/enigma/mvp0/coin-mixer-poc/dapp/contracts/EnigmaP.sol",
  "compiler": {
    "name": "solc",
    "version": "0.4.23+commit.124ca40d.Emscripten.clang"
  },
  "schemaVersion": "2.0.0",
  "updatedAt": "2018-05-03T23:43:36.307Z"
}