{
  "contractName": "Enigma",
  "abi": [
    {
      "constant": true,
      "inputs": [
        {
          "name": "",
          "type": "uint256"
        }
      ],
      "name": "workerAddresses",
      "outputs": [
        {
          "name": "",
          "type": "address"
        }
      ],
      "payable": false,
      "stateMutability": "view",
      "type": "function",
      "signature": "0x0a318da0"
    },
    {
      "constant": true,
      "inputs": [
        {
          "name": "",
          "type": "address"
        }
      ],
      "name": "workers",
      "outputs": [
        {
          "name": "signer",
          "type": "address"
        },
        {
          "name": "report",
          "type": "bytes"
        },
        {
          "name": "balance",
          "type": "uint256"
        },
        {
          "name": "status",
          "type": "uint256"
        }
      ],
      "payable": false,
      "stateMutability": "view",
      "type": "function",
      "signature": "0x4048a257"
    },
    {
      "constant": true,
      "inputs": [],
      "name": "engToken",
      "outputs": [
        {
          "name": "",
          "type": "address"
        }
      ],
      "payable": false,
      "stateMutability": "view",
      "type": "function",
      "signature": "0x9489ad40"
    },
    {
      "constant": true,
      "inputs": [
        {
          "name": "",
          "type": "bytes32"
        }
      ],
      "name": "tasks",
      "outputs": [
        {
          "name": "dappContract",
          "type": "address"
        },
        {
          "name": "callable",
          "type": "string"
        },
        {
          "name": "callableArgs",
          "type": "bytes"
        },
        {
          "name": "callback",
          "type": "string"
        },
        {
          "name": "worker",
          "type": "address"
        },
        {
          "name": "sig",
          "type": "bytes"
        },
        {
          "name": "reward",
          "type": "uint256"
        },
        {
          "name": "blockNumber",
          "type": "uint256"
        },
        {
          "name": "status",
          "type": "uint8"
        }
      ],
      "payable": false,
      "stateMutability": "view",
      "type": "function",
      "signature": "0xe579f500"
    },
    {
      "inputs": [
        {
          "name": "_tokenAddress",
          "type": "address"
        },
        {
          "name": "_principal",
          "type": "address"
        }
      ],
      "payable": false,
      "stateMutability": "nonpayable",
      "type": "constructor",
      "signature": "constructor"
    },
    {
      "anonymous": false,
      "inputs": [
        {
          "indexed": false,
          "name": "custodian",
          "type": "address"
        },
        {
          "indexed": false,
          "name": "signer",
          "type": "address"
        },
        {
          "indexed": false,
          "name": "_success",
          "type": "bool"
        }
      ],
      "name": "Register",
      "type": "event",
      "signature": "0xaea7118a676707165821e4678d9998eaabd7a2864b5db99ec0badef3fb7fa1e4"
    },
    {
      "anonymous": false,
      "inputs": [
        {
          "indexed": false,
          "name": "sig",
          "type": "bytes"
        },
        {
          "indexed": false,
          "name": "hash",
          "type": "bytes32"
        },
        {
          "indexed": false,
          "name": "workerAddr",
          "type": "address"
        },
        {
          "indexed": false,
          "name": "_success",
          "type": "bool"
        }
      ],
      "name": "ValidateSig",
      "type": "event",
      "signature": "0x82063f582a14b0e9c33225c41ae5031b299c0618b69179682ebf5bb716032bd4"
    },
    {
      "anonymous": false,
      "inputs": [
        {
          "indexed": false,
          "name": "dappContract",
          "type": "address"
        },
        {
          "indexed": false,
          "name": "worker",
          "type": "address"
        },
        {
          "indexed": false,
          "name": "sig",
          "type": "bytes"
        },
        {
          "indexed": false,
          "name": "reward",
          "type": "uint256"
        },
        {
          "indexed": false,
          "name": "_success",
          "type": "bool"
        }
      ],
      "name": "CommitResults",
      "type": "event",
      "signature": "0x860ef3e30d5efeaa79f3d448bd5219e9b92ca92eefb7bcc4e8c6b3420fe9dd3d"
    },
    {
      "anonymous": false,
      "inputs": [
        {
          "indexed": false,
          "name": "seed",
          "type": "uint256"
        },
        {
          "indexed": false,
          "name": "workers",
          "type": "address[]"
        },
        {
          "indexed": false,
          "name": "_success",
          "type": "bool"
        }
      ],
      "name": "WorkersParameterized",
      "type": "event",
      "signature": "0x363e1a0b29df899b2a8946ad6ac8f81796117158a11dc2c2a5b8c0297789ffa1"
    },
    {
      "anonymous": false,
      "inputs": [
        {
          "indexed": true,
          "name": "dappContract",
          "type": "address"
        },
        {
          "indexed": true,
          "name": "taskId",
          "type": "bytes32"
        },
        {
          "indexed": false,
          "name": "callable",
          "type": "string"
        },
        {
          "indexed": false,
          "name": "callableArgs",
          "type": "bytes"
        },
        {
          "indexed": false,
          "name": "callback",
          "type": "string"
        },
        {
          "indexed": false,
          "name": "fee",
          "type": "uint256"
        },
        {
          "indexed": false,
          "name": "preprocessors",
          "type": "bytes32[]"
        },
        {
          "indexed": false,
          "name": "blockNumber",
          "type": "uint256"
        },
        {
          "indexed": false,
          "name": "_success",
          "type": "bool"
        }
      ],
      "name": "ComputeTask",
      "type": "event",
      "signature": "0x4ff070954b5d945704da2dfe97df43d753324f63c307db579707f91239df423e"
    },
    {
      "constant": false,
      "inputs": [
        {
          "name": "signer",
          "type": "address"
        },
        {
          "name": "report",
          "type": "bytes"
        }
      ],
      "name": "register",
      "outputs": [
        {
          "name": "",
          "type": "uint8"
        }
      ],
      "payable": true,
      "stateMutability": "payable",
      "type": "function",
      "signature": "0x24b8fbf6"
    },
    {
      "constant": true,
      "inputs": [
        {
          "name": "dappContract",
          "type": "address"
        },
        {
          "name": "callable",
          "type": "string"
        },
        {
          "name": "callableArgs",
          "type": "bytes"
        },
        {
          "name": "blockNumber",
          "type": "uint256"
        }
      ],
      "name": "generateTaskId",
      "outputs": [
        {
          "name": "",
          "type": "bytes32"
        }
      ],
      "payable": false,
      "stateMutability": "view",
      "type": "function",
      "signature": "0x48aa8573"
    },
    {
      "constant": false,
      "inputs": [
        {
          "name": "dappContract",
          "type": "address"
        },
        {
          "name": "callable",
          "type": "string"
        },
        {
          "name": "callableArgs",
          "type": "bytes"
        },
        {
          "name": "callback",
          "type": "string"
        },
        {
          "name": "fee",
          "type": "uint256"
        },
        {
          "name": "preprocessors",
          "type": "bytes32[]"
        },
        {
          "name": "blockNumber",
          "type": "uint256"
        }
      ],
      "name": "compute",
      "outputs": [
        {
          "name": "",
          "type": "uint8"
        }
      ],
      "payable": false,
      "stateMutability": "nonpayable",
      "type": "function",
      "signature": "0xbf3c5c51"
    },
    {
      "constant": false,
      "inputs": [
        {
          "name": "taskId",
          "type": "bytes32"
        },
        {
          "name": "data",
          "type": "bytes"
        },
        {
          "name": "sig",
          "type": "bytes"
        },
        {
          "name": "blockNumber",
          "type": "uint256"
        }
      ],
      "name": "commitResults",
      "outputs": [
        {
          "name": "",
          "type": "uint8"
        }
      ],
      "payable": false,
      "stateMutability": "nonpayable",
      "type": "function",
      "signature": "0xa944c0cd"
    },
    {
      "constant": false,
      "inputs": [
        {
          "name": "seed",
          "type": "uint256"
        },
        {
          "name": "sig",
          "type": "bytes"
        }
      ],
      "name": "setWorkersParams",
      "outputs": [
        {
          "name": "",
          "type": "uint8"
        }
      ],
      "payable": false,
      "stateMutability": "nonpayable",
      "type": "function",
      "signature": "0x2873e73c"
    },
    {
      "constant": true,
      "inputs": [
        {
          "name": "blockNumber",
          "type": "uint256"
        }
      ],
      "name": "getWorkersParams",
      "outputs": [
        {
          "name": "",
          "type": "uint256"
        },
        {
          "name": "",
          "type": "uint256"
        },
        {
          "name": "",
          "type": "address[]"
        }
      ],
      "payable": false,
      "stateMutability": "view",
      "type": "function",
      "signature": "0x59c91a12"
    },
    {
      "constant": true,
      "inputs": [
        {
          "name": "blockNumber",
          "type": "uint256"
        },
        {
          "name": "taskId",
          "type": "bytes32"
        }
      ],
      "name": "selectWorker",
      "outputs": [
        {
          "name": "",
          "type": "address"
        }
      ],
      "payable": false,
      "stateMutability": "view",
      "type": "function",
      "signature": "0x41f53fa4"
    },
    {
      "constant": true,
      "inputs": [
        {
          "name": "custodian",
          "type": "address"
        }
      ],
      "name": "getReport",
      "outputs": [
        {
          "name": "",
          "type": "address"
        },
        {
          "name": "",
          "type": "bytes"
        }
      ],
      "payable": false,
      "stateMutability": "view",
      "type": "function",
      "signature": "0xa3bdae3e"
    }
  ],
  "bytecode": "0x608060405234801561001057600080fd5b5060405160408061290a83398101604052805160209091015160008054600160a060020a03938416600160a060020a031991821617909155600180549390921692169190911790556128a3806100676000396000f3006080604052600436106100b95763ffffffff7c01000000000000000000000000000000000000000000000000000000006000350416630a318da081146100be57806324b8fbf6146100f25780632873e73c146101705780634048a257146101ce57806341f53fa41461028e57806348aa8573146102a957806359c91a12146103625780639489ad40146103dc578063a3bdae3e146103f1578063a944c0cd146104a3578063bf3c5c5114610541578063e579f50014610666575b600080fd5b3480156100ca57600080fd5b506100d660043561087d565b60408051600160a060020a039092168252519081900360200190f35b60408051602060046024803582810135601f810185900485028601850190965285855261014c958335600160a060020a03169536956044949193909101919081908401838280828437509497506108a59650505050505050565b6040518082600181111561015c57fe5b60ff16815260200191505060405180910390f35b34801561017c57600080fd5b5060408051602060046024803582810135601f810185900485028601850190965285855261014c9583359536956044949193909101919081908401838280828437509497506109a69650505050505050565b3480156101da57600080fd5b506101ef600160a060020a0360043516610db9565b6040518085600160a060020a0316600160a060020a0316815260200180602001848152602001838152602001828103825285818151815260200191508051906020019080838360005b83811015610250578181015183820152602001610238565b50505050905090810190601f16801561027d5780820380516001836020036101000a031916815260200191505b509550505050505060405180910390f35b34801561029a57600080fd5b506100d6600435602435610e79565b3480156102b557600080fd5b5060408051602060046024803582810135601f8101859004850286018501909652858552610350958335600160a060020a031695369560449491939091019190819084018382808284375050604080516020601f89358b018035918201839004830284018301909452808352979a9998810197919650918201945092508291508401838280828437509497505093359450610eef9350505050565b60408051918252519081900360200190f35b34801561036e57600080fd5b5061037a600435610fcd565b6040518084815260200183815260200180602001828103825283818151815260200191508051906020019060200280838360005b838110156103c65781810151838201526020016103ae565b5050505090500194505050505060405180910390f35b3480156103e857600080fd5b506100d661112f565b3480156103fd57600080fd5b50610412600160a060020a036004351661113e565b6040518083600160a060020a0316600160a060020a0316815260200180602001828103825283818151815260200191508051906020019080838360005b8381101561046757818101518382015260200161044f565b50505050905090810190601f1680156104945780820380516001836020036101000a031916815260200191505b50935050505060405180910390f35b3480156104af57600080fd5b5060408051602060046024803582810135601f810185900485028601850190965285855261014c95833595369560449491939091019190819084018382808284375050604080516020601f89358b018035918201839004830284018301909452808352979a99988101979196509182019450925082915084018382808284375094975050933594506113b29350505050565b34801561054d57600080fd5b5060408051602060046024803582810135601f810185900485028601850190965285855261014c958335600160a060020a031695369560449491939091019190819084018382808284375050604080516020601f89358b018035918201839004830284018301909452808352979a99988101979196509182019450925082915084018382808284375050604080516020601f89358b018035918201839004830284018301909452808352979a99988101979196509182019450925082915084018382808284375050604080516020808901358a01803580830284810184018652818552999c8b359c909b909a9501985092965081019450909250829190850190849080828437509497505093359450611b4b9350505050565b34801561067257600080fd5b5061067e600435611f72565b604051808a600160a060020a0316600160a060020a0316815260200180602001806020018060200189600160a060020a0316600160a060020a03168152602001806020018881526020018781526020018660018111156106da57fe5b60ff16815260200185810385528d818151815260200191508051906020019080838360005b838110156107175781810151838201526020016106ff565b50505050905090810190601f1680156107445780820380516001836020036101000a031916815260200191505b5085810384528c5181528c516020918201918e019080838360005b8381101561077757818101518382015260200161075f565b50505050905090810190601f1680156107a45780820380516001836020036101000a031916815260200191505b5085810383528b5181528b516020918201918d019080838360005b838110156107d75781810151838201526020016107bf565b50505050905090810190601f1680156108045780820380516001836020036101000a031916815260200191505b5085810382528951815289516020918201918b019080838360005b8381101561083757818101518382015260200161081f565b50505050905090810190601f1680156108645780820380516001836020036101000a031916815260200191505b509d505050505050505050505050505060405180910390f35b600280548290811061088b57fe5b600091825260209091200154600160a060020a0316905081565b6002805460009181906108bb906001830161275f565b50336002828154811015156108cc57fe5b600091825260208083209091018054600160a060020a0394851673ffffffffffffffffffffffffffffffffffffffff199182161790915533835260128252604090922080549388169390921692909217815534600282015584516109399260019290920191860190612788565b5033600081815260126020908152604091829020600160039091018190558251938452600160a060020a0388169184019190915282820152517faea7118a676707165821e4678d9998eaabd7a2864b5db99ec0badef3fb7fa1e49181900360600190a15060009392505050565b6000806000806000336109b7612806565b600160a060020a03828116600090815260126020908152604091829020825160808101845281549094168452600180820180548551600261010094831615949094026000190190911692909204601f8101859004850283018501909552848252919385840193919291830182828015610a715780601f10610a4657610100808354040283529160200191610a71565b820191906000526020600020905b815481529060010190602001808311610a5457829003601f168201915b5050505050815260200160028201548152602001600382015481525050905060008160600151111515610aee576040805160e560020a62461bcd02815260206004820152601460248201527f556e7265676973746572656420776f726b65722e000000000000000000000000604482015290519081900360640190fd5b60015433600090815260126020526040902054600160a060020a03908116911614610b89576040805160e560020a62461bcd02815260206004820152602660248201527f4f6e6c7920746865205072696e636970616c2063616e2075706461746520746860448201527f6520736565640000000000000000000000000000000000000000000000000000606482015290519081900360840190fd5b610b938989612200565b955060009450600093505b6005841015610c055760038460058110610bb457fe5b60030201541515610bc757839450610c05565b60038560058110610bd457fe5b6003020160000154600385600581101515610beb57fe5b60030201541015610bfa578394505b600190930192610b9e565b4360038660058110610c1357fe5b600302016000018190555088600386600581101515610c2e57fe5b6003020160020181905550600092505b600254831015610d15576002805484908110610c5657fe5b600091825260209091200154600160a060020a031615610d0a5760038560058110610c7d57fe5b600302016001018054809190600101610c96919061275f565b506002805484908110610ca557fe5b600091825260209091200154600160a060020a031660038660058110610cc757fe5b6003020160010184815481101515610cdb57fe5b9060005260206000200160006101000a815481600160a060020a030219169083600160a060020a031602179055505b600190920191610c3e565b7f363e1a0b29df899b2a8946ad6ac8f81796117158a11dc2c2a5b8c0297789ffa189600260016040518084815260200180602001831515151581526020018281038252848181548152602001915080548015610d9a57602002820191906000526020600020905b8154600160a060020a03168152600190910190602001808311610d7c575b505094505050505060405180910390a150600098975050505050505050565b6012602090815260009182526040918290208054600180830180548651600261010094831615949094026000190190911692909204601f8101869004860283018601909652858252600160a060020a03909216949293909290830182828015610e635780601f10610e3857610100808354040283529160200191610e63565b820191906000526020600020905b815481529060010190602001808311610e4657829003601f168201915b5050505050908060020154908060030154905084565b6000806000606080600080610e8d89610fcd565b955095509550610e9c8461222f565b60408051878152602081018b905281519081900390910190208151919450925082811515610ec657fe5b0690508281815181101515610ed757fe5b90602001906020020151965050505050505092915050565b600080858585856040518085600160a060020a0316600160a060020a03166c0100000000000000000000000002815260140184805190602001908083835b60208310610f4c5780518252601f199092019160209182019101610f2d565b51815160209384036101000a600019018019909216911617905286519190930192860191508083835b60208310610f945780518252601f199092019160209182019101610f75565b51815160209384036101000a600019018019909216911617905292019384525060405192839003019091209a9950505050505050505050565b6000806060600080610fdd612838565b6060610fe8886123e5565b9350600019600085900b141561106e576040805160e560020a62461bcd02815260206004820152603660248201527f4e6f20776f726b65727320706172616d657465727320656e74727920666f722060448201527f73706563696669656420626c6f636b206e756d62657200000000000000000000606482015290519081900360840190fd5b600084900b92506003836005811061108257fe5b600302016060604051908101604052908160008201548152602001600182018054806020026020016040519081016040528092919081815260200182805480156110f557602002820191906000526020600020905b8154600160a060020a031681526001909101906020018083116110d7575b505050505081526020016002820154815250509150611117826020015161222f565b82516040909301519299929850965090945050505050565b600054600160a060020a031681565b600060608261114b612806565b600160a060020a03828116600090815260126020908152604091829020825160808101845281549094168452600180820180548551600261010094831615949094026000190190911692909204601f81018590048502830185019095528482529193858401939192918301828280156112055780601f106111da57610100808354040283529160200191611205565b820191906000526020600020905b8154815290600101906020018083116111e857829003601f168201915b5050505050815260200160028201548152602001600382015481525050905060008160600151111515611282576040805160e560020a62461bcd02815260206004820152601460248201527f556e7265676973746572656420776f726b65722e000000000000000000000000604482015290519081900360640190fd5b600160a060020a038086166000908152601260205260409020541615156112f3576040805160e560020a62461bcd02815260206004820152601560248201527f576f726b6572206e6f7420726567697374657265640000000000000000000000604482015290519081900360640190fd5b600160a060020a038581166000908152601260209081526040918290208054600191820180548551600261010095831615959095026000190190911693909304601f81018590048502840185019095528483529416939290918391908301828280156113a05780601f10611375576101008083540402835291602001916113a0565b820191906000526020600020905b81548152906001019060200180831161138357829003601f168201915b50505050509050935093505050915091565b600080600080336113c1612806565b600160a060020a03828116600090815260126020908152604091829020825160808101845281549094168452600180820180548551600261010094831615949094026000190190911692909204601f810185900485028301850190955284825291938584019391929183018282801561147b5780601f106114505761010080835404028352916020019161147b565b820191906000526020600020905b81548152906001019060200180831161145e57829003601f168201915b50505050508152602001600282015481526020016003820154815250509050600081606001511115156114f8576040805160e560020a62461bcd02815260206004820152601460248201527f556e7265676973746572656420776f726b65722e000000000000000000000000604482015290519081900360640190fd5b60008a81526013602052604081206008015460ff16600181111561151857fe5b14611593576040805160e560020a62461bcd02815260206004820152602960248201527f496c6c6567616c207374617475732c207461736b206d75737420626520696e2060448201527f70726f67726573732e0000000000000000000000000000000000000000000000606482015290519081900360840190fd5b60008a8152601360209081526040918290208251610120810184528154600160a060020a03168152600180830180548651601f60029483161561010002600019019092169390930490810186900486028301860190965285825261186095929485810193908301828280156116495780601f1061161e57610100808354040283529160200191611649565b820191906000526020600020905b81548152906001019060200180831161162c57829003601f168201915b5050509183525050600282810180546040805160206001841615610100026000190190931694909404601f810183900483028501830190915280845293810193908301828280156116db5780601f106116b0576101008083540402835291602001916116db565b820191906000526020600020905b8154815290600101906020018083116116be57829003601f168201915b505050918352505060038201805460408051602060026001851615610100026000190190941693909304601f810184900484028201840190925281815293820193929183018282801561176f5780601f106117445761010080835404028352916020019161176f565b820191906000526020600020905b81548152906001019060200180831161175257829003601f168201915b50505091835250506004820154600160a060020a031660208083019190915260058301805460408051601f600260001960018616156101000201909416939093049283018590048502810185018252828152940193928301828280156118165780601f106117eb57610100808354040283529160200191611816565b820191906000526020600020905b8154815290600101906020018083116117f957829003601f168201915b50505091835250506006820154602082015260078201546040820152600882015460609091019060ff16600181111561184b57fe5b600181111561185657fe5b9052508a8a612466565b9450600160a060020a03851615156118c2576040805160e560020a62461bcd02815260206004820152601d60248201527f43616e6e6f74207665726966792074686973207369676e61747572652e000000604482015290519081900360640190fd5b33600090815260126020526040902054600160a060020a03868116911614611934576040805160e560020a62461bcd02815260206004820152601260248201527f496e76616c6964207369676e61747572652e0000000000000000000000000000604482015290519081900360640190fd5b60008a8152601360205260408120600601549450841161199e576040805160e560020a62461bcd02815260206004820152601660248201527f5265776172642063616e6e6f74206265207a65726f2e00000000000000000000604482015290519081900360640190fd5b60008a815260136020908152604090912060048101805473ffffffffffffffffffffffffffffffffffffffff19163317905589516119e4926005909201918b0190612788565b5060008a8152601360209081526040808320600801805460ff19166001179055338352601290915290206002810154909350611a209085612650565b83600201819055507f860ef3e30d5efeaa79f3d448bd5219e9b92ca92eefb7bcc4e8c6b3420fe9dd3d601360008c6000191660001916815260200190815260200160002060000160009054906101000a9004600160a060020a0316868a8760016040518086600160a060020a0316600160a060020a0316815260200185600160a060020a0316600160a060020a031681526020018060200184815260200183151515158152602001828103825285818151815260200191508051906020019080838360005b83811015611afd578181015183820152602001611ae5565b50505050905090810190601f168015611b2a5780820380516001836020036101000a031916815260200191505b50965050505050505060405180910390a15060009998505050505050505050565b600080611b5a89898986610eef565b600081815260136020526040902054909150600160a060020a031615611bf0576040805160e560020a62461bcd02815260206004820152602760248201527f5461736b2077697468207468652073616d65207461736b496420616c7265616460448201527f7920657869737400000000000000000000000000000000000000000000000000606482015290519081900360840190fd5b6000818152601360209081526040909120600681018790558951611c1c926001909201918b0190612788565b5060008181526013602090815260409091208851611c42926002909201918a0190612788565b5060008181526013602090815260409091208751611c6892600390920191890190612788565b506000818152601360205260408120600801805460ff191660018302179055508860136000836000191660001916815260200190815260200160002060000160006101000a815481600160a060020a030219169083600160a060020a031602179055508260136000836000191660001916815260200190815260200160002060070181905550806000191689600160a060020a03167f4ff070954b5d945704da2dfe97df43d753324f63c307db579707f91239df423e8a8a8a8a8a8a600160405180806020018060200180602001888152602001806020018781526020018615151515815260200185810385528c818151815260200191508051906020019080838360005b83811015611d85578181015183820152602001611d6d565b50505050905090810190601f168015611db25780820380516001836020036101000a031916815260200191505b5085810384528b5181528b516020918201918d019080838360005b83811015611de5578181015183820152602001611dcd565b50505050905090810190601f168015611e125780820380516001836020036101000a031916815260200191505b5085810383528a5181528a516020918201918c019080838360005b83811015611e45578181015183820152602001611e2d565b50505050905090810190601f168015611e725780820380516001836020036101000a031916815260200191505b508581038252885181528851602091820191808b01910280838360005b83811015611ea7578181015183820152602001611e8f565b505050509050019b50505050505050505050505060405180910390a360008054604080517f23b872dd000000000000000000000000000000000000000000000000000000008152336004820152306024820152604481018990529051600160a060020a03909216926323b872dd926064808401936020939083900390910190829087803b158015611f3757600080fd5b505af1158015611f4b573d6000803e3d6000fd5b505050506040513d6020811015611f6157600080fd5b5060009a9950505050505050505050565b6013602090815260009182526040918290208054600180830180548651600261010094831615949094026000190190911692909204601f8101869004860283018601909652858252600160a060020a0390921694929390929083018282801561201c5780601f10611ff15761010080835404028352916020019161201c565b820191906000526020600020905b815481529060010190602001808311611fff57829003601f168201915b50505060028085018054604080516020601f60001961010060018716150201909416959095049283018590048502810185019091528181529596959450909250908301828280156120ae5780601f10612083576101008083540402835291602001916120ae565b820191906000526020600020905b81548152906001019060200180831161209157829003601f168201915b5050505060038301805460408051602060026001851615610100026000190190941693909304601f810184900484028201840190925281815294959493509083018282801561213e5780601f106121135761010080835404028352916020019161213e565b820191906000526020600020905b81548152906001019060200180831161212157829003601f168201915b50505050600483015460058401805460408051602060026101006001861615026000190190941693909304601f81018490048402820184019092528181529596600160a060020a0390941695939450908301828280156121df5780601f106121b4576101008083540402835291602001916121df565b820191906000526020600020905b8154815290600101906020018083116121c257829003601f168201915b50505050600683015460078401546008909401549293909290915060ff1689565b60408051838152905190819003602001902060009081612226828563ffffffff61266316565b95945050505050565b60606000808281805b86518410156122d157868481518110151561224f57fe5b90602001906020020151600160a060020a03166000141580156122ba57506001548751600160a060020a03909116906012906000908a908890811061229057fe5b6020908102909101810151600160a060020a03908116835290820192909252604001600020541614155b156122c6576001909401935b600190930192612238565b846040519080825280602002602001820160405280156122fb578160200160208202803883390190505b50925060009150600090505b86518110156123da57868181518110151561231e57fe5b90602001906020020151600160a060020a031660001415801561238957506001548751600160a060020a03909116906012906000908a908590811061235f57fe5b6020908102909101810151600160a060020a03908116835290820192909252604001600020541614155b156123d257868181518110151561239c57fe5b9060200190602002015183838151811015156123b457fe5b600160a060020a039092166020928302909101909101526001909101905b600101612307565b509095945050505050565b6000600019815b600581101561245f57836003826005811061240357fe5b60030201541180159061244e57508160000b600019148061244e57506003600083900b6005811061243057fe5b600302016000015460038260058110151561244757fe5b6003020154115b15612457578091505b6001016123ec565b5092915050565b6000606060008061247a8760000151612738565b9250866040015186846040518084805190602001908083835b602083106124b25780518252601f199092019160209182019101612493565b51815160209384036101000a600019018019909216911617905286519190930192860191508083835b602083106124fa5780518252601f1990920191602091820191016124db565b51815160209384036101000a600019018019909216911617905285519190930192850191508083835b602083106125425780518252601f199092019160209182019101612523565b5181516020939093036101000a6000190180199091169216919091179052604051920182900390912096506125809450869350899250506126639050565b604080516020808201869052600160a060020a03841692820192909252600160608201819052608080835289519083015288519394507f82063f582a14b0e9c33225c41ae5031b299c0618b69179682ebf5bb716032bd493899387938793929091829160a083019188019080838360005b838110156126095781810151838201526020016125f1565b50505050905090810190601f1680156126365780820380516001836020036101000a031916815260200191505b509550505050505060405180910390a19695505050505050565b8181018281101561265d57fe5b92915050565b6000806000808451604114151561267d576000935061272f565b50505060208201516040830151606084015160001a601b60ff821610156126a257601b015b8060ff16601b141580156126ba57508060ff16601c14155b156126c8576000935061272f565b60408051600080825260208083018085528a905260ff8516838501526060830187905260808301869052925160019360a0808501949193601f19840193928390039091019190865af1158015612722573d6000803e3d6000fd5b5050506020604051035193505b50505092915050565b60408051603f833b908101601f191682019092528181529080600060208401853c50919050565b8154818355818111156127835760008381526020902061278391810190830161285a565b505050565b828054600181600116156101000203166002900490600052602060002090601f016020900481019282601f106127c957805160ff19168380011785556127f6565b828001600101855582156127f6579182015b828111156127f65782518255916020019190600101906127db565b5061280292915061285a565b5090565b6080604051908101604052806000600160a060020a031681526020016060815260200160008152602001600081525090565b6060604051908101604052806000815260200160608152602001600081525090565b61287491905b808211156128025760008155600101612860565b905600a165627a7a72305820db971930ad083548cbfba359f680f6837086468f1c7d839d0539b658e8bd2da40029",
  "source": "pragma solidity ^0.4.22;\n\nimport \"./zeppelin/SafeMath.sol\";\nimport \"./zeppelin/ECRecovery.sol\";\nimport \"./utils/GetCode2.sol\";\n\ncontract IERC20 {\n    function balanceOf(address who) public constant returns (uint256);\n\n    function transfer(address to, uint256 value) public returns (bool);\n\n    function allowance(address owner, address spender) public constant returns (uint256);\n\n    function transferFrom(address from, address to, uint256 value) public returns (bool);\n\n    function approve(address spender, uint256 value) public returns (bool);\n\n    event Transfer(address indexed from, address indexed to, uint256 value);\n    event Approval(address indexed owner, address indexed spender, uint256 value);\n}\n\n\ncontract Enigma {\n    using SafeMath for uint256;\n    using ECRecovery for bytes32;\n\n    IERC20 public engToken;\n\n    struct Task {\n        address dappContract;\n        string callable;\n        bytes callableArgs;\n        string callback;\n        address worker;\n        bytes sig;\n        uint256 reward;\n        uint256 blockNumber;\n        TaskStatus status;\n    }\n    enum TaskStatus {InProgress, Executed}\n\n    address principal;\n\n    struct Worker {\n        address signer;\n        bytes report; // Decided to store this as one  RLP encoded attribute for easier external storage in the future\n        uint256 balance;\n        uint status; // Uninitialized: 0; Active: 1; Inactive: 2\n    }\n\n    struct WorkersParams {\n        uint256 firstBlockNumber;\n        address[] workerAddresses;\n        uint256 seed;\n    }\n\n    address[] public workerAddresses;\n    WorkersParams[5] workersParams;\n    mapping(address => Worker) public workers;\n    mapping(bytes32 => Task) public tasks;\n\n    event Register(address custodian, address signer, bool _success);\n    event ValidateSig(bytes sig, bytes32 hash, address workerAddr, bool _success);\n    event CommitResults(address dappContract, address worker, bytes sig, uint reward, bool _success);\n    event WorkersParameterized(uint256 seed, address[] workers, bool _success);\n\n    // Enigma computation task\n    event ComputeTask(address indexed dappContract, bytes32 indexed taskId, string callable, bytes callableArgs, string callback, uint256 fee, bytes32[] preprocessors, uint256 blockNumber, bool _success);\n\n    enum ReturnValue {Ok, Error}\n\n    constructor(address _tokenAddress, address _principal) public {\n        engToken = IERC20(_tokenAddress);\n        principal = _principal;\n    }\n\n    modifier workerRegistered(address user) {\n        Worker memory worker = workers[user];\n        require(worker.status > 0, \"Unregistered worker.\");\n        _;\n    }\n\n    function register(address signer, bytes report)\n    public\n    payable\n    returns (ReturnValue) {\n        // Register a new worker and deposit stake\n        // TODO: enable before release\n        //        require(workers[msg.sender].status == 0, \"Worker already register.\");\n\n        uint index = workerAddresses.length;\n        workerAddresses.length++;\n        workerAddresses[index] = msg.sender;\n\n        workers[msg.sender].signer = signer;\n        workers[msg.sender].balance = msg.value;\n        workers[msg.sender].report = report;\n        workers[msg.sender].status = 1;\n\n        emit Register(msg.sender, signer, true);\n\n        return ReturnValue.Ok;\n    }\n\n    function generateTaskId(address dappContract, string callable, bytes callableArgs, uint256 blockNumber)\n    public\n    view\n    returns (bytes32)\n    {\n        // Generates a unique task id\n        bytes32 hash = keccak256(dappContract, callable, callableArgs, blockNumber);\n        return hash;\n    }\n\n    function compute(address dappContract, string callable, bytes callableArgs, string callback, uint256 fee, bytes32[] preprocessors, uint256 blockNumber)\n    public\n    returns (ReturnValue) {\n        // Create a computation task and save the fee in escrow\n        bytes32 taskId = generateTaskId(dappContract, callable, callableArgs, blockNumber);\n        require(tasks[taskId].dappContract == 0x0, \"Task with the same taskId already exist\");\n\n        tasks[taskId].reward = fee;\n        tasks[taskId].callable = callable;\n        tasks[taskId].callableArgs = callableArgs;\n        tasks[taskId].callback = callback;\n        tasks[taskId].status = TaskStatus.InProgress;\n        tasks[taskId].dappContract = dappContract;\n        tasks[taskId].blockNumber = blockNumber;\n\n        // Emit the ComputeTask event which each node is watching for\n        emit ComputeTask(dappContract, taskId, callable, callableArgs, callback, fee, preprocessors, blockNumber, true);\n\n        // Transferring before emitting does not work\n        // TODO: check the allowance first\n        engToken.transferFrom(msg.sender, this, fee);\n\n        return ReturnValue.Ok;\n    }\n\n    function verifyCommitSig(Task task, bytes data, bytes sig)\n    internal\n    constant\n    returns (address) {\n        // Recreating a data hash to validate the signature\n        bytes memory code = GetCode2.at(task.dappContract);\n\n        // Build a hash to validate that the I/Os are matching\n        bytes32 hash = sha3(task.callableArgs, data, code);\n\n        // The worker address is not a real Ethereum wallet address but\n        // one generated from its signing key\n        address workerAddr = hash.recover(sig);\n\n        emit ValidateSig(sig, hash, workerAddr, true);\n        return workerAddr;\n    }\n\n    // copied from GnosisSafe\n    // https://github.com/gnosis/gnosis-safe-contracts/blob/master/contracts/GnosisSafe.sol\n    function executeCall(address to, uint256 value, bytes data) internal returns (bool success) {\n        assembly {\n            success := call(gas, to, value, add(data, 0x20), mload(data), 0, 0)\n        }\n    }\n\n    function commitResults(bytes32 taskId, bytes data, bytes sig, uint256 blockNumber)\n    public\n    workerRegistered(msg.sender)\n    returns (ReturnValue) {\n        // Task must be solved only once\n        require(tasks[taskId].status == TaskStatus.InProgress, \"Illegal status, task must be in progress.\");\n\n        address sigAddr = verifyCommitSig(tasks[taskId], data, sig);\n        require(sigAddr != address(0), \"Cannot verify this signature.\");\n        require(sigAddr == workers[msg.sender].signer, \"Invalid signature.\");\n\n        // The contract must hold enough fund to distribute reward\n        // TODO: validate that the reward matches the opcodes computed\n        uint256 reward = tasks[taskId].reward;\n        require(reward > 0, \"Reward cannot be zero.\");\n\n        // Invoking the callback method of the original contract\n        // TODO: disable for now because the Python tests don't create deals, works with the JS tests\n        //        require(executeCall(secretContract, msg.value, data), \"Unable to invoke the callback\");\n\n        // Keep a trace of the task worker and proof\n        tasks[taskId].worker = msg.sender;\n        tasks[taskId].sig = sig;\n        tasks[taskId].status = TaskStatus.Executed;\n\n        // TODO: send directly to the worker's custodian instead\n        // Put the reward in the worker's bank\n        // He can withdraw later\n        Worker storage worker = workers[msg.sender];\n        worker.balance = worker.balance.add(reward);\n\n        emit CommitResults(tasks[taskId].dappContract, sigAddr, sig, reward, true);\n\n        return ReturnValue.Ok;\n    }\n\n    function verifyParamsSig(uint256 seed, bytes sig)\n    internal\n    constant\n    returns (address) {\n        // Verify the signature submitted while reparameterizing workers\n        bytes32 hash = sha3(seed);\n\n        address signer = hash.recover(sig);\n        return signer;\n    }\n\n    function setWorkersParams(uint256 seed, bytes sig)\n    public\n    workerRegistered(msg.sender)\n    returns (ReturnValue) {\n        // Reparameterizing workers with a new seed\n        // This should be called for each epoch by the Principal node\n\n        // We assume that the Principal is always the first registered node\n        require(workers[msg.sender].signer == principal, \"Only the Principal can update the seed\");\n\n        address sigAddr = verifyParamsSig(seed, sig);\n        // TODO: need a second report for testing the principal\n//        require(sigAddr == principal, \"Invalid signature\");\n\n        // Create a new workers parameters item for the specified seed.\n        // The workers parameters list is a sort of cache, it never grows beyond its limit.\n        // If the list is full, the new item will replace the item assigned to the lowest block number.\n        uint ti = 0;\n        for (uint pi = 0; pi < workersParams.length; pi++) {\n            // Find an empty slot in the array, if full use the lowest block number\n            if (workersParams[pi].firstBlockNumber == 0) {\n                ti = pi;\n                break;\n            } else if (workersParams[pi].firstBlockNumber < workersParams[ti].firstBlockNumber) {\n                ti = pi;\n            }\n        }\n        workersParams[ti].firstBlockNumber = block.number;\n        workersParams[ti].seed = seed;\n\n        // Copy the current worker list\n        for (uint wi = 0; wi < workerAddresses.length; wi++) {\n            if (workerAddresses[wi] != 0x0) {\n                workersParams[ti].workerAddresses.length++;\n                workersParams[ti].workerAddresses[wi] = workerAddresses[wi];\n            }\n        }\n        emit WorkersParameterized(seed, workerAddresses, true);\n        return ReturnValue.Ok;\n    }\n\n    function getWorkersParamsIndex(uint256 blockNumber)\n    internal\n    constant\n    returns (int8) {\n        // The workers parameters nearest the specified block number\n        int8 ci = - 1;\n        for (uint i = 0; i < workersParams.length; i++) {\n            if (workersParams[i].firstBlockNumber <= blockNumber && (ci == - 1 || workersParams[i].firstBlockNumber > workersParams[uint(ci)].firstBlockNumber)) {\n                ci = int8(i);\n            }\n        }\n        return ci;\n    }\n\n    function getWorkersParams(uint256 blockNumber)\n    public\n    view\n    returns (uint256, uint256, address[]) {\n        // The workers parameters for a given block number\n        int8 idx = getWorkersParamsIndex(blockNumber);\n        require(idx != - 1, \"No workers parameters entry for specified block number\");\n\n        uint index = uint(idx);\n        WorkersParams memory _workerParams = workersParams[index];\n        address[] memory addrs = filterWorkers(_workerParams.workerAddresses);\n\n        return (_workerParams.firstBlockNumber, _workerParams.seed, addrs);\n    }\n\n    function filterWorkers(address[] addrs)\n    internal\n    constant\n    returns (address[]) {\n        // TODO: I don't know why the list contains empty addresses, investigate\n        uint cpt = 0;\n        for (uint i = 0; i < addrs.length; i++) {\n            if (addrs[i] != 0x0 && workers[addrs[i]].signer != principal) {\n                cpt++;\n            }\n        }\n        address[] memory _workers = new address[](cpt);\n        uint cur = 0;\n        for (uint iw = 0; iw < addrs.length; iw++) {\n            if (addrs[iw] != 0x0 && workers[addrs[iw]].signer != principal) {\n                _workers[cur] = addrs[iw];\n                cur++;\n            }\n        }\n        return _workers;\n    }\n\n    function selectWorker(uint256 blockNumber, bytes32 taskId)\n    public\n    view\n    returns (address) {\n        // Apply pseudo-randomness to discover the selected worker for the specified task\n        (uint256 b, uint256 seed, address[] memory workers) = getWorkersParams(blockNumber);\n        address[] memory _workers = filterWorkers(workers);\n\n        bytes32 hash = keccak256(seed, taskId);\n        uint256 index = uint256(hash) % _workers.length;\n        return _workers[index];\n    }\n\n    function getReport(address custodian)\n    public\n    view\n    workerRegistered(custodian)\n    returns (address, bytes) {\n        // The RLP encoded report and signer's address for the specified worker\n        require(workers[custodian].signer != 0x0, \"Worker not registered\");\n        return (workers[custodian].signer, workers[custodian].report);\n    }\n}\n",
  "sourcePath": "/Users/fredfortier/Code/enigma/mvt/enigma-contract/contracts/Enigma.sol",
  "compiler": {
    "name": "solc",
    "version": "0.4.24+commit.e67f0147.Emscripten.clang"
  },
  "schemaVersion": "2.0.0",
  "updatedAt": "2018-06-30T04:02:44.468Z"
}