{
  "contractName": "Enigma",
  "abi": [
    {
      "inputs": [],
      "payable": false,
      "stateMutability": "nonpayable",
      "type": "constructor"
    },
    {
      "anonymous": false,
      "inputs": [
        {
          "indexed": false,
          "name": "secretContract",
          "type": "address"
        },
        {
          "indexed": false,
          "name": "name",
          "type": "bytes32"
        },
        {
          "indexed": false,
          "name": "_success",
          "type": "bool"
        }
      ],
      "name": "RegisterContract",
      "type": "event"
    },
    {
      "anonymous": false,
      "inputs": [
        {
          "indexed": false,
          "name": "user",
          "type": "address"
        },
        {
          "indexed": false,
          "name": "pkey",
          "type": "bytes32"
        },
        {
          "indexed": false,
          "name": "rate",
          "type": "uint256"
        },
        {
          "indexed": false,
          "name": "_success",
          "type": "bool"
        }
      ],
      "name": "RegisterWorker",
      "type": "event"
    },
    {
      "anonymous": false,
      "inputs": [
        {
          "indexed": false,
          "name": "user",
          "type": "address"
        },
        {
          "indexed": false,
          "name": "rate",
          "type": "uint256"
        },
        {
          "indexed": false,
          "name": "_success",
          "type": "bool"
        }
      ],
      "name": "UpdateRate",
      "type": "event"
    },
    {
      "anonymous": false,
      "inputs": [
        {
          "indexed": false,
          "name": "secretContract",
          "type": "address"
        },
        {
          "indexed": false,
          "name": "user",
          "type": "address"
        },
        {
          "indexed": false,
          "name": "amount",
          "type": "uint256"
        },
        {
          "indexed": false,
          "name": "balance",
          "type": "uint256"
        },
        {
          "indexed": false,
          "name": "_success",
          "type": "bool"
        }
      ],
      "name": "Deposit",
      "type": "event"
    },
    {
      "anonymous": false,
      "inputs": [
        {
          "indexed": false,
          "name": "user",
          "type": "address"
        },
        {
          "indexed": false,
          "name": "amount",
          "type": "uint256"
        },
        {
          "indexed": false,
          "name": "balance",
          "type": "uint256"
        },
        {
          "indexed": false,
          "name": "_success",
          "type": "bool"
        }
      ],
      "name": "Withdraw",
      "type": "event"
    },
    {
      "anonymous": false,
      "inputs": [
        {
          "indexed": false,
          "name": "secretContract",
          "type": "address"
        },
        {
          "indexed": false,
          "name": "worker",
          "type": "address"
        },
        {
          "indexed": false,
          "name": "proof",
          "type": "bytes32"
        },
        {
          "indexed": false,
          "name": "reward",
          "type": "uint256"
        },
        {
          "indexed": false,
          "name": "_success",
          "type": "bool"
        }
      ],
      "name": "SolveTask",
      "type": "event"
    },
    {
      "anonymous": false,
      "inputs": [
        {
          "indexed": false,
          "name": "callingContract",
          "type": "address"
        },
        {
          "indexed": false,
          "name": "taskId",
          "type": "uint256"
        },
        {
          "indexed": false,
          "name": "callable",
          "type": "bytes32"
        },
        {
          "indexed": false,
          "name": "callableArgs",
          "type": "bytes32[]"
        },
        {
          "indexed": false,
          "name": "callback",
          "type": "bytes32"
        },
        {
          "indexed": false,
          "name": "max_fee",
          "type": "uint256"
        },
        {
          "indexed": false,
          "name": "_success",
          "type": "bool"
        }
      ],
      "name": "ComputeTask",
      "type": "event"
    },
    {
      "constant": false,
      "inputs": [
        {
          "name": "pkey",
          "type": "bytes32"
        },
        {
          "name": "quote",
          "type": "bytes32"
        },
        {
          "name": "rate",
          "type": "uint256"
        }
      ],
      "name": "registerWorker",
      "outputs": [
        {
          "name": "",
          "type": "uint8"
        }
      ],
      "payable": false,
      "stateMutability": "nonpayable",
      "type": "function"
    },
    {
      "constant": false,
      "inputs": [],
      "name": "login",
      "outputs": [
        {
          "name": "",
          "type": "uint8"
        }
      ],
      "payable": false,
      "stateMutability": "nonpayable",
      "type": "function"
    },
    {
      "constant": false,
      "inputs": [],
      "name": "logout",
      "outputs": [
        {
          "name": "",
          "type": "uint8"
        }
      ],
      "payable": false,
      "stateMutability": "nonpayable",
      "type": "function"
    },
    {
      "constant": false,
      "inputs": [
        {
          "name": "rate",
          "type": "uint256"
        }
      ],
      "name": "updateRate",
      "outputs": [
        {
          "name": "",
          "type": "uint8"
        }
      ],
      "payable": false,
      "stateMutability": "nonpayable",
      "type": "function"
    },
    {
      "constant": false,
      "inputs": [
        {
          "name": "secretContract",
          "type": "address"
        },
        {
          "name": "name",
          "type": "bytes32"
        }
      ],
      "name": "registerContract",
      "outputs": [
        {
          "name": "",
          "type": "uint8"
        }
      ],
      "payable": false,
      "stateMutability": "nonpayable",
      "type": "function"
    },
    {
      "constant": false,
      "inputs": [
        {
          "name": "secretContract",
          "type": "address"
        },
        {
          "name": "amount",
          "type": "uint256"
        }
      ],
      "name": "deposit",
      "outputs": [
        {
          "name": "",
          "type": "uint8"
        }
      ],
      "payable": true,
      "stateMutability": "payable",
      "type": "function"
    },
    {
      "constant": false,
      "inputs": [
        {
          "name": "amount",
          "type": "uint256"
        }
      ],
      "name": "withdraw",
      "outputs": [
        {
          "name": "",
          "type": "uint8"
        }
      ],
      "payable": false,
      "stateMutability": "nonpayable",
      "type": "function"
    },
    {
      "constant": false,
      "inputs": [
        {
          "name": "user",
          "type": "address"
        },
        {
          "name": "secretContract",
          "type": "address"
        },
        {
          "name": "callable",
          "type": "bytes32"
        },
        {
          "name": "callableArgs",
          "type": "bytes32[]"
        },
        {
          "name": "callback",
          "type": "bytes32"
        }
      ],
      "name": "compute",
      "outputs": [
        {
          "name": "",
          "type": "uint8"
        }
      ],
      "payable": true,
      "stateMutability": "payable",
      "type": "function"
    },
    {
      "constant": false,
      "inputs": [
        {
          "name": "secretContract",
          "type": "address"
        },
        {
          "name": "taskId",
          "type": "uint256"
        },
        {
          "name": "proof",
          "type": "bytes32"
        },
        {
          "name": "reward",
          "type": "uint256"
        }
      ],
      "name": "solveTask",
      "outputs": [
        {
          "name": "",
          "type": "uint8"
        }
      ],
      "payable": false,
      "stateMutability": "nonpayable",
      "type": "function"
    },
    {
      "constant": true,
      "inputs": [],
      "name": "listActiveWorkers",
      "outputs": [
        {
          "name": "",
          "type": "address[]"
        }
      ],
      "payable": false,
      "stateMutability": "view",
      "type": "function"
    },
    {
      "constant": true,
      "inputs": [
        {
          "name": "user",
          "type": "address"
        }
      ],
      "name": "getWorkerData",
      "outputs": [
        {
          "name": "",
          "type": "bytes32[4]"
        }
      ],
      "payable": false,
      "stateMutability": "view",
      "type": "function"
    }
  ],
  "bytecode": "0x6060604052341561000f57600080fd5b611fd18061001e6000396000f3006060604052600436106100af576000357c0100000000000000000000000000000000000000000000000000000000900463ffffffff1680631f3c99c3146100b457806323115ebc146100eb5780632e1a7d4d146101b457806347e7ef24146101f957806369ea1771146102525780636d6f6610146102975780639b1be9d814610311578063b34e97e81461037b578063cbcca472146103b2578063e82f30c414610427578063f367c93c1461048f575b600080fd5b34156100bf57600080fd5b6100c76104ee565b604051808260018111156100d757fe5b60ff16815260200191505060405180910390f35b610190600480803573ffffffffffffffffffffffffffffffffffffffff1690602001909190803573ffffffffffffffffffffffffffffffffffffffff169060200190919080356000191690602001909190803590602001908201803590602001908080602002602001604051908101604052809392919081815260200183836020028082843782019150505050505091908035600019169060200190919050506105f1565b604051808260018111156101a057fe5b60ff16815260200191505060405180910390f35b34156101bf57600080fd5b6101d56004808035906020019091905050610995565b604051808260018111156101e557fe5b60ff16815260200191505060405180910390f35b61022e600480803573ffffffffffffffffffffffffffffffffffffffff16906020019091908035906020019091905050610b81565b6040518082600181111561023e57fe5b60ff16815260200191505060405180910390f35b341561025d57600080fd5b6102736004808035906020019091905050610e15565b6040518082600181111561028357fe5b60ff16815260200191505060405180910390f35b34156102a257600080fd5b6102ed600480803573ffffffffffffffffffffffffffffffffffffffff1690602001909190803590602001909190803560001916906020019091908035906020019091905050610fe7565b604051808260018111156102fd57fe5b60ff16815260200191505060405180910390f35b341561031c57600080fd5b6103246114aa565b6040518080602001828103825283818151815260200191508051906020019060200280838360005b8381101561036757808201518184015260208101905061034c565b505050509050019250505060405180910390f35b341561038657600080fd5b61038e611672565b6040518082600181111561039e57fe5b60ff16815260200191505060405180910390f35b34156103bd57600080fd5b6103e9600480803573ffffffffffffffffffffffffffffffffffffffff16906020019091905050611774565b6040518082600460200280838360005b838110156104145780820151818401526020810190506103f9565b5050505090500191505060405180910390f35b341561043257600080fd5b61046b600480803573ffffffffffffffffffffffffffffffffffffffff1690602001909190803560001916906020019091905050611930565b6040518082600181111561047b57fe5b60ff16815260200191505060405180910390f35b341561049a57600080fd5b6104ca60048080356000191690602001909190803560001916906020019091908035906020019091905050611b06565b604051808260018111156104da57fe5b60ff16815260200191505060405180910390f35b6000336104f9611e10565b600160008373ffffffffffffffffffffffffffffffffffffffff1673ffffffffffffffffffffffffffffffffffffffff16815260200190815260200160002060a06040519081016040529081600082015460001916600019168152602001600182015460001916600019168152602001600282015481526020016003820154815260200160048201548152505090506000816000015160001916141515156105a057600080fd5b6000600160003373ffffffffffffffffffffffffffffffffffffffff1673ffffffffffffffffffffffffffffffffffffffff1681526020019081526020016000206004018190555060009250505090565b6000806000866105ff611e46565b600360008373ffffffffffffffffffffffffffffffffffffffff1673ffffffffffffffffffffffffffffffffffffffff168152602001908152602001600020606060405190810160405290816000820154600019166000191681526020016001820154815260200160028201805480602002602001604051908101604052809291908181526020016000905b8282101561073a578382906000526020600020906004020160806040519081016040529081600082015481526020016001820160009054906101000a900473ffffffffffffffffffffffffffffffffffffffff1673ffffffffffffffffffffffffffffffffffffffff1673ffffffffffffffffffffffffffffffffffffffff1681526020016002820154600019166000191681526020016003820154815250508152602001906001019061068b565b5050505081525050905060008160000151600019161415151561075c57600080fd5b60003411151561076b57600080fd5b600360008a73ffffffffffffffffffffffffffffffffffffffff1673ffffffffffffffffffffffffffffffffffffffff16815260200190815260200160002093506107ba846001015434611dbe565b84600101819055507f3d7ca2b1d4d92b9f80e6594957453c9542774babe911cd93d523d44fcfd019b689333487600101546001604051808673ffffffffffffffffffffffffffffffffffffffff1673ffffffffffffffffffffffffffffffffffffffff1681526020018573ffffffffffffffffffffffffffffffffffffffff1673ffffffffffffffffffffffffffffffffffffffff168152602001848152602001838152602001821515151581526020019550505050505060405180910390a18360020180549050925083600201805480919060010161089a9190611e71565b507f25206c146d529ac7942b0aa4d9f2062a7c0369a3734a94f7bdaac6adfadc77d689848a8a8a346001604051808873ffffffffffffffffffffffffffffffffffffffff1673ffffffffffffffffffffffffffffffffffffffff168152602001878152602001866000191660001916815260200180602001856000191660001916815260200184815260200183151515158152602001828103825286818151815260200191508051906020019060200280838360005b8381101561096b578082015181840152602081019050610950565b505050509050019850505050505050505060405180910390a1600094505050505095945050505050565b600080336109a1611e10565b600160008373ffffffffffffffffffffffffffffffffffffffff1673ffffffffffffffffffffffffffffffffffffffff16815260200190815260200160002060a0604051908101604052908160008201546000191660001916815260200160018201546000191660001916815260200160028201548152602001600382015481526020016004820154815250509050600081600001516000191614151515610a4857600080fd5b600160003373ffffffffffffffffffffffffffffffffffffffff1673ffffffffffffffffffffffffffffffffffffffff1681526020019081526020016000209250848360020154111515610a9b57600080fd5b610aa9836002015486611de8565b83600201819055503373ffffffffffffffffffffffffffffffffffffffff166108fc869081150290604051600060405180830381858888f193505050501515610af157600080fd5b7fb97e775637eca8401af330efee0810af7079bafae27761741e09caa14db8d272338685600201546001604051808573ffffffffffffffffffffffffffffffffffffffff1673ffffffffffffffffffffffffffffffffffffffff1681526020018481526020018381526020018215151515815260200194505050505060405180910390a160009350505050919050565b60008083610b8d611e46565b600360008373ffffffffffffffffffffffffffffffffffffffff1673ffffffffffffffffffffffffffffffffffffffff168152602001908152602001600020606060405190810160405290816000820154600019166000191681526020016001820154815260200160028201805480602002602001604051908101604052809291908181526020016000905b82821015610cc8578382906000526020600020906004020160806040519081016040529081600082015481526020016001820160009054906101000a900473ffffffffffffffffffffffffffffffffffffffff1673ffffffffffffffffffffffffffffffffffffffff1673ffffffffffffffffffffffffffffffffffffffff16815260200160028201546000191660001916815260200160038201548152505081526020019060010190610c19565b50505050815250509050600081600001516000191614151515610cea57600080fd5b600034111515610cf957600080fd5b600360008773ffffffffffffffffffffffffffffffffffffffff1673ffffffffffffffffffffffffffffffffffffffff1681526020019081526020016000209250610d48836001015486611dbe565b83600101819055507f3d7ca2b1d4d92b9f80e6594957453c9542774babe911cd93d523d44fcfd019b686338786600101546001604051808673ffffffffffffffffffffffffffffffffffffffff1673ffffffffffffffffffffffffffffffffffffffff1681526020018573ffffffffffffffffffffffffffffffffffffffff1673ffffffffffffffffffffffffffffffffffffffff168152602001848152602001838152602001821515151581526020019550505050505060405180910390a16000935050505092915050565b600033610e20611e10565b600160008373ffffffffffffffffffffffffffffffffffffffff1673ffffffffffffffffffffffffffffffffffffffff16815260200190815260200160002060a0604051908101604052908160008201546000191660001916815260200160018201546000191660001916815260200160028201548152602001600382015481526020016004820154815250509050600081600001516000191614151515610ec757600080fd5b6000600160003373ffffffffffffffffffffffffffffffffffffffff1673ffffffffffffffffffffffffffffffffffffffff168152602001908152602001600020600001546000191614151515610f1d57600080fd5b83600160003373ffffffffffffffffffffffffffffffffffffffff1673ffffffffffffffffffffffffffffffffffffffff168152602001908152602001600020600301819055507f19359d2f6b502eb32089e4e6ea2cb9e909793f252bcc6cdc1b5b54aeff348dde33856001604051808473ffffffffffffffffffffffffffffffffffffffff1673ffffffffffffffffffffffffffffffffffffffff16815260200183815260200182151515158152602001935050505060405180910390a1600092505050919050565b600080600086610ff5611e46565b600360008373ffffffffffffffffffffffffffffffffffffffff1673ffffffffffffffffffffffffffffffffffffffff168152602001908152602001600020606060405190810160405290816000820154600019166000191681526020016001820154815260200160028201805480602002602001604051908101604052809291908181526020016000905b82821015611130578382906000526020600020906004020160806040519081016040529081600082015481526020016001820160009054906101000a900473ffffffffffffffffffffffffffffffffffffffff1673ffffffffffffffffffffffffffffffffffffffff1673ffffffffffffffffffffffffffffffffffffffff16815260200160028201546000191660001916815260200160038201548152505081526020019060010190611081565b5050505081525050905060008160000151600019161415151561115257600080fd5b3361115b611e10565b600160008373ffffffffffffffffffffffffffffffffffffffff1673ffffffffffffffffffffffffffffffffffffffff16815260200190815260200160002060a060405190810160405290816000820154600019166000191681526020016001820154600019166000191681526020016002820154815260200160038201548152602001600482015481525050905060008160000151600019161415151561120257600080fd5b600360008c73ffffffffffffffffffffffffffffffffffffffff1673ffffffffffffffffffffffffffffffffffffffff168152602001908152602001600020955087866001015411151561125557600080fd5b600073ffffffffffffffffffffffffffffffffffffffff16866002018b81548110151561127e57fe5b906000526020600020906004020160010160009054906101000a900473ffffffffffffffffffffffffffffffffffffffff1673ffffffffffffffffffffffffffffffffffffffff161415156112d257600080fd5b33866002018b8154811015156112e457fe5b906000526020600020906004020160010160006101000a81548173ffffffffffffffffffffffffffffffffffffffff021916908373ffffffffffffffffffffffffffffffffffffffff16021790555088866002018b81548110151561134557fe5b9060005260206000209060040201600201816000191690555087866002018b81548110151561137057fe5b906000526020600020906004020160030181905550600160003373ffffffffffffffffffffffffffffffffffffffff1673ffffffffffffffffffffffffffffffffffffffff16815260200190815260200160002094506113d4856002015489611dbe565b85600201819055507fa62aa8778d262744a8ae146c7ab51ab46a86e7febad7f1a9c716cb48ccabc0ae8b338b8b6001604051808673ffffffffffffffffffffffffffffffffffffffff1673ffffffffffffffffffffffffffffffffffffffff1681526020018573ffffffffffffffffffffffffffffffffffffffff1673ffffffffffffffffffffffffffffffffffffffff1681526020018460001916600019168152602001838152602001821515151581526020019550505050505060405180910390a160009650505050505050949350505050565b6114b2611ea3565b6114ba611ea3565b60006114c4611e10565b6000805490506040518059106114d75750595b90808252806020026020018201604052509250600091505b6000805490508210156116695760016000808481548110151561150e57fe5b906000526020600020900160009054906101000a900473ffffffffffffffffffffffffffffffffffffffff1673ffffffffffffffffffffffffffffffffffffffff1673ffffffffffffffffffffffffffffffffffffffff16815260200190815260200160002060a0604051908101604052908160008201546000191660001916815260200160018201546000191660001916815260200160028201548152602001600382015481526020016004820154815250509050600081600001516000191614151561165c576000828154811015156115e557fe5b906000526020600020900160009054906101000a900473ffffffffffffffffffffffffffffffffffffffff16838381518110151561161f57fe5b9060200190602002019073ffffffffffffffffffffffffffffffffffffffff16908173ffffffffffffffffffffffffffffffffffffffff16815250505b81806001019250506114ef565b82935050505090565b60003361167d611e10565b600160008373ffffffffffffffffffffffffffffffffffffffff1673ffffffffffffffffffffffffffffffffffffffff16815260200190815260200160002060a060405190810160405290816000820154600019166000191681526020016001820154600019166000191681526020016002820154815260200160038201548152602001600482015481525050905060008160000151600019161415151561172457600080fd5b60018060003373ffffffffffffffffffffffffffffffffffffffff1673ffffffffffffffffffffffffffffffffffffffff1681526020019081526020016000206004018190555060009250505090565b61177c611eb7565b611784611e10565b60008033611790611e10565b600160008373ffffffffffffffffffffffffffffffffffffffff1673ffffffffffffffffffffffffffffffffffffffff16815260200190815260200160002060a060405190810160405290816000820154600019166000191681526020016001820154600019166000191681526020016002820154815260200160038201548152602001600482015481525050905060008160000151600019161415151561183757600080fd5b600160008873ffffffffffffffffffffffffffffffffffffffff1673ffffffffffffffffffffffffffffffffffffffff16815260200190815260200160002060a06040519081016040529081600082015460001916600019168152602001600182015460001916600019168152602001600282015481526020016003820154815260200160048201548152505094508460400151600102935084606001516001029250608060405190810160405280866000015160001916600019168152602001866020015160001916600019168152602001856000191660001916815260200184600019166000191681525095505050505050919050565b600080600360008573ffffffffffffffffffffffffffffffffffffffff1673ffffffffffffffffffffffffffffffffffffffff168152602001908152602001600020600001546000191614151561198657600080fd5b6002805480600101828161199a9190611ee2565b9160005260206000209001600085909190916101000a81548173ffffffffffffffffffffffffffffffffffffffff021916908373ffffffffffffffffffffffffffffffffffffffff1602179055505081600360008573ffffffffffffffffffffffffffffffffffffffff1673ffffffffffffffffffffffffffffffffffffffff16815260200190815260200160002060000181600019169055506000600360008573ffffffffffffffffffffffffffffffffffffffff1673ffffffffffffffffffffffffffffffffffffffff168152602001908152602001600020600101819055507f80c6dc74b215fde33d07365e07f86c727f074391f0b27649271c1bb2c122217583836001604051808473ffffffffffffffffffffffffffffffffffffffff1673ffffffffffffffffffffffffffffffffffffffff168152602001836000191660001916815260200182151515158152602001935050505060405180910390a16000905092915050565b600080600160003373ffffffffffffffffffffffffffffffffffffffff1673ffffffffffffffffffffffffffffffffffffffff1681526020019081526020016000206000015460001916141515611b5c57600080fd5b60008054806001018281611b709190611ee2565b9160005260206000209001600033909190916101000a81548173ffffffffffffffffffffffffffffffffffffffff021916908373ffffffffffffffffffffffffffffffffffffffff1602179055505083600160003373ffffffffffffffffffffffffffffffffffffffff1673ffffffffffffffffffffffffffffffffffffffff168152602001908152602001600020600001816000191690555082600160003373ffffffffffffffffffffffffffffffffffffffff1673ffffffffffffffffffffffffffffffffffffffff168152602001908152602001600020600101816000191690555034600160003373ffffffffffffffffffffffffffffffffffffffff1673ffffffffffffffffffffffffffffffffffffffff1681526020019081526020016000206002018190555081600160003373ffffffffffffffffffffffffffffffffffffffff1673ffffffffffffffffffffffffffffffffffffffff168152602001908152602001600020600301819055506000600160003373ffffffffffffffffffffffffffffffffffffffff1673ffffffffffffffffffffffffffffffffffffffff168152602001908152602001600020600401819055507f2edc37e5b87290a697025181834a295bf93db6c112b926e7b22908c31f043f0d3385846001604051808573ffffffffffffffffffffffffffffffffffffffff1673ffffffffffffffffffffffffffffffffffffffff16815260200184600019166000191681526020018381526020018215151515815260200194505050505060405180910390a1600090509392505050565b6000808284019050611dde848210158015611dd95750838210155b611e01565b8091505092915050565b6000611df683831115611e01565b818303905092915050565b801515611e0d57600080fd5b50565b60a06040519081016040528060008019168152602001600080191681526020016000815260200160008152602001600081525090565b6060604051908101604052806000801916815260200160008152602001611e6b611f0e565b81525090565b815481835581811511611e9e57600402816004028360005260206000209182019101611e9d9190611f22565b5b505050565b602060405190810160405280600081525090565b6080604051908101604052806004905b6000801916815260200190600190039081611ec75790505090565b815481835581811511611f0957818360005260206000209182019101611f089190611f80565b5b505050565b602060405190810160405280600081525090565b611f7d91905b80821115611f79576000808201600090556001820160006101000a81549073ffffffffffffffffffffffffffffffffffffffff02191690556002820160009055600382016000905550600401611f28565b5090565b90565b611fa291905b80821115611f9e576000816000905550600101611f86565b5090565b905600a165627a7a72305820098743c320e8d823e0ae662f4be4707b6d87abc3cfecca9fa9d29d84070e39960029",
  "source": "pragma solidity ^0.4.19;\n\ncontract SafeMath {\n    function safeMul(uint a, uint b) internal returns (uint) {\n        uint c = a * b;\n        assert(a == 0 || c / a == b);\n        return c;\n    }\n\n    function safeSub(uint a, uint b) internal returns (uint) {\n        assert(b <= a);\n        return a - b;\n    }\n\n    function safeAdd(uint a, uint b) internal returns (uint) {\n        uint c = a + b;\n        assert(c >= a && c >= b);\n        return c;\n    }\n\n    function assert(bool assertion) internal {\n        if (!assertion) throw;\n    }\n}\n\ncontract Enigma is SafeMath {\n    struct Task {\n        uint taskId;\n        address worker;\n        bytes32 proof;\n        uint reward;\n    }\n\n    struct SecretContract {\n        bytes32 name;\n        uint balance;\n        Task[] tasks; // Computation hash mapped to fees\n    }\n\n    struct Worker {\n        bytes32 pkey;\n        bytes32 quote;\n        uint balance;\n        uint rate;\n        uint status;\n    }\n\n    address[] _workerIndex;\n    mapping(address => Worker) _workers;\n\n    address[] _contractIndex;\n    mapping(address => SecretContract) _secretContracts;\n\n    event RegisterContract(address secretContract, bytes32 name, bool _success);\n    event RegisterWorker(address user, bytes32 pkey, uint rate, bool _success);\n    event UpdateRate(address user, uint rate, bool _success);\n    event Deposit(address secretContract, address user, uint amount, uint balance, bool _success);\n    event Withdraw(address user, uint amount, uint balance, bool _success);\n    event SolveTask(address secretContract, address worker, bytes32 proof, uint reward, bool _success);\n\n    // Enigma computation task\n    event ComputeTask(address callingContract, uint taskId, bytes32 callable, bytes32[] callableArgs, bytes32 callback, uint max_fee, bool _success);\n\n    enum ReturnValue {Ok, Error}\n\n    function Enigma() public {\n\n    }\n\n    modifier contractRegistered(address secretContract) {\n        SecretContract memory sc = _secretContracts[secretContract];\n        require(sc.name != \"\");\n        _;\n    }\n\n    modifier workerRegistered(address user) {\n        Worker memory worker = _workers[user];\n        require(worker.pkey != \"\");\n        _;\n    }\n\n    function registerWorker(bytes32 pkey, bytes32 quote, uint rate)\n    public\n    returns (ReturnValue) {\n        // Register a new worker and collect stake\n        require(_workers[msg.sender].pkey == \"\");\n\n        _workerIndex.push(msg.sender);\n\n        _workers[msg.sender].pkey = pkey;\n        _workers[msg.sender].quote = quote;\n        _workers[msg.sender].balance = msg.value;\n        _workers[msg.sender].rate = rate;\n        _workers[msg.sender].status = 0;\n\n        RegisterWorker(msg.sender, pkey, rate, true);\n\n        return ReturnValue.Ok;\n    }\n\n    function login()\n    public\n    workerRegistered(msg.sender)\n    returns (ReturnValue) {\n        // A worker accepts tasks\n        _workers[msg.sender].status = 1;\n\n        return ReturnValue.Ok;\n    }\n\n    function logout()\n    public\n    workerRegistered(msg.sender)\n    returns (ReturnValue) {\n        // A worker stops accepting tasks\n        _workers[msg.sender].status = 0;\n\n        return ReturnValue.Ok;\n    }\n\n    function updateRate(uint rate)\n    public\n    workerRegistered(msg.sender)\n    returns (ReturnValue) {\n        // Update the ENG/GAS rate\n        require(_workers[msg.sender].pkey != \"\");\n\n        _workers[msg.sender].rate = rate;\n\n        UpdateRate(msg.sender, rate, true);\n\n        return ReturnValue.Ok;\n    }\n\n    function registerContract(address secretContract, bytes32 name)\n    public\n    returns (ReturnValue) {\n        // Register a secret contract\n        require(_secretContracts[secretContract].name == \"\");\n\n        _contractIndex.push(secretContract);\n\n        _secretContracts[secretContract].name = name;\n        _secretContracts[secretContract].balance = 0;\n\n        RegisterContract(secretContract, name, true);\n\n        return ReturnValue.Ok;\n    }\n\n    function deposit(address secretContract, uint amount)\n    public\n    payable\n    contractRegistered(secretContract)\n    returns (ReturnValue) {\n        // Deposit tokens to a smart contract for computation\n        require(msg.value > 0);\n\n        SecretContract storage sc = _secretContracts[secretContract];\n        sc.balance = safeAdd(sc.balance, amount);\n        Deposit(secretContract, msg.sender, amount, sc.balance, true);\n\n        return ReturnValue.Ok;\n    }\n\n    function withdraw(uint amount)\n    public\n    workerRegistered(msg.sender)\n    returns (ReturnValue) {\n        // Withdraw from stake and rewards balance\n        Worker storage worker = _workers[msg.sender];\n        require(worker.balance > amount);\n\n        worker.balance = safeSub(worker.balance, amount);\n        msg.sender.transfer(amount);\n\n        Withdraw(msg.sender, amount, worker.balance, true);\n\n        return ReturnValue.Ok;\n    }\n\n    function compute(address user, address secretContract, bytes32 callable, bytes32[] callableArgs, bytes32 callback)\n    public\n    payable\n    contractRegistered(secretContract)\n    returns (ReturnValue) {\n        require(msg.value > 0);\n\n        // Each registered has a bank which holds computation deposits\n        // Deposit fee amount in the specified contract bank\n        SecretContract storage sc = _secretContracts[secretContract];\n        sc.balance = safeAdd(sc.balance, msg.value);\n\n        Deposit(secretContract, msg.sender, msg.value, sc.balance, true);\n\n        // Each task invoked by a contract has a sequential id\n        uint taskId = sc.tasks.length;\n        sc.tasks.length++;\n\n        // Emit the ComputeTask event which each node is watching for\n        ComputeTask(secretContract, taskId, callable, callableArgs, callback, msg.value, true);\n\n        return ReturnValue.Ok;\n    }\n\n    function solveTask(address secretContract, uint taskId, bytes32 proof, uint reward)\n    public\n    contractRegistered(secretContract)\n    workerRegistered(msg.sender)\n    returns (ReturnValue) {\n        // Record executed computation and distribute rewards\n        SecretContract storage sc = _secretContracts[secretContract];\n        // The contract must hold enough fund to distribute reward\n        require(sc.balance > reward);\n        // Task must be solved only once\n        require(sc.tasks[taskId].worker == address(0));\n\n        // Keep a trace of the task worker and proof\n        sc.tasks[taskId].worker = msg.sender;\n        sc.tasks[taskId].proof = proof;\n        sc.tasks[taskId].reward = reward;\n\n        // Put the reward in the worker's bank\n        // He can withdraw later\n        Worker storage worker = _workers[msg.sender];\n        worker.balance = safeAdd(worker.balance, reward);\n\n        SolveTask(secretContract, msg.sender, proof, reward, true);\n\n        return ReturnValue.Ok;\n    }\n\n    ////////////////////////////////////////////////////////////////////////////////////////\n    //VIEWS/////////////////////////////////////////////////////////////////////////////////\n    ////////////////////////////////////////////////////////////////////////////////////////\n\n\n    function listActiveWorkers() public view returns (address[]) {\n        //Returns a list of all active workers\n        address[] memory keys = new address[](_workerIndex.length);\n        for (uint i = 0; i < _workerIndex.length; i++) {\n            // Filter out inactive workers\n            Worker memory worker = _workers[_workerIndex[i]];\n            if (worker.pkey != \"\") {\n                keys[i] = _workerIndex[i];\n            }\n        }\n        return keys;\n    }\n\n    function getWorkerData(address user)\n    public\n    view\n    workerRegistered(msg.sender)\n    returns (bytes32[4]){\n        // Returns data about the specified worker\n        Worker memory worker = _workers[user];\n\n        bytes32 strBalance = bytes32(worker.balance);\n        bytes32 strRate = bytes32(worker.rate);\n\n        return [worker.pkey, worker.quote, strBalance, strRate];\n    }\n}\n",
  "sourcePath": "/Users/fredfortier/Code/enigma/coin-mixer-poc/dapp/contracts/Enigma.sol",
  "compiler": {
    "name": "solc",
    "version": "0.4.19+commit.c4cbbb05.Emscripten.clang"
  },
  "schemaVersion": "2.0.0",
  "updatedAt": "2018-04-06T23:35:31.361Z"
}