{
  "contractName": "Enigma",
  "abi": [
    {
      "constant": true,
      "inputs": [
        {
          "name": "",
          "type": "uint256"
        }
      ],
      "name": "workerAddresses",
      "outputs": [
        {
          "name": "",
          "type": "address"
        }
      ],
      "payable": false,
      "stateMutability": "view",
      "type": "function",
      "signature": "0x0a318da0"
    },
    {
      "constant": true,
      "inputs": [
        {
          "name": "",
          "type": "address"
        }
      ],
      "name": "workers",
      "outputs": [
        {
          "name": "signer",
          "type": "address"
        },
        {
          "name": "status",
          "type": "uint8"
        },
        {
          "name": "report",
          "type": "bytes"
        },
        {
          "name": "balance",
          "type": "uint256"
        }
      ],
      "payable": false,
      "stateMutability": "view",
      "type": "function",
      "signature": "0x4048a257"
    },
    {
      "constant": true,
      "inputs": [],
      "name": "engToken",
      "outputs": [
        {
          "name": "",
          "type": "address"
        }
      ],
      "payable": false,
      "stateMutability": "view",
      "type": "function",
      "signature": "0x9489ad40"
    },
    {
      "constant": true,
      "inputs": [
        {
          "name": "",
          "type": "bytes32"
        }
      ],
      "name": "tasks",
      "outputs": [
        {
          "name": "fee",
          "type": "uint256"
        },
        {
          "name": "token",
          "type": "address"
        },
        {
          "name": "tokenValue",
          "type": "uint256"
        },
        {
          "name": "inStateDeltaHash",
          "type": "bytes32"
        },
        {
          "name": "outStateDeltaHash",
          "type": "bytes32"
        },
        {
          "name": "ethCall",
          "type": "bytes"
        },
        {
          "name": "sig",
          "type": "bytes"
        },
        {
          "name": "sender",
          "type": "address"
        },
        {
          "name": "status",
          "type": "uint8"
        }
      ],
      "payable": false,
      "stateMutability": "view",
      "type": "function",
      "signature": "0xe579f500"
    },
    {
      "inputs": [
        {
          "name": "_tokenAddress",
          "type": "address"
        },
        {
          "name": "_principal",
          "type": "address"
        }
      ],
      "payable": false,
      "stateMutability": "nonpayable",
      "type": "constructor",
      "signature": "constructor"
    },
    {
      "anonymous": false,
      "inputs": [
        {
          "indexed": false,
          "name": "custodian",
          "type": "address"
        },
        {
          "indexed": false,
          "name": "signer",
          "type": "address"
        }
      ],
      "name": "Registered",
      "type": "event",
      "signature": "0x0a31ee9d46a828884b81003c8498156ea6aa15b9b54bdd0ef0b533d9eba57e55"
    },
    {
      "anonymous": false,
      "inputs": [
        {
          "indexed": false,
          "name": "sig",
          "type": "bytes"
        },
        {
          "indexed": false,
          "name": "hash",
          "type": "bytes32"
        },
        {
          "indexed": false,
          "name": "workerAddr",
          "type": "address"
        }
      ],
      "name": "ValidatedSig",
      "type": "event",
      "signature": "0xe36691ca52ee024e298e5c0ff07191b87f0ac571c01a7631db2d70d573d955cb"
    },
    {
      "anonymous": false,
      "inputs": [
        {
          "indexed": false,
          "name": "seed",
          "type": "uint256"
        },
        {
          "indexed": false,
          "name": "workers",
          "type": "address[]"
        },
        {
          "indexed": false,
          "name": "secretContracts",
          "type": "address[]"
        }
      ],
      "name": "WorkersParameterized",
      "type": "event",
      "signature": "0xddd784bed66dfeca9e93ec7a89b48ae548c779ac5a179b0362ac680d4677acf0"
    },
    {
      "anonymous": false,
      "inputs": [
        {
          "indexed": false,
          "name": "taskId",
          "type": "bytes32"
        },
        {
          "indexed": false,
          "name": "fee",
          "type": "uint256"
        },
        {
          "indexed": false,
          "name": "token",
          "type": "address"
        },
        {
          "indexed": false,
          "name": "tokenValue",
          "type": "uint256"
        },
        {
          "indexed": false,
          "name": "sender",
          "type": "address"
        }
      ],
      "name": "TaskRecordCreated",
      "type": "event",
      "signature": "0x51364a5a527e38841b15c974f7924dad755bc9ce0d29701d7501a7bd297b787b"
    },
    {
      "anonymous": false,
      "inputs": [
        {
          "indexed": false,
          "name": "taskIds",
          "type": "bytes32[]"
        },
        {
          "indexed": false,
          "name": "fees",
          "type": "uint256[]"
        },
        {
          "indexed": false,
          "name": "tokens",
          "type": "address[]"
        },
        {
          "indexed": false,
          "name": "tokenValues",
          "type": "uint256[]"
        },
        {
          "indexed": false,
          "name": "sender",
          "type": "address"
        }
      ],
      "name": "TaskRecordsCreated",
      "type": "event",
      "signature": "0xcb8afab3437be2f96ef2a2932eb02d02fd765bfe8be7c1f5a58edd6452317dde"
    },
    {
      "anonymous": false,
      "inputs": [
        {
          "indexed": false,
          "name": "taskId",
          "type": "bytes32"
        },
        {
          "indexed": false,
          "name": "inStateDeltaHash",
          "type": "bytes32"
        },
        {
          "indexed": false,
          "name": "outStateDeltaHash",
          "type": "bytes32"
        },
        {
          "indexed": false,
          "name": "ethCall",
          "type": "bytes"
        },
        {
          "indexed": false,
          "name": "sig",
          "type": "bytes"
        }
      ],
      "name": "ReceiptVerified",
      "type": "event",
      "signature": "0x665329bb9a4e1062edc215d9c5ab57fa54c4c88e3dfbcc68e0cd92fdd010fa6e"
    },
    {
      "constant": false,
      "inputs": [
        {
          "name": "signer",
          "type": "address"
        },
        {
          "name": "report",
          "type": "bytes"
        }
      ],
      "name": "register",
      "outputs": [],
      "payable": true,
      "stateMutability": "payable",
      "type": "function",
      "signature": "0x24b8fbf6"
    },
    {
      "constant": false,
      "inputs": [
        {
          "name": "taskId",
          "type": "bytes32"
        },
        {
          "name": "fee",
          "type": "uint256"
        },
        {
          "name": "token",
          "type": "address"
        },
        {
          "name": "tokenValue",
          "type": "uint256"
        }
      ],
      "name": "createTaskRecord",
      "outputs": [],
      "payable": false,
      "stateMutability": "nonpayable",
      "type": "function",
      "signature": "0xd28cf5c1"
    },
    {
      "constant": false,
      "inputs": [
        {
          "name": "taskIds",
          "type": "bytes32[]"
        },
        {
          "name": "fees",
          "type": "uint256[]"
        },
        {
          "name": "tokens",
          "type": "address[]"
        },
        {
          "name": "tokenValues",
          "type": "uint256[]"
        }
      ],
      "name": "createTaskRecords",
      "outputs": [],
      "payable": false,
      "stateMutability": "nonpayable",
      "type": "function",
      "signature": "0xa85d84ef"
    },
    {
      "constant": false,
      "inputs": [
        {
          "name": "taskId",
          "type": "bytes32"
        },
        {
          "name": "inStateDeltaHash",
          "type": "bytes32"
        },
        {
          "name": "outStateDeltaHash",
          "type": "bytes32"
        },
        {
          "name": "ethCall",
          "type": "bytes"
        },
        {
          "name": "sig",
          "type": "bytes"
        }
      ],
      "name": "commitReceipt",
      "outputs": [],
      "payable": false,
      "stateMutability": "nonpayable",
      "type": "function",
      "signature": "0x2e692989"
    },
    {
      "constant": false,
      "inputs": [
        {
          "name": "seed",
          "type": "uint256"
        },
        {
          "name": "sig",
          "type": "bytes"
        }
      ],
      "name": "setWorkersParams",
      "outputs": [],
      "payable": false,
      "stateMutability": "nonpayable",
      "type": "function",
      "signature": "0x2873e73c"
    },
    {
      "constant": true,
      "inputs": [
        {
          "name": "blockNumber",
          "type": "uint256"
        }
      ],
      "name": "getWorkersParams",
      "outputs": [
        {
          "name": "",
          "type": "uint256"
        },
        {
          "name": "",
          "type": "uint256"
        },
        {
          "name": "",
          "type": "address[]"
        },
        {
          "name": "",
          "type": "address[]"
        }
      ],
      "payable": false,
      "stateMutability": "view",
      "type": "function",
      "signature": "0x59c91a12"
    },
    {
      "constant": true,
      "inputs": [
        {
          "name": "custodian",
          "type": "address"
        }
      ],
      "name": "getReport",
      "outputs": [
        {
          "name": "",
          "type": "address"
        },
        {
          "name": "",
          "type": "bytes"
        }
      ],
      "payable": false,
      "stateMutability": "view",
      "type": "function",
      "signature": "0xa3bdae3e"
    }
  ],
  "bytecode": "0x608060405234801561001057600080fd5b5060405160408061184883398101604052805160209091015160008054600160a060020a03938416600160a060020a031991821617909155600180549390921692169190911790556117e1806100676000396000f3006080604052600436106100ae5763ffffffff7c01000000000000000000000000000000000000000000000000000000006000350416630a318da081146100b357806324b8fbf6146100e75780632873e73c146101435780632e692989146101a15780634048a2571461024257806359c91a12146103085780639489ad40146103c7578063a3bdae3e146103dc578063a85d84ef1461048e578063d28cf5c11461058e578063e579f500146105b8575b600080fd5b3480156100bf57600080fd5b506100cb6004356106fd565b60408051600160a060020a039092168252519081900360200190f35b60408051602060046024803582810135601f8101859004850286018501909652858552610141958335600160a060020a03169536956044949193909101919081908401838280828437509497506107259650505050505050565b005b34801561014f57600080fd5b5060408051602060046024803582810135601f81018590048502860185019096528585526101419583359536956044949193909101919081908401838280828437509497506108659650505050505050565b3480156101ad57600080fd5b50604080516020601f606435600481810135928301849004840285018401909552818452610141948035946024803595604435953695608494930191819084018382808284375050604080516020601f89358b018035918201839004830284018301909452808352979a999881019791965091820194509250829150840183828082843750949750610a7a9650505050505050565b34801561024e57600080fd5b50610263600160a060020a0360043516610cec565b6040518085600160a060020a0316600160a060020a031681526020018460ff1660ff16815260200180602001838152602001828103825284818151815260200191508051906020019080838360005b838110156102ca5781810151838201526020016102b2565b50505050905090810190601f1680156102f75780820380516001836020036101000a031916815260200191505b509550505050505060405180910390f35b34801561031457600080fd5b50610320600435610db0565b604051808581526020018481526020018060200180602001838103835285818151815260200191508051906020019060200280838360005b83811015610370578181015183820152602001610358565b50505050905001838103825284818151815260200191508051906020019060200280838360005b838110156103af578181015183820152602001610397565b50505050905001965050505050505060405180910390f35b3480156103d357600080fd5b506100cb610dbd565b3480156103e857600080fd5b506103fd600160a060020a0360043516610dcc565b6040518083600160a060020a0316600160a060020a0316815260200180602001828103825283818151815260200191508051906020019080838360005b8381101561045257818101518382015260200161043a565b50505050905090810190601f16801561047f5780820380516001836020036101000a031916815260200191505b50935050505060405180910390f35b34801561049a57600080fd5b506040805160206004803580820135838102808601850190965280855261014195369593946024949385019291829185019084908082843750506040805187358901803560208181028481018201909552818452989b9a998901989297509082019550935083925085019084908082843750506040805187358901803560208181028481018201909552818452989b9a998901989297509082019550935083925085019084908082843750506040805187358901803560208181028481018201909552818452989b9a9989019892975090820195509350839250850190849080828437509497506110479650505050505050565b34801561059a57600080fd5b50610141600435602435600160a060020a0360443516606435611414565b3480156105c457600080fd5b506105d0600435611544565b604080518a8152600160a060020a03808b166020830152918101899052606081018890526080810187905290831660e082015260a0810160c08201610100830184600181111561061c57fe5b60ff168152602001838103835287818151815260200191508051906020019080838360005b83811015610659578181015183820152602001610641565b50505050905090810190601f1680156106865780820380516001836020036101000a031916815260200191505b50838103825286518152865160209182019188019080838360005b838110156106b95781810151838201526020016106a1565b50505050905090810190601f1680156106e65780820380516001836020036101000a031916815260200191505b509b50505050505050505050505060405180910390f35b601180548290811061070b57fe5b600091825260209091200154600160a060020a0316905081565b33600090815260126020526040812054600160a060020a0316151561079957506011805490819061075990600183016116bc565b503360118281548110151561076a57fe5b9060005260206000200160006101000a815481600160a060020a030219169083600160a060020a031602179055505b336000908152601260209081526040909120805473ffffffffffffffffffffffffffffffffffffffff1916600160a060020a03861617815534600282015583516107eb926001909201918501906116e5565b5033600081815260126020908152604091829020805474ff0000000000000000000000000000000000000000191660a060020a1790558151928352600160a060020a0386169083015280517f0a31ee9d46a828884b81003c8498156ea6aa15b9b54bdd0ef0b533d9eba57e559281900390910190a1505050565b60608033610871611763565b600160a060020a0382811660009081526012602090815260409182902082516080810184528154948516815260a060020a90940460ff1684830152600180820180548551600261010094831615949094026000190190911692909204601f810185900485028301850186528083529294860193919290918301828280156109395780601f1061090e57610100808354040283529160200191610939565b820191906000526020600020905b81548152906001019060200180831161091c57829003601f168201915b5050505050815260200160028201548152505090506000816020015160ff161115156109af576040805160e560020a62461bcd02815260206004820152601460248201527f556e7265676973746572656420776f726b65722e000000000000000000000000604482015290519081900360640190fd5b7fddd784bed66dfeca9e93ec7a89b48ae548c779ac5a179b0362ac680d4677acf0868585604051808481526020018060200180602001838103835285818151815260200191508051906020019060200280838360005b83811015610a1d578181015183820152602001610a05565b50505050905001838103825284818151815260200191508051906020019060200280838360005b83811015610a5c578181015183820152602001610a44565b505050509050019550505050505060405180910390a1505050505050565b33610a83611763565b600160a060020a0382811660009081526012602090815260409182902082516080810184528154948516815260a060020a90940460ff1684830152600180820180548551600261010094831615949094026000190190911692909204601f81018590048502830185018652808352929486019391929091830182828015610b4b5780601f10610b2057610100808354040283529160200191610b4b565b820191906000526020600020905b815481529060010190602001808311610b2e57829003601f168201915b5050505050815260200160028201548152505090506000816020015160ff16111515610bc1576040805160e560020a62461bcd02815260206004820152601460248201527f556e7265676973746572656420776f726b65722e000000000000000000000000604482015290519081900360640190fd5b60408051888152602080820189905291810187905260a06060820181815287519183019190915286517f665329bb9a4e1062edc215d9c5ab57fa54c4c88e3dfbcc68e0cd92fdd010fa6e938b938b938b938b938b939291608084019160c08501919087019080838360005b83811015610c44578181015183820152602001610c2c565b50505050905090810190601f168015610c715780820380516001836020036101000a031916815260200191505b50838103825284518152845160209182019186019080838360005b83811015610ca4578181015183820152602001610c8c565b50505050905090810190601f168015610cd15780820380516001836020036101000a031916815260200191505b5097505050505050505060405180910390a150505050505050565b6012602090815260009182526040918290208054600180830180548651600261010094831615949094026000190190911692909204601f8101869004860283018601909652858252600160a060020a0383169560a060020a90930460ff169491929091830182828015610da05780601f10610d7557610100808354040283529160200191610da0565b820191906000526020600020905b815481529060010190602001808311610d8357829003601f168201915b5050505050908060020154905084565b6000806060809193509193565b600054600160a060020a031681565b6000606082610dd9611763565b600160a060020a0382811660009081526012602090815260409182902082516080810184528154948516815260a060020a90940460ff1684830152600180820180548551600261010094831615949094026000190190911692909204601f81018590048502830185018652808352929486019391929091830182828015610ea15780601f10610e7657610100808354040283529160200191610ea1565b820191906000526020600020905b815481529060010190602001808311610e8457829003601f168201915b5050505050815260200160028201548152505090506000816020015160ff16111515610f17576040805160e560020a62461bcd02815260206004820152601460248201527f556e7265676973746572656420776f726b65722e000000000000000000000000604482015290519081900360640190fd5b600160a060020a03808616600090815260126020526040902054161515610f88576040805160e560020a62461bcd02815260206004820152601560248201527f576f726b6572206e6f7420726567697374657265640000000000000000000000604482015290519081900360640190fd5b600160a060020a038581166000908152601260209081526040918290208054600191820180548551600261010095831615959095026000190190911693909304601f81018590048502840185019095528483529416939290918391908301828280156110355780601f1061100a57610100808354040283529160200191611035565b820191906000526020600020905b81548152906001019060200180831161101857829003601f168201915b50505050509050935093505050915091565b60005b84518110156112ac5760136000868381518110151561106557fe5b6020908102909101810151825281019190915260400160002060070154600160a060020a0316156110e0576040805160e560020a62461bcd02815260206004820152601360248201527f5461736b20616c72656164792065786973742e00000000000000000000000000604482015290519081900360640190fd5b83818151811015156110ee57fe5b9060200190602002015160136000878481518110151561110a57fe5b6020908102909101810151825281019190915260400160002055825183908290811061113257fe5b9060200190602002015160136000878481518110151561114e57fe5b6020908102919091018101518252810191909152604001600020600101805473ffffffffffffffffffffffffffffffffffffffff1916600160a060020a039290921691909117905581518290829081106111a457fe5b906020019060200201516013600087848151811015156111c057fe5b906020019060200201516000191660001916815260200190815260200160002060020181905550336013600087848151811015156111fa57fe5b60209081029190910181015182528101919091526040016000908120600701805473ffffffffffffffffffffffffffffffffffffffff1916600160a060020a0393909316929092179091558551601390829088908590811061125857fe5b60209081029091018101518252810191909152604001600020600701805474ff0000000000000000000000000000000000000000191660a060020a83600181111561129f57fe5b021790555060010161104a565b7fcb8afab3437be2f96ef2a2932eb02d02fd765bfe8be7c1f5a58edd6452317dde8585858533604051808060200180602001806020018060200186600160a060020a0316600160a060020a0316815260200185810385528a818151815260200191508051906020019060200280838360005b8381101561133657818101518382015260200161131e565b50505050905001858103845289818151815260200191508051906020019060200280838360005b8381101561137557818101518382015260200161135d565b50505050905001858103835288818151815260200191508051906020019060200280838360005b838110156113b457818101518382015260200161139c565b50505050905001858103825287818151815260200191508051906020019060200280838360005b838110156113f35781810151838201526020016113db565b50505050905001995050505050505050505060405180910390a15050505050565b600084815260136020526040902060070154600160a060020a031615611484576040805160e560020a62461bcd02815260206004820152601360248201527f5461736b20616c72656164792065786973742e00000000000000000000000000604482015290519081900360640190fd5b600084815260136020908152604091829020858155600181018054600160a060020a03871673ffffffffffffffffffffffffffffffffffffffff19918216811790925560028301869055600790920180549092163390811774ff0000000000000000000000000000000000000000191690925583518881529283018790528284015260608201849052608082015290517f51364a5a527e38841b15c974f7924dad755bc9ce0d29701d7501a7bd297b787b9181900360a00190a150505050565b6013602090815260009182526040918290208054600180830154600280850154600386015460048701546005880180548b516101009882161598909802600019011694909404601f81018a90048a0287018a01909a528986529598600160a060020a0390941697919690959490939092918301828280156116065780601f106115db57610100808354040283529160200191611606565b820191906000526020600020905b8154815290600101906020018083116115e957829003601f168201915b5050505060068301805460408051602060026001851615610100026000190190941693909304601f81018490048402820184019092528181529495949350908301828280156116965780601f1061166b57610100808354040283529160200191611696565b820191906000526020600020905b81548152906001019060200180831161167957829003601f168201915b50505060079093015491925050600160a060020a0381169060ff60a060020a9091041689565b8154818355818111156116e0576000838152602090206116e0918101908301611798565b505050565b828054600181600116156101000203166002900490600052602060002090601f016020900481019282601f1061172657805160ff1916838001178555611753565b82800160010185558215611753579182015b82811115611753578251825591602001919060010190611738565b5061175f929150611798565b5090565b6080604051908101604052806000600160a060020a03168152602001600060ff16815260200160608152602001600081525090565b6117b291905b8082111561175f576000815560010161179e565b905600a165627a7a723058207772e54d2552d7c6bdae3e5bac04c39be991ed4e4cbfd7e2efbec37e102521b40029",
  "source": "pragma solidity ^0.4.24;\n\nimport \"openzeppelin-solidity/contracts/math/SafeMath.sol\";\nimport \"openzeppelin-solidity/contracts/ECRecovery.sol\";\nimport \"openzeppelin-solidity/contracts/token/ERC20/StandardToken.sol\";\n\ncontract IERC20 {\n    function balanceOf(address who) public view returns (uint256);\n\n    function transfer(address to, uint256 value) public returns (bool);\n\n    function allowance(address owner, address spender) public view returns (uint256);\n\n    function transferFrom(address from, address to, uint256 value) public returns (bool);\n\n    function approve(address spender, uint256 value) public returns (bool);\n\n    event Transfer(address indexed from, address indexed to, uint256 value);\n    event Approval(address indexed owner, address indexed spender, uint256 value);\n}\n\n\ncontract Enigma {\n    using SafeMath for uint256;\n    using ECRecovery for bytes32;\n\n    // The interface of the deployed ENG ERC20 token contract\n    IERC20 public engToken;\n\n    struct TaskRecord {\n        bytes32 taskId;\n        uint fee;\n        address token;\n        uint tokenValue;\n        address sender;\n    }\n\n    struct TaskReceipt {\n        bytes32 taskId;\n        bytes32 inStateDeltaHash;\n        bytes32 outStateDeltaHash;\n        bytes ethCall;\n        bytes sig;\n    }\n\n    struct Task {\n        uint fee;\n        address token;\n        uint tokenValue;\n        bytes32 inStateDeltaHash;\n        bytes32 outStateDeltaHash;\n        bytes ethCall;\n        bytes sig;\n        address sender;\n        TaskStatus status;\n    }\n    enum TaskStatus {RecordCreated, ReceiptVerified}\n\n    /**\n    * The signer address of the principal node\n    * This must be set when deploying the contract and remains immutable\n    * Since the signer address is derived from the public key of an\n    * SGX enclave, this ensures that the principal node cannot be tempered\n    * with or replaced.\n    */\n    address principal;\n\n    // The data representation of a worker (or node)\n    struct Worker {\n        address signer;\n        uint8 status; // Uninitialized: 0; Active: 1; Inactive: 2\n        bytes report; // Decided to store this as one  RLP encoded attribute for easier external storage in the future\n        uint256 balance;\n    }\n\n    /**\n    * The data representation of the worker parameters used as input for\n    * the worker selection algorithm\n    */\n    struct WorkersParams {\n        uint256 firstBlockNumber;\n        address[] workerAddresses;\n        uint256 seed;\n    }\n\n    /**\n    * The last 5 worker parameters\n    * We keep a collection of worker parameters to account for latency issues.\n    * A computation task might be conceivably given out at a certain block number\n    * but executed at a later block in a different epoch. It follows that\n    * the contract must have access to the worker parameters effective when giving\n    * out the task, otherwise the selected worker would not match. We calculated\n    * that keeping the last 5 items should be more than enough to account for\n    * all latent tasks. Tasks results will be rejected past this limit.\n    */\n    WorkersParams[5] workersParams;\n\n    // An address-based index of all registered worker\n    address[] public workerAddresses;\n\n    // A registry of all registered workers with their attributes\n    mapping(address => Worker) public workers;\n    // A registry of all active and historical tasks with their attributes\n    // TODO: do we keep tasks forever? if not, when do we delete them?\n    mapping(bytes32 => Task) public tasks;\n\n    // The events emitted by the contract\n    event Registered(address custodian, address signer);\n    event ValidatedSig(bytes sig, bytes32 hash, address workerAddr);\n    event WorkersParameterized(uint256 seed, address[] workers, address[] secretContracts);\n    event TaskRecordCreated(bytes32 taskId, uint fee, address token, uint tokenValue, address sender);\n    event TaskRecordsCreated(bytes32[] taskIds, uint[] fees, address[] tokens, uint[] tokenValues, address sender);\n    event ReceiptVerified(bytes32 taskId, bytes32 inStateDeltaHash, bytes32 outStateDeltaHash, bytes ethCall, bytes sig);\n\n    constructor(address _tokenAddress, address _principal) public {\n        engToken = IERC20(_tokenAddress);\n        principal = _principal;\n    }\n\n    /**\n    * Checks if the custodian wallet is registered as a worker\n    *\n    * @param user The custodian address of the worker\n    */\n    modifier workerRegistered(address user) {\n        Worker memory worker = workers[user];\n        require(worker.status > 0, \"Unregistered worker.\");\n        _;\n    }\n\n    /**\n    * Registers a new worker of change the signer parameters of an existing\n    * worker. This should be called by every worker (and the principal)\n    * node in order to receive tasks.\n    *\n    * @param signer The signer address, derived from the enclave public key\n    * @param report The RLP encoded report returned by the IAS\n    */\n    function register(address signer, bytes report)\n    public\n    payable\n    {\n        // TODO: consider exit if both signer and custodian as matching\n        // If the custodian is not already register, we add an index entry\n        if (workers[msg.sender].signer == 0x0) {\n            uint index = workerAddresses.length;\n            workerAddresses.length++;\n            workerAddresses[index] = msg.sender;\n        }\n\n        // Set the custodian attributes\n        workers[msg.sender].signer = signer;\n        workers[msg.sender].balance = msg.value;\n        workers[msg.sender].report = report;\n        workers[msg.sender].status = 1;\n\n        emit Registered(msg.sender, signer);\n    }\n\n    /**\n    * Store task record\n    *\n    */\n    function createTaskRecord(\n        bytes32 taskId,\n        uint fee,\n        address token,\n        uint tokenValue\n    )\n    public\n    {\n        require(tasks[taskId].sender == 0x0, \"Task already exist.\");\n\n        tasks[taskId].fee = fee;\n        tasks[taskId].token = token;\n        tasks[taskId].tokenValue = tokenValue;\n        tasks[taskId].sender = msg.sender;\n        tasks[taskId].status = TaskStatus.RecordCreated;\n\n        emit TaskRecordCreated(taskId, fee, token, tokenValue, msg.sender);\n    }\n\n    function createTaskRecords(\n        bytes32[] taskIds,\n        uint[] fees,\n        address[] tokens,\n        uint[] tokenValues\n    )\n    public\n    {\n        for (uint i = 0; i < taskIds.length; i++) {\n            require(tasks[taskIds[i]].sender == 0x0, \"Task already exist.\");\n\n            tasks[taskIds[i]].fee = fees[i];\n            tasks[taskIds[i]].token = tokens[i];\n            tasks[taskIds[i]].tokenValue = tokenValues[i];\n            tasks[taskIds[i]].sender = msg.sender;\n            tasks[taskIds[i]].status = TaskStatus.RecordCreated;\n        }\n        emit TaskRecordsCreated(taskIds, fees, tokens, tokenValues, msg.sender);\n    }\n\n    // Verify the task results signature\n    function verifyCommitSig(Task task, bytes sig)\n    internal\n    returns (address)\n    {\n        //TODO: implement\n\n        bytes32 hash = 0x0;\n        address workerAddr = 0x0;\n        emit ValidatedSig(sig, hash, workerAddr);\n        return 0x0;\n    }\n\n    // Execute the encoded function in the specified contract\n    function executeCall(address to, uint256 value, bytes data)\n    internal\n    returns (bool success)\n    {\n        assembly {\n            success := call(gas, to, value, add(data, 0x20), mload(data), 0, 0)\n        }\n    }\n\n    /**\n    * Commit the computation task results on chain\n    */\n    function commitReceipt(bytes32 taskId, bytes32 inStateDeltaHash, bytes32 outStateDeltaHash, bytes ethCall, bytes sig)\n    public\n    workerRegistered(msg.sender)\n    {\n        //TODO: implement\n        emit ReceiptVerified(taskId, inStateDeltaHash, outStateDeltaHash, ethCall, sig);\n    }\n\n    // Verify the signature submitted while reparameterizing workers\n    function verifyParamsSig(uint256 seed, bytes sig)\n    internal\n    pure\n    returns (address)\n    {\n        bytes32 hash = keccak256(abi.encodePacked(seed));\n        address signer = hash.recover(sig);\n        return signer;\n    }\n\n    /**\n    * Reparameterizing workers with a new seed\n    * This should be called for each epoch by the Principal node\n    *\n    * @param seed The random integer generated by the enclave\n    * @param sig The random integer signed by the the principal node's enclave\n    */\n    function setWorkersParams(uint seed, bytes sig)\n    public\n    workerRegistered(msg.sender)\n    {\n        address[] memory workers;\n        address[] memory secretContracts;\n        emit WorkersParameterized(seed, workers, secretContracts);\n    }\n\n    /**\n    * The worker parameters corresponding to the specified block number\n    *\n    * @param blockNumber The reference block number\n    */\n    function getWorkersParams(uint blockNumber)\n    public\n    view\n    returns (uint, uint, address[], address[])\n    {\n        uint firstBlockNumber = 0;\n        uint seed = 0;\n        address[] memory workers;\n        address[] memory secretContracts;\n        return (firstBlockNumber, seed, workers, secretContracts);\n    }\n\n    /**\n    * The RLP encoded report returned by the IAS server\n    *\n    * @param custodian The worker's custodian address\n    */\n    function getReport(address custodian)\n    public\n    view\n    workerRegistered(custodian)\n    returns (address, bytes)\n    {\n        // The RLP encoded report and signer's address for the specified worker\n        require(workers[custodian].signer != 0x0, \"Worker not registered\");\n        return (workers[custodian].signer, workers[custodian].report);\n    }\n}\n",
  "sourcePath": "/home/fredfortier/Code/Enigma/discovery/enigma-contract/contracts/Enigma.sol",
  "compiler": {
    "name": "solc",
    "version": "0.4.24+commit.e67f0147.Emscripten.clang"
  },
  "schemaVersion": "2.0.1",
  "updatedAt": "2018-09-25T03:28:24.749Z"
}