{
  "contractName": "Enigma",
  "abi": [
    {
      "inputs": [],
      "payable": false,
      "stateMutability": "nonpayable",
      "type": "constructor"
    },
    {
      "anonymous": false,
      "inputs": [
        {
          "indexed": false,
          "name": "secretContract",
          "type": "address"
        },
        {
          "indexed": false,
          "name": "name",
          "type": "bytes32"
        },
        {
          "indexed": false,
          "name": "_success",
          "type": "bool"
        }
      ],
      "name": "RegisterContract",
      "type": "event"
    },
    {
      "anonymous": false,
      "inputs": [
        {
          "indexed": false,
          "name": "user",
          "type": "address"
        },
        {
          "indexed": false,
          "name": "pkey",
          "type": "bytes32"
        },
        {
          "indexed": false,
          "name": "rate",
          "type": "uint256"
        },
        {
          "indexed": false,
          "name": "_success",
          "type": "bool"
        }
      ],
      "name": "RegisterWorker",
      "type": "event"
    },
    {
      "anonymous": false,
      "inputs": [
        {
          "indexed": false,
          "name": "user",
          "type": "address"
        },
        {
          "indexed": false,
          "name": "rate",
          "type": "uint256"
        },
        {
          "indexed": false,
          "name": "_success",
          "type": "bool"
        }
      ],
      "name": "UpdateRate",
      "type": "event"
    },
    {
      "anonymous": false,
      "inputs": [
        {
          "indexed": false,
          "name": "secretContract",
          "type": "address"
        },
        {
          "indexed": false,
          "name": "user",
          "type": "address"
        },
        {
          "indexed": false,
          "name": "amount",
          "type": "uint256"
        },
        {
          "indexed": false,
          "name": "balance",
          "type": "uint256"
        },
        {
          "indexed": false,
          "name": "_success",
          "type": "bool"
        }
      ],
      "name": "Deposit",
      "type": "event"
    },
    {
      "anonymous": false,
      "inputs": [
        {
          "indexed": false,
          "name": "user",
          "type": "address"
        },
        {
          "indexed": false,
          "name": "amount",
          "type": "uint256"
        },
        {
          "indexed": false,
          "name": "balance",
          "type": "uint256"
        },
        {
          "indexed": false,
          "name": "_success",
          "type": "bool"
        }
      ],
      "name": "Withdraw",
      "type": "event"
    },
    {
      "anonymous": false,
      "inputs": [
        {
          "indexed": false,
          "name": "secretContract",
          "type": "address"
        },
        {
          "indexed": false,
          "name": "worker",
          "type": "address"
        },
        {
          "indexed": false,
          "name": "proof",
          "type": "bytes32"
        },
        {
          "indexed": false,
          "name": "reward",
          "type": "uint256"
        },
        {
          "indexed": false,
          "name": "_success",
          "type": "bool"
        }
      ],
      "name": "ApplyComputation",
      "type": "event"
    },
    {
      "anonymous": false,
      "inputs": [
        {
          "indexed": false,
          "name": "callingContract",
          "type": "address"
        },
        {
          "indexed": false,
          "name": "callable",
          "type": "bytes32"
        },
        {
          "indexed": false,
          "name": "callableArgs",
          "type": "bytes32[]"
        },
        {
          "indexed": false,
          "name": "callback",
          "type": "bytes32"
        },
        {
          "indexed": false,
          "name": "max_fee",
          "type": "uint256"
        },
        {
          "indexed": false,
          "name": "_success",
          "type": "bool"
        }
      ],
      "name": "Task",
      "type": "event"
    },
    {
      "constant": false,
      "inputs": [
        {
          "name": "user",
          "type": "address"
        },
        {
          "name": "pkey",
          "type": "bytes32"
        },
        {
          "name": "quote",
          "type": "bytes32"
        },
        {
          "name": "rate",
          "type": "uint256"
        }
      ],
      "name": "registerWorker",
      "outputs": [
        {
          "name": "",
          "type": "uint8"
        }
      ],
      "payable": false,
      "stateMutability": "nonpayable",
      "type": "function"
    },
    {
      "constant": false,
      "inputs": [
        {
          "name": "user",
          "type": "address"
        },
        {
          "name": "rate",
          "type": "uint256"
        }
      ],
      "name": "updateRate",
      "outputs": [
        {
          "name": "",
          "type": "uint8"
        }
      ],
      "payable": false,
      "stateMutability": "nonpayable",
      "type": "function"
    },
    {
      "constant": false,
      "inputs": [
        {
          "name": "secretContract",
          "type": "address"
        },
        {
          "name": "name",
          "type": "bytes32"
        }
      ],
      "name": "registerContract",
      "outputs": [
        {
          "name": "",
          "type": "uint8"
        }
      ],
      "payable": false,
      "stateMutability": "nonpayable",
      "type": "function"
    },
    {
      "constant": false,
      "inputs": [
        {
          "name": "secretContract",
          "type": "address"
        },
        {
          "name": "amount",
          "type": "uint256"
        }
      ],
      "name": "deposit",
      "outputs": [
        {
          "name": "",
          "type": "uint8"
        }
      ],
      "payable": true,
      "stateMutability": "payable",
      "type": "function"
    },
    {
      "constant": false,
      "inputs": [
        {
          "name": "amount",
          "type": "uint256"
        }
      ],
      "name": "withdraw",
      "outputs": [
        {
          "name": "",
          "type": "uint8"
        }
      ],
      "payable": false,
      "stateMutability": "nonpayable",
      "type": "function"
    },
    {
      "constant": false,
      "inputs": [
        {
          "name": "secretContract",
          "type": "address"
        },
        {
          "name": "callable",
          "type": "bytes32"
        },
        {
          "name": "callableArgs",
          "type": "bytes32[]"
        },
        {
          "name": "callback",
          "type": "bytes32"
        }
      ],
      "name": "compute",
      "outputs": [
        {
          "name": "",
          "type": "uint8"
        }
      ],
      "payable": true,
      "stateMutability": "payable",
      "type": "function"
    },
    {
      "constant": false,
      "inputs": [
        {
          "name": "secretContract",
          "type": "address"
        },
        {
          "name": "proof",
          "type": "bytes32"
        },
        {
          "name": "reward",
          "type": "uint256"
        }
      ],
      "name": "applyComputation",
      "outputs": [
        {
          "name": "",
          "type": "uint8"
        }
      ],
      "payable": false,
      "stateMutability": "nonpayable",
      "type": "function"
    }
  ],
  "bytecode": "0x6060604052341561000f57600080fd5b6113af8061001e6000396000f300606060405260043610610083576000357c0100000000000000000000000000000000000000000000000000000000900463ffffffff1680632e1a7d4d1461008857806347e7ef24146100cd578063481de2b6146101265780636f662049146101a45780638068157214610215578063b558d1ea146102bf578063e82f30c414610323575b600080fd5b341561009357600080fd5b6100a9600480803590602001909190505061038b565b604051808260018111156100b957fe5b60ff16815260200191505060405180910390f35b610102600480803573ffffffffffffffffffffffffffffffffffffffff16906020019091908035906020019091905050610575565b6040518082600181111561011257fe5b60ff16815260200191505060405180910390f35b341561013157600080fd5b610180600480803573ffffffffffffffffffffffffffffffffffffffff16906020019091908035600019169060200190919080356000191690602001909190803590602001909190505061072c565b6040518082600181111561019057fe5b60ff16815260200191505060405180910390f35b34156101af57600080fd5b6101f1600480803573ffffffffffffffffffffffffffffffffffffffff1690602001909190803560001916906020019091908035906020019091905050610935565b6040518082600181111561020157fe5b60ff16815260200191505060405180910390f35b61029b600480803573ffffffffffffffffffffffffffffffffffffffff16906020019091908035600019169060200190919080359060200190820180359060200190808060200260200160405190810160405280939291908181526020018383602002808284378201915050505050509190803560001916906020019091905050610d01565b604051808260018111156102ab57fe5b60ff16815260200191505060405180910390f35b34156102ca57600080fd5b6102ff600480803573ffffffffffffffffffffffffffffffffffffffff16906020019091908035906020019091905050610f9b565b6040518082600181111561030f57fe5b60ff16815260200191505060405180910390f35b341561032e57600080fd5b610367600480803573ffffffffffffffffffffffffffffffffffffffff169060200190919080356000191690602001909190505061116b565b6040518082600181111561037757fe5b60ff16815260200191505060405180910390f35b60008033610397611330565b6000808373ffffffffffffffffffffffffffffffffffffffff1673ffffffffffffffffffffffffffffffffffffffff16815260200190815260200160002060a060405190810160405290816000820154600019166000191681526020016001820154600019166000191681526020016002820154815260200160038201548152602001600482015481525050905060008160000151600019161415151561043d57600080fd5b6000803373ffffffffffffffffffffffffffffffffffffffff1673ffffffffffffffffffffffffffffffffffffffff168152602001908152602001600020925084836002015411151561048f57600080fd5b61049d8360020154866112de565b83600201819055503373ffffffffffffffffffffffffffffffffffffffff166108fc869081150290604051600060405180830381858888f1935050505015156104e557600080fd5b7fb97e775637eca8401af330efee0810af7079bafae27761741e09caa14db8d272338685600201546001604051808573ffffffffffffffffffffffffffffffffffffffff1673ffffffffffffffffffffffffffffffffffffffff1681526020018481526020018381526020018215151515815260200194505050505060405180910390a160009350505050919050565b60008083610581611366565b600160008373ffffffffffffffffffffffffffffffffffffffff1673ffffffffffffffffffffffffffffffffffffffff168152602001908152602001600020604080519081016040529081600082015460001916600019168152602001600182015481525050905060008160000151600019161415151561060157600080fd5b60003411151561061057600080fd5b600160008773ffffffffffffffffffffffffffffffffffffffff1673ffffffffffffffffffffffffffffffffffffffff168152602001908152602001600020925061065f8360010154866112f7565b83600101819055507f3d7ca2b1d4d92b9f80e6594957453c9542774babe911cd93d523d44fcfd019b686338786600101546001604051808673ffffffffffffffffffffffffffffffffffffffff1673ffffffffffffffffffffffffffffffffffffffff1681526020018573ffffffffffffffffffffffffffffffffffffffff1673ffffffffffffffffffffffffffffffffffffffff168152602001848152602001838152602001821515151581526020019550505050505060405180910390a16000935050505092915050565b6000806000808773ffffffffffffffffffffffffffffffffffffffff1673ffffffffffffffffffffffffffffffffffffffff168152602001908152602001600020600001546000191614151561078157600080fd5b836000808773ffffffffffffffffffffffffffffffffffffffff1673ffffffffffffffffffffffffffffffffffffffff1681526020019081526020016000206000018160001916905550826000808773ffffffffffffffffffffffffffffffffffffffff1673ffffffffffffffffffffffffffffffffffffffff1681526020019081526020016000206001018160001916905550346000808773ffffffffffffffffffffffffffffffffffffffff1673ffffffffffffffffffffffffffffffffffffffff16815260200190815260200160002060020181905550816000808773ffffffffffffffffffffffffffffffffffffffff1673ffffffffffffffffffffffffffffffffffffffff168152602001908152602001600020600301819055507f2edc37e5b87290a697025181834a295bf93db6c112b926e7b22908c31f043f0d8585846001604051808573ffffffffffffffffffffffffffffffffffffffff1673ffffffffffffffffffffffffffffffffffffffff16815260200184600019166000191681526020018381526020018215151515815260200194505050505060405180910390a160009050949350505050565b600080600085610943611366565b600160008373ffffffffffffffffffffffffffffffffffffffff1673ffffffffffffffffffffffffffffffffffffffff16815260200190815260200160002060408051908101604052908160008201546000191660001916815260200160018201548152505090506000816000015160001916141515156109c357600080fd5b336109cc611330565b6000808373ffffffffffffffffffffffffffffffffffffffff1673ffffffffffffffffffffffffffffffffffffffff16815260200190815260200160002060a0604051908101604052908160008201546000191660001916815260200160018201546000191660001916815260200160028201548152602001600382015481526020016004820154815250509050600081600001516000191614151515610a7257600080fd5b600160008b73ffffffffffffffffffffffffffffffffffffffff1673ffffffffffffffffffffffffffffffffffffffff16815260200190815260200160002095506000803373ffffffffffffffffffffffffffffffffffffffff1673ffffffffffffffffffffffffffffffffffffffff1681526020019081526020016000209450878660010154111515610b0557600080fd5b338660020160008c73ffffffffffffffffffffffffffffffffffffffff1673ffffffffffffffffffffffffffffffffffffffff16815260200190815260200160002060000160006101000a81548173ffffffffffffffffffffffffffffffffffffffff021916908373ffffffffffffffffffffffffffffffffffffffff160217905550888660020160008c73ffffffffffffffffffffffffffffffffffffffff1673ffffffffffffffffffffffffffffffffffffffff1681526020019081526020016000206001018160001916905550878660020160008c73ffffffffffffffffffffffffffffffffffffffff1673ffffffffffffffffffffffffffffffffffffffff16815260200190815260200160002060020181905550610c2c8560020154896112f7565b85600201819055507fdcbe317e18b592f92d8101a0de5e34fdbf5fe02cddfad0cb773e63fd0b4e676d8a338b8b6001604051808673ffffffffffffffffffffffffffffffffffffffff1673ffffffffffffffffffffffffffffffffffffffff1681526020018573ffffffffffffffffffffffffffffffffffffffff1673ffffffffffffffffffffffffffffffffffffffff1681526020018460001916600019168152602001838152602001821515151581526020019550505050505060405180910390a1600096505050505050509392505050565b60008085610d0d611366565b600160008373ffffffffffffffffffffffffffffffffffffffff1673ffffffffffffffffffffffffffffffffffffffff1681526020019081526020016000206040805190810160405290816000820154600019166000191681526020016001820154815250509050600081600001516000191614151515610d8d57600080fd5b600034111515610d9c57600080fd5b600160008973ffffffffffffffffffffffffffffffffffffffff1673ffffffffffffffffffffffffffffffffffffffff1681526020019081526020016000209250610deb8360010154346112f7565b83600101819055507f3d7ca2b1d4d92b9f80e6594957453c9542774babe911cd93d523d44fcfd019b688333486600101546001604051808673ffffffffffffffffffffffffffffffffffffffff1673ffffffffffffffffffffffffffffffffffffffff1681526020018573ffffffffffffffffffffffffffffffffffffffff1673ffffffffffffffffffffffffffffffffffffffff168152602001848152602001838152602001821515151581526020019550505050505060405180910390a17f6c640cf1f9eecf620072b5047f551e5277146827c3b6059adf06c7571b33f95d88888888346001604051808773ffffffffffffffffffffffffffffffffffffffff1673ffffffffffffffffffffffffffffffffffffffff168152602001866000191660001916815260200180602001856000191660001916815260200184815260200183151515158152602001828103825286818151815260200191508051906020019060200280838360005b83811015610f74578082015181840152602081019050610f59565b5050505090500197505050505050505060405180910390a160009350505050949350505050565b600082610fa6611330565b6000808373ffffffffffffffffffffffffffffffffffffffff1673ffffffffffffffffffffffffffffffffffffffff16815260200190815260200160002060a060405190810160405290816000820154600019166000191681526020016001820154600019166000191681526020016002820154815260200160038201548152602001600482015481525050905060008160000151600019161415151561104c57600080fd5b60008060008773ffffffffffffffffffffffffffffffffffffffff1673ffffffffffffffffffffffffffffffffffffffff1681526020019081526020016000206000015460001916141515156110a157600080fd5b836000808773ffffffffffffffffffffffffffffffffffffffff1673ffffffffffffffffffffffffffffffffffffffff168152602001908152602001600020600301819055507f19359d2f6b502eb32089e4e6ea2cb9e909793f252bcc6cdc1b5b54aeff348dde85856001604051808473ffffffffffffffffffffffffffffffffffffffff1673ffffffffffffffffffffffffffffffffffffffff16815260200183815260200182151515158152602001935050505060405180910390a160009250505092915050565b600080600160008573ffffffffffffffffffffffffffffffffffffffff1673ffffffffffffffffffffffffffffffffffffffff16815260200190815260200160002060000154600019161415156111c157600080fd5b81600160008573ffffffffffffffffffffffffffffffffffffffff1673ffffffffffffffffffffffffffffffffffffffff16815260200190815260200160002060000181600019169055506000600160008573ffffffffffffffffffffffffffffffffffffffff1673ffffffffffffffffffffffffffffffffffffffff168152602001908152602001600020600101819055507f80c6dc74b215fde33d07365e07f86c727f074391f0b27649271c1bb2c122217583836001604051808473ffffffffffffffffffffffffffffffffffffffff1673ffffffffffffffffffffffffffffffffffffffff168152602001836000191660001916815260200182151515158152602001935050505060405180910390a16000905092915050565b60006112ec83831115611321565b818303905092915050565b60008082840190506113178482101580156113125750838210155b611321565b8091505092915050565b80151561132d57600080fd5b50565b60a06040519081016040528060008019168152602001600080191681526020016000815260200160008152602001600081525090565b6040805190810160405280600080191681526020016000815250905600a165627a7a72305820c29024c31aa24a896b06962b9c8abc895b22ca88e6531c5ff08c5aedcfd66c210029",
  "source": "pragma solidity ^0.4.19;\n\ncontract SafeMath {\n    function safeMul(uint a, uint b) internal returns (uint) {\n        uint c = a * b;\n        assert(a == 0 || c / a == b);\n        return c;\n    }\n\n    function safeSub(uint a, uint b) internal returns (uint) {\n        assert(b <= a);\n        return a - b;\n    }\n\n    function safeAdd(uint a, uint b) internal returns (uint) {\n        uint c = a + b;\n        assert(c >= a && c >= b);\n        return c;\n    }\n\n    function assert(bool assertion) internal {\n        if (!assertion) throw;\n    }\n}\n\ncontract Enigma is SafeMath {\n    struct Computation {\n        address worker;\n        bytes32 proof;\n        uint reward;\n    }\n\n    struct SecretContract {\n        bytes32 name;\n        uint balance;\n        mapping(address => Computation) computations; // Computation hash mapped to fees\n    }\n\n    struct Worker {\n        bytes32 pkey;\n        bytes32 quote;\n        uint balance;\n        uint rate;\n        uint reward;\n    }\n\n    mapping(address => Worker) _workers;\n    mapping(address => SecretContract) _secretContracts;\n\n    event RegisterContract(address secretContract, bytes32 name, bool _success);\n    event RegisterWorker(address user, bytes32 pkey, uint rate, bool _success);\n    event UpdateRate(address user, uint rate, bool _success);\n    event Deposit(address secretContract, address user, uint amount, uint balance, bool _success);\n    event Withdraw(address user, uint amount, uint balance, bool _success);\n    event ApplyComputation(address secretContract, address worker, bytes32 proof, uint reward, bool _success);\n\n    // Enigma computation task\n    event Task(address callingContract, bytes32 callable, bytes32[] callableArgs, bytes32 callback, uint max_fee, bool _success);\n\n    enum ReturnValue {Ok, Error}\n\n    function Enigma() public {\n\n    }\n\n    modifier contractRegistered(address secretContract) {\n        SecretContract memory sc = _secretContracts[secretContract];\n        require(sc.name != \"\");\n        _;\n    }\n\n    modifier workerRegistered(address user) {\n        Worker memory worker = _workers[user];\n        require(worker.pkey != \"\");\n        _;\n    }\n\n    function registerWorker(address user, bytes32 pkey, bytes32 quote, uint rate)\n    public\n    returns (ReturnValue) {\n        // Register a new worker and collect stake\n        require(_workers[user].pkey == \"\");\n\n        _workers[user].pkey = pkey;\n        _workers[user].quote = quote;\n        _workers[user].balance = msg.value;\n        _workers[user].rate = rate;\n\n        RegisterWorker(user, pkey, rate, true);\n\n        return ReturnValue.Ok;\n    }\n\n    function updateRate(address user, uint rate)\n    public\n    workerRegistered(user)\n    returns (ReturnValue) {\n        // Update the ENG/GAS rate\n        require(_workers[user].pkey != \"\");\n\n        _workers[user].rate = rate;\n\n        UpdateRate(user, rate, true);\n\n        return ReturnValue.Ok;\n    }\n\n    function registerContract(address secretContract, bytes32 name)\n    public\n    returns (ReturnValue) {\n        // Register a secret contract\n        require(_secretContracts[secretContract].name == \"\");\n\n        _secretContracts[secretContract].name = name;\n        _secretContracts[secretContract].balance = 0;\n\n        RegisterContract(secretContract, name, true);\n\n        return ReturnValue.Ok;\n    }\n\n    function deposit(address secretContract, uint amount)\n    public\n    payable\n    contractRegistered(secretContract)\n    returns (ReturnValue) {\n        // Deposit tokens to a smart contract for computation\n        require(msg.value > 0);\n\n        SecretContract storage sc = _secretContracts[secretContract];\n        sc.balance = safeAdd(sc.balance, amount);\n        Deposit(secretContract, msg.sender, amount, sc.balance, true);\n\n        return ReturnValue.Ok;\n    }\n\n    function withdraw(uint amount)\n    public\n    workerRegistered(msg.sender)\n    returns (ReturnValue) {\n        // Withdraw from stake and rewards balance\n        Worker storage worker = _workers[msg.sender];\n        require(worker.balance > amount);\n\n        worker.balance = safeSub(worker.balance, amount);\n        msg.sender.transfer(amount);\n\n        Withdraw(msg.sender, amount, worker.balance, true);\n\n        return ReturnValue.Ok;\n    }\n\n    function compute(address secretContract, bytes32 callable, bytes32[] callableArgs, bytes32 callback)\n    public\n    payable\n    contractRegistered(secretContract)\n    returns (ReturnValue) {\n        // Deposit fee amount in the specified contract bank\n        // Emit the task event\n        require(msg.value > 0);\n\n        SecretContract storage sc = _secretContracts[secretContract];\n        sc.balance = safeAdd(sc.balance, msg.value);\n\n        Deposit(secretContract, msg.sender, msg.value, sc.balance, true);\n        Task(secretContract, callable, callableArgs, callback, msg.value, true);\n\n        return ReturnValue.Ok;\n    }\n\n    function applyComputation(address secretContract, bytes32 proof, uint reward)\n    public\n    contractRegistered(secretContract)\n    workerRegistered(msg.sender)\n    returns (ReturnValue) {\n        // Record executed computation and distribute rewards\n        SecretContract storage sc = _secretContracts[secretContract];\n        Worker storage worker = _workers[msg.sender];\n\n        require(sc.balance > reward);\n\n        sc.computations[secretContract].worker = msg.sender;\n        sc.computations[secretContract].proof = proof;\n        sc.computations[secretContract].reward = reward;\n\n        worker.balance = safeAdd(worker.balance, reward);\n\n        ApplyComputation(secretContract, msg.sender, proof, reward, true);\n\n        return ReturnValue.Ok;\n    }\n}\n",
  "sourcePath": "/Users/fredfortier/Code/enigma/coin-mixer-poc/dapp/contracts/Enigma.sol",
  "compiler": {
    "name": "solc",
    "version": "0.4.19+commit.c4cbbb05.Emscripten.clang"
  },
  "schemaVersion": "2.0.0",
  "updatedAt": "2018-04-06T21:26:02.562Z"
}