{
  "contractName": "Enigma",
  "abi": [
    {
      "constant": true,
      "inputs": [
        {
          "name": "",
          "type": "uint256"
        }
      ],
      "name": "workerAddresses",
      "outputs": [
        {
          "name": "",
          "type": "address"
        }
      ],
      "payable": false,
      "stateMutability": "view",
      "type": "function",
      "signature": "0x0a318da0"
    },
    {
      "constant": true,
      "inputs": [
        {
          "name": "",
          "type": "address"
        }
      ],
      "name": "workers",
      "outputs": [
        {
          "name": "signer",
          "type": "address"
        },
        {
          "name": "status",
          "type": "uint8"
        },
        {
          "name": "report",
          "type": "bytes"
        },
        {
          "name": "balance",
          "type": "uint256"
        }
      ],
      "payable": false,
      "stateMutability": "view",
      "type": "function",
      "signature": "0x4048a257"
    },
    {
      "constant": true,
      "inputs": [],
      "name": "epochSize",
      "outputs": [
        {
          "name": "",
          "type": "uint256"
        }
      ],
      "payable": false,
      "stateMutability": "view",
      "type": "function",
      "signature": "0x572d356e"
    },
    {
      "constant": true,
      "inputs": [
        {
          "name": "",
          "type": "uint256"
        }
      ],
      "name": "scAddresses",
      "outputs": [
        {
          "name": "",
          "type": "bytes32"
        }
      ],
      "payable": false,
      "stateMutability": "view",
      "type": "function",
      "signature": "0x5f0dd5bb"
    },
    {
      "constant": true,
      "inputs": [
        {
          "name": "",
          "type": "address"
        }
      ],
      "name": "userTaskDeployments",
      "outputs": [
        {
          "name": "",
          "type": "uint256"
        }
      ],
      "payable": false,
      "stateMutability": "view",
      "type": "function",
      "signature": "0x5f7a6ff3"
    },
    {
      "constant": true,
      "inputs": [],
      "name": "engToken",
      "outputs": [
        {
          "name": "",
          "type": "address"
        }
      ],
      "payable": false,
      "stateMutability": "view",
      "type": "function",
      "signature": "0x9489ad40"
    },
    {
      "constant": true,
      "inputs": [],
      "name": "workerGroupSize",
      "outputs": [
        {
          "name": "",
          "type": "uint256"
        }
      ],
      "payable": false,
      "stateMutability": "view",
      "type": "function",
      "signature": "0xa3edd784"
    },
    {
      "constant": true,
      "inputs": [
        {
          "name": "",
          "type": "bytes32"
        }
      ],
      "name": "tasks",
      "outputs": [
        {
          "name": "fee",
          "type": "uint256"
        },
        {
          "name": "proof",
          "type": "bytes"
        },
        {
          "name": "sender",
          "type": "address"
        },
        {
          "name": "blockNumber",
          "type": "uint256"
        },
        {
          "name": "status",
          "type": "uint8"
        }
      ],
      "payable": false,
      "stateMutability": "view",
      "type": "function",
      "signature": "0xe579f500"
    },
    {
      "constant": true,
      "inputs": [
        {
          "name": "",
          "type": "bytes32"
        }
      ],
      "name": "contracts",
      "outputs": [
        {
          "name": "owner",
          "type": "address"
        },
        {
          "name": "codeHash",
          "type": "bytes32"
        },
        {
          "name": "status",
          "type": "uint8"
        }
      ],
      "payable": false,
      "stateMutability": "view",
      "type": "function",
      "signature": "0xec56a373"
    },
    {
      "inputs": [
        {
          "name": "_tokenAddress",
          "type": "address"
        },
        {
          "name": "_principal",
          "type": "address"
        }
      ],
      "payable": false,
      "stateMutability": "nonpayable",
      "type": "constructor",
      "signature": "constructor"
    },
    {
      "anonymous": false,
      "inputs": [
        {
          "indexed": false,
          "name": "custodian",
          "type": "address"
        },
        {
          "indexed": false,
          "name": "signer",
          "type": "address"
        }
      ],
      "name": "Registered",
      "type": "event",
      "signature": "0x0a31ee9d46a828884b81003c8498156ea6aa15b9b54bdd0ef0b533d9eba57e55"
    },
    {
      "anonymous": false,
      "inputs": [
        {
          "indexed": false,
          "name": "sig",
          "type": "bytes"
        },
        {
          "indexed": false,
          "name": "hash",
          "type": "bytes32"
        },
        {
          "indexed": false,
          "name": "workerAddr",
          "type": "address"
        }
      ],
      "name": "ValidatedSig",
      "type": "event",
      "signature": "0xe36691ca52ee024e298e5c0ff07191b87f0ac571c01a7631db2d70d573d955cb"
    },
    {
      "anonymous": false,
      "inputs": [
        {
          "indexed": false,
          "name": "seed",
          "type": "uint256"
        },
        {
          "indexed": false,
          "name": "blockNumber",
          "type": "uint256"
        },
        {
          "indexed": false,
          "name": "workers",
          "type": "address[]"
        },
        {
          "indexed": false,
          "name": "balances",
          "type": "uint256[]"
        }
      ],
      "name": "WorkersParameterized",
      "type": "event",
      "signature": "0x7047379c64ccafb62f6625e6b2d8eb6e1b0e091fac56a11ab5e2fd896e4db1d0"
    },
    {
      "anonymous": false,
      "inputs": [
        {
          "indexed": false,
          "name": "taskId",
          "type": "bytes32"
        },
        {
          "indexed": false,
          "name": "fee",
          "type": "uint256"
        },
        {
          "indexed": false,
          "name": "sender",
          "type": "address"
        }
      ],
      "name": "TaskRecordCreated",
      "type": "event",
      "signature": "0xf1c0c18d5573c419035509d5b8bf3f97ce7b92cca68bccbde847516f66d6fe05"
    },
    {
      "anonymous": false,
      "inputs": [
        {
          "indexed": false,
          "name": "taskIds",
          "type": "bytes32[]"
        },
        {
          "indexed": false,
          "name": "fees",
          "type": "uint256[]"
        },
        {
          "indexed": false,
          "name": "sender",
          "type": "address"
        }
      ],
      "name": "TaskRecordsCreated",
      "type": "event",
      "signature": "0xacd4eaf0bf2790219699c0a2d47f13405b81c59f5ff0bb951a71a29c94a6d774"
    },
    {
      "anonymous": false,
      "inputs": [
        {
          "indexed": false,
          "name": "taskId",
          "type": "bytes32"
        },
        {
          "indexed": false,
          "name": "inStateDeltaHash",
          "type": "bytes32"
        },
        {
          "indexed": false,
          "name": "outStateDeltaHash",
          "type": "bytes32"
        },
        {
          "indexed": false,
          "name": "ethCall",
          "type": "bytes"
        },
        {
          "indexed": false,
          "name": "sig",
          "type": "bytes"
        }
      ],
      "name": "ReceiptVerified",
      "type": "event",
      "signature": "0x665329bb9a4e1062edc215d9c5ab57fa54c4c88e3dfbcc68e0cd92fdd010fa6e"
    },
    {
      "anonymous": false,
      "inputs": [
        {
          "indexed": false,
          "name": "taskIds",
          "type": "bytes32[]"
        },
        {
          "indexed": false,
          "name": "inStateDeltaHashes",
          "type": "bytes32[]"
        },
        {
          "indexed": false,
          "name": "outStateDeltaHashes",
          "type": "bytes32[]"
        },
        {
          "indexed": false,
          "name": "ethCall",
          "type": "bytes"
        },
        {
          "indexed": false,
          "name": "sig",
          "type": "bytes"
        }
      ],
      "name": "ReceiptsVerified",
      "type": "event",
      "signature": "0x49f3b610d2b607252a8901e3c134022c7a6330e5f6525f0ed84dd4a127478958"
    },
    {
      "anonymous": false,
      "inputs": [
        {
          "indexed": false,
          "name": "from",
          "type": "address"
        },
        {
          "indexed": false,
          "name": "value",
          "type": "uint256"
        }
      ],
      "name": "DepositSuccessful",
      "type": "event",
      "signature": "0xb3ef81558ed1a50072a492984535a009da8b129c749500b387f1e5f4886bdde5"
    },
    {
      "anonymous": false,
      "inputs": [
        {
          "indexed": false,
          "name": "scAddr",
          "type": "bytes32"
        },
        {
          "indexed": false,
          "name": "codeHash",
          "type": "bytes32"
        }
      ],
      "name": "SecretContractDeployed",
      "type": "event",
      "signature": "0x9d707d3c048dd1c209a28ea6367edf3d939a45cb46f86be5a728577e3e52273e"
    },
    {
      "constant": false,
      "inputs": [
        {
          "name": "_signer",
          "type": "address"
        },
        {
          "name": "_report",
          "type": "bytes"
        }
      ],
      "name": "register",
      "outputs": [],
      "payable": false,
      "stateMutability": "nonpayable",
      "type": "function",
      "signature": "0x24b8fbf6"
    },
    {
      "constant": false,
      "inputs": [
        {
          "name": "_custodian",
          "type": "address"
        },
        {
          "name": "_amount",
          "type": "uint256"
        }
      ],
      "name": "deposit",
      "outputs": [],
      "payable": false,
      "stateMutability": "nonpayable",
      "type": "function",
      "signature": "0x47e7ef24"
    },
    {
      "constant": false,
      "inputs": [],
      "name": "login",
      "outputs": [],
      "payable": false,
      "stateMutability": "nonpayable",
      "type": "function",
      "signature": "0xb34e97e8"
    },
    {
      "constant": false,
      "inputs": [],
      "name": "logout",
      "outputs": [],
      "payable": false,
      "stateMutability": "nonpayable",
      "type": "function",
      "signature": "0x1f3c99c3"
    },
    {
      "constant": false,
      "inputs": [
        {
          "name": "_scAddr",
          "type": "bytes32"
        },
        {
          "name": "_codeHash",
          "type": "bytes32"
        },
        {
          "name": "_owner",
          "type": "address"
        },
        {
          "name": "_sig",
          "type": "bytes"
        }
      ],
      "name": "deploySecretContract",
      "outputs": [],
      "payable": false,
      "stateMutability": "nonpayable",
      "type": "function",
      "signature": "0xe5ba75c0"
    },
    {
      "constant": true,
      "inputs": [
        {
          "name": "_scAddr",
          "type": "bytes32"
        }
      ],
      "name": "isDeployed",
      "outputs": [
        {
          "name": "",
          "type": "bool"
        }
      ],
      "payable": false,
      "stateMutability": "view",
      "type": "function",
      "signature": "0x74c0ff4f"
    },
    {
      "constant": true,
      "inputs": [
        {
          "name": "_scAddr",
          "type": "bytes32"
        }
      ],
      "name": "getCodeHash",
      "outputs": [
        {
          "name": "",
          "type": "bytes32"
        }
      ],
      "payable": false,
      "stateMutability": "view",
      "type": "function",
      "signature": "0x27e86c84"
    },
    {
      "constant": true,
      "inputs": [],
      "name": "countSecretContracts",
      "outputs": [
        {
          "name": "",
          "type": "uint256"
        }
      ],
      "payable": false,
      "stateMutability": "view",
      "type": "function",
      "signature": "0x75bbf75b"
    },
    {
      "constant": true,
      "inputs": [
        {
          "name": "_start",
          "type": "uint256"
        },
        {
          "name": "_stop",
          "type": "uint256"
        }
      ],
      "name": "getSecretContractAddresses",
      "outputs": [
        {
          "name": "",
          "type": "bytes32[]"
        }
      ],
      "payable": false,
      "stateMutability": "view",
      "type": "function",
      "signature": "0x8e055b8b"
    },
    {
      "constant": true,
      "inputs": [
        {
          "name": "_scAddr",
          "type": "bytes32"
        }
      ],
      "name": "countStateDeltas",
      "outputs": [
        {
          "name": "",
          "type": "uint256"
        }
      ],
      "payable": false,
      "stateMutability": "view",
      "type": "function",
      "signature": "0xc41bfb03"
    },
    {
      "constant": true,
      "inputs": [
        {
          "name": "_scAddr",
          "type": "bytes32"
        },
        {
          "name": "_index",
          "type": "uint256"
        }
      ],
      "name": "getStateDeltaHash",
      "outputs": [
        {
          "name": "",
          "type": "bytes32"
        }
      ],
      "payable": false,
      "stateMutability": "view",
      "type": "function",
      "signature": "0x28aa1aaa"
    },
    {
      "constant": true,
      "inputs": [
        {
          "name": "_scAddr",
          "type": "bytes32"
        },
        {
          "name": "_start",
          "type": "uint256"
        },
        {
          "name": "_stop",
          "type": "uint256"
        }
      ],
      "name": "getStateDeltaHashes",
      "outputs": [
        {
          "name": "",
          "type": "bytes32[]"
        }
      ],
      "payable": false,
      "stateMutability": "view",
      "type": "function",
      "signature": "0xd1dfd95e"
    },
    {
      "constant": true,
      "inputs": [
        {
          "name": "_scAddr",
          "type": "bytes32"
        },
        {
          "name": "_stateDeltaHash",
          "type": "bytes32"
        }
      ],
      "name": "isValidDeltaHash",
      "outputs": [
        {
          "name": "",
          "type": "bool"
        }
      ],
      "payable": false,
      "stateMutability": "view",
      "type": "function",
      "signature": "0xccfae218"
    },
    {
      "constant": false,
      "inputs": [
        {
          "name": "_taskIdInputHash",
          "type": "bytes32"
        },
        {
          "name": "_fee",
          "type": "uint256"
        }
      ],
      "name": "createTaskRecord",
      "outputs": [],
      "payable": false,
      "stateMutability": "nonpayable",
      "type": "function",
      "signature": "0x03316d16"
    },
    {
      "constant": false,
      "inputs": [
        {
          "name": "_taskIdInputHashes",
          "type": "bytes32[]"
        },
        {
          "name": "_fees",
          "type": "uint256[]"
        }
      ],
      "name": "createTaskRecords",
      "outputs": [],
      "payable": false,
      "stateMutability": "nonpayable",
      "type": "function",
      "signature": "0x120db8ab"
    },
    {
      "constant": false,
      "inputs": [
        {
          "name": "_scAddr",
          "type": "bytes32"
        },
        {
          "name": "_taskId",
          "type": "bytes32"
        },
        {
          "name": "_inStateDeltaHash",
          "type": "bytes32"
        },
        {
          "name": "_outStateDeltaHash",
          "type": "bytes32"
        },
        {
          "name": "_ethCall",
          "type": "bytes"
        },
        {
          "name": "_sig",
          "type": "bytes"
        }
      ],
      "name": "commitReceipt",
      "outputs": [],
      "payable": false,
      "stateMutability": "nonpayable",
      "type": "function",
      "signature": "0x978fa217"
    },
    {
      "constant": false,
      "inputs": [
        {
          "name": "_scAddr",
          "type": "bytes32"
        },
        {
          "name": "_taskIds",
          "type": "bytes32[]"
        },
        {
          "name": "_inStateDeltaHashes",
          "type": "bytes32[]"
        },
        {
          "name": "_outStateDeltaHashes",
          "type": "bytes32[]"
        },
        {
          "name": "_ethCall",
          "type": "bytes"
        },
        {
          "name": "_sig",
          "type": "bytes"
        }
      ],
      "name": "commitReceipts",
      "outputs": [],
      "payable": false,
      "stateMutability": "nonpayable",
      "type": "function",
      "signature": "0x5f0d6ac0"
    },
    {
      "constant": false,
      "inputs": [
        {
          "name": "_seed",
          "type": "uint256"
        },
        {
          "name": "_sig",
          "type": "bytes"
        }
      ],
      "name": "setWorkersParams",
      "outputs": [],
      "payable": false,
      "stateMutability": "nonpayable",
      "type": "function",
      "signature": "0x2873e73c"
    },
    {
      "constant": true,
      "inputs": [
        {
          "name": "_blockNumber",
          "type": "uint256"
        }
      ],
      "name": "getWorkerParams",
      "outputs": [
        {
          "name": "",
          "type": "uint256"
        },
        {
          "name": "",
          "type": "uint256"
        },
        {
          "name": "",
          "type": "address[]"
        },
        {
          "name": "",
          "type": "uint256[]"
        }
      ],
      "payable": false,
      "stateMutability": "view",
      "type": "function",
      "signature": "0x9836ca31"
    },
    {
      "constant": true,
      "inputs": [
        {
          "name": "_blockNumber",
          "type": "uint256"
        },
        {
          "name": "_scAddr",
          "type": "bytes32"
        }
      ],
      "name": "getWorkerGroup",
      "outputs": [
        {
          "name": "",
          "type": "address[]"
        }
      ],
      "payable": false,
      "stateMutability": "view",
      "type": "function",
      "signature": "0x1d40ff0b"
    },
    {
      "constant": true,
      "inputs": [
        {
          "name": "_blockNumber",
          "type": "uint256"
        }
      ],
      "name": "getWorkersParams",
      "outputs": [
        {
          "name": "",
          "type": "uint256"
        },
        {
          "name": "",
          "type": "uint256"
        },
        {
          "name": "",
          "type": "address[]"
        },
        {
          "name": "",
          "type": "address[]"
        }
      ],
      "payable": false,
      "stateMutability": "view",
      "type": "function",
      "signature": "0x59c91a12"
    },
    {
      "constant": true,
      "inputs": [
        {
          "name": "_custodian",
          "type": "address"
        }
      ],
      "name": "getReport",
      "outputs": [
        {
          "name": "",
          "type": "address"
        },
        {
          "name": "",
          "type": "bytes"
        }
      ],
      "payable": false,
      "stateMutability": "view",
      "type": "function",
      "signature": "0xa3bdae3e"
    }
  ],
  "bytecode": "0x608060405260646001553480156200001657600080fd5b5060405160408062004709833981018060405262000038919081019062000089565b60008054600160a060020a03938416600160a060020a031991821617909155600280549290931691161790556001601d556005601e55620000e7565b6000620000828251620000d4565b9392505050565b600080604083850312156200009d57600080fd5b6000620000ab858562000074565b9250506020620000be8582860162000074565b9150509250929050565b600160a060020a031690565b6000620000e182620000c8565b92915050565b61461280620000f76000396000f3fe60806040526004361061018a5763ffffffff7c010000000000000000000000000000000000000000000000000000000060003504166303316d16811461018f5780630a318da0146101b1578063120db8ab146101e75780631d40ff0b146102075780631f3c99c31461023457806324b8fbf61461024957806327e86c84146102695780632873e73c1461029657806328aa1aaa146102b65780634048a257146102d657806347e7ef2414610306578063572d356e1461032657806359c91a121461033b5780635f0d6ac01461036b5780635f0dd5bb1461038b5780635f7a6ff3146103ab57806374c0ff4f146103cb57806375bbf75b146103f85780638e055b8b1461040d5780639489ad401461043a578063978fa2171461045c5780639836ca311461047c578063a3bdae3e146104ac578063a3edd784146104da578063b34e97e8146104ef578063c41bfb0314610504578063ccfae21814610524578063d1dfd95e14610544578063e579f50014610564578063e5ba75c014610595578063ec56a373146105b5575b600080fd5b34801561019b57600080fd5b506101af6101aa36600461389c565b6105e4565b005b3480156101bd57600080fd5b506101d16101cc36600461377f565b61087a565b6040516101de9190614008565b60405180910390f35b3480156101f357600080fd5b506101af610202366004613702565b6108a2565b34801561021357600080fd5b5061022761022236600461389c565b610b8e565b6040516101de919061411d565b34801561024057600080fd5b506101af610da7565b34801561025557600080fd5b506101af610264366004613680565b610f24565b34801561027557600080fd5b5061028961028436600461377f565b611046565b6040516101de91906141ed565b3480156102a257600080fd5b506101af6102b13660046139f7565b6110a2565b3480156102c257600080fd5b506102896102d136600461389c565b6115b9565b3480156102e257600080fd5b506102f66102f1366004613662565b61162f565b6040516101de94939291906140bd565b34801561031257600080fd5b506101af6103213660046136d2565b6116f3565b34801561033257600080fd5b50610289611a27565b34801561034757600080fd5b5061035b61035636600461377f565b611a2d565b6040516101de94939291906143cc565b34801561037757600080fd5b506101af61038636600461379d565b611a3a565b34801561039757600080fd5b506102896103a636600461377f565b611c15565b3480156103b757600080fd5b506102896103c6366004613662565b611c34565b3480156103d757600080fd5b506103eb6103e636600461377f565b611c46565b6040516101de91906141df565b34801561040457600080fd5b50610289611c81565b34801561041957600080fd5b5061042d61042836600461389c565b611c88565b6040516101de919061412e565b34801561044657600080fd5b5061044f611d28565b6040516101de919061426b565b34801561046857600080fd5b506101af610477366004613934565b611d37565b34801561048857600080fd5b5061049c61049736600461377f565b611fba565b6040516101de949392919061440d565b3480156104b857600080fd5b506104cc6104c7366004613662565b6120e5565b6040516101de92919061409d565b3480156104e657600080fd5b50610289612327565b3480156104fb57600080fd5b506101af61232d565b34801561051057600080fd5b5061028961051f36600461377f565b6124a8565b34801561053057600080fd5b506103eb61053f36600461389c565b612504565b34801561055057600080fd5b5061042d61055f36600461398c565b6125b1565b34801561057057600080fd5b5061058461057f36600461377f565b6126b4565b6040516101de959493929190614379565b3480156105a157600080fd5b506101af6105b03660046138bb565b61277c565b3480156105c157600080fd5b506105d56105d036600461377f565b612a7b565b6040516101de93929190614075565b6000546040517fdd62ed3e0000000000000000000000000000000000000000000000000000000081528291600160a060020a03169063dd62ed3e9061062f9033903090600401614016565b60206040518083038186803b15801561064757600080fd5b505afa15801561065b573d6000803e3d6000fd5b505050506040513d601f19601f8201168201806040525061067f91908101906139d9565b10156106a95760405160e560020a62461bcd0281526004016106a0906142f9565b60405180910390fd5b6000546040517f23b872dd000000000000000000000000000000000000000000000000000000008152600160a060020a03909116906323b872dd906106f690339030908690600401614031565b602060405180830381600087803b15801561071057600080fd5b505af1158015610724573d6000803e3d6000fd5b505050506040513d601f19601f820116820180604052506107489190810190613761565b15156107695760405160e560020a62461bcd0281526004016106a0906142c9565b336000908152601c602090815260408083205481518084018790528083019190915281518082038301815260609091018252805190830120808452601a90925290912060020154600160a060020a0316156107d95760405160e560020a62461bcd0281526004016106a090614339565b6000818152601a6020526040902082815560028101805473ffffffffffffffffffffffffffffffffffffffff19163317905543600382015560040180546001919060ff191682800217905550336000818152601c60205260409081902080546001019055517ff1c0c18d5573c419035509d5b8bf3f97ce7b92cca68bccbde847516f66d6fe059161086d9184918691614243565b60405180910390a1505050565b601780548290811061088857fe5b600091825260209091200154600160a060020a0316905081565b60005b8251811015610b4e5781818151811015156108bc57fe5b602090810290910101516000546040517fdd62ed3e000000000000000000000000000000000000000000000000000000008152600160a060020a039091169063dd62ed3e906109119033903090600401614016565b60206040518083038186803b15801561092957600080fd5b505afa15801561093d573d6000803e3d6000fd5b505050506040513d601f19601f8201168201806040525061096191908101906139d9565b10156109825760405160e560020a62461bcd0281526004016106a0906142f9565b6000548251600160a060020a03909116906323b872dd90339030908690869081106109a957fe5b906020019060200201516040518463ffffffff167c01000000000000000000000000000000000000000000000000000000000281526004016109ed93929190614031565b602060405180830381600087803b158015610a0757600080fd5b505af1158015610a1b573d6000803e3d6000fd5b505050506040513d601f19601f82011682018060405250610a3f9190810190613761565b1515610a605760405160e560020a62461bcd0281526004016106a0906142c9565b60008382815181101515610a7057fe5b6020908102909101810151336000908152601c83526040808220548151808601949094528382015280518084038201815260609093018152825192840192909220808252601a9093522060020154909150600160a060020a031615610aea5760405160e560020a62461bcd0281526004016106a090614339565b8282815181101515610af857fe5b6020908102919091018101516000928352601a909152604090912090815560028101805473ffffffffffffffffffffffffffffffffffffffff191633179055600401805460ff19166001908117909155016108a5565b507facd4eaf0bf2790219699c0a2d47f13405b81c59f5ff0bb951a71a29c94a6d774828233604051610b82939291906141ab565b60405180910390a15050565b60606000610b9b84612aa9565b9050610ba56133ea565b60038260058110610bb257fe5b60040201608060405190810160405290816000820154815260200160018201805480602002602001604051908101604052809291908181526020018280548015610c2557602002820191906000526020600020905b8154600160a060020a03168152600190910190602001808311610c07575b5050505050815260200160028201805480602002602001604051908101604052809291908181526020018280548015610c7d57602002820191906000526020600020905b815481526020019060010190808311610c69575b5050505050815260200160038201548152505090506060601e54604051908082528060200260200182016040528015610cc0578160200160208202803883390190505b5090506000805b601e54811015610d99575b6000610ce089878a86612b51565b90506000805b8551811015610d31578581815181101515610cfd57fe5b90602001906020020151600160a060020a031683600160a060020a03161415610d295760019150610d31565b600101610ce6565b50801515610d6057818584815181101515610d4857fe5b600160a060020a039092166020928302909101909101525b50508251600190920191600090849083908110610d7957fe5b60209081029091010151600160a060020a031614610cd257600101610cc7565b509093505050505b92915050565b33610db0613413565b600160a060020a038281166000908152601960209081526040918290208251608081019093528054938416835291929083019060a060020a900460ff166003811115610df857fe5b6003811115610e0357fe5b8152602001600182018054600181600116156101000203166002900480601f016020809104026020016040519081016040528092919081815260200182805460018160011615610100020316600290048015610ea05780601f10610e7557610100808354040283529160200191610ea0565b820191906000526020600020905b815481529060010190602001808311610e8357829003601f168201915b505050918352505060029182015460209091015290915081602001516003811115610ec757fe5b14610ee75760405160e560020a62461bcd0281526004016106a0906142d9565b33600090815260196020526040902080546003919074ff0000000000000000000000000000000000000000191660a060020a835b02179055505050565b33600090815260196020526040902054600160a060020a03161515610f9357601780546001810182556000919091527fc624b66cc0138b8fabc209247f72d758e1cf3343756d543badbf24212bed8c1501805473ffffffffffffffffffffffffffffffffffffffff1916331790555b3360009081526019602090815260408220805473ffffffffffffffffffffffffffffffffffffffff1916600160a060020a03861617815560028101929092558251610fe4926001019184019061343c565b503360008181526019602052604090819020805474ff0000000000000000000000000000000000000000191660a060020a179055517f0a31ee9d46a828884b81003c8498156ea6aa15b9b54bdd0ef0b533d9eba57e5591610b82918590614016565b60008160016000828152601b602052604090206003015460ff16600181111561106b57fe5b1461108b5760405160e560020a62461bcd0281526004016106a090614349565b50506000908152601b602052604090206001015490565b336110ab613413565b600160a060020a038281166000908152601960209081526040918290208251608081019093528054938416835291929083019060a060020a900460ff1660038111156110f357fe5b60038111156110fe57fe5b8152602001600182018054600181600116156101000203166002900480601f01602080910402602001604051908101604052809291908181526020018280546001816001161561010002031660029004801561119b5780601f106111705761010080835404028352916020019161119b565b820191906000526020600020905b81548152906001019060200180831161117e57829003601f168201915b50505091835250506002919091015460209091015290506000816020015160038111156111c457fe5b14156111e55760405160e560020a62461bcd0281526004016106a090614279565b60025433600090815260196020526040902054600160a060020a039081169116146112255760405160e560020a62461bcd0281526004016106a090614329565b6000805b6005811015611288576003816005811061123f57fe5b6004020154151561125257809150611288565b6003826005811061125f57fe5b60040201546003826005811061127157fe5b60040201541015611280578091505b600101611229565b50436003826005811061129757fe5b600402015584600382600581106112aa57fe5b60040201600301556000805b60175481101561154b576112c8613413565b601960006017848154811015156112db57fe5b6000918252602080832090910154600160a060020a0390811684528382019490945260409283019091208251608081019093528054938416835291929083019060ff60a060020a90910416600381111561133157fe5b600381111561133c57fe5b8152602001600182018054600181600116156101000203166002900480601f0160208091040260200160405190810160405280929190818152602001828054600181600116156101000203166002900480156113d95780601f106113ae576101008083540402835291602001916113d9565b820191906000526020600020905b8154815290600101906020018083116113bc57829003601f168201915b505050505081526020016002820154815250509050601d5481606001511015801561141457506002548151600160a060020a03908116911614155b801561142f575060028160200151600381111561142d57fe5b145b15611542576003846005811061144157fe5b60040201600101805480919060010161145a91906134ba565b50601780548390811061146957fe5b600091825260209091200154600160a060020a03166003856005811061148b57fe5b600402016001018481548110151561149f57fe5b6000918252602090912001805473ffffffffffffffffffffffffffffffffffffffff1916600160a060020a0392909216919091179055600384600581106114e257fe5b6004020160020180548091906001016114fb91906134ba565b5060608101516003856005811061150e57fe5b600402016002018481548110151561152257fe5b60009182526020909120015561153f83600163ffffffff612de016565b92505b506001016112b6565b507f7047379c64ccafb62f6625e6b2d8eb6e1b0e091fac56a11ab5e2fd896e4db1d086436003856005811061157c57fe5b6004020160010160038660058110151561159257fe5b600402016002016040516115a9949392919061444e565b60405180910390a1505050505050565b60008260016000828152601b602052604090206003015460ff1660018111156115de57fe5b146115fe5760405160e560020a62461bcd0281526004016106a090614349565b6000848152601b6020526040902060020180548490811061161b57fe5b906000526020600020015491505092915050565b6019602090815260009182526040918290208054600180830180548651600261010094831615949094026000190190911692909204601f8101869004860283018601909652858252600160a060020a0383169560a060020a90930460ff1694919290918301828280156116e35780601f106116b8576101008083540402835291602001916116e3565b820191906000526020600020905b8154815290600101906020018083116116c657829003601f168201915b5050505050908060020154905084565b816116fc613413565b600160a060020a038281166000908152601960209081526040918290208251608081019093528054938416835291929083019060a060020a900460ff16600381111561174457fe5b600381111561174f57fe5b8152602001600182018054600181600116156101000203166002900480601f0160208091040260200160405190810160405280929190818152602001828054600181600116156101000203166002900480156117ec5780601f106117c1576101008083540402835291602001916117ec565b820191906000526020600020905b8154815290600101906020018083116117cf57829003601f168201915b505050918352505060029190910154602090910152905060008160200151600381111561181557fe5b14156118365760405160e560020a62461bcd0281526004016106a090614279565b6000546040517fdd62ed3e0000000000000000000000000000000000000000000000000000000081528491600160a060020a03169063dd62ed3e906118819088903090600401614059565b60206040518083038186803b15801561189957600080fd5b505afa1580156118ad573d6000803e3d6000fd5b505050506040513d601f19601f820116820180604052506118d191908101906139d9565b10156118f25760405160e560020a62461bcd0281526004016106a090614289565b6000546040517f23b872dd000000000000000000000000000000000000000000000000000000008152600160a060020a03909116906323b872dd9061193f90879030908890600401614067565b602060405180830381600087803b15801561195957600080fd5b505af115801561196d573d6000803e3d6000fd5b505050506040513d601f19601f820116820180604052506119919190810190613761565b151561199c57600080fd5b600160a060020a0384166000908152601960205260409020600201546119c8908463ffffffff612de016565b600160a060020a0385166000908152601960205260409081902060020191909155517fb3ef81558ed1a50072a492984535a009da8b129c749500b387f1e5f4886bdde590611a199086908690614102565b60405180910390a150505050565b60015481565b6000806060809193509193565b33611a43613413565b600160a060020a038281166000908152601960209081526040918290208251608081019093528054938416835291929083019060a060020a900460ff166003811115611a8b57fe5b6003811115611a9657fe5b8152602001600182018054600181600116156101000203166002900480601f016020809104026020016040519081016040528092919081815260200182805460018160011615610100020316600290048015611b335780601f10611b0857610100808354040283529160200191611b33565b820191906000526020600020905b815481529060010190602001808311611b1657829003601f168201915b505050918352505060029182015460209091015290915081602001516003811115611b5a57fe5b14611b7a5760405160e560020a62461bcd0281526004016106a0906142d9565b8760016000828152601b602052604090206003015460ff166001811115611b9d57fe5b14611bbd5760405160e560020a62461bcd0281526004016106a090614349565b611bcb898989898989612df9565b7f49f3b610d2b607252a8901e3c134022c7a6330e5f6525f0ed84dd4a1274789588888888888604051611c0295949392919061413f565b60405180910390a1505050505050505050565b6018805482908110611c2357fe5b600091825260209091200154905081565b601c6020526000908152604090205481565b600060016000838152601b602052604090206003015460ff166001811115611c6a57fe5b1415611c7857506001611c7c565b5060005b919050565b6018545b90565b6060811515611c975760185491505b6060611ca9838563ffffffff6130f816565b604051908082528060200260200182016040528015611cd2578160200160208202803883390190505b5090506000845b84811015611d1e576018805482908110611cef57fe5b90600052602060002001548383815181101515611d0857fe5b6020908102909101015260019182019101611cd9565b5090949350505050565b600054600160a060020a031681565b33611d40613413565b600160a060020a038281166000908152601960209081526040918290208251608081019093528054938416835291929083019060a060020a900460ff166003811115611d8857fe5b6003811115611d9357fe5b8152602001600182018054600181600116156101000203166002900480601f016020809104026020016040519081016040528092919081815260200182805460018160011615610100020316600290048015611e305780601f10611e0557610100808354040283529160200191611e30565b820191906000526020600020905b815481529060010190602001808311611e1357829003601f168201915b505050918352505060029182015460209091015290915081602001516003811115611e5757fe5b14611e775760405160e560020a62461bcd0281526004016106a0906142d9565b8760016000828152601b602052604090206003015460ff166001811115611e9a57fe5b14611eba5760405160e560020a62461bcd0281526004016106a090614349565b60016000898152601a602052604090206004015460ff166002811115611edc57fe5b14611efc5760405160e560020a62461bcd0281526004016106a0906142a9565b611f0a89898989898961310d565b6000888152601a602090815260409091208551611f2f9260019092019187019061343c565b506000888152601a6020908152604080832060048101805460ff1916600290811790915590543385526019909352922090910154611f6c91612de0565b336000908152601960205260409081902060020191909155517f665329bb9a4e1062edc215d9c5ab57fa54c4c88e3dfbcc68e0cd92fdd010fa6e90611c02908a908a908a908a908a90614209565b6000806060806000611fcb86612aa9565b9050611fd56133ea565b60038260058110611fe257fe5b6004020160806040519081016040529081600082015481526020016001820180548060200260200160405190810160405280929190818152602001828054801561205557602002820191906000526020600020905b8154600160a060020a03168152600190910190602001808311612037575b50505050508152602001600282018054806020026020016040519081016040528092919081815260200182805480156120ad57602002820191906000526020600020905b815481526020019060010190808311612099575b5050509183525050600391909101546020918201528151606083015191830151604090930151909a9199509197509095509350505050565b60006060826120f2613413565b600160a060020a038281166000908152601960209081526040918290208251608081019093528054938416835291929083019060a060020a900460ff16600381111561213a57fe5b600381111561214557fe5b8152602001600182018054600181600116156101000203166002900480601f0160208091040260200160405190810160405280929190818152602001828054600181600116156101000203166002900480156121e25780601f106121b7576101008083540402835291602001916121e2565b820191906000526020600020905b8154815290600101906020018083116121c557829003601f168201915b505050918352505060029190910154602090910152905060008160200151600381111561220b57fe5b141561222c5760405160e560020a62461bcd0281526004016106a090614279565b600160a060020a038581166000908152601960205260409020541615156122685760405160e560020a62461bcd0281526004016106a090614309565b600160a060020a038581166000908152601960209081526040918290208054600191820180548551600261010095831615959095026000190190911693909304601f81018590048502840185019095528483529416939290918391908301828280156123155780601f106122ea57610100808354040283529160200191612315565b820191906000526020600020905b8154815290600101906020018083116122f857829003601f168201915b50505050509050935093505050915091565b601e5481565b33612336613413565b600160a060020a038281166000908152601960209081526040918290208251608081019093528054938416835291929083019060a060020a900460ff16600381111561237e57fe5b600381111561238957fe5b8152602001600182018054600181600116156101000203166002900480601f0160208091040260200160405190810160405280929190818152602001828054600181600116156101000203166002900480156124265780601f106123fb57610100808354040283529160200191612426565b820191906000526020600020905b81548152906001019060200180831161240957829003601f168201915b505050918352505060029190910154602090910152905060008160200151600381111561244f57fe5b14156124705760405160e560020a62461bcd0281526004016106a090614279565b33600090815260196020526040902080546002919074ff0000000000000000000000000000000000000000191660a060020a83610f1b565b60008160016000828152601b602052604090206003015460ff1660018111156124cd57fe5b146124ed5760405160e560020a62461bcd0281526004016106a090614349565b50506000908152601b602052604090206002015490565b60008260016000828152601b602052604090206003015460ff16600181111561252957fe5b146125495760405160e560020a62461bcd0281526004016106a090614349565b6000805b6000868152601b60205260409020600201548110156125a8576000868152601b6020526040902060020180548691908390811061258657fe5b906000526020600020015414156125a057600191506125a8565b60010161254d565b50949350505050565b60608360016000828152601b602052604090206003015460ff1660018111156125d657fe5b146125f65760405160e560020a62461bcd0281526004016106a090614349565b821515612612576000858152601b602052604090206002015492505b6060612624848663ffffffff6130f816565b60405190808252806020026020018201604052801561264d578160200160208202803883390190505b5090506000855b858110156126a8576000888152601b6020526040902060020180548290811061267957fe5b9060005260206000200154838381518110151561269257fe5b6020908102909101015260019182019101612654565b50909695505050505050565b601a602090815260009182526040918290208054600180830180548651600293821615610100026000190190911692909204601f8101869004860283018601909652858252919492939092908301828280156127515780601f1061272657610100808354040283529160200191612751565b820191906000526020600020905b81548152906001019060200180831161273457829003601f168201915b50505050600283015460038401546004909401549293600160a060020a039091169290915060ff1685565b33612785613413565b600160a060020a038281166000908152601960209081526040918290208251608081019093528054938416835291929083019060a060020a900460ff1660038111156127cd57fe5b60038111156127d857fe5b8152602001600182018054600181600116156101000203166002900480601f0160208091040260200160405190810160405280929190818152602001828054600181600116156101000203166002900480156128755780601f1061284a57610100808354040283529160200191612875565b820191906000526020600020905b81548152906001019060200180831161285857829003601f168201915b505050918352505060029190910154602090910152905060008160200151600381111561289e57fe5b14156128bf5760405160e560020a62461bcd0281526004016106a090614279565b600160a060020a0384166000818152601c60209081526040918290205482518083018a90526c0100000000000000000000000090940284840152605480850191909152825180850390910181526074909301909152815191012086811461292557600080fd5b6000878152601b602052604081206003015460ff16600181111561294557fe5b146129655760405160e560020a62461bcd0281526004016106a090614299565b604080516020808201899052825180830382018152918301909252805191012060006129a086612994846132ba565b9063ffffffff61330b16565b9050600160a060020a03808216908816146129ba57600080fd5b6000898152601b60209081526040808320805473ffffffffffffffffffffffffffffffffffffffff1916600160a060020a038c16908117825560018083018e90556003909201805460ff191683179055601880548084019091557fb13d2d76d1f4b7be834882e410b3e3a8afaf69f83600ae24db354391d2378d2e018e90558452601c9092529182902080549091019055517f9d707d3c048dd1c209a28ea6367edf3d939a45cb46f86be5a728577e3e52273e90611c029085908b906141fb565b601b60205260009081526040902080546001820154600390920154600160a060020a03909116919060ff1683565b6000600019815b6005811015612b1e578360038260058110612ac757fe5b600402015411801590612b0d57508160000b6000191480612b0d57506003600083900b60058110612af457fe5b600402015460038260058110612b0657fe5b6004020154115b15612b16578091505b600101612ab0565b50600019600082900b1415612b485760405160e560020a62461bcd0281526004016106a090614369565b60000b92915050565b6000612b5b6133ea565b60038560058110612b6857fe5b60040201608060405190810160405290816000820154815260200160018201805480602002602001604051908101604052809291908181526020018280548015612bdb57602002820191906000526020600020905b8154600160a060020a03168152600190910190602001808311612bbd575b5050505050815260200160028201805480602002602001604051908101604052809291908181526020018280548015612c3357602002820191906000526020600020905b815481526020019060010190808311612c1f575b50505091835250506003919091015460209091015290506000805b826020015151811015612cbf57602083015180516000919083908110612c7057fe5b60209081029091010151600160a060020a031614612cb757612cb4836040015182815181101515612c9d57fe5b60209081029091010151839063ffffffff612de016565b91505b600101612c4e565b5060608083015183516040805160208082018d905281830194909452938401919091526080830188905260a0830184905260c08084018890528151808503909101815260e09093019052815191012060008282811515612d1b57fe5b06905060005b846020015151811015612db157602085015180516000919083908110612d4357fe5b60209081029091010151600160a060020a031614612da9576040850151805182908110612d6c57fe5b602090810290910101519091039060008213612da9576020850151805182908110612d9357fe5b9060200190602002015195505050505050612dd8565b600101612d21565b50602084015180516000198101908110612dc757fe5b906020019060200201519450505050505b949350505050565b600082820183811015612df257600080fd5b9392505050565b6000868152601b6020526040902060020154801515612e5057846000815181101515612e2157fe5b6020908102909101015115612e4b5760405160e560020a62461bcd0281526004016106a0906142e9565b612ec0565b6000878152601b60205260409020600201612e7282600163ffffffff6130f816565b81548110612e7c57fe5b9060005260206000200154856000815181101515612e9657fe5b6020908102909101015114612ec05760405160e560020a62461bcd0281526004016106a0906142b9565b60005b8651811015612f8f576001601a60008984815181101515612ee057fe5b602090810290910181015182528101919091526040016000206004015460ff166002811115612f0b57fe5b14612f2b5760405160e560020a62461bcd0281526004016106a0906142a9565b6000811115612f87578460018203815181101515612f4557fe5b906020019060200201518682815181101515612f5d57fe5b6020908102909101015114612f875760405160e560020a62461bcd0281526004016106a090614319565b600101612ec3565b5060005b86518110156130ee576000888152601b602052604090208551600290910190869083908110612fbe57fe5b6020908102909101810151825460018181018555600094855292909320909201919091558751612ff39163ffffffff6130f816565b81141561303d5782601a6000898481518110151561300d57fe5b906020019060200201518152602001908152602001600020600101908051906020019061303b92919061343c565b505b6002601a6000898481518110151561305157fe5b60209081029091018101518252810191909152604001600020600401805460ff1916600183600281111561308157fe5b02179055506130d3601a6000898481518110151561309b57fe5b60209081029091018101518252818101929092526040908101600090812054338252601990935220600201549063ffffffff612de016565b33600090815260196020526040902060020155600101612f93565b5050505050505050565b60008282111561310757600080fd5b50900390565b6000868152601b602052604090206002015480151561314c5784156131475760405160e560020a62461bcd0281526004016106a0906142e9565b6131a6565b6000878152601b6020526040902060020161316e82600163ffffffff6130f816565b8154811061317857fe5b9060005260206000200154851415156131a65760405160e560020a62461bcd0281526004016106a0906142b9565b6000878152601b6020908152604080832060020180546001810182559084528284200187905580518083018a81529181018990526060810188905286518a938a938a938a939192608090910191908401908083835b6020831061321a5780518252601f1990920191602091820191016131fb565b6001836020036101000a038019825116818451168082178552505050505050905001945050505050604051602081830303815290604052805190602001209050600061326f848361330b90919063ffffffff16565b33600090815260196020526040902054909150600160a060020a038083169116146132af5760405160e560020a62461bcd0281526004016106a090614359565b505050505050505050565b604080517f19457468657265756d205369676e6564204d6573736167653a0a333200000000602080830191909152603c8083019490945282518083039094018452605c909101909152815191012090565b600080600080845160411415156133285760009350505050610da1565b50505060208201516040830151606084015160001a601b60ff8216101561334d57601b015b8060ff16601b1415801561336557508060ff16601c14155b156133765760009350505050610da1565b6040805160008152602080820180845289905260ff8416828401526060820186905260808201859052915160019260a0808401939192601f1981019281900390910190855afa1580156133cd573d6000803e3d6000fd5b505050602060405103519350505050610da1565b50505092915050565b608060405190810160405280600081526020016060815260200160608152602001600081525090565b604080516080810190915260008082526020820190815260200160608152602001600081525090565b828054600181600116156101000203166002900490600052602060002090601f016020900481019282601f1061347d57805160ff19168380011785556134aa565b828001600101855582156134aa579182015b828111156134aa57825182559160200191906001019061348f565b506134b69291506134e3565b5090565b8154818355818111156134de576000838152602090206134de9181019083016134e3565b505050565b611c8591905b808211156134b657600081556001016134e9565b6000612df2823561451f565b6000601f8201831361351a57600080fd5b813561352d613528826144b6565b61448f565b9150818183526020840193506020810190508385602084028201111561355257600080fd5b60005b8381101561357e57816135688882613604565b8452506020928301929190910190600101613555565b5050505092915050565b6000601f8201831361359957600080fd5b81356135a7613528826144b6565b915081818352602084019350602081019050838560208402820111156135cc57600080fd5b60005b8381101561357e57816135e28882613604565b84525060209283019291909101906001016135cf565b6000612df2825161452a565b6000612df28235611c85565b6000601f8201831361362157600080fd5b813561362f613528826144d7565b9150808252602083016020830185838301111561364b57600080fd5b6133e1838284614592565b6000612df28251611c85565b60006020828403121561367457600080fd5b6000612dd884846134fd565b6000806040838503121561369357600080fd5b600061369f85856134fd565b925050602083013567ffffffffffffffff8111156136bc57600080fd5b6136c885828601613610565b9150509250929050565b600080604083850312156136e557600080fd5b60006136f185856134fd565b92505060206136c885828601613604565b6000806040838503121561371557600080fd5b823567ffffffffffffffff81111561372c57600080fd5b61373885828601613509565b925050602083013567ffffffffffffffff81111561375557600080fd5b6136c885828601613588565b60006020828403121561377357600080fd5b6000612dd884846135f8565b60006020828403121561379157600080fd5b6000612dd88484613604565b60008060008060008060c087890312156137b657600080fd5b60006137c28989613604565b965050602087013567ffffffffffffffff8111156137df57600080fd5b6137eb89828a01613509565b955050604087013567ffffffffffffffff81111561380857600080fd5b61381489828a01613509565b945050606087013567ffffffffffffffff81111561383157600080fd5b61383d89828a01613509565b935050608087013567ffffffffffffffff81111561385a57600080fd5b61386689828a01613610565b92505060a087013567ffffffffffffffff81111561388357600080fd5b61388f89828a01613610565b9150509295509295509295565b600080604083850312156138af57600080fd5b60006136f18585613604565b600080600080608085870312156138d157600080fd5b60006138dd8787613604565b94505060206138ee87828801613604565b93505060406138ff878288016134fd565b925050606085013567ffffffffffffffff81111561391c57600080fd5b61392887828801613610565b91505092959194509250565b60008060008060008060c0878903121561394d57600080fd5b60006139598989613604565b965050602061396a89828a01613604565b955050604061397b89828a01613604565b945050606061383d89828a01613604565b6000806000606084860312156139a157600080fd5b60006139ad8686613604565b93505060206139be86828701613604565b92505060406139cf86828701613604565b9150509250925092565b6000602082840312156139eb57600080fd5b6000612dd88484613656565b60008060408385031215613a0a57600080fd5b600061369f8585613604565b613a1f8161455f565b82525050565b613a1f8161451f565b6000613a3982614511565b808452602084019350613a4b836144ff565b60005b82811015613a7b57613a61868351613a25565b613a6a826144ff565b602096909601959150600101613a4e565b5093949350505050565b6000613a9082614515565b808452602084019350613aa283614505565b60005b82811015613a7b57613ab8868354613a25565b613ac182614519565b602096909601959150600101613aa5565b6000613add82614511565b808452602084019350613aef836144ff565b60005b82811015613a7b57613b05868351613bc2565b613b0e826144ff565b602096909601959150600101613af2565b6000613b2a82614511565b808452602084019350613b3c836144ff565b60005b82811015613a7b57613b52868351613bc2565b613b5b826144ff565b602096909601959150600101613b3f565b6000613b7782614515565b808452602084019350613b8983614505565b60005b82811015613a7b57613b9f868354613bc2565b613ba882614519565b602096909601959150600101613b8c565b613a1f8161452a565b613a1f81611c85565b6000613bd682614511565b808452613bea81602086016020860161459e565b613bf3816145ce565b9093016020019392505050565b613a1f81614566565b613a1f81614571565b613a1f8161457c565b613a1f81614587565b601481527f556e7265676973746572656420776f726b65722e000000000000000000000000602082015260400190565b602681527f4e6f7420656e6f75676820746f6b656e7320616c6c6f77656420666f7220747260208201527f616e736665720000000000000000000000000000000000000000000000000000604082015260600190565b602181527f53656372657420636f6e747261637420616c7265616479206465706c6f79656460208201527f2e00000000000000000000000000000000000000000000000000000000000000604082015260600190565b601381527f496e76616c6964207461736b2073746174757300000000000000000000000000602082015260400190565b601e81527f496e76616c696420696e7075742073746174652064656c746120686173680000602082015260400190565b601281527f5472616e73666572206e6f742076616c69640000000000000000000000000000602082015260400190565b601581527f576f726b6572206e6f74206c6f6767656420696e2e0000000000000000000000602082015260400190565b602e81527f496e76616c696420696e7075742073746174652064656c74612068617368206660208201527f6f7220656d707479207374617465000000000000000000000000000000000000604082015260600190565b601481527f416c6c6f77616e6365206e6f7420656e6f756768000000000000000000000000602082015260400190565b601581527f576f726b6572206e6f7420726567697374657265640000000000000000000000602082015260400190565b602381527f496e76616c69642073746174652064656c746120686173686573206f7264657260208201527f696e670000000000000000000000000000000000000000000000000000000000604082015260600190565b602681527f4f6e6c7920746865205072696e636970616c2063616e2075706461746520746860208201527f6520736565640000000000000000000000000000000000000000000000000000604082015260600190565b601381527f5461736b20616c72656164792065786973742e00000000000000000000000000602082015260400190565b601d81527f53656372657420636f6e7472616374206e6f74206465706c6f7965642e000000602082015260400190565b601281527f496e76616c6964207369676e61747572652e0000000000000000000000000000602082015260400190565b603681527f4e6f20776f726b65727320706172616d657465727320656e74727920666f722060208201527f73706563696669656420626c6f636b206e756d62657200000000000000000000604082015260600190565b60208101610da18284613a25565b604081016140248285613a16565b612df26020830184613a25565b6060810161403f8286613a16565b61404c6020830185613a25565b612dd86040830184613bc2565b604081016140248285613a25565b6060810161403f8286613a25565b606081016140838286613a25565b6140906020830185613bc2565b612dd86040830184613c09565b604081016140ab8285613a25565b8181036020830152612dd88184613bcb565b608081016140cb8287613a25565b6140d86020830186613c1b565b81810360408301526140ea8185613bcb565b90506140f96060830184613bc2565b95945050505050565b604081016141108285613a25565b612df26020830184613bc2565b60208082528101612df28184613a2e565b60208082528101612df28184613ad2565b60a080825281016141508188613ad2565b905081810360208301526141648187613ad2565b905081810360408301526141788186613ad2565b9050818103606083015261418c8185613bcb565b905081810360808301526141a08184613bcb565b979650505050505050565b606080825281016141bc8186613ad2565b905081810360208301526141d08185613b1f565b9050612dd86040830184613a16565b60208101610da18284613bb9565b60208101610da18284613bc2565b604081016141108285613bc2565b60a081016142178288613bc2565b6142246020830187613bc2565b6142316040830186613bc2565b818103606083015261418c8185613bcb565b606081016142518286613bc2565b61425e6020830185613bc2565b612dd86040830184613a16565b60208101610da18284613c00565b60208082528101610da181613c24565b60208082528101610da181613c54565b60208082528101610da181613caa565b60208082528101610da181613d00565b60208082528101610da181613d30565b60208082528101610da181613d60565b60208082528101610da181613d90565b60208082528101610da181613dc0565b60208082528101610da181613e16565b60208082528101610da181613e46565b60208082528101610da181613e76565b60208082528101610da181613ecc565b60208082528101610da181613f22565b60208082528101610da181613f52565b60208082528101610da181613f82565b60208082528101610da181613fb2565b60a081016143878288613bc2565b81810360208301526143998187613bcb565b90506143a86040830186613a25565b6143b56060830185613bc2565b6143c26080830184613c12565b9695505050505050565b608081016143da8287613bc2565b6143e76020830186613bc2565b81810360408301526143f98185613a2e565b905081810360608301526143c28184613a2e565b6080810161441b8287613bc2565b6144286020830186613bc2565b818103604083015261443a8185613a2e565b905081810360608301526143c28184613b1f565b6080810161445c8287613bc2565b6144696020830186613bc2565b818103604083015261447b8185613a85565b905081810360608301526143c28184613b6c565b60405181810167ffffffffffffffff811182821017156144ae57600080fd5b604052919050565b600067ffffffffffffffff8211156144cd57600080fd5b5060209081020190565b600067ffffffffffffffff8211156144ee57600080fd5b506020601f91909101601f19160190565b60200190565b60009081526020902090565b5190565b5490565b60010190565b6000610da182614553565b151590565b6000600282106134b657fe5b6000600382106134b657fe5b6000600482106134b657fe5b600160a060020a031690565b6000610da1825b6000610da18261451f565b6000610da18261452f565b6000610da18261453b565b6000610da182614547565b82818337506000910152565b60005b838110156145b95781810151838201526020016145a1565b838111156145c8576000848401525b50505050565b601f01601f19169056fea265627a7a72305820e811ccdeb53d598847b65e5e852f6081b1687712f76a25e68e55c04569025e3b6c6578706572696d656e74616cf50037",
  "source": "pragma solidity ^0.5.0;\npragma experimental ABIEncoderV2;\n\nimport \"openzeppelin-solidity/contracts/math/SafeMath.sol\";\nimport \"openzeppelin-solidity/contracts/cryptography/ECDSA.sol\";\n\ncontract ERC20 {\n    function allowance(address owner, address spender) public view returns (uint256);\n\n    function transferFrom(address from, address to, uint256 value) public returns (bool);\n\n    function approve(address spender, uint256 value) public returns (bool);\n\n    function totalSupply() public view returns (uint256);\n\n    function balanceOf(address who) public view returns (uint256);\n\n    function transfer(address to, uint256 value) public returns (bool);\n\n    event Transfer(address indexed from, address indexed to, uint256 value);\n    event Approval(address indexed owner, address indexed spender, uint256 value);\n}\n\ncontract Enigma {\n    using SafeMath for uint256;\n    using ECDSA for bytes32;\n\n    // The interface of the deployed ENG ERC20 token contract\n    ERC20 public engToken;\n\n    uint public epochSize = 100;\n\n    struct TaskRecord {\n        uint fee;\n        bytes proof; // Signature of (taskId, inStateDeltaHash, outStateDeltaHash, ethCall)\n        address sender;\n        uint blockNumber;\n        TaskStatus status;\n    }\n    enum TaskStatus {RecordUndefined, RecordCreated, ReceiptVerified}\n\n    /**\n    * The signer address of the principal node\n    * This must be set when deploying the contract and remains immutable\n    * Since the signer address is derived from the public key of an\n    * SGX enclave, this ensures that the principal node cannot be tempered\n    * with or replaced.\n    */\n    address principal;\n\n    // The data representation of a worker (or node)\n    struct Worker {\n        address signer;\n        WorkerStatus status; // Uninitialized: 0; Active: 1; Inactive: 2\n        bytes report; // Decided to store this as one  RLP encoded attribute for easier external storage in the future\n        uint256 balance;\n    }\n\n    enum WorkerStatus {Unregistered, Registered, LoggedIn, LoggedOut}\n\n    /**\n    * The data representation of the worker parameters used as input for\n    * the worker selection algorithm\n    */\n    struct WorkersParams {\n        uint firstBlockNumber;\n        address[] workers;\n        uint[] balances;\n        uint seed;\n    }\n\n    struct SecretContract {\n        address owner;\n        bytes32 codeHash;\n        bytes32[] stateDeltaHashes;\n        SecretContractStatus status;\n        // TODO: consider keeping an index of taskIds\n    }\n    // TODO: do we want to have a contract lifecycle?\n    enum SecretContractStatus {Undefined, Deployed}\n\n    /**\n    * The last 5 worker parameters\n    * We keep a collection of worker parameters to account for latency issues.\n    * A computation task might be conceivably given out at a certain block number\n    * but executed at a later block in a different epoch. It follows that\n    * the contract must have access to the worker parameters effective when giving\n    * out the task, otherwise the selected worker would not match. We calculated\n    * that keeping the last 5 items should be more than enough to account for\n    * all latent tasks. Tasks results will be rejected past this limit.\n    */\n    WorkersParams[5] workersParams;\n\n    // An address-based index of all registered worker\n    address[] public workerAddresses;\n    // An address-based index of all secret contracts\n    bytes32[] public scAddresses;\n\n    // A registry of all registered workers with their attributes\n    mapping(address => Worker) public workers;\n    mapping(bytes32 => TaskRecord) public tasks;\n    mapping(bytes32 => SecretContract) public contracts;\n\n    // A mapping of number of tasks deployed for each address\n    mapping(address => uint) public userTaskDeployments;\n\n    // TODO: do we keep tasks forever? if not, when do we delete them?\n    uint stakingThreshold;\n    uint public workerGroupSize;\n\n    // The events emitted by the contract\n    event Registered(address custodian, address signer);\n    event ValidatedSig(bytes sig, bytes32 hash, address workerAddr);\n    event WorkersParameterized(uint seed, uint256 blockNumber, address[] workers, uint[] balances);\n    event TaskRecordCreated(bytes32 taskId, uint fee, address sender);\n    event TaskRecordsCreated(bytes32[] taskIds, uint[] fees, address sender);\n    event ReceiptVerified(bytes32 taskId, bytes32 inStateDeltaHash, bytes32 outStateDeltaHash, bytes ethCall, bytes sig);\n    event ReceiptsVerified(bytes32[] taskIds, bytes32[] inStateDeltaHashes, bytes32[] outStateDeltaHashes, bytes ethCall, bytes sig);\n    event DepositSuccessful(address from, uint value);\n    event SecretContractDeployed(bytes32 scAddr, bytes32 codeHash);\n\n    constructor(address _tokenAddress, address _principal) public {\n        engToken = ERC20(_tokenAddress);\n        principal = _principal;\n        stakingThreshold = 1;\n        workerGroupSize = 5;\n    }\n\n    //TODO: break down these methods into services for upgradability\n\n    /**\n    * Checks if the custodian wallet is registered as a worker\n    *\n    * @param _user The custodian address of the worker\n    */\n    modifier workerRegistered(address _user) {\n        Worker memory worker = workers[_user];\n        require(worker.status != WorkerStatus.Unregistered, \"Unregistered worker.\");\n        _;\n    }\n\n    /**\n    * Checks if the custodian wallet is logged in as a worker\n    *\n    * @param _user The custodian address of the worker\n    */\n    modifier workerLoggedIn(address _user) {\n        Worker memory worker = workers[_user];\n        require(worker.status == WorkerStatus.LoggedIn, \"Worker not logged in.\");\n        _;\n    }\n\n    modifier contractDeployed(bytes32 _scAddr) {\n        require(contracts[_scAddr].status == SecretContractStatus.Deployed, \"Secret contract not deployed.\");\n        _;\n    }\n\n    /**\n    * Registers a new worker of change the signer parameters of an existing\n    * worker. This should be called by every worker (and the principal)\n    * node in order to receive tasks.\n    *\n    * @param _signer The signer address, derived from the enclave public key\n    * @param _report The RLP encoded report returned by the IAS\n    */\n    function register(address _signer, bytes memory _report)\n    public\n    {\n        // TODO: consider exit if both signer and custodian as matching\n        // If the custodian is not already register, we add an index entry\n        if (workers[msg.sender].signer == address(0)) {\n            workerAddresses.push(msg.sender);\n        }\n\n        // Set the custodian attributes\n        workers[msg.sender].signer = _signer;\n        workers[msg.sender].balance = 0;\n        workers[msg.sender].report = _report;\n        workers[msg.sender].status = WorkerStatus.Registered;\n\n        emit Registered(msg.sender, _signer);\n    }\n\n    function deposit(address _custodian, uint _amount)\n    public\n    workerRegistered(_custodian)\n    {\n        require(engToken.allowance(_custodian, address(this)) >= _amount, \"Not enough tokens allowed for transfer\");\n        require(engToken.transferFrom(_custodian, address(this), _amount));\n\n        workers[_custodian].balance = workers[_custodian].balance.add(_amount);\n\n        emit DepositSuccessful(_custodian, _amount);\n    }\n\n    function login() public workerRegistered(msg.sender) {\n        workers[msg.sender].status = WorkerStatus.LoggedIn;\n    }\n\n    function logout() public workerLoggedIn(msg.sender) {\n        workers[msg.sender].status = WorkerStatus.LoggedOut;\n    }\n\n    // TODO: should the scAddr be computed on-chain from the codeHash + some randomness\n    // TODO: should any user deploy a secret contract or only a trusted enclave?\n    function deploySecretContract(bytes32 _scAddr, bytes32 _codeHash, address _owner, bytes memory _sig)\n    public\n    workerRegistered(msg.sender)\n    {\n        bytes32 scAddr = keccak256(abi.encodePacked(_codeHash, _owner, userTaskDeployments[_owner]));\n        require(scAddr == _scAddr);\n        require(contracts[_scAddr].status == SecretContractStatus.Undefined, \"Secret contract already deployed.\");\n        bytes32 msgHash = keccak256(abi.encodePacked(_codeHash));\n        address verifyAddr = msgHash.toEthSignedMessageHash().recover(_sig);\n        require(verifyAddr == _owner);\n\n        //TODO: is this too naive?\n        contracts[_scAddr].owner = _owner;\n        contracts[_scAddr].codeHash = _codeHash;\n        contracts[_scAddr].status = SecretContractStatus.Deployed;\n        scAddresses.push(_scAddr);\n        userTaskDeployments[_owner]++;\n        emit SecretContractDeployed(scAddr, _codeHash);\n    }\n\n    function isDeployed(bytes32 _scAddr)\n    public\n    view\n    returns (bool)\n    {\n        if (contracts[_scAddr].status == SecretContractStatus.Deployed) {\n            return true;\n        } else {\n            return false;\n        }\n    }\n\n    function getCodeHash(bytes32 _scAddr)\n    public\n    view\n    contractDeployed(_scAddr)\n    returns (bytes32)\n    {\n        return contracts[_scAddr].codeHash;\n    }\n\n    function countSecretContracts()\n    public\n    view\n    returns (uint)\n    {\n        return scAddresses.length;\n    }\n\n    /**\n    * Selects address from _start up to, but not including, the _stop number\n    **/\n    function getSecretContractAddresses(uint _start, uint _stop)\n    public\n    view\n    returns (bytes32[] memory)\n    {\n        if (_stop == 0) {\n            _stop = scAddresses.length;\n        }\n        bytes32[] memory addresses = new bytes32[](_stop.sub(_start));\n        uint pos = 0;\n        for (uint i = _start; i < _stop; i++) {\n            addresses[pos] = scAddresses[i];\n            pos++;\n        }\n        return addresses;\n    }\n\n    function countStateDeltas(bytes32 _scAddr)\n    public\n    view\n    contractDeployed(_scAddr)\n    returns (uint)\n    {\n        return contracts[_scAddr].stateDeltaHashes.length;\n    }\n\n    function getStateDeltaHash(bytes32 _scAddr, uint _index)\n    public\n    view\n    contractDeployed(_scAddr)\n    returns (bytes32)\n    {\n        return contracts[_scAddr].stateDeltaHashes[_index];\n    }\n\n    /**\n    * Selects state deltas from _start up to, but not including, the _stop number\n    **/\n    function getStateDeltaHashes(bytes32 _scAddr, uint _start, uint _stop)\n    public\n    view\n    contractDeployed(_scAddr)\n    returns (bytes32[] memory)\n    {\n        if (_stop == 0) {\n            _stop = contracts[_scAddr].stateDeltaHashes.length;\n        }\n        bytes32[] memory deltas = new bytes32[](_stop.sub(_start));\n        uint pos = 0;\n        for (uint i = _start; i < _stop; i++) {\n            deltas[pos] = contracts[_scAddr].stateDeltaHashes[i];\n            pos++;\n        }\n        return deltas;\n    }\n\n    function isValidDeltaHash(bytes32 _scAddr, bytes32 _stateDeltaHash)\n    public\n    view\n    contractDeployed(_scAddr)\n    returns (bool)\n    {\n        bool valid = false;\n        for (uint i = 0; i < contracts[_scAddr].stateDeltaHashes.length; i++) {\n            if (contracts[_scAddr].stateDeltaHashes[i] == _stateDeltaHash) {\n                valid = true;\n                break;\n            }\n        }\n        return valid;\n    }\n\n    /**\n    * Store task record\n    *\n    */\n    function createTaskRecord(\n        bytes32 _taskIdInputHash,\n        uint _fee\n    )\n    public\n    {\n        require(engToken.allowance(msg.sender, address(this)) >= _fee, \"Allowance not enough\");\n        require(engToken.transferFrom(msg.sender, address(this), _fee), \"Transfer not valid\");\n\n        // Create taskId\n        bytes32 taskId = keccak256(abi.encodePacked(_taskIdInputHash, userTaskDeployments[msg.sender]));\n        require(tasks[taskId].sender == address(0), \"Task already exist.\");\n\n        tasks[taskId].fee = _fee;\n        tasks[taskId].sender = msg.sender;\n        tasks[taskId].blockNumber = block.number;\n        tasks[taskId].status = TaskStatus.RecordCreated;\n\n        userTaskDeployments[msg.sender]++;\n\n        emit TaskRecordCreated(taskId, _fee, msg.sender);\n    }\n\n    function createTaskRecords(\n        bytes32[] memory _taskIdInputHashes,\n        uint[] memory _fees\n    )\n    public\n    {\n        for (uint i = 0; i < _taskIdInputHashes.length; i++) {\n            require(engToken.allowance(msg.sender, address(this)) >= _fees[i], \"Allowance not enough\");\n            require(engToken.transferFrom(msg.sender, address(this), _fees[i]), \"Transfer not valid\");\n\n            bytes32 taskId = keccak256(abi.encodePacked(_taskIdInputHashes[i], userTaskDeployments[msg.sender]));\n            require(tasks[taskId].sender == address(0), \"Task already exist.\");\n\n            tasks[taskId].fee = _fees[i];\n            tasks[taskId].sender = msg.sender;\n            tasks[taskId].status = TaskStatus.RecordCreated;\n        }\n        emit TaskRecordsCreated(_taskIdInputHashes, _fees, msg.sender);\n    }\n\n    // Execute the encoded function in the specified contract\n    function executeCall(address _to, uint256 _value, bytes memory _data)\n    internal\n    returns (bool success)\n    {\n        assembly {\n            success := call(gas, _to, _value, add(_data, 0x20), mload(_data), 0, 0)\n        }\n    }\n\n    function verifyReceipt(\n        bytes32 _scAddr,\n        bytes32 _taskId,\n        bytes32 _inStateDeltaHash,\n        bytes32 _outStateDeltaHash,\n        bytes memory _ethCall,\n        bytes memory _sig\n    )\n    internal\n    {\n        uint index = contracts[_scAddr].stateDeltaHashes.length;\n        if (index == 0) {\n            require(_inStateDeltaHash == 0x0, 'Invalid input state delta hash for empty state');\n        } else {\n            require(_inStateDeltaHash == contracts[_scAddr].stateDeltaHashes[index.sub(1)], 'Invalid input state delta hash');\n        }\n        contracts[_scAddr].stateDeltaHashes.push(_outStateDeltaHash);\n\n        // TODO: execute the Ethereum calls\n\n        // Build a hash to validate that the I/Os are matching\n        bytes32 hash = keccak256(abi.encodePacked(_taskId, _inStateDeltaHash, _outStateDeltaHash, _ethCall));\n\n        // The worker address is not a real Ethereum wallet address but\n        // one generated from its signing key\n        address workerAddr = hash.recover(_sig);\n        require(workerAddr == workers[msg.sender].signer, \"Invalid signature.\");\n    }\n\n    /**\n    * Commit the computation task results on chain\n    */\n    function commitReceipt(\n        bytes32 _scAddr,\n        bytes32 _taskId,\n        bytes32 _inStateDeltaHash,\n        bytes32 _outStateDeltaHash,\n        bytes memory _ethCall,\n        bytes memory _sig\n    )\n    public\n    workerLoggedIn(msg.sender)\n    contractDeployed(_scAddr)\n    {\n        require(tasks[_taskId].status == TaskStatus.RecordCreated, 'Invalid task status');\n        verifyReceipt(_scAddr, _taskId, _inStateDeltaHash, _outStateDeltaHash, _ethCall, _sig);\n\n        tasks[_taskId].proof = _sig;\n        tasks[_taskId].status = TaskStatus.ReceiptVerified;\n        workers[msg.sender].balance = workers[msg.sender].balance.add(tasks[_taskId].fee);\n        emit ReceiptVerified(_taskId, _inStateDeltaHash, _outStateDeltaHash, _ethCall, _sig);\n    }\n\n    function verifyReceipts(\n        bytes32 _scAddr,\n        bytes32[] memory _taskIds,\n        bytes32[] memory _inStateDeltaHashes,\n        bytes32[] memory _outStateDeltaHashes,\n        bytes memory _ethCall,\n        bytes memory _sig\n    )\n    internal\n    {\n        // First, we verify the state delta hashes ordering\n        uint index = contracts[_scAddr].stateDeltaHashes.length;\n        if (index == 0) {\n            require(_inStateDeltaHashes[0] == 0x0, 'Invalid input state delta hash for empty state');\n        } else {\n            require(_inStateDeltaHashes[0] == contracts[_scAddr].stateDeltaHashes[index.sub(1)], 'Invalid input state delta hash');\n        }\n        for (uint i = 0; i < _taskIds.length; i++) {\n            require(tasks[_taskIds[i]].status == TaskStatus.RecordCreated, 'Invalid task status');\n            if (i > 0) {\n                require(_inStateDeltaHashes[i] == _outStateDeltaHashes[i - 1], 'Invalid state delta hashes ordering');\n            }\n        }\n        // TODO: verify signature\n        // Then, we store the outStateDeltaHashes\n        for (uint ic = 0; ic < _taskIds.length; ic++) {\n            contracts[_scAddr].stateDeltaHashes.push(_outStateDeltaHashes[ic]);\n            if (ic == _taskIds.length.sub(1)) {\n                tasks[_taskIds[ic]].proof = _sig;\n            }\n            tasks[_taskIds[ic]].status = TaskStatus.ReceiptVerified;\n            workers[msg.sender].balance = workers[msg.sender].balance.add(tasks[_taskIds[ic]].fee);\n        }\n        // TODO: execute the Ethereum calls\n    }\n\n    function commitReceipts(\n        bytes32 _scAddr,\n        bytes32[] memory _taskIds,\n        bytes32[] memory _inStateDeltaHashes,\n        bytes32[] memory _outStateDeltaHashes,\n        bytes memory _ethCall,\n        bytes memory _sig\n    )\n    public\n    workerLoggedIn(msg.sender)\n    contractDeployed(_scAddr)\n    {\n        verifyReceipts(_scAddr, _taskIds, _inStateDeltaHashes, _outStateDeltaHashes, _ethCall, _sig);\n        emit ReceiptsVerified(_taskIds, _inStateDeltaHashes, _outStateDeltaHashes, _ethCall, _sig);\n    }\n\n    // Verify the signature submitted while reparameterizing workers\n    function verifyParamsSig(uint256 _seed, bytes memory _sig)\n    internal\n    pure\n    returns (address)\n    {\n        bytes32 hash = keccak256(abi.encodePacked(_seed));\n        address signer = hash.recover(_sig);\n        return signer;\n    }\n\n    /**\n    * Reparameterizing workers with a new seed\n    * This should be called for each epoch by the Principal node\n    *\n    * @param _seed The random integer generated by the enclave\n    * @param _sig The random integer signed by the the principal node's enclave\n    */\n    function setWorkersParams(uint _seed, bytes memory _sig)\n    public\n    workerRegistered(msg.sender)\n    {\n        // Reparameterizing workers with a new seed\n        // This should be called for each epoch by the Principal node\n\n        // We assume that the Principal is always the first registered node\n        require(workers[msg.sender].signer == principal, \"Only the Principal can update the seed\");\n        // TODO: verify the principal sig\n\n        // Create a new workers parameters item for the specified seed.\n        // The workers parameters list is a sort of cache, it never grows beyond its limit.\n        // If the list is full, the new item will replace the item assigned to the lowest block number.\n        uint paramIndex = 0;\n        for (uint pi = 0; pi < workersParams.length; pi++) {\n            // Find an empty slot in the array, if full use the lowest block number\n            if (workersParams[pi].firstBlockNumber == 0) {\n                paramIndex = pi;\n                break;\n            } else if (workersParams[pi].firstBlockNumber < workersParams[paramIndex].firstBlockNumber) {\n                paramIndex = pi;\n            }\n        }\n        workersParams[paramIndex].firstBlockNumber = block.number;\n        workersParams[paramIndex].seed = _seed;\n\n        // Copy the current worker list\n        uint workerIndex = 0;\n        for (uint wi = 0; wi < workerAddresses.length; wi++) {\n            Worker memory worker = workers[workerAddresses[wi]];\n            if ((worker.balance >= stakingThreshold) && (worker.signer != principal) &&\n                (worker.status == WorkerStatus.LoggedIn)) {\n                workersParams[paramIndex].workers.length++;\n                workersParams[paramIndex].workers[workerIndex] = workerAddresses[wi];\n\n                workersParams[paramIndex].balances.length++;\n                workersParams[paramIndex].balances[workerIndex] = worker.balance;\n\n                workerIndex = workerIndex.add(1);\n            }\n        }\n        emit WorkersParameterized(_seed, block.number, workersParams[paramIndex].workers, workersParams[paramIndex].balances);\n    }\n\n    function getWorkerParamsIndex(uint _blockNumber)\n    internal\n    view\n    returns (uint)\n    {\n        // The workers parameters for a given block number\n        int8 index = - 1;\n        for (uint i = 0; i < workersParams.length; i++) {\n            if (workersParams[i].firstBlockNumber <= _blockNumber && (index == - 1 || workersParams[i].firstBlockNumber > workersParams[uint(index)].firstBlockNumber)) {\n                index = int8(i);\n            }\n        }\n        require(index != - 1, \"No workers parameters entry for specified block number\");\n        return uint(index);\n    }\n\n    function getWorkerParams(uint _blockNumber)\n    public\n    view\n    returns (uint, uint, address[] memory, uint[] memory) {\n        uint index = getWorkerParamsIndex(_blockNumber);\n        WorkersParams memory params = workersParams[index];\n        return (params.firstBlockNumber, params.seed, params.workers, params.balances);\n    }\n\n    function compileTokens(uint _blockNumber, uint _paramIndex, bytes32 _scAddr, uint _nonce)\n    internal\n    view\n    returns (address)\n    {\n        WorkersParams memory params = workersParams[_paramIndex];\n        uint tokenCpt = 0;\n        for (uint i = 0; i < params.workers.length; i++) {\n            if (params.workers[i] != address(0)) {\n                tokenCpt = tokenCpt.add(params.balances[i]);\n            }\n        }\n        bytes32 randHash = keccak256(abi.encodePacked(_blockNumber, params.seed, params.firstBlockNumber, _scAddr,\n            tokenCpt, _nonce));\n        int randVal = int256(uint256(randHash) % tokenCpt);\n        for (uint k = 0; k < params.workers.length; k++) {\n            if (params.workers[k] != address(0)) {\n                randVal -= int256(params.balances[k]);\n                if (randVal <= 0) {\n                    return params.workers[k];\n                }\n            }\n        }\n        return params.workers[params.workers.length - 1];\n    }\n\n    function getWorkerGroup(uint _blockNumber, bytes32 _scAddr)\n    public\n    view\n    returns (address[] memory)\n    {\n        // Compile a list of selected workers for the block number and\n        // secret contract.\n        uint paramIndex = getWorkerParamsIndex(_blockNumber);\n        WorkersParams memory params = workersParams[paramIndex];\n\n        address[] memory selectedWorkers = new address[](workerGroupSize);\n        uint nonce = 0;\n        for (uint it = 0; it < workerGroupSize; it++) {\n            do {\n                address worker = compileTokens(_blockNumber, paramIndex, _scAddr, nonce);\n                bool dup = false;\n                for (uint id = 0; id < selectedWorkers.length; id++) {\n                    if (worker == selectedWorkers[id]) {\n                        dup = true;\n                        break;\n                    }\n                }\n                if (dup == false) {\n                    selectedWorkers[it] = worker;\n                }\n                nonce++;\n            }\n            while (selectedWorkers[it] == address(0));\n        }\n        return selectedWorkers;\n    }\n\n    /**\n    * The worker parameters corresponding to the specified block number\n    *\n    * @param _blockNumber The reference block number\n    */\n    function getWorkersParams(uint _blockNumber)\n    public\n    view\n    returns (uint, uint, address[] memory, address[] memory)\n    {\n        // TODO: finalize implementation\n        uint firstBlockNumber = 0;\n        uint seed = 0;\n        address[] memory activeWorkers;\n        address[] memory activeContracts;\n        return (firstBlockNumber, seed, activeWorkers, activeContracts);\n    }\n\n    /**\n    * The RLP encoded report returned by the IAS server\n    *\n    * @param _custodian The worker's custodian address\n    */\n    function getReport(address _custodian)\n    public\n    view\n    workerRegistered(_custodian)\n    returns (address, bytes memory)\n    {\n        // The RLP encoded report and signer's address for the specified worker\n        require(workers[_custodian].signer != address(0), \"Worker not registered\");\n        return (workers[_custodian].signer, workers[_custodian].report);\n    }\n}\n",
  "sourcePath": "/Users/adityapalepu/Startups/enigma/enigma-contract-internal/contracts/Enigma.sol",
  "compiler": {
    "name": "solc",
    "version": "0.5.0+commit.1d4f565a.Emscripten.clang"
  },
  "schemaVersion": "3.0.0",
  "updatedAt": "2019-01-04T17:06:44.003Z",
  "devdoc": {
    "methods": {
      "getReport(address)": {
        "params": {
          "_custodian": "The worker's custodian address"
        }
      },
      "getWorkersParams(uint256)": {
        "params": {
          "_blockNumber": "The reference block number"
        }
      },
      "register(address,bytes)": {
        "params": {
          "_report": "The RLP encoded report returned by the IAS",
          "_signer": "The signer address, derived from the enclave public key"
        }
      },
      "setWorkersParams(uint256,bytes)": {
        "params": {
          "_seed": "The random integer generated by the enclave",
          "_sig": "The random integer signed by the the principal node's enclave"
        }
      }
    }
  },
  "userdoc": {
    "methods": {
      "commitReceipt(bytes32,bytes32,bytes32,bytes32,bytes,bytes)": {
        "notice": "Commit the computation task results on chain"
      },
      "createTaskRecord(bytes32,uint256)": {
        "notice": "Store task record    "
      },
      "getReport(address)": {
        "notice": "The RLP encoded report returned by the IAS server"
      },
      "getSecretContractAddresses(uint256,uint256)": {
        "notice": "Selects address from _start up to, but not including, the _stop number*"
      },
      "getStateDeltaHashes(bytes32,uint256,uint256)": {
        "notice": "Selects state deltas from _start up to, but not including, the _stop number*"
      },
      "getWorkersParams(uint256)": {
        "notice": "The worker parameters corresponding to the specified block number"
      },
      "register(address,bytes)": {
        "notice": "Registers a new worker of change the signer parameters of an existing worker. This should be called by every worker (and the principal) node in order to receive tasks."
      },
      "setWorkersParams(uint256,bytes)": {
        "notice": "Reparameterizing workers with a new seed This should be called for each epoch by the Principal node"
      }
    }
  }
}