{
  "contractName": "Enigma",
  "abi": [
    {
      "constant": true,
      "inputs": [
        {
          "name": "",
          "type": "uint256"
        }
      ],
      "name": "workerAddresses",
      "outputs": [
        {
          "name": "",
          "type": "address"
        }
      ],
      "payable": false,
      "stateMutability": "view",
      "type": "function"
    },
    {
      "constant": true,
      "inputs": [
        {
          "name": "",
          "type": "address"
        }
      ],
      "name": "workers",
      "outputs": [
        {
          "name": "signer",
          "type": "address"
        },
        {
          "name": "status",
          "type": "uint8"
        },
        {
          "name": "report",
          "type": "bytes"
        },
        {
          "name": "balance",
          "type": "uint256"
        }
      ],
      "payable": false,
      "stateMutability": "view",
      "type": "function"
    },
    {
      "constant": true,
      "inputs": [],
      "name": "engToken",
      "outputs": [
        {
          "name": "",
          "type": "address"
        }
      ],
      "payable": false,
      "stateMutability": "view",
      "type": "function"
    },
    {
      "constant": true,
      "inputs": [
        {
          "name": "",
          "type": "bytes32"
        }
      ],
      "name": "tasks",
      "outputs": [
        {
          "name": "dappContract",
          "type": "address"
        },
        {
          "name": "status",
          "type": "uint8"
        },
        {
          "name": "callable",
          "type": "string"
        },
        {
          "name": "callableArgs",
          "type": "bytes"
        },
        {
          "name": "callback",
          "type": "string"
        },
        {
          "name": "worker",
          "type": "address"
        },
        {
          "name": "sig",
          "type": "bytes"
        },
        {
          "name": "reward",
          "type": "uint256"
        },
        {
          "name": "blockNumber",
          "type": "uint256"
        }
      ],
      "payable": false,
      "stateMutability": "view",
      "type": "function"
    },
    {
      "inputs": [
        {
          "name": "_tokenAddress",
          "type": "address"
        },
        {
          "name": "_principal",
          "type": "address"
        }
      ],
      "payable": false,
      "stateMutability": "nonpayable",
      "type": "constructor"
    },
    {
      "anonymous": false,
      "inputs": [
        {
          "indexed": false,
          "name": "custodian",
          "type": "address"
        },
        {
          "indexed": false,
          "name": "signer",
          "type": "address"
        },
        {
          "indexed": false,
          "name": "_success",
          "type": "bool"
        }
      ],
      "name": "Register",
      "type": "event"
    },
    {
      "anonymous": false,
      "inputs": [
        {
          "indexed": false,
          "name": "sig",
          "type": "bytes"
        },
        {
          "indexed": false,
          "name": "hash",
          "type": "bytes32"
        },
        {
          "indexed": false,
          "name": "workerAddr",
          "type": "address"
        },
        {
          "indexed": false,
          "name": "_success",
          "type": "bool"
        }
      ],
      "name": "ValidatedSig",
      "type": "event"
    },
    {
      "anonymous": false,
      "inputs": [
        {
          "indexed": false,
          "name": "dappContract",
          "type": "address"
        },
        {
          "indexed": false,
          "name": "worker",
          "type": "address"
        },
        {
          "indexed": false,
          "name": "sig",
          "type": "bytes"
        },
        {
          "indexed": false,
          "name": "reward",
          "type": "uint256"
        },
        {
          "indexed": false,
          "name": "_success",
          "type": "bool"
        }
      ],
      "name": "CommitResults",
      "type": "event"
    },
    {
      "anonymous": false,
      "inputs": [
        {
          "indexed": false,
          "name": "seed",
          "type": "uint256"
        },
        {
          "indexed": false,
          "name": "workers",
          "type": "address[]"
        },
        {
          "indexed": false,
          "name": "_success",
          "type": "bool"
        }
      ],
      "name": "WorkersParameterized",
      "type": "event"
    },
    {
      "anonymous": false,
      "inputs": [
        {
          "indexed": true,
          "name": "dappContract",
          "type": "address"
        },
        {
          "indexed": true,
          "name": "taskId",
          "type": "bytes32"
        },
        {
          "indexed": false,
          "name": "callable",
          "type": "string"
        },
        {
          "indexed": false,
          "name": "callableArgs",
          "type": "bytes"
        },
        {
          "indexed": false,
          "name": "callback",
          "type": "string"
        },
        {
          "indexed": false,
          "name": "fee",
          "type": "uint256"
        },
        {
          "indexed": false,
          "name": "preprocessors",
          "type": "bytes32[]"
        },
        {
          "indexed": false,
          "name": "blockNumber",
          "type": "uint256"
        },
        {
          "indexed": false,
          "name": "_success",
          "type": "bool"
        }
      ],
      "name": "ComputeTask",
      "type": "event"
    },
    {
      "constant": false,
      "inputs": [
        {
          "name": "signer",
          "type": "address"
        },
        {
          "name": "report",
          "type": "bytes"
        }
      ],
      "name": "register",
      "outputs": [
        {
          "name": "",
          "type": "uint8"
        }
      ],
      "payable": true,
      "stateMutability": "payable",
      "type": "function"
    },
    {
      "constant": true,
      "inputs": [
        {
          "name": "dappContract",
          "type": "address"
        },
        {
          "name": "callable",
          "type": "string"
        },
        {
          "name": "callableArgs",
          "type": "bytes"
        },
        {
          "name": "blockNumber",
          "type": "uint256"
        }
      ],
      "name": "generateTaskId",
      "outputs": [
        {
          "name": "",
          "type": "bytes32"
        }
      ],
      "payable": false,
      "stateMutability": "pure",
      "type": "function"
    },
    {
      "constant": false,
      "inputs": [
        {
          "name": "taskId",
          "type": "bytes"
        },
        {
          "name": "fee",
          "type": "uint256"
        }
      ],
      "name": "createTaskRecord",
      "outputs": [],
      "payable": false,
      "stateMutability": "nonpayable",
      "type": "function"
    },
    {
      "constant": false,
      "inputs": [
        {
          "name": "taskId",
          "type": "bytes32"
        },
        {
          "name": "data",
          "type": "bytes"
        },
        {
          "name": "sig",
          "type": "bytes"
        },
        {
          "name": "blockNumber",
          "type": "uint256"
        }
      ],
      "name": "commitResults",
      "outputs": [
        {
          "name": "",
          "type": "uint8"
        }
      ],
      "payable": false,
      "stateMutability": "nonpayable",
      "type": "function"
    },
    {
      "constant": false,
      "inputs": [
        {
          "name": "seed",
          "type": "uint256"
        },
        {
          "name": "sig",
          "type": "bytes"
        }
      ],
      "name": "setWorkersParams",
      "outputs": [
        {
          "name": "",
          "type": "uint8"
        }
      ],
      "payable": false,
      "stateMutability": "nonpayable",
      "type": "function"
    },
    {
      "constant": true,
      "inputs": [
        {
          "name": "blockNumber",
          "type": "uint256"
        }
      ],
      "name": "getWorkersParams",
      "outputs": [
        {
          "name": "",
          "type": "uint256"
        },
        {
          "name": "",
          "type": "uint256"
        },
        {
          "name": "",
          "type": "address[]"
        }
      ],
      "payable": false,
      "stateMutability": "view",
      "type": "function"
    },
    {
      "constant": true,
      "inputs": [
        {
          "name": "blockNumber",
          "type": "uint256"
        },
        {
          "name": "taskId",
          "type": "bytes32"
        }
      ],
      "name": "selectWorker",
      "outputs": [
        {
          "name": "",
          "type": "address"
        }
      ],
      "payable": false,
      "stateMutability": "view",
      "type": "function"
    },
    {
      "constant": true,
      "inputs": [
        {
          "name": "custodian",
          "type": "address"
        }
      ],
      "name": "getReport",
      "outputs": [
        {
          "name": "",
          "type": "address"
        },
        {
          "name": "",
          "type": "bytes"
        }
      ],
      "payable": false,
      "stateMutability": "view",
      "type": "function"
    }
  ],
  "bytecode": "0x608060405234801561001057600080fd5b5060405160408061279483398101604052805160209091015160008054600160a060020a03938416600160a060020a0319918216179091556001805493909216921691909117905561272d806100676000396000f3006080604052600436106100b95763ffffffff7c01000000000000000000000000000000000000000000000000000000006000350416630a318da081146100be57806324b8fbf6146100f25780632873e73c146101705780634048a257146101ce57806341f53fa41461029457806348aa8573146102af57806359c91a12146103685780636a4b462e146103e25780639489ad401461043f578063a3bdae3e14610454578063a944c0cd14610506578063e579f500146105a4575b600080fd5b3480156100ca57600080fd5b506100d66004356107b2565b60408051600160a060020a039092168252519081900360200190f35b60408051602060046024803582810135601f810185900485028601850190965285855261014c958335600160a060020a03169536956044949193909101919081908401838280828437509497506107da9650505050505050565b6040518082600181111561015c57fe5b60ff16815260200191505060405180910390f35b34801561017c57600080fd5b5060408051602060046024803582810135601f810185900485028601850190965285855261014c9583359536956044949193909101919081908401838280828437509497506109269650505050505050565b3480156101da57600080fd5b506101ef600160a060020a0360043516610d99565b6040518085600160a060020a0316600160a060020a031681526020018460ff1660ff16815260200180602001838152602001828103825284818151815260200191508051906020019080838360005b8381101561025657818101518382015260200161023e565b50505050905090810190601f1680156102835780820380516001836020036101000a031916815260200191505b509550505050505060405180910390f35b3480156102a057600080fd5b506100d6600435602435610e5d565b3480156102bb57600080fd5b5060408051602060046024803582810135601f8101859004850286018501909652858552610356958335600160a060020a031695369560449491939091019190819084018382808284375050604080516020601f89358b018035918201839004830284018301909452808352979a9998810197919650918201945092508291508401838280828437509497505093359450610f3b9350505050565b60408051918252519081900360200190f35b34801561037457600080fd5b5061038060043561107b565b6040518084815260200183815260200180602001828103825283818151815260200191508051906020019060200280838360005b838110156103cc5781810151838201526020016103b4565b5050505090500194505050505060405180910390f35b3480156103ee57600080fd5b506040805160206004803580820135601f810184900484028501840190955284845261043d94369492936024939284019190819084018382808284375094975050933594506111dd9350505050565b005b34801561044b57600080fd5b506100d66111f2565b34801561046057600080fd5b50610475600160a060020a0360043516611201565b6040518083600160a060020a0316600160a060020a0316815260200180602001828103825283818151815260200191508051906020019080838360005b838110156104ca5781810151838201526020016104b2565b50505050905090810190601f1680156104f75780820380516001836020036101000a031916815260200191505b50935050505060405180910390f35b34801561051257600080fd5b5060408051602060046024803582810135601f810185900485028601850190965285855261014c95833595369560449491939091019190819084018382808284375050604080516020601f89358b018035918201839004830284018301909452808352979a999881019791965091820194509250829150840183828082843750949750509335945061147c9350505050565b3480156105b057600080fd5b506105bc600435611d1a565b604051600160a060020a038a168152602081018960018111156105db57fe5b60ff16815260200180602001806020018060200188600160a060020a0316600160a060020a031681526020018060200187815260200186815260200185810385528c818151815260200191508051906020019080838360005b8381101561064c578181015183820152602001610634565b50505050905090810190601f1680156106795780820380516001836020036101000a031916815260200191505b5085810384528b5181528b516020918201918d019080838360005b838110156106ac578181015183820152602001610694565b50505050905090810190601f1680156106d95780820380516001836020036101000a031916815260200191505b5085810383528a5181528a516020918201918c019080838360005b8381101561070c5781810151838201526020016106f4565b50505050905090810190601f1680156107395780820380516001836020036101000a031916815260200191505b5085810382528851815288516020918201918a019080838360005b8381101561076c578181015183820152602001610754565b50505050905090810190601f1680156107995780820380516001836020036101000a031916815260200191505b509d505050505050505050505050505060405180910390f35b60118054829081106107c057fe5b600091825260209091200154600160a060020a0316905081565b336000908152601260205260408120548190600160a060020a0316151561085057506011805490819061081090600183016125e6565b503360118281548110151561082157fe5b9060005260206000200160006101000a815481600160a060020a030219169083600160a060020a031602179055505b336000908152601260209081526040909120805473ffffffffffffffffffffffffffffffffffffffff1916600160a060020a03871617815534600282015584516108a29260019092019186019061260f565b5033600081815260126020908152604091829020805474ff0000000000000000000000000000000000000000191660a060020a1790558151928352600160a060020a03871690830152600182820152517faea7118a676707165821e4678d9998eaabd7a2864b5db99ec0badef3fb7fa1e49181900360600190a15060009392505050565b60008060008060003361093761268d565b600160a060020a0382811660009081526012602090815260409182902082516080810184528154948516815260a060020a90940460ff1684830152600180820180548551600261010094831615949094026000190190911692909204601f810185900485028301850186528083529294860193919290918301828280156109ff5780601f106109d4576101008083540402835291602001916109ff565b820191906000526020600020905b8154815290600101906020018083116109e257829003601f168201915b5050505050815260200160028201548152505090506000816020015160ff16111515610a75576040805160e560020a62461bcd02815260206004820152601460248201527f556e7265676973746572656420776f726b65722e000000000000000000000000604482015290519081900360640190fd5b60015433600090815260126020526040902054600160a060020a03908116911614610b10576040805160e560020a62461bcd02815260206004820152602660248201527f4f6e6c7920746865205072696e636970616c2063616e2075706461746520746860448201527f6520736565640000000000000000000000000000000000000000000000000000606482015290519081900360840190fd5b610b1a8989611fa7565b600154909650600160a060020a03808816911614610b82576040805160e560020a62461bcd02815260206004820152601160248201527f496e76616c6964207369676e6174757265000000000000000000000000000000604482015290519081900360640190fd5b60009450600093505b6005841015610bed5760028460058110610ba157fe5b60030201541515610bb457839450610bed565b60028560058110610bc157fe5b600302015460028560058110610bd357fe5b60030201541015610be2578394505b600190930192610b8b565b4360028660058110610bfb57fe5b60030201558860028660058110610c0e57fe5b6003020160020181905550600092505b601154831015610cf5576011805484908110610c3657fe5b600091825260209091200154600160a060020a031615610cea5760028560058110610c5d57fe5b600302016001018054809190600101610c7691906125e6565b506011805484908110610c8557fe5b600091825260209091200154600160a060020a031660028660058110610ca757fe5b6003020160010184815481101515610cbb57fe5b9060005260206000200160006101000a815481600160a060020a030219169083600160a060020a031602179055505b600190920191610c1e565b7f363e1a0b29df899b2a8946ad6ac8f81796117158a11dc2c2a5b8c0297789ffa189601160016040518084815260200180602001831515151581526020018281038252848181548152602001915080548015610d7a57602002820191906000526020600020905b8154600160a060020a03168152600190910190602001808311610d5c575b505094505050505060405180910390a150600098975050505050505050565b6012602090815260009182526040918290208054600180830180548651600261010094831615949094026000190190911692909204601f8101869004860283018601909652858252600160a060020a0383169560a060020a90930460ff169491929091830182828015610e4d5780601f10610e2257610100808354040283529160200191610e4d565b820191906000526020600020905b815481529060010190602001808311610e3057829003601f168201915b5050505050908060020154905084565b6000806000606080600080610e718961107b565b955095509550610e808461203f565b6040805160208082018990528183018c90528251808303840181526060909201928390528151939650909282918401908083835b60208310610ed35780518252601f199092019160209182019101610eb4565b6001836020036101000a0380198251168184511680821785525050505050509050019150506040518091039020915082518260019004811515610f1257fe5b0690508281815181101515610f2357fe5b90602001906020020151965050505050505092915050565b600080858585856040516020018085600160a060020a0316600160a060020a03166c0100000000000000000000000002815260140184805190602001908083835b60208310610f9b5780518252601f199092019160209182019101610f7c565b51815160209384036101000a600019018019909216911617905286519190930192860191508083835b60208310610fe35780518252601f199092019160209182019101610fc4565b51815160209384036101000a6000190180199092169116179052920193845250604080518085038152938201908190528351939650945084935085019190508083835b602083106110455780518252601f199092019160209182019101611026565b5181516020939093036101000a600019018019909116921691909117905260405192018290039091209998505050505050505050565b600080606060008061108b6126c2565b6060611096886121f5565b9350600019600085900b141561111c576040805160e560020a62461bcd02815260206004820152603660248201527f4e6f20776f726b65727320706172616d657465727320656e74727920666f722060448201527f73706563696669656420626c6f636b206e756d62657200000000000000000000606482015290519081900360840190fd5b600084900b92506002836005811061113057fe5b600302016060604051908101604052908160008201548152602001600182018054806020026020016040519081016040528092919081815260200182805480156111a357602002820191906000526020600020905b8154600160a060020a03168152600190910190602001808311611185575b5050505050815260200160028201548152505091506111c5826020015161203f565b82516040909301519299929850965090945050505050565b60408051808201909152918252602090910152565b600054600160a060020a031681565b600060608261120e61268d565b600160a060020a0382811660009081526012602090815260409182902082516080810184528154948516815260a060020a90940460ff1684830152600180820180548551600261010094831615949094026000190190911692909204601f810185900485028301850186528083529294860193919290918301828280156112d65780601f106112ab576101008083540402835291602001916112d6565b820191906000526020600020905b8154815290600101906020018083116112b957829003601f168201915b5050505050815260200160028201548152505090506000816020015160ff1611151561134c576040805160e560020a62461bcd02815260206004820152601460248201527f556e7265676973746572656420776f726b65722e000000000000000000000000604482015290519081900360640190fd5b600160a060020a038086166000908152601260205260409020541615156113bd576040805160e560020a62461bcd02815260206004820152601560248201527f576f726b6572206e6f7420726567697374657265640000000000000000000000604482015290519081900360640190fd5b600160a060020a038581166000908152601260209081526040918290208054600191820180548551600261010095831615959095026000190190911693909304601f810185900485028401850190955284835294169392909183919083018282801561146a5780601f1061143f5761010080835404028352916020019161146a565b820191906000526020600020905b81548152906001019060200180831161144d57829003601f168201915b50505050509050935093505050915091565b6000806000803361148b61268d565b600160a060020a0382811660009081526012602090815260409182902082516080810184528154948516815260a060020a90940460ff1684830152600180820180548551600261010094831615949094026000190190911692909204601f810185900485028301850186528083529294860193919290918301828280156115535780601f1061152857610100808354040283529160200191611553565b820191906000526020600020905b81548152906001019060200180831161153657829003601f168201915b5050505050815260200160028201548152505090506000816020015160ff161115156115c9576040805160e560020a62461bcd02815260206004820152601460248201527f556e7265676973746572656420776f726b65722e000000000000000000000000604482015290519081900360640190fd5b6000808b81526013602052604090205460a060020a900460ff1660018111156115ee57fe5b14611669576040805160e560020a62461bcd02815260206004820152602960248201527f496c6c6567616c207374617475732c207461736b206d75737420626520696e2060448201527f70726f67726573732e0000000000000000000000000000000000000000000000606482015290519081900360840190fd5b4387106116c0576040805160e560020a62461bcd02815260206004820152601b60248201527f426c6f636b206e756d62657220696e20746865206675747572652e0000000000604482015290519081900360640190fd5b60008a815260136020908152604091829020825161012081019093528054600160a060020a03811684526119a0939283019060a060020a900460ff16600181111561170757fe5b600181111561171257fe5b8152602001600182018054600181600116156101000203166002900480601f0160208091040260200160405190810160405280929190818152602001828054600181600116156101000203166002900480156117af5780601f10611784576101008083540402835291602001916117af565b820191906000526020600020905b81548152906001019060200180831161179257829003601f168201915b5050509183525050600282810180546040805160206001841615610100026000190190931694909404601f810183900483028501830190915280845293810193908301828280156118415780601f1061181657610100808354040283529160200191611841565b820191906000526020600020905b81548152906001019060200180831161182457829003601f168201915b505050918352505060038201805460408051602060026001851615610100026000190190941693909304601f81018490048402820184019092528181529382019392918301828280156118d55780601f106118aa576101008083540402835291602001916118d5565b820191906000526020600020905b8154815290600101906020018083116118b857829003601f168201915b50505091835250506004820154600160a060020a031660208083019190915260058301805460408051601f6002600019600186161561010002019094169390930492830185900485028101850182528281529401939283018282801561197c5780601f106119515761010080835404028352916020019161197c565b820191906000526020600020905b81548152906001019060200180831161195f57829003601f168201915b50505050508152602001600682015481526020016007820154815250508a8a612271565b9450600160a060020a0385161515611a02576040805160e560020a62461bcd02815260206004820152601d60248201527f43616e6e6f74207665726966792074686973207369676e61747572652e000000604482015290519081900360640190fd5b33600090815260126020526040902054600160a060020a03868116911614611a74576040805160e560020a62461bcd02815260206004820152601260248201527f496e76616c6964207369676e61747572652e0000000000000000000000000000604482015290519081900360640190fd5b60008a81526013602052604081206006015494508411611ade576040805160e560020a62461bcd02815260206004820152601660248201527f5265776172642063616e6e6f74206265207a65726f2e00000000000000000000604482015290519081900360640190fd5b60008a815260136020526040812054611b0391600160a060020a03909116908b6124c0565b1515611b59576040805160e560020a62461bcd02815260206004820152601d60248201527f556e61626c6520746f20696e766f6b65207468652063616c6c6261636b000000604482015290519081900360640190fd5b60008a815260136020908152604090912060048101805473ffffffffffffffffffffffffffffffffffffffff1916331790558951611b9f926005909201918b019061260f565b5060008a8152601360209081526040808320805474ff0000000000000000000000000000000000000000191660a060020a179055338352601290915290206002810154909350611bef90856124d7565b83600201819055507f860ef3e30d5efeaa79f3d448bd5219e9b92ca92eefb7bcc4e8c6b3420fe9dd3d601360008c6000191660001916815260200190815260200160002060000160009054906101000a9004600160a060020a0316868a8760016040518086600160a060020a0316600160a060020a0316815260200185600160a060020a0316600160a060020a031681526020018060200184815260200183151515158152602001828103825285818151815260200191508051906020019080838360005b83811015611ccc578181015183820152602001611cb4565b50505050905090810190601f168015611cf95780820380516001836020036101000a031916815260200191505b50965050505050505060405180910390a15060009998505050505050505050565b6013602090815260009182526040918290208054600180830180548651600261010094831615949094026000190190911692909204601f8101869004860283018601909652858252600160a060020a0383169560a060020a90930460ff169491929091830182828015611dce5780601f10611da357610100808354040283529160200191611dce565b820191906000526020600020905b815481529060010190602001808311611db157829003601f168201915b50505060028085018054604080516020601f6000196101006001871615020190941695909504928301859004850281018501909152818152959695945090925090830182828015611e605780601f10611e3557610100808354040283529160200191611e60565b820191906000526020600020905b815481529060010190602001808311611e4357829003601f168201915b5050505060038301805460408051602060026001851615610100026000190190941693909304601f8101849004840282018401909252818152949594935090830182828015611ef05780601f10611ec557610100808354040283529160200191611ef0565b820191906000526020600020905b815481529060010190602001808311611ed357829003601f168201915b50505050600483015460058401805460408051602060026101006001861615026000190190941693909304601f81018490048402820184019092528181529596600160a060020a039094169593945090830182828015611f915780601f10611f6657610100808354040283529160200191611f91565b820191906000526020600020905b815481529060010190602001808311611f7457829003601f168201915b5050505050908060060154908060070154905089565b600080600084604051602001808281526020019150506040516020818303038152906040526040518082805190602001908083835b60208310611ffb5780518252601f199092019160209182019101611fdc565b5181516020939093036101000a60001901801990911692169190911790526040519201829003909120945061203692508491508690506124ea565b95945050505050565b60606000808281805b86518410156120e157868481518110151561205f57fe5b90602001906020020151600160a060020a03166000141580156120ca57506001548751600160a060020a03909116906012906000908a90889081106120a057fe5b6020908102909101810151600160a060020a03908116835290820192909252604001600020541614155b156120d6576001909401935b600190930192612048565b8460405190808252806020026020018201604052801561210b578160200160208202803883390190505b50925060009150600090505b86518110156121ea57868181518110151561212e57fe5b90602001906020020151600160a060020a031660001415801561219957506001548751600160a060020a03909116906012906000908a908590811061216f57fe5b6020908102909101810151600160a060020a03908116835290820192909252604001600020541614155b156121e25786818151811015156121ac57fe5b9060200190602002015183838151811015156121c457fe5b600160a060020a039092166020928302909101909101526001909101905b600101612117565b509095945050505050565b6000600019815b600581101561226a57836002826005811061221357fe5b60030201541180159061225957508160000b600019148061225957506002600083900b6005811061224057fe5b60030201546002826005811061225257fe5b6003020154115b15612262578091505b6001016121fc565b5092915050565b6000606060008061228587600001516125bf565b9250866060015186846040516020018084805190602001908083835b602083106122c05780518252601f1990920191602091820191016122a1565b51815160209384036101000a600019018019909216911617905286519190930192860191508083835b602083106123085780518252601f1990920191602091820191016122e9565b51815160209384036101000a600019018019909216911617905285519190930192850191508083835b602083106123505780518252601f199092019160209182019101612331565b6001836020036101000a03801982511681845116808217855250505050505090500193505050506040516020818303038152906040526040518082805190602001908083835b602083106123b55780518252601f199092019160209182019101612396565b5181516020939093036101000a6000190180199091169216919091179052604051920182900390912094506123f092508491508790506124ea565b604080516020808201869052600160a060020a03841692820192909252600160608201819052608080835289519083015288519394507f913b45a87c27987ce16da183c1bd3aad46b7ca00f990d083d4bc7726783a5b7893899387938793929091829160a083019188019080838360005b83811015612479578181015183820152602001612461565b50505050905090810190601f1680156124a65780820380516001836020036101000a031916815260200191505b509550505050505060405180910390a19695505050505050565b600080600083516020850186885af1949350505050565b818101828110156124e457fe5b92915050565b6000806000808451604114151561250457600093506125b6565b50505060208201516040830151606084015160001a601b60ff8216101561252957601b015b8060ff16601b1415801561254157508060ff16601c14155b1561254f57600093506125b6565b60408051600080825260208083018085528a905260ff8516838501526060830187905260808301869052925160019360a0808501949193601f19840193928390039091019190865af11580156125a9573d6000803e3d6000fd5b5050506020604051035193505b50505092915050565b60408051603f833b908101601f191682019092528181529080600060208401853c50919050565b81548183558181111561260a5760008381526020902061260a9181019083016126e4565b505050565b828054600181600116156101000203166002900490600052602060002090601f016020900481019282601f1061265057805160ff191683800117855561267d565b8280016001018555821561267d579182015b8281111561267d578251825591602001919060010190612662565b506126899291506126e4565b5090565b6080604051908101604052806000600160a060020a03168152602001600060ff16815260200160608152602001600081525090565b6060604051908101604052806000815260200160608152602001600081525090565b6126fe91905b8082111561268957600081556001016126ea565b905600a165627a7a72305820f63666fe4c3cd3a99fe8cb77a8dbfe5b547efc58d3754c6b28d2bd6e3bf6b5770029",
  "source": "pragma solidity ^0.4.24;\n\nimport \"openzeppelin-solidity/contracts/math/SafeMath.sol\";\nimport \"openzeppelin-solidity/contracts/ECRecovery.sol\";\nimport \"./utils/GetCode2.sol\";\nimport \"openzeppelin-solidity/contracts/token/ERC20/StandardToken.sol\";\n\ncontract IERC20 {\n    function balanceOf(address who) public view returns (uint256);\n    function transfer(address to, uint256 value) public returns (bool);\n    function allowance(address owner, address spender) public view returns (uint256);\n    function transferFrom(address from, address to, uint256 value) public returns (bool);\n    function approve(address spender, uint256 value) public returns (bool);\n\n    event Transfer(address indexed from, address indexed to, uint256 value);\n    event Approval(address indexed owner, address indexed spender, uint256 value);\n}\n\n\ncontract Enigma {\n    using SafeMath for uint256;\n    using ECRecovery for bytes32;\n\n    // The interface of the deployed ENG ERC20 token contract\n    IERC20 public engToken;\n\n    struct TaskRecord {\n        bytes taskId;\n        uint fee;\n    }\n\n    // The data representation of a computation task\n    struct Task {\n        address dappContract;\n        TaskStatus status;\n        string callable;\n        bytes callableArgs;\n        string callback;\n        address worker;\n        bytes sig;\n        uint256 reward;\n        uint256 blockNumber;\n    }\n    enum TaskStatus {InProgress, Executed}\n\n    enum ReturnValue {Ok, Error}\n\n    /**\n    * The signer address of the principal node\n    * This must be set when deploying the contract and remains immutable\n    * Since the signer address is derived from the public key of an\n    * SGX enclave, this ensures that the principal node cannot be tempered\n    * with or replaced.\n    */\n    address principal;\n\n    // The data representation of a worker (or node)\n    struct Worker {\n        address signer;\n        uint8 status; // Uninitialized: 0; Active: 1; Inactive: 2\n        bytes report; // Decided to store this as one  RLP encoded attribute for easier external storage in the future\n        uint256 balance;\n    }\n\n    /**\n    * The data representation of the worker parameters used as input for\n    * the worker selection algorithm\n    */\n    struct WorkersParams {\n        uint256 firstBlockNumber;\n        address[] workerAddresses;\n        uint256 seed;\n    }\n\n    /**\n    * The last 5 worker parameters\n    * We keep a collection of worker parameters to account for latency issues.\n    * A computation task might be conceivably given out at a certain block number\n    * but executed at a later block in a different epoch. It follows that\n    * the contract must have access to the worker parameters effective when giving\n    * out the task, otherwise the selected worker would not match. We calculated\n    * that keeping the last 5 items should be more than enough to account for\n    * all latent tasks. Tasks results will be rejected past this limit.\n    */\n    WorkersParams[5] workersParams;\n\n    // An address-based index of all registered worker\n    address[] public workerAddresses;\n\n    // A registry of all registered workers with their attributes\n    mapping(address => Worker) public workers;\n    // A registry of all active and historical tasks with their attributes\n    // TODO: do we keep tasks forever? if not, when do we delete them?\n    mapping(bytes32 => Task) public tasks;\n\n    // The events emitted by the contract\n    event Register(address custodian, address signer, bool _success);\n    event ValidatedSig(bytes sig, bytes32 hash, address workerAddr, bool _success);\n    event CommitResults(address dappContract, address worker, bytes sig, uint reward, bool _success);\n    event WorkersParameterized(uint256 seed, address[] workers, bool _success);\n    event ComputeTask(\n        address indexed dappContract,\n        bytes32 indexed taskId,\n        string callable,\n        bytes callableArgs,\n        string callback,\n        uint256 fee,\n        bytes32[] preprocessors,\n        uint256 blockNumber,\n        bool _success\n    );\n\n    constructor(address _tokenAddress, address _principal) public {\n        engToken = IERC20(_tokenAddress);\n        principal = _principal;\n    }\n\n    /**\n    * Checks if the custodian wallet is registered as a worker\n    *\n    * @param user The custodian address of the worker\n    */\n    modifier workerRegistered(address user) {\n        Worker memory worker = workers[user];\n        require(worker.status > 0, \"Unregistered worker.\");\n        _;\n    }\n\n    /**\n    * Registers a new worker of change the signer parameters of an existing\n    * worker. This should be called by every worker (and the principal)\n    * node in order to receive tasks.\n    *\n    * @param signer The signer address, derived from the enclave public key\n    * @param report The RLP encoded report returned by the IAS\n    */\n    function register(address signer, bytes report)\n        public\n        payable\n        returns (ReturnValue)\n    {\n        // TODO: consider exit if both signer and custodian as matching\n        // If the custodian is not already register, we add an index entry\n        if (workers[msg.sender].signer == 0x0) {\n            uint index = workerAddresses.length;\n            workerAddresses.length++;\n            workerAddresses[index] = msg.sender;\n        }\n\n        // Set the custodian attributes\n        workers[msg.sender].signer = signer;\n        workers[msg.sender].balance = msg.value;\n        workers[msg.sender].report = report;\n        workers[msg.sender].status = 1;\n\n        emit Register(msg.sender, signer, true);\n\n        return ReturnValue.Ok;\n    }\n\n    /**\n    * Generates a unique task id\n    *\n    * @param dappContract The address of the deployed contract containing the callable method\n    * @param callable The signature (as defined by the Ethereum ABI) of the function to compute\n    * @param callableArgs The RLP serialized arguments of the callable function\n    * @param blockNumber The current block number\n    * @return The task id\n    */\n    function generateTaskId(address dappContract, string callable, bytes callableArgs, uint256 blockNumber)\n        public\n        pure\n        returns (bytes32)\n    {\n        bytes32 hash = keccak256(abi.encodePacked(dappContract, callable, callableArgs, blockNumber));\n        return hash;\n    }\n\n    /**\n    * Store task record\n    *\n    */\n    function createTaskRecord(\n        bytes taskId,\n        uint fee\n    )\n        public\n    {\n        TaskRecord(taskId, fee);\n    }\n\n    // Verify the task results signature\n    function verifyCommitSig(Task task, bytes data, bytes sig)\n        internal\n        returns (address)\n    {\n        // Recreating a data hash to validate the signature\n        bytes memory code = GetCode2.at(task.dappContract);\n\n        // Build a hash to validate that the I/Os are matching\n        bytes32 hash = keccak256(abi.encodePacked(task.callableArgs, data, code));\n\n        // The worker address is not a real Ethereum wallet address but\n        // one generated from its signing key\n        address workerAddr = hash.recover(sig);\n\n        emit ValidatedSig(sig, hash, workerAddr, true);\n        return workerAddr;\n    }\n\n    // Execute the encoded function in the specified contract\n    function executeCall(address to, uint256 value, bytes data)\n        internal\n        returns (bool success)\n    {\n        assembly {\n            success := call(gas, to, value, add(data, 0x20), mload(data), 0, 0)\n        }\n    }\n\n    /**\n    * Commit the computation task results on chain\n    *\n    * @param taskId The reference task id\n    * @param data The encoded callback function call (which includes the computation results)\n    * @param sig The data signed by the the worker's enclave\n    * @param blockNumber The block number which originated the task\n    */\n    function commitResults(bytes32 taskId, bytes data, bytes sig, uint256 blockNumber)\n        public\n        workerRegistered(msg.sender)\n        returns (ReturnValue)\n    {\n        // Task must be solved only once\n        require(tasks[taskId].status == TaskStatus.InProgress, \"Illegal status, task must be in progress.\");\n        // TODO: run worker selection algo to validate right worker\n        require(block.number > blockNumber, \"Block number in the future.\");\n\n        address sigAddr = verifyCommitSig(tasks[taskId], data, sig);\n        require(sigAddr != address(0), \"Cannot verify this signature.\");\n        require(sigAddr == workers[msg.sender].signer, \"Invalid signature.\");\n\n        // The contract must hold enough fund to distribute reward\n        // TODO: validate that the reward matches the opcodes computed\n        uint256 reward = tasks[taskId].reward;\n        require(reward > 0, \"Reward cannot be zero.\");\n\n        // Invoking the callback method of the original contract\n        require(executeCall(tasks[taskId].dappContract, 0, data), \"Unable to invoke the callback\");\n\n        // Keep a trace of the task worker and proof\n        tasks[taskId].worker = msg.sender;\n        tasks[taskId].sig = sig;\n        tasks[taskId].status = TaskStatus.Executed;\n\n        // TODO: send directly to the worker's custodian instead\n        // Put the reward in the worker's bank\n        // He can withdraw later\n        Worker storage worker = workers[msg.sender];\n        worker.balance = worker.balance.add(reward);\n\n        emit CommitResults(tasks[taskId].dappContract, sigAddr, sig, reward, true);\n\n        return ReturnValue.Ok;\n    }\n\n    // Verify the signature submitted while reparameterizing workers\n    function verifyParamsSig(uint256 seed, bytes sig)\n        internal\n        pure\n        returns (address)\n    {\n        bytes32 hash = keccak256(abi.encodePacked(seed));\n        address signer = hash.recover(sig);\n        return signer;\n    }\n\n    /**\n    * Reparameterizing workers with a new seed\n    * This should be called for each epoch by the Principal node\n    *\n    * @param seed The random integer generated by the enclave\n    * @param sig The random integer signed by the the principal node's enclave\n    */\n    function setWorkersParams(uint256 seed, bytes sig)\n        public\n        workerRegistered(msg.sender)\n        returns (ReturnValue)\n    {\n        require(workers[msg.sender].signer == principal, \"Only the Principal can update the seed\");\n\n        address sigAddr = verifyParamsSig(seed, sig);\n        require(sigAddr == principal, \"Invalid signature\");\n\n        // Create a new workers parameters item for the specified seed.\n        // The workers parameters list is a sort of cache, it never grows beyond its limit.\n        // If the list is full, the new item will replace the item assigned to the lowest block number.\n        uint ti = 0;\n        for (uint pi = 0; pi < workersParams.length; pi++) {\n            // Find an empty slot in the array, if full use the lowest block number\n            if (workersParams[pi].firstBlockNumber == 0) {\n                ti = pi;\n                break;\n            } else if (workersParams[pi].firstBlockNumber < workersParams[ti].firstBlockNumber) {\n                ti = pi;\n            }\n        }\n        workersParams[ti].firstBlockNumber = block.number;\n        workersParams[ti].seed = seed;\n\n        // Copy the current worker list\n        for (uint wi = 0; wi < workerAddresses.length; wi++) {\n            if (workerAddresses[wi] != 0x0) {\n                workersParams[ti].workerAddresses.length++;\n                workersParams[ti].workerAddresses[wi] = workerAddresses[wi];\n            }\n        }\n        emit WorkersParameterized(seed, workerAddresses, true);\n        return ReturnValue.Ok;\n    }\n\n    // The workers parameters nearest the specified block number\n    function getWorkersParamsIndex(uint256 blockNumber)\n        internal\n        view\n        returns (int8)\n    {\n        int8 ci = - 1;\n        for (uint i = 0; i < workersParams.length; i++) {\n            if (workersParams[i].firstBlockNumber <= blockNumber && (ci == - 1 || workersParams[i].firstBlockNumber > workersParams[uint(ci)].firstBlockNumber)) {\n                ci = int8(i);\n            }\n        }\n        return ci;\n    }\n\n    /**\n    * The worker parameters corresponding to the specified block number\n    *\n    * @param blockNumber The reference block number\n    */\n    function getWorkersParams(uint256 blockNumber)\n        public\n        view\n        returns (uint256, uint256, address[])\n    {\n        // The workers parameters for a given block number\n        int8 idx = getWorkersParamsIndex(blockNumber);\n        require(idx != - 1, \"No workers parameters entry for specified block number\");\n\n        uint index = uint(idx);\n        WorkersParams memory _workerParams = workersParams[index];\n        address[] memory addrs = filterWorkers(_workerParams.workerAddresses);\n\n        return (_workerParams.firstBlockNumber, _workerParams.seed, addrs);\n    }\n\n    // Filter out bad values from a list of worker addresses\n    function filterWorkers(address[] addrs)\n        internal\n        view\n        returns (address[])\n    {\n        // TODO: I don't know why the list contains empty addresses, investigate\n        uint cpt = 0;\n        for (uint i = 0; i < addrs.length; i++) {\n            if (addrs[i] != 0x0 && workers[addrs[i]].signer != principal) {\n                cpt++;\n            }\n        }\n        address[] memory _workers = new address[](cpt);\n        uint cur = 0;\n        for (uint iw = 0; iw < addrs.length; iw++) {\n            if (addrs[iw] != 0x0 && workers[addrs[iw]].signer != principal) {\n                _workers[cur] = addrs[iw];\n                cur++;\n            }\n        }\n        return _workers;\n    }\n\n    /**\n    * Apply pseudo-randomness to discover the selected worker for the specified task\n    *\n    * @param blockNumber The reference block number\n    * @param taskId The reference task id\n    */\n    function selectWorker(uint256 blockNumber, bytes32 taskId)\n        public\n        view\n        returns (address)\n    {\n        (uint256 b, uint256 seed, address[] memory workerArray) = getWorkersParams(blockNumber);\n        address[] memory _workers = filterWorkers(workerArray);\n\n        bytes32 hash = keccak256(abi.encodePacked(seed, taskId));\n        uint256 index = uint256(hash) % _workers.length;\n        return _workers[index];\n    }\n\n    /**\n    * The RLP encoded report returned by the IAS server\n    *\n    * @param custodian The worker's custodian address\n    */\n    function getReport(address custodian)\n        public\n        view\n        workerRegistered(custodian)\n        returns (address, bytes)\n    {\n        // The RLP encoded report and signer's address for the specified worker\n        require(workers[custodian].signer != 0x0, \"Worker not registered\");\n        return (workers[custodian].signer, workers[custodian].report);\n    }\n}\n",
  "sourcePath": "/home/fredfortier/Code/Enigma/discovery/enigma-contract/contracts/Enigma.sol",
  "compiler": {
    "name": "solc",
    "version": "0.4.24+commit.e67f0147.Emscripten.clang"
  },
  "schemaVersion": "2.0.1",
  "updatedAt": "2018-09-14T02:11:24.975Z"
}