{
  "contractName": "Enigma",
  "abi": [
    {
      "constant": true,
      "inputs": [
        {
          "name": "",
          "type": "uint256"
        }
      ],
      "name": "workerAddresses",
      "outputs": [
        {
          "name": "",
          "type": "address"
        }
      ],
      "payable": false,
      "stateMutability": "view",
      "type": "function",
      "signature": "0x0a318da0"
    },
    {
      "constant": true,
      "inputs": [
        {
          "name": "",
          "type": "address"
        }
      ],
      "name": "workers",
      "outputs": [
        {
          "name": "signer",
          "type": "address"
        },
        {
          "name": "status",
          "type": "uint8"
        },
        {
          "name": "report",
          "type": "bytes"
        },
        {
          "name": "balance",
          "type": "uint256"
        }
      ],
      "payable": false,
      "stateMutability": "view",
      "type": "function",
      "signature": "0x4048a257"
    },
    {
      "constant": true,
      "inputs": [],
      "name": "epochSize",
      "outputs": [
        {
          "name": "",
          "type": "uint256"
        }
      ],
      "payable": false,
      "stateMutability": "view",
      "type": "function",
      "signature": "0x572d356e"
    },
    {
      "constant": true,
      "inputs": [
        {
          "name": "",
          "type": "uint256"
        }
      ],
      "name": "scAddresses",
      "outputs": [
        {
          "name": "",
          "type": "bytes32"
        }
      ],
      "payable": false,
      "stateMutability": "view",
      "type": "function",
      "signature": "0x5f0dd5bb"
    },
    {
      "constant": true,
      "inputs": [
        {
          "name": "",
          "type": "address"
        }
      ],
      "name": "userTaskDeployments",
      "outputs": [
        {
          "name": "",
          "type": "uint256"
        }
      ],
      "payable": false,
      "stateMutability": "view",
      "type": "function",
      "signature": "0x5f7a6ff3"
    },
    {
      "constant": true,
      "inputs": [],
      "name": "engToken",
      "outputs": [
        {
          "name": "",
          "type": "address"
        }
      ],
      "payable": false,
      "stateMutability": "view",
      "type": "function",
      "signature": "0x9489ad40"
    },
    {
      "constant": true,
      "inputs": [],
      "name": "workerGroupSize",
      "outputs": [
        {
          "name": "",
          "type": "uint256"
        }
      ],
      "payable": false,
      "stateMutability": "view",
      "type": "function",
      "signature": "0xa3edd784"
    },
    {
      "constant": true,
      "inputs": [
        {
          "name": "",
          "type": "bytes32"
        }
      ],
      "name": "tasks",
      "outputs": [
        {
          "name": "fee",
          "type": "uint256"
        },
        {
          "name": "proof",
          "type": "bytes"
        },
        {
          "name": "sender",
          "type": "address"
        },
        {
          "name": "blockNumber",
          "type": "uint256"
        },
        {
          "name": "status",
          "type": "uint8"
        }
      ],
      "payable": false,
      "stateMutability": "view",
      "type": "function",
      "signature": "0xe579f500"
    },
    {
      "constant": true,
      "inputs": [
        {
          "name": "",
          "type": "bytes32"
        }
      ],
      "name": "contracts",
      "outputs": [
        {
          "name": "owner",
          "type": "address"
        },
        {
          "name": "preCodeHash",
          "type": "bytes32"
        },
        {
          "name": "codeHash",
          "type": "bytes32"
        },
        {
          "name": "status",
          "type": "uint8"
        }
      ],
      "payable": false,
      "stateMutability": "view",
      "type": "function",
      "signature": "0xec56a373"
    },
    {
      "inputs": [
        {
          "name": "_tokenAddress",
          "type": "address"
        },
        {
          "name": "_principal",
          "type": "address"
        }
      ],
      "payable": false,
      "stateMutability": "nonpayable",
      "type": "constructor",
      "signature": "constructor"
    },
    {
      "anonymous": false,
      "inputs": [
        {
          "indexed": false,
          "name": "custodian",
          "type": "address"
        },
        {
          "indexed": false,
          "name": "signer",
          "type": "address"
        }
      ],
      "name": "Registered",
      "type": "event",
      "signature": "0x0a31ee9d46a828884b81003c8498156ea6aa15b9b54bdd0ef0b533d9eba57e55"
    },
    {
      "anonymous": false,
      "inputs": [
        {
          "indexed": false,
          "name": "sig",
          "type": "bytes"
        },
        {
          "indexed": false,
          "name": "hash",
          "type": "bytes32"
        },
        {
          "indexed": false,
          "name": "workerAddr",
          "type": "address"
        }
      ],
      "name": "ValidatedSig",
      "type": "event",
      "signature": "0xe36691ca52ee024e298e5c0ff07191b87f0ac571c01a7631db2d70d573d955cb"
    },
    {
      "anonymous": false,
      "inputs": [
        {
          "indexed": false,
          "name": "seed",
          "type": "uint256"
        },
        {
          "indexed": false,
          "name": "blockNumber",
          "type": "uint256"
        },
        {
          "indexed": false,
          "name": "workers",
          "type": "address[]"
        },
        {
          "indexed": false,
          "name": "balances",
          "type": "uint256[]"
        },
        {
          "indexed": false,
          "name": "nonce",
          "type": "uint256"
        }
      ],
      "name": "WorkersParameterized",
      "type": "event",
      "signature": "0xcdfdbdd264b9f454c9c98dc0d0b5c0a0f683c704db2233ff53b4d4f826c790cb"
    },
    {
      "anonymous": false,
      "inputs": [
        {
          "indexed": false,
          "name": "taskId",
          "type": "bytes32"
        },
        {
          "indexed": false,
          "name": "fee",
          "type": "uint256"
        },
        {
          "indexed": false,
          "name": "sender",
          "type": "address"
        }
      ],
      "name": "TaskRecordCreated",
      "type": "event",
      "signature": "0xf1c0c18d5573c419035509d5b8bf3f97ce7b92cca68bccbde847516f66d6fe05"
    },
    {
      "anonymous": false,
      "inputs": [
        {
          "indexed": false,
          "name": "taskIds",
          "type": "bytes32[]"
        },
        {
          "indexed": false,
          "name": "fees",
          "type": "uint256[]"
        },
        {
          "indexed": false,
          "name": "sender",
          "type": "address"
        }
      ],
      "name": "TaskRecordsCreated",
      "type": "event",
      "signature": "0xacd4eaf0bf2790219699c0a2d47f13405b81c59f5ff0bb951a71a29c94a6d774"
    },
    {
      "anonymous": false,
      "inputs": [
        {
          "indexed": false,
          "name": "taskId",
          "type": "bytes32"
        },
        {
          "indexed": false,
          "name": "inStateDeltaHash",
          "type": "bytes32"
        },
        {
          "indexed": false,
          "name": "outStateDeltaHash",
          "type": "bytes32"
        },
        {
          "indexed": false,
          "name": "ethCall",
          "type": "bytes"
        },
        {
          "indexed": false,
          "name": "sig",
          "type": "bytes"
        }
      ],
      "name": "ReceiptVerified",
      "type": "event",
      "signature": "0x665329bb9a4e1062edc215d9c5ab57fa54c4c88e3dfbcc68e0cd92fdd010fa6e"
    },
    {
      "anonymous": false,
      "inputs": [
        {
          "indexed": false,
          "name": "taskIds",
          "type": "bytes32[]"
        },
        {
          "indexed": false,
          "name": "inStateDeltaHashes",
          "type": "bytes32[]"
        },
        {
          "indexed": false,
          "name": "outStateDeltaHashes",
          "type": "bytes32[]"
        },
        {
          "indexed": false,
          "name": "ethCall",
          "type": "bytes"
        },
        {
          "indexed": false,
          "name": "sig",
          "type": "bytes"
        }
      ],
      "name": "ReceiptsVerified",
      "type": "event",
      "signature": "0x49f3b610d2b607252a8901e3c134022c7a6330e5f6525f0ed84dd4a127478958"
    },
    {
      "anonymous": false,
      "inputs": [
        {
          "indexed": false,
          "name": "from",
          "type": "address"
        },
        {
          "indexed": false,
          "name": "value",
          "type": "uint256"
        }
      ],
      "name": "DepositSuccessful",
      "type": "event",
      "signature": "0xb3ef81558ed1a50072a492984535a009da8b129c749500b387f1e5f4886bdde5"
    },
    {
      "anonymous": false,
      "inputs": [
        {
          "indexed": false,
          "name": "to",
          "type": "address"
        },
        {
          "indexed": false,
          "name": "value",
          "type": "uint256"
        }
      ],
      "name": "WithdrawSuccessful",
      "type": "event",
      "signature": "0x84e742a3ea03623687a5febaa797636d728230721d4b3d1405d19fbbc16298d9"
    },
    {
      "anonymous": false,
      "inputs": [
        {
          "indexed": false,
          "name": "scAddr",
          "type": "bytes32"
        },
        {
          "indexed": false,
          "name": "codeHash",
          "type": "bytes32"
        }
      ],
      "name": "SecretContractDeployed",
      "type": "event",
      "signature": "0x9d707d3c048dd1c209a28ea6367edf3d939a45cb46f86be5a728577e3e52273e"
    },
    {
      "constant": false,
      "inputs": [
        {
          "name": "_signer",
          "type": "address"
        },
        {
          "name": "_report",
          "type": "bytes"
        }
      ],
      "name": "register",
      "outputs": [],
      "payable": false,
      "stateMutability": "nonpayable",
      "type": "function",
      "signature": "0x24b8fbf6"
    },
    {
      "constant": false,
      "inputs": [
        {
          "name": "_custodian",
          "type": "address"
        },
        {
          "name": "_amount",
          "type": "uint256"
        }
      ],
      "name": "deposit",
      "outputs": [],
      "payable": false,
      "stateMutability": "nonpayable",
      "type": "function",
      "signature": "0x47e7ef24"
    },
    {
      "constant": false,
      "inputs": [
        {
          "name": "_custodian",
          "type": "address"
        },
        {
          "name": "_amount",
          "type": "uint256"
        }
      ],
      "name": "withdraw",
      "outputs": [],
      "payable": false,
      "stateMutability": "nonpayable",
      "type": "function",
      "signature": "0xf3fef3a3"
    },
    {
      "constant": false,
      "inputs": [],
      "name": "login",
      "outputs": [],
      "payable": false,
      "stateMutability": "nonpayable",
      "type": "function",
      "signature": "0xb34e97e8"
    },
    {
      "constant": false,
      "inputs": [],
      "name": "logout",
      "outputs": [],
      "payable": false,
      "stateMutability": "nonpayable",
      "type": "function",
      "signature": "0x1f3c99c3"
    },
    {
      "constant": false,
      "inputs": [
        {
          "name": "_scAddr",
          "type": "bytes32"
        },
        {
          "name": "_preCodeHash",
          "type": "bytes32"
        },
        {
          "name": "_codeHash",
          "type": "bytes32"
        },
        {
          "name": "_owner",
          "type": "address"
        },
        {
          "name": "_sig",
          "type": "bytes"
        }
      ],
      "name": "deploySecretContract",
      "outputs": [],
      "payable": false,
      "stateMutability": "nonpayable",
      "type": "function",
      "signature": "0x5b70584d"
    },
    {
      "constant": true,
      "inputs": [
        {
          "name": "_scAddr",
          "type": "bytes32"
        }
      ],
      "name": "isDeployed",
      "outputs": [
        {
          "name": "",
          "type": "bool"
        }
      ],
      "payable": false,
      "stateMutability": "view",
      "type": "function",
      "signature": "0x74c0ff4f"
    },
    {
      "constant": true,
      "inputs": [],
      "name": "countSecretContracts",
      "outputs": [
        {
          "name": "",
          "type": "uint256"
        }
      ],
      "payable": false,
      "stateMutability": "view",
      "type": "function",
      "signature": "0x75bbf75b"
    },
    {
      "constant": true,
      "inputs": [
        {
          "name": "_start",
          "type": "uint256"
        },
        {
          "name": "_stop",
          "type": "uint256"
        }
      ],
      "name": "getSecretContractAddresses",
      "outputs": [
        {
          "name": "",
          "type": "bytes32[]"
        }
      ],
      "payable": false,
      "stateMutability": "view",
      "type": "function",
      "signature": "0x8e055b8b"
    },
    {
      "constant": true,
      "inputs": [
        {
          "name": "_scAddr",
          "type": "bytes32"
        }
      ],
      "name": "countStateDeltas",
      "outputs": [
        {
          "name": "",
          "type": "uint256"
        }
      ],
      "payable": false,
      "stateMutability": "view",
      "type": "function",
      "signature": "0xc41bfb03"
    },
    {
      "constant": true,
      "inputs": [
        {
          "name": "_scAddr",
          "type": "bytes32"
        },
        {
          "name": "_index",
          "type": "uint256"
        }
      ],
      "name": "getStateDeltaHash",
      "outputs": [
        {
          "name": "",
          "type": "bytes32"
        }
      ],
      "payable": false,
      "stateMutability": "view",
      "type": "function",
      "signature": "0x28aa1aaa"
    },
    {
      "constant": true,
      "inputs": [
        {
          "name": "_scAddr",
          "type": "bytes32"
        },
        {
          "name": "_start",
          "type": "uint256"
        },
        {
          "name": "_stop",
          "type": "uint256"
        }
      ],
      "name": "getStateDeltaHashes",
      "outputs": [
        {
          "name": "",
          "type": "bytes32[]"
        }
      ],
      "payable": false,
      "stateMutability": "view",
      "type": "function",
      "signature": "0xd1dfd95e"
    },
    {
      "constant": true,
      "inputs": [
        {
          "name": "_scAddr",
          "type": "bytes32"
        },
        {
          "name": "_stateDeltaHash",
          "type": "bytes32"
        }
      ],
      "name": "isValidDeltaHash",
      "outputs": [
        {
          "name": "",
          "type": "bool"
        }
      ],
      "payable": false,
      "stateMutability": "view",
      "type": "function",
      "signature": "0xccfae218"
    },
    {
      "constant": false,
      "inputs": [
        {
          "name": "_taskIdInputHash",
          "type": "bytes32"
        },
        {
          "name": "_fee",
          "type": "uint256"
        }
      ],
      "name": "createTaskRecord",
      "outputs": [],
      "payable": false,
      "stateMutability": "nonpayable",
      "type": "function",
      "signature": "0x03316d16"
    },
    {
      "constant": false,
      "inputs": [
        {
          "name": "_taskIdInputHashes",
          "type": "bytes32[]"
        },
        {
          "name": "_fees",
          "type": "uint256[]"
        }
      ],
      "name": "createTaskRecords",
      "outputs": [],
      "payable": false,
      "stateMutability": "nonpayable",
      "type": "function",
      "signature": "0x120db8ab"
    },
    {
      "constant": false,
      "inputs": [
        {
          "name": "_scAddr",
          "type": "bytes32"
        },
        {
          "name": "_taskId",
          "type": "bytes32"
        },
        {
          "name": "_inStateDeltaHash",
          "type": "bytes32"
        },
        {
          "name": "_outStateDeltaHash",
          "type": "bytes32"
        },
        {
          "name": "_ethCall",
          "type": "bytes"
        },
        {
          "name": "_sig",
          "type": "bytes"
        }
      ],
      "name": "commitReceipt",
      "outputs": [],
      "payable": false,
      "stateMutability": "nonpayable",
      "type": "function",
      "signature": "0x978fa217"
    },
    {
      "constant": false,
      "inputs": [
        {
          "name": "_scAddr",
          "type": "bytes32"
        },
        {
          "name": "_taskIds",
          "type": "bytes32[]"
        },
        {
          "name": "_inStateDeltaHashes",
          "type": "bytes32[]"
        },
        {
          "name": "_outStateDeltaHashes",
          "type": "bytes32[]"
        },
        {
          "name": "_ethCall",
          "type": "bytes"
        },
        {
          "name": "_sig",
          "type": "bytes"
        }
      ],
      "name": "commitReceipts",
      "outputs": [],
      "payable": false,
      "stateMutability": "nonpayable",
      "type": "function",
      "signature": "0x5f0d6ac0"
    },
    {
      "constant": false,
      "inputs": [
        {
          "name": "_seed",
          "type": "uint256"
        },
        {
          "name": "_sig",
          "type": "bytes"
        }
      ],
      "name": "setWorkersParams",
      "outputs": [],
      "payable": false,
      "stateMutability": "nonpayable",
      "type": "function",
      "signature": "0x2873e73c"
    },
    {
      "constant": true,
      "inputs": [
        {
          "name": "_blockNumber",
          "type": "uint256"
        }
      ],
      "name": "getWorkerParams",
      "outputs": [
        {
          "name": "",
          "type": "uint256"
        },
        {
          "name": "",
          "type": "uint256"
        },
        {
          "name": "",
          "type": "address[]"
        },
        {
          "name": "",
          "type": "uint256[]"
        }
      ],
      "payable": false,
      "stateMutability": "view",
      "type": "function",
      "signature": "0x9836ca31"
    },
    {
      "constant": true,
      "inputs": [
        {
          "name": "_blockNumber",
          "type": "uint256"
        },
        {
          "name": "_scAddr",
          "type": "bytes32"
        }
      ],
      "name": "getWorkerGroup",
      "outputs": [
        {
          "name": "",
          "type": "address[]"
        }
      ],
      "payable": false,
      "stateMutability": "view",
      "type": "function",
      "signature": "0x1d40ff0b"
    },
    {
      "constant": true,
      "inputs": [
        {
          "name": "_blockNumber",
          "type": "uint256"
        }
      ],
      "name": "getWorkersParams",
      "outputs": [
        {
          "name": "",
          "type": "uint256"
        },
        {
          "name": "",
          "type": "uint256"
        },
        {
          "name": "",
          "type": "address[]"
        },
        {
          "name": "",
          "type": "address[]"
        }
      ],
      "payable": false,
      "stateMutability": "view",
      "type": "function",
      "signature": "0x59c91a12"
    },
    {
      "constant": true,
      "inputs": [
        {
          "name": "_custodian",
          "type": "address"
        }
      ],
      "name": "getReport",
      "outputs": [
        {
          "name": "",
          "type": "address"
        },
        {
          "name": "",
          "type": "bytes"
        }
      ],
      "payable": false,
      "stateMutability": "view",
      "type": "function",
      "signature": "0xa3bdae3e"
    }
  ],
  "bytecode": "0x608060405260646001553480156200001657600080fd5b5060405160408062004b1b833981018060405262000038919081019062000089565b60008054600160a060020a03938416600160a060020a0319918216179091556002805492909316911617905560016022556005602355620000e7565b6000620000828251620000d4565b9392505050565b600080604083850312156200009d57600080fd5b6000620000ab858562000074565b9250506020620000be8582860162000074565b9150509250929050565b600160a060020a031690565b6000620000e182620000c8565b92915050565b614a2480620000f76000396000f3fe60806040526004361061018a5763ffffffff7c010000000000000000000000000000000000000000000000000000000060003504166303316d16811461018f5780630a318da0146101b1578063120db8ab146101e75780631d40ff0b146102075780631f3c99c31461023457806324b8fbf6146102495780632873e73c1461026957806328aa1aaa146102895780634048a257146102b657806347e7ef24146102e6578063572d356e1461030657806359c91a121461031b5780635b70584d1461034b5780635f0d6ac01461036b5780635f0dd5bb1461038b5780635f7a6ff3146103ab57806374c0ff4f146103cb57806375bbf75b146103f85780638e055b8b1461040d5780639489ad401461043a578063978fa2171461045c5780639836ca311461047c578063a3bdae3e146104ac578063a3edd784146104da578063b34e97e8146104ef578063c41bfb0314610504578063ccfae21814610524578063d1dfd95e14610544578063e579f50014610564578063ec56a37314610595578063f3fef3a3146105c5575b600080fd5b34801561019b57600080fd5b506101af6101aa366004613b58565b6105e5565b005b3480156101bd57600080fd5b506101d16101cc366004613a3b565b61087b565b6040516101de91906143be565b60405180910390f35b3480156101f357600080fd5b506101af6102023660046139be565b6108a3565b34801561021357600080fd5b50610227610222366004613b58565b610be6565b6040516101de91906144e0565b34801561024057600080fd5b506101af610d08565b34801561025557600080fd5b506101af61026436600461393c565b610e85565b34801561027557600080fd5b506101af610284366004613cc7565b610fb3565b34801561029557600080fd5b506102a96102a4366004613b58565b611540565b6040516101de91906145b0565b3480156102c257600080fd5b506102d66102d1366004613916565b6115b4565b6040516101de9493929190614489565b3480156102f257600080fd5b506101af61030136600461398e565b611678565b34801561031257600080fd5b506102a96119c2565b34801561032757600080fd5b5061033b610336366004613a3b565b6119c8565b6040516101de94939291906147cf565b34801561035757600080fd5b506101af610366366004613b77565b6119d5565b34801561037757600080fd5b506101af610386366004613a59565b611de3565b34801561039757600080fd5b506102a96103a6366004613a3b565b612274565b3480156103b757600080fd5b506102a96103c6366004613916565b612293565b3480156103d757600080fd5b506103eb6103e6366004613a3b565b6122a5565b6040516101de91906145a2565b34801561040457600080fd5b506102a96122df565b34801561041957600080fd5b5061042d610428366004613b58565b6122e6565b6040516101de91906144f1565b34801561044657600080fd5b5061044f612386565b6040516101de919061462e565b34801561046857600080fd5b506101af610477366004613c04565b612395565b34801561048857600080fd5b5061049c610497366004613a3b565b6126b2565b6040516101de9493929190614810565b3480156104b857600080fd5b506104cc6104c7366004613916565b6127e9565b6040516101de929190614469565b3480156104e657600080fd5b506102a9612a2b565b3480156104fb57600080fd5b506101af612a31565b34801561051057600080fd5b506102a961051f366004613a3b565b612bac565b34801561053057600080fd5b506103eb61053f366004613b58565b612c06565b34801561055057600080fd5b5061042d61055f366004613c5c565b612cb0565b34801561057057600080fd5b5061058461057f366004613a3b565b612db0565b6040516101de95949392919061477c565b3480156105a157600080fd5b506105b56105b0366004613a3b565b612e76565b6040516101de949392919061442b565b3480156105d157600080fd5b506101af6105e036600461398e565b612ea9565b6000546040517fdd62ed3e0000000000000000000000000000000000000000000000000000000081528291600160a060020a03169063dd62ed3e9061063090339030906004016143cc565b60206040518083038186803b15801561064857600080fd5b505afa15801561065c573d6000803e3d6000fd5b505050506040513d601f19601f820116820180604052506106809190810190613ca9565b10156106aa5760405160e560020a62461bcd0281526004016106a1906146dc565b60405180910390fd5b6000546040517f23b872dd000000000000000000000000000000000000000000000000000000008152600160a060020a03909116906323b872dd906106f7903390309086906004016143e7565b602060405180830381600087803b15801561071157600080fd5b505af1158015610725573d6000803e3d6000fd5b505050506040513d601f19601f820116820180604052506107499190810190613a1d565b151561076a5760405160e560020a62461bcd0281526004016106a19061468c565b3360009081526021602090815260408083205481518084018790528083019190915281518082038301815260609091018252805190830120808452601f90925290912060020154600160a060020a0316156107da5760405160e560020a62461bcd0281526004016106a19061472c565b6000818152601f6020526040902082815560028101805473ffffffffffffffffffffffffffffffffffffffff19163317905543600382015560040180546001919060ff191682800217905550336000818152602160205260409081902080546001019055517ff1c0c18d5573c419035509d5b8bf3f97ce7b92cca68bccbde847516f66d6fe059161086e9184918691614606565b60405180910390a1505050565b601c80548290811061088957fe5b600091825260209091200154600160a060020a0316905081565b606082516040519080825280602002602001820160405280156108d0578160200160208202803883390190505b50905060005b8351811015610bb25782818151811015156108ed57fe5b602090810290910101516000546040517fdd62ed3e000000000000000000000000000000000000000000000000000000008152600160a060020a039091169063dd62ed3e9061094290339030906004016143cc565b60206040518083038186803b15801561095a57600080fd5b505afa15801561096e573d6000803e3d6000fd5b505050506040513d601f19601f820116820180604052506109929190810190613ca9565b10156109b35760405160e560020a62461bcd0281526004016106a1906146dc565b6000548351600160a060020a03909116906323b872dd90339030908790869081106109da57fe5b906020019060200201516040518463ffffffff167c0100000000000000000000000000000000000000000000000000000000028152600401610a1e939291906143e7565b602060405180830381600087803b158015610a3857600080fd5b505af1158015610a4c573d6000803e3d6000fd5b505050506040513d601f19601f82011682018060405250610a709190810190613a1d565b1515610a915760405160e560020a62461bcd0281526004016106a19061468c565b60008482815181101515610aa157fe5b6020908102909101810151336000908152602183526040808220548151808601949094528382015280518084038201815260609093018152825192840192909220808252601f9093522060020154909150600160a060020a031615610b1b5760405160e560020a62461bcd0281526004016106a19061471c565b808383815181101515610b2a57fe5b602090810290910101528351849083908110610b4257fe5b6020908102919091018101516000928352601f8252604080842091825560028201805473ffffffffffffffffffffffffffffffffffffffff1916339081179091554360038401556004909201805460ff1916600190811790915591845260219092529120805482019055016108d6565b507facd4eaf0bf2790219699c0a2d47f13405b81c59f5ff0bb951a71a29c94a6d77481833360405161086e9392919061456e565b60606000610bf384613165565b90506060602354604051908082528060200260200182016040528015610c23578160200160208202803883390190505b5090506000805b602354811015610cfb575b6000610c42858885613212565b90506000805b8551811015610c93578581815181101515610c5f57fe5b90602001906020020151600160a060020a031683600160a060020a03161415610c8b5760019150610c93565b600101610c48565b50801515610cc257818584815181101515610caa57fe5b600160a060020a039092166020928302909101909101525b50508251600190920191600090849083908110610cdb57fe5b60209081029091010151600160a060020a031614610c3557600101610c2a565b5090925050505b92915050565b33610d11613697565b600160a060020a038281166000908152601e60209081526040918290208251608081019093528054938416835291929083019060a060020a900460ff166003811115610d5957fe5b6003811115610d6457fe5b8152602001600182018054600181600116156101000203166002900480601f016020809104026020016040519081016040528092919081815260200182805460018160011615610100020316600290048015610e015780601f10610dd657610100808354040283529160200191610e01565b820191906000526020600020905b815481529060010190602001808311610de457829003601f168201915b505050918352505060029182015460209091015290915081602001516003811115610e2857fe5b14610e485760405160e560020a62461bcd0281526004016106a1906146bc565b336000908152601e6020526040902080546003919074ff0000000000000000000000000000000000000000191660a060020a835b02179055505050565b336000908152601e6020526040902054600160a060020a03161515610ef457601c80546001810182556000919091527f0e4562a10381dec21b205ed72637e6b1b523bdd0e4d4d50af5cd23dd4500a21101805473ffffffffffffffffffffffffffffffffffffffff1916331790555b336000908152601e602090815260408220805473ffffffffffffffffffffffffffffffffffffffff1916600160a060020a03861617815560028101929092558251610f4592600101918401906136c0565b50336000818152601e602052604090819020805474ff0000000000000000000000000000000000000000191660a060020a179055517f0a31ee9d46a828884b81003c8498156ea6aa15b9b54bdd0ef0b533d9eba57e5591610fa79185906143cc565b60405180910390a15050565b33610fbc613697565b600160a060020a038281166000908152601e60209081526040918290208251608081019093528054938416835291929083019060a060020a900460ff16600381111561100457fe5b600381111561100f57fe5b8152602001600182018054600181600116156101000203166002900480601f0160208091040260200160405190810160405280929190818152602001828054600181600116156101000203166002900480156110ac5780601f10611081576101008083540402835291602001916110ac565b820191906000526020600020905b81548152906001019060200180831161108f57829003601f168201915b50505091835250506002919091015460209091015290506000816020015160038111156110d557fe5b14156110f65760405160e560020a62461bcd0281526004016106a19061463c565b600254336000908152601e6020526040902054600160a060020a039081169116146111365760405160e560020a62461bcd0281526004016106a19061470c565b6000805b600581101561119e576003816005811061115057fe5b600502015415156111635780915061119e565b6003826005811061117057fe5b600502016000015460038260058110151561118757fe5b60050201541015611196578091505b60010161113a565b5043600382600581106111ad57fe5b6005020160000181905550846003826005811015156111c857fe5b60036005918202929092018201929092553360009081526021602052604090205491839081106111f457fe5b60050201600401556000805b601c5481101561149557611212613697565b601e6000601c8481548110151561122557fe5b6000918252602080832090910154600160a060020a0390811684528382019490945260409283019091208251608081019093528054938416835291929083019060ff60a060020a90910416600381111561127b57fe5b600381111561128657fe5b8152602001600182018054600181600116156101000203166002900480601f0160208091040260200160405190810160405280929190818152602001828054600181600116156101000203166002900480156113235780601f106112f857610100808354040283529160200191611323565b820191906000526020600020905b81548152906001019060200180831161130657829003601f168201915b50505050508152602001600282015481525050905060225481606001511015801561135e57506002548151600160a060020a03908116911614155b8015611379575060028160200151600381111561137757fe5b145b1561148c576003846005811061138b57fe5b6005020160010180548091906001016113a4919061373e565b50601c8054839081106113b357fe5b600091825260209091200154600160a060020a0316600385600581106113d557fe5b60050201600101848154811015156113e957fe5b6000918252602090912001805473ffffffffffffffffffffffffffffffffffffffff1916600160a060020a03929092169190911790556003846005811061142c57fe5b600502016002018054809190600101611445919061373e565b5060608101516003856005811061145857fe5b600502016002018481548110151561146c57fe5b60009182526020909120015561148983600163ffffffff61348e16565b92505b50600101611200565b507fcdfdbdd264b9f454c9c98dc0d0b5c0a0f683c704db2233ff53b4d4f826c790cb8643600385600581106114c657fe5b600502016001016003866005811015156114dc57fe5b600502016002016021600033600160a060020a0316600160a060020a031681526020019081526020016000205460405161151a959493929190614851565b60405180910390a150503360009081526021602052604090208054600101905550505050565b6000826001600082815260208052604090206004015460ff16600181111561156457fe5b146115845760405160e560020a62461bcd0281526004016106a19061473c565b600084815260208052604090206003018054849081106115a057fe5b906000526020600020015491505092915050565b601e602090815260009182526040918290208054600180830180548651600261010094831615949094026000190190911692909204601f8101869004860283018601909652858252600160a060020a0383169560a060020a90930460ff1694919290918301828280156116685780601f1061163d57610100808354040283529160200191611668565b820191906000526020600020905b81548152906001019060200180831161164b57829003601f168201915b5050505050908060020154905084565b81611681613697565b600160a060020a038281166000908152601e60209081526040918290208251608081019093528054938416835291929083019060a060020a900460ff1660038111156116c957fe5b60038111156116d457fe5b8152602001600182018054600181600116156101000203166002900480601f0160208091040260200160405190810160405280929190818152602001828054600181600116156101000203166002900480156117715780601f1061174657610100808354040283529160200191611771565b820191906000526020600020905b81548152906001019060200180831161175457829003601f168201915b505050918352505060029190910154602090910152905060008160200151600381111561179a57fe5b14156117bb5760405160e560020a62461bcd0281526004016106a19061463c565b6000546040517fdd62ed3e0000000000000000000000000000000000000000000000000000000081528491600160a060020a03169063dd62ed3e90611806908890309060040161440f565b60206040518083038186803b15801561181e57600080fd5b505afa158015611832573d6000803e3d6000fd5b505050506040513d601f19601f820116820180604052506118569190810190613ca9565b10156118775760405160e560020a62461bcd0281526004016106a19061464c565b6000546040517f23b872dd000000000000000000000000000000000000000000000000000000008152600160a060020a03909116906323b872dd906118c49087903090889060040161441d565b602060405180830381600087803b1580156118de57600080fd5b505af11580156118f2573d6000803e3d6000fd5b505050506040513d601f19601f820116820180604052506119169190810190613a1d565b15156119375760405160e560020a62461bcd0281526004016106a1906146ac565b600160a060020a0384166000908152601e6020526040902060020154611963908463ffffffff61348e16565b600160a060020a0385166000908152601e60205260409081902060020191909155517fb3ef81558ed1a50072a492984535a009da8b129c749500b387f1e5f4886bdde5906119b490869086906144c5565b60405180910390a150505050565b60015481565b6000806060809193509193565b336119de613697565b600160a060020a038281166000908152601e60209081526040918290208251608081019093528054938416835291929083019060a060020a900460ff166003811115611a2657fe5b6003811115611a3157fe5b8152602001600182018054600181600116156101000203166002900480601f016020809104026020016040519081016040528092919081815260200182805460018160011615610100020316600290048015611ace5780601f10611aa357610100808354040283529160200191611ace565b820191906000526020600020905b815481529060010190602001808311611ab157829003601f168201915b505050918352505060029182015460209091015290915081602001516003811115611af557fe5b14611b155760405160e560020a62461bcd0281526004016106a1906146bc565b600087815260208052604081206004015460ff166001811115611b3457fe5b14611b545760405160e560020a62461bcd0281526004016106a19061465c565b60016000888152601f602052604090206004015460ff166002811115611b7657fe5b14611b965760405160e560020a62461bcd0281526004016106a19061466c565b6000878152601f6020526040902060020154600160a060020a03858116911614611bd55760405160e560020a62461bcd0281526004016106a19061469c565b6000878152601f6020526040812060030154611bf19089610be6565b80516000908110611bfe57fe5b60209081029091010151905033600160a060020a03821614611c355760405160e560020a62461bcd0281526004016106a1906146ec565b6040805160208082018b9052818301899052825180830384018152606090920190925280519101206000611c6f828763ffffffff6134a016565b336000908152601e6020526040902054909150600160a060020a03808316911614611caf5760405160e560020a62461bcd0281526004016106a19061474c565b60008a815260208080526040808320805473ffffffffffffffffffffffffffffffffffffffff1916600160a060020a038c1617815560018082018e9055600282018d90556004909101805460ff191682179055601d80548083019091557f6d4407e7be21f808e6509aa9fa9143369579dd7d760fe20a2c09680fc146134f018e9055601f835292208851611d4a9391909101918901906136c0565b5060008a8152601f6020908152604080832060048101805460ff191660029081179091559054338552601e909352922090910154611d879161348e565b336000908152601e60205260409081902060020191909155517f9d707d3c048dd1c209a28ea6367edf3d939a45cb46f86be5a728577e3e52273e90611dcf908c908b906145be565b60405180910390a150505050505050505050565b33611dec613697565b600160a060020a038281166000908152601e60209081526040918290208251608081019093528054938416835291929083019060a060020a900460ff166003811115611e3457fe5b6003811115611e3f57fe5b8152602001600182018054600181600116156101000203166002900480601f016020809104026020016040519081016040528092919081815260200182805460018160011615610100020316600290048015611edc5780601f10611eb157610100808354040283529160200191611edc565b820191906000526020600020905b815481529060010190602001808311611ebf57829003601f168201915b505050918352505060029182015460209091015290915081602001516003811115611f0357fe5b14611f235760405160e560020a62461bcd0281526004016106a1906146bc565b876001600082815260208052604090206004015460ff166001811115611f4557fe5b14611f655760405160e560020a62461bcd0281526004016106a19061473c565b60005b8851811015611fca57611fc28a8a83815181101515611f8357fe5b906020019060200201518a84815181101515611f9b57fe5b906020019060200201518a85815181101515611fb357fe5b9060200190602002015161357f565b600101611f68565b5060008888888860405160200180858051906020019060200280838360005b83811015612001578181015183820152602001611fe9565b50505050905001848051906020019060200280838360005b83811015612031578181015183820152602001612019565b50505050905001838051906020019060200280838360005b83811015612061578181015183820152602001612049565b5050505090500182805190602001908083835b602083106120935780518252601f199092019160209182019101612074565b6001836020036101000a03801982511681845116808217855250505050505090500194505050505060405160208183030381529060405280519060200120905060006120e886836134a090919063ffffffff16565b336000908152601e6020526040902054909150600160a060020a038083169116146121285760405160e560020a62461bcd0281526004016106a19061474c565b60005b8a518110156122275786601f60008d8481518110151561214757fe5b90602001906020020151815260200190815260200160002060010190805190602001906121759291906136c0565b506002601f60008d8481518110151561218a57fe5b60209081029091018101518252810191909152604001600020600401805460ff191660018360028111156121ba57fe5b021790555061220c601f60008d848151811015156121d457fe5b60209081029091018101518252818101929092526040908101600090812054338252601e90935220600201549063ffffffff61348e16565b336000908152601e602052604090206002015560010161212b565b507f49f3b610d2b607252a8901e3c134022c7a6330e5f6525f0ed84dd4a1274789588a8a8a8a8a60405161225f959493929190614502565b60405180910390a15050505050505050505050565b601d80548290811061228257fe5b600091825260209091200154905081565b60216020526000908152604090205481565b60006001600083815260208052604090206004015460ff1660018111156122c857fe5b14156122d6575060016122da565b5060005b919050565b601d545b90565b60608115156122f557601d5491505b6060612307838563ffffffff61368216565b604051908082528060200260200182016040528015612330578160200160208202803883390190505b5090506000845b8481101561237c57601d80548290811061234d57fe5b9060005260206000200154838381518110151561236657fe5b6020908102909101015260019182019101612337565b5090949350505050565b600054600160a060020a031681565b3361239e613697565b600160a060020a038281166000908152601e60209081526040918290208251608081019093528054938416835291929083019060a060020a900460ff1660038111156123e657fe5b60038111156123f157fe5b8152602001600182018054600181600116156101000203166002900480601f01602080910402602001604051908101604052809291908181526020018280546001816001161561010002031660029004801561248e5780601f106124635761010080835404028352916020019161248e565b820191906000526020600020905b81548152906001019060200180831161247157829003601f168201915b5050509183525050600291820154602090910152909150816020015160038111156124b557fe5b146124d55760405160e560020a62461bcd0281526004016106a1906146bc565b876001600082815260208052604090206004015460ff1660018111156124f757fe5b146125175760405160e560020a62461bcd0281526004016106a19061473c565b6125238989898961357f565b6000888888886040516020018085815260200184815260200183815260200182805190602001908083835b6020831061256d5780518252601f19909201916020918201910161254e565b6001836020036101000a03801982511681845116808217855250505050505090500194505050505060405160208183030381529060405280519060200120905060006125c286836134a090919063ffffffff16565b336000908152601e6020526040902054909150600160a060020a038083169116146126025760405160e560020a62461bcd0281526004016106a19061474c565b60008a8152601f602090815260409091208751612627926001909201918901906136c0565b5060008a8152601f6020908152604080832060048101805460ff191660029081179091559054338552601e9093529220909101546126649161348e565b336000908152601e60205260409081902060020191909155517f665329bb9a4e1062edc215d9c5ab57fa54c4c88e3dfbcc68e0cd92fdd010fa6e9061225f908c908c908c908c908c906145cc565b60008060608060006126c386613165565b90506126cd613767565b600382600581106126da57fe5b6005020160a06040519081016040529081600082015481526020016001820180548060200260200160405190810160405280929190818152602001828054801561274d57602002820191906000526020600020905b8154600160a060020a0316815260019091019060200180831161272f575b50505050508152602001600282018054806020026020016040519081016040528092919081815260200182805480156127a557602002820191906000526020600020905b815481526020019060010190808311612791575b5050509183525050600382015460208083019190915260049092015460409182015282516060840151928401519390910151909a9199509197509095509350505050565b60006060826127f6613697565b600160a060020a038281166000908152601e60209081526040918290208251608081019093528054938416835291929083019060a060020a900460ff16600381111561283e57fe5b600381111561284957fe5b8152602001600182018054600181600116156101000203166002900480601f0160208091040260200160405190810160405280929190818152602001828054600181600116156101000203166002900480156128e65780601f106128bb576101008083540402835291602001916128e6565b820191906000526020600020905b8154815290600101906020018083116128c957829003601f168201915b505050918352505060029190910154602090910152905060008160200151600381111561290f57fe5b14156129305760405160e560020a62461bcd0281526004016106a19061463c565b600160a060020a038581166000908152601e602052604090205416151561296c5760405160e560020a62461bcd0281526004016106a1906146fc565b600160a060020a038581166000908152601e60209081526040918290208054600191820180548551600261010095831615959095026000190190911693909304601f8101859004850284018501909552848352941693929091839190830182828015612a195780601f106129ee57610100808354040283529160200191612a19565b820191906000526020600020905b8154815290600101906020018083116129fc57829003601f168201915b50505050509050935093505050915091565b60235481565b33612a3a613697565b600160a060020a038281166000908152601e60209081526040918290208251608081019093528054938416835291929083019060a060020a900460ff166003811115612a8257fe5b6003811115612a8d57fe5b8152602001600182018054600181600116156101000203166002900480601f016020809104026020016040519081016040528092919081815260200182805460018160011615610100020316600290048015612b2a5780601f10612aff57610100808354040283529160200191612b2a565b820191906000526020600020905b815481529060010190602001808311612b0d57829003601f168201915b5050509183525050600291909101546020909101529050600081602001516003811115612b5357fe5b1415612b745760405160e560020a62461bcd0281526004016106a19061463c565b336000908152601e6020526040902080546002919074ff0000000000000000000000000000000000000000191660a060020a83610e7c565b6000816001600082815260208052604090206004015460ff166001811115612bd057fe5b14612bf05760405160e560020a62461bcd0281526004016106a19061473c565b5050600090815260208052604090206003015490565b6000826001600082815260208052604090206004015460ff166001811115612c2a57fe5b14612c4a5760405160e560020a62461bcd0281526004016106a19061473c565b6000805b6000868152602080526040902060030154811015612ca75760008681526020805260409020600301805486919083908110612c8557fe5b90600052602060002001541415612c9f5760019150612ca7565b600101612c4e565b50949350505050565b6060836001600082815260208052604090206004015460ff166001811115612cd457fe5b14612cf45760405160e560020a62461bcd0281526004016106a19061473c565b821515612d0f57600085815260208052604090206003015492505b6060612d21848663ffffffff61368216565b604051908082528060200260200182016040528015612d4a578160200160208202803883390190505b5090506000855b85811015612da45760008881526020805260409020600301805482908110612d7557fe5b90600052602060002001548383815181101515612d8e57fe5b6020908102909101015260019182019101612d51565b50909695505050505050565b601f602081815260009283526040928390208054600180830180548751600293821615610100026000190190911692909204958601859004850282018501909652848152909491939092830182828015612e4b5780601f10612e2057610100808354040283529160200191612e4b565b820191906000526020600020905b815481529060010190602001808311612e2e57829003601f168201915b50505050600283015460038401546004909401549293600160a060020a039091169290915060ff1685565b60208052600090815260409020805460018201546002830154600490930154600160a060020a0390921692909160ff1684565b81612eb2613697565b600160a060020a038281166000908152601e60209081526040918290208251608081019093528054938416835291929083019060a060020a900460ff166003811115612efa57fe5b6003811115612f0557fe5b8152602001600182018054600181600116156101000203166002900480601f016020809104026020016040519081016040528092919081815260200182805460018160011615610100020316600290048015612fa25780601f10612f7757610100808354040283529160200191612fa2565b820191906000526020600020905b815481529060010190602001808311612f8557829003601f168201915b5050509183525050600291909101546020909101529050600081602001516003811115612fcb57fe5b1415612fec5760405160e560020a62461bcd0281526004016106a19061463c565b600160a060020a0384166000908152601e602052604090206002015483111561302a5760405160e560020a62461bcd0281526004016106a19061476c565b6000546040517fa9059cbb000000000000000000000000000000000000000000000000000000008152600160a060020a039091169063a9059cbb9061307590879087906004016144c5565b602060405180830381600087803b15801561308f57600080fd5b505af11580156130a3573d6000803e3d6000fd5b505050506040513d601f19601f820116820180604052506130c79190810190613a1d565b15156130e85760405160e560020a62461bcd0281526004016106a1906146ac565b600160a060020a0384166000908152601e6020526040902060020154613114908463ffffffff61368216565b600160a060020a0385166000908152601e60205260409081902060020191909155517f84e742a3ea03623687a5febaa797636d728230721d4b3d1405d19fbbc16298d9906119b490869086906144c5565b6000600019815b60058110156131df57836003826005811061318357fe5b6005020154118015906131ce57508160000b60001914806131ce57506003600083900b600581106131b057fe5b60050201600001546003826005811015156131c757fe5b6005020154115b156131d7578091505b60010161316c565b50600019600082900b14156132095760405160e560020a62461bcd0281526004016106a19061475c565b60000b92915050565b600061321c613767565b6003856005811061322957fe5b6005020160a06040519081016040529081600082015481526020016001820180548060200260200160405190810160405280929190818152602001828054801561329c57602002820191906000526020600020905b8154600160a060020a0316815260019091019060200180831161327e575b50505050508152602001600282018054806020026020016040519081016040528092919081815260200182805480156132f457602002820191906000526020600020905b8154815260200190600101908083116132e0575b50505091835250506003820154602082015260049091015460409091015290506000805b8260200151518110156133895760208301518051600091908390811061333a57fe5b60209081029091010151600160a060020a0316146133815761337e83604001518281518110151561336757fe5b60209081029091010151839063ffffffff61348e16565b91505b600101613318565b50606080830151604080516020808201939093528082018990528084018890528151808203909401845260800190528151910120600082828115156133ca57fe5b06905060005b846020015151811015613460576020850151805160009190839081106133f257fe5b60209081029091010151600160a060020a03161461345857604085015180518290811061341b57fe5b60209081029091010151909103906000821361345857602085015180518290811061344257fe5b9060200190602002015195505050505050613487565b6001016133d0565b5060208401518051600019810190811061347657fe5b906020019060200201519450505050505b9392505050565b60008282018381101561348757600080fd5b600080600080845160411415156134bd5760009350505050610d02565b50505060208201516040830151606084015160001a601b60ff821610156134e257601b015b8060ff16601b141580156134fa57508060ff16601c14155b1561350b5760009350505050610d02565b6040805160008152602080820180845289905260ff8416828401526060820186905260808201859052915160019260a0808401939192601f1981019281900390910190855afa158015613562573d6000803e3d6000fd5b505050602060405103519350505050610d02565b50505092915050565b60016000848152601f602052604090206004015460ff1660028111156135a157fe5b146135c15760405160e560020a62461bcd0281526004016106a19061466c565b60008481526020805260409020600301548015156135ff5782156135fa5760405160e560020a62461bcd0281526004016106a1906146cc565b613658565b6000858152602080526040902060030161362082600163ffffffff61368216565b8154811061362a57fe5b9060005260206000200154831415156136585760405160e560020a62461bcd0281526004016106a19061467c565b50600093845260208080526040852060030180546001810182559086529420909301929092555050565b60008282111561369157600080fd5b50900390565b604080516080810190915260008082526020820190815260200160608152602001600081525090565b828054600181600116156101000203166002900490600052602060002090601f016020900481019282601f1061370157805160ff191683800117855561372e565b8280016001018555821561372e579182015b8281111561372e578251825591602001919060010190613713565b5061373a929150613797565b5090565b81548183558181111561376257600083815260209020613762918101908301613797565b505050565b60a06040519081016040528060008152602001606081526020016060815260200160008152602001600081525090565b6122e391905b8082111561373a576000815560010161379d565b60006134878235614931565b6000601f820183136137ce57600080fd5b81356137e16137dc826148c8565b6148a1565b9150818183526020840193506020810190508385602084028201111561380657600080fd5b60005b83811015613832578161381c88826138b8565b8452506020928301929190910190600101613809565b5050505092915050565b6000601f8201831361384d57600080fd5b813561385b6137dc826148c8565b9150818183526020840193506020810190508385602084028201111561388057600080fd5b60005b83811015613832578161389688826138b8565b8452506020928301929190910190600101613883565b6000613487825161493c565b600061348782356122e3565b6000601f820183136138d557600080fd5b81356138e36137dc826148e9565b915080825260208301602083018583830111156138ff57600080fd5b6135768382846149a4565b600061348782516122e3565b60006020828403121561392857600080fd5b600061393484846137b1565b949350505050565b6000806040838503121561394f57600080fd5b600061395b85856137b1565b925050602083013567ffffffffffffffff81111561397857600080fd5b613984858286016138c4565b9150509250929050565b600080604083850312156139a157600080fd5b60006139ad85856137b1565b9250506020613984858286016138b8565b600080604083850312156139d157600080fd5b823567ffffffffffffffff8111156139e857600080fd5b6139f4858286016137bd565b925050602083013567ffffffffffffffff811115613a1157600080fd5b6139848582860161383c565b600060208284031215613a2f57600080fd5b600061393484846138ac565b600060208284031215613a4d57600080fd5b600061393484846138b8565b60008060008060008060c08789031215613a7257600080fd5b6000613a7e89896138b8565b965050602087013567ffffffffffffffff811115613a9b57600080fd5b613aa789828a016137bd565b955050604087013567ffffffffffffffff811115613ac457600080fd5b613ad089828a016137bd565b945050606087013567ffffffffffffffff811115613aed57600080fd5b613af989828a016137bd565b935050608087013567ffffffffffffffff811115613b1657600080fd5b613b2289828a016138c4565b92505060a087013567ffffffffffffffff811115613b3f57600080fd5b613b4b89828a016138c4565b9150509295509295509295565b60008060408385031215613b6b57600080fd5b60006139ad85856138b8565b600080600080600060a08688031215613b8f57600080fd5b6000613b9b88886138b8565b9550506020613bac888289016138b8565b9450506040613bbd888289016138b8565b9350506060613bce888289016137b1565b925050608086013567ffffffffffffffff811115613beb57600080fd5b613bf7888289016138c4565b9150509295509295909350565b60008060008060008060c08789031215613c1d57600080fd5b6000613c2989896138b8565b9650506020613c3a89828a016138b8565b9550506040613c4b89828a016138b8565b9450506060613af989828a016138b8565b600080600060608486031215613c7157600080fd5b6000613c7d86866138b8565b9350506020613c8e868287016138b8565b9250506040613c9f868287016138b8565b9150509250925092565b600060208284031215613cbb57600080fd5b6000613934848461390a565b60008060408385031215613cda57600080fd5b600061395b85856138b8565b613cef81614971565b82525050565b613cef81614931565b6000613d0982614923565b808452602084019350613d1b83614911565b60005b82811015613d4b57613d31868351613cf5565b613d3a82614911565b602096909601959150600101613d1e565b5093949350505050565b6000613d6082614927565b808452602084019350613d7283614917565b60005b82811015613d4b57613d88868354613cf5565b613d918261492b565b602096909601959150600101613d75565b6000613dad82614923565b808452602084019350613dbf83614911565b60005b82811015613d4b57613dd5868351613e92565b613dde82614911565b602096909601959150600101613dc2565b6000613dfa82614923565b808452602084019350613e0c83614911565b60005b82811015613d4b57613e22868351613e92565b613e2b82614911565b602096909601959150600101613e0f565b6000613e4782614927565b808452602084019350613e5983614917565b60005b82811015613d4b57613e6f868354613e92565b613e788261492b565b602096909601959150600101613e5c565b613cef8161493c565b613cef816122e3565b6000613ea682614923565b808452613eba8160208601602086016149b0565b613ec3816149e0565b9093016020019392505050565b613cef81614978565b613cef81614983565b613cef8161498e565b613cef81614999565b601481527f556e7265676973746572656420776f726b65722e000000000000000000000000602082015260400190565b602681527f4e6f7420656e6f75676820746f6b656e7320616c6c6f77656420666f7220747260208201527f616e736665720000000000000000000000000000000000000000000000000000604082015260600190565b602181527f53656372657420636f6e747261637420616c7265616479206465706c6f79656460208201527f2e00000000000000000000000000000000000000000000000000000000000000604082015260600190565b601381527f496e76616c6964207461736b2073746174757300000000000000000000000000602082015260400190565b601e81527f496e76616c696420696e7075742073746174652064656c746120686173680000602082015260400190565b601281527f5472616e73666572206e6f742076616c69640000000000000000000000000000602082015260400190565b600e81527f496e76616c69642073656e646572000000000000000000000000000000000000602082015260400190565b601581527f546f6b656e207472616e73666572206661696c65640000000000000000000000602082015260400190565b601581527f576f726b6572206e6f74206c6f6767656420696e2e0000000000000000000000602082015260400190565b602e81527f496e76616c696420696e7075742073746174652064656c74612068617368206660208201527f6f7220656d707479207374617465000000000000000000000000000000000000604082015260600190565b601481527f416c6c6f77616e6365206e6f7420656e6f756768000000000000000000000000602082015260400190565b602581527f4e6f74207468652073656c656374656420776f726b657220666f72207468697360208201527f207461736b000000000000000000000000000000000000000000000000000000604082015260600190565b601581527f576f726b6572206e6f7420726567697374657265640000000000000000000000602082015260400190565b602681527f4f6e6c7920746865205072696e636970616c2063616e2075706461746520746860208201527f6520736565640000000000000000000000000000000000000000000000000000604082015260600190565b601381527f5461736b20616c72656164792065786973742e00000000000000000000000000602082015260400190565b601481527f5461736b20616c7265616479206578697374732e000000000000000000000000602082015260400190565b601d81527f53656372657420636f6e7472616374206e6f74206465706c6f7965642e000000602082015260400190565b601281527f496e76616c6964207369676e61747572652e0000000000000000000000000000602082015260400190565b603681527f4e6f20776f726b65727320706172616d657465727320656e74727920666f722060208201527f73706563696669656420626c6f636b206e756d62657200000000000000000000604082015260600190565b602381527f4e6f7420656e6f75676820746f6b656e7320696e20776f726b65722062616c6160208201527f6e63650000000000000000000000000000000000000000000000000000000000604082015260600190565b60208101610d028284613cf5565b604081016143da8285613ce6565b6134876020830184613cf5565b606081016143f58286613ce6565b6144026020830185613cf5565b6139346040830184613e92565b604081016143da8285613cf5565b606081016143f58286613cf5565b608081016144398287613cf5565b6144466020830186613e92565b6144536040830185613e92565b6144606060830184613ed9565b95945050505050565b604081016144778285613cf5565b81810360208301526139348184613e9b565b608081016144978287613cf5565b6144a46020830186613eeb565b81810360408301526144b68185613e9b565b90506144606060830184613e92565b604081016144d38285613cf5565b6134876020830184613e92565b602080825281016134878184613cfe565b602080825281016134878184613da2565b60a080825281016145138188613da2565b905081810360208301526145278187613da2565b9050818103604083015261453b8186613da2565b9050818103606083015261454f8185613e9b565b905081810360808301526145638184613e9b565b979650505050505050565b6060808252810161457f8186613da2565b905081810360208301526145938185613def565b90506139346040830184613ce6565b60208101610d028284613e89565b60208101610d028284613e92565b604081016144d38285613e92565b60a081016145da8288613e92565b6145e76020830187613e92565b6145f46040830186613e92565b818103606083015261454f8185613e9b565b606081016146148286613e92565b6146216020830185613e92565b6139346040830184613ce6565b60208101610d028284613ed0565b60208082528101610d0281613ef4565b60208082528101610d0281613f24565b60208082528101610d0281613f7a565b60208082528101610d0281613fd0565b60208082528101610d0281614000565b60208082528101610d0281614030565b60208082528101610d0281614060565b60208082528101610d0281614090565b60208082528101610d02816140c0565b60208082528101610d02816140f0565b60208082528101610d0281614146565b60208082528101610d0281614176565b60208082528101610d02816141cc565b60208082528101610d02816141fc565b60208082528101610d0281614252565b60208082528101610d0281614282565b60208082528101610d02816142b2565b60208082528101610d02816142e2565b60208082528101610d0281614312565b60208082528101610d0281614368565b60a0810161478a8288613e92565b818103602083015261479c8187613e9b565b90506147ab6040830186613cf5565b6147b86060830185613e92565b6147c56080830184613ee2565b9695505050505050565b608081016147dd8287613e92565b6147ea6020830186613e92565b81810360408301526147fc8185613cfe565b905081810360608301526147c58184613cfe565b6080810161481e8287613e92565b61482b6020830186613e92565b818103604083015261483d8185613cfe565b905081810360608301526147c58184613def565b60a0810161485f8288613e92565b61486c6020830187613e92565b818103604083015261487e8186613d55565b905081810360608301526148928185613e3c565b90506147c56080830184613e92565b60405181810167ffffffffffffffff811182821017156148c057600080fd5b604052919050565b600067ffffffffffffffff8211156148df57600080fd5b5060209081020190565b600067ffffffffffffffff82111561490057600080fd5b506020601f91909101601f19160190565b60200190565b60009081526020902090565b5190565b5490565b60010190565b6000610d0282614965565b151590565b60006002821061373a57fe5b60006003821061373a57fe5b60006004821061373a57fe5b600160a060020a031690565b6000610d02825b6000610d0282614931565b6000610d0282614941565b6000610d028261494d565b6000610d0282614959565b82818337506000910152565b60005b838110156149cb5781810151838201526020016149b3565b838111156149da576000848401525b50505050565b601f01601f19169056fea265627a7a723058202c3e46f0555cc6a0a1a2ef3e9f31ba1eeeb212f4344a36cbc8463db7a984e8656c6578706572696d656e74616cf50037",
  "source": "pragma solidity ^0.5.0;\npragma experimental ABIEncoderV2;\n\nimport \"openzeppelin-solidity/contracts/math/SafeMath.sol\";\nimport \"openzeppelin-solidity/contracts/cryptography/ECDSA.sol\";\n\ncontract ERC20 {\n    function allowance(address owner, address spender) public view returns (uint256);\n\n    function transferFrom(address from, address to, uint256 value) public returns (bool);\n\n    function approve(address spender, uint256 value) public returns (bool);\n\n    function totalSupply() public view returns (uint256);\n\n    function balanceOf(address who) public view returns (uint256);\n\n    function transfer(address to, uint256 value) public returns (bool);\n\n    event Transfer(address indexed from, address indexed to, uint256 value);\n    event Approval(address indexed owner, address indexed spender, uint256 value);\n}\n\ncontract Enigma {\n    using SafeMath for uint256;\n    using ECDSA for bytes32;\n\n    // ========================================== Structs ==========================================\n\n    struct TaskRecord {\n        uint fee; // ENG fee in grains (10 ** 8) amount\n        bytes proof; // Signature of (taskId, inStateDeltaHash, outStateDeltaHash, ethCall)\n        address sender; // Sender of TaskRecord\n        uint blockNumber; // Block number TaskRecord was mined\n        TaskStatus status; // RecordUndefined: 0; RecordCreated: 1; ReceiptVerified: 2\n    }\n\n    struct Worker {\n        address signer; // Enclave address\n        WorkerStatus status; // Unregistered: 0, Registered: 1, LoggedIn: 2, LoggedOut: 3\n        bytes report; // Decided to store this as one  RLP encoded attribute for easier external storage in the future\n        uint256 balance; // ENG balance\n    }\n\n    /**\n    * The data representation of the worker parameters used as input for\n    * the worker selection algorithm\n    */\n    struct WorkersParams {\n        uint firstBlockNumber;\n        address[] workers;\n        uint[] balances;\n        uint seed;\n        uint nonce;\n    }\n\n    struct SecretContract {\n        address owner; // Owner who deployed secret contract\n        bytes32 preCodeHash; // Predeployed bytecode hash\n        bytes32 codeHash; // Deployed bytecode hash\n        bytes32[] stateDeltaHashes;\n        SecretContractStatus status; // Undefined: 0, Deployed: 1\n        // TODO: consider keeping an index of taskIds\n    }\n\n    // ========================================== Enums ==========================================\n\n    enum TaskStatus {RecordUndefined, RecordCreated, ReceiptVerified}\n\n    enum WorkerStatus {Unregistered, Registered, LoggedIn, LoggedOut}\n\n    enum SecretContractStatus {Undefined, Deployed}\n\n    // ========================================== Events ==========================================\n\n    event Registered(address custodian, address signer);\n    event ValidatedSig(bytes sig, bytes32 hash, address workerAddr);\n    event WorkersParameterized(uint seed, uint256 blockNumber, address[] workers, uint[] balances, uint nonce);\n    event TaskRecordCreated(bytes32 taskId, uint fee, address sender);\n    event TaskRecordsCreated(bytes32[] taskIds, uint[] fees, address sender);\n    event ReceiptVerified(bytes32 taskId, bytes32 inStateDeltaHash, bytes32 outStateDeltaHash, bytes ethCall, bytes sig);\n    event ReceiptsVerified(bytes32[] taskIds, bytes32[] inStateDeltaHashes, bytes32[] outStateDeltaHashes, bytes ethCall, bytes sig);\n    event DepositSuccessful(address from, uint value);\n    event WithdrawSuccessful(address to, uint value);\n    event SecretContractDeployed(bytes32 scAddr, bytes32 codeHash);\n\n    // ========================================== State Variables ==========================================\n\n    // The interface of the deployed ENG ERC20 token contract\n    ERC20 public engToken;\n\n    // Epoch size in number of blocks\n    uint public epochSize = 100;\n\n    /**\n    * The signer address of the principal node\n    * This must be set when deploying the contract and remains immutable\n    * Since the signer address is derived from the public key of an\n    * SGX enclave, this ensures that the principal node cannot be tempered\n    * with or replaced.\n    */\n    address principal;\n\n    /**\n    * The last 5 worker parameters\n    * We keep a collection of worker parameters to account for latency issues.\n    * A computation task might be conceivably given out at a certain block number\n    * but executed at a later block in a different epoch. It follows that\n    * the contract must have access to the worker parameters effective when giving\n    * out the task, otherwise the selected worker would not match. We calculated\n    * that keeping the last 5 items should be more than enough to account for\n    * all latent tasks. Tasks results will be rejected past this limit.\n    */\n    WorkersParams[5] workersParams;\n\n    // An address-based index of all registered worker\n    address[] public workerAddresses;\n    // An address-based index of all secret contracts\n    bytes32[] public scAddresses;\n\n    // A registry of all registered workers with their attributes\n    mapping(address => Worker) public workers;\n\n    // A registry of all tasks with their attributes\n    mapping(bytes32 => TaskRecord) public tasks;\n\n    // A registry of all deployed secret contracts with their attributes\n    mapping(bytes32 => SecretContract) public contracts;\n\n    // A mapping of number of tasks deployed for each address\n    mapping(address => uint) public userTaskDeployments;\n\n    // TODO: do we keep tasks forever? if not, when do we delete them?\n    uint stakingThreshold;\n    uint public workerGroupSize;\n\n    // ========================================== Constructor ==========================================\n\n    constructor(address _tokenAddress, address _principal) public {\n        engToken = ERC20(_tokenAddress);\n        principal = _principal;\n        stakingThreshold = 1;\n        workerGroupSize = 5;\n    }\n\n    //TODO: break down these methods into services for upgradability\n\n    // ========================================== Modifiers ==========================================\n\n    /**\n    * Checks if the custodian wallet is registered as a worker\n    *\n    * @param _user The custodian address of the worker\n    */\n    modifier workerRegistered(address _user) {\n        Worker memory worker = workers[_user];\n        require(worker.status != WorkerStatus.Unregistered, \"Unregistered worker.\");\n        _;\n    }\n\n    /**\n    * Checks if the custodian wallet is logged in as a worker\n    *\n    * @param _user The custodian address of the worker\n    */\n    modifier workerLoggedIn(address _user) {\n        Worker memory worker = workers[_user];\n        require(worker.status == WorkerStatus.LoggedIn, \"Worker not logged in.\");\n        _;\n    }\n\n    /**\n    * Checks secret contract has been deployed\n    *\n    * @param _scAddr Secret contract address\n    */\n    modifier contractDeployed(bytes32 _scAddr) {\n        require(contracts[_scAddr].status == SecretContractStatus.Deployed, \"Secret contract not deployed.\");\n        _;\n    }\n\n    // ========================================== Functions ==========================================\n\n    /**\n    * Registers a new worker of change the signer parameters of an existing\n    * worker. This should be called by every worker (and the principal)\n    * node in order to receive tasks.\n    *\n    * @param _signer The signer address, derived from the enclave public key\n    * @param _report The RLP encoded report returned by the IAS\n    */\n    function register(address _signer, bytes memory _report)\n    public\n    {\n        // TODO: consider exit if both signer and custodian as matching\n        // If the custodian is not already register, we add an index entry\n        if (workers[msg.sender].signer == address(0)) {\n            workerAddresses.push(msg.sender);\n        }\n\n        // Set the custodian attributes\n        workers[msg.sender].signer = _signer;\n        workers[msg.sender].balance = 0;\n        workers[msg.sender].report = _report;\n        workers[msg.sender].status = WorkerStatus.Registered;\n\n        emit Registered(msg.sender, _signer);\n    }\n\n    /**\n    * Deposits ENG stake into contract from worker. Worker must be registered to do so.\n    *\n    * @param _custodian The worker's ETH address\n    * @param _amount The amount of ENG, in grains format (10 ** 8), to deposit\n    */\n    function deposit(address _custodian, uint _amount)\n    public\n    workerRegistered(_custodian)\n    {\n        require(engToken.allowance(_custodian, address(this)) >= _amount, \"Not enough tokens allowed for transfer\");\n        require(engToken.transferFrom(_custodian, address(this), _amount), \"Token transfer failed\");\n\n        workers[_custodian].balance = workers[_custodian].balance.add(_amount);\n\n        emit DepositSuccessful(_custodian, _amount);\n    }\n\n    /**\n    * Withdraws ENG stake from contract back to worker. Worker must be registered to do so.\n    *\n    * @param _custodian The worker's ETH address\n    * @param _amount The amount of ENG, in grains format (10 ** 8), to deposit\n    */\n    function withdraw(address _custodian, uint _amount)\n    public\n    workerRegistered(_custodian)\n    {\n        require(workers[_custodian].balance >= _amount, \"Not enough tokens in worker balance\");\n        require(engToken.transfer(_custodian, _amount), \"Token transfer failed\");\n\n        workers[_custodian].balance = workers[_custodian].balance.sub(_amount);\n\n        emit WithdrawSuccessful(_custodian, _amount);\n    }\n\n    /**\n    * Login worker. Worker must be registered to do so, and must be logged in at start of epoch to be part of worker\n    * selection process.\n    */\n    function login() public workerRegistered(msg.sender) {\n        workers[msg.sender].status = WorkerStatus.LoggedIn;\n    }\n\n    /**\n    * Logout worker. Worker must be logged in to do so.\n    */\n    function logout() public workerLoggedIn(msg.sender) {\n        workers[msg.sender].status = WorkerStatus.LoggedOut;\n    }\n\n    /**\n    * Deploy secret contract from user, called by the worker.\n    *\n    * @param _scAddr Secret contract address\n    * @param _preCodeHash Predeployed bytecode hash\n    * @param _codeHash Deployed bytecode hash\n    * @param _owner ETH address for user who initially deployed the secret contract task\n    * @param _sig Worker's signature for deployment\n    */\n    function deploySecretContract(bytes32 _scAddr, bytes32 _preCodeHash, bytes32 _codeHash,\n        address _owner, bytes memory _sig)\n    public\n    workerLoggedIn(msg.sender)\n    {\n        // Secret contract must not have been deployed yet\n        require(contracts[_scAddr].status == SecretContractStatus.Undefined, \"Secret contract already deployed.\");\n\n        // We can index into tasks with secret contract address since for contract deployment tasks, scAddr == taskId\n        // Must be a task record corresponding to this deployment task\n        require(tasks[_scAddr].status == TaskStatus.RecordCreated, \"Invalid task status\");\n\n        // Owner must be the same as the corresponding task record's owner\n        require(tasks[_scAddr].sender == _owner, \"Invalid sender\");\n\n        // Worker deploying task must be the appropriate worker as per the worker selection algorithm\n        address selectedWorker = getWorkerGroup(tasks[_scAddr].blockNumber, _scAddr)[0];\n        require(msg.sender == selectedWorker, \"Not the selected worker for this task\");\n\n        // Verify the worker's signature\n        bytes32 msgHash = keccak256(abi.encodePacked(_scAddr, _codeHash));\n        address verifySigner = msgHash.recover(_sig);\n        require(verifySigner == workers[msg.sender].signer, \"Invalid signature.\");\n\n        // Set the secret contract's attributes in registry\n        contracts[_scAddr].owner = _owner;\n        contracts[_scAddr].preCodeHash = _preCodeHash;\n        contracts[_scAddr].codeHash = _codeHash;\n        contracts[_scAddr].status = SecretContractStatus.Deployed;\n        scAddresses.push(_scAddr);\n\n        // Finalize task record for deployment task\n        tasks[_scAddr].proof = _sig;\n        tasks[_scAddr].status = TaskStatus.ReceiptVerified;\n\n        // Credit worker with th efees associated with this deployment task\n        workers[msg.sender].balance = workers[msg.sender].balance.add(tasks[_scAddr].fee);\n\n        emit SecretContractDeployed(_scAddr, _codeHash);\n    }\n\n    /**\n    * Check if secret contract has been deployed\n    *\n    * @param _scAddr Secret contract address\n    * @return  true/false\n    */\n    function isDeployed(bytes32 _scAddr)\n    public\n    view\n    returns (bool)\n    {\n        if (contracts[_scAddr].status == SecretContractStatus.Deployed) {\n            return true;\n        } else {\n            return false;\n        }\n    }\n\n    /**\n    * Check if secret contract has been deployed\n    *\n    * @return  Number of deployed secret contracts\n    */\n    function countSecretContracts()\n    public\n    view\n    returns (uint)\n    {\n        return scAddresses.length;\n    }\n\n    /**\n    * Get deployed secret contract addresses within a range\n    *\n    * @param _start Start of range\n    * @param _stop End of range\n    * @return Subset of deployed secret contract addresses\n    */\n    function getSecretContractAddresses(uint _start, uint _stop)\n    public\n    view\n    returns (bytes32[] memory)\n    {\n        if (_stop == 0) {\n            _stop = scAddresses.length;\n        }\n        bytes32[] memory addresses = new bytes32[](_stop.sub(_start));\n        uint pos = 0;\n        for (uint i = _start; i < _stop; i++) {\n            addresses[pos] = scAddresses[i];\n            pos++;\n        }\n        return addresses;\n    }\n\n    /**\n    * Count state deltas for a deployed secret contract\n    *\n    * @param _scAddr Secret contract address\n    * @return Number of state deltas for deployed secret contract\n    */\n    function countStateDeltas(bytes32 _scAddr)\n    public\n    view\n    contractDeployed(_scAddr)\n    returns (uint)\n    {\n        return contracts[_scAddr].stateDeltaHashes.length;\n    }\n\n    /**\n    * Obtain state delta hash for a deployed secret contract at a particular index\n    *\n    * @param _scAddr Secret contract address\n    * @param _index Index in list of state deltas\n    * @return State delta hash\n    */\n    function getStateDeltaHash(bytes32 _scAddr, uint _index)\n    public\n    view\n    contractDeployed(_scAddr)\n    returns (bytes32)\n    {\n        return contracts[_scAddr].stateDeltaHashes[_index];\n    }\n\n    /**\n    * Obtain state delta hashes for a deployed secret contract within a range\n    *\n    * @param _start Start of range\n    * @param _stop End of range\n    * @return Subset of state delta hashes for deployed secret contract\n    */\n    function getStateDeltaHashes(bytes32 _scAddr, uint _start, uint _stop)\n    public\n    view\n    contractDeployed(_scAddr)\n    returns (bytes32[] memory)\n    {\n        if (_stop == 0) {\n            _stop = contracts[_scAddr].stateDeltaHashes.length;\n        }\n        bytes32[] memory deltas = new bytes32[](_stop.sub(_start));\n        uint pos = 0;\n        for (uint i = _start; i < _stop; i++) {\n            deltas[pos] = contracts[_scAddr].stateDeltaHashes[i];\n            pos++;\n        }\n        return deltas;\n    }\n\n    /**\n    * Check if particular state delta hash for a deployed secret contract is valid\n    *\n    * @param _scAddr Secret contract address\n    * @param _stateDeltaHash State delta hash\n    * @return true/false\n    */\n    function isValidDeltaHash(bytes32 _scAddr, bytes32 _stateDeltaHash)\n    public\n    view\n    contractDeployed(_scAddr)\n    returns (bool)\n    {\n        bool valid = false;\n        for (uint i = 0; i < contracts[_scAddr].stateDeltaHashes.length; i++) {\n            if (contracts[_scAddr].stateDeltaHashes[i] == _stateDeltaHash) {\n                valid = true;\n                break;\n            }\n        }\n        return valid;\n    }\n\n    /**\n    * Create task record for task (either contract deployment or regular task). This is necessary for\n    * transferring task fee from sender to contract, generating the unique taskId, saving the block number\n    * when the record was mined, and incrementing the user's task deployment counter nonce.\n    *\n    * @param _taskIdInputHash Hash of function name, ABI-encoded args, and user's public key\n    * @param _fee ENG fee\n    */\n    function createTaskRecord(\n        bytes32 _taskIdInputHash,\n        uint _fee\n    )\n    public\n    {\n        require(engToken.allowance(msg.sender, address(this)) >= _fee, \"Allowance not enough\");\n        require(engToken.transferFrom(msg.sender, address(this), _fee), \"Transfer not valid\");\n\n        // Create taskId\n        bytes32 taskId = keccak256(abi.encodePacked(_taskIdInputHash, userTaskDeployments[msg.sender]));\n        require(tasks[taskId].sender == address(0), \"Task already exists.\");\n\n        tasks[taskId].fee = _fee;\n        tasks[taskId].sender = msg.sender;\n        tasks[taskId].blockNumber = block.number;\n        tasks[taskId].status = TaskStatus.RecordCreated;\n\n        userTaskDeployments[msg.sender]++;\n\n        emit TaskRecordCreated(taskId, _fee, msg.sender);\n    }\n\n    /**\n    * Create task records for tasks (either contract deployment or regular tasks). This is necessary for\n    * transferring task fee from sender to contract, generating the unique taskId, saving the block number\n    * when the record was mined, and incrementing the user's task deployment counter nonce.\n    *\n    * @param _taskIdInputHashes Hashes of function name, ABI-encoded args, and user's public key\n    * @param _fees ENG fees\n    */\n    function createTaskRecords(\n        bytes32[] memory _taskIdInputHashes,\n        uint[] memory _fees\n    )\n    public\n    {\n        bytes32[] memory taskIds = new bytes32[](_taskIdInputHashes.length);\n        for (uint i = 0; i < _taskIdInputHashes.length; i++) {\n            require(engToken.allowance(msg.sender, address(this)) >= _fees[i], \"Allowance not enough\");\n            require(engToken.transferFrom(msg.sender, address(this), _fees[i]), \"Transfer not valid\");\n\n            bytes32 taskId = keccak256(abi.encodePacked(_taskIdInputHashes[i], userTaskDeployments[msg.sender]));\n            require(tasks[taskId].sender == address(0), \"Task already exist.\");\n            taskIds[i] = taskId;\n\n            tasks[taskId].fee = _fees[i];\n            tasks[taskId].sender = msg.sender;\n            tasks[taskId].blockNumber = block.number;\n            tasks[taskId].status = TaskStatus.RecordCreated;\n\n            userTaskDeployments[msg.sender]++;\n        }\n        emit TaskRecordsCreated(taskIds, _fees, msg.sender);\n    }\n\n    // Execute the encoded function in the specified contract\n    function executeCall(address _to, uint256 _value, bytes memory _data)\n    internal\n    returns (bool success)\n    {\n        assembly {\n            success := call(gas, _to, _value, add(_data, 0x20), mload(_data), 0, 0)\n        }\n    }\n\n    /**\n    * After verifying that the record for which the worker is committing a receipt has been created and that the input\n    * state delta hash checks out, append the output state delta hash to the list of state deltas.\n    *\n    * @param _scAddr Secret contract address\n    * @param _taskId Unique taskId\n    * @param _inStateDeltaHash Input state delta hash\n    * @param _outStateDeltaHash Output state delta hash\n    */\n    function verifyReceipt(\n        bytes32 _scAddr,\n        bytes32 _taskId,\n        bytes32 _inStateDeltaHash,\n        bytes32 _outStateDeltaHash\n    )\n    internal\n    {\n        require(tasks[_taskId].status == TaskStatus.RecordCreated, 'Invalid task status');\n        uint index = contracts[_scAddr].stateDeltaHashes.length;\n        if (index == 0) {\n            require(_inStateDeltaHash == 0x0, 'Invalid input state delta hash for empty state');\n        } else {\n            require(_inStateDeltaHash == contracts[_scAddr].stateDeltaHashes[index.sub(1)], 'Invalid input state delta hash');\n        }\n        contracts[_scAddr].stateDeltaHashes.push(_outStateDeltaHash);\n        // TODO: execute the Ethereum calls\n    }\n\n    /**\n    * Commit the computation task results on chain by first verifying the receipt and then the worker's signature.\n    * After this, the task record is finalized and the worker is credited with the task's fee.\n    *\n    * @param _scAddr Secret contract address\n    * @param _taskId Unique taskId\n    * @param _inStateDeltaHash Input state delta hash\n    * @param _outStateDeltaHash Output state delta hash\n    * @param _ethCall Eth call\n    * @param _sig Worker's signature\n    */\n    function commitReceipt(\n        bytes32 _scAddr,\n        bytes32 _taskId,\n        bytes32 _inStateDeltaHash,\n        bytes32 _outStateDeltaHash,\n        bytes memory _ethCall,\n        bytes memory _sig\n    )\n    public\n    workerLoggedIn(msg.sender)\n    contractDeployed(_scAddr)\n    {\n        verifyReceipt(_scAddr, _taskId, _inStateDeltaHash, _outStateDeltaHash);\n        bytes32 hash = keccak256(abi.encodePacked(_taskId, _inStateDeltaHash, _outStateDeltaHash, _ethCall));\n        address workerAddr = hash.recover(_sig);\n        require(workerAddr == workers[msg.sender].signer, \"Invalid signature.\");\n        tasks[_taskId].proof = _sig;\n        tasks[_taskId].status = TaskStatus.ReceiptVerified;\n        workers[msg.sender].balance = workers[msg.sender].balance.add(tasks[_taskId].fee);\n        emit ReceiptVerified(_taskId, _inStateDeltaHash, _outStateDeltaHash, _ethCall, _sig);\n    }\n\n    /**\n   * Commit the computation task results on chain by first verifying the receipts and then the worker's signature.\n   * After this, the task records are finalized and the worker is credited with the tasks' fees.\n   *\n   * @param _scAddr Secret contract address\n   * @param _taskIds Unique taskId\n   * @param _inStateDeltaHashes Input state delta hash\n   * @param _outStateDeltaHashes Output state delta hash\n   * @param _ethCall Eth call\n   * @param _sig Worker's signature\n   */\n    function commitReceipts(\n        bytes32 _scAddr,\n        bytes32[] memory _taskIds,\n        bytes32[] memory _inStateDeltaHashes,\n        bytes32[] memory _outStateDeltaHashes,\n        bytes memory _ethCall,\n        bytes memory _sig\n    )\n    public\n    workerLoggedIn(msg.sender)\n    contractDeployed(_scAddr)\n    {\n        for (uint i = 0; i < _taskIds.length; i++) {\n            verifyReceipt(_scAddr, _taskIds[i], _inStateDeltaHashes[i], _outStateDeltaHashes[i]);\n        }\n        bytes32 hash = keccak256(abi.encodePacked(_taskIds, _inStateDeltaHashes, _outStateDeltaHashes, _ethCall));\n        address workerAddr = hash.recover(_sig);\n        require(workerAddr == workers[msg.sender].signer, \"Invalid signature.\");\n        for (uint ic = 0; ic < _taskIds.length; ic++) {\n            tasks[_taskIds[ic]].proof = _sig;\n            tasks[_taskIds[ic]].status = TaskStatus.ReceiptVerified;\n            workers[msg.sender].balance = workers[msg.sender].balance.add(tasks[_taskIds[ic]].fee);\n        }\n        emit ReceiptsVerified(_taskIds, _inStateDeltaHashes, _outStateDeltaHashes, _ethCall, _sig);\n    }\n\n    // Verify the signature submitted while reparameterizing workers\n    function verifyParamsSig(uint256 _seed, bytes memory _sig)\n    internal\n    pure\n    returns (address)\n    {\n        bytes32 hash = keccak256(abi.encodePacked(_seed));\n        address signer = hash.recover(_sig);\n        return signer;\n    }\n\n    /**\n    * Reparameterizing workers with a new seed\n    * This should be called for each epoch by the Principal node\n    *\n    * @param _seed The random integer generated by the enclave\n    * @param _sig The random integer signed by the the principal node's enclave\n    */\n    function setWorkersParams(uint _seed, bytes memory _sig)\n    public\n    workerRegistered(msg.sender)\n    {\n        // Reparameterizing workers with a new seed\n        // This should be called for each epoch by the Principal node\n\n        // We assume that the Principal is always the first registered node\n        require(workers[msg.sender].signer == principal, \"Only the Principal can update the seed\");\n        // TODO: verify the principal sig\n\n        // Create a new workers parameters item for the specified seed.\n        // The workers parameters list is a sort of cache, it never grows beyond its limit.\n        // If the list is full, the new item will replace the item assigned to the lowest block number.\n        uint paramIndex = 0;\n        for (uint pi = 0; pi < workersParams.length; pi++) {\n            // Find an empty slot in the array, if full use the lowest block number\n            if (workersParams[pi].firstBlockNumber == 0) {\n                paramIndex = pi;\n                break;\n            } else if (workersParams[pi].firstBlockNumber < workersParams[paramIndex].firstBlockNumber) {\n                paramIndex = pi;\n            }\n        }\n        workersParams[paramIndex].firstBlockNumber = block.number;\n        workersParams[paramIndex].seed = _seed;\n        workersParams[paramIndex].nonce = userTaskDeployments[msg.sender];\n\n        // Copy the current worker list\n        uint workerIndex = 0;\n        for (uint wi = 0; wi < workerAddresses.length; wi++) {\n            Worker memory worker = workers[workerAddresses[wi]];\n            if ((worker.balance >= stakingThreshold) && (worker.signer != principal) &&\n                (worker.status == WorkerStatus.LoggedIn)) {\n                workersParams[paramIndex].workers.length++;\n                workersParams[paramIndex].workers[workerIndex] = workerAddresses[wi];\n\n                workersParams[paramIndex].balances.length++;\n                workersParams[paramIndex].balances[workerIndex] = worker.balance;\n\n                workerIndex = workerIndex.add(1);\n            }\n        }\n        emit WorkersParameterized(_seed, block.number, workersParams[paramIndex].workers,\n            workersParams[paramIndex].balances, userTaskDeployments[msg.sender]);\n        userTaskDeployments[msg.sender]++;\n    }\n\n    function getWorkerParamsIndex(uint _blockNumber)\n    internal\n    view\n    returns (uint)\n    {\n        // The workers parameters for a given block number\n        int8 index = - 1;\n        for (uint i = 0; i < workersParams.length; i++) {\n            if (workersParams[i].firstBlockNumber <= _blockNumber && (index == - 1 || workersParams[i].firstBlockNumber > workersParams[uint(index)].firstBlockNumber)) {\n                index = int8(i);\n            }\n        }\n        require(index != - 1, \"No workers parameters entry for specified block number\");\n        return uint(index);\n    }\n\n    function getWorkerParams(uint _blockNumber)\n    public\n    view\n    returns (uint, uint, address[] memory, uint[] memory) {\n        uint index = getWorkerParamsIndex(_blockNumber);\n        WorkersParams memory params = workersParams[index];\n        return (params.firstBlockNumber, params.seed, params.workers, params.balances);\n    }\n\n    /**\n    * Select a worker for the computation task pseudorandomly based on the epoch, secret contract address, and nonce\n    *\n    * @param _paramIndex Param index\n    * @param _scAddr Secret contract address\n    * @param _nonce Counter\n    * @return Selected worker's address\n    */\n    function selectWeightedRandomWorker(uint _paramIndex, bytes32 _scAddr, uint _nonce)\n    internal\n    view\n    returns (address)\n    {\n        WorkersParams memory params = workersParams[_paramIndex];\n        uint tokenCpt = 0;\n        for (uint i = 0; i < params.workers.length; i++) {\n            if (params.workers[i] != address(0)) {\n                tokenCpt = tokenCpt.add(params.balances[i]);\n            }\n        }\n        bytes32 randHash = keccak256(abi.encodePacked(params.seed, _scAddr, _nonce));\n        int randVal = int256(uint256(randHash) % tokenCpt);\n        for (uint k = 0; k < params.workers.length; k++) {\n            if (params.workers[k] != address(0)) {\n                randVal -= int256(params.balances[k]);\n                if (randVal <= 0) {\n                    return params.workers[k];\n                }\n            }\n        }\n        return params.workers[params.workers.length - 1];\n    }\n\n    /**\n    * Select a group of workers for the computation task given the block number of the task record (implies the epoch)\n    * and the secret contract address.\n    *\n    * @param _blockNumber Block number the task record was mined\n    * @param _scAddr Secret contract address\n    * @return Selected workers' addresses\n    */\n    function getWorkerGroup(uint _blockNumber, bytes32 _scAddr)\n    public\n    view\n    returns (address[] memory)\n    {\n        // Compile a list of selected workers for the block number and\n        // secret contract.\n        uint paramIndex = getWorkerParamsIndex(_blockNumber);\n\n        address[] memory selectedWorkers = new address[](workerGroupSize);\n        uint nonce = 0;\n        for (uint it = 0; it < workerGroupSize; it++) {\n            do {\n                address worker = selectWeightedRandomWorker(paramIndex, _scAddr, nonce);\n                bool dup = false;\n                for (uint id = 0; id < selectedWorkers.length; id++) {\n                    if (worker == selectedWorkers[id]) {\n                        dup = true;\n                        break;\n                    }\n                }\n                if (dup == false) {\n                    selectedWorkers[it] = worker;\n                }\n                nonce++;\n            }\n            while (selectedWorkers[it] == address(0));\n        }\n        return selectedWorkers;\n    }\n\n    /**\n    * The worker parameters corresponding to the specified block number\n    *\n    * @param _blockNumber The reference block number\n    */\n    function getWorkersParams(uint _blockNumber)\n    public\n    view\n    returns (uint, uint, address[] memory, address[] memory)\n    {\n        // TODO: finalize implementation\n        uint firstBlockNumber = 0;\n        uint seed = 0;\n        address[] memory activeWorkers;\n        address[] memory activeContracts;\n        return (firstBlockNumber, seed, activeWorkers, activeContracts);\n    }\n\n    /**\n    * The RLP encoded report returned by the IAS server\n    *\n    * @param _custodian The worker's custodian address\n    */\n    function getReport(address _custodian)\n    public\n    view\n    workerRegistered(_custodian)\n    returns (address, bytes memory)\n    {\n        // The RLP encoded report and signer's address for the specified worker\n        require(workers[_custodian].signer != address(0), \"Worker not registered\");\n        return (workers[_custodian].signer, workers[_custodian].report);\n    }\n}\n",
  "sourcePath": "/Users/adityapalepu/Startups/enigma/enigma-contract-internal/contracts/Enigma.sol",
  "compiler": {
    "name": "solc",
    "version": "0.5.0+commit.1d4f565a.Emscripten.clang"
  },
  "schemaVersion": "3.0.1",
  "updatedAt": "2019-01-10T15:46:00.758Z",
  "devdoc": {
    "methods": {
      "commitReceipt(bytes32,bytes32,bytes32,bytes32,bytes,bytes)": {
        "params": {
          "_ethCall": "Eth call",
          "_inStateDeltaHash": "Input state delta hash",
          "_outStateDeltaHash": "Output state delta hash",
          "_scAddr": "Secret contract address",
          "_sig": "Worker's signature",
          "_taskId": "Unique taskId"
        }
      },
      "commitReceipts(bytes32,bytes32[],bytes32[],bytes32[],bytes,bytes)": {
        "params": {
          "_ethCall": "Eth call",
          "_inStateDeltaHashes": "Input state delta hash",
          "_outStateDeltaHashes": "Output state delta hash",
          "_scAddr": "Secret contract address",
          "_sig": "Worker's signature",
          "_taskIds": "Unique taskId"
        }
      },
      "countSecretContracts()": {
        "return": "Number of deployed secret contracts"
      },
      "countStateDeltas(bytes32)": {
        "params": {
          "_scAddr": "Secret contract address"
        },
        "return": "Number of state deltas for deployed secret contract"
      },
      "createTaskRecord(bytes32,uint256)": {
        "params": {
          "_fee": "ENG fee",
          "_taskIdInputHash": "Hash of function name, ABI-encoded args, and user's public key"
        }
      },
      "createTaskRecords(bytes32[],uint256[])": {
        "params": {
          "_fees": "ENG fees",
          "_taskIdInputHashes": "Hashes of function name, ABI-encoded args, and user's public key"
        }
      },
      "deploySecretContract(bytes32,bytes32,bytes32,address,bytes)": {
        "params": {
          "_codeHash": "Deployed bytecode hash",
          "_owner": "ETH address for user who initially deployed the secret contract task",
          "_preCodeHash": "Predeployed bytecode hash",
          "_scAddr": "Secret contract address",
          "_sig": "Worker's signature for deployment"
        }
      },
      "deposit(address,uint256)": {
        "params": {
          "_amount": "The amount of ENG, in grains format (10 ** 8), to deposit",
          "_custodian": "The worker's ETH address"
        }
      },
      "getReport(address)": {
        "params": {
          "_custodian": "The worker's custodian address"
        }
      },
      "getSecretContractAddresses(uint256,uint256)": {
        "params": {
          "_start": "Start of range",
          "_stop": "End of range"
        },
        "return": "Subset of deployed secret contract addresses"
      },
      "getStateDeltaHash(bytes32,uint256)": {
        "params": {
          "_index": "Index in list of state deltas",
          "_scAddr": "Secret contract address"
        },
        "return": "State delta hash"
      },
      "getStateDeltaHashes(bytes32,uint256,uint256)": {
        "params": {
          "_start": "Start of range",
          "_stop": "End of range"
        },
        "return": "Subset of state delta hashes for deployed secret contract"
      },
      "getWorkerGroup(uint256,bytes32)": {
        "params": {
          "_blockNumber": "Block number the task record was mined",
          "_scAddr": "Secret contract address"
        },
        "return": "Selected workers' addresses"
      },
      "getWorkersParams(uint256)": {
        "params": {
          "_blockNumber": "The reference block number"
        }
      },
      "isDeployed(bytes32)": {
        "params": {
          "_scAddr": "Secret contract address"
        },
        "return": "true/false"
      },
      "isValidDeltaHash(bytes32,bytes32)": {
        "params": {
          "_scAddr": "Secret contract address",
          "_stateDeltaHash": "State delta hash"
        },
        "return": "true/false"
      },
      "register(address,bytes)": {
        "params": {
          "_report": "The RLP encoded report returned by the IAS",
          "_signer": "The signer address, derived from the enclave public key"
        }
      },
      "setWorkersParams(uint256,bytes)": {
        "params": {
          "_seed": "The random integer generated by the enclave",
          "_sig": "The random integer signed by the the principal node's enclave"
        }
      },
      "withdraw(address,uint256)": {
        "params": {
          "_amount": "The amount of ENG, in grains format (10 ** 8), to deposit",
          "_custodian": "The worker's ETH address"
        }
      }
    }
  },
  "userdoc": {
    "methods": {
      "commitReceipt(bytes32,bytes32,bytes32,bytes32,bytes,bytes)": {
        "notice": "Commit the computation task results on chain by first verifying the receipt and then the worker's signature. After this, the task record is finalized and the worker is credited with the task's fee."
      },
      "commitReceipts(bytes32,bytes32[],bytes32[],bytes32[],bytes,bytes)": {
        "notice": "Commit the computation task results on chain by first verifying the receipts and then the worker's signature. After this, the task records are finalized and the worker is credited with the tasks' fees."
      },
      "countSecretContracts()": {
        "notice": "Check if secret contract has been deployed"
      },
      "countStateDeltas(bytes32)": {
        "notice": "Count state deltas for a deployed secret contract"
      },
      "createTaskRecord(bytes32,uint256)": {
        "notice": "Create task record for task (either contract deployment or regular task). This is necessary for transferring task fee from sender to contract, generating the unique taskId, saving the block number when the record was mined, and incrementing the user's task deployment counter nonce."
      },
      "createTaskRecords(bytes32[],uint256[])": {
        "notice": "Create task records for tasks (either contract deployment or regular tasks). This is necessary for transferring task fee from sender to contract, generating the unique taskId, saving the block number when the record was mined, and incrementing the user's task deployment counter nonce."
      },
      "deploySecretContract(bytes32,bytes32,bytes32,address,bytes)": {
        "notice": "Deploy secret contract from user, called by the worker."
      },
      "deposit(address,uint256)": {
        "notice": "Deposits ENG stake into contract from worker. Worker must be registered to do so."
      },
      "getReport(address)": {
        "notice": "The RLP encoded report returned by the IAS server"
      },
      "getSecretContractAddresses(uint256,uint256)": {
        "notice": "Get deployed secret contract addresses within a range"
      },
      "getStateDeltaHash(bytes32,uint256)": {
        "notice": "Obtain state delta hash for a deployed secret contract at a particular index"
      },
      "getStateDeltaHashes(bytes32,uint256,uint256)": {
        "notice": "Obtain state delta hashes for a deployed secret contract within a range"
      },
      "getWorkerGroup(uint256,bytes32)": {
        "notice": "Select a group of workers for the computation task given the block number of the task record (implies the epoch) and the secret contract address."
      },
      "getWorkersParams(uint256)": {
        "notice": "The worker parameters corresponding to the specified block number"
      },
      "isDeployed(bytes32)": {
        "notice": "Check if secret contract has been deployed"
      },
      "isValidDeltaHash(bytes32,bytes32)": {
        "notice": "Check if particular state delta hash for a deployed secret contract is valid"
      },
      "login()": {
        "notice": "Login worker. Worker must be registered to do so, and must be logged in at start of epoch to be part of worker selection process."
      },
      "logout()": {
        "notice": "Logout worker. Worker must be logged in to do so."
      },
      "register(address,bytes)": {
        "notice": "Registers a new worker of change the signer parameters of an existing worker. This should be called by every worker (and the principal) node in order to receive tasks."
      },
      "setWorkersParams(uint256,bytes)": {
        "notice": "Reparameterizing workers with a new seed This should be called for each epoch by the Principal node"
      },
      "withdraw(address,uint256)": {
        "notice": "Withdraws ENG stake from contract back to worker. Worker must be registered to do so."
      }
    }
  }
}