{
  "contractName": "Enigma",
  "abi": [
    {
      "constant": true,
      "inputs": [
        {
          "name": "",
          "type": "uint256"
        }
      ],
      "name": "workerAddresses",
      "outputs": [
        {
          "name": "",
          "type": "address"
        }
      ],
      "payable": false,
      "stateMutability": "view",
      "type": "function"
    },
    {
      "constant": true,
      "inputs": [
        {
          "name": "",
          "type": "address"
        }
      ],
      "name": "workers",
      "outputs": [
        {
          "name": "signer",
          "type": "address"
        },
        {
          "name": "quote",
          "type": "string"
        },
        {
          "name": "balance",
          "type": "uint256"
        },
        {
          "name": "status",
          "type": "uint256"
        }
      ],
      "payable": false,
      "stateMutability": "view",
      "type": "function"
    },
    {
      "constant": true,
      "inputs": [
        {
          "name": "",
          "type": "address"
        },
        {
          "name": "",
          "type": "uint256"
        }
      ],
      "name": "tasks",
      "outputs": [
        {
          "name": "callable",
          "type": "string"
        },
        {
          "name": "callableArgs",
          "type": "bytes"
        },
        {
          "name": "callback",
          "type": "string"
        },
        {
          "name": "worker",
          "type": "address"
        },
        {
          "name": "sig",
          "type": "bytes"
        },
        {
          "name": "reward",
          "type": "uint256"
        },
        {
          "name": "status",
          "type": "uint8"
        }
      ],
      "payable": false,
      "stateMutability": "view",
      "type": "function"
    },
    {
      "constant": true,
      "inputs": [],
      "name": "engToken",
      "outputs": [
        {
          "name": "",
          "type": "address"
        }
      ],
      "payable": false,
      "stateMutability": "view",
      "type": "function"
    },
    {
      "inputs": [
        {
          "name": "_tokenAddress",
          "type": "address"
        },
        {
          "name": "_workerParamsLimit",
          "type": "uint256"
        }
      ],
      "payable": false,
      "stateMutability": "nonpayable",
      "type": "constructor"
    },
    {
      "anonymous": false,
      "inputs": [
        {
          "indexed": false,
          "name": "user",
          "type": "address"
        },
        {
          "indexed": false,
          "name": "signer",
          "type": "address"
        },
        {
          "indexed": false,
          "name": "_success",
          "type": "bool"
        }
      ],
      "name": "Register",
      "type": "event"
    },
    {
      "anonymous": false,
      "inputs": [
        {
          "indexed": false,
          "name": "sig",
          "type": "bytes"
        },
        {
          "indexed": false,
          "name": "hash",
          "type": "bytes32"
        },
        {
          "indexed": false,
          "name": "workerAddr",
          "type": "address"
        },
        {
          "indexed": false,
          "name": "bytecode",
          "type": "bytes"
        },
        {
          "indexed": false,
          "name": "_success",
          "type": "bool"
        }
      ],
      "name": "ValidateSig",
      "type": "event"
    },
    {
      "anonymous": false,
      "inputs": [
        {
          "indexed": false,
          "name": "secretContract",
          "type": "address"
        },
        {
          "indexed": false,
          "name": "worker",
          "type": "address"
        },
        {
          "indexed": false,
          "name": "sig",
          "type": "bytes"
        },
        {
          "indexed": false,
          "name": "reward",
          "type": "uint256"
        },
        {
          "indexed": false,
          "name": "_success",
          "type": "bool"
        }
      ],
      "name": "CommitResults",
      "type": "event"
    },
    {
      "anonymous": false,
      "inputs": [
        {
          "indexed": false,
          "name": "seed",
          "type": "uint256"
        },
        {
          "indexed": false,
          "name": "workers",
          "type": "address[]"
        },
        {
          "indexed": false,
          "name": "_success",
          "type": "bool"
        }
      ],
      "name": "WorkersParameterized",
      "type": "event"
    },
    {
      "anonymous": false,
      "inputs": [
        {
          "indexed": true,
          "name": "callingContract",
          "type": "address"
        },
        {
          "indexed": true,
          "name": "taskId",
          "type": "uint256"
        },
        {
          "indexed": false,
          "name": "callable",
          "type": "string"
        },
        {
          "indexed": false,
          "name": "callableArgs",
          "type": "bytes"
        },
        {
          "indexed": false,
          "name": "callback",
          "type": "string"
        },
        {
          "indexed": false,
          "name": "fee",
          "type": "uint256"
        },
        {
          "indexed": false,
          "name": "preprocessors",
          "type": "bytes32[]"
        },
        {
          "indexed": false,
          "name": "_success",
          "type": "bool"
        }
      ],
      "name": "ComputeTask",
      "type": "event"
    },
    {
      "constant": false,
      "inputs": [
        {
          "name": "signer",
          "type": "address"
        },
        {
          "name": "quote",
          "type": "string"
        }
      ],
      "name": "register",
      "outputs": [
        {
          "name": "",
          "type": "uint8"
        }
      ],
      "payable": true,
      "stateMutability": "payable",
      "type": "function"
    },
    {
      "constant": false,
      "inputs": [
        {
          "name": "secretContract",
          "type": "address"
        },
        {
          "name": "callable",
          "type": "string"
        },
        {
          "name": "callableArgs",
          "type": "bytes"
        },
        {
          "name": "callback",
          "type": "string"
        },
        {
          "name": "fee",
          "type": "uint256"
        },
        {
          "name": "preprocessors",
          "type": "bytes32[]"
        }
      ],
      "name": "compute",
      "outputs": [
        {
          "name": "",
          "type": "uint8"
        }
      ],
      "payable": false,
      "stateMutability": "nonpayable",
      "type": "function"
    },
    {
      "constant": false,
      "inputs": [
        {
          "name": "dappContract",
          "type": "address"
        },
        {
          "name": "taskId",
          "type": "uint256"
        },
        {
          "name": "data",
          "type": "bytes"
        },
        {
          "name": "sig",
          "type": "bytes"
        }
      ],
      "name": "commitResults",
      "outputs": [
        {
          "name": "",
          "type": "uint8"
        }
      ],
      "payable": false,
      "stateMutability": "nonpayable",
      "type": "function"
    },
    {
      "constant": false,
      "inputs": [
        {
          "name": "seed",
          "type": "uint256"
        }
      ],
      "name": "setWorkersParams",
      "outputs": [
        {
          "name": "",
          "type": "uint8"
        }
      ],
      "payable": false,
      "stateMutability": "nonpayable",
      "type": "function"
    },
    {
      "constant": true,
      "inputs": [
        {
          "name": "blockNumber",
          "type": "uint256"
        }
      ],
      "name": "getWorkersParams",
      "outputs": [
        {
          "name": "",
          "type": "uint256"
        },
        {
          "name": "",
          "type": "uint256"
        },
        {
          "name": "",
          "type": "address[]"
        }
      ],
      "payable": false,
      "stateMutability": "view",
      "type": "function"
    },
    {
      "constant": true,
      "inputs": [
        {
          "name": "blockNumber",
          "type": "uint256"
        },
        {
          "name": "taskId",
          "type": "uint256"
        }
      ],
      "name": "selectWorker",
      "outputs": [
        {
          "name": "",
          "type": "address"
        }
      ],
      "payable": false,
      "stateMutability": "view",
      "type": "function"
    }
  ],
  "bytecode": "0x608060405234801561001057600080fd5b506040516040806133918339810180604052810190808051906020019092919080519060200190929190505050816000806101000a81548173ffffffffffffffffffffffffffffffffffffffff021916908373ffffffffffffffffffffffffffffffffffffffff1602179055508060018190555050506132fc806100956000396000f3006080604052600436106100a4576000357c0100000000000000000000000000000000000000000000000000000000900463ffffffff1680630a318da0146100a957806332434a2e146101165780634048a257146101b457806359c91a12146102b15780637149d2e4146103415780638d0cf7891461059a5780639489ad40146105e95780639d60486714610640578063c585fd2a1461073b578063d658a3a9146107b2575b600080fd5b3480156100b557600080fd5b506100d460048036038101908080359060200190929190505050610936565b604051808273ffffffffffffffffffffffffffffffffffffffff1673ffffffffffffffffffffffffffffffffffffffff16815260200191505060405180910390f35b610190600480360381019080803573ffffffffffffffffffffffffffffffffffffffff169060200190929190803590602001908201803590602001908080601f0160208091040260200160405190810160405280939291908181526020018383808284378201915050505050509192919290505050610974565b604051808260018111156101a057fe5b60ff16815260200191505060405180910390f35b3480156101c057600080fd5b506101f5600480360381019080803573ffffffffffffffffffffffffffffffffffffffff169060200190929190505050610bf1565b604051808573ffffffffffffffffffffffffffffffffffffffff1673ffffffffffffffffffffffffffffffffffffffff16815260200180602001848152602001838152602001828103825285818151815260200191508051906020019080838360005b83811015610273578082015181840152602081019050610258565b50505050905090810190601f1680156102a05780820380516001836020036101000a031916815260200191505b509550505050505060405180910390f35b3480156102bd57600080fd5b506102dc60048036038101908080359060200190929190505050610cd9565b6040518084815260200183815260200180602001828103825283818151815260200191508051906020019060200280838360005b8381101561032b578082015181840152602081019050610310565b5050505090500194505050505060405180910390f35b34801561034d57600080fd5b5061038c600480360381019080803573ffffffffffffffffffffffffffffffffffffffff16906020019092919080359060200190929190505050610ea0565b604051808060200180602001806020018873ffffffffffffffffffffffffffffffffffffffff1673ffffffffffffffffffffffffffffffffffffffff168152602001806020018781526020018660018111156103e457fe5b60ff16815260200185810385528c818151815260200191508051906020019080838360005b83811015610424578082015181840152602081019050610409565b50505050905090810190601f1680156104515780820380516001836020036101000a031916815260200191505b5085810384528b818151815260200191508051906020019080838360005b8381101561048a57808201518184015260208101905061046f565b50505050905090810190601f1680156104b75780820380516001836020036101000a031916815260200191505b5085810383528a818151815260200191508051906020019080838360005b838110156104f05780820151818401526020810190506104d5565b50505050905090810190601f16801561051d5780820380516001836020036101000a031916815260200191505b50858103825288818151815260200191508051906020019080838360005b8381101561055657808201518184015260208101905061053b565b50505050905090810190601f1680156105835780820380516001836020036101000a031916815260200191505b509b50505050505050505050505060405180910390f35b3480156105a657600080fd5b506105c56004803603810190808035906020019092919050505061118b565b604051808260018111156105d557fe5b60ff16815260200191505060405180910390f35b3480156105f557600080fd5b506105fe611639565b604051808273ffffffffffffffffffffffffffffffffffffffff1673ffffffffffffffffffffffffffffffffffffffff16815260200191505060405180910390f35b34801561064c57600080fd5b50610717600480360381019080803573ffffffffffffffffffffffffffffffffffffffff16906020019092919080359060200190929190803590602001908201803590602001908080601f0160208091040260200160405190810160405280939291908181526020018383808284378201915050505050509192919290803590602001908201803590602001908080601f016020809104026020016040519081016040528093929190818152602001838380828437820191505050505050919291929050505061165e565b6040518082600181111561072757fe5b60ff16815260200191505060405180910390f35b34801561074757600080fd5b506107706004803603810190808035906020019092919080359060200190929190505050612281565b604051808273ffffffffffffffffffffffffffffffffffffffff1673ffffffffffffffffffffffffffffffffffffffff16815260200191505060405180910390f35b3480156107be57600080fd5b50610912600480360381019080803573ffffffffffffffffffffffffffffffffffffffff169060200190929190803590602001908201803590602001908080601f0160208091040260200160405190810160405280939291908181526020018383808284378201915050505050509192919290803590602001908201803590602001908080601f0160208091040260200160405190810160405280939291908181526020018383808284378201915050505050509192919290803590602001908201803590602001908080601f0160208091040260200160405190810160405280939291908181526020018383808284378201915050505050509192919290803590602001909291908035906020019082018035906020019080806020026020016040519081016040528093929190818152602001838360200280828437820191505050505050919291929050505061244b565b6040518082600181111561092257fe5b60ff16815260200191505060405180910390f35b60028181548110151561094557fe5b906000526020600020016000915054906101000a900473ffffffffffffffffffffffffffffffffffffffff1681565b600060023390806001815401808255809150509060018203906000526020600020016000909192909190916101000a81548173ffffffffffffffffffffffffffffffffffffffff021916908373ffffffffffffffffffffffffffffffffffffffff1602179055505082601260003373ffffffffffffffffffffffffffffffffffffffff1673ffffffffffffffffffffffffffffffffffffffff16815260200190815260200160002060000160006101000a81548173ffffffffffffffffffffffffffffffffffffffff021916908373ffffffffffffffffffffffffffffffffffffffff16021790555034601260003373ffffffffffffffffffffffffffffffffffffffff1673ffffffffffffffffffffffffffffffffffffffff1681526020019081526020016000206002018190555081601260003373ffffffffffffffffffffffffffffffffffffffff1673ffffffffffffffffffffffffffffffffffffffff1681526020019081526020016000206001019080519060200190610afa929190612fba565b506001601260003373ffffffffffffffffffffffffffffffffffffffff1673ffffffffffffffffffffffffffffffffffffffff168152602001908152602001600020600301819055507faea7118a676707165821e4678d9998eaabd7a2864b5db99ec0badef3fb7fa1e433846001604051808473ffffffffffffffffffffffffffffffffffffffff1673ffffffffffffffffffffffffffffffffffffffff1681526020018373ffffffffffffffffffffffffffffffffffffffff1673ffffffffffffffffffffffffffffffffffffffff16815260200182151515158152602001935050505060405180910390a16000905092915050565b60126020528060005260406000206000915090508060000160009054906101000a900473ffffffffffffffffffffffffffffffffffffffff1690806001018054600181600116156101000203166002900480601f016020809104026020016040519081016040528092919081815260200182805460018160011615610100020316600290048015610cc35780601f10610c9857610100808354040283529160200191610cc3565b820191906000526020600020905b815481529060010190602001808311610ca657829003601f168201915b5050505050908060020154908060030154905084565b6000806060600080610ce961303a565b610cf287612a4b565b92507fffffffffffffffffffffffffffffffffffffffffffffffffffffffffffffffff8360000b14151515610db5576040517f08c379a00000000000000000000000000000000000000000000000000000000081526004018080602001828103825260368152602001807f4e6f20776f726b65727320706172616d657465727320656e74727920666f722081526020017f73706563696669656420626c6f636b206e756d6265720000000000000000000081525060400191505060405180910390fd5b8260000b9150600382600581101515610dca57fe5b60030201606060405190810160405290816000820154815260200160018201805480602002602001604051908101604052809291908181526020018280548015610e6957602002820191906000526020600020905b8160009054906101000a900473ffffffffffffffffffffffffffffffffffffffff1673ffffffffffffffffffffffffffffffffffffffff1681526020019060010190808311610e1f575b5050505050815260200160028201548152505090508060000151816040015182602001518090509550955095505050509193909250565b601360205281600052604060002081815481101515610ebb57fe5b906000526020600020906007020160009150915050806000018054600181600116156101000203166002900480601f016020809104026020016040519081016040528092919081815260200182805460018160011615610100020316600290048015610f685780601f10610f3d57610100808354040283529160200191610f68565b820191906000526020600020905b815481529060010190602001808311610f4b57829003601f168201915b505050505090806001018054600181600116156101000203166002900480601f0160208091040260200160405190810160405280929190818152602001828054600181600116156101000203166002900480156110065780601f10610fdb57610100808354040283529160200191611006565b820191906000526020600020905b815481529060010190602001808311610fe957829003601f168201915b505050505090806002018054600181600116156101000203166002900480601f0160208091040260200160405190810160405280929190818152602001828054600181600116156101000203166002900480156110a45780601f10611079576101008083540402835291602001916110a4565b820191906000526020600020905b81548152906001019060200180831161108757829003601f168201915b5050505050908060030160009054906101000a900473ffffffffffffffffffffffffffffffffffffffff1690806004018054600181600116156101000203166002900480601f0160208091040260200160405190810160405280929190818152602001828054600181600116156101000203166002900480156111685780601f1061113d57610100808354040283529160200191611168565b820191906000526020600020905b81548152906001019060200180831161114b57829003601f168201915b5050505050908060050154908060060160009054906101000a900460ff16905087565b6000806000803361119a61305c565b601260008373ffffffffffffffffffffffffffffffffffffffff1673ffffffffffffffffffffffffffffffffffffffff168152602001908152602001600020608060405190810160405290816000820160009054906101000a900473ffffffffffffffffffffffffffffffffffffffff1673ffffffffffffffffffffffffffffffffffffffff1673ffffffffffffffffffffffffffffffffffffffff168152602001600182018054600181600116156101000203166002900480601f0160208091040260200160405190810160405280929190818152602001828054600181600116156101000203166002900480156112d45780601f106112a9576101008083540402835291602001916112d4565b820191906000526020600020905b8154815290600101906020018083116112b757829003601f168201915b505050505081526020016002820154815260200160038201548152505090506000816060015111151561136f576040517f08c379a00000000000000000000000000000000000000000000000000000000081526004018080602001828103825260148152602001807f556e7265676973746572656420776f726b65722e00000000000000000000000081525060200191505060405180910390fd5b60009450600093505b60058410156113ed57600060038560058110151561139257fe5b600302016000015414156113a8578394506113ed565b6003856005811015156113b757fe5b60030201600001546003856005811015156113ce57fe5b600302016000015410156113e0578394505b8380600101945050611378565b436003866005811015156113fd57fe5b60030201600001819055508660038660058110151561141857fe5b6003020160020181905550600092505b60028054905083101561156a57600060028481548110151561144657fe5b9060005260206000200160009054906101000a900473ffffffffffffffffffffffffffffffffffffffff1673ffffffffffffffffffffffffffffffffffffffff1614151561155d5760038560058110151561149d57fe5b6003020160010180548091906001016114b6919061309b565b506002838154811015156114c657fe5b9060005260206000200160009054906101000a900473ffffffffffffffffffffffffffffffffffffffff1660038660058110151561150057fe5b600302016001018481548110151561151457fe5b9060005260206000200160006101000a81548173ffffffffffffffffffffffffffffffffffffffff021916908373ffffffffffffffffffffffffffffffffffffffff1602179055505b8280600101935050611428565b7f363e1a0b29df899b2a8946ad6ac8f81796117158a11dc2c2a5b8c0297789ffa18760026001604051808481526020018060200183151515158152602001828103825284818154815260200191508054801561161b57602002820191906000526020600020905b8160009054906101000a900473ffffffffffffffffffffffffffffffffffffffff1673ffffffffffffffffffffffffffffffffffffffff16815260200190600101908083116115d1575b505094505050505060405180910390a1600095505050505050919050565b6000809054906101000a900473ffffffffffffffffffffffffffffffffffffffff1681565b6000806000803361166d61305c565b601260008373ffffffffffffffffffffffffffffffffffffffff1673ffffffffffffffffffffffffffffffffffffffff168152602001908152602001600020608060405190810160405290816000820160009054906101000a900473ffffffffffffffffffffffffffffffffffffffff1673ffffffffffffffffffffffffffffffffffffffff1673ffffffffffffffffffffffffffffffffffffffff168152602001600182018054600181600116156101000203166002900480601f0160208091040260200160405190810160405280929190818152602001828054600181600116156101000203166002900480156117a75780601f1061177c576101008083540402835291602001916117a7565b820191906000526020600020905b81548152906001019060200180831161178a57829003601f168201915b5050505050815260200160028201548152602001600382015481525050905060008160600151111515611842576040517f08c379a00000000000000000000000000000000000000000000000000000000081526004018080602001828103825260148152602001807f556e7265676973746572656420776f726b65722e00000000000000000000000081525060200191505060405180910390fd5b6000600181111561184f57fe5b601360008c73ffffffffffffffffffffffffffffffffffffffff1673ffffffffffffffffffffffffffffffffffffffff1681526020019081526020016000208a81548110151561189b57fe5b906000526020600020906007020160060160009054906101000a900460ff1660018111156118c557fe5b141515611960576040517f08c379a00000000000000000000000000000000000000000000000000000000081526004018080602001828103825260298152602001807f496c6c6567616c207374617475732c207461736b206d75737420626520696e2081526020017f70726f67726573732e000000000000000000000000000000000000000000000081525060400191505060405180910390fd5b611ce68a601360008d73ffffffffffffffffffffffffffffffffffffffff1673ffffffffffffffffffffffffffffffffffffffff1681526020019081526020016000208b8154811015156119b057fe5b906000526020600020906007020160e06040519081016040529081600082018054600181600116156101000203166002900480601f016020809104026020016040519081016040528092919081815260200182805460018160011615610100020316600290048015611a635780601f10611a3857610100808354040283529160200191611a63565b820191906000526020600020905b815481529060010190602001808311611a4657829003601f168201915b50505050508152602001600182018054600181600116156101000203166002900480601f016020809104026020016040519081016040528092919081815260200182805460018160011615610100020316600290048015611b055780601f10611ada57610100808354040283529160200191611b05565b820191906000526020600020905b815481529060010190602001808311611ae857829003601f168201915b50505050508152602001600282018054600181600116156101000203166002900480601f016020809104026020016040519081016040528092919081815260200182805460018160011615610100020316600290048015611ba75780601f10611b7c57610100808354040283529160200191611ba7565b820191906000526020600020905b815481529060010190602001808311611b8a57829003601f168201915b505050505081526020016003820160009054906101000a900473ffffffffffffffffffffffffffffffffffffffff1673ffffffffffffffffffffffffffffffffffffffff1673ffffffffffffffffffffffffffffffffffffffff168152602001600482018054600181600116156101000203166002900480601f016020809104026020016040519081016040528092919081815260200182805460018160011615610100020316600290048015611c9f5780601f10611c7457610100808354040283529160200191611c9f565b820191906000526020600020905b815481529060010190602001808311611c8257829003601f168201915b50505050508152602001600582015481526020016006820160009054906101000a900460ff166001811115611cd057fe5b6001811115611cdb57fe5b815250508a8a612b22565b9450600073ffffffffffffffffffffffffffffffffffffffff168573ffffffffffffffffffffffffffffffffffffffff1614151515611d8d576040517f08c379a000000000000000000000000000000000000000000000000000000000815260040180806020018281038252601d8152602001807f43616e6e6f74207665726966792074686973207369676e61747572652e00000081525060200191505060405180910390fd5b601260003373ffffffffffffffffffffffffffffffffffffffff1673ffffffffffffffffffffffffffffffffffffffff16815260200190815260200160002060000160009054906101000a900473ffffffffffffffffffffffffffffffffffffffff1673ffffffffffffffffffffffffffffffffffffffff168573ffffffffffffffffffffffffffffffffffffffff16141515611e92576040517f08c379a00000000000000000000000000000000000000000000000000000000081526004018080602001828103825260128152602001807f496e76616c6964207369676e61747572652e000000000000000000000000000081525060200191505060405180910390fd5b601360008b73ffffffffffffffffffffffffffffffffffffffff1673ffffffffffffffffffffffffffffffffffffffff16815260200190815260200160002089815481101515611ede57fe5b9060005260206000209060070201600501549350600084111515611f6a576040517f08c379a00000000000000000000000000000000000000000000000000000000081526004018080602001828103825260168152602001807f5265776172642063616e6e6f74206265207a65726f2e0000000000000000000081525060200191505060405180910390fd5b33601360008c73ffffffffffffffffffffffffffffffffffffffff1673ffffffffffffffffffffffffffffffffffffffff1681526020019081526020016000208a815481101515611fb757fe5b906000526020600020906007020160030160006101000a81548173ffffffffffffffffffffffffffffffffffffffff021916908373ffffffffffffffffffffffffffffffffffffffff16021790555086601360008c73ffffffffffffffffffffffffffffffffffffffff1673ffffffffffffffffffffffffffffffffffffffff1681526020019081526020016000208a81548110151561205357fe5b906000526020600020906007020160040190805190602001906120779291906130c7565b506001601360008c73ffffffffffffffffffffffffffffffffffffffff1673ffffffffffffffffffffffffffffffffffffffff1681526020019081526020016000208a8154811015156120c657fe5b906000526020600020906007020160060160006101000a81548160ff021916908360018111156120f257fe5b0217905550601260003373ffffffffffffffffffffffffffffffffffffffff1673ffffffffffffffffffffffffffffffffffffffff168152602001908152602001600020925061214f848460020154612e7b90919063ffffffff16565b83600201819055507f860ef3e30d5efeaa79f3d448bd5219e9b92ca92eefb7bcc4e8c6b3420fe9dd3d8a3389876001604051808673ffffffffffffffffffffffffffffffffffffffff1673ffffffffffffffffffffffffffffffffffffffff1681526020018573ffffffffffffffffffffffffffffffffffffffff1673ffffffffffffffffffffffffffffffffffffffff1681526020018060200184815260200183151515158152602001828103825285818151815260200191508051906020019080838360005b83811015612232578082015181840152602081019050612217565b50505050905090810190601f16801561225f5780820380516001836020036101000a031916815260200191505b50965050505050505060405180910390a1600095505050505050949350505050565b600080600060606000806060600080600061229b8c610cd9565b98509850985060009550600094505b865185101561230057600087868151811015156122c357fe5b9060200190602002015173ffffffffffffffffffffffffffffffffffffffff161415156122f35785806001019650505b84806001019550506122aa565b8560405190808252806020026020018201604052801561232f5781602001602082028038833980820191505090505b50935060009250600091505b86518210156123f3576000878381518110151561235457fe5b9060200190602002015173ffffffffffffffffffffffffffffffffffffffff161415156123e657868281518110151561238957fe5b9060200190602002015184848151811015156123a157fe5b9060200190602002019073ffffffffffffffffffffffffffffffffffffffff16908173ffffffffffffffffffffffffffffffffffffffff168152505082806001019350505b818060010192505061233b565b85888c604051808381526020018281526020019250505060405180910390206001900481151561241f57fe5b069050868181518110151561243057fe5b90602001906020020151995050505050505050505092915050565b600080601360008973ffffffffffffffffffffffffffffffffffffffff1673ffffffffffffffffffffffffffffffffffffffff168152602001908152602001600020805490509050601360008973ffffffffffffffffffffffffffffffffffffffff1673ffffffffffffffffffffffffffffffffffffffff16815260200190815260200160002080548091906001016124e49190613147565b5083601360008a73ffffffffffffffffffffffffffffffffffffffff1673ffffffffffffffffffffffffffffffffffffffff1681526020019081526020016000208281548110151561253257fe5b90600052602060002090600702016005018190555086601360008a73ffffffffffffffffffffffffffffffffffffffff1673ffffffffffffffffffffffffffffffffffffffff1681526020019081526020016000208281548110151561259457fe5b906000526020600020906007020160000190805190602001906125b8929190612fba565b5085601360008a73ffffffffffffffffffffffffffffffffffffffff1673ffffffffffffffffffffffffffffffffffffffff1681526020019081526020016000208281548110151561260657fe5b9060005260206000209060070201600101908051906020019061262a9291906130c7565b5084601360008a73ffffffffffffffffffffffffffffffffffffffff1673ffffffffffffffffffffffffffffffffffffffff1681526020019081526020016000208281548110151561267857fe5b9060005260206000209060070201600201908051906020019061269c929190612fba565b506000601360008a73ffffffffffffffffffffffffffffffffffffffff1673ffffffffffffffffffffffffffffffffffffffff168152602001908152602001600020828154811015156126eb57fe5b906000526020600020906007020160060160006101000a81548160ff0219169083600181111561271757fe5b0217905550808873ffffffffffffffffffffffffffffffffffffffff167f0d3653c1248dc20f9f4db3082c0260dc8e464192af15917e14b3c19f0086ac388989898989600160405180806020018060200180602001878152602001806020018615151515815260200185810385528b818151815260200191508051906020019080838360005b838110156127b857808201518184015260208101905061279d565b50505050905090810190601f1680156127e55780820380516001836020036101000a031916815260200191505b5085810384528a818151815260200191508051906020019080838360005b8381101561281e578082015181840152602081019050612803565b50505050905090810190601f16801561284b5780820380516001836020036101000a031916815260200191505b50858103835289818151815260200191508051906020019080838360005b83811015612884578082015181840152602081019050612869565b50505050905090810190601f1680156128b15780820380516001836020036101000a031916815260200191505b50858103825287818151815260200191508051906020019060200280838360005b838110156128ed5780820151818401526020810190506128d2565b505050509050019a505050505050505050505060405180910390a36000809054906101000a900473ffffffffffffffffffffffffffffffffffffffff1673ffffffffffffffffffffffffffffffffffffffff166323b872dd3330876040518463ffffffff167c0100000000000000000000000000000000000000000000000000000000028152600401808473ffffffffffffffffffffffffffffffffffffffff1673ffffffffffffffffffffffffffffffffffffffff1681526020018373ffffffffffffffffffffffffffffffffffffffff1673ffffffffffffffffffffffffffffffffffffffff1681526020018281526020019350505050602060405180830381600087803b158015612a0057600080fd5b505af1158015612a14573d6000803e3d6000fd5b505050506040513d6020811015612a2a57600080fd5b81019080805190602001909291905050505060009150509695505050505050565b60008060007fffffffffffffffffffffffffffffffffffffffffffffffffffffffffffffffff9150600090505b6005811015612b185783600382600581101515612a9157fe5b600302016000015411158015612b0257507fffffffffffffffffffffffffffffffffffffffffffffffffffffffffffffffff8260000b1480612b01575060038260000b600581101515612ae057fe5b6003020160000154600382600581101515612af757fe5b6003020160000154115b5b15612b0b578091505b8080600101915050612a78565b8192505050919050565b6000606060006060600080612b368a612e97565b9450886020015188866040518084805190602001908083835b602083101515612b745780518252602082019150602081019050602083039250612b4f565b6001836020036101000a03801982511681845116808217855250505050505090500183805190602001908083835b602083101515612bc75780518252602082019150602081019050602083039250612ba2565b6001836020036101000a03801982511681845116808217855250505050505090500182805190602001908083835b602083101515612c1a5780518252602082019150602081019050602083039250612bf5565b6001836020036101000a0380198251168184511680821785525050505050509050019350505050604051809103902093506040805190810160405280601c81526020017f19457468657265756d205369676e6564204d6573736167653a0a333200000000815250925082846040518083805190602001908083835b602083101515612cba5780518252602082019150602081019050602083039250612c95565b6001836020036101000a03801982511681845116808217855250505050505090500182600019166000191681526020019250505060405180910390209150612d0f878360001916612ec290919063ffffffff16565b90507fff6705f1a974965043a4b4d997ef0e9f773759a078b3a30b02507c11ec5a6c4b878383886001604051808060200186600019166000191681526020018573ffffffffffffffffffffffffffffffffffffffff1673ffffffffffffffffffffffffffffffffffffffff1681526020018060200184151515158152602001838103835288818151815260200191508051906020019080838360005b83811015612dc6578082015181840152602081019050612dab565b50505050905090810190601f168015612df35780820380516001836020036101000a031916815260200191505b50838103825285818151815260200191508051906020019080838360005b83811015612e2c578082015181840152602081019050612e11565b50505050905090810190601f168015612e595780820380516001836020036101000a031916815260200191505b5097505050505050505060405180910390a18095505050505050949350505050565b60008183019050828110151515612e8e57fe5b80905092915050565b6060813b6040519150601f19601f602083010116820160405280825280600060208401853c50919050565b60008060008060418551141515612edc5760009350612fb1565b6020850151925060408501519150606085015160001a9050601b8160ff161015612f0757601b810190505b601b8160ff1614158015612f1f5750601c8160ff1614155b15612f2d5760009350612fb1565b600186828585604051600081526020016040526040518085600019166000191681526020018460ff1660ff1681526020018360001916600019168152602001826000191660001916815260200194505050505060206040516020810390808403906000865af1158015612fa4573d6000803e3d6000fd5b5050506020604051035193505b50505092915050565b828054600181600116156101000203166002900490600052602060002090601f016020900481019282601f10612ffb57805160ff1916838001178555613029565b82800160010185558215613029579182015b8281111561302857825182559160200191906001019061300d565b5b5090506130369190613179565b5090565b6060604051908101604052806000815260200160608152602001600081525090565b608060405190810160405280600073ffffffffffffffffffffffffffffffffffffffff1681526020016060815260200160008152602001600081525090565b8154818355818111156130c2578183600052602060002091820191016130c19190613179565b5b505050565b828054600181600116156101000203166002900490600052602060002090601f016020900481019282601f1061310857805160ff1916838001178555613136565b82800160010185558215613136579182015b8281111561313557825182559160200191906001019061311a565b5b5090506131439190613179565b5090565b81548183558181111561317457600702816007028360005260206000209182019101613173919061319e565b5b505050565b61319b91905b8082111561319757600081600090555060010161317f565b5090565b90565b61323d91905b8082111561323957600080820160006131bd9190613240565b6001820160006131cd9190613288565b6002820160006131dd9190613240565b6003820160006101000a81549073ffffffffffffffffffffffffffffffffffffffff02191690556004820160006132149190613288565b60058201600090556006820160006101000a81549060ff0219169055506007016131a4565b5090565b90565b50805460018160011615610100020316600290046000825580601f106132665750613285565b601f0160209004906000526020600020908101906132849190613179565b5b50565b50805460018160011615610100020316600290046000825580601f106132ae57506132cd565b601f0160209004906000526020600020908101906132cc9190613179565b5b505600a165627a7a72305820c2254c689495f666b1411636a44574d4a55a0dd8ae482746c1a240191339e48e0029",
  "source": "pragma solidity ^0.4.22;\n\nimport \"./zeppelin/SafeMath.sol\";\nimport \"./zeppelin/ECRecovery.sol\";\nimport \"./utils/GetCode2.sol\";\nimport \"./utils/RLP.sol\";\n\ncontract IERC20 {\n    function balanceOf(address who) public constant returns (uint256);\n\n    function transfer(address to, uint256 value) public returns (bool);\n\n    function allowance(address owner, address spender) public constant returns (uint256);\n\n    function transferFrom(address from, address to, uint256 value) public returns (bool);\n\n    function approve(address spender, uint256 value) public returns (bool);\n\n    event Transfer(address indexed from, address indexed to, uint256 value);\n    event Approval(address indexed owner, address indexed spender, uint256 value);\n}\n\n\ncontract Enigma {\n    using SafeMath for uint256;\n    using ECRecovery for bytes32;\n    using RLP for RLP.RLPItem;\n    using RLP for RLP.Iterator;\n    using RLP for bytes;\n\n    IERC20 public engToken;\n\n    struct Task {\n        string callable;\n        bytes callableArgs;\n        string callback;\n        address worker;\n        bytes sig;\n        uint256 reward;\n        TaskStatus status;\n    }\n    enum TaskStatus {InProgress, Executed}\n\n    struct Worker {\n        address signer;\n        string quote;\n        uint256 balance;\n        uint status; // Uninitialized: 0; Active: 1; Inactive: 2\n    }\n\n    uint workerParamsLimit;\n\n    struct WorkersParams {\n        uint256 firstBlockNumber;\n        address[] workerAddresses;\n        uint256 seed;\n    }\n\n    address[] public workerAddresses;\n    WorkersParams[5] workersParams;\n    mapping(address => Worker) public workers;\n    mapping(address => Task[]) public tasks;\n\n    event Register(address user, address signer, bool _success);\n    event ValidateSig(bytes sig, bytes32 hash, address workerAddr, bytes bytecode, bool _success);\n    event CommitResults(address secretContract, address worker, bytes sig, uint reward, bool _success);\n    event WorkersParameterized(uint256 seed, address[] workers, bool _success);\n\n    // Enigma computation task\n    event ComputeTask(address indexed callingContract, uint indexed taskId, string callable, bytes callableArgs, string callback, uint256 fee, bytes32[] preprocessors, bool _success);\n\n    enum ReturnValue {Ok, Error}\n\n    function Enigma(address _tokenAddress, uint _workerParamsLimit) public {\n        engToken = IERC20(_tokenAddress);\n        workerParamsLimit = _workerParamsLimit;\n    }\n\n    modifier workerRegistered(address user) {\n        Worker memory worker = workers[user];\n        require(worker.status > 0, \"Unregistered worker.\");\n        _;\n    }\n\n    function register(address signer, string quote)\n    public\n    payable\n    returns (ReturnValue) {\n        // Register a new worker and deposit stake\n        // require(workers[msg.sender].status == 0, \"Worker already register.\");\n\n        workerAddresses.push(msg.sender);\n\n        workers[msg.sender].signer = signer;\n        workers[msg.sender].balance = msg.value;\n        workers[msg.sender].quote = quote;\n        workers[msg.sender].status = 1;\n\n        emit Register(msg.sender, signer, true);\n\n        return ReturnValue.Ok;\n    }\n\n    function compute(address secretContract, string callable, bytes callableArgs, string callback, uint256 fee, bytes32[] preprocessors)\n    public\n    returns (ReturnValue) {\n        // Create a computation task and save the fee in escrow\n        uint taskId = tasks[secretContract].length;\n        tasks[secretContract].length++;\n\n        tasks[secretContract][taskId].reward = fee;\n        tasks[secretContract][taskId].callable = callable;\n        tasks[secretContract][taskId].callableArgs = callableArgs;\n        tasks[secretContract][taskId].callback = callback;\n        tasks[secretContract][taskId].status = TaskStatus.InProgress;\n\n        // Emit the ComputeTask event which each node is watching for\n        emit ComputeTask(secretContract, taskId, callable, callableArgs, callback, fee, preprocessors, true);\n\n        // Transferring before emitting does not work\n        // TODO: check the allowance first\n        engToken.transferFrom(msg.sender, this, fee);\n\n        return ReturnValue.Ok;\n    }\n\n    function verifySignature(address secretContract, Task task, bytes data, bytes sig)\n    internal\n    constant\n    returns (address) {\n        // Recreating a data hash to validate the signature\n        bytes memory code = GetCode2.at(secretContract);\n\n        // Build a hash to validate that the I/Os are matching\n        bytes32 hash = keccak256(task.callableArgs, data, code);\n        bytes memory prefix = \"\\x19Ethereum Signed Message:\\n32\";\n        bytes32 prefixedHash = sha3(prefix, hash);\n\n        // TODO: this returns an address where we want to verify a public key\n        // I don't believe that Solidity has a general purpose signature\n        // validator. However, we know that an Ethereum address is the hash\n        // of a public key, so we can use our public key to generate a\n        // virtual address for validation.\n        address workerAddr = prefixedHash.recover(sig);\n\n        emit ValidateSig(sig, prefixedHash, workerAddr, code, true);\n        return workerAddr;\n    }\n\n    // copied from GnosisSafe\n    // https://github.com/gnosis/gnosis-safe-contracts/blob/master/contracts/GnosisSafe.sol\n    function executeCall(address to, uint256 value, bytes data) internal returns (bool success) {\n        assembly {\n            success := call(gas, to, value, add(data, 0x20), mload(data), 0, 0)\n        }\n    }\n\n    function commitResults(address dappContract, uint taskId, bytes data, bytes sig)\n    public\n    workerRegistered(msg.sender)\n    returns (ReturnValue) {\n        // Task must be solved only once\n        require(tasks[dappContract][taskId].status == TaskStatus.InProgress, \"Illegal status, task must be in progress.\");\n\n        address sigAddr = verifySignature(dappContract, tasks[dappContract][taskId], data, sig);\n        require(sigAddr != address(0), \"Cannot verify this signature.\");\n        require(sigAddr == workers[msg.sender].signer, \"Invalid signature.\");\n\n        // The contract must hold enough fund to distribute reward\n        // TODO: validate that the reward matches the opcodes computed\n        uint256 reward = tasks[dappContract][taskId].reward;\n        require(reward > 0, \"Reward cannot be zero.\");\n\n        // Invoking the callback method of the original contract\n        // TODO: disable for now because the Python tests don't create deals, works with the JS tests\n        //        require(executeCall(secretContract, msg.value, data), \"Unable to invoke the callback\");\n\n        // Keep a trace of the task worker and proof\n        tasks[dappContract][taskId].worker = msg.sender;\n        tasks[dappContract][taskId].sig = sig;\n        tasks[dappContract][taskId].status = TaskStatus.Executed;\n\n        // TODO: send directly to the worker's custodian instead\n        // Put the reward in the worker's bank\n        // He can withdraw later\n        Worker storage worker = workers[msg.sender];\n        worker.balance = worker.balance.add(reward);\n\n        emit CommitResults(dappContract, msg.sender, sig, reward, true);\n\n        return ReturnValue.Ok;\n    }\n\n    function setWorkersParams(uint256 seed)\n    public\n    workerRegistered(msg.sender)\n    returns (ReturnValue) {\n        // Create a new workers parameters item for the specified seed.\n        // The workers parameters list is a sort of cache, it never grows beyond its limit.\n        // If the list is full, the new item will replace the item assigned to the lowest block number.\n        uint ti = 0;\n        for (uint pi = 0; pi < workersParams.length; pi++) {\n            // Find an empty slot in the array, if full use the lowest block number\n            if (workersParams[pi].firstBlockNumber == 0) {\n                ti = pi;\n                break;\n            } else if (workersParams[pi].firstBlockNumber < workersParams[ti].firstBlockNumber) {\n                ti = pi;\n            }\n        }\n        workersParams[ti].firstBlockNumber = block.number;\n        workersParams[ti].seed = seed;\n\n        // Copy the current worker list\n        for (uint wi = 0; wi < workerAddresses.length; wi++) {\n            if (workerAddresses[wi] != 0x0) {\n                workersParams[ti].workerAddresses.length++;\n                workersParams[ti].workerAddresses[wi] = workerAddresses[wi];\n            }\n        }\n        emit WorkersParameterized(seed, workerAddresses, true);\n        return ReturnValue.Ok;\n    }\n\n    function getWorkersParamsIndex(uint256 blockNumber)\n    internal\n    constant\n    returns (int8) {\n        // Gets the workers parameters nearest the specified block number\n        int8 ci = - 1;\n        for (uint i = 0; i < workersParams.length; i++) {\n            if (workersParams[i].firstBlockNumber <= blockNumber && (ci == - 1 || workersParams[i].firstBlockNumber > workersParams[uint(ci)].firstBlockNumber)) {\n                ci = int8(i);\n            }\n        }\n        return ci;\n    }\n\n    function getWorkersParams(uint256 blockNumber)\n    public\n    view\n    returns (uint256, uint256, address[]) {\n        // get the workers parameters for a given block number\n        int8 idx = getWorkersParamsIndex(blockNumber);\n        require(idx != - 1, \"No workers parameters entry for specified block number\");\n\n        uint index = uint(idx);\n        WorkersParams memory _workerParams = workersParams[index];\n\n        return (_workerParams.firstBlockNumber, _workerParams.seed, _workerParams.workerAddresses);\n    }\n\n    function selectWorker(uint256 blockNumber, uint256 taskId)\n    public\n    view\n    returns (address) {\n        (uint256 b, uint256 s, address[] memory workers) = getWorkersParams(blockNumber);\n\n        uint cpt = 0;\n        for (uint i = 0; i < workers.length; i++) {\n            if (workers[i] != 0x0) {\n                cpt++;\n            }\n        }\n\n        address[] memory _workers = new address[](cpt);\n        uint cur = 0;\n        for (uint iw = 0; iw < workers.length; iw++) {\n            if (workers[iw] != 0x0) {\n                _workers[cur] = workers[iw];\n                cur++;\n            }\n        }\n\n        uint index = uint256(keccak256(s, taskId)) % cpt;\n        return workers[index];\n    }\n}\n",
  "sourcePath": "/home/fredfortier/Code/mvt/enigma-contract/contracts/Enigma.sol",
  "compiler": {
    "name": "solc",
    "version": "0.4.24+commit.e67f0147.Emscripten.clang"
  },
  "schemaVersion": "2.0.0",
  "updatedAt": "2018-06-20T02:37:02.073Z"
}