{
  "contractName": "Enigma",
  "abi": [
    {
      "constant": true,
      "inputs": [
        {
          "name": "",
          "type": "uint256"
        }
      ],
      "name": "workerAddresses",
      "outputs": [
        {
          "name": "",
          "type": "address"
        }
      ],
      "payable": false,
      "stateMutability": "view",
      "type": "function"
    },
    {
      "constant": true,
      "inputs": [
        {
          "name": "",
          "type": "address"
        }
      ],
      "name": "workers",
      "outputs": [
        {
          "name": "signer",
          "type": "address"
        },
        {
          "name": "quote",
          "type": "string"
        },
        {
          "name": "balance",
          "type": "uint256"
        },
        {
          "name": "status",
          "type": "uint256"
        }
      ],
      "payable": false,
      "stateMutability": "view",
      "type": "function"
    },
    {
      "constant": true,
      "inputs": [
        {
          "name": "",
          "type": "address"
        },
        {
          "name": "",
          "type": "bytes32"
        }
      ],
      "name": "tasks",
      "outputs": [
        {
          "name": "callable",
          "type": "string"
        },
        {
          "name": "callableArgs",
          "type": "bytes"
        },
        {
          "name": "callback",
          "type": "string"
        },
        {
          "name": "worker",
          "type": "address"
        },
        {
          "name": "sig",
          "type": "bytes"
        },
        {
          "name": "reward",
          "type": "uint256"
        },
        {
          "name": "status",
          "type": "uint8"
        }
      ],
      "payable": false,
      "stateMutability": "view",
      "type": "function"
    },
    {
      "constant": true,
      "inputs": [],
      "name": "engToken",
      "outputs": [
        {
          "name": "",
          "type": "address"
        }
      ],
      "payable": false,
      "stateMutability": "view",
      "type": "function"
    },
    {
      "inputs": [
        {
          "name": "_tokenAddress",
          "type": "address"
        },
        {
          "name": "_workerParamsLimit",
          "type": "uint256"
        }
      ],
      "payable": false,
      "stateMutability": "nonpayable",
      "type": "constructor"
    },
    {
      "anonymous": false,
      "inputs": [
        {
          "indexed": false,
          "name": "user",
          "type": "address"
        },
        {
          "indexed": false,
          "name": "signer",
          "type": "address"
        },
        {
          "indexed": false,
          "name": "_success",
          "type": "bool"
        }
      ],
      "name": "Register",
      "type": "event"
    },
    {
      "anonymous": false,
      "inputs": [
        {
          "indexed": false,
          "name": "sig",
          "type": "bytes"
        },
        {
          "indexed": false,
          "name": "hash",
          "type": "bytes32"
        },
        {
          "indexed": false,
          "name": "workerAddr",
          "type": "address"
        },
        {
          "indexed": false,
          "name": "bytecode",
          "type": "bytes"
        },
        {
          "indexed": false,
          "name": "_success",
          "type": "bool"
        }
      ],
      "name": "ValidateSig",
      "type": "event"
    },
    {
      "anonymous": false,
      "inputs": [
        {
          "indexed": false,
          "name": "secretContract",
          "type": "address"
        },
        {
          "indexed": false,
          "name": "worker",
          "type": "address"
        },
        {
          "indexed": false,
          "name": "sig",
          "type": "bytes"
        },
        {
          "indexed": false,
          "name": "reward",
          "type": "uint256"
        },
        {
          "indexed": false,
          "name": "_success",
          "type": "bool"
        }
      ],
      "name": "CommitResults",
      "type": "event"
    },
    {
      "anonymous": false,
      "inputs": [
        {
          "indexed": false,
          "name": "seed",
          "type": "uint256"
        },
        {
          "indexed": false,
          "name": "workers",
          "type": "address[]"
        },
        {
          "indexed": false,
          "name": "_success",
          "type": "bool"
        }
      ],
      "name": "WorkersParameterized",
      "type": "event"
    },
    {
      "anonymous": false,
      "inputs": [
        {
          "indexed": true,
          "name": "callingContract",
          "type": "address"
        },
        {
          "indexed": true,
          "name": "taskId",
          "type": "bytes32"
        },
        {
          "indexed": false,
          "name": "callable",
          "type": "string"
        },
        {
          "indexed": false,
          "name": "callableArgs",
          "type": "bytes"
        },
        {
          "indexed": false,
          "name": "callback",
          "type": "string"
        },
        {
          "indexed": false,
          "name": "fee",
          "type": "uint256"
        },
        {
          "indexed": false,
          "name": "preprocessors",
          "type": "bytes32[]"
        },
        {
          "indexed": false,
          "name": "_success",
          "type": "bool"
        }
      ],
      "name": "ComputeTask",
      "type": "event"
    },
    {
      "constant": false,
      "inputs": [
        {
          "name": "signer",
          "type": "address"
        },
        {
          "name": "quote",
          "type": "string"
        }
      ],
      "name": "register",
      "outputs": [
        {
          "name": "",
          "type": "uint8"
        }
      ],
      "payable": true,
      "stateMutability": "payable",
      "type": "function"
    },
    {
      "constant": false,
      "inputs": [
        {
          "name": "dappContract",
          "type": "address"
        },
        {
          "name": "callable",
          "type": "string"
        },
        {
          "name": "callableArgs",
          "type": "bytes"
        },
        {
          "name": "callback",
          "type": "string"
        },
        {
          "name": "fee",
          "type": "uint256"
        },
        {
          "name": "preprocessors",
          "type": "bytes32[]"
        },
        {
          "name": "nonce",
          "type": "uint256"
        }
      ],
      "name": "compute",
      "outputs": [
        {
          "name": "",
          "type": "uint8"
        }
      ],
      "payable": false,
      "stateMutability": "nonpayable",
      "type": "function"
    },
    {
      "constant": false,
      "inputs": [
        {
          "name": "dappContract",
          "type": "address"
        },
        {
          "name": "taskId",
          "type": "bytes32"
        },
        {
          "name": "data",
          "type": "bytes"
        },
        {
          "name": "sig",
          "type": "bytes"
        }
      ],
      "name": "commitResults",
      "outputs": [
        {
          "name": "",
          "type": "uint8"
        }
      ],
      "payable": false,
      "stateMutability": "nonpayable",
      "type": "function"
    },
    {
      "constant": false,
      "inputs": [
        {
          "name": "seed",
          "type": "uint256"
        }
      ],
      "name": "setWorkersParams",
      "outputs": [
        {
          "name": "",
          "type": "uint8"
        }
      ],
      "payable": false,
      "stateMutability": "nonpayable",
      "type": "function"
    },
    {
      "constant": true,
      "inputs": [
        {
          "name": "blockNumber",
          "type": "uint256"
        }
      ],
      "name": "getWorkersParams",
      "outputs": [
        {
          "name": "",
          "type": "uint256"
        },
        {
          "name": "",
          "type": "uint256"
        },
        {
          "name": "",
          "type": "address[]"
        }
      ],
      "payable": false,
      "stateMutability": "view",
      "type": "function"
    },
    {
      "constant": true,
      "inputs": [
        {
          "name": "blockNumber",
          "type": "uint256"
        },
        {
          "name": "taskId",
          "type": "bytes32"
        }
      ],
      "name": "selectWorker",
      "outputs": [
        {
          "name": "",
          "type": "address"
        },
        {
          "name": "",
          "type": "uint256"
        },
        {
          "name": "",
          "type": "uint256"
        },
        {
          "name": "",
          "type": "uint256"
        }
      ],
      "payable": false,
      "stateMutability": "view",
      "type": "function"
    }
  ],
  "bytecode": "0x608060405234801561001057600080fd5b506040516040806133098339810180604052810190808051906020019092919080519060200190929190505050816000806101000a81548173ffffffffffffffffffffffffffffffffffffffff021916908373ffffffffffffffffffffffffffffffffffffffff160217905550806001819055505050613274806100956000396000f3006080604052600436106100a4576000357c0100000000000000000000000000000000000000000000000000000000900463ffffffff1680630a318da0146100a9578063108351241461011657806332434a2e146102155780634048a257146102b357806341f53fa4146103b057806359c91a12146104405780636f3ef5d6146104d05780638d0cf7891461072d5780639489ad401461077c578063bf3c5c51146107d3575b600080fd5b3480156100b557600080fd5b506100d460048036038101908080359060200190929190505050610961565b604051808273ffffffffffffffffffffffffffffffffffffffff1673ffffffffffffffffffffffffffffffffffffffff16815260200191505060405180910390f35b34801561012257600080fd5b506101f1600480360381019080803573ffffffffffffffffffffffffffffffffffffffff1690602001909291908035600019169060200190929190803590602001908201803590602001908080601f0160208091040260200160405190810160405280939291908181526020018383808284378201915050505050509192919290803590602001908201803590602001908080601f016020809104026020016040519081016040528093929190818152602001838380828437820191505050505050919291929050505061099f565b6040518082600181111561020157fe5b60ff16815260200191505060405180910390f35b61028f600480360381019080803573ffffffffffffffffffffffffffffffffffffffff169060200190929190803590602001908201803590602001908080601f01602080910402602001604051908101604052809392919081815260200183838082843782019150505050505091929192905050506115b6565b6040518082600181111561029f57fe5b60ff16815260200191505060405180910390f35b3480156102bf57600080fd5b506102f4600480360381019080803573ffffffffffffffffffffffffffffffffffffffff169060200190929190505050611833565b604051808573ffffffffffffffffffffffffffffffffffffffff1673ffffffffffffffffffffffffffffffffffffffff16815260200180602001848152602001838152602001828103825285818151815260200191508051906020019080838360005b83811015610372578082015181840152602081019050610357565b50505050905090810190601f16801561039f5780820380516001836020036101000a031916815260200191505b509550505050505060405180910390f35b3480156103bc57600080fd5b506103e960048036038101908080359060200190929190803560001916906020019092919050505061191b565b604051808573ffffffffffffffffffffffffffffffffffffffff1673ffffffffffffffffffffffffffffffffffffffff16815260200184815260200183815260200182815260200194505050505060405180910390f35b34801561044c57600080fd5b5061046b600480360381019080803590602001909291905050506119c2565b6040518084815260200183815260200180602001828103825283818151815260200191508051906020019060200280838360005b838110156104ba57808201518184015260208101905061049f565b5050505090500194505050505060405180910390f35b3480156104dc57600080fd5b5061051f600480360381019080803573ffffffffffffffffffffffffffffffffffffffff1690602001909291908035600019169060200190929190505050611b89565b604051808060200180602001806020018873ffffffffffffffffffffffffffffffffffffffff1673ffffffffffffffffffffffffffffffffffffffff1681526020018060200187815260200186600181111561057757fe5b60ff16815260200185810385528c818151815260200191508051906020019080838360005b838110156105b757808201518184015260208101905061059c565b50505050905090810190601f1680156105e45780820380516001836020036101000a031916815260200191505b5085810384528b818151815260200191508051906020019080838360005b8381101561061d578082015181840152602081019050610602565b50505050905090810190601f16801561064a5780820380516001836020036101000a031916815260200191505b5085810383528a818151815260200191508051906020019080838360005b83811015610683578082015181840152602081019050610668565b50505050905090810190601f1680156106b05780820380516001836020036101000a031916815260200191505b50858103825288818151815260200191508051906020019080838360005b838110156106e95780820151818401526020810190506106ce565b50505050905090810190601f1680156107165780820380516001836020036101000a031916815260200191505b509b50505050505050505050505060405180910390f35b34801561073957600080fd5b5061075860048036038101908080359060200190929190505050611e65565b6040518082600181111561076857fe5b60ff16815260200191505060405180910390f35b34801561078857600080fd5b50610791612313565b604051808273ffffffffffffffffffffffffffffffffffffffff1673ffffffffffffffffffffffffffffffffffffffff16815260200191505060405180910390f35b3480156107df57600080fd5b5061093d600480360381019080803573ffffffffffffffffffffffffffffffffffffffff169060200190929190803590602001908201803590602001908080601f0160208091040260200160405190810160405280939291908181526020018383808284378201915050505050509192919290803590602001908201803590602001908080601f0160208091040260200160405190810160405280939291908181526020018383808284378201915050505050509192919290803590602001908201803590602001908080601f0160208091040260200160405190810160405280939291908181526020018383808284378201915050505050509192919290803590602001909291908035906020019082018035906020019080806020026020016040519081016040528093929190818152602001838360200280828437820191505050505050919291929080359060200190929190505050612338565b6040518082600181111561094d57fe5b60ff16815260200191505060405180910390f35b60028181548110151561097057fe5b906000526020600020016000915054906101000a900473ffffffffffffffffffffffffffffffffffffffff1681565b600080600080336109ae613096565b601260008373ffffffffffffffffffffffffffffffffffffffff1673ffffffffffffffffffffffffffffffffffffffff168152602001908152602001600020608060405190810160405290816000820160009054906101000a900473ffffffffffffffffffffffffffffffffffffffff1673ffffffffffffffffffffffffffffffffffffffff1673ffffffffffffffffffffffffffffffffffffffff168152602001600182018054600181600116156101000203166002900480601f016020809104026020016040519081016040528092919081815260200182805460018160011615610100020316600290048015610ae85780601f10610abd57610100808354040283529160200191610ae8565b820191906000526020600020905b815481529060010190602001808311610acb57829003601f168201915b5050505050815260200160028201548152602001600382015481525050905060008160600151111515610b83576040517f08c379a00000000000000000000000000000000000000000000000000000000081526004018080602001828103825260148152602001807f556e7265676973746572656420776f726b65722e00000000000000000000000081525060200191505060405180910390fd5b60006001811115610b9057fe5b601360008c73ffffffffffffffffffffffffffffffffffffffff1673ffffffffffffffffffffffffffffffffffffffff16815260200190815260200160002060008b6000191660001916815260200190815260200160002060060160009054906101000a900460ff166001811115610c0457fe5b141515610c9f576040517f08c379a00000000000000000000000000000000000000000000000000000000081526004018080602001828103825260298152602001807f496c6c6567616c207374617475732c207461736b206d75737420626520696e2081526020017f70726f67726573732e000000000000000000000000000000000000000000000081525060400191505060405180910390fd5b6110238a601360008d73ffffffffffffffffffffffffffffffffffffffff1673ffffffffffffffffffffffffffffffffffffffff16815260200190815260200160002060008c6000191660001916815260200190815260200160002060e06040519081016040529081600082018054600181600116156101000203166002900480601f016020809104026020016040519081016040528092919081815260200182805460018160011615610100020316600290048015610da05780601f10610d7557610100808354040283529160200191610da0565b820191906000526020600020905b815481529060010190602001808311610d8357829003601f168201915b50505050508152602001600182018054600181600116156101000203166002900480601f016020809104026020016040519081016040528092919081815260200182805460018160011615610100020316600290048015610e425780601f10610e1757610100808354040283529160200191610e42565b820191906000526020600020905b815481529060010190602001808311610e2557829003601f168201915b50505050508152602001600282018054600181600116156101000203166002900480601f016020809104026020016040519081016040528092919081815260200182805460018160011615610100020316600290048015610ee45780601f10610eb957610100808354040283529160200191610ee4565b820191906000526020600020905b815481529060010190602001808311610ec757829003601f168201915b505050505081526020016003820160009054906101000a900473ffffffffffffffffffffffffffffffffffffffff1673ffffffffffffffffffffffffffffffffffffffff1673ffffffffffffffffffffffffffffffffffffffff168152602001600482018054600181600116156101000203166002900480601f016020809104026020016040519081016040528092919081815260200182805460018160011615610100020316600290048015610fdc5780601f10610fb157610100808354040283529160200191610fdc565b820191906000526020600020905b815481529060010190602001808311610fbf57829003601f168201915b50505050508152602001600582015481526020016006820160009054906101000a900460ff16600181111561100d57fe5b600181111561101857fe5b815250508a8a6128aa565b9450600073ffffffffffffffffffffffffffffffffffffffff168573ffffffffffffffffffffffffffffffffffffffff16141515156110ca576040517f08c379a000000000000000000000000000000000000000000000000000000000815260040180806020018281038252601d8152602001807f43616e6e6f74207665726966792074686973207369676e61747572652e00000081525060200191505060405180910390fd5b601260003373ffffffffffffffffffffffffffffffffffffffff1673ffffffffffffffffffffffffffffffffffffffff16815260200190815260200160002060000160009054906101000a900473ffffffffffffffffffffffffffffffffffffffff1673ffffffffffffffffffffffffffffffffffffffff168573ffffffffffffffffffffffffffffffffffffffff161415156111cf576040517f08c379a00000000000000000000000000000000000000000000000000000000081526004018080602001828103825260128152602001807f496e76616c6964207369676e61747572652e000000000000000000000000000081525060200191505060405180910390fd5b601360008b73ffffffffffffffffffffffffffffffffffffffff1673ffffffffffffffffffffffffffffffffffffffff16815260200190815260200160002060008a600019166000191681526020019081526020016000206005015493506000841115156112a5576040517f08c379a00000000000000000000000000000000000000000000000000000000081526004018080602001828103825260168152602001807f5265776172642063616e6e6f74206265207a65726f2e0000000000000000000081525060200191505060405180910390fd5b33601360008c73ffffffffffffffffffffffffffffffffffffffff1673ffffffffffffffffffffffffffffffffffffffff16815260200190815260200160002060008b6000191660001916815260200190815260200160002060030160006101000a81548173ffffffffffffffffffffffffffffffffffffffff021916908373ffffffffffffffffffffffffffffffffffffffff16021790555086601360008c73ffffffffffffffffffffffffffffffffffffffff1673ffffffffffffffffffffffffffffffffffffffff16815260200190815260200160002060008b6000191660001916815260200190815260200160002060040190805190602001906113ae9291906130d5565b506001601360008c73ffffffffffffffffffffffffffffffffffffffff1673ffffffffffffffffffffffffffffffffffffffff16815260200190815260200160002060008b6000191660001916815260200190815260200160002060060160006101000a81548160ff0219169083600181111561142757fe5b0217905550601260003373ffffffffffffffffffffffffffffffffffffffff1673ffffffffffffffffffffffffffffffffffffffff1681526020019081526020016000209250611484848460020154612c0390919063ffffffff16565b83600201819055507f860ef3e30d5efeaa79f3d448bd5219e9b92ca92eefb7bcc4e8c6b3420fe9dd3d8a3389876001604051808673ffffffffffffffffffffffffffffffffffffffff1673ffffffffffffffffffffffffffffffffffffffff1681526020018573ffffffffffffffffffffffffffffffffffffffff1673ffffffffffffffffffffffffffffffffffffffff1681526020018060200184815260200183151515158152602001828103825285818151815260200191508051906020019080838360005b8381101561156757808201518184015260208101905061154c565b50505050905090810190601f1680156115945780820380516001836020036101000a031916815260200191505b50965050505050505060405180910390a1600095505050505050949350505050565b600060023390806001815401808255809150509060018203906000526020600020016000909192909190916101000a81548173ffffffffffffffffffffffffffffffffffffffff021916908373ffffffffffffffffffffffffffffffffffffffff1602179055505082601260003373ffffffffffffffffffffffffffffffffffffffff1673ffffffffffffffffffffffffffffffffffffffff16815260200190815260200160002060000160006101000a81548173ffffffffffffffffffffffffffffffffffffffff021916908373ffffffffffffffffffffffffffffffffffffffff16021790555034601260003373ffffffffffffffffffffffffffffffffffffffff1673ffffffffffffffffffffffffffffffffffffffff1681526020019081526020016000206002018190555081601260003373ffffffffffffffffffffffffffffffffffffffff1673ffffffffffffffffffffffffffffffffffffffff168152602001908152602001600020600101908051906020019061173c929190613155565b506001601260003373ffffffffffffffffffffffffffffffffffffffff1673ffffffffffffffffffffffffffffffffffffffff168152602001908152602001600020600301819055507faea7118a676707165821e4678d9998eaabd7a2864b5db99ec0badef3fb7fa1e433846001604051808473ffffffffffffffffffffffffffffffffffffffff1673ffffffffffffffffffffffffffffffffffffffff1681526020018373ffffffffffffffffffffffffffffffffffffffff1673ffffffffffffffffffffffffffffffffffffffff16815260200182151515158152602001935050505060405180910390a16000905092915050565b60126020528060005260406000206000915090508060000160009054906101000a900473ffffffffffffffffffffffffffffffffffffffff1690806001018054600181600116156101000203166002900480601f0160208091040260200160405190810160405280929190818152602001828054600181600116156101000203166002900480156119055780601f106118da57610100808354040283529160200191611905565b820191906000526020600020905b8154815290600101906020018083116118e857829003601f168201915b5050505050908060020154908060030154905084565b6000806000806000806060806000806119338c6119c2565b95509550955061194284612c1f565b925060405180807f74657374320000000000000000000000000000000000000000000000000000008152506005019050604051809103902060019004915082518281151561198c57fe5b069050828181518110151561199d57fe5b9060200190602002015185845184995099509950995050505050505092959194509250565b60008060606000806119d26131d5565b6119db87612d88565b92507fffffffffffffffffffffffffffffffffffffffffffffffffffffffffffffffff8360000b14151515611a9e576040517f08c379a00000000000000000000000000000000000000000000000000000000081526004018080602001828103825260368152602001807f4e6f20776f726b65727320706172616d657465727320656e74727920666f722081526020017f73706563696669656420626c6f636b206e756d6265720000000000000000000081525060400191505060405180910390fd5b8260000b9150600382600581101515611ab357fe5b60030201606060405190810160405290816000820154815260200160018201805480602002602001604051908101604052809291908181526020018280548015611b5257602002820191906000526020600020905b8160009054906101000a900473ffffffffffffffffffffffffffffffffffffffff1673ffffffffffffffffffffffffffffffffffffffff1681526020019060010190808311611b08575b5050505050815260200160028201548152505090508060000151816040015182602001518090509550955095505050509193909250565b601360205281600052604060002060205280600052604060002060009150915050806000018054600181600116156101000203166002900480601f016020809104026020016040519081016040528092919081815260200182805460018160011615610100020316600290048015611c425780601f10611c1757610100808354040283529160200191611c42565b820191906000526020600020905b815481529060010190602001808311611c2557829003601f168201915b505050505090806001018054600181600116156101000203166002900480601f016020809104026020016040519081016040528092919081815260200182805460018160011615610100020316600290048015611ce05780601f10611cb557610100808354040283529160200191611ce0565b820191906000526020600020905b815481529060010190602001808311611cc357829003601f168201915b505050505090806002018054600181600116156101000203166002900480601f016020809104026020016040519081016040528092919081815260200182805460018160011615610100020316600290048015611d7e5780601f10611d5357610100808354040283529160200191611d7e565b820191906000526020600020905b815481529060010190602001808311611d6157829003601f168201915b5050505050908060030160009054906101000a900473ffffffffffffffffffffffffffffffffffffffff1690806004018054600181600116156101000203166002900480601f016020809104026020016040519081016040528092919081815260200182805460018160011615610100020316600290048015611e425780601f10611e1757610100808354040283529160200191611e42565b820191906000526020600020905b815481529060010190602001808311611e2557829003601f168201915b5050505050908060050154908060060160009054906101000a900460ff16905087565b60008060008033611e74613096565b601260008373ffffffffffffffffffffffffffffffffffffffff1673ffffffffffffffffffffffffffffffffffffffff168152602001908152602001600020608060405190810160405290816000820160009054906101000a900473ffffffffffffffffffffffffffffffffffffffff1673ffffffffffffffffffffffffffffffffffffffff1673ffffffffffffffffffffffffffffffffffffffff168152602001600182018054600181600116156101000203166002900480601f016020809104026020016040519081016040528092919081815260200182805460018160011615610100020316600290048015611fae5780601f10611f8357610100808354040283529160200191611fae565b820191906000526020600020905b815481529060010190602001808311611f9157829003601f168201915b5050505050815260200160028201548152602001600382015481525050905060008160600151111515612049576040517f08c379a00000000000000000000000000000000000000000000000000000000081526004018080602001828103825260148152602001807f556e7265676973746572656420776f726b65722e00000000000000000000000081525060200191505060405180910390fd5b60009450600093505b60058410156120c757600060038560058110151561206c57fe5b60030201600001541415612082578394506120c7565b60038560058110151561209157fe5b60030201600001546003856005811015156120a857fe5b600302016000015410156120ba578394505b8380600101945050612052565b436003866005811015156120d757fe5b6003020160000181905550866003866005811015156120f257fe5b6003020160020181905550600092505b60028054905083101561224457600060028481548110151561212057fe5b9060005260206000200160009054906101000a900473ffffffffffffffffffffffffffffffffffffffff1673ffffffffffffffffffffffffffffffffffffffff161415156122375760038560058110151561217757fe5b60030201600101805480919060010161219091906131f7565b506002838154811015156121a057fe5b9060005260206000200160009054906101000a900473ffffffffffffffffffffffffffffffffffffffff166003866005811015156121da57fe5b60030201600101848154811015156121ee57fe5b9060005260206000200160006101000a81548173ffffffffffffffffffffffffffffffffffffffff021916908373ffffffffffffffffffffffffffffffffffffffff1602179055505b8280600101935050612102565b7f363e1a0b29df899b2a8946ad6ac8f81796117158a11dc2c2a5b8c0297789ffa1876002600160405180848152602001806020018315151515815260200182810382528481815481526020019150805480156122f557602002820191906000526020600020905b8160009054906101000a900473ffffffffffffffffffffffffffffffffffffffff1673ffffffffffffffffffffffffffffffffffffffff16815260200190600101908083116122ab575b505094505050505060405180910390a1600095505050505050919050565b6000809054906101000a900473ffffffffffffffffffffffffffffffffffffffff1681565b60008061234789898986612e5f565b905084601360008b73ffffffffffffffffffffffffffffffffffffffff1673ffffffffffffffffffffffffffffffffffffffff168152602001908152602001600020600083600019166000191681526020019081526020016000206005018190555087601360008b73ffffffffffffffffffffffffffffffffffffffff1673ffffffffffffffffffffffffffffffffffffffff168152602001908152602001600020600083600019166000191681526020019081526020016000206000019080519060200190612418929190613155565b5086601360008b73ffffffffffffffffffffffffffffffffffffffff1673ffffffffffffffffffffffffffffffffffffffff1681526020019081526020016000206000836000191660001916815260200190815260200160002060010190805190602001906124889291906130d5565b5085601360008b73ffffffffffffffffffffffffffffffffffffffff1673ffffffffffffffffffffffffffffffffffffffff1681526020019081526020016000206000836000191660001916815260200190815260200160002060020190805190602001906124f8929190613155565b506000601360008b73ffffffffffffffffffffffffffffffffffffffff1673ffffffffffffffffffffffffffffffffffffffff1681526020019081526020016000206000836000191660001916815260200190815260200160002060060160006101000a81548160ff0219169083600181111561257157fe5b021790555080600019168973ffffffffffffffffffffffffffffffffffffffff167f8f1752b2ae20c4a7fa6c75e3cf27b6c9cf3f3af8d0ad47ec9e002382fd2eda128a8a8a8a8a600160405180806020018060200180602001878152602001806020018615151515815260200185810385528b818151815260200191508051906020019080838360005b838110156126165780820151818401526020810190506125fb565b50505050905090810190601f1680156126435780820380516001836020036101000a031916815260200191505b5085810384528a818151815260200191508051906020019080838360005b8381101561267c578082015181840152602081019050612661565b50505050905090810190601f1680156126a95780820380516001836020036101000a031916815260200191505b50858103835289818151815260200191508051906020019080838360005b838110156126e25780820151818401526020810190506126c7565b50505050905090810190601f16801561270f5780820380516001836020036101000a031916815260200191505b50858103825287818151815260200191508051906020019060200280838360005b8381101561274b578082015181840152602081019050612730565b505050509050019a505050505050505050505060405180910390a36000809054906101000a900473ffffffffffffffffffffffffffffffffffffffff1673ffffffffffffffffffffffffffffffffffffffff166323b872dd3330886040518463ffffffff167c0100000000000000000000000000000000000000000000000000000000028152600401808473ffffffffffffffffffffffffffffffffffffffff1673ffffffffffffffffffffffffffffffffffffffff1681526020018373ffffffffffffffffffffffffffffffffffffffff1673ffffffffffffffffffffffffffffffffffffffff1681526020018281526020019350505050602060405180830381600087803b15801561285e57600080fd5b505af1158015612872573d6000803e3d6000fd5b505050506040513d602081101561288857600080fd5b8101908080519060200190929190505050506000915050979650505050505050565b60006060600060606000806128be8a612f73565b9450886020015188866040518084805190602001908083835b6020831015156128fc57805182526020820191506020810190506020830392506128d7565b6001836020036101000a03801982511681845116808217855250505050505090500183805190602001908083835b60208310151561294f578051825260208201915060208101905060208303925061292a565b6001836020036101000a03801982511681845116808217855250505050505090500182805190602001908083835b6020831015156129a2578051825260208201915060208101905060208303925061297d565b6001836020036101000a0380198251168184511680821785525050505050509050019350505050604051809103902093506040805190810160405280601c81526020017f19457468657265756d205369676e6564204d6573736167653a0a333200000000815250925082846040518083805190602001908083835b602083101515612a425780518252602082019150602081019050602083039250612a1d565b6001836020036101000a03801982511681845116808217855250505050505090500182600019166000191681526020019250505060405180910390209150612a97878360001916612f9e90919063ffffffff16565b90507fff6705f1a974965043a4b4d997ef0e9f773759a078b3a30b02507c11ec5a6c4b878383886001604051808060200186600019166000191681526020018573ffffffffffffffffffffffffffffffffffffffff1673ffffffffffffffffffffffffffffffffffffffff1681526020018060200184151515158152602001838103835288818151815260200191508051906020019080838360005b83811015612b4e578082015181840152602081019050612b33565b50505050905090810190601f168015612b7b5780820380516001836020036101000a031916815260200191505b50838103825285818151815260200191508051906020019080838360005b83811015612bb4578082015181840152602081019050612b99565b50505050905090810190601f168015612be15780820380516001836020036101000a031916815260200191505b5097505050505050505060405180910390a18095505050505050949350505050565b60008183019050828110151515612c1657fe5b80905092915050565b6060600080606060008060009450600093505b8651841015612c885760008785815181101515612c4b57fe5b9060200190602002015173ffffffffffffffffffffffffffffffffffffffff16141515612c7b5784806001019550505b8380600101945050612c32565b84604051908082528060200260200182016040528015612cb75781602001602082028038833980820191505090505b50925060009150600090505b8651811015612d7b5760008782815181101515612cdc57fe5b9060200190602002015173ffffffffffffffffffffffffffffffffffffffff16141515612d6e578681815181101515612d1157fe5b906020019060200201518383815181101515612d2957fe5b9060200190602002019073ffffffffffffffffffffffffffffffffffffffff16908173ffffffffffffffffffffffffffffffffffffffff168152505081806001019250505b8080600101915050612cc3565b8295505050505050919050565b60008060007fffffffffffffffffffffffffffffffffffffffffffffffffffffffffffffffff9150600090505b6005811015612e555783600382600581101515612dce57fe5b600302016000015411158015612e3f57507fffffffffffffffffffffffffffffffffffffffffffffffffffffffffffffffff8260000b1480612e3e575060038260000b600581101515612e1d57fe5b6003020160000154600382600581101515612e3457fe5b6003020160000154115b5b15612e48578091505b8080600101915050612db5565b8192505050919050565b60008085858585604051808573ffffffffffffffffffffffffffffffffffffffff1673ffffffffffffffffffffffffffffffffffffffff166c0100000000000000000000000002815260140184805190602001908083835b602083101515612edc5780518252602082019150602081019050602083039250612eb7565b6001836020036101000a03801982511681845116808217855250505050505090500183805190602001908083835b602083101515612f2f5780518252602082019150602081019050602083039250612f0a565b6001836020036101000a0380198251168184511680821785525050505050509050018281526020019450505050506040518091039020905080915050949350505050565b6060813b6040519150601f19601f602083010116820160405280825280600060208401853c50919050565b60008060008060418551141515612fb8576000935061308d565b6020850151925060408501519150606085015160001a9050601b8160ff161015612fe357601b810190505b601b8160ff1614158015612ffb5750601c8160ff1614155b15613009576000935061308d565b600186828585604051600081526020016040526040518085600019166000191681526020018460ff1660ff1681526020018360001916600019168152602001826000191660001916815260200194505050505060206040516020810390808403906000865af1158015613080573d6000803e3d6000fd5b5050506020604051035193505b50505092915050565b608060405190810160405280600073ffffffffffffffffffffffffffffffffffffffff1681526020016060815260200160008152602001600081525090565b828054600181600116156101000203166002900490600052602060002090601f016020900481019282601f1061311657805160ff1916838001178555613144565b82800160010185558215613144579182015b82811115613143578251825591602001919060010190613128565b5b5090506131519190613223565b5090565b828054600181600116156101000203166002900490600052602060002090601f016020900481019282601f1061319657805160ff19168380011785556131c4565b828001600101855582156131c4579182015b828111156131c35782518255916020019190600101906131a8565b5b5090506131d19190613223565b5090565b6060604051908101604052806000815260200160608152602001600081525090565b81548183558181111561321e5781836000526020600020918201910161321d9190613223565b5b505050565b61324591905b80821115613241576000816000905550600101613229565b5090565b905600a165627a7a72305820118189a6f7474d1460f5e4829ef922c62532bd5bb237a993f8ab87be88463db00029",
  "source": "pragma solidity ^0.4.22;\n\nimport \"./zeppelin/SafeMath.sol\";\nimport \"./zeppelin/ECRecovery.sol\";\nimport \"./utils/GetCode2.sol\";\nimport \"./utils/RLP.sol\";\n\ncontract IERC20 {\n    function balanceOf(address who) public constant returns (uint256);\n\n    function transfer(address to, uint256 value) public returns (bool);\n\n    function allowance(address owner, address spender) public constant returns (uint256);\n\n    function transferFrom(address from, address to, uint256 value) public returns (bool);\n\n    function approve(address spender, uint256 value) public returns (bool);\n\n    event Transfer(address indexed from, address indexed to, uint256 value);\n    event Approval(address indexed owner, address indexed spender, uint256 value);\n}\n\n\ncontract Enigma {\n    using SafeMath for uint256;\n    using ECRecovery for bytes32;\n    using RLP for RLP.RLPItem;\n    using RLP for RLP.Iterator;\n    using RLP for bytes;\n\n    IERC20 public engToken;\n\n    struct Task {\n        string callable;\n        bytes callableArgs;\n        string callback;\n        address worker;\n        bytes sig;\n        uint256 reward;\n        TaskStatus status;\n    }\n    enum TaskStatus {InProgress, Executed}\n\n    struct Worker {\n        address signer;\n        string quote;\n        uint256 balance;\n        uint status; // Uninitialized: 0; Active: 1; Inactive: 2\n    }\n\n    uint workerParamsLimit;\n\n    struct WorkersParams {\n        uint256 firstBlockNumber;\n        address[] workerAddresses;\n        uint256 seed;\n    }\n\n    address[] public workerAddresses;\n    WorkersParams[5] workersParams;\n    mapping(address => Worker) public workers;\n    mapping(address => mapping(bytes32 => Task)) public tasks;\n\n    event Register(address user, address signer, bool _success);\n    event ValidateSig(bytes sig, bytes32 hash, address workerAddr, bytes bytecode, bool _success);\n    event CommitResults(address secretContract, address worker, bytes sig, uint reward, bool _success);\n    event WorkersParameterized(uint256 seed, address[] workers, bool _success);\n\n    // Enigma computation task\n    event ComputeTask(address indexed callingContract, bytes32 indexed taskId, string callable, bytes callableArgs, string callback, uint256 fee, bytes32[] preprocessors, bool _success);\n\n    enum ReturnValue {Ok, Error}\n\n    function Enigma(address _tokenAddress, uint _workerParamsLimit) public {\n        engToken = IERC20(_tokenAddress);\n        workerParamsLimit = _workerParamsLimit;\n    }\n\n    modifier workerRegistered(address user) {\n        Worker memory worker = workers[user];\n        require(worker.status > 0, \"Unregistered worker.\");\n        _;\n    }\n\n    function register(address signer, string quote)\n    public\n    payable\n    returns (ReturnValue) {\n        // Register a new worker and deposit stake\n        // require(workers[msg.sender].status == 0, \"Worker already register.\");\n\n        workerAddresses.push(msg.sender);\n\n        workers[msg.sender].signer = signer;\n        workers[msg.sender].balance = msg.value;\n        workers[msg.sender].quote = quote;\n        workers[msg.sender].status = 1;\n\n        emit Register(msg.sender, signer, true);\n\n        return ReturnValue.Ok;\n    }\n\n    function generateTaskId(address dappContract, string callable, bytes callableArgs, uint256 nonce)\n    internal\n    constant\n    returns (bytes32)\n    {\n        // Generates a unique task id\n        bytes32 hash = keccak256(dappContract, callable, callableArgs, nonce);\n        return hash;\n    }\n\n    function compute(address dappContract, string callable, bytes callableArgs, string callback, uint256 fee, bytes32[] preprocessors, uint256 nonce)\n    public\n    returns (ReturnValue) {\n        // Create a computation task and save the fee in escrow\n        bytes32 taskId = generateTaskId(dappContract, callable, callableArgs, nonce);\n\n        tasks[dappContract][taskId].reward = fee;\n        tasks[dappContract][taskId].callable = callable;\n        tasks[dappContract][taskId].callableArgs = callableArgs;\n        tasks[dappContract][taskId].callback = callback;\n        tasks[dappContract][taskId].status = TaskStatus.InProgress;\n\n        // Emit the ComputeTask event which each node is watching for\n        emit ComputeTask(dappContract, taskId, callable, callableArgs, callback, fee, preprocessors, true);\n\n        // Transferring before emitting does not work\n        // TODO: check the allowance first\n        engToken.transferFrom(msg.sender, this, fee);\n\n        return ReturnValue.Ok;\n    }\n\n    function verifySignature(address secretContract, Task task, bytes data, bytes sig)\n    internal\n    constant\n    returns (address) {\n        // Recreating a data hash to validate the signature\n        bytes memory code = GetCode2.at(secretContract);\n\n        // Build a hash to validate that the I/Os are matching\n        bytes32 hash = keccak256(task.callableArgs, data, code);\n        bytes memory prefix = \"\\x19Ethereum Signed Message:\\n32\";\n        bytes32 prefixedHash = sha3(prefix, hash);\n\n        // TODO: this returns an address where we want to verify a public key\n        // I don't believe that Solidity has a general purpose signature\n        // validator. However, we know that an Ethereum address is the hash\n        // of a public key, so we can use our public key to generate a\n        // virtual address for validation.\n        address workerAddr = prefixedHash.recover(sig);\n\n        emit ValidateSig(sig, prefixedHash, workerAddr, code, true);\n        return workerAddr;\n    }\n\n    // copied from GnosisSafe\n    // https://github.com/gnosis/gnosis-safe-contracts/blob/master/contracts/GnosisSafe.sol\n    function executeCall(address to, uint256 value, bytes data) internal returns (bool success) {\n        assembly {\n            success := call(gas, to, value, add(data, 0x20), mload(data), 0, 0)\n        }\n    }\n\n    function commitResults(address dappContract, bytes32 taskId, bytes data, bytes sig)\n    public\n    workerRegistered(msg.sender)\n    returns (ReturnValue) {\n        // Task must be solved only once\n        require(tasks[dappContract][taskId].status == TaskStatus.InProgress, \"Illegal status, task must be in progress.\");\n\n        address sigAddr = verifySignature(dappContract, tasks[dappContract][taskId], data, sig);\n        require(sigAddr != address(0), \"Cannot verify this signature.\");\n        require(sigAddr == workers[msg.sender].signer, \"Invalid signature.\");\n\n        // The contract must hold enough fund to distribute reward\n        // TODO: validate that the reward matches the opcodes computed\n        uint256 reward = tasks[dappContract][taskId].reward;\n        require(reward > 0, \"Reward cannot be zero.\");\n\n        // Invoking the callback method of the original contract\n        // TODO: disable for now because the Python tests don't create deals, works with the JS tests\n        //        require(executeCall(secretContract, msg.value, data), \"Unable to invoke the callback\");\n\n        // Keep a trace of the task worker and proof\n        tasks[dappContract][taskId].worker = msg.sender;\n        tasks[dappContract][taskId].sig = sig;\n        tasks[dappContract][taskId].status = TaskStatus.Executed;\n\n        // TODO: send directly to the worker's custodian instead\n        // Put the reward in the worker's bank\n        // He can withdraw later\n        Worker storage worker = workers[msg.sender];\n        worker.balance = worker.balance.add(reward);\n\n        emit CommitResults(dappContract, msg.sender, sig, reward, true);\n\n        return ReturnValue.Ok;\n    }\n\n    function setWorkersParams(uint256 seed)\n    public\n    workerRegistered(msg.sender)\n    returns (ReturnValue) {\n        // Create a new workers parameters item for the specified seed.\n        // The workers parameters list is a sort of cache, it never grows beyond its limit.\n        // If the list is full, the new item will replace the item assigned to the lowest block number.\n        uint ti = 0;\n        for (uint pi = 0; pi < workersParams.length; pi++) {\n            // Find an empty slot in the array, if full use the lowest block number\n            if (workersParams[pi].firstBlockNumber == 0) {\n                ti = pi;\n                break;\n            } else if (workersParams[pi].firstBlockNumber < workersParams[ti].firstBlockNumber) {\n                ti = pi;\n            }\n        }\n        workersParams[ti].firstBlockNumber = block.number;\n        workersParams[ti].seed = seed;\n\n        // Copy the current worker list\n        for (uint wi = 0; wi < workerAddresses.length; wi++) {\n            if (workerAddresses[wi] != 0x0) {\n                workersParams[ti].workerAddresses.length++;\n                workersParams[ti].workerAddresses[wi] = workerAddresses[wi];\n            }\n        }\n        emit WorkersParameterized(seed, workerAddresses, true);\n        return ReturnValue.Ok;\n    }\n\n    function getWorkersParamsIndex(uint256 blockNumber)\n    internal\n    constant\n    returns (int8) {\n        // Gets the workers parameters nearest the specified block number\n        int8 ci = - 1;\n        for (uint i = 0; i < workersParams.length; i++) {\n            if (workersParams[i].firstBlockNumber <= blockNumber && (ci == - 1 || workersParams[i].firstBlockNumber > workersParams[uint(ci)].firstBlockNumber)) {\n                ci = int8(i);\n            }\n        }\n        return ci;\n    }\n\n    function getWorkersParams(uint256 blockNumber)\n    public\n    view\n    returns (uint256, uint256, address[]) {\n        // get the workers parameters for a given block number\n        int8 idx = getWorkersParamsIndex(blockNumber);\n        require(idx != - 1, \"No workers parameters entry for specified block number\");\n\n        uint index = uint(idx);\n        WorkersParams memory _workerParams = workersParams[index];\n\n        return (_workerParams.firstBlockNumber, _workerParams.seed, _workerParams.workerAddresses);\n    }\n\n    function cleanupWorkers(address[] workers)\n    internal\n    constant\n    returns (address[])\n    {\n        uint cpt = 0;\n        for (uint i = 0; i < workers.length; i++) {\n            if (workers[i] != 0x0) {\n                cpt++;\n            }\n        }\n        address[] memory _workers = new address[](cpt);\n        uint cur = 0;\n        for (uint iw = 0; iw < workers.length; iw++) {\n            if (workers[iw] != 0x0) {\n                _workers[cur] = workers[iw];\n                cur++;\n            }\n        }\n        return _workers;\n    }\n\n    function selectWorker(uint256 blockNumber, bytes32 taskId)\n    public\n    view\n    returns (address, uint256, uint256, uint256) {\n        (uint256 b, uint256 s, address[] memory workers) = getWorkersParams(blockNumber);\n        address[] memory _workers = cleanupWorkers(workers);\n\n        uint256 hash = uint256(keccak256(\"test2\"));\n        uint256 index = hash % _workers.length;\n        return (_workers[index], s, _workers.length, hash);\n    }\n}\n",
  "sourcePath": "/home/fredfortier/Code/mvt/enigma-contract/contracts/Enigma.sol",
  "compiler": {
    "name": "solc",
    "version": "0.4.24+commit.e67f0147.Emscripten.clang"
  },
  "schemaVersion": "2.0.0",
  "updatedAt": "2018-06-21T00:35:32.518Z"
}