{
  "contractName": "Enigma",
  "abi": [
    {
      "constant": true,
      "inputs": [
        {
          "name": "",
          "type": "uint256"
        }
      ],
      "name": "workerAddresses",
      "outputs": [
        {
          "name": "",
          "type": "address"
        }
      ],
      "payable": false,
      "stateMutability": "view",
      "type": "function",
      "signature": "0x0a318da0"
    },
    {
      "constant": true,
      "inputs": [
        {
          "name": "",
          "type": "address"
        }
      ],
      "name": "workers",
      "outputs": [
        {
          "name": "signer",
          "type": "address"
        },
        {
          "name": "status",
          "type": "uint8"
        },
        {
          "name": "report",
          "type": "bytes"
        },
        {
          "name": "balance",
          "type": "uint256"
        }
      ],
      "payable": false,
      "stateMutability": "view",
      "type": "function",
      "signature": "0x4048a257"
    },
    {
      "constant": true,
      "inputs": [
        {
          "name": "",
          "type": "address"
        },
        {
          "name": "",
          "type": "uint256"
        }
      ],
      "name": "stateDeltaHashes",
      "outputs": [
        {
          "name": "",
          "type": "bytes32"
        }
      ],
      "payable": false,
      "stateMutability": "view",
      "type": "function",
      "signature": "0x64a4c0c6"
    },
    {
      "constant": true,
      "inputs": [],
      "name": "engToken",
      "outputs": [
        {
          "name": "",
          "type": "address"
        }
      ],
      "payable": false,
      "stateMutability": "view",
      "type": "function",
      "signature": "0x9489ad40"
    },
    {
      "constant": true,
      "inputs": [
        {
          "name": "",
          "type": "bytes32"
        }
      ],
      "name": "tasks",
      "outputs": [
        {
          "name": "fee",
          "type": "uint256"
        },
        {
          "name": "token",
          "type": "address"
        },
        {
          "name": "tokenValue",
          "type": "uint256"
        },
        {
          "name": "proof",
          "type": "bytes"
        },
        {
          "name": "sender",
          "type": "address"
        },
        {
          "name": "status",
          "type": "uint8"
        }
      ],
      "payable": false,
      "stateMutability": "view",
      "type": "function",
      "signature": "0xe579f500"
    },
    {
      "inputs": [
        {
          "name": "_tokenAddress",
          "type": "address"
        },
        {
          "name": "_principal",
          "type": "address"
        }
      ],
      "payable": false,
      "stateMutability": "nonpayable",
      "type": "constructor",
      "signature": "constructor"
    },
    {
      "anonymous": false,
      "inputs": [
        {
          "indexed": false,
          "name": "custodian",
          "type": "address"
        },
        {
          "indexed": false,
          "name": "signer",
          "type": "address"
        }
      ],
      "name": "Registered",
      "type": "event",
      "signature": "0x0a31ee9d46a828884b81003c8498156ea6aa15b9b54bdd0ef0b533d9eba57e55"
    },
    {
      "anonymous": false,
      "inputs": [
        {
          "indexed": false,
          "name": "sig",
          "type": "bytes"
        },
        {
          "indexed": false,
          "name": "hash",
          "type": "bytes32"
        },
        {
          "indexed": false,
          "name": "workerAddr",
          "type": "address"
        }
      ],
      "name": "ValidatedSig",
      "type": "event",
      "signature": "0xe36691ca52ee024e298e5c0ff07191b87f0ac571c01a7631db2d70d573d955cb"
    },
    {
      "anonymous": false,
      "inputs": [
        {
          "indexed": false,
          "name": "seed",
          "type": "uint256"
        },
        {
          "indexed": false,
          "name": "workers",
          "type": "address[]"
        },
        {
          "indexed": false,
          "name": "secretContracts",
          "type": "address[]"
        }
      ],
      "name": "WorkersParameterized",
      "type": "event",
      "signature": "0xddd784bed66dfeca9e93ec7a89b48ae548c779ac5a179b0362ac680d4677acf0"
    },
    {
      "anonymous": false,
      "inputs": [
        {
          "indexed": false,
          "name": "taskId",
          "type": "bytes32"
        },
        {
          "indexed": false,
          "name": "fee",
          "type": "uint256"
        },
        {
          "indexed": false,
          "name": "token",
          "type": "address"
        },
        {
          "indexed": false,
          "name": "tokenValue",
          "type": "uint256"
        },
        {
          "indexed": false,
          "name": "sender",
          "type": "address"
        }
      ],
      "name": "TaskRecordCreated",
      "type": "event",
      "signature": "0x51364a5a527e38841b15c974f7924dad755bc9ce0d29701d7501a7bd297b787b"
    },
    {
      "anonymous": false,
      "inputs": [
        {
          "indexed": false,
          "name": "taskIds",
          "type": "bytes32[]"
        },
        {
          "indexed": false,
          "name": "fees",
          "type": "uint256[]"
        },
        {
          "indexed": false,
          "name": "tokens",
          "type": "address[]"
        },
        {
          "indexed": false,
          "name": "tokenValues",
          "type": "uint256[]"
        },
        {
          "indexed": false,
          "name": "sender",
          "type": "address"
        }
      ],
      "name": "TaskRecordsCreated",
      "type": "event",
      "signature": "0xcb8afab3437be2f96ef2a2932eb02d02fd765bfe8be7c1f5a58edd6452317dde"
    },
    {
      "anonymous": false,
      "inputs": [
        {
          "indexed": false,
          "name": "taskId",
          "type": "bytes32"
        },
        {
          "indexed": false,
          "name": "inStateDeltaHash",
          "type": "bytes32"
        },
        {
          "indexed": false,
          "name": "outStateDeltaHash",
          "type": "bytes32"
        },
        {
          "indexed": false,
          "name": "ethCall",
          "type": "bytes"
        },
        {
          "indexed": false,
          "name": "sig",
          "type": "bytes"
        }
      ],
      "name": "ReceiptVerified",
      "type": "event",
      "signature": "0x665329bb9a4e1062edc215d9c5ab57fa54c4c88e3dfbcc68e0cd92fdd010fa6e"
    },
    {
      "anonymous": false,
      "inputs": [
        {
          "indexed": false,
          "name": "taskIds",
          "type": "bytes32[]"
        },
        {
          "indexed": false,
          "name": "inStateDeltaHashes",
          "type": "bytes32[]"
        },
        {
          "indexed": false,
          "name": "outStateDeltaHashes",
          "type": "bytes32[]"
        },
        {
          "indexed": false,
          "name": "ethCalls",
          "type": "bytes[]"
        },
        {
          "indexed": false,
          "name": "sigs",
          "type": "bytes[]"
        }
      ],
      "name": "ReceiptsVerified",
      "type": "event",
      "signature": "0x7243cbab94fa1d25e0cb54fdd36b41f803ff5e5a29aaae09979a888b156b5872"
    },
    {
      "constant": false,
      "inputs": [
        {
          "name": "signer",
          "type": "address"
        },
        {
          "name": "report",
          "type": "bytes"
        }
      ],
      "name": "register",
      "outputs": [],
      "payable": true,
      "stateMutability": "payable",
      "type": "function",
      "signature": "0x24b8fbf6"
    },
    {
      "constant": false,
      "inputs": [
        {
          "name": "taskId",
          "type": "bytes32"
        },
        {
          "name": "fee",
          "type": "uint256"
        },
        {
          "name": "token",
          "type": "address"
        },
        {
          "name": "tokenValue",
          "type": "uint256"
        }
      ],
      "name": "createTaskRecord",
      "outputs": [],
      "payable": false,
      "stateMutability": "nonpayable",
      "type": "function",
      "signature": "0xd28cf5c1"
    },
    {
      "constant": false,
      "inputs": [
        {
          "name": "taskIds",
          "type": "bytes32[]"
        },
        {
          "name": "fees",
          "type": "uint256[]"
        },
        {
          "name": "tokens",
          "type": "address[]"
        },
        {
          "name": "tokenValues",
          "type": "uint256[]"
        }
      ],
      "name": "createTaskRecords",
      "outputs": [],
      "payable": false,
      "stateMutability": "nonpayable",
      "type": "function",
      "signature": "0xa85d84ef"
    },
    {
      "constant": false,
      "inputs": [
        {
          "name": "scAddr",
          "type": "address"
        },
        {
          "name": "taskId",
          "type": "bytes32"
        },
        {
          "name": "inStateDeltaHash",
          "type": "bytes32"
        },
        {
          "name": "outStateDeltaHash",
          "type": "bytes32"
        },
        {
          "name": "ethCall",
          "type": "bytes"
        },
        {
          "name": "sig",
          "type": "bytes"
        }
      ],
      "name": "commitReceipt",
      "outputs": [],
      "payable": false,
      "stateMutability": "nonpayable",
      "type": "function",
      "signature": "0x5956efef"
    },
    {
      "constant": false,
      "inputs": [
        {
          "name": "scAddr",
          "type": "address"
        },
        {
          "name": "taskIds",
          "type": "bytes32[]"
        },
        {
          "name": "inStateDeltaHashes",
          "type": "bytes32[]"
        },
        {
          "name": "outStateDeltaHashes",
          "type": "bytes32[]"
        },
        {
          "name": "ethCalls",
          "type": "bytes[]"
        },
        {
          "name": "sigs",
          "type": "bytes[]"
        }
      ],
      "name": "commitReceipts",
      "outputs": [],
      "payable": false,
      "stateMutability": "nonpayable",
      "type": "function",
      "signature": "0xd245f478"
    },
    {
      "constant": false,
      "inputs": [
        {
          "name": "seed",
          "type": "uint256"
        },
        {
          "name": "sig",
          "type": "bytes"
        }
      ],
      "name": "setWorkersParams",
      "outputs": [],
      "payable": false,
      "stateMutability": "nonpayable",
      "type": "function",
      "signature": "0x2873e73c"
    },
    {
      "constant": false,
      "inputs": [
        {
          "name": "blockNumber",
          "type": "uint256"
        },
        {
          "name": "scAddr",
          "type": "address"
        }
      ],
      "name": "getSelectedWorkers",
      "outputs": [],
      "payable": false,
      "stateMutability": "nonpayable",
      "type": "function",
      "signature": "0x00fa774e"
    },
    {
      "constant": true,
      "inputs": [
        {
          "name": "blockNumber",
          "type": "uint256"
        }
      ],
      "name": "getWorkersParams",
      "outputs": [
        {
          "name": "",
          "type": "uint256"
        },
        {
          "name": "",
          "type": "uint256"
        },
        {
          "name": "",
          "type": "address[]"
        },
        {
          "name": "",
          "type": "address[]"
        }
      ],
      "payable": false,
      "stateMutability": "view",
      "type": "function",
      "signature": "0x59c91a12"
    },
    {
      "constant": true,
      "inputs": [
        {
          "name": "custodian",
          "type": "address"
        }
      ],
      "name": "getReport",
      "outputs": [
        {
          "name": "",
          "type": "address"
        },
        {
          "name": "",
          "type": "bytes"
        }
      ],
      "payable": false,
      "stateMutability": "view",
      "type": "function",
      "signature": "0xa3bdae3e"
    }
  ],
  "bytecode": "0x60806040523480156200001157600080fd5b506040516040806200265983398101806040526200003391908101906200007a565b60008054600160a060020a03938416600160a060020a03199182161790915560018054929093169116179055620000c5565b6000620000738251620000b9565b9392505050565b600080604083850312156200008e57600080fd5b60006200009c858562000065565b9250506020620000af8582860162000065565b9150509250929050565b600160a060020a031690565b61258480620000d56000396000f3006080604052600436106100ce5763ffffffff7c0100000000000000000000000000000000000000000000000000000000600035041662fa774e81146100d35780630a318da0146100f557806324b8fbf61461012b5780632873e73c1461013e5780634048a2571461015e5780635956efef1461018e57806359c91a12146101ae57806364a4c0c6146101de5780639489ad401461020b578063a3bdae3e1461022d578063a85d84ef1461025b578063d245f4781461027b578063d28cf5c11461029b578063e579f500146102bb575b600080fd5b3480156100df57600080fd5b506100f36100ee366004611d55565b6102ed565b005b34801561010157600080fd5b50610115610110366004611ce2565b61044a565b60405161012291906120da565b60405180910390f35b6100f3610139366004611ba0565b610472565b34801561014a57600080fd5b506100f3610159366004611d85565b6105a7565b34801561016a57600080fd5b5061017e6101793660046119d1565b610708565b6040516101229493929190612123565b34801561019a57600080fd5b506100f36101a9366004611af6565b6107cc565b3480156101ba57600080fd5b506101ce6101c9366004611ce2565b6109d7565b6040516101229493929190612415565b3480156101ea57600080fd5b506101fe6101f9366004611bf2565b6109e4565b604051610122919061223a565b34801561021757600080fd5b50610220610a14565b604051610122919061230d565b34801561023957600080fd5b5061024d6102483660046119d1565b610a23565b604051610122929190612103565b34801561026757600080fd5b506100f3610276366004611c22565b610c34565b34801561028757600080fd5b506100f36102963660046119f7565b610eaa565b3480156102a757600080fd5b506100f36102b6366004611d00565b6111c4565b3480156102c757600080fd5b506102db6102d6366004611ce2565b6112b2565b6040516101229695949392919061238b565b60008060608180805b6011548510156103585761034b6012600060118881548110151561031657fe5b6000918252602080832090910154600160a060020a03168352820192909252604001902060020154879063ffffffff61138c16565b95506001909401936102f6565b85604051908082528060200260200182016040528015610382578160200160208202803883390190505b50935060009250600091505b601154821015610440575060005b601260006011848154811015156103af57fe5b6000918252602080832090910154600160a060020a031683528201929092526040019020600201548110156104355760118054839081106103ec57fe5b6000918252602090912001548451600160a060020a039091169085908590811061041257fe5b600160a060020a039092166020928302909101909101526001928301920161039c565b60019091019061038e565b5050505050505050565b601180548290811061045857fe5b600091825260209091200154600160a060020a0316905081565b33600090815260126020526040812054600160a060020a031615156104e65750601180549081906104a690600183016116b7565b50336011828154811015156104b757fe5b9060005260206000200160006101000a815481600160a060020a030219169083600160a060020a031602179055505b336000908152601260209081526040909120805473ffffffffffffffffffffffffffffffffffffffff1916600160a060020a0386161781553460028201558351610538926001909201918501906116e0565b503360008181526012602052604090819020805474ff0000000000000000000000000000000000000000191660a060020a179055517f0a31ee9d46a828884b81003c8498156ea6aa15b9b54bdd0ef0b533d9eba57e559161059a9186906120e8565b60405180910390a1505050565b606080336105b361175e565b600160a060020a0382811660009081526012602090815260409182902082516080810184528154948516815260a060020a90940460ff1684830152600180820180548551600261010094831615949094026000190190911692909204601f8101859004850283018501865280835292948601939192909183018282801561067b5780601f106106505761010080835404028352916020019161067b565b820191906000526020600020905b81548152906001019060200180831161065e57829003601f168201915b5050505050815260200160028201548152505090506000816020015160ff161115156106c55760405160e560020a62461bcd0281526004016106bc9061231b565b60405180910390fd5b7fddd784bed66dfeca9e93ec7a89b48ae548c779ac5a179b0362ac680d4677acf08685856040516106f8939291906123e1565b60405180910390a1505050505050565b6012602090815260009182526040918290208054600180830180548651600261010094831615949094026000190190911692909204601f8101869004860283018601909652858252600160a060020a0383169560a060020a90930460ff1694919290918301828280156107bc5780601f10610791576101008083540402835291602001916107bc565b820191906000526020600020905b81548152906001019060200180831161079f57829003601f168201915b5050505050908060020154905084565b336107d561175e565b600160a060020a0382811660009081526012602090815260409182902082516080810184528154948516815260a060020a90940460ff1684830152600180820180548551600261010094831615949094026000190190911692909204601f8101859004850283018501865280835292948601939192909183018282801561089d5780601f106108725761010080835404028352916020019161089d565b820191906000526020600020905b81548152906001019060200180831161088057829003601f168201915b5050505050815260200160028201548152505090506000816020015160ff161115156108de5760405160e560020a62461bcd0281526004016106bc9061231b565b6000808881526013602052604090206004015460a060020a900460ff16600181111561090657fe5b146109265760405160e560020a62461bcd0281526004016106bc9061232b565b61093488888888888861139f565b60008781526013602090815260409091208451610959926003909201918601906116e0565b5060008781526013602052604090819020600401805474ff0000000000000000000000000000000000000000191660a060020a179055517f665329bb9a4e1062edc215d9c5ab57fa54c4c88e3dfbcc68e0cd92fdd010fa6e906109c59089908990899089908990612248565b60405180910390a15050505050505050565b6000806060809193509193565b6014602052816000526040600020818154811015156109ff57fe5b90600052602060002001600091509150505481565b600054600160a060020a031681565b6000606082610a3061175e565b600160a060020a0382811660009081526012602090815260409182902082516080810184528154948516815260a060020a90940460ff1684830152600180820180548551600261010094831615949094026000190190911692909204601f81018590048502830185018652808352929486019391929091830182828015610af85780601f10610acd57610100808354040283529160200191610af8565b820191906000526020600020905b815481529060010190602001808311610adb57829003601f168201915b5050505050815260200160028201548152505090506000816020015160ff16111515610b395760405160e560020a62461bcd0281526004016106bc9061231b565b600160a060020a03808616600090815260126020526040902054161515610b755760405160e560020a62461bcd0281526004016106bc9061235b565b600160a060020a038581166000908152601260209081526040918290208054600191820180548551600261010095831615959095026000190190911693909304601f8101859004850284018501909552848352941693929091839190830182828015610c225780601f10610bf757610100808354040283529160200191610c22565b820191906000526020600020905b815481529060010190602001808311610c0557829003601f168201915b50505050509050935093505050915091565b60005b8451811015610e6457601360008683815181101515610c5257fe5b6020908102909101810151825281019190915260400160002060040154600160a060020a031615610c985760405160e560020a62461bcd0281526004016106bc9061236b565b8381815181101515610ca657fe5b90602001906020020151601360008784815181101515610cc257fe5b60209081029091018101518252810191909152604001600020558251839082908110610cea57fe5b90602001906020020151601360008784815181101515610d0657fe5b6020908102919091018101518252810191909152604001600020600101805473ffffffffffffffffffffffffffffffffffffffff1916600160a060020a03929092169190911790558151829082908110610d5c57fe5b90602001906020020151601360008784815181101515610d7857fe5b90602001906020020151600019166000191681526020019081526020016000206002018190555033601360008784815181101515610db257fe5b60209081029190910181015182528101919091526040016000908120600401805473ffffffffffffffffffffffffffffffffffffffff1916600160a060020a03939093169290921790915585516013908290889085908110610e1057fe5b60209081029091018101518252810191909152604001600020600401805474ff0000000000000000000000000000000000000000191660a060020a836001811115610e5757fe5b0217905550600101610c37565b7fcb8afab3437be2f96ef2a2932eb02d02fd765bfe8be7c1f5a58edd6452317dde8585858533604051610e9b9594939291906121d4565b60405180910390a15050505050565b600033610eb561175e565b600160a060020a0382811660009081526012602090815260409182902082516080810184528154948516815260a060020a90940460ff1684830152600180820180548551600261010094831615949094026000190190911692909204601f81018590048502830185018652808352929486019391929091830182828015610f7d5780601f10610f5257610100808354040283529160200191610f7d565b820191906000526020600020905b815481529060010190602001808311610f6057829003601f168201915b5050505050815260200160028201548152505090506000816020015160ff16111515610fbe5760405160e560020a62461bcd0281526004016106bc9061231b565b600092505b875183101561117a576000601360008a86815181101515610fe057fe5b602090810290910181015182528101919091526040016000206004015460ff60a060020a90910416600181111561101357fe5b146110335760405160e560020a62461bcd0281526004016106bc9061232b565b6110b489898581518110151561104557fe5b90602001906020020151898681518110151561105d57fe5b90602001906020020151898781518110151561107557fe5b90602001906020020151898881518110151561108d57fe5b9060200190602002015189898151811015156110a557fe5b9060200190602002015161139f565b83838151811015156110c257fe5b90602001906020020151601360008a868151811015156110de57fe5b6020908102909101810151825281810192909252604001600020825161110e9360039092019291909101906116e0565b506001601360008a8681518110151561112357fe5b60209081029091018101518252810191909152604001600020600401805474ff0000000000000000000000000000000000000000191660a060020a83600181111561116a57fe5b0217905550600190920191610fc3565b7f7243cbab94fa1d25e0cb54fdd36b41f803ff5e5a29aaae09979a888b156b587288888888886040516111b1959493929190612168565b60405180910390a1505050505050505050565b600084815260136020526040902060040154600160a060020a0316156111ff5760405160e560020a62461bcd0281526004016106bc9061236b565b60008481526013602052604090819020848155600181018054600160a060020a03861673ffffffffffffffffffffffffffffffffffffffff199182161790915560028201849055600490910180549091163390811774ff0000000000000000000000000000000000000000191690915590517f51364a5a527e38841b15c974f7924dad755bc9ce0d29701d7501a7bd297b787b916112a4918791879187918791612296565b60405180910390a150505050565b601360209081526000918252604091829020805460018083015460028085015460038601805489516101009682161596909602600019011692909204601f81018890048802850188019098528784529396600160a060020a03909216959394939091908301828280156113665780601f1061133b57610100808354040283529160200191611366565b820191906000526020600020905b81548152906001019060200180831161134957829003601f168201915b50505060049093015491925050600160a060020a0381169060ff60a060020a9091041686565b8181018281101561139957fe5b92915050565b600160a060020a03861660009081526014602052604081205490808215156113e75786156113e25760405160e560020a62461bcd0281526004016106bc9061234b565b611447565b600160a060020a038916600090815260146020526040902061141084600163ffffffff6115e316565b8154811061141a57fe5b60009182526020909120015487146114475760405160e560020a62461bcd0281526004016106bc9061233b565b600160a060020a038916600090815260146020526040902080549061146f90600183016116b7565b50600160a060020a038916600090815260146020526040902080548791908590811061149757fe5b60009182526020918290200191909155604080518083018b81529181018a90526060810189905287518b938b938b938b939192608090910191908401908083835b602083106114f75780518252601f1990920191602091820191016114d8565b6001836020036101000a0380198251168184511680821785525050505050509050019450505050506040516020818303038152906040526040518082805190602001908083835b6020831061155d5780518252601f19909201916020918201910161153e565b5181516020939093036101000a60001901801990911692169190911790526040519201829003909120945061159892508491508690506115f5565b33600090815260126020526040902054909150600160a060020a038083169116146115d85760405160e560020a62461bcd0281526004016106bc9061237b565b505050505050505050565b6000828211156115ef57fe5b50900390565b6000806000808451604114151561160f57600093506116ae565b50505060208201516040830151606084015160001a601b60ff8216101561163457601b015b8060ff16601b1415801561164c57508060ff16601c14155b1561165a57600093506116ae565b6001868285856040516000815260200160405260405161167d94939291906122d8565b60206040516020810390808403906000865af11580156116a1573d6000803e3d6000fd5b5050506020604051035193505b50505092915050565b8154818355818111156116db576000838152602090206116db918101908301611793565b505050565b828054600181600116156101000203166002900490600052602060002090601f016020900481019282601f1061172157805160ff191683800117855561174e565b8280016001018555821561174e579182015b8281111561174e578251825591602001919060010190611733565b5061175a929150611793565b5090565b6080604051908101604052806000600160a060020a03168152602001600060ff16815260200160608152602001600081525090565b6117ad91905b8082111561175a5760008155600101611799565b90565b60006117bc82356124d0565b9392505050565b6000601f820183136117d457600080fd5b81356117e76117e28261247d565b612456565b9150818183526020840193506020810190508385602084028201111561180c57600080fd5b60005b83811015611838578161182288826117b0565b845250602092830192919091019060010161180f565b5050505092915050565b6000601f8201831361185357600080fd5b81356118616117e28261247d565b9150818183526020840193506020810190508385602084028201111561188657600080fd5b60005b83811015611838578161189c888261197f565b8452506020928301929190910190600101611889565b6000601f820183136118c357600080fd5b81356118d16117e28261247d565b81815260209384019390925082018360005b8381101561183857813586016118f9888261198b565b84525060209283019291909101906001016118e3565b6000601f8201831361192057600080fd5b813561192e6117e28261247d565b9150818183526020840193506020810190508385602084028201111561195357600080fd5b60005b838110156118385781611969888261197f565b8452506020928301929190910190600101611956565b60006117bc82356117ad565b6000601f8201831361199c57600080fd5b81356119aa6117e28261249e565b915080825260208301602083018583830111156119c657600080fd5b6116ae838284612504565b6000602082840312156119e357600080fd5b60006119ef84846117b0565b949350505050565b60008060008060008060c08789031215611a1057600080fd5b6000611a1c89896117b0565b965050602087013567ffffffffffffffff811115611a3957600080fd5b611a4589828a01611842565b955050604087013567ffffffffffffffff811115611a6257600080fd5b611a6e89828a01611842565b945050606087013567ffffffffffffffff811115611a8b57600080fd5b611a9789828a01611842565b935050608087013567ffffffffffffffff811115611ab457600080fd5b611ac089828a016118b2565b92505060a087013567ffffffffffffffff811115611add57600080fd5b611ae989828a016118b2565b9150509295509295509295565b60008060008060008060c08789031215611b0f57600080fd5b6000611b1b89896117b0565b9650506020611b2c89828a0161197f565b9550506040611b3d89828a0161197f565b9450506060611b4e89828a0161197f565b935050608087013567ffffffffffffffff811115611b6b57600080fd5b611b7789828a0161198b565b92505060a087013567ffffffffffffffff811115611b9457600080fd5b611ae989828a0161198b565b60008060408385031215611bb357600080fd5b6000611bbf85856117b0565b925050602083013567ffffffffffffffff811115611bdc57600080fd5b611be88582860161198b565b9150509250929050565b60008060408385031215611c0557600080fd5b6000611c1185856117b0565b9250506020611be88582860161197f565b60008060008060808587031215611c3857600080fd5b843567ffffffffffffffff811115611c4f57600080fd5b611c5b87828801611842565b945050602085013567ffffffffffffffff811115611c7857600080fd5b611c848782880161190f565b935050604085013567ffffffffffffffff811115611ca157600080fd5b611cad878288016117c3565b925050606085013567ffffffffffffffff811115611cca57600080fd5b611cd68782880161190f565b91505092959194509250565b600060208284031215611cf457600080fd5b60006119ef848461197f565b60008060008060808587031215611d1657600080fd5b6000611d22878761197f565b9450506020611d338782880161197f565b9350506040611d44878288016117b0565b9250506060611cd68782880161197f565b60008060408385031215611d6857600080fd5b6000611d74858561197f565b9250506020611be8858286016117b0565b60008060408385031215611d9857600080fd5b6000611bbf858561197f565b611dad816124d0565b82525050565b6000611dbe826124cc565b808452602084019350611dd0836124c6565b60005b82811015611e0057611de6868351611da4565b611def826124c6565b602096909601959150600101611dd3565b5093949350505050565b6000611e15826124cc565b808452602084019350611e27836124c6565b60005b82811015611e0057611e3d868351611f0b565b611e46826124c6565b602096909601959150600101611e2a565b6000611e62826124cc565b80845260208401935083602082028501611e7b856124c6565b60005b84811015611eb2578383038852611e96838351611f14565b9250611ea1826124c6565b602098909801979150600101611e7e565b50909695505050505050565b6000611ec9826124cc565b808452602084019350611edb836124c6565b60005b82811015611e0057611ef1868351611f0b565b611efa826124c6565b602096909601959150600101611ede565b611dad816117ad565b6000611f1f826124cc565b808452611f33816020860160208601612510565b611f3c81612540565b9093016020019392505050565b611dad816124ee565b611dad816124f9565b601481527f556e7265676973746572656420776f726b65722e000000000000000000000000602082015260400190565b601381527f496e76616c6964207461736b2073746174757300000000000000000000000000602082015260400190565b601e81527f496e76616c696420696e7075742073746174652064656c746120686173680000602082015260400190565b602e81527f496e76616c696420696e7075742073746174652064656c74612068617368206660208201527f6f7220656d707479207374617465000000000000000000000000000000000000604082015260600190565b601581527f576f726b6572206e6f7420726567697374657265640000000000000000000000602082015260400190565b601381527f5461736b20616c72656164792065786973742e00000000000000000000000000602082015260400190565b601281527f496e76616c6964207369676e61747572652e0000000000000000000000000000602082015260400190565b611dad816124e8565b602081016113998284611da4565b604081016120f68285611da4565b6117bc6020830184611da4565b604081016121118285611da4565b81810360208301526119ef8184611f14565b608081016121318287611da4565b61213e60208301866120d1565b81810360408301526121508185611f14565b905061215f6060830184611f0b565b95945050505050565b60a080825281016121798188611e0a565b9050818103602083015261218d8187611e0a565b905081810360408301526121a18186611e0a565b905081810360608301526121b58185611e57565b905081810360808301526121c98184611e57565b979650505050505050565b60a080825281016121e58188611e0a565b905081810360208301526121f98187611ebe565b9050818103604083015261220d8186611db3565b905081810360608301526122218185611ebe565b90506122306080830184611da4565b9695505050505050565b602081016113998284611f0b565b60a081016122568288611f0b565b6122636020830187611f0b565b6122706040830186611f0b565b81810360608301526122828185611f14565b905081810360808301526121c98184611f14565b60a081016122a48288611f0b565b6122b16020830187611f0b565b6122be6040830186611da4565b6122cb6060830185611f0b565b6122306080830184611da4565b608081016122e68287611f0b565b6122f360208301866120d1565b6123006040830185611f0b565b61215f6060830184611f0b565b602081016113998284611f49565b6020808252810161139981611f5b565b6020808252810161139981611f8b565b6020808252810161139981611fbb565b6020808252810161139981611feb565b6020808252810161139981612041565b6020808252810161139981612071565b60208082528101611399816120a1565b60c081016123998289611f0b565b6123a66020830188611da4565b6123b36040830187611f0b565b81810360608301526123c58186611f14565b90506123d46080830185611da4565b6121c960a0830184611f52565b606081016123ef8286611f0b565b81810360208301526124018185611db3565b9050818103604083015261215f8184611db3565b608081016124238287611f0b565b6124306020830186611f0b565b81810360408301526124428185611db3565b905081810360608301526122308184611db3565b60405181810167ffffffffffffffff8111828210171561247557600080fd5b604052919050565b600067ffffffffffffffff82111561249457600080fd5b5060209081020190565b600067ffffffffffffffff8211156124b557600080fd5b506020601f91909101601f19160190565b60200190565b5190565b600160a060020a031690565b60006002821061175a57fe5b60ff1690565b6000611399826124d0565b6000611399826124dc565b82818337506000910152565b60005b8381101561252b578181015183820152602001612513565b8381111561253a576000848401525b50505050565b601f01601f1916905600a265627a7a723058205adbbccfd16c5f4812ac0ada34f6cd2580c43e96cb72272b988180ef5f466d6e6c6578706572696d656e74616cf50037",
  "source": "pragma solidity ^0.4.24;\npragma experimental ABIEncoderV2;\n\nimport \"openzeppelin-solidity/contracts/math/SafeMath.sol\";\nimport \"openzeppelin-solidity/contracts/ECRecovery.sol\";\nimport \"openzeppelin-solidity/contracts/token/ERC20/StandardToken.sol\";\nimport \"./EnigmaToken.sol\";\n\n\ncontract Enigma {\n    using SafeMath for uint256;\n    using ECRecovery for bytes32;\n\n    // The interface of the deployed ENG ERC20 token contract\n    EnigmaToken public engToken;\n\n    struct TaskRecord {\n        bytes32 taskId;\n        uint fee;\n        address token;\n        uint tokenValue;\n        address sender;\n    }\n\n    struct TaskReceipt {\n        bytes32 taskId;\n        bytes32 inStateDeltaHash;\n        bytes32 outStateDeltaHash;\n        bytes ethCall;\n        bytes sig;\n    }\n\n    struct Task {\n        uint fee;\n        address token;\n        uint tokenValue;\n        bytes proof; // Signature of (taskId, inStateDeltaHash, outStateDeltaHash, ethCall)\n        address sender;\n        TaskStatus status;\n    }\n    enum TaskStatus {RecordCreated, ReceiptVerified}\n\n    /**\n    * The signer address of the principal node\n    * This must be set when deploying the contract and remains immutable\n    * Since the signer address is derived from the public key of an\n    * SGX enclave, this ensures that the principal node cannot be tempered\n    * with or replaced.\n    */\n    address principal;\n\n    // The data representation of a worker (or node)\n    struct Worker {\n        address signer;\n        uint8 status; // Uninitialized: 0; Active: 1; Inactive: 2\n        bytes report; // Decided to store this as one  RLP encoded attribute for easier external storage in the future\n        uint256 balance;\n    }\n\n    /**\n    * The data representation of the worker parameters used as input for\n    * the worker selection algorithm\n    */\n    struct WorkersParams {\n        uint256 firstBlockNumber;\n        mapping(address => uint) workerWeights;\n        uint256 seed;\n    }\n\n    /**\n    * The last 5 worker parameters\n    * We keep a collection of worker parameters to account for latency issues.\n    * A computation task might be conceivably given out at a certain block number\n    * but executed at a later block in a different epoch. It follows that\n    * the contract must have access to the worker parameters effective when giving\n    * out the task, otherwise the selected worker would not match. We calculated\n    * that keeping the last 5 items should be more than enough to account for\n    * all latent tasks. Tasks results will be rejected past this limit.\n    */\n    WorkersParams[5] workersParams;\n\n    // An address-based index of all registered worker\n    address[] public workerAddresses;\n\n    // A registry of all registered workers with their attributes\n    mapping(address => Worker) public workers;\n    // A registry of all active and historical tasks with their attributes\n    // TODO: do we keep tasks forever? if not, when do we delete them?\n    mapping(bytes32 => Task) public tasks;\n    mapping(address => bytes32[]) public stateDeltaHashes;\n\n    // The events emitted by the contract\n    event Registered(address custodian, address signer);\n    event ValidatedSig(bytes sig, bytes32 hash, address workerAddr);\n    event WorkersParameterized(uint256 seed, address[] workers, address[] secretContracts);\n    event TaskRecordCreated(bytes32 taskId, uint fee, address token, uint tokenValue, address sender);\n    event TaskRecordsCreated(bytes32[] taskIds, uint[] fees, address[] tokens, uint[] tokenValues, address sender);\n    event ReceiptVerified(bytes32 taskId, bytes32 inStateDeltaHash, bytes32 outStateDeltaHash, bytes ethCall, bytes sig);\n    event ReceiptsVerified(bytes32[] taskIds, bytes32[] inStateDeltaHashes, bytes32[] outStateDeltaHashes, bytes[] ethCalls, bytes[] sigs);\n\n    constructor(address _tokenAddress, address _principal) public {\n        engToken = EnigmaToken(_tokenAddress);\n        principal = _principal;\n    }\n\n    /**\n    * Checks if the custodian wallet is registered as a worker\n    *\n    * @param user The custodian address of the worker\n    */\n    modifier workerRegistered(address user) {\n        Worker memory worker = workers[user];\n        require(worker.status > 0, \"Unregistered worker.\");\n        _;\n    }\n\n    /**\n    * Registers a new worker of change the signer parameters of an existing\n    * worker. This should be called by every worker (and the principal)\n    * node in order to receive tasks.\n    *\n    * @param signer The signer address, derived from the enclave public key\n    * @param report The RLP encoded report returned by the IAS\n    */\n    function register(address signer, bytes report)\n    public\n    payable\n    {\n        // TODO: consider exit if both signer and custodian as matching\n        // If the custodian is not already register, we add an index entry\n        if (workers[msg.sender].signer == 0x0) {\n            uint index = workerAddresses.length;\n            workerAddresses.length++;\n            workerAddresses[index] = msg.sender;\n        }\n\n        // Set the custodian attributes\n        workers[msg.sender].signer = signer;\n        workers[msg.sender].balance = msg.value;\n        workers[msg.sender].report = report;\n        workers[msg.sender].status = 1;\n\n        emit Registered(msg.sender, signer);\n    }\n\n    /**\n    * Store task record\n    *\n    */\n    function createTaskRecord(\n        bytes32 taskId,\n        uint fee,\n        address token,\n        uint tokenValue\n    )\n    public\n    {\n        require(tasks[taskId].sender == 0x0, \"Task already exist.\");\n\n        tasks[taskId].fee = fee;\n        tasks[taskId].token = token;\n        tasks[taskId].tokenValue = tokenValue;\n        tasks[taskId].sender = msg.sender;\n        tasks[taskId].status = TaskStatus.RecordCreated;\n\n        emit TaskRecordCreated(taskId, fee, token, tokenValue, msg.sender);\n    }\n\n    function createTaskRecords(\n        bytes32[] taskIds,\n        uint[] fees,\n        address[] tokens,\n        uint[] tokenValues\n    )\n    public\n    {\n        for (uint i = 0; i < taskIds.length; i++) {\n            require(tasks[taskIds[i]].sender == 0x0, \"Task already exist.\");\n\n            tasks[taskIds[i]].fee = fees[i];\n            tasks[taskIds[i]].token = tokens[i];\n            tasks[taskIds[i]].tokenValue = tokenValues[i];\n            tasks[taskIds[i]].sender = msg.sender;\n            tasks[taskIds[i]].status = TaskStatus.RecordCreated;\n        }\n        emit TaskRecordsCreated(taskIds, fees, tokens, tokenValues, msg.sender);\n    }\n\n    // Execute the encoded function in the specified contract\n    function executeCall(address to, uint256 value, bytes data)\n    internal\n    returns (bool success)\n    {\n        assembly {\n            success := call(gas, to, value, add(data, 0x20), mload(data), 0, 0)\n        }\n    }\n\n    function verifyReceipt(\n        address scAddr,\n        bytes32 taskId,\n        bytes32 inStateDeltaHash,\n        bytes32 outStateDeltaHash,\n        bytes ethCall,\n        bytes sig\n    )\n    internal\n    {\n        uint index = stateDeltaHashes[scAddr].length;\n        if (index == 0) {\n            require(inStateDeltaHash == 0x0, 'Invalid input state delta hash for empty state');\n        } else {\n            require(inStateDeltaHash == stateDeltaHashes[scAddr][index.sub(1)], 'Invalid input state delta hash');\n        }\n        stateDeltaHashes[scAddr].length++;\n        stateDeltaHashes[scAddr][index] = outStateDeltaHash;\n\n        // TODO: execute the Ethereum calls\n\n        // Build a hash to validate that the I/Os are matching\n        bytes32 hash = keccak256(abi.encodePacked(taskId, inStateDeltaHash, outStateDeltaHash, ethCall));\n\n        // The worker address is not a real Ethereum wallet address but\n        // one generated from its signing key\n        address workerAddr = hash.recover(sig);\n        require(workerAddr == workers[msg.sender].signer, \"Invalid signature.\");\n    }\n\n    /**\n    * Commit the computation task results on chain\n    */\n    function commitReceipt(\n        address scAddr,\n        bytes32 taskId,\n        bytes32 inStateDeltaHash,\n        bytes32 outStateDeltaHash,\n        bytes ethCall,\n        bytes sig\n    )\n    public\n    workerRegistered(msg.sender)\n    {\n        require(tasks[taskId].status == TaskStatus.RecordCreated, 'Invalid task status');\n        verifyReceipt(scAddr, taskId, inStateDeltaHash, outStateDeltaHash, ethCall, sig);\n\n        tasks[taskId].proof = sig;\n        tasks[taskId].status = TaskStatus.ReceiptVerified;\n        emit ReceiptVerified(taskId, inStateDeltaHash, outStateDeltaHash, ethCall, sig);\n    }\n\n    function commitReceipts(\n        address scAddr,\n        bytes32[] taskIds,\n        bytes32[] inStateDeltaHashes,\n        bytes32[] outStateDeltaHashes,\n        bytes[] ethCalls,\n        bytes[] sigs\n    )\n    public\n    workerRegistered(msg.sender)\n    {\n        for (uint i = 0; i < taskIds.length; i++) {\n            // TODO: consider aggregate signature\n            require(tasks[taskIds[i]].status == TaskStatus.RecordCreated, 'Invalid task status');\n            verifyReceipt(scAddr, taskIds[i], inStateDeltaHashes[i], outStateDeltaHashes[i], ethCalls[i], sigs[i]);\n\n            tasks[taskIds[i]].proof = sigs[i];\n            tasks[taskIds[i]].status = TaskStatus.ReceiptVerified;\n        }\n        emit ReceiptsVerified(taskIds, inStateDeltaHashes, outStateDeltaHashes, ethCalls, sigs);\n    }\n\n    // Verify the signature submitted while reparameterizing workers\n    function verifyParamsSig(uint256 seed, bytes sig)\n    internal\n    pure\n    returns (address)\n    {\n        bytes32 hash = keccak256(abi.encodePacked(seed));\n        address signer = hash.recover(sig);\n        return signer;\n    }\n\n    /**\n    * Reparameterizing workers with a new seed\n    * This should be called for each epoch by the Principal node\n    *\n    * @param seed The random integer generated by the enclave\n    * @param sig The random integer signed by the the principal node's enclave\n    */\n    function setWorkersParams(uint seed, bytes sig)\n    public\n    workerRegistered(msg.sender)\n    {\n        address[] memory activeWorkers;\n        address[] memory activeContracts;\n        emit WorkersParameterized(seed, activeWorkers, activeContracts);\n    }\n\n    function getSelectedWorkers(uint blockNumber, address scAddr)\n    public\n    {\n        uint tokenCpt = 0;\n        for (uint i = 0; i < workerAddresses.length; i++) {\n            tokenCpt= tokenCpt.add(workers[workerAddresses[i]].balance);\n        }\n        address[] memory tokens = new address[](tokenCpt);\n        uint tokenIndex = 0;\n        for (uint ia = 0; ia < workerAddresses.length; ia++) {\n            for (uint ib = 0; ib < workers[workerAddresses[ia]].balance; ib++) {\n                tokens[tokenIndex] = workerAddresses[ia];\n                tokenIndex++;\n            }\n        }\n    }\n\n    /**\n    * The worker parameters corresponding to the specified block number\n    *\n    * @param blockNumber The reference block number\n    */\n    function getWorkersParams(uint blockNumber)\n    public\n    view\n    returns (uint, uint, address[], address[])\n    {\n        uint firstBlockNumber = 0;\n        uint seed = 0;\n        address[] memory activeWorkers;\n        address[] memory activeContracts;\n        return (firstBlockNumber, seed, activeWorkers, activeContracts);\n    }\n\n    /**\n    * The RLP encoded report returned by the IAS server\n    *\n    * @param custodian The worker's custodian address\n    */\n    function getReport(address custodian)\n    public\n    view\n    workerRegistered(custodian)\n    returns (address, bytes)\n    {\n        // The RLP encoded report and signer's address for the specified worker\n        require(workers[custodian].signer != 0x0, \"Worker not registered\");\n        return (workers[custodian].signer, workers[custodian].report);\n    }\n}\n",
  "sourcePath": "/home/fredfortier/Code/Enigma/discovery/enigma-contract/contracts/Enigma.sol",
  "compiler": {
    "name": "solc",
    "version": "0.4.24+commit.e67f0147.Emscripten.clang"
  },
  "schemaVersion": "2.0.0",
  "updatedAt": "2018-10-04T20:30:05.690Z"
}