{
  "contractName": "EnigmaLib",
  "abi": [
    {
      "inputs": [],
      "payable": false,
      "stateMutability": "nonpayable",
      "type": "constructor"
    },
    {
      "anonymous": false,
      "inputs": [
        {
          "indexed": false,
          "name": "callable",
          "type": "bytes32"
        },
        {
          "indexed": false,
          "name": "callableArgs",
          "type": "bytes32[]"
        },
        {
          "indexed": false,
          "name": "callback",
          "type": "bytes32"
        },
        {
          "indexed": false,
          "name": "max_cost",
          "type": "uint256"
        },
        {
          "indexed": false,
          "name": "_success",
          "type": "bool"
        }
      ],
      "name": "SecretCall",
      "type": "event"
    },
    {
      "constant": false,
      "inputs": [
        {
          "name": "callable",
          "type": "bytes32"
        },
        {
          "name": "callableArgs",
          "type": "bytes32[]"
        },
        {
          "name": "callback",
          "type": "bytes32"
        },
        {
          "name": "max_cost",
          "type": "uint256"
        }
      ],
      "name": "compute",
      "outputs": [
        {
          "name": "",
          "type": "uint8"
        }
      ],
      "payable": true,
      "stateMutability": "payable",
      "type": "function"
    }
  ],
  "bytecode": "0x6060604052341561000f57600080fd5b738acee021a27779d8e98b9650722676b850b25e116000806101000a81548173ffffffffffffffffffffffffffffffffffffffff021916908373ffffffffffffffffffffffffffffffffffffffff1602179055506102d4806100726000396000f300606060405260043610610041576000357c0100000000000000000000000000000000000000000000000000000000900463ffffffff1680632b08318014610046575b600080fd5b6100b660048080356000191690602001909190803590602001908201803590602001908080602002602001604051908101604052809392919081815260200183836020028082843782019150505050505091908035600019169060200190919080359060200190919050506100da565b604051808260018111156100c657fe5b60ff16815260200191505060405180910390f35b60008060009054906101000a900473ffffffffffffffffffffffffffffffffffffffff1673ffffffffffffffffffffffffffffffffffffffff1663f64752d3343373345ca3e014aaf5dca488057592ee47305d9b3e106000604051602001526040518463ffffffff167c0100000000000000000000000000000000000000000000000000000000028152600401808373ffffffffffffffffffffffffffffffffffffffff1673ffffffffffffffffffffffffffffffffffffffff1681526020018273ffffffffffffffffffffffffffffffffffffffff168152602001925050506020604051808303818588803b15156101d257600080fd5b6125ee5a03f115156101e357600080fd5b5050505060405180519050507f2df55a231e1a79c83605b4c857cb5d342f5f51046598ff78b7c6ef0ba12f444285858585600160405180866000191660001916815260200180602001856000191660001916815260200184815260200183151515158152602001828103825286818151815260200191508051906020019060200280838360005b8381101561028557808201518184015260208101905061026a565b50505050905001965050505050505060405180910390a1600090509493505050505600a165627a7a72305820ff194c228a0c7647e2cd9eef1054f41eccb56236c21380fa1212c61e1b31a14e0029",
  "source": "pragma solidity ^0.4.19;\n\nimport \"./Enigma.sol\";\n\ncontract EnigmaLib {\n    enum ReturnValue {Ok, Error}\n    // The generic Enigma computation event\n    event SecretCall(bytes32 callable, bytes32[] callableArgs, bytes32 callback, uint max_cost, bool _success);\n\n    Enigma enigma;\n\n    function EnigmaLib() public {\n        enigma = Enigma(0x8acee021a27779d8e98b9650722676b850b25e11);\n    }\n\n    // Calls the Enigma computation\n    function compute(bytes32 callable, bytes32[] callableArgs, bytes32 callback, uint max_cost) public payable returns (ReturnValue) {\n        enigma.handleDeposit.value(msg.value)(msg.sender, 0x345ca3e014aaf5dca488057592ee47305d9b3e10);\n        SecretCall(callable, callableArgs, callback, max_cost, true);\n\n        return ReturnValue.Ok;\n    }\n}\n",
  "sourcePath": "/Users/fredfortier/Code/enigma/coin-mixer-poc/dapp/contracts/EnigmaLib.sol",
  "compiler": {
    "name": "solc",
    "version": "0.4.19+commit.c4cbbb05.Emscripten.clang"
  },
  "schemaVersion": "2.0.0",
  "updatedAt": "2018-03-23T01:00:55.632Z"
}