{
  "contractName": "Enigma",
  "abi": [
    {
      "constant": true,
      "inputs": [
        {
          "name": "",
          "type": "uint256"
        }
      ],
      "name": "workerAddresses",
      "outputs": [
        {
          "name": "",
          "type": "address"
        }
      ],
      "payable": false,
      "stateMutability": "view",
      "type": "function",
      "signature": "0x0a318da0"
    },
    {
      "constant": true,
      "inputs": [
        {
          "name": "",
          "type": "address"
        }
      ],
      "name": "workers",
      "outputs": [
        {
          "name": "signer",
          "type": "address"
        },
        {
          "name": "status",
          "type": "uint8"
        },
        {
          "name": "report",
          "type": "bytes"
        },
        {
          "name": "balance",
          "type": "uint256"
        }
      ],
      "payable": false,
      "stateMutability": "view",
      "type": "function",
      "signature": "0x4048a257"
    },
    {
      "constant": true,
      "inputs": [
        {
          "name": "",
          "type": "address"
        },
        {
          "name": "",
          "type": "uint256"
        }
      ],
      "name": "stateDeltaHashes",
      "outputs": [
        {
          "name": "",
          "type": "bytes32"
        }
      ],
      "payable": false,
      "stateMutability": "view",
      "type": "function",
      "signature": "0x64a4c0c6"
    },
    {
      "constant": true,
      "inputs": [],
      "name": "engToken",
      "outputs": [
        {
          "name": "",
          "type": "address"
        }
      ],
      "payable": false,
      "stateMutability": "view",
      "type": "function",
      "signature": "0x9489ad40"
    },
    {
      "constant": true,
      "inputs": [
        {
          "name": "",
          "type": "bytes32"
        }
      ],
      "name": "tasks",
      "outputs": [
        {
          "name": "fee",
          "type": "uint256"
        },
        {
          "name": "token",
          "type": "address"
        },
        {
          "name": "tokenValue",
          "type": "uint256"
        },
        {
          "name": "proof",
          "type": "bytes"
        },
        {
          "name": "sender",
          "type": "address"
        },
        {
          "name": "status",
          "type": "uint8"
        }
      ],
      "payable": false,
      "stateMutability": "view",
      "type": "function",
      "signature": "0xe579f500"
    },
    {
      "inputs": [
        {
          "name": "_tokenAddress",
          "type": "address"
        },
        {
          "name": "_principal",
          "type": "address"
        }
      ],
      "payable": false,
      "stateMutability": "nonpayable",
      "type": "constructor",
      "signature": "constructor"
    },
    {
      "anonymous": false,
      "inputs": [
        {
          "indexed": false,
          "name": "custodian",
          "type": "address"
        },
        {
          "indexed": false,
          "name": "signer",
          "type": "address"
        }
      ],
      "name": "Registered",
      "type": "event",
      "signature": "0x0a31ee9d46a828884b81003c8498156ea6aa15b9b54bdd0ef0b533d9eba57e55"
    },
    {
      "anonymous": false,
      "inputs": [
        {
          "indexed": false,
          "name": "sig",
          "type": "bytes"
        },
        {
          "indexed": false,
          "name": "hash",
          "type": "bytes32"
        },
        {
          "indexed": false,
          "name": "workerAddr",
          "type": "address"
        }
      ],
      "name": "ValidatedSig",
      "type": "event",
      "signature": "0xe36691ca52ee024e298e5c0ff07191b87f0ac571c01a7631db2d70d573d955cb"
    },
    {
      "anonymous": false,
      "inputs": [
        {
          "indexed": false,
          "name": "seed",
          "type": "uint256"
        },
        {
          "indexed": false,
          "name": "workers",
          "type": "address[]"
        },
        {
          "indexed": false,
          "name": "secretContracts",
          "type": "address[]"
        }
      ],
      "name": "WorkersParameterized",
      "type": "event",
      "signature": "0xddd784bed66dfeca9e93ec7a89b48ae548c779ac5a179b0362ac680d4677acf0"
    },
    {
      "anonymous": false,
      "inputs": [
        {
          "indexed": false,
          "name": "taskId",
          "type": "bytes32"
        },
        {
          "indexed": false,
          "name": "fee",
          "type": "uint256"
        },
        {
          "indexed": false,
          "name": "token",
          "type": "address"
        },
        {
          "indexed": false,
          "name": "tokenValue",
          "type": "uint256"
        },
        {
          "indexed": false,
          "name": "sender",
          "type": "address"
        }
      ],
      "name": "TaskRecordCreated",
      "type": "event",
      "signature": "0x51364a5a527e38841b15c974f7924dad755bc9ce0d29701d7501a7bd297b787b"
    },
    {
      "anonymous": false,
      "inputs": [
        {
          "indexed": false,
          "name": "taskIds",
          "type": "bytes32[]"
        },
        {
          "indexed": false,
          "name": "fees",
          "type": "uint256[]"
        },
        {
          "indexed": false,
          "name": "tokens",
          "type": "address[]"
        },
        {
          "indexed": false,
          "name": "tokenValues",
          "type": "uint256[]"
        },
        {
          "indexed": false,
          "name": "sender",
          "type": "address"
        }
      ],
      "name": "TaskRecordsCreated",
      "type": "event",
      "signature": "0xcb8afab3437be2f96ef2a2932eb02d02fd765bfe8be7c1f5a58edd6452317dde"
    },
    {
      "anonymous": false,
      "inputs": [
        {
          "indexed": false,
          "name": "taskId",
          "type": "bytes32"
        },
        {
          "indexed": false,
          "name": "inStateDeltaHash",
          "type": "bytes32"
        },
        {
          "indexed": false,
          "name": "outStateDeltaHash",
          "type": "bytes32"
        },
        {
          "indexed": false,
          "name": "ethCall",
          "type": "bytes"
        },
        {
          "indexed": false,
          "name": "sig",
          "type": "bytes"
        }
      ],
      "name": "ReceiptVerified",
      "type": "event",
      "signature": "0x665329bb9a4e1062edc215d9c5ab57fa54c4c88e3dfbcc68e0cd92fdd010fa6e"
    },
    {
      "anonymous": false,
      "inputs": [
        {
          "indexed": false,
          "name": "taskIds",
          "type": "bytes32[]"
        },
        {
          "indexed": false,
          "name": "inStateDeltaHashes",
          "type": "bytes32[]"
        },
        {
          "indexed": false,
          "name": "outStateDeltaHashes",
          "type": "bytes32[]"
        },
        {
          "indexed": false,
          "name": "ethCalls",
          "type": "bytes[]"
        },
        {
          "indexed": false,
          "name": "sigs",
          "type": "bytes[]"
        }
      ],
      "name": "ReceiptsVerified",
      "type": "event",
      "signature": "0x7243cbab94fa1d25e0cb54fdd36b41f803ff5e5a29aaae09979a888b156b5872"
    },
    {
      "constant": false,
      "inputs": [
        {
          "name": "signer",
          "type": "address"
        },
        {
          "name": "report",
          "type": "bytes"
        }
      ],
      "name": "register",
      "outputs": [],
      "payable": true,
      "stateMutability": "payable",
      "type": "function",
      "signature": "0x24b8fbf6"
    },
    {
      "constant": false,
      "inputs": [
        {
          "name": "taskId",
          "type": "bytes32"
        },
        {
          "name": "fee",
          "type": "uint256"
        },
        {
          "name": "token",
          "type": "address"
        },
        {
          "name": "tokenValue",
          "type": "uint256"
        }
      ],
      "name": "createTaskRecord",
      "outputs": [],
      "payable": false,
      "stateMutability": "nonpayable",
      "type": "function",
      "signature": "0xd28cf5c1"
    },
    {
      "constant": false,
      "inputs": [
        {
          "name": "taskIds",
          "type": "bytes32[]"
        },
        {
          "name": "fees",
          "type": "uint256[]"
        },
        {
          "name": "tokens",
          "type": "address[]"
        },
        {
          "name": "tokenValues",
          "type": "uint256[]"
        }
      ],
      "name": "createTaskRecords",
      "outputs": [],
      "payable": false,
      "stateMutability": "nonpayable",
      "type": "function",
      "signature": "0xa85d84ef"
    },
    {
      "constant": false,
      "inputs": [
        {
          "name": "scAddr",
          "type": "address"
        },
        {
          "name": "taskId",
          "type": "bytes32"
        },
        {
          "name": "inStateDeltaHash",
          "type": "bytes32"
        },
        {
          "name": "outStateDeltaHash",
          "type": "bytes32"
        },
        {
          "name": "ethCall",
          "type": "bytes"
        },
        {
          "name": "sig",
          "type": "bytes"
        }
      ],
      "name": "commitReceipt",
      "outputs": [],
      "payable": false,
      "stateMutability": "nonpayable",
      "type": "function",
      "signature": "0x5956efef"
    },
    {
      "constant": false,
      "inputs": [
        {
          "name": "scAddr",
          "type": "address"
        },
        {
          "name": "taskIds",
          "type": "bytes32[]"
        },
        {
          "name": "inStateDeltaHashes",
          "type": "bytes32[]"
        },
        {
          "name": "outStateDeltaHashes",
          "type": "bytes32[]"
        },
        {
          "name": "ethCalls",
          "type": "bytes[]"
        },
        {
          "name": "sigs",
          "type": "bytes[]"
        }
      ],
      "name": "commitReceipts",
      "outputs": [],
      "payable": false,
      "stateMutability": "nonpayable",
      "type": "function",
      "signature": "0xd245f478"
    },
    {
      "constant": false,
      "inputs": [
        {
          "name": "seed",
          "type": "uint256"
        },
        {
          "name": "sig",
          "type": "bytes"
        }
      ],
      "name": "setWorkersParams",
      "outputs": [],
      "payable": false,
      "stateMutability": "nonpayable",
      "type": "function",
      "signature": "0x2873e73c"
    },
    {
      "constant": true,
      "inputs": [
        {
          "name": "blockNumber",
          "type": "uint256"
        }
      ],
      "name": "getWorkersParams",
      "outputs": [
        {
          "name": "",
          "type": "uint256"
        },
        {
          "name": "",
          "type": "uint256"
        },
        {
          "name": "",
          "type": "address[]"
        },
        {
          "name": "",
          "type": "address[]"
        }
      ],
      "payable": false,
      "stateMutability": "view",
      "type": "function",
      "signature": "0x59c91a12"
    },
    {
      "constant": true,
      "inputs": [
        {
          "name": "custodian",
          "type": "address"
        }
      ],
      "name": "getReport",
      "outputs": [
        {
          "name": "",
          "type": "address"
        },
        {
          "name": "",
          "type": "bytes"
        }
      ],
      "payable": false,
      "stateMutability": "view",
      "type": "function",
      "signature": "0xa3bdae3e"
    }
  ],
  "bytecode": "0x60806040523480156200001157600080fd5b506040516040806200249483398101806040526200003391908101906200007a565b60008054600160a060020a03938416600160a060020a03199182161790915560018054929093169116179055620000c5565b6000620000738251620000b9565b9392505050565b600080604083850312156200008e57600080fd5b60006200009c858562000065565b9250506020620000af8582860162000065565b9150509250929050565b600160a060020a031690565b6123bf80620000d56000396000f3006080604052600436106100c45763ffffffff7c01000000000000000000000000000000000000000000000000000000006000350416630a318da081146100c957806324b8fbf6146100ff5780632873e73c146101145780634048a257146101345780635956efef1461016457806359c91a121461018457806364a4c0c6146101b45780639489ad40146101e1578063a3bdae3e14610203578063a85d84ef14610231578063d245f47814610251578063d28cf5c114610271578063e579f50014610291575b600080fd5b3480156100d557600080fd5b506100e96100e4366004611b4d565b6102c3565b6040516100f69190611f15565b60405180910390f35b61011261010d366004611a0b565b6102eb565b005b34801561012057600080fd5b5061011261012f366004611bc0565b610420565b34801561014057600080fd5b5061015461014f36600461183c565b610581565b6040516100f69493929190611f5e565b34801561017057600080fd5b5061011261017f366004611961565b610645565b34801561019057600080fd5b506101a461019f366004611b4d565b610850565b6040516100f69493929190612250565b3480156101c057600080fd5b506101d46101cf366004611a5d565b61085d565b6040516100f69190612075565b3480156101ed57600080fd5b506101f661088d565b6040516100f69190612148565b34801561020f57600080fd5b5061022361021e36600461183c565b61089c565b6040516100f6929190611f3e565b34801561023d57600080fd5b5061011261024c366004611a8d565b610aad565b34801561025d57600080fd5b5061011261026c366004611862565b610d23565b34801561027d57600080fd5b5061011261028c366004611b6b565b61103d565b34801561029d57600080fd5b506102b16102ac366004611b4d565b61112b565b6040516100f6969594939291906121c6565b60118054829081106102d157fe5b600091825260209091200154600160a060020a0316905081565b33600090815260126020526040812054600160a060020a0316151561035f57506011805490819061031f9060018301611522565b503360118281548110151561033057fe5b9060005260206000200160006101000a815481600160a060020a030219169083600160a060020a031602179055505b336000908152601260209081526040909120805473ffffffffffffffffffffffffffffffffffffffff1916600160a060020a03861617815534600282015583516103b19260019092019185019061154b565b503360008181526012602052604090819020805474ff0000000000000000000000000000000000000000191660a060020a179055517f0a31ee9d46a828884b81003c8498156ea6aa15b9b54bdd0ef0b533d9eba57e5591610413918690611f23565b60405180910390a1505050565b6060803361042c6115c9565b600160a060020a0382811660009081526012602090815260409182902082516080810184528154948516815260a060020a90940460ff1684830152600180820180548551600261010094831615949094026000190190911692909204601f810185900485028301850186528083529294860193919290918301828280156104f45780601f106104c9576101008083540402835291602001916104f4565b820191906000526020600020905b8154815290600101906020018083116104d757829003601f168201915b5050505050815260200160028201548152505090506000816020015160ff1611151561053e5760405160e560020a62461bcd02815260040161053590612156565b60405180910390fd5b7fddd784bed66dfeca9e93ec7a89b48ae548c779ac5a179b0362ac680d4677acf08685856040516105719392919061221c565b60405180910390a1505050505050565b6012602090815260009182526040918290208054600180830180548651600261010094831615949094026000190190911692909204601f8101869004860283018601909652858252600160a060020a0383169560a060020a90930460ff1694919290918301828280156106355780601f1061060a57610100808354040283529160200191610635565b820191906000526020600020905b81548152906001019060200180831161061857829003601f168201915b5050505050908060020154905084565b3361064e6115c9565b600160a060020a0382811660009081526012602090815260409182902082516080810184528154948516815260a060020a90940460ff1684830152600180820180548551600261010094831615949094026000190190911692909204601f810185900485028301850186528083529294860193919290918301828280156107165780601f106106eb57610100808354040283529160200191610716565b820191906000526020600020905b8154815290600101906020018083116106f957829003601f168201915b5050505050815260200160028201548152505090506000816020015160ff161115156107575760405160e560020a62461bcd02815260040161053590612156565b6000808881526013602052604090206004015460a060020a900460ff16600181111561077f57fe5b1461079f5760405160e560020a62461bcd02815260040161053590612166565b6107ad888888888888611205565b600087815260136020908152604090912084516107d29260039092019186019061154b565b5060008781526013602052604090819020600401805474ff0000000000000000000000000000000000000000191660a060020a179055517f665329bb9a4e1062edc215d9c5ab57fa54c4c88e3dfbcc68e0cd92fdd010fa6e9061083e9089908990899089908990612083565b60405180910390a15050505050505050565b6000806060809193509193565b60146020528160005260406000208181548110151561087857fe5b90600052602060002001600091509150505481565b600054600160a060020a031681565b60006060826108a96115c9565b600160a060020a0382811660009081526012602090815260409182902082516080810184528154948516815260a060020a90940460ff1684830152600180820180548551600261010094831615949094026000190190911692909204601f810185900485028301850186528083529294860193919290918301828280156109715780601f1061094657610100808354040283529160200191610971565b820191906000526020600020905b81548152906001019060200180831161095457829003601f168201915b5050505050815260200160028201548152505090506000816020015160ff161115156109b25760405160e560020a62461bcd02815260040161053590612156565b600160a060020a038086166000908152601260205260409020541615156109ee5760405160e560020a62461bcd02815260040161053590612196565b600160a060020a038581166000908152601260209081526040918290208054600191820180548551600261010095831615959095026000190190911693909304601f8101859004850284018501909552848352941693929091839190830182828015610a9b5780601f10610a7057610100808354040283529160200191610a9b565b820191906000526020600020905b815481529060010190602001808311610a7e57829003601f168201915b50505050509050935093505050915091565b60005b8451811015610cdd57601360008683815181101515610acb57fe5b6020908102909101810151825281019190915260400160002060040154600160a060020a031615610b115760405160e560020a62461bcd028152600401610535906121a6565b8381815181101515610b1f57fe5b90602001906020020151601360008784815181101515610b3b57fe5b60209081029091018101518252810191909152604001600020558251839082908110610b6357fe5b90602001906020020151601360008784815181101515610b7f57fe5b6020908102919091018101518252810191909152604001600020600101805473ffffffffffffffffffffffffffffffffffffffff1916600160a060020a03929092169190911790558151829082908110610bd557fe5b90602001906020020151601360008784815181101515610bf157fe5b90602001906020020151600019166000191681526020019081526020016000206002018190555033601360008784815181101515610c2b57fe5b60209081029190910181015182528101919091526040016000908120600401805473ffffffffffffffffffffffffffffffffffffffff1916600160a060020a03939093169290921790915585516013908290889085908110610c8957fe5b60209081029091018101518252810191909152604001600020600401805474ff0000000000000000000000000000000000000000191660a060020a836001811115610cd057fe5b0217905550600101610ab0565b7fcb8afab3437be2f96ef2a2932eb02d02fd765bfe8be7c1f5a58edd6452317dde8585858533604051610d1495949392919061200f565b60405180910390a15050505050565b600033610d2e6115c9565b600160a060020a0382811660009081526012602090815260409182902082516080810184528154948516815260a060020a90940460ff1684830152600180820180548551600261010094831615949094026000190190911692909204601f81018590048502830185018652808352929486019391929091830182828015610df65780601f10610dcb57610100808354040283529160200191610df6565b820191906000526020600020905b815481529060010190602001808311610dd957829003601f168201915b5050505050815260200160028201548152505090506000816020015160ff16111515610e375760405160e560020a62461bcd02815260040161053590612156565b600092505b8751831015610ff3576000601360008a86815181101515610e5957fe5b602090810290910181015182528101919091526040016000206004015460ff60a060020a909104166001811115610e8c57fe5b14610eac5760405160e560020a62461bcd02815260040161053590612166565b610f2d898985815181101515610ebe57fe5b906020019060200201518986815181101515610ed657fe5b906020019060200201518987815181101515610eee57fe5b906020019060200201518988815181101515610f0657fe5b906020019060200201518989815181101515610f1e57fe5b90602001906020020151611205565b8383815181101515610f3b57fe5b90602001906020020151601360008a86815181101515610f5757fe5b60209081029091018101518252818101929092526040016000208251610f8793600390920192919091019061154b565b506001601360008a86815181101515610f9c57fe5b60209081029091018101518252810191909152604001600020600401805474ff0000000000000000000000000000000000000000191660a060020a836001811115610fe357fe5b0217905550600190920191610e3c565b7f7243cbab94fa1d25e0cb54fdd36b41f803ff5e5a29aaae09979a888b156b5872888888888860405161102a959493929190611fa3565b60405180910390a1505050505050505050565b600084815260136020526040902060040154600160a060020a0316156110785760405160e560020a62461bcd028152600401610535906121a6565b60008481526013602052604090819020848155600181018054600160a060020a03861673ffffffffffffffffffffffffffffffffffffffff199182161790915560028201849055600490910180549091163390811774ff0000000000000000000000000000000000000000191690915590517f51364a5a527e38841b15c974f7924dad755bc9ce0d29701d7501a7bd297b787b9161111d9187918791879187916120d1565b60405180910390a150505050565b601360209081526000918252604091829020805460018083015460028085015460038601805489516101009682161596909602600019011692909204601f81018890048802850188019098528784529396600160a060020a03909216959394939091908301828280156111df5780601f106111b4576101008083540402835291602001916111df565b820191906000526020600020905b8154815290600101906020018083116111c257829003601f168201915b50505060049093015491925050600160a060020a0381169060ff60a060020a9091041686565b600160a060020a038616600090815260146020526040812054908082151561124d5786156112485760405160e560020a62461bcd02815260040161053590612186565b6112ad565b600160a060020a038916600090815260146020526040902061127684600163ffffffff61144916565b8154811061128057fe5b60009182526020909120015487146112ad5760405160e560020a62461bcd02815260040161053590612176565b600160a060020a03891660009081526014602052604090208054906112d59060018301611522565b50600160a060020a03891660009081526014602052604090208054879190859081106112fd57fe5b60009182526020918290200191909155604080518083018b81529181018a90526060810189905287518b938b938b938b939192608090910191908401908083835b6020831061135d5780518252601f19909201916020918201910161133e565b6001836020036101000a0380198251168184511680821785525050505050509050019450505050506040516020818303038152906040526040518082805190602001908083835b602083106113c35780518252601f1990920191602091820191016113a4565b5181516020939093036101000a6000190180199091169216919091179052604051920182900390912094506113fe9250849150869050611460565b33600090815260126020526040902054909150600160a060020a0380831691161461143e5760405160e560020a62461bcd028152600401610535906121b6565b505050505050505050565b60008282111561145557fe5b508082035b92915050565b6000806000808451604114151561147a5760009350611519565b50505060208201516040830151606084015160001a601b60ff8216101561149f57601b015b8060ff16601b141580156114b757508060ff16601c14155b156114c55760009350611519565b600186828585604051600081526020016040526040516114e89493929190612113565b60206040516020810390808403906000865af115801561150c573d6000803e3d6000fd5b5050506020604051035193505b50505092915050565b815481835581811115611546576000838152602090206115469181019083016115fe565b505050565b828054600181600116156101000203166002900490600052602060002090601f016020900481019282601f1061158c57805160ff19168380011785556115b9565b828001600101855582156115b9579182015b828111156115b957825182559160200191906001019061159e565b506115c59291506115fe565b5090565b6080604051908101604052806000600160a060020a03168152602001600060ff16815260200160608152602001600081525090565b61161891905b808211156115c55760008155600101611604565b90565b6000611627823561230b565b9392505050565b6000601f8201831361163f57600080fd5b813561165261164d826122b8565b612291565b9150818183526020840193506020810190508385602084028201111561167757600080fd5b60005b838110156116a3578161168d888261161b565b845250602092830192919091019060010161167a565b5050505092915050565b6000601f820183136116be57600080fd5b81356116cc61164d826122b8565b915081818352602084019350602081019050838560208402820111156116f157600080fd5b60005b838110156116a3578161170788826117ea565b84525060209283019291909101906001016116f4565b6000601f8201831361172e57600080fd5b813561173c61164d826122b8565b81815260209384019390925082018360005b838110156116a3578135860161176488826117f6565b845250602092830192919091019060010161174e565b6000601f8201831361178b57600080fd5b813561179961164d826122b8565b915081818352602084019350602081019050838560208402820111156117be57600080fd5b60005b838110156116a357816117d488826117ea565b84525060209283019291909101906001016117c1565b60006116278235611618565b6000601f8201831361180757600080fd5b813561181561164d826122d9565b9150808252602083016020830185838301111561183157600080fd5b61151983828461233f565b60006020828403121561184e57600080fd5b600061185a848461161b565b949350505050565b60008060008060008060c0878903121561187b57600080fd5b6000611887898961161b565b965050602087013567ffffffffffffffff8111156118a457600080fd5b6118b089828a016116ad565b955050604087013567ffffffffffffffff8111156118cd57600080fd5b6118d989828a016116ad565b945050606087013567ffffffffffffffff8111156118f657600080fd5b61190289828a016116ad565b935050608087013567ffffffffffffffff81111561191f57600080fd5b61192b89828a0161171d565b92505060a087013567ffffffffffffffff81111561194857600080fd5b61195489828a0161171d565b9150509295509295509295565b60008060008060008060c0878903121561197a57600080fd5b6000611986898961161b565b965050602061199789828a016117ea565b95505060406119a889828a016117ea565b94505060606119b989828a016117ea565b935050608087013567ffffffffffffffff8111156119d657600080fd5b6119e289828a016117f6565b92505060a087013567ffffffffffffffff8111156119ff57600080fd5b61195489828a016117f6565b60008060408385031215611a1e57600080fd5b6000611a2a858561161b565b925050602083013567ffffffffffffffff811115611a4757600080fd5b611a53858286016117f6565b9150509250929050565b60008060408385031215611a7057600080fd5b6000611a7c858561161b565b9250506020611a53858286016117ea565b60008060008060808587031215611aa357600080fd5b843567ffffffffffffffff811115611aba57600080fd5b611ac6878288016116ad565b945050602085013567ffffffffffffffff811115611ae357600080fd5b611aef8782880161177a565b935050604085013567ffffffffffffffff811115611b0c57600080fd5b611b188782880161162e565b925050606085013567ffffffffffffffff811115611b3557600080fd5b611b418782880161177a565b91505092959194509250565b600060208284031215611b5f57600080fd5b600061185a84846117ea565b60008060008060808587031215611b8157600080fd5b6000611b8d87876117ea565b9450506020611b9e878288016117ea565b9350506040611baf8782880161161b565b9250506060611b41878288016117ea565b60008060408385031215611bd357600080fd5b6000611a2a85856117ea565b611be88161230b565b82525050565b6000611bf982612307565b808452602084019350611c0b83612301565b60005b82811015611c3b57611c21868351611bdf565b611c2a82612301565b602096909601959150600101611c0e565b5093949350505050565b6000611c5082612307565b808452602084019350611c6283612301565b60005b82811015611c3b57611c78868351611d46565b611c8182612301565b602096909601959150600101611c65565b6000611c9d82612307565b80845260208401935083602082028501611cb685612301565b60005b84811015611ced578383038852611cd1838351611d4f565b9250611cdc82612301565b602098909801979150600101611cb9565b50909695505050505050565b6000611d0482612307565b808452602084019350611d1683612301565b60005b82811015611c3b57611d2c868351611d46565b611d3582612301565b602096909601959150600101611d19565b611be881611618565b6000611d5a82612307565b808452611d6e81602086016020860161234b565b611d778161237b565b9093016020019392505050565b611be881612329565b611be881612334565b601481527f556e7265676973746572656420776f726b65722e000000000000000000000000602082015260400190565b601381527f496e76616c6964207461736b2073746174757300000000000000000000000000602082015260400190565b601e81527f496e76616c696420696e7075742073746174652064656c746120686173680000602082015260400190565b602e81527f496e76616c696420696e7075742073746174652064656c74612068617368206660208201527f6f7220656d707479207374617465000000000000000000000000000000000000604082015260600190565b601581527f576f726b6572206e6f7420726567697374657265640000000000000000000000602082015260400190565b601381527f5461736b20616c72656164792065786973742e00000000000000000000000000602082015260400190565b601281527f496e76616c6964207369676e61747572652e0000000000000000000000000000602082015260400190565b611be881612323565b6020810161145a8284611bdf565b60408101611f318285611bdf565b6116276020830184611bdf565b60408101611f4c8285611bdf565b818103602083015261185a8184611d4f565b60808101611f6c8287611bdf565b611f796020830186611f0c565b8181036040830152611f8b8185611d4f565b9050611f9a6060830184611d46565b95945050505050565b60a08082528101611fb48188611c45565b90508181036020830152611fc88187611c45565b90508181036040830152611fdc8186611c45565b90508181036060830152611ff08185611c92565b905081810360808301526120048184611c92565b979650505050505050565b60a080825281016120208188611c45565b905081810360208301526120348187611cf9565b905081810360408301526120488186611bee565b9050818103606083015261205c8185611cf9565b905061206b6080830184611bdf565b9695505050505050565b6020810161145a8284611d46565b60a081016120918288611d46565b61209e6020830187611d46565b6120ab6040830186611d46565b81810360608301526120bd8185611d4f565b905081810360808301526120048184611d4f565b60a081016120df8288611d46565b6120ec6020830187611d46565b6120f96040830186611bdf565b6121066060830185611d46565b61206b6080830184611bdf565b608081016121218287611d46565b61212e6020830186611f0c565b61213b6040830185611d46565b611f9a6060830184611d46565b6020810161145a8284611d84565b6020808252810161145a81611d96565b6020808252810161145a81611dc6565b6020808252810161145a81611df6565b6020808252810161145a81611e26565b6020808252810161145a81611e7c565b6020808252810161145a81611eac565b6020808252810161145a81611edc565b60c081016121d48289611d46565b6121e16020830188611bdf565b6121ee6040830187611d46565b81810360608301526122008186611d4f565b905061220f6080830185611bdf565b61200460a0830184611d8d565b6060810161222a8286611d46565b818103602083015261223c8185611bee565b90508181036040830152611f9a8184611bee565b6080810161225e8287611d46565b61226b6020830186611d46565b818103604083015261227d8185611bee565b9050818103606083015261206b8184611bee565b60405181810167ffffffffffffffff811182821017156122b057600080fd5b604052919050565b600067ffffffffffffffff8211156122cf57600080fd5b5060209081020190565b600067ffffffffffffffff8211156122f057600080fd5b506020601f91909101601f19160190565b60200190565b5190565b600160a060020a031690565b6000600282106115c557fe5b60ff1690565b600061145a8261230b565b600061145a82612317565b82818337506000910152565b60005b8381101561236657818101518382015260200161234e565b83811115612375576000848401525b50505050565b601f01601f1916905600a265627a7a72305820343d72fcb0ecd9c8c3cedc265decb7ff4d0666ec51b54a9571a126fa4cc4c0f76c6578706572696d656e74616cf50037",
  "source": "pragma solidity ^0.4.24;\npragma experimental ABIEncoderV2;\n\nimport \"openzeppelin-solidity/contracts/math/SafeMath.sol\";\nimport \"openzeppelin-solidity/contracts/ECRecovery.sol\";\nimport \"openzeppelin-solidity/contracts/token/ERC20/StandardToken.sol\";\nimport \"./EnigmaToken.sol\";\n\n\ncontract Enigma {\n    using SafeMath for uint256;\n    using ECRecovery for bytes32;\n\n    // The interface of the deployed ENG ERC20 token contract\n    EnigmaToken public engToken;\n\n    struct TaskRecord {\n        bytes32 taskId;\n        uint fee;\n        address token;\n        uint tokenValue;\n        address sender;\n    }\n\n    struct TaskReceipt {\n        bytes32 taskId;\n        bytes32 inStateDeltaHash;\n        bytes32 outStateDeltaHash;\n        bytes ethCall;\n        bytes sig;\n    }\n\n    struct Task {\n        uint fee;\n        address token;\n        uint tokenValue;\n        bytes proof; // Signature of (taskId, inStateDeltaHash, outStateDeltaHash, ethCall)\n        address sender;\n        TaskStatus status;\n    }\n    enum TaskStatus {RecordCreated, ReceiptVerified}\n\n    /**\n    * The signer address of the principal node\n    * This must be set when deploying the contract and remains immutable\n    * Since the signer address is derived from the public key of an\n    * SGX enclave, this ensures that the principal node cannot be tempered\n    * with or replaced.\n    */\n    address principal;\n\n    // The data representation of a worker (or node)\n    struct Worker {\n        address signer;\n        uint8 status; // Uninitialized: 0; Active: 1; Inactive: 2\n        bytes report; // Decided to store this as one  RLP encoded attribute for easier external storage in the future\n        uint256 balance;\n    }\n\n    /**\n    * The data representation of the worker parameters used as input for\n    * the worker selection algorithm\n    */\n    struct WorkersParams {\n        uint256 firstBlockNumber;\n        address[] workerAddresses;\n        uint256 seed;\n    }\n\n    /**\n    * The last 5 worker parameters\n    * We keep a collection of worker parameters to account for latency issues.\n    * A computation task might be conceivably given out at a certain block number\n    * but executed at a later block in a different epoch. It follows that\n    * the contract must have access to the worker parameters effective when giving\n    * out the task, otherwise the selected worker would not match. We calculated\n    * that keeping the last 5 items should be more than enough to account for\n    * all latent tasks. Tasks results will be rejected past this limit.\n    */\n    WorkersParams[5] workersParams;\n\n    // An address-based index of all registered worker\n    address[] public workerAddresses;\n\n    // A registry of all registered workers with their attributes\n    mapping(address => Worker) public workers;\n    // A registry of all active and historical tasks with their attributes\n    // TODO: do we keep tasks forever? if not, when do we delete them?\n    mapping(bytes32 => Task) public tasks;\n    mapping(address => bytes32[]) public stateDeltaHashes;\n\n    // The events emitted by the contract\n    event Registered(address custodian, address signer);\n    event ValidatedSig(bytes sig, bytes32 hash, address workerAddr);\n    event WorkersParameterized(uint256 seed, address[] workers, address[] secretContracts);\n    event TaskRecordCreated(bytes32 taskId, uint fee, address token, uint tokenValue, address sender);\n    event TaskRecordsCreated(bytes32[] taskIds, uint[] fees, address[] tokens, uint[] tokenValues, address sender);\n    event ReceiptVerified(bytes32 taskId, bytes32 inStateDeltaHash, bytes32 outStateDeltaHash, bytes ethCall, bytes sig);\n    event ReceiptsVerified(bytes32[] taskIds, bytes32[] inStateDeltaHashes, bytes32[] outStateDeltaHashes, bytes[] ethCalls, bytes[] sigs);\n\n    constructor(address _tokenAddress, address _principal) public {\n        engToken = EnigmaToken(_tokenAddress);\n        principal = _principal;\n    }\n\n    /**\n    * Checks if the custodian wallet is registered as a worker\n    *\n    * @param user The custodian address of the worker\n    */\n    modifier workerRegistered(address user) {\n        Worker memory worker = workers[user];\n        require(worker.status > 0, \"Unregistered worker.\");\n        _;\n    }\n\n    /**\n    * Registers a new worker of change the signer parameters of an existing\n    * worker. This should be called by every worker (and the principal)\n    * node in order to receive tasks.\n    *\n    * @param signer The signer address, derived from the enclave public key\n    * @param report The RLP encoded report returned by the IAS\n    */\n    function register(address signer, bytes report)\n    public\n    payable\n    {\n        // TODO: consider exit if both signer and custodian as matching\n        // If the custodian is not already register, we add an index entry\n        if (workers[msg.sender].signer == 0x0) {\n            uint index = workerAddresses.length;\n            workerAddresses.length++;\n            workerAddresses[index] = msg.sender;\n        }\n\n        // Set the custodian attributes\n        workers[msg.sender].signer = signer;\n        workers[msg.sender].balance = msg.value;\n        workers[msg.sender].report = report;\n        workers[msg.sender].status = 1;\n\n        emit Registered(msg.sender, signer);\n    }\n\n    /**\n    * Store task record\n    *\n    */\n    function createTaskRecord(\n        bytes32 taskId,\n        uint fee,\n        address token,\n        uint tokenValue\n    )\n    public\n    {\n        require(tasks[taskId].sender == 0x0, \"Task already exist.\");\n\n        tasks[taskId].fee = fee;\n        tasks[taskId].token = token;\n        tasks[taskId].tokenValue = tokenValue;\n        tasks[taskId].sender = msg.sender;\n        tasks[taskId].status = TaskStatus.RecordCreated;\n\n        emit TaskRecordCreated(taskId, fee, token, tokenValue, msg.sender);\n    }\n\n    function createTaskRecords(\n        bytes32[] taskIds,\n        uint[] fees,\n        address[] tokens,\n        uint[] tokenValues\n    )\n    public\n    {\n        for (uint i = 0; i < taskIds.length; i++) {\n            require(tasks[taskIds[i]].sender == 0x0, \"Task already exist.\");\n\n            tasks[taskIds[i]].fee = fees[i];\n            tasks[taskIds[i]].token = tokens[i];\n            tasks[taskIds[i]].tokenValue = tokenValues[i];\n            tasks[taskIds[i]].sender = msg.sender;\n            tasks[taskIds[i]].status = TaskStatus.RecordCreated;\n        }\n        emit TaskRecordsCreated(taskIds, fees, tokens, tokenValues, msg.sender);\n    }\n\n    // Execute the encoded function in the specified contract\n    function executeCall(address to, uint256 value, bytes data)\n    internal\n    returns (bool success)\n    {\n        assembly {\n            success := call(gas, to, value, add(data, 0x20), mload(data), 0, 0)\n        }\n    }\n\n    function verifyReceipt(\n        address scAddr,\n        bytes32 taskId,\n        bytes32 inStateDeltaHash,\n        bytes32 outStateDeltaHash,\n        bytes ethCall,\n        bytes sig\n    )\n    internal\n    {\n        uint index = stateDeltaHashes[scAddr].length;\n        if (index == 0) {\n            require(inStateDeltaHash == 0x0, 'Invalid input state delta hash for empty state');\n        } else {\n            require(inStateDeltaHash == stateDeltaHashes[scAddr][index.sub(1)], 'Invalid input state delta hash');\n        }\n        stateDeltaHashes[scAddr].length++;\n        stateDeltaHashes[scAddr][index] = outStateDeltaHash;\n\n        // TODO: execute the Ethereum calls\n\n        // Build a hash to validate that the I/Os are matching\n        bytes32 hash = keccak256(abi.encodePacked(taskId, inStateDeltaHash, outStateDeltaHash, ethCall));\n\n        // The worker address is not a real Ethereum wallet address but\n        // one generated from its signing key\n        address workerAddr = hash.recover(sig);\n        require(workerAddr == workers[msg.sender].signer, \"Invalid signature.\");\n    }\n\n    /**\n    * Commit the computation task results on chain\n    */\n    function commitReceipt(\n        address scAddr,\n        bytes32 taskId,\n        bytes32 inStateDeltaHash,\n        bytes32 outStateDeltaHash,\n        bytes ethCall,\n        bytes sig\n    )\n    public\n    workerRegistered(msg.sender)\n    {\n        require(tasks[taskId].status == TaskStatus.RecordCreated, 'Invalid task status');\n        verifyReceipt(scAddr, taskId, inStateDeltaHash, outStateDeltaHash, ethCall, sig);\n\n        tasks[taskId].proof = sig;\n        tasks[taskId].status = TaskStatus.ReceiptVerified;\n        emit ReceiptVerified(taskId, inStateDeltaHash, outStateDeltaHash, ethCall, sig);\n    }\n\n    function commitReceipts(\n        address scAddr,\n        bytes32[] taskIds,\n        bytes32[] inStateDeltaHashes,\n        bytes32[] outStateDeltaHashes,\n        bytes[] ethCalls,\n        bytes[] sigs\n    )\n    public\n    workerRegistered(msg.sender)\n    {\n        for (uint i = 0; i < taskIds.length; i++) {\n            // TODO: consider aggregate signature\n            require(tasks[taskIds[i]].status == TaskStatus.RecordCreated, 'Invalid task status');\n            verifyReceipt(scAddr, taskIds[i], inStateDeltaHashes[i], outStateDeltaHashes[i], ethCalls[i], sigs[i]);\n\n            tasks[taskIds[i]].proof = sigs[i];\n            tasks[taskIds[i]].status = TaskStatus.ReceiptVerified;\n        }\n        emit ReceiptsVerified(taskIds, inStateDeltaHashes, outStateDeltaHashes, ethCalls, sigs);\n    }\n\n    // Verify the signature submitted while reparameterizing workers\n    function verifyParamsSig(uint256 seed, bytes sig)\n    internal\n    pure\n    returns (address)\n    {\n        bytes32 hash = keccak256(abi.encodePacked(seed));\n        address signer = hash.recover(sig);\n        return signer;\n    }\n\n    /**\n    * Reparameterizing workers with a new seed\n    * This should be called for each epoch by the Principal node\n    *\n    * @param seed The random integer generated by the enclave\n    * @param sig The random integer signed by the the principal node's enclave\n    */\n    function setWorkersParams(uint seed, bytes sig)\n    public\n    workerRegistered(msg.sender)\n    {\n        address[] memory workers;\n        address[] memory secretContracts;\n        emit WorkersParameterized(seed, workers, secretContracts);\n    }\n\n    /**\n    * The worker parameters corresponding to the specified block number\n    *\n    * @param blockNumber The reference block number\n    */\n    function getWorkersParams(uint blockNumber)\n    public\n    view\n    returns (uint, uint, address[], address[])\n    {\n        uint firstBlockNumber = 0;\n        uint seed = 0;\n        address[] memory workers;\n        address[] memory secretContracts;\n        return (firstBlockNumber, seed, workers, secretContracts);\n    }\n\n    /**\n    * The RLP encoded report returned by the IAS server\n    *\n    * @param custodian The worker's custodian address\n    */\n    function getReport(address custodian)\n    public\n    view\n    workerRegistered(custodian)\n    returns (address, bytes)\n    {\n        // The RLP encoded report and signer's address for the specified worker\n        require(workers[custodian].signer != 0x0, \"Worker not registered\");\n        return (workers[custodian].signer, workers[custodian].report);\n    }\n}\n",
  "sourcePath": "/home/fredfortier/Code/Enigma/discovery/enigma-contract/contracts/Enigma.sol",
  "compiler": {
    "name": "solc",
    "version": "0.4.24+commit.e67f0147.Emscripten.clang"
  },
  "schemaVersion": "2.0.0",
  "updatedAt": "2018-09-26T03:50:19.805Z"
}