{
  "contractName": "Enigma",
  "abi": [
    {
      "inputs": [],
      "payable": false,
      "stateMutability": "nonpayable",
      "type": "constructor"
    },
    {
      "anonymous": false,
      "inputs": [
        {
          "indexed": false,
          "name": "secretContract",
          "type": "address"
        },
        {
          "indexed": false,
          "name": "name",
          "type": "bytes32"
        },
        {
          "indexed": false,
          "name": "_success",
          "type": "bool"
        }
      ],
      "name": "RegisterContract",
      "type": "event"
    },
    {
      "anonymous": false,
      "inputs": [
        {
          "indexed": false,
          "name": "user",
          "type": "address"
        },
        {
          "indexed": false,
          "name": "pkey",
          "type": "bytes32"
        },
        {
          "indexed": false,
          "name": "rate",
          "type": "uint256"
        },
        {
          "indexed": false,
          "name": "_success",
          "type": "bool"
        }
      ],
      "name": "RegisterWorker",
      "type": "event"
    },
    {
      "anonymous": false,
      "inputs": [
        {
          "indexed": false,
          "name": "user",
          "type": "address"
        },
        {
          "indexed": false,
          "name": "rate",
          "type": "uint256"
        },
        {
          "indexed": false,
          "name": "_success",
          "type": "bool"
        }
      ],
      "name": "UpdateRate",
      "type": "event"
    },
    {
      "anonymous": false,
      "inputs": [
        {
          "indexed": false,
          "name": "secretContract",
          "type": "address"
        },
        {
          "indexed": false,
          "name": "user",
          "type": "address"
        },
        {
          "indexed": false,
          "name": "amount",
          "type": "uint256"
        },
        {
          "indexed": false,
          "name": "balance",
          "type": "uint256"
        },
        {
          "indexed": false,
          "name": "_success",
          "type": "bool"
        }
      ],
      "name": "Deposit",
      "type": "event"
    },
    {
      "anonymous": false,
      "inputs": [
        {
          "indexed": false,
          "name": "user",
          "type": "address"
        },
        {
          "indexed": false,
          "name": "amount",
          "type": "uint256"
        },
        {
          "indexed": false,
          "name": "balance",
          "type": "uint256"
        },
        {
          "indexed": false,
          "name": "_success",
          "type": "bool"
        }
      ],
      "name": "Withdraw",
      "type": "event"
    },
    {
      "anonymous": false,
      "inputs": [
        {
          "indexed": false,
          "name": "secretContract",
          "type": "address"
        },
        {
          "indexed": false,
          "name": "worker",
          "type": "address"
        },
        {
          "indexed": false,
          "name": "proof",
          "type": "bytes32"
        },
        {
          "indexed": false,
          "name": "reward",
          "type": "uint256"
        },
        {
          "indexed": false,
          "name": "_success",
          "type": "bool"
        }
      ],
      "name": "ApplyComputation",
      "type": "event"
    },
    {
      "anonymous": false,
      "inputs": [
        {
          "indexed": false,
          "name": "callingContract",
          "type": "address"
        },
        {
          "indexed": false,
          "name": "callable",
          "type": "bytes32"
        },
        {
          "indexed": false,
          "name": "callableArgs",
          "type": "bytes32[]"
        },
        {
          "indexed": false,
          "name": "callback",
          "type": "bytes32"
        },
        {
          "indexed": false,
          "name": "max_fee",
          "type": "uint256"
        },
        {
          "indexed": false,
          "name": "_success",
          "type": "bool"
        }
      ],
      "name": "Task",
      "type": "event"
    },
    {
      "constant": false,
      "inputs": [
        {
          "name": "user",
          "type": "address"
        },
        {
          "name": "pkey",
          "type": "bytes32"
        },
        {
          "name": "quote",
          "type": "bytes32"
        },
        {
          "name": "rate",
          "type": "uint256"
        }
      ],
      "name": "registerWorker",
      "outputs": [
        {
          "name": "",
          "type": "uint8"
        }
      ],
      "payable": false,
      "stateMutability": "nonpayable",
      "type": "function"
    },
    {
      "constant": false,
      "inputs": [
        {
          "name": "user",
          "type": "address"
        },
        {
          "name": "rate",
          "type": "uint256"
        }
      ],
      "name": "updateRate",
      "outputs": [
        {
          "name": "",
          "type": "uint8"
        }
      ],
      "payable": false,
      "stateMutability": "nonpayable",
      "type": "function"
    },
    {
      "constant": false,
      "inputs": [
        {
          "name": "secretContract",
          "type": "address"
        },
        {
          "name": "name",
          "type": "bytes32"
        }
      ],
      "name": "registerContract",
      "outputs": [
        {
          "name": "",
          "type": "uint8"
        }
      ],
      "payable": false,
      "stateMutability": "nonpayable",
      "type": "function"
    },
    {
      "constant": false,
      "inputs": [
        {
          "name": "secretContract",
          "type": "address"
        },
        {
          "name": "amount",
          "type": "uint256"
        }
      ],
      "name": "deposit",
      "outputs": [
        {
          "name": "",
          "type": "uint8"
        }
      ],
      "payable": true,
      "stateMutability": "payable",
      "type": "function"
    },
    {
      "constant": false,
      "inputs": [
        {
          "name": "amount",
          "type": "uint256"
        }
      ],
      "name": "withdraw",
      "outputs": [
        {
          "name": "",
          "type": "uint8"
        }
      ],
      "payable": false,
      "stateMutability": "nonpayable",
      "type": "function"
    },
    {
      "constant": false,
      "inputs": [
        {
          "name": "user",
          "type": "address"
        },
        {
          "name": "secretContract",
          "type": "address"
        },
        {
          "name": "callable",
          "type": "bytes32"
        },
        {
          "name": "callableArgs",
          "type": "bytes32[]"
        },
        {
          "name": "callback",
          "type": "bytes32"
        }
      ],
      "name": "compute",
      "outputs": [
        {
          "name": "",
          "type": "uint8"
        }
      ],
      "payable": true,
      "stateMutability": "payable",
      "type": "function"
    },
    {
      "constant": false,
      "inputs": [
        {
          "name": "secretContract",
          "type": "address"
        },
        {
          "name": "proof",
          "type": "bytes32"
        },
        {
          "name": "reward",
          "type": "uint256"
        }
      ],
      "name": "applyComputation",
      "outputs": [
        {
          "name": "",
          "type": "uint8"
        }
      ],
      "payable": false,
      "stateMutability": "nonpayable",
      "type": "function"
    },
    {
      "constant": true,
      "inputs": [],
      "name": "listActiveWorkers",
      "outputs": [
        {
          "name": "",
          "type": "address[]"
        }
      ],
      "payable": false,
      "stateMutability": "view",
      "type": "function"
    },
    {
      "constant": true,
      "inputs": [
        {
          "name": "user",
          "type": "address"
        }
      ],
      "name": "getWorkerData",
      "outputs": [
        {
          "name": "",
          "type": "bytes32[5]"
        }
      ],
      "payable": false,
      "stateMutability": "view",
      "type": "function"
    }
  ],
  "bytecode": "0x6060604052341561000f57600080fd5b6117388061001e6000396000f300606060405260043610610099576000357c0100000000000000000000000000000000000000000000000000000000900463ffffffff16806323115ebc1461009e5780632e1a7d4d1461016757806347e7ef24146101ac578063481de2b6146102055780636f662049146102835780639b1be9d8146102f4578063b558d1ea1461035e578063cbcca472146103c2578063e82f30c414610437575b600080fd5b610143600480803573ffffffffffffffffffffffffffffffffffffffff1690602001909190803573ffffffffffffffffffffffffffffffffffffffff1690602001909190803560001916906020019091908035906020019082018035906020019080806020026020016040519081016040528093929190818152602001838360200280828437820191505050505050919080356000191690602001909190505061049f565b6040518082600181111561015357fe5b60ff16815260200191505060405180910390f35b341561017257600080fd5b61018860048080359060200190919050506104ad565b6040518082600181111561019857fe5b60ff16815260200191505060405180910390f35b6101e1600480803573ffffffffffffffffffffffffffffffffffffffff16906020019091908035906020019091905050610699565b604051808260018111156101f157fe5b60ff16815260200191505060405180910390f35b341561021057600080fd5b61025f600480803573ffffffffffffffffffffffffffffffffffffffff169060200190919080356000191690602001909190803560001916906020019091908035906020019091905050610850565b6040518082600181111561026f57fe5b60ff16815260200191505060405180910390f35b341561028e57600080fd5b6102d0600480803573ffffffffffffffffffffffffffffffffffffffff1690602001909190803560001916906020019091908035906020019091905050610ac1565b604051808260018111156102e057fe5b60ff16815260200191505060405180910390f35b34156102ff57600080fd5b610307610e8f565b6040518080602001828103825283818151815260200191508051906020019060200280838360005b8381101561034a57808201518184015260208101905061032f565b505050509050019250505060405180910390f35b341561036957600080fd5b61039e600480803573ffffffffffffffffffffffffffffffffffffffff16906020019091908035906020019091905050611057565b604051808260018111156103ae57fe5b60ff16815260200191505060405180910390f35b34156103cd57600080fd5b6103f9600480803573ffffffffffffffffffffffffffffffffffffffff1690602001909190505061122a565b6040518082600560200280838360005b83811015610424578082015181840152602081019050610409565b5050505090500191505060405180910390f35b341561044257600080fd5b61047b600480803573ffffffffffffffffffffffffffffffffffffffff1690602001909190803560001916906020019091905050611401565b6040518082600181111561048b57fe5b60ff16815260200191505060405180910390f35b600080905095945050505050565b600080336104b9611629565b600160008373ffffffffffffffffffffffffffffffffffffffff1673ffffffffffffffffffffffffffffffffffffffff16815260200190815260200160002060a060405190810160405290816000820154600019166000191681526020016001820154600019166000191681526020016002820154815260200160038201548152602001600482015481525050905060008160000151600019161415151561056057600080fd5b600160003373ffffffffffffffffffffffffffffffffffffffff1673ffffffffffffffffffffffffffffffffffffffff16815260200190815260200160002092508483600201541115156105b357600080fd5b6105c18360020154866115d7565b83600201819055503373ffffffffffffffffffffffffffffffffffffffff166108fc869081150290604051600060405180830381858888f19350505050151561060957600080fd5b7fb97e775637eca8401af330efee0810af7079bafae27761741e09caa14db8d272338685600201546001604051808573ffffffffffffffffffffffffffffffffffffffff1673ffffffffffffffffffffffffffffffffffffffff1681526020018481526020018381526020018215151515815260200194505050505060405180910390a160009350505050919050565b600080836106a561165f565b600360008373ffffffffffffffffffffffffffffffffffffffff1673ffffffffffffffffffffffffffffffffffffffff168152602001908152602001600020604080519081016040529081600082015460001916600019168152602001600182015481525050905060008160000151600019161415151561072557600080fd5b60003411151561073457600080fd5b600360008773ffffffffffffffffffffffffffffffffffffffff1673ffffffffffffffffffffffffffffffffffffffff16815260200190815260200160002092506107838360010154866115f0565b83600101819055507f3d7ca2b1d4d92b9f80e6594957453c9542774babe911cd93d523d44fcfd019b686338786600101546001604051808673ffffffffffffffffffffffffffffffffffffffff1673ffffffffffffffffffffffffffffffffffffffff1681526020018573ffffffffffffffffffffffffffffffffffffffff1673ffffffffffffffffffffffffffffffffffffffff168152602001848152602001838152602001821515151581526020019550505050505060405180910390a16000935050505092915050565b600080600160008773ffffffffffffffffffffffffffffffffffffffff1673ffffffffffffffffffffffffffffffffffffffff16815260200190815260200160002060000154600019161415156108a657600080fd5b600080548060010182816108ba919061167c565b9160005260206000209001600087909190916101000a81548173ffffffffffffffffffffffffffffffffffffffff021916908373ffffffffffffffffffffffffffffffffffffffff1602179055505083600160008773ffffffffffffffffffffffffffffffffffffffff1673ffffffffffffffffffffffffffffffffffffffff168152602001908152602001600020600001816000191690555082600160008773ffffffffffffffffffffffffffffffffffffffff1673ffffffffffffffffffffffffffffffffffffffff168152602001908152602001600020600101816000191690555034600160008773ffffffffffffffffffffffffffffffffffffffff1673ffffffffffffffffffffffffffffffffffffffff1681526020019081526020016000206002018190555081600160008773ffffffffffffffffffffffffffffffffffffffff1673ffffffffffffffffffffffffffffffffffffffff168152602001908152602001600020600301819055507f2edc37e5b87290a697025181834a295bf93db6c112b926e7b22908c31f043f0d8585846001604051808573ffffffffffffffffffffffffffffffffffffffff1673ffffffffffffffffffffffffffffffffffffffff16815260200184600019166000191681526020018381526020018215151515815260200194505050505060405180910390a160009050949350505050565b600080600085610acf61165f565b600360008373ffffffffffffffffffffffffffffffffffffffff1673ffffffffffffffffffffffffffffffffffffffff1681526020019081526020016000206040805190810160405290816000820154600019166000191681526020016001820154815250509050600081600001516000191614151515610b4f57600080fd5b33610b58611629565b600160008373ffffffffffffffffffffffffffffffffffffffff1673ffffffffffffffffffffffffffffffffffffffff16815260200190815260200160002060a0604051908101604052908160008201546000191660001916815260200160018201546000191660001916815260200160028201548152602001600382015481526020016004820154815250509050600081600001516000191614151515610bff57600080fd5b600360008b73ffffffffffffffffffffffffffffffffffffffff1673ffffffffffffffffffffffffffffffffffffffff1681526020019081526020016000209550600160003373ffffffffffffffffffffffffffffffffffffffff1673ffffffffffffffffffffffffffffffffffffffff1681526020019081526020016000209450878660010154111515610c9357600080fd5b338660020160008c73ffffffffffffffffffffffffffffffffffffffff1673ffffffffffffffffffffffffffffffffffffffff16815260200190815260200160002060000160006101000a81548173ffffffffffffffffffffffffffffffffffffffff021916908373ffffffffffffffffffffffffffffffffffffffff160217905550888660020160008c73ffffffffffffffffffffffffffffffffffffffff1673ffffffffffffffffffffffffffffffffffffffff1681526020019081526020016000206001018160001916905550878660020160008c73ffffffffffffffffffffffffffffffffffffffff1673ffffffffffffffffffffffffffffffffffffffff16815260200190815260200160002060020181905550610dba8560020154896115f0565b85600201819055507fdcbe317e18b592f92d8101a0de5e34fdbf5fe02cddfad0cb773e63fd0b4e676d8a338b8b6001604051808673ffffffffffffffffffffffffffffffffffffffff1673ffffffffffffffffffffffffffffffffffffffff1681526020018573ffffffffffffffffffffffffffffffffffffffff1673ffffffffffffffffffffffffffffffffffffffff1681526020018460001916600019168152602001838152602001821515151581526020019550505050505060405180910390a1600096505050505050509392505050565b610e976116a8565b610e9f6116a8565b6000610ea9611629565b600080549050604051805910610ebc5750595b90808252806020026020018201604052509250600091505b60008054905082101561104e57600160008084815481101515610ef357fe5b906000526020600020900160009054906101000a900473ffffffffffffffffffffffffffffffffffffffff1673ffffffffffffffffffffffffffffffffffffffff1673ffffffffffffffffffffffffffffffffffffffff16815260200190815260200160002060a0604051908101604052908160008201546000191660001916815260200160018201546000191660001916815260200160028201548152602001600382015481526020016004820154815250509050600081600001516000191614151561104157600082815481101515610fca57fe5b906000526020600020900160009054906101000a900473ffffffffffffffffffffffffffffffffffffffff16838381518110151561100457fe5b9060200190602002019073ffffffffffffffffffffffffffffffffffffffff16908173ffffffffffffffffffffffffffffffffffffffff16815250505b8180600101925050610ed4565b82935050505090565b600082611062611629565b600160008373ffffffffffffffffffffffffffffffffffffffff1673ffffffffffffffffffffffffffffffffffffffff16815260200190815260200160002060a060405190810160405290816000820154600019166000191681526020016001820154600019166000191681526020016002820154815260200160038201548152602001600482015481525050905060008160000151600019161415151561110957600080fd5b6000600160008773ffffffffffffffffffffffffffffffffffffffff1673ffffffffffffffffffffffffffffffffffffffff16815260200190815260200160002060000154600019161415151561115f57600080fd5b83600160008773ffffffffffffffffffffffffffffffffffffffff1673ffffffffffffffffffffffffffffffffffffffff168152602001908152602001600020600301819055507f19359d2f6b502eb32089e4e6ea2cb9e909793f252bcc6cdc1b5b54aeff348dde85856001604051808473ffffffffffffffffffffffffffffffffffffffff1673ffffffffffffffffffffffffffffffffffffffff16815260200183815260200182151515158152602001935050505060405180910390a160009250505092915050565b6112326116bc565b61123a611629565b600080600033611248611629565b600160008373ffffffffffffffffffffffffffffffffffffffff1673ffffffffffffffffffffffffffffffffffffffff16815260200190815260200160002060a06040519081016040529081600082015460001916600019168152602001600182015460001916600019168152602001600282015481526020016003820154815260200160048201548152505090506000816000015160001916141515156112ef57600080fd5b600160008973ffffffffffffffffffffffffffffffffffffffff1673ffffffffffffffffffffffffffffffffffffffff16815260200190815260200160002060a060405190810160405290816000820154600019166000191681526020016001820154600019166000191681526020016002820154815260200160038201548152602001600482015481525050955085604001516001029450856060015160010293508560800151600102925060a060405190810160405280876000015160001916600019168152602001876020015160001916600019168152602001866000191660001916815260200185600019166000191681526020018460001916600019168152509650505050505050919050565b600080600360008573ffffffffffffffffffffffffffffffffffffffff1673ffffffffffffffffffffffffffffffffffffffff168152602001908152602001600020600001546000191614151561145757600080fd5b6002805480600101828161146b919061167c565b9160005260206000209001600085909190916101000a81548173ffffffffffffffffffffffffffffffffffffffff021916908373ffffffffffffffffffffffffffffffffffffffff1602179055505081600360008573ffffffffffffffffffffffffffffffffffffffff1673ffffffffffffffffffffffffffffffffffffffff16815260200190815260200160002060000181600019169055506000600360008573ffffffffffffffffffffffffffffffffffffffff1673ffffffffffffffffffffffffffffffffffffffff168152602001908152602001600020600101819055507f80c6dc74b215fde33d07365e07f86c727f074391f0b27649271c1bb2c122217583836001604051808473ffffffffffffffffffffffffffffffffffffffff1673ffffffffffffffffffffffffffffffffffffffff168152602001836000191660001916815260200182151515158152602001935050505060405180910390a16000905092915050565b60006115e58383111561161a565b818303905092915050565b600080828401905061161084821015801561160b5750838210155b61161a565b8091505092915050565b80151561162657600080fd5b50565b60a06040519081016040528060008019168152602001600080191681526020016000815260200160008152602001600081525090565b604080519081016040528060008019168152602001600081525090565b8154818355818115116116a3578183600052602060002091820191016116a291906116e7565b5b505050565b602060405190810160405280600081525090565b60a0604051908101604052806005905b60008019168152602001906001900390816116cc5790505090565b61170991905b808211156117055760008160009055506001016116ed565b5090565b905600a165627a7a723058203b707ca556bf4d0ec7428389ed4299277cc70b7d220f0d436dc93144e9700c240029",
  "source": "pragma solidity ^0.4.19;\n\ncontract SafeMath {\n    function safeMul(uint a, uint b) internal returns (uint) {\n        uint c = a * b;\n        assert(a == 0 || c / a == b);\n        return c;\n    }\n\n    function safeSub(uint a, uint b) internal returns (uint) {\n        assert(b <= a);\n        return a - b;\n    }\n\n    function safeAdd(uint a, uint b) internal returns (uint) {\n        uint c = a + b;\n        assert(c >= a && c >= b);\n        return c;\n    }\n\n    function assert(bool assertion) internal {\n        if (!assertion) throw;\n    }\n}\n\ncontract Enigma is SafeMath {\n    struct Computation {\n        address worker;\n        bytes32 proof;\n        uint reward;\n    }\n\n    struct SecretContract {\n        bytes32 name;\n        uint balance;\n        mapping(address => Computation) computations; // Computation hash mapped to fees\n    }\n\n    struct Worker {\n        bytes32 pkey;\n        bytes32 quote;\n        uint balance;\n        uint rate;\n        uint reward;\n    }\n\n    address[] _workerIndex;\n    mapping(address => Worker) _workers;\n\n    address[] _contractIndex;\n    mapping(address => SecretContract) _secretContracts;\n\n    event RegisterContract(address secretContract, bytes32 name, bool _success);\n    event RegisterWorker(address user, bytes32 pkey, uint rate, bool _success);\n    event UpdateRate(address user, uint rate, bool _success);\n    event Deposit(address secretContract, address user, uint amount, uint balance, bool _success);\n    event Withdraw(address user, uint amount, uint balance, bool _success);\n    event ApplyComputation(address secretContract, address worker, bytes32 proof, uint reward, bool _success);\n\n    // Enigma computation task\n    event Task(address callingContract, bytes32 callable, bytes32[] callableArgs, bytes32 callback, uint max_fee, bool _success);\n\n    enum ReturnValue {Ok, Error}\n\n    function Enigma() public {\n\n    }\n\n    modifier contractRegistered(address secretContract) {\n        SecretContract memory sc = _secretContracts[secretContract];\n        require(sc.name != \"\");\n        _;\n    }\n\n    modifier workerRegistered(address user) {\n        Worker memory worker = _workers[user];\n        require(worker.pkey != \"\");\n        _;\n    }\n\n    function registerWorker(address user, bytes32 pkey, bytes32 quote, uint rate)\n    public\n    returns (ReturnValue) {\n        // Register a new worker and collect stake\n        require(_workers[user].pkey == \"\");\n\n        _workerIndex.push(user);\n\n        _workers[user].pkey = pkey;\n        _workers[user].quote = quote;\n        _workers[user].balance = msg.value;\n        _workers[user].rate = rate;\n\n        RegisterWorker(user, pkey, rate, true);\n\n        return ReturnValue.Ok;\n    }\n\n    function updateRate(address user, uint rate)\n    public\n    workerRegistered(user)\n    returns (ReturnValue) {\n        // Update the ENG/GAS rate\n        require(_workers[user].pkey != \"\");\n\n        _workers[user].rate = rate;\n\n        UpdateRate(user, rate, true);\n\n        return ReturnValue.Ok;\n    }\n\n    function registerContract(address secretContract, bytes32 name)\n    public\n    returns (ReturnValue) {\n        // Register a secret contract\n        require(_secretContracts[secretContract].name == \"\");\n\n        _contractIndex.push(secretContract);\n\n        _secretContracts[secretContract].name = name;\n        _secretContracts[secretContract].balance = 0;\n\n        RegisterContract(secretContract, name, true);\n\n        return ReturnValue.Ok;\n    }\n\n    function deposit(address secretContract, uint amount)\n    public\n    payable\n    contractRegistered(secretContract)\n    returns (ReturnValue) {\n        // Deposit tokens to a smart contract for computation\n        require(msg.value > 0);\n\n        SecretContract storage sc = _secretContracts[secretContract];\n        sc.balance = safeAdd(sc.balance, amount);\n        Deposit(secretContract, msg.sender, amount, sc.balance, true);\n\n        return ReturnValue.Ok;\n    }\n\n    function withdraw(uint amount)\n    public\n    workerRegistered(msg.sender)\n    returns (ReturnValue) {\n        // Withdraw from stake and rewards balance\n        Worker storage worker = _workers[msg.sender];\n        require(worker.balance > amount);\n\n        worker.balance = safeSub(worker.balance, amount);\n        msg.sender.transfer(amount);\n\n        Withdraw(msg.sender, amount, worker.balance, true);\n\n        return ReturnValue.Ok;\n    }\n\n    function compute(address user, address secretContract, bytes32 callable, bytes32[] callableArgs, bytes32 callback)\n    public\n    payable\n        //    contractRegistered(secretContract)\n    returns (ReturnValue) {\n        // Deposit fee amount in the specified contract bank\n        // Emit the task event\n        //        require(msg.value > 0);\n        //\n        //        SecretContract storage sc = _secretContracts[secretContract];\n        //        sc.balance = safeAdd(sc.balance, msg.value);\n        //\n        //        Deposit(secretContract, msg.sender, msg.value, sc.balance, true);\n        //        Task(secretContract, callable, callableArgs, callback, msg.value, true);\n\n        return ReturnValue.Ok;\n    }\n\n    function applyComputation(address secretContract, bytes32 proof, uint reward)\n    public\n    contractRegistered(secretContract)\n    workerRegistered(msg.sender)\n    returns (ReturnValue) {\n        // Record executed computation and distribute rewards\n        SecretContract storage sc = _secretContracts[secretContract];\n        Worker storage worker = _workers[msg.sender];\n\n        require(sc.balance > reward);\n\n        sc.computations[secretContract].worker = msg.sender;\n        sc.computations[secretContract].proof = proof;\n        sc.computations[secretContract].reward = reward;\n\n        worker.balance = safeAdd(worker.balance, reward);\n\n        ApplyComputation(secretContract, msg.sender, proof, reward, true);\n\n        return ReturnValue.Ok;\n    }\n\n    ////////////////////////////////////////////////////////////////////////////////////////\n    //VIEWS/////////////////////////////////////////////////////////////////////////////////\n    ////////////////////////////////////////////////////////////////////////////////////////\n\n\n    function listActiveWorkers() public view returns (address[]) {\n        //Returns a list of all active workers\n        address[] memory keys = new address[](_workerIndex.length);\n        for (uint i = 0; i < _workerIndex.length; i++) {\n            // Filter out inactive workers\n            Worker memory worker = _workers[_workerIndex[i]];\n            if (worker.pkey != \"\") {\n                keys[i] = _workerIndex[i];\n            }\n        }\n        return keys;\n    }\n\n    function getWorkerData(address user)\n    public\n    view\n    workerRegistered(msg.sender)\n    returns (bytes32[5]){\n        // Returns data about the specified worker\n        Worker memory worker = _workers[user];\n\n        bytes32 strBalance = bytes32(worker.balance);\n        bytes32 strRate = bytes32(worker.rate);\n        bytes32 strReward = bytes32(worker.reward);\n\n        return [worker.pkey, worker.quote, strBalance, strRate, strReward];\n    }\n}\n",
  "sourcePath": "/Users/fredfortier/Code/enigma/coin-mixer-poc/dapp/contracts/Enigma.sol",
  "compiler": {
    "name": "solc",
    "version": "0.4.19+commit.c4cbbb05.Emscripten.clang"
  },
  "schemaVersion": "2.0.0",
  "updatedAt": "2018-04-06T22:41:02.568Z"
}