{
  "contractName": "Enigma",
  "abi": [
    {
      "inputs": [],
      "payable": false,
      "stateMutability": "nonpayable",
      "type": "constructor"
    },
    {
      "anonymous": false,
      "inputs": [
        {
          "indexed": false,
          "name": "user",
          "type": "address"
        },
        {
          "indexed": false,
          "name": "pkey",
          "type": "bytes32"
        },
        {
          "indexed": false,
          "name": "rate",
          "type": "uint256"
        },
        {
          "indexed": false,
          "name": "_success",
          "type": "bool"
        }
      ],
      "name": "Register",
      "type": "event"
    },
    {
      "anonymous": false,
      "inputs": [
        {
          "indexed": false,
          "name": "user",
          "type": "address"
        },
        {
          "indexed": false,
          "name": "rate",
          "type": "uint256"
        },
        {
          "indexed": false,
          "name": "_success",
          "type": "bool"
        }
      ],
      "name": "UpdateRate",
      "type": "event"
    },
    {
      "anonymous": false,
      "inputs": [
        {
          "indexed": false,
          "name": "secretContract",
          "type": "address"
        },
        {
          "indexed": false,
          "name": "user",
          "type": "address"
        },
        {
          "indexed": false,
          "name": "amount",
          "type": "uint256"
        },
        {
          "indexed": false,
          "name": "balance",
          "type": "uint256"
        },
        {
          "indexed": false,
          "name": "_success",
          "type": "bool"
        }
      ],
      "name": "Deposit",
      "type": "event"
    },
    {
      "anonymous": false,
      "inputs": [
        {
          "indexed": false,
          "name": "user",
          "type": "address"
        },
        {
          "indexed": false,
          "name": "amount",
          "type": "uint256"
        },
        {
          "indexed": false,
          "name": "balance",
          "type": "uint256"
        },
        {
          "indexed": false,
          "name": "_success",
          "type": "bool"
        }
      ],
      "name": "Withdraw",
      "type": "event"
    },
    {
      "anonymous": false,
      "inputs": [
        {
          "indexed": false,
          "name": "secretContract",
          "type": "address"
        },
        {
          "indexed": false,
          "name": "worker",
          "type": "address"
        },
        {
          "indexed": false,
          "name": "proof",
          "type": "bytes32"
        },
        {
          "indexed": false,
          "name": "reward",
          "type": "uint256"
        },
        {
          "indexed": false,
          "name": "_success",
          "type": "bool"
        }
      ],
      "name": "SolveTask",
      "type": "event"
    },
    {
      "anonymous": false,
      "inputs": [
        {
          "indexed": false,
          "name": "callingContract",
          "type": "address"
        },
        {
          "indexed": false,
          "name": "taskId",
          "type": "uint256"
        },
        {
          "indexed": false,
          "name": "callable",
          "type": "bytes32"
        },
        {
          "indexed": false,
          "name": "callableArgs",
          "type": "bytes32[]"
        },
        {
          "indexed": false,
          "name": "callback",
          "type": "bytes32"
        },
        {
          "indexed": false,
          "name": "max_fee",
          "type": "uint256"
        },
        {
          "indexed": false,
          "name": "_success",
          "type": "bool"
        }
      ],
      "name": "ComputeTask",
      "type": "event"
    },
    {
      "constant": false,
      "inputs": [
        {
          "name": "pkey",
          "type": "bytes32"
        },
        {
          "name": "quote",
          "type": "bytes32"
        },
        {
          "name": "rate",
          "type": "uint256"
        }
      ],
      "name": "register",
      "outputs": [
        {
          "name": "",
          "type": "uint8"
        }
      ],
      "payable": false,
      "stateMutability": "nonpayable",
      "type": "function"
    },
    {
      "constant": false,
      "inputs": [],
      "name": "login",
      "outputs": [
        {
          "name": "",
          "type": "uint8"
        }
      ],
      "payable": false,
      "stateMutability": "nonpayable",
      "type": "function"
    },
    {
      "constant": false,
      "inputs": [],
      "name": "logout",
      "outputs": [
        {
          "name": "",
          "type": "uint8"
        }
      ],
      "payable": false,
      "stateMutability": "nonpayable",
      "type": "function"
    },
    {
      "constant": false,
      "inputs": [
        {
          "name": "rate",
          "type": "uint256"
        }
      ],
      "name": "updateRate",
      "outputs": [
        {
          "name": "",
          "type": "uint8"
        }
      ],
      "payable": false,
      "stateMutability": "nonpayable",
      "type": "function"
    },
    {
      "constant": false,
      "inputs": [
        {
          "name": "amount",
          "type": "uint256"
        }
      ],
      "name": "withdraw",
      "outputs": [
        {
          "name": "",
          "type": "uint8"
        }
      ],
      "payable": false,
      "stateMutability": "nonpayable",
      "type": "function"
    },
    {
      "constant": false,
      "inputs": [
        {
          "name": "user",
          "type": "address"
        },
        {
          "name": "secretContract",
          "type": "address"
        },
        {
          "name": "callable",
          "type": "bytes32"
        },
        {
          "name": "callableArgs",
          "type": "bytes32[]"
        },
        {
          "name": "callback",
          "type": "bytes32"
        }
      ],
      "name": "compute",
      "outputs": [
        {
          "name": "",
          "type": "uint8"
        }
      ],
      "payable": true,
      "stateMutability": "payable",
      "type": "function"
    },
    {
      "constant": false,
      "inputs": [
        {
          "name": "secretContract",
          "type": "address"
        },
        {
          "name": "taskId",
          "type": "uint256"
        },
        {
          "name": "proof",
          "type": "bytes32"
        }
      ],
      "name": "solveTask",
      "outputs": [
        {
          "name": "",
          "type": "uint8"
        }
      ],
      "payable": false,
      "stateMutability": "nonpayable",
      "type": "function"
    },
    {
      "constant": true,
      "inputs": [],
      "name": "listActiveWorkers",
      "outputs": [
        {
          "name": "",
          "type": "address[]"
        }
      ],
      "payable": false,
      "stateMutability": "view",
      "type": "function"
    },
    {
      "constant": true,
      "inputs": [
        {
          "name": "user",
          "type": "address"
        }
      ],
      "name": "getWorkerData",
      "outputs": [
        {
          "name": "",
          "type": "bytes32[5]"
        }
      ],
      "payable": false,
      "stateMutability": "view",
      "type": "function"
    }
  ],
  "bytecode": "0x6060604052341561000f57600080fd5b6117fe8061001e6000396000f300606060405260043610610099576000357c0100000000000000000000000000000000000000000000000000000000900463ffffffff1680631f3c99c31461009e57806323115ebc146100d55780632e1a7d4d1461019e5780634073c0cc146101e357806369ea1771146102425780638a56e554146102875780639b1be9d8146102f8578063b34e97e814610362578063cbcca47214610399575b600080fd5b34156100a957600080fd5b6100b161040e565b604051808260018111156100c157fe5b60ff16815260200191505060405180910390f35b61017a600480803573ffffffffffffffffffffffffffffffffffffffff1690602001909190803573ffffffffffffffffffffffffffffffffffffffff16906020019091908035600019169060200190919080359060200190820180359060200190808060200260200160405190810160405280939291908181526020018383602002808284378201915050505050509190803560001916906020019091905050610511565b6040518082600181111561018a57fe5b60ff16815260200191505060405180910390f35b34156101a957600080fd5b6101bf6004808035906020019091905050610713565b604051808260018111156101cf57fe5b60ff16815260200191505060405180910390f35b34156101ee57600080fd5b61021e600480803560001916906020019091908035600019169060200190919080359060200190919050506108ff565b6040518082600181111561022e57fe5b60ff16815260200191505060405180910390f35b341561024d57600080fd5b6102636004808035906020019091905050610bb7565b6040518082600181111561027357fe5b60ff16815260200191505060405180910390f35b341561029257600080fd5b6102d4600480803573ffffffffffffffffffffffffffffffffffffffff1690602001909190803590602001909190803560001916906020019091905050610d89565b604051808260018111156102e457fe5b60ff16815260200191505060405180910390f35b341561030357600080fd5b61030b611189565b6040518080602001828103825283818151815260200191508051906020019060200280838360005b8381101561034e578082015181840152602081019050610333565b505050509050019250505060405180910390f35b341561036d57600080fd5b610375611351565b6040518082600181111561038557fe5b60ff16815260200191505060405180910390f35b34156103a457600080fd5b6103d0600480803573ffffffffffffffffffffffffffffffffffffffff16906020019091905050611453565b6040518082600560200280838360005b838110156103fb5780820151818401526020810190506103e0565b5050505090500191505060405180910390f35b60003361041961167c565b600160008373ffffffffffffffffffffffffffffffffffffffff1673ffffffffffffffffffffffffffffffffffffffff16815260200190815260200160002060a06040519081016040529081600082015460001916600019168152602001600182015460001916600019168152602001600282015481526020016003820154815260200160048201548152505090506000816000015160001916141515156104c057600080fd5b6000600160003373ffffffffffffffffffffffffffffffffffffffff1673ffffffffffffffffffffffffffffffffffffffff1681526020019081526020016000206004018190555060009250505090565b60008060003411151561052357600080fd5b600360008773ffffffffffffffffffffffffffffffffffffffff1673ffffffffffffffffffffffffffffffffffffffff168152602001908152602001600020805490509050600360008773ffffffffffffffffffffffffffffffffffffffff1673ffffffffffffffffffffffffffffffffffffffff16815260200190815260200160002080548091906001016105b991906116b2565b5034600360008873ffffffffffffffffffffffffffffffffffffffff1673ffffffffffffffffffffffffffffffffffffffff1681526020019081526020016000208281548110151561060757fe5b9060005260206000209060040201600301819055507f25206c146d529ac7942b0aa4d9f2062a7c0369a3734a94f7bdaac6adfadc77d68682878787346001604051808873ffffffffffffffffffffffffffffffffffffffff1673ffffffffffffffffffffffffffffffffffffffff168152602001878152602001866000191660001916815260200180602001856000191660001916815260200184815260200183151515158152602001828103825286818151815260200191508051906020019060200280838360005b838110156106ec5780820151818401526020810190506106d1565b505050509050019850505050505050505060405180910390a1600091505095945050505050565b6000803361071f61167c565b600160008373ffffffffffffffffffffffffffffffffffffffff1673ffffffffffffffffffffffffffffffffffffffff16815260200190815260200160002060a06040519081016040529081600082015460001916600019168152602001600182015460001916600019168152602001600282015481526020016003820154815260200160048201548152505090506000816000015160001916141515156107c657600080fd5b600160003373ffffffffffffffffffffffffffffffffffffffff1673ffffffffffffffffffffffffffffffffffffffff168152602001908152602001600020925084836002015411151561081957600080fd5b61082783600201548661162a565b83600201819055503373ffffffffffffffffffffffffffffffffffffffff166108fc869081150290604051600060405180830381858888f19350505050151561086f57600080fd5b7fb97e775637eca8401af330efee0810af7079bafae27761741e09caa14db8d272338685600201546001604051808573ffffffffffffffffffffffffffffffffffffffff1673ffffffffffffffffffffffffffffffffffffffff1681526020018481526020018381526020018215151515815260200194505050505060405180910390a160009350505050919050565b600080600160003373ffffffffffffffffffffffffffffffffffffffff1673ffffffffffffffffffffffffffffffffffffffff168152602001908152602001600020600001546000191614151561095557600080fd5b6000805480600101828161096991906116e4565b9160005260206000209001600033909190916101000a81548173ffffffffffffffffffffffffffffffffffffffff021916908373ffffffffffffffffffffffffffffffffffffffff1602179055505083600160003373ffffffffffffffffffffffffffffffffffffffff1673ffffffffffffffffffffffffffffffffffffffff168152602001908152602001600020600001816000191690555082600160003373ffffffffffffffffffffffffffffffffffffffff1673ffffffffffffffffffffffffffffffffffffffff168152602001908152602001600020600101816000191690555034600160003373ffffffffffffffffffffffffffffffffffffffff1673ffffffffffffffffffffffffffffffffffffffff1681526020019081526020016000206002018190555081600160003373ffffffffffffffffffffffffffffffffffffffff1673ffffffffffffffffffffffffffffffffffffffff168152602001908152602001600020600301819055506000600160003373ffffffffffffffffffffffffffffffffffffffff1673ffffffffffffffffffffffffffffffffffffffff168152602001908152602001600020600401819055507fd3d32373438cb161f87a4667ec36f1c4a59bdfeec5088c2cb9a9c1912f0b93243385846001604051808573ffffffffffffffffffffffffffffffffffffffff1673ffffffffffffffffffffffffffffffffffffffff16815260200184600019166000191681526020018381526020018215151515815260200194505050505060405180910390a1600090509392505050565b600033610bc261167c565b600160008373ffffffffffffffffffffffffffffffffffffffff1673ffffffffffffffffffffffffffffffffffffffff16815260200190815260200160002060a0604051908101604052908160008201546000191660001916815260200160018201546000191660001916815260200160028201548152602001600382015481526020016004820154815250509050600081600001516000191614151515610c6957600080fd5b6000600160003373ffffffffffffffffffffffffffffffffffffffff1673ffffffffffffffffffffffffffffffffffffffff168152602001908152602001600020600001546000191614151515610cbf57600080fd5b83600160003373ffffffffffffffffffffffffffffffffffffffff1673ffffffffffffffffffffffffffffffffffffffff168152602001908152602001600020600301819055507f19359d2f6b502eb32089e4e6ea2cb9e909793f252bcc6cdc1b5b54aeff348dde33856001604051808473ffffffffffffffffffffffffffffffffffffffff1673ffffffffffffffffffffffffffffffffffffffff16815260200183815260200182151515158152602001935050505060405180910390a1600092505050919050565b600080600033610d9761167c565b600160008373ffffffffffffffffffffffffffffffffffffffff1673ffffffffffffffffffffffffffffffffffffffff16815260200190815260200160002060a0604051908101604052908160008201546000191660001916815260200160018201546000191660001916815260200160028201548152602001600382015481526020016004820154815250509050600081600001516000191614151515610e3e57600080fd5b600073ffffffffffffffffffffffffffffffffffffffff16600360008a73ffffffffffffffffffffffffffffffffffffffff1673ffffffffffffffffffffffffffffffffffffffff16815260200190815260200160002088815481101515610ea257fe5b906000526020600020906004020160010160009054906101000a900473ffffffffffffffffffffffffffffffffffffffff1673ffffffffffffffffffffffffffffffffffffffff16141515610ef657600080fd5b600360008973ffffffffffffffffffffffffffffffffffffffff1673ffffffffffffffffffffffffffffffffffffffff16815260200190815260200160002087815481101515610f4257fe5b9060005260206000209060040201600301549350600084111515610f6557600080fd5b33600360008a73ffffffffffffffffffffffffffffffffffffffff1673ffffffffffffffffffffffffffffffffffffffff16815260200190815260200160002088815481101515610fb257fe5b906000526020600020906004020160010160006101000a81548173ffffffffffffffffffffffffffffffffffffffff021916908373ffffffffffffffffffffffffffffffffffffffff16021790555085600360008a73ffffffffffffffffffffffffffffffffffffffff1673ffffffffffffffffffffffffffffffffffffffff1681526020019081526020016000208881548110151561104e57fe5b90600052602060002090600402016002018160001916905550600160003373ffffffffffffffffffffffffffffffffffffffff1673ffffffffffffffffffffffffffffffffffffffff16815260200190815260200160002092506110b6836002015485611643565b83600201819055507fa62aa8778d262744a8ae146c7ab51ab46a86e7febad7f1a9c716cb48ccabc0ae883388876001604051808673ffffffffffffffffffffffffffffffffffffffff1673ffffffffffffffffffffffffffffffffffffffff1681526020018573ffffffffffffffffffffffffffffffffffffffff1673ffffffffffffffffffffffffffffffffffffffff1681526020018460001916600019168152602001838152602001821515151581526020019550505050505060405180910390a160009450505050509392505050565b611191611710565b611199611710565b60006111a361167c565b6000805490506040518059106111b65750595b90808252806020026020018201604052509250600091505b600080549050821015611348576001600080848154811015156111ed57fe5b906000526020600020900160009054906101000a900473ffffffffffffffffffffffffffffffffffffffff1673ffffffffffffffffffffffffffffffffffffffff1673ffffffffffffffffffffffffffffffffffffffff16815260200190815260200160002060a0604051908101604052908160008201546000191660001916815260200160018201546000191660001916815260200160028201548152602001600382015481526020016004820154815250509050600081600001516000191614151561133b576000828154811015156112c457fe5b906000526020600020900160009054906101000a900473ffffffffffffffffffffffffffffffffffffffff1683838151811015156112fe57fe5b9060200190602002019073ffffffffffffffffffffffffffffffffffffffff16908173ffffffffffffffffffffffffffffffffffffffff16815250505b81806001019250506111ce565b82935050505090565b60003361135c61167c565b600160008373ffffffffffffffffffffffffffffffffffffffff1673ffffffffffffffffffffffffffffffffffffffff16815260200190815260200160002060a060405190810160405290816000820154600019166000191681526020016001820154600019166000191681526020016002820154815260200160038201548152602001600482015481525050905060008160000151600019161415151561140357600080fd5b60018060003373ffffffffffffffffffffffffffffffffffffffff1673ffffffffffffffffffffffffffffffffffffffff1681526020019081526020016000206004018190555060009250505090565b61145b611724565b61146361167c565b60008060003361147161167c565b600160008373ffffffffffffffffffffffffffffffffffffffff1673ffffffffffffffffffffffffffffffffffffffff16815260200190815260200160002060a060405190810160405290816000820154600019166000191681526020016001820154600019166000191681526020016002820154815260200160038201548152602001600482015481525050905060008160000151600019161415151561151857600080fd5b600160008973ffffffffffffffffffffffffffffffffffffffff1673ffffffffffffffffffffffffffffffffffffffff16815260200190815260200160002060a060405190810160405290816000820154600019166000191681526020016001820154600019166000191681526020016002820154815260200160038201548152602001600482015481525050955085604001516001029450856060015160010293508560800151600102925060a060405190810160405280876000015160001916600019168152602001876020015160001916600019168152602001866000191660001916815260200185600019166000191681526020018460001916600019168152509650505050505050919050565b60006116388383111561166d565b818303905092915050565b600080828401905061166384821015801561165e5750838210155b61166d565b8091505092915050565b80151561167957600080fd5b50565b60a06040519081016040528060008019168152602001600080191681526020016000815260200160008152602001600081525090565b8154818355818115116116df576004028160040283600052602060002091820191016116de919061174f565b5b505050565b81548183558181151161170b5781836000526020600020918201910161170a91906117ad565b5b505050565b602060405190810160405280600081525090565b60a0604051908101604052806005905b60008019168152602001906001900390816117345790505090565b6117aa91905b808211156117a6576000808201600090556001820160006101000a81549073ffffffffffffffffffffffffffffffffffffffff02191690556002820160009055600382016000905550600401611755565b5090565b90565b6117cf91905b808211156117cb5760008160009055506001016117b3565b5090565b905600a165627a7a72305820077b97456f35ec82c6eef58c5e4d644c0547c89b8d6152c51020da3b54ee36fe0029",
  "source": "pragma solidity ^0.4.19;\n\ncontract SafeMath {\n    function safeMul(uint a, uint b) internal returns (uint) {\n        uint c = a * b;\n        assert(a == 0 || c / a == b);\n        return c;\n    }\n\n    function safeSub(uint a, uint b) internal returns (uint) {\n        assert(b <= a);\n        return a - b;\n    }\n\n    function safeAdd(uint a, uint b) internal returns (uint) {\n        uint c = a + b;\n        assert(c >= a && c >= b);\n        return c;\n    }\n\n    function assert(bool assertion) internal {\n        if (!assertion) throw;\n    }\n}\n\ncontract Enigma is SafeMath {\n    struct Task {\n        uint taskId;\n        address worker;\n        bytes32 proof;\n        uint reward;\n    }\n\n    struct Worker {\n        bytes32 pkey;\n        bytes32 quote;\n        uint balance;\n        uint rate;\n        uint status;\n    }\n\n    address[] _workerIndex;\n    mapping(address => Worker) _workers;\n\n    address[] _contractIndex;\n    mapping(address => Task[]) _tasks;\n\n    event Register(address user, bytes32 pkey, uint rate, bool _success);\n    event UpdateRate(address user, uint rate, bool _success);\n    event Deposit(address secretContract, address user, uint amount, uint balance, bool _success);\n    event Withdraw(address user, uint amount, uint balance, bool _success);\n    event SolveTask(address secretContract, address worker, bytes32 proof, uint reward, bool _success);\n\n    // Enigma computation task\n    event ComputeTask(address callingContract, uint taskId, bytes32 callable, bytes32[] callableArgs, bytes32 callback, uint max_fee, bool _success);\n\n    enum ReturnValue {Ok, Error}\n\n    function Enigma() public {\n\n    }\n\n    modifier workerRegistered(address user) {\n        Worker memory worker = _workers[user];\n        require(worker.pkey != \"\");\n        _;\n    }\n\n    function register(bytes32 pkey, bytes32 quote, uint rate)\n    public\n    returns (ReturnValue) {\n        // Register a new worker and collect stake\n        require(_workers[msg.sender].pkey == \"\");\n\n        _workerIndex.push(msg.sender);\n\n        _workers[msg.sender].pkey = pkey;\n        _workers[msg.sender].quote = quote;\n        _workers[msg.sender].balance = msg.value;\n        _workers[msg.sender].rate = rate;\n        _workers[msg.sender].status = 0;\n\n        Register(msg.sender, pkey, rate, true);\n\n        return ReturnValue.Ok;\n    }\n\n    function login()\n    public\n    workerRegistered(msg.sender)\n    returns (ReturnValue) {\n        // A worker accepts tasks\n        _workers[msg.sender].status = 1;\n\n        return ReturnValue.Ok;\n    }\n\n    function logout()\n    public\n    workerRegistered(msg.sender)\n    returns (ReturnValue) {\n        // A worker stops accepting tasks\n        _workers[msg.sender].status = 0;\n\n        return ReturnValue.Ok;\n    }\n\n    function updateRate(uint rate)\n    public\n    workerRegistered(msg.sender)\n    returns (ReturnValue) {\n        // Update the ENG/GAS rate\n        require(_workers[msg.sender].pkey != \"\");\n\n        _workers[msg.sender].rate = rate;\n\n        UpdateRate(msg.sender, rate, true);\n\n        return ReturnValue.Ok;\n    }\n\n    function withdraw(uint amount)\n    public\n    workerRegistered(msg.sender)\n    returns (ReturnValue) {\n        // Withdraw from stake and rewards balance\n        Worker storage worker = _workers[msg.sender];\n        require(worker.balance > amount);\n\n        worker.balance = safeSub(worker.balance, amount);\n        msg.sender.transfer(amount);\n\n        Withdraw(msg.sender, amount, worker.balance, true);\n\n        return ReturnValue.Ok;\n    }\n\n    function compute(address user, address secretContract, bytes32 callable, bytes32[] callableArgs, bytes32 callback)\n    public\n    payable\n    returns (ReturnValue) {\n        require(msg.value > 0);\n\n        // Each task invoked by a contract has a sequential id\n        uint taskId = _tasks[secretContract].length;\n        _tasks[secretContract].length++;\n        _tasks[secretContract][taskId].reward = msg.value;\n\n        // Emit the ComputeTask event which each node is watching for\n        ComputeTask(secretContract, taskId, callable, callableArgs, callback, msg.value, true);\n\n        return ReturnValue.Ok;\n    }\n\n    function solveTask(address secretContract, uint taskId, bytes32 proof)\n    public\n    workerRegistered(msg.sender)\n    returns (ReturnValue) {\n        // Task must be solved only once\n        require(_tasks[secretContract][taskId].worker == address(0));\n\n        // The contract must hold enough fund to distribute reward\n        uint reward = _tasks[secretContract][taskId].reward;\n        require(reward > 0);\n\n        // Keep a trace of the task worker and proof\n        _tasks[secretContract][taskId].worker = msg.sender;\n        _tasks[secretContract][taskId].proof = proof;\n\n        // Put the reward in the worker's bank\n        // He can withdraw later\n        Worker storage worker = _workers[msg.sender];\n        worker.balance = safeAdd(worker.balance, reward);\n\n        SolveTask(secretContract, msg.sender, proof, reward, true);\n\n        return ReturnValue.Ok;\n    }\n\n    ////////////////////////////////////////////////////////////////////////////////////////\n    //VIEWS/////////////////////////////////////////////////////////////////////////////////\n    ////////////////////////////////////////////////////////////////////////////////////////\n\n    function listActiveWorkers() public view returns (address[]) {\n        //Returns a list of all active workers\n        address[] memory keys = new address[](_workerIndex.length);\n        for (uint i = 0; i < _workerIndex.length; i++) {\n            // Filter out inactive workers\n            Worker memory worker = _workers[_workerIndex[i]];\n            if (worker.pkey != \"\") {\n                keys[i] = _workerIndex[i];\n            }\n        }\n        return keys;\n    }\n\n    function getWorkerData(address user)\n    public\n    view\n    workerRegistered(msg.sender)\n    returns (bytes32[5]){\n        // Returns data about the specified worker\n        Worker memory worker = _workers[user];\n\n        bytes32 strBalance = bytes32(worker.balance);\n        bytes32 strRate = bytes32(worker.rate);\n        bytes32 strStatus = bytes32(worker.status);\n\n        return [worker.pkey, worker.quote, strBalance, strRate, strStatus];\n    }\n}\n",
  "sourcePath": "/Users/fredfortier/Code/enigma/coin-mixer-poc/dapp/contracts/Enigma.sol",
  "compiler": {
    "name": "solc",
    "version": "0.4.19+commit.c4cbbb05.Emscripten.clang"
  },
  "schemaVersion": "2.0.0",
  "updatedAt": "2018-04-06T23:55:59.079Z"
}