{
  "contractName": "Enigma",
  "abi": [
    {
      "constant": true,
      "inputs": [
        {
          "name": "",
          "type": "uint256"
        }
      ],
      "name": "workerIndex",
      "outputs": [
        {
          "name": "",
          "type": "address"
        }
      ],
      "payable": false,
      "stateMutability": "view",
      "type": "function"
    },
    {
      "constant": true,
      "inputs": [
        {
          "name": "",
          "type": "address"
        }
      ],
      "name": "workers",
      "outputs": [
        {
          "name": "url",
          "type": "bytes32"
        },
        {
          "name": "pkey",
          "type": "string"
        },
        {
          "name": "quote",
          "type": "string"
        },
        {
          "name": "balance",
          "type": "uint256"
        },
        {
          "name": "status",
          "type": "uint256"
        }
      ],
      "payable": false,
      "stateMutability": "view",
      "type": "function"
    },
    {
      "constant": true,
      "inputs": [
        {
          "name": "",
          "type": "address"
        },
        {
          "name": "",
          "type": "uint256"
        }
      ],
      "name": "tasks",
      "outputs": [
        {
          "name": "callable",
          "type": "bytes32"
        },
        {
          "name": "callback",
          "type": "bytes32"
        },
        {
          "name": "worker",
          "type": "address"
        },
        {
          "name": "sig",
          "type": "bytes"
        },
        {
          "name": "reward",
          "type": "uint256"
        }
      ],
      "payable": false,
      "stateMutability": "view",
      "type": "function"
    },
    {
      "constant": true,
      "inputs": [],
      "name": "engToken",
      "outputs": [
        {
          "name": "",
          "type": "address"
        }
      ],
      "payable": false,
      "stateMutability": "view",
      "type": "function"
    },
    {
      "inputs": [
        {
          "name": "_tokenAddress",
          "type": "address"
        }
      ],
      "payable": false,
      "stateMutability": "nonpayable",
      "type": "constructor"
    },
    {
      "anonymous": false,
      "inputs": [
        {
          "indexed": false,
          "name": "url",
          "type": "bytes32"
        },
        {
          "indexed": false,
          "name": "user",
          "type": "address"
        },
        {
          "indexed": false,
          "name": "pkey",
          "type": "string"
        },
        {
          "indexed": false,
          "name": "_success",
          "type": "bool"
        }
      ],
      "name": "Register",
      "type": "event"
    },
    {
      "anonymous": false,
      "inputs": [
        {
          "indexed": false,
          "name": "user",
          "type": "address"
        },
        {
          "indexed": false,
          "name": "_success",
          "type": "bool"
        }
      ],
      "name": "Logout",
      "type": "event"
    },
    {
      "anonymous": false,
      "inputs": [
        {
          "indexed": false,
          "name": "sig",
          "type": "bytes"
        },
        {
          "indexed": false,
          "name": "hash",
          "type": "bytes32"
        },
        {
          "indexed": false,
          "name": "workerAddr",
          "type": "address"
        },
        {
          "indexed": false,
          "name": "bytecode",
          "type": "bytes"
        },
        {
          "indexed": false,
          "name": "parts",
          "type": "bytes32[]"
        },
        {
          "indexed": false,
          "name": "_success",
          "type": "bool"
        }
      ],
      "name": "ValidateSig",
      "type": "event"
    },
    {
      "anonymous": false,
      "inputs": [
        {
          "indexed": false,
          "name": "secretContract",
          "type": "address"
        },
        {
          "indexed": false,
          "name": "worker",
          "type": "address"
        },
        {
          "indexed": false,
          "name": "sig",
          "type": "bytes"
        },
        {
          "indexed": false,
          "name": "reward",
          "type": "uint256"
        },
        {
          "indexed": false,
          "name": "_success",
          "type": "bool"
        }
      ],
      "name": "SolveTask",
      "type": "event"
    },
    {
      "anonymous": false,
      "inputs": [
        {
          "indexed": false,
          "name": "callingContract",
          "type": "address"
        },
        {
          "indexed": false,
          "name": "taskId",
          "type": "uint256"
        },
        {
          "indexed": false,
          "name": "callable",
          "type": "bytes32"
        },
        {
          "indexed": false,
          "name": "callableArgs",
          "type": "bytes32[]"
        },
        {
          "indexed": false,
          "name": "callback",
          "type": "bytes32"
        },
        {
          "indexed": false,
          "name": "fee",
          "type": "uint256"
        },
        {
          "indexed": false,
          "name": "preprocessors",
          "type": "bytes32[]"
        },
        {
          "indexed": false,
          "name": "_success",
          "type": "bool"
        }
      ],
      "name": "ComputeTask",
      "type": "event"
    },
    {
      "constant": false,
      "inputs": [
        {
          "name": "url",
          "type": "bytes32"
        },
        {
          "name": "pkey",
          "type": "string"
        },
        {
          "name": "quote",
          "type": "string"
        }
      ],
      "name": "register",
      "outputs": [
        {
          "name": "",
          "type": "uint8"
        }
      ],
      "payable": true,
      "stateMutability": "payable",
      "type": "function"
    },
    {
      "constant": false,
      "inputs": [],
      "name": "logout",
      "outputs": [
        {
          "name": "",
          "type": "uint8"
        }
      ],
      "payable": false,
      "stateMutability": "nonpayable",
      "type": "function"
    },
    {
      "constant": false,
      "inputs": [
        {
          "name": "secretContract",
          "type": "address"
        },
        {
          "name": "callable",
          "type": "bytes32"
        },
        {
          "name": "callableArgs",
          "type": "bytes32[]"
        },
        {
          "name": "callback",
          "type": "bytes32"
        },
        {
          "name": "preprocessors",
          "type": "bytes32[]"
        }
      ],
      "name": "compute",
      "outputs": [
        {
          "name": "",
          "type": "uint8"
        }
      ],
      "payable": true,
      "stateMutability": "payable",
      "type": "function"
    },
    {
      "constant": false,
      "inputs": [
        {
          "name": "data",
          "type": "bytes32[]"
        }
      ],
      "name": "bytes32ArrayToBytes",
      "outputs": [
        {
          "name": "",
          "type": "bytes"
        }
      ],
      "payable": false,
      "stateMutability": "nonpayable",
      "type": "function"
    },
    {
      "constant": false,
      "inputs": [
        {
          "name": "secretContract",
          "type": "address"
        },
        {
          "name": "taskId",
          "type": "uint256"
        },
        {
          "name": "results",
          "type": "bytes32[]"
        },
        {
          "name": "sig",
          "type": "bytes"
        }
      ],
      "name": "solveTask",
      "outputs": [
        {
          "name": "",
          "type": "uint8"
        }
      ],
      "payable": false,
      "stateMutability": "nonpayable",
      "type": "function"
    }
  ],
  "bytecode": "0x608060405234801561001057600080fd5b50604051602080612a2783398101806040528101908080519060200190929190505050806000806101000a81548173ffffffffffffffffffffffffffffffffffffffff021916908373ffffffffffffffffffffffffffffffffffffffff160217905550506129a4806100836000396000f300608060405260043610610099576000357c0100000000000000000000000000000000000000000000000000000000900463ffffffff1680630a2bbf6c1461009e5780631f3c99c31461010b5780634048a2571461014457806358fd6aec146102895780637149d2e41461035b5780639489ad401461047957806395e24b0f146104d0578063a475b3c0146105af578063fb2476fd146106a7575b600080fd5b3480156100aa57600080fd5b506100c9600480360381019080803590602001909291905050506107a1565b604051808273ffffffffffffffffffffffffffffffffffffffff1673ffffffffffffffffffffffffffffffffffffffff16815260200191505060405180910390f35b34801561011757600080fd5b506101206107df565b6040518082600181111561013057fe5b60ff16815260200191505060405180910390f35b34801561015057600080fd5b50610185600480360381019080803573ffffffffffffffffffffffffffffffffffffffff169060200190929190505050610add565b6040518086600019166000191681526020018060200180602001858152602001848152602001838103835287818151815260200191508051906020019080838360005b838110156101e35780820151818401526020810190506101c8565b50505050905090810190601f1680156102105780820380516001836020036101000a031916815260200191505b50838103825286818151815260200191508051906020019080838360005b8381101561024957808201518184015260208101905061022e565b50505050905090810190601f1680156102765780820380516001836020036101000a031916815260200191505b5097505050505050505060405180910390f35b6103376004803603810190808035600019169060200190929190803590602001908201803590602001908080601f0160208091040260200160405190810160405280939291908181526020018383808284378201915050505050509192919290803590602001908201803590602001908080601f0160208091040260200160405190810160405280939291908181526020018383808284378201915050505050509192919290505050610c43565b6040518082600181111561034757fe5b60ff16815260200191505060405180910390f35b34801561036757600080fd5b506103a6600480360381019080803573ffffffffffffffffffffffffffffffffffffffff16906020019092919080359060200190929190505050610f2b565b60405180866000191660001916815260200185600019166000191681526020018473ffffffffffffffffffffffffffffffffffffffff1673ffffffffffffffffffffffffffffffffffffffff16815260200180602001838152602001828103825284818151815260200191508051906020019080838360005b8381101561043a57808201518184015260208101905061041f565b50505050905090810190601f1680156104675780820380516001836020036101000a031916815260200191505b50965050505050505060405180910390f35b34801561048557600080fd5b5061048e611035565b604051808273ffffffffffffffffffffffffffffffffffffffff1673ffffffffffffffffffffffffffffffffffffffff16815260200191505060405180910390f35b3480156104dc57600080fd5b506105346004803603810190808035906020019082018035906020019080806020026020016040519081016040528093929190818152602001838360200280828437820191505050505050919291929050505061105a565b6040518080602001828103825283818151815260200191508051906020019080838360005b83811015610574578082015181840152602081019050610559565b50505050905090810190601f1680156105a15780820380516001836020036101000a031916815260200191505b509250505060405180910390f35b3480156105bb57600080fd5b50610683600480360381019080803573ffffffffffffffffffffffffffffffffffffffff1690602001909291908035906020019092919080359060200190820180359060200190808060200260200160405190810160405280939291908181526020018383602002808284378201915050505050509192919290803590602001908201803590602001908080601f0160208091040260200160405190810160405280939291908181526020018383808284378201915050505050509192919290505050611287565b6040518082600181111561069357fe5b60ff16815260200191505060405180910390f35b61077d600480360381019080803573ffffffffffffffffffffffffffffffffffffffff169060200190929190803560001916906020019092919080359060200190820180359060200190808060200260200160405190810160405280939291908181526020018383602002808284378201915050505050509192919290803560001916906020019092919080359060200190820180359060200190808060200260200160405190810160405280939291908181526020018383602002808284378201915050505050509192919290505050611b82565b6040518082600181111561078d57fe5b60ff16815260200191505060405180910390f35b6001818154811015156107b057fe5b906000526020600020016000915054906101000a900473ffffffffffffffffffffffffffffffffffffffff1681565b6000336107ea61270f565b600260008373ffffffffffffffffffffffffffffffffffffffff1673ffffffffffffffffffffffffffffffffffffffff16815260200190815260200160002060a06040519081016040529081600082015460001916600019168152602001600182018054600181600116156101000203166002900480601f0160208091040260200160405190810160405280929190818152602001828054600181600116156101000203166002900480156108e05780601f106108b5576101008083540402835291602001916108e0565b820191906000526020600020905b8154815290600101906020018083116108c357829003601f168201915b50505050508152602001600282018054600181600116156101000203166002900480601f0160208091040260200160405190810160405280929190818152602001828054600181600116156101000203166002900480156109825780601f1061095757610100808354040283529160200191610982565b820191906000526020600020905b81548152906001019060200180831161096557829003601f168201915b5050505050815260200160038201548152602001600482015481525050905060008160800151111515610a1d576040517f08c379a00000000000000000000000000000000000000000000000000000000081526004018080602001828103825260148152602001807f556e7265676973746572656420776f726b65722e00000000000000000000000081525060200191505060405180910390fd5b60028060003373ffffffffffffffffffffffffffffffffffffffff1673ffffffffffffffffffffffffffffffffffffffff168152602001908152602001600020600401819055507f142855c2ec5b59c44b6edd425942f19ba27545104b30ca9ee3e92c5d5135bf60336001604051808373ffffffffffffffffffffffffffffffffffffffff1673ffffffffffffffffffffffffffffffffffffffff168152602001821515151581526020019250505060405180910390a160009250505090565b6002602052806000526040600020600091509050806000015490806001018054600181600116156101000203166002900480601f016020809104026020016040519081016040528092919081815260200182805460018160011615610100020316600290048015610b8f5780601f10610b6457610100808354040283529160200191610b8f565b820191906000526020600020905b815481529060010190602001808311610b7257829003601f168201915b505050505090806002018054600181600116156101000203166002900480601f016020809104026020016040519081016040528092919081815260200182805460018160011615610100020316600290048015610c2d5780601f10610c0257610100808354040283529160200191610c2d565b820191906000526020600020905b815481529060010190602001808311610c1057829003601f168201915b5050505050908060030154908060040154905085565b600060013390806001815401808255809150509060018203906000526020600020016000909192909190916101000a81548173ffffffffffffffffffffffffffffffffffffffff021916908373ffffffffffffffffffffffffffffffffffffffff1602179055505083600260003373ffffffffffffffffffffffffffffffffffffffff1673ffffffffffffffffffffffffffffffffffffffff168152602001908152602001600020600001816000191690555082600260003373ffffffffffffffffffffffffffffffffffffffff1673ffffffffffffffffffffffffffffffffffffffff1681526020019081526020016000206001019080519060200190610d4c929190612742565b5034600260003373ffffffffffffffffffffffffffffffffffffffff1673ffffffffffffffffffffffffffffffffffffffff1681526020019081526020016000206003018190555081600260003373ffffffffffffffffffffffffffffffffffffffff1673ffffffffffffffffffffffffffffffffffffffff1681526020019081526020016000206002019080519060200190610dea929190612742565b506001600260003373ffffffffffffffffffffffffffffffffffffffff1673ffffffffffffffffffffffffffffffffffffffff168152602001908152602001600020600401819055507fbb570a6aa44b19a60a37e95c6a1d83c308163559d39eb5a9dec14c081623887684338560016040518085600019166000191681526020018473ffffffffffffffffffffffffffffffffffffffff1673ffffffffffffffffffffffffffffffffffffffff1681526020018060200183151515158152602001828103825284818151815260200191508051906020019080838360005b83811015610ee3578082015181840152602081019050610ec8565b50505050905090810190601f168015610f105780820380516001836020036101000a031916815260200191505b509550505050505060405180910390a1600090509392505050565b600360205281600052604060002081815481101515610f4657fe5b9060005260206000209060060201600091509150508060000154908060020154908060030160009054906101000a900473ffffffffffffffffffffffffffffffffffffffff1690806004018054600181600116156101000203166002900480601f0160208091040260200160405190810160405280929190818152602001828054600181600116156101000203166002900480156110255780601f10610ffa57610100808354040283529160200191611025565b820191906000526020600020905b81548152906001019060200180831161100857829003601f168201915b5050505050908060050154905085565b6000809054906101000a900473ffffffffffffffffffffffffffffffffffffffff1681565b606080600080600080606060208851026040519080825280601f01601f19166020018201604052801561109c5781602001602082028038833980820191505090505b509550600093505b875184101561119257600092505b6020831015611185578260080260020a88858151811015156110d057fe5b906020019060200201516001900402600102915060007f010000000000000000000000000000000000000000000000000000000000000002827effffffffffffffffffffffffffffffffffffffffffffffffffffffffffffff19161415156111785781868681518110151561114157fe5b9060200101907effffffffffffffffffffffffffffffffffffffffffffffffffffffffffffff1916908160001a9053506001850194505b82806001019350506110b2565b83806001019450506110a4565b846040519080825280601f01601f1916602001820160405280156111c55781602001602082028038833980820191505090505b509050600093505b848410156112795785848151811015156111e357fe5b9060200101517f010000000000000000000000000000000000000000000000000000000000000090047f010000000000000000000000000000000000000000000000000000000000000002818581518110151561123c57fe5b9060200101907effffffffffffffffffffffffffffffffffffffffffffffffffffffffffffff1916908160001a90535083806001019450506111cd565b809650505050505050919050565b6000806000803361129661270f565b600260008373ffffffffffffffffffffffffffffffffffffffff1673ffffffffffffffffffffffffffffffffffffffff16815260200190815260200160002060a06040519081016040529081600082015460001916600019168152602001600182018054600181600116156101000203166002900480601f01602080910402602001604051908101604052809291908181526020018280546001816001161561010002031660029004801561138c5780601f106113615761010080835404028352916020019161138c565b820191906000526020600020905b81548152906001019060200180831161136f57829003601f168201915b50505050508152602001600282018054600181600116156101000203166002900480601f01602080910402602001604051908101604052809291908181526020018280546001816001161561010002031660029004801561142e5780601f106114035761010080835404028352916020019161142e565b820191906000526020600020905b81548152906001019060200180831161141157829003601f168201915b50505050508152602001600382015481526020016004820154815250509050600081608001511115156114c9576040517f08c379a00000000000000000000000000000000000000000000000000000000081526004018080602001828103825260148152602001807f556e7265676973746572656420776f726b65722e00000000000000000000000081525060200191505060405180910390fd5b600073ffffffffffffffffffffffffffffffffffffffff16600360008c73ffffffffffffffffffffffffffffffffffffffff1673ffffffffffffffffffffffffffffffffffffffff1681526020019081526020016000208a81548110151561152d57fe5b906000526020600020906006020160030160009054906101000a900473ffffffffffffffffffffffffffffffffffffffff1673ffffffffffffffffffffffffffffffffffffffff161415156115ea576040517f08c379a00000000000000000000000000000000000000000000000000000000081526004018080602001828103825260148152602001807f5461736b20616c726561647920736f6c7665642e00000000000000000000000081525060200191505060405180910390fd5b6117dd8a600360008d73ffffffffffffffffffffffffffffffffffffffff1673ffffffffffffffffffffffffffffffffffffffff1681526020019081526020016000208b81548110151561163a57fe5b906000526020600020906006020160c06040519081016040529081600082015460001916600019168152602001600182018054806020026020016040519081016040528092919081815260200182805480156116b957602002820191906000526020600020905b815460001916815260200190600101908083116116a1575b505050505081526020016002820154600019166000191681526020016003820160009054906101000a900473ffffffffffffffffffffffffffffffffffffffff1673ffffffffffffffffffffffffffffffffffffffff1673ffffffffffffffffffffffffffffffffffffffff168152602001600482018054600181600116156101000203166002900480601f0160208091040260200160405190810160405280929190818152602001828054600181600116156101000203166002900480156117c35780601f10611798576101008083540402835291602001916117c3565b820191906000526020600020905b8154815290600101906020018083116117a657829003601f168201915b505050505081526020016005820154815250508a8a6120fc565b9450600073ffffffffffffffffffffffffffffffffffffffff168573ffffffffffffffffffffffffffffffffffffffff1614151515611884576040517f08c379a000000000000000000000000000000000000000000000000000000000815260040180806020018281038252601d8152602001807f43616e6e6f74207665726966792074686973207369676e61747572652e00000081525060200191505060405180910390fd5b600360008b73ffffffffffffffffffffffffffffffffffffffff1673ffffffffffffffffffffffffffffffffffffffff168152602001908152602001600020898154811015156118d057fe5b906000526020600020906006020160050154935060008411151561195c576040517f08c379a00000000000000000000000000000000000000000000000000000000081526004018080602001828103825260168152602001807f5265776172642063616e6e6f74206265207a65726f2e0000000000000000000081525060200191505060405180910390fd5b33600360008c73ffffffffffffffffffffffffffffffffffffffff1673ffffffffffffffffffffffffffffffffffffffff1681526020019081526020016000208a8154811015156119a957fe5b906000526020600020906006020160030160006101000a81548173ffffffffffffffffffffffffffffffffffffffff021916908373ffffffffffffffffffffffffffffffffffffffff160217905550600260003373ffffffffffffffffffffffffffffffffffffffff1673ffffffffffffffffffffffffffffffffffffffff1681526020019081526020016000209250611a5084846003015461246590919063ffffffff16565b83600301819055507fb97c4ac64d6734ba4c9764b185f6d373ef9ee658bd188564c262e4e1a583fb7a8a3389876001604051808673ffffffffffffffffffffffffffffffffffffffff1673ffffffffffffffffffffffffffffffffffffffff1681526020018573ffffffffffffffffffffffffffffffffffffffff1673ffffffffffffffffffffffffffffffffffffffff1681526020018060200184815260200183151515158152602001828103825285818151815260200191508051906020019080838360005b83811015611b33578082015181840152602081019050611b18565b50505050905090810190601f168015611b605780820380516001836020036101000a031916815260200191505b50965050505050505060405180910390a1600095505050505050949350505050565b600080600360008873ffffffffffffffffffffffffffffffffffffffff1673ffffffffffffffffffffffffffffffffffffffff1681526020019081526020016000208054905090506000811415611dca57600360008873ffffffffffffffffffffffffffffffffffffffff1673ffffffffffffffffffffffffffffffffffffffff1681526020019081526020016000208054809190600101611c2491906127c2565b5034600360008973ffffffffffffffffffffffffffffffffffffffff1673ffffffffffffffffffffffffffffffffffffffff16815260200190815260200160002082815481101515611c7257fe5b90600052602060002090600602016005018190555085600360008973ffffffffffffffffffffffffffffffffffffffff1673ffffffffffffffffffffffffffffffffffffffff16815260200190815260200160002082815481101515611cd457fe5b9060005260206000209060060201600001816000191690555084600360008973ffffffffffffffffffffffffffffffffffffffff1673ffffffffffffffffffffffffffffffffffffffff16815260200190815260200160002082815481101515611d3a57fe5b90600052602060002090600602016001019080519060200190611d5e9291906127f4565b5083600360008973ffffffffffffffffffffffffffffffffffffffff1673ffffffffffffffffffffffffffffffffffffffff16815260200190815260200160002082815481101515611dac57fe5b90600052602060002090600602016002018160001916905550600190505b600360008873ffffffffffffffffffffffffffffffffffffffff1673ffffffffffffffffffffffffffffffffffffffff1681526020019081526020016000208054809190600101611e1b91906127c2565b5034600360008973ffffffffffffffffffffffffffffffffffffffff1673ffffffffffffffffffffffffffffffffffffffff16815260200190815260200160002082815481101515611e6957fe5b90600052602060002090600602016005018190555085600360008973ffffffffffffffffffffffffffffffffffffffff1673ffffffffffffffffffffffffffffffffffffffff16815260200190815260200160002082815481101515611ecb57fe5b9060005260206000209060060201600001816000191690555084600360008973ffffffffffffffffffffffffffffffffffffffff1673ffffffffffffffffffffffffffffffffffffffff16815260200190815260200160002082815481101515611f3157fe5b90600052602060002090600602016001019080519060200190611f559291906127f4565b5083600360008973ffffffffffffffffffffffffffffffffffffffff1673ffffffffffffffffffffffffffffffffffffffff16815260200190815260200160002082815481101515611fa357fe5b906000526020600020906006020160020181600019169055507fad2dd4e05af46b5cc4ebfe6c5efa0c24db15a2adb66a7a9507525613f572baca878288888834896001604051808973ffffffffffffffffffffffffffffffffffffffff1673ffffffffffffffffffffffffffffffffffffffff16815260200188815260200187600019166000191681526020018060200186600019166000191681526020018581526020018060200184151515158152602001838103835288818151815260200191508051906020019060200280838360005b83811015612091578082015181840152602081019050612076565b50505050905001838103825285818151815260200191508051906020019060200280838360005b838110156120d35780820151818401526020810190506120b8565b505050509050019a505050505050505050505060405180910390a1600091505095945050505050565b60006060806060600060606000806121138c612481565b96506121238b602001518b6124ac565b955061212e8661105a565b945084876040518083805190602001908083835b6020831015156121675780518252602082019150602081019050602083039250612142565b6001836020036101000a03801982511681845116808217855250505050505090500182805190602001908083835b6020831015156121ba5780518252602082019150602081019050602083039250612195565b6001836020036101000a03801982511681845116808217855250505050505090500192505050604051809103902093506040805190810160405280601c81526020017f19457468657265756d205369676e6564204d6573736167653a0a333200000000815250925082846040518083805190602001908083835b6020831015156122595780518252602082019150602081019050602083039250612234565b6001836020036101000a038019825116818451168082178552505050505050905001826000191660001916815260200192505050604051809103902091506122ae89836000191661261790919063ffffffff16565b90507f506243a72ffbbc1f8324d4382b694e74672ce9f67afe5771d58feb668e80dc4c8983838a8a6001604051808060200187600019166000191681526020018673ffffffffffffffffffffffffffffffffffffffff1673ffffffffffffffffffffffffffffffffffffffff16815260200180602001806020018515151515815260200184810384528a818151815260200191508051906020019080838360005b8381101561236a57808201518184015260208101905061234f565b50505050905090810190601f1680156123975780820380516001836020036101000a031916815260200191505b50848103835287818151815260200191508051906020019080838360005b838110156123d05780820151818401526020810190506123b5565b50505050905090810190601f1680156123fd5780820380516001836020036101000a031916815260200191505b50848103825286818151815260200191508051906020019060200280838360005b8381101561243957808201518184015260208101905061241e565b50505050905001995050505050505050505060405180910390a180975050505050505050949350505050565b6000818301905082811015151561247857fe5b80905092915050565b6060813b6040519150601f19601f602083010116820160405280825280600060208401853c50919050565b606060006060600080600086518851600101019450846040519080825280602002602001820160405280156124f05781602001602082028038833980820191505090505b50935060019250600091505b8751821015612580576000600102888381518110151561251857fe5b9060200190602002015160001916111561257357878281518110151561253a57fe5b90602001906020020151848481518110151561255257fe5b90602001906020020190600019169081600019168152505082806001019350505b81806001019250506124fc565b600090505b865181101561260957600060010287828151811015156125a157fe5b906020019060200201516000191611156125fc5786818151811015156125c357fe5b9060200190602002015184848151811015156125db57fe5b90602001906020020190600019169081600019168152505082806001019350505b8080600101915050612585565b839550505050505092915050565b600080600080604185511415156126315760009350612706565b6020850151925060408501519150606085015160001a9050601b8160ff16101561265c57601b810190505b601b8160ff16141580156126745750601c8160ff1614155b156126825760009350612706565b600186828585604051600081526020016040526040518085600019166000191681526020018460ff1660ff1681526020018360001916600019168152602001826000191660001916815260200194505050505060206040516020810390808403906000865af11580156126f9573d6000803e3d6000fd5b5050506020604051035193505b50505092915050565b60a06040519081016040528060008019168152602001606081526020016060815260200160008152602001600081525090565b828054600181600116156101000203166002900490600052602060002090601f016020900481019282601f1061278357805160ff19168380011785556127b1565b828001600101855582156127b1579182015b828111156127b0578251825591602001919060010190612795565b5b5090506127be9190612847565b5090565b8154818355818111156127ef576006028160060283600052602060002091820191016127ee919061286c565b5b505050565b828054828255906000526020600020908101928215612836579160200282015b82811115612835578251829060001916905591602001919060010190612814565b5b50905061284391906128ea565b5090565b61286991905b8082111561286557600081600090555060010161284d565b5090565b90565b6128e791905b808211156128e357600080820160009055600182016000612893919061290f565b60028201600090556003820160006101000a81549073ffffffffffffffffffffffffffffffffffffffff02191690556004820160006128d29190612930565b600582016000905550600601612872565b5090565b90565b61290c91905b808211156129085760008160009055506001016128f0565b5090565b90565b508054600082559060005260206000209081019061292d91906128ea565b50565b50805460018160011615610100020316600290046000825580601f106129565750612975565b601f0160209004906000526020600020908101906129749190612847565b5b505600a165627a7a723058200a942ff7c6c89a5ddbfe351a786f513bfef9eb8126317fe1bf643263d193bec70029",
  "source": "pragma solidity ^0.4.22;\n\nimport \"./zeppelin/SafeMath.sol\";\nimport \"./zeppelin/ECRecovery.sol\";\nimport \"./utils/GetCode2.sol\";\n\ncontract IERC20 {\n    function balanceOf(address who) public constant returns (uint256);\n\n    function transfer(address to, uint256 value) public returns (bool);\n\n    function allowance(address owner, address spender) public constant returns (uint256);\n\n    function transferFrom(address from, address to, uint256 value) public returns (bool);\n\n    function approve(address spender, uint256 value) public returns (bool);\n\n    event Transfer(address indexed from, address indexed to, uint256 value);\n    event Approval(address indexed owner, address indexed spender, uint256 value);\n}\n\n\ncontract Enigma {\n    using SafeMath for uint256;\n    using ECRecovery for bytes32;\n\n    IERC20 public engToken;\n\n    struct Task {\n        bytes32 callable;\n        bytes32[] callableArgs;\n        bytes32 callback;\n        address worker;\n        bytes sig;\n        uint reward;\n    }\n\n    struct Worker {\n        bytes32 url;\n        string pkey;\n        string quote;\n        uint256 balance;\n        uint status; // Uninitialized: 0; Active: 1; Inactive: 2\n    }\n\n    address[] public workerIndex;\n    mapping(address => Worker) public workers;\n    mapping(address => Task[]) public tasks;\n\n    event Register(bytes32 url, address user, string pkey, bool _success);\n    event Logout(address user, bool _success);\n    event ValidateSig(bytes sig, bytes32 hash, address workerAddr, bytes bytecode, bytes32[] parts, bool _success);\n    event SolveTask(address secretContract, address worker, bytes sig, uint reward, bool _success);\n\n    // Enigma computation task\n    event ComputeTask(address callingContract, uint taskId, bytes32 callable, bytes32[] callableArgs, bytes32 callback, uint fee, bytes32[] preprocessors, bool _success);\n\n    enum ReturnValue {Ok, Error}\n\n    function Enigma(address _tokenAddress) public {\n        engToken = IERC20(_tokenAddress);\n    }\n\n    modifier workerRegistered(address user) {\n        Worker memory worker = workers[user];\n        require(worker.status > 0, \"Unregistered worker.\");\n        _;\n    }\n\n    function register(bytes32 url, string pkey, string quote)\n    public\n    payable\n    returns (ReturnValue) {\n        // Register a new worker and deposit stake\n        // require(workers[msg.sender].status == 0, \"Worker already register.\");\n\n        workerIndex.push(msg.sender);\n\n        workers[msg.sender].url = url;\n        workers[msg.sender].pkey = pkey;\n        workers[msg.sender].balance = msg.value;\n        workers[msg.sender].quote = quote;\n        workers[msg.sender].status = 1;\n\n        emit Register(url, msg.sender, pkey, true);\n\n        return ReturnValue.Ok;\n    }\n\n    //TODO: we don't want this\n    function logout()\n    public\n    workerRegistered(msg.sender)\n    returns (ReturnValue) {\n        // A worker stops accepting tasks\n        workers[msg.sender].status = 2;\n\n        emit Logout(msg.sender, true);\n\n        return ReturnValue.Ok;\n    }\n\n    function compute(address secretContract, bytes32 callable, bytes32[] callableArgs, bytes32 callback, bytes32[] preprocessors)\n    public\n    payable\n    returns (ReturnValue) {\n        // Each task invoked by a contract has a sequential id\n        // Skipping 0 to avoid encoding issues\n\n        uint taskId = tasks[secretContract].length;\n        if (taskId == 0) {\n            tasks[secretContract].length++;\n            tasks[secretContract][taskId].reward = msg.value;\n            tasks[secretContract][taskId].callable = callable;\n            tasks[secretContract][taskId].callableArgs = callableArgs;\n            tasks[secretContract][taskId].callback = callback;\n            taskId = 1;\n        }\n\n        tasks[secretContract].length++;\n        tasks[secretContract][taskId].reward = msg.value;\n        tasks[secretContract][taskId].callable = callable;\n        tasks[secretContract][taskId].callableArgs = callableArgs;\n        tasks[secretContract][taskId].callback = callback;\n\n        // Emit the ComputeTask event which each node is watching for\n        emit ComputeTask(secretContract, taskId, callable, callableArgs, callback, msg.value, preprocessors, true);\n\n        return ReturnValue.Ok;\n    }\n\n    function bytes32ArrayToBytes(bytes32[] data) returns (bytes) {\n        // Merges parts of a bytes32[] into bytes\n        // TODO: may be unsafe and suboptimal\n        bytes memory bytesString = new bytes(data.length * 32);\n        uint urlLength;\n        for (uint i = 0; i < data.length; i++) {\n            for (uint j = 0; j < 32; j++) {\n                byte char = byte(bytes32(uint(data[i]) * 2 ** (8 * j)));\n                if (char != 0) {\n                    bytesString[urlLength] = char;\n                    urlLength += 1;\n                }\n            }\n        }\n        bytes memory bytesStringTrimmed = new bytes(urlLength);\n        for (i = 0; i < urlLength; i++) {\n            bytesStringTrimmed[i] = bytesString[i];\n        }\n        return bytesStringTrimmed;\n    }\n\n    function splitInputOutput(bytes32[] args, bytes32[] results) internal constant\n    returns (bytes32[]) {\n        uint size = 1 + args.length + results.length;\n        bytes32[] memory parts = new bytes32[](size);\n        //        parts[0] = 'mixAddresses';\n        //        parts[1] = 'address[] destAddresses';\n        //        parts[2] = 'test';\n        //        parts[3] = 'test2';\n        //        parts[4] = 'address[] destAddresses';\n        //        parts[5] = 'test';\n        //        parts[6] = 'test2';\n\n\n        uint offset = 1;\n        for (uint i1 = 0; i1 < args.length; i1++) {\n            if (args[i1] > 0) {\n                parts[offset] = args[i1];\n                offset++;\n            }\n        }\n        for (uint i2 = 0; i2 < results.length; i2++) {\n            if (results[i2] > 0) {\n                parts[offset] = results[i2];\n                offset++;\n            }\n        }\n        return parts;\n    }\n\n    function verifySignature(address secretContract, Task task, bytes32[] results, bytes sig) internal constant\n    returns (address) {\n        // Recreating a data hash to validate the signature\n\n        bytes memory code = GetCode2.at(secretContract);\n        bytes32[] memory parts = splitInputOutput(task.callableArgs, results);\n        bytes memory args = bytes32ArrayToBytes(parts);\n\n        // Build a hash to validate that the I/Os are matching\n        bytes32 hash = keccak256(args, code);\n        bytes memory prefix = \"\\x19Ethereum Signed Message:\\n32\";\n        bytes32 prefixedHash = sha3(prefix, hash);\n\n        // TODO: this returns an address where we want to verify a public key\n        // I don't believe that Solidity has a general purpose signature\n        // validator. However, we know that an Ethereum address is the hash\n        // of a public key, so we can use our public key to generate a\n        // virtual address for validation.\n        address workerAddr = prefixedHash.recover(sig);\n\n        emit ValidateSig(sig, prefixedHash, workerAddr, code, parts, true);\n        return workerAddr;\n    }\n\n    // TODO: remove the hash parameter and recreate it in the function\n    function solveTask(address secretContract, uint taskId, bytes32[] results, bytes sig)\n    public\n    workerRegistered(msg.sender)\n    returns (ReturnValue) {\n        // Task must be solved only once\n        require(tasks[secretContract][taskId].worker == address(0), \"Task already solved.\");\n\n        address sigAddr = verifySignature(secretContract, tasks[secretContract][taskId], results, sig);\n        require(sigAddr != address(0), \"Cannot verify this signature.\");\n        //        require(sigAddr == msg.sender, \"Invalid signature.\");\n\n        // The contract must hold enough fund to distribute reward\n        // TODO: validate that the reward matches the opcodes computed\n        uint reward = tasks[secretContract][taskId].reward;\n        require(reward > 0, \"Reward cannot be zero.\");\n\n        // Keep a trace of the task worker and proof\n        tasks[secretContract][taskId].worker = msg.sender;\n        // tasks[secretContract][taskId].sig = sig;\n\n        // Put the reward in the worker's bank\n        // He can withdraw later\n        Worker storage worker = workers[msg.sender];\n        worker.balance = worker.balance.add(reward);\n\n        emit SolveTask(secretContract, msg.sender, sig, reward, true);\n\n        return ReturnValue.Ok;\n    }\n}\n",
  "sourcePath": "/Users/fredfortier/Code/enigma/mvp0/coin-mixer-poc/dapp/contracts/Enigma.sol",
  "compiler": {
    "name": "solc",
    "version": "0.4.23+commit.124ca40d.Emscripten.clang"
  },
  "schemaVersion": "2.0.0",
  "updatedAt": "2018-05-02T03:09:59.540Z"
}