{
  "contractName": "Enigma",
  "abi": [
    {
      "constant": true,
      "inputs": [
        {
          "name": "",
          "type": "uint256"
        }
      ],
      "name": "workerAddresses",
      "outputs": [
        {
          "name": "",
          "type": "address"
        }
      ],
      "payable": false,
      "stateMutability": "view",
      "type": "function",
      "signature": "0x0a318da0"
    },
    {
      "constant": true,
      "inputs": [
        {
          "name": "",
          "type": "address"
        }
      ],
      "name": "userSCDeployments",
      "outputs": [
        {
          "name": "",
          "type": "uint256"
        }
      ],
      "payable": false,
      "stateMutability": "view",
      "type": "function",
      "signature": "0x0f8c466c"
    },
    {
      "constant": true,
      "inputs": [
        {
          "name": "",
          "type": "address"
        }
      ],
      "name": "workers",
      "outputs": [
        {
          "name": "signer",
          "type": "address"
        },
        {
          "name": "status",
          "type": "uint8"
        },
        {
          "name": "report",
          "type": "bytes"
        },
        {
          "name": "balance",
          "type": "uint256"
        }
      ],
      "payable": false,
      "stateMutability": "view",
      "type": "function",
      "signature": "0x4048a257"
    },
    {
      "constant": true,
      "inputs": [],
      "name": "epochSize",
      "outputs": [
        {
          "name": "",
          "type": "uint256"
        }
      ],
      "payable": false,
      "stateMutability": "view",
      "type": "function",
      "signature": "0x572d356e"
    },
    {
      "constant": true,
      "inputs": [
        {
          "name": "",
          "type": "uint256"
        }
      ],
      "name": "scAddresses",
      "outputs": [
        {
          "name": "",
          "type": "address"
        }
      ],
      "payable": false,
      "stateMutability": "view",
      "type": "function",
      "signature": "0x5f0dd5bb"
    },
    {
      "constant": true,
      "inputs": [
        {
          "name": "",
          "type": "address"
        }
      ],
      "name": "contracts",
      "outputs": [
        {
          "name": "owner",
          "type": "address"
        },
        {
          "name": "codeHash",
          "type": "bytes32"
        },
        {
          "name": "status",
          "type": "uint8"
        }
      ],
      "payable": false,
      "stateMutability": "view",
      "type": "function",
      "signature": "0x69dc9ff3"
    },
    {
      "constant": true,
      "inputs": [],
      "name": "engToken",
      "outputs": [
        {
          "name": "",
          "type": "address"
        }
      ],
      "payable": false,
      "stateMutability": "view",
      "type": "function",
      "signature": "0x9489ad40"
    },
    {
      "constant": true,
      "inputs": [],
      "name": "workerGroupSize",
      "outputs": [
        {
          "name": "",
          "type": "uint256"
        }
      ],
      "payable": false,
      "stateMutability": "view",
      "type": "function",
      "signature": "0xa3edd784"
    },
    {
      "constant": true,
      "inputs": [
        {
          "name": "",
          "type": "bytes32"
        }
      ],
      "name": "tasks",
      "outputs": [
        {
          "name": "fee",
          "type": "uint256"
        },
        {
          "name": "proof",
          "type": "bytes"
        },
        {
          "name": "sender",
          "type": "address"
        },
        {
          "name": "status",
          "type": "uint8"
        }
      ],
      "payable": false,
      "stateMutability": "view",
      "type": "function",
      "signature": "0xe579f500"
    },
    {
      "inputs": [
        {
          "name": "_tokenAddress",
          "type": "address"
        },
        {
          "name": "_principal",
          "type": "address"
        }
      ],
      "payable": false,
      "stateMutability": "nonpayable",
      "type": "constructor",
      "signature": "constructor"
    },
    {
      "anonymous": false,
      "inputs": [
        {
          "indexed": false,
          "name": "custodian",
          "type": "address"
        },
        {
          "indexed": false,
          "name": "signer",
          "type": "address"
        }
      ],
      "name": "Registered",
      "type": "event",
      "signature": "0x0a31ee9d46a828884b81003c8498156ea6aa15b9b54bdd0ef0b533d9eba57e55"
    },
    {
      "anonymous": false,
      "inputs": [
        {
          "indexed": false,
          "name": "sig",
          "type": "bytes"
        },
        {
          "indexed": false,
          "name": "hash",
          "type": "bytes32"
        },
        {
          "indexed": false,
          "name": "workerAddr",
          "type": "address"
        }
      ],
      "name": "ValidatedSig",
      "type": "event",
      "signature": "0xe36691ca52ee024e298e5c0ff07191b87f0ac571c01a7631db2d70d573d955cb"
    },
    {
      "anonymous": false,
      "inputs": [
        {
          "indexed": false,
          "name": "seed",
          "type": "uint256"
        },
        {
          "indexed": false,
          "name": "blockNumber",
          "type": "uint256"
        },
        {
          "indexed": false,
          "name": "workers",
          "type": "address[]"
        },
        {
          "indexed": false,
          "name": "balances",
          "type": "uint256[]"
        }
      ],
      "name": "WorkersParameterized",
      "type": "event",
      "signature": "0x7047379c64ccafb62f6625e6b2d8eb6e1b0e091fac56a11ab5e2fd896e4db1d0"
    },
    {
      "anonymous": false,
      "inputs": [
        {
          "indexed": false,
          "name": "taskId",
          "type": "bytes32"
        },
        {
          "indexed": false,
          "name": "fee",
          "type": "uint256"
        },
        {
          "indexed": false,
          "name": "sender",
          "type": "address"
        }
      ],
      "name": "TaskRecordCreated",
      "type": "event",
      "signature": "0xf1c0c18d5573c419035509d5b8bf3f97ce7b92cca68bccbde847516f66d6fe05"
    },
    {
      "anonymous": false,
      "inputs": [
        {
          "indexed": false,
          "name": "taskIds",
          "type": "bytes32[]"
        },
        {
          "indexed": false,
          "name": "fees",
          "type": "uint256[]"
        },
        {
          "indexed": false,
          "name": "sender",
          "type": "address"
        }
      ],
      "name": "TaskRecordsCreated",
      "type": "event",
      "signature": "0xacd4eaf0bf2790219699c0a2d47f13405b81c59f5ff0bb951a71a29c94a6d774"
    },
    {
      "anonymous": false,
      "inputs": [
        {
          "indexed": false,
          "name": "taskId",
          "type": "bytes32"
        },
        {
          "indexed": false,
          "name": "inStateDeltaHash",
          "type": "bytes32"
        },
        {
          "indexed": false,
          "name": "outStateDeltaHash",
          "type": "bytes32"
        },
        {
          "indexed": false,
          "name": "ethCall",
          "type": "bytes"
        },
        {
          "indexed": false,
          "name": "sig",
          "type": "bytes"
        }
      ],
      "name": "ReceiptVerified",
      "type": "event",
      "signature": "0x665329bb9a4e1062edc215d9c5ab57fa54c4c88e3dfbcc68e0cd92fdd010fa6e"
    },
    {
      "anonymous": false,
      "inputs": [
        {
          "indexed": false,
          "name": "taskIds",
          "type": "bytes32[]"
        },
        {
          "indexed": false,
          "name": "inStateDeltaHashes",
          "type": "bytes32[]"
        },
        {
          "indexed": false,
          "name": "outStateDeltaHashes",
          "type": "bytes32[]"
        },
        {
          "indexed": false,
          "name": "ethCall",
          "type": "bytes"
        },
        {
          "indexed": false,
          "name": "sig",
          "type": "bytes"
        }
      ],
      "name": "ReceiptsVerified",
      "type": "event",
      "signature": "0x49f3b610d2b607252a8901e3c134022c7a6330e5f6525f0ed84dd4a127478958"
    },
    {
      "anonymous": false,
      "inputs": [
        {
          "indexed": false,
          "name": "from",
          "type": "address"
        },
        {
          "indexed": false,
          "name": "value",
          "type": "uint256"
        }
      ],
      "name": "DepositSuccessful",
      "type": "event",
      "signature": "0xb3ef81558ed1a50072a492984535a009da8b129c749500b387f1e5f4886bdde5"
    },
    {
      "anonymous": false,
      "inputs": [
        {
          "indexed": false,
          "name": "scAddr",
          "type": "address"
        },
        {
          "indexed": false,
          "name": "codeHash",
          "type": "bytes32"
        }
      ],
      "name": "SecretContractDeployed",
      "type": "event",
      "signature": "0xff27b3bb5dfb682b066cdace68b5dda84d03c3d2eadac54284aaec44cbcff516"
    },
    {
      "constant": false,
      "inputs": [
        {
          "name": "_signer",
          "type": "address"
        },
        {
          "name": "_report",
          "type": "bytes"
        }
      ],
      "name": "register",
      "outputs": [],
      "payable": false,
      "stateMutability": "nonpayable",
      "type": "function",
      "signature": "0x24b8fbf6"
    },
    {
      "constant": false,
      "inputs": [
        {
          "name": "_custodian",
          "type": "address"
        },
        {
          "name": "_amount",
          "type": "uint256"
        }
      ],
      "name": "deposit",
      "outputs": [],
      "payable": false,
      "stateMutability": "nonpayable",
      "type": "function",
      "signature": "0x47e7ef24"
    },
    {
      "constant": false,
      "inputs": [],
      "name": "login",
      "outputs": [],
      "payable": false,
      "stateMutability": "nonpayable",
      "type": "function",
      "signature": "0xb34e97e8"
    },
    {
      "constant": false,
      "inputs": [],
      "name": "logout",
      "outputs": [],
      "payable": false,
      "stateMutability": "nonpayable",
      "type": "function",
      "signature": "0x1f3c99c3"
    },
    {
      "constant": false,
      "inputs": [
        {
          "name": "_scAddr",
          "type": "address"
        },
        {
          "name": "_codeHash",
          "type": "bytes32"
        },
        {
          "name": "_owner",
          "type": "address"
        },
        {
          "name": "_sig",
          "type": "bytes"
        }
      ],
      "name": "deploySecretContract",
      "outputs": [],
      "payable": false,
      "stateMutability": "nonpayable",
      "type": "function",
      "signature": "0xd3b524c4"
    },
    {
      "constant": true,
      "inputs": [
        {
          "name": "_scAddr",
          "type": "address"
        }
      ],
      "name": "isDeployed",
      "outputs": [
        {
          "name": "",
          "type": "bool"
        }
      ],
      "payable": false,
      "stateMutability": "view",
      "type": "function",
      "signature": "0x90184b02"
    },
    {
      "constant": true,
      "inputs": [
        {
          "name": "_scAddr",
          "type": "address"
        }
      ],
      "name": "getCodeHash",
      "outputs": [
        {
          "name": "",
          "type": "bytes32"
        }
      ],
      "payable": false,
      "stateMutability": "view",
      "type": "function",
      "signature": "0x81ea4408"
    },
    {
      "constant": true,
      "inputs": [],
      "name": "countSecretContracts",
      "outputs": [
        {
          "name": "",
          "type": "uint256"
        }
      ],
      "payable": false,
      "stateMutability": "view",
      "type": "function",
      "signature": "0x75bbf75b"
    },
    {
      "constant": true,
      "inputs": [
        {
          "name": "_start",
          "type": "uint256"
        },
        {
          "name": "_stop",
          "type": "uint256"
        }
      ],
      "name": "getSecretContractAddresses",
      "outputs": [
        {
          "name": "",
          "type": "address[]"
        }
      ],
      "payable": false,
      "stateMutability": "view",
      "type": "function",
      "signature": "0x8e055b8b"
    },
    {
      "constant": true,
      "inputs": [
        {
          "name": "_scAddr",
          "type": "address"
        }
      ],
      "name": "countStateDeltas",
      "outputs": [
        {
          "name": "",
          "type": "uint256"
        }
      ],
      "payable": false,
      "stateMutability": "view",
      "type": "function",
      "signature": "0x84062df7"
    },
    {
      "constant": true,
      "inputs": [
        {
          "name": "_scAddr",
          "type": "address"
        },
        {
          "name": "_index",
          "type": "uint256"
        }
      ],
      "name": "getStateDeltaHash",
      "outputs": [
        {
          "name": "",
          "type": "bytes32"
        }
      ],
      "payable": false,
      "stateMutability": "view",
      "type": "function",
      "signature": "0x44409496"
    },
    {
      "constant": true,
      "inputs": [
        {
          "name": "_scAddr",
          "type": "address"
        },
        {
          "name": "_start",
          "type": "uint256"
        },
        {
          "name": "_stop",
          "type": "uint256"
        }
      ],
      "name": "getStateDeltaHashes",
      "outputs": [
        {
          "name": "",
          "type": "bytes32[]"
        }
      ],
      "payable": false,
      "stateMutability": "view",
      "type": "function",
      "signature": "0x05e62db6"
    },
    {
      "constant": true,
      "inputs": [
        {
          "name": "_scAddr",
          "type": "address"
        },
        {
          "name": "_stateDeltaHash",
          "type": "bytes32"
        }
      ],
      "name": "isValidDeltaHash",
      "outputs": [
        {
          "name": "",
          "type": "bool"
        }
      ],
      "payable": false,
      "stateMutability": "view",
      "type": "function",
      "signature": "0x7b5b2ce3"
    },
    {
      "constant": false,
      "inputs": [
        {
          "name": "_taskId",
          "type": "bytes32"
        },
        {
          "name": "_fee",
          "type": "uint256"
        }
      ],
      "name": "createTaskRecord",
      "outputs": [],
      "payable": false,
      "stateMutability": "nonpayable",
      "type": "function",
      "signature": "0x03316d16"
    },
    {
      "constant": false,
      "inputs": [
        {
          "name": "_taskIds",
          "type": "bytes32[]"
        },
        {
          "name": "_fees",
          "type": "uint256[]"
        }
      ],
      "name": "createTaskRecords",
      "outputs": [],
      "payable": false,
      "stateMutability": "nonpayable",
      "type": "function",
      "signature": "0x120db8ab"
    },
    {
      "constant": false,
      "inputs": [
        {
          "name": "_scAddr",
          "type": "address"
        },
        {
          "name": "_taskId",
          "type": "bytes32"
        },
        {
          "name": "_inStateDeltaHash",
          "type": "bytes32"
        },
        {
          "name": "_outStateDeltaHash",
          "type": "bytes32"
        },
        {
          "name": "_ethCall",
          "type": "bytes"
        },
        {
          "name": "_sig",
          "type": "bytes"
        }
      ],
      "name": "commitReceipt",
      "outputs": [],
      "payable": false,
      "stateMutability": "nonpayable",
      "type": "function",
      "signature": "0x5956efef"
    },
    {
      "constant": false,
      "inputs": [
        {
          "name": "_scAddr",
          "type": "address"
        },
        {
          "name": "_taskIds",
          "type": "bytes32[]"
        },
        {
          "name": "_inStateDeltaHashes",
          "type": "bytes32[]"
        },
        {
          "name": "_outStateDeltaHashes",
          "type": "bytes32[]"
        },
        {
          "name": "_ethCall",
          "type": "bytes"
        },
        {
          "name": "_sig",
          "type": "bytes"
        }
      ],
      "name": "commitReceipts",
      "outputs": [],
      "payable": false,
      "stateMutability": "nonpayable",
      "type": "function",
      "signature": "0x4d0edeaa"
    },
    {
      "constant": false,
      "inputs": [
        {
          "name": "_seed",
          "type": "uint256"
        },
        {
          "name": "_sig",
          "type": "bytes"
        }
      ],
      "name": "setWorkersParams",
      "outputs": [],
      "payable": false,
      "stateMutability": "nonpayable",
      "type": "function",
      "signature": "0x2873e73c"
    },
    {
      "constant": true,
      "inputs": [
        {
          "name": "_blockNumber",
          "type": "uint256"
        }
      ],
      "name": "getWorkerParams",
      "outputs": [
        {
          "name": "",
          "type": "uint256"
        },
        {
          "name": "",
          "type": "uint256"
        },
        {
          "name": "",
          "type": "address[]"
        },
        {
          "name": "",
          "type": "uint256[]"
        }
      ],
      "payable": false,
      "stateMutability": "view",
      "type": "function",
      "signature": "0x9836ca31"
    },
    {
      "constant": true,
      "inputs": [
        {
          "name": "_blockNumber",
          "type": "uint256"
        },
        {
          "name": "_scAddr",
          "type": "address"
        }
      ],
      "name": "getWorkerGroup",
      "outputs": [
        {
          "name": "",
          "type": "address[]"
        }
      ],
      "payable": false,
      "stateMutability": "view",
      "type": "function",
      "signature": "0xd9611203"
    },
    {
      "constant": true,
      "inputs": [
        {
          "name": "_blockNumber",
          "type": "uint256"
        }
      ],
      "name": "getWorkersParams",
      "outputs": [
        {
          "name": "",
          "type": "uint256"
        },
        {
          "name": "",
          "type": "uint256"
        },
        {
          "name": "",
          "type": "address[]"
        },
        {
          "name": "",
          "type": "address[]"
        }
      ],
      "payable": false,
      "stateMutability": "view",
      "type": "function",
      "signature": "0x59c91a12"
    },
    {
      "constant": true,
      "inputs": [
        {
          "name": "_custodian",
          "type": "address"
        }
      ],
      "name": "getReport",
      "outputs": [
        {
          "name": "",
          "type": "address"
        },
        {
          "name": "",
          "type": "bytes"
        }
      ],
      "payable": false,
      "stateMutability": "view",
      "type": "function",
      "signature": "0xa3bdae3e"
    }
  ],
  "bytecode": "0x608060405260646001553480156200001657600080fd5b5060405160408062004a18833981018060405262000038919081019062000089565b60008054600160a060020a03938416600160a060020a031991821617909155600280549290931691161790556001601d556005601e55620000d4565b6000620000828251620000c8565b9392505050565b600080604083850312156200009d57600080fd5b6000620000ab858562000074565b9250506020620000be8582860162000074565b9150509250929050565b600160a060020a031690565b61493480620000e46000396000f30060806040526004361061018a5763ffffffff7c010000000000000000000000000000000000000000000000000000000060003504166303316d16811461018f57806305e62db6146101b15780630a318da0146101e75780630f8c466c14610214578063120db8ab146102415780631f3c99c31461026157806324b8fbf6146102765780632873e73c146102965780634048a257146102b657806344409496146102e657806347e7ef24146103065780634d0edeaa14610326578063572d356e146103465780635956efef1461035b57806359c91a121461037b5780635f0dd5bb146103ab57806369dc9ff3146103cb57806375bbf75b146103fa5780637b5b2ce31461040f57806381ea44081461043c57806384062df71461045c5780638e055b8b1461047c57806390184b02146104a95780639489ad40146104c95780639836ca31146104eb578063a3bdae3e1461051b578063a3edd78414610549578063b34e97e81461055e578063d3b524c414610573578063d961120314610593578063e579f500146105b3575b600080fd5b34801561019b57600080fd5b506101af6101aa366004613c9f565b6105e3565b005b3480156101bd57600080fd5b506101d16101cc366004613bb7565b61081b565b6040516101de9190614442565b60405180910390f35b3480156101f357600080fd5b50610207610202366004613c81565b610946565b6040516101de919061431d565b34801561022057600080fd5b5061023461022f36600461393f565b61096e565b6040516101de9190614501565b34801561024d57600080fd5b506101af61025c366004613c04565b610980565b34801561026d57600080fd5b506101af610cd3565b34801561028257600080fd5b506101af610291366004613b6f565b610e42565b3480156102a257600080fd5b506101af6102b1366004613d0c565b610f3c565b3480156102c257600080fd5b506102d66102d136600461393f565b61145f565b6040516101de94939291906143ec565b3480156102f257600080fd5b50610234610301366004613a64565b611523565b34801561031257600080fd5b506101af610321366004613a64565b6115ad565b34801561033257600080fd5b506101af610341366004613965565b6118e3565b34801561035257600080fd5b50610234611ab5565b34801561036757600080fd5b506101af610376366004613b17565b611abb565b34801561038757600080fd5b5061039b610396366004613c81565b611d68565b6040516101de94939291906146f0565b3480156103b757600080fd5b506102076103c6366004613c81565b611d75565b3480156103d757600080fd5b506103eb6103e636600461393f565b611d83565b6040516101de93929190614361565b34801561040657600080fd5b50610234611db1565b34801561041b57600080fd5b5061042f61042a366004613a64565b611db8565b6040516101de91906144f3565b34801561044857600080fd5b5061023461045736600461393f565b611e92565b34801561046857600080fd5b5061023461047736600461393f565b611f01565b34801561048857600080fd5b5061049c610497366004613c9f565b611f70565b6040516101de9190614431565b3480156104b557600080fd5b5061042f6104c436600461393f565b612026565b3480156104d557600080fd5b506104de61206b565b6040516101de91906145a6565b3480156104f757600080fd5b5061050b610506366004613c81565b61207a565b6040516101de949392919061473b565b34801561052757600080fd5b5061053b61053636600461393f565b6121a5565b6040516101de929190614389565b34801561055557600080fd5b506102346123e7565b34801561056a57600080fd5b506101af6123ed565b34801561057f57600080fd5b506101af61058e366004613a9e565b61255a565b34801561059f57600080fd5b5061049c6105ae366004613cdc565b61293f565b3480156105bf57600080fd5b506105d36105ce366004613c81565b612b6e565b6040516101de94939291906146b4565b6000828152601a6020526040902060020154600160a060020a0316156106275760405160e560020a62461bcd02815260040161061e90614674565b60405180910390fd5b6000546040517fdd62ed3e0000000000000000000000000000000000000000000000000000000081528291600160a060020a03169063dd62ed3e9061067290339030906004016143a9565b602060405180830381600087803b15801561068c57600080fd5b505af11580156106a0573d6000803e3d6000fd5b505050506040513d601f19601f820116820180604052506106c49190810190613cbe565b10156106e55760405160e560020a62461bcd02815260040161061e90614634565b6000546040517f23b872dd000000000000000000000000000000000000000000000000000000008152600160a060020a03909116906323b872dd90610732903390309086906004016143c4565b602060405180830381600087803b15801561074c57600080fd5b505af1158015610760573d6000803e3d6000fd5b505050506040513d601f19601f820116820180604052506107849190810190613c63565b15156107a55760405160e560020a62461bcd02815260040161061e90614604565b6000828152601a6020526040908190208281556002018054600160a060020a0319163390811760a060020a60ff02191660a060020a1790915590517ff1c0c18d5573c419035509d5b8bf3f97ce7b92cca68bccbde847516f66d6fe059161080f9185918591614549565b60405180910390a15050565b606080600080866001600160a060020a0382166000908152601b602052604090206003015460ff16600181111561084e57fe5b1461086e5760405160e560020a62461bcd02815260040161061e90614684565b85151561089457600160a060020a0388166000908152601b602052604090206002015495505b6108a4868863ffffffff612c3116565b6040519080825280602002602001820160405280156108cd578160200160208202803883390190505b509350600092508691505b8582101561093a57600160a060020a0388166000908152601b6020526040902060020180548390811061090757fe5b9060005260206000200154848481518110151561092057fe5b6020908102909101015260019283019291909101906108d8565b50919695505050505050565b601780548290811061095457fe5b600091825260209091200154600160a060020a0316905081565b601c6020526000908152604090205481565b60005b8251811015610c9357601a6000848381518110151561099e57fe5b6020908102909101810151825281019190915260400160002060020154600160a060020a0316156109e45760405160e560020a62461bcd02815260040161061e90614674565b81818151811015156109f257fe5b602090810290910101516000546040517fdd62ed3e000000000000000000000000000000000000000000000000000000008152600160a060020a039091169063dd62ed3e90610a4790339030906004016143a9565b602060405180830381600087803b158015610a6157600080fd5b505af1158015610a75573d6000803e3d6000fd5b505050506040513d601f19601f82011682018060405250610a999190810190613cbe565b1015610aba5760405160e560020a62461bcd02815260040161061e90614634565b6000548251600160a060020a03909116906323b872dd9033903090869086908110610ae157fe5b906020019060200201516040518463ffffffff167c0100000000000000000000000000000000000000000000000000000000028152600401610b25939291906143c4565b602060405180830381600087803b158015610b3f57600080fd5b505af1158015610b53573d6000803e3d6000fd5b505050506040513d601f19601f82011682018060405250610b779190810190613c63565b1515610b985760405160e560020a62461bcd02815260040161061e90614604565b8181815181101515610ba657fe5b90602001906020020151601a60008584815181101515610bc257fe5b6020908102909101810151825281019190915260400160009081209190915583513391601a91869085908110610bf457fe5b602090810291909101810151825281019190915260400160009081206002018054600160a060020a031916600160a060020a0393909316929092179091558351600191601a91869085908110610c4657fe5b6020908102909101810151825281019190915260400160002060029081018054909160a060020a60ff02199091169060a060020a908490811115610c8657fe5b0217905550600101610983565b7facd4eaf0bf2790219699c0a2d47f13405b81c59f5ff0bb951a71a29c94a6d774838333604051610cc6939291906144bf565b60405180910390a1505050565b33610cdc6136c0565b600160a060020a038281166000908152601960209081526040918290208251608081019093528054938416835291929083019060a060020a900460ff166003811115610d2457fe5b6003811115610d2f57fe5b8152602001600182018054600181600116156101000203166002900480601f016020809104026020016040519081016040528092919081815260200182805460018160011615610100020316600290048015610dcc5780601f10610da157610100808354040283529160200191610dcc565b820191906000526020600020905b815481529060010190602001808311610daf57829003601f168201915b505050918352505060029182015460209091015290915081602001516003811115610df357fe5b14610e135760405160e560020a62461bcd02815260040161061e90614614565b33600090815260196020526040902080546003919060a060020a60ff02191660a060020a835b02179055505050565b33600090815260196020526040902054600160a060020a03161515610ea457601780546001810182556000919091527fc624b66cc0138b8fabc209247f72d758e1cf3343756d543badbf24212bed8c15018054600160a060020a031916331790555b33600090815260196020908152604082208054600160a060020a031916600160a060020a03861617815560028101929092558251610ee892600101918401906136e9565b503360008181526019602052604090819020805460a060020a60ff02191660a060020a179055517f0a31ee9d46a828884b81003c8498156ea6aa15b9b54bdd0ef0b533d9eba57e559161080f91859061432b565b600080600080610f4a6136c0565b33610f536136c0565b600160a060020a038281166000908152601960209081526040918290208251608081019093528054938416835291929083019060a060020a900460ff166003811115610f9b57fe5b6003811115610fa657fe5b8152602001600182018054600181600116156101000203166002900480601f0160208091040260200160405190810160405280929190818152602001828054600181600116156101000203166002900480156110435780601f1061101857610100808354040283529160200191611043565b820191906000526020600020905b81548152906001019060200180831161102657829003601f168201915b505050918352505060029190910154602090910152905060008160200151600381111561106c57fe5b141561108d5760405160e560020a62461bcd02815260040161061e906145b4565b60025433600090815260196020526040902054600160a060020a039081169116146110cd5760405160e560020a62461bcd02815260040161061e90614664565b60009650600095505b600586101561113857600386600581106110ec57fe5b600402015415156110ff57859650611138565b6003876005811061110c57fe5b60040201546003876005811061111e57fe5b6004020154101561112d578596505b6001909501946110d6565b436003886005811061114657fe5b6004020155886003886005811061115957fe5b600402016003018190555060009450600093505b6017548410156113ef576019600060178681548110151561118a57fe5b6000918252602080832090910154600160a060020a0390811684528382019490945260409283019091208251608081019093528054938416835291929083019060ff60a060020a9091041660038111156111e057fe5b60038111156111eb57fe5b8152602001600182018054600181600116156101000203166002900480601f0160208091040260200160405190810160405280929190818152602001828054600181600116156101000203166002900480156112885780601f1061125d57610100808354040283529160200191611288565b820191906000526020600020905b81548152906001019060200180831161126b57829003601f168201915b505050505081526020016002820154815250509250601d548360600151101580156112c357506002548351600160a060020a03908116911614155b80156112de57506002836020015160038111156112dc57fe5b145b156113e457600387600581106112f057fe5b6004020160010180548091906001016113099190613767565b50601780548590811061131857fe5b600091825260209091200154600160a060020a03166003886005811061133a57fe5b600402016001018681548110151561134e57fe5b60009182526020909120018054600160a060020a031916600160a060020a03929092169190911790556003876005811061138457fe5b60040201600201805480919060010161139d9190613767565b506060830151600388600581106113b057fe5b60040201600201868154811015156113c457fe5b6000918252602090912001556113e185600163ffffffff612c4816565b94505b60019093019261116d565b7f7047379c64ccafb62f6625e6b2d8eb6e1b0e091fac56a11ab5e2fd896e4db1d0894360038a6005811061141f57fe5b6004020160010160038b60058110151561143557fe5b6004020160020160405161144c949392919061477c565b60405180910390a1505050505050505050565b6019602090815260009182526040918290208054600180830180548651600261010094831615949094026000190190911692909204601f8101869004860283018601909652858252600160a060020a0383169560a060020a90930460ff1694919290918301828280156115135780601f106114e857610100808354040283529160200191611513565b820191906000526020600020905b8154815290600101906020018083116114f657829003601f168201915b5050505050908060020154905084565b6000826001600160a060020a0382166000908152601b602052604090206003015460ff16600181111561155257fe5b146115725760405160e560020a62461bcd02815260040161061e90614684565b600160a060020a0384166000908152601b6020526040902060020180548490811061159957fe5b906000526020600020015491505092915050565b816115b66136c0565b600160a060020a038281166000908152601960209081526040918290208251608081019093528054938416835291929083019060a060020a900460ff1660038111156115fe57fe5b600381111561160957fe5b8152602001600182018054600181600116156101000203166002900480601f0160208091040260200160405190810160405280929190818152602001828054600181600116156101000203166002900480156116a65780601f1061167b576101008083540402835291602001916116a6565b820191906000526020600020905b81548152906001019060200180831161168957829003601f168201915b50505091835250506002919091015460209091015290506000816020015160038111156116cf57fe5b14156116f05760405160e560020a62461bcd02815260040161061e906145b4565b6000546040517fdd62ed3e0000000000000000000000000000000000000000000000000000000081528491600160a060020a03169063dd62ed3e9061173b90889030906004016143a9565b602060405180830381600087803b15801561175557600080fd5b505af1158015611769573d6000803e3d6000fd5b505050506040513d601f19601f8201168201806040525061178d9190810190613cbe565b10156117ae5760405160e560020a62461bcd02815260040161061e906145c4565b6000546040517f23b872dd000000000000000000000000000000000000000000000000000000008152600160a060020a03909116906323b872dd906117fb908790309088906004016143c4565b602060405180830381600087803b15801561181557600080fd5b505af1158015611829573d6000803e3d6000fd5b505050506040513d601f19601f8201168201806040525061184d9190810190613c63565b151561185857600080fd5b600160a060020a038416600090815260196020526040902060020154611884908463ffffffff612c4816565b600160a060020a0385166000908152601960205260409081902060020191909155517fb3ef81558ed1a50072a492984535a009da8b129c749500b387f1e5f4886bdde5906118d59086908690614346565b60405180910390a150505050565b336118ec6136c0565b600160a060020a038281166000908152601960209081526040918290208251608081019093528054938416835291929083019060a060020a900460ff16600381111561193457fe5b600381111561193f57fe5b8152602001600182018054600181600116156101000203166002900480601f0160208091040260200160405190810160405280929190818152602001828054600181600116156101000203166002900480156119dc5780601f106119b1576101008083540402835291602001916119dc565b820191906000526020600020905b8154815290600101906020018083116119bf57829003601f168201915b505050918352505060029182015460209091015290915081602001516003811115611a0357fe5b14611a235760405160e560020a62461bcd02815260040161061e90614614565b876001600160a060020a0382166000908152601b602052604090206003015460ff166001811115611a5057fe5b14611a705760405160e560020a62461bcd02815260040161061e90614684565b611a7e898989898989612c55565b7f49f3b610d2b607252a8901e3c134022c7a6330e5f6525f0ed84dd4a127478958888888888860405161144c959493929190614453565b60015481565b33611ac46136c0565b600160a060020a038281166000908152601960209081526040918290208251608081019093528054938416835291929083019060a060020a900460ff166003811115611b0c57fe5b6003811115611b1757fe5b8152602001600182018054600181600116156101000203166002900480601f016020809104026020016040519081016040528092919081815260200182805460018160011615610100020316600290048015611bb45780601f10611b8957610100808354040283529160200191611bb4565b820191906000526020600020905b815481529060010190602001808311611b9757829003601f168201915b505050918352505060029182015460209091015290915081602001516003811115611bdb57fe5b14611bfb5760405160e560020a62461bcd02815260040161061e90614614565b876001600160a060020a0382166000908152601b602052604090206003015460ff166001811115611c2857fe5b14611c485760405160e560020a62461bcd02815260040161061e90614684565b60016000898152601a6020526040902060029081015460a060020a900460ff1690811115611c7257fe5b14611c925760405160e560020a62461bcd02815260040161061e906145e4565b611ca0898989898989612f94565b6000888152601a602090815260409091208551611cc5926001909201918701906136e9565b506000888152601a602090815260408083206002808201805460a060020a60ff0219167402000000000000000000000000000000000000000017905590543385526019909352922090910154611d1a91612c48565b336000908152601960205260409081902060020191909155517f665329bb9a4e1062edc215d9c5ab57fa54c4c88e3dfbcc68e0cd92fdd010fa6e9061144c908a908a908a908a908a9061450f565b6000806060809193509193565b601880548290811061095457fe5b601b60205260009081526040902080546001820154600390920154600160a060020a03909116919060ff1683565b6018545b90565b60008080846001600160a060020a0382166000908152601b602052604090206003015460ff166001811115611de957fe5b14611e095760405160e560020a62461bcd02815260040161061e90614684565b60009250600091505b600160a060020a0386166000908152601b6020526040902060020154821015611e8557600160a060020a0386166000908152601b60205260409020600201805486919084908110611e5f57fe5b6000918252602090912001541415611e7a5760019250611e85565b600190910190611e12565b8293505b50505092915050565b6000816001600160a060020a0382166000908152601b602052604090206003015460ff166001811115611ec157fe5b14611ee15760405160e560020a62461bcd02815260040161061e90614684565b5050600160a060020a03166000908152601b602052604090206001015490565b6000816001600160a060020a0382166000908152601b602052604090206003015460ff166001811115611f3057fe5b14611f505760405160e560020a62461bcd02815260040161061e90614684565b5050600160a060020a03166000908152601b602052604090206002015490565b606080600080841515611f835760185494505b611f93858763ffffffff612c3116565b604051908082528060200260200182016040528015611fbc578160200160208202803883390190505b509250600091508590505b84811015611e85576018805482908110611fdd57fe5b6000918252602090912001548351600160a060020a039091169084908490811061200357fe5b600160a060020a0390921660209283029091019091015260019182019101611fc7565b60006001600160a060020a0383166000908152601b602052604090206003015460ff16600181111561205457fe5b141561206257506001612066565b5060005b919050565b600054600160a060020a031681565b600080606080600061208a613790565b612093876131a1565b9150600382600581106120a257fe5b6004020160806040519081016040529081600082015481526020016001820180548060200260200160405190810160405280929190818152602001828054801561211557602002820191906000526020600020905b8154600160a060020a031681526001909101906020018083116120f7575b505050505081526020016002820180548060200260200160405190810160405280929190818152602001828054801561216d57602002820191906000526020600020905b815481526020019060010190808311612159575b5050509183525050600391909101546020918201528151606083015191830151604090930151909a9199509197509095509350505050565b60006060826121b26136c0565b600160a060020a038281166000908152601960209081526040918290208251608081019093528054938416835291929083019060a060020a900460ff1660038111156121fa57fe5b600381111561220557fe5b8152602001600182018054600181600116156101000203166002900480601f0160208091040260200160405190810160405280929190818152602001828054600181600116156101000203166002900480156122a25780601f10612277576101008083540402835291602001916122a2565b820191906000526020600020905b81548152906001019060200180831161228557829003601f168201915b50505091835250506002919091015460209091015290506000816020015160038111156122cb57fe5b14156122ec5760405160e560020a62461bcd02815260040161061e906145b4565b600160a060020a038086166000908152601960205260409020541615156123285760405160e560020a62461bcd02815260040161061e90614644565b600160a060020a038581166000908152601960209081526040918290208054600191820180548551600261010095831615959095026000190190911693909304601f81018590048502840185019095528483529416939290918391908301828280156123d55780601f106123aa576101008083540402835291602001916123d5565b820191906000526020600020905b8154815290600101906020018083116123b857829003601f168201915b50505050509050935093505050915091565b601e5481565b336123f66136c0565b600160a060020a038281166000908152601960209081526040918290208251608081019093528054938416835291929083019060a060020a900460ff16600381111561243e57fe5b600381111561244957fe5b8152602001600182018054600181600116156101000203166002900480601f0160208091040260200160405190810160405280929190818152602001828054600181600116156101000203166002900480156124e65780601f106124bb576101008083540402835291602001916124e6565b820191906000526020600020905b8154815290600101906020018083116124c957829003601f168201915b505050918352505060029190910154602090910152905060008160200151600381111561250f57fe5b14156125305760405160e560020a62461bcd02815260040161061e906145b4565b33600090815260196020526040902080546002919060a060020a60ff02191660a060020a83610e39565b6000806000336125686136c0565b600160a060020a038281166000908152601960209081526040918290208251608081019093528054938416835291929083019060a060020a900460ff1660038111156125b057fe5b60038111156125bb57fe5b8152602001600182018054600181600116156101000203166002900480601f0160208091040260200160405190810160405280929190818152602001828054600181600116156101000203166002900480156126585780601f1061262d57610100808354040283529160200191612658565b820191906000526020600020905b81548152906001019060200180831161263b57829003601f168201915b505050918352505060029190910154602090910152905060008160200151600381111561268157fe5b14156126a25760405160e560020a62461bcd02815260040161061e906145b4565b600160a060020a0387166000818152601c60209081526040918290205482518083018d90526c010000000000000000000000009094028484015260548085019190915282518085039091018152607490930191829052825182918401908083835b602083106127225780518252601f199092019160209182019101612703565b5181516020939093036101000a600019018019909116921691909117905260405192018290039091209750505050600160a060020a038981169086161461276857600080fd5b600160a060020a0389166000908152601b602052604081206003015460ff16600181111561279257fe5b146127b25760405160e560020a62461bcd02815260040161061e906145d4565b6040805160208082018b905282518083038201815291830192839052815191929182918401908083835b602083106127fb5780518252601f1990920191602091820191016127dc565b6001836020036101000a038019825116818451168082178552505050505050905001915050604051809103902093506128478661283b8660001916613249565b9063ffffffff6132f316565b9250600160a060020a038084169088161461286157600080fd5b600160a060020a038981166000908152601b602052604090208054600160a060020a03191691891691909117815560018082018a90556003909101805460ff1916828002179055506018805460018082019092557fb13d2d76d1f4b7be834882e410b3e3a8afaf69f83600ae24db354391d2378d2e018054600160a060020a031916600160a060020a038c81169190911790915588166000908152601c6020526040908190208054909201909155517fff27b3bb5dfb682b066cdace68b5dda84d03c3d2eadac54284aaec44cbcff5169061144c9087908b90614346565b6060600061294b613790565b6060600080600080600061295e8b6131a1565b97506003886005811061296d57fe5b600402016080604051908101604052908160008201548152602001600182018054806020026020016040519081016040528092919081815260200182805480156129e057602002820191906000526020600020905b8154600160a060020a031681526001909101906020018083116129c2575b5050505050815260200160028201805480602002602001604051908101604052809291908181526020018280548015612a3857602002820191906000526020600020905b815481526020019060010190808311612a24575b505050505081526020016003820154815250509650601e54604051908082528060200260200182016040528015612a79578160200160208202803883390190505b50955060009450600093505b601e54841015612b5f575b612a9c8b898c886133b0565b925060009150600090505b8551811015612af2578581815181101515612abe57fe5b90602001906020020151600160a060020a031683600160a060020a03161415612aea5760019150612af2565b600101612aa7565b811515612b2057828685815181101515612b0857fe5b600160a060020a039092166020928302909101909101525b8551600190950194869085908110612b3457fe5b90602001906020020151600160a060020a031660001415612b5457612a90565b600190930192612a85565b50939998505050505050505050565b601a602090815260009182526040918290208054600180830180548651600293821615610100026000190190911692909204601f810186900486028301860190965285825291949293909290830182828015612c0b5780601f10612be057610100808354040283529160200191612c0b565b820191906000526020600020905b815481529060010190602001808311612bee57829003601f168201915b50505060029093015491925050600160a060020a0381169060ff60a060020a9091041684565b600082821115612c3d57fe5b508082035b92915050565b81810182811015612c4257fe5b600160a060020a0386166000908152601b60205260408120600201549080821515612cb857866000815181101515612c8957fe5b6020908102909101015115612cb35760405160e560020a62461bcd02815260040161061e90614624565b612d31565b600160a060020a0389166000908152601b60205260409020600201612ce484600163ffffffff612c3116565b81548110612cee57fe5b60009182526020822001548851909189918110612d0757fe5b6020908102909101015114612d315760405160e560020a62461bcd02815260040161061e906145f4565b600091505b8751821015612e0e576001601a60008a85815181101515612d5357fe5b6020908102909101810151825281019190915260400160002060029081015460ff60a060020a9091041690811115612d8757fe5b14612da75760405160e560020a62461bcd02815260040161061e906145e4565b6000821115612e03578560018303815181101515612dc157fe5b602090810290910101518751889084908110612dd957fe5b6020908102909101015114612e035760405160e560020a62461bcd02815260040161061e90614654565b600190910190612d36565b5060005b8751811015612f8957600160a060020a0389166000908152601b602052604090208651600290910190879083908110612e4757fe5b6020908102909101810151825460018181018555600094855292909320909201919091558851612e7c9163ffffffff612c3116565b811415612ec85783601a60008a84815181101515612e9657fe5b60209081029091018101518252818101929092526040016000208251612ec69360019092019291909101906136e9565b505b6002601a60008a84815181101515612edc57fe5b6020908102909101810151825281019190915260400160002060029081018054909160a060020a60ff02199091169060a060020a908490811115612f1c57fe5b0217905550612f6e601a60008a84815181101515612f3657fe5b60209081029091018101518252818101929092526040908101600090812054338252601990935220600201549063ffffffff612c4816565b33600090815260196020526040902060020155600101612e12565b505050505050505050565b600160a060020a0386166000908152601b60205260408120600201549080821515612fdf578615612fda5760405160e560020a62461bcd02815260040161061e90614624565b613042565b600160a060020a0389166000908152601b6020526040902060020161300b84600163ffffffff612c3116565b8154811061301557fe5b60009182526020909120015487146130425760405160e560020a62461bcd02815260040161061e906145f4565b600160a060020a0389166000908152601b6020908152604080832060020180546001810182559084529282902090920188905581518082018b81529281018a90526060810189905287518b938b938b938b936080909101918401908083835b602083106130c05780518252601f1990920191602091820191016130a1565b6001836020036101000a0380198251168184511680821785525050505050509050019450505050506040516020818303038152906040526040518082805190602001908083835b602083106131265780518252601f199092019160209182019101613107565b5181516020939093036101000a60001901801990911692169190911790526040519201829003909120945061316192508491508690506132f3565b33600090815260196020526040902054909150600160a060020a03808316911614612f895760405160e560020a62461bcd02815260040161061e90614694565b6000600019815b60058110156132165783600382600581106131bf57fe5b60040201541180159061320557508160000b600019148061320557506003600083900b600581106131ec57fe5b6004020154600382600581106131fe57fe5b6004020154115b1561320e578091505b6001016131a8565b600019600083900b141561323f5760405160e560020a62461bcd02815260040161061e906146a4565b5060000b92915050565b604080517f19457468657265756d205369676e6564204d6573736167653a0a333200000000602080830191909152603c80830185905283518084039091018152605c909201928390528151600093918291908401908083835b602083106132c15780518252601f1990920191602091820191016132a2565b5181516020939093036101000a6000190180199091169216919091179052604051920182900390912095945050505050565b6000806000808451604114151561330d5760009350611e89565b50505060208201516040830151606084015160001a601b60ff8216101561333257601b015b8060ff16601b1415801561334a57508060ff16601c14155b156133585760009350611e89565b6001868285856040516000815260200160405260405161337b9493929190614571565b60206040516020810390808403906000865af115801561339f573d6000803e3d6000fd5b505050602060405103519350611e89565b60006133ba613790565b60008080808060038a600581106133cd57fe5b6004020160806040519081016040529081600082015481526020016001820180548060200260200160405190810160405280929190818152602001828054801561344057602002820191906000526020600020905b8154600160a060020a03168152600190910190602001808311613422575b505050505081526020016002820180548060200260200160405190810160405280929190818152602001828054801561349857602002820191906000526020600020905b815481526020019060010190808311613484575b50505050508152602001600382015481525050955060009450600093505b8560200151518410156135265760208601518051859081106134d457fe5b60209081029091010151600160a060020a03161561351b5761351886604001518581518110151561350157fe5b60209081029091010151869063ffffffff612c4816565b94505b6001909301926134b6565b8a866060015187600001518b888c6040516020018087815260200186815260200185815260200184600160a060020a0316600160a060020a03166c0100000000000000000000000002815260140183815260200182815260200196505050505050506040516020818303038152906040526040518082805190602001908083835b602083106135c65780518252601f1990920191602091820191016135a7565b5181516020939093036101000a6000190180199091169216919091179052604051920182900390912095508792508591505081151561360157fe5b069150600090505b85602001515181101561369057602086015180518290811061362757fe5b60209081029091010151600160a060020a03161561368857604086015180518290811061365057fe5b60209081029091010151909103906000821361368857602086015180518290811061367757fe5b9060200190602002015196506136b2565b600101613609565b6020860151805160001981019081106136a557fe5b9060200190602002015196505b505050505050949350505050565b604080516080810190915260008082526020820190815260200160608152602001600081525090565b828054600181600116156101000203166002900490600052602060002090601f016020900481019282601f1061372a57805160ff1916838001178555613757565b82800160010185558215613757579182015b8281111561375757825182559160200191906001019061373c565b506137639291506137b9565b5090565b81548183558181111561378b5760008381526020902061378b9181019083016137b9565b505050565b608060405190810160405280600081526020016060815260200160608152602001600081525090565b611db591905b8082111561376357600081556001016137bf565b60006137df823561484d565b9392505050565b6000601f820183136137f757600080fd5b813561380a613805826147e4565b6147bd565b9150818183526020840193506020810190508385602084028201111561382f57600080fd5b60005b8381101561385b578161384588826138e1565b8452506020928301929190910190600101613832565b5050505092915050565b6000601f8201831361387657600080fd5b8135613884613805826147e4565b915081818352602084019350602081019050838560208402820111156138a957600080fd5b60005b8381101561385b57816138bf88826138e1565b84525060209283019291909101906001016138ac565b60006137df8251614859565b60006137df8235611db5565b6000601f820183136138fe57600080fd5b813561390c61380582614805565b9150808252602083016020830185838301111561392857600080fd5b611e898382846148b4565b60006137df8251611db5565b60006020828403121561395157600080fd5b600061395d84846137d3565b949350505050565b60008060008060008060c0878903121561397e57600080fd5b600061398a89896137d3565b965050602087013567ffffffffffffffff8111156139a757600080fd5b6139b389828a016137e6565b955050604087013567ffffffffffffffff8111156139d057600080fd5b6139dc89828a016137e6565b945050606087013567ffffffffffffffff8111156139f957600080fd5b613a0589828a016137e6565b935050608087013567ffffffffffffffff811115613a2257600080fd5b613a2e89828a016138ed565b92505060a087013567ffffffffffffffff811115613a4b57600080fd5b613a5789828a016138ed565b9150509295509295509295565b60008060408385031215613a7757600080fd5b6000613a8385856137d3565b9250506020613a94858286016138e1565b9150509250929050565b60008060008060808587031215613ab457600080fd5b6000613ac087876137d3565b9450506020613ad1878288016138e1565b9350506040613ae2878288016137d3565b925050606085013567ffffffffffffffff811115613aff57600080fd5b613b0b878288016138ed565b91505092959194509250565b60008060008060008060c08789031215613b3057600080fd5b6000613b3c89896137d3565b9650506020613b4d89828a016138e1565b9550506040613b5e89828a016138e1565b9450506060613a0589828a016138e1565b60008060408385031215613b8257600080fd5b6000613b8e85856137d3565b925050602083013567ffffffffffffffff811115613bab57600080fd5b613a94858286016138ed565b600080600060608486031215613bcc57600080fd5b6000613bd886866137d3565b9350506020613be9868287016138e1565b9250506040613bfa868287016138e1565b9150509250925092565b60008060408385031215613c1757600080fd5b823567ffffffffffffffff811115613c2e57600080fd5b613c3a858286016137e6565b925050602083013567ffffffffffffffff811115613c5757600080fd5b613a9485828601613865565b600060208284031215613c7557600080fd5b600061395d84846138d5565b600060208284031215613c9357600080fd5b600061395d84846138e1565b60008060408385031215613cb257600080fd5b6000613a8385856138e1565b600060208284031215613cd057600080fd5b600061395d8484613933565b60008060408385031215613cef57600080fd5b6000613cfb85856138e1565b9250506020613a94858286016137d3565b60008060408385031215613d1f57600080fd5b6000613b8e85856138e1565b613d348161484d565b82525050565b6000613d458261483f565b808452602084019350613d578361482d565b60005b82811015613d8757613d6d868351613d2b565b613d768261482d565b602096909601959150600101613d5a565b5093949350505050565b6000613d9c82614843565b808452602084019350613dae83614833565b60005b82811015613d8757613dc4868354613d2b565b613dcd82614847565b602096909601959150600101613db1565b6000613de98261483f565b808452602084019350613dfb8361482d565b60005b82811015613d8757613e11868351613ece565b613e1a8261482d565b602096909601959150600101613dfe565b6000613e368261483f565b808452602084019350613e488361482d565b60005b82811015613d8757613e5e868351613ece565b613e678261482d565b602096909601959150600101613e4b565b6000613e8382614843565b808452602084019350613e9583614833565b60005b82811015613d8757613eab868354613ece565b613eb482614847565b602096909601959150600101613e98565b613d3481614859565b613d3481611db5565b6000613ee28261483f565b808452613ef68160208601602086016148c0565b613eff816148f0565b9093016020019392505050565b613d3481614888565b613d3481614893565b613d348161489e565b613d34816148a9565b601481527f556e7265676973746572656420776f726b65722e000000000000000000000000602082015260400190565b602681527f4e6f7420656e6f75676820746f6b656e7320616c6c6f77656420666f7220747260208201527f616e736665720000000000000000000000000000000000000000000000000000604082015260600190565b602181527f53656372657420636f6e747261637420616c7265616479206465706c6f79656460208201527f2e00000000000000000000000000000000000000000000000000000000000000604082015260600190565b601381527f496e76616c6964207461736b2073746174757300000000000000000000000000602082015260400190565b601e81527f496e76616c696420696e7075742073746174652064656c746120686173680000602082015260400190565b601281527f5472616e73666572206e6f742076616c69640000000000000000000000000000602082015260400190565b601581527f576f726b6572206e6f74206c6f6767656420696e2e0000000000000000000000602082015260400190565b602e81527f496e76616c696420696e7075742073746174652064656c74612068617368206660208201527f6f7220656d707479207374617465000000000000000000000000000000000000604082015260600190565b601481527f416c6c6f77616e6365206e6f7420656e6f756768000000000000000000000000602082015260400190565b601581527f576f726b6572206e6f7420726567697374657265640000000000000000000000602082015260400190565b602381527f496e76616c69642073746174652064656c746120686173686573206f7264657260208201527f696e670000000000000000000000000000000000000000000000000000000000604082015260600190565b602681527f4f6e6c7920746865205072696e636970616c2063616e2075706461746520746860208201527f6520736565640000000000000000000000000000000000000000000000000000604082015260600190565b601381527f5461736b20616c72656164792065786973742e00000000000000000000000000602082015260400190565b601d81527f53656372657420636f6e7472616374206e6f74206465706c6f7965642e000000602082015260400190565b601281527f496e76616c6964207369676e61747572652e0000000000000000000000000000602082015260400190565b603681527f4e6f20776f726b65727320706172616d657465727320656e74727920666f722060208201527f73706563696669656420626c6f636b206e756d62657200000000000000000000604082015260600190565b613d3481614882565b60208101612c428284613d2b565b604081016143398285613d2b565b6137df6020830184613d2b565b604081016143548285613d2b565b6137df6020830184613ece565b6060810161436f8286613d2b565b61437c6020830185613ece565b61395d6040830184613f15565b604081016143978285613d2b565b818103602083015261395d8184613ed7565b604081016143b78285613d2b565b6137df6020830184613f0c565b606081016143d28286613d2b565b6143df6020830185613f0c565b61395d6040830184613ece565b608081016143fa8287613d2b565b6144076020830186613f27565b81810360408301526144198185613ed7565b90506144286060830184613ece565b95945050505050565b602080825281016137df8184613d3a565b602080825281016137df8184613dde565b60a080825281016144648188613dde565b905081810360208301526144788187613dde565b9050818103604083015261448c8186613dde565b905081810360608301526144a08185613ed7565b905081810360808301526144b48184613ed7565b979650505050505050565b606080825281016144d08186613dde565b905081810360208301526144e48185613e2b565b905061395d6040830184613d2b565b60208101612c428284613ec5565b60208101612c428284613ece565b60a0810161451d8288613ece565b61452a6020830187613ece565b6145376040830186613ece565b81810360608301526144a08185613ed7565b606081016145578286613ece565b6145646020830185613ece565b61395d6040830184613d2b565b6080810161457f8287613ece565b61458c6020830186614314565b6145996040830185613ece565b6144286060830184613ece565b60208101612c428284613f0c565b60208082528101612c4281613f30565b60208082528101612c4281613f60565b60208082528101612c4281613fb6565b60208082528101612c428161400c565b60208082528101612c428161403c565b60208082528101612c428161406c565b60208082528101612c428161409c565b60208082528101612c42816140cc565b60208082528101612c4281614122565b60208082528101612c4281614152565b60208082528101612c4281614182565b60208082528101612c42816141d8565b60208082528101612c428161422e565b60208082528101612c428161425e565b60208082528101612c428161428e565b60208082528101612c42816142be565b608081016146c28287613ece565b81810360208301526146d48186613ed7565b90506146e36040830185613d2b565b6144286060830184613f1e565b608081016146fe8287613ece565b61470b6020830186613ece565b818103604083015261471d8185613d3a565b905081810360608301526147318184613d3a565b9695505050505050565b608081016147498287613ece565b6147566020830186613ece565b81810360408301526147688185613d3a565b905081810360608301526147318184613e2b565b6080810161478a8287613ece565b6147976020830186613ece565b81810360408301526147a98185613d91565b905081810360608301526147318184613e78565b60405181810167ffffffffffffffff811182821017156147dc57600080fd5b604052919050565b600067ffffffffffffffff8211156147fb57600080fd5b5060209081020190565b600067ffffffffffffffff82111561481c57600080fd5b506020601f91909101601f19160190565b60200190565b60009081526020902090565b5190565b5490565b60010190565b600160a060020a031690565b151590565b60006002821061376357fe5b60006003821061376357fe5b60006004821061376357fe5b60ff1690565b6000612c428261484d565b6000612c428261485e565b6000612c428261486a565b6000612c4282614876565b82818337506000910152565b60005b838110156148db5781810151838201526020016148c3565b838111156148ea576000848401525b50505050565b601f01601f1916905600a265627a7a723058205263d8f2cfe4e0365f91cab2a332bc94e8969cfcc2bfbf2938c4893b938c608b6c6578706572696d656e74616cf50037",
  "source": "pragma solidity ^0.4.24;\npragma experimental ABIEncoderV2;\n\nimport \"openzeppelin-solidity/contracts/math/SafeMath.sol\";\nimport \"openzeppelin-solidity/contracts/ECRecovery.sol\";\n\ncontract ERC20 {\n    function allowance(address owner, address spender) public view returns (uint256);\n\n    function transferFrom(address from, address to, uint256 value) public returns (bool);\n\n    function approve(address spender, uint256 value) public returns (bool);\n\n    function totalSupply() public view returns (uint256);\n\n    function balanceOf(address who) public view returns (uint256);\n\n    function transfer(address to, uint256 value) public returns (bool);\n\n    event Transfer(address indexed from, address indexed to, uint256 value);\n    event Approval(address indexed owner, address indexed spender, uint256 value);\n}\n\ncontract Enigma {\n    using SafeMath for uint256;\n    using ECRecovery for bytes32;\n\n    // The interface of the deployed ENG ERC20 token contract\n    ERC20 public engToken;\n\n    uint public epochSize = 100;\n\n    struct TaskRecord {\n        uint fee;\n        bytes proof; // Signature of (taskId, inStateDeltaHash, outStateDeltaHash, ethCall)\n        address sender;\n        TaskStatus status;\n    }\n    enum TaskStatus {RecordUndefined, RecordCreated, ReceiptVerified}\n\n    /**\n    * The signer address of the principal node\n    * This must be set when deploying the contract and remains immutable\n    * Since the signer address is derived from the public key of an\n    * SGX enclave, this ensures that the principal node cannot be tempered\n    * with or replaced.\n    */\n    address principal;\n\n    // The data representation of a worker (or node)\n    struct Worker {\n        address signer;\n        WorkerStatus status; // Uninitialized: 0; Active: 1; Inactive: 2\n        bytes report; // Decided to store this as one  RLP encoded attribute for easier external storage in the future\n        uint256 balance;\n    }\n\n    enum WorkerStatus {Unregistered, Registered, LoggedIn, LoggedOut}\n\n    /**\n    * The data representation of the worker parameters used as input for\n    * the worker selection algorithm\n    */\n    struct WorkersParams {\n        uint firstBlockNumber;\n        address[] workers;\n        uint[] balances;\n        uint seed;\n    }\n\n    struct SecretContract {\n        address owner;\n        bytes32 codeHash;\n        bytes32[] stateDeltaHashes;\n        SecretContractStatus status;\n        // TODO: consider keeping an index of taskIds\n    }\n    // TODO: do we want to have a contract lifecycle?\n    enum SecretContractStatus {Undefined, Deployed}\n\n    /**\n    * The last 5 worker parameters\n    * We keep a collection of worker parameters to account for latency issues.\n    * A computation task might be conceivably given out at a certain block number\n    * but executed at a later block in a different epoch. It follows that\n    * the contract must have access to the worker parameters effective when giving\n    * out the task, otherwise the selected worker would not match. We calculated\n    * that keeping the last 5 items should be more than enough to account for\n    * all latent tasks. Tasks results will be rejected past this limit.\n    */\n    WorkersParams[5] workersParams;\n\n    // An address-based index of all registered worker\n    address[] public workerAddresses;\n    // An address-based index of all secret contracts\n    address[] public scAddresses;\n\n    // A registry of all registered workers with their attributes\n    mapping(address => Worker) public workers;\n    mapping(bytes32 => TaskRecord) public tasks;\n    mapping(address => SecretContract) public contracts;\n\n    // A mapping of number of secret contract deployments for each address\n    mapping(address => uint) public userSCDeployments;\n\n    // TODO: do we keep tasks forever? if not, when do we delete them?\n    uint stakingThreshold;\n    uint public workerGroupSize;\n\n    // The events emitted by the contract\n    event Registered(address custodian, address signer);\n    event ValidatedSig(bytes sig, bytes32 hash, address workerAddr);\n    event WorkersParameterized(uint seed, uint256 blockNumber, address[] workers, uint[] balances);\n    event TaskRecordCreated(bytes32 taskId, uint fee, address sender);\n    event TaskRecordsCreated(bytes32[] taskIds, uint[] fees, address sender);\n    event ReceiptVerified(bytes32 taskId, bytes32 inStateDeltaHash, bytes32 outStateDeltaHash, bytes ethCall, bytes sig);\n    event ReceiptsVerified(bytes32[] taskIds, bytes32[] inStateDeltaHashes, bytes32[] outStateDeltaHashes, bytes ethCall, bytes sig);\n    event DepositSuccessful(address from, uint value);\n    event SecretContractDeployed(address scAddr, bytes32 codeHash);\n\n    constructor(address _tokenAddress, address _principal) public {\n        engToken = ERC20(_tokenAddress);\n        principal = _principal;\n        stakingThreshold = 1;\n        workerGroupSize = 5;\n    }\n\n    //TODO: break down these methods into services for upgradability\n\n    /**\n    * Checks if the custodian wallet is registered as a worker\n    *\n    * @param _user The custodian address of the worker\n    */\n    modifier workerRegistered(address _user) {\n        Worker memory worker = workers[_user];\n        require(worker.status != WorkerStatus.Unregistered, \"Unregistered worker.\");\n        _;\n    }\n\n    /**\n    * Checks if the custodian wallet is logged in as a worker\n    *\n    * @param _user The custodian address of the worker\n    */\n    modifier workerLoggedIn(address _user) {\n        Worker memory worker = workers[_user];\n        require(worker.status == WorkerStatus.LoggedIn, \"Worker not logged in.\");\n        _;\n    }\n\n    modifier contractDeployed(address _scAddr) {\n        require(contracts[_scAddr].status == SecretContractStatus.Deployed, \"Secret contract not deployed.\");\n        _;\n    }\n\n    /**\n    * Registers a new worker of change the signer parameters of an existing\n    * worker. This should be called by every worker (and the principal)\n    * node in order to receive tasks.\n    *\n    * @param _signer The signer address, derived from the enclave public key\n    * @param _report The RLP encoded report returned by the IAS\n    */\n    function register(address _signer, bytes _report)\n    public\n    {\n        // TODO: consider exit if both signer and custodian as matching\n        // If the custodian is not already register, we add an index entry\n        if (workers[msg.sender].signer == 0x0) {\n            workerAddresses.push(msg.sender);\n        }\n\n        // Set the custodian attributes\n        workers[msg.sender].signer = _signer;\n        workers[msg.sender].balance = 0;\n        workers[msg.sender].report = _report;\n        workers[msg.sender].status = WorkerStatus.Registered;\n\n        emit Registered(msg.sender, _signer);\n    }\n\n    function deposit(address _custodian, uint _amount)\n    public\n    workerRegistered(_custodian)\n    {\n        require(engToken.allowance(_custodian, this) >= _amount, \"Not enough tokens allowed for transfer\");\n        require(engToken.transferFrom(_custodian, this, _amount));\n\n        workers[_custodian].balance = workers[_custodian].balance.add(_amount);\n\n        emit DepositSuccessful(_custodian, _amount);\n    }\n\n    function login() public workerRegistered(msg.sender) {\n        workers[msg.sender].status = WorkerStatus.LoggedIn;\n    }\n\n    function logout() public workerLoggedIn(msg.sender) {\n        workers[msg.sender].status = WorkerStatus.LoggedOut;\n    }\n\n    // TODO: should the scAddr be computed on-chain from the codeHash + some randomness\n    // TODO: should any user deploy a secret contract or only a trusted enclave?\n    function deploySecretContract(address _scAddr, bytes32 _codeHash, address _owner, bytes _sig)\n    public\n    workerRegistered(msg.sender)\n    {\n        address scAddr = address(keccak256(abi.encodePacked(_codeHash, _owner, userSCDeployments[_owner])));\n        require(scAddr == _scAddr);\n        require(contracts[_scAddr].status == SecretContractStatus.Undefined, \"Secret contract already deployed.\");\n        bytes32 msgHash = keccak256(abi.encodePacked(_codeHash));\n        address verifyAddr = msgHash.toEthSignedMessageHash().recover(_sig);\n        require(verifyAddr == _owner);\n\n        //TODO: is this too naive?\n        contracts[_scAddr].owner = _owner;\n        contracts[_scAddr].codeHash = _codeHash;\n        contracts[_scAddr].status = SecretContractStatus.Deployed;\n        scAddresses.push(_scAddr);\n        userSCDeployments[_owner]++;\n        emit SecretContractDeployed(scAddr, _codeHash);\n    }\n\n    function isDeployed(address _scAddr)\n    public\n    view\n    returns (bool)\n    {\n        if (contracts[_scAddr].status == SecretContractStatus.Deployed) {\n            return true;\n        } else {\n            return false;\n        }\n    }\n\n    function getCodeHash(address _scAddr)\n    public\n    view\n    contractDeployed(_scAddr)\n    returns (bytes32)\n    {\n        return contracts[_scAddr].codeHash;\n    }\n\n    function countSecretContracts()\n    public\n    view\n    returns (uint)\n    {\n        return scAddresses.length;\n    }\n\n    /**\n    * Selects address from _start up to, but not including, the _stop number\n    **/\n    function getSecretContractAddresses(uint _start, uint _stop)\n    public\n    view\n    returns (address[])\n    {\n        if (_stop == 0) {\n            _stop = scAddresses.length;\n        }\n        address[] memory addresses = new address[](_stop.sub(_start));\n        uint pos = 0;\n        for (uint i = _start; i < _stop; i++) {\n            addresses[pos] = scAddresses[i];\n            pos++;\n        }\n        return addresses;\n    }\n\n    function countStateDeltas(address _scAddr)\n    public\n    view\n    contractDeployed(_scAddr)\n    returns (uint)\n    {\n        return contracts[_scAddr].stateDeltaHashes.length;\n    }\n\n    function getStateDeltaHash(address _scAddr, uint _index)\n    public\n    view\n    contractDeployed(_scAddr)\n    returns (bytes32)\n    {\n        return contracts[_scAddr].stateDeltaHashes[_index];\n    }\n\n    /**\n    * Selects state deltas from _start up to, but not including, the _stop number\n    **/\n    function getStateDeltaHashes(address _scAddr, uint _start, uint _stop)\n    public\n    view\n    contractDeployed(_scAddr)\n    returns (bytes32[])\n    {\n        if (_stop == 0) {\n            _stop = contracts[_scAddr].stateDeltaHashes.length;\n        }\n        bytes32[] memory deltas = new bytes32[](_stop.sub(_start));\n        uint pos = 0;\n        for (uint i = _start; i < _stop; i++) {\n            deltas[pos] = contracts[_scAddr].stateDeltaHashes[i];\n            pos++;\n        }\n        return deltas;\n    }\n\n    function isValidDeltaHash(address _scAddr, bytes32 _stateDeltaHash)\n    public\n    view\n    contractDeployed(_scAddr)\n    returns (bool)\n    {\n        bool valid = false;\n        for (uint i = 0; i < contracts[_scAddr].stateDeltaHashes.length; i++) {\n            if (contracts[_scAddr].stateDeltaHashes[i] == _stateDeltaHash) {\n                valid = true;\n                break;\n            }\n        }\n        return valid;\n    }\n\n    /**\n    * Store task record\n    *\n    */\n    function createTaskRecord(\n        bytes32 _taskId,\n        uint _fee\n    )\n    public\n    {\n        require(tasks[_taskId].sender == 0x0, \"Task already exist.\");\n        require(engToken.allowance(msg.sender, this) >= _fee, \"Allowance not enough\");\n        require(engToken.transferFrom(msg.sender, this, _fee), \"Transfer not valid\");\n\n        tasks[_taskId].fee = _fee;\n        tasks[_taskId].sender = msg.sender;\n        tasks[_taskId].status = TaskStatus.RecordCreated;\n\n        emit TaskRecordCreated(_taskId, _fee, msg.sender);\n    }\n\n    function createTaskRecords(\n        bytes32[] _taskIds,\n        uint[] _fees\n    )\n    public\n    {\n        for (uint i = 0; i < _taskIds.length; i++) {\n            require(tasks[_taskIds[i]].sender == 0x0, \"Task already exist.\");\n            require(engToken.allowance(msg.sender, this) >= _fees[i], \"Allowance not enough\");\n            require(engToken.transferFrom(msg.sender, this, _fees[i]), \"Transfer not valid\");\n\n            tasks[_taskIds[i]].fee = _fees[i];\n            tasks[_taskIds[i]].sender = msg.sender;\n            tasks[_taskIds[i]].status = TaskStatus.RecordCreated;\n        }\n        emit TaskRecordsCreated(_taskIds, _fees, msg.sender);\n    }\n\n    // Execute the encoded function in the specified contract\n    function executeCall(address _to, uint256 _value, bytes _data)\n    internal\n    returns (bool success)\n    {\n        assembly {\n            success := call(gas, _to, _value, add(_data, 0x20), mload(_data), 0, 0)\n        }\n    }\n\n    function verifyReceipt(\n        address _scAddr,\n        bytes32 _taskId,\n        bytes32 _inStateDeltaHash,\n        bytes32 _outStateDeltaHash,\n        bytes _ethCall,\n        bytes _sig\n    )\n    internal\n    {\n        uint index = contracts[_scAddr].stateDeltaHashes.length;\n        if (index == 0) {\n            require(_inStateDeltaHash == 0x0, 'Invalid input state delta hash for empty state');\n        } else {\n            require(_inStateDeltaHash == contracts[_scAddr].stateDeltaHashes[index.sub(1)], 'Invalid input state delta hash');\n        }\n        contracts[_scAddr].stateDeltaHashes.push(_outStateDeltaHash);\n\n        // TODO: execute the Ethereum calls\n\n        // Build a hash to validate that the I/Os are matching\n        bytes32 hash = keccak256(abi.encodePacked(_taskId, _inStateDeltaHash, _outStateDeltaHash, _ethCall));\n\n        // The worker address is not a real Ethereum wallet address but\n        // one generated from its signing key\n        address workerAddr = hash.recover(_sig);\n        require(workerAddr == workers[msg.sender].signer, \"Invalid signature.\");\n    }\n\n    /**\n    * Commit the computation task results on chain\n    */\n    function commitReceipt(\n        address _scAddr,\n        bytes32 _taskId,\n        bytes32 _inStateDeltaHash,\n        bytes32 _outStateDeltaHash,\n        bytes _ethCall,\n        bytes _sig\n    )\n    public\n    workerLoggedIn(msg.sender)\n    contractDeployed(_scAddr)\n    {\n        require(tasks[_taskId].status == TaskStatus.RecordCreated, 'Invalid task status');\n        verifyReceipt(_scAddr, _taskId, _inStateDeltaHash, _outStateDeltaHash, _ethCall, _sig);\n\n        tasks[_taskId].proof = _sig;\n        tasks[_taskId].status = TaskStatus.ReceiptVerified;\n        workers[msg.sender].balance = workers[msg.sender].balance.add(tasks[_taskId].fee);\n        emit ReceiptVerified(_taskId, _inStateDeltaHash, _outStateDeltaHash, _ethCall, _sig);\n    }\n\n    function verifyReceipts(\n        address _scAddr,\n        bytes32[] _taskIds,\n        bytes32[] _inStateDeltaHashes,\n        bytes32[] _outStateDeltaHashes,\n        bytes _ethCall,\n        bytes _sig\n    )\n    internal\n    {\n        // First, we verify the state delta hashes ordering\n        uint index = contracts[_scAddr].stateDeltaHashes.length;\n        if (index == 0) {\n            require(_inStateDeltaHashes[0] == 0x0, 'Invalid input state delta hash for empty state');\n        } else {\n            require(_inStateDeltaHashes[0] == contracts[_scAddr].stateDeltaHashes[index.sub(1)], 'Invalid input state delta hash');\n        }\n        for (uint i = 0; i < _taskIds.length; i++) {\n            require(tasks[_taskIds[i]].status == TaskStatus.RecordCreated, 'Invalid task status');\n            if (i > 0) {\n                require(_inStateDeltaHashes[i] == _outStateDeltaHashes[i - 1], 'Invalid state delta hashes ordering');\n            }\n        }\n        // TODO: verify signature\n        // Then, we store the outStateDeltaHashes\n        for (uint ic = 0; ic < _taskIds.length; ic++) {\n            contracts[_scAddr].stateDeltaHashes.push(_outStateDeltaHashes[ic]);\n            if (ic == _taskIds.length.sub(1)) {\n                tasks[_taskIds[ic]].proof = _sig;\n            }\n            tasks[_taskIds[ic]].status = TaskStatus.ReceiptVerified;\n            workers[msg.sender].balance = workers[msg.sender].balance.add(tasks[_taskIds[ic]].fee);\n        }\n        // TODO: execute the Ethereum calls\n    }\n\n    function commitReceipts(\n        address _scAddr,\n        bytes32[] _taskIds,\n        bytes32[] _inStateDeltaHashes,\n        bytes32[] _outStateDeltaHashes,\n        bytes _ethCall,\n        bytes _sig\n    )\n    public\n    workerLoggedIn(msg.sender)\n    contractDeployed(_scAddr)\n    {\n        verifyReceipts(_scAddr, _taskIds, _inStateDeltaHashes, _outStateDeltaHashes, _ethCall, _sig);\n        emit ReceiptsVerified(_taskIds, _inStateDeltaHashes, _outStateDeltaHashes, _ethCall, _sig);\n    }\n\n    // Verify the signature submitted while reparameterizing workers\n    function verifyParamsSig(uint256 _seed, bytes _sig)\n    internal\n    pure\n    returns (address)\n    {\n        bytes32 hash = keccak256(abi.encodePacked(_seed));\n        address signer = hash.recover(_sig);\n        return signer;\n    }\n\n    /**\n    * Reparameterizing workers with a new seed\n    * This should be called for each epoch by the Principal node\n    *\n    * @param _seed The random integer generated by the enclave\n    * @param _sig The random integer signed by the the principal node's enclave\n    */\n    function setWorkersParams(uint _seed, bytes _sig)\n    public\n    workerRegistered(msg.sender)\n    {\n        // Reparameterizing workers with a new seed\n        // This should be called for each epoch by the Principal node\n\n        // We assume that the Principal is always the first registered node\n        require(workers[msg.sender].signer == principal, \"Only the Principal can update the seed\");\n        // TODO: verify the principal sig\n\n        // Create a new workers parameters item for the specified seed.\n        // The workers parameters list is a sort of cache, it never grows beyond its limit.\n        // If the list is full, the new item will replace the item assigned to the lowest block number.\n        uint paramIndex = 0;\n        for (uint pi = 0; pi < workersParams.length; pi++) {\n            // Find an empty slot in the array, if full use the lowest block number\n            if (workersParams[pi].firstBlockNumber == 0) {\n                paramIndex = pi;\n                break;\n            } else if (workersParams[pi].firstBlockNumber < workersParams[paramIndex].firstBlockNumber) {\n                paramIndex = pi;\n            }\n        }\n        workersParams[paramIndex].firstBlockNumber = block.number;\n        workersParams[paramIndex].seed = _seed;\n\n        // Copy the current worker list\n        uint workerIndex = 0;\n        for (uint wi = 0; wi < workerAddresses.length; wi++) {\n            Worker memory worker = workers[workerAddresses[wi]];\n            if ((worker.balance >= stakingThreshold) && (worker.signer != principal) &&\n                (worker.status == WorkerStatus.LoggedIn)) {\n                workersParams[paramIndex].workers.length++;\n                workersParams[paramIndex].workers[workerIndex] = workerAddresses[wi];\n\n                workersParams[paramIndex].balances.length++;\n                workersParams[paramIndex].balances[workerIndex] = worker.balance;\n\n                workerIndex = workerIndex.add(1);\n            }\n        }\n        emit WorkersParameterized(_seed, block.number, workersParams[paramIndex].workers, workersParams[paramIndex].balances);\n    }\n\n    function getWorkerParamsIndex(uint _blockNumber)\n    internal\n    view\n    returns (uint)\n    {\n        // The workers parameters for a given block number\n        int8 index = - 1;\n        for (uint i = 0; i < workersParams.length; i++) {\n            if (workersParams[i].firstBlockNumber <= _blockNumber && (index == - 1 || workersParams[i].firstBlockNumber > workersParams[uint(index)].firstBlockNumber)) {\n                index = int8(i);\n            }\n        }\n        require(index != - 1, \"No workers parameters entry for specified block number\");\n        return uint(index);\n    }\n\n    function getWorkerParams(uint _blockNumber)\n    public\n    view\n    returns (uint, uint, address[], uint[]) {\n        uint index = getWorkerParamsIndex(_blockNumber);\n        WorkersParams memory params = workersParams[index];\n        return (params.firstBlockNumber, params.seed, params.workers, params.balances);\n    }\n\n    function compileTokens(uint _blockNumber, uint _paramIndex, address _scAddr, uint _nonce)\n    internal\n    view\n    returns (address)\n    {\n        WorkersParams memory params = workersParams[_paramIndex];\n        uint tokenCpt = 0;\n        for (uint i = 0; i < params.workers.length; i++) {\n            if (params.workers[i] != 0x0) {\n                tokenCpt = tokenCpt.add(params.balances[i]);\n            }\n        }\n        bytes32 randHash = keccak256(abi.encodePacked(_blockNumber, params.seed, params.firstBlockNumber, _scAddr,\n            tokenCpt, _nonce));\n        int randVal = int256(uint256(randHash) % tokenCpt);\n        for (uint k = 0; k < params.workers.length; k++) {\n            if (params.workers[k] != 0x0) {\n                randVal -= int256(params.balances[k]);\n                if (randVal <= 0) {\n                    return params.workers[k];\n                }\n            }\n        }\n        return params.workers[params.workers.length - 1];\n    }\n\n    function getWorkerGroup(uint _blockNumber, address _scAddr)\n    public\n    view\n    returns (address[])\n    {\n        // Compile a list of selected workers for the block number and\n        // secret contract.\n        uint paramIndex = getWorkerParamsIndex(_blockNumber);\n        WorkersParams memory params = workersParams[paramIndex];\n\n        address[] memory selectedWorkers = new address[](workerGroupSize);\n        uint nonce = 0;\n        for (uint it = 0; it < workerGroupSize; it++) {\n            do {\n                address worker = compileTokens(_blockNumber, paramIndex, _scAddr, nonce);\n                bool dup = false;\n                for (uint id = 0; id < selectedWorkers.length; id++) {\n                    if (worker == selectedWorkers[id]) {\n                        dup = true;\n                        break;\n                    }\n                }\n                if (dup == false) {\n                    selectedWorkers[it] = worker;\n                }\n                nonce++;\n            }\n            while (selectedWorkers[it] == 0x0);\n        }\n        return selectedWorkers;\n    }\n\n    /**\n    * The worker parameters corresponding to the specified block number\n    *\n    * @param _blockNumber The reference block number\n    */\n    function getWorkersParams(uint _blockNumber)\n    public\n    view\n    returns (uint, uint, address[], address[])\n    {\n        // TODO: finalize implementation\n        uint firstBlockNumber = 0;\n        uint seed = 0;\n        address[] memory activeWorkers;\n        address[] memory activeContracts;\n        return (firstBlockNumber, seed, activeWorkers, activeContracts);\n    }\n\n    /**\n    * The RLP encoded report returned by the IAS server\n    *\n    * @param _custodian The worker's custodian address\n    */\n    function getReport(address _custodian)\n    public\n    view\n    workerRegistered(_custodian)\n    returns (address, bytes)\n    {\n        // The RLP encoded report and signer's address for the specified worker\n        require(workers[_custodian].signer != 0x0, \"Worker not registered\");\n        return (workers[_custodian].signer, workers[_custodian].report);\n    }\n}\n",
  "sourcePath": "/Users/adityapalepu/Startups/enigma/enigma-contract-internal/contracts/Enigma.sol",
  "compiler": {
    "name": "solc",
    "version": "0.4.24+commit.e67f0147.Emscripten.clang"
  },
  "schemaVersion": "2.0.0",
  "updatedAt": "2018-12-19T21:26:34.284Z"
}