{
  "contractName": "Enigma",
  "abi": [
    {
      "constant": true,
      "inputs": [
        {
          "name": "",
          "type": "uint256"
        }
      ],
      "name": "workerAddresses",
      "outputs": [
        {
          "name": "",
          "type": "address"
        }
      ],
      "payable": false,
      "stateMutability": "view",
      "type": "function",
      "signature": "0x0a318da0"
    },
    {
      "constant": true,
      "inputs": [
        {
          "name": "",
          "type": "address"
        }
      ],
      "name": "workers",
      "outputs": [
        {
          "name": "signer",
          "type": "address"
        },
        {
          "name": "quote",
          "type": "bytes"
        },
        {
          "name": "report",
          "type": "bytes"
        },
        {
          "name": "balance",
          "type": "uint256"
        },
        {
          "name": "status",
          "type": "uint256"
        }
      ],
      "payable": false,
      "stateMutability": "view",
      "type": "function",
      "signature": "0x4048a257"
    },
    {
      "constant": true,
      "inputs": [],
      "name": "engToken",
      "outputs": [
        {
          "name": "",
          "type": "address"
        }
      ],
      "payable": false,
      "stateMutability": "view",
      "type": "function",
      "signature": "0x9489ad40"
    },
    {
      "constant": true,
      "inputs": [
        {
          "name": "",
          "type": "bytes32"
        }
      ],
      "name": "tasks",
      "outputs": [
        {
          "name": "dappContract",
          "type": "address"
        },
        {
          "name": "callable",
          "type": "string"
        },
        {
          "name": "callableArgs",
          "type": "bytes"
        },
        {
          "name": "callback",
          "type": "string"
        },
        {
          "name": "worker",
          "type": "address"
        },
        {
          "name": "sig",
          "type": "bytes"
        },
        {
          "name": "reward",
          "type": "uint256"
        },
        {
          "name": "blockNumber",
          "type": "uint256"
        },
        {
          "name": "status",
          "type": "uint8"
        }
      ],
      "payable": false,
      "stateMutability": "view",
      "type": "function",
      "signature": "0xe579f500"
    },
    {
      "inputs": [
        {
          "name": "_tokenAddress",
          "type": "address"
        },
        {
          "name": "_principal",
          "type": "address"
        }
      ],
      "payable": false,
      "stateMutability": "nonpayable",
      "type": "constructor",
      "signature": "constructor"
    },
    {
      "anonymous": false,
      "inputs": [
        {
          "indexed": false,
          "name": "user",
          "type": "address"
        },
        {
          "indexed": false,
          "name": "signer",
          "type": "address"
        },
        {
          "indexed": false,
          "name": "_success",
          "type": "bool"
        }
      ],
      "name": "Register",
      "type": "event",
      "signature": "0xaea7118a676707165821e4678d9998eaabd7a2864b5db99ec0badef3fb7fa1e4"
    },
    {
      "anonymous": false,
      "inputs": [
        {
          "indexed": false,
          "name": "sig",
          "type": "bytes"
        },
        {
          "indexed": false,
          "name": "hash",
          "type": "bytes32"
        },
        {
          "indexed": false,
          "name": "workerAddr",
          "type": "address"
        },
        {
          "indexed": false,
          "name": "bytecode",
          "type": "bytes"
        },
        {
          "indexed": false,
          "name": "_success",
          "type": "bool"
        }
      ],
      "name": "ValidateSig",
      "type": "event",
      "signature": "0xff6705f1a974965043a4b4d997ef0e9f773759a078b3a30b02507c11ec5a6c4b"
    },
    {
      "anonymous": false,
      "inputs": [
        {
          "indexed": false,
          "name": "dappContract",
          "type": "address"
        },
        {
          "indexed": false,
          "name": "worker",
          "type": "address"
        },
        {
          "indexed": false,
          "name": "sig",
          "type": "bytes"
        },
        {
          "indexed": false,
          "name": "reward",
          "type": "uint256"
        },
        {
          "indexed": false,
          "name": "_success",
          "type": "bool"
        }
      ],
      "name": "CommitResults",
      "type": "event",
      "signature": "0x860ef3e30d5efeaa79f3d448bd5219e9b92ca92eefb7bcc4e8c6b3420fe9dd3d"
    },
    {
      "anonymous": false,
      "inputs": [
        {
          "indexed": false,
          "name": "seed",
          "type": "uint256"
        },
        {
          "indexed": false,
          "name": "workers",
          "type": "address[]"
        },
        {
          "indexed": false,
          "name": "_success",
          "type": "bool"
        }
      ],
      "name": "WorkersParameterized",
      "type": "event",
      "signature": "0x363e1a0b29df899b2a8946ad6ac8f81796117158a11dc2c2a5b8c0297789ffa1"
    },
    {
      "anonymous": false,
      "inputs": [
        {
          "indexed": true,
          "name": "callingContract",
          "type": "address"
        },
        {
          "indexed": true,
          "name": "taskId",
          "type": "bytes32"
        },
        {
          "indexed": false,
          "name": "callable",
          "type": "string"
        },
        {
          "indexed": false,
          "name": "callableArgs",
          "type": "bytes"
        },
        {
          "indexed": false,
          "name": "callback",
          "type": "string"
        },
        {
          "indexed": false,
          "name": "fee",
          "type": "uint256"
        },
        {
          "indexed": false,
          "name": "preprocessors",
          "type": "bytes32[]"
        },
        {
          "indexed": false,
          "name": "blockNumber",
          "type": "uint256"
        },
        {
          "indexed": false,
          "name": "_success",
          "type": "bool"
        }
      ],
      "name": "ComputeTask",
      "type": "event",
      "signature": "0x4ff070954b5d945704da2dfe97df43d753324f63c307db579707f91239df423e"
    },
    {
      "constant": false,
      "inputs": [
        {
          "name": "signer",
          "type": "address"
        },
        {
          "name": "quote",
          "type": "bytes"
        },
        {
          "name": "report",
          "type": "bytes"
        }
      ],
      "name": "register",
      "outputs": [
        {
          "name": "",
          "type": "uint8"
        }
      ],
      "payable": true,
      "stateMutability": "payable",
      "type": "function",
      "signature": "0x786cd4d7"
    },
    {
      "constant": true,
      "inputs": [
        {
          "name": "dappContract",
          "type": "address"
        },
        {
          "name": "callable",
          "type": "string"
        },
        {
          "name": "callableArgs",
          "type": "bytes"
        },
        {
          "name": "blockNumber",
          "type": "uint256"
        }
      ],
      "name": "generateTaskId",
      "outputs": [
        {
          "name": "",
          "type": "bytes32"
        }
      ],
      "payable": false,
      "stateMutability": "view",
      "type": "function",
      "signature": "0x48aa8573"
    },
    {
      "constant": false,
      "inputs": [
        {
          "name": "dappContract",
          "type": "address"
        },
        {
          "name": "callable",
          "type": "string"
        },
        {
          "name": "callableArgs",
          "type": "bytes"
        },
        {
          "name": "callback",
          "type": "string"
        },
        {
          "name": "fee",
          "type": "uint256"
        },
        {
          "name": "preprocessors",
          "type": "bytes32[]"
        },
        {
          "name": "blockNumber",
          "type": "uint256"
        }
      ],
      "name": "compute",
      "outputs": [
        {
          "name": "",
          "type": "uint8"
        }
      ],
      "payable": false,
      "stateMutability": "nonpayable",
      "type": "function",
      "signature": "0xbf3c5c51"
    },
    {
      "constant": false,
      "inputs": [
        {
          "name": "taskId",
          "type": "bytes32"
        },
        {
          "name": "data",
          "type": "bytes"
        },
        {
          "name": "sig",
          "type": "bytes"
        },
        {
          "name": "blockNumber",
          "type": "uint256"
        }
      ],
      "name": "commitResults",
      "outputs": [
        {
          "name": "",
          "type": "uint8"
        }
      ],
      "payable": false,
      "stateMutability": "nonpayable",
      "type": "function",
      "signature": "0xa944c0cd"
    },
    {
      "constant": false,
      "inputs": [
        {
          "name": "seed",
          "type": "uint256"
        },
        {
          "name": "sig",
          "type": "bytes"
        }
      ],
      "name": "setWorkersParams",
      "outputs": [
        {
          "name": "",
          "type": "uint8"
        }
      ],
      "payable": false,
      "stateMutability": "nonpayable",
      "type": "function",
      "signature": "0x2873e73c"
    },
    {
      "constant": true,
      "inputs": [
        {
          "name": "blockNumber",
          "type": "uint256"
        }
      ],
      "name": "getWorkersParams",
      "outputs": [
        {
          "name": "",
          "type": "uint256"
        },
        {
          "name": "",
          "type": "uint256"
        },
        {
          "name": "",
          "type": "address[]"
        }
      ],
      "payable": false,
      "stateMutability": "view",
      "type": "function",
      "signature": "0x59c91a12"
    },
    {
      "constant": true,
      "inputs": [
        {
          "name": "blockNumber",
          "type": "uint256"
        },
        {
          "name": "taskId",
          "type": "bytes32"
        }
      ],
      "name": "selectWorker",
      "outputs": [
        {
          "name": "",
          "type": "address"
        }
      ],
      "payable": false,
      "stateMutability": "view",
      "type": "function",
      "signature": "0x41f53fa4"
    },
    {
      "constant": true,
      "inputs": [
        {
          "name": "custodian",
          "type": "address"
        }
      ],
      "name": "getReport",
      "outputs": [
        {
          "name": "",
          "type": "address"
        },
        {
          "name": "",
          "type": "bytes"
        }
      ],
      "payable": false,
      "stateMutability": "view",
      "type": "function",
      "signature": "0xa3bdae3e"
    }
  ],
  "bytecode": "0x608060405234801561001057600080fd5b50604051604080612db383398101604052805160209091015160008054600160a060020a03938416600160a060020a03199182161790915560018054939092169216919091179055612d4c806100676000396000f3006080604052600436106100b95763ffffffff7c01000000000000000000000000000000000000000000000000000000006000350416630a318da081146100be5780632873e73c146100f25780634048a2571461017457806341f53fa41461029a57806348aa8573146102b557806359c91a121461036e578063786cd4d7146103e85780639489ad4014610480578063a3bdae3e14610495578063a944c0cd14610547578063bf3c5c51146105e5578063e579f5001461070a575b600080fd5b3480156100ca57600080fd5b506100d6600435610921565b60408051600160a060020a039092168252519081900360200190f35b3480156100fe57600080fd5b5060408051602060046024803582810135601f81018590048502860185019096528585526101509583359536956044949193909101919081908401838280828437509497506109499650505050505050565b6040518082600181111561016057fe5b60ff16815260200191505060405180910390f35b34801561018057600080fd5b50610195600160a060020a0360043516610eae565b6040518086600160a060020a0316600160a060020a031681526020018060200180602001858152602001848152602001838103835287818151815260200191508051906020019080838360005b838110156101fa5781810151838201526020016101e2565b50505050905090810190601f1680156102275780820380516001836020036101000a031916815260200191505b50838103825286518152865160209182019188019080838360005b8381101561025a578181015183820152602001610242565b50505050905090810190601f1680156102875780820380516001836020036101000a031916815260200191505b5097505050505050505060405180910390f35b3480156102a657600080fd5b506100d6600435602435611000565b3480156102c157600080fd5b5060408051602060046024803582810135601f810185900485028601850190965285855261035c958335600160a060020a031695369560449491939091019190819084018382808284375050604080516020601f89358b018035918201839004830284018301909452808352979a99988101979196509182019450925082915084018382808284375094975050933594506110769350505050565b60408051918252519081900360200190f35b34801561037a57600080fd5b50610386600435611154565b6040518084815260200183815260200180602001828103825283818151815260200191508051906020019060200280838360005b838110156103d25781810151838201526020016103ba565b5050505090500194505050505060405180910390f35b60408051602060046024803582810135601f8101859004850286018501909652858552610150958335600160a060020a031695369560449491939091019190819084018382808284375050604080516020601f89358b018035918201839004830284018301909452808352979a9998810197919650918201945092508291508401838280828437509497506112aa9650505050505050565b34801561048c57600080fd5b506100d66113c9565b3480156104a157600080fd5b506104b6600160a060020a03600435166113d8565b6040518083600160a060020a0316600160a060020a0316815260200180602001828103825283818151815260200191508051906020019080838360005b8381101561050b5781810151838201526020016104f3565b50505050905090810190601f1680156105385780820380516001836020036101000a031916815260200191505b50935050505060405180910390f35b34801561055357600080fd5b5060408051602060046024803582810135601f810185900485028601850190965285855261015095833595369560449491939091019190819084018382808284375050604080516020601f89358b018035918201839004830284018301909452808352979a99988101979196509182019450925082915084018382808284375094975050933594506116da9350505050565b3480156105f157600080fd5b5060408051602060046024803582810135601f8101859004850286018501909652858552610150958335600160a060020a031695369560449491939091019190819084018382808284375050604080516020601f89358b018035918201839004830284018301909452808352979a99988101979196509182019450925082915084018382808284375050604080516020601f89358b018035918201839004830284018301909452808352979a99988101979196509182019450925082915084018382808284375050604080516020808901358a01803580830284810184018652818552999c8b359c909b909a9501985092965081019450909250829190850190849080828437509497505093359450611f059350505050565b34801561071657600080fd5b5061072260043561232c565b604051808a600160a060020a0316600160a060020a0316815260200180602001806020018060200189600160a060020a0316600160a060020a031681526020018060200188815260200187815260200186600181111561077e57fe5b60ff16815260200185810385528d818151815260200191508051906020019080838360005b838110156107bb5781810151838201526020016107a3565b50505050905090810190601f1680156107e85780820380516001836020036101000a031916815260200191505b5085810384528c5181528c516020918201918e019080838360005b8381101561081b578181015183820152602001610803565b50505050905090810190601f1680156108485780820380516001836020036101000a031916815260200191505b5085810383528b5181528b516020918201918d019080838360005b8381101561087b578181015183820152602001610863565b50505050905090810190601f1680156108a85780820380516001836020036101000a031916815260200191505b5085810382528951815289516020918201918b019080838360005b838110156108db5781810151838201526020016108c3565b50505050905090810190601f1680156109085780820380516001836020036101000a031916815260200191505b509d505050505050505050505050505060405180910390f35b600280548290811061092f57fe5b600091825260209091200154600160a060020a0316905081565b60008060008060003361095a612c01565b600160a060020a03828116600090815260126020908152604091829020825160a08101845281549094168452600180820180548551600261010094831615949094026000190190911692909204601f8101859004850283018501909552848252919385840193919291830182828015610a145780601f106109e957610100808354040283529160200191610a14565b820191906000526020600020905b8154815290600101906020018083116109f757829003601f168201915b5050509183525050600282810180546040805160206001841615610100026000190190931694909404601f81018390048302850183019091528084529381019390830182828015610aa65780601f10610a7b57610100808354040283529160200191610aa6565b820191906000526020600020905b815481529060010190602001808311610a8957829003601f168201915b5050505050815260200160038201548152602001600482015481525050905060008160800151111515610b23576040805160e560020a62461bcd02815260206004820152601460248201527f556e7265676973746572656420776f726b65722e000000000000000000000000604482015290519081900360640190fd5b60015433600090815260126020526040902054600160a060020a03908116911614610bbe576040805160e560020a62461bcd02815260206004820152602660248201527f4f6e6c7920746865205072696e636970616c2063616e2075706461746520746860448201527f6520736565640000000000000000000000000000000000000000000000000000606482015290519081900360840190fd5b610bc889896125ba565b9550600160a060020a0386161515610c2a576040805160e560020a62461bcd02815260206004820152601c60248201527f43616e6e6f74207665726966792074686973207369676e617475726500000000604482015290519081900360640190fd5b600160a060020a0386163314610c8a576040805160e560020a62461bcd02815260206004820152601160248201527f496e76616c6964207369676e6174757265000000000000000000000000000000604482015290519081900360640190fd5b60009450600093505b6005841015610cfa5760038460058110610ca957fe5b60030201541515610cbc57839450610cfa565b60038560058110610cc957fe5b6003020160000154600385600581101515610ce057fe5b60030201541015610cef578394505b600190930192610c93565b4360038660058110610d0857fe5b600302016000018190555088600386600581101515610d2357fe5b6003020160020181905550600092505b600254831015610e0a576002805484908110610d4b57fe5b600091825260209091200154600160a060020a031615610dff5760038560058110610d7257fe5b600302016001018054809190600101610d8b9190612c3a565b506002805484908110610d9a57fe5b600091825260209091200154600160a060020a031660038660058110610dbc57fe5b6003020160010184815481101515610dd057fe5b9060005260206000200160006101000a815481600160a060020a030219169083600160a060020a031602179055505b600190920191610d33565b7f363e1a0b29df899b2a8946ad6ac8f81796117158a11dc2c2a5b8c0297789ffa189600260016040518084815260200180602001831515151581526020018281038252848181548152602001915080548015610e8f57602002820191906000526020600020905b8154600160a060020a03168152600190910190602001808311610e71575b505094505050505060405180910390a150600098975050505050505050565b6012602090815260009182526040918290208054600180830180548651600261010094831615949094026000190190911692909204601f8101869004860283018601909652858252600160a060020a03909216949293909290830182828015610f585780601f10610f2d57610100808354040283529160200191610f58565b820191906000526020600020905b815481529060010190602001808311610f3b57829003601f168201915b50505060028085018054604080516020601f6000196101006001871615020190941695909504928301859004850281018501909152818152959695945090925090830182828015610fea5780601f10610fbf57610100808354040283529160200191610fea565b820191906000526020600020905b815481529060010190602001808311610fcd57829003601f168201915b5050505050908060030154908060040154905085565b600080600060608060008061101489611154565b95509550955061102384612679565b60408051878152602081018b90528151908190039091019020815191945092508281151561104d57fe5b069050828181518110151561105e57fe5b90602001906020020151965050505050505092915050565b600080858585856040518085600160a060020a0316600160a060020a03166c0100000000000000000000000002815260140184805190602001908083835b602083106110d35780518252601f1990920191602091820191016110b4565b51815160209384036101000a600019018019909216911617905286519190930192860191508083835b6020831061111b5780518252601f1990920191602091820191016110fc565b51815160209384036101000a600019018019909216911617905292019384525060405192839003019091209a9950505050505050505050565b6000806060600080611164612c63565b61116d8761277f565b9250600019600084900b14156111f3576040805160e560020a62461bcd02815260206004820152603660248201527f4e6f20776f726b65727320706172616d657465727320656e74727920666f722060448201527f73706563696669656420626c6f636b206e756d62657200000000000000000000606482015290519081900360840190fd5b600083900b91506003826005811061120757fe5b6003020160606040519081016040529081600082015481526020016001820180548060200260200160405190810160405280929190818152602001828054801561127a57602002820191906000526020600020905b8154600160a060020a0316815260019091019060200180831161125c575b50505091835250506002919091015460209182015281516040830151929091015190999198509650945050505050565b6002805460018082019092557f405787fa12a823e0f2b7631cc41b3ba8828b3321ca811111fa75cd3aa3bb5ace0180543373ffffffffffffffffffffffffffffffffffffffff199182168117909255600091825260126020908152604083208054909216600160a060020a038816178255346003830155855192936113359392019190860190612c85565b50336000908152601260209081526040909120835161135c92600290920191850190612c85565b5033600081815260126020908152604091829020600160049091018190558251938452600160a060020a0388169184019190915282820152517faea7118a676707165821e4678d9998eaabd7a2864b5db99ec0badef3fb7fa1e49181900360600190a15060009392505050565b600054600160a060020a031681565b60006060826113e5612c01565b600160a060020a03828116600090815260126020908152604091829020825160a08101845281549094168452600180820180548551600261010094831615949094026000190190911692909204601f810185900485028301850190955284825291938584019391929183018282801561149f5780601f106114745761010080835404028352916020019161149f565b820191906000526020600020905b81548152906001019060200180831161148257829003601f168201915b5050509183525050600282810180546040805160206001841615610100026000190190931694909404601f810183900483028501830190915280845293810193908301828280156115315780601f1061150657610100808354040283529160200191611531565b820191906000526020600020905b81548152906001019060200180831161151457829003601f168201915b50505050508152602001600382015481526020016004820154815250509050600081608001511115156115ae576040805160e560020a62461bcd02815260206004820152601460248201527f556e7265676973746572656420776f726b65722e000000000000000000000000604482015290519081900360640190fd5b600160a060020a0380861660009081526012602052604090205416151561161f576040805160e560020a62461bcd02815260206004820152601560248201527f576f726b6572206e6f7420726567697374657265640000000000000000000000604482015290519081900360640190fd5b600160a060020a0385811660009081526012602090815260409182902080546002918201805485516101006001831615026000190190911693909304601f81018590048502840185019095528483529416939290918391908301828280156116c85780601f1061169d576101008083540402835291602001916116c8565b820191906000526020600020905b8154815290600101906020018083116116ab57829003601f168201915b50505050509050935093505050915091565b600080600080336116e9612c01565b600160a060020a03828116600090815260126020908152604091829020825160a08101845281549094168452600180820180548551600261010094831615949094026000190190911692909204601f81018590048502830185019095528482529193858401939192918301828280156117a35780601f10611778576101008083540402835291602001916117a3565b820191906000526020600020905b81548152906001019060200180831161178657829003601f168201915b5050509183525050600282810180546040805160206001841615610100026000190190931694909404601f810183900483028501830190915280845293810193908301828280156118355780601f1061180a57610100808354040283529160200191611835565b820191906000526020600020905b81548152906001019060200180831161181857829003601f168201915b50505050508152602001600382015481526020016004820154815250509050600081608001511115156118b2576040805160e560020a62461bcd02815260206004820152601460248201527f556e7265676973746572656420776f726b65722e000000000000000000000000604482015290519081900360640190fd5b60008a81526013602052604081206008015460ff1660018111156118d257fe5b1461194d576040805160e560020a62461bcd02815260206004820152602960248201527f496c6c6567616c207374617475732c207461736b206d75737420626520696e2060448201527f70726f67726573732e0000000000000000000000000000000000000000000000606482015290519081900360840190fd5b60008a8152601360209081526040918290208251610120810184528154600160a060020a03168152600180830180548651601f600294831615610100026000190190921693909304908101869004860283018601909652858252611c1a9592948581019390830182828015611a035780601f106119d857610100808354040283529160200191611a03565b820191906000526020600020905b8154815290600101906020018083116119e657829003601f168201915b5050509183525050600282810180546040805160206001841615610100026000190190931694909404601f81018390048302850183019091528084529381019390830182828015611a955780601f10611a6a57610100808354040283529160200191611a95565b820191906000526020600020905b815481529060010190602001808311611a7857829003601f168201915b505050918352505060038201805460408051602060026001851615610100026000190190941693909304601f8101849004840282018401909252818152938201939291830182828015611b295780601f10611afe57610100808354040283529160200191611b29565b820191906000526020600020905b815481529060010190602001808311611b0c57829003601f168201915b50505091835250506004820154600160a060020a031660208083019190915260058301805460408051601f60026000196001861615610100020190941693909304928301859004850281018501825282815294019392830182828015611bd05780601f10611ba557610100808354040283529160200191611bd0565b820191906000526020600020905b815481529060010190602001808311611bb357829003601f168201915b50505091835250506006820154602082015260078201546040820152600882015460609091019060ff166001811115611c0557fe5b6001811115611c1057fe5b9052508a8a612800565b9450600160a060020a0385161515611c7c576040805160e560020a62461bcd02815260206004820152601d60248201527f43616e6e6f74207665726966792074686973207369676e61747572652e000000604482015290519081900360640190fd5b33600090815260126020526040902054600160a060020a03868116911614611cee576040805160e560020a62461bcd02815260206004820152601260248201527f496e76616c6964207369676e61747572652e0000000000000000000000000000604482015290519081900360640190fd5b60008a81526013602052604081206006015494508411611d58576040805160e560020a62461bcd02815260206004820152601660248201527f5265776172642063616e6e6f74206265207a65726f2e00000000000000000000604482015290519081900360640190fd5b60008a815260136020908152604090912060048101805473ffffffffffffffffffffffffffffffffffffffff1916331790558951611d9e926005909201918b0190612c85565b5060008a8152601360209081526040808320600801805460ff19166001179055338352601290915290206003810154909350611dda9085612af2565b83600301819055507f860ef3e30d5efeaa79f3d448bd5219e9b92ca92eefb7bcc4e8c6b3420fe9dd3d601360008c6000191660001916815260200190815260200160002060000160009054906101000a9004600160a060020a0316338a8760016040518086600160a060020a0316600160a060020a0316815260200185600160a060020a0316600160a060020a031681526020018060200184815260200183151515158152602001828103825285818151815260200191508051906020019080838360005b83811015611eb7578181015183820152602001611e9f565b50505050905090810190601f168015611ee45780820380516001836020036101000a031916815260200191505b50965050505050505060405180910390a15060009998505050505050505050565b600080611f1489898986611076565b600081815260136020526040902054909150600160a060020a031615611faa576040805160e560020a62461bcd02815260206004820152602760248201527f5461736b2077697468207468652073616d65207461736b496420616c7265616460448201527f7920657869737400000000000000000000000000000000000000000000000000606482015290519081900360840190fd5b6000818152601360209081526040909120600681018790558951611fd6926001909201918b0190612c85565b5060008181526013602090815260409091208851611ffc926002909201918a0190612c85565b506000818152601360209081526040909120875161202292600390920191890190612c85565b506000818152601360205260408120600801805460ff191660018302179055508860136000836000191660001916815260200190815260200160002060000160006101000a815481600160a060020a030219169083600160a060020a031602179055508260136000836000191660001916815260200190815260200160002060070181905550806000191689600160a060020a03167f4ff070954b5d945704da2dfe97df43d753324f63c307db579707f91239df423e8a8a8a8a8a8a600160405180806020018060200180602001888152602001806020018781526020018615151515815260200185810385528c818151815260200191508051906020019080838360005b8381101561213f578181015183820152602001612127565b50505050905090810190601f16801561216c5780820380516001836020036101000a031916815260200191505b5085810384528b5181528b516020918201918d019080838360005b8381101561219f578181015183820152602001612187565b50505050905090810190601f1680156121cc5780820380516001836020036101000a031916815260200191505b5085810383528a5181528a516020918201918c019080838360005b838110156121ff5781810151838201526020016121e7565b50505050905090810190601f16801561222c5780820380516001836020036101000a031916815260200191505b508581038252885181528851602091820191808b01910280838360005b83811015612261578181015183820152602001612249565b505050509050019b50505050505050505050505060405180910390a360008054604080517f23b872dd000000000000000000000000000000000000000000000000000000008152336004820152306024820152604481018990529051600160a060020a03909216926323b872dd926064808401936020939083900390910190829087803b1580156122f157600080fd5b505af1158015612305573d6000803e3d6000fd5b505050506040513d602081101561231b57600080fd5b5060009a9950505050505050505050565b6013602090815260009182526040918290208054600180830180548651600261010094831615949094026000190190911692909204601f8101869004860283018601909652858252600160a060020a039092169492939092908301828280156123d65780601f106123ab576101008083540402835291602001916123d6565b820191906000526020600020905b8154815290600101906020018083116123b957829003601f168201915b50505060028085018054604080516020601f60001961010060018716150201909416959095049283018590048502810185019091528181529596959450909250908301828280156124685780601f1061243d57610100808354040283529160200191612468565b820191906000526020600020905b81548152906001019060200180831161244b57829003601f168201915b5050505060038301805460408051602060026001851615610100026000190190941693909304601f81018490048402820184019092528181529495949350908301828280156124f85780601f106124cd576101008083540402835291602001916124f8565b820191906000526020600020905b8154815290600101906020018083116124db57829003601f168201915b50505050600483015460058401805460408051602060026101006001861615026000190190941693909304601f81018490048402820184019092528181529596600160a060020a0390941695939450908301828280156125995780601f1061256e57610100808354040283529160200191612599565b820191906000526020600020905b81548152906001019060200180831161257c57829003601f168201915b50505050600683015460078401546008909401549293909290915060ff1689565b604080518381528151602091819003820181208184018452601c8083527f19457468657265756d205369676e6564204d6573736167653a0a3332000000009383019384529351600094919385928392859287928291908083835b602083106126335780518252601f199092019160209182019101612614565b51815160209384036101000a60001901801990921691161790529201938452506040519283900301909120935061266e915083905087612b05565b979650505050505050565b60606000808281805b86518410156126c357868481518110151561269957fe5b60209081029091010151600160a060020a0316156126b8576001909401935b600190930192612682565b846040519080825280602002602001820160405280156126ed578160200160208202803883390190505b50925060009150600090505b865181101561277457868181518110151561271057fe5b60209081029091010151600160a060020a03161561276c57868181518110151561273657fe5b90602001906020020151838381518110151561274e57fe5b600160a060020a039092166020928302909101909101526001909101905b6001016126f9565b509095945050505050565b6000600019815b60058110156127f957836003826005811061279d57fe5b6003020154118015906127e857508160000b60001914806127e857506003600083900b600581106127ca57fe5b60030201600001546003826005811015156127e157fe5b6003020154115b156127f1578091505b600101612786565b5092915050565b60006060600060606000806128188960000151612bda565b9450886040015188866040518084805190602001908083835b602083106128505780518252601f199092019160209182019101612831565b51815160209384036101000a600019018019909216911617905286519190930192860191508083835b602083106128985780518252601f199092019160209182019101612879565b51815160209384036101000a600019018019909216911617905285519190930192850191508083835b602083106128e05780518252601f1990920191602091820191016128c1565b51815160209384036101000a6000190180199092169116179052604080519290940182900382208285018552601c8084527f19457468657265756d205369676e6564204d6573736167653a0a3332000000009284019283529451909c50919a508a97508b96509094508493509190508083835b602083106129725780518252601f199092019160209182019101612953565b51815160209384036101000a6000190180199092169116179052920193845250604051928390030190912093506129ad915083905088612b05565b90507fff6705f1a974965043a4b4d997ef0e9f773759a078b3a30b02507c11ec5a6c4b8783838860016040518080602001866000191660001916815260200185600160a060020a0316600160a060020a031681526020018060200184151515158152602001838103835288818151815260200191508051906020019080838360005b83811015612a47578181015183820152602001612a2f565b50505050905090810190601f168015612a745780820380516001836020036101000a031916815260200191505b50838103825285518152855160209182019187019080838360005b83811015612aa7578181015183820152602001612a8f565b50505050905090810190601f168015612ad45780820380516001836020036101000a031916815260200191505b5097505050505050505060405180910390a198975050505050505050565b81810182811015612aff57fe5b92915050565b60008060008084516041141515612b1f5760009350612bd1565b50505060208201516040830151606084015160001a601b60ff82161015612b4457601b015b8060ff16601b14158015612b5c57508060ff16601c14155b15612b6a5760009350612bd1565b60408051600080825260208083018085528a905260ff8516838501526060830187905260808301869052925160019360a0808501949193601f19840193928390039091019190865af1158015612bc4573d6000803e3d6000fd5b5050506020604051035193505b50505092915050565b60408051603f833b908101601f191682019092528181529080600060208401853c50919050565b60a0604051908101604052806000600160a060020a03168152602001606081526020016060815260200160008152602001600081525090565b815481835581811115612c5e57600083815260209020612c5e918101908301612d03565b505050565b6060604051908101604052806000815260200160608152602001600081525090565b828054600181600116156101000203166002900490600052602060002090601f016020900481019282601f10612cc657805160ff1916838001178555612cf3565b82800160010185558215612cf3579182015b82811115612cf3578251825591602001919060010190612cd8565b50612cff929150612d03565b5090565b612d1d91905b80821115612cff5760008155600101612d09565b905600a165627a7a723058208269be777c8a48f6d1fd5b9250934ed813d9894cd26c400a80b86ea936e03c130029",
  "source": "pragma solidity ^0.4.22;\n\nimport \"./zeppelin/SafeMath.sol\";\nimport \"./zeppelin/ECRecovery.sol\";\nimport \"./utils/GetCode2.sol\";\nimport \"./utils/RLP.sol\";\n\ncontract IERC20 {\n    function balanceOf(address who) public constant returns (uint256);\n\n    function transfer(address to, uint256 value) public returns (bool);\n\n    function allowance(address owner, address spender) public constant returns (uint256);\n\n    function transferFrom(address from, address to, uint256 value) public returns (bool);\n\n    function approve(address spender, uint256 value) public returns (bool);\n\n    event Transfer(address indexed from, address indexed to, uint256 value);\n    event Approval(address indexed owner, address indexed spender, uint256 value);\n}\n\n\ncontract Enigma {\n    using SafeMath for uint256;\n    using ECRecovery for bytes32;\n    using RLP for RLP.RLPItem;\n    using RLP for RLP.Iterator;\n    using RLP for bytes;\n\n    IERC20 public engToken;\n\n    struct Task {\n        address dappContract;\n        string callable;\n        bytes callableArgs;\n        string callback;\n        address worker;\n        bytes sig;\n        uint256 reward;\n        uint256 blockNumber;\n        TaskStatus status;\n    }\n    enum TaskStatus {InProgress, Executed}\n\n    address principal;\n\n    struct Worker {\n        address signer;\n        bytes quote;\n        bytes report; // Decided to store this as one  RLP encoded attribute for easier external storage in the future\n        uint256 balance;\n        uint status; // Uninitialized: 0; Active: 1; Inactive: 2\n    }\n\n    struct WorkersParams {\n        uint256 firstBlockNumber;\n        address[] workerAddresses;\n        uint256 seed;\n    }\n\n    address[] public workerAddresses;\n    WorkersParams[5] workersParams;\n    mapping(address => Worker) public workers;\n    mapping(bytes32 => Task) public tasks;\n\n    event Register(address user, address signer, bool _success);\n    event ValidateSig(bytes sig, bytes32 hash, address workerAddr, bytes bytecode, bool _success);\n    event CommitResults(address dappContract, address worker, bytes sig, uint reward, bool _success);\n    event WorkersParameterized(uint256 seed, address[] workers, bool _success);\n\n    // Enigma computation task\n    event ComputeTask(address indexed callingContract, bytes32 indexed taskId, string callable, bytes callableArgs, string callback, uint256 fee, bytes32[] preprocessors, uint256 blockNumber, bool _success);\n\n    enum ReturnValue {Ok, Error}\n\n    function Enigma(address _tokenAddress, address _principal) public {\n        engToken = IERC20(_tokenAddress);\n        principal = _principal;\n    }\n\n    modifier workerRegistered(address user) {\n        Worker memory worker = workers[user];\n        require(worker.status > 0, \"Unregistered worker.\");\n        _;\n    }\n\n    function register(address signer, bytes quote, bytes report)\n    public\n    payable\n    returns (ReturnValue) {\n        // Register a new worker and deposit stake\n        // require(workers[msg.sender].status == 0, \"Worker already register.\");\n\n        workerAddresses.push(msg.sender);\n\n        workers[msg.sender].signer = signer;\n        workers[msg.sender].balance = msg.value;\n        workers[msg.sender].quote = quote;\n        workers[msg.sender].report = report;\n        workers[msg.sender].status = 1;\n\n        emit Register(msg.sender, signer, true);\n\n        return ReturnValue.Ok;\n    }\n\n    function generateTaskId(address dappContract, string callable, bytes callableArgs, uint256 blockNumber)\n    public\n    view\n    returns (bytes32)\n    {\n        // Generates a unique task id\n        bytes32 hash = keccak256(dappContract, callable, callableArgs, blockNumber);\n        return hash;\n    }\n\n    function compute(address dappContract, string callable, bytes callableArgs, string callback, uint256 fee, bytes32[] preprocessors, uint256 blockNumber)\n    public\n    returns (ReturnValue) {\n        // Create a computation task and save the fee in escrow\n        bytes32 taskId = generateTaskId(dappContract, callable, callableArgs, blockNumber);\n        require(tasks[taskId].dappContract == 0x0, \"Task with the same taskId already exist\");\n\n        tasks[taskId].reward = fee;\n        tasks[taskId].callable = callable;\n        tasks[taskId].callableArgs = callableArgs;\n        tasks[taskId].callback = callback;\n        tasks[taskId].status = TaskStatus.InProgress;\n        tasks[taskId].dappContract = dappContract;\n        tasks[taskId].blockNumber = blockNumber;\n\n        // Emit the ComputeTask event which each node is watching for\n        emit ComputeTask(dappContract, taskId, callable, callableArgs, callback, fee, preprocessors, blockNumber, true);\n\n        // Transferring before emitting does not work\n        // TODO: check the allowance first\n        engToken.transferFrom(msg.sender, this, fee);\n\n        return ReturnValue.Ok;\n    }\n\n    function verifyCommitSig(Task task, bytes data, bytes sig)\n    internal\n    constant\n    returns (address) {\n        // Recreating a data hash to validate the signature\n        bytes memory code = GetCode2.at(task.dappContract);\n\n        // Build a hash to validate that the I/Os are matching\n        bytes32 hash = keccak256(task.callableArgs, data, code);\n        bytes memory prefix = \"\\x19Ethereum Signed Message:\\n32\";\n        bytes32 prefixedHash = sha3(prefix, hash);\n\n        // The worker address is not a real Ethereum wallet address but\n        // one generated from its signing key\n        address workerAddr = prefixedHash.recover(sig);\n\n        emit ValidateSig(sig, prefixedHash, workerAddr, code, true);\n        return workerAddr;\n    }\n\n    // copied from GnosisSafe\n    // https://github.com/gnosis/gnosis-safe-contracts/blob/master/contracts/GnosisSafe.sol\n    function executeCall(address to, uint256 value, bytes data) internal returns (bool success) {\n        assembly {\n            success := call(gas, to, value, add(data, 0x20), mload(data), 0, 0)\n        }\n    }\n\n    function commitResults(bytes32 taskId, bytes data, bytes sig, uint256 blockNumber)\n    public\n    workerRegistered(msg.sender)\n    returns (ReturnValue) {\n        // Task must be solved only once\n        require(tasks[taskId].status == TaskStatus.InProgress, \"Illegal status, task must be in progress.\");\n\n        //TODO: verify that the worker is right\n        address sigAddr = verifyCommitSig(tasks[taskId], data, sig);\n        require(sigAddr != address(0), \"Cannot verify this signature.\");\n        require(sigAddr == workers[msg.sender].signer, \"Invalid signature.\");\n\n        // The contract must hold enough fund to distribute reward\n        // TODO: validate that the reward matches the opcodes computed\n        uint256 reward = tasks[taskId].reward;\n        require(reward > 0, \"Reward cannot be zero.\");\n\n        // Invoking the callback method of the original contract\n        // TODO: disable for now because the Python tests don't create deals, works with the JS tests\n        //        require(executeCall(secretContract, msg.value, data), \"Unable to invoke the callback\");\n\n        // Keep a trace of the task worker and proof\n        tasks[taskId].worker = msg.sender;\n        tasks[taskId].sig = sig;\n        tasks[taskId].status = TaskStatus.Executed;\n\n        // TODO: send directly to the worker's custodian instead\n        // Put the reward in the worker's bank\n        // He can withdraw later\n        Worker storage worker = workers[msg.sender];\n        worker.balance = worker.balance.add(reward);\n\n        emit CommitResults(tasks[taskId].dappContract, msg.sender, sig, reward, true);\n\n        return ReturnValue.Ok;\n    }\n\n    function verifyParamsSig(uint256 seed, bytes sig)\n    internal\n    constant\n    returns (address) {\n        // Verify the signature submitted while reparameterizing workers\n        bytes32 hash = keccak256(seed);\n        bytes memory prefix = \"\\x19Ethereum Signed Message:\\n32\";\n        bytes32 prefixedHash = sha3(prefix, hash);\n\n        address signer = prefixedHash.recover(sig);\n        return signer;\n    }\n\n    function setWorkersParams(uint256 seed, bytes sig)\n    public\n    workerRegistered(msg.sender)\n    returns (ReturnValue) {\n        // Reparameterizing workers with a new seed\n        // This should be called for each epoch by the Principal node\n\n        // We assume that the Principal is always the first registered node\n        require(workers[msg.sender].signer == principal, \"Only the Principal can update the seed\");\n\n        address sigAddr = verifyParamsSig(seed, sig);\n        require(sigAddr != address(0), \"Cannot verify this signature\");\n        require(sigAddr == msg.sender, \"Invalid signature\");\n\n        // Create a new workers parameters item for the specified seed.\n        // The workers parameters list is a sort of cache, it never grows beyond its limit.\n        // If the list is full, the new item will replace the item assigned to the lowest block number.\n        uint ti = 0;\n        for (uint pi = 0; pi < workersParams.length; pi++) {\n            // Find an empty slot in the array, if full use the lowest block number\n            if (workersParams[pi].firstBlockNumber == 0) {\n                ti = pi;\n                break;\n            } else if (workersParams[pi].firstBlockNumber < workersParams[ti].firstBlockNumber) {\n                ti = pi;\n            }\n        }\n        workersParams[ti].firstBlockNumber = block.number;\n        workersParams[ti].seed = seed;\n\n        // Copy the current worker list\n        for (uint wi = 0; wi < workerAddresses.length; wi++) {\n            if (workerAddresses[wi] != 0x0) {\n                workersParams[ti].workerAddresses.length++;\n                workersParams[ti].workerAddresses[wi] = workerAddresses[wi];\n            }\n        }\n        emit WorkersParameterized(seed, workerAddresses, true);\n        return ReturnValue.Ok;\n    }\n\n    function getWorkersParamsIndex(uint256 blockNumber)\n    internal\n    constant\n    returns (int8) {\n        // The workers parameters nearest the specified block number\n        int8 ci = - 1;\n        for (uint i = 0; i < workersParams.length; i++) {\n            if (workersParams[i].firstBlockNumber <= blockNumber && (ci == - 1 || workersParams[i].firstBlockNumber > workersParams[uint(ci)].firstBlockNumber)) {\n                ci = int8(i);\n            }\n        }\n        return ci;\n    }\n\n    function getWorkersParams(uint256 blockNumber)\n    public\n    view\n    returns (uint256, uint256, address[]) {\n        // The workers parameters for a given block number\n        int8 idx = getWorkersParamsIndex(blockNumber);\n        require(idx != - 1, \"No workers parameters entry for specified block number\");\n\n        uint index = uint(idx);\n        WorkersParams memory _workerParams = workersParams[index];\n\n        return (_workerParams.firstBlockNumber, _workerParams.seed, _workerParams.workerAddresses);\n    }\n\n    function cleanupWorkers(address[] workers)\n    internal\n    constant\n    returns (address[])\n    {\n        uint cpt = 0;\n        for (uint i = 0; i < workers.length; i++) {\n            if (workers[i] != 0x0) {\n                cpt++;\n            }\n        }\n        address[] memory _workers = new address[](cpt);\n        uint cur = 0;\n        for (uint iw = 0; iw < workers.length; iw++) {\n            if (workers[iw] != 0x0) {\n                _workers[cur] = workers[iw];\n                cur++;\n            }\n        }\n        return _workers;\n    }\n\n    function selectWorker(uint256 blockNumber, bytes32 taskId)\n    public\n    view\n    returns (address) {\n        // Apply pseudo-randomness to discover the selected worker for the specified task\n        (uint256 b, uint256 seed, address[] memory workers) = getWorkersParams(blockNumber);\n        address[] memory _workers = cleanupWorkers(workers);\n\n        bytes32 hash = keccak256(seed, taskId);\n        uint256 index = uint256(hash) % _workers.length;\n        return (_workers[index]);\n    }\n\n    function getReport(address custodian)\n    public\n    view\n    workerRegistered(custodian)\n    returns (address, bytes) {\n        // The RLP encoded report and signer's address for the specified worker\n        require(workers[custodian].signer != 0x0, \"Worker not registered\");\n        return (workers[custodian].signer, workers[custodian].report);\n    }\n}\n",
  "sourcePath": "/Users/fredfortier/Code/enigma/mvt/enigma-contract/contracts/Enigma.sol",
  "compiler": {
    "name": "solc",
    "version": "0.4.24+commit.e67f0147.Emscripten.clang"
  },
  "schemaVersion": "2.0.0",
  "updatedAt": "2018-06-26T01:20:46.051Z"
}