{
  "contractName": "Enigma",
  "abi": [
    {
      "constant": true,
      "inputs": [
        {
          "name": "",
          "type": "uint256"
        }
      ],
      "name": "workerAddresses",
      "outputs": [
        {
          "name": "",
          "type": "address"
        }
      ],
      "payable": false,
      "stateMutability": "view",
      "type": "function",
      "signature": "0x0a318da0"
    },
    {
      "constant": true,
      "inputs": [
        {
          "name": "",
          "type": "address"
        }
      ],
      "name": "workers",
      "outputs": [
        {
          "name": "signer",
          "type": "address"
        },
        {
          "name": "status",
          "type": "uint8"
        },
        {
          "name": "report",
          "type": "bytes"
        },
        {
          "name": "balance",
          "type": "uint256"
        }
      ],
      "payable": false,
      "stateMutability": "view",
      "type": "function",
      "signature": "0x4048a257"
    },
    {
      "constant": true,
      "inputs": [
        {
          "name": "",
          "type": "address"
        },
        {
          "name": "",
          "type": "uint256"
        }
      ],
      "name": "stateDeltaHashes",
      "outputs": [
        {
          "name": "",
          "type": "bytes32"
        }
      ],
      "payable": false,
      "stateMutability": "view",
      "type": "function",
      "signature": "0x64a4c0c6"
    },
    {
      "constant": true,
      "inputs": [],
      "name": "engToken",
      "outputs": [
        {
          "name": "",
          "type": "address"
        }
      ],
      "payable": false,
      "stateMutability": "view",
      "type": "function",
      "signature": "0x9489ad40"
    },
    {
      "constant": true,
      "inputs": [
        {
          "name": "",
          "type": "bytes32"
        }
      ],
      "name": "tasks",
      "outputs": [
        {
          "name": "fee",
          "type": "uint256"
        },
        {
          "name": "token",
          "type": "address"
        },
        {
          "name": "tokenValue",
          "type": "uint256"
        },
        {
          "name": "proof",
          "type": "bytes"
        },
        {
          "name": "sender",
          "type": "address"
        },
        {
          "name": "status",
          "type": "uint8"
        }
      ],
      "payable": false,
      "stateMutability": "view",
      "type": "function",
      "signature": "0xe579f500"
    },
    {
      "inputs": [
        {
          "name": "_tokenAddress",
          "type": "address"
        },
        {
          "name": "_principal",
          "type": "address"
        }
      ],
      "payable": false,
      "stateMutability": "nonpayable",
      "type": "constructor",
      "signature": "constructor"
    },
    {
      "anonymous": false,
      "inputs": [
        {
          "indexed": false,
          "name": "custodian",
          "type": "address"
        },
        {
          "indexed": false,
          "name": "signer",
          "type": "address"
        }
      ],
      "name": "Registered",
      "type": "event",
      "signature": "0x0a31ee9d46a828884b81003c8498156ea6aa15b9b54bdd0ef0b533d9eba57e55"
    },
    {
      "anonymous": false,
      "inputs": [
        {
          "indexed": false,
          "name": "sig",
          "type": "bytes"
        },
        {
          "indexed": false,
          "name": "hash",
          "type": "bytes32"
        },
        {
          "indexed": false,
          "name": "workerAddr",
          "type": "address"
        }
      ],
      "name": "ValidatedSig",
      "type": "event",
      "signature": "0xe36691ca52ee024e298e5c0ff07191b87f0ac571c01a7631db2d70d573d955cb"
    },
    {
      "anonymous": false,
      "inputs": [
        {
          "indexed": false,
          "name": "seed",
          "type": "uint256"
        },
        {
          "indexed": false,
          "name": "blockNumber",
          "type": "uint256"
        },
        {
          "indexed": false,
          "name": "workers",
          "type": "address[]"
        },
        {
          "indexed": false,
          "name": "balances",
          "type": "uint256[]"
        }
      ],
      "name": "WorkersParameterized",
      "type": "event",
      "signature": "0x7047379c64ccafb62f6625e6b2d8eb6e1b0e091fac56a11ab5e2fd896e4db1d0"
    },
    {
      "anonymous": false,
      "inputs": [
        {
          "indexed": false,
          "name": "taskId",
          "type": "bytes32"
        },
        {
          "indexed": false,
          "name": "fee",
          "type": "uint256"
        },
        {
          "indexed": false,
          "name": "token",
          "type": "address"
        },
        {
          "indexed": false,
          "name": "tokenValue",
          "type": "uint256"
        },
        {
          "indexed": false,
          "name": "sender",
          "type": "address"
        }
      ],
      "name": "TaskRecordCreated",
      "type": "event",
      "signature": "0x51364a5a527e38841b15c974f7924dad755bc9ce0d29701d7501a7bd297b787b"
    },
    {
      "anonymous": false,
      "inputs": [
        {
          "indexed": false,
          "name": "taskIds",
          "type": "bytes32[]"
        },
        {
          "indexed": false,
          "name": "fees",
          "type": "uint256[]"
        },
        {
          "indexed": false,
          "name": "tokens",
          "type": "address[]"
        },
        {
          "indexed": false,
          "name": "tokenValues",
          "type": "uint256[]"
        },
        {
          "indexed": false,
          "name": "sender",
          "type": "address"
        }
      ],
      "name": "TaskRecordsCreated",
      "type": "event",
      "signature": "0xcb8afab3437be2f96ef2a2932eb02d02fd765bfe8be7c1f5a58edd6452317dde"
    },
    {
      "anonymous": false,
      "inputs": [
        {
          "indexed": false,
          "name": "taskId",
          "type": "bytes32"
        },
        {
          "indexed": false,
          "name": "inStateDeltaHash",
          "type": "bytes32"
        },
        {
          "indexed": false,
          "name": "outStateDeltaHash",
          "type": "bytes32"
        },
        {
          "indexed": false,
          "name": "ethCall",
          "type": "bytes"
        },
        {
          "indexed": false,
          "name": "sig",
          "type": "bytes"
        }
      ],
      "name": "ReceiptVerified",
      "type": "event",
      "signature": "0x665329bb9a4e1062edc215d9c5ab57fa54c4c88e3dfbcc68e0cd92fdd010fa6e"
    },
    {
      "anonymous": false,
      "inputs": [
        {
          "indexed": false,
          "name": "taskIds",
          "type": "bytes32[]"
        },
        {
          "indexed": false,
          "name": "inStateDeltaHashes",
          "type": "bytes32[]"
        },
        {
          "indexed": false,
          "name": "outStateDeltaHashes",
          "type": "bytes32[]"
        },
        {
          "indexed": false,
          "name": "ethCalls",
          "type": "bytes[]"
        },
        {
          "indexed": false,
          "name": "sigs",
          "type": "bytes[]"
        }
      ],
      "name": "ReceiptsVerified",
      "type": "event",
      "signature": "0x7243cbab94fa1d25e0cb54fdd36b41f803ff5e5a29aaae09979a888b156b5872"
    },
    {
      "anonymous": false,
      "inputs": [
        {
          "indexed": false,
          "name": "from",
          "type": "address"
        },
        {
          "indexed": false,
          "name": "value",
          "type": "uint256"
        }
      ],
      "name": "DepositSuccessful",
      "type": "event",
      "signature": "0xb3ef81558ed1a50072a492984535a009da8b129c749500b387f1e5f4886bdde5"
    },
    {
      "constant": false,
      "inputs": [
        {
          "name": "signer",
          "type": "address"
        },
        {
          "name": "report",
          "type": "bytes"
        }
      ],
      "name": "register",
      "outputs": [],
      "payable": false,
      "stateMutability": "nonpayable",
      "type": "function",
      "signature": "0x24b8fbf6"
    },
    {
      "constant": false,
      "inputs": [
        {
          "name": "custodian",
          "type": "address"
        },
        {
          "name": "amount",
          "type": "uint256"
        }
      ],
      "name": "deposit",
      "outputs": [],
      "payable": false,
      "stateMutability": "nonpayable",
      "type": "function",
      "signature": "0x47e7ef24"
    },
    {
      "constant": false,
      "inputs": [
        {
          "name": "taskId",
          "type": "bytes32"
        },
        {
          "name": "fee",
          "type": "uint256"
        },
        {
          "name": "token",
          "type": "address"
        },
        {
          "name": "tokenValue",
          "type": "uint256"
        }
      ],
      "name": "createTaskRecord",
      "outputs": [],
      "payable": false,
      "stateMutability": "nonpayable",
      "type": "function",
      "signature": "0xd28cf5c1"
    },
    {
      "constant": false,
      "inputs": [
        {
          "name": "taskIds",
          "type": "bytes32[]"
        },
        {
          "name": "fees",
          "type": "uint256[]"
        },
        {
          "name": "tokens",
          "type": "address[]"
        },
        {
          "name": "tokenValues",
          "type": "uint256[]"
        }
      ],
      "name": "createTaskRecords",
      "outputs": [],
      "payable": false,
      "stateMutability": "nonpayable",
      "type": "function",
      "signature": "0xa85d84ef"
    },
    {
      "constant": false,
      "inputs": [
        {
          "name": "scAddr",
          "type": "address"
        },
        {
          "name": "taskId",
          "type": "bytes32"
        },
        {
          "name": "inStateDeltaHash",
          "type": "bytes32"
        },
        {
          "name": "outStateDeltaHash",
          "type": "bytes32"
        },
        {
          "name": "ethCall",
          "type": "bytes"
        },
        {
          "name": "sig",
          "type": "bytes"
        }
      ],
      "name": "commitReceipt",
      "outputs": [],
      "payable": false,
      "stateMutability": "nonpayable",
      "type": "function",
      "signature": "0x5956efef"
    },
    {
      "constant": false,
      "inputs": [
        {
          "name": "scAddr",
          "type": "address"
        },
        {
          "name": "taskIds",
          "type": "bytes32[]"
        },
        {
          "name": "inStateDeltaHashes",
          "type": "bytes32[]"
        },
        {
          "name": "outStateDeltaHashes",
          "type": "bytes32[]"
        },
        {
          "name": "ethCalls",
          "type": "bytes[]"
        },
        {
          "name": "sigs",
          "type": "bytes[]"
        }
      ],
      "name": "commitReceipts",
      "outputs": [],
      "payable": false,
      "stateMutability": "nonpayable",
      "type": "function",
      "signature": "0xd245f478"
    },
    {
      "constant": false,
      "inputs": [
        {
          "name": "seed",
          "type": "uint256"
        },
        {
          "name": "sig",
          "type": "bytes"
        }
      ],
      "name": "setWorkersParams",
      "outputs": [],
      "payable": false,
      "stateMutability": "nonpayable",
      "type": "function",
      "signature": "0x2873e73c"
    },
    {
      "constant": true,
      "inputs": [
        {
          "name": "blockNumber",
          "type": "uint256"
        }
      ],
      "name": "getWorkerParams",
      "outputs": [
        {
          "name": "",
          "type": "uint256"
        },
        {
          "name": "",
          "type": "uint256"
        },
        {
          "name": "",
          "type": "address[]"
        },
        {
          "name": "",
          "type": "uint256[]"
        }
      ],
      "payable": false,
      "stateMutability": "view",
      "type": "function",
      "signature": "0x9836ca31"
    },
    {
      "constant": false,
      "inputs": [
        {
          "name": "blockNumber",
          "type": "uint256"
        },
        {
          "name": "scAddr",
          "type": "address"
        }
      ],
      "name": "getWorkerGroup",
      "outputs": [],
      "payable": false,
      "stateMutability": "nonpayable",
      "type": "function",
      "signature": "0xd9611203"
    },
    {
      "constant": true,
      "inputs": [
        {
          "name": "blockNumber",
          "type": "uint256"
        }
      ],
      "name": "getWorkersParams",
      "outputs": [
        {
          "name": "",
          "type": "uint256"
        },
        {
          "name": "",
          "type": "uint256"
        },
        {
          "name": "",
          "type": "address[]"
        },
        {
          "name": "",
          "type": "address[]"
        }
      ],
      "payable": false,
      "stateMutability": "view",
      "type": "function",
      "signature": "0x59c91a12"
    },
    {
      "constant": true,
      "inputs": [
        {
          "name": "custodian",
          "type": "address"
        }
      ],
      "name": "getReport",
      "outputs": [
        {
          "name": "",
          "type": "address"
        },
        {
          "name": "",
          "type": "bytes"
        }
      ],
      "payable": false,
      "stateMutability": "view",
      "type": "function",
      "signature": "0xa3bdae3e"
    }
  ],
  "bytecode": "0x60806040526000601a556000601b553480156200001b57600080fd5b50604051604080620035c283398101806040526200003d919081019062000084565b60008054600160a060020a03938416600160a060020a03199182161790915560018054929093169116179055620000cf565b60006200007d8251620000c3565b9392505050565b600080604083850312156200009857600080fd5b6000620000a685856200006f565b9250506020620000b9858286016200006f565b9150509250929050565b600160a060020a031690565b6134e380620000df6000396000f3006080604052600436106100e55763ffffffff7c01000000000000000000000000000000000000000000000000000000006000350416630a318da081146100ea57806324b8fbf6146101205780632873e73c146101425780634048a2571461016257806347e7ef24146101925780635956efef146101b257806359c91a12146101d257806364a4c0c6146102025780639489ad401461022f5780639836ca3114610251578063a3bdae3e14610281578063a85d84ef146102af578063d245f478146102cf578063d28cf5c1146102ef578063d96112031461030f578063e579f5001461032f575b600080fd5b3480156100f657600080fd5b5061010a61010536600461296b565b610361565b6040516101179190612f4d565b60405180910390f35b34801561012c57600080fd5b5061014061013b36600461280b565b610389565b005b34801561014e57600080fd5b5061014061015d366004612a2c565b6104bd565b34801561016e57600080fd5b5061018261017d36600461263c565b6108cb565b6040516101179493929190612fd9565b34801561019e57600080fd5b506101406101ad36600461285d565b61098f565b3480156101be57600080fd5b506101406101cd366004612761565b610ca7565b3480156101de57600080fd5b506101f26101ed36600461296b565b610ea0565b60405161011794939291906132d7565b34801561020e57600080fd5b5061022261021d36600461285d565b610ead565b60405161011791906130f0565b34801561023b57600080fd5b50610244610edd565b60405161011791906131c3565b34801561025d57600080fd5b5061027161026c36600461296b565b610eec565b6040516101179493929190613318565b34801561028d57600080fd5b506102a161029c36600461263c565b611017565b604051610117929190612f9e565b3480156102bb57600080fd5b506101406102ca36600461288d565b611228565b3480156102db57600080fd5b506101406102ea366004612662565b61148f565b3480156102fb57600080fd5b5061014061030a366004612989565b6117a9565b34801561031b57600080fd5b5061014061032a3660046129fc565b611897565b34801561033b57600080fd5b5061034f61034a36600461296b565b611bb7565b60405161011796959493929190613281565b601680548290811061036f57fe5b600091825260209091200154600160a060020a0316905081565b33600090815260176020526040812054600160a060020a031615156103fd5750601680549081906103bd90600183016122e1565b50336016828154811015156103ce57fe5b9060005260206000200160006101000a815481600160a060020a030219169083600160a060020a031602179055505b3360009081526017602090815260408220805473ffffffffffffffffffffffffffffffffffffffff1916600160a060020a0387161781556002810192909255835161044e926001019185019061230a565b503360008181526017602052604090819020805474ff0000000000000000000000000000000000000000191660a060020a179055517f0a31ee9d46a828884b81003c8498156ea6aa15b9b54bdd0ef0b533d9eba57e55916104b0918690612f5b565b60405180910390a1505050565b600080600080336104cc612388565b600160a060020a0382811660009081526017602090815260409182902082516080810184528154948516815260a060020a90940460ff1684830152600180820180548551600261010094831615949094026000190190911692909204601f810185900485028301850186528083529294860193919290918301828280156105945780601f1061056957610100808354040283529160200191610594565b820191906000526020600020905b81548152906001019060200180831161057757829003601f168201915b5050505050815260200160028201548152505090506000816020015160ff161115156105de5760405160e560020a62461bcd0281526004016105d5906131d1565b60405180910390fd5b60015433600090815260176020526040902054600160a060020a0390811691161461061e5760405160e560020a62461bcd0281526004016105d590613241565b60009550600094505b6005851015610689576002856005811061063d57fe5b6004020154151561065057849550610689565b6002866005811061065d57fe5b60040201546002866005811061066f57fe5b6004020154101561067e578495505b600190940193610627565b436002876005811061069757fe5b600402015587600287600581106106aa57fe5b600402016003018190555060009350600092505b60165483101561085c57601a54601760006016868154811015156106de57fe5b6000918252602080832090910154600160a060020a031683528201929092526040019020600201541115610851576002866005811061071957fe5b60040201600101805480919060010161073291906122e1565b50601680548490811061074157fe5b600091825260209091200154600160a060020a03166002876005811061076357fe5b600402016001018581548110151561077757fe5b6000918252602090912001805473ffffffffffffffffffffffffffffffffffffffff1916600160a060020a0392909216919091179055600286600581106107ba57fe5b6004020160020180548091906001016107d391906122e1565b50601760006016858154811015156107e757fe5b6000918252602080832090910154600160a060020a03168352820192909252604001902060029081015490876005811061081d57fe5b600402016002018581548110151561083157fe5b60009182526020909120015561084e84600163ffffffff611c9116565b93505b6001909201916106be565b7f7047379c64ccafb62f6625e6b2d8eb6e1b0e091fac56a11ab5e2fd896e4db1d088436002896005811061088c57fe5b6004020160010160028a6005811015156108a257fe5b600402016002016040516108b99493929190613359565b60405180910390a15050505050505050565b6017602090815260009182526040918290208054600180830180548651600261010094831615949094026000190190911692909204601f8101869004860283018601909652858252600160a060020a0383169560a060020a90930460ff16949192909183018282801561097f5780601f106109545761010080835404028352916020019161097f565b820191906000526020600020905b81548152906001019060200180831161096257829003601f168201915b5050505050908060020154905084565b60008261099a612388565b600160a060020a0382811660009081526017602090815260409182902082516080810184528154948516815260a060020a90940460ff1684830152600180820180548551600261010094831615949094026000190190911692909204601f81018590048502830185018652808352929486019391929091830182828015610a625780601f10610a3757610100808354040283529160200191610a62565b820191906000526020600020905b815481529060010190602001808311610a4557829003601f168201915b5050505050815260200160028201548152505090506000816020015160ff16111515610aa35760405160e560020a62461bcd0281526004016105d5906131d1565b6000546040517fdd62ed3e0000000000000000000000000000000000000000000000000000000081523094508591600160a060020a03169063dd62ed3e90610af19089908890600401612f5b565b602060405180830381600087803b158015610b0b57600080fd5b505af1158015610b1f573d6000803e3d6000fd5b505050506040513d601f19601f82011682018060405250610b4391908101906129de565b1015610b645760405160e560020a62461bcd0281526004016105d5906131e1565b6000546040517f23b872dd000000000000000000000000000000000000000000000000000000008152600160a060020a03909116906323b872dd90610bb190889087908990600401612f76565b602060405180830381600087803b158015610bcb57600080fd5b505af1158015610bdf573d6000803e3d6000fd5b505050506040513d601f19601f82011682018060405250610c03919081019061294d565b1515610c245760405160e560020a62461bcd0281526004016105d5906131f1565b600160a060020a038516600090815260176020526040902060020154610c50908563ffffffff611c9116565b336000908152601760205260409081902060020191909155517fb3ef81558ed1a50072a492984535a009da8b129c749500b387f1e5f4886bdde590610c989087908790612fbe565b60405180910390a15050505050565b33610cb0612388565b600160a060020a0382811660009081526017602090815260409182902082516080810184528154948516815260a060020a90940460ff1684830152600180820180548551600261010094831615949094026000190190911692909204601f81018590048502830185018652808352929486019391929091830182828015610d785780601f10610d4d57610100808354040283529160200191610d78565b820191906000526020600020905b815481529060010190602001808311610d5b57829003601f168201915b5050505050815260200160028201548152505090506000816020015160ff16111515610db95760405160e560020a62461bcd0281526004016105d5906131d1565b6000808881526018602052604090206004015460a060020a900460ff166001811115610de157fe5b14610e015760405160e560020a62461bcd0281526004016105d590613201565b610e0f888888888888611ca4565b60008781526018602090815260409091208451610e349260039092019186019061230a565b5060008781526018602052604090819020600401805474ff0000000000000000000000000000000000000000191660a060020a179055517f665329bb9a4e1062edc215d9c5ab57fa54c4c88e3dfbcc68e0cd92fdd010fa6e906108b990899089908990899089906130fe565b6000806060809193509193565b601960205281600052604060002081815481101515610ec857fe5b90600052602060002001600091509150505481565b600054600160a060020a031681565b6000806060806000610efc6123bd565b610f0587611ee8565b915060028260058110610f1457fe5b60040201608060405190810160405290816000820154815260200160018201805480602002602001604051908101604052809291908181526020018280548015610f8757602002820191906000526020600020905b8154600160a060020a03168152600190910190602001808311610f69575b5050505050815260200160028201805480602002602001604051908101604052809291908181526020018280548015610fdf57602002820191906000526020600020905b815481526020019060010190808311610fcb575b5050509183525050600391909101546020918201528151606083015191830151604090930151909a9199509197509095509350505050565b6000606082611024612388565b600160a060020a0382811660009081526017602090815260409182902082516080810184528154948516815260a060020a90940460ff1684830152600180820180548551600261010094831615949094026000190190911692909204601f810185900485028301850186528083529294860193919290918301828280156110ec5780601f106110c1576101008083540402835291602001916110ec565b820191906000526020600020905b8154815290600101906020018083116110cf57829003601f168201915b5050505050815260200160028201548152505090506000816020015160ff1611151561112d5760405160e560020a62461bcd0281526004016105d5906131d1565b600160a060020a038086166000908152601760205260409020541615156111695760405160e560020a62461bcd0281526004016105d590613231565b600160a060020a038581166000908152601760209081526040918290208054600191820180548551600261010095831615959095026000190190911693909304601f81018590048502840185019095528483529416939290918391908301828280156112165780601f106111eb57610100808354040283529160200191611216565b820191906000526020600020905b8154815290600101906020018083116111f957829003601f168201915b50505050509050935093505050915091565b60005b84518110156114585760186000868381518110151561124657fe5b6020908102909101810151825281019190915260400160002060040154600160a060020a03161561128c5760405160e560020a62461bcd0281526004016105d590613251565b838181518110151561129a57fe5b906020019060200201516018600087848151811015156112b657fe5b602090810290910181015182528101919091526040016000205582518390829081106112de57fe5b906020019060200201516018600087848151811015156112fa57fe5b6020908102919091018101518252810191909152604001600020600101805473ffffffffffffffffffffffffffffffffffffffff1916600160a060020a0392909216919091179055815182908290811061135057fe5b9060200190602002015160186000878481518110151561136c57fe5b906020019060200201516000191660001916815260200190815260200160002060020181905550336018600087848151811015156113a657fe5b60209081029190910181015182528101919091526040016000908120600401805473ffffffffffffffffffffffffffffffffffffffff1916600160a060020a0393909316929092179091558551601890829088908590811061140457fe5b60209081029091018101518252810191909152604001600020600401805474ff0000000000000000000000000000000000000000191660a060020a83600181111561144b57fe5b021790555060010161122b565b7fcb8afab3437be2f96ef2a2932eb02d02fd765bfe8be7c1f5a58edd6452317dde8585858533604051610c9895949392919061308a565b60003361149a612388565b600160a060020a0382811660009081526017602090815260409182902082516080810184528154948516815260a060020a90940460ff1684830152600180820180548551600261010094831615949094026000190190911692909204601f810185900485028301850186528083529294860193919290918301828280156115625780601f1061153757610100808354040283529160200191611562565b820191906000526020600020905b81548152906001019060200180831161154557829003601f168201915b5050505050815260200160028201548152505090506000816020015160ff161115156115a35760405160e560020a62461bcd0281526004016105d5906131d1565b600092505b875183101561175f576000601860008a868151811015156115c557fe5b602090810290910181015182528101919091526040016000206004015460ff60a060020a9091041660018111156115f857fe5b146116185760405160e560020a62461bcd0281526004016105d590613201565b61169989898581518110151561162a57fe5b90602001906020020151898681518110151561164257fe5b90602001906020020151898781518110151561165a57fe5b90602001906020020151898881518110151561167257fe5b90602001906020020151898981518110151561168a57fe5b90602001906020020151611ca4565b83838151811015156116a757fe5b90602001906020020151601860008a868151811015156116c357fe5b602090810290910181015182528181019290925260400160002082516116f393600390920192919091019061230a565b506001601860008a8681518110151561170857fe5b60209081029091018101518252810191909152604001600020600401805474ff0000000000000000000000000000000000000000191660a060020a83600181111561174f57fe5b02179055506001909201916115a8565b7f7243cbab94fa1d25e0cb54fdd36b41f803ff5e5a29aaae09979a888b156b5872888888888860405161179695949392919061301e565b60405180910390a1505050505050505050565b600084815260186020526040902060040154600160a060020a0316156117e45760405160e560020a62461bcd0281526004016105d590613251565b60008481526018602052604090819020848155600181018054600160a060020a03861673ffffffffffffffffffffffffffffffffffffffff199182161790915560028201849055600490910180549091163390811774ff0000000000000000000000000000000000000000191690915590517f51364a5a527e38841b15c974f7924dad755bc9ce0d29701d7501a7bd297b787b9161188991879187918791879161314c565b60405180910390a150505050565b600060606118a36123bd565b606060008060008060008060006118b98d611ee8565b9a506118c48b611f90565b995060028b600581106118d357fe5b6004020160806040519081016040529081600082015481526020016001820180548060200260200160405190810160405280929190818152602001828054801561194657602002820191906000526020600020905b8154600160a060020a03168152600190910190602001808311611928575b505050505081526020016002820180548060200260200160405190810160405280929190818152602001828054801561199e57602002820191906000526020600020905b81548152602001906001019080831161198a575b505050505081526020016003820154815250509850601b546040519080825280602002602001820160405280156119df578160200160208202803883390190505b5097505b8751871015611ba8575b600095508589606001518e8e6040516020018085815260200184815260200183815260200182600160a060020a0316600160a060020a03166c010000000000000000000000000281526014019450505050506040516020818303038152906040526040518082805190602001908083835b60208310611a7d5780518252601f199092019160209182019101611a5e565b6001836020036101000a0380198251168184511680821785525050505050509050019150506040518091039020945089518560019004811515611abc57fe5b0693508984815181101515611acd57fe5b906020019060200201519250600091505b8751811015611b29578781815181101515611af557fe5b90602001906020020151600160a060020a031683600160a060020a03161415611b215760019150611b29565b600101611ade565b811515611b5b57828888815181101515611b3f57fe5b600160a060020a03909216602092830290910190910152611b6f565b611b6c86600163ffffffff611c9116565b95505b8787815181101515611b7d57fe5b90602001906020020151600160a060020a031660001415611b9d576119ed565b6001909601956119e3565b50505050505050505050505050565b601860209081526000918252604091829020805460018083015460028085015460038601805489516101009682161596909602600019011692909204601f81018890048802850188019098528784529396600160a060020a0390921695939493909190830182828015611c6b5780601f10611c4057610100808354040283529160200191611c6b565b820191906000526020600020905b815481529060010190602001808311611c4e57829003601f168201915b50505060049093015491925050600160a060020a0381169060ff60a060020a9091041686565b81810182811015611c9e57fe5b92915050565b600160a060020a0386166000908152601960205260408120549080821515611cec578615611ce75760405160e560020a62461bcd0281526004016105d590613221565b611d4c565b600160a060020a0389166000908152601960205260409020611d1584600163ffffffff61220d16565b81548110611d1f57fe5b6000918252602090912001548714611d4c5760405160e560020a62461bcd0281526004016105d590613211565b600160a060020a0389166000908152601960205260409020805490611d7490600183016122e1565b50600160a060020a0389166000908152601960205260409020805487919085908110611d9c57fe5b60009182526020918290200191909155604080518083018b81529181018a90526060810189905287518b938b938b938b939192608090910191908401908083835b60208310611dfc5780518252601f199092019160209182019101611ddd565b6001836020036101000a0380198251168184511680821785525050505050509050019450505050506040516020818303038152906040526040518082805190602001908083835b60208310611e625780518252601f199092019160209182019101611e43565b5181516020939093036101000a600019018019909116921691909117905260405192018290039091209450611e9d925084915086905061221f565b33600090815260176020526040902054909150600160a060020a03808316911614611edd5760405160e560020a62461bcd0281526004016105d590613261565b505050505050505050565b6000600019815b6005811015611f5d578360028260058110611f0657fe5b600402015411801590611f4c57508160000b6000191480611f4c57506002600083900b60058110611f3357fe5b600402015460028260058110611f4557fe5b6004020154115b15611f55578091505b600101611eef565b600019600083900b1415611f865760405160e560020a62461bcd0281526004016105d590613271565b5060000b92915050565b6060611f9a6123bd565b600080606081808060028960058110611faf57fe5b6004020160806040519081016040529081600082015481526020016001820180548060200260200160405190810160405280929190818152602001828054801561202257602002820191906000526020600020905b8154600160a060020a03168152600190910190602001808311612004575b505050505081526020016002820180548060200260200160405190810160405280929190818152602001828054801561207a57602002820191906000526020600020905b815481526020019060010190808311612066575b50505050508152602001600382015481525050965060009550600094505b8660200151518510156121085760208701518051869081106120b657fe5b60209081029091010151600160a060020a0316156120fd576120fa8760400151868151811015156120e357fe5b60209081029091010151879063ffffffff611c9116565b95505b600190940193612098565b85604051908082528060200260200182016040528015612132578160200160208202803883390190505b50935060009250600091505b86602001515182101561220057602087015180518390811061215c57fe5b60209081029091010151600160a060020a0316156121f5575060005b604087015180518390811061218957fe5b906020019060200201518110156121f55760208701518051839081106121ab57fe5b9060200190602002015184848151811015156121c357fe5b600160a060020a039092166020928302909101909101526121eb83600163ffffffff611c9116565b9250600101612178565b60019091019061213e565b5091979650505050505050565b60008282111561221957fe5b50900390565b6000806000808451604114151561223957600093506122d8565b50505060208201516040830151606084015160001a601b60ff8216101561225e57601b015b8060ff16601b1415801561227657508060ff16601c14155b1561228457600093506122d8565b600186828585604051600081526020016040526040516122a7949392919061318e565b60206040516020810390808403906000865af11580156122cb573d6000803e3d6000fd5b5050506020604051035193505b50505092915050565b815481835581811115612305576000838152602090206123059181019083016123e6565b505050565b828054600181600116156101000203166002900490600052602060002090601f016020900481019282601f1061234b57805160ff1916838001178555612378565b82800160010185558215612378579182015b8281111561237857825182559160200191906001019061235d565b506123849291506123e6565b5090565b6080604051908101604052806000600160a060020a03168152602001600060ff16815260200160608152602001600081525090565b608060405190810160405280600081526020016060815260200160608152602001600081525090565b61240091905b8082111561238457600081556001016123ec565b90565b600061240f823561342a565b9392505050565b6000601f8201831361242757600080fd5b813561243a612435826133c1565b61339a565b9150818183526020840193506020810190508385602084028201111561245f57600080fd5b60005b8381101561248b57816124758882612403565b8452506020928301929190910190600101612462565b5050505092915050565b6000601f820183136124a657600080fd5b81356124b4612435826133c1565b915081818352602084019350602081019050838560208402820111156124d957600080fd5b60005b8381101561248b57816124ef88826125de565b84525060209283019291909101906001016124dc565b6000601f8201831361251657600080fd5b8135612524612435826133c1565b81815260209384019390925082018360005b8381101561248b578135860161254c88826125ea565b8452506020928301929190910190600101612536565b6000601f8201831361257357600080fd5b8135612581612435826133c1565b915081818352602084019350602081019050838560208402820111156125a657600080fd5b60005b8381101561248b57816125bc88826125de565b84525060209283019291909101906001016125a9565b600061240f8251613448565b600061240f8235612400565b6000601f820183136125fb57600080fd5b8135612609612435826133e2565b9150808252602083016020830185838301111561262557600080fd5b6122d8838284613463565b600061240f8251612400565b60006020828403121561264e57600080fd5b600061265a8484612403565b949350505050565b60008060008060008060c0878903121561267b57600080fd5b60006126878989612403565b965050602087013567ffffffffffffffff8111156126a457600080fd5b6126b089828a01612495565b955050604087013567ffffffffffffffff8111156126cd57600080fd5b6126d989828a01612495565b945050606087013567ffffffffffffffff8111156126f657600080fd5b61270289828a01612495565b935050608087013567ffffffffffffffff81111561271f57600080fd5b61272b89828a01612505565b92505060a087013567ffffffffffffffff81111561274857600080fd5b61275489828a01612505565b9150509295509295509295565b60008060008060008060c0878903121561277a57600080fd5b60006127868989612403565b965050602061279789828a016125de565b95505060406127a889828a016125de565b94505060606127b989828a016125de565b935050608087013567ffffffffffffffff8111156127d657600080fd5b6127e289828a016125ea565b92505060a087013567ffffffffffffffff8111156127ff57600080fd5b61275489828a016125ea565b6000806040838503121561281e57600080fd5b600061282a8585612403565b925050602083013567ffffffffffffffff81111561284757600080fd5b612853858286016125ea565b9150509250929050565b6000806040838503121561287057600080fd5b600061287c8585612403565b9250506020612853858286016125de565b600080600080608085870312156128a357600080fd5b843567ffffffffffffffff8111156128ba57600080fd5b6128c687828801612495565b945050602085013567ffffffffffffffff8111156128e357600080fd5b6128ef87828801612562565b935050604085013567ffffffffffffffff81111561290c57600080fd5b61291887828801612416565b925050606085013567ffffffffffffffff81111561293557600080fd5b61294187828801612562565b91505092959194509250565b60006020828403121561295f57600080fd5b600061265a84846125d2565b60006020828403121561297d57600080fd5b600061265a84846125de565b6000806000806080858703121561299f57600080fd5b60006129ab87876125de565b94505060206129bc878288016125de565b93505060406129cd87828801612403565b9250506060612941878288016125de565b6000602082840312156129f057600080fd5b600061265a8484612630565b60008060408385031215612a0f57600080fd5b6000612a1b85856125de565b925050602061285385828601612403565b60008060408385031215612a3f57600080fd5b600061282a85856125de565b612a548161342a565b82525050565b6000612a658261341c565b808452602084019350612a778361340a565b60005b82811015612aa757612a8d868351612a4b565b612a968261340a565b602096909601959150600101612a7a565b5093949350505050565b6000612abc82613420565b808452602084019350612ace83613410565b60005b82811015612aa757612ae4868354612a4b565b612aed82613424565b602096909601959150600101612ad1565b6000612b098261341c565b808452602084019350612b1b8361340a565b60005b82811015612aa757612b31868351612c4c565b612b3a8261340a565b602096909601959150600101612b1e565b6000612b568261341c565b80845260208401935083602082028501612b6f8561340a565b60005b84811015612ba6578383038852612b8a838351612c55565b9250612b958261340a565b602098909801979150600101612b72565b50909695505050505050565b6000612bbd8261341c565b808452602084019350612bcf8361340a565b60005b82811015612aa757612be5868351612c4c565b612bee8261340a565b602096909601959150600101612bd2565b6000612c0a82613420565b808452602084019350612c1c83613410565b60005b82811015612aa757612c32868354612c4c565b612c3b82613424565b602096909601959150600101612c1f565b612a5481612400565b6000612c608261341c565b808452612c7481602086016020860161346f565b612c7d8161349f565b9093016020019392505050565b612a548161344d565b612a5481613458565b601481527f556e7265676973746572656420776f726b65722e000000000000000000000000602082015260400190565b602681527f4e6f7420656e6f75676820746f6b656e7320616c6c6f77656420666f7220747260208201527f616e736665720000000000000000000000000000000000000000000000000000604082015260600190565b600f81527f5472616e73666572206661696c65640000000000000000000000000000000000602082015260400190565b601381527f496e76616c6964207461736b2073746174757300000000000000000000000000602082015260400190565b601e81527f496e76616c696420696e7075742073746174652064656c746120686173680000602082015260400190565b602e81527f496e76616c696420696e7075742073746174652064656c74612068617368206660208201527f6f7220656d707479207374617465000000000000000000000000000000000000604082015260600190565b601581527f576f726b6572206e6f7420726567697374657265640000000000000000000000602082015260400190565b602681527f4f6e6c7920746865205072696e636970616c2063616e2075706461746520746860208201527f6520736565640000000000000000000000000000000000000000000000000000604082015260600190565b601381527f5461736b20616c72656164792065786973742e00000000000000000000000000602082015260400190565b601281527f496e76616c6964207369676e61747572652e0000000000000000000000000000602082015260400190565b603681527f4e6f20776f726b65727320706172616d657465727320656e74727920666f722060208201527f73706563696669656420626c6f636b206e756d62657200000000000000000000604082015260600190565b612a5481613442565b60208101611c9e8284612a4b565b60408101612f698285612a4b565b61240f6020830184612a4b565b60608101612f848286612a4b565b612f916020830185612a4b565b61265a6040830184612c4c565b60408101612fac8285612a4b565b818103602083015261265a8184612c55565b60408101612fcc8285612a4b565b61240f6020830184612c4c565b60808101612fe78287612a4b565b612ff46020830186612f44565b81810360408301526130068185612c55565b90506130156060830184612c4c565b95945050505050565b60a0808252810161302f8188612afe565b905081810360208301526130438187612afe565b905081810360408301526130578186612afe565b9050818103606083015261306b8185612b4b565b9050818103608083015261307f8184612b4b565b979650505050505050565b60a0808252810161309b8188612afe565b905081810360208301526130af8187612bb2565b905081810360408301526130c38186612a5a565b905081810360608301526130d78185612bb2565b90506130e66080830184612a4b565b9695505050505050565b60208101611c9e8284612c4c565b60a0810161310c8288612c4c565b6131196020830187612c4c565b6131266040830186612c4c565b81810360608301526131388185612c55565b9050818103608083015261307f8184612c55565b60a0810161315a8288612c4c565b6131676020830187612c4c565b6131746040830186612a4b565b6131816060830185612c4c565b6130e66080830184612a4b565b6080810161319c8287612c4c565b6131a96020830186612f44565b6131b66040830185612c4c565b6130156060830184612c4c565b60208101611c9e8284612c8a565b60208082528101611c9e81612c9c565b60208082528101611c9e81612ccc565b60208082528101611c9e81612d22565b60208082528101611c9e81612d52565b60208082528101611c9e81612d82565b60208082528101611c9e81612db2565b60208082528101611c9e81612e08565b60208082528101611c9e81612e38565b60208082528101611c9e81612e8e565b60208082528101611c9e81612ebe565b60208082528101611c9e81612eee565b60c0810161328f8289612c4c565b61329c6020830188612a4b565b6132a96040830187612c4c565b81810360608301526132bb8186612c55565b90506132ca6080830185612a4b565b61307f60a0830184612c93565b608081016132e58287612c4c565b6132f26020830186612c4c565b81810360408301526133048185612a5a565b905081810360608301526130e68184612a5a565b608081016133268287612c4c565b6133336020830186612c4c565b81810360408301526133458185612a5a565b905081810360608301526130e68184612bb2565b608081016133678287612c4c565b6133746020830186612c4c565b81810360408301526133868185612ab1565b905081810360608301526130e68184612bff565b60405181810167ffffffffffffffff811182821017156133b957600080fd5b604052919050565b600067ffffffffffffffff8211156133d857600080fd5b5060209081020190565b600067ffffffffffffffff8211156133f957600080fd5b506020601f91909101601f19160190565b60200190565b60009081526020902090565b5190565b5490565b60010190565b600160a060020a031690565b60006002821061238457fe5b60ff1690565b151590565b6000611c9e8261342a565b6000611c9e82613436565b82818337506000910152565b60005b8381101561348a578181015183820152602001613472565b83811115613499576000848401525b50505050565b601f01601f1916905600a265627a7a723058204787e9339136d6bf0979ff9165bec91f80fd1f460f5ee7b2417eaaec6f3969676c6578706572696d656e74616cf50037",
  "source": "pragma solidity ^0.4.24;\npragma experimental ABIEncoderV2;\n\nimport \"openzeppelin-solidity/contracts/math/SafeMath.sol\";\nimport \"openzeppelin-solidity/contracts/ECRecovery.sol\";\nimport \"openzeppelin-solidity/contracts/token/ERC20/StandardToken.sol\";\nimport \"./EnigmaToken.sol\";\n\n\ncontract Enigma {\n    using SafeMath for uint256;\n    using ECRecovery for bytes32;\n\n    // The interface of the deployed ENG ERC20 token contract\n    EnigmaToken public engToken;\n\n    struct TaskRecord {\n        bytes32 taskId;\n        uint fee;\n        address token;\n        uint tokenValue;\n        address sender;\n    }\n\n    struct TaskReceipt {\n        bytes32 taskId;\n        bytes32 inStateDeltaHash;\n        bytes32 outStateDeltaHash;\n        bytes ethCall;\n        bytes sig;\n    }\n\n    struct Task {\n        uint fee;\n        address token;\n        uint tokenValue;\n        bytes proof; // Signature of (taskId, inStateDeltaHash, outStateDeltaHash, ethCall)\n        address sender;\n        TaskStatus status;\n    }\n    enum TaskStatus {RecordCreated, ReceiptVerified}\n\n    /**\n    * The signer address of the principal node\n    * This must be set when deploying the contract and remains immutable\n    * Since the signer address is derived from the public key of an\n    * SGX enclave, this ensures that the principal node cannot be tempered\n    * with or replaced.\n    */\n    address principal;\n\n    // The data representation of a worker (or node)\n    struct Worker {\n        address signer;\n        uint8 status; // Uninitialized: 0; Active: 1; Inactive: 2\n        bytes report; // Decided to store this as one  RLP encoded attribute for easier external storage in the future\n        uint256 balance;\n    }\n\n    /**\n    * The data representation of the worker parameters used as input for\n    * the worker selection algorithm\n    */\n    struct WorkersParams {\n        uint firstBlockNumber;\n        address[] workers;\n        uint[] balances;\n        uint seed;\n    }\n\n    /**\n    * The last 5 worker parameters\n    * We keep a collection of worker parameters to account for latency issues.\n    * A computation task might be conceivably given out at a certain block number\n    * but executed at a later block in a different epoch. It follows that\n    * the contract must have access to the worker parameters effective when giving\n    * out the task, otherwise the selected worker would not match. We calculated\n    * that keeping the last 5 items should be more than enough to account for\n    * all latent tasks. Tasks results will be rejected past this limit.\n    */\n    WorkersParams[5] workersParams;\n\n    // An address-based index of all registered worker\n    address[] public workerAddresses;\n\n    // A registry of all registered workers with their attributes\n    mapping(address => Worker) public workers;\n    // A registry of all active and historical tasks with their attributes\n    // TODO: do we keep tasks forever? if not, when do we delete them?\n    mapping(bytes32 => Task) public tasks;\n    mapping(address => bytes32[]) public stateDeltaHashes;\n    uint stakingThreshold = 0;\n    uint workerGroupSize = 0;\n\n    // The events emitted by the contract\n    event Registered(address custodian, address signer);\n    event ValidatedSig(bytes sig, bytes32 hash, address workerAddr);\n    event WorkersParameterized(uint seed, uint256 blockNumber, address[] workers, uint[] balances);\n    event TaskRecordCreated(bytes32 taskId, uint fee, address token, uint tokenValue, address sender);\n    event TaskRecordsCreated(bytes32[] taskIds, uint[] fees, address[] tokens, uint[] tokenValues, address sender);\n    event ReceiptVerified(bytes32 taskId, bytes32 inStateDeltaHash, bytes32 outStateDeltaHash, bytes ethCall, bytes sig);\n    event ReceiptsVerified(bytes32[] taskIds, bytes32[] inStateDeltaHashes, bytes32[] outStateDeltaHashes, bytes[] ethCalls, bytes[] sigs);\n    event DepositSuccessful(address from, uint value);\n\n    constructor(address _tokenAddress, address _principal) public {\n        engToken = EnigmaToken(_tokenAddress);\n        principal = _principal;\n    }\n\n    /**\n    * Checks if the custodian wallet is registered as a worker\n    *\n    * @param user The custodian address of the worker\n    */\n    modifier workerRegistered(address user) {\n        Worker memory worker = workers[user];\n        require(worker.status > 0, \"Unregistered worker.\");\n        _;\n    }\n\n    /**\n    * Registers a new worker of change the signer parameters of an existing\n    * worker. This should be called by every worker (and the principal)\n    * node in order to receive tasks.\n    *\n    * @param signer The signer address, derived from the enclave public key\n    * @param report The RLP encoded report returned by the IAS\n    */\n    function register(address signer, bytes report)\n    public\n    {\n        // TODO: consider exit if both signer and custodian as matching\n        // If the custodian is not already register, we add an index entry\n        if (workers[msg.sender].signer == 0x0) {\n            uint index = workerAddresses.length;\n            workerAddresses.length++;\n            workerAddresses[index] = msg.sender;\n        }\n\n        // Set the custodian attributes\n        workers[msg.sender].signer = signer;\n        workers[msg.sender].balance = 0;\n        workers[msg.sender].report = report;\n        workers[msg.sender].status = 1;\n\n        emit Registered(msg.sender, signer);\n    }\n\n    function deposit(address custodian, uint amount)\n    public\n    workerRegistered(custodian)\n    {\n        address to = address(this);\n        require(engToken.allowance(custodian, to) >= amount, \"Not enough tokens allowed for transfer\");\n        require(engToken.transferFrom(custodian, to, amount), \"Transfer failed\");\n\n        workers[msg.sender].balance = workers[custodian].balance.add(amount);\n\n        emit DepositSuccessful(custodian, amount);\n    }\n\n    /**\n    * Store task record\n    *\n    */\n    function createTaskRecord(\n        bytes32 taskId,\n        uint fee,\n        address token,\n        uint tokenValue\n    )\n    public\n    {\n        require(tasks[taskId].sender == 0x0, \"Task already exist.\");\n\n        tasks[taskId].fee = fee;\n        tasks[taskId].token = token;\n        tasks[taskId].tokenValue = tokenValue;\n        tasks[taskId].sender = msg.sender;\n        tasks[taskId].status = TaskStatus.RecordCreated;\n\n        emit TaskRecordCreated(taskId, fee, token, tokenValue, msg.sender);\n    }\n\n    function createTaskRecords(\n        bytes32[] taskIds,\n        uint[] fees,\n        address[] tokens,\n        uint[] tokenValues\n    )\n    public\n    {\n        for (uint i = 0; i < taskIds.length; i++) {\n            require(tasks[taskIds[i]].sender == 0x0, \"Task already exist.\");\n\n            tasks[taskIds[i]].fee = fees[i];\n            tasks[taskIds[i]].token = tokens[i];\n            tasks[taskIds[i]].tokenValue = tokenValues[i];\n            tasks[taskIds[i]].sender = msg.sender;\n            tasks[taskIds[i]].status = TaskStatus.RecordCreated;\n        }\n        emit TaskRecordsCreated(taskIds, fees, tokens, tokenValues, msg.sender);\n    }\n\n    // Execute the encoded function in the specified contract\n    function executeCall(address to, uint256 value, bytes data)\n    internal\n    returns (bool success)\n    {\n        assembly {\n            success := call(gas, to, value, add(data, 0x20), mload(data), 0, 0)\n        }\n    }\n\n    function verifyReceipt(\n        address scAddr,\n        bytes32 taskId,\n        bytes32 inStateDeltaHash,\n        bytes32 outStateDeltaHash,\n        bytes ethCall,\n        bytes sig\n    )\n    internal\n    {\n        uint index = stateDeltaHashes[scAddr].length;\n        if (index == 0) {\n            require(inStateDeltaHash == 0x0, 'Invalid input state delta hash for empty state');\n        } else {\n            require(inStateDeltaHash == stateDeltaHashes[scAddr][index.sub(1)], 'Invalid input state delta hash');\n        }\n        stateDeltaHashes[scAddr].length++;\n        stateDeltaHashes[scAddr][index] = outStateDeltaHash;\n\n        // TODO: execute the Ethereum calls\n\n        // Build a hash to validate that the I/Os are matching\n        bytes32 hash = keccak256(abi.encodePacked(taskId, inStateDeltaHash, outStateDeltaHash, ethCall));\n\n        // The worker address is not a real Ethereum wallet address but\n        // one generated from its signing key\n        address workerAddr = hash.recover(sig);\n        require(workerAddr == workers[msg.sender].signer, \"Invalid signature.\");\n    }\n\n    /**\n    * Commit the computation task results on chain\n    */\n    function commitReceipt(\n        address scAddr,\n        bytes32 taskId,\n        bytes32 inStateDeltaHash,\n        bytes32 outStateDeltaHash,\n        bytes ethCall,\n        bytes sig\n    )\n    public\n    workerRegistered(msg.sender)\n    {\n        require(tasks[taskId].status == TaskStatus.RecordCreated, 'Invalid task status');\n        verifyReceipt(scAddr, taskId, inStateDeltaHash, outStateDeltaHash, ethCall, sig);\n\n        tasks[taskId].proof = sig;\n        tasks[taskId].status = TaskStatus.ReceiptVerified;\n        emit ReceiptVerified(taskId, inStateDeltaHash, outStateDeltaHash, ethCall, sig);\n    }\n\n    function commitReceipts(\n        address scAddr,\n        bytes32[] taskIds,\n        bytes32[] inStateDeltaHashes,\n        bytes32[] outStateDeltaHashes,\n        bytes[] ethCalls,\n        bytes[] sigs\n    )\n    public\n    workerRegistered(msg.sender)\n    {\n        for (uint i = 0; i < taskIds.length; i++) {\n            // TODO: consider aggregate signature\n            require(tasks[taskIds[i]].status == TaskStatus.RecordCreated, 'Invalid task status');\n            verifyReceipt(scAddr, taskIds[i], inStateDeltaHashes[i], outStateDeltaHashes[i], ethCalls[i], sigs[i]);\n\n            tasks[taskIds[i]].proof = sigs[i];\n            tasks[taskIds[i]].status = TaskStatus.ReceiptVerified;\n        }\n        emit ReceiptsVerified(taskIds, inStateDeltaHashes, outStateDeltaHashes, ethCalls, sigs);\n    }\n\n    // Verify the signature submitted while reparameterizing workers\n    function verifyParamsSig(uint256 seed, bytes sig)\n    internal\n    pure\n    returns (address)\n    {\n        bytes32 hash = keccak256(abi.encodePacked(seed));\n        address signer = hash.recover(sig);\n        return signer;\n    }\n\n    /**\n    * Reparameterizing workers with a new seed\n    * This should be called for each epoch by the Principal node\n    *\n    * @param seed The random integer generated by the enclave\n    * @param sig The random integer signed by the the principal node's enclave\n    */\n    function setWorkersParams(uint seed, bytes sig)\n    public\n    workerRegistered(msg.sender)\n    {\n        // Reparameterizing workers with a new seed\n        // This should be called for each epoch by the Principal node\n\n        // We assume that the Principal is always the first registered node\n        require(workers[msg.sender].signer == principal, \"Only the Principal can update the seed\");\n        // TODO: verify the principal sig\n\n        // Create a new workers parameters item for the specified seed.\n        // The workers parameters list is a sort of cache, it never grows beyond its limit.\n        // If the list is full, the new item will replace the item assigned to the lowest block number.\n        uint paramIndex = 0;\n        for (uint pi = 0; pi < workersParams.length; pi++) {\n            // Find an empty slot in the array, if full use the lowest block number\n            if (workersParams[pi].firstBlockNumber == 0) {\n                paramIndex = pi;\n                break;\n            } else if (workersParams[pi].firstBlockNumber < workersParams[paramIndex].firstBlockNumber) {\n                paramIndex = pi;\n            }\n        }\n        workersParams[paramIndex].firstBlockNumber = block.number;\n        workersParams[paramIndex].seed = seed;\n\n        // Copy the current worker list\n        uint workerIndex = 0;\n        for (uint wi = 0; wi < workerAddresses.length; wi++) {\n            if (workers[workerAddresses[wi]].balance > stakingThreshold) {\n                workersParams[paramIndex].workers.length++;\n                workersParams[paramIndex].workers[workerIndex] = workerAddresses[wi];\n\n                workersParams[paramIndex].balances.length++;\n                workersParams[paramIndex].balances[workerIndex] = workers[workerAddresses[wi]].balance;\n\n                workerIndex = workerIndex.add(1);\n            }\n        }\n        emit WorkersParameterized(seed, block.number, workersParams[paramIndex].workers, workersParams[paramIndex].balances);\n    }\n\n    function getWorkerParamsIndex(uint blockNumber)\n    internal\n    view\n    returns (uint)\n    {\n        // The workers parameters for a given block number\n        int8 index = - 1;\n        for (uint i = 0; i < workersParams.length; i++) {\n            if (workersParams[i].firstBlockNumber <= blockNumber && (index == - 1 || workersParams[i].firstBlockNumber > workersParams[uint(index)].firstBlockNumber)) {\n                index = int8(i);\n            }\n        }\n        require(index != - 1, \"No workers parameters entry for specified block number\");\n        return uint(index);\n    }\n\n    function getWorkerParams(uint blockNumber)\n    public\n    view\n    returns (uint, uint, address[], uint[]) {\n        uint index = getWorkerParamsIndex(blockNumber);\n        WorkersParams memory params = workersParams[index];\n        return (params.firstBlockNumber, params.seed, params.workers, params.balances);\n    }\n\n    function compileTokens(uint paramIndex)\n    internal\n    view\n    returns (address[])\n    {\n        WorkersParams memory params = workersParams[paramIndex];\n        uint tokenCpt = 0;\n        for (uint i = 0; i < params.workers.length; i++) {\n            if (params.workers[i] != 0x0) {\n                tokenCpt = tokenCpt.add(params.balances[i]);\n            }\n        }\n        address[] memory tokens = new address[](tokenCpt);\n        uint tokenIndex = 0;\n        for (uint ia = 0; ia < params.workers.length; ia++) {\n            if (params.workers[ia] != 0x0) {\n                for (uint ib = 0; ib < params.balances[ia]; ib++) {\n                    tokens[tokenIndex] = params.workers[ia];\n                    tokenIndex = tokenIndex.add(1);\n                }\n            }\n        }\n        return tokens;\n    }\n\n    function getWorkerGroup(uint blockNumber, address scAddr)\n    public\n    {\n        // Compile a list of selected workers for the block number and\n        // secret contract.\n        uint paramIndex = getWorkerParamsIndex(blockNumber);\n        address[] memory tokens = compileTokens(paramIndex);\n        WorkersParams memory params = workersParams[paramIndex];\n\n        address[] memory selectedWorkers = new address[](workerGroupSize);\n        for (uint it; it < selectedWorkers.length; it++) {\n            do {\n                uint nonce = 0;\n                bytes32 hash = keccak256(abi.encodePacked(nonce, params.seed, blockNumber, scAddr));\n                uint index = uint256(hash) % tokens.length;\n                address worker = tokens[index];\n                bool dup = false;\n                for (uint id; id < selectedWorkers.length; id++) {\n                    if (worker == selectedWorkers[id]) {\n                        dup = true;\n                        break;\n                    }\n                }\n                if (dup == false) {\n                    selectedWorkers[it] = worker;\n                } else {\n                    nonce = nonce.add(1);\n                }\n            }\n            while (selectedWorkers[it] == 0x0);\n        }\n    }\n\n    /**\n    * The worker parameters corresponding to the specified block number\n    *\n    * @param blockNumber The reference block number\n    */\n    function getWorkersParams(uint blockNumber)\n    public\n    view\n    returns (uint, uint, address[], address[])\n    {\n        uint firstBlockNumber = 0;\n        uint seed = 0;\n        address[] memory activeWorkers;\n        address[] memory activeContracts;\n        return (firstBlockNumber, seed, activeWorkers, activeContracts);\n    }\n\n    /**\n    * The RLP encoded report returned by the IAS server\n    *\n    * @param custodian The worker's custodian address\n    */\n    function getReport(address custodian)\n    public\n    view\n    workerRegistered(custodian)\n    returns (address, bytes)\n    {\n        // The RLP encoded report and signer's address for the specified worker\n        require(workers[custodian].signer != 0x0, \"Worker not registered\");\n        return (workers[custodian].signer, workers[custodian].report);\n    }\n}\n",
  "sourcePath": "/home/fredfortier/Code/Enigma/discovery/enigma-contract/contracts/Enigma.sol",
  "compiler": {
    "name": "solc",
    "version": "0.4.24+commit.e67f0147.Emscripten.clang"
  },
  "schemaVersion": "2.0.0",
  "updatedAt": "2018-10-05T01:02:13.146Z"
}