{
  "contractName": "GetCode",
  "abi": [
    {
      "constant": true,
      "inputs": [
        {
          "name": "_addr",
          "type": "address"
        }
      ],
      "name": "at",
      "outputs": [
        {
          "name": "o_code",
          "type": "bytes"
        }
      ],
      "payable": false,
      "stateMutability": "view",
      "type": "function"
    }
  ],
  "bytecode": "0x610163610030600b82828239805160001a6073146000811461002057610022565bfe5b5030600052607381538281f3007300000000000000000000000000000000000000003014608060405260043610610058576000357c0100000000000000000000000000000000000000000000000000000000900463ffffffff168063dce4a4471461005d575b600080fd5b610091600480360381019080803573ffffffffffffffffffffffffffffffffffffffff16906020019092919050505061010c565b6040518080602001828103825283818151815260200191508051906020019080838360005b838110156100d15780820151818401526020810190506100b6565b50505050905090810190601f1680156100fe5780820380516001836020036101000a031916815260200191505b509250505060405180910390f35b6060813b6040519150601f19601f602083010116820160405280825280600060208401853c509190505600a165627a7a723058200fae990b5a50b8184d248bdfe1bfba2064cb1a6356c897c287915bdbe7b0765b0029",
  "source": "pragma solidity ^0.4.22;\n\nimport \"./zeppelin/SafeMath.sol\";\n\nlibrary GetCode {\n    function at(address _addr) public view returns (bytes o_code) {\n        assembly {\n            // retrieve the size of the code, this needs assembly\n            let size := extcodesize(_addr)\n            // allocate output byte array - this could also be done without assembly\n            // by using o_code = new bytes(size)\n            o_code := mload(0x40)\n            // new \"memory end\" including padding\n            mstore(0x40, add(o_code, and(add(add(size, 0x20), 0x1f), not(0x1f))))\n            // store length in memory\n            mstore(o_code, size)\n            // actually retrieve the code, this needs assembly\n            extcodecopy(_addr, add(o_code, 0x20), 0, size)\n        }\n    }\n}\n\ncontract Enigma {\n    using SafeMath for uint256;\n\n    struct Task {\n        bytes32 callable;\n        bytes32[] callableArgs;\n        bytes32 callback;\n        address worker;\n        bytes32 proof;\n        uint reward;\n    }\n\n    struct Worker {\n        bytes32 url;\n        string pkey;\n        string quote;\n        uint256 balance;\n        uint rate; // TODO: we don't want this\n        uint status; // Uninitialized: 0; Inactive:1; Active: 2\n    }\n\n    address[] public workerIndex;\n    mapping(address => Worker) public workers;\n    mapping(address => Task[]) public tasks;\n\n    event Register(bytes32 url, address user, string pkey, uint rate, bool _success);\n    event Login(address user, bool _success);\n    event Logout(address user, bool _success);\n    event UpdateRate(address user, uint rate, bool _success);\n    event Deposit(address secretContract, address user, uint amount, uint balance, bool _success);\n    event Withdraw(address user, uint amount, uint balance, bool _success);\n    event SolveTask(address secretContract, address worker, bytes32 proof, uint reward, bool _success);\n\n    // Enigma computation task\n    event ComputeTask(address callingContract, uint taskId, bytes32 callable, bytes32[] callableArgs, bytes32 callback, uint fee, bytes32[] preprocessors, bool _success);\n\n    enum ReturnValue {Ok, Error}\n\n//    function Enigma() public {\n//\n//    }\n\n    modifier workerRegistered(address user) {\n        Worker memory worker = workers[user];\n        require(worker.status > 0, \"Unregistered worker.\");\n        _;\n    }\n\n    function register(bytes32 url, string pkey, uint rate)\n    public\n    payable\n    returns (ReturnValue) {\n        // Register a new worker and deposit stake\n        // require(workers[msg.sender].status == 0, \"Worker already register.\");\n\n        workerIndex.push(msg.sender);\n\n        workers[msg.sender].url = url;\n        workers[msg.sender].pkey = pkey;\n        workers[msg.sender].balance = msg.value;\n        workers[msg.sender].rate = rate;\n        workers[msg.sender].status = 1;\n\n        emit Register(url, msg.sender, pkey, rate, true);\n\n        return ReturnValue.Ok;\n    }\n\n    //TODO: we don't want this\n    function login(string quote)\n    public\n    workerRegistered(msg.sender)\n    returns (ReturnValue) {\n        // The worker is ready to receive tasks\n\n        // TODO: validate quote signature here\n        workers[msg.sender].quote = quote;\n        workers[msg.sender].status = 2;\n\n        emit Login(msg.sender, true);\n\n        return ReturnValue.Ok;\n    }\n\n    //TODO: we don't want this\n    function logout()\n    public\n    workerRegistered(msg.sender)\n    returns (ReturnValue) {\n        // A worker stops accepting tasks\n        workers[msg.sender].status = 1;\n\n        emit Logout(msg.sender, true);\n\n        return ReturnValue.Ok;\n    }\n\n    //TODO: we don't want this\n    function updateRate(uint rate)\n    public\n    workerRegistered(msg.sender)\n    returns (ReturnValue) {\n        // Update the ENG/GAS rate\n        workers[msg.sender].rate = rate;\n\n        emit UpdateRate(msg.sender, rate, true);\n\n        return ReturnValue.Ok;\n    }\n\n    //TODO: we don't want this\n    function withdraw(uint amount)\n    public\n    workerRegistered(msg.sender)\n    returns (ReturnValue) {\n        // Withdraw from stake and rewards balance\n        Worker storage worker = workers[msg.sender];\n        require(worker.balance > amount, \"Not enough funds to withdraw.\");\n\n        worker.balance = worker.balance.sub(amount);\n        msg.sender.transfer(amount);\n\n        emit Withdraw(msg.sender, amount, worker.balance, true);\n\n        return ReturnValue.Ok;\n    }\n\n    function compute(address secretContract, bytes32 callable, bytes32[] callableArgs, bytes32 callback, bytes32[] preprocessors)\n    public\n    payable\n    returns (ReturnValue) {\n        // Each task invoked by a contract has a sequential id\n        uint taskId = tasks[secretContract].length;\n        tasks[secretContract].length++;\n        tasks[secretContract][taskId].reward = msg.value;\n        tasks[secretContract][taskId].callable = callable;\n        tasks[secretContract][taskId].callableArgs = callableArgs;\n        tasks[secretContract][taskId].callback = callback;\n\n        // Emit the ComputeTask event which each node is watching for\n        emit ComputeTask(secretContract, taskId, callable, callableArgs, callback, msg.value, preprocessors, true);\n\n        return ReturnValue.Ok;\n    }\n\n    function solveTask(address secretContract, uint taskId, bytes32[] results, bytes32 proof)\n    public\n    workerRegistered(msg.sender)\n    returns (ReturnValue) {\n        // Task must be solved only once\n        require(tasks[secretContract][taskId].worker == address(0), \"Task already solved.\");\n\n        // The contract must hold enough fund to distribute reward\n        // TODO: validate that the reward matches the opcodes computed\n        uint reward = tasks[secretContract][taskId].reward;\n        require(reward > 0, \"Reward cannot be zero.\");\n\n        // Keep a trace of the task worker and proof\n        tasks[secretContract][taskId].worker = msg.sender;\n        tasks[secretContract][taskId].proof = proof;\n\n        // Put the reward in the worker's bank\n        // He can withdraw later\n        Worker storage worker = workers[msg.sender];\n        worker.balance = worker.balance.add(reward);\n\n        emit SolveTask(secretContract, msg.sender, proof, reward, true);\n\n        return ReturnValue.Ok;\n    }\n}\n",
  "sourcePath": "/Users/fredfortier/Code/enigma/mvp0/coin-mixer-poc/dapp/contracts/Enigma.sol",
  "compiler": {
    "name": "solc",
    "version": "0.4.23+commit.124ca40d.Emscripten.clang"
  },
  "schemaVersion": "2.0.0",
  "updatedAt": "2018-04-24T18:20:16.294Z"
}