{
  "contractName": "SolRsaVerify",
  "abi": [
    {
      "constant": true,
      "inputs": [
        {
          "name": "_sha256",
          "type": "bytes32"
        },
        {
          "name": "_s",
          "type": "bytes"
        },
        {
          "name": "_e",
          "type": "bytes"
        },
        {
          "name": "_m",
          "type": "bytes"
        }
      ],
      "name": "pkcs1Sha256Verify",
      "outputs": [
        {
          "name": "",
          "type": "uint256"
        }
      ],
      "payable": false,
      "stateMutability": "view",
      "type": "function",
      "signature": "0xa1a8858f"
    },
    {
      "constant": true,
      "inputs": [
        {
          "name": "_data",
          "type": "bytes"
        },
        {
          "name": "_s",
          "type": "bytes"
        },
        {
          "name": "_e",
          "type": "bytes"
        },
        {
          "name": "_m",
          "type": "bytes"
        }
      ],
      "name": "pkcs1Sha256VerifyRaw",
      "outputs": [
        {
          "name": "",
          "type": "uint256"
        }
      ],
      "payable": false,
      "stateMutability": "view",
      "type": "function",
      "signature": "0x2ae0783d"
    }
  ],
  "bytecode": "0x6109a8610030600b82828239805160001a6073146000811461002057610022565bfe5b5030600052607381538281f3fe73000000000000000000000000000000000000000030146080604052600436106100625763ffffffff7c01000000000000000000000000000000000000000000000000000000006000350416632ae0783d8114610067578063a1a8858f146102b4575b600080fd5b6102a26004803603608081101561007d57600080fd5b81019060208101813564010000000081111561009857600080fd5b8201836020820111156100aa57600080fd5b803590602001918460018302840111640100000000831117156100cc57600080fd5b91908080601f016020809104026020016040519081016040528093929190818152602001838380828437600092019190915250929594936020810193503591505064010000000081111561011f57600080fd5b82018360208201111561013157600080fd5b8035906020019184600183028401116401000000008311171561015357600080fd5b91908080601f01602080910402602001604051908101604052809392919081815260200183838082843760009201919091525092959493602081019350359150506401000000008111156101a657600080fd5b8201836020820111156101b857600080fd5b803590602001918460018302840111640100000000831117156101da57600080fd5b91908080601f016020809104026020016040519081016040528093929190818152602001838380828437600092019190915250929594936020810193503591505064010000000081111561022d57600080fd5b82018360208201111561023f57600080fd5b8035906020019184600183028401116401000000008311171561026157600080fd5b91908080601f01602080910402602001604051908101604052809392919081815260200183838082843760009201919091525092955061046f945050505050565b60408051918252519081900360200190f35b6102a2600480360360808110156102ca57600080fd5b813591908101906040810160208201356401000000008111156102ec57600080fd5b8201836020820111156102fe57600080fd5b8035906020019184600183028401116401000000008311171561032057600080fd5b91908080601f016020809104026020016040519081016040528093929190818152602001838380828437600092019190915250929594936020810193503591505064010000000081111561037357600080fd5b82018360208201111561038557600080fd5b803590602001918460018302840111640100000000831117156103a757600080fd5b91908080601f01602080910402602001604051908101604052809392919081815260200183838082843760009201919091525092959493602081019350359150506401000000008111156103fa57600080fd5b82018360208201111561040c57600080fd5b8035906020019184600183028401116401000000008311171561042e57600080fd5b91908080601f01602080910402602001604051908101604052809392919081815260200183838082843760009201919091525092955061050f945050505050565b60006105046002866040518082805190602001908083835b602083106104a65780518252601f199092019160209182019101610487565b51815160209384036101000a60001901801990921691161790526040519190930194509192505080830381855afa1580156104e5573d6000803e3d6000fd5b5050506040513d60208110156104fa57600080fd5b505185858561050f565b90505b949350505050565b600061051961095c565b5060408051610260810182526030808252603160208084019190915292820152600d60608083019190915260066080830152600960a083015260c0820152608660e0820152604861010082015260016101208201819052606561014083015260036101608301526004610180830181905260026101a08401526101c083019190915260056101e083015260006102008301526102208201526102408101919091528251603e11156105c957600080fd5b600060606105d8878787610855565b8051865160408051828152601f19601f8401168101602001909152929350909160609082801561060f576020820181803883390190505b5090508160208201846020870160056107d05a03fa5080516035198301908290600090811061063a57fe5b60209101015160f860020a9081900402600160f860020a03191615158061068d575081600181518110151561066b57fe5b90602001015160f860020a900460f860020a0260f860020a900460ff16600114155b156106a2576001975050505050505050610507565b600295505b806002018610156106fc5781868151811015156106c057fe5b0160200151600160f860020a031960f860020a918290049091028116146106f1576002975050505050505050610507565b6001909501946106a7565b818160020181518110151561070d57fe5b60209101015160f860020a9081900402600160f860020a0319161561073c576003975050505050505050610507565b600095505b60138610156107b05786866013811061075657fe5b602002015160ff168287836003010181518110151561077157fe5b90602001015160f860020a900460f860020a0260f860020a900460ff161415156107a5576004975050505050505050610507565b600190950194610741565b600095505b6020861015610843578b86602081106107ca57fe5b1a60f860020a027effffffffffffffffffffffffffffffffffffffffffffffffffffffffffffff19168287601384600301010181518110151561080957fe5b60209101015160f860020a9081900402600160f860020a03191614610838576005975050505050505050610507565b6001909501946107b5565b5060009b9a5050505050505050505050565b60606000825184518651606001010190506000855190506000855190506000855190506000806000806060886040519080825280601f01601f1916602001820160405280156108ab576020820181803883390190505b50905060208d01945060208c01935060208b0192508760208201528660408201528560608201526020810191506108e782606001868f5161091e565b6108f98d518360600101858e5161091e565b61090e8c518e51846060010101848d5161091e565b9c9b505050505050505050505050565b5b6020811061093e578151835260209283019290910190601f190161091f565b905182516020929092036101000a6000190180199091169116179052565b61026060405190810160405280601390602082028038833950919291505056fea165627a7a72305820884a801e2e36cafbe5fc3bac9005f6f9fe7840fb7d3bb462d636e9b420fd42500029",
  "source": "pragma solidity ^0.5.0;\n\n/*\n    Copyright 2016, Adrià Massanet\n\n    This program is free software: you can redistribute it and/or modify\n    it under the terms of the GNU General Public License as published by\n    the Free Software Foundation, either version 3 of the License, or\n    (at your option) any later version.\n\n    This program is distributed in the hope that it will be useful,\n    but WITHOUT ANY WARRANTY; without even the implied warranty of\n    MERCHANTABILITY or FITNESS FOR A PARTICULAR PURPOSE.  See the\n    GNU General Public License for more details.\n\n    You should have received a copy of the GNU General Public License\n    along with this program.  If not, see <http://www.gnu.org/licenses/>.\n    \n    Checked results with FIPS test vectors\n    https://csrc.nist.gov/CSRC/media/Projects/Cryptographic-Algorithm-Validation-Program/documents/dss/186-2rsatestvectors.zip\n    file SigVer15_186-3.rsp\n    \n */\n\nlibrary SolRsaVerify {\n\n    function memcpy(uint _dest, uint _src, uint _len) pure internal {\n        // Copy word-length chunks while possible\n        for ( ;_len >= 32; _len -= 32) {\n            assembly {\n                mstore(_dest, mload(_src))\n            }\n            _dest += 32;\n            _src += 32;\n        }\n\n        // Copy remaining bytes\n        uint mask = 256 ** (32 - _len) - 1;\n        assembly {\n            let srcpart := and(mload(_src), not(mask))\n            let destpart := and(mload(_dest), mask)\n            mstore(_dest, or(destpart, srcpart))\n        }\n    }\n\n    \n    function join(\n\tbytes memory _s, bytes memory _e, bytes memory _m\n    ) pure internal returns (bytes memory) {\n        uint inputLen = 0x60+_s.length+_e.length+_m.length;\n        \n        uint slen = _s.length;\n        uint elen = _e.length;\n        uint mlen = _m.length;\n        uint sptr;\n        uint eptr;\n        uint mptr;\n        uint inputPtr;\n        \n        bytes memory input = new bytes(inputLen);\n        assembly {\n            sptr := add(_s,0x20)\n            eptr := add(_e,0x20)\n            mptr := add(_m,0x20)\n            mstore(add(input,0x20),slen)\n            mstore(add(input,0x40),elen)\n            mstore(add(input,0x60),mlen)\n            inputPtr := add(input,0x20)\n        }\n        memcpy(inputPtr+0x60,sptr,_s.length);        \n        memcpy(inputPtr+0x60+_s.length,eptr,_e.length);        \n        memcpy(inputPtr+0x60+_s.length+_e.length,mptr,_m.length);\n\n        return input;\n    }\n    \n    /** @dev Verifies a PKCSv1.5 SHA256 signature\n      * @param _sha256 is the sha256 of the data\n      * @param _s is the signature\n      * @param _e is the exponent\n      * @param _m is the modulus\n      * @return 0 if success, >0 otherwise\n    */    \n    function pkcs1Sha256Verify(\n        bytes32 _sha256,\n        bytes memory _s, bytes memory _e, bytes memory _m\n    ) public view returns (uint) {\n        \n        uint8[19] memory sha256Prefix = [\n            0x30, 0x31, 0x30, 0x0d, 0x06, 0x09, 0x60, 0x86, 0x48, 0x01, 0x65, 0x03, 0x04, 0x02, 0x01, 0x05, 0x00, 0x04, 0x20\n        ];\n        \n      \trequire(_m.length >= sha256Prefix.length+_sha256.length+11);\n\n        uint i;\n\n        /// decipher\n        bytes memory input = join(_s,_e,_m);\n        uint inputlen = input.length;\n\n        uint decipherlen = _m.length;\n        bytes memory decipher = new bytes(decipherlen);\n        assembly {\n            pop(staticcall(sub(gas, 2000), 5, add(input,0x20), inputlen, add(decipher,0x20), decipherlen))\n\t}\n        \n        /// 0x00 || 0x01 || PS || 0x00 || DigestInfo\n        /// PS is padding filled with 0xff\n        //  DigestInfo ::= SEQUENCE {\n        //     digestAlgorithm AlgorithmIdentifier,\n        //     digest OCTET STRING\n        //  }\n        \n        uint paddingLen = decipherlen - 3 - sha256Prefix.length - 32;\n        \n        if (decipher[0] != 0 || uint8(decipher[1]) != 1) {\n            return 1;\n        }\n        for (i = 2;i<2+paddingLen;i++) {\n            if (decipher[i] != 0xff) {\n                return 2;\n            }\n        }\n        if (decipher[2+paddingLen] != 0) {\n            return 3;\n        }\n        for (i = 0;i<sha256Prefix.length;i++) {\n            if (uint8(decipher[3+paddingLen+i])!=sha256Prefix[i]) {\n                return 4;\n            }\n        }\n        for (i = 0;i<_sha256.length;i++) {\n            if (decipher[3+paddingLen+sha256Prefix.length+i]!=_sha256[i]) {\n                return 5;\n            }\n        }\n\n        return 0;\n    }\n\n    /** @dev Verifies a PKCSv1.5 SHA256 signature\n      * @param _data to verify\n      * @param _s is the signature\n      * @param _e is the exponent\n      * @param _m is the modulus\n      * @return 0 if success, >0 otherwise\n    */    \n    function pkcs1Sha256VerifyRaw(\n        bytes memory _data, \n        bytes memory _s, bytes memory _e, bytes memory _m\n    ) public view returns (uint) {\n        return pkcs1Sha256Verify(sha256(_data),_s,_e,_m);\n    }\n\n}",
  "sourcePath": "/home/elichai2/gits/enigma/enigma-contract-internal/contracts/utils/SolRsaVerify.sol",
  "compiler": {
    "name": "solc",
    "version": "0.5.0+commit.1d4f565a.Emscripten.clang"
  },
  "schemaVersion": "3.0.1",
  "updatedAt": "2019-01-14T17:59:46.802Z",
  "devdoc": {
    "methods": {
      "pkcs1Sha256Verify(bytes32,bytes,bytes,bytes)": {
        "details": "Verifies a PKCSv1.5 SHA256 signature",
        "params": {
          "_e": "is the exponent",
          "_m": "is the modulus",
          "_s": "is the signature",
          "_sha256": "is the sha256 of the data"
        },
        "return": "0 if success, >0 otherwise"
      },
      "pkcs1Sha256VerifyRaw(bytes,bytes,bytes,bytes)": {
        "details": "Verifies a PKCSv1.5 SHA256 signature",
        "params": {
          "_data": "to verify",
          "_e": "is the exponent",
          "_m": "is the modulus",
          "_s": "is the signature"
        },
        "return": "0 if success, >0 otherwise"
      }
    }
  },
  "userdoc": {
    "methods": {}
  }
}